{
	"subscribe.sol": {
		"RaiseFunds": {
			"abi": [
				{
					"inputs": [],
					"stateMutability": "nonpayable",
					"type": "constructor"
				},
				{
					"inputs": [],
					"name": "SafeTrans",
					"outputs": [],
					"stateMutability": "nonpayable",
					"type": "function"
				},
				{
					"inputs": [],
					"name": "ViewPrice",
					"outputs": [
						{
							"internalType": "uint256",
							"name": "",
							"type": "uint256"
						}
					],
					"stateMutability": "view",
					"type": "function"
				},
				{
					"inputs": [
						{
							"internalType": "uint256",
							"name": "_price",
							"type": "uint256"
						}
					],
					"name": "setPrice",
					"outputs": [],
					"stateMutability": "nonpayable",
					"type": "function"
				},
				{
					"inputs": [],
					"name": "subscribe",
					"outputs": [],
					"stateMutability": "payable",
					"type": "function"
				}
			],
			"devdoc": {
				"kind": "dev",
				"methods": {},
				"version": 1
			},
			"evm": {
				"assembly": "    /* \"subscribe.sol\":7047:7966  contract  RaiseFunds{\r... */\n  mstore(0x40, 0x80)\n    /* \"subscribe.sol\":7262:7304  0xB1Cd8ad16899318DA9F0A2c9933d599eB9cdC10c */\n  0xb1cd8ad16899318da9f0a2c9933d599eb9cdc10c\n    /* \"subscribe.sol\":7234:7306  IERC20 dcf = IERC20(address(0xB1Cd8ad16899318DA9F0A2c9933d599eB9cdC10c)) */\n  0x00\n  dup1\n  0x0100\n  exp\n  dup2\n  sload\n  dup2\n  0xffffffffffffffffffffffffffffffffffffffff\n  mul\n  not\n  and\n  swap1\n  dup4\n  0xffffffffffffffffffffffffffffffffffffffff\n  and\n  mul\n  or\n  swap1\n  sstore\n  pop\n    /* \"subscribe.sol\":7329:7342  3000000000000 */\n  0x02ba7def3000\n    /* \"subscribe.sol\":7315:7342  uint price =  3000000000000 */\n  0x01\n  sstore\n    /* \"subscribe.sol\":7371:7421  constructor(){\r... */\n  callvalue\n  dup1\n  iszero\n  tag_1\n  jumpi\n  0x00\n  dup1\n  revert\ntag_1:\n  pop\n    /* \"subscribe.sol\":7403:7413  msg.sender */\n  caller\n    /* \"subscribe.sol\":7395:7400  owner */\n  0x02\n  0x00\n    /* \"subscribe.sol\":7395:7413  owner = msg.sender */\n  0x0100\n  exp\n  dup2\n  sload\n  dup2\n  0xffffffffffffffffffffffffffffffffffffffff\n  mul\n  not\n  and\n  swap1\n  dup4\n  0xffffffffffffffffffffffffffffffffffffffff\n  and\n  mul\n  or\n  swap1\n  sstore\n  pop\n    /* \"subscribe.sol\":7047:7966  contract  RaiseFunds{\r... */\n  dataSize(sub_0)\n  dup1\n  dataOffset(sub_0)\n  0x00\n  codecopy\n  0x00\n  return\nstop\n\nsub_0: assembly {\n        /* \"subscribe.sol\":7047:7966  contract  RaiseFunds{\r... */\n      mstore(0x40, 0x80)\n      jumpi(tag_1, lt(calldatasize, 0x04))\n      shr(0xe0, calldataload(0x00))\n      dup1\n      0x72dc1cae\n      eq\n      tag_2\n      jumpi\n      dup1\n      0x7a2b37b3\n      eq\n      tag_3\n      jumpi\n      dup1\n      0x8f449a05\n      eq\n      tag_4\n      jumpi\n      dup1\n      0x91b7f5ed\n      eq\n      tag_5\n      jumpi\n    tag_1:\n      0x00\n      dup1\n      revert\n        /* \"subscribe.sol\":7639:7771  function SafeTrans()external{\r... */\n    tag_2:\n      callvalue\n      dup1\n      iszero\n      tag_6\n      jumpi\n      0x00\n      dup1\n      revert\n    tag_6:\n      pop\n      tag_7\n      tag_8\n      jump\t// in\n    tag_7:\n      stop\n        /* \"subscribe.sol\":7783:7859  function ViewPrice()public view returns(uint){\r... */\n    tag_3:\n      callvalue\n      dup1\n      iszero\n      tag_9\n      jumpi\n      0x00\n      dup1\n      revert\n    tag_9:\n      pop\n      tag_10\n      tag_11\n      jump\t// in\n    tag_10:\n      mload(0x40)\n      tag_12\n      swap2\n      swap1\n      tag_13\n      jump\t// in\n    tag_12:\n      mload(0x40)\n      dup1\n      swap2\n      sub\n      swap1\n      return\n        /* \"subscribe.sol\":7429:7629  function subscribe()external payable{\r... */\n    tag_4:\n      tag_14\n      tag_15\n      jump\t// in\n    tag_14:\n      stop\n        /* \"subscribe.sol\":7868:7956  function setPrice(uint _price)external onlyOwner{       \r... */\n    tag_5:\n      callvalue\n      dup1\n      iszero\n      tag_16\n      jumpi\n      0x00\n      dup1\n      revert\n    tag_16:\n      pop\n      tag_17\n      0x04\n      dup1\n      calldatasize\n      sub\n      dup2\n      add\n      swap1\n      tag_18\n      swap2\n      swap1\n      tag_19\n      jump\t// in\n    tag_18:\n      tag_20\n      jump\t// in\n    tag_17:\n      stop\n        /* \"subscribe.sol\":7639:7771  function SafeTrans()external{\r... */\n    tag_8:\n        /* \"subscribe.sol\":7700:7705  owner */\n      0x02\n      0x00\n      swap1\n      sload\n      swap1\n      0x0100\n      exp\n      swap1\n      div\n      0xffffffffffffffffffffffffffffffffffffffff\n      and\n        /* \"subscribe.sol\":7686:7705  msg.sender == owner */\n      0xffffffffffffffffffffffffffffffffffffffff\n      and\n        /* \"subscribe.sol\":7686:7696  msg.sender */\n      caller\n        /* \"subscribe.sol\":7686:7705  msg.sender == owner */\n      0xffffffffffffffffffffffffffffffffffffffff\n      and\n      eq\n        /* \"subscribe.sol\":7678:7706  require(msg.sender == owner) */\n      tag_22\n      jumpi\n      0x00\n      dup1\n      revert\n    tag_22:\n        /* \"subscribe.sol\":7725:7730  owner */\n      0x02\n      0x00\n      swap1\n      sload\n      swap1\n      0x0100\n      exp\n      swap1\n      div\n      0xffffffffffffffffffffffffffffffffffffffff\n      and\n        /* \"subscribe.sol\":7717:7740  payable(owner).transfer */\n      0xffffffffffffffffffffffffffffffffffffffff\n      and\n        /* \"subscribe.sol\":7717:7763  payable(owner).transfer(address(this).balance) */\n      0x08fc\n        /* \"subscribe.sol\":7741:7762  address(this).balance */\n      selfbalance\n        /* \"subscribe.sol\":7717:7763  payable(owner).transfer(address(this).balance) */\n      swap1\n      dup2\n      iszero\n      mul\n      swap1\n      mload(0x40)\n      0x00\n      mload(0x40)\n      dup1\n      dup4\n      sub\n      dup2\n      dup6\n      dup9\n      dup9\n      call\n      swap4\n      pop\n      pop\n      pop\n      pop\n      iszero\n      dup1\n      iszero\n      tag_24\n      jumpi\n      returndatasize\n      0x00\n      dup1\n      returndatacopy\n      revert(0x00, returndatasize)\n    tag_24:\n      pop\n        /* \"subscribe.sol\":7639:7771  function SafeTrans()external{\r... */\n      jump\t// out\n        /* \"subscribe.sol\":7783:7859  function ViewPrice()public view returns(uint){\r... */\n    tag_11:\n        /* \"subscribe.sol\":7823:7827  uint */\n      0x00\n        /* \"subscribe.sol\":7846:7851  price */\n      sload(0x01)\n        /* \"subscribe.sol\":7839:7851  return price */\n      swap1\n      pop\n        /* \"subscribe.sol\":7783:7859  function ViewPrice()public view returns(uint){\r... */\n      swap1\n      jump\t// out\n        /* \"subscribe.sol\":7429:7629  function subscribe()external payable{\r... */\n    tag_15:\n        /* \"subscribe.sol\":7497:7501  1e16 */\n      0x2386f26fc10000\n        /* \"subscribe.sol\":7484:7493  msg.value */\n      callvalue\n        /* \"subscribe.sol\":7484:7501  msg.value >= 1e16 */\n      lt\n      iszero\n        /* \"subscribe.sol\":7476:7502  require(msg.value >= 1e16) */\n      tag_27\n      jumpi\n      0x00\n      dup1\n      revert\n    tag_27:\n        /* \"subscribe.sol\":7513:7528  uint dcf_amount */\n      0x00\n        /* \"subscribe.sol\":7531:7567  uint(1e18).mul(msg.value).div(price) */\n      tag_28\n        /* \"subscribe.sol\":7561:7566  price */\n      sload(0x01)\n        /* \"subscribe.sol\":7531:7556  uint(1e18).mul(msg.value) */\n      tag_29\n        /* \"subscribe.sol\":7546:7555  msg.value */\n      callvalue\n        /* \"subscribe.sol\":7536:7540  1e18 */\n      0x0de0b6b3a7640000\n        /* \"subscribe.sol\":7531:7545  uint(1e18).mul */\n      tag_30\n      swap1\n        /* \"subscribe.sol\":7531:7556  uint(1e18).mul(msg.value) */\n      swap2\n      swap1\n      0xffffffff\n      and\n      jump\t// in\n    tag_29:\n        /* \"subscribe.sol\":7531:7560  uint(1e18).mul(msg.value).div */\n      tag_31\n      swap1\n        /* \"subscribe.sol\":7531:7567  uint(1e18).mul(msg.value).div(price) */\n      swap2\n      swap1\n      0xffffffff\n      and\n      jump\t// in\n    tag_28:\n        /* \"subscribe.sol\":7513:7567  uint dcf_amount = uint(1e18).mul(msg.value).div(price) */\n      swap1\n      pop\n        /* \"subscribe.sol\":7578:7581  dcf */\n      0x00\n      dup1\n      sload\n      swap1\n      0x0100\n      exp\n      swap1\n      div\n      0xffffffffffffffffffffffffffffffffffffffff\n      and\n        /* \"subscribe.sol\":7578:7590  dcf.transfer */\n      0xffffffffffffffffffffffffffffffffffffffff\n      and\n      0xa9059cbb\n        /* \"subscribe.sol\":7591:7601  msg.sender */\n      caller\n        /* \"subscribe.sol\":7602:7612  dcf_amount */\n      dup4\n        /* \"subscribe.sol\":7578:7613  dcf.transfer(msg.sender,dcf_amount) */\n      mload(0x40)\n      dup4\n      0xffffffff\n      and\n      0xe0\n      shl\n      dup2\n      mstore\n      0x04\n      add\n      tag_32\n      swap3\n      swap2\n      swap1\n      tag_33\n      jump\t// in\n    tag_32:\n      0x20\n      mload(0x40)\n      dup1\n      dup4\n      sub\n      dup2\n      0x00\n      dup8\n      dup1\n      extcodesize\n      iszero\n      dup1\n      iszero\n      tag_34\n      jumpi\n      0x00\n      dup1\n      revert\n    tag_34:\n      pop\n      gas\n      call\n      iszero\n      dup1\n      iszero\n      tag_36\n      jumpi\n      returndatasize\n      0x00\n      dup1\n      returndatacopy\n      revert(0x00, returndatasize)\n    tag_36:\n      pop\n      pop\n      pop\n      pop\n      mload(0x40)\n      returndatasize\n      not(0x1f)\n      0x1f\n      dup3\n      add\n      and\n      dup3\n      add\n      dup1\n      0x40\n      mstore\n      pop\n      dup2\n      add\n      swap1\n      tag_37\n      swap2\n      swap1\n      tag_38\n      jump\t// in\n    tag_37:\n      pop\n        /* \"subscribe.sol\":7465:7629  {\r... */\n      pop\n        /* \"subscribe.sol\":7429:7629  function subscribe()external payable{\r... */\n      jump\t// out\n        /* \"subscribe.sol\":7868:7956  function setPrice(uint _price)external onlyOwner{       \r... */\n    tag_20:\n        /* \"subscribe.sol\":7159:7169  msg.sender */\n      caller\n        /* \"subscribe.sol\":7150:7169  owner == msg.sender */\n      0xffffffffffffffffffffffffffffffffffffffff\n      and\n        /* \"subscribe.sol\":7150:7155  owner */\n      0x02\n      0x00\n      swap1\n      sload\n      swap1\n      0x0100\n      exp\n      swap1\n      div\n      0xffffffffffffffffffffffffffffffffffffffff\n      and\n        /* \"subscribe.sol\":7150:7169  owner == msg.sender */\n      0xffffffffffffffffffffffffffffffffffffffff\n      and\n      eq\n        /* \"subscribe.sol\":7142:7206  require(owner == msg.sender, \"Ownable: caller is not the owner\") */\n      tag_40\n      jumpi\n      mload(0x40)\n      0x08c379a000000000000000000000000000000000000000000000000000000000\n      dup2\n      mstore\n      0x04\n      add\n      tag_41\n      swap1\n      tag_42\n      jump\t// in\n    tag_41:\n      mload(0x40)\n      dup1\n      swap2\n      sub\n      swap1\n      revert\n    tag_40:\n        /* \"subscribe.sol\":7942:7948  _price */\n      dup1\n        /* \"subscribe.sol\":7934:7939  price */\n      0x01\n        /* \"subscribe.sol\":7934:7948  price = _price */\n      dup2\n      swap1\n      sstore\n      pop\n        /* \"subscribe.sol\":7868:7956  function setPrice(uint _price)external onlyOwner{       \r... */\n      pop\n      jump\t// out\n        /* \"subscribe.sol\":3509:3607  function mul(uint256 a, uint256 b) internal pure returns (uint256) {\r... */\n    tag_30:\n        /* \"subscribe.sol\":3567:3574  uint256 */\n      0x00\n        /* \"subscribe.sol\":3598:3599  b */\n      dup2\n        /* \"subscribe.sol\":3594:3595  a */\n      dup4\n        /* \"subscribe.sol\":3594:3599  a * b */\n      tag_45\n      swap2\n      swap1\n      tag_46\n      jump\t// in\n    tag_45:\n        /* \"subscribe.sol\":3587:3599  return a * b */\n      swap1\n      pop\n        /* \"subscribe.sol\":3509:3607  function mul(uint256 a, uint256 b) internal pure returns (uint256) {\r... */\n      swap3\n      swap2\n      pop\n      pop\n      jump\t// out\n        /* \"subscribe.sol\":3908:4006  function div(uint256 a, uint256 b) internal pure returns (uint256) {\r... */\n    tag_31:\n        /* \"subscribe.sol\":3966:3973  uint256 */\n      0x00\n        /* \"subscribe.sol\":3997:3998  b */\n      dup2\n        /* \"subscribe.sol\":3993:3994  a */\n      dup4\n        /* \"subscribe.sol\":3993:3998  a / b */\n      tag_48\n      swap2\n      swap1\n      tag_49\n      jump\t// in\n    tag_48:\n        /* \"subscribe.sol\":3986:3998  return a / b */\n      swap1\n      pop\n        /* \"subscribe.sol\":3908:4006  function div(uint256 a, uint256 b) internal pure returns (uint256) {\r... */\n      swap3\n      swap2\n      pop\n      pop\n      jump\t// out\n        /* \"#utility.yul\":7:144   */\n    tag_51:\n        /* \"#utility.yul\":61:66   */\n      0x00\n        /* \"#utility.yul\":92:98   */\n      dup2\n        /* \"#utility.yul\":86:99   */\n      mload\n        /* \"#utility.yul\":77:99   */\n      swap1\n      pop\n        /* \"#utility.yul\":108:138   */\n      tag_53\n        /* \"#utility.yul\":132:137   */\n      dup2\n        /* \"#utility.yul\":108:138   */\n      tag_54\n      jump\t// in\n    tag_53:\n        /* \"#utility.yul\":7:144   */\n      swap3\n      swap2\n      pop\n      pop\n      jump\t// out\n        /* \"#utility.yul\":150:289   */\n    tag_55:\n        /* \"#utility.yul\":196:201   */\n      0x00\n        /* \"#utility.yul\":234:240   */\n      dup2\n        /* \"#utility.yul\":221:241   */\n      calldataload\n        /* \"#utility.yul\":212:241   */\n      swap1\n      pop\n        /* \"#utility.yul\":250:283   */\n      tag_57\n        /* \"#utility.yul\":277:282   */\n      dup2\n        /* \"#utility.yul\":250:283   */\n      tag_58\n      jump\t// in\n    tag_57:\n        /* \"#utility.yul\":150:289   */\n      swap3\n      swap2\n      pop\n      pop\n      jump\t// out\n        /* \"#utility.yul\":295:640   */\n    tag_38:\n        /* \"#utility.yul\":362:368   */\n      0x00\n        /* \"#utility.yul\":411:413   */\n      0x20\n        /* \"#utility.yul\":399:408   */\n      dup3\n        /* \"#utility.yul\":390:397   */\n      dup5\n        /* \"#utility.yul\":386:409   */\n      sub\n        /* \"#utility.yul\":382:414   */\n      slt\n        /* \"#utility.yul\":379:498   */\n      iszero\n      tag_60\n      jumpi\n        /* \"#utility.yul\":417:496   */\n      tag_61\n      tag_62\n      jump\t// in\n    tag_61:\n        /* \"#utility.yul\":379:498   */\n    tag_60:\n        /* \"#utility.yul\":537:538   */\n      0x00\n        /* \"#utility.yul\":562:623   */\n      tag_63\n        /* \"#utility.yul\":615:622   */\n      dup5\n        /* \"#utility.yul\":606:612   */\n      dup3\n        /* \"#utility.yul\":595:604   */\n      dup6\n        /* \"#utility.yul\":591:613   */\n      add\n        /* \"#utility.yul\":562:623   */\n      tag_51\n      jump\t// in\n    tag_63:\n        /* \"#utility.yul\":552:623   */\n      swap2\n      pop\n        /* \"#utility.yul\":508:633   */\n      pop\n        /* \"#utility.yul\":295:640   */\n      swap3\n      swap2\n      pop\n      pop\n      jump\t// out\n        /* \"#utility.yul\":646:975   */\n    tag_19:\n        /* \"#utility.yul\":705:711   */\n      0x00\n        /* \"#utility.yul\":754:756   */\n      0x20\n        /* \"#utility.yul\":742:751   */\n      dup3\n        /* \"#utility.yul\":733:740   */\n      dup5\n        /* \"#utility.yul\":729:752   */\n      sub\n        /* \"#utility.yul\":725:757   */\n      slt\n        /* \"#utility.yul\":722:841   */\n      iszero\n      tag_65\n      jumpi\n        /* \"#utility.yul\":760:839   */\n      tag_66\n      tag_62\n      jump\t// in\n    tag_66:\n        /* \"#utility.yul\":722:841   */\n    tag_65:\n        /* \"#utility.yul\":880:881   */\n      0x00\n        /* \"#utility.yul\":905:958   */\n      tag_67\n        /* \"#utility.yul\":950:957   */\n      dup5\n        /* \"#utility.yul\":941:947   */\n      dup3\n        /* \"#utility.yul\":930:939   */\n      dup6\n        /* \"#utility.yul\":926:948   */\n      add\n        /* \"#utility.yul\":905:958   */\n      tag_55\n      jump\t// in\n    tag_67:\n        /* \"#utility.yul\":895:958   */\n      swap2\n      pop\n        /* \"#utility.yul\":851:968   */\n      pop\n        /* \"#utility.yul\":646:975   */\n      swap3\n      swap2\n      pop\n      pop\n      jump\t// out\n        /* \"#utility.yul\":981:1099   */\n    tag_68:\n        /* \"#utility.yul\":1068:1092   */\n      tag_70\n        /* \"#utility.yul\":1086:1091   */\n      dup2\n        /* \"#utility.yul\":1068:1092   */\n      tag_71\n      jump\t// in\n    tag_70:\n        /* \"#utility.yul\":1063:1066   */\n      dup3\n        /* \"#utility.yul\":1056:1093   */\n      mstore\n        /* \"#utility.yul\":981:1099   */\n      pop\n      pop\n      jump\t// out\n        /* \"#utility.yul\":1105:1471   */\n    tag_72:\n        /* \"#utility.yul\":1247:1250   */\n      0x00\n        /* \"#utility.yul\":1268:1335   */\n      tag_74\n        /* \"#utility.yul\":1332:1334   */\n      0x20\n        /* \"#utility.yul\":1327:1330   */\n      dup4\n        /* \"#utility.yul\":1268:1335   */\n      tag_75\n      jump\t// in\n    tag_74:\n        /* \"#utility.yul\":1261:1335   */\n      swap2\n      pop\n        /* \"#utility.yul\":1344:1437   */\n      tag_76\n        /* \"#utility.yul\":1433:1436   */\n      dup3\n        /* \"#utility.yul\":1344:1437   */\n      tag_77\n      jump\t// in\n    tag_76:\n        /* \"#utility.yul\":1462:1464   */\n      0x20\n        /* \"#utility.yul\":1457:1460   */\n      dup3\n        /* \"#utility.yul\":1453:1465   */\n      add\n        /* \"#utility.yul\":1446:1465   */\n      swap1\n      pop\n        /* \"#utility.yul\":1105:1471   */\n      swap2\n      swap1\n      pop\n      jump\t// out\n        /* \"#utility.yul\":1477:1595   */\n    tag_78:\n        /* \"#utility.yul\":1564:1588   */\n      tag_80\n        /* \"#utility.yul\":1582:1587   */\n      dup2\n        /* \"#utility.yul\":1564:1588   */\n      tag_81\n      jump\t// in\n    tag_80:\n        /* \"#utility.yul\":1559:1562   */\n      dup3\n        /* \"#utility.yul\":1552:1589   */\n      mstore\n        /* \"#utility.yul\":1477:1595   */\n      pop\n      pop\n      jump\t// out\n        /* \"#utility.yul\":1601:1933   */\n    tag_33:\n        /* \"#utility.yul\":1722:1726   */\n      0x00\n        /* \"#utility.yul\":1760:1762   */\n      0x40\n        /* \"#utility.yul\":1749:1758   */\n      dup3\n        /* \"#utility.yul\":1745:1763   */\n      add\n        /* \"#utility.yul\":1737:1763   */\n      swap1\n      pop\n        /* \"#utility.yul\":1773:1844   */\n      tag_83\n        /* \"#utility.yul\":1841:1842   */\n      0x00\n        /* \"#utility.yul\":1830:1839   */\n      dup4\n        /* \"#utility.yul\":1826:1843   */\n      add\n        /* \"#utility.yul\":1817:1823   */\n      dup6\n        /* \"#utility.yul\":1773:1844   */\n      tag_68\n      jump\t// in\n    tag_83:\n        /* \"#utility.yul\":1854:1926   */\n      tag_84\n        /* \"#utility.yul\":1922:1924   */\n      0x20\n        /* \"#utility.yul\":1911:1920   */\n      dup4\n        /* \"#utility.yul\":1907:1925   */\n      add\n        /* \"#utility.yul\":1898:1904   */\n      dup5\n        /* \"#utility.yul\":1854:1926   */\n      tag_78\n      jump\t// in\n    tag_84:\n        /* \"#utility.yul\":1601:1933   */\n      swap4\n      swap3\n      pop\n      pop\n      pop\n      jump\t// out\n        /* \"#utility.yul\":1939:2358   */\n    tag_42:\n        /* \"#utility.yul\":2105:2109   */\n      0x00\n        /* \"#utility.yul\":2143:2145   */\n      0x20\n        /* \"#utility.yul\":2132:2141   */\n      dup3\n        /* \"#utility.yul\":2128:2146   */\n      add\n        /* \"#utility.yul\":2120:2146   */\n      swap1\n      pop\n        /* \"#utility.yul\":2192:2201   */\n      dup2\n        /* \"#utility.yul\":2186:2190   */\n      dup2\n        /* \"#utility.yul\":2182:2202   */\n      sub\n        /* \"#utility.yul\":2178:2179   */\n      0x00\n        /* \"#utility.yul\":2167:2176   */\n      dup4\n        /* \"#utility.yul\":2163:2180   */\n      add\n        /* \"#utility.yul\":2156:2203   */\n      mstore\n        /* \"#utility.yul\":2220:2351   */\n      tag_86\n        /* \"#utility.yul\":2346:2350   */\n      dup2\n        /* \"#utility.yul\":2220:2351   */\n      tag_72\n      jump\t// in\n    tag_86:\n        /* \"#utility.yul\":2212:2351   */\n      swap1\n      pop\n        /* \"#utility.yul\":1939:2358   */\n      swap2\n      swap1\n      pop\n      jump\t// out\n        /* \"#utility.yul\":2364:2586   */\n    tag_13:\n        /* \"#utility.yul\":2457:2461   */\n      0x00\n        /* \"#utility.yul\":2495:2497   */\n      0x20\n        /* \"#utility.yul\":2484:2493   */\n      dup3\n        /* \"#utility.yul\":2480:2498   */\n      add\n        /* \"#utility.yul\":2472:2498   */\n      swap1\n      pop\n        /* \"#utility.yul\":2508:2579   */\n      tag_88\n        /* \"#utility.yul\":2576:2577   */\n      0x00\n        /* \"#utility.yul\":2565:2574   */\n      dup4\n        /* \"#utility.yul\":2561:2578   */\n      add\n        /* \"#utility.yul\":2552:2558   */\n      dup5\n        /* \"#utility.yul\":2508:2579   */\n      tag_78\n      jump\t// in\n    tag_88:\n        /* \"#utility.yul\":2364:2586   */\n      swap3\n      swap2\n      pop\n      pop\n      jump\t// out\n        /* \"#utility.yul\":2673:2842   */\n    tag_75:\n        /* \"#utility.yul\":2757:2768   */\n      0x00\n        /* \"#utility.yul\":2791:2797   */\n      dup3\n        /* \"#utility.yul\":2786:2789   */\n      dup3\n        /* \"#utility.yul\":2779:2798   */\n      mstore\n        /* \"#utility.yul\":2831:2835   */\n      0x20\n        /* \"#utility.yul\":2826:2829   */\n      dup3\n        /* \"#utility.yul\":2822:2836   */\n      add\n        /* \"#utility.yul\":2807:2836   */\n      swap1\n      pop\n        /* \"#utility.yul\":2673:2842   */\n      swap3\n      swap2\n      pop\n      pop\n      jump\t// out\n        /* \"#utility.yul\":2848:3033   */\n    tag_49:\n        /* \"#utility.yul\":2888:2889   */\n      0x00\n        /* \"#utility.yul\":2905:2925   */\n      tag_93\n        /* \"#utility.yul\":2923:2924   */\n      dup3\n        /* \"#utility.yul\":2905:2925   */\n      tag_81\n      jump\t// in\n    tag_93:\n        /* \"#utility.yul\":2900:2925   */\n      swap2\n      pop\n        /* \"#utility.yul\":2939:2959   */\n      tag_94\n        /* \"#utility.yul\":2957:2958   */\n      dup4\n        /* \"#utility.yul\":2939:2959   */\n      tag_81\n      jump\t// in\n    tag_94:\n        /* \"#utility.yul\":2934:2959   */\n      swap3\n      pop\n        /* \"#utility.yul\":2978:2979   */\n      dup3\n        /* \"#utility.yul\":2968:3003   */\n      tag_95\n      jumpi\n        /* \"#utility.yul\":2983:3001   */\n      tag_96\n      tag_97\n      jump\t// in\n    tag_96:\n        /* \"#utility.yul\":2968:3003   */\n    tag_95:\n        /* \"#utility.yul\":3025:3026   */\n      dup3\n        /* \"#utility.yul\":3022:3023   */\n      dup3\n        /* \"#utility.yul\":3018:3027   */\n      div\n        /* \"#utility.yul\":3013:3027   */\n      swap1\n      pop\n        /* \"#utility.yul\":2848:3033   */\n      swap3\n      swap2\n      pop\n      pop\n      jump\t// out\n        /* \"#utility.yul\":3039:3387   */\n    tag_46:\n        /* \"#utility.yul\":3079:3086   */\n      0x00\n        /* \"#utility.yul\":3102:3122   */\n      tag_99\n        /* \"#utility.yul\":3120:3121   */\n      dup3\n        /* \"#utility.yul\":3102:3122   */\n      tag_81\n      jump\t// in\n    tag_99:\n        /* \"#utility.yul\":3097:3122   */\n      swap2\n      pop\n        /* \"#utility.yul\":3136:3156   */\n      tag_100\n        /* \"#utility.yul\":3154:3155   */\n      dup4\n        /* \"#utility.yul\":3136:3156   */\n      tag_81\n      jump\t// in\n    tag_100:\n        /* \"#utility.yul\":3131:3156   */\n      swap3\n      pop\n        /* \"#utility.yul\":3324:3325   */\n      dup2\n        /* \"#utility.yul\":3256:3322   */\n      0xffffffffffffffffffffffffffffffffffffffffffffffffffffffffffffffff\n        /* \"#utility.yul\":3252:3326   */\n      div\n        /* \"#utility.yul\":3249:3250   */\n      dup4\n        /* \"#utility.yul\":3246:3327   */\n      gt\n        /* \"#utility.yul\":3241:3242   */\n      dup3\n        /* \"#utility.yul\":3234:3243   */\n      iszero\n        /* \"#utility.yul\":3227:3244   */\n      iszero\n        /* \"#utility.yul\":3223:3328   */\n      and\n        /* \"#utility.yul\":3220:3351   */\n      iszero\n      tag_101\n      jumpi\n        /* \"#utility.yul\":3331:3349   */\n      tag_102\n      tag_103\n      jump\t// in\n    tag_102:\n        /* \"#utility.yul\":3220:3351   */\n    tag_101:\n        /* \"#utility.yul\":3379:3380   */\n      dup3\n        /* \"#utility.yul\":3376:3377   */\n      dup3\n        /* \"#utility.yul\":3372:3381   */\n      mul\n        /* \"#utility.yul\":3361:3381   */\n      swap1\n      pop\n        /* \"#utility.yul\":3039:3387   */\n      swap3\n      swap2\n      pop\n      pop\n      jump\t// out\n        /* \"#utility.yul\":3393:3489   */\n    tag_71:\n        /* \"#utility.yul\":3430:3437   */\n      0x00\n        /* \"#utility.yul\":3459:3483   */\n      tag_105\n        /* \"#utility.yul\":3477:3482   */\n      dup3\n        /* \"#utility.yul\":3459:3483   */\n      tag_106\n      jump\t// in\n    tag_105:\n        /* \"#utility.yul\":3448:3483   */\n      swap1\n      pop\n        /* \"#utility.yul\":3393:3489   */\n      swap2\n      swap1\n      pop\n      jump\t// out\n        /* \"#utility.yul\":3495:3585   */\n    tag_107:\n        /* \"#utility.yul\":3529:3536   */\n      0x00\n        /* \"#utility.yul\":3572:3577   */\n      dup2\n        /* \"#utility.yul\":3565:3578   */\n      iszero\n        /* \"#utility.yul\":3558:3579   */\n      iszero\n        /* \"#utility.yul\":3547:3579   */\n      swap1\n      pop\n        /* \"#utility.yul\":3495:3585   */\n      swap2\n      swap1\n      pop\n      jump\t// out\n        /* \"#utility.yul\":3591:3717   */\n    tag_106:\n        /* \"#utility.yul\":3628:3635   */\n      0x00\n        /* \"#utility.yul\":3668:3710   */\n      0xffffffffffffffffffffffffffffffffffffffff\n        /* \"#utility.yul\":3661:3666   */\n      dup3\n        /* \"#utility.yul\":3657:3711   */\n      and\n        /* \"#utility.yul\":3646:3711   */\n      swap1\n      pop\n        /* \"#utility.yul\":3591:3717   */\n      swap2\n      swap1\n      pop\n      jump\t// out\n        /* \"#utility.yul\":3723:3800   */\n    tag_81:\n        /* \"#utility.yul\":3760:3767   */\n      0x00\n        /* \"#utility.yul\":3789:3794   */\n      dup2\n        /* \"#utility.yul\":3778:3794   */\n      swap1\n      pop\n        /* \"#utility.yul\":3723:3800   */\n      swap2\n      swap1\n      pop\n      jump\t// out\n        /* \"#utility.yul\":3806:3986   */\n    tag_103:\n        /* \"#utility.yul\":3854:3931   */\n      0x4e487b7100000000000000000000000000000000000000000000000000000000\n        /* \"#utility.yul\":3851:3852   */\n      0x00\n        /* \"#utility.yul\":3844:3932   */\n      mstore\n        /* \"#utility.yul\":3951:3955   */\n      0x11\n        /* \"#utility.yul\":3948:3949   */\n      0x04\n        /* \"#utility.yul\":3941:3956   */\n      mstore\n        /* \"#utility.yul\":3975:3979   */\n      0x24\n        /* \"#utility.yul\":3972:3973   */\n      0x00\n        /* \"#utility.yul\":3965:3980   */\n      revert\n        /* \"#utility.yul\":3992:4172   */\n    tag_97:\n        /* \"#utility.yul\":4040:4117   */\n      0x4e487b7100000000000000000000000000000000000000000000000000000000\n        /* \"#utility.yul\":4037:4038   */\n      0x00\n        /* \"#utility.yul\":4030:4118   */\n      mstore\n        /* \"#utility.yul\":4137:4141   */\n      0x12\n        /* \"#utility.yul\":4134:4135   */\n      0x04\n        /* \"#utility.yul\":4127:4142   */\n      mstore\n        /* \"#utility.yul\":4161:4165   */\n      0x24\n        /* \"#utility.yul\":4158:4159   */\n      0x00\n        /* \"#utility.yul\":4151:4166   */\n      revert\n        /* \"#utility.yul\":4301:4418   */\n    tag_62:\n        /* \"#utility.yul\":4410:4411   */\n      0x00\n        /* \"#utility.yul\":4407:4408   */\n      dup1\n        /* \"#utility.yul\":4400:4412   */\n      revert\n        /* \"#utility.yul\":4424:4606   */\n    tag_77:\n        /* \"#utility.yul\":4564:4598   */\n      0x4f776e61626c653a2063616c6c6572206973206e6f7420746865206f776e6572\n        /* \"#utility.yul\":4560:4561   */\n      0x00\n        /* \"#utility.yul\":4552:4558   */\n      dup3\n        /* \"#utility.yul\":4548:4562   */\n      add\n        /* \"#utility.yul\":4541:4599   */\n      mstore\n        /* \"#utility.yul\":4424:4606   */\n      pop\n      jump\t// out\n        /* \"#utility.yul\":4612:4728   */\n    tag_54:\n        /* \"#utility.yul\":4682:4703   */\n      tag_118\n        /* \"#utility.yul\":4697:4702   */\n      dup2\n        /* \"#utility.yul\":4682:4703   */\n      tag_107\n      jump\t// in\n    tag_118:\n        /* \"#utility.yul\":4675:4680   */\n      dup2\n        /* \"#utility.yul\":4672:4704   */\n      eq\n        /* \"#utility.yul\":4662:4722   */\n      tag_119\n      jumpi\n        /* \"#utility.yul\":4718:4719   */\n      0x00\n        /* \"#utility.yul\":4715:4716   */\n      dup1\n        /* \"#utility.yul\":4708:4720   */\n      revert\n        /* \"#utility.yul\":4662:4722   */\n    tag_119:\n        /* \"#utility.yul\":4612:4728   */\n      pop\n      jump\t// out\n        /* \"#utility.yul\":4734:4856   */\n    tag_58:\n        /* \"#utility.yul\":4807:4831   */\n      tag_121\n        /* \"#utility.yul\":4825:4830   */\n      dup2\n        /* \"#utility.yul\":4807:4831   */\n      tag_81\n      jump\t// in\n    tag_121:\n        /* \"#utility.yul\":4800:4805   */\n      dup2\n        /* \"#utility.yul\":4797:4832   */\n      eq\n        /* \"#utility.yul\":4787:4850   */\n      tag_122\n      jumpi\n        /* \"#utility.yul\":4846:4847   */\n      0x00\n        /* \"#utility.yul\":4843:4844   */\n      dup1\n        /* \"#utility.yul\":4836:4848   */\n      revert\n        /* \"#utility.yul\":4787:4850   */\n    tag_122:\n        /* \"#utility.yul\":4734:4856   */\n      pop\n      jump\t// out\n\n    auxdata: 0xa264697066735822122073eda0b929a7cbd0d66798606e1f7a6d960f94966e87aadfbe9acf66cd0fb6c964736f6c63430008070033\n}\n",
				"bytecode": {
					"linkReferences": {},
					"object": "608060405273b1cd8ad16899318da9f0a2c9933d599eb9cdc10c6000806101000a81548173ffffffffffffffffffffffffffffffffffffffff021916908373ffffffffffffffffffffffffffffffffffffffff1602179055506502ba7def300060015534801561006e57600080fd5b5033600260006101000a81548173ffffffffffffffffffffffffffffffffffffffff021916908373ffffffffffffffffffffffffffffffffffffffff160217905550610643806100bf6000396000f3fe60806040526004361061003f5760003560e01c806372dc1cae146100445780637a2b37b31461005b5780638f449a051461008657806391b7f5ed14610090575b600080fd5b34801561005057600080fd5b506100596100b9565b005b34801561006757600080fd5b5061007061017e565b60405161007d9190610454565b60405180910390f35b61008e610188565b005b34801561009c57600080fd5b506100b760048036038101906100b2919061039d565b610280565b005b600260009054906101000a900473ffffffffffffffffffffffffffffffffffffffff1673ffffffffffffffffffffffffffffffffffffffff163373ffffffffffffffffffffffffffffffffffffffff161461011357600080fd5b600260009054906101000a900473ffffffffffffffffffffffffffffffffffffffff1673ffffffffffffffffffffffffffffffffffffffff166108fc479081150290604051600060405180830381858888f1935050505015801561017b573d6000803e3d6000fd5b50565b6000600154905090565b662386f26fc1000034101561019c57600080fd5b60006101cd6001546101bf34670de0b6b3a764000061031a90919063ffffffff16565b61033090919063ffffffff16565b905060008054906101000a900473ffffffffffffffffffffffffffffffffffffffff1673ffffffffffffffffffffffffffffffffffffffff1663a9059cbb33836040518363ffffffff1660e01b815260040161022a92919061040b565b602060405180830381600087803b15801561024457600080fd5b505af1158015610258573d6000803e3d6000fd5b505050506040513d601f19601f8201168201806040525081019061027c9190610370565b5050565b3373ffffffffffffffffffffffffffffffffffffffff16600260009054906101000a900473ffffffffffffffffffffffffffffffffffffffff1673ffffffffffffffffffffffffffffffffffffffff1614610310576040517f08c379a000000000000000000000000000000000000000000000000000000000815260040161030790610434565b60405180910390fd5b8060018190555050565b6000818361032891906104b1565b905092915050565b6000818361033e9190610480565b905092915050565b600081519050610355816105df565b92915050565b60008135905061036a816105f6565b92915050565b600060208284031215610386576103856105b1565b5b600061039484828501610346565b91505092915050565b6000602082840312156103b3576103b26105b1565b5b60006103c18482850161035b565b91505092915050565b6103d38161050b565b82525050565b60006103e660208361046f565b91506103f1826105b6565b602082019050919050565b61040581610549565b82525050565b600060408201905061042060008301856103ca565b61042d60208301846103fc565b9392505050565b6000602082019050818103600083015261044d816103d9565b9050919050565b600060208201905061046960008301846103fc565b92915050565b600082825260208201905092915050565b600061048b82610549565b915061049683610549565b9250826104a6576104a5610582565b5b828204905092915050565b60006104bc82610549565b91506104c783610549565b9250817fffffffffffffffffffffffffffffffffffffffffffffffffffffffffffffffff0483118215151615610500576104ff610553565b5b828202905092915050565b600061051682610529565b9050919050565b60008115159050919050565b600073ffffffffffffffffffffffffffffffffffffffff82169050919050565b6000819050919050565b7f4e487b7100000000000000000000000000000000000000000000000000000000600052601160045260246000fd5b7f4e487b7100000000000000000000000000000000000000000000000000000000600052601260045260246000fd5b600080fd5b7f4f776e61626c653a2063616c6c6572206973206e6f7420746865206f776e6572600082015250565b6105e88161051d565b81146105f357600080fd5b50565b6105ff81610549565b811461060a57600080fd5b5056fea264697066735822122073eda0b929a7cbd0d66798606e1f7a6d960f94966e87aadfbe9acf66cd0fb6c964736f6c63430008070033",
					"opcodes": "PUSH1 0x80 PUSH1 0x40 MSTORE PUSH20 0xB1CD8AD16899318DA9F0A2C9933D599EB9CDC10C PUSH1 0x0 DUP1 PUSH2 0x100 EXP DUP2 SLOAD DUP2 PUSH20 0xFFFFFFFFFFFFFFFFFFFFFFFFFFFFFFFFFFFFFFFF MUL NOT AND SWAP1 DUP4 PUSH20 0xFFFFFFFFFFFFFFFFFFFFFFFFFFFFFFFFFFFFFFFF AND MUL OR SWAP1 SSTORE POP PUSH6 0x2BA7DEF3000 PUSH1 0x1 SSTORE CALLVALUE DUP1 ISZERO PUSH2 0x6E JUMPI PUSH1 0x0 DUP1 REVERT JUMPDEST POP CALLER PUSH1 0x2 PUSH1 0x0 PUSH2 0x100 EXP DUP2 SLOAD DUP2 PUSH20 0xFFFFFFFFFFFFFFFFFFFFFFFFFFFFFFFFFFFFFFFF MUL NOT AND SWAP1 DUP4 PUSH20 0xFFFFFFFFFFFFFFFFFFFFFFFFFFFFFFFFFFFFFFFF AND MUL OR SWAP1 SSTORE POP PUSH2 0x643 DUP1 PUSH2 0xBF PUSH1 0x0 CODECOPY PUSH1 0x0 RETURN INVALID PUSH1 0x80 PUSH1 0x40 MSTORE PUSH1 0x4 CALLDATASIZE LT PUSH2 0x3F JUMPI PUSH1 0x0 CALLDATALOAD PUSH1 0xE0 SHR DUP1 PUSH4 0x72DC1CAE EQ PUSH2 0x44 JUMPI DUP1 PUSH4 0x7A2B37B3 EQ PUSH2 0x5B JUMPI DUP1 PUSH4 0x8F449A05 EQ PUSH2 0x86 JUMPI DUP1 PUSH4 0x91B7F5ED EQ PUSH2 0x90 JUMPI JUMPDEST PUSH1 0x0 DUP1 REVERT JUMPDEST CALLVALUE DUP1 ISZERO PUSH2 0x50 JUMPI PUSH1 0x0 DUP1 REVERT JUMPDEST POP PUSH2 0x59 PUSH2 0xB9 JUMP JUMPDEST STOP JUMPDEST CALLVALUE DUP1 ISZERO PUSH2 0x67 JUMPI PUSH1 0x0 DUP1 REVERT JUMPDEST POP PUSH2 0x70 PUSH2 0x17E JUMP JUMPDEST PUSH1 0x40 MLOAD PUSH2 0x7D SWAP2 SWAP1 PUSH2 0x454 JUMP JUMPDEST PUSH1 0x40 MLOAD DUP1 SWAP2 SUB SWAP1 RETURN JUMPDEST PUSH2 0x8E PUSH2 0x188 JUMP JUMPDEST STOP JUMPDEST CALLVALUE DUP1 ISZERO PUSH2 0x9C JUMPI PUSH1 0x0 DUP1 REVERT JUMPDEST POP PUSH2 0xB7 PUSH1 0x4 DUP1 CALLDATASIZE SUB DUP2 ADD SWAP1 PUSH2 0xB2 SWAP2 SWAP1 PUSH2 0x39D JUMP JUMPDEST PUSH2 0x280 JUMP JUMPDEST STOP JUMPDEST PUSH1 0x2 PUSH1 0x0 SWAP1 SLOAD SWAP1 PUSH2 0x100 EXP SWAP1 DIV PUSH20 0xFFFFFFFFFFFFFFFFFFFFFFFFFFFFFFFFFFFFFFFF AND PUSH20 0xFFFFFFFFFFFFFFFFFFFFFFFFFFFFFFFFFFFFFFFF AND CALLER PUSH20 0xFFFFFFFFFFFFFFFFFFFFFFFFFFFFFFFFFFFFFFFF AND EQ PUSH2 0x113 JUMPI PUSH1 0x0 DUP1 REVERT JUMPDEST PUSH1 0x2 PUSH1 0x0 SWAP1 SLOAD SWAP1 PUSH2 0x100 EXP SWAP1 DIV PUSH20 0xFFFFFFFFFFFFFFFFFFFFFFFFFFFFFFFFFFFFFFFF AND PUSH20 0xFFFFFFFFFFFFFFFFFFFFFFFFFFFFFFFFFFFFFFFF AND PUSH2 0x8FC SELFBALANCE SWAP1 DUP2 ISZERO MUL SWAP1 PUSH1 0x40 MLOAD PUSH1 0x0 PUSH1 0x40 MLOAD DUP1 DUP4 SUB DUP2 DUP6 DUP9 DUP9 CALL SWAP4 POP POP POP POP ISZERO DUP1 ISZERO PUSH2 0x17B JUMPI RETURNDATASIZE PUSH1 0x0 DUP1 RETURNDATACOPY RETURNDATASIZE PUSH1 0x0 REVERT JUMPDEST POP JUMP JUMPDEST PUSH1 0x0 PUSH1 0x1 SLOAD SWAP1 POP SWAP1 JUMP JUMPDEST PUSH7 0x2386F26FC10000 CALLVALUE LT ISZERO PUSH2 0x19C JUMPI PUSH1 0x0 DUP1 REVERT JUMPDEST PUSH1 0x0 PUSH2 0x1CD PUSH1 0x1 SLOAD PUSH2 0x1BF CALLVALUE PUSH8 0xDE0B6B3A7640000 PUSH2 0x31A SWAP1 SWAP2 SWAP1 PUSH4 0xFFFFFFFF AND JUMP JUMPDEST PUSH2 0x330 SWAP1 SWAP2 SWAP1 PUSH4 0xFFFFFFFF AND JUMP JUMPDEST SWAP1 POP PUSH1 0x0 DUP1 SLOAD SWAP1 PUSH2 0x100 EXP SWAP1 DIV PUSH20 0xFFFFFFFFFFFFFFFFFFFFFFFFFFFFFFFFFFFFFFFF AND PUSH20 0xFFFFFFFFFFFFFFFFFFFFFFFFFFFFFFFFFFFFFFFF AND PUSH4 0xA9059CBB CALLER DUP4 PUSH1 0x40 MLOAD DUP4 PUSH4 0xFFFFFFFF AND PUSH1 0xE0 SHL DUP2 MSTORE PUSH1 0x4 ADD PUSH2 0x22A SWAP3 SWAP2 SWAP1 PUSH2 0x40B JUMP JUMPDEST PUSH1 0x20 PUSH1 0x40 MLOAD DUP1 DUP4 SUB DUP2 PUSH1 0x0 DUP8 DUP1 EXTCODESIZE ISZERO DUP1 ISZERO PUSH2 0x244 JUMPI PUSH1 0x0 DUP1 REVERT JUMPDEST POP GAS CALL ISZERO DUP1 ISZERO PUSH2 0x258 JUMPI RETURNDATASIZE PUSH1 0x0 DUP1 RETURNDATACOPY RETURNDATASIZE PUSH1 0x0 REVERT JUMPDEST POP POP POP POP PUSH1 0x40 MLOAD RETURNDATASIZE PUSH1 0x1F NOT PUSH1 0x1F DUP3 ADD AND DUP3 ADD DUP1 PUSH1 0x40 MSTORE POP DUP2 ADD SWAP1 PUSH2 0x27C SWAP2 SWAP1 PUSH2 0x370 JUMP JUMPDEST POP POP JUMP JUMPDEST CALLER PUSH20 0xFFFFFFFFFFFFFFFFFFFFFFFFFFFFFFFFFFFFFFFF AND PUSH1 0x2 PUSH1 0x0 SWAP1 SLOAD SWAP1 PUSH2 0x100 EXP SWAP1 DIV PUSH20 0xFFFFFFFFFFFFFFFFFFFFFFFFFFFFFFFFFFFFFFFF AND PUSH20 0xFFFFFFFFFFFFFFFFFFFFFFFFFFFFFFFFFFFFFFFF AND EQ PUSH2 0x310 JUMPI PUSH1 0x40 MLOAD PUSH32 0x8C379A000000000000000000000000000000000000000000000000000000000 DUP2 MSTORE PUSH1 0x4 ADD PUSH2 0x307 SWAP1 PUSH2 0x434 JUMP JUMPDEST PUSH1 0x40 MLOAD DUP1 SWAP2 SUB SWAP1 REVERT JUMPDEST DUP1 PUSH1 0x1 DUP2 SWAP1 SSTORE POP POP JUMP JUMPDEST PUSH1 0x0 DUP2 DUP4 PUSH2 0x328 SWAP2 SWAP1 PUSH2 0x4B1 JUMP JUMPDEST SWAP1 POP SWAP3 SWAP2 POP POP JUMP JUMPDEST PUSH1 0x0 DUP2 DUP4 PUSH2 0x33E SWAP2 SWAP1 PUSH2 0x480 JUMP JUMPDEST SWAP1 POP SWAP3 SWAP2 POP POP JUMP JUMPDEST PUSH1 0x0 DUP2 MLOAD SWAP1 POP PUSH2 0x355 DUP2 PUSH2 0x5DF JUMP JUMPDEST SWAP3 SWAP2 POP POP JUMP JUMPDEST PUSH1 0x0 DUP2 CALLDATALOAD SWAP1 POP PUSH2 0x36A DUP2 PUSH2 0x5F6 JUMP JUMPDEST SWAP3 SWAP2 POP POP JUMP JUMPDEST PUSH1 0x0 PUSH1 0x20 DUP3 DUP5 SUB SLT ISZERO PUSH2 0x386 JUMPI PUSH2 0x385 PUSH2 0x5B1 JUMP JUMPDEST JUMPDEST PUSH1 0x0 PUSH2 0x394 DUP5 DUP3 DUP6 ADD PUSH2 0x346 JUMP JUMPDEST SWAP2 POP POP SWAP3 SWAP2 POP POP JUMP JUMPDEST PUSH1 0x0 PUSH1 0x20 DUP3 DUP5 SUB SLT ISZERO PUSH2 0x3B3 JUMPI PUSH2 0x3B2 PUSH2 0x5B1 JUMP JUMPDEST JUMPDEST PUSH1 0x0 PUSH2 0x3C1 DUP5 DUP3 DUP6 ADD PUSH2 0x35B JUMP JUMPDEST SWAP2 POP POP SWAP3 SWAP2 POP POP JUMP JUMPDEST PUSH2 0x3D3 DUP2 PUSH2 0x50B JUMP JUMPDEST DUP3 MSTORE POP POP JUMP JUMPDEST PUSH1 0x0 PUSH2 0x3E6 PUSH1 0x20 DUP4 PUSH2 0x46F JUMP JUMPDEST SWAP2 POP PUSH2 0x3F1 DUP3 PUSH2 0x5B6 JUMP JUMPDEST PUSH1 0x20 DUP3 ADD SWAP1 POP SWAP2 SWAP1 POP JUMP JUMPDEST PUSH2 0x405 DUP2 PUSH2 0x549 JUMP JUMPDEST DUP3 MSTORE POP POP JUMP JUMPDEST PUSH1 0x0 PUSH1 0x40 DUP3 ADD SWAP1 POP PUSH2 0x420 PUSH1 0x0 DUP4 ADD DUP6 PUSH2 0x3CA JUMP JUMPDEST PUSH2 0x42D PUSH1 0x20 DUP4 ADD DUP5 PUSH2 0x3FC JUMP JUMPDEST SWAP4 SWAP3 POP POP POP JUMP JUMPDEST PUSH1 0x0 PUSH1 0x20 DUP3 ADD SWAP1 POP DUP2 DUP2 SUB PUSH1 0x0 DUP4 ADD MSTORE PUSH2 0x44D DUP2 PUSH2 0x3D9 JUMP JUMPDEST SWAP1 POP SWAP2 SWAP1 POP JUMP JUMPDEST PUSH1 0x0 PUSH1 0x20 DUP3 ADD SWAP1 POP PUSH2 0x469 PUSH1 0x0 DUP4 ADD DUP5 PUSH2 0x3FC JUMP JUMPDEST SWAP3 SWAP2 POP POP JUMP JUMPDEST PUSH1 0x0 DUP3 DUP3 MSTORE PUSH1 0x20 DUP3 ADD SWAP1 POP SWAP3 SWAP2 POP POP JUMP JUMPDEST PUSH1 0x0 PUSH2 0x48B DUP3 PUSH2 0x549 JUMP JUMPDEST SWAP2 POP PUSH2 0x496 DUP4 PUSH2 0x549 JUMP JUMPDEST SWAP3 POP DUP3 PUSH2 0x4A6 JUMPI PUSH2 0x4A5 PUSH2 0x582 JUMP JUMPDEST JUMPDEST DUP3 DUP3 DIV SWAP1 POP SWAP3 SWAP2 POP POP JUMP JUMPDEST PUSH1 0x0 PUSH2 0x4BC DUP3 PUSH2 0x549 JUMP JUMPDEST SWAP2 POP PUSH2 0x4C7 DUP4 PUSH2 0x549 JUMP JUMPDEST SWAP3 POP DUP2 PUSH32 0xFFFFFFFFFFFFFFFFFFFFFFFFFFFFFFFFFFFFFFFFFFFFFFFFFFFFFFFFFFFFFFFF DIV DUP4 GT DUP3 ISZERO ISZERO AND ISZERO PUSH2 0x500 JUMPI PUSH2 0x4FF PUSH2 0x553 JUMP JUMPDEST JUMPDEST DUP3 DUP3 MUL SWAP1 POP SWAP3 SWAP2 POP POP JUMP JUMPDEST PUSH1 0x0 PUSH2 0x516 DUP3 PUSH2 0x529 JUMP JUMPDEST SWAP1 POP SWAP2 SWAP1 POP JUMP JUMPDEST PUSH1 0x0 DUP2 ISZERO ISZERO SWAP1 POP SWAP2 SWAP1 POP JUMP JUMPDEST PUSH1 0x0 PUSH20 0xFFFFFFFFFFFFFFFFFFFFFFFFFFFFFFFFFFFFFFFF DUP3 AND SWAP1 POP SWAP2 SWAP1 POP JUMP JUMPDEST PUSH1 0x0 DUP2 SWAP1 POP SWAP2 SWAP1 POP JUMP JUMPDEST PUSH32 0x4E487B7100000000000000000000000000000000000000000000000000000000 PUSH1 0x0 MSTORE PUSH1 0x11 PUSH1 0x4 MSTORE PUSH1 0x24 PUSH1 0x0 REVERT JUMPDEST PUSH32 0x4E487B7100000000000000000000000000000000000000000000000000000000 PUSH1 0x0 MSTORE PUSH1 0x12 PUSH1 0x4 MSTORE PUSH1 0x24 PUSH1 0x0 REVERT JUMPDEST PUSH1 0x0 DUP1 REVERT JUMPDEST PUSH32 0x4F776E61626C653A2063616C6C6572206973206E6F7420746865206F776E6572 PUSH1 0x0 DUP3 ADD MSTORE POP JUMP JUMPDEST PUSH2 0x5E8 DUP2 PUSH2 0x51D JUMP JUMPDEST DUP2 EQ PUSH2 0x5F3 JUMPI PUSH1 0x0 DUP1 REVERT JUMPDEST POP JUMP JUMPDEST PUSH2 0x5FF DUP2 PUSH2 0x549 JUMP JUMPDEST DUP2 EQ PUSH2 0x60A JUMPI PUSH1 0x0 DUP1 REVERT JUMPDEST POP JUMP INVALID LOG2 PUSH5 0x6970667358 0x22 SLT KECCAK256 PUSH20 0xEDA0B929A7CBD0D66798606E1F7A6D960F94966E DUP8 0xAA 0xDF 0xBE SWAP11 0xCF PUSH7 0xCD0FB6C964736F PUSH13 0x63430008070033000000000000 "
				},
				"gasEstimates": {
					"creation": {
						"codeDepositCost": "320600",
						"executionCost": "71001",
						"totalCost": "391601"
					},
					"external": {
						"SafeTrans()": "infinite",
						"ViewPrice()": "2437",
						"setPrice(uint256)": "24734",
						"subscribe()": "infinite"
					}
				},
				"methodIdentifiers": {
					"SafeTrans()": "72dc1cae",
					"ViewPrice()": "7a2b37b3",
					"setPrice(uint256)": "91b7f5ed",
					"subscribe()": "8f449a05"
				}
			},
			"userdoc": {
				"kind": "user",
				"methods": {},
				"version": 1
			}
		}
	}
}