{
	"treasury_flat_flat.sol": {
		"treasury": {
			"abi": [
				{
					"inputs": [],
					"stateMutability": "nonpayable",
					"type": "constructor"
				},
				{
					"inputs": [],
					"name": "MineDcoff",
					"outputs": [],
					"stateMutability": "nonpayable",
					"type": "function"
				}
			],
			"devdoc": {
				"kind": "dev",
				"methods": {},
				"version": 1
			},
			"evm": {
				"assembly": "    /* \"treasury_flat_flat.sol\":9989:10641  contract treasury  {... */\n  mstore(0x40, 0x80)\n    /* \"treasury_flat_flat.sol\":10058:10100  0x6a544367FCa7064B6ADA5dc87F7E5058A9bB7Af9 */\n  0x6a544367fca7064b6ada5dc87f7e5058a9bb7af9\n    /* \"treasury_flat_flat.sol\":10041:10101  IDCF mine = IDCF(0x6a544367FCa7064B6ADA5dc87F7E5058A9bB7Af9) */\n  0x00\n  dup1\n  0x0100\n  exp\n  dup2\n  sload\n  dup2\n  0xffffffffffffffffffffffffffffffffffffffff\n  mul\n  not\n  and\n  swap1\n  dup4\n  0xffffffffffffffffffffffffffffffffffffffff\n  and\n  mul\n  or\n  swap1\n  sstore\n  pop\n    /* \"treasury_flat_flat.sol\":10128:10170  0xbE0C856e2981b9f03d7613566DFC6679eEe4708A */\n  0xbe0c856e2981b9f03d7613566dfc6679eee4708a\n    /* \"treasury_flat_flat.sol\":10105:10171  IERC20 dcoff =  IERC20(0xbE0C856e2981b9f03d7613566DFC6679eEe4708A) */\n  0x01\n  exp(0x0100, 0x00)\n  dup2\n  sload\n  dup2\n  0xffffffffffffffffffffffffffffffffffffffff\n  mul\n  not\n  and\n  swap1\n  dup4\n  0xffffffffffffffffffffffffffffffffffffffff\n  and\n  mul\n  or\n  swap1\n  sstore\n  pop\n    /* \"treasury_flat_flat.sol\":10258:10302  constructor(){... */\n  callvalue\n  dup1\n  iszero\n  tag_1\n  jumpi\n  0x00\n  dup1\n  revert\ntag_1:\n  pop\n    /* \"treasury_flat_flat.sol\":10293:10297  2e14 */\n  0xb5e620f48000\n    /* \"treasury_flat_flat.sol\":10277:10290  DcoffperBlock */\n  0x02\n    /* \"treasury_flat_flat.sol\":10277:10297  DcoffperBlock = 2e14 */\n  dup2\n  swap1\n  sstore\n  pop\n    /* \"treasury_flat_flat.sol\":9989:10641  contract treasury  {... */\n  dataSize(sub_0)\n  dup1\n  dataOffset(sub_0)\n  0x00\n  codecopy\n  0x00\n  return\nstop\n\nsub_0: assembly {\n        /* \"treasury_flat_flat.sol\":9989:10641  contract treasury  {... */\n      mstore(0x40, 0x80)\n      callvalue\n      dup1\n      iszero\n      tag_1\n      jumpi\n      0x00\n      dup1\n      revert\n    tag_1:\n      pop\n      jumpi(tag_2, lt(calldatasize, 0x04))\n      shr(0xe0, calldataload(0x00))\n      dup1\n      0x8bed4778\n      eq\n      tag_3\n      jumpi\n    tag_2:\n      0x00\n      dup1\n      revert\n        /* \"treasury_flat_flat.sol\":10307:10631  function MineDcoff()external{... */\n    tag_3:\n      tag_4\n      tag_5\n      jump\t// in\n    tag_4:\n      stop\n    tag_5:\n        /* \"treasury_flat_flat.sol\":10343:10356  uint256 Score */\n      0x00\n        /* \"treasury_flat_flat.sol\":10359:10363  mine */\n      dup1\n      0x00\n      swap1\n      sload\n      swap1\n      0x0100\n      exp\n      swap1\n      div\n      0xffffffffffffffffffffffffffffffffffffffff\n      and\n        /* \"treasury_flat_flat.sol\":10359:10374  mine.BlockScore */\n      0xffffffffffffffffffffffffffffffffffffffff\n      and\n      0x325b272a\n        /* \"treasury_flat_flat.sol\":10375:10385  msg.sender */\n      caller\n        /* \"treasury_flat_flat.sol\":10359:10386  mine.BlockScore(msg.sender) */\n      mload(0x40)\n      dup3\n      0xffffffff\n      and\n      0xe0\n      shl\n      dup2\n      mstore\n      0x04\n      add\n      tag_7\n      swap2\n      swap1\n      tag_8\n      jump\t// in\n    tag_7:\n      0x20\n      mload(0x40)\n      dup1\n      dup4\n      sub\n      dup2\n      dup7\n      gas\n      staticcall\n      iszero\n      dup1\n      iszero\n      tag_10\n      jumpi\n      returndatasize\n      0x00\n      dup1\n      returndatacopy\n      revert(0x00, returndatasize)\n    tag_10:\n      pop\n      pop\n      pop\n      pop\n      mload(0x40)\n      returndatasize\n      not(0x1f)\n      0x1f\n      dup3\n      add\n      and\n      dup3\n      add\n      dup1\n      0x40\n      mstore\n      pop\n      dup2\n      add\n      swap1\n      tag_11\n      swap2\n      swap1\n      tag_12\n      jump\t// in\n    tag_11:\n        /* \"treasury_flat_flat.sol\":10343:10386  uint256 Score = mine.BlockScore(msg.sender) */\n      swap1\n      pop\n        /* \"treasury_flat_flat.sol\":10394:10412  uint256 afterScore */\n      0x00\n        /* \"treasury_flat_flat.sol\":10415:10452  Score.sub(ScoreWithdrawn[msg.sender]) */\n      tag_13\n        /* \"treasury_flat_flat.sol\":10425:10439  ScoreWithdrawn */\n      0x03\n        /* \"treasury_flat_flat.sol\":10425:10451  ScoreWithdrawn[msg.sender] */\n      0x00\n        /* \"treasury_flat_flat.sol\":10440:10450  msg.sender */\n      caller\n        /* \"treasury_flat_flat.sol\":10425:10451  ScoreWithdrawn[msg.sender] */\n      0xffffffffffffffffffffffffffffffffffffffff\n      and\n      0xffffffffffffffffffffffffffffffffffffffff\n      and\n      dup2\n      mstore\n      0x20\n      add\n      swap1\n      dup2\n      mstore\n      0x20\n      add\n      0x00\n      keccak256\n      sload\n        /* \"treasury_flat_flat.sol\":10415:10420  Score */\n      dup4\n        /* \"treasury_flat_flat.sol\":10415:10424  Score.sub */\n      tag_14\n      swap1\n        /* \"treasury_flat_flat.sol\":10415:10452  Score.sub(ScoreWithdrawn[msg.sender]) */\n      swap2\n      swap1\n      0xffffffff\n      and\n      jump\t// in\n    tag_13:\n        /* \"treasury_flat_flat.sol\":10394:10452  uint256 afterScore = Score.sub(ScoreWithdrawn[msg.sender]) */\n      swap1\n      pop\n        /* \"treasury_flat_flat.sol\":10460:10474  uint256 GetDCF */\n      0x00\n        /* \"treasury_flat_flat.sol\":10477:10506  afterScore.mul(DcoffperBlock) */\n      tag_15\n        /* \"treasury_flat_flat.sol\":10492:10505  DcoffperBlock */\n      sload(0x02)\n        /* \"treasury_flat_flat.sol\":10477:10487  afterScore */\n      dup4\n        /* \"treasury_flat_flat.sol\":10477:10491  afterScore.mul */\n      tag_16\n      swap1\n        /* \"treasury_flat_flat.sol\":10477:10506  afterScore.mul(DcoffperBlock) */\n      swap2\n      swap1\n      0xffffffff\n      and\n      jump\t// in\n    tag_15:\n        /* \"treasury_flat_flat.sol\":10460:10506  uint256 GetDCF = afterScore.mul(DcoffperBlock) */\n      swap1\n      pop\n        /* \"treasury_flat_flat.sol\":10514:10519  dcoff */\n      0x01\n      0x00\n      swap1\n      sload\n      swap1\n      0x0100\n      exp\n      swap1\n      div\n      0xffffffffffffffffffffffffffffffffffffffff\n      and\n        /* \"treasury_flat_flat.sol\":10514:10528  dcoff.transfer */\n      0xffffffffffffffffffffffffffffffffffffffff\n      and\n      0xa9059cbb\n        /* \"treasury_flat_flat.sol\":10529:10539  msg.sender */\n      caller\n        /* \"treasury_flat_flat.sol\":10540:10546  GetDCF */\n      dup4\n        /* \"treasury_flat_flat.sol\":10514:10547  dcoff.transfer(msg.sender,GetDCF) */\n      mload(0x40)\n      dup4\n      0xffffffff\n      and\n      0xe0\n      shl\n      dup2\n      mstore\n      0x04\n      add\n      tag_17\n      swap3\n      swap2\n      swap1\n      tag_18\n      jump\t// in\n    tag_17:\n      0x20\n      mload(0x40)\n      dup1\n      dup4\n      sub\n      dup2\n      0x00\n      dup8\n      gas\n      call\n      iszero\n      dup1\n      iszero\n      tag_20\n      jumpi\n      returndatasize\n      0x00\n      dup1\n      returndatacopy\n      revert(0x00, returndatasize)\n    tag_20:\n      pop\n      pop\n      pop\n      pop\n      mload(0x40)\n      returndatasize\n      not(0x1f)\n      0x1f\n      dup3\n      add\n      and\n      dup3\n      add\n      dup1\n      0x40\n      mstore\n      pop\n      dup2\n      add\n      swap1\n      tag_21\n      swap2\n      swap1\n      tag_22\n      jump\t// in\n    tag_21:\n      pop\n        /* \"treasury_flat_flat.sol\":10584:10626  ScoreWithdrawn[msg.sender].add(afterScore) */\n      tag_23\n        /* \"treasury_flat_flat.sol\":10615:10625  afterScore */\n      dup3\n        /* \"treasury_flat_flat.sol\":10584:10598  ScoreWithdrawn */\n      0x03\n        /* \"treasury_flat_flat.sol\":10584:10610  ScoreWithdrawn[msg.sender] */\n      0x00\n        /* \"treasury_flat_flat.sol\":10599:10609  msg.sender */\n      caller\n        /* \"treasury_flat_flat.sol\":10584:10610  ScoreWithdrawn[msg.sender] */\n      0xffffffffffffffffffffffffffffffffffffffff\n      and\n      0xffffffffffffffffffffffffffffffffffffffff\n      and\n      dup2\n      mstore\n      0x20\n      add\n      swap1\n      dup2\n      mstore\n      0x20\n      add\n      0x00\n      keccak256\n      sload\n        /* \"treasury_flat_flat.sol\":10584:10614  ScoreWithdrawn[msg.sender].add */\n      tag_24\n      swap1\n        /* \"treasury_flat_flat.sol\":10584:10626  ScoreWithdrawn[msg.sender].add(afterScore) */\n      swap2\n      swap1\n      0xffffffff\n      and\n      jump\t// in\n    tag_23:\n        /* \"treasury_flat_flat.sol\":10555:10569  ScoreWithdrawn */\n      0x03\n        /* \"treasury_flat_flat.sol\":10555:10581  ScoreWithdrawn[msg.sender] */\n      0x00\n        /* \"treasury_flat_flat.sol\":10570:10580  msg.sender */\n      caller\n        /* \"treasury_flat_flat.sol\":10555:10581  ScoreWithdrawn[msg.sender] */\n      0xffffffffffffffffffffffffffffffffffffffff\n      and\n      0xffffffffffffffffffffffffffffffffffffffff\n      and\n      dup2\n      mstore\n      0x20\n      add\n      swap1\n      dup2\n      mstore\n      0x20\n      add\n      0x00\n      keccak256\n        /* \"treasury_flat_flat.sol\":10555:10626  ScoreWithdrawn[msg.sender] = ScoreWithdrawn[msg.sender].add(afterScore) */\n      dup2\n      swap1\n      sstore\n      pop\n        /* \"treasury_flat_flat.sol\":10335:10631  {... */\n      pop\n      pop\n      pop\n        /* \"treasury_flat_flat.sol\":10307:10631  function MineDcoff()external{... */\n      jump\t// out\n        /* \"treasury_flat_flat.sol\":3473:3569  function sub(uint256 a, uint256 b) internal pure returns (uint256) {... */\n    tag_14:\n        /* \"treasury_flat_flat.sol\":3531:3538  uint256 */\n      0x00\n        /* \"treasury_flat_flat.sol\":3561:3562  b */\n      dup2\n        /* \"treasury_flat_flat.sol\":3557:3558  a */\n      dup4\n        /* \"treasury_flat_flat.sol\":3557:3562  a - b */\n      tag_26\n      swap2\n      swap1\n      tag_27\n      jump\t// in\n    tag_26:\n        /* \"treasury_flat_flat.sol\":3550:3562  return a - b */\n      swap1\n      pop\n        /* \"treasury_flat_flat.sol\":3473:3569  function sub(uint256 a, uint256 b) internal pure returns (uint256) {... */\n      swap3\n      swap2\n      pop\n      pop\n      jump\t// out\n        /* \"treasury_flat_flat.sol\":3816:3912  function mul(uint256 a, uint256 b) internal pure returns (uint256) {... */\n    tag_16:\n        /* \"treasury_flat_flat.sol\":3874:3881  uint256 */\n      0x00\n        /* \"treasury_flat_flat.sol\":3904:3905  b */\n      dup2\n        /* \"treasury_flat_flat.sol\":3900:3901  a */\n      dup4\n        /* \"treasury_flat_flat.sol\":3900:3905  a * b */\n      tag_29\n      swap2\n      swap1\n      tag_30\n      jump\t// in\n    tag_29:\n        /* \"treasury_flat_flat.sol\":3893:3905  return a * b */\n      swap1\n      pop\n        /* \"treasury_flat_flat.sol\":3816:3912  function mul(uint256 a, uint256 b) internal pure returns (uint256) {... */\n      swap3\n      swap2\n      pop\n      pop\n      jump\t// out\n        /* \"treasury_flat_flat.sol\":3106:3202  function add(uint256 a, uint256 b) internal pure returns (uint256) {... */\n    tag_24:\n        /* \"treasury_flat_flat.sol\":3164:3171  uint256 */\n      0x00\n        /* \"treasury_flat_flat.sol\":3194:3195  b */\n      dup2\n        /* \"treasury_flat_flat.sol\":3190:3191  a */\n      dup4\n        /* \"treasury_flat_flat.sol\":3190:3195  a + b */\n      tag_32\n      swap2\n      swap1\n      tag_33\n      jump\t// in\n    tag_32:\n        /* \"treasury_flat_flat.sol\":3183:3195  return a + b */\n      swap1\n      pop\n        /* \"treasury_flat_flat.sol\":3106:3202  function add(uint256 a, uint256 b) internal pure returns (uint256) {... */\n      swap3\n      swap2\n      pop\n      pop\n      jump\t// out\n        /* \"#utility.yul\":7:133   */\n    tag_34:\n        /* \"#utility.yul\":44:51   */\n      0x00\n        /* \"#utility.yul\":84:126   */\n      0xffffffffffffffffffffffffffffffffffffffff\n        /* \"#utility.yul\":77:82   */\n      dup3\n        /* \"#utility.yul\":73:127   */\n      and\n        /* \"#utility.yul\":62:127   */\n      swap1\n      pop\n        /* \"#utility.yul\":7:133   */\n      swap2\n      swap1\n      pop\n      jump\t// out\n        /* \"#utility.yul\":139:235   */\n    tag_35:\n        /* \"#utility.yul\":176:183   */\n      0x00\n        /* \"#utility.yul\":205:229   */\n      tag_51\n        /* \"#utility.yul\":223:228   */\n      dup3\n        /* \"#utility.yul\":205:229   */\n      tag_34\n      jump\t// in\n    tag_51:\n        /* \"#utility.yul\":194:229   */\n      swap1\n      pop\n        /* \"#utility.yul\":139:235   */\n      swap2\n      swap1\n      pop\n      jump\t// out\n        /* \"#utility.yul\":241:359   */\n    tag_36:\n        /* \"#utility.yul\":328:352   */\n      tag_53\n        /* \"#utility.yul\":346:351   */\n      dup2\n        /* \"#utility.yul\":328:352   */\n      tag_35\n      jump\t// in\n    tag_53:\n        /* \"#utility.yul\":323:326   */\n      dup3\n        /* \"#utility.yul\":316:353   */\n      mstore\n        /* \"#utility.yul\":241:359   */\n      pop\n      pop\n      jump\t// out\n        /* \"#utility.yul\":365:587   */\n    tag_8:\n        /* \"#utility.yul\":458:462   */\n      0x00\n        /* \"#utility.yul\":496:498   */\n      0x20\n        /* \"#utility.yul\":485:494   */\n      dup3\n        /* \"#utility.yul\":481:499   */\n      add\n        /* \"#utility.yul\":473:499   */\n      swap1\n      pop\n        /* \"#utility.yul\":509:580   */\n      tag_55\n        /* \"#utility.yul\":577:578   */\n      0x00\n        /* \"#utility.yul\":566:575   */\n      dup4\n        /* \"#utility.yul\":562:579   */\n      add\n        /* \"#utility.yul\":553:559   */\n      dup5\n        /* \"#utility.yul\":509:580   */\n      tag_36\n      jump\t// in\n    tag_55:\n        /* \"#utility.yul\":365:587   */\n      swap3\n      swap2\n      pop\n      pop\n      jump\t// out\n        /* \"#utility.yul\":674:791   */\n    tag_38:\n        /* \"#utility.yul\":783:784   */\n      0x00\n        /* \"#utility.yul\":780:781   */\n      dup1\n        /* \"#utility.yul\":773:785   */\n      revert\n        /* \"#utility.yul\":920:997   */\n    tag_40:\n        /* \"#utility.yul\":957:964   */\n      0x00\n        /* \"#utility.yul\":986:991   */\n      dup2\n        /* \"#utility.yul\":975:991   */\n      swap1\n      pop\n        /* \"#utility.yul\":920:997   */\n      swap2\n      swap1\n      pop\n      jump\t// out\n        /* \"#utility.yul\":1003:1125   */\n    tag_41:\n        /* \"#utility.yul\":1076:1100   */\n      tag_61\n        /* \"#utility.yul\":1094:1099   */\n      dup2\n        /* \"#utility.yul\":1076:1100   */\n      tag_40\n      jump\t// in\n    tag_61:\n        /* \"#utility.yul\":1069:1074   */\n      dup2\n        /* \"#utility.yul\":1066:1101   */\n      eq\n        /* \"#utility.yul\":1056:1119   */\n      tag_62\n      jumpi\n        /* \"#utility.yul\":1115:1116   */\n      0x00\n        /* \"#utility.yul\":1112:1113   */\n      dup1\n        /* \"#utility.yul\":1105:1117   */\n      revert\n        /* \"#utility.yul\":1056:1119   */\n    tag_62:\n        /* \"#utility.yul\":1003:1125   */\n      pop\n      jump\t// out\n        /* \"#utility.yul\":1131:1274   */\n    tag_42:\n        /* \"#utility.yul\":1188:1193   */\n      0x00\n        /* \"#utility.yul\":1219:1225   */\n      dup2\n        /* \"#utility.yul\":1213:1226   */\n      mload\n        /* \"#utility.yul\":1204:1226   */\n      swap1\n      pop\n        /* \"#utility.yul\":1235:1268   */\n      tag_64\n        /* \"#utility.yul\":1262:1267   */\n      dup2\n        /* \"#utility.yul\":1235:1268   */\n      tag_41\n      jump\t// in\n    tag_64:\n        /* \"#utility.yul\":1131:1274   */\n      swap3\n      swap2\n      pop\n      pop\n      jump\t// out\n        /* \"#utility.yul\":1280:1631   */\n    tag_12:\n        /* \"#utility.yul\":1350:1356   */\n      0x00\n        /* \"#utility.yul\":1399:1401   */\n      0x20\n        /* \"#utility.yul\":1387:1396   */\n      dup3\n        /* \"#utility.yul\":1378:1385   */\n      dup5\n        /* \"#utility.yul\":1374:1397   */\n      sub\n        /* \"#utility.yul\":1370:1402   */\n      slt\n        /* \"#utility.yul\":1367:1486   */\n      iszero\n      tag_66\n      jumpi\n        /* \"#utility.yul\":1405:1484   */\n      tag_67\n      tag_38\n      jump\t// in\n    tag_67:\n        /* \"#utility.yul\":1367:1486   */\n    tag_66:\n        /* \"#utility.yul\":1525:1526   */\n      0x00\n        /* \"#utility.yul\":1550:1614   */\n      tag_68\n        /* \"#utility.yul\":1606:1613   */\n      dup5\n        /* \"#utility.yul\":1597:1603   */\n      dup3\n        /* \"#utility.yul\":1586:1595   */\n      dup6\n        /* \"#utility.yul\":1582:1604   */\n      add\n        /* \"#utility.yul\":1550:1614   */\n      tag_42\n      jump\t// in\n    tag_68:\n        /* \"#utility.yul\":1540:1614   */\n      swap2\n      pop\n        /* \"#utility.yul\":1496:1624   */\n      pop\n        /* \"#utility.yul\":1280:1631   */\n      swap3\n      swap2\n      pop\n      pop\n      jump\t// out\n        /* \"#utility.yul\":1637:1755   */\n    tag_43:\n        /* \"#utility.yul\":1724:1748   */\n      tag_70\n        /* \"#utility.yul\":1742:1747   */\n      dup2\n        /* \"#utility.yul\":1724:1748   */\n      tag_40\n      jump\t// in\n    tag_70:\n        /* \"#utility.yul\":1719:1722   */\n      dup3\n        /* \"#utility.yul\":1712:1749   */\n      mstore\n        /* \"#utility.yul\":1637:1755   */\n      pop\n      pop\n      jump\t// out\n        /* \"#utility.yul\":1761:2093   */\n    tag_18:\n        /* \"#utility.yul\":1882:1886   */\n      0x00\n        /* \"#utility.yul\":1920:1922   */\n      0x40\n        /* \"#utility.yul\":1909:1918   */\n      dup3\n        /* \"#utility.yul\":1905:1923   */\n      add\n        /* \"#utility.yul\":1897:1923   */\n      swap1\n      pop\n        /* \"#utility.yul\":1933:2004   */\n      tag_72\n        /* \"#utility.yul\":2001:2002   */\n      0x00\n        /* \"#utility.yul\":1990:1999   */\n      dup4\n        /* \"#utility.yul\":1986:2003   */\n      add\n        /* \"#utility.yul\":1977:1983   */\n      dup6\n        /* \"#utility.yul\":1933:2004   */\n      tag_36\n      jump\t// in\n    tag_72:\n        /* \"#utility.yul\":2014:2086   */\n      tag_73\n        /* \"#utility.yul\":2082:2084   */\n      0x20\n        /* \"#utility.yul\":2071:2080   */\n      dup4\n        /* \"#utility.yul\":2067:2085   */\n      add\n        /* \"#utility.yul\":2058:2064   */\n      dup5\n        /* \"#utility.yul\":2014:2086   */\n      tag_43\n      jump\t// in\n    tag_73:\n        /* \"#utility.yul\":1761:2093   */\n      swap4\n      swap3\n      pop\n      pop\n      pop\n      jump\t// out\n        /* \"#utility.yul\":2099:2189   */\n    tag_44:\n        /* \"#utility.yul\":2133:2140   */\n      0x00\n        /* \"#utility.yul\":2176:2181   */\n      dup2\n        /* \"#utility.yul\":2169:2182   */\n      iszero\n        /* \"#utility.yul\":2162:2183   */\n      iszero\n        /* \"#utility.yul\":2151:2183   */\n      swap1\n      pop\n        /* \"#utility.yul\":2099:2189   */\n      swap2\n      swap1\n      pop\n      jump\t// out\n        /* \"#utility.yul\":2195:2311   */\n    tag_45:\n        /* \"#utility.yul\":2265:2286   */\n      tag_76\n        /* \"#utility.yul\":2280:2285   */\n      dup2\n        /* \"#utility.yul\":2265:2286   */\n      tag_44\n      jump\t// in\n    tag_76:\n        /* \"#utility.yul\":2258:2263   */\n      dup2\n        /* \"#utility.yul\":2255:2287   */\n      eq\n        /* \"#utility.yul\":2245:2305   */\n      tag_77\n      jumpi\n        /* \"#utility.yul\":2301:2302   */\n      0x00\n        /* \"#utility.yul\":2298:2299   */\n      dup1\n        /* \"#utility.yul\":2291:2303   */\n      revert\n        /* \"#utility.yul\":2245:2305   */\n    tag_77:\n        /* \"#utility.yul\":2195:2311   */\n      pop\n      jump\t// out\n        /* \"#utility.yul\":2317:2454   */\n    tag_46:\n        /* \"#utility.yul\":2371:2376   */\n      0x00\n        /* \"#utility.yul\":2402:2408   */\n      dup2\n        /* \"#utility.yul\":2396:2409   */\n      mload\n        /* \"#utility.yul\":2387:2409   */\n      swap1\n      pop\n        /* \"#utility.yul\":2418:2448   */\n      tag_79\n        /* \"#utility.yul\":2442:2447   */\n      dup2\n        /* \"#utility.yul\":2418:2448   */\n      tag_45\n      jump\t// in\n    tag_79:\n        /* \"#utility.yul\":2317:2454   */\n      swap3\n      swap2\n      pop\n      pop\n      jump\t// out\n        /* \"#utility.yul\":2460:2805   */\n    tag_22:\n        /* \"#utility.yul\":2527:2533   */\n      0x00\n        /* \"#utility.yul\":2576:2578   */\n      0x20\n        /* \"#utility.yul\":2564:2573   */\n      dup3\n        /* \"#utility.yul\":2555:2562   */\n      dup5\n        /* \"#utility.yul\":2551:2574   */\n      sub\n        /* \"#utility.yul\":2547:2579   */\n      slt\n        /* \"#utility.yul\":2544:2663   */\n      iszero\n      tag_81\n      jumpi\n        /* \"#utility.yul\":2582:2661   */\n      tag_82\n      tag_38\n      jump\t// in\n    tag_82:\n        /* \"#utility.yul\":2544:2663   */\n    tag_81:\n        /* \"#utility.yul\":2702:2703   */\n      0x00\n        /* \"#utility.yul\":2727:2788   */\n      tag_83\n        /* \"#utility.yul\":2780:2787   */\n      dup5\n        /* \"#utility.yul\":2771:2777   */\n      dup3\n        /* \"#utility.yul\":2760:2769   */\n      dup6\n        /* \"#utility.yul\":2756:2778   */\n      add\n        /* \"#utility.yul\":2727:2788   */\n      tag_46\n      jump\t// in\n    tag_83:\n        /* \"#utility.yul\":2717:2788   */\n      swap2\n      pop\n        /* \"#utility.yul\":2673:2798   */\n      pop\n        /* \"#utility.yul\":2460:2805   */\n      swap3\n      swap2\n      pop\n      pop\n      jump\t// out\n        /* \"#utility.yul\":2811:2991   */\n    tag_47:\n        /* \"#utility.yul\":2859:2936   */\n      0x4e487b7100000000000000000000000000000000000000000000000000000000\n        /* \"#utility.yul\":2856:2857   */\n      0x00\n        /* \"#utility.yul\":2849:2937   */\n      mstore\n        /* \"#utility.yul\":2956:2960   */\n      0x11\n        /* \"#utility.yul\":2953:2954   */\n      0x04\n        /* \"#utility.yul\":2946:2961   */\n      mstore\n        /* \"#utility.yul\":2980:2984   */\n      0x24\n        /* \"#utility.yul\":2977:2978   */\n      0x00\n        /* \"#utility.yul\":2970:2985   */\n      revert\n        /* \"#utility.yul\":2997:3188   */\n    tag_27:\n        /* \"#utility.yul\":3037:3041   */\n      0x00\n        /* \"#utility.yul\":3057:3077   */\n      tag_86\n        /* \"#utility.yul\":3075:3076   */\n      dup3\n        /* \"#utility.yul\":3057:3077   */\n      tag_40\n      jump\t// in\n    tag_86:\n        /* \"#utility.yul\":3052:3077   */\n      swap2\n      pop\n        /* \"#utility.yul\":3091:3111   */\n      tag_87\n        /* \"#utility.yul\":3109:3110   */\n      dup4\n        /* \"#utility.yul\":3091:3111   */\n      tag_40\n      jump\t// in\n    tag_87:\n        /* \"#utility.yul\":3086:3111   */\n      swap3\n      pop\n        /* \"#utility.yul\":3130:3131   */\n      dup3\n        /* \"#utility.yul\":3127:3128   */\n      dup3\n        /* \"#utility.yul\":3124:3132   */\n      lt\n        /* \"#utility.yul\":3121:3155   */\n      iszero\n      tag_88\n      jumpi\n        /* \"#utility.yul\":3135:3153   */\n      tag_89\n      tag_47\n      jump\t// in\n    tag_89:\n        /* \"#utility.yul\":3121:3155   */\n    tag_88:\n        /* \"#utility.yul\":3180:3181   */\n      dup3\n        /* \"#utility.yul\":3177:3178   */\n      dup3\n        /* \"#utility.yul\":3173:3182   */\n      sub\n        /* \"#utility.yul\":3165:3182   */\n      swap1\n      pop\n        /* \"#utility.yul\":2997:3188   */\n      swap3\n      swap2\n      pop\n      pop\n      jump\t// out\n        /* \"#utility.yul\":3194:3542   */\n    tag_30:\n        /* \"#utility.yul\":3234:3241   */\n      0x00\n        /* \"#utility.yul\":3257:3277   */\n      tag_91\n        /* \"#utility.yul\":3275:3276   */\n      dup3\n        /* \"#utility.yul\":3257:3277   */\n      tag_40\n      jump\t// in\n    tag_91:\n        /* \"#utility.yul\":3252:3277   */\n      swap2\n      pop\n        /* \"#utility.yul\":3291:3311   */\n      tag_92\n        /* \"#utility.yul\":3309:3310   */\n      dup4\n        /* \"#utility.yul\":3291:3311   */\n      tag_40\n      jump\t// in\n    tag_92:\n        /* \"#utility.yul\":3286:3311   */\n      swap3\n      pop\n        /* \"#utility.yul\":3479:3480   */\n      dup2\n        /* \"#utility.yul\":3411:3477   */\n      0xffffffffffffffffffffffffffffffffffffffffffffffffffffffffffffffff\n        /* \"#utility.yul\":3407:3481   */\n      div\n        /* \"#utility.yul\":3404:3405   */\n      dup4\n        /* \"#utility.yul\":3401:3482   */\n      gt\n        /* \"#utility.yul\":3396:3397   */\n      dup3\n        /* \"#utility.yul\":3389:3398   */\n      iszero\n        /* \"#utility.yul\":3382:3399   */\n      iszero\n        /* \"#utility.yul\":3378:3483   */\n      and\n        /* \"#utility.yul\":3375:3506   */\n      iszero\n      tag_93\n      jumpi\n        /* \"#utility.yul\":3486:3504   */\n      tag_94\n      tag_47\n      jump\t// in\n    tag_94:\n        /* \"#utility.yul\":3375:3506   */\n    tag_93:\n        /* \"#utility.yul\":3534:3535   */\n      dup3\n        /* \"#utility.yul\":3531:3532   */\n      dup3\n        /* \"#utility.yul\":3527:3536   */\n      mul\n        /* \"#utility.yul\":3516:3536   */\n      swap1\n      pop\n        /* \"#utility.yul\":3194:3542   */\n      swap3\n      swap2\n      pop\n      pop\n      jump\t// out\n        /* \"#utility.yul\":3548:3853   */\n    tag_33:\n        /* \"#utility.yul\":3588:3591   */\n      0x00\n        /* \"#utility.yul\":3607:3627   */\n      tag_96\n        /* \"#utility.yul\":3625:3626   */\n      dup3\n        /* \"#utility.yul\":3607:3627   */\n      tag_40\n      jump\t// in\n    tag_96:\n        /* \"#utility.yul\":3602:3627   */\n      swap2\n      pop\n        /* \"#utility.yul\":3641:3661   */\n      tag_97\n        /* \"#utility.yul\":3659:3660   */\n      dup4\n        /* \"#utility.yul\":3641:3661   */\n      tag_40\n      jump\t// in\n    tag_97:\n        /* \"#utility.yul\":3636:3661   */\n      swap3\n      pop\n        /* \"#utility.yul\":3795:3796   */\n      dup3\n        /* \"#utility.yul\":3727:3793   */\n      0xffffffffffffffffffffffffffffffffffffffffffffffffffffffffffffffff\n        /* \"#utility.yul\":3723:3797   */\n      sub\n        /* \"#utility.yul\":3720:3721   */\n      dup3\n        /* \"#utility.yul\":3717:3798   */\n      gt\n        /* \"#utility.yul\":3714:3821   */\n      iszero\n      tag_98\n      jumpi\n        /* \"#utility.yul\":3801:3819   */\n      tag_99\n      tag_47\n      jump\t// in\n    tag_99:\n        /* \"#utility.yul\":3714:3821   */\n    tag_98:\n        /* \"#utility.yul\":3845:3846   */\n      dup3\n        /* \"#utility.yul\":3842:3843   */\n      dup3\n        /* \"#utility.yul\":3838:3847   */\n      add\n        /* \"#utility.yul\":3831:3847   */\n      swap1\n      pop\n        /* \"#utility.yul\":3548:3853   */\n      swap3\n      swap2\n      pop\n      pop\n      jump\t// out\n\n    auxdata: 0xa2646970667358221220fdd1a284d03cd907774d442dbf5fee31fefc8aef77954212e86bb25f198737b964736f6c634300080d0033\n}\n",
				"bytecode": {
					"linkReferences": {},
					"object": "6080604052736a544367fca7064b6ada5dc87f7e5058a9bb7af96000806101000a81548173ffffffffffffffffffffffffffffffffffffffff021916908373ffffffffffffffffffffffffffffffffffffffff16021790555073be0c856e2981b9f03d7613566dfc6679eee4708a600160006101000a81548173ffffffffffffffffffffffffffffffffffffffff021916908373ffffffffffffffffffffffffffffffffffffffff1602179055503480156100b957600080fd5b5065b5e620f4800060028190555061056f806100d66000396000f3fe608060405234801561001057600080fd5b506004361061002b5760003560e01c80638bed477814610030575b600080fd5b61003861003a565b005b60008060009054906101000a900473ffffffffffffffffffffffffffffffffffffffff1673ffffffffffffffffffffffffffffffffffffffff1663325b272a336040518263ffffffff1660e01b81526004016100969190610306565b602060405180830381865afa1580156100b3573d6000803e3d6000fd5b505050506040513d601f19601f820116820180604052508101906100d7919061035c565b9050600061012d600360003373ffffffffffffffffffffffffffffffffffffffff1673ffffffffffffffffffffffffffffffffffffffff168152602001908152602001600020548361028390919063ffffffff16565b905060006101466002548361029990919063ffffffff16565b9050600160009054906101000a900473ffffffffffffffffffffffffffffffffffffffff1673ffffffffffffffffffffffffffffffffffffffff1663a9059cbb33836040518363ffffffff1660e01b81526004016101a5929190610398565b6020604051808303816000875af11580156101c4573d6000803e3d6000fd5b505050506040513d601f19601f820116820180604052508101906101e891906103f9565b5061023b82600360003373ffffffffffffffffffffffffffffffffffffffff1673ffffffffffffffffffffffffffffffffffffffff168152602001908152602001600020546102af90919063ffffffff16565b600360003373ffffffffffffffffffffffffffffffffffffffff1673ffffffffffffffffffffffffffffffffffffffff16815260200190815260200160002081905550505050565b600081836102919190610455565b905092915050565b600081836102a79190610489565b905092915050565b600081836102bd91906104e3565b905092915050565b600073ffffffffffffffffffffffffffffffffffffffff82169050919050565b60006102f0826102c5565b9050919050565b610300816102e5565b82525050565b600060208201905061031b60008301846102f7565b92915050565b600080fd5b6000819050919050565b61033981610326565b811461034457600080fd5b50565b60008151905061035681610330565b92915050565b60006020828403121561037257610371610321565b5b600061038084828501610347565b91505092915050565b61039281610326565b82525050565b60006040820190506103ad60008301856102f7565b6103ba6020830184610389565b9392505050565b60008115159050919050565b6103d6816103c1565b81146103e157600080fd5b50565b6000815190506103f3816103cd565b92915050565b60006020828403121561040f5761040e610321565b5b600061041d848285016103e4565b91505092915050565b7f4e487b7100000000000000000000000000000000000000000000000000000000600052601160045260246000fd5b600061046082610326565b915061046b83610326565b92508282101561047e5761047d610426565b5b828203905092915050565b600061049482610326565b915061049f83610326565b9250817fffffffffffffffffffffffffffffffffffffffffffffffffffffffffffffffff04831182151516156104d8576104d7610426565b5b828202905092915050565b60006104ee82610326565b91506104f983610326565b9250827fffffffffffffffffffffffffffffffffffffffffffffffffffffffffffffffff0382111561052e5761052d610426565b5b82820190509291505056fea2646970667358221220fdd1a284d03cd907774d442dbf5fee31fefc8aef77954212e86bb25f198737b964736f6c634300080d0033",
					"opcodes": "PUSH1 0x80 PUSH1 0x40 MSTORE PUSH20 0x6A544367FCA7064B6ADA5DC87F7E5058A9BB7AF9 PUSH1 0x0 DUP1 PUSH2 0x100 EXP DUP2 SLOAD DUP2 PUSH20 0xFFFFFFFFFFFFFFFFFFFFFFFFFFFFFFFFFFFFFFFF MUL NOT AND SWAP1 DUP4 PUSH20 0xFFFFFFFFFFFFFFFFFFFFFFFFFFFFFFFFFFFFFFFF AND MUL OR SWAP1 SSTORE POP PUSH20 0xBE0C856E2981B9F03D7613566DFC6679EEE4708A PUSH1 0x1 PUSH1 0x0 PUSH2 0x100 EXP DUP2 SLOAD DUP2 PUSH20 0xFFFFFFFFFFFFFFFFFFFFFFFFFFFFFFFFFFFFFFFF MUL NOT AND SWAP1 DUP4 PUSH20 0xFFFFFFFFFFFFFFFFFFFFFFFFFFFFFFFFFFFFFFFF AND MUL OR SWAP1 SSTORE POP CALLVALUE DUP1 ISZERO PUSH2 0xB9 JUMPI PUSH1 0x0 DUP1 REVERT JUMPDEST POP PUSH6 0xB5E620F48000 PUSH1 0x2 DUP2 SWAP1 SSTORE POP PUSH2 0x56F DUP1 PUSH2 0xD6 PUSH1 0x0 CODECOPY PUSH1 0x0 RETURN INVALID PUSH1 0x80 PUSH1 0x40 MSTORE CALLVALUE DUP1 ISZERO PUSH2 0x10 JUMPI PUSH1 0x0 DUP1 REVERT JUMPDEST POP PUSH1 0x4 CALLDATASIZE LT PUSH2 0x2B JUMPI PUSH1 0x0 CALLDATALOAD PUSH1 0xE0 SHR DUP1 PUSH4 0x8BED4778 EQ PUSH2 0x30 JUMPI JUMPDEST PUSH1 0x0 DUP1 REVERT JUMPDEST PUSH2 0x38 PUSH2 0x3A JUMP JUMPDEST STOP JUMPDEST PUSH1 0x0 DUP1 PUSH1 0x0 SWAP1 SLOAD SWAP1 PUSH2 0x100 EXP SWAP1 DIV PUSH20 0xFFFFFFFFFFFFFFFFFFFFFFFFFFFFFFFFFFFFFFFF AND PUSH20 0xFFFFFFFFFFFFFFFFFFFFFFFFFFFFFFFFFFFFFFFF AND PUSH4 0x325B272A CALLER PUSH1 0x40 MLOAD DUP3 PUSH4 0xFFFFFFFF AND PUSH1 0xE0 SHL DUP2 MSTORE PUSH1 0x4 ADD PUSH2 0x96 SWAP2 SWAP1 PUSH2 0x306 JUMP JUMPDEST PUSH1 0x20 PUSH1 0x40 MLOAD DUP1 DUP4 SUB DUP2 DUP7 GAS STATICCALL ISZERO DUP1 ISZERO PUSH2 0xB3 JUMPI RETURNDATASIZE PUSH1 0x0 DUP1 RETURNDATACOPY RETURNDATASIZE PUSH1 0x0 REVERT JUMPDEST POP POP POP POP PUSH1 0x40 MLOAD RETURNDATASIZE PUSH1 0x1F NOT PUSH1 0x1F DUP3 ADD AND DUP3 ADD DUP1 PUSH1 0x40 MSTORE POP DUP2 ADD SWAP1 PUSH2 0xD7 SWAP2 SWAP1 PUSH2 0x35C JUMP JUMPDEST SWAP1 POP PUSH1 0x0 PUSH2 0x12D PUSH1 0x3 PUSH1 0x0 CALLER PUSH20 0xFFFFFFFFFFFFFFFFFFFFFFFFFFFFFFFFFFFFFFFF AND PUSH20 0xFFFFFFFFFFFFFFFFFFFFFFFFFFFFFFFFFFFFFFFF AND DUP2 MSTORE PUSH1 0x20 ADD SWAP1 DUP2 MSTORE PUSH1 0x20 ADD PUSH1 0x0 KECCAK256 SLOAD DUP4 PUSH2 0x283 SWAP1 SWAP2 SWAP1 PUSH4 0xFFFFFFFF AND JUMP JUMPDEST SWAP1 POP PUSH1 0x0 PUSH2 0x146 PUSH1 0x2 SLOAD DUP4 PUSH2 0x299 SWAP1 SWAP2 SWAP1 PUSH4 0xFFFFFFFF AND JUMP JUMPDEST SWAP1 POP PUSH1 0x1 PUSH1 0x0 SWAP1 SLOAD SWAP1 PUSH2 0x100 EXP SWAP1 DIV PUSH20 0xFFFFFFFFFFFFFFFFFFFFFFFFFFFFFFFFFFFFFFFF AND PUSH20 0xFFFFFFFFFFFFFFFFFFFFFFFFFFFFFFFFFFFFFFFF AND PUSH4 0xA9059CBB CALLER DUP4 PUSH1 0x40 MLOAD DUP4 PUSH4 0xFFFFFFFF AND PUSH1 0xE0 SHL DUP2 MSTORE PUSH1 0x4 ADD PUSH2 0x1A5 SWAP3 SWAP2 SWAP1 PUSH2 0x398 JUMP JUMPDEST PUSH1 0x20 PUSH1 0x40 MLOAD DUP1 DUP4 SUB DUP2 PUSH1 0x0 DUP8 GAS CALL ISZERO DUP1 ISZERO PUSH2 0x1C4 JUMPI RETURNDATASIZE PUSH1 0x0 DUP1 RETURNDATACOPY RETURNDATASIZE PUSH1 0x0 REVERT JUMPDEST POP POP POP POP PUSH1 0x40 MLOAD RETURNDATASIZE PUSH1 0x1F NOT PUSH1 0x1F DUP3 ADD AND DUP3 ADD DUP1 PUSH1 0x40 MSTORE POP DUP2 ADD SWAP1 PUSH2 0x1E8 SWAP2 SWAP1 PUSH2 0x3F9 JUMP JUMPDEST POP PUSH2 0x23B DUP3 PUSH1 0x3 PUSH1 0x0 CALLER PUSH20 0xFFFFFFFFFFFFFFFFFFFFFFFFFFFFFFFFFFFFFFFF AND PUSH20 0xFFFFFFFFFFFFFFFFFFFFFFFFFFFFFFFFFFFFFFFF AND DUP2 MSTORE PUSH1 0x20 ADD SWAP1 DUP2 MSTORE PUSH1 0x20 ADD PUSH1 0x0 KECCAK256 SLOAD PUSH2 0x2AF SWAP1 SWAP2 SWAP1 PUSH4 0xFFFFFFFF AND JUMP JUMPDEST PUSH1 0x3 PUSH1 0x0 CALLER PUSH20 0xFFFFFFFFFFFFFFFFFFFFFFFFFFFFFFFFFFFFFFFF AND PUSH20 0xFFFFFFFFFFFFFFFFFFFFFFFFFFFFFFFFFFFFFFFF AND DUP2 MSTORE PUSH1 0x20 ADD SWAP1 DUP2 MSTORE PUSH1 0x20 ADD PUSH1 0x0 KECCAK256 DUP2 SWAP1 SSTORE POP POP POP POP JUMP JUMPDEST PUSH1 0x0 DUP2 DUP4 PUSH2 0x291 SWAP2 SWAP1 PUSH2 0x455 JUMP JUMPDEST SWAP1 POP SWAP3 SWAP2 POP POP JUMP JUMPDEST PUSH1 0x0 DUP2 DUP4 PUSH2 0x2A7 SWAP2 SWAP1 PUSH2 0x489 JUMP JUMPDEST SWAP1 POP SWAP3 SWAP2 POP POP JUMP JUMPDEST PUSH1 0x0 DUP2 DUP4 PUSH2 0x2BD SWAP2 SWAP1 PUSH2 0x4E3 JUMP JUMPDEST SWAP1 POP SWAP3 SWAP2 POP POP JUMP JUMPDEST PUSH1 0x0 PUSH20 0xFFFFFFFFFFFFFFFFFFFFFFFFFFFFFFFFFFFFFFFF DUP3 AND SWAP1 POP SWAP2 SWAP1 POP JUMP JUMPDEST PUSH1 0x0 PUSH2 0x2F0 DUP3 PUSH2 0x2C5 JUMP JUMPDEST SWAP1 POP SWAP2 SWAP1 POP JUMP JUMPDEST PUSH2 0x300 DUP2 PUSH2 0x2E5 JUMP JUMPDEST DUP3 MSTORE POP POP JUMP JUMPDEST PUSH1 0x0 PUSH1 0x20 DUP3 ADD SWAP1 POP PUSH2 0x31B PUSH1 0x0 DUP4 ADD DUP5 PUSH2 0x2F7 JUMP JUMPDEST SWAP3 SWAP2 POP POP JUMP JUMPDEST PUSH1 0x0 DUP1 REVERT JUMPDEST PUSH1 0x0 DUP2 SWAP1 POP SWAP2 SWAP1 POP JUMP JUMPDEST PUSH2 0x339 DUP2 PUSH2 0x326 JUMP JUMPDEST DUP2 EQ PUSH2 0x344 JUMPI PUSH1 0x0 DUP1 REVERT JUMPDEST POP JUMP JUMPDEST PUSH1 0x0 DUP2 MLOAD SWAP1 POP PUSH2 0x356 DUP2 PUSH2 0x330 JUMP JUMPDEST SWAP3 SWAP2 POP POP JUMP JUMPDEST PUSH1 0x0 PUSH1 0x20 DUP3 DUP5 SUB SLT ISZERO PUSH2 0x372 JUMPI PUSH2 0x371 PUSH2 0x321 JUMP JUMPDEST JUMPDEST PUSH1 0x0 PUSH2 0x380 DUP5 DUP3 DUP6 ADD PUSH2 0x347 JUMP JUMPDEST SWAP2 POP POP SWAP3 SWAP2 POP POP JUMP JUMPDEST PUSH2 0x392 DUP2 PUSH2 0x326 JUMP JUMPDEST DUP3 MSTORE POP POP JUMP JUMPDEST PUSH1 0x0 PUSH1 0x40 DUP3 ADD SWAP1 POP PUSH2 0x3AD PUSH1 0x0 DUP4 ADD DUP6 PUSH2 0x2F7 JUMP JUMPDEST PUSH2 0x3BA PUSH1 0x20 DUP4 ADD DUP5 PUSH2 0x389 JUMP JUMPDEST SWAP4 SWAP3 POP POP POP JUMP JUMPDEST PUSH1 0x0 DUP2 ISZERO ISZERO SWAP1 POP SWAP2 SWAP1 POP JUMP JUMPDEST PUSH2 0x3D6 DUP2 PUSH2 0x3C1 JUMP JUMPDEST DUP2 EQ PUSH2 0x3E1 JUMPI PUSH1 0x0 DUP1 REVERT JUMPDEST POP JUMP JUMPDEST PUSH1 0x0 DUP2 MLOAD SWAP1 POP PUSH2 0x3F3 DUP2 PUSH2 0x3CD JUMP JUMPDEST SWAP3 SWAP2 POP POP JUMP JUMPDEST PUSH1 0x0 PUSH1 0x20 DUP3 DUP5 SUB SLT ISZERO PUSH2 0x40F JUMPI PUSH2 0x40E PUSH2 0x321 JUMP JUMPDEST JUMPDEST PUSH1 0x0 PUSH2 0x41D DUP5 DUP3 DUP6 ADD PUSH2 0x3E4 JUMP JUMPDEST SWAP2 POP POP SWAP3 SWAP2 POP POP JUMP JUMPDEST PUSH32 0x4E487B7100000000000000000000000000000000000000000000000000000000 PUSH1 0x0 MSTORE PUSH1 0x11 PUSH1 0x4 MSTORE PUSH1 0x24 PUSH1 0x0 REVERT JUMPDEST PUSH1 0x0 PUSH2 0x460 DUP3 PUSH2 0x326 JUMP JUMPDEST SWAP2 POP PUSH2 0x46B DUP4 PUSH2 0x326 JUMP JUMPDEST SWAP3 POP DUP3 DUP3 LT ISZERO PUSH2 0x47E JUMPI PUSH2 0x47D PUSH2 0x426 JUMP JUMPDEST JUMPDEST DUP3 DUP3 SUB SWAP1 POP SWAP3 SWAP2 POP POP JUMP JUMPDEST PUSH1 0x0 PUSH2 0x494 DUP3 PUSH2 0x326 JUMP JUMPDEST SWAP2 POP PUSH2 0x49F DUP4 PUSH2 0x326 JUMP JUMPDEST SWAP3 POP DUP2 PUSH32 0xFFFFFFFFFFFFFFFFFFFFFFFFFFFFFFFFFFFFFFFFFFFFFFFFFFFFFFFFFFFFFFFF DIV DUP4 GT DUP3 ISZERO ISZERO AND ISZERO PUSH2 0x4D8 JUMPI PUSH2 0x4D7 PUSH2 0x426 JUMP JUMPDEST JUMPDEST DUP3 DUP3 MUL SWAP1 POP SWAP3 SWAP2 POP POP JUMP JUMPDEST PUSH1 0x0 PUSH2 0x4EE DUP3 PUSH2 0x326 JUMP JUMPDEST SWAP2 POP PUSH2 0x4F9 DUP4 PUSH2 0x326 JUMP JUMPDEST SWAP3 POP DUP3 PUSH32 0xFFFFFFFFFFFFFFFFFFFFFFFFFFFFFFFFFFFFFFFFFFFFFFFFFFFFFFFFFFFFFFFF SUB DUP3 GT ISZERO PUSH2 0x52E JUMPI PUSH2 0x52D PUSH2 0x426 JUMP JUMPDEST JUMPDEST DUP3 DUP3 ADD SWAP1 POP SWAP3 SWAP2 POP POP JUMP INVALID LOG2 PUSH5 0x6970667358 0x22 SLT KECCAK256 REVERT 0xD1 LOG2 DUP5 0xD0 EXTCODECOPY 0xD9 SMOD PUSH24 0x4D442DBF5FEE31FEFC8AEF77954212E86BB25F198737B964 PUSH20 0x6F6C634300080D00330000000000000000000000 "
				},
				"gasEstimates": {
					"creation": {
						"codeDepositCost": "278200",
						"executionCost": "70966",
						"totalCost": "349166"
					},
					"external": {
						"MineDcoff()": "infinite"
					}
				},
				"methodIdentifiers": {
					"MineDcoff()": "8bed4778"
				}
			},
			"storageLayout": {
				"storage": [
					{
						"astId": 408,
						"contract": "treasury_flat_flat.sol:treasury",
						"label": "mine",
						"offset": 0,
						"slot": "0",
						"type": "t_contract(IDCF)10"
					},
					{
						"astId": 414,
						"contract": "treasury_flat_flat.sol:treasury",
						"label": "dcoff",
						"offset": 0,
						"slot": "1",
						"type": "t_contract(IERC20)398"
					},
					{
						"astId": 416,
						"contract": "treasury_flat_flat.sol:treasury",
						"label": "DcoffperBlock",
						"offset": 0,
						"slot": "2",
						"type": "t_uint256"
					},
					{
						"astId": 420,
						"contract": "treasury_flat_flat.sol:treasury",
						"label": "ScoreWithdrawn",
						"offset": 0,
						"slot": "3",
						"type": "t_mapping(t_address,t_uint256)"
					}
				],
				"types": {
					"t_address": {
						"encoding": "inplace",
						"label": "address",
						"numberOfBytes": "20"
					},
					"t_contract(IDCF)10": {
						"encoding": "inplace",
						"label": "contract IDCF",
						"numberOfBytes": "20"
					},
					"t_contract(IERC20)398": {
						"encoding": "inplace",
						"label": "contract IERC20",
						"numberOfBytes": "20"
					},
					"t_mapping(t_address,t_uint256)": {
						"encoding": "mapping",
						"key": "t_address",
						"label": "mapping(address => uint256)",
						"numberOfBytes": "32",
						"value": "t_uint256"
					},
					"t_uint256": {
						"encoding": "inplace",
						"label": "uint256",
						"numberOfBytes": "32"
					}
				}
			},
			"userdoc": {
				"kind": "user",
				"methods": {},
				"version": 1
			}
		}
	}
}