{
	"Dcoffer_flat.sol": {
		"ERC721A": {
			"abi": [
				{
					"inputs": [
						{
							"internalType": "string",
							"name": "name_",
							"type": "string"
						},
						{
							"internalType": "string",
							"name": "symbol_",
							"type": "string"
						}
					],
					"stateMutability": "nonpayable",
					"type": "constructor"
				},
				{
					"inputs": [],
					"name": "ApprovalCallerNotOwnerNorApproved",
					"type": "error"
				},
				{
					"inputs": [],
					"name": "ApprovalQueryForNonexistentToken",
					"type": "error"
				},
				{
					"inputs": [],
					"name": "ApprovalToCurrentOwner",
					"type": "error"
				},
				{
					"inputs": [],
					"name": "ApproveToCaller",
					"type": "error"
				},
				{
					"inputs": [],
					"name": "BalanceQueryForZeroAddress",
					"type": "error"
				},
				{
					"inputs": [],
					"name": "MintToZeroAddress",
					"type": "error"
				},
				{
					"inputs": [],
					"name": "MintZeroQuantity",
					"type": "error"
				},
				{
					"inputs": [],
					"name": "OwnerQueryForNonexistentToken",
					"type": "error"
				},
				{
					"inputs": [],
					"name": "TransferCallerNotOwnerNorApproved",
					"type": "error"
				},
				{
					"inputs": [],
					"name": "TransferFromIncorrectOwner",
					"type": "error"
				},
				{
					"inputs": [],
					"name": "TransferToNonERC721ReceiverImplementer",
					"type": "error"
				},
				{
					"inputs": [],
					"name": "TransferToZeroAddress",
					"type": "error"
				},
				{
					"inputs": [],
					"name": "URIQueryForNonexistentToken",
					"type": "error"
				},
				{
					"anonymous": false,
					"inputs": [
						{
							"indexed": true,
							"internalType": "address",
							"name": "owner",
							"type": "address"
						},
						{
							"indexed": true,
							"internalType": "address",
							"name": "approved",
							"type": "address"
						},
						{
							"indexed": true,
							"internalType": "uint256",
							"name": "tokenId",
							"type": "uint256"
						}
					],
					"name": "Approval",
					"type": "event"
				},
				{
					"anonymous": false,
					"inputs": [
						{
							"indexed": true,
							"internalType": "address",
							"name": "owner",
							"type": "address"
						},
						{
							"indexed": true,
							"internalType": "address",
							"name": "operator",
							"type": "address"
						},
						{
							"indexed": false,
							"internalType": "bool",
							"name": "approved",
							"type": "bool"
						}
					],
					"name": "ApprovalForAll",
					"type": "event"
				},
				{
					"anonymous": false,
					"inputs": [
						{
							"indexed": true,
							"internalType": "address",
							"name": "from",
							"type": "address"
						},
						{
							"indexed": true,
							"internalType": "address",
							"name": "to",
							"type": "address"
						},
						{
							"indexed": true,
							"internalType": "uint256",
							"name": "tokenId",
							"type": "uint256"
						}
					],
					"name": "Transfer",
					"type": "event"
				},
				{
					"inputs": [
						{
							"internalType": "address",
							"name": "to",
							"type": "address"
						},
						{
							"internalType": "uint256",
							"name": "tokenId",
							"type": "uint256"
						}
					],
					"name": "approve",
					"outputs": [],
					"stateMutability": "nonpayable",
					"type": "function"
				},
				{
					"inputs": [
						{
							"internalType": "address",
							"name": "owner",
							"type": "address"
						}
					],
					"name": "balanceOf",
					"outputs": [
						{
							"internalType": "uint256",
							"name": "",
							"type": "uint256"
						}
					],
					"stateMutability": "view",
					"type": "function"
				},
				{
					"inputs": [
						{
							"internalType": "uint256",
							"name": "tokenId",
							"type": "uint256"
						}
					],
					"name": "getApproved",
					"outputs": [
						{
							"internalType": "address",
							"name": "",
							"type": "address"
						}
					],
					"stateMutability": "view",
					"type": "function"
				},
				{
					"inputs": [
						{
							"internalType": "address",
							"name": "owner",
							"type": "address"
						},
						{
							"internalType": "address",
							"name": "operator",
							"type": "address"
						}
					],
					"name": "isApprovedForAll",
					"outputs": [
						{
							"internalType": "bool",
							"name": "",
							"type": "bool"
						}
					],
					"stateMutability": "view",
					"type": "function"
				},
				{
					"inputs": [],
					"name": "name",
					"outputs": [
						{
							"internalType": "string",
							"name": "",
							"type": "string"
						}
					],
					"stateMutability": "view",
					"type": "function"
				},
				{
					"inputs": [
						{
							"internalType": "uint256",
							"name": "tokenId",
							"type": "uint256"
						}
					],
					"name": "ownerOf",
					"outputs": [
						{
							"internalType": "address",
							"name": "",
							"type": "address"
						}
					],
					"stateMutability": "view",
					"type": "function"
				},
				{
					"inputs": [
						{
							"internalType": "address",
							"name": "from",
							"type": "address"
						},
						{
							"internalType": "address",
							"name": "to",
							"type": "address"
						},
						{
							"internalType": "uint256",
							"name": "tokenId",
							"type": "uint256"
						}
					],
					"name": "safeTransferFrom",
					"outputs": [],
					"stateMutability": "nonpayable",
					"type": "function"
				},
				{
					"inputs": [
						{
							"internalType": "address",
							"name": "from",
							"type": "address"
						},
						{
							"internalType": "address",
							"name": "to",
							"type": "address"
						},
						{
							"internalType": "uint256",
							"name": "tokenId",
							"type": "uint256"
						},
						{
							"internalType": "bytes",
							"name": "_data",
							"type": "bytes"
						}
					],
					"name": "safeTransferFrom",
					"outputs": [],
					"stateMutability": "nonpayable",
					"type": "function"
				},
				{
					"inputs": [
						{
							"internalType": "address",
							"name": "operator",
							"type": "address"
						},
						{
							"internalType": "bool",
							"name": "approved",
							"type": "bool"
						}
					],
					"name": "setApprovalForAll",
					"outputs": [],
					"stateMutability": "nonpayable",
					"type": "function"
				},
				{
					"inputs": [
						{
							"internalType": "bytes4",
							"name": "interfaceId",
							"type": "bytes4"
						}
					],
					"name": "supportsInterface",
					"outputs": [
						{
							"internalType": "bool",
							"name": "",
							"type": "bool"
						}
					],
					"stateMutability": "view",
					"type": "function"
				},
				{
					"inputs": [],
					"name": "symbol",
					"outputs": [
						{
							"internalType": "string",
							"name": "",
							"type": "string"
						}
					],
					"stateMutability": "view",
					"type": "function"
				},
				{
					"inputs": [
						{
							"internalType": "uint256",
							"name": "tokenId",
							"type": "uint256"
						}
					],
					"name": "tokenURI",
					"outputs": [
						{
							"internalType": "string",
							"name": "",
							"type": "string"
						}
					],
					"stateMutability": "view",
					"type": "function"
				},
				{
					"inputs": [],
					"name": "totalSupply",
					"outputs": [
						{
							"internalType": "uint256",
							"name": "",
							"type": "uint256"
						}
					],
					"stateMutability": "view",
					"type": "function"
				},
				{
					"inputs": [
						{
							"internalType": "address",
							"name": "from",
							"type": "address"
						},
						{
							"internalType": "address",
							"name": "to",
							"type": "address"
						},
						{
							"internalType": "uint256",
							"name": "tokenId",
							"type": "uint256"
						}
					],
					"name": "transferFrom",
					"outputs": [],
					"stateMutability": "nonpayable",
					"type": "function"
				}
			],
			"devdoc": {
				"details": "Implementation of https://eips.ethereum.org/EIPS/eip-721[ERC721] Non-Fungible Token Standard, including the Metadata extension. Built to optimize for lower gas during batch mints. Assumes serials are sequentially minted starting at _startTokenId() (defaults to 0, e.g. 0, 1, 2, 3..). Assumes that an owner cannot have more than 2**64 - 1 (max value of uint64) of supply. Assumes that the maximum token id cannot exceed 2**256 - 1 (max value of uint256).",
				"kind": "dev",
				"methods": {
					"approve(address,uint256)": {
						"details": "See {IERC721-approve}."
					},
					"balanceOf(address)": {
						"details": "See {IERC721-balanceOf}."
					},
					"getApproved(uint256)": {
						"details": "See {IERC721-getApproved}."
					},
					"isApprovedForAll(address,address)": {
						"details": "See {IERC721-isApprovedForAll}."
					},
					"name()": {
						"details": "See {IERC721Metadata-name}."
					},
					"ownerOf(uint256)": {
						"details": "See {IERC721-ownerOf}."
					},
					"safeTransferFrom(address,address,uint256)": {
						"details": "See {IERC721-safeTransferFrom}."
					},
					"safeTransferFrom(address,address,uint256,bytes)": {
						"details": "See {IERC721-safeTransferFrom}."
					},
					"setApprovalForAll(address,bool)": {
						"details": "See {IERC721-setApprovalForAll}."
					},
					"supportsInterface(bytes4)": {
						"details": "See {IERC165-supportsInterface}."
					},
					"symbol()": {
						"details": "See {IERC721Metadata-symbol}."
					},
					"tokenURI(uint256)": {
						"details": "See {IERC721Metadata-tokenURI}."
					},
					"totalSupply()": {
						"details": "Burned tokens are calculated here, use _totalMinted() if you want to count just minted tokens."
					},
					"transferFrom(address,address,uint256)": {
						"details": "See {IERC721-transferFrom}."
					}
				},
				"version": 1
			},
			"evm": {
				"assembly": "    /* \"Dcoffer_flat.sol\":23816:44917  contract ERC721A is Context, ERC165, IERC721A {... */\n  mstore(0x40, 0x80)\n    /* \"Dcoffer_flat.sol\":24785:24943  constructor(string memory name_, string memory symbol_) {... */\n  callvalue\n  dup1\n  iszero\n  tag_1\n  jumpi\n  0x00\n  dup1\n  revert\ntag_1:\n  pop\n  mload(0x40)\n  sub(codesize, bytecodeSize)\n  dup1\n  bytecodeSize\n  dup4\n  codecopy\n  dup2\n  dup2\n  add\n  0x40\n  mstore\n  dup2\n  add\n  swap1\n  tag_2\n  swap2\n  swap1\n  tag_3\n  jump\t// in\ntag_2:\n    /* \"Dcoffer_flat.sol\":24860:24865  name_ */\n  dup2\n    /* \"Dcoffer_flat.sol\":24852:24857  _name */\n  0x02\n    /* \"Dcoffer_flat.sol\":24852:24865  _name = name_ */\n  swap1\n  dup1\n  mload\n  swap1\n  0x20\n  add\n  swap1\n  tag_6\n  swap3\n  swap2\n  swap1\n  tag_7\n  jump\t// in\ntag_6:\n  pop\n    /* \"Dcoffer_flat.sol\":24886:24893  symbol_ */\n  dup1\n    /* \"Dcoffer_flat.sol\":24876:24883  _symbol */\n  0x03\n    /* \"Dcoffer_flat.sol\":24876:24893  _symbol = symbol_ */\n  swap1\n  dup1\n  mload\n  swap1\n  0x20\n  add\n  swap1\n  tag_8\n  swap3\n  swap2\n  swap1\n  tag_7\n  jump\t// in\ntag_8:\n  pop\n    /* \"Dcoffer_flat.sol\":24920:24935  _startTokenId() */\n  tag_9\n    /* \"Dcoffer_flat.sol\":24920:24933  _startTokenId */\n  shl(0x20, tag_10)\n    /* \"Dcoffer_flat.sol\":24920:24935  _startTokenId() */\n  0x20\n  shr\n  jump\t// in\ntag_9:\n    /* \"Dcoffer_flat.sol\":24904:24917  _currentIndex */\n  0x00\n    /* \"Dcoffer_flat.sol\":24904:24935  _currentIndex = _startTokenId() */\n  dup2\n  swap1\n  sstore\n  pop\n    /* \"Dcoffer_flat.sol\":24785:24943  constructor(string memory name_, string memory symbol_) {... */\n  pop\n  pop\n    /* \"Dcoffer_flat.sol\":23816:44917  contract ERC721A is Context, ERC165, IERC721A {... */\n  jump(tag_11)\n    /* \"Dcoffer_flat.sol\":25040:25132  function _startTokenId() internal view virtual returns (uint256) {... */\ntag_10:\n    /* \"Dcoffer_flat.sol\":25096:25103  uint256 */\n  0x00\n    /* \"Dcoffer_flat.sol\":25123:25124  1 */\n  0x01\n    /* \"Dcoffer_flat.sol\":25116:25124  return 1 */\n  swap1\n  pop\n    /* \"Dcoffer_flat.sol\":25040:25132  function _startTokenId() internal view virtual returns (uint256) {... */\n  swap1\n  jump\t// out\n    /* \"Dcoffer_flat.sol\":23816:44917  contract ERC721A is Context, ERC165, IERC721A {... */\ntag_7:\n  dup3\n  dup1\n  sload\n  tag_13\n  swap1\n  tag_14\n  jump\t// in\ntag_13:\n  swap1\n  0x00\n  mstore\n  keccak256(0x00, 0x20)\n  swap1\n  0x1f\n  add\n  0x20\n  swap1\n  div\n  dup2\n  add\n  swap3\n  dup3\n  tag_16\n  jumpi\n  0x00\n  dup6\n  sstore\n  jump(tag_15)\ntag_16:\n  dup3\n  0x1f\n  lt\n  tag_17\n  jumpi\n  dup1\n  mload\n  not(0xff)\n  and\n  dup4\n  dup1\n  add\n  or\n  dup6\n  sstore\n  jump(tag_15)\ntag_17:\n  dup3\n  dup1\n  add\n  0x01\n  add\n  dup6\n  sstore\n  dup3\n  iszero\n  tag_15\n  jumpi\n  swap2\n  dup3\n  add\ntag_18:\n  dup3\n  dup2\n  gt\n  iszero\n  tag_19\n  jumpi\n  dup3\n  mload\n  dup3\n  sstore\n  swap2\n  0x20\n  add\n  swap2\n  swap1\n  0x01\n  add\n  swap1\n  jump(tag_18)\ntag_19:\ntag_15:\n  pop\n  swap1\n  pop\n  tag_20\n  swap2\n  swap1\n  tag_21\n  jump\t// in\ntag_20:\n  pop\n  swap1\n  jump\t// out\ntag_21:\ntag_22:\n  dup1\n  dup3\n  gt\n  iszero\n  tag_23\n  jumpi\n  0x00\n  dup2\n  0x00\n  swap1\n  sstore\n  pop\n  0x01\n  add\n  jump(tag_22)\ntag_23:\n  pop\n  swap1\n  jump\t// out\n    /* \"#utility.yul\":7:82   */\ntag_24:\n    /* \"#utility.yul\":40:46   */\n  0x00\n    /* \"#utility.yul\":73:75   */\n  0x40\n    /* \"#utility.yul\":67:76   */\n  mload\n    /* \"#utility.yul\":57:76   */\n  swap1\n  pop\n    /* \"#utility.yul\":7:82   */\n  swap1\n  jump\t// out\n    /* \"#utility.yul\":88:205   */\ntag_25:\n    /* \"#utility.yul\":197:198   */\n  0x00\n    /* \"#utility.yul\":194:195   */\n  dup1\n    /* \"#utility.yul\":187:199   */\n  revert\n    /* \"#utility.yul\":211:328   */\ntag_26:\n    /* \"#utility.yul\":320:321   */\n  0x00\n    /* \"#utility.yul\":317:318   */\n  dup1\n    /* \"#utility.yul\":310:322   */\n  revert\n    /* \"#utility.yul\":334:451   */\ntag_27:\n    /* \"#utility.yul\":443:444   */\n  0x00\n    /* \"#utility.yul\":440:441   */\n  dup1\n    /* \"#utility.yul\":433:445   */\n  revert\n    /* \"#utility.yul\":457:574   */\ntag_28:\n    /* \"#utility.yul\":566:567   */\n  0x00\n    /* \"#utility.yul\":563:564   */\n  dup1\n    /* \"#utility.yul\":556:568   */\n  revert\n    /* \"#utility.yul\":580:682   */\ntag_29:\n    /* \"#utility.yul\":621:627   */\n  0x00\n    /* \"#utility.yul\":672:674   */\n  0x1f\n    /* \"#utility.yul\":668:675   */\n  not\n    /* \"#utility.yul\":663:665   */\n  0x1f\n    /* \"#utility.yul\":656:661   */\n  dup4\n    /* \"#utility.yul\":652:666   */\n  add\n    /* \"#utility.yul\":648:676   */\n  and\n    /* \"#utility.yul\":638:676   */\n  swap1\n  pop\n    /* \"#utility.yul\":580:682   */\n  swap2\n  swap1\n  pop\n  jump\t// out\n    /* \"#utility.yul\":688:868   */\ntag_30:\n    /* \"#utility.yul\":736:813   */\n  0x4e487b7100000000000000000000000000000000000000000000000000000000\n    /* \"#utility.yul\":733:734   */\n  0x00\n    /* \"#utility.yul\":726:814   */\n  mstore\n    /* \"#utility.yul\":833:837   */\n  0x41\n    /* \"#utility.yul\":830:831   */\n  0x04\n    /* \"#utility.yul\":823:838   */\n  mstore\n    /* \"#utility.yul\":857:861   */\n  0x24\n    /* \"#utility.yul\":854:855   */\n  0x00\n    /* \"#utility.yul\":847:862   */\n  revert\n    /* \"#utility.yul\":874:1155   */\ntag_31:\n    /* \"#utility.yul\":957:984   */\n  tag_47\n    /* \"#utility.yul\":979:983   */\n  dup3\n    /* \"#utility.yul\":957:984   */\n  tag_29\n  jump\t// in\ntag_47:\n    /* \"#utility.yul\":949:955   */\n  dup2\n    /* \"#utility.yul\":945:985   */\n  add\n    /* \"#utility.yul\":1087:1093   */\n  dup2\n    /* \"#utility.yul\":1075:1085   */\n  dup2\n    /* \"#utility.yul\":1072:1094   */\n  lt\n    /* \"#utility.yul\":1051:1069   */\n  0xffffffffffffffff\n    /* \"#utility.yul\":1039:1049   */\n  dup3\n    /* \"#utility.yul\":1036:1070   */\n  gt\n    /* \"#utility.yul\":1033:1095   */\n  or\n    /* \"#utility.yul\":1030:1118   */\n  iszero\n  tag_48\n  jumpi\n    /* \"#utility.yul\":1098:1116   */\n  tag_49\n  tag_30\n  jump\t// in\ntag_49:\n    /* \"#utility.yul\":1030:1118   */\ntag_48:\n    /* \"#utility.yul\":1138:1148   */\n  dup1\n    /* \"#utility.yul\":1134:1136   */\n  0x40\n    /* \"#utility.yul\":1127:1149   */\n  mstore\n    /* \"#utility.yul\":917:1155   */\n  pop\n    /* \"#utility.yul\":874:1155   */\n  pop\n  pop\n  jump\t// out\n    /* \"#utility.yul\":1161:1290   */\ntag_32:\n    /* \"#utility.yul\":1195:1201   */\n  0x00\n    /* \"#utility.yul\":1222:1242   */\n  tag_51\n  tag_24\n  jump\t// in\ntag_51:\n    /* \"#utility.yul\":1212:1242   */\n  swap1\n  pop\n    /* \"#utility.yul\":1251:1284   */\n  tag_52\n    /* \"#utility.yul\":1279:1283   */\n  dup3\n    /* \"#utility.yul\":1271:1277   */\n  dup3\n    /* \"#utility.yul\":1251:1284   */\n  tag_31\n  jump\t// in\ntag_52:\n    /* \"#utility.yul\":1161:1290   */\n  swap2\n  swap1\n  pop\n  jump\t// out\n    /* \"#utility.yul\":1296:1604   */\ntag_33:\n    /* \"#utility.yul\":1358:1362   */\n  0x00\n    /* \"#utility.yul\":1448:1466   */\n  0xffffffffffffffff\n    /* \"#utility.yul\":1440:1446   */\n  dup3\n    /* \"#utility.yul\":1437:1467   */\n  gt\n    /* \"#utility.yul\":1434:1490   */\n  iszero\n  tag_54\n  jumpi\n    /* \"#utility.yul\":1470:1488   */\n  tag_55\n  tag_30\n  jump\t// in\ntag_55:\n    /* \"#utility.yul\":1434:1490   */\ntag_54:\n    /* \"#utility.yul\":1508:1537   */\n  tag_56\n    /* \"#utility.yul\":1530:1536   */\n  dup3\n    /* \"#utility.yul\":1508:1537   */\n  tag_29\n  jump\t// in\ntag_56:\n    /* \"#utility.yul\":1500:1537   */\n  swap1\n  pop\n    /* \"#utility.yul\":1592:1596   */\n  0x20\n    /* \"#utility.yul\":1586:1590   */\n  dup2\n    /* \"#utility.yul\":1582:1597   */\n  add\n    /* \"#utility.yul\":1574:1597   */\n  swap1\n  pop\n    /* \"#utility.yul\":1296:1604   */\n  swap2\n  swap1\n  pop\n  jump\t// out\n    /* \"#utility.yul\":1610:1917   */\ntag_34:\n    /* \"#utility.yul\":1678:1679   */\n  0x00\n    /* \"#utility.yul\":1688:1801   */\ntag_58:\n    /* \"#utility.yul\":1702:1708   */\n  dup4\n    /* \"#utility.yul\":1699:1700   */\n  dup2\n    /* \"#utility.yul\":1696:1709   */\n  lt\n    /* \"#utility.yul\":1688:1801   */\n  iszero\n  tag_60\n  jumpi\n    /* \"#utility.yul\":1787:1788   */\n  dup1\n    /* \"#utility.yul\":1782:1785   */\n  dup3\n    /* \"#utility.yul\":1778:1789   */\n  add\n    /* \"#utility.yul\":1772:1790   */\n  mload\n    /* \"#utility.yul\":1768:1769   */\n  dup2\n    /* \"#utility.yul\":1763:1766   */\n  dup5\n    /* \"#utility.yul\":1759:1770   */\n  add\n    /* \"#utility.yul\":1752:1791   */\n  mstore\n    /* \"#utility.yul\":1724:1726   */\n  0x20\n    /* \"#utility.yul\":1721:1722   */\n  dup2\n    /* \"#utility.yul\":1717:1727   */\n  add\n    /* \"#utility.yul\":1712:1727   */\n  swap1\n  pop\n    /* \"#utility.yul\":1688:1801   */\n  jump(tag_58)\ntag_60:\n    /* \"#utility.yul\":1819:1825   */\n  dup4\n    /* \"#utility.yul\":1816:1817   */\n  dup2\n    /* \"#utility.yul\":1813:1826   */\n  gt\n    /* \"#utility.yul\":1810:1911   */\n  iszero\n  tag_61\n  jumpi\n    /* \"#utility.yul\":1899:1900   */\n  0x00\n    /* \"#utility.yul\":1890:1896   */\n  dup5\n    /* \"#utility.yul\":1885:1888   */\n  dup5\n    /* \"#utility.yul\":1881:1897   */\n  add\n    /* \"#utility.yul\":1874:1901   */\n  mstore\n    /* \"#utility.yul\":1810:1911   */\ntag_61:\n    /* \"#utility.yul\":1659:1917   */\n  pop\n    /* \"#utility.yul\":1610:1917   */\n  pop\n  pop\n  pop\n  jump\t// out\n    /* \"#utility.yul\":1923:2344   */\ntag_35:\n    /* \"#utility.yul\":2012:2017   */\n  0x00\n    /* \"#utility.yul\":2037:2103   */\n  tag_63\n    /* \"#utility.yul\":2053:2102   */\n  tag_64\n    /* \"#utility.yul\":2095:2101   */\n  dup5\n    /* \"#utility.yul\":2053:2102   */\n  tag_33\n  jump\t// in\ntag_64:\n    /* \"#utility.yul\":2037:2103   */\n  tag_32\n  jump\t// in\ntag_63:\n    /* \"#utility.yul\":2028:2103   */\n  swap1\n  pop\n    /* \"#utility.yul\":2126:2132   */\n  dup3\n    /* \"#utility.yul\":2119:2124   */\n  dup2\n    /* \"#utility.yul\":2112:2133   */\n  mstore\n    /* \"#utility.yul\":2164:2168   */\n  0x20\n    /* \"#utility.yul\":2157:2162   */\n  dup2\n    /* \"#utility.yul\":2153:2169   */\n  add\n    /* \"#utility.yul\":2202:2205   */\n  dup5\n    /* \"#utility.yul\":2193:2199   */\n  dup5\n    /* \"#utility.yul\":2188:2191   */\n  dup5\n    /* \"#utility.yul\":2184:2200   */\n  add\n    /* \"#utility.yul\":2181:2206   */\n  gt\n    /* \"#utility.yul\":2178:2290   */\n  iszero\n  tag_65\n  jumpi\n    /* \"#utility.yul\":2209:2288   */\n  tag_66\n  tag_28\n  jump\t// in\ntag_66:\n    /* \"#utility.yul\":2178:2290   */\ntag_65:\n    /* \"#utility.yul\":2299:2338   */\n  tag_67\n    /* \"#utility.yul\":2331:2337   */\n  dup5\n    /* \"#utility.yul\":2326:2329   */\n  dup3\n    /* \"#utility.yul\":2321:2324   */\n  dup6\n    /* \"#utility.yul\":2299:2338   */\n  tag_34\n  jump\t// in\ntag_67:\n    /* \"#utility.yul\":2018:2344   */\n  pop\n    /* \"#utility.yul\":1923:2344   */\n  swap4\n  swap3\n  pop\n  pop\n  pop\n  jump\t// out\n    /* \"#utility.yul\":2364:2719   */\ntag_36:\n    /* \"#utility.yul\":2431:2436   */\n  0x00\n    /* \"#utility.yul\":2480:2483   */\n  dup3\n    /* \"#utility.yul\":2473:2477   */\n  0x1f\n    /* \"#utility.yul\":2465:2471   */\n  dup4\n    /* \"#utility.yul\":2461:2478   */\n  add\n    /* \"#utility.yul\":2457:2484   */\n  slt\n    /* \"#utility.yul\":2447:2569   */\n  tag_69\n  jumpi\n    /* \"#utility.yul\":2488:2567   */\n  tag_70\n  tag_27\n  jump\t// in\ntag_70:\n    /* \"#utility.yul\":2447:2569   */\ntag_69:\n    /* \"#utility.yul\":2598:2604   */\n  dup2\n    /* \"#utility.yul\":2592:2605   */\n  mload\n    /* \"#utility.yul\":2623:2713   */\n  tag_71\n    /* \"#utility.yul\":2709:2712   */\n  dup5\n    /* \"#utility.yul\":2701:2707   */\n  dup3\n    /* \"#utility.yul\":2694:2698   */\n  0x20\n    /* \"#utility.yul\":2686:2692   */\n  dup7\n    /* \"#utility.yul\":2682:2699   */\n  add\n    /* \"#utility.yul\":2623:2713   */\n  tag_35\n  jump\t// in\ntag_71:\n    /* \"#utility.yul\":2614:2713   */\n  swap2\n  pop\n    /* \"#utility.yul\":2437:2719   */\n  pop\n    /* \"#utility.yul\":2364:2719   */\n  swap3\n  swap2\n  pop\n  pop\n  jump\t// out\n    /* \"#utility.yul\":2725:3578   */\ntag_3:\n    /* \"#utility.yul\":2824:2830   */\n  0x00\n    /* \"#utility.yul\":2832:2838   */\n  dup1\n    /* \"#utility.yul\":2881:2883   */\n  0x40\n    /* \"#utility.yul\":2869:2878   */\n  dup4\n    /* \"#utility.yul\":2860:2867   */\n  dup6\n    /* \"#utility.yul\":2856:2879   */\n  sub\n    /* \"#utility.yul\":2852:2884   */\n  slt\n    /* \"#utility.yul\":2849:2968   */\n  iszero\n  tag_73\n  jumpi\n    /* \"#utility.yul\":2887:2966   */\n  tag_74\n  tag_25\n  jump\t// in\ntag_74:\n    /* \"#utility.yul\":2849:2968   */\ntag_73:\n    /* \"#utility.yul\":3028:3029   */\n  0x00\n    /* \"#utility.yul\":3017:3026   */\n  dup4\n    /* \"#utility.yul\":3013:3030   */\n  add\n    /* \"#utility.yul\":3007:3031   */\n  mload\n    /* \"#utility.yul\":3058:3076   */\n  0xffffffffffffffff\n    /* \"#utility.yul\":3050:3056   */\n  dup2\n    /* \"#utility.yul\":3047:3077   */\n  gt\n    /* \"#utility.yul\":3044:3161   */\n  iszero\n  tag_75\n  jumpi\n    /* \"#utility.yul\":3080:3159   */\n  tag_76\n  tag_26\n  jump\t// in\ntag_76:\n    /* \"#utility.yul\":3044:3161   */\ntag_75:\n    /* \"#utility.yul\":3185:3259   */\n  tag_77\n    /* \"#utility.yul\":3251:3258   */\n  dup6\n    /* \"#utility.yul\":3242:3248   */\n  dup3\n    /* \"#utility.yul\":3231:3240   */\n  dup7\n    /* \"#utility.yul\":3227:3249   */\n  add\n    /* \"#utility.yul\":3185:3259   */\n  tag_36\n  jump\t// in\ntag_77:\n    /* \"#utility.yul\":3175:3259   */\n  swap3\n  pop\n    /* \"#utility.yul\":2978:3269   */\n  pop\n    /* \"#utility.yul\":3329:3331   */\n  0x20\n    /* \"#utility.yul\":3318:3327   */\n  dup4\n    /* \"#utility.yul\":3314:3332   */\n  add\n    /* \"#utility.yul\":3308:3333   */\n  mload\n    /* \"#utility.yul\":3360:3378   */\n  0xffffffffffffffff\n    /* \"#utility.yul\":3352:3358   */\n  dup2\n    /* \"#utility.yul\":3349:3379   */\n  gt\n    /* \"#utility.yul\":3346:3463   */\n  iszero\n  tag_78\n  jumpi\n    /* \"#utility.yul\":3382:3461   */\n  tag_79\n  tag_26\n  jump\t// in\ntag_79:\n    /* \"#utility.yul\":3346:3463   */\ntag_78:\n    /* \"#utility.yul\":3487:3561   */\n  tag_80\n    /* \"#utility.yul\":3553:3560   */\n  dup6\n    /* \"#utility.yul\":3544:3550   */\n  dup3\n    /* \"#utility.yul\":3533:3542   */\n  dup7\n    /* \"#utility.yul\":3529:3551   */\n  add\n    /* \"#utility.yul\":3487:3561   */\n  tag_36\n  jump\t// in\ntag_80:\n    /* \"#utility.yul\":3477:3561   */\n  swap2\n  pop\n    /* \"#utility.yul\":3279:3571   */\n  pop\n    /* \"#utility.yul\":2725:3578   */\n  swap3\n  pop\n  swap3\n  swap1\n  pop\n  jump\t// out\n    /* \"#utility.yul\":3584:3764   */\ntag_37:\n    /* \"#utility.yul\":3632:3709   */\n  0x4e487b7100000000000000000000000000000000000000000000000000000000\n    /* \"#utility.yul\":3629:3630   */\n  0x00\n    /* \"#utility.yul\":3622:3710   */\n  mstore\n    /* \"#utility.yul\":3729:3733   */\n  0x22\n    /* \"#utility.yul\":3726:3727   */\n  0x04\n    /* \"#utility.yul\":3719:3734   */\n  mstore\n    /* \"#utility.yul\":3753:3757   */\n  0x24\n    /* \"#utility.yul\":3750:3751   */\n  0x00\n    /* \"#utility.yul\":3743:3758   */\n  revert\n    /* \"#utility.yul\":3770:4090   */\ntag_14:\n    /* \"#utility.yul\":3814:3820   */\n  0x00\n    /* \"#utility.yul\":3851:3852   */\n  0x02\n    /* \"#utility.yul\":3845:3849   */\n  dup3\n    /* \"#utility.yul\":3841:3853   */\n  div\n    /* \"#utility.yul\":3831:3853   */\n  swap1\n  pop\n    /* \"#utility.yul\":3898:3899   */\n  0x01\n    /* \"#utility.yul\":3892:3896   */\n  dup3\n    /* \"#utility.yul\":3888:3900   */\n  and\n    /* \"#utility.yul\":3919:3937   */\n  dup1\n    /* \"#utility.yul\":3909:3990   */\n  tag_83\n  jumpi\n    /* \"#utility.yul\":3975:3979   */\n  0x7f\n    /* \"#utility.yul\":3967:3973   */\n  dup3\n    /* \"#utility.yul\":3963:3980   */\n  and\n    /* \"#utility.yul\":3953:3980   */\n  swap2\n  pop\n    /* \"#utility.yul\":3909:3990   */\ntag_83:\n    /* \"#utility.yul\":4037:4039   */\n  0x20\n    /* \"#utility.yul\":4029:4035   */\n  dup3\n    /* \"#utility.yul\":4026:4040   */\n  lt\n    /* \"#utility.yul\":4006:4024   */\n  dup2\n    /* \"#utility.yul\":4003:4041   */\n  sub\n    /* \"#utility.yul\":4000:4084   */\n  tag_84\n  jumpi\n    /* \"#utility.yul\":4056:4074   */\n  tag_85\n  tag_37\n  jump\t// in\ntag_85:\n    /* \"#utility.yul\":4000:4084   */\ntag_84:\n    /* \"#utility.yul\":3821:4090   */\n  pop\n    /* \"#utility.yul\":3770:4090   */\n  swap2\n  swap1\n  pop\n  jump\t// out\n    /* \"Dcoffer_flat.sol\":23816:44917  contract ERC721A is Context, ERC165, IERC721A {... */\ntag_11:\n  dataSize(sub_0)\n  dup1\n  dataOffset(sub_0)\n  0x00\n  codecopy\n  0x00\n  return\nstop\n\nsub_0: assembly {\n        /* \"Dcoffer_flat.sol\":23816:44917  contract ERC721A is Context, ERC165, IERC721A {... */\n      mstore(0x40, 0x80)\n      callvalue\n      dup1\n      iszero\n      tag_1\n      jumpi\n      0x00\n      dup1\n      revert\n    tag_1:\n      pop\n      jumpi(tag_2, lt(calldatasize, 0x04))\n      shr(0xe0, calldataload(0x00))\n      dup1\n      0x6352211e\n      gt\n      tag_17\n      jumpi\n      dup1\n      0xa22cb465\n      gt\n      tag_18\n      jumpi\n      dup1\n      0xa22cb465\n      eq\n      tag_13\n      jumpi\n      dup1\n      0xb88d4fde\n      eq\n      tag_14\n      jumpi\n      dup1\n      0xc87b56dd\n      eq\n      tag_15\n      jumpi\n      dup1\n      0xe985e9c5\n      eq\n      tag_16\n      jumpi\n      jump(tag_2)\n    tag_18:\n      dup1\n      0x6352211e\n      eq\n      tag_10\n      jumpi\n      dup1\n      0x70a08231\n      eq\n      tag_11\n      jumpi\n      dup1\n      0x95d89b41\n      eq\n      tag_12\n      jumpi\n      jump(tag_2)\n    tag_17:\n      dup1\n      0x095ea7b3\n      gt\n      tag_19\n      jumpi\n      dup1\n      0x095ea7b3\n      eq\n      tag_6\n      jumpi\n      dup1\n      0x18160ddd\n      eq\n      tag_7\n      jumpi\n      dup1\n      0x23b872dd\n      eq\n      tag_8\n      jumpi\n      dup1\n      0x42842e0e\n      eq\n      tag_9\n      jumpi\n      jump(tag_2)\n    tag_19:\n      dup1\n      0x01ffc9a7\n      eq\n      tag_3\n      jumpi\n      dup1\n      0x06fdde03\n      eq\n      tag_4\n      jumpi\n      dup1\n      0x081812fc\n      eq\n      tag_5\n      jumpi\n    tag_2:\n      0x00\n      dup1\n      revert\n        /* \"Dcoffer_flat.sol\":26026:26331  function supportsInterface(bytes4 interfaceId) public view virtual override(ERC165, IERC165) returns (bool) {... */\n    tag_3:\n      tag_20\n      0x04\n      dup1\n      calldatasize\n      sub\n      dup2\n      add\n      swap1\n      tag_21\n      swap2\n      swap1\n      tag_22\n      jump\t// in\n    tag_21:\n      tag_23\n      jump\t// in\n    tag_20:\n      mload(0x40)\n      tag_24\n      swap2\n      swap1\n      tag_25\n      jump\t// in\n    tag_24:\n      mload(0x40)\n      dup1\n      swap2\n      sub\n      swap1\n      return\n        /* \"Dcoffer_flat.sol\":29141:29241  function name() public view virtual override returns (string memory) {... */\n    tag_4:\n      tag_26\n      tag_27\n      jump\t// in\n    tag_26:\n      mload(0x40)\n      tag_28\n      swap2\n      swap1\n      tag_29\n      jump\t// in\n    tag_28:\n      mload(0x40)\n      dup1\n      swap2\n      sub\n      swap1\n      return\n        /* \"Dcoffer_flat.sol\":30726:30930  function getApproved(uint256 tokenId) public view override returns (address) {... */\n    tag_5:\n      tag_30\n      0x04\n      dup1\n      calldatasize\n      sub\n      dup2\n      add\n      swap1\n      tag_31\n      swap2\n      swap1\n      tag_32\n      jump\t// in\n    tag_31:\n      tag_33\n      jump\t// in\n    tag_30:\n      mload(0x40)\n      tag_34\n      swap2\n      swap1\n      tag_35\n      jump\t// in\n    tag_34:\n      mload(0x40)\n      dup1\n      swap2\n      sub\n      swap1\n      return\n        /* \"Dcoffer_flat.sol\":30288:30660  function approve(address to, uint256 tokenId) public override {... */\n    tag_6:\n      tag_36\n      0x04\n      dup1\n      calldatasize\n      sub\n      dup2\n      add\n      swap1\n      tag_37\n      swap2\n      swap1\n      tag_38\n      jump\t// in\n    tag_37:\n      tag_39\n      jump\t// in\n    tag_36:\n      stop\n        /* \"Dcoffer_flat.sol\":25266:25578  function totalSupply() public view override returns (uint256) {... */\n    tag_7:\n      tag_40\n      tag_41\n      jump\t// in\n    tag_40:\n      mload(0x40)\n      tag_42\n      swap2\n      swap1\n      tag_43\n      jump\t// in\n    tag_42:\n      mload(0x40)\n      dup1\n      swap2\n      sub\n      swap1\n      return\n        /* \"Dcoffer_flat.sol\":31591:31761  function transferFrom(... */\n    tag_8:\n      tag_44\n      0x04\n      dup1\n      calldatasize\n      sub\n      dup2\n      add\n      swap1\n      tag_45\n      swap2\n      swap1\n      tag_46\n      jump\t// in\n    tag_45:\n      tag_47\n      jump\t// in\n    tag_44:\n      stop\n        /* \"Dcoffer_flat.sol\":31832:32017  function safeTransferFrom(... */\n    tag_9:\n      tag_48\n      0x04\n      dup1\n      calldatasize\n      sub\n      dup2\n      add\n      swap1\n      tag_49\n      swap2\n      swap1\n      tag_46\n      jump\t// in\n    tag_49:\n      tag_50\n      jump\t// in\n    tag_48:\n      stop\n        /* \"Dcoffer_flat.sol\":28949:29074  function ownerOf(uint256 tokenId) public view override returns (address) {... */\n    tag_10:\n      tag_51\n      0x04\n      dup1\n      calldatasize\n      sub\n      dup2\n      add\n      swap1\n      tag_52\n      swap2\n      swap1\n      tag_32\n      jump\t// in\n    tag_52:\n      tag_53\n      jump\t// in\n    tag_51:\n      mload(0x40)\n      tag_54\n      swap2\n      swap1\n      tag_35\n      jump\t// in\n    tag_54:\n      mload(0x40)\n      dup1\n      swap2\n      sub\n      swap1\n      return\n        /* \"Dcoffer_flat.sol\":26395:26601  function balanceOf(address owner) public view override returns (uint256) {... */\n    tag_11:\n      tag_55\n      0x04\n      dup1\n      calldatasize\n      sub\n      dup2\n      add\n      swap1\n      tag_56\n      swap2\n      swap1\n      tag_57\n      jump\t// in\n    tag_56:\n      tag_58\n      jump\t// in\n    tag_55:\n      mload(0x40)\n      tag_59\n      swap2\n      swap1\n      tag_43\n      jump\t// in\n    tag_59:\n      mload(0x40)\n      dup1\n      swap2\n      sub\n      swap1\n      return\n        /* \"Dcoffer_flat.sol\":29310:29414  function symbol() public view virtual override returns (string memory) {... */\n    tag_12:\n      tag_60\n      tag_61\n      jump\t// in\n    tag_60:\n      mload(0x40)\n      tag_62\n      swap2\n      swap1\n      tag_29\n      jump\t// in\n    tag_62:\n      mload(0x40)\n      dup1\n      swap2\n      sub\n      swap1\n      return\n        /* \"Dcoffer_flat.sol\":31002:31289  function setApprovalForAll(address operator, bool approved) public virtual override {... */\n    tag_13:\n      tag_63\n      0x04\n      dup1\n      calldatasize\n      sub\n      dup2\n      add\n      swap1\n      tag_64\n      swap2\n      swap1\n      tag_65\n      jump\t// in\n    tag_64:\n      tag_66\n      jump\t// in\n    tag_63:\n      stop\n        /* \"Dcoffer_flat.sol\":32088:32458  function safeTransferFrom(... */\n    tag_14:\n      tag_67\n      0x04\n      dup1\n      calldatasize\n      sub\n      dup2\n      add\n      swap1\n      tag_68\n      swap2\n      swap1\n      tag_69\n      jump\t// in\n    tag_68:\n      tag_70\n      jump\t// in\n    tag_67:\n      stop\n        /* \"Dcoffer_flat.sol\":29485:29803  function tokenURI(uint256 tokenId) public view virtual override returns (string memory) {... */\n    tag_15:\n      tag_71\n      0x04\n      dup1\n      calldatasize\n      sub\n      dup2\n      add\n      swap1\n      tag_72\n      swap2\n      swap1\n      tag_32\n      jump\t// in\n    tag_72:\n      tag_73\n      jump\t// in\n    tag_71:\n      mload(0x40)\n      tag_74\n      swap2\n      swap1\n      tag_29\n      jump\t// in\n    tag_74:\n      mload(0x40)\n      dup1\n      swap2\n      sub\n      swap1\n      return\n        /* \"Dcoffer_flat.sol\":31360:31524  function isApprovedForAll(address owner, address operator) public view virtual override returns (bool) {... */\n    tag_16:\n      tag_75\n      0x04\n      dup1\n      calldatasize\n      sub\n      dup2\n      add\n      swap1\n      tag_76\n      swap2\n      swap1\n      tag_77\n      jump\t// in\n    tag_76:\n      tag_78\n      jump\t// in\n    tag_75:\n      mload(0x40)\n      tag_79\n      swap2\n      swap1\n      tag_25\n      jump\t// in\n    tag_79:\n      mload(0x40)\n      dup1\n      swap2\n      sub\n      swap1\n      return\n        /* \"Dcoffer_flat.sol\":26026:26331  function supportsInterface(bytes4 interfaceId) public view virtual override(ERC165, IERC165) returns (bool) {... */\n    tag_23:\n        /* \"Dcoffer_flat.sol\":26128:26132  bool */\n      0x00\n        /* \"Dcoffer_flat.sol\":26180:26205  type(IERC721).interfaceId */\n      0x80ac58cd00000000000000000000000000000000000000000000000000000000\n        /* \"Dcoffer_flat.sol\":26165:26205  interfaceId == type(IERC721).interfaceId */\n      not(0xffffffffffffffffffffffffffffffffffffffffffffffffffffffff)\n      and\n        /* \"Dcoffer_flat.sol\":26165:26176  interfaceId */\n      dup3\n        /* \"Dcoffer_flat.sol\":26165:26205  interfaceId == type(IERC721).interfaceId */\n      not(0xffffffffffffffffffffffffffffffffffffffffffffffffffffffff)\n      and\n      eq\n        /* \"Dcoffer_flat.sol\":26165:26270  interfaceId == type(IERC721).interfaceId ||... */\n      dup1\n      tag_81\n      jumpi\n      pop\n        /* \"Dcoffer_flat.sol\":26237:26270  type(IERC721Metadata).interfaceId */\n      0x5b5e139f00000000000000000000000000000000000000000000000000000000\n        /* \"Dcoffer_flat.sol\":26222:26270  interfaceId == type(IERC721Metadata).interfaceId */\n      not(0xffffffffffffffffffffffffffffffffffffffffffffffffffffffff)\n      and\n        /* \"Dcoffer_flat.sol\":26222:26233  interfaceId */\n      dup3\n        /* \"Dcoffer_flat.sol\":26222:26270  interfaceId == type(IERC721Metadata).interfaceId */\n      not(0xffffffffffffffffffffffffffffffffffffffffffffffffffffffff)\n      and\n      eq\n        /* \"Dcoffer_flat.sol\":26165:26270  interfaceId == type(IERC721).interfaceId ||... */\n    tag_81:\n        /* \"Dcoffer_flat.sol\":26165:26323  interfaceId == type(IERC721).interfaceId ||... */\n      dup1\n      tag_82\n      jumpi\n      pop\n        /* \"Dcoffer_flat.sol\":26287:26323  super.supportsInterface(interfaceId) */\n      tag_83\n        /* \"Dcoffer_flat.sol\":26311:26322  interfaceId */\n      dup3\n        /* \"Dcoffer_flat.sol\":26287:26310  super.supportsInterface */\n      tag_84\n        /* \"Dcoffer_flat.sol\":26287:26323  super.supportsInterface(interfaceId) */\n      jump\t// in\n    tag_83:\n        /* \"Dcoffer_flat.sol\":26165:26323  interfaceId == type(IERC721).interfaceId ||... */\n    tag_82:\n        /* \"Dcoffer_flat.sol\":26145:26323  return... */\n      swap1\n      pop\n        /* \"Dcoffer_flat.sol\":26026:26331  function supportsInterface(bytes4 interfaceId) public view virtual override(ERC165, IERC165) returns (bool) {... */\n      swap2\n      swap1\n      pop\n      jump\t// out\n        /* \"Dcoffer_flat.sol\":29141:29241  function name() public view virtual override returns (string memory) {... */\n    tag_27:\n        /* \"Dcoffer_flat.sol\":29195:29208  string memory */\n      0x60\n        /* \"Dcoffer_flat.sol\":29228:29233  _name */\n      0x02\n        /* \"Dcoffer_flat.sol\":29221:29233  return _name */\n      dup1\n      sload\n      tag_86\n      swap1\n      tag_87\n      jump\t// in\n    tag_86:\n      dup1\n      0x1f\n      add\n      0x20\n      dup1\n      swap2\n      div\n      mul\n      0x20\n      add\n      mload(0x40)\n      swap1\n      dup2\n      add\n      0x40\n      mstore\n      dup1\n      swap3\n      swap2\n      swap1\n      dup2\n      dup2\n      mstore\n      0x20\n      add\n      dup3\n      dup1\n      sload\n      tag_88\n      swap1\n      tag_87\n      jump\t// in\n    tag_88:\n      dup1\n      iszero\n      tag_89\n      jumpi\n      dup1\n      0x1f\n      lt\n      tag_90\n      jumpi\n      0x0100\n      dup1\n      dup4\n      sload\n      div\n      mul\n      dup4\n      mstore\n      swap2\n      0x20\n      add\n      swap2\n      jump(tag_89)\n    tag_90:\n      dup3\n      add\n      swap2\n      swap1\n      0x00\n      mstore\n      keccak256(0x00, 0x20)\n      swap1\n    tag_91:\n      dup2\n      sload\n      dup2\n      mstore\n      swap1\n      0x01\n      add\n      swap1\n      0x20\n      add\n      dup1\n      dup4\n      gt\n      tag_91\n      jumpi\n      dup3\n      swap1\n      sub\n      0x1f\n      and\n      dup3\n      add\n      swap2\n    tag_89:\n      pop\n      pop\n      pop\n      pop\n      pop\n      swap1\n      pop\n        /* \"Dcoffer_flat.sol\":29141:29241  function name() public view virtual override returns (string memory) {... */\n      swap1\n      jump\t// out\n        /* \"Dcoffer_flat.sol\":30726:30930  function getApproved(uint256 tokenId) public view override returns (address) {... */\n    tag_33:\n        /* \"Dcoffer_flat.sol\":30794:30801  address */\n      0x00\n        /* \"Dcoffer_flat.sol\":30819:30835  _exists(tokenId) */\n      tag_93\n        /* \"Dcoffer_flat.sol\":30827:30834  tokenId */\n      dup3\n        /* \"Dcoffer_flat.sol\":30819:30826  _exists */\n      tag_94\n        /* \"Dcoffer_flat.sol\":30819:30835  _exists(tokenId) */\n      jump\t// in\n    tag_93:\n        /* \"Dcoffer_flat.sol\":30814:30878  if (!_exists(tokenId)) revert ApprovalQueryForNonexistentToken() */\n      tag_95\n      jumpi\n        /* \"Dcoffer_flat.sol\":30844:30878  ApprovalQueryForNonexistentToken() */\n      mload(0x40)\n      0xcf4700e400000000000000000000000000000000000000000000000000000000\n      dup2\n      mstore\n      0x04\n      add\n      mload(0x40)\n      dup1\n      swap2\n      sub\n      swap1\n      revert\n        /* \"Dcoffer_flat.sol\":30814:30878  if (!_exists(tokenId)) revert ApprovalQueryForNonexistentToken() */\n    tag_95:\n        /* \"Dcoffer_flat.sol\":30898:30913  _tokenApprovals */\n      0x06\n        /* \"Dcoffer_flat.sol\":30898:30922  _tokenApprovals[tokenId] */\n      0x00\n        /* \"Dcoffer_flat.sol\":30914:30921  tokenId */\n      dup4\n        /* \"Dcoffer_flat.sol\":30898:30922  _tokenApprovals[tokenId] */\n      dup2\n      mstore\n      0x20\n      add\n      swap1\n      dup2\n      mstore\n      0x20\n      add\n      0x00\n      keccak256\n      0x00\n      swap1\n      sload\n      swap1\n      0x0100\n      exp\n      swap1\n      div\n      0xffffffffffffffffffffffffffffffffffffffff\n      and\n        /* \"Dcoffer_flat.sol\":30891:30922  return _tokenApprovals[tokenId] */\n      swap1\n      pop\n        /* \"Dcoffer_flat.sol\":30726:30930  function getApproved(uint256 tokenId) public view override returns (address) {... */\n      swap2\n      swap1\n      pop\n      jump\t// out\n        /* \"Dcoffer_flat.sol\":30288:30660  function approve(address to, uint256 tokenId) public override {... */\n    tag_39:\n        /* \"Dcoffer_flat.sol\":30361:30374  address owner */\n      0x00\n        /* \"Dcoffer_flat.sol\":30377:30401  ERC721A.ownerOf(tokenId) */\n      tag_97\n        /* \"Dcoffer_flat.sol\":30393:30400  tokenId */\n      dup3\n        /* \"Dcoffer_flat.sol\":30377:30392  ERC721A.ownerOf */\n      tag_53\n        /* \"Dcoffer_flat.sol\":30377:30401  ERC721A.ownerOf(tokenId) */\n      jump\t// in\n    tag_97:\n        /* \"Dcoffer_flat.sol\":30361:30401  address owner = ERC721A.ownerOf(tokenId) */\n      swap1\n      pop\n        /* \"Dcoffer_flat.sol\":30422:30427  owner */\n      dup1\n        /* \"Dcoffer_flat.sol\":30416:30427  to == owner */\n      0xffffffffffffffffffffffffffffffffffffffff\n      and\n        /* \"Dcoffer_flat.sol\":30416:30418  to */\n      dup4\n        /* \"Dcoffer_flat.sol\":30416:30427  to == owner */\n      0xffffffffffffffffffffffffffffffffffffffff\n      and\n      sub\n        /* \"Dcoffer_flat.sol\":30412:30460  if (to == owner) revert ApprovalToCurrentOwner() */\n      tag_98\n      jumpi\n        /* \"Dcoffer_flat.sol\":30436:30460  ApprovalToCurrentOwner() */\n      mload(0x40)\n      0x943f7b8c00000000000000000000000000000000000000000000000000000000\n      dup2\n      mstore\n      0x04\n      add\n      mload(0x40)\n      dup1\n      swap2\n      sub\n      swap1\n      revert\n        /* \"Dcoffer_flat.sol\":30412:30460  if (to == owner) revert ApprovalToCurrentOwner() */\n    tag_98:\n        /* \"Dcoffer_flat.sol\":30493:30498  owner */\n      dup1\n        /* \"Dcoffer_flat.sol\":30477:30498  _msgSender() != owner */\n      0xffffffffffffffffffffffffffffffffffffffff\n      and\n        /* \"Dcoffer_flat.sol\":30477:30489  _msgSender() */\n      tag_99\n        /* \"Dcoffer_flat.sol\":30477:30487  _msgSender */\n      tag_100\n        /* \"Dcoffer_flat.sol\":30477:30489  _msgSender() */\n      jump\t// in\n    tag_99:\n        /* \"Dcoffer_flat.sol\":30477:30498  _msgSender() != owner */\n      0xffffffffffffffffffffffffffffffffffffffff\n      and\n      eq\n        /* \"Dcoffer_flat.sol\":30473:30612  if (_msgSender() != owner) if(!isApprovedForAll(owner, _msgSender())) {... */\n      tag_101\n      jumpi\n        /* \"Dcoffer_flat.sol\":30504:30541  isApprovedForAll(owner, _msgSender()) */\n      tag_102\n        /* \"Dcoffer_flat.sol\":30521:30526  owner */\n      dup2\n        /* \"Dcoffer_flat.sol\":30528:30540  _msgSender() */\n      tag_103\n        /* \"Dcoffer_flat.sol\":30528:30538  _msgSender */\n      tag_100\n        /* \"Dcoffer_flat.sol\":30528:30540  _msgSender() */\n      jump\t// in\n    tag_103:\n        /* \"Dcoffer_flat.sol\":30504:30520  isApprovedForAll */\n      tag_78\n        /* \"Dcoffer_flat.sol\":30504:30541  isApprovedForAll(owner, _msgSender()) */\n      jump\t// in\n    tag_102:\n        /* \"Dcoffer_flat.sol\":30500:30612  if(!isApprovedForAll(owner, _msgSender())) {... */\n      tag_104\n      jumpi\n        /* \"Dcoffer_flat.sol\":30565:30600  ApprovalCallerNotOwnerNorApproved() */\n      mload(0x40)\n      0xcfb3b94200000000000000000000000000000000000000000000000000000000\n      dup2\n      mstore\n      0x04\n      add\n      mload(0x40)\n      dup1\n      swap2\n      sub\n      swap1\n      revert\n        /* \"Dcoffer_flat.sol\":30500:30612  if(!isApprovedForAll(owner, _msgSender())) {... */\n    tag_104:\n        /* \"Dcoffer_flat.sol\":30473:30612  if (_msgSender() != owner) if(!isApprovedForAll(owner, _msgSender())) {... */\n    tag_101:\n        /* \"Dcoffer_flat.sol\":30624:30652  _approve(to, tokenId, owner) */\n      tag_105\n        /* \"Dcoffer_flat.sol\":30633:30635  to */\n      dup4\n        /* \"Dcoffer_flat.sol\":30637:30644  tokenId */\n      dup4\n        /* \"Dcoffer_flat.sol\":30646:30651  owner */\n      dup4\n        /* \"Dcoffer_flat.sol\":30624:30632  _approve */\n      tag_106\n        /* \"Dcoffer_flat.sol\":30624:30652  _approve(to, tokenId, owner) */\n      jump\t// in\n    tag_105:\n        /* \"Dcoffer_flat.sol\":30350:30660  {... */\n      pop\n        /* \"Dcoffer_flat.sol\":30288:30660  function approve(address to, uint256 tokenId) public override {... */\n      pop\n      pop\n      jump\t// out\n        /* \"Dcoffer_flat.sol\":25266:25578  function totalSupply() public view override returns (uint256) {... */\n    tag_41:\n        /* \"Dcoffer_flat.sol\":25319:25326  uint256 */\n      0x00\n        /* \"Dcoffer_flat.sol\":25544:25559  _startTokenId() */\n      tag_108\n        /* \"Dcoffer_flat.sol\":25544:25557  _startTokenId */\n      tag_109\n        /* \"Dcoffer_flat.sol\":25544:25559  _startTokenId() */\n      jump\t// in\n    tag_108:\n        /* \"Dcoffer_flat.sol\":25529:25541  _burnCounter */\n      sload(0x01)\n        /* \"Dcoffer_flat.sol\":25513:25526  _currentIndex */\n      sload(0x00)\n        /* \"Dcoffer_flat.sol\":25513:25541  _currentIndex - _burnCounter */\n      sub\n        /* \"Dcoffer_flat.sol\":25513:25559  _currentIndex - _burnCounter - _startTokenId() */\n      sub\n        /* \"Dcoffer_flat.sol\":25506:25559  return _currentIndex - _burnCounter - _startTokenId() */\n      swap1\n      pop\n        /* \"Dcoffer_flat.sol\":25266:25578  function totalSupply() public view override returns (uint256) {... */\n      swap1\n      jump\t// out\n        /* \"Dcoffer_flat.sol\":31591:31761  function transferFrom(... */\n    tag_47:\n        /* \"Dcoffer_flat.sol\":31725:31753  _transfer(from, to, tokenId) */\n      tag_111\n        /* \"Dcoffer_flat.sol\":31735:31739  from */\n      dup4\n        /* \"Dcoffer_flat.sol\":31741:31743  to */\n      dup4\n        /* \"Dcoffer_flat.sol\":31745:31752  tokenId */\n      dup4\n        /* \"Dcoffer_flat.sol\":31725:31734  _transfer */\n      tag_112\n        /* \"Dcoffer_flat.sol\":31725:31753  _transfer(from, to, tokenId) */\n      jump\t// in\n    tag_111:\n        /* \"Dcoffer_flat.sol\":31591:31761  function transferFrom(... */\n      pop\n      pop\n      pop\n      jump\t// out\n        /* \"Dcoffer_flat.sol\":31832:32017  function safeTransferFrom(... */\n    tag_50:\n        /* \"Dcoffer_flat.sol\":31970:32009  safeTransferFrom(from, to, tokenId, '') */\n      tag_114\n        /* \"Dcoffer_flat.sol\":31987:31991  from */\n      dup4\n        /* \"Dcoffer_flat.sol\":31993:31995  to */\n      dup4\n        /* \"Dcoffer_flat.sol\":31997:32004  tokenId */\n      dup4\n        /* \"Dcoffer_flat.sol\":31970:32009  safeTransferFrom(from, to, tokenId, '') */\n      mload(0x40)\n      dup1\n      0x20\n      add\n      0x40\n      mstore\n      dup1\n      0x00\n      dup2\n      mstore\n      pop\n        /* \"Dcoffer_flat.sol\":31970:31986  safeTransferFrom */\n      tag_70\n        /* \"Dcoffer_flat.sol\":31970:32009  safeTransferFrom(from, to, tokenId, '') */\n      jump\t// in\n    tag_114:\n        /* \"Dcoffer_flat.sol\":31832:32017  function safeTransferFrom(... */\n      pop\n      pop\n      pop\n      jump\t// out\n        /* \"Dcoffer_flat.sol\":28949:29074  function ownerOf(uint256 tokenId) public view override returns (address) {... */\n    tag_53:\n        /* \"Dcoffer_flat.sol\":29013:29020  address */\n      0x00\n        /* \"Dcoffer_flat.sol\":29040:29061  _ownershipOf(tokenId) */\n      tag_116\n        /* \"Dcoffer_flat.sol\":29053:29060  tokenId */\n      dup3\n        /* \"Dcoffer_flat.sol\":29040:29052  _ownershipOf */\n      tag_117\n        /* \"Dcoffer_flat.sol\":29040:29061  _ownershipOf(tokenId) */\n      jump\t// in\n    tag_116:\n        /* \"Dcoffer_flat.sol\":29040:29066  _ownershipOf(tokenId).addr */\n      0x00\n      add\n      mload\n        /* \"Dcoffer_flat.sol\":29033:29066  return _ownershipOf(tokenId).addr */\n      swap1\n      pop\n        /* \"Dcoffer_flat.sol\":28949:29074  function ownerOf(uint256 tokenId) public view override returns (address) {... */\n      swap2\n      swap1\n      pop\n      jump\t// out\n        /* \"Dcoffer_flat.sol\":26395:26601  function balanceOf(address owner) public view override returns (uint256) {... */\n    tag_58:\n        /* \"Dcoffer_flat.sol\":26459:26466  uint256 */\n      0x00\n        /* \"Dcoffer_flat.sol\":26500:26501  0 */\n      dup1\n        /* \"Dcoffer_flat.sol\":26483:26502  owner == address(0) */\n      0xffffffffffffffffffffffffffffffffffffffff\n      and\n        /* \"Dcoffer_flat.sol\":26483:26488  owner */\n      dup3\n        /* \"Dcoffer_flat.sol\":26483:26502  owner == address(0) */\n      0xffffffffffffffffffffffffffffffffffffffff\n      and\n      sub\n        /* \"Dcoffer_flat.sol\":26479:26539  if (owner == address(0)) revert BalanceQueryForZeroAddress() */\n      tag_119\n      jumpi\n        /* \"Dcoffer_flat.sol\":26511:26539  BalanceQueryForZeroAddress() */\n      mload(0x40)\n      0x8f4eb60400000000000000000000000000000000000000000000000000000000\n      dup2\n      mstore\n      0x04\n      add\n      mload(0x40)\n      dup1\n      swap2\n      sub\n      swap1\n      revert\n        /* \"Dcoffer_flat.sol\":26479:26539  if (owner == address(0)) revert BalanceQueryForZeroAddress() */\n    tag_119:\n        /* \"Dcoffer_flat.sol\":26565:26577  _addressData */\n      0x05\n        /* \"Dcoffer_flat.sol\":26565:26584  _addressData[owner] */\n      0x00\n        /* \"Dcoffer_flat.sol\":26578:26583  owner */\n      dup4\n        /* \"Dcoffer_flat.sol\":26565:26584  _addressData[owner] */\n      0xffffffffffffffffffffffffffffffffffffffff\n      and\n      0xffffffffffffffffffffffffffffffffffffffff\n      and\n      dup2\n      mstore\n      0x20\n      add\n      swap1\n      dup2\n      mstore\n      0x20\n      add\n      0x00\n      keccak256\n        /* \"Dcoffer_flat.sol\":26565:26592  _addressData[owner].balance */\n      0x00\n      add\n      0x00\n      swap1\n      sload\n      swap1\n      0x0100\n      exp\n      swap1\n      div\n      0xffffffffffffffff\n      and\n        /* \"Dcoffer_flat.sol\":26557:26593  uint256(_addressData[owner].balance) */\n      0xffffffffffffffff\n      and\n        /* \"Dcoffer_flat.sol\":26550:26593  return uint256(_addressData[owner].balance) */\n      swap1\n      pop\n        /* \"Dcoffer_flat.sol\":26395:26601  function balanceOf(address owner) public view override returns (uint256) {... */\n      swap2\n      swap1\n      pop\n      jump\t// out\n        /* \"Dcoffer_flat.sol\":29310:29414  function symbol() public view virtual override returns (string memory) {... */\n    tag_61:\n        /* \"Dcoffer_flat.sol\":29366:29379  string memory */\n      0x60\n        /* \"Dcoffer_flat.sol\":29399:29406  _symbol */\n      0x03\n        /* \"Dcoffer_flat.sol\":29392:29406  return _symbol */\n      dup1\n      sload\n      tag_121\n      swap1\n      tag_87\n      jump\t// in\n    tag_121:\n      dup1\n      0x1f\n      add\n      0x20\n      dup1\n      swap2\n      div\n      mul\n      0x20\n      add\n      mload(0x40)\n      swap1\n      dup2\n      add\n      0x40\n      mstore\n      dup1\n      swap3\n      swap2\n      swap1\n      dup2\n      dup2\n      mstore\n      0x20\n      add\n      dup3\n      dup1\n      sload\n      tag_122\n      swap1\n      tag_87\n      jump\t// in\n    tag_122:\n      dup1\n      iszero\n      tag_123\n      jumpi\n      dup1\n      0x1f\n      lt\n      tag_124\n      jumpi\n      0x0100\n      dup1\n      dup4\n      sload\n      div\n      mul\n      dup4\n      mstore\n      swap2\n      0x20\n      add\n      swap2\n      jump(tag_123)\n    tag_124:\n      dup3\n      add\n      swap2\n      swap1\n      0x00\n      mstore\n      keccak256(0x00, 0x20)\n      swap1\n    tag_125:\n      dup2\n      sload\n      dup2\n      mstore\n      swap1\n      0x01\n      add\n      swap1\n      0x20\n      add\n      dup1\n      dup4\n      gt\n      tag_125\n      jumpi\n      dup3\n      swap1\n      sub\n      0x1f\n      and\n      dup3\n      add\n      swap2\n    tag_123:\n      pop\n      pop\n      pop\n      pop\n      pop\n      swap1\n      pop\n        /* \"Dcoffer_flat.sol\":29310:29414  function symbol() public view virtual override returns (string memory) {... */\n      swap1\n      jump\t// out\n        /* \"Dcoffer_flat.sol\":31002:31289  function setApprovalForAll(address operator, bool approved) public virtual override {... */\n    tag_66:\n        /* \"Dcoffer_flat.sol\":31113:31125  _msgSender() */\n      tag_127\n        /* \"Dcoffer_flat.sol\":31113:31123  _msgSender */\n      tag_100\n        /* \"Dcoffer_flat.sol\":31113:31125  _msgSender() */\n      jump\t// in\n    tag_127:\n        /* \"Dcoffer_flat.sol\":31101:31125  operator == _msgSender() */\n      0xffffffffffffffffffffffffffffffffffffffff\n      and\n        /* \"Dcoffer_flat.sol\":31101:31109  operator */\n      dup3\n        /* \"Dcoffer_flat.sol\":31101:31125  operator == _msgSender() */\n      0xffffffffffffffffffffffffffffffffffffffff\n      and\n      sub\n        /* \"Dcoffer_flat.sol\":31097:31151  if (operator == _msgSender()) revert ApproveToCaller() */\n      tag_128\n      jumpi\n        /* \"Dcoffer_flat.sol\":31134:31151  ApproveToCaller() */\n      mload(0x40)\n      0xb06307db00000000000000000000000000000000000000000000000000000000\n      dup2\n      mstore\n      0x04\n      add\n      mload(0x40)\n      dup1\n      swap2\n      sub\n      swap1\n      revert\n        /* \"Dcoffer_flat.sol\":31097:31151  if (operator == _msgSender()) revert ApproveToCaller() */\n    tag_128:\n        /* \"Dcoffer_flat.sol\":31209:31217  approved */\n      dup1\n        /* \"Dcoffer_flat.sol\":31164:31182  _operatorApprovals */\n      0x07\n        /* \"Dcoffer_flat.sol\":31164:31196  _operatorApprovals[_msgSender()] */\n      0x00\n        /* \"Dcoffer_flat.sol\":31183:31195  _msgSender() */\n      tag_129\n        /* \"Dcoffer_flat.sol\":31183:31193  _msgSender */\n      tag_100\n        /* \"Dcoffer_flat.sol\":31183:31195  _msgSender() */\n      jump\t// in\n    tag_129:\n        /* \"Dcoffer_flat.sol\":31164:31196  _operatorApprovals[_msgSender()] */\n      0xffffffffffffffffffffffffffffffffffffffff\n      and\n      0xffffffffffffffffffffffffffffffffffffffff\n      and\n      dup2\n      mstore\n      0x20\n      add\n      swap1\n      dup2\n      mstore\n      0x20\n      add\n      0x00\n      keccak256\n        /* \"Dcoffer_flat.sol\":31164:31206  _operatorApprovals[_msgSender()][operator] */\n      0x00\n        /* \"Dcoffer_flat.sol\":31197:31205  operator */\n      dup5\n        /* \"Dcoffer_flat.sol\":31164:31206  _operatorApprovals[_msgSender()][operator] */\n      0xffffffffffffffffffffffffffffffffffffffff\n      and\n      0xffffffffffffffffffffffffffffffffffffffff\n      and\n      dup2\n      mstore\n      0x20\n      add\n      swap1\n      dup2\n      mstore\n      0x20\n      add\n      0x00\n      keccak256\n      0x00\n        /* \"Dcoffer_flat.sol\":31164:31217  _operatorApprovals[_msgSender()][operator] = approved */\n      0x0100\n      exp\n      dup2\n      sload\n      dup2\n      0xff\n      mul\n      not\n      and\n      swap1\n      dup4\n      iszero\n      iszero\n      mul\n      or\n      swap1\n      sstore\n      pop\n        /* \"Dcoffer_flat.sol\":31262:31270  operator */\n      dup2\n        /* \"Dcoffer_flat.sol\":31233:31281  ApprovalForAll(_msgSender(), operator, approved) */\n      0xffffffffffffffffffffffffffffffffffffffff\n      and\n        /* \"Dcoffer_flat.sol\":31248:31260  _msgSender() */\n      tag_130\n        /* \"Dcoffer_flat.sol\":31248:31258  _msgSender */\n      tag_100\n        /* \"Dcoffer_flat.sol\":31248:31260  _msgSender() */\n      jump\t// in\n    tag_130:\n        /* \"Dcoffer_flat.sol\":31233:31281  ApprovalForAll(_msgSender(), operator, approved) */\n      0xffffffffffffffffffffffffffffffffffffffff\n      and\n      0x17307eab39ab6107e8899845ad3d59bd9653f200f220920489ca2b5937696c31\n        /* \"Dcoffer_flat.sol\":31272:31280  approved */\n      dup4\n        /* \"Dcoffer_flat.sol\":31233:31281  ApprovalForAll(_msgSender(), operator, approved) */\n      mload(0x40)\n      tag_131\n      swap2\n      swap1\n      tag_25\n      jump\t// in\n    tag_131:\n      mload(0x40)\n      dup1\n      swap2\n      sub\n      swap1\n      log3\n        /* \"Dcoffer_flat.sol\":31002:31289  function setApprovalForAll(address operator, bool approved) public virtual override {... */\n      pop\n      pop\n      jump\t// out\n        /* \"Dcoffer_flat.sol\":32088:32458  function safeTransferFrom(... */\n    tag_70:\n        /* \"Dcoffer_flat.sol\":32255:32283  _transfer(from, to, tokenId) */\n      tag_133\n        /* \"Dcoffer_flat.sol\":32265:32269  from */\n      dup5\n        /* \"Dcoffer_flat.sol\":32271:32273  to */\n      dup5\n        /* \"Dcoffer_flat.sol\":32275:32282  tokenId */\n      dup5\n        /* \"Dcoffer_flat.sol\":32255:32264  _transfer */\n      tag_112\n        /* \"Dcoffer_flat.sol\":32255:32283  _transfer(from, to, tokenId) */\n      jump\t// in\n    tag_133:\n        /* \"Dcoffer_flat.sol\":32298:32313  to.isContract() */\n      tag_134\n        /* \"Dcoffer_flat.sol\":32298:32300  to */\n      dup4\n        /* \"Dcoffer_flat.sol\":32298:32311  to.isContract */\n      0xffffffffffffffffffffffffffffffffffffffff\n      and\n      tag_135\n        /* \"Dcoffer_flat.sol\":32298:32313  to.isContract() */\n      jump\t// in\n    tag_134:\n        /* \"Dcoffer_flat.sol\":32294:32451  if (to.isContract()) if(!_checkContractOnERC721Received(from, to, tokenId, _data)) {... */\n      iszero\n      tag_136\n      jumpi\n        /* \"Dcoffer_flat.sol\":32319:32375  _checkContractOnERC721Received(from, to, tokenId, _data) */\n      tag_137\n        /* \"Dcoffer_flat.sol\":32350:32354  from */\n      dup5\n        /* \"Dcoffer_flat.sol\":32356:32358  to */\n      dup5\n        /* \"Dcoffer_flat.sol\":32360:32367  tokenId */\n      dup5\n        /* \"Dcoffer_flat.sol\":32369:32374  _data */\n      dup5\n        /* \"Dcoffer_flat.sol\":32319:32349  _checkContractOnERC721Received */\n      tag_138\n        /* \"Dcoffer_flat.sol\":32319:32375  _checkContractOnERC721Received(from, to, tokenId, _data) */\n      jump\t// in\n    tag_137:\n        /* \"Dcoffer_flat.sol\":32315:32451  if(!_checkContractOnERC721Received(from, to, tokenId, _data)) {... */\n      tag_139\n      jumpi\n        /* \"Dcoffer_flat.sol\":32399:32439  TransferToNonERC721ReceiverImplementer() */\n      mload(0x40)\n      0xd1a57ed600000000000000000000000000000000000000000000000000000000\n      dup2\n      mstore\n      0x04\n      add\n      mload(0x40)\n      dup1\n      swap2\n      sub\n      swap1\n      revert\n        /* \"Dcoffer_flat.sol\":32315:32451  if(!_checkContractOnERC721Received(from, to, tokenId, _data)) {... */\n    tag_139:\n        /* \"Dcoffer_flat.sol\":32294:32451  if (to.isContract()) if(!_checkContractOnERC721Received(from, to, tokenId, _data)) {... */\n    tag_136:\n        /* \"Dcoffer_flat.sol\":32088:32458  function safeTransferFrom(... */\n      pop\n      pop\n      pop\n      pop\n      jump\t// out\n        /* \"Dcoffer_flat.sol\":29485:29803  function tokenURI(uint256 tokenId) public view virtual override returns (string memory) {... */\n    tag_73:\n        /* \"Dcoffer_flat.sol\":29558:29571  string memory */\n      0x60\n        /* \"Dcoffer_flat.sol\":29589:29605  _exists(tokenId) */\n      tag_141\n        /* \"Dcoffer_flat.sol\":29597:29604  tokenId */\n      dup3\n        /* \"Dcoffer_flat.sol\":29589:29596  _exists */\n      tag_94\n        /* \"Dcoffer_flat.sol\":29589:29605  _exists(tokenId) */\n      jump\t// in\n    tag_141:\n        /* \"Dcoffer_flat.sol\":29584:29643  if (!_exists(tokenId)) revert URIQueryForNonexistentToken() */\n      tag_142\n      jumpi\n        /* \"Dcoffer_flat.sol\":29614:29643  URIQueryForNonexistentToken() */\n      mload(0x40)\n      0xa14c4b5000000000000000000000000000000000000000000000000000000000\n      dup2\n      mstore\n      0x04\n      add\n      mload(0x40)\n      dup1\n      swap2\n      sub\n      swap1\n      revert\n        /* \"Dcoffer_flat.sol\":29584:29643  if (!_exists(tokenId)) revert URIQueryForNonexistentToken() */\n    tag_142:\n        /* \"Dcoffer_flat.sol\":29656:29677  string memory baseURI */\n      0x00\n        /* \"Dcoffer_flat.sol\":29680:29690  _baseURI() */\n      tag_143\n        /* \"Dcoffer_flat.sol\":29680:29688  _baseURI */\n      tag_144\n        /* \"Dcoffer_flat.sol\":29680:29690  _baseURI() */\n      jump\t// in\n    tag_143:\n        /* \"Dcoffer_flat.sol\":29656:29690  string memory baseURI = _baseURI() */\n      swap1\n      pop\n        /* \"Dcoffer_flat.sol\":29733:29734  0 */\n      0x00\n        /* \"Dcoffer_flat.sol\":29714:29721  baseURI */\n      dup2\n        /* \"Dcoffer_flat.sol\":29708:29729  bytes(baseURI).length */\n      mload\n        /* \"Dcoffer_flat.sol\":29708:29734  bytes(baseURI).length != 0 */\n      sub\n        /* \"Dcoffer_flat.sol\":29708:29795  bytes(baseURI).length != 0 ? string(abi.encodePacked(baseURI, tokenId.toString())) : '' */\n      tag_145\n      jumpi\n      mload(0x40)\n      dup1\n      0x20\n      add\n      0x40\n      mstore\n      dup1\n      0x00\n      dup2\n      mstore\n      pop\n      jump(tag_146)\n    tag_145:\n        /* \"Dcoffer_flat.sol\":29761:29768  baseURI */\n      dup1\n        /* \"Dcoffer_flat.sol\":29770:29788  tokenId.toString() */\n      tag_147\n        /* \"Dcoffer_flat.sol\":29770:29777  tokenId */\n      dup5\n        /* \"Dcoffer_flat.sol\":29770:29786  tokenId.toString */\n      tag_148\n        /* \"Dcoffer_flat.sol\":29770:29788  tokenId.toString() */\n      jump\t// in\n    tag_147:\n        /* \"Dcoffer_flat.sol\":29744:29789  abi.encodePacked(baseURI, tokenId.toString()) */\n      add(0x20, mload(0x40))\n      tag_149\n      swap3\n      swap2\n      swap1\n      tag_150\n      jump\t// in\n    tag_149:\n      mload(0x40)\n      0x20\n      dup2\n      dup4\n      sub\n      sub\n      dup2\n      mstore\n      swap1\n      0x40\n      mstore\n        /* \"Dcoffer_flat.sol\":29708:29795  bytes(baseURI).length != 0 ? string(abi.encodePacked(baseURI, tokenId.toString())) : '' */\n    tag_146:\n        /* \"Dcoffer_flat.sol\":29701:29795  return bytes(baseURI).length != 0 ? string(abi.encodePacked(baseURI, tokenId.toString())) : '' */\n      swap2\n      pop\n      pop\n        /* \"Dcoffer_flat.sol\":29485:29803  function tokenURI(uint256 tokenId) public view virtual override returns (string memory) {... */\n      swap2\n      swap1\n      pop\n      jump\t// out\n        /* \"Dcoffer_flat.sol\":31360:31524  function isApprovedForAll(address owner, address operator) public view virtual override returns (bool) {... */\n    tag_78:\n        /* \"Dcoffer_flat.sol\":31457:31461  bool */\n      0x00\n        /* \"Dcoffer_flat.sol\":31481:31499  _operatorApprovals */\n      0x07\n        /* \"Dcoffer_flat.sol\":31481:31506  _operatorApprovals[owner] */\n      0x00\n        /* \"Dcoffer_flat.sol\":31500:31505  owner */\n      dup5\n        /* \"Dcoffer_flat.sol\":31481:31506  _operatorApprovals[owner] */\n      0xffffffffffffffffffffffffffffffffffffffff\n      and\n      0xffffffffffffffffffffffffffffffffffffffff\n      and\n      dup2\n      mstore\n      0x20\n      add\n      swap1\n      dup2\n      mstore\n      0x20\n      add\n      0x00\n      keccak256\n        /* \"Dcoffer_flat.sol\":31481:31516  _operatorApprovals[owner][operator] */\n      0x00\n        /* \"Dcoffer_flat.sol\":31507:31515  operator */\n      dup4\n        /* \"Dcoffer_flat.sol\":31481:31516  _operatorApprovals[owner][operator] */\n      0xffffffffffffffffffffffffffffffffffffffff\n      and\n      0xffffffffffffffffffffffffffffffffffffffff\n      and\n      dup2\n      mstore\n      0x20\n      add\n      swap1\n      dup2\n      mstore\n      0x20\n      add\n      0x00\n      keccak256\n      0x00\n      swap1\n      sload\n      swap1\n      0x0100\n      exp\n      swap1\n      div\n      0xff\n      and\n        /* \"Dcoffer_flat.sol\":31474:31516  return _operatorApprovals[owner][operator] */\n      swap1\n      pop\n        /* \"Dcoffer_flat.sol\":31360:31524  function isApprovedForAll(address owner, address operator) public view virtual override returns (bool) {... */\n      swap3\n      swap2\n      pop\n      pop\n      jump\t// out\n        /* \"Dcoffer_flat.sol\":14389:14546  function supportsInterface(bytes4 interfaceId) public view virtual override returns (bool) {... */\n    tag_84:\n        /* \"Dcoffer_flat.sol\":14474:14478  bool */\n      0x00\n        /* \"Dcoffer_flat.sol\":14513:14538  type(IERC165).interfaceId */\n      0x01ffc9a700000000000000000000000000000000000000000000000000000000\n        /* \"Dcoffer_flat.sol\":14498:14538  interfaceId == type(IERC165).interfaceId */\n      not(0xffffffffffffffffffffffffffffffffffffffffffffffffffffffff)\n      and\n        /* \"Dcoffer_flat.sol\":14498:14509  interfaceId */\n      dup3\n        /* \"Dcoffer_flat.sol\":14498:14538  interfaceId == type(IERC165).interfaceId */\n      not(0xffffffffffffffffffffffffffffffffffffffffffffffffffffffff)\n      and\n      eq\n        /* \"Dcoffer_flat.sol\":14491:14538  return interfaceId == type(IERC165).interfaceId */\n      swap1\n      pop\n        /* \"Dcoffer_flat.sol\":14389:14546  function supportsInterface(bytes4 interfaceId) public view virtual override returns (bool) {... */\n      swap2\n      swap1\n      pop\n      jump\t// out\n        /* \"Dcoffer_flat.sol\":32713:32887  function _exists(uint256 tokenId) internal view returns (bool) {... */\n    tag_94:\n        /* \"Dcoffer_flat.sol\":32770:32774  bool */\n      0x00\n        /* \"Dcoffer_flat.sol\":32813:32820  tokenId */\n      dup2\n        /* \"Dcoffer_flat.sol\":32794:32809  _startTokenId() */\n      tag_154\n        /* \"Dcoffer_flat.sol\":32794:32807  _startTokenId */\n      tag_109\n        /* \"Dcoffer_flat.sol\":32794:32809  _startTokenId() */\n      jump\t// in\n    tag_154:\n        /* \"Dcoffer_flat.sol\":32794:32820  _startTokenId() <= tokenId */\n      gt\n      iszero\n        /* \"Dcoffer_flat.sol\":32794:32847  _startTokenId() <= tokenId && tokenId < _currentIndex */\n      dup1\n      iszero\n      tag_155\n      jumpi\n      pop\n        /* \"Dcoffer_flat.sol\":32834:32847  _currentIndex */\n      sload(0x00)\n        /* \"Dcoffer_flat.sol\":32824:32831  tokenId */\n      dup3\n        /* \"Dcoffer_flat.sol\":32824:32847  tokenId < _currentIndex */\n      lt\n        /* \"Dcoffer_flat.sol\":32794:32847  _startTokenId() <= tokenId && tokenId < _currentIndex */\n    tag_155:\n        /* \"Dcoffer_flat.sol\":32794:32879  _startTokenId() <= tokenId && tokenId < _currentIndex && !_ownerships[tokenId].burned */\n      dup1\n      iszero\n      tag_156\n      jumpi\n      pop\n        /* \"Dcoffer_flat.sol\":32852:32863  _ownerships */\n      0x04\n        /* \"Dcoffer_flat.sol\":32852:32872  _ownerships[tokenId] */\n      0x00\n        /* \"Dcoffer_flat.sol\":32864:32871  tokenId */\n      dup4\n        /* \"Dcoffer_flat.sol\":32852:32872  _ownerships[tokenId] */\n      dup2\n      mstore\n      0x20\n      add\n      swap1\n      dup2\n      mstore\n      0x20\n      add\n      0x00\n      keccak256\n        /* \"Dcoffer_flat.sol\":32852:32879  _ownerships[tokenId].burned */\n      0x00\n      add\n      0x1c\n      swap1\n      sload\n      swap1\n      0x0100\n      exp\n      swap1\n      div\n      0xff\n      and\n        /* \"Dcoffer_flat.sol\":32851:32879  !_ownerships[tokenId].burned */\n      iszero\n        /* \"Dcoffer_flat.sol\":32794:32879  _startTokenId() <= tokenId && tokenId < _currentIndex && !_ownerships[tokenId].burned */\n    tag_156:\n        /* \"Dcoffer_flat.sol\":32787:32879  return _startTokenId() <= tokenId && tokenId < _currentIndex && !_ownerships[tokenId].burned */\n      swap1\n      pop\n        /* \"Dcoffer_flat.sol\":32713:32887  function _exists(uint256 tokenId) internal view returns (bool) {... */\n      swap2\n      swap1\n      pop\n      jump\t// out\n        /* \"Dcoffer_flat.sol\":2836:2934  function _msgSender() internal view virtual returns (address) {... */\n    tag_100:\n        /* \"Dcoffer_flat.sol\":2889:2896  address */\n      0x00\n        /* \"Dcoffer_flat.sol\":2916:2926  msg.sender */\n      caller\n        /* \"Dcoffer_flat.sol\":2909:2926  return msg.sender */\n      swap1\n      pop\n        /* \"Dcoffer_flat.sol\":2836:2934  function _msgSender() internal view virtual returns (address) {... */\n      swap1\n      jump\t// out\n        /* \"Dcoffer_flat.sol\":41935:42131  function _approve(... */\n    tag_106:\n        /* \"Dcoffer_flat.sol\":42077:42079  to */\n      dup3\n        /* \"Dcoffer_flat.sol\":42050:42065  _tokenApprovals */\n      0x06\n        /* \"Dcoffer_flat.sol\":42050:42074  _tokenApprovals[tokenId] */\n      0x00\n        /* \"Dcoffer_flat.sol\":42066:42073  tokenId */\n      dup5\n        /* \"Dcoffer_flat.sol\":42050:42074  _tokenApprovals[tokenId] */\n      dup2\n      mstore\n      0x20\n      add\n      swap1\n      dup2\n      mstore\n      0x20\n      add\n      0x00\n      keccak256\n      0x00\n        /* \"Dcoffer_flat.sol\":42050:42079  _tokenApprovals[tokenId] = to */\n      0x0100\n      exp\n      dup2\n      sload\n      dup2\n      0xffffffffffffffffffffffffffffffffffffffff\n      mul\n      not\n      and\n      swap1\n      dup4\n      0xffffffffffffffffffffffffffffffffffffffff\n      and\n      mul\n      or\n      swap1\n      sstore\n      pop\n        /* \"Dcoffer_flat.sol\":42115:42122  tokenId */\n      dup2\n        /* \"Dcoffer_flat.sol\":42111:42113  to */\n      dup4\n        /* \"Dcoffer_flat.sol\":42095:42123  Approval(owner, to, tokenId) */\n      0xffffffffffffffffffffffffffffffffffffffff\n      and\n        /* \"Dcoffer_flat.sol\":42104:42109  owner */\n      dup3\n        /* \"Dcoffer_flat.sol\":42095:42123  Approval(owner, to, tokenId) */\n      0xffffffffffffffffffffffffffffffffffffffff\n      and\n      0x8c5be1e5ebec7d5bd14f71427d1e84f3dd0314c0f7b2291e5b200ac8c7c3b925\n      mload(0x40)\n      mload(0x40)\n      dup1\n      swap2\n      sub\n      swap1\n      log4\n        /* \"Dcoffer_flat.sol\":41935:42131  function _approve(... */\n      pop\n      pop\n      pop\n      jump\t// out\n        /* \"Dcoffer_flat.sol\":25040:25132  function _startTokenId() internal view virtual returns (uint256) {... */\n    tag_109:\n        /* \"Dcoffer_flat.sol\":25096:25103  uint256 */\n      0x00\n        /* \"Dcoffer_flat.sol\":25123:25124  1 */\n      0x01\n        /* \"Dcoffer_flat.sol\":25116:25124  return 1 */\n      swap1\n      pop\n        /* \"Dcoffer_flat.sol\":25040:25132  function _startTokenId() internal view virtual returns (uint256) {... */\n      swap1\n      jump\t// out\n        /* \"Dcoffer_flat.sol\":36883:39013  function _transfer(... */\n    tag_112:\n        /* \"Dcoffer_flat.sol\":36998:37033  TokenOwnership memory prevOwnership */\n      0x00\n        /* \"Dcoffer_flat.sol\":37036:37057  _ownershipOf(tokenId) */\n      tag_161\n        /* \"Dcoffer_flat.sol\":37049:37056  tokenId */\n      dup3\n        /* \"Dcoffer_flat.sol\":37036:37048  _ownershipOf */\n      tag_117\n        /* \"Dcoffer_flat.sol\":37036:37057  _ownershipOf(tokenId) */\n      jump\t// in\n    tag_161:\n        /* \"Dcoffer_flat.sol\":36998:37057  TokenOwnership memory prevOwnership = _ownershipOf(tokenId) */\n      swap1\n      pop\n        /* \"Dcoffer_flat.sol\":37096:37100  from */\n      dup4\n        /* \"Dcoffer_flat.sol\":37074:37100  prevOwnership.addr != from */\n      0xffffffffffffffffffffffffffffffffffffffff\n      and\n        /* \"Dcoffer_flat.sol\":37074:37087  prevOwnership */\n      dup2\n        /* \"Dcoffer_flat.sol\":37074:37092  prevOwnership.addr */\n      0x00\n      add\n      mload\n        /* \"Dcoffer_flat.sol\":37074:37100  prevOwnership.addr != from */\n      0xffffffffffffffffffffffffffffffffffffffff\n      and\n      eq\n        /* \"Dcoffer_flat.sol\":37070:37137  if (prevOwnership.addr != from) revert TransferFromIncorrectOwner() */\n      tag_162\n      jumpi\n        /* \"Dcoffer_flat.sol\":37109:37137  TransferFromIncorrectOwner() */\n      mload(0x40)\n      0xa114810000000000000000000000000000000000000000000000000000000000\n      dup2\n      mstore\n      0x04\n      add\n      mload(0x40)\n      dup1\n      swap2\n      sub\n      swap1\n      revert\n        /* \"Dcoffer_flat.sol\":37070:37137  if (prevOwnership.addr != from) revert TransferFromIncorrectOwner() */\n    tag_162:\n        /* \"Dcoffer_flat.sol\":37150:37172  bool isApprovedOrOwner */\n      0x00\n        /* \"Dcoffer_flat.sol\":37192:37196  from */\n      dup5\n        /* \"Dcoffer_flat.sol\":37176:37196  _msgSender() == from */\n      0xffffffffffffffffffffffffffffffffffffffff\n      and\n        /* \"Dcoffer_flat.sol\":37176:37188  _msgSender() */\n      tag_163\n        /* \"Dcoffer_flat.sol\":37176:37186  _msgSender */\n      tag_100\n        /* \"Dcoffer_flat.sol\":37176:37188  _msgSender() */\n      jump\t// in\n    tag_163:\n        /* \"Dcoffer_flat.sol\":37176:37196  _msgSender() == from */\n      0xffffffffffffffffffffffffffffffffffffffff\n      and\n      eq\n        /* \"Dcoffer_flat.sol\":37176:37249  _msgSender() == from ||... */\n      dup1\n      tag_164\n      jumpi\n      pop\n        /* \"Dcoffer_flat.sol\":37213:37249  isApprovedForAll(from, _msgSender()) */\n      tag_165\n        /* \"Dcoffer_flat.sol\":37230:37234  from */\n      dup6\n        /* \"Dcoffer_flat.sol\":37236:37248  _msgSender() */\n      tag_166\n        /* \"Dcoffer_flat.sol\":37236:37246  _msgSender */\n      tag_100\n        /* \"Dcoffer_flat.sol\":37236:37248  _msgSender() */\n      jump\t// in\n    tag_166:\n        /* \"Dcoffer_flat.sol\":37213:37229  isApprovedForAll */\n      tag_78\n        /* \"Dcoffer_flat.sol\":37213:37249  isApprovedForAll(from, _msgSender()) */\n      jump\t// in\n    tag_165:\n        /* \"Dcoffer_flat.sol\":37176:37249  _msgSender() == from ||... */\n    tag_164:\n        /* \"Dcoffer_flat.sol\":37176:37302  _msgSender() == from ||... */\n      dup1\n      tag_167\n      jumpi\n      pop\n        /* \"Dcoffer_flat.sol\":37290:37302  _msgSender() */\n      tag_168\n        /* \"Dcoffer_flat.sol\":37290:37300  _msgSender */\n      tag_100\n        /* \"Dcoffer_flat.sol\":37290:37302  _msgSender() */\n      jump\t// in\n    tag_168:\n        /* \"Dcoffer_flat.sol\":37266:37302  getApproved(tokenId) == _msgSender() */\n      0xffffffffffffffffffffffffffffffffffffffff\n      and\n        /* \"Dcoffer_flat.sol\":37266:37286  getApproved(tokenId) */\n      tag_169\n        /* \"Dcoffer_flat.sol\":37278:37285  tokenId */\n      dup5\n        /* \"Dcoffer_flat.sol\":37266:37277  getApproved */\n      tag_33\n        /* \"Dcoffer_flat.sol\":37266:37286  getApproved(tokenId) */\n      jump\t// in\n    tag_169:\n        /* \"Dcoffer_flat.sol\":37266:37302  getApproved(tokenId) == _msgSender() */\n      0xffffffffffffffffffffffffffffffffffffffff\n      and\n      eq\n        /* \"Dcoffer_flat.sol\":37176:37302  _msgSender() == from ||... */\n    tag_167:\n        /* \"Dcoffer_flat.sol\":37150:37303  bool isApprovedOrOwner = (_msgSender() == from ||... */\n      swap1\n      pop\n        /* \"Dcoffer_flat.sol\":37321:37338  isApprovedOrOwner */\n      dup1\n        /* \"Dcoffer_flat.sol\":37316:37382  if (!isApprovedOrOwner) revert TransferCallerNotOwnerNorApproved() */\n      tag_170\n      jumpi\n        /* \"Dcoffer_flat.sol\":37347:37382  TransferCallerNotOwnerNorApproved() */\n      mload(0x40)\n      0x59c896be00000000000000000000000000000000000000000000000000000000\n      dup2\n      mstore\n      0x04\n      add\n      mload(0x40)\n      dup1\n      swap2\n      sub\n      swap1\n      revert\n        /* \"Dcoffer_flat.sol\":37316:37382  if (!isApprovedOrOwner) revert TransferCallerNotOwnerNorApproved() */\n    tag_170:\n        /* \"Dcoffer_flat.sol\":37411:37412  0 */\n      0x00\n        /* \"Dcoffer_flat.sol\":37397:37413  to == address(0) */\n      0xffffffffffffffffffffffffffffffffffffffff\n      and\n        /* \"Dcoffer_flat.sol\":37397:37399  to */\n      dup5\n        /* \"Dcoffer_flat.sol\":37397:37413  to == address(0) */\n      0xffffffffffffffffffffffffffffffffffffffff\n      and\n      sub\n        /* \"Dcoffer_flat.sol\":37393:37445  if (to == address(0)) revert TransferToZeroAddress() */\n      tag_171\n      jumpi\n        /* \"Dcoffer_flat.sol\":37422:37445  TransferToZeroAddress() */\n      mload(0x40)\n      0xea553b3400000000000000000000000000000000000000000000000000000000\n      dup2\n      mstore\n      0x04\n      add\n      mload(0x40)\n      dup1\n      swap2\n      sub\n      swap1\n      revert\n        /* \"Dcoffer_flat.sol\":37393:37445  if (to == address(0)) revert TransferToZeroAddress() */\n    tag_171:\n        /* \"Dcoffer_flat.sol\":37458:37501  _beforeTokenTransfers(from, to, tokenId, 1) */\n      tag_172\n        /* \"Dcoffer_flat.sol\":37480:37484  from */\n      dup6\n        /* \"Dcoffer_flat.sol\":37486:37488  to */\n      dup6\n        /* \"Dcoffer_flat.sol\":37490:37497  tokenId */\n      dup6\n        /* \"Dcoffer_flat.sol\":37499:37500  1 */\n      0x01\n        /* \"Dcoffer_flat.sol\":37458:37479  _beforeTokenTransfers */\n      tag_173\n        /* \"Dcoffer_flat.sol\":37458:37501  _beforeTokenTransfers(from, to, tokenId, 1) */\n      jump\t// in\n    tag_172:\n        /* \"Dcoffer_flat.sol\":37566:37601  _approve(address(0), tokenId, from) */\n      tag_174\n        /* \"Dcoffer_flat.sol\":37583:37584  0 */\n      0x00\n        /* \"Dcoffer_flat.sol\":37587:37594  tokenId */\n      dup5\n        /* \"Dcoffer_flat.sol\":37596:37600  from */\n      dup8\n        /* \"Dcoffer_flat.sol\":37566:37574  _approve */\n      tag_106\n        /* \"Dcoffer_flat.sol\":37566:37601  _approve(address(0), tokenId, from) */\n      jump\t// in\n    tag_174:\n        /* \"Dcoffer_flat.sol\":37927:37928  1 */\n      0x01\n        /* \"Dcoffer_flat.sol\":37897:37909  _addressData */\n      0x05\n        /* \"Dcoffer_flat.sol\":37897:37915  _addressData[from] */\n      0x00\n        /* \"Dcoffer_flat.sol\":37910:37914  from */\n      dup8\n        /* \"Dcoffer_flat.sol\":37897:37915  _addressData[from] */\n      0xffffffffffffffffffffffffffffffffffffffff\n      and\n      0xffffffffffffffffffffffffffffffffffffffff\n      and\n      dup2\n      mstore\n      0x20\n      add\n      swap1\n      dup2\n      mstore\n      0x20\n      add\n      0x00\n      keccak256\n        /* \"Dcoffer_flat.sol\":37897:37923  _addressData[from].balance */\n      0x00\n      add\n      0x00\n        /* \"Dcoffer_flat.sol\":37897:37928  _addressData[from].balance -= 1 */\n      dup3\n      dup3\n      dup3\n      swap1\n      sload\n      swap1\n      0x0100\n      exp\n      swap1\n      div\n      0xffffffffffffffff\n      and\n      sub\n      swap3\n      pop\n      0x0100\n      exp\n      dup2\n      sload\n      dup2\n      0xffffffffffffffff\n      mul\n      not\n      and\n      swap1\n      dup4\n      0xffffffffffffffff\n      and\n      mul\n      or\n      swap1\n      sstore\n      pop\n        /* \"Dcoffer_flat.sol\":37971:37972  1 */\n      0x01\n        /* \"Dcoffer_flat.sol\":37943:37955  _addressData */\n      0x05\n        /* \"Dcoffer_flat.sol\":37943:37959  _addressData[to] */\n      0x00\n        /* \"Dcoffer_flat.sol\":37956:37958  to */\n      dup7\n        /* \"Dcoffer_flat.sol\":37943:37959  _addressData[to] */\n      0xffffffffffffffffffffffffffffffffffffffff\n      and\n      0xffffffffffffffffffffffffffffffffffffffff\n      and\n      dup2\n      mstore\n      0x20\n      add\n      swap1\n      dup2\n      mstore\n      0x20\n      add\n      0x00\n      keccak256\n        /* \"Dcoffer_flat.sol\":37943:37967  _addressData[to].balance */\n      0x00\n      add\n      0x00\n        /* \"Dcoffer_flat.sol\":37943:37972  _addressData[to].balance += 1 */\n      dup3\n      dup3\n      dup3\n      swap1\n      sload\n      swap1\n      0x0100\n      exp\n      swap1\n      div\n      0xffffffffffffffff\n      and\n      add\n      swap3\n      pop\n      0x0100\n      exp\n      dup2\n      sload\n      dup2\n      0xffffffffffffffff\n      mul\n      not\n      and\n      swap1\n      dup4\n      0xffffffffffffffff\n      and\n      mul\n      or\n      swap1\n      sstore\n      pop\n        /* \"Dcoffer_flat.sol\":37989:38020  TokenOwnership storage currSlot */\n      0x00\n        /* \"Dcoffer_flat.sol\":38023:38034  _ownerships */\n      0x04\n        /* \"Dcoffer_flat.sol\":38023:38043  _ownerships[tokenId] */\n      0x00\n        /* \"Dcoffer_flat.sol\":38035:38042  tokenId */\n      dup6\n        /* \"Dcoffer_flat.sol\":38023:38043  _ownerships[tokenId] */\n      dup2\n      mstore\n      0x20\n      add\n      swap1\n      dup2\n      mstore\n      0x20\n      add\n      0x00\n      keccak256\n        /* \"Dcoffer_flat.sol\":37989:38043  TokenOwnership storage currSlot = _ownerships[tokenId] */\n      swap1\n      pop\n        /* \"Dcoffer_flat.sol\":38074:38076  to */\n      dup5\n        /* \"Dcoffer_flat.sol\":38058:38066  currSlot */\n      dup2\n        /* \"Dcoffer_flat.sol\":38058:38071  currSlot.addr */\n      0x00\n      add\n      0x00\n        /* \"Dcoffer_flat.sol\":38058:38076  currSlot.addr = to */\n      0x0100\n      exp\n      dup2\n      sload\n      dup2\n      0xffffffffffffffffffffffffffffffffffffffff\n      mul\n      not\n      and\n      swap1\n      dup4\n      0xffffffffffffffffffffffffffffffffffffffff\n      and\n      mul\n      or\n      swap1\n      sstore\n      pop\n        /* \"Dcoffer_flat.sol\":38124:38139  block.timestamp */\n      timestamp\n        /* \"Dcoffer_flat.sol\":38091:38099  currSlot */\n      dup2\n        /* \"Dcoffer_flat.sol\":38091:38114  currSlot.startTimestamp */\n      0x00\n      add\n      0x14\n        /* \"Dcoffer_flat.sol\":38091:38140  currSlot.startTimestamp = uint64(block.timestamp) */\n      0x0100\n      exp\n      dup2\n      sload\n      dup2\n      0xffffffffffffffff\n      mul\n      not\n      and\n      swap1\n      dup4\n      0xffffffffffffffff\n      and\n      mul\n      or\n      swap1\n      sstore\n      pop\n        /* \"Dcoffer_flat.sol\":38392:38411  uint256 nextTokenId */\n      0x00\n        /* \"Dcoffer_flat.sol\":38424:38425  1 */\n      0x01\n        /* \"Dcoffer_flat.sol\":38414:38421  tokenId */\n      dup6\n        /* \"Dcoffer_flat.sol\":38414:38425  tokenId + 1 */\n      add\n        /* \"Dcoffer_flat.sol\":38392:38425  uint256 nextTokenId = tokenId + 1 */\n      swap1\n      pop\n        /* \"Dcoffer_flat.sol\":38440:38471  TokenOwnership storage nextSlot */\n      0x00\n        /* \"Dcoffer_flat.sol\":38474:38485  _ownerships */\n      0x04\n        /* \"Dcoffer_flat.sol\":38474:38498  _ownerships[nextTokenId] */\n      0x00\n        /* \"Dcoffer_flat.sol\":38486:38497  nextTokenId */\n      dup4\n        /* \"Dcoffer_flat.sol\":38474:38498  _ownerships[nextTokenId] */\n      dup2\n      mstore\n      0x20\n      add\n      swap1\n      dup2\n      mstore\n      0x20\n      add\n      0x00\n      keccak256\n        /* \"Dcoffer_flat.sol\":38440:38498  TokenOwnership storage nextSlot = _ownerships[nextTokenId] */\n      swap1\n      pop\n        /* \"Dcoffer_flat.sol\":38542:38543  0 */\n      0x00\n        /* \"Dcoffer_flat.sol\":38517:38544  nextSlot.addr == address(0) */\n      0xffffffffffffffffffffffffffffffffffffffff\n      and\n        /* \"Dcoffer_flat.sol\":38517:38525  nextSlot */\n      dup2\n        /* \"Dcoffer_flat.sol\":38517:38530  nextSlot.addr */\n      0x00\n      add\n      0x00\n      swap1\n      sload\n      swap1\n      0x0100\n      exp\n      swap1\n      div\n      0xffffffffffffffffffffffffffffffffffffffff\n      and\n        /* \"Dcoffer_flat.sol\":38517:38544  nextSlot.addr == address(0) */\n      0xffffffffffffffffffffffffffffffffffffffff\n      and\n      sub\n        /* \"Dcoffer_flat.sol\":38513:38897  if (nextSlot.addr == address(0)) {... */\n      tag_175\n      jumpi\n        /* \"Dcoffer_flat.sol\":38727:38740  _currentIndex */\n      sload(0x00)\n        /* \"Dcoffer_flat.sol\":38712:38723  nextTokenId */\n      dup3\n        /* \"Dcoffer_flat.sol\":38712:38740  nextTokenId != _currentIndex */\n      eq\n        /* \"Dcoffer_flat.sol\":38708:38882  if (nextTokenId != _currentIndex) {... */\n      tag_176\n      jumpi\n        /* \"Dcoffer_flat.sol\":38781:38785  from */\n      dup8\n        /* \"Dcoffer_flat.sol\":38765:38773  nextSlot */\n      dup2\n        /* \"Dcoffer_flat.sol\":38765:38778  nextSlot.addr */\n      0x00\n      add\n      0x00\n        /* \"Dcoffer_flat.sol\":38765:38785  nextSlot.addr = from */\n      0x0100\n      exp\n      dup2\n      sload\n      dup2\n      0xffffffffffffffffffffffffffffffffffffffff\n      mul\n      not\n      and\n      swap1\n      dup4\n      0xffffffffffffffffffffffffffffffffffffffff\n      and\n      mul\n      or\n      swap1\n      sstore\n      pop\n        /* \"Dcoffer_flat.sol\":38834:38847  prevOwnership */\n      dup5\n        /* \"Dcoffer_flat.sol\":38834:38862  prevOwnership.startTimestamp */\n      0x20\n      add\n      mload\n        /* \"Dcoffer_flat.sol\":38808:38816  nextSlot */\n      dup2\n        /* \"Dcoffer_flat.sol\":38808:38831  nextSlot.startTimestamp */\n      0x00\n      add\n      0x14\n        /* \"Dcoffer_flat.sol\":38808:38862  nextSlot.startTimestamp = prevOwnership.startTimestamp */\n      0x0100\n      exp\n      dup2\n      sload\n      dup2\n      0xffffffffffffffff\n      mul\n      not\n      and\n      swap1\n      dup4\n      0xffffffffffffffff\n      and\n      mul\n      or\n      swap1\n      sstore\n      pop\n        /* \"Dcoffer_flat.sol\":38708:38882  if (nextTokenId != _currentIndex) {... */\n    tag_176:\n        /* \"Dcoffer_flat.sol\":38513:38897  if (nextSlot.addr == address(0)) {... */\n    tag_175:\n        /* \"Dcoffer_flat.sol\":37872:38908  unchecked {... */\n      pop\n      pop\n      pop\n        /* \"Dcoffer_flat.sol\":38944:38951  tokenId */\n      dup3\n        /* \"Dcoffer_flat.sol\":38940:38942  to */\n      dup5\n        /* \"Dcoffer_flat.sol\":38925:38952  Transfer(from, to, tokenId) */\n      0xffffffffffffffffffffffffffffffffffffffff\n      and\n        /* \"Dcoffer_flat.sol\":38934:38938  from */\n      dup7\n        /* \"Dcoffer_flat.sol\":38925:38952  Transfer(from, to, tokenId) */\n      0xffffffffffffffffffffffffffffffffffffffff\n      and\n      0xddf252ad1be2c89b69c2b068fc378daa952ba7f163c4a11628f55a4df523b3ef\n      mload(0x40)\n      mload(0x40)\n      dup1\n      swap2\n      sub\n      swap1\n      log4\n        /* \"Dcoffer_flat.sol\":38963:39005  _afterTokenTransfers(from, to, tokenId, 1) */\n      tag_177\n        /* \"Dcoffer_flat.sol\":38984:38988  from */\n      dup6\n        /* \"Dcoffer_flat.sol\":38990:38992  to */\n      dup6\n        /* \"Dcoffer_flat.sol\":38994:39001  tokenId */\n      dup6\n        /* \"Dcoffer_flat.sol\":39003:39004  1 */\n      0x01\n        /* \"Dcoffer_flat.sol\":38963:38983  _afterTokenTransfers */\n      tag_178\n        /* \"Dcoffer_flat.sol\":38963:39005  _afterTokenTransfers(from, to, tokenId, 1) */\n      jump\t// in\n    tag_177:\n        /* \"Dcoffer_flat.sol\":36987:39013  {... */\n      pop\n      pop\n        /* \"Dcoffer_flat.sol\":36883:39013  function _transfer(... */\n      pop\n      pop\n      pop\n      jump\t// out\n        /* \"Dcoffer_flat.sol\":27776:28887  function _ownershipOf(uint256 tokenId) internal view returns (TokenOwnership memory) {... */\n    tag_117:\n        /* \"Dcoffer_flat.sol\":27838:27859  TokenOwnership memory */\n      tag_179\n      tag_180\n      jump\t// in\n    tag_179:\n        /* \"Dcoffer_flat.sol\":27872:27884  uint256 curr */\n      0x00\n        /* \"Dcoffer_flat.sol\":27887:27894  tokenId */\n      dup3\n        /* \"Dcoffer_flat.sol\":27872:27894  uint256 curr = tokenId */\n      swap1\n      pop\n        /* \"Dcoffer_flat.sol\":27955:27959  curr */\n      dup1\n        /* \"Dcoffer_flat.sol\":27936:27951  _startTokenId() */\n      tag_182\n        /* \"Dcoffer_flat.sol\":27936:27949  _startTokenId */\n      tag_109\n        /* \"Dcoffer_flat.sol\":27936:27951  _startTokenId() */\n      jump\t// in\n    tag_182:\n        /* \"Dcoffer_flat.sol\":27936:27959  _startTokenId() <= curr */\n      gt\n        /* \"Dcoffer_flat.sol\":27932:28820  if (_startTokenId() <= curr) if (curr < _currentIndex) {... */\n      tag_183\n      jumpi\n        /* \"Dcoffer_flat.sol\":27972:27985  _currentIndex */\n      sload(0x00)\n        /* \"Dcoffer_flat.sol\":27965:27969  curr */\n      dup2\n        /* \"Dcoffer_flat.sol\":27965:27985  curr < _currentIndex */\n      lt\n        /* \"Dcoffer_flat.sol\":27961:28820  if (curr < _currentIndex) {... */\n      iszero\n      tag_184\n      jumpi\n        /* \"Dcoffer_flat.sol\":28006:28037  TokenOwnership memory ownership */\n      0x00\n        /* \"Dcoffer_flat.sol\":28040:28051  _ownerships */\n      0x04\n        /* \"Dcoffer_flat.sol\":28040:28057  _ownerships[curr] */\n      0x00\n        /* \"Dcoffer_flat.sol\":28052:28056  curr */\n      dup4\n        /* \"Dcoffer_flat.sol\":28040:28057  _ownerships[curr] */\n      dup2\n      mstore\n      0x20\n      add\n      swap1\n      dup2\n      mstore\n      0x20\n      add\n      0x00\n      keccak256\n        /* \"Dcoffer_flat.sol\":28006:28057  TokenOwnership memory ownership = _ownerships[curr] */\n      mload(0x40)\n      dup1\n      0x60\n      add\n      0x40\n      mstore\n      swap1\n      dup2\n      0x00\n      dup3\n      add\n      0x00\n      swap1\n      sload\n      swap1\n      0x0100\n      exp\n      swap1\n      div\n      0xffffffffffffffffffffffffffffffffffffffff\n      and\n      0xffffffffffffffffffffffffffffffffffffffff\n      and\n      0xffffffffffffffffffffffffffffffffffffffff\n      and\n      dup2\n      mstore\n      0x20\n      add\n      0x00\n      dup3\n      add\n      0x14\n      swap1\n      sload\n      swap1\n      0x0100\n      exp\n      swap1\n      div\n      0xffffffffffffffff\n      and\n      0xffffffffffffffff\n      and\n      0xffffffffffffffff\n      and\n      dup2\n      mstore\n      0x20\n      add\n      0x00\n      dup3\n      add\n      0x1c\n      swap1\n      sload\n      swap1\n      0x0100\n      exp\n      swap1\n      div\n      0xff\n      and\n      iszero\n      iszero\n      iszero\n      iszero\n      dup2\n      mstore\n      pop\n      pop\n      swap1\n      pop\n        /* \"Dcoffer_flat.sol\":28081:28090  ownership */\n      dup1\n        /* \"Dcoffer_flat.sol\":28081:28097  ownership.burned */\n      0x40\n      add\n      mload\n        /* \"Dcoffer_flat.sol\":28076:28805  if (!ownership.burned) {... */\n      tag_185\n      jumpi\n        /* \"Dcoffer_flat.sol\":28152:28153  0 */\n      0x00\n        /* \"Dcoffer_flat.sol\":28126:28154  ownership.addr != address(0) */\n      0xffffffffffffffffffffffffffffffffffffffff\n      and\n        /* \"Dcoffer_flat.sol\":28126:28135  ownership */\n      dup2\n        /* \"Dcoffer_flat.sol\":28126:28140  ownership.addr */\n      0x00\n      add\n      mload\n        /* \"Dcoffer_flat.sol\":28126:28154  ownership.addr != address(0) */\n      0xffffffffffffffffffffffffffffffffffffffff\n      and\n      eq\n        /* \"Dcoffer_flat.sol\":28122:28223  if (ownership.addr != address(0)) {... */\n      tag_186\n      jumpi\n        /* \"Dcoffer_flat.sol\":28190:28199  ownership */\n      dup1\n        /* \"Dcoffer_flat.sol\":28183:28199  return ownership */\n      swap3\n      pop\n      pop\n      pop\n      jump(tag_181)\n        /* \"Dcoffer_flat.sol\":28122:28223  if (ownership.addr != address(0)) {... */\n    tag_186:\n        /* \"Dcoffer_flat.sol\":28525:28786  while (true) {... */\n    tag_187:\n        /* \"Dcoffer_flat.sol\":28532:28536  true */\n      0x01\n        /* \"Dcoffer_flat.sol\":28525:28786  while (true) {... */\n      iszero\n      tag_188\n      jumpi\n        /* \"Dcoffer_flat.sol\":28565:28571  curr-- */\n      dup2\n      dup1\n      0x01\n      swap1\n      sub\n      swap3\n      pop\n      pop\n        /* \"Dcoffer_flat.sol\":28610:28621  _ownerships */\n      0x04\n        /* \"Dcoffer_flat.sol\":28610:28627  _ownerships[curr] */\n      0x00\n        /* \"Dcoffer_flat.sol\":28622:28626  curr */\n      dup4\n        /* \"Dcoffer_flat.sol\":28610:28627  _ownerships[curr] */\n      dup2\n      mstore\n      0x20\n      add\n      swap1\n      dup2\n      mstore\n      0x20\n      add\n      0x00\n      keccak256\n        /* \"Dcoffer_flat.sol\":28598:28627  ownership = _ownerships[curr] */\n      mload(0x40)\n      dup1\n      0x60\n      add\n      0x40\n      mstore\n      swap1\n      dup2\n      0x00\n      dup3\n      add\n      0x00\n      swap1\n      sload\n      swap1\n      0x0100\n      exp\n      swap1\n      div\n      0xffffffffffffffffffffffffffffffffffffffff\n      and\n      0xffffffffffffffffffffffffffffffffffffffff\n      and\n      0xffffffffffffffffffffffffffffffffffffffff\n      and\n      dup2\n      mstore\n      0x20\n      add\n      0x00\n      dup3\n      add\n      0x14\n      swap1\n      sload\n      swap1\n      0x0100\n      exp\n      swap1\n      div\n      0xffffffffffffffff\n      and\n      0xffffffffffffffff\n      and\n      0xffffffffffffffff\n      and\n      dup2\n      mstore\n      0x20\n      add\n      0x00\n      dup3\n      add\n      0x1c\n      swap1\n      sload\n      swap1\n      0x0100\n      exp\n      swap1\n      div\n      0xff\n      and\n      iszero\n      iszero\n      iszero\n      iszero\n      dup2\n      mstore\n      pop\n      pop\n      swap1\n      pop\n        /* \"Dcoffer_flat.sol\":28684:28685  0 */\n      0x00\n        /* \"Dcoffer_flat.sol\":28658:28686  ownership.addr != address(0) */\n      0xffffffffffffffffffffffffffffffffffffffff\n      and\n        /* \"Dcoffer_flat.sol\":28658:28667  ownership */\n      dup2\n        /* \"Dcoffer_flat.sol\":28658:28672  ownership.addr */\n      0x00\n      add\n      mload\n        /* \"Dcoffer_flat.sol\":28658:28686  ownership.addr != address(0) */\n      0xffffffffffffffffffffffffffffffffffffffff\n      and\n      eq\n        /* \"Dcoffer_flat.sol\":28654:28763  if (ownership.addr != address(0)) {... */\n      tag_189\n      jumpi\n        /* \"Dcoffer_flat.sol\":28726:28735  ownership */\n      dup1\n        /* \"Dcoffer_flat.sol\":28719:28735  return ownership */\n      swap3\n      pop\n      pop\n      pop\n      jump(tag_181)\n        /* \"Dcoffer_flat.sol\":28654:28763  if (ownership.addr != address(0)) {... */\n    tag_189:\n        /* \"Dcoffer_flat.sol\":28525:28786  while (true) {... */\n      jump(tag_187)\n    tag_188:\n        /* \"Dcoffer_flat.sol\":28076:28805  if (!ownership.burned) {... */\n    tag_185:\n        /* \"Dcoffer_flat.sol\":27987:28820  {... */\n      pop\n        /* \"Dcoffer_flat.sol\":27961:28820  if (curr < _currentIndex) {... */\n    tag_184:\n        /* \"Dcoffer_flat.sol\":27932:28820  if (_startTokenId() <= curr) if (curr < _currentIndex) {... */\n    tag_183:\n        /* \"Dcoffer_flat.sol\":28848:28879  OwnerQueryForNonexistentToken() */\n      mload(0x40)\n      0xdf2d9b4200000000000000000000000000000000000000000000000000000000\n      dup2\n      mstore\n      0x04\n      add\n      mload(0x40)\n      dup1\n      swap2\n      sub\n      swap1\n      revert\n        /* \"Dcoffer_flat.sol\":27776:28887  function _ownershipOf(uint256 tokenId) internal view returns (TokenOwnership memory) {... */\n    tag_181:\n      swap2\n      swap1\n      pop\n      jump\t// out\n        /* \"Dcoffer_flat.sol\":4283:4609  function isContract(address account) internal view returns (bool) {... */\n    tag_135:\n        /* \"Dcoffer_flat.sol\":4343:4347  bool */\n      0x00\n        /* \"Dcoffer_flat.sol\":4600:4601  0 */\n      dup1\n        /* \"Dcoffer_flat.sol\":4578:4585  account */\n      dup3\n        /* \"Dcoffer_flat.sol\":4578:4597  account.code.length */\n      0xffffffffffffffffffffffffffffffffffffffff\n      and\n      extcodesize\n        /* \"Dcoffer_flat.sol\":4578:4601  account.code.length > 0 */\n      gt\n        /* \"Dcoffer_flat.sol\":4571:4601  return account.code.length > 0 */\n      swap1\n      pop\n        /* \"Dcoffer_flat.sol\":4283:4609  function isContract(address account) internal view returns (bool) {... */\n      swap2\n      swap1\n      pop\n      jump\t// out\n        /* \"Dcoffer_flat.sol\":42623:43290  function _checkContractOnERC721Received(... */\n    tag_138:\n        /* \"Dcoffer_flat.sol\":42786:42790  bool */\n      0x00\n        /* \"Dcoffer_flat.sol\":42823:42825  to */\n      dup4\n        /* \"Dcoffer_flat.sol\":42807:42843  IERC721Receiver(to).onERC721Received */\n      0xffffffffffffffffffffffffffffffffffffffff\n      and\n      0x150b7a02\n        /* \"Dcoffer_flat.sol\":42844:42856  _msgSender() */\n      tag_192\n        /* \"Dcoffer_flat.sol\":42844:42854  _msgSender */\n      tag_100\n        /* \"Dcoffer_flat.sol\":42844:42856  _msgSender() */\n      jump\t// in\n    tag_192:\n        /* \"Dcoffer_flat.sol\":42858:42862  from */\n      dup8\n        /* \"Dcoffer_flat.sol\":42864:42871  tokenId */\n      dup7\n        /* \"Dcoffer_flat.sol\":42873:42878  _data */\n      dup7\n        /* \"Dcoffer_flat.sol\":42807:42879  IERC721Receiver(to).onERC721Received(_msgSender(), from, tokenId, _data) */\n      mload(0x40)\n      dup6\n      0xffffffff\n      and\n      0xe0\n      shl\n      dup2\n      mstore\n      0x04\n      add\n      tag_193\n      swap5\n      swap4\n      swap3\n      swap2\n      swap1\n      tag_194\n      jump\t// in\n    tag_193:\n      0x20\n      mload(0x40)\n      dup1\n      dup4\n      sub\n      dup2\n      0x00\n      dup8\n      gas\n      call\n      swap3\n      pop\n      pop\n      pop\n      dup1\n      iszero\n      tag_195\n      jumpi\n      pop\n      mload(0x40)\n      returndatasize\n      not(0x1f)\n      0x1f\n      dup3\n      add\n      and\n      dup3\n      add\n      dup1\n      0x40\n      mstore\n      pop\n      dup2\n      add\n      swap1\n      tag_196\n      swap2\n      swap1\n      tag_197\n      jump\t// in\n    tag_196:\n      0x01\n    tag_195:\n        /* \"Dcoffer_flat.sol\":42803:43283  try IERC721Receiver(to).onERC721Received(_msgSender(), from, tokenId, _data) returns (bytes4 retval) {... */\n      tag_198\n      jumpi\n      returndatasize\n      dup1\n      0x00\n      dup2\n      eq\n      tag_203\n      jumpi\n      mload(0x40)\n      swap2\n      pop\n      and(add(returndatasize, 0x3f), not(0x1f))\n      dup3\n      add\n      0x40\n      mstore\n      returndatasize\n      dup3\n      mstore\n      returndatasize\n      0x00\n      0x20\n      dup5\n      add\n      returndatacopy\n      jump(tag_202)\n    tag_203:\n      0x60\n      swap2\n      pop\n    tag_202:\n      pop\n        /* \"Dcoffer_flat.sol\":43058:43059  0 */\n      0x00\n        /* \"Dcoffer_flat.sol\":43041:43047  reason */\n      dup2\n        /* \"Dcoffer_flat.sol\":43041:43054  reason.length */\n      mload\n        /* \"Dcoffer_flat.sol\":43041:43059  reason.length == 0 */\n      sub\n        /* \"Dcoffer_flat.sol\":43037:43272  if (reason.length == 0) {... */\n      tag_204\n      jumpi\n        /* \"Dcoffer_flat.sol\":43087:43127  TransferToNonERC721ReceiverImplementer() */\n      mload(0x40)\n      0xd1a57ed600000000000000000000000000000000000000000000000000000000\n      dup2\n      mstore\n      0x04\n      add\n      mload(0x40)\n      dup1\n      swap2\n      sub\n      swap1\n      revert\n        /* \"Dcoffer_flat.sol\":43037:43272  if (reason.length == 0) {... */\n    tag_204:\n        /* \"Dcoffer_flat.sol\":43230:43236  reason */\n      dup1\n        /* \"Dcoffer_flat.sol\":43224:43237  mload(reason) */\n      mload\n        /* \"Dcoffer_flat.sol\":43215:43221  reason */\n      dup2\n        /* \"Dcoffer_flat.sol\":43211:43213  32 */\n      0x20\n        /* \"Dcoffer_flat.sol\":43207:43222  add(32, reason) */\n      add\n        /* \"Dcoffer_flat.sol\":43200:43238  revert(add(32, reason), mload(reason)) */\n      revert\n        /* \"Dcoffer_flat.sol\":42803:43283  try IERC721Receiver(to).onERC721Received(_msgSender(), from, tokenId, _data) returns (bytes4 retval) {... */\n    tag_198:\n        /* \"Dcoffer_flat.sol\":42936:42981  IERC721Receiver(to).onERC721Received.selector */\n      shl(0xe0, 0x150b7a02)\n        /* \"Dcoffer_flat.sol\":42926:42981  retval == IERC721Receiver(to).onERC721Received.selector */\n      not(0xffffffffffffffffffffffffffffffffffffffffffffffffffffffff)\n      and\n        /* \"Dcoffer_flat.sol\":42926:42932  retval */\n      dup2\n        /* \"Dcoffer_flat.sol\":42926:42981  retval == IERC721Receiver(to).onERC721Received.selector */\n      not(0xffffffffffffffffffffffffffffffffffffffffffffffffffffffff)\n      and\n      eq\n        /* \"Dcoffer_flat.sol\":42919:42981  return retval == IERC721Receiver(to).onERC721Received.selector */\n      swap2\n      pop\n      pop\n        /* \"Dcoffer_flat.sol\":42623:43290  function _checkContractOnERC721Received(... */\n      swap5\n      swap4\n      pop\n      pop\n      pop\n      pop\n      jump\t// out\n        /* \"Dcoffer_flat.sol\":30051:30226  function _baseURI() internal view virtual returns (string memory) {... */\n    tag_144:\n        /* \"Dcoffer_flat.sol\":30102:30115  string memory */\n      0x60\n        /* \"Dcoffer_flat.sol\":30128:30218  return 'https://gateway.pinata.cloud/ipfs/QmfHWktTbSTBNLww8ZDh2qc5DKqiZciknoq76ZfXrsoR1v/' */\n      mload(0x40)\n      dup1\n      0x80\n      add\n      0x40\n      mstore\n      dup1\n      0x51\n      dup2\n      mstore\n      0x20\n      add\n      data_d8bb5093925f17312ccd69c1ad4eefb61d29f5f451bdf501cef244662be1efab\n      0x51\n      swap2\n      codecopy\n      swap1\n      pop\n        /* \"Dcoffer_flat.sol\":30051:30226  function _baseURI() internal view virtual returns (string memory) {... */\n      swap1\n      jump\t// out\n        /* \"Dcoffer_flat.sol\":398:1121  function toString(uint256 value) internal pure returns (string memory) {... */\n    tag_148:\n        /* \"Dcoffer_flat.sol\":454:467  string memory */\n      0x60\n        /* \"Dcoffer_flat.sol\":684:685  0 */\n      0x00\n        /* \"Dcoffer_flat.sol\":675:680  value */\n      dup3\n        /* \"Dcoffer_flat.sol\":675:685  value == 0 */\n      sub\n        /* \"Dcoffer_flat.sol\":671:724  if (value == 0) {... */\n      tag_209\n      jumpi\n        /* \"Dcoffer_flat.sol\":702:712  return \"0\" */\n      mload(0x40)\n      dup1\n      0x40\n      add\n      0x40\n      mstore\n      dup1\n      0x01\n      dup2\n      mstore\n      0x20\n      add\n      0x3000000000000000000000000000000000000000000000000000000000000000\n      dup2\n      mstore\n      pop\n      swap1\n      pop\n      jump(tag_208)\n        /* \"Dcoffer_flat.sol\":671:724  if (value == 0) {... */\n    tag_209:\n        /* \"Dcoffer_flat.sol\":734:746  uint256 temp */\n      0x00\n        /* \"Dcoffer_flat.sol\":749:754  value */\n      dup3\n        /* \"Dcoffer_flat.sol\":734:754  uint256 temp = value */\n      swap1\n      pop\n        /* \"Dcoffer_flat.sol\":765:779  uint256 digits */\n      0x00\n        /* \"Dcoffer_flat.sol\":790:868  while (temp != 0) {... */\n    tag_210:\n        /* \"Dcoffer_flat.sol\":805:806  0 */\n      0x00\n        /* \"Dcoffer_flat.sol\":797:801  temp */\n      dup3\n        /* \"Dcoffer_flat.sol\":797:806  temp != 0 */\n      eq\n        /* \"Dcoffer_flat.sol\":790:868  while (temp != 0) {... */\n      tag_211\n      jumpi\n        /* \"Dcoffer_flat.sol\":823:831  digits++ */\n      dup1\n      dup1\n      tag_212\n      swap1\n      tag_213\n      jump\t// in\n    tag_212:\n      swap2\n      pop\n      pop\n        /* \"Dcoffer_flat.sol\":854:856  10 */\n      0x0a\n        /* \"Dcoffer_flat.sol\":846:856  temp /= 10 */\n      dup3\n      tag_214\n      swap2\n      swap1\n      tag_215\n      jump\t// in\n    tag_214:\n      swap2\n      pop\n        /* \"Dcoffer_flat.sol\":790:868  while (temp != 0) {... */\n      jump(tag_210)\n    tag_211:\n        /* \"Dcoffer_flat.sol\":878:897  bytes memory buffer */\n      0x00\n        /* \"Dcoffer_flat.sol\":910:916  digits */\n      dup2\n        /* \"Dcoffer_flat.sol\":900:917  new bytes(digits) */\n      0xffffffffffffffff\n      dup2\n      gt\n      iszero\n      tag_216\n      jumpi\n      tag_217\n      tag_218\n      jump\t// in\n    tag_217:\n    tag_216:\n      mload(0x40)\n      swap1\n      dup1\n      dup3\n      mstore\n      dup1\n      0x1f\n      add\n      not(0x1f)\n      and\n      0x20\n      add\n      dup3\n      add\n      0x40\n      mstore\n      dup1\n      iszero\n      tag_219\n      jumpi\n      dup2\n      0x20\n      add\n      0x01\n      dup3\n      mul\n      dup1\n      calldatasize\n      dup4\n      calldatacopy\n      dup1\n      dup3\n      add\n      swap2\n      pop\n      pop\n      swap1\n      pop\n    tag_219:\n      pop\n        /* \"Dcoffer_flat.sol\":878:917  bytes memory buffer = new bytes(digits) */\n      swap1\n      pop\n        /* \"Dcoffer_flat.sol\":928:1082  while (value != 0) {... */\n    tag_220:\n        /* \"Dcoffer_flat.sol\":944:945  0 */\n      0x00\n        /* \"Dcoffer_flat.sol\":935:940  value */\n      dup6\n        /* \"Dcoffer_flat.sol\":935:945  value != 0 */\n      eq\n        /* \"Dcoffer_flat.sol\":928:1082  while (value != 0) {... */\n      tag_221\n      jumpi\n        /* \"Dcoffer_flat.sol\":972:973  1 */\n      0x01\n        /* \"Dcoffer_flat.sol\":962:973  digits -= 1 */\n      dup3\n      tag_222\n      swap2\n      swap1\n      tag_223\n      jump\t// in\n    tag_222:\n      swap2\n      pop\n        /* \"Dcoffer_flat.sol\":1039:1041  10 */\n      0x0a\n        /* \"Dcoffer_flat.sol\":1031:1036  value */\n      dup6\n        /* \"Dcoffer_flat.sol\":1031:1041  value % 10 */\n      tag_224\n      swap2\n      swap1\n      tag_225\n      jump\t// in\n    tag_224:\n        /* \"Dcoffer_flat.sol\":1018:1020  48 */\n      0x30\n        /* \"Dcoffer_flat.sol\":1018:1042  48 + uint256(value % 10) */\n      tag_226\n      swap2\n      swap1\n      tag_227\n      jump\t// in\n    tag_226:\n        /* \"Dcoffer_flat.sol\":1005:1044  bytes1(uint8(48 + uint256(value % 10))) */\n      0xf8\n      shl\n        /* \"Dcoffer_flat.sol\":988:994  buffer */\n      dup2\n        /* \"Dcoffer_flat.sol\":995:1001  digits */\n      dup4\n        /* \"Dcoffer_flat.sol\":988:1002  buffer[digits] */\n      dup2\n      mload\n      dup2\n      lt\n      tag_228\n      jumpi\n      tag_229\n      tag_230\n      jump\t// in\n    tag_229:\n    tag_228:\n      0x20\n      add\n      add\n        /* \"Dcoffer_flat.sol\":988:1044  buffer[digits] = bytes1(uint8(48 + uint256(value % 10))) */\n      swap1\n      not(0xffffffffffffffffffffffffffffffffffffffffffffffffffffffffffffff)\n      and\n      swap1\n      dup2\n      0x00\n      byte\n      swap1\n      mstore8\n      pop\n        /* \"Dcoffer_flat.sol\":1068:1070  10 */\n      0x0a\n        /* \"Dcoffer_flat.sol\":1059:1070  value /= 10 */\n      dup6\n      tag_231\n      swap2\n      swap1\n      tag_215\n      jump\t// in\n    tag_231:\n      swap5\n      pop\n        /* \"Dcoffer_flat.sol\":928:1082  while (value != 0) {... */\n      jump(tag_220)\n    tag_221:\n        /* \"Dcoffer_flat.sol\":1106:1112  buffer */\n      dup1\n        /* \"Dcoffer_flat.sol\":1092:1113  return string(buffer) */\n      swap4\n      pop\n      pop\n      pop\n      pop\n        /* \"Dcoffer_flat.sol\":398:1121  function toString(uint256 value) internal pure returns (string memory) {... */\n    tag_208:\n      swap2\n      swap1\n      pop\n      jump\t// out\n        /* \"Dcoffer_flat.sol\":43938:44097  function _beforeTokenTransfers(... */\n    tag_173:\n      pop\n      pop\n      pop\n      pop\n      jump\t// out\n        /* \"Dcoffer_flat.sol\":44756:44914  function _afterTokenTransfers(... */\n    tag_178:\n      pop\n      pop\n      pop\n      pop\n      jump\t// out\n    tag_180:\n      mload(0x40)\n      dup1\n      0x60\n      add\n      0x40\n      mstore\n      dup1\n      and(0xffffffffffffffffffffffffffffffffffffffff, 0x00)\n      dup2\n      mstore\n      0x20\n      add\n      and(0xffffffffffffffff, 0x00)\n      dup2\n      mstore\n      0x20\n      add\n      iszero(iszero(0x00))\n      dup2\n      mstore\n      pop\n      swap1\n      jump\t// out\n        /* \"#utility.yul\":7:82   */\n    tag_234:\n        /* \"#utility.yul\":40:46   */\n      0x00\n        /* \"#utility.yul\":73:75   */\n      0x40\n        /* \"#utility.yul\":67:76   */\n      mload\n        /* \"#utility.yul\":57:76   */\n      swap1\n      pop\n        /* \"#utility.yul\":7:82   */\n      swap1\n      jump\t// out\n        /* \"#utility.yul\":88:205   */\n    tag_235:\n        /* \"#utility.yul\":197:198   */\n      0x00\n        /* \"#utility.yul\":194:195   */\n      dup1\n        /* \"#utility.yul\":187:199   */\n      revert\n        /* \"#utility.yul\":211:328   */\n    tag_236:\n        /* \"#utility.yul\":320:321   */\n      0x00\n        /* \"#utility.yul\":317:318   */\n      dup1\n        /* \"#utility.yul\":310:322   */\n      revert\n        /* \"#utility.yul\":334:483   */\n    tag_237:\n        /* \"#utility.yul\":370:377   */\n      0x00\n        /* \"#utility.yul\":410:476   */\n      0xffffffff00000000000000000000000000000000000000000000000000000000\n        /* \"#utility.yul\":403:408   */\n      dup3\n        /* \"#utility.yul\":399:477   */\n      and\n        /* \"#utility.yul\":388:477   */\n      swap1\n      pop\n        /* \"#utility.yul\":334:483   */\n      swap2\n      swap1\n      pop\n      jump\t// out\n        /* \"#utility.yul\":489:609   */\n    tag_238:\n        /* \"#utility.yul\":561:584   */\n      tag_281\n        /* \"#utility.yul\":578:583   */\n      dup2\n        /* \"#utility.yul\":561:584   */\n      tag_237\n      jump\t// in\n    tag_281:\n        /* \"#utility.yul\":554:559   */\n      dup2\n        /* \"#utility.yul\":551:585   */\n      eq\n        /* \"#utility.yul\":541:603   */\n      tag_282\n      jumpi\n        /* \"#utility.yul\":599:600   */\n      0x00\n        /* \"#utility.yul\":596:597   */\n      dup1\n        /* \"#utility.yul\":589:601   */\n      revert\n        /* \"#utility.yul\":541:603   */\n    tag_282:\n        /* \"#utility.yul\":489:609   */\n      pop\n      jump\t// out\n        /* \"#utility.yul\":615:752   */\n    tag_239:\n        /* \"#utility.yul\":660:665   */\n      0x00\n        /* \"#utility.yul\":698:704   */\n      dup2\n        /* \"#utility.yul\":685:705   */\n      calldataload\n        /* \"#utility.yul\":676:705   */\n      swap1\n      pop\n        /* \"#utility.yul\":714:746   */\n      tag_284\n        /* \"#utility.yul\":740:745   */\n      dup2\n        /* \"#utility.yul\":714:746   */\n      tag_238\n      jump\t// in\n    tag_284:\n        /* \"#utility.yul\":615:752   */\n      swap3\n      swap2\n      pop\n      pop\n      jump\t// out\n        /* \"#utility.yul\":758:1085   */\n    tag_22:\n        /* \"#utility.yul\":816:822   */\n      0x00\n        /* \"#utility.yul\":865:867   */\n      0x20\n        /* \"#utility.yul\":853:862   */\n      dup3\n        /* \"#utility.yul\":844:851   */\n      dup5\n        /* \"#utility.yul\":840:863   */\n      sub\n        /* \"#utility.yul\":836:868   */\n      slt\n        /* \"#utility.yul\":833:952   */\n      iszero\n      tag_286\n      jumpi\n        /* \"#utility.yul\":871:950   */\n      tag_287\n      tag_235\n      jump\t// in\n    tag_287:\n        /* \"#utility.yul\":833:952   */\n    tag_286:\n        /* \"#utility.yul\":991:992   */\n      0x00\n        /* \"#utility.yul\":1016:1068   */\n      tag_288\n        /* \"#utility.yul\":1060:1067   */\n      dup5\n        /* \"#utility.yul\":1051:1057   */\n      dup3\n        /* \"#utility.yul\":1040:1049   */\n      dup6\n        /* \"#utility.yul\":1036:1058   */\n      add\n        /* \"#utility.yul\":1016:1068   */\n      tag_239\n      jump\t// in\n    tag_288:\n        /* \"#utility.yul\":1006:1068   */\n      swap2\n      pop\n        /* \"#utility.yul\":962:1078   */\n      pop\n        /* \"#utility.yul\":758:1085   */\n      swap3\n      swap2\n      pop\n      pop\n      jump\t// out\n        /* \"#utility.yul\":1091:1181   */\n    tag_240:\n        /* \"#utility.yul\":1125:1132   */\n      0x00\n        /* \"#utility.yul\":1168:1173   */\n      dup2\n        /* \"#utility.yul\":1161:1174   */\n      iszero\n        /* \"#utility.yul\":1154:1175   */\n      iszero\n        /* \"#utility.yul\":1143:1175   */\n      swap1\n      pop\n        /* \"#utility.yul\":1091:1181   */\n      swap2\n      swap1\n      pop\n      jump\t// out\n        /* \"#utility.yul\":1187:1296   */\n    tag_241:\n        /* \"#utility.yul\":1268:1289   */\n      tag_291\n        /* \"#utility.yul\":1283:1288   */\n      dup2\n        /* \"#utility.yul\":1268:1289   */\n      tag_240\n      jump\t// in\n    tag_291:\n        /* \"#utility.yul\":1263:1266   */\n      dup3\n        /* \"#utility.yul\":1256:1290   */\n      mstore\n        /* \"#utility.yul\":1187:1296   */\n      pop\n      pop\n      jump\t// out\n        /* \"#utility.yul\":1302:1512   */\n    tag_25:\n        /* \"#utility.yul\":1389:1393   */\n      0x00\n        /* \"#utility.yul\":1427:1429   */\n      0x20\n        /* \"#utility.yul\":1416:1425   */\n      dup3\n        /* \"#utility.yul\":1412:1430   */\n      add\n        /* \"#utility.yul\":1404:1430   */\n      swap1\n      pop\n        /* \"#utility.yul\":1440:1505   */\n      tag_293\n        /* \"#utility.yul\":1502:1503   */\n      0x00\n        /* \"#utility.yul\":1491:1500   */\n      dup4\n        /* \"#utility.yul\":1487:1504   */\n      add\n        /* \"#utility.yul\":1478:1484   */\n      dup5\n        /* \"#utility.yul\":1440:1505   */\n      tag_241\n      jump\t// in\n    tag_293:\n        /* \"#utility.yul\":1302:1512   */\n      swap3\n      swap2\n      pop\n      pop\n      jump\t// out\n        /* \"#utility.yul\":1518:1617   */\n    tag_242:\n        /* \"#utility.yul\":1570:1576   */\n      0x00\n        /* \"#utility.yul\":1604:1609   */\n      dup2\n        /* \"#utility.yul\":1598:1610   */\n      mload\n        /* \"#utility.yul\":1588:1610   */\n      swap1\n      pop\n        /* \"#utility.yul\":1518:1617   */\n      swap2\n      swap1\n      pop\n      jump\t// out\n        /* \"#utility.yul\":1623:1792   */\n    tag_243:\n        /* \"#utility.yul\":1707:1718   */\n      0x00\n        /* \"#utility.yul\":1741:1747   */\n      dup3\n        /* \"#utility.yul\":1736:1739   */\n      dup3\n        /* \"#utility.yul\":1729:1748   */\n      mstore\n        /* \"#utility.yul\":1781:1785   */\n      0x20\n        /* \"#utility.yul\":1776:1779   */\n      dup3\n        /* \"#utility.yul\":1772:1786   */\n      add\n        /* \"#utility.yul\":1757:1786   */\n      swap1\n      pop\n        /* \"#utility.yul\":1623:1792   */\n      swap3\n      swap2\n      pop\n      pop\n      jump\t// out\n        /* \"#utility.yul\":1798:2105   */\n    tag_244:\n        /* \"#utility.yul\":1866:1867   */\n      0x00\n        /* \"#utility.yul\":1876:1989   */\n    tag_297:\n        /* \"#utility.yul\":1890:1896   */\n      dup4\n        /* \"#utility.yul\":1887:1888   */\n      dup2\n        /* \"#utility.yul\":1884:1897   */\n      lt\n        /* \"#utility.yul\":1876:1989   */\n      iszero\n      tag_299\n      jumpi\n        /* \"#utility.yul\":1975:1976   */\n      dup1\n        /* \"#utility.yul\":1970:1973   */\n      dup3\n        /* \"#utility.yul\":1966:1977   */\n      add\n        /* \"#utility.yul\":1960:1978   */\n      mload\n        /* \"#utility.yul\":1956:1957   */\n      dup2\n        /* \"#utility.yul\":1951:1954   */\n      dup5\n        /* \"#utility.yul\":1947:1958   */\n      add\n        /* \"#utility.yul\":1940:1979   */\n      mstore\n        /* \"#utility.yul\":1912:1914   */\n      0x20\n        /* \"#utility.yul\":1909:1910   */\n      dup2\n        /* \"#utility.yul\":1905:1915   */\n      add\n        /* \"#utility.yul\":1900:1915   */\n      swap1\n      pop\n        /* \"#utility.yul\":1876:1989   */\n      jump(tag_297)\n    tag_299:\n        /* \"#utility.yul\":2007:2013   */\n      dup4\n        /* \"#utility.yul\":2004:2005   */\n      dup2\n        /* \"#utility.yul\":2001:2014   */\n      gt\n        /* \"#utility.yul\":1998:2099   */\n      iszero\n      tag_300\n      jumpi\n        /* \"#utility.yul\":2087:2088   */\n      0x00\n        /* \"#utility.yul\":2078:2084   */\n      dup5\n        /* \"#utility.yul\":2073:2076   */\n      dup5\n        /* \"#utility.yul\":2069:2085   */\n      add\n        /* \"#utility.yul\":2062:2089   */\n      mstore\n        /* \"#utility.yul\":1998:2099   */\n    tag_300:\n        /* \"#utility.yul\":1847:2105   */\n      pop\n        /* \"#utility.yul\":1798:2105   */\n      pop\n      pop\n      pop\n      jump\t// out\n        /* \"#utility.yul\":2111:2213   */\n    tag_245:\n        /* \"#utility.yul\":2152:2158   */\n      0x00\n        /* \"#utility.yul\":2203:2205   */\n      0x1f\n        /* \"#utility.yul\":2199:2206   */\n      not\n        /* \"#utility.yul\":2194:2196   */\n      0x1f\n        /* \"#utility.yul\":2187:2192   */\n      dup4\n        /* \"#utility.yul\":2183:2197   */\n      add\n        /* \"#utility.yul\":2179:2207   */\n      and\n        /* \"#utility.yul\":2169:2207   */\n      swap1\n      pop\n        /* \"#utility.yul\":2111:2213   */\n      swap2\n      swap1\n      pop\n      jump\t// out\n        /* \"#utility.yul\":2219:2583   */\n    tag_246:\n        /* \"#utility.yul\":2307:2310   */\n      0x00\n        /* \"#utility.yul\":2335:2374   */\n      tag_303\n        /* \"#utility.yul\":2368:2373   */\n      dup3\n        /* \"#utility.yul\":2335:2374   */\n      tag_242\n      jump\t// in\n    tag_303:\n        /* \"#utility.yul\":2390:2461   */\n      tag_304\n        /* \"#utility.yul\":2454:2460   */\n      dup2\n        /* \"#utility.yul\":2449:2452   */\n      dup6\n        /* \"#utility.yul\":2390:2461   */\n      tag_243\n      jump\t// in\n    tag_304:\n        /* \"#utility.yul\":2383:2461   */\n      swap4\n      pop\n        /* \"#utility.yul\":2470:2522   */\n      tag_305\n        /* \"#utility.yul\":2515:2521   */\n      dup2\n        /* \"#utility.yul\":2510:2513   */\n      dup6\n        /* \"#utility.yul\":2503:2507   */\n      0x20\n        /* \"#utility.yul\":2496:2501   */\n      dup7\n        /* \"#utility.yul\":2492:2508   */\n      add\n        /* \"#utility.yul\":2470:2522   */\n      tag_244\n      jump\t// in\n    tag_305:\n        /* \"#utility.yul\":2547:2576   */\n      tag_306\n        /* \"#utility.yul\":2569:2575   */\n      dup2\n        /* \"#utility.yul\":2547:2576   */\n      tag_245\n      jump\t// in\n    tag_306:\n        /* \"#utility.yul\":2542:2545   */\n      dup5\n        /* \"#utility.yul\":2538:2577   */\n      add\n        /* \"#utility.yul\":2531:2577   */\n      swap2\n      pop\n        /* \"#utility.yul\":2311:2583   */\n      pop\n        /* \"#utility.yul\":2219:2583   */\n      swap3\n      swap2\n      pop\n      pop\n      jump\t// out\n        /* \"#utility.yul\":2589:2902   */\n    tag_29:\n        /* \"#utility.yul\":2702:2706   */\n      0x00\n        /* \"#utility.yul\":2740:2742   */\n      0x20\n        /* \"#utility.yul\":2729:2738   */\n      dup3\n        /* \"#utility.yul\":2725:2743   */\n      add\n        /* \"#utility.yul\":2717:2743   */\n      swap1\n      pop\n        /* \"#utility.yul\":2789:2798   */\n      dup2\n        /* \"#utility.yul\":2783:2787   */\n      dup2\n        /* \"#utility.yul\":2779:2799   */\n      sub\n        /* \"#utility.yul\":2775:2776   */\n      0x00\n        /* \"#utility.yul\":2764:2773   */\n      dup4\n        /* \"#utility.yul\":2760:2777   */\n      add\n        /* \"#utility.yul\":2753:2800   */\n      mstore\n        /* \"#utility.yul\":2817:2895   */\n      tag_308\n        /* \"#utility.yul\":2890:2894   */\n      dup2\n        /* \"#utility.yul\":2881:2887   */\n      dup5\n        /* \"#utility.yul\":2817:2895   */\n      tag_246\n      jump\t// in\n    tag_308:\n        /* \"#utility.yul\":2809:2895   */\n      swap1\n      pop\n        /* \"#utility.yul\":2589:2902   */\n      swap3\n      swap2\n      pop\n      pop\n      jump\t// out\n        /* \"#utility.yul\":2908:2985   */\n    tag_247:\n        /* \"#utility.yul\":2945:2952   */\n      0x00\n        /* \"#utility.yul\":2974:2979   */\n      dup2\n        /* \"#utility.yul\":2963:2979   */\n      swap1\n      pop\n        /* \"#utility.yul\":2908:2985   */\n      swap2\n      swap1\n      pop\n      jump\t// out\n        /* \"#utility.yul\":2991:3113   */\n    tag_248:\n        /* \"#utility.yul\":3064:3088   */\n      tag_311\n        /* \"#utility.yul\":3082:3087   */\n      dup2\n        /* \"#utility.yul\":3064:3088   */\n      tag_247\n      jump\t// in\n    tag_311:\n        /* \"#utility.yul\":3057:3062   */\n      dup2\n        /* \"#utility.yul\":3054:3089   */\n      eq\n        /* \"#utility.yul\":3044:3107   */\n      tag_312\n      jumpi\n        /* \"#utility.yul\":3103:3104   */\n      0x00\n        /* \"#utility.yul\":3100:3101   */\n      dup1\n        /* \"#utility.yul\":3093:3105   */\n      revert\n        /* \"#utility.yul\":3044:3107   */\n    tag_312:\n        /* \"#utility.yul\":2991:3113   */\n      pop\n      jump\t// out\n        /* \"#utility.yul\":3119:3258   */\n    tag_249:\n        /* \"#utility.yul\":3165:3170   */\n      0x00\n        /* \"#utility.yul\":3203:3209   */\n      dup2\n        /* \"#utility.yul\":3190:3210   */\n      calldataload\n        /* \"#utility.yul\":3181:3210   */\n      swap1\n      pop\n        /* \"#utility.yul\":3219:3252   */\n      tag_314\n        /* \"#utility.yul\":3246:3251   */\n      dup2\n        /* \"#utility.yul\":3219:3252   */\n      tag_248\n      jump\t// in\n    tag_314:\n        /* \"#utility.yul\":3119:3258   */\n      swap3\n      swap2\n      pop\n      pop\n      jump\t// out\n        /* \"#utility.yul\":3264:3593   */\n    tag_32:\n        /* \"#utility.yul\":3323:3329   */\n      0x00\n        /* \"#utility.yul\":3372:3374   */\n      0x20\n        /* \"#utility.yul\":3360:3369   */\n      dup3\n        /* \"#utility.yul\":3351:3358   */\n      dup5\n        /* \"#utility.yul\":3347:3370   */\n      sub\n        /* \"#utility.yul\":3343:3375   */\n      slt\n        /* \"#utility.yul\":3340:3459   */\n      iszero\n      tag_316\n      jumpi\n        /* \"#utility.yul\":3378:3457   */\n      tag_317\n      tag_235\n      jump\t// in\n    tag_317:\n        /* \"#utility.yul\":3340:3459   */\n    tag_316:\n        /* \"#utility.yul\":3498:3499   */\n      0x00\n        /* \"#utility.yul\":3523:3576   */\n      tag_318\n        /* \"#utility.yul\":3568:3575   */\n      dup5\n        /* \"#utility.yul\":3559:3565   */\n      dup3\n        /* \"#utility.yul\":3548:3557   */\n      dup6\n        /* \"#utility.yul\":3544:3566   */\n      add\n        /* \"#utility.yul\":3523:3576   */\n      tag_249\n      jump\t// in\n    tag_318:\n        /* \"#utility.yul\":3513:3576   */\n      swap2\n      pop\n        /* \"#utility.yul\":3469:3586   */\n      pop\n        /* \"#utility.yul\":3264:3593   */\n      swap3\n      swap2\n      pop\n      pop\n      jump\t// out\n        /* \"#utility.yul\":3599:3725   */\n    tag_250:\n        /* \"#utility.yul\":3636:3643   */\n      0x00\n        /* \"#utility.yul\":3676:3718   */\n      0xffffffffffffffffffffffffffffffffffffffff\n        /* \"#utility.yul\":3669:3674   */\n      dup3\n        /* \"#utility.yul\":3665:3719   */\n      and\n        /* \"#utility.yul\":3654:3719   */\n      swap1\n      pop\n        /* \"#utility.yul\":3599:3725   */\n      swap2\n      swap1\n      pop\n      jump\t// out\n        /* \"#utility.yul\":3731:3827   */\n    tag_251:\n        /* \"#utility.yul\":3768:3775   */\n      0x00\n        /* \"#utility.yul\":3797:3821   */\n      tag_321\n        /* \"#utility.yul\":3815:3820   */\n      dup3\n        /* \"#utility.yul\":3797:3821   */\n      tag_250\n      jump\t// in\n    tag_321:\n        /* \"#utility.yul\":3786:3821   */\n      swap1\n      pop\n        /* \"#utility.yul\":3731:3827   */\n      swap2\n      swap1\n      pop\n      jump\t// out\n        /* \"#utility.yul\":3833:3951   */\n    tag_252:\n        /* \"#utility.yul\":3920:3944   */\n      tag_323\n        /* \"#utility.yul\":3938:3943   */\n      dup2\n        /* \"#utility.yul\":3920:3944   */\n      tag_251\n      jump\t// in\n    tag_323:\n        /* \"#utility.yul\":3915:3918   */\n      dup3\n        /* \"#utility.yul\":3908:3945   */\n      mstore\n        /* \"#utility.yul\":3833:3951   */\n      pop\n      pop\n      jump\t// out\n        /* \"#utility.yul\":3957:4179   */\n    tag_35:\n        /* \"#utility.yul\":4050:4054   */\n      0x00\n        /* \"#utility.yul\":4088:4090   */\n      0x20\n        /* \"#utility.yul\":4077:4086   */\n      dup3\n        /* \"#utility.yul\":4073:4091   */\n      add\n        /* \"#utility.yul\":4065:4091   */\n      swap1\n      pop\n        /* \"#utility.yul\":4101:4172   */\n      tag_325\n        /* \"#utility.yul\":4169:4170   */\n      0x00\n        /* \"#utility.yul\":4158:4167   */\n      dup4\n        /* \"#utility.yul\":4154:4171   */\n      add\n        /* \"#utility.yul\":4145:4151   */\n      dup5\n        /* \"#utility.yul\":4101:4172   */\n      tag_252\n      jump\t// in\n    tag_325:\n        /* \"#utility.yul\":3957:4179   */\n      swap3\n      swap2\n      pop\n      pop\n      jump\t// out\n        /* \"#utility.yul\":4185:4307   */\n    tag_253:\n        /* \"#utility.yul\":4258:4282   */\n      tag_327\n        /* \"#utility.yul\":4276:4281   */\n      dup2\n        /* \"#utility.yul\":4258:4282   */\n      tag_251\n      jump\t// in\n    tag_327:\n        /* \"#utility.yul\":4251:4256   */\n      dup2\n        /* \"#utility.yul\":4248:4283   */\n      eq\n        /* \"#utility.yul\":4238:4301   */\n      tag_328\n      jumpi\n        /* \"#utility.yul\":4297:4298   */\n      0x00\n        /* \"#utility.yul\":4294:4295   */\n      dup1\n        /* \"#utility.yul\":4287:4299   */\n      revert\n        /* \"#utility.yul\":4238:4301   */\n    tag_328:\n        /* \"#utility.yul\":4185:4307   */\n      pop\n      jump\t// out\n        /* \"#utility.yul\":4313:4452   */\n    tag_254:\n        /* \"#utility.yul\":4359:4364   */\n      0x00\n        /* \"#utility.yul\":4397:4403   */\n      dup2\n        /* \"#utility.yul\":4384:4404   */\n      calldataload\n        /* \"#utility.yul\":4375:4404   */\n      swap1\n      pop\n        /* \"#utility.yul\":4413:4446   */\n      tag_330\n        /* \"#utility.yul\":4440:4445   */\n      dup2\n        /* \"#utility.yul\":4413:4446   */\n      tag_253\n      jump\t// in\n    tag_330:\n        /* \"#utility.yul\":4313:4452   */\n      swap3\n      swap2\n      pop\n      pop\n      jump\t// out\n        /* \"#utility.yul\":4458:4932   */\n    tag_38:\n        /* \"#utility.yul\":4526:4532   */\n      0x00\n        /* \"#utility.yul\":4534:4540   */\n      dup1\n        /* \"#utility.yul\":4583:4585   */\n      0x40\n        /* \"#utility.yul\":4571:4580   */\n      dup4\n        /* \"#utility.yul\":4562:4569   */\n      dup6\n        /* \"#utility.yul\":4558:4581   */\n      sub\n        /* \"#utility.yul\":4554:4586   */\n      slt\n        /* \"#utility.yul\":4551:4670   */\n      iszero\n      tag_332\n      jumpi\n        /* \"#utility.yul\":4589:4668   */\n      tag_333\n      tag_235\n      jump\t// in\n    tag_333:\n        /* \"#utility.yul\":4551:4670   */\n    tag_332:\n        /* \"#utility.yul\":4709:4710   */\n      0x00\n        /* \"#utility.yul\":4734:4787   */\n      tag_334\n        /* \"#utility.yul\":4779:4786   */\n      dup6\n        /* \"#utility.yul\":4770:4776   */\n      dup3\n        /* \"#utility.yul\":4759:4768   */\n      dup7\n        /* \"#utility.yul\":4755:4777   */\n      add\n        /* \"#utility.yul\":4734:4787   */\n      tag_254\n      jump\t// in\n    tag_334:\n        /* \"#utility.yul\":4724:4787   */\n      swap3\n      pop\n        /* \"#utility.yul\":4680:4797   */\n      pop\n        /* \"#utility.yul\":4836:4838   */\n      0x20\n        /* \"#utility.yul\":4862:4915   */\n      tag_335\n        /* \"#utility.yul\":4907:4914   */\n      dup6\n        /* \"#utility.yul\":4898:4904   */\n      dup3\n        /* \"#utility.yul\":4887:4896   */\n      dup7\n        /* \"#utility.yul\":4883:4905   */\n      add\n        /* \"#utility.yul\":4862:4915   */\n      tag_249\n      jump\t// in\n    tag_335:\n        /* \"#utility.yul\":4852:4915   */\n      swap2\n      pop\n        /* \"#utility.yul\":4807:4925   */\n      pop\n        /* \"#utility.yul\":4458:4932   */\n      swap3\n      pop\n      swap3\n      swap1\n      pop\n      jump\t// out\n        /* \"#utility.yul\":4938:5056   */\n    tag_255:\n        /* \"#utility.yul\":5025:5049   */\n      tag_337\n        /* \"#utility.yul\":5043:5048   */\n      dup2\n        /* \"#utility.yul\":5025:5049   */\n      tag_247\n      jump\t// in\n    tag_337:\n        /* \"#utility.yul\":5020:5023   */\n      dup3\n        /* \"#utility.yul\":5013:5050   */\n      mstore\n        /* \"#utility.yul\":4938:5056   */\n      pop\n      pop\n      jump\t// out\n        /* \"#utility.yul\":5062:5284   */\n    tag_43:\n        /* \"#utility.yul\":5155:5159   */\n      0x00\n        /* \"#utility.yul\":5193:5195   */\n      0x20\n        /* \"#utility.yul\":5182:5191   */\n      dup3\n        /* \"#utility.yul\":5178:5196   */\n      add\n        /* \"#utility.yul\":5170:5196   */\n      swap1\n      pop\n        /* \"#utility.yul\":5206:5277   */\n      tag_339\n        /* \"#utility.yul\":5274:5275   */\n      0x00\n        /* \"#utility.yul\":5263:5272   */\n      dup4\n        /* \"#utility.yul\":5259:5276   */\n      add\n        /* \"#utility.yul\":5250:5256   */\n      dup5\n        /* \"#utility.yul\":5206:5277   */\n      tag_255\n      jump\t// in\n    tag_339:\n        /* \"#utility.yul\":5062:5284   */\n      swap3\n      swap2\n      pop\n      pop\n      jump\t// out\n        /* \"#utility.yul\":5290:5909   */\n    tag_46:\n        /* \"#utility.yul\":5367:5373   */\n      0x00\n        /* \"#utility.yul\":5375:5381   */\n      dup1\n        /* \"#utility.yul\":5383:5389   */\n      0x00\n        /* \"#utility.yul\":5432:5434   */\n      0x60\n        /* \"#utility.yul\":5420:5429   */\n      dup5\n        /* \"#utility.yul\":5411:5418   */\n      dup7\n        /* \"#utility.yul\":5407:5430   */\n      sub\n        /* \"#utility.yul\":5403:5435   */\n      slt\n        /* \"#utility.yul\":5400:5519   */\n      iszero\n      tag_341\n      jumpi\n        /* \"#utility.yul\":5438:5517   */\n      tag_342\n      tag_235\n      jump\t// in\n    tag_342:\n        /* \"#utility.yul\":5400:5519   */\n    tag_341:\n        /* \"#utility.yul\":5558:5559   */\n      0x00\n        /* \"#utility.yul\":5583:5636   */\n      tag_343\n        /* \"#utility.yul\":5628:5635   */\n      dup7\n        /* \"#utility.yul\":5619:5625   */\n      dup3\n        /* \"#utility.yul\":5608:5617   */\n      dup8\n        /* \"#utility.yul\":5604:5626   */\n      add\n        /* \"#utility.yul\":5583:5636   */\n      tag_254\n      jump\t// in\n    tag_343:\n        /* \"#utility.yul\":5573:5636   */\n      swap4\n      pop\n        /* \"#utility.yul\":5529:5646   */\n      pop\n        /* \"#utility.yul\":5685:5687   */\n      0x20\n        /* \"#utility.yul\":5711:5764   */\n      tag_344\n        /* \"#utility.yul\":5756:5763   */\n      dup7\n        /* \"#utility.yul\":5747:5753   */\n      dup3\n        /* \"#utility.yul\":5736:5745   */\n      dup8\n        /* \"#utility.yul\":5732:5754   */\n      add\n        /* \"#utility.yul\":5711:5764   */\n      tag_254\n      jump\t// in\n    tag_344:\n        /* \"#utility.yul\":5701:5764   */\n      swap3\n      pop\n        /* \"#utility.yul\":5656:5774   */\n      pop\n        /* \"#utility.yul\":5813:5815   */\n      0x40\n        /* \"#utility.yul\":5839:5892   */\n      tag_345\n        /* \"#utility.yul\":5884:5891   */\n      dup7\n        /* \"#utility.yul\":5875:5881   */\n      dup3\n        /* \"#utility.yul\":5864:5873   */\n      dup8\n        /* \"#utility.yul\":5860:5882   */\n      add\n        /* \"#utility.yul\":5839:5892   */\n      tag_249\n      jump\t// in\n    tag_345:\n        /* \"#utility.yul\":5829:5892   */\n      swap2\n      pop\n        /* \"#utility.yul\":5784:5902   */\n      pop\n        /* \"#utility.yul\":5290:5909   */\n      swap3\n      pop\n      swap3\n      pop\n      swap3\n      jump\t// out\n        /* \"#utility.yul\":5915:6244   */\n    tag_57:\n        /* \"#utility.yul\":5974:5980   */\n      0x00\n        /* \"#utility.yul\":6023:6025   */\n      0x20\n        /* \"#utility.yul\":6011:6020   */\n      dup3\n        /* \"#utility.yul\":6002:6009   */\n      dup5\n        /* \"#utility.yul\":5998:6021   */\n      sub\n        /* \"#utility.yul\":5994:6026   */\n      slt\n        /* \"#utility.yul\":5991:6110   */\n      iszero\n      tag_347\n      jumpi\n        /* \"#utility.yul\":6029:6108   */\n      tag_348\n      tag_235\n      jump\t// in\n    tag_348:\n        /* \"#utility.yul\":5991:6110   */\n    tag_347:\n        /* \"#utility.yul\":6149:6150   */\n      0x00\n        /* \"#utility.yul\":6174:6227   */\n      tag_349\n        /* \"#utility.yul\":6219:6226   */\n      dup5\n        /* \"#utility.yul\":6210:6216   */\n      dup3\n        /* \"#utility.yul\":6199:6208   */\n      dup6\n        /* \"#utility.yul\":6195:6217   */\n      add\n        /* \"#utility.yul\":6174:6227   */\n      tag_254\n      jump\t// in\n    tag_349:\n        /* \"#utility.yul\":6164:6227   */\n      swap2\n      pop\n        /* \"#utility.yul\":6120:6237   */\n      pop\n        /* \"#utility.yul\":5915:6244   */\n      swap3\n      swap2\n      pop\n      pop\n      jump\t// out\n        /* \"#utility.yul\":6250:6366   */\n    tag_256:\n        /* \"#utility.yul\":6320:6341   */\n      tag_351\n        /* \"#utility.yul\":6335:6340   */\n      dup2\n        /* \"#utility.yul\":6320:6341   */\n      tag_240\n      jump\t// in\n    tag_351:\n        /* \"#utility.yul\":6313:6318   */\n      dup2\n        /* \"#utility.yul\":6310:6342   */\n      eq\n        /* \"#utility.yul\":6300:6360   */\n      tag_352\n      jumpi\n        /* \"#utility.yul\":6356:6357   */\n      0x00\n        /* \"#utility.yul\":6353:6354   */\n      dup1\n        /* \"#utility.yul\":6346:6358   */\n      revert\n        /* \"#utility.yul\":6300:6360   */\n    tag_352:\n        /* \"#utility.yul\":6250:6366   */\n      pop\n      jump\t// out\n        /* \"#utility.yul\":6372:6505   */\n    tag_257:\n        /* \"#utility.yul\":6415:6420   */\n      0x00\n        /* \"#utility.yul\":6453:6459   */\n      dup2\n        /* \"#utility.yul\":6440:6460   */\n      calldataload\n        /* \"#utility.yul\":6431:6460   */\n      swap1\n      pop\n        /* \"#utility.yul\":6469:6499   */\n      tag_354\n        /* \"#utility.yul\":6493:6498   */\n      dup2\n        /* \"#utility.yul\":6469:6499   */\n      tag_256\n      jump\t// in\n    tag_354:\n        /* \"#utility.yul\":6372:6505   */\n      swap3\n      swap2\n      pop\n      pop\n      jump\t// out\n        /* \"#utility.yul\":6511:6979   */\n    tag_65:\n        /* \"#utility.yul\":6576:6582   */\n      0x00\n        /* \"#utility.yul\":6584:6590   */\n      dup1\n        /* \"#utility.yul\":6633:6635   */\n      0x40\n        /* \"#utility.yul\":6621:6630   */\n      dup4\n        /* \"#utility.yul\":6612:6619   */\n      dup6\n        /* \"#utility.yul\":6608:6631   */\n      sub\n        /* \"#utility.yul\":6604:6636   */\n      slt\n        /* \"#utility.yul\":6601:6720   */\n      iszero\n      tag_356\n      jumpi\n        /* \"#utility.yul\":6639:6718   */\n      tag_357\n      tag_235\n      jump\t// in\n    tag_357:\n        /* \"#utility.yul\":6601:6720   */\n    tag_356:\n        /* \"#utility.yul\":6759:6760   */\n      0x00\n        /* \"#utility.yul\":6784:6837   */\n      tag_358\n        /* \"#utility.yul\":6829:6836   */\n      dup6\n        /* \"#utility.yul\":6820:6826   */\n      dup3\n        /* \"#utility.yul\":6809:6818   */\n      dup7\n        /* \"#utility.yul\":6805:6827   */\n      add\n        /* \"#utility.yul\":6784:6837   */\n      tag_254\n      jump\t// in\n    tag_358:\n        /* \"#utility.yul\":6774:6837   */\n      swap3\n      pop\n        /* \"#utility.yul\":6730:6847   */\n      pop\n        /* \"#utility.yul\":6886:6888   */\n      0x20\n        /* \"#utility.yul\":6912:6962   */\n      tag_359\n        /* \"#utility.yul\":6954:6961   */\n      dup6\n        /* \"#utility.yul\":6945:6951   */\n      dup3\n        /* \"#utility.yul\":6934:6943   */\n      dup7\n        /* \"#utility.yul\":6930:6952   */\n      add\n        /* \"#utility.yul\":6912:6962   */\n      tag_257\n      jump\t// in\n    tag_359:\n        /* \"#utility.yul\":6902:6962   */\n      swap2\n      pop\n        /* \"#utility.yul\":6857:6972   */\n      pop\n        /* \"#utility.yul\":6511:6979   */\n      swap3\n      pop\n      swap3\n      swap1\n      pop\n      jump\t// out\n        /* \"#utility.yul\":6985:7102   */\n    tag_258:\n        /* \"#utility.yul\":7094:7095   */\n      0x00\n        /* \"#utility.yul\":7091:7092   */\n      dup1\n        /* \"#utility.yul\":7084:7096   */\n      revert\n        /* \"#utility.yul\":7108:7225   */\n    tag_259:\n        /* \"#utility.yul\":7217:7218   */\n      0x00\n        /* \"#utility.yul\":7214:7215   */\n      dup1\n        /* \"#utility.yul\":7207:7219   */\n      revert\n        /* \"#utility.yul\":7231:7411   */\n    tag_218:\n        /* \"#utility.yul\":7279:7356   */\n      0x4e487b7100000000000000000000000000000000000000000000000000000000\n        /* \"#utility.yul\":7276:7277   */\n      0x00\n        /* \"#utility.yul\":7269:7357   */\n      mstore\n        /* \"#utility.yul\":7376:7380   */\n      0x41\n        /* \"#utility.yul\":7373:7374   */\n      0x04\n        /* \"#utility.yul\":7366:7381   */\n      mstore\n        /* \"#utility.yul\":7400:7404   */\n      0x24\n        /* \"#utility.yul\":7397:7398   */\n      0x00\n        /* \"#utility.yul\":7390:7405   */\n      revert\n        /* \"#utility.yul\":7417:7698   */\n    tag_260:\n        /* \"#utility.yul\":7500:7527   */\n      tag_364\n        /* \"#utility.yul\":7522:7526   */\n      dup3\n        /* \"#utility.yul\":7500:7527   */\n      tag_245\n      jump\t// in\n    tag_364:\n        /* \"#utility.yul\":7492:7498   */\n      dup2\n        /* \"#utility.yul\":7488:7528   */\n      add\n        /* \"#utility.yul\":7630:7636   */\n      dup2\n        /* \"#utility.yul\":7618:7628   */\n      dup2\n        /* \"#utility.yul\":7615:7637   */\n      lt\n        /* \"#utility.yul\":7594:7612   */\n      0xffffffffffffffff\n        /* \"#utility.yul\":7582:7592   */\n      dup3\n        /* \"#utility.yul\":7579:7613   */\n      gt\n        /* \"#utility.yul\":7576:7638   */\n      or\n        /* \"#utility.yul\":7573:7661   */\n      iszero\n      tag_365\n      jumpi\n        /* \"#utility.yul\":7641:7659   */\n      tag_366\n      tag_218\n      jump\t// in\n    tag_366:\n        /* \"#utility.yul\":7573:7661   */\n    tag_365:\n        /* \"#utility.yul\":7681:7691   */\n      dup1\n        /* \"#utility.yul\":7677:7679   */\n      0x40\n        /* \"#utility.yul\":7670:7692   */\n      mstore\n        /* \"#utility.yul\":7460:7698   */\n      pop\n        /* \"#utility.yul\":7417:7698   */\n      pop\n      pop\n      jump\t// out\n        /* \"#utility.yul\":7704:7833   */\n    tag_261:\n        /* \"#utility.yul\":7738:7744   */\n      0x00\n        /* \"#utility.yul\":7765:7785   */\n      tag_368\n      tag_234\n      jump\t// in\n    tag_368:\n        /* \"#utility.yul\":7755:7785   */\n      swap1\n      pop\n        /* \"#utility.yul\":7794:7827   */\n      tag_369\n        /* \"#utility.yul\":7822:7826   */\n      dup3\n        /* \"#utility.yul\":7814:7820   */\n      dup3\n        /* \"#utility.yul\":7794:7827   */\n      tag_260\n      jump\t// in\n    tag_369:\n        /* \"#utility.yul\":7704:7833   */\n      swap2\n      swap1\n      pop\n      jump\t// out\n        /* \"#utility.yul\":7839:8146   */\n    tag_262:\n        /* \"#utility.yul\":7900:7904   */\n      0x00\n        /* \"#utility.yul\":7990:8008   */\n      0xffffffffffffffff\n        /* \"#utility.yul\":7982:7988   */\n      dup3\n        /* \"#utility.yul\":7979:8009   */\n      gt\n        /* \"#utility.yul\":7976:8032   */\n      iszero\n      tag_371\n      jumpi\n        /* \"#utility.yul\":8012:8030   */\n      tag_372\n      tag_218\n      jump\t// in\n    tag_372:\n        /* \"#utility.yul\":7976:8032   */\n    tag_371:\n        /* \"#utility.yul\":8050:8079   */\n      tag_373\n        /* \"#utility.yul\":8072:8078   */\n      dup3\n        /* \"#utility.yul\":8050:8079   */\n      tag_245\n      jump\t// in\n    tag_373:\n        /* \"#utility.yul\":8042:8079   */\n      swap1\n      pop\n        /* \"#utility.yul\":8134:8138   */\n      0x20\n        /* \"#utility.yul\":8128:8132   */\n      dup2\n        /* \"#utility.yul\":8124:8139   */\n      add\n        /* \"#utility.yul\":8116:8139   */\n      swap1\n      pop\n        /* \"#utility.yul\":7839:8146   */\n      swap2\n      swap1\n      pop\n      jump\t// out\n        /* \"#utility.yul\":8152:8306   */\n    tag_263:\n        /* \"#utility.yul\":8236:8242   */\n      dup3\n        /* \"#utility.yul\":8231:8234   */\n      dup2\n        /* \"#utility.yul\":8226:8229   */\n      dup4\n        /* \"#utility.yul\":8213:8243   */\n      calldatacopy\n        /* \"#utility.yul\":8298:8299   */\n      0x00\n        /* \"#utility.yul\":8289:8295   */\n      dup4\n        /* \"#utility.yul\":8284:8287   */\n      dup4\n        /* \"#utility.yul\":8280:8296   */\n      add\n        /* \"#utility.yul\":8273:8300   */\n      mstore\n        /* \"#utility.yul\":8152:8306   */\n      pop\n      pop\n      pop\n      jump\t// out\n        /* \"#utility.yul\":8312:8722   */\n    tag_264:\n        /* \"#utility.yul\":8389:8394   */\n      0x00\n        /* \"#utility.yul\":8414:8479   */\n      tag_376\n        /* \"#utility.yul\":8430:8478   */\n      tag_377\n        /* \"#utility.yul\":8471:8477   */\n      dup5\n        /* \"#utility.yul\":8430:8478   */\n      tag_262\n      jump\t// in\n    tag_377:\n        /* \"#utility.yul\":8414:8479   */\n      tag_261\n      jump\t// in\n    tag_376:\n        /* \"#utility.yul\":8405:8479   */\n      swap1\n      pop\n        /* \"#utility.yul\":8502:8508   */\n      dup3\n        /* \"#utility.yul\":8495:8500   */\n      dup2\n        /* \"#utility.yul\":8488:8509   */\n      mstore\n        /* \"#utility.yul\":8540:8544   */\n      0x20\n        /* \"#utility.yul\":8533:8538   */\n      dup2\n        /* \"#utility.yul\":8529:8545   */\n      add\n        /* \"#utility.yul\":8578:8581   */\n      dup5\n        /* \"#utility.yul\":8569:8575   */\n      dup5\n        /* \"#utility.yul\":8564:8567   */\n      dup5\n        /* \"#utility.yul\":8560:8576   */\n      add\n        /* \"#utility.yul\":8557:8582   */\n      gt\n        /* \"#utility.yul\":8554:8666   */\n      iszero\n      tag_378\n      jumpi\n        /* \"#utility.yul\":8585:8664   */\n      tag_379\n      tag_259\n      jump\t// in\n    tag_379:\n        /* \"#utility.yul\":8554:8666   */\n    tag_378:\n        /* \"#utility.yul\":8675:8716   */\n      tag_380\n        /* \"#utility.yul\":8709:8715   */\n      dup5\n        /* \"#utility.yul\":8704:8707   */\n      dup3\n        /* \"#utility.yul\":8699:8702   */\n      dup6\n        /* \"#utility.yul\":8675:8716   */\n      tag_263\n      jump\t// in\n    tag_380:\n        /* \"#utility.yul\":8395:8722   */\n      pop\n        /* \"#utility.yul\":8312:8722   */\n      swap4\n      swap3\n      pop\n      pop\n      pop\n      jump\t// out\n        /* \"#utility.yul\":8741:9079   */\n    tag_265:\n        /* \"#utility.yul\":8796:8801   */\n      0x00\n        /* \"#utility.yul\":8845:8848   */\n      dup3\n        /* \"#utility.yul\":8838:8842   */\n      0x1f\n        /* \"#utility.yul\":8830:8836   */\n      dup4\n        /* \"#utility.yul\":8826:8843   */\n      add\n        /* \"#utility.yul\":8822:8849   */\n      slt\n        /* \"#utility.yul\":8812:8934   */\n      tag_382\n      jumpi\n        /* \"#utility.yul\":8853:8932   */\n      tag_383\n      tag_258\n      jump\t// in\n    tag_383:\n        /* \"#utility.yul\":8812:8934   */\n    tag_382:\n        /* \"#utility.yul\":8970:8976   */\n      dup2\n        /* \"#utility.yul\":8957:8977   */\n      calldataload\n        /* \"#utility.yul\":8995:9073   */\n      tag_384\n        /* \"#utility.yul\":9069:9072   */\n      dup5\n        /* \"#utility.yul\":9061:9067   */\n      dup3\n        /* \"#utility.yul\":9054:9058   */\n      0x20\n        /* \"#utility.yul\":9046:9052   */\n      dup7\n        /* \"#utility.yul\":9042:9059   */\n      add\n        /* \"#utility.yul\":8995:9073   */\n      tag_264\n      jump\t// in\n    tag_384:\n        /* \"#utility.yul\":8986:9073   */\n      swap2\n      pop\n        /* \"#utility.yul\":8802:9079   */\n      pop\n        /* \"#utility.yul\":8741:9079   */\n      swap3\n      swap2\n      pop\n      pop\n      jump\t// out\n        /* \"#utility.yul\":9085:10028   */\n    tag_69:\n        /* \"#utility.yul\":9180:9186   */\n      0x00\n        /* \"#utility.yul\":9188:9194   */\n      dup1\n        /* \"#utility.yul\":9196:9202   */\n      0x00\n        /* \"#utility.yul\":9204:9210   */\n      dup1\n        /* \"#utility.yul\":9253:9256   */\n      0x80\n        /* \"#utility.yul\":9241:9250   */\n      dup6\n        /* \"#utility.yul\":9232:9239   */\n      dup8\n        /* \"#utility.yul\":9228:9251   */\n      sub\n        /* \"#utility.yul\":9224:9257   */\n      slt\n        /* \"#utility.yul\":9221:9341   */\n      iszero\n      tag_386\n      jumpi\n        /* \"#utility.yul\":9260:9339   */\n      tag_387\n      tag_235\n      jump\t// in\n    tag_387:\n        /* \"#utility.yul\":9221:9341   */\n    tag_386:\n        /* \"#utility.yul\":9380:9381   */\n      0x00\n        /* \"#utility.yul\":9405:9458   */\n      tag_388\n        /* \"#utility.yul\":9450:9457   */\n      dup8\n        /* \"#utility.yul\":9441:9447   */\n      dup3\n        /* \"#utility.yul\":9430:9439   */\n      dup9\n        /* \"#utility.yul\":9426:9448   */\n      add\n        /* \"#utility.yul\":9405:9458   */\n      tag_254\n      jump\t// in\n    tag_388:\n        /* \"#utility.yul\":9395:9458   */\n      swap5\n      pop\n        /* \"#utility.yul\":9351:9468   */\n      pop\n        /* \"#utility.yul\":9507:9509   */\n      0x20\n        /* \"#utility.yul\":9533:9586   */\n      tag_389\n        /* \"#utility.yul\":9578:9585   */\n      dup8\n        /* \"#utility.yul\":9569:9575   */\n      dup3\n        /* \"#utility.yul\":9558:9567   */\n      dup9\n        /* \"#utility.yul\":9554:9576   */\n      add\n        /* \"#utility.yul\":9533:9586   */\n      tag_254\n      jump\t// in\n    tag_389:\n        /* \"#utility.yul\":9523:9586   */\n      swap4\n      pop\n        /* \"#utility.yul\":9478:9596   */\n      pop\n        /* \"#utility.yul\":9635:9637   */\n      0x40\n        /* \"#utility.yul\":9661:9714   */\n      tag_390\n        /* \"#utility.yul\":9706:9713   */\n      dup8\n        /* \"#utility.yul\":9697:9703   */\n      dup3\n        /* \"#utility.yul\":9686:9695   */\n      dup9\n        /* \"#utility.yul\":9682:9704   */\n      add\n        /* \"#utility.yul\":9661:9714   */\n      tag_249\n      jump\t// in\n    tag_390:\n        /* \"#utility.yul\":9651:9714   */\n      swap3\n      pop\n        /* \"#utility.yul\":9606:9724   */\n      pop\n        /* \"#utility.yul\":9791:9793   */\n      0x60\n        /* \"#utility.yul\":9780:9789   */\n      dup6\n        /* \"#utility.yul\":9776:9794   */\n      add\n        /* \"#utility.yul\":9763:9795   */\n      calldataload\n        /* \"#utility.yul\":9822:9840   */\n      0xffffffffffffffff\n        /* \"#utility.yul\":9814:9820   */\n      dup2\n        /* \"#utility.yul\":9811:9841   */\n      gt\n        /* \"#utility.yul\":9808:9925   */\n      iszero\n      tag_391\n      jumpi\n        /* \"#utility.yul\":9844:9923   */\n      tag_392\n      tag_236\n      jump\t// in\n    tag_392:\n        /* \"#utility.yul\":9808:9925   */\n    tag_391:\n        /* \"#utility.yul\":9949:10011   */\n      tag_393\n        /* \"#utility.yul\":10003:10010   */\n      dup8\n        /* \"#utility.yul\":9994:10000   */\n      dup3\n        /* \"#utility.yul\":9983:9992   */\n      dup9\n        /* \"#utility.yul\":9979:10001   */\n      add\n        /* \"#utility.yul\":9949:10011   */\n      tag_265\n      jump\t// in\n    tag_393:\n        /* \"#utility.yul\":9939:10011   */\n      swap2\n      pop\n        /* \"#utility.yul\":9734:10021   */\n      pop\n        /* \"#utility.yul\":9085:10028   */\n      swap3\n      swap6\n      swap2\n      swap5\n      pop\n      swap3\n      pop\n      jump\t// out\n        /* \"#utility.yul\":10034:10508   */\n    tag_77:\n        /* \"#utility.yul\":10102:10108   */\n      0x00\n        /* \"#utility.yul\":10110:10116   */\n      dup1\n        /* \"#utility.yul\":10159:10161   */\n      0x40\n        /* \"#utility.yul\":10147:10156   */\n      dup4\n        /* \"#utility.yul\":10138:10145   */\n      dup6\n        /* \"#utility.yul\":10134:10157   */\n      sub\n        /* \"#utility.yul\":10130:10162   */\n      slt\n        /* \"#utility.yul\":10127:10246   */\n      iszero\n      tag_395\n      jumpi\n        /* \"#utility.yul\":10165:10244   */\n      tag_396\n      tag_235\n      jump\t// in\n    tag_396:\n        /* \"#utility.yul\":10127:10246   */\n    tag_395:\n        /* \"#utility.yul\":10285:10286   */\n      0x00\n        /* \"#utility.yul\":10310:10363   */\n      tag_397\n        /* \"#utility.yul\":10355:10362   */\n      dup6\n        /* \"#utility.yul\":10346:10352   */\n      dup3\n        /* \"#utility.yul\":10335:10344   */\n      dup7\n        /* \"#utility.yul\":10331:10353   */\n      add\n        /* \"#utility.yul\":10310:10363   */\n      tag_254\n      jump\t// in\n    tag_397:\n        /* \"#utility.yul\":10300:10363   */\n      swap3\n      pop\n        /* \"#utility.yul\":10256:10373   */\n      pop\n        /* \"#utility.yul\":10412:10414   */\n      0x20\n        /* \"#utility.yul\":10438:10491   */\n      tag_398\n        /* \"#utility.yul\":10483:10490   */\n      dup6\n        /* \"#utility.yul\":10474:10480   */\n      dup3\n        /* \"#utility.yul\":10463:10472   */\n      dup7\n        /* \"#utility.yul\":10459:10481   */\n      add\n        /* \"#utility.yul\":10438:10491   */\n      tag_254\n      jump\t// in\n    tag_398:\n        /* \"#utility.yul\":10428:10491   */\n      swap2\n      pop\n        /* \"#utility.yul\":10383:10501   */\n      pop\n        /* \"#utility.yul\":10034:10508   */\n      swap3\n      pop\n      swap3\n      swap1\n      pop\n      jump\t// out\n        /* \"#utility.yul\":10514:10694   */\n    tag_266:\n        /* \"#utility.yul\":10562:10639   */\n      0x4e487b7100000000000000000000000000000000000000000000000000000000\n        /* \"#utility.yul\":10559:10560   */\n      0x00\n        /* \"#utility.yul\":10552:10640   */\n      mstore\n        /* \"#utility.yul\":10659:10663   */\n      0x22\n        /* \"#utility.yul\":10656:10657   */\n      0x04\n        /* \"#utility.yul\":10649:10664   */\n      mstore\n        /* \"#utility.yul\":10683:10687   */\n      0x24\n        /* \"#utility.yul\":10680:10681   */\n      0x00\n        /* \"#utility.yul\":10673:10688   */\n      revert\n        /* \"#utility.yul\":10700:11020   */\n    tag_87:\n        /* \"#utility.yul\":10744:10750   */\n      0x00\n        /* \"#utility.yul\":10781:10782   */\n      0x02\n        /* \"#utility.yul\":10775:10779   */\n      dup3\n        /* \"#utility.yul\":10771:10783   */\n      div\n        /* \"#utility.yul\":10761:10783   */\n      swap1\n      pop\n        /* \"#utility.yul\":10828:10829   */\n      0x01\n        /* \"#utility.yul\":10822:10826   */\n      dup3\n        /* \"#utility.yul\":10818:10830   */\n      and\n        /* \"#utility.yul\":10849:10867   */\n      dup1\n        /* \"#utility.yul\":10839:10920   */\n      tag_401\n      jumpi\n        /* \"#utility.yul\":10905:10909   */\n      0x7f\n        /* \"#utility.yul\":10897:10903   */\n      dup3\n        /* \"#utility.yul\":10893:10910   */\n      and\n        /* \"#utility.yul\":10883:10910   */\n      swap2\n      pop\n        /* \"#utility.yul\":10839:10920   */\n    tag_401:\n        /* \"#utility.yul\":10967:10969   */\n      0x20\n        /* \"#utility.yul\":10959:10965   */\n      dup3\n        /* \"#utility.yul\":10956:10970   */\n      lt\n        /* \"#utility.yul\":10936:10954   */\n      dup2\n        /* \"#utility.yul\":10933:10971   */\n      sub\n        /* \"#utility.yul\":10930:11014   */\n      tag_402\n      jumpi\n        /* \"#utility.yul\":10986:11004   */\n      tag_403\n      tag_266\n      jump\t// in\n    tag_403:\n        /* \"#utility.yul\":10930:11014   */\n    tag_402:\n        /* \"#utility.yul\":10751:11020   */\n      pop\n        /* \"#utility.yul\":10700:11020   */\n      swap2\n      swap1\n      pop\n      jump\t// out\n        /* \"#utility.yul\":11026:11174   */\n    tag_267:\n        /* \"#utility.yul\":11128:11139   */\n      0x00\n        /* \"#utility.yul\":11165:11168   */\n      dup2\n        /* \"#utility.yul\":11150:11168   */\n      swap1\n      pop\n        /* \"#utility.yul\":11026:11174   */\n      swap3\n      swap2\n      pop\n      pop\n      jump\t// out\n        /* \"#utility.yul\":11180:11557   */\n    tag_268:\n        /* \"#utility.yul\":11286:11289   */\n      0x00\n        /* \"#utility.yul\":11314:11353   */\n      tag_406\n        /* \"#utility.yul\":11347:11352   */\n      dup3\n        /* \"#utility.yul\":11314:11353   */\n      tag_242\n      jump\t// in\n    tag_406:\n        /* \"#utility.yul\":11369:11458   */\n      tag_407\n        /* \"#utility.yul\":11451:11457   */\n      dup2\n        /* \"#utility.yul\":11446:11449   */\n      dup6\n        /* \"#utility.yul\":11369:11458   */\n      tag_267\n      jump\t// in\n    tag_407:\n        /* \"#utility.yul\":11362:11458   */\n      swap4\n      pop\n        /* \"#utility.yul\":11467:11519   */\n      tag_408\n        /* \"#utility.yul\":11512:11518   */\n      dup2\n        /* \"#utility.yul\":11507:11510   */\n      dup6\n        /* \"#utility.yul\":11500:11504   */\n      0x20\n        /* \"#utility.yul\":11493:11498   */\n      dup7\n        /* \"#utility.yul\":11489:11505   */\n      add\n        /* \"#utility.yul\":11467:11519   */\n      tag_244\n      jump\t// in\n    tag_408:\n        /* \"#utility.yul\":11544:11550   */\n      dup1\n        /* \"#utility.yul\":11539:11542   */\n      dup5\n        /* \"#utility.yul\":11535:11551   */\n      add\n        /* \"#utility.yul\":11528:11551   */\n      swap2\n      pop\n        /* \"#utility.yul\":11290:11557   */\n      pop\n        /* \"#utility.yul\":11180:11557   */\n      swap3\n      swap2\n      pop\n      pop\n      jump\t// out\n        /* \"#utility.yul\":11563:11998   */\n    tag_150:\n        /* \"#utility.yul\":11743:11746   */\n      0x00\n        /* \"#utility.yul\":11765:11860   */\n      tag_410\n        /* \"#utility.yul\":11856:11859   */\n      dup3\n        /* \"#utility.yul\":11847:11853   */\n      dup6\n        /* \"#utility.yul\":11765:11860   */\n      tag_268\n      jump\t// in\n    tag_410:\n        /* \"#utility.yul\":11758:11860   */\n      swap2\n      pop\n        /* \"#utility.yul\":11877:11972   */\n      tag_411\n        /* \"#utility.yul\":11968:11971   */\n      dup3\n        /* \"#utility.yul\":11959:11965   */\n      dup5\n        /* \"#utility.yul\":11877:11972   */\n      tag_268\n      jump\t// in\n    tag_411:\n        /* \"#utility.yul\":11870:11972   */\n      swap2\n      pop\n        /* \"#utility.yul\":11989:11992   */\n      dup2\n        /* \"#utility.yul\":11982:11992   */\n      swap1\n      pop\n        /* \"#utility.yul\":11563:11998   */\n      swap4\n      swap3\n      pop\n      pop\n      pop\n      jump\t// out\n        /* \"#utility.yul\":12004:12102   */\n    tag_269:\n        /* \"#utility.yul\":12055:12061   */\n      0x00\n        /* \"#utility.yul\":12089:12094   */\n      dup2\n        /* \"#utility.yul\":12083:12095   */\n      mload\n        /* \"#utility.yul\":12073:12095   */\n      swap1\n      pop\n        /* \"#utility.yul\":12004:12102   */\n      swap2\n      swap1\n      pop\n      jump\t// out\n        /* \"#utility.yul\":12108:12276   */\n    tag_270:\n        /* \"#utility.yul\":12191:12202   */\n      0x00\n        /* \"#utility.yul\":12225:12231   */\n      dup3\n        /* \"#utility.yul\":12220:12223   */\n      dup3\n        /* \"#utility.yul\":12213:12232   */\n      mstore\n        /* \"#utility.yul\":12265:12269   */\n      0x20\n        /* \"#utility.yul\":12260:12263   */\n      dup3\n        /* \"#utility.yul\":12256:12270   */\n      add\n        /* \"#utility.yul\":12241:12270   */\n      swap1\n      pop\n        /* \"#utility.yul\":12108:12276   */\n      swap3\n      swap2\n      pop\n      pop\n      jump\t// out\n        /* \"#utility.yul\":12282:12642   */\n    tag_271:\n        /* \"#utility.yul\":12368:12371   */\n      0x00\n        /* \"#utility.yul\":12396:12434   */\n      tag_415\n        /* \"#utility.yul\":12428:12433   */\n      dup3\n        /* \"#utility.yul\":12396:12434   */\n      tag_269\n      jump\t// in\n    tag_415:\n        /* \"#utility.yul\":12450:12520   */\n      tag_416\n        /* \"#utility.yul\":12513:12519   */\n      dup2\n        /* \"#utility.yul\":12508:12511   */\n      dup6\n        /* \"#utility.yul\":12450:12520   */\n      tag_270\n      jump\t// in\n    tag_416:\n        /* \"#utility.yul\":12443:12520   */\n      swap4\n      pop\n        /* \"#utility.yul\":12529:12581   */\n      tag_417\n        /* \"#utility.yul\":12574:12580   */\n      dup2\n        /* \"#utility.yul\":12569:12572   */\n      dup6\n        /* \"#utility.yul\":12562:12566   */\n      0x20\n        /* \"#utility.yul\":12555:12560   */\n      dup7\n        /* \"#utility.yul\":12551:12567   */\n      add\n        /* \"#utility.yul\":12529:12581   */\n      tag_244\n      jump\t// in\n    tag_417:\n        /* \"#utility.yul\":12606:12635   */\n      tag_418\n        /* \"#utility.yul\":12628:12634   */\n      dup2\n        /* \"#utility.yul\":12606:12635   */\n      tag_245\n      jump\t// in\n    tag_418:\n        /* \"#utility.yul\":12601:12604   */\n      dup5\n        /* \"#utility.yul\":12597:12636   */\n      add\n        /* \"#utility.yul\":12590:12636   */\n      swap2\n      pop\n        /* \"#utility.yul\":12372:12642   */\n      pop\n        /* \"#utility.yul\":12282:12642   */\n      swap3\n      swap2\n      pop\n      pop\n      jump\t// out\n        /* \"#utility.yul\":12648:13288   */\n    tag_194:\n        /* \"#utility.yul\":12843:12847   */\n      0x00\n        /* \"#utility.yul\":12881:12884   */\n      0x80\n        /* \"#utility.yul\":12870:12879   */\n      dup3\n        /* \"#utility.yul\":12866:12885   */\n      add\n        /* \"#utility.yul\":12858:12885   */\n      swap1\n      pop\n        /* \"#utility.yul\":12895:12966   */\n      tag_420\n        /* \"#utility.yul\":12963:12964   */\n      0x00\n        /* \"#utility.yul\":12952:12961   */\n      dup4\n        /* \"#utility.yul\":12948:12965   */\n      add\n        /* \"#utility.yul\":12939:12945   */\n      dup8\n        /* \"#utility.yul\":12895:12966   */\n      tag_252\n      jump\t// in\n    tag_420:\n        /* \"#utility.yul\":12976:13048   */\n      tag_421\n        /* \"#utility.yul\":13044:13046   */\n      0x20\n        /* \"#utility.yul\":13033:13042   */\n      dup4\n        /* \"#utility.yul\":13029:13047   */\n      add\n        /* \"#utility.yul\":13020:13026   */\n      dup7\n        /* \"#utility.yul\":12976:13048   */\n      tag_252\n      jump\t// in\n    tag_421:\n        /* \"#utility.yul\":13058:13130   */\n      tag_422\n        /* \"#utility.yul\":13126:13128   */\n      0x40\n        /* \"#utility.yul\":13115:13124   */\n      dup4\n        /* \"#utility.yul\":13111:13129   */\n      add\n        /* \"#utility.yul\":13102:13108   */\n      dup6\n        /* \"#utility.yul\":13058:13130   */\n      tag_255\n      jump\t// in\n    tag_422:\n        /* \"#utility.yul\":13177:13186   */\n      dup2\n        /* \"#utility.yul\":13171:13175   */\n      dup2\n        /* \"#utility.yul\":13167:13187   */\n      sub\n        /* \"#utility.yul\":13162:13164   */\n      0x60\n        /* \"#utility.yul\":13151:13160   */\n      dup4\n        /* \"#utility.yul\":13147:13165   */\n      add\n        /* \"#utility.yul\":13140:13188   */\n      mstore\n        /* \"#utility.yul\":13205:13281   */\n      tag_423\n        /* \"#utility.yul\":13276:13280   */\n      dup2\n        /* \"#utility.yul\":13267:13273   */\n      dup5\n        /* \"#utility.yul\":13205:13281   */\n      tag_271\n      jump\t// in\n    tag_423:\n        /* \"#utility.yul\":13197:13281   */\n      swap1\n      pop\n        /* \"#utility.yul\":12648:13288   */\n      swap6\n      swap5\n      pop\n      pop\n      pop\n      pop\n      pop\n      jump\t// out\n        /* \"#utility.yul\":13294:13435   */\n    tag_272:\n        /* \"#utility.yul\":13350:13355   */\n      0x00\n        /* \"#utility.yul\":13381:13387   */\n      dup2\n        /* \"#utility.yul\":13375:13388   */\n      mload\n        /* \"#utility.yul\":13366:13388   */\n      swap1\n      pop\n        /* \"#utility.yul\":13397:13429   */\n      tag_425\n        /* \"#utility.yul\":13423:13428   */\n      dup2\n        /* \"#utility.yul\":13397:13429   */\n      tag_238\n      jump\t// in\n    tag_425:\n        /* \"#utility.yul\":13294:13435   */\n      swap3\n      swap2\n      pop\n      pop\n      jump\t// out\n        /* \"#utility.yul\":13441:13790   */\n    tag_197:\n        /* \"#utility.yul\":13510:13516   */\n      0x00\n        /* \"#utility.yul\":13559:13561   */\n      0x20\n        /* \"#utility.yul\":13547:13556   */\n      dup3\n        /* \"#utility.yul\":13538:13545   */\n      dup5\n        /* \"#utility.yul\":13534:13557   */\n      sub\n        /* \"#utility.yul\":13530:13562   */\n      slt\n        /* \"#utility.yul\":13527:13646   */\n      iszero\n      tag_427\n      jumpi\n        /* \"#utility.yul\":13565:13644   */\n      tag_428\n      tag_235\n      jump\t// in\n    tag_428:\n        /* \"#utility.yul\":13527:13646   */\n    tag_427:\n        /* \"#utility.yul\":13685:13686   */\n      0x00\n        /* \"#utility.yul\":13710:13773   */\n      tag_429\n        /* \"#utility.yul\":13765:13772   */\n      dup5\n        /* \"#utility.yul\":13756:13762   */\n      dup3\n        /* \"#utility.yul\":13745:13754   */\n      dup6\n        /* \"#utility.yul\":13741:13763   */\n      add\n        /* \"#utility.yul\":13710:13773   */\n      tag_272\n      jump\t// in\n    tag_429:\n        /* \"#utility.yul\":13700:13773   */\n      swap2\n      pop\n        /* \"#utility.yul\":13656:13783   */\n      pop\n        /* \"#utility.yul\":13441:13790   */\n      swap3\n      swap2\n      pop\n      pop\n      jump\t// out\n        /* \"#utility.yul\":13796:13976   */\n    tag_273:\n        /* \"#utility.yul\":13844:13921   */\n      0x4e487b7100000000000000000000000000000000000000000000000000000000\n        /* \"#utility.yul\":13841:13842   */\n      0x00\n        /* \"#utility.yul\":13834:13922   */\n      mstore\n        /* \"#utility.yul\":13941:13945   */\n      0x11\n        /* \"#utility.yul\":13938:13939   */\n      0x04\n        /* \"#utility.yul\":13931:13946   */\n      mstore\n        /* \"#utility.yul\":13965:13969   */\n      0x24\n        /* \"#utility.yul\":13962:13963   */\n      0x00\n        /* \"#utility.yul\":13955:13970   */\n      revert\n        /* \"#utility.yul\":13982:14215   */\n    tag_213:\n        /* \"#utility.yul\":14021:14024   */\n      0x00\n        /* \"#utility.yul\":14044:14068   */\n      tag_432\n        /* \"#utility.yul\":14062:14067   */\n      dup3\n        /* \"#utility.yul\":14044:14068   */\n      tag_247\n      jump\t// in\n    tag_432:\n        /* \"#utility.yul\":14035:14068   */\n      swap2\n      pop\n        /* \"#utility.yul\":14090:14156   */\n      0xffffffffffffffffffffffffffffffffffffffffffffffffffffffffffffffff\n        /* \"#utility.yul\":14083:14088   */\n      dup3\n        /* \"#utility.yul\":14080:14157   */\n      sub\n        /* \"#utility.yul\":14077:14180   */\n      tag_433\n      jumpi\n        /* \"#utility.yul\":14160:14178   */\n      tag_434\n      tag_273\n      jump\t// in\n    tag_434:\n        /* \"#utility.yul\":14077:14180   */\n    tag_433:\n        /* \"#utility.yul\":14207:14208   */\n      0x01\n        /* \"#utility.yul\":14200:14205   */\n      dup3\n        /* \"#utility.yul\":14196:14209   */\n      add\n        /* \"#utility.yul\":14189:14209   */\n      swap1\n      pop\n        /* \"#utility.yul\":13982:14215   */\n      swap2\n      swap1\n      pop\n      jump\t// out\n        /* \"#utility.yul\":14221:14401   */\n    tag_274:\n        /* \"#utility.yul\":14269:14346   */\n      0x4e487b7100000000000000000000000000000000000000000000000000000000\n        /* \"#utility.yul\":14266:14267   */\n      0x00\n        /* \"#utility.yul\":14259:14347   */\n      mstore\n        /* \"#utility.yul\":14366:14370   */\n      0x12\n        /* \"#utility.yul\":14363:14364   */\n      0x04\n        /* \"#utility.yul\":14356:14371   */\n      mstore\n        /* \"#utility.yul\":14390:14394   */\n      0x24\n        /* \"#utility.yul\":14387:14388   */\n      0x00\n        /* \"#utility.yul\":14380:14395   */\n      revert\n        /* \"#utility.yul\":14407:14592   */\n    tag_215:\n        /* \"#utility.yul\":14447:14448   */\n      0x00\n        /* \"#utility.yul\":14464:14484   */\n      tag_437\n        /* \"#utility.yul\":14482:14483   */\n      dup3\n        /* \"#utility.yul\":14464:14484   */\n      tag_247\n      jump\t// in\n    tag_437:\n        /* \"#utility.yul\":14459:14484   */\n      swap2\n      pop\n        /* \"#utility.yul\":14498:14518   */\n      tag_438\n        /* \"#utility.yul\":14516:14517   */\n      dup4\n        /* \"#utility.yul\":14498:14518   */\n      tag_247\n      jump\t// in\n    tag_438:\n        /* \"#utility.yul\":14493:14518   */\n      swap3\n      pop\n        /* \"#utility.yul\":14537:14538   */\n      dup3\n        /* \"#utility.yul\":14527:14562   */\n      tag_439\n      jumpi\n        /* \"#utility.yul\":14542:14560   */\n      tag_440\n      tag_274\n      jump\t// in\n    tag_440:\n        /* \"#utility.yul\":14527:14562   */\n    tag_439:\n        /* \"#utility.yul\":14584:14585   */\n      dup3\n        /* \"#utility.yul\":14581:14582   */\n      dup3\n        /* \"#utility.yul\":14577:14586   */\n      div\n        /* \"#utility.yul\":14572:14586   */\n      swap1\n      pop\n        /* \"#utility.yul\":14407:14592   */\n      swap3\n      swap2\n      pop\n      pop\n      jump\t// out\n        /* \"#utility.yul\":14598:14789   */\n    tag_223:\n        /* \"#utility.yul\":14638:14642   */\n      0x00\n        /* \"#utility.yul\":14658:14678   */\n      tag_442\n        /* \"#utility.yul\":14676:14677   */\n      dup3\n        /* \"#utility.yul\":14658:14678   */\n      tag_247\n      jump\t// in\n    tag_442:\n        /* \"#utility.yul\":14653:14678   */\n      swap2\n      pop\n        /* \"#utility.yul\":14692:14712   */\n      tag_443\n        /* \"#utility.yul\":14710:14711   */\n      dup4\n        /* \"#utility.yul\":14692:14712   */\n      tag_247\n      jump\t// in\n    tag_443:\n        /* \"#utility.yul\":14687:14712   */\n      swap3\n      pop\n        /* \"#utility.yul\":14731:14732   */\n      dup3\n        /* \"#utility.yul\":14728:14729   */\n      dup3\n        /* \"#utility.yul\":14725:14733   */\n      lt\n        /* \"#utility.yul\":14722:14756   */\n      iszero\n      tag_444\n      jumpi\n        /* \"#utility.yul\":14736:14754   */\n      tag_445\n      tag_273\n      jump\t// in\n    tag_445:\n        /* \"#utility.yul\":14722:14756   */\n    tag_444:\n        /* \"#utility.yul\":14781:14782   */\n      dup3\n        /* \"#utility.yul\":14778:14779   */\n      dup3\n        /* \"#utility.yul\":14774:14783   */\n      sub\n        /* \"#utility.yul\":14766:14783   */\n      swap1\n      pop\n        /* \"#utility.yul\":14598:14789   */\n      swap3\n      swap2\n      pop\n      pop\n      jump\t// out\n        /* \"#utility.yul\":14795:14971   */\n    tag_225:\n        /* \"#utility.yul\":14827:14828   */\n      0x00\n        /* \"#utility.yul\":14844:14864   */\n      tag_447\n        /* \"#utility.yul\":14862:14863   */\n      dup3\n        /* \"#utility.yul\":14844:14864   */\n      tag_247\n      jump\t// in\n    tag_447:\n        /* \"#utility.yul\":14839:14864   */\n      swap2\n      pop\n        /* \"#utility.yul\":14878:14898   */\n      tag_448\n        /* \"#utility.yul\":14896:14897   */\n      dup4\n        /* \"#utility.yul\":14878:14898   */\n      tag_247\n      jump\t// in\n    tag_448:\n        /* \"#utility.yul\":14873:14898   */\n      swap3\n      pop\n        /* \"#utility.yul\":14917:14918   */\n      dup3\n        /* \"#utility.yul\":14907:14942   */\n      tag_449\n      jumpi\n        /* \"#utility.yul\":14922:14940   */\n      tag_450\n      tag_274\n      jump\t// in\n    tag_450:\n        /* \"#utility.yul\":14907:14942   */\n    tag_449:\n        /* \"#utility.yul\":14963:14964   */\n      dup3\n        /* \"#utility.yul\":14960:14961   */\n      dup3\n        /* \"#utility.yul\":14956:14965   */\n      mod\n        /* \"#utility.yul\":14951:14965   */\n      swap1\n      pop\n        /* \"#utility.yul\":14795:14971   */\n      swap3\n      swap2\n      pop\n      pop\n      jump\t// out\n        /* \"#utility.yul\":14977:15282   */\n    tag_227:\n        /* \"#utility.yul\":15017:15020   */\n      0x00\n        /* \"#utility.yul\":15036:15056   */\n      tag_452\n        /* \"#utility.yul\":15054:15055   */\n      dup3\n        /* \"#utility.yul\":15036:15056   */\n      tag_247\n      jump\t// in\n    tag_452:\n        /* \"#utility.yul\":15031:15056   */\n      swap2\n      pop\n        /* \"#utility.yul\":15070:15090   */\n      tag_453\n        /* \"#utility.yul\":15088:15089   */\n      dup4\n        /* \"#utility.yul\":15070:15090   */\n      tag_247\n      jump\t// in\n    tag_453:\n        /* \"#utility.yul\":15065:15090   */\n      swap3\n      pop\n        /* \"#utility.yul\":15224:15225   */\n      dup3\n        /* \"#utility.yul\":15156:15222   */\n      0xffffffffffffffffffffffffffffffffffffffffffffffffffffffffffffffff\n        /* \"#utility.yul\":15152:15226   */\n      sub\n        /* \"#utility.yul\":15149:15150   */\n      dup3\n        /* \"#utility.yul\":15146:15227   */\n      gt\n        /* \"#utility.yul\":15143:15250   */\n      iszero\n      tag_454\n      jumpi\n        /* \"#utility.yul\":15230:15248   */\n      tag_455\n      tag_273\n      jump\t// in\n    tag_455:\n        /* \"#utility.yul\":15143:15250   */\n    tag_454:\n        /* \"#utility.yul\":15274:15275   */\n      dup3\n        /* \"#utility.yul\":15271:15272   */\n      dup3\n        /* \"#utility.yul\":15267:15276   */\n      add\n        /* \"#utility.yul\":15260:15276   */\n      swap1\n      pop\n        /* \"#utility.yul\":14977:15282   */\n      swap3\n      swap2\n      pop\n      pop\n      jump\t// out\n        /* \"#utility.yul\":15288:15468   */\n    tag_230:\n        /* \"#utility.yul\":15336:15413   */\n      0x4e487b7100000000000000000000000000000000000000000000000000000000\n        /* \"#utility.yul\":15333:15334   */\n      0x00\n        /* \"#utility.yul\":15326:15414   */\n      mstore\n        /* \"#utility.yul\":15433:15437   */\n      0x32\n        /* \"#utility.yul\":15430:15431   */\n      0x04\n        /* \"#utility.yul\":15423:15438   */\n      mstore\n        /* \"#utility.yul\":15457:15461   */\n      0x24\n        /* \"#utility.yul\":15454:15455   */\n      0x00\n        /* \"#utility.yul\":15447:15462   */\n      revert\n    stop\n    data_d8bb5093925f17312ccd69c1ad4eefb61d29f5f451bdf501cef244662be1efab 68747470733a2f2f676174657761792e70696e6174612e636c6f75642f697066732f516d6648576b7454625354424e4c7777385a446832716335444b71695a63696b6e6f7137365a665872736f5231762f\n\n    auxdata: 0xa26469706673582212203f36f08820323261e7614bc6ed10b095a5c9c9496d1e0f94b7af74180b50eca964736f6c634300080d0033\n}\n",
				"bytecode": {
					"linkReferences": {},
					"object": "60806040523480156200001157600080fd5b5060405162002448380380620024488339818101604052810190620000379190620002dd565b81600290805190602001906200004f92919062000090565b5080600390805190602001906200006892919062000090565b50620000796200008760201b60201c565b6000819055505050620003c6565b60006001905090565b8280546200009e9062000391565b90600052602060002090601f016020900481019282620000c257600085556200010e565b82601f10620000dd57805160ff19168380011785556200010e565b828001600101855582156200010e579182015b828111156200010d578251825591602001919060010190620000f0565b5b5090506200011d919062000121565b5090565b5b808211156200013c57600081600090555060010162000122565b5090565b6000604051905090565b600080fd5b600080fd5b600080fd5b600080fd5b6000601f19601f8301169050919050565b7f4e487b7100000000000000000000000000000000000000000000000000000000600052604160045260246000fd5b620001a9826200015e565b810181811067ffffffffffffffff82111715620001cb57620001ca6200016f565b5b80604052505050565b6000620001e062000140565b9050620001ee82826200019e565b919050565b600067ffffffffffffffff8211156200021157620002106200016f565b5b6200021c826200015e565b9050602081019050919050565b60005b83811015620002495780820151818401526020810190506200022c565b8381111562000259576000848401525b50505050565b6000620002766200027084620001f3565b620001d4565b90508281526020810184848401111562000295576200029462000159565b5b620002a284828562000229565b509392505050565b600082601f830112620002c257620002c162000154565b5b8151620002d48482602086016200025f565b91505092915050565b60008060408385031215620002f757620002f66200014a565b5b600083015167ffffffffffffffff8111156200031857620003176200014f565b5b6200032685828601620002aa565b925050602083015167ffffffffffffffff8111156200034a57620003496200014f565b5b6200035885828601620002aa565b9150509250929050565b7f4e487b7100000000000000000000000000000000000000000000000000000000600052602260045260246000fd5b60006002820490506001821680620003aa57607f821691505b602082108103620003c057620003bf62000362565b5b50919050565b61207280620003d66000396000f3fe608060405234801561001057600080fd5b50600436106100ea5760003560e01c80636352211e1161008c578063a22cb46511610066578063a22cb4651461025d578063b88d4fde14610279578063c87b56dd14610295578063e985e9c5146102c5576100ea565b80636352211e146101df57806370a082311461020f57806395d89b411461023f576100ea565b8063095ea7b3116100c8578063095ea7b31461016d57806318160ddd1461018957806323b872dd146101a757806342842e0e146101c3576100ea565b806301ffc9a7146100ef57806306fdde031461011f578063081812fc1461013d575b600080fd5b61010960048036038101906101049190611730565b6102f5565b6040516101169190611778565b60405180910390f35b6101276103d7565b604051610134919061182c565b60405180910390f35b61015760048036038101906101529190611884565b610469565b60405161016491906118f2565b60405180910390f35b61018760048036038101906101829190611939565b6104e5565b005b6101916105e9565b60405161019e9190611988565b60405180910390f35b6101c160048036038101906101bc91906119a3565b610600565b005b6101dd60048036038101906101d891906119a3565b610610565b005b6101f960048036038101906101f49190611884565b610630565b60405161020691906118f2565b60405180910390f35b610229600480360381019061022491906119f6565b610646565b6040516102369190611988565b60405180910390f35b610247610715565b604051610254919061182c565b60405180910390f35b61027760048036038101906102729190611a4f565b6107a7565b005b610293600480360381019061028e9190611bc4565b61091e565b005b6102af60048036038101906102aa9190611884565b610996565b6040516102bc919061182c565b60405180910390f35b6102df60048036038101906102da9190611c47565b610a34565b6040516102ec9190611778565b60405180910390f35b60007f80ac58cd000000000000000000000000000000000000000000000000000000007bffffffffffffffffffffffffffffffffffffffffffffffffffffffff1916827bffffffffffffffffffffffffffffffffffffffffffffffffffffffff191614806103c057507f5b5e139f000000000000000000000000000000000000000000000000000000007bffffffffffffffffffffffffffffffffffffffffffffffffffffffff1916827bffffffffffffffffffffffffffffffffffffffffffffffffffffffff1916145b806103d057506103cf82610ac8565b5b9050919050565b6060600280546103e690611cb6565b80601f016020809104026020016040519081016040528092919081815260200182805461041290611cb6565b801561045f5780601f106104345761010080835404028352916020019161045f565b820191906000526020600020905b81548152906001019060200180831161044257829003601f168201915b5050505050905090565b600061047482610b32565b6104aa576040517fcf4700e400000000000000000000000000000000000000000000000000000000815260040160405180910390fd5b6006600083815260200190815260200160002060009054906101000a900473ffffffffffffffffffffffffffffffffffffffff169050919050565b60006104f082610630565b90508073ffffffffffffffffffffffffffffffffffffffff168373ffffffffffffffffffffffffffffffffffffffff1603610557576040517f943f7b8c00000000000000000000000000000000000000000000000000000000815260040160405180910390fd5b8073ffffffffffffffffffffffffffffffffffffffff16610576610b80565b73ffffffffffffffffffffffffffffffffffffffff16146105d9576105a28161059d610b80565b610a34565b6105d8576040517fcfb3b94200000000000000000000000000000000000000000000000000000000815260040160405180910390fd5b5b6105e4838383610b88565b505050565b60006105f3610c3a565b6001546000540303905090565b61060b838383610c43565b505050565b61062b8383836040518060200160405280600081525061091e565b505050565b600061063b826110f7565b600001519050919050565b60008073ffffffffffffffffffffffffffffffffffffffff168273ffffffffffffffffffffffffffffffffffffffff16036106ad576040517f8f4eb60400000000000000000000000000000000000000000000000000000000815260040160405180910390fd5b600560008373ffffffffffffffffffffffffffffffffffffffff1673ffffffffffffffffffffffffffffffffffffffff16815260200190815260200160002060000160009054906101000a900467ffffffffffffffff1667ffffffffffffffff169050919050565b60606003805461072490611cb6565b80601f016020809104026020016040519081016040528092919081815260200182805461075090611cb6565b801561079d5780601f106107725761010080835404028352916020019161079d565b820191906000526020600020905b81548152906001019060200180831161078057829003601f168201915b5050505050905090565b6107af610b80565b73ffffffffffffffffffffffffffffffffffffffff168273ffffffffffffffffffffffffffffffffffffffff1603610813576040517fb06307db00000000000000000000000000000000000000000000000000000000815260040160405180910390fd5b8060076000610820610b80565b73ffffffffffffffffffffffffffffffffffffffff1673ffffffffffffffffffffffffffffffffffffffff16815260200190815260200160002060008473ffffffffffffffffffffffffffffffffffffffff1673ffffffffffffffffffffffffffffffffffffffff16815260200190815260200160002060006101000a81548160ff0219169083151502179055508173ffffffffffffffffffffffffffffffffffffffff166108cd610b80565b73ffffffffffffffffffffffffffffffffffffffff167f17307eab39ab6107e8899845ad3d59bd9653f200f220920489ca2b5937696c31836040516109129190611778565b60405180910390a35050565b610929848484610c43565b6109488373ffffffffffffffffffffffffffffffffffffffff16611382565b1561099057610959848484846113a5565b61098f576040517fd1a57ed600000000000000000000000000000000000000000000000000000000815260040160405180910390fd5b5b50505050565b60606109a182610b32565b6109d7576040517fa14c4b5000000000000000000000000000000000000000000000000000000000815260040160405180910390fd5b60006109e16114f5565b90506000815103610a015760405180602001604052806000815250610a2c565b80610a0b84611515565b604051602001610a1c929190611d23565b6040516020818303038152906040525b915050919050565b6000600760008473ffffffffffffffffffffffffffffffffffffffff1673ffffffffffffffffffffffffffffffffffffffff16815260200190815260200160002060008373ffffffffffffffffffffffffffffffffffffffff1673ffffffffffffffffffffffffffffffffffffffff16815260200190815260200160002060009054906101000a900460ff16905092915050565b60007f01ffc9a7000000000000000000000000000000000000000000000000000000007bffffffffffffffffffffffffffffffffffffffffffffffffffffffff1916827bffffffffffffffffffffffffffffffffffffffffffffffffffffffff1916149050919050565b600081610b3d610c3a565b11158015610b4c575060005482105b8015610b79575060046000838152602001908152602001600020600001601c9054906101000a900460ff16155b9050919050565b600033905090565b826006600084815260200190815260200160002060006101000a81548173ffffffffffffffffffffffffffffffffffffffff021916908373ffffffffffffffffffffffffffffffffffffffff160217905550818373ffffffffffffffffffffffffffffffffffffffff168273ffffffffffffffffffffffffffffffffffffffff167f8c5be1e5ebec7d5bd14f71427d1e84f3dd0314c0f7b2291e5b200ac8c7c3b92560405160405180910390a4505050565b60006001905090565b6000610c4e826110f7565b90508373ffffffffffffffffffffffffffffffffffffffff16816000015173ffffffffffffffffffffffffffffffffffffffff1614610cb9576040517fa114810000000000000000000000000000000000000000000000000000000000815260040160405180910390fd5b60008473ffffffffffffffffffffffffffffffffffffffff16610cda610b80565b73ffffffffffffffffffffffffffffffffffffffff161480610d095750610d0885610d03610b80565b610a34565b5b80610d4e5750610d17610b80565b73ffffffffffffffffffffffffffffffffffffffff16610d3684610469565b73ffffffffffffffffffffffffffffffffffffffff16145b905080610d87576040517f59c896be00000000000000000000000000000000000000000000000000000000815260040160405180910390fd5b600073ffffffffffffffffffffffffffffffffffffffff168473ffffffffffffffffffffffffffffffffffffffff1603610ded576040517fea553b3400000000000000000000000000000000000000000000000000000000815260040160405180910390fd5b610dfa8585856001611675565b610e0660008487610b88565b6001600560008773ffffffffffffffffffffffffffffffffffffffff1673ffffffffffffffffffffffffffffffffffffffff16815260200190815260200160002060000160008282829054906101000a900467ffffffffffffffff160392506101000a81548167ffffffffffffffff021916908367ffffffffffffffff1602179055506001600560008673ffffffffffffffffffffffffffffffffffffffff1673ffffffffffffffffffffffffffffffffffffffff16815260200190815260200160002060000160008282829054906101000a900467ffffffffffffffff160192506101000a81548167ffffffffffffffff021916908367ffffffffffffffff1602179055506000600460008581526020019081526020016000209050848160000160006101000a81548173ffffffffffffffffffffffffffffffffffffffff021916908373ffffffffffffffffffffffffffffffffffffffff160217905550428160000160146101000a81548167ffffffffffffffff021916908367ffffffffffffffff16021790555060006001850190506000600460008381526020019081526020016000209050600073ffffffffffffffffffffffffffffffffffffffff168160000160009054906101000a900473ffffffffffffffffffffffffffffffffffffffff1673ffffffffffffffffffffffffffffffffffffffff160361108557600054821461108457878160000160006101000a81548173ffffffffffffffffffffffffffffffffffffffff021916908373ffffffffffffffffffffffffffffffffffffffff16021790555084602001518160000160146101000a81548167ffffffffffffffff021916908367ffffffffffffffff1602179055505b5b505050828473ffffffffffffffffffffffffffffffffffffffff168673ffffffffffffffffffffffffffffffffffffffff167fddf252ad1be2c89b69c2b068fc378daa952ba7f163c4a11628f55a4df523b3ef60405160405180910390a46110f0858585600161167b565b5050505050565b6110ff611681565b60008290508061110d610c3a565b1161134b5760005481101561134a576000600460008381526020019081526020016000206040518060600160405290816000820160009054906101000a900473ffffffffffffffffffffffffffffffffffffffff1673ffffffffffffffffffffffffffffffffffffffff1673ffffffffffffffffffffffffffffffffffffffff1681526020016000820160149054906101000a900467ffffffffffffffff1667ffffffffffffffff1667ffffffffffffffff16815260200160008201601c9054906101000a900460ff1615151515815250509050806040015161134857600073ffffffffffffffffffffffffffffffffffffffff16816000015173ffffffffffffffffffffffffffffffffffffffff161461122c57809250505061137d565b5b60011561134757818060019003925050600460008381526020019081526020016000206040518060600160405290816000820160009054906101000a900473ffffffffffffffffffffffffffffffffffffffff1673ffffffffffffffffffffffffffffffffffffffff1673ffffffffffffffffffffffffffffffffffffffff1681526020016000820160149054906101000a900467ffffffffffffffff1667ffffffffffffffff1667ffffffffffffffff16815260200160008201601c9054906101000a900460ff1615151515815250509050600073ffffffffffffffffffffffffffffffffffffffff16816000015173ffffffffffffffffffffffffffffffffffffffff161461134257809250505061137d565b61122d565b5b505b5b6040517fdf2d9b4200000000000000000000000000000000000000000000000000000000815260040160405180910390fd5b919050565b6000808273ffffffffffffffffffffffffffffffffffffffff163b119050919050565b60008373ffffffffffffffffffffffffffffffffffffffff1663150b7a026113cb610b80565b8786866040518563ffffffff1660e01b81526004016113ed9493929190611d9c565b6020604051808303816000875af192505050801561142957506040513d601f19601f820116820180604052508101906114269190611dfd565b60015b6114a2573d8060008114611459576040519150601f19603f3d011682016040523d82523d6000602084013e61145e565b606091505b50600081510361149a576040517fd1a57ed600000000000000000000000000000000000000000000000000000000815260040160405180910390fd5b805181602001fd5b63150b7a0260e01b7bffffffffffffffffffffffffffffffffffffffffffffffffffffffff1916817bffffffffffffffffffffffffffffffffffffffffffffffffffffffff191614915050949350505050565b6060604051806080016040528060518152602001611fec60519139905090565b60606000820361155c576040518060400160405280600181526020017f30000000000000000000000000000000000000000000000000000000000000008152509050611670565b600082905060005b6000821461158e57808061157790611e59565b915050600a826115879190611ed0565b9150611564565b60008167ffffffffffffffff8111156115aa576115a9611a99565b5b6040519080825280601f01601f1916602001820160405280156115dc5781602001600182028036833780820191505090505b5090505b60008514611669576001826115f59190611f01565b9150600a856116049190611f35565b60306116109190611f66565b60f81b81838151811061162657611625611fbc565b5b60200101907effffffffffffffffffffffffffffffffffffffffffffffffffffffffffffff1916908160001a905350600a856116629190611ed0565b94506115e0565b8093505050505b919050565b50505050565b50505050565b6040518060600160405280600073ffffffffffffffffffffffffffffffffffffffff168152602001600067ffffffffffffffff1681526020016000151581525090565b6000604051905090565b600080fd5b600080fd5b60007fffffffff0000000000000000000000000000000000000000000000000000000082169050919050565b61170d816116d8565b811461171857600080fd5b50565b60008135905061172a81611704565b92915050565b600060208284031215611746576117456116ce565b5b60006117548482850161171b565b91505092915050565b60008115159050919050565b6117728161175d565b82525050565b600060208201905061178d6000830184611769565b92915050565b600081519050919050565b600082825260208201905092915050565b60005b838110156117cd5780820151818401526020810190506117b2565b838111156117dc576000848401525b50505050565b6000601f19601f8301169050919050565b60006117fe82611793565b611808818561179e565b93506118188185602086016117af565b611821816117e2565b840191505092915050565b6000602082019050818103600083015261184681846117f3565b905092915050565b6000819050919050565b6118618161184e565b811461186c57600080fd5b50565b60008135905061187e81611858565b92915050565b60006020828403121561189a576118996116ce565b5b60006118a88482850161186f565b91505092915050565b600073ffffffffffffffffffffffffffffffffffffffff82169050919050565b60006118dc826118b1565b9050919050565b6118ec816118d1565b82525050565b600060208201905061190760008301846118e3565b92915050565b611916816118d1565b811461192157600080fd5b50565b6000813590506119338161190d565b92915050565b600080604083850312156119505761194f6116ce565b5b600061195e85828601611924565b925050602061196f8582860161186f565b9150509250929050565b6119828161184e565b82525050565b600060208201905061199d6000830184611979565b92915050565b6000806000606084860312156119bc576119bb6116ce565b5b60006119ca86828701611924565b93505060206119db86828701611924565b92505060406119ec8682870161186f565b9150509250925092565b600060208284031215611a0c57611a0b6116ce565b5b6000611a1a84828501611924565b91505092915050565b611a2c8161175d565b8114611a3757600080fd5b50565b600081359050611a4981611a23565b92915050565b60008060408385031215611a6657611a656116ce565b5b6000611a7485828601611924565b9250506020611a8585828601611a3a565b9150509250929050565b600080fd5b600080fd5b7f4e487b7100000000000000000000000000000000000000000000000000000000600052604160045260246000fd5b611ad1826117e2565b810181811067ffffffffffffffff82111715611af057611aef611a99565b5b80604052505050565b6000611b036116c4565b9050611b0f8282611ac8565b919050565b600067ffffffffffffffff821115611b2f57611b2e611a99565b5b611b38826117e2565b9050602081019050919050565b82818337600083830152505050565b6000611b67611b6284611b14565b611af9565b905082815260208101848484011115611b8357611b82611a94565b5b611b8e848285611b45565b509392505050565b600082601f830112611bab57611baa611a8f565b5b8135611bbb848260208601611b54565b91505092915050565b60008060008060808587031215611bde57611bdd6116ce565b5b6000611bec87828801611924565b9450506020611bfd87828801611924565b9350506040611c0e8782880161186f565b925050606085013567ffffffffffffffff811115611c2f57611c2e6116d3565b5b611c3b87828801611b96565b91505092959194509250565b60008060408385031215611c5e57611c5d6116ce565b5b6000611c6c85828601611924565b9250506020611c7d85828601611924565b9150509250929050565b7f4e487b7100000000000000000000000000000000000000000000000000000000600052602260045260246000fd5b60006002820490506001821680611cce57607f821691505b602082108103611ce157611ce0611c87565b5b50919050565b600081905092915050565b6000611cfd82611793565b611d078185611ce7565b9350611d178185602086016117af565b80840191505092915050565b6000611d2f8285611cf2565b9150611d3b8284611cf2565b91508190509392505050565b600081519050919050565b600082825260208201905092915050565b6000611d6e82611d47565b611d788185611d52565b9350611d888185602086016117af565b611d91816117e2565b840191505092915050565b6000608082019050611db160008301876118e3565b611dbe60208301866118e3565b611dcb6040830185611979565b8181036060830152611ddd8184611d63565b905095945050505050565b600081519050611df781611704565b92915050565b600060208284031215611e1357611e126116ce565b5b6000611e2184828501611de8565b91505092915050565b7f4e487b7100000000000000000000000000000000000000000000000000000000600052601160045260246000fd5b6000611e648261184e565b91507fffffffffffffffffffffffffffffffffffffffffffffffffffffffffffffffff8203611e9657611e95611e2a565b5b600182019050919050565b7f4e487b7100000000000000000000000000000000000000000000000000000000600052601260045260246000fd5b6000611edb8261184e565b9150611ee68361184e565b925082611ef657611ef5611ea1565b5b828204905092915050565b6000611f0c8261184e565b9150611f178361184e565b925082821015611f2a57611f29611e2a565b5b828203905092915050565b6000611f408261184e565b9150611f4b8361184e565b925082611f5b57611f5a611ea1565b5b828206905092915050565b6000611f718261184e565b9150611f7c8361184e565b9250827fffffffffffffffffffffffffffffffffffffffffffffffffffffffffffffffff03821115611fb157611fb0611e2a565b5b828201905092915050565b7f4e487b7100000000000000000000000000000000000000000000000000000000600052603260045260246000fdfe68747470733a2f2f676174657761792e70696e6174612e636c6f75642f697066732f516d6648576b7454625354424e4c7777385a446832716335444b71695a63696b6e6f7137365a665872736f5231762fa26469706673582212203f36f08820323261e7614bc6ed10b095a5c9c9496d1e0f94b7af74180b50eca964736f6c634300080d0033",
					"opcodes": "PUSH1 0x80 PUSH1 0x40 MSTORE CALLVALUE DUP1 ISZERO PUSH3 0x11 JUMPI PUSH1 0x0 DUP1 REVERT JUMPDEST POP PUSH1 0x40 MLOAD PUSH3 0x2448 CODESIZE SUB DUP1 PUSH3 0x2448 DUP4 CODECOPY DUP2 DUP2 ADD PUSH1 0x40 MSTORE DUP2 ADD SWAP1 PUSH3 0x37 SWAP2 SWAP1 PUSH3 0x2DD JUMP JUMPDEST DUP2 PUSH1 0x2 SWAP1 DUP1 MLOAD SWAP1 PUSH1 0x20 ADD SWAP1 PUSH3 0x4F SWAP3 SWAP2 SWAP1 PUSH3 0x90 JUMP JUMPDEST POP DUP1 PUSH1 0x3 SWAP1 DUP1 MLOAD SWAP1 PUSH1 0x20 ADD SWAP1 PUSH3 0x68 SWAP3 SWAP2 SWAP1 PUSH3 0x90 JUMP JUMPDEST POP PUSH3 0x79 PUSH3 0x87 PUSH1 0x20 SHL PUSH1 0x20 SHR JUMP JUMPDEST PUSH1 0x0 DUP2 SWAP1 SSTORE POP POP POP PUSH3 0x3C6 JUMP JUMPDEST PUSH1 0x0 PUSH1 0x1 SWAP1 POP SWAP1 JUMP JUMPDEST DUP3 DUP1 SLOAD PUSH3 0x9E SWAP1 PUSH3 0x391 JUMP JUMPDEST SWAP1 PUSH1 0x0 MSTORE PUSH1 0x20 PUSH1 0x0 KECCAK256 SWAP1 PUSH1 0x1F ADD PUSH1 0x20 SWAP1 DIV DUP2 ADD SWAP3 DUP3 PUSH3 0xC2 JUMPI PUSH1 0x0 DUP6 SSTORE PUSH3 0x10E JUMP JUMPDEST DUP3 PUSH1 0x1F LT PUSH3 0xDD JUMPI DUP1 MLOAD PUSH1 0xFF NOT AND DUP4 DUP1 ADD OR DUP6 SSTORE PUSH3 0x10E JUMP JUMPDEST DUP3 DUP1 ADD PUSH1 0x1 ADD DUP6 SSTORE DUP3 ISZERO PUSH3 0x10E JUMPI SWAP2 DUP3 ADD JUMPDEST DUP3 DUP2 GT ISZERO PUSH3 0x10D JUMPI DUP3 MLOAD DUP3 SSTORE SWAP2 PUSH1 0x20 ADD SWAP2 SWAP1 PUSH1 0x1 ADD SWAP1 PUSH3 0xF0 JUMP JUMPDEST JUMPDEST POP SWAP1 POP PUSH3 0x11D SWAP2 SWAP1 PUSH3 0x121 JUMP JUMPDEST POP SWAP1 JUMP JUMPDEST JUMPDEST DUP1 DUP3 GT ISZERO PUSH3 0x13C JUMPI PUSH1 0x0 DUP2 PUSH1 0x0 SWAP1 SSTORE POP PUSH1 0x1 ADD PUSH3 0x122 JUMP JUMPDEST POP SWAP1 JUMP JUMPDEST PUSH1 0x0 PUSH1 0x40 MLOAD SWAP1 POP SWAP1 JUMP JUMPDEST PUSH1 0x0 DUP1 REVERT JUMPDEST PUSH1 0x0 DUP1 REVERT JUMPDEST PUSH1 0x0 DUP1 REVERT JUMPDEST PUSH1 0x0 DUP1 REVERT JUMPDEST PUSH1 0x0 PUSH1 0x1F NOT PUSH1 0x1F DUP4 ADD AND SWAP1 POP SWAP2 SWAP1 POP JUMP JUMPDEST PUSH32 0x4E487B7100000000000000000000000000000000000000000000000000000000 PUSH1 0x0 MSTORE PUSH1 0x41 PUSH1 0x4 MSTORE PUSH1 0x24 PUSH1 0x0 REVERT JUMPDEST PUSH3 0x1A9 DUP3 PUSH3 0x15E JUMP JUMPDEST DUP2 ADD DUP2 DUP2 LT PUSH8 0xFFFFFFFFFFFFFFFF DUP3 GT OR ISZERO PUSH3 0x1CB JUMPI PUSH3 0x1CA PUSH3 0x16F JUMP JUMPDEST JUMPDEST DUP1 PUSH1 0x40 MSTORE POP POP POP JUMP JUMPDEST PUSH1 0x0 PUSH3 0x1E0 PUSH3 0x140 JUMP JUMPDEST SWAP1 POP PUSH3 0x1EE DUP3 DUP3 PUSH3 0x19E JUMP JUMPDEST SWAP2 SWAP1 POP JUMP JUMPDEST PUSH1 0x0 PUSH8 0xFFFFFFFFFFFFFFFF DUP3 GT ISZERO PUSH3 0x211 JUMPI PUSH3 0x210 PUSH3 0x16F JUMP JUMPDEST JUMPDEST PUSH3 0x21C DUP3 PUSH3 0x15E JUMP JUMPDEST SWAP1 POP PUSH1 0x20 DUP2 ADD SWAP1 POP SWAP2 SWAP1 POP JUMP JUMPDEST PUSH1 0x0 JUMPDEST DUP4 DUP2 LT ISZERO PUSH3 0x249 JUMPI DUP1 DUP3 ADD MLOAD DUP2 DUP5 ADD MSTORE PUSH1 0x20 DUP2 ADD SWAP1 POP PUSH3 0x22C JUMP JUMPDEST DUP4 DUP2 GT ISZERO PUSH3 0x259 JUMPI PUSH1 0x0 DUP5 DUP5 ADD MSTORE JUMPDEST POP POP POP POP JUMP JUMPDEST PUSH1 0x0 PUSH3 0x276 PUSH3 0x270 DUP5 PUSH3 0x1F3 JUMP JUMPDEST PUSH3 0x1D4 JUMP JUMPDEST SWAP1 POP DUP3 DUP2 MSTORE PUSH1 0x20 DUP2 ADD DUP5 DUP5 DUP5 ADD GT ISZERO PUSH3 0x295 JUMPI PUSH3 0x294 PUSH3 0x159 JUMP JUMPDEST JUMPDEST PUSH3 0x2A2 DUP5 DUP3 DUP6 PUSH3 0x229 JUMP JUMPDEST POP SWAP4 SWAP3 POP POP POP JUMP JUMPDEST PUSH1 0x0 DUP3 PUSH1 0x1F DUP4 ADD SLT PUSH3 0x2C2 JUMPI PUSH3 0x2C1 PUSH3 0x154 JUMP JUMPDEST JUMPDEST DUP2 MLOAD PUSH3 0x2D4 DUP5 DUP3 PUSH1 0x20 DUP7 ADD PUSH3 0x25F JUMP JUMPDEST SWAP2 POP POP SWAP3 SWAP2 POP POP JUMP JUMPDEST PUSH1 0x0 DUP1 PUSH1 0x40 DUP4 DUP6 SUB SLT ISZERO PUSH3 0x2F7 JUMPI PUSH3 0x2F6 PUSH3 0x14A JUMP JUMPDEST JUMPDEST PUSH1 0x0 DUP4 ADD MLOAD PUSH8 0xFFFFFFFFFFFFFFFF DUP2 GT ISZERO PUSH3 0x318 JUMPI PUSH3 0x317 PUSH3 0x14F JUMP JUMPDEST JUMPDEST PUSH3 0x326 DUP6 DUP3 DUP7 ADD PUSH3 0x2AA JUMP JUMPDEST SWAP3 POP POP PUSH1 0x20 DUP4 ADD MLOAD PUSH8 0xFFFFFFFFFFFFFFFF DUP2 GT ISZERO PUSH3 0x34A JUMPI PUSH3 0x349 PUSH3 0x14F JUMP JUMPDEST JUMPDEST PUSH3 0x358 DUP6 DUP3 DUP7 ADD PUSH3 0x2AA JUMP JUMPDEST SWAP2 POP POP SWAP3 POP SWAP3 SWAP1 POP JUMP JUMPDEST PUSH32 0x4E487B7100000000000000000000000000000000000000000000000000000000 PUSH1 0x0 MSTORE PUSH1 0x22 PUSH1 0x4 MSTORE PUSH1 0x24 PUSH1 0x0 REVERT JUMPDEST PUSH1 0x0 PUSH1 0x2 DUP3 DIV SWAP1 POP PUSH1 0x1 DUP3 AND DUP1 PUSH3 0x3AA JUMPI PUSH1 0x7F DUP3 AND SWAP2 POP JUMPDEST PUSH1 0x20 DUP3 LT DUP2 SUB PUSH3 0x3C0 JUMPI PUSH3 0x3BF PUSH3 0x362 JUMP JUMPDEST JUMPDEST POP SWAP2 SWAP1 POP JUMP JUMPDEST PUSH2 0x2072 DUP1 PUSH3 0x3D6 PUSH1 0x0 CODECOPY PUSH1 0x0 RETURN INVALID PUSH1 0x80 PUSH1 0x40 MSTORE CALLVALUE DUP1 ISZERO PUSH2 0x10 JUMPI PUSH1 0x0 DUP1 REVERT JUMPDEST POP PUSH1 0x4 CALLDATASIZE LT PUSH2 0xEA JUMPI PUSH1 0x0 CALLDATALOAD PUSH1 0xE0 SHR DUP1 PUSH4 0x6352211E GT PUSH2 0x8C JUMPI DUP1 PUSH4 0xA22CB465 GT PUSH2 0x66 JUMPI DUP1 PUSH4 0xA22CB465 EQ PUSH2 0x25D JUMPI DUP1 PUSH4 0xB88D4FDE EQ PUSH2 0x279 JUMPI DUP1 PUSH4 0xC87B56DD EQ PUSH2 0x295 JUMPI DUP1 PUSH4 0xE985E9C5 EQ PUSH2 0x2C5 JUMPI PUSH2 0xEA JUMP JUMPDEST DUP1 PUSH4 0x6352211E EQ PUSH2 0x1DF JUMPI DUP1 PUSH4 0x70A08231 EQ PUSH2 0x20F JUMPI DUP1 PUSH4 0x95D89B41 EQ PUSH2 0x23F JUMPI PUSH2 0xEA JUMP JUMPDEST DUP1 PUSH4 0x95EA7B3 GT PUSH2 0xC8 JUMPI DUP1 PUSH4 0x95EA7B3 EQ PUSH2 0x16D JUMPI DUP1 PUSH4 0x18160DDD EQ PUSH2 0x189 JUMPI DUP1 PUSH4 0x23B872DD EQ PUSH2 0x1A7 JUMPI DUP1 PUSH4 0x42842E0E EQ PUSH2 0x1C3 JUMPI PUSH2 0xEA JUMP JUMPDEST DUP1 PUSH4 0x1FFC9A7 EQ PUSH2 0xEF JUMPI DUP1 PUSH4 0x6FDDE03 EQ PUSH2 0x11F JUMPI DUP1 PUSH4 0x81812FC EQ PUSH2 0x13D JUMPI JUMPDEST PUSH1 0x0 DUP1 REVERT JUMPDEST PUSH2 0x109 PUSH1 0x4 DUP1 CALLDATASIZE SUB DUP2 ADD SWAP1 PUSH2 0x104 SWAP2 SWAP1 PUSH2 0x1730 JUMP JUMPDEST PUSH2 0x2F5 JUMP JUMPDEST PUSH1 0x40 MLOAD PUSH2 0x116 SWAP2 SWAP1 PUSH2 0x1778 JUMP JUMPDEST PUSH1 0x40 MLOAD DUP1 SWAP2 SUB SWAP1 RETURN JUMPDEST PUSH2 0x127 PUSH2 0x3D7 JUMP JUMPDEST PUSH1 0x40 MLOAD PUSH2 0x134 SWAP2 SWAP1 PUSH2 0x182C JUMP JUMPDEST PUSH1 0x40 MLOAD DUP1 SWAP2 SUB SWAP1 RETURN JUMPDEST PUSH2 0x157 PUSH1 0x4 DUP1 CALLDATASIZE SUB DUP2 ADD SWAP1 PUSH2 0x152 SWAP2 SWAP1 PUSH2 0x1884 JUMP JUMPDEST PUSH2 0x469 JUMP JUMPDEST PUSH1 0x40 MLOAD PUSH2 0x164 SWAP2 SWAP1 PUSH2 0x18F2 JUMP JUMPDEST PUSH1 0x40 MLOAD DUP1 SWAP2 SUB SWAP1 RETURN JUMPDEST PUSH2 0x187 PUSH1 0x4 DUP1 CALLDATASIZE SUB DUP2 ADD SWAP1 PUSH2 0x182 SWAP2 SWAP1 PUSH2 0x1939 JUMP JUMPDEST PUSH2 0x4E5 JUMP JUMPDEST STOP JUMPDEST PUSH2 0x191 PUSH2 0x5E9 JUMP JUMPDEST PUSH1 0x40 MLOAD PUSH2 0x19E SWAP2 SWAP1 PUSH2 0x1988 JUMP JUMPDEST PUSH1 0x40 MLOAD DUP1 SWAP2 SUB SWAP1 RETURN JUMPDEST PUSH2 0x1C1 PUSH1 0x4 DUP1 CALLDATASIZE SUB DUP2 ADD SWAP1 PUSH2 0x1BC SWAP2 SWAP1 PUSH2 0x19A3 JUMP JUMPDEST PUSH2 0x600 JUMP JUMPDEST STOP JUMPDEST PUSH2 0x1DD PUSH1 0x4 DUP1 CALLDATASIZE SUB DUP2 ADD SWAP1 PUSH2 0x1D8 SWAP2 SWAP1 PUSH2 0x19A3 JUMP JUMPDEST PUSH2 0x610 JUMP JUMPDEST STOP JUMPDEST PUSH2 0x1F9 PUSH1 0x4 DUP1 CALLDATASIZE SUB DUP2 ADD SWAP1 PUSH2 0x1F4 SWAP2 SWAP1 PUSH2 0x1884 JUMP JUMPDEST PUSH2 0x630 JUMP JUMPDEST PUSH1 0x40 MLOAD PUSH2 0x206 SWAP2 SWAP1 PUSH2 0x18F2 JUMP JUMPDEST PUSH1 0x40 MLOAD DUP1 SWAP2 SUB SWAP1 RETURN JUMPDEST PUSH2 0x229 PUSH1 0x4 DUP1 CALLDATASIZE SUB DUP2 ADD SWAP1 PUSH2 0x224 SWAP2 SWAP1 PUSH2 0x19F6 JUMP JUMPDEST PUSH2 0x646 JUMP JUMPDEST PUSH1 0x40 MLOAD PUSH2 0x236 SWAP2 SWAP1 PUSH2 0x1988 JUMP JUMPDEST PUSH1 0x40 MLOAD DUP1 SWAP2 SUB SWAP1 RETURN JUMPDEST PUSH2 0x247 PUSH2 0x715 JUMP JUMPDEST PUSH1 0x40 MLOAD PUSH2 0x254 SWAP2 SWAP1 PUSH2 0x182C JUMP JUMPDEST PUSH1 0x40 MLOAD DUP1 SWAP2 SUB SWAP1 RETURN JUMPDEST PUSH2 0x277 PUSH1 0x4 DUP1 CALLDATASIZE SUB DUP2 ADD SWAP1 PUSH2 0x272 SWAP2 SWAP1 PUSH2 0x1A4F JUMP JUMPDEST PUSH2 0x7A7 JUMP JUMPDEST STOP JUMPDEST PUSH2 0x293 PUSH1 0x4 DUP1 CALLDATASIZE SUB DUP2 ADD SWAP1 PUSH2 0x28E SWAP2 SWAP1 PUSH2 0x1BC4 JUMP JUMPDEST PUSH2 0x91E JUMP JUMPDEST STOP JUMPDEST PUSH2 0x2AF PUSH1 0x4 DUP1 CALLDATASIZE SUB DUP2 ADD SWAP1 PUSH2 0x2AA SWAP2 SWAP1 PUSH2 0x1884 JUMP JUMPDEST PUSH2 0x996 JUMP JUMPDEST PUSH1 0x40 MLOAD PUSH2 0x2BC SWAP2 SWAP1 PUSH2 0x182C JUMP JUMPDEST PUSH1 0x40 MLOAD DUP1 SWAP2 SUB SWAP1 RETURN JUMPDEST PUSH2 0x2DF PUSH1 0x4 DUP1 CALLDATASIZE SUB DUP2 ADD SWAP1 PUSH2 0x2DA SWAP2 SWAP1 PUSH2 0x1C47 JUMP JUMPDEST PUSH2 0xA34 JUMP JUMPDEST PUSH1 0x40 MLOAD PUSH2 0x2EC SWAP2 SWAP1 PUSH2 0x1778 JUMP JUMPDEST PUSH1 0x40 MLOAD DUP1 SWAP2 SUB SWAP1 RETURN JUMPDEST PUSH1 0x0 PUSH32 0x80AC58CD00000000000000000000000000000000000000000000000000000000 PUSH28 0xFFFFFFFFFFFFFFFFFFFFFFFFFFFFFFFFFFFFFFFFFFFFFFFFFFFFFFFF NOT AND DUP3 PUSH28 0xFFFFFFFFFFFFFFFFFFFFFFFFFFFFFFFFFFFFFFFFFFFFFFFFFFFFFFFF NOT AND EQ DUP1 PUSH2 0x3C0 JUMPI POP PUSH32 0x5B5E139F00000000000000000000000000000000000000000000000000000000 PUSH28 0xFFFFFFFFFFFFFFFFFFFFFFFFFFFFFFFFFFFFFFFFFFFFFFFFFFFFFFFF NOT AND DUP3 PUSH28 0xFFFFFFFFFFFFFFFFFFFFFFFFFFFFFFFFFFFFFFFFFFFFFFFFFFFFFFFF NOT AND EQ JUMPDEST DUP1 PUSH2 0x3D0 JUMPI POP PUSH2 0x3CF DUP3 PUSH2 0xAC8 JUMP JUMPDEST JUMPDEST SWAP1 POP SWAP2 SWAP1 POP JUMP JUMPDEST PUSH1 0x60 PUSH1 0x2 DUP1 SLOAD PUSH2 0x3E6 SWAP1 PUSH2 0x1CB6 JUMP JUMPDEST DUP1 PUSH1 0x1F ADD PUSH1 0x20 DUP1 SWAP2 DIV MUL PUSH1 0x20 ADD PUSH1 0x40 MLOAD SWAP1 DUP2 ADD PUSH1 0x40 MSTORE DUP1 SWAP3 SWAP2 SWAP1 DUP2 DUP2 MSTORE PUSH1 0x20 ADD DUP3 DUP1 SLOAD PUSH2 0x412 SWAP1 PUSH2 0x1CB6 JUMP JUMPDEST DUP1 ISZERO PUSH2 0x45F JUMPI DUP1 PUSH1 0x1F LT PUSH2 0x434 JUMPI PUSH2 0x100 DUP1 DUP4 SLOAD DIV MUL DUP4 MSTORE SWAP2 PUSH1 0x20 ADD SWAP2 PUSH2 0x45F JUMP JUMPDEST DUP3 ADD SWAP2 SWAP1 PUSH1 0x0 MSTORE PUSH1 0x20 PUSH1 0x0 KECCAK256 SWAP1 JUMPDEST DUP2 SLOAD DUP2 MSTORE SWAP1 PUSH1 0x1 ADD SWAP1 PUSH1 0x20 ADD DUP1 DUP4 GT PUSH2 0x442 JUMPI DUP3 SWAP1 SUB PUSH1 0x1F AND DUP3 ADD SWAP2 JUMPDEST POP POP POP POP POP SWAP1 POP SWAP1 JUMP JUMPDEST PUSH1 0x0 PUSH2 0x474 DUP3 PUSH2 0xB32 JUMP JUMPDEST PUSH2 0x4AA JUMPI PUSH1 0x40 MLOAD PUSH32 0xCF4700E400000000000000000000000000000000000000000000000000000000 DUP2 MSTORE PUSH1 0x4 ADD PUSH1 0x40 MLOAD DUP1 SWAP2 SUB SWAP1 REVERT JUMPDEST PUSH1 0x6 PUSH1 0x0 DUP4 DUP2 MSTORE PUSH1 0x20 ADD SWAP1 DUP2 MSTORE PUSH1 0x20 ADD PUSH1 0x0 KECCAK256 PUSH1 0x0 SWAP1 SLOAD SWAP1 PUSH2 0x100 EXP SWAP1 DIV PUSH20 0xFFFFFFFFFFFFFFFFFFFFFFFFFFFFFFFFFFFFFFFF AND SWAP1 POP SWAP2 SWAP1 POP JUMP JUMPDEST PUSH1 0x0 PUSH2 0x4F0 DUP3 PUSH2 0x630 JUMP JUMPDEST SWAP1 POP DUP1 PUSH20 0xFFFFFFFFFFFFFFFFFFFFFFFFFFFFFFFFFFFFFFFF AND DUP4 PUSH20 0xFFFFFFFFFFFFFFFFFFFFFFFFFFFFFFFFFFFFFFFF AND SUB PUSH2 0x557 JUMPI PUSH1 0x40 MLOAD PUSH32 0x943F7B8C00000000000000000000000000000000000000000000000000000000 DUP2 MSTORE PUSH1 0x4 ADD PUSH1 0x40 MLOAD DUP1 SWAP2 SUB SWAP1 REVERT JUMPDEST DUP1 PUSH20 0xFFFFFFFFFFFFFFFFFFFFFFFFFFFFFFFFFFFFFFFF AND PUSH2 0x576 PUSH2 0xB80 JUMP JUMPDEST PUSH20 0xFFFFFFFFFFFFFFFFFFFFFFFFFFFFFFFFFFFFFFFF AND EQ PUSH2 0x5D9 JUMPI PUSH2 0x5A2 DUP2 PUSH2 0x59D PUSH2 0xB80 JUMP JUMPDEST PUSH2 0xA34 JUMP JUMPDEST PUSH2 0x5D8 JUMPI PUSH1 0x40 MLOAD PUSH32 0xCFB3B94200000000000000000000000000000000000000000000000000000000 DUP2 MSTORE PUSH1 0x4 ADD PUSH1 0x40 MLOAD DUP1 SWAP2 SUB SWAP1 REVERT JUMPDEST JUMPDEST PUSH2 0x5E4 DUP4 DUP4 DUP4 PUSH2 0xB88 JUMP JUMPDEST POP POP POP JUMP JUMPDEST PUSH1 0x0 PUSH2 0x5F3 PUSH2 0xC3A JUMP JUMPDEST PUSH1 0x1 SLOAD PUSH1 0x0 SLOAD SUB SUB SWAP1 POP SWAP1 JUMP JUMPDEST PUSH2 0x60B DUP4 DUP4 DUP4 PUSH2 0xC43 JUMP JUMPDEST POP POP POP JUMP JUMPDEST PUSH2 0x62B DUP4 DUP4 DUP4 PUSH1 0x40 MLOAD DUP1 PUSH1 0x20 ADD PUSH1 0x40 MSTORE DUP1 PUSH1 0x0 DUP2 MSTORE POP PUSH2 0x91E JUMP JUMPDEST POP POP POP JUMP JUMPDEST PUSH1 0x0 PUSH2 0x63B DUP3 PUSH2 0x10F7 JUMP JUMPDEST PUSH1 0x0 ADD MLOAD SWAP1 POP SWAP2 SWAP1 POP JUMP JUMPDEST PUSH1 0x0 DUP1 PUSH20 0xFFFFFFFFFFFFFFFFFFFFFFFFFFFFFFFFFFFFFFFF AND DUP3 PUSH20 0xFFFFFFFFFFFFFFFFFFFFFFFFFFFFFFFFFFFFFFFF AND SUB PUSH2 0x6AD JUMPI PUSH1 0x40 MLOAD PUSH32 0x8F4EB60400000000000000000000000000000000000000000000000000000000 DUP2 MSTORE PUSH1 0x4 ADD PUSH1 0x40 MLOAD DUP1 SWAP2 SUB SWAP1 REVERT JUMPDEST PUSH1 0x5 PUSH1 0x0 DUP4 PUSH20 0xFFFFFFFFFFFFFFFFFFFFFFFFFFFFFFFFFFFFFFFF AND PUSH20 0xFFFFFFFFFFFFFFFFFFFFFFFFFFFFFFFFFFFFFFFF AND DUP2 MSTORE PUSH1 0x20 ADD SWAP1 DUP2 MSTORE PUSH1 0x20 ADD PUSH1 0x0 KECCAK256 PUSH1 0x0 ADD PUSH1 0x0 SWAP1 SLOAD SWAP1 PUSH2 0x100 EXP SWAP1 DIV PUSH8 0xFFFFFFFFFFFFFFFF AND PUSH8 0xFFFFFFFFFFFFFFFF AND SWAP1 POP SWAP2 SWAP1 POP JUMP JUMPDEST PUSH1 0x60 PUSH1 0x3 DUP1 SLOAD PUSH2 0x724 SWAP1 PUSH2 0x1CB6 JUMP JUMPDEST DUP1 PUSH1 0x1F ADD PUSH1 0x20 DUP1 SWAP2 DIV MUL PUSH1 0x20 ADD PUSH1 0x40 MLOAD SWAP1 DUP2 ADD PUSH1 0x40 MSTORE DUP1 SWAP3 SWAP2 SWAP1 DUP2 DUP2 MSTORE PUSH1 0x20 ADD DUP3 DUP1 SLOAD PUSH2 0x750 SWAP1 PUSH2 0x1CB6 JUMP JUMPDEST DUP1 ISZERO PUSH2 0x79D JUMPI DUP1 PUSH1 0x1F LT PUSH2 0x772 JUMPI PUSH2 0x100 DUP1 DUP4 SLOAD DIV MUL DUP4 MSTORE SWAP2 PUSH1 0x20 ADD SWAP2 PUSH2 0x79D JUMP JUMPDEST DUP3 ADD SWAP2 SWAP1 PUSH1 0x0 MSTORE PUSH1 0x20 PUSH1 0x0 KECCAK256 SWAP1 JUMPDEST DUP2 SLOAD DUP2 MSTORE SWAP1 PUSH1 0x1 ADD SWAP1 PUSH1 0x20 ADD DUP1 DUP4 GT PUSH2 0x780 JUMPI DUP3 SWAP1 SUB PUSH1 0x1F AND DUP3 ADD SWAP2 JUMPDEST POP POP POP POP POP SWAP1 POP SWAP1 JUMP JUMPDEST PUSH2 0x7AF PUSH2 0xB80 JUMP JUMPDEST PUSH20 0xFFFFFFFFFFFFFFFFFFFFFFFFFFFFFFFFFFFFFFFF AND DUP3 PUSH20 0xFFFFFFFFFFFFFFFFFFFFFFFFFFFFFFFFFFFFFFFF AND SUB PUSH2 0x813 JUMPI PUSH1 0x40 MLOAD PUSH32 0xB06307DB00000000000000000000000000000000000000000000000000000000 DUP2 MSTORE PUSH1 0x4 ADD PUSH1 0x40 MLOAD DUP1 SWAP2 SUB SWAP1 REVERT JUMPDEST DUP1 PUSH1 0x7 PUSH1 0x0 PUSH2 0x820 PUSH2 0xB80 JUMP JUMPDEST PUSH20 0xFFFFFFFFFFFFFFFFFFFFFFFFFFFFFFFFFFFFFFFF AND PUSH20 0xFFFFFFFFFFFFFFFFFFFFFFFFFFFFFFFFFFFFFFFF AND DUP2 MSTORE PUSH1 0x20 ADD SWAP1 DUP2 MSTORE PUSH1 0x20 ADD PUSH1 0x0 KECCAK256 PUSH1 0x0 DUP5 PUSH20 0xFFFFFFFFFFFFFFFFFFFFFFFFFFFFFFFFFFFFFFFF AND PUSH20 0xFFFFFFFFFFFFFFFFFFFFFFFFFFFFFFFFFFFFFFFF AND DUP2 MSTORE PUSH1 0x20 ADD SWAP1 DUP2 MSTORE PUSH1 0x20 ADD PUSH1 0x0 KECCAK256 PUSH1 0x0 PUSH2 0x100 EXP DUP2 SLOAD DUP2 PUSH1 0xFF MUL NOT AND SWAP1 DUP4 ISZERO ISZERO MUL OR SWAP1 SSTORE POP DUP2 PUSH20 0xFFFFFFFFFFFFFFFFFFFFFFFFFFFFFFFFFFFFFFFF AND PUSH2 0x8CD PUSH2 0xB80 JUMP JUMPDEST PUSH20 0xFFFFFFFFFFFFFFFFFFFFFFFFFFFFFFFFFFFFFFFF AND PUSH32 0x17307EAB39AB6107E8899845AD3D59BD9653F200F220920489CA2B5937696C31 DUP4 PUSH1 0x40 MLOAD PUSH2 0x912 SWAP2 SWAP1 PUSH2 0x1778 JUMP JUMPDEST PUSH1 0x40 MLOAD DUP1 SWAP2 SUB SWAP1 LOG3 POP POP JUMP JUMPDEST PUSH2 0x929 DUP5 DUP5 DUP5 PUSH2 0xC43 JUMP JUMPDEST PUSH2 0x948 DUP4 PUSH20 0xFFFFFFFFFFFFFFFFFFFFFFFFFFFFFFFFFFFFFFFF AND PUSH2 0x1382 JUMP JUMPDEST ISZERO PUSH2 0x990 JUMPI PUSH2 0x959 DUP5 DUP5 DUP5 DUP5 PUSH2 0x13A5 JUMP JUMPDEST PUSH2 0x98F JUMPI PUSH1 0x40 MLOAD PUSH32 0xD1A57ED600000000000000000000000000000000000000000000000000000000 DUP2 MSTORE PUSH1 0x4 ADD PUSH1 0x40 MLOAD DUP1 SWAP2 SUB SWAP1 REVERT JUMPDEST JUMPDEST POP POP POP POP JUMP JUMPDEST PUSH1 0x60 PUSH2 0x9A1 DUP3 PUSH2 0xB32 JUMP JUMPDEST PUSH2 0x9D7 JUMPI PUSH1 0x40 MLOAD PUSH32 0xA14C4B5000000000000000000000000000000000000000000000000000000000 DUP2 MSTORE PUSH1 0x4 ADD PUSH1 0x40 MLOAD DUP1 SWAP2 SUB SWAP1 REVERT JUMPDEST PUSH1 0x0 PUSH2 0x9E1 PUSH2 0x14F5 JUMP JUMPDEST SWAP1 POP PUSH1 0x0 DUP2 MLOAD SUB PUSH2 0xA01 JUMPI PUSH1 0x40 MLOAD DUP1 PUSH1 0x20 ADD PUSH1 0x40 MSTORE DUP1 PUSH1 0x0 DUP2 MSTORE POP PUSH2 0xA2C JUMP JUMPDEST DUP1 PUSH2 0xA0B DUP5 PUSH2 0x1515 JUMP JUMPDEST PUSH1 0x40 MLOAD PUSH1 0x20 ADD PUSH2 0xA1C SWAP3 SWAP2 SWAP1 PUSH2 0x1D23 JUMP JUMPDEST PUSH1 0x40 MLOAD PUSH1 0x20 DUP2 DUP4 SUB SUB DUP2 MSTORE SWAP1 PUSH1 0x40 MSTORE JUMPDEST SWAP2 POP POP SWAP2 SWAP1 POP JUMP JUMPDEST PUSH1 0x0 PUSH1 0x7 PUSH1 0x0 DUP5 PUSH20 0xFFFFFFFFFFFFFFFFFFFFFFFFFFFFFFFFFFFFFFFF AND PUSH20 0xFFFFFFFFFFFFFFFFFFFFFFFFFFFFFFFFFFFFFFFF AND DUP2 MSTORE PUSH1 0x20 ADD SWAP1 DUP2 MSTORE PUSH1 0x20 ADD PUSH1 0x0 KECCAK256 PUSH1 0x0 DUP4 PUSH20 0xFFFFFFFFFFFFFFFFFFFFFFFFFFFFFFFFFFFFFFFF AND PUSH20 0xFFFFFFFFFFFFFFFFFFFFFFFFFFFFFFFFFFFFFFFF AND DUP2 MSTORE PUSH1 0x20 ADD SWAP1 DUP2 MSTORE PUSH1 0x20 ADD PUSH1 0x0 KECCAK256 PUSH1 0x0 SWAP1 SLOAD SWAP1 PUSH2 0x100 EXP SWAP1 DIV PUSH1 0xFF AND SWAP1 POP SWAP3 SWAP2 POP POP JUMP JUMPDEST PUSH1 0x0 PUSH32 0x1FFC9A700000000000000000000000000000000000000000000000000000000 PUSH28 0xFFFFFFFFFFFFFFFFFFFFFFFFFFFFFFFFFFFFFFFFFFFFFFFFFFFFFFFF NOT AND DUP3 PUSH28 0xFFFFFFFFFFFFFFFFFFFFFFFFFFFFFFFFFFFFFFFFFFFFFFFFFFFFFFFF NOT AND EQ SWAP1 POP SWAP2 SWAP1 POP JUMP JUMPDEST PUSH1 0x0 DUP2 PUSH2 0xB3D PUSH2 0xC3A JUMP JUMPDEST GT ISZERO DUP1 ISZERO PUSH2 0xB4C JUMPI POP PUSH1 0x0 SLOAD DUP3 LT JUMPDEST DUP1 ISZERO PUSH2 0xB79 JUMPI POP PUSH1 0x4 PUSH1 0x0 DUP4 DUP2 MSTORE PUSH1 0x20 ADD SWAP1 DUP2 MSTORE PUSH1 0x20 ADD PUSH1 0x0 KECCAK256 PUSH1 0x0 ADD PUSH1 0x1C SWAP1 SLOAD SWAP1 PUSH2 0x100 EXP SWAP1 DIV PUSH1 0xFF AND ISZERO JUMPDEST SWAP1 POP SWAP2 SWAP1 POP JUMP JUMPDEST PUSH1 0x0 CALLER SWAP1 POP SWAP1 JUMP JUMPDEST DUP3 PUSH1 0x6 PUSH1 0x0 DUP5 DUP2 MSTORE PUSH1 0x20 ADD SWAP1 DUP2 MSTORE PUSH1 0x20 ADD PUSH1 0x0 KECCAK256 PUSH1 0x0 PUSH2 0x100 EXP DUP2 SLOAD DUP2 PUSH20 0xFFFFFFFFFFFFFFFFFFFFFFFFFFFFFFFFFFFFFFFF MUL NOT AND SWAP1 DUP4 PUSH20 0xFFFFFFFFFFFFFFFFFFFFFFFFFFFFFFFFFFFFFFFF AND MUL OR SWAP1 SSTORE POP DUP2 DUP4 PUSH20 0xFFFFFFFFFFFFFFFFFFFFFFFFFFFFFFFFFFFFFFFF AND DUP3 PUSH20 0xFFFFFFFFFFFFFFFFFFFFFFFFFFFFFFFFFFFFFFFF AND PUSH32 0x8C5BE1E5EBEC7D5BD14F71427D1E84F3DD0314C0F7B2291E5B200AC8C7C3B925 PUSH1 0x40 MLOAD PUSH1 0x40 MLOAD DUP1 SWAP2 SUB SWAP1 LOG4 POP POP POP JUMP JUMPDEST PUSH1 0x0 PUSH1 0x1 SWAP1 POP SWAP1 JUMP JUMPDEST PUSH1 0x0 PUSH2 0xC4E DUP3 PUSH2 0x10F7 JUMP JUMPDEST SWAP1 POP DUP4 PUSH20 0xFFFFFFFFFFFFFFFFFFFFFFFFFFFFFFFFFFFFFFFF AND DUP2 PUSH1 0x0 ADD MLOAD PUSH20 0xFFFFFFFFFFFFFFFFFFFFFFFFFFFFFFFFFFFFFFFF AND EQ PUSH2 0xCB9 JUMPI PUSH1 0x40 MLOAD PUSH32 0xA114810000000000000000000000000000000000000000000000000000000000 DUP2 MSTORE PUSH1 0x4 ADD PUSH1 0x40 MLOAD DUP1 SWAP2 SUB SWAP1 REVERT JUMPDEST PUSH1 0x0 DUP5 PUSH20 0xFFFFFFFFFFFFFFFFFFFFFFFFFFFFFFFFFFFFFFFF AND PUSH2 0xCDA PUSH2 0xB80 JUMP JUMPDEST PUSH20 0xFFFFFFFFFFFFFFFFFFFFFFFFFFFFFFFFFFFFFFFF AND EQ DUP1 PUSH2 0xD09 JUMPI POP PUSH2 0xD08 DUP6 PUSH2 0xD03 PUSH2 0xB80 JUMP JUMPDEST PUSH2 0xA34 JUMP JUMPDEST JUMPDEST DUP1 PUSH2 0xD4E JUMPI POP PUSH2 0xD17 PUSH2 0xB80 JUMP JUMPDEST PUSH20 0xFFFFFFFFFFFFFFFFFFFFFFFFFFFFFFFFFFFFFFFF AND PUSH2 0xD36 DUP5 PUSH2 0x469 JUMP JUMPDEST PUSH20 0xFFFFFFFFFFFFFFFFFFFFFFFFFFFFFFFFFFFFFFFF AND EQ JUMPDEST SWAP1 POP DUP1 PUSH2 0xD87 JUMPI PUSH1 0x40 MLOAD PUSH32 0x59C896BE00000000000000000000000000000000000000000000000000000000 DUP2 MSTORE PUSH1 0x4 ADD PUSH1 0x40 MLOAD DUP1 SWAP2 SUB SWAP1 REVERT JUMPDEST PUSH1 0x0 PUSH20 0xFFFFFFFFFFFFFFFFFFFFFFFFFFFFFFFFFFFFFFFF AND DUP5 PUSH20 0xFFFFFFFFFFFFFFFFFFFFFFFFFFFFFFFFFFFFFFFF AND SUB PUSH2 0xDED JUMPI PUSH1 0x40 MLOAD PUSH32 0xEA553B3400000000000000000000000000000000000000000000000000000000 DUP2 MSTORE PUSH1 0x4 ADD PUSH1 0x40 MLOAD DUP1 SWAP2 SUB SWAP1 REVERT JUMPDEST PUSH2 0xDFA DUP6 DUP6 DUP6 PUSH1 0x1 PUSH2 0x1675 JUMP JUMPDEST PUSH2 0xE06 PUSH1 0x0 DUP5 DUP8 PUSH2 0xB88 JUMP JUMPDEST PUSH1 0x1 PUSH1 0x5 PUSH1 0x0 DUP8 PUSH20 0xFFFFFFFFFFFFFFFFFFFFFFFFFFFFFFFFFFFFFFFF AND PUSH20 0xFFFFFFFFFFFFFFFFFFFFFFFFFFFFFFFFFFFFFFFF AND DUP2 MSTORE PUSH1 0x20 ADD SWAP1 DUP2 MSTORE PUSH1 0x20 ADD PUSH1 0x0 KECCAK256 PUSH1 0x0 ADD PUSH1 0x0 DUP3 DUP3 DUP3 SWAP1 SLOAD SWAP1 PUSH2 0x100 EXP SWAP1 DIV PUSH8 0xFFFFFFFFFFFFFFFF AND SUB SWAP3 POP PUSH2 0x100 EXP DUP2 SLOAD DUP2 PUSH8 0xFFFFFFFFFFFFFFFF MUL NOT AND SWAP1 DUP4 PUSH8 0xFFFFFFFFFFFFFFFF AND MUL OR SWAP1 SSTORE POP PUSH1 0x1 PUSH1 0x5 PUSH1 0x0 DUP7 PUSH20 0xFFFFFFFFFFFFFFFFFFFFFFFFFFFFFFFFFFFFFFFF AND PUSH20 0xFFFFFFFFFFFFFFFFFFFFFFFFFFFFFFFFFFFFFFFF AND DUP2 MSTORE PUSH1 0x20 ADD SWAP1 DUP2 MSTORE PUSH1 0x20 ADD PUSH1 0x0 KECCAK256 PUSH1 0x0 ADD PUSH1 0x0 DUP3 DUP3 DUP3 SWAP1 SLOAD SWAP1 PUSH2 0x100 EXP SWAP1 DIV PUSH8 0xFFFFFFFFFFFFFFFF AND ADD SWAP3 POP PUSH2 0x100 EXP DUP2 SLOAD DUP2 PUSH8 0xFFFFFFFFFFFFFFFF MUL NOT AND SWAP1 DUP4 PUSH8 0xFFFFFFFFFFFFFFFF AND MUL OR SWAP1 SSTORE POP PUSH1 0x0 PUSH1 0x4 PUSH1 0x0 DUP6 DUP2 MSTORE PUSH1 0x20 ADD SWAP1 DUP2 MSTORE PUSH1 0x20 ADD PUSH1 0x0 KECCAK256 SWAP1 POP DUP5 DUP2 PUSH1 0x0 ADD PUSH1 0x0 PUSH2 0x100 EXP DUP2 SLOAD DUP2 PUSH20 0xFFFFFFFFFFFFFFFFFFFFFFFFFFFFFFFFFFFFFFFF MUL NOT AND SWAP1 DUP4 PUSH20 0xFFFFFFFFFFFFFFFFFFFFFFFFFFFFFFFFFFFFFFFF AND MUL OR SWAP1 SSTORE POP TIMESTAMP DUP2 PUSH1 0x0 ADD PUSH1 0x14 PUSH2 0x100 EXP DUP2 SLOAD DUP2 PUSH8 0xFFFFFFFFFFFFFFFF MUL NOT AND SWAP1 DUP4 PUSH8 0xFFFFFFFFFFFFFFFF AND MUL OR SWAP1 SSTORE POP PUSH1 0x0 PUSH1 0x1 DUP6 ADD SWAP1 POP PUSH1 0x0 PUSH1 0x4 PUSH1 0x0 DUP4 DUP2 MSTORE PUSH1 0x20 ADD SWAP1 DUP2 MSTORE PUSH1 0x20 ADD PUSH1 0x0 KECCAK256 SWAP1 POP PUSH1 0x0 PUSH20 0xFFFFFFFFFFFFFFFFFFFFFFFFFFFFFFFFFFFFFFFF AND DUP2 PUSH1 0x0 ADD PUSH1 0x0 SWAP1 SLOAD SWAP1 PUSH2 0x100 EXP SWAP1 DIV PUSH20 0xFFFFFFFFFFFFFFFFFFFFFFFFFFFFFFFFFFFFFFFF AND PUSH20 0xFFFFFFFFFFFFFFFFFFFFFFFFFFFFFFFFFFFFFFFF AND SUB PUSH2 0x1085 JUMPI PUSH1 0x0 SLOAD DUP3 EQ PUSH2 0x1084 JUMPI DUP8 DUP2 PUSH1 0x0 ADD PUSH1 0x0 PUSH2 0x100 EXP DUP2 SLOAD DUP2 PUSH20 0xFFFFFFFFFFFFFFFFFFFFFFFFFFFFFFFFFFFFFFFF MUL NOT AND SWAP1 DUP4 PUSH20 0xFFFFFFFFFFFFFFFFFFFFFFFFFFFFFFFFFFFFFFFF AND MUL OR SWAP1 SSTORE POP DUP5 PUSH1 0x20 ADD MLOAD DUP2 PUSH1 0x0 ADD PUSH1 0x14 PUSH2 0x100 EXP DUP2 SLOAD DUP2 PUSH8 0xFFFFFFFFFFFFFFFF MUL NOT AND SWAP1 DUP4 PUSH8 0xFFFFFFFFFFFFFFFF AND MUL OR SWAP1 SSTORE POP JUMPDEST JUMPDEST POP POP POP DUP3 DUP5 PUSH20 0xFFFFFFFFFFFFFFFFFFFFFFFFFFFFFFFFFFFFFFFF AND DUP7 PUSH20 0xFFFFFFFFFFFFFFFFFFFFFFFFFFFFFFFFFFFFFFFF AND PUSH32 0xDDF252AD1BE2C89B69C2B068FC378DAA952BA7F163C4A11628F55A4DF523B3EF PUSH1 0x40 MLOAD PUSH1 0x40 MLOAD DUP1 SWAP2 SUB SWAP1 LOG4 PUSH2 0x10F0 DUP6 DUP6 DUP6 PUSH1 0x1 PUSH2 0x167B JUMP JUMPDEST POP POP POP POP POP JUMP JUMPDEST PUSH2 0x10FF PUSH2 0x1681 JUMP JUMPDEST PUSH1 0x0 DUP3 SWAP1 POP DUP1 PUSH2 0x110D PUSH2 0xC3A JUMP JUMPDEST GT PUSH2 0x134B JUMPI PUSH1 0x0 SLOAD DUP2 LT ISZERO PUSH2 0x134A JUMPI PUSH1 0x0 PUSH1 0x4 PUSH1 0x0 DUP4 DUP2 MSTORE PUSH1 0x20 ADD SWAP1 DUP2 MSTORE PUSH1 0x20 ADD PUSH1 0x0 KECCAK256 PUSH1 0x40 MLOAD DUP1 PUSH1 0x60 ADD PUSH1 0x40 MSTORE SWAP1 DUP2 PUSH1 0x0 DUP3 ADD PUSH1 0x0 SWAP1 SLOAD SWAP1 PUSH2 0x100 EXP SWAP1 DIV PUSH20 0xFFFFFFFFFFFFFFFFFFFFFFFFFFFFFFFFFFFFFFFF AND PUSH20 0xFFFFFFFFFFFFFFFFFFFFFFFFFFFFFFFFFFFFFFFF AND PUSH20 0xFFFFFFFFFFFFFFFFFFFFFFFFFFFFFFFFFFFFFFFF AND DUP2 MSTORE PUSH1 0x20 ADD PUSH1 0x0 DUP3 ADD PUSH1 0x14 SWAP1 SLOAD SWAP1 PUSH2 0x100 EXP SWAP1 DIV PUSH8 0xFFFFFFFFFFFFFFFF AND PUSH8 0xFFFFFFFFFFFFFFFF AND PUSH8 0xFFFFFFFFFFFFFFFF AND DUP2 MSTORE PUSH1 0x20 ADD PUSH1 0x0 DUP3 ADD PUSH1 0x1C SWAP1 SLOAD SWAP1 PUSH2 0x100 EXP SWAP1 DIV PUSH1 0xFF AND ISZERO ISZERO ISZERO ISZERO DUP2 MSTORE POP POP SWAP1 POP DUP1 PUSH1 0x40 ADD MLOAD PUSH2 0x1348 JUMPI PUSH1 0x0 PUSH20 0xFFFFFFFFFFFFFFFFFFFFFFFFFFFFFFFFFFFFFFFF AND DUP2 PUSH1 0x0 ADD MLOAD PUSH20 0xFFFFFFFFFFFFFFFFFFFFFFFFFFFFFFFFFFFFFFFF AND EQ PUSH2 0x122C JUMPI DUP1 SWAP3 POP POP POP PUSH2 0x137D JUMP JUMPDEST JUMPDEST PUSH1 0x1 ISZERO PUSH2 0x1347 JUMPI DUP2 DUP1 PUSH1 0x1 SWAP1 SUB SWAP3 POP POP PUSH1 0x4 PUSH1 0x0 DUP4 DUP2 MSTORE PUSH1 0x20 ADD SWAP1 DUP2 MSTORE PUSH1 0x20 ADD PUSH1 0x0 KECCAK256 PUSH1 0x40 MLOAD DUP1 PUSH1 0x60 ADD PUSH1 0x40 MSTORE SWAP1 DUP2 PUSH1 0x0 DUP3 ADD PUSH1 0x0 SWAP1 SLOAD SWAP1 PUSH2 0x100 EXP SWAP1 DIV PUSH20 0xFFFFFFFFFFFFFFFFFFFFFFFFFFFFFFFFFFFFFFFF AND PUSH20 0xFFFFFFFFFFFFFFFFFFFFFFFFFFFFFFFFFFFFFFFF AND PUSH20 0xFFFFFFFFFFFFFFFFFFFFFFFFFFFFFFFFFFFFFFFF AND DUP2 MSTORE PUSH1 0x20 ADD PUSH1 0x0 DUP3 ADD PUSH1 0x14 SWAP1 SLOAD SWAP1 PUSH2 0x100 EXP SWAP1 DIV PUSH8 0xFFFFFFFFFFFFFFFF AND PUSH8 0xFFFFFFFFFFFFFFFF AND PUSH8 0xFFFFFFFFFFFFFFFF AND DUP2 MSTORE PUSH1 0x20 ADD PUSH1 0x0 DUP3 ADD PUSH1 0x1C SWAP1 SLOAD SWAP1 PUSH2 0x100 EXP SWAP1 DIV PUSH1 0xFF AND ISZERO ISZERO ISZERO ISZERO DUP2 MSTORE POP POP SWAP1 POP PUSH1 0x0 PUSH20 0xFFFFFFFFFFFFFFFFFFFFFFFFFFFFFFFFFFFFFFFF AND DUP2 PUSH1 0x0 ADD MLOAD PUSH20 0xFFFFFFFFFFFFFFFFFFFFFFFFFFFFFFFFFFFFFFFF AND EQ PUSH2 0x1342 JUMPI DUP1 SWAP3 POP POP POP PUSH2 0x137D JUMP JUMPDEST PUSH2 0x122D JUMP JUMPDEST JUMPDEST POP JUMPDEST JUMPDEST PUSH1 0x40 MLOAD PUSH32 0xDF2D9B4200000000000000000000000000000000000000000000000000000000 DUP2 MSTORE PUSH1 0x4 ADD PUSH1 0x40 MLOAD DUP1 SWAP2 SUB SWAP1 REVERT JUMPDEST SWAP2 SWAP1 POP JUMP JUMPDEST PUSH1 0x0 DUP1 DUP3 PUSH20 0xFFFFFFFFFFFFFFFFFFFFFFFFFFFFFFFFFFFFFFFF AND EXTCODESIZE GT SWAP1 POP SWAP2 SWAP1 POP JUMP JUMPDEST PUSH1 0x0 DUP4 PUSH20 0xFFFFFFFFFFFFFFFFFFFFFFFFFFFFFFFFFFFFFFFF AND PUSH4 0x150B7A02 PUSH2 0x13CB PUSH2 0xB80 JUMP JUMPDEST DUP8 DUP7 DUP7 PUSH1 0x40 MLOAD DUP6 PUSH4 0xFFFFFFFF AND PUSH1 0xE0 SHL DUP2 MSTORE PUSH1 0x4 ADD PUSH2 0x13ED SWAP5 SWAP4 SWAP3 SWAP2 SWAP1 PUSH2 0x1D9C JUMP JUMPDEST PUSH1 0x20 PUSH1 0x40 MLOAD DUP1 DUP4 SUB DUP2 PUSH1 0x0 DUP8 GAS CALL SWAP3 POP POP POP DUP1 ISZERO PUSH2 0x1429 JUMPI POP PUSH1 0x40 MLOAD RETURNDATASIZE PUSH1 0x1F NOT PUSH1 0x1F DUP3 ADD AND DUP3 ADD DUP1 PUSH1 0x40 MSTORE POP DUP2 ADD SWAP1 PUSH2 0x1426 SWAP2 SWAP1 PUSH2 0x1DFD JUMP JUMPDEST PUSH1 0x1 JUMPDEST PUSH2 0x14A2 JUMPI RETURNDATASIZE DUP1 PUSH1 0x0 DUP2 EQ PUSH2 0x1459 JUMPI PUSH1 0x40 MLOAD SWAP2 POP PUSH1 0x1F NOT PUSH1 0x3F RETURNDATASIZE ADD AND DUP3 ADD PUSH1 0x40 MSTORE RETURNDATASIZE DUP3 MSTORE RETURNDATASIZE PUSH1 0x0 PUSH1 0x20 DUP5 ADD RETURNDATACOPY PUSH2 0x145E JUMP JUMPDEST PUSH1 0x60 SWAP2 POP JUMPDEST POP PUSH1 0x0 DUP2 MLOAD SUB PUSH2 0x149A JUMPI PUSH1 0x40 MLOAD PUSH32 0xD1A57ED600000000000000000000000000000000000000000000000000000000 DUP2 MSTORE PUSH1 0x4 ADD PUSH1 0x40 MLOAD DUP1 SWAP2 SUB SWAP1 REVERT JUMPDEST DUP1 MLOAD DUP2 PUSH1 0x20 ADD REVERT JUMPDEST PUSH4 0x150B7A02 PUSH1 0xE0 SHL PUSH28 0xFFFFFFFFFFFFFFFFFFFFFFFFFFFFFFFFFFFFFFFFFFFFFFFFFFFFFFFF NOT AND DUP2 PUSH28 0xFFFFFFFFFFFFFFFFFFFFFFFFFFFFFFFFFFFFFFFFFFFFFFFFFFFFFFFF NOT AND EQ SWAP2 POP POP SWAP5 SWAP4 POP POP POP POP JUMP JUMPDEST PUSH1 0x60 PUSH1 0x40 MLOAD DUP1 PUSH1 0x80 ADD PUSH1 0x40 MSTORE DUP1 PUSH1 0x51 DUP2 MSTORE PUSH1 0x20 ADD PUSH2 0x1FEC PUSH1 0x51 SWAP2 CODECOPY SWAP1 POP SWAP1 JUMP JUMPDEST PUSH1 0x60 PUSH1 0x0 DUP3 SUB PUSH2 0x155C JUMPI PUSH1 0x40 MLOAD DUP1 PUSH1 0x40 ADD PUSH1 0x40 MSTORE DUP1 PUSH1 0x1 DUP2 MSTORE PUSH1 0x20 ADD PUSH32 0x3000000000000000000000000000000000000000000000000000000000000000 DUP2 MSTORE POP SWAP1 POP PUSH2 0x1670 JUMP JUMPDEST PUSH1 0x0 DUP3 SWAP1 POP PUSH1 0x0 JUMPDEST PUSH1 0x0 DUP3 EQ PUSH2 0x158E JUMPI DUP1 DUP1 PUSH2 0x1577 SWAP1 PUSH2 0x1E59 JUMP JUMPDEST SWAP2 POP POP PUSH1 0xA DUP3 PUSH2 0x1587 SWAP2 SWAP1 PUSH2 0x1ED0 JUMP JUMPDEST SWAP2 POP PUSH2 0x1564 JUMP JUMPDEST PUSH1 0x0 DUP2 PUSH8 0xFFFFFFFFFFFFFFFF DUP2 GT ISZERO PUSH2 0x15AA JUMPI PUSH2 0x15A9 PUSH2 0x1A99 JUMP JUMPDEST JUMPDEST PUSH1 0x40 MLOAD SWAP1 DUP1 DUP3 MSTORE DUP1 PUSH1 0x1F ADD PUSH1 0x1F NOT AND PUSH1 0x20 ADD DUP3 ADD PUSH1 0x40 MSTORE DUP1 ISZERO PUSH2 0x15DC JUMPI DUP2 PUSH1 0x20 ADD PUSH1 0x1 DUP3 MUL DUP1 CALLDATASIZE DUP4 CALLDATACOPY DUP1 DUP3 ADD SWAP2 POP POP SWAP1 POP JUMPDEST POP SWAP1 POP JUMPDEST PUSH1 0x0 DUP6 EQ PUSH2 0x1669 JUMPI PUSH1 0x1 DUP3 PUSH2 0x15F5 SWAP2 SWAP1 PUSH2 0x1F01 JUMP JUMPDEST SWAP2 POP PUSH1 0xA DUP6 PUSH2 0x1604 SWAP2 SWAP1 PUSH2 0x1F35 JUMP JUMPDEST PUSH1 0x30 PUSH2 0x1610 SWAP2 SWAP1 PUSH2 0x1F66 JUMP JUMPDEST PUSH1 0xF8 SHL DUP2 DUP4 DUP2 MLOAD DUP2 LT PUSH2 0x1626 JUMPI PUSH2 0x1625 PUSH2 0x1FBC JUMP JUMPDEST JUMPDEST PUSH1 0x20 ADD ADD SWAP1 PUSH31 0xFFFFFFFFFFFFFFFFFFFFFFFFFFFFFFFFFFFFFFFFFFFFFFFFFFFFFFFFFFFFFF NOT AND SWAP1 DUP2 PUSH1 0x0 BYTE SWAP1 MSTORE8 POP PUSH1 0xA DUP6 PUSH2 0x1662 SWAP2 SWAP1 PUSH2 0x1ED0 JUMP JUMPDEST SWAP5 POP PUSH2 0x15E0 JUMP JUMPDEST DUP1 SWAP4 POP POP POP POP JUMPDEST SWAP2 SWAP1 POP JUMP JUMPDEST POP POP POP POP JUMP JUMPDEST POP POP POP POP JUMP JUMPDEST PUSH1 0x40 MLOAD DUP1 PUSH1 0x60 ADD PUSH1 0x40 MSTORE DUP1 PUSH1 0x0 PUSH20 0xFFFFFFFFFFFFFFFFFFFFFFFFFFFFFFFFFFFFFFFF AND DUP2 MSTORE PUSH1 0x20 ADD PUSH1 0x0 PUSH8 0xFFFFFFFFFFFFFFFF AND DUP2 MSTORE PUSH1 0x20 ADD PUSH1 0x0 ISZERO ISZERO DUP2 MSTORE POP SWAP1 JUMP JUMPDEST PUSH1 0x0 PUSH1 0x40 MLOAD SWAP1 POP SWAP1 JUMP JUMPDEST PUSH1 0x0 DUP1 REVERT JUMPDEST PUSH1 0x0 DUP1 REVERT JUMPDEST PUSH1 0x0 PUSH32 0xFFFFFFFF00000000000000000000000000000000000000000000000000000000 DUP3 AND SWAP1 POP SWAP2 SWAP1 POP JUMP JUMPDEST PUSH2 0x170D DUP2 PUSH2 0x16D8 JUMP JUMPDEST DUP2 EQ PUSH2 0x1718 JUMPI PUSH1 0x0 DUP1 REVERT JUMPDEST POP JUMP JUMPDEST PUSH1 0x0 DUP2 CALLDATALOAD SWAP1 POP PUSH2 0x172A DUP2 PUSH2 0x1704 JUMP JUMPDEST SWAP3 SWAP2 POP POP JUMP JUMPDEST PUSH1 0x0 PUSH1 0x20 DUP3 DUP5 SUB SLT ISZERO PUSH2 0x1746 JUMPI PUSH2 0x1745 PUSH2 0x16CE JUMP JUMPDEST JUMPDEST PUSH1 0x0 PUSH2 0x1754 DUP5 DUP3 DUP6 ADD PUSH2 0x171B JUMP JUMPDEST SWAP2 POP POP SWAP3 SWAP2 POP POP JUMP JUMPDEST PUSH1 0x0 DUP2 ISZERO ISZERO SWAP1 POP SWAP2 SWAP1 POP JUMP JUMPDEST PUSH2 0x1772 DUP2 PUSH2 0x175D JUMP JUMPDEST DUP3 MSTORE POP POP JUMP JUMPDEST PUSH1 0x0 PUSH1 0x20 DUP3 ADD SWAP1 POP PUSH2 0x178D PUSH1 0x0 DUP4 ADD DUP5 PUSH2 0x1769 JUMP JUMPDEST SWAP3 SWAP2 POP POP JUMP JUMPDEST PUSH1 0x0 DUP2 MLOAD SWAP1 POP SWAP2 SWAP1 POP JUMP JUMPDEST PUSH1 0x0 DUP3 DUP3 MSTORE PUSH1 0x20 DUP3 ADD SWAP1 POP SWAP3 SWAP2 POP POP JUMP JUMPDEST PUSH1 0x0 JUMPDEST DUP4 DUP2 LT ISZERO PUSH2 0x17CD JUMPI DUP1 DUP3 ADD MLOAD DUP2 DUP5 ADD MSTORE PUSH1 0x20 DUP2 ADD SWAP1 POP PUSH2 0x17B2 JUMP JUMPDEST DUP4 DUP2 GT ISZERO PUSH2 0x17DC JUMPI PUSH1 0x0 DUP5 DUP5 ADD MSTORE JUMPDEST POP POP POP POP JUMP JUMPDEST PUSH1 0x0 PUSH1 0x1F NOT PUSH1 0x1F DUP4 ADD AND SWAP1 POP SWAP2 SWAP1 POP JUMP JUMPDEST PUSH1 0x0 PUSH2 0x17FE DUP3 PUSH2 0x1793 JUMP JUMPDEST PUSH2 0x1808 DUP2 DUP6 PUSH2 0x179E JUMP JUMPDEST SWAP4 POP PUSH2 0x1818 DUP2 DUP6 PUSH1 0x20 DUP7 ADD PUSH2 0x17AF JUMP JUMPDEST PUSH2 0x1821 DUP2 PUSH2 0x17E2 JUMP JUMPDEST DUP5 ADD SWAP2 POP POP SWAP3 SWAP2 POP POP JUMP JUMPDEST PUSH1 0x0 PUSH1 0x20 DUP3 ADD SWAP1 POP DUP2 DUP2 SUB PUSH1 0x0 DUP4 ADD MSTORE PUSH2 0x1846 DUP2 DUP5 PUSH2 0x17F3 JUMP JUMPDEST SWAP1 POP SWAP3 SWAP2 POP POP JUMP JUMPDEST PUSH1 0x0 DUP2 SWAP1 POP SWAP2 SWAP1 POP JUMP JUMPDEST PUSH2 0x1861 DUP2 PUSH2 0x184E JUMP JUMPDEST DUP2 EQ PUSH2 0x186C JUMPI PUSH1 0x0 DUP1 REVERT JUMPDEST POP JUMP JUMPDEST PUSH1 0x0 DUP2 CALLDATALOAD SWAP1 POP PUSH2 0x187E DUP2 PUSH2 0x1858 JUMP JUMPDEST SWAP3 SWAP2 POP POP JUMP JUMPDEST PUSH1 0x0 PUSH1 0x20 DUP3 DUP5 SUB SLT ISZERO PUSH2 0x189A JUMPI PUSH2 0x1899 PUSH2 0x16CE JUMP JUMPDEST JUMPDEST PUSH1 0x0 PUSH2 0x18A8 DUP5 DUP3 DUP6 ADD PUSH2 0x186F JUMP JUMPDEST SWAP2 POP POP SWAP3 SWAP2 POP POP JUMP JUMPDEST PUSH1 0x0 PUSH20 0xFFFFFFFFFFFFFFFFFFFFFFFFFFFFFFFFFFFFFFFF DUP3 AND SWAP1 POP SWAP2 SWAP1 POP JUMP JUMPDEST PUSH1 0x0 PUSH2 0x18DC DUP3 PUSH2 0x18B1 JUMP JUMPDEST SWAP1 POP SWAP2 SWAP1 POP JUMP JUMPDEST PUSH2 0x18EC DUP2 PUSH2 0x18D1 JUMP JUMPDEST DUP3 MSTORE POP POP JUMP JUMPDEST PUSH1 0x0 PUSH1 0x20 DUP3 ADD SWAP1 POP PUSH2 0x1907 PUSH1 0x0 DUP4 ADD DUP5 PUSH2 0x18E3 JUMP JUMPDEST SWAP3 SWAP2 POP POP JUMP JUMPDEST PUSH2 0x1916 DUP2 PUSH2 0x18D1 JUMP JUMPDEST DUP2 EQ PUSH2 0x1921 JUMPI PUSH1 0x0 DUP1 REVERT JUMPDEST POP JUMP JUMPDEST PUSH1 0x0 DUP2 CALLDATALOAD SWAP1 POP PUSH2 0x1933 DUP2 PUSH2 0x190D JUMP JUMPDEST SWAP3 SWAP2 POP POP JUMP JUMPDEST PUSH1 0x0 DUP1 PUSH1 0x40 DUP4 DUP6 SUB SLT ISZERO PUSH2 0x1950 JUMPI PUSH2 0x194F PUSH2 0x16CE JUMP JUMPDEST JUMPDEST PUSH1 0x0 PUSH2 0x195E DUP6 DUP3 DUP7 ADD PUSH2 0x1924 JUMP JUMPDEST SWAP3 POP POP PUSH1 0x20 PUSH2 0x196F DUP6 DUP3 DUP7 ADD PUSH2 0x186F JUMP JUMPDEST SWAP2 POP POP SWAP3 POP SWAP3 SWAP1 POP JUMP JUMPDEST PUSH2 0x1982 DUP2 PUSH2 0x184E JUMP JUMPDEST DUP3 MSTORE POP POP JUMP JUMPDEST PUSH1 0x0 PUSH1 0x20 DUP3 ADD SWAP1 POP PUSH2 0x199D PUSH1 0x0 DUP4 ADD DUP5 PUSH2 0x1979 JUMP JUMPDEST SWAP3 SWAP2 POP POP JUMP JUMPDEST PUSH1 0x0 DUP1 PUSH1 0x0 PUSH1 0x60 DUP5 DUP7 SUB SLT ISZERO PUSH2 0x19BC JUMPI PUSH2 0x19BB PUSH2 0x16CE JUMP JUMPDEST JUMPDEST PUSH1 0x0 PUSH2 0x19CA DUP7 DUP3 DUP8 ADD PUSH2 0x1924 JUMP JUMPDEST SWAP4 POP POP PUSH1 0x20 PUSH2 0x19DB DUP7 DUP3 DUP8 ADD PUSH2 0x1924 JUMP JUMPDEST SWAP3 POP POP PUSH1 0x40 PUSH2 0x19EC DUP7 DUP3 DUP8 ADD PUSH2 0x186F JUMP JUMPDEST SWAP2 POP POP SWAP3 POP SWAP3 POP SWAP3 JUMP JUMPDEST PUSH1 0x0 PUSH1 0x20 DUP3 DUP5 SUB SLT ISZERO PUSH2 0x1A0C JUMPI PUSH2 0x1A0B PUSH2 0x16CE JUMP JUMPDEST JUMPDEST PUSH1 0x0 PUSH2 0x1A1A DUP5 DUP3 DUP6 ADD PUSH2 0x1924 JUMP JUMPDEST SWAP2 POP POP SWAP3 SWAP2 POP POP JUMP JUMPDEST PUSH2 0x1A2C DUP2 PUSH2 0x175D JUMP JUMPDEST DUP2 EQ PUSH2 0x1A37 JUMPI PUSH1 0x0 DUP1 REVERT JUMPDEST POP JUMP JUMPDEST PUSH1 0x0 DUP2 CALLDATALOAD SWAP1 POP PUSH2 0x1A49 DUP2 PUSH2 0x1A23 JUMP JUMPDEST SWAP3 SWAP2 POP POP JUMP JUMPDEST PUSH1 0x0 DUP1 PUSH1 0x40 DUP4 DUP6 SUB SLT ISZERO PUSH2 0x1A66 JUMPI PUSH2 0x1A65 PUSH2 0x16CE JUMP JUMPDEST JUMPDEST PUSH1 0x0 PUSH2 0x1A74 DUP6 DUP3 DUP7 ADD PUSH2 0x1924 JUMP JUMPDEST SWAP3 POP POP PUSH1 0x20 PUSH2 0x1A85 DUP6 DUP3 DUP7 ADD PUSH2 0x1A3A JUMP JUMPDEST SWAP2 POP POP SWAP3 POP SWAP3 SWAP1 POP JUMP JUMPDEST PUSH1 0x0 DUP1 REVERT JUMPDEST PUSH1 0x0 DUP1 REVERT JUMPDEST PUSH32 0x4E487B7100000000000000000000000000000000000000000000000000000000 PUSH1 0x0 MSTORE PUSH1 0x41 PUSH1 0x4 MSTORE PUSH1 0x24 PUSH1 0x0 REVERT JUMPDEST PUSH2 0x1AD1 DUP3 PUSH2 0x17E2 JUMP JUMPDEST DUP2 ADD DUP2 DUP2 LT PUSH8 0xFFFFFFFFFFFFFFFF DUP3 GT OR ISZERO PUSH2 0x1AF0 JUMPI PUSH2 0x1AEF PUSH2 0x1A99 JUMP JUMPDEST JUMPDEST DUP1 PUSH1 0x40 MSTORE POP POP POP JUMP JUMPDEST PUSH1 0x0 PUSH2 0x1B03 PUSH2 0x16C4 JUMP JUMPDEST SWAP1 POP PUSH2 0x1B0F DUP3 DUP3 PUSH2 0x1AC8 JUMP JUMPDEST SWAP2 SWAP1 POP JUMP JUMPDEST PUSH1 0x0 PUSH8 0xFFFFFFFFFFFFFFFF DUP3 GT ISZERO PUSH2 0x1B2F JUMPI PUSH2 0x1B2E PUSH2 0x1A99 JUMP JUMPDEST JUMPDEST PUSH2 0x1B38 DUP3 PUSH2 0x17E2 JUMP JUMPDEST SWAP1 POP PUSH1 0x20 DUP2 ADD SWAP1 POP SWAP2 SWAP1 POP JUMP JUMPDEST DUP3 DUP2 DUP4 CALLDATACOPY PUSH1 0x0 DUP4 DUP4 ADD MSTORE POP POP POP JUMP JUMPDEST PUSH1 0x0 PUSH2 0x1B67 PUSH2 0x1B62 DUP5 PUSH2 0x1B14 JUMP JUMPDEST PUSH2 0x1AF9 JUMP JUMPDEST SWAP1 POP DUP3 DUP2 MSTORE PUSH1 0x20 DUP2 ADD DUP5 DUP5 DUP5 ADD GT ISZERO PUSH2 0x1B83 JUMPI PUSH2 0x1B82 PUSH2 0x1A94 JUMP JUMPDEST JUMPDEST PUSH2 0x1B8E DUP5 DUP3 DUP6 PUSH2 0x1B45 JUMP JUMPDEST POP SWAP4 SWAP3 POP POP POP JUMP JUMPDEST PUSH1 0x0 DUP3 PUSH1 0x1F DUP4 ADD SLT PUSH2 0x1BAB JUMPI PUSH2 0x1BAA PUSH2 0x1A8F JUMP JUMPDEST JUMPDEST DUP2 CALLDATALOAD PUSH2 0x1BBB DUP5 DUP3 PUSH1 0x20 DUP7 ADD PUSH2 0x1B54 JUMP JUMPDEST SWAP2 POP POP SWAP3 SWAP2 POP POP JUMP JUMPDEST PUSH1 0x0 DUP1 PUSH1 0x0 DUP1 PUSH1 0x80 DUP6 DUP8 SUB SLT ISZERO PUSH2 0x1BDE JUMPI PUSH2 0x1BDD PUSH2 0x16CE JUMP JUMPDEST JUMPDEST PUSH1 0x0 PUSH2 0x1BEC DUP8 DUP3 DUP9 ADD PUSH2 0x1924 JUMP JUMPDEST SWAP5 POP POP PUSH1 0x20 PUSH2 0x1BFD DUP8 DUP3 DUP9 ADD PUSH2 0x1924 JUMP JUMPDEST SWAP4 POP POP PUSH1 0x40 PUSH2 0x1C0E DUP8 DUP3 DUP9 ADD PUSH2 0x186F JUMP JUMPDEST SWAP3 POP POP PUSH1 0x60 DUP6 ADD CALLDATALOAD PUSH8 0xFFFFFFFFFFFFFFFF DUP2 GT ISZERO PUSH2 0x1C2F JUMPI PUSH2 0x1C2E PUSH2 0x16D3 JUMP JUMPDEST JUMPDEST PUSH2 0x1C3B DUP8 DUP3 DUP9 ADD PUSH2 0x1B96 JUMP JUMPDEST SWAP2 POP POP SWAP3 SWAP6 SWAP2 SWAP5 POP SWAP3 POP JUMP JUMPDEST PUSH1 0x0 DUP1 PUSH1 0x40 DUP4 DUP6 SUB SLT ISZERO PUSH2 0x1C5E JUMPI PUSH2 0x1C5D PUSH2 0x16CE JUMP JUMPDEST JUMPDEST PUSH1 0x0 PUSH2 0x1C6C DUP6 DUP3 DUP7 ADD PUSH2 0x1924 JUMP JUMPDEST SWAP3 POP POP PUSH1 0x20 PUSH2 0x1C7D DUP6 DUP3 DUP7 ADD PUSH2 0x1924 JUMP JUMPDEST SWAP2 POP POP SWAP3 POP SWAP3 SWAP1 POP JUMP JUMPDEST PUSH32 0x4E487B7100000000000000000000000000000000000000000000000000000000 PUSH1 0x0 MSTORE PUSH1 0x22 PUSH1 0x4 MSTORE PUSH1 0x24 PUSH1 0x0 REVERT JUMPDEST PUSH1 0x0 PUSH1 0x2 DUP3 DIV SWAP1 POP PUSH1 0x1 DUP3 AND DUP1 PUSH2 0x1CCE JUMPI PUSH1 0x7F DUP3 AND SWAP2 POP JUMPDEST PUSH1 0x20 DUP3 LT DUP2 SUB PUSH2 0x1CE1 JUMPI PUSH2 0x1CE0 PUSH2 0x1C87 JUMP JUMPDEST JUMPDEST POP SWAP2 SWAP1 POP JUMP JUMPDEST PUSH1 0x0 DUP2 SWAP1 POP SWAP3 SWAP2 POP POP JUMP JUMPDEST PUSH1 0x0 PUSH2 0x1CFD DUP3 PUSH2 0x1793 JUMP JUMPDEST PUSH2 0x1D07 DUP2 DUP6 PUSH2 0x1CE7 JUMP JUMPDEST SWAP4 POP PUSH2 0x1D17 DUP2 DUP6 PUSH1 0x20 DUP7 ADD PUSH2 0x17AF JUMP JUMPDEST DUP1 DUP5 ADD SWAP2 POP POP SWAP3 SWAP2 POP POP JUMP JUMPDEST PUSH1 0x0 PUSH2 0x1D2F DUP3 DUP6 PUSH2 0x1CF2 JUMP JUMPDEST SWAP2 POP PUSH2 0x1D3B DUP3 DUP5 PUSH2 0x1CF2 JUMP JUMPDEST SWAP2 POP DUP2 SWAP1 POP SWAP4 SWAP3 POP POP POP JUMP JUMPDEST PUSH1 0x0 DUP2 MLOAD SWAP1 POP SWAP2 SWAP1 POP JUMP JUMPDEST PUSH1 0x0 DUP3 DUP3 MSTORE PUSH1 0x20 DUP3 ADD SWAP1 POP SWAP3 SWAP2 POP POP JUMP JUMPDEST PUSH1 0x0 PUSH2 0x1D6E DUP3 PUSH2 0x1D47 JUMP JUMPDEST PUSH2 0x1D78 DUP2 DUP6 PUSH2 0x1D52 JUMP JUMPDEST SWAP4 POP PUSH2 0x1D88 DUP2 DUP6 PUSH1 0x20 DUP7 ADD PUSH2 0x17AF JUMP JUMPDEST PUSH2 0x1D91 DUP2 PUSH2 0x17E2 JUMP JUMPDEST DUP5 ADD SWAP2 POP POP SWAP3 SWAP2 POP POP JUMP JUMPDEST PUSH1 0x0 PUSH1 0x80 DUP3 ADD SWAP1 POP PUSH2 0x1DB1 PUSH1 0x0 DUP4 ADD DUP8 PUSH2 0x18E3 JUMP JUMPDEST PUSH2 0x1DBE PUSH1 0x20 DUP4 ADD DUP7 PUSH2 0x18E3 JUMP JUMPDEST PUSH2 0x1DCB PUSH1 0x40 DUP4 ADD DUP6 PUSH2 0x1979 JUMP JUMPDEST DUP2 DUP2 SUB PUSH1 0x60 DUP4 ADD MSTORE PUSH2 0x1DDD DUP2 DUP5 PUSH2 0x1D63 JUMP JUMPDEST SWAP1 POP SWAP6 SWAP5 POP POP POP POP POP JUMP JUMPDEST PUSH1 0x0 DUP2 MLOAD SWAP1 POP PUSH2 0x1DF7 DUP2 PUSH2 0x1704 JUMP JUMPDEST SWAP3 SWAP2 POP POP JUMP JUMPDEST PUSH1 0x0 PUSH1 0x20 DUP3 DUP5 SUB SLT ISZERO PUSH2 0x1E13 JUMPI PUSH2 0x1E12 PUSH2 0x16CE JUMP JUMPDEST JUMPDEST PUSH1 0x0 PUSH2 0x1E21 DUP5 DUP3 DUP6 ADD PUSH2 0x1DE8 JUMP JUMPDEST SWAP2 POP POP SWAP3 SWAP2 POP POP JUMP JUMPDEST PUSH32 0x4E487B7100000000000000000000000000000000000000000000000000000000 PUSH1 0x0 MSTORE PUSH1 0x11 PUSH1 0x4 MSTORE PUSH1 0x24 PUSH1 0x0 REVERT JUMPDEST PUSH1 0x0 PUSH2 0x1E64 DUP3 PUSH2 0x184E JUMP JUMPDEST SWAP2 POP PUSH32 0xFFFFFFFFFFFFFFFFFFFFFFFFFFFFFFFFFFFFFFFFFFFFFFFFFFFFFFFFFFFFFFFF DUP3 SUB PUSH2 0x1E96 JUMPI PUSH2 0x1E95 PUSH2 0x1E2A JUMP JUMPDEST JUMPDEST PUSH1 0x1 DUP3 ADD SWAP1 POP SWAP2 SWAP1 POP JUMP JUMPDEST PUSH32 0x4E487B7100000000000000000000000000000000000000000000000000000000 PUSH1 0x0 MSTORE PUSH1 0x12 PUSH1 0x4 MSTORE PUSH1 0x24 PUSH1 0x0 REVERT JUMPDEST PUSH1 0x0 PUSH2 0x1EDB DUP3 PUSH2 0x184E JUMP JUMPDEST SWAP2 POP PUSH2 0x1EE6 DUP4 PUSH2 0x184E JUMP JUMPDEST SWAP3 POP DUP3 PUSH2 0x1EF6 JUMPI PUSH2 0x1EF5 PUSH2 0x1EA1 JUMP JUMPDEST JUMPDEST DUP3 DUP3 DIV SWAP1 POP SWAP3 SWAP2 POP POP JUMP JUMPDEST PUSH1 0x0 PUSH2 0x1F0C DUP3 PUSH2 0x184E JUMP JUMPDEST SWAP2 POP PUSH2 0x1F17 DUP4 PUSH2 0x184E JUMP JUMPDEST SWAP3 POP DUP3 DUP3 LT ISZERO PUSH2 0x1F2A JUMPI PUSH2 0x1F29 PUSH2 0x1E2A JUMP JUMPDEST JUMPDEST DUP3 DUP3 SUB SWAP1 POP SWAP3 SWAP2 POP POP JUMP JUMPDEST PUSH1 0x0 PUSH2 0x1F40 DUP3 PUSH2 0x184E JUMP JUMPDEST SWAP2 POP PUSH2 0x1F4B DUP4 PUSH2 0x184E JUMP JUMPDEST SWAP3 POP DUP3 PUSH2 0x1F5B JUMPI PUSH2 0x1F5A PUSH2 0x1EA1 JUMP JUMPDEST JUMPDEST DUP3 DUP3 MOD SWAP1 POP SWAP3 SWAP2 POP POP JUMP JUMPDEST PUSH1 0x0 PUSH2 0x1F71 DUP3 PUSH2 0x184E JUMP JUMPDEST SWAP2 POP PUSH2 0x1F7C DUP4 PUSH2 0x184E JUMP JUMPDEST SWAP3 POP DUP3 PUSH32 0xFFFFFFFFFFFFFFFFFFFFFFFFFFFFFFFFFFFFFFFFFFFFFFFFFFFFFFFFFFFFFFFF SUB DUP3 GT ISZERO PUSH2 0x1FB1 JUMPI PUSH2 0x1FB0 PUSH2 0x1E2A JUMP JUMPDEST JUMPDEST DUP3 DUP3 ADD SWAP1 POP SWAP3 SWAP2 POP POP JUMP JUMPDEST PUSH32 0x4E487B7100000000000000000000000000000000000000000000000000000000 PUSH1 0x0 MSTORE PUSH1 0x32 PUSH1 0x4 MSTORE PUSH1 0x24 PUSH1 0x0 REVERT INVALID PUSH9 0x747470733A2F2F6761 PUSH21 0x657761792E70696E6174612E636C6F75642F697066 PUSH20 0x2F516D6648576B7454625354424E4C7777385A44 PUSH9 0x32716335444B71695A PUSH4 0x696B6E6F PUSH18 0x37365A665872736F5231762FA26469706673 PC 0x22 SLT KECCAK256 EXTCODEHASH CALLDATASIZE CREATE DUP9 KECCAK256 ORIGIN ORIGIN PUSH2 0xE761 0x4B 0xC6 0xED LT 0xB0 SWAP6 0xA5 0xC9 0xC9 0x49 PUSH14 0x1E0F94B7AF74180B50ECA964736F PUSH13 0x634300080D0033000000000000 "
				},
				"gasEstimates": {
					"creation": {
						"codeDepositCost": "1661200",
						"executionCost": "infinite",
						"totalCost": "infinite"
					},
					"external": {
						"approve(address,uint256)": "infinite",
						"balanceOf(address)": "2969",
						"getApproved(uint256)": "7466",
						"isApprovedForAll(address,address)": "infinite",
						"name()": "infinite",
						"ownerOf(uint256)": "infinite",
						"safeTransferFrom(address,address,uint256)": "infinite",
						"safeTransferFrom(address,address,uint256,bytes)": "infinite",
						"setApprovalForAll(address,bool)": "infinite",
						"supportsInterface(bytes4)": "797",
						"symbol()": "infinite",
						"tokenURI(uint256)": "infinite",
						"totalSupply()": "4629",
						"transferFrom(address,address,uint256)": "infinite"
					},
					"internal": {
						"_afterTokenTransfers(address,address,uint256,uint256)": "17",
						"_approve(address,uint256,address)": "26292",
						"_baseURI()": "infinite",
						"_beforeTokenTransfers(address,address,uint256,uint256)": "17",
						"_burn(uint256)": "infinite",
						"_burn(uint256,bool)": "infinite",
						"_checkContractOnERC721Received(address,address,uint256,bytes memory)": "infinite",
						"_exists(uint256)": "4507",
						"_getAux(address)": "infinite",
						"_mint(address,uint256)": "infinite",
						"_numberBurned(address)": "infinite",
						"_numberMinted(address)": "infinite",
						"_ownershipOf(uint256)": "infinite",
						"_safeMint(address,uint256)": "infinite",
						"_safeMint(address,uint256,bytes memory)": "infinite",
						"_setAux(address,uint64)": "infinite",
						"_startTokenId()": "23",
						"_totalMinted()": "infinite",
						"_transfer(address,address,uint256)": "infinite"
					}
				},
				"methodIdentifiers": {
					"approve(address,uint256)": "095ea7b3",
					"balanceOf(address)": "70a08231",
					"getApproved(uint256)": "081812fc",
					"isApprovedForAll(address,address)": "e985e9c5",
					"name()": "06fdde03",
					"ownerOf(uint256)": "6352211e",
					"safeTransferFrom(address,address,uint256)": "42842e0e",
					"safeTransferFrom(address,address,uint256,bytes)": "b88d4fde",
					"setApprovalForAll(address,bool)": "a22cb465",
					"supportsInterface(bytes4)": "01ffc9a7",
					"symbol()": "95d89b41",
					"tokenURI(uint256)": "c87b56dd",
					"totalSupply()": "18160ddd",
					"transferFrom(address,address,uint256)": "23b872dd"
				}
			},
			"storageLayout": {
				"storage": [
					{
						"astId": 790,
						"contract": "Dcoffer_flat.sol:ERC721A",
						"label": "_currentIndex",
						"offset": 0,
						"slot": "0",
						"type": "t_uint256"
					},
					{
						"astId": 792,
						"contract": "Dcoffer_flat.sol:ERC721A",
						"label": "_burnCounter",
						"offset": 0,
						"slot": "1",
						"type": "t_uint256"
					},
					{
						"astId": 794,
						"contract": "Dcoffer_flat.sol:ERC721A",
						"label": "_name",
						"offset": 0,
						"slot": "2",
						"type": "t_string_storage"
					},
					{
						"astId": 796,
						"contract": "Dcoffer_flat.sol:ERC721A",
						"label": "_symbol",
						"offset": 0,
						"slot": "3",
						"type": "t_string_storage"
					},
					{
						"astId": 801,
						"contract": "Dcoffer_flat.sol:ERC721A",
						"label": "_ownerships",
						"offset": 0,
						"slot": "4",
						"type": "t_mapping(t_uint256,t_struct(TokenOwnership)758_storage)"
					},
					{
						"astId": 806,
						"contract": "Dcoffer_flat.sol:ERC721A",
						"label": "_addressData",
						"offset": 0,
						"slot": "5",
						"type": "t_mapping(t_address,t_struct(AddressData)767_storage)"
					},
					{
						"astId": 810,
						"contract": "Dcoffer_flat.sol:ERC721A",
						"label": "_tokenApprovals",
						"offset": 0,
						"slot": "6",
						"type": "t_mapping(t_uint256,t_address)"
					},
					{
						"astId": 816,
						"contract": "Dcoffer_flat.sol:ERC721A",
						"label": "_operatorApprovals",
						"offset": 0,
						"slot": "7",
						"type": "t_mapping(t_address,t_mapping(t_address,t_bool))"
					}
				],
				"types": {
					"t_address": {
						"encoding": "inplace",
						"label": "address",
						"numberOfBytes": "20"
					},
					"t_bool": {
						"encoding": "inplace",
						"label": "bool",
						"numberOfBytes": "1"
					},
					"t_mapping(t_address,t_bool)": {
						"encoding": "mapping",
						"key": "t_address",
						"label": "mapping(address => bool)",
						"numberOfBytes": "32",
						"value": "t_bool"
					},
					"t_mapping(t_address,t_mapping(t_address,t_bool))": {
						"encoding": "mapping",
						"key": "t_address",
						"label": "mapping(address => mapping(address => bool))",
						"numberOfBytes": "32",
						"value": "t_mapping(t_address,t_bool)"
					},
					"t_mapping(t_address,t_struct(AddressData)767_storage)": {
						"encoding": "mapping",
						"key": "t_address",
						"label": "mapping(address => struct IERC721A.AddressData)",
						"numberOfBytes": "32",
						"value": "t_struct(AddressData)767_storage"
					},
					"t_mapping(t_uint256,t_address)": {
						"encoding": "mapping",
						"key": "t_uint256",
						"label": "mapping(uint256 => address)",
						"numberOfBytes": "32",
						"value": "t_address"
					},
					"t_mapping(t_uint256,t_struct(TokenOwnership)758_storage)": {
						"encoding": "mapping",
						"key": "t_uint256",
						"label": "mapping(uint256 => struct IERC721A.TokenOwnership)",
						"numberOfBytes": "32",
						"value": "t_struct(TokenOwnership)758_storage"
					},
					"t_string_storage": {
						"encoding": "bytes",
						"label": "string",
						"numberOfBytes": "32"
					},
					"t_struct(AddressData)767_storage": {
						"encoding": "inplace",
						"label": "struct IERC721A.AddressData",
						"members": [
							{
								"astId": 760,
								"contract": "Dcoffer_flat.sol:ERC721A",
								"label": "balance",
								"offset": 0,
								"slot": "0",
								"type": "t_uint64"
							},
							{
								"astId": 762,
								"contract": "Dcoffer_flat.sol:ERC721A",
								"label": "numberMinted",
								"offset": 8,
								"slot": "0",
								"type": "t_uint64"
							},
							{
								"astId": 764,
								"contract": "Dcoffer_flat.sol:ERC721A",
								"label": "numberBurned",
								"offset": 16,
								"slot": "0",
								"type": "t_uint64"
							},
							{
								"astId": 766,
								"contract": "Dcoffer_flat.sol:ERC721A",
								"label": "aux",
								"offset": 24,
								"slot": "0",
								"type": "t_uint64"
							}
						],
						"numberOfBytes": "32"
					},
					"t_struct(TokenOwnership)758_storage": {
						"encoding": "inplace",
						"label": "struct IERC721A.TokenOwnership",
						"members": [
							{
								"astId": 753,
								"contract": "Dcoffer_flat.sol:ERC721A",
								"label": "addr",
								"offset": 0,
								"slot": "0",
								"type": "t_address"
							},
							{
								"astId": 755,
								"contract": "Dcoffer_flat.sol:ERC721A",
								"label": "startTimestamp",
								"offset": 20,
								"slot": "0",
								"type": "t_uint64"
							},
							{
								"astId": 757,
								"contract": "Dcoffer_flat.sol:ERC721A",
								"label": "burned",
								"offset": 28,
								"slot": "0",
								"type": "t_bool"
							}
						],
						"numberOfBytes": "32"
					},
					"t_uint256": {
						"encoding": "inplace",
						"label": "uint256",
						"numberOfBytes": "32"
					},
					"t_uint64": {
						"encoding": "inplace",
						"label": "uint64",
						"numberOfBytes": "8"
					}
				}
			},
			"userdoc": {
				"errors": {
					"ApprovalCallerNotOwnerNorApproved()": [
						{
							"notice": "The caller must own the token or be an approved operator."
						}
					],
					"ApprovalQueryForNonexistentToken()": [
						{
							"notice": "The token does not exist."
						}
					],
					"ApprovalToCurrentOwner()": [
						{
							"notice": "The caller cannot approve to the current owner."
						}
					],
					"ApproveToCaller()": [
						{
							"notice": "The caller cannot approve to their own address."
						}
					],
					"BalanceQueryForZeroAddress()": [
						{
							"notice": "Cannot query the balance for the zero address."
						}
					],
					"MintToZeroAddress()": [
						{
							"notice": "Cannot mint to the zero address."
						}
					],
					"MintZeroQuantity()": [
						{
							"notice": "The quantity of tokens minted must be more than zero."
						}
					],
					"OwnerQueryForNonexistentToken()": [
						{
							"notice": "The token does not exist."
						}
					],
					"TransferCallerNotOwnerNorApproved()": [
						{
							"notice": "The caller must own the token or be an approved operator."
						}
					],
					"TransferFromIncorrectOwner()": [
						{
							"notice": "The token must be owned by `from`."
						}
					],
					"TransferToNonERC721ReceiverImplementer()": [
						{
							"notice": "Cannot safely transfer to a contract that does not implement the ERC721Receiver interface."
						}
					],
					"TransferToZeroAddress()": [
						{
							"notice": "Cannot transfer to the zero address."
						}
					],
					"URIQueryForNonexistentToken()": [
						{
							"notice": "The token does not exist."
						}
					]
				},
				"kind": "user",
				"methods": {},
				"version": 1
			}
		}
	}
}