{
	"Dcoffer_flat.sol": {
		"Dcoffer": {
			"abi": [
				{
					"inputs": [],
					"stateMutability": "nonpayable",
					"type": "constructor"
				},
				{
					"inputs": [],
					"name": "ApprovalCallerNotOwnerNorApproved",
					"type": "error"
				},
				{
					"inputs": [],
					"name": "ApprovalQueryForNonexistentToken",
					"type": "error"
				},
				{
					"inputs": [],
					"name": "ApprovalToCurrentOwner",
					"type": "error"
				},
				{
					"inputs": [],
					"name": "ApproveToCaller",
					"type": "error"
				},
				{
					"inputs": [],
					"name": "BalanceQueryForZeroAddress",
					"type": "error"
				},
				{
					"inputs": [],
					"name": "MintToZeroAddress",
					"type": "error"
				},
				{
					"inputs": [],
					"name": "MintZeroQuantity",
					"type": "error"
				},
				{
					"inputs": [],
					"name": "OwnerQueryForNonexistentToken",
					"type": "error"
				},
				{
					"inputs": [],
					"name": "TransferCallerNotOwnerNorApproved",
					"type": "error"
				},
				{
					"inputs": [],
					"name": "TransferFromIncorrectOwner",
					"type": "error"
				},
				{
					"inputs": [],
					"name": "TransferToNonERC721ReceiverImplementer",
					"type": "error"
				},
				{
					"inputs": [],
					"name": "TransferToZeroAddress",
					"type": "error"
				},
				{
					"inputs": [],
					"name": "URIQueryForNonexistentToken",
					"type": "error"
				},
				{
					"anonymous": false,
					"inputs": [
						{
							"indexed": true,
							"internalType": "address",
							"name": "owner",
							"type": "address"
						},
						{
							"indexed": true,
							"internalType": "address",
							"name": "approved",
							"type": "address"
						},
						{
							"indexed": true,
							"internalType": "uint256",
							"name": "tokenId",
							"type": "uint256"
						}
					],
					"name": "Approval",
					"type": "event"
				},
				{
					"anonymous": false,
					"inputs": [
						{
							"indexed": true,
							"internalType": "address",
							"name": "owner",
							"type": "address"
						},
						{
							"indexed": true,
							"internalType": "address",
							"name": "operator",
							"type": "address"
						},
						{
							"indexed": false,
							"internalType": "bool",
							"name": "approved",
							"type": "bool"
						}
					],
					"name": "ApprovalForAll",
					"type": "event"
				},
				{
					"anonymous": false,
					"inputs": [
						{
							"indexed": true,
							"internalType": "address",
							"name": "from",
							"type": "address"
						},
						{
							"indexed": true,
							"internalType": "address",
							"name": "to",
							"type": "address"
						},
						{
							"indexed": true,
							"internalType": "uint256",
							"name": "tokenId",
							"type": "uint256"
						}
					],
					"name": "Transfer",
					"type": "event"
				},
				{
					"inputs": [
						{
							"internalType": "address",
							"name": "to",
							"type": "address"
						},
						{
							"internalType": "uint256",
							"name": "tokenId",
							"type": "uint256"
						}
					],
					"name": "approve",
					"outputs": [],
					"stateMutability": "nonpayable",
					"type": "function"
				},
				{
					"inputs": [
						{
							"internalType": "address",
							"name": "owner",
							"type": "address"
						}
					],
					"name": "balanceOf",
					"outputs": [
						{
							"internalType": "uint256",
							"name": "",
							"type": "uint256"
						}
					],
					"stateMutability": "view",
					"type": "function"
				},
				{
					"inputs": [
						{
							"internalType": "uint256",
							"name": "tokenId",
							"type": "uint256"
						}
					],
					"name": "getApproved",
					"outputs": [
						{
							"internalType": "address",
							"name": "",
							"type": "address"
						}
					],
					"stateMutability": "view",
					"type": "function"
				},
				{
					"inputs": [
						{
							"internalType": "address",
							"name": "owner",
							"type": "address"
						},
						{
							"internalType": "address",
							"name": "operator",
							"type": "address"
						}
					],
					"name": "isApprovedForAll",
					"outputs": [
						{
							"internalType": "bool",
							"name": "",
							"type": "bool"
						}
					],
					"stateMutability": "view",
					"type": "function"
				},
				{
					"inputs": [
						{
							"internalType": "uint256",
							"name": "quantity",
							"type": "uint256"
						}
					],
					"name": "mint",
					"outputs": [],
					"stateMutability": "payable",
					"type": "function"
				},
				{
					"inputs": [],
					"name": "name",
					"outputs": [
						{
							"internalType": "string",
							"name": "",
							"type": "string"
						}
					],
					"stateMutability": "view",
					"type": "function"
				},
				{
					"inputs": [
						{
							"internalType": "uint256",
							"name": "tokenId",
							"type": "uint256"
						}
					],
					"name": "ownerOf",
					"outputs": [
						{
							"internalType": "address",
							"name": "",
							"type": "address"
						}
					],
					"stateMutability": "view",
					"type": "function"
				},
				{
					"inputs": [
						{
							"internalType": "address",
							"name": "from",
							"type": "address"
						},
						{
							"internalType": "address",
							"name": "to",
							"type": "address"
						},
						{
							"internalType": "uint256",
							"name": "tokenId",
							"type": "uint256"
						}
					],
					"name": "safeTransferFrom",
					"outputs": [],
					"stateMutability": "nonpayable",
					"type": "function"
				},
				{
					"inputs": [
						{
							"internalType": "address",
							"name": "from",
							"type": "address"
						},
						{
							"internalType": "address",
							"name": "to",
							"type": "address"
						},
						{
							"internalType": "uint256",
							"name": "tokenId",
							"type": "uint256"
						},
						{
							"internalType": "bytes",
							"name": "_data",
							"type": "bytes"
						}
					],
					"name": "safeTransferFrom",
					"outputs": [],
					"stateMutability": "nonpayable",
					"type": "function"
				},
				{
					"inputs": [
						{
							"internalType": "address",
							"name": "operator",
							"type": "address"
						},
						{
							"internalType": "bool",
							"name": "approved",
							"type": "bool"
						}
					],
					"name": "setApprovalForAll",
					"outputs": [],
					"stateMutability": "nonpayable",
					"type": "function"
				},
				{
					"inputs": [
						{
							"internalType": "bytes4",
							"name": "interfaceId",
							"type": "bytes4"
						}
					],
					"name": "supportsInterface",
					"outputs": [
						{
							"internalType": "bool",
							"name": "",
							"type": "bool"
						}
					],
					"stateMutability": "view",
					"type": "function"
				},
				{
					"inputs": [],
					"name": "symbol",
					"outputs": [
						{
							"internalType": "string",
							"name": "",
							"type": "string"
						}
					],
					"stateMutability": "view",
					"type": "function"
				},
				{
					"inputs": [
						{
							"internalType": "uint256",
							"name": "tokenId",
							"type": "uint256"
						}
					],
					"name": "tokenURI",
					"outputs": [
						{
							"internalType": "string",
							"name": "",
							"type": "string"
						}
					],
					"stateMutability": "view",
					"type": "function"
				},
				{
					"inputs": [],
					"name": "totalSupply",
					"outputs": [
						{
							"internalType": "uint256",
							"name": "",
							"type": "uint256"
						}
					],
					"stateMutability": "view",
					"type": "function"
				},
				{
					"inputs": [
						{
							"internalType": "address",
							"name": "from",
							"type": "address"
						},
						{
							"internalType": "address",
							"name": "to",
							"type": "address"
						},
						{
							"internalType": "uint256",
							"name": "tokenId",
							"type": "uint256"
						}
					],
					"name": "transferFrom",
					"outputs": [],
					"stateMutability": "nonpayable",
					"type": "function"
				}
			],
			"devdoc": {
				"kind": "dev",
				"methods": {
					"approve(address,uint256)": {
						"details": "See {IERC721-approve}."
					},
					"balanceOf(address)": {
						"details": "See {IERC721-balanceOf}."
					},
					"getApproved(uint256)": {
						"details": "See {IERC721-getApproved}."
					},
					"isApprovedForAll(address,address)": {
						"details": "See {IERC721-isApprovedForAll}."
					},
					"name()": {
						"details": "See {IERC721Metadata-name}."
					},
					"ownerOf(uint256)": {
						"details": "See {IERC721-ownerOf}."
					},
					"safeTransferFrom(address,address,uint256)": {
						"details": "See {IERC721-safeTransferFrom}."
					},
					"safeTransferFrom(address,address,uint256,bytes)": {
						"details": "See {IERC721-safeTransferFrom}."
					},
					"setApprovalForAll(address,bool)": {
						"details": "See {IERC721-setApprovalForAll}."
					},
					"supportsInterface(bytes4)": {
						"details": "See {IERC165-supportsInterface}."
					},
					"symbol()": {
						"details": "See {IERC721Metadata-symbol}."
					},
					"tokenURI(uint256)": {
						"details": "See {IERC721Metadata-tokenURI}."
					},
					"totalSupply()": {
						"details": "Burned tokens are calculated here, use _totalMinted() if you want to count just minted tokens."
					},
					"transferFrom(address,address,uint256)": {
						"details": "See {IERC721-transferFrom}."
					}
				},
				"version": 1
			},
			"evm": {
				"assembly": "    /* \"Dcoffer_flat.sol\":44951:45208  contract Dcoffer is ERC721A {... */\n  mstore(0x40, 0x80)\n    /* \"Dcoffer_flat.sol\":44984:45030  constructor() ERC721A(\"Dcoffer\", \"Dcoffer\") {} */\n  callvalue\n  dup1\n  iszero\n  tag_1\n  jumpi\n  0x00\n  dup1\n  revert\ntag_1:\n  pop\n    /* \"Dcoffer_flat.sol\":24754:24912  constructor(string memory name_, string memory symbol_) {... */\n  mload(0x40)\n  dup1\n  0x40\n  add\n  0x40\n  mstore\n  dup1\n  0x07\n  dup2\n  mstore\n  0x20\n  add\n  0x44636f6666657200000000000000000000000000000000000000000000000000\n  dup2\n  mstore\n  pop\n  mload(0x40)\n  dup1\n  0x40\n  add\n  0x40\n  mstore\n  dup1\n  0x07\n  dup2\n  mstore\n  0x20\n  add\n  0x44636f6666657200000000000000000000000000000000000000000000000000\n  dup2\n  mstore\n  pop\n    /* \"Dcoffer_flat.sol\":24829:24834  name_ */\n  dup2\n    /* \"Dcoffer_flat.sol\":24821:24826  _name */\n  0x02\n    /* \"Dcoffer_flat.sol\":24821:24834  _name = name_ */\n  swap1\n  dup1\n  mload\n  swap1\n  0x20\n  add\n  swap1\n  tag_5\n  swap3\n  swap2\n  swap1\n  tag_6\n  jump\t// in\ntag_5:\n  pop\n    /* \"Dcoffer_flat.sol\":24855:24862  symbol_ */\n  dup1\n    /* \"Dcoffer_flat.sol\":24845:24852  _symbol */\n  0x03\n    /* \"Dcoffer_flat.sol\":24845:24862  _symbol = symbol_ */\n  swap1\n  dup1\n  mload\n  swap1\n  0x20\n  add\n  swap1\n  tag_7\n  swap3\n  swap2\n  swap1\n  tag_6\n  jump\t// in\ntag_7:\n  pop\n    /* \"Dcoffer_flat.sol\":24889:24904  _startTokenId() */\n  tag_8\n    /* \"Dcoffer_flat.sol\":24889:24902  _startTokenId */\n  shl(0x20, tag_9)\n    /* \"Dcoffer_flat.sol\":24889:24904  _startTokenId() */\n  0x20\n  shr\n  jump\t// in\ntag_8:\n    /* \"Dcoffer_flat.sol\":24873:24886  _currentIndex */\n  0x00\n    /* \"Dcoffer_flat.sol\":24873:24904  _currentIndex = _startTokenId() */\n  dup2\n  swap1\n  sstore\n  pop\n    /* \"Dcoffer_flat.sol\":24754:24912  constructor(string memory name_, string memory symbol_) {... */\n  pop\n  pop\n    /* \"Dcoffer_flat.sol\":44951:45208  contract Dcoffer is ERC721A {... */\n  jump(tag_11)\n    /* \"Dcoffer_flat.sol\":25009:25101  function _startTokenId() internal view virtual returns (uint256) {... */\ntag_9:\n    /* \"Dcoffer_flat.sol\":25065:25072  uint256 */\n  0x00\n    /* \"Dcoffer_flat.sol\":25092:25093  1 */\n  0x01\n    /* \"Dcoffer_flat.sol\":25085:25093  return 1 */\n  swap1\n  pop\n    /* \"Dcoffer_flat.sol\":25009:25101  function _startTokenId() internal view virtual returns (uint256) {... */\n  swap1\n  jump\t// out\n    /* \"Dcoffer_flat.sol\":44951:45208  contract Dcoffer is ERC721A {... */\ntag_6:\n  dup3\n  dup1\n  sload\n  tag_13\n  swap1\n  tag_14\n  jump\t// in\ntag_13:\n  swap1\n  0x00\n  mstore\n  keccak256(0x00, 0x20)\n  swap1\n  0x1f\n  add\n  0x20\n  swap1\n  div\n  dup2\n  add\n  swap3\n  dup3\n  tag_16\n  jumpi\n  0x00\n  dup6\n  sstore\n  jump(tag_15)\ntag_16:\n  dup3\n  0x1f\n  lt\n  tag_17\n  jumpi\n  dup1\n  mload\n  not(0xff)\n  and\n  dup4\n  dup1\n  add\n  or\n  dup6\n  sstore\n  jump(tag_15)\ntag_17:\n  dup3\n  dup1\n  add\n  0x01\n  add\n  dup6\n  sstore\n  dup3\n  iszero\n  tag_15\n  jumpi\n  swap2\n  dup3\n  add\ntag_18:\n  dup3\n  dup2\n  gt\n  iszero\n  tag_19\n  jumpi\n  dup3\n  mload\n  dup3\n  sstore\n  swap2\n  0x20\n  add\n  swap2\n  swap1\n  0x01\n  add\n  swap1\n  jump(tag_18)\ntag_19:\ntag_15:\n  pop\n  swap1\n  pop\n  tag_20\n  swap2\n  swap1\n  tag_21\n  jump\t// in\ntag_20:\n  pop\n  swap1\n  jump\t// out\ntag_21:\ntag_22:\n  dup1\n  dup3\n  gt\n  iszero\n  tag_23\n  jumpi\n  0x00\n  dup2\n  0x00\n  swap1\n  sstore\n  pop\n  0x01\n  add\n  jump(tag_22)\ntag_23:\n  pop\n  swap1\n  jump\t// out\n    /* \"#utility.yul\":7:187   */\ntag_24:\n    /* \"#utility.yul\":55:132   */\n  0x4e487b7100000000000000000000000000000000000000000000000000000000\n    /* \"#utility.yul\":52:53   */\n  0x00\n    /* \"#utility.yul\":45:133   */\n  mstore\n    /* \"#utility.yul\":152:156   */\n  0x22\n    /* \"#utility.yul\":149:150   */\n  0x04\n    /* \"#utility.yul\":142:157   */\n  mstore\n    /* \"#utility.yul\":176:180   */\n  0x24\n    /* \"#utility.yul\":173:174   */\n  0x00\n    /* \"#utility.yul\":166:181   */\n  revert\n    /* \"#utility.yul\":193:513   */\ntag_14:\n    /* \"#utility.yul\":237:243   */\n  0x00\n    /* \"#utility.yul\":274:275   */\n  0x02\n    /* \"#utility.yul\":268:272   */\n  dup3\n    /* \"#utility.yul\":264:276   */\n  div\n    /* \"#utility.yul\":254:276   */\n  swap1\n  pop\n    /* \"#utility.yul\":321:322   */\n  0x01\n    /* \"#utility.yul\":315:319   */\n  dup3\n    /* \"#utility.yul\":311:323   */\n  and\n    /* \"#utility.yul\":342:360   */\n  dup1\n    /* \"#utility.yul\":332:413   */\n  tag_28\n  jumpi\n    /* \"#utility.yul\":398:402   */\n  0x7f\n    /* \"#utility.yul\":390:396   */\n  dup3\n    /* \"#utility.yul\":386:403   */\n  and\n    /* \"#utility.yul\":376:403   */\n  swap2\n  pop\n    /* \"#utility.yul\":332:413   */\ntag_28:\n    /* \"#utility.yul\":460:462   */\n  0x20\n    /* \"#utility.yul\":452:458   */\n  dup3\n    /* \"#utility.yul\":449:463   */\n  lt\n    /* \"#utility.yul\":429:447   */\n  dup2\n    /* \"#utility.yul\":426:464   */\n  sub\n    /* \"#utility.yul\":423:507   */\n  tag_29\n  jumpi\n    /* \"#utility.yul\":479:497   */\n  tag_30\n  tag_24\n  jump\t// in\ntag_30:\n    /* \"#utility.yul\":423:507   */\ntag_29:\n    /* \"#utility.yul\":244:513   */\n  pop\n    /* \"#utility.yul\":193:513   */\n  swap2\n  swap1\n  pop\n  jump\t// out\n    /* \"Dcoffer_flat.sol\":44951:45208  contract Dcoffer is ERC721A {... */\ntag_11:\n  dataSize(sub_0)\n  dup1\n  dataOffset(sub_0)\n  0x00\n  codecopy\n  0x00\n  return\nstop\n\nsub_0: assembly {\n        /* \"Dcoffer_flat.sol\":44951:45208  contract Dcoffer is ERC721A {... */\n      mstore(0x40, 0x80)\n      jumpi(tag_1, lt(calldatasize, 0x04))\n      shr(0xe0, calldataload(0x00))\n      dup1\n      0x6352211e\n      gt\n      tag_17\n      jumpi\n      dup1\n      0xa22cb465\n      gt\n      tag_18\n      jumpi\n      dup1\n      0xa22cb465\n      eq\n      tag_13\n      jumpi\n      dup1\n      0xb88d4fde\n      eq\n      tag_14\n      jumpi\n      dup1\n      0xc87b56dd\n      eq\n      tag_15\n      jumpi\n      dup1\n      0xe985e9c5\n      eq\n      tag_16\n      jumpi\n      jump(tag_1)\n    tag_18:\n      dup1\n      0x6352211e\n      eq\n      tag_9\n      jumpi\n      dup1\n      0x70a08231\n      eq\n      tag_10\n      jumpi\n      dup1\n      0x95d89b41\n      eq\n      tag_11\n      jumpi\n      dup1\n      0xa0712d68\n      eq\n      tag_12\n      jumpi\n      jump(tag_1)\n    tag_17:\n      dup1\n      0x095ea7b3\n      gt\n      tag_19\n      jumpi\n      dup1\n      0x095ea7b3\n      eq\n      tag_5\n      jumpi\n      dup1\n      0x18160ddd\n      eq\n      tag_6\n      jumpi\n      dup1\n      0x23b872dd\n      eq\n      tag_7\n      jumpi\n      dup1\n      0x42842e0e\n      eq\n      tag_8\n      jumpi\n      jump(tag_1)\n    tag_19:\n      dup1\n      0x01ffc9a7\n      eq\n      tag_2\n      jumpi\n      dup1\n      0x06fdde03\n      eq\n      tag_3\n      jumpi\n      dup1\n      0x081812fc\n      eq\n      tag_4\n      jumpi\n    tag_1:\n      0x00\n      dup1\n      revert\n        /* \"Dcoffer_flat.sol\":25995:26300  function supportsInterface(bytes4 interfaceId) public view virtual override(ERC165, IERC165) returns (bool) {... */\n    tag_2:\n      callvalue\n      dup1\n      iszero\n      tag_20\n      jumpi\n      0x00\n      dup1\n      revert\n    tag_20:\n      pop\n      tag_21\n      0x04\n      dup1\n      calldatasize\n      sub\n      dup2\n      add\n      swap1\n      tag_22\n      swap2\n      swap1\n      tag_23\n      jump\t// in\n    tag_22:\n      tag_24\n      jump\t// in\n    tag_21:\n      mload(0x40)\n      tag_25\n      swap2\n      swap1\n      tag_26\n      jump\t// in\n    tag_25:\n      mload(0x40)\n      dup1\n      swap2\n      sub\n      swap1\n      return\n        /* \"Dcoffer_flat.sol\":29110:29210  function name() public view virtual override returns (string memory) {... */\n    tag_3:\n      callvalue\n      dup1\n      iszero\n      tag_27\n      jumpi\n      0x00\n      dup1\n      revert\n    tag_27:\n      pop\n      tag_28\n      tag_29\n      jump\t// in\n    tag_28:\n      mload(0x40)\n      tag_30\n      swap2\n      swap1\n      tag_31\n      jump\t// in\n    tag_30:\n      mload(0x40)\n      dup1\n      swap2\n      sub\n      swap1\n      return\n        /* \"Dcoffer_flat.sol\":30695:30899  function getApproved(uint256 tokenId) public view override returns (address) {... */\n    tag_4:\n      callvalue\n      dup1\n      iszero\n      tag_32\n      jumpi\n      0x00\n      dup1\n      revert\n    tag_32:\n      pop\n      tag_33\n      0x04\n      dup1\n      calldatasize\n      sub\n      dup2\n      add\n      swap1\n      tag_34\n      swap2\n      swap1\n      tag_35\n      jump\t// in\n    tag_34:\n      tag_36\n      jump\t// in\n    tag_33:\n      mload(0x40)\n      tag_37\n      swap2\n      swap1\n      tag_38\n      jump\t// in\n    tag_37:\n      mload(0x40)\n      dup1\n      swap2\n      sub\n      swap1\n      return\n        /* \"Dcoffer_flat.sol\":30257:30629  function approve(address to, uint256 tokenId) public override {... */\n    tag_5:\n      callvalue\n      dup1\n      iszero\n      tag_39\n      jumpi\n      0x00\n      dup1\n      revert\n    tag_39:\n      pop\n      tag_40\n      0x04\n      dup1\n      calldatasize\n      sub\n      dup2\n      add\n      swap1\n      tag_41\n      swap2\n      swap1\n      tag_42\n      jump\t// in\n    tag_41:\n      tag_43\n      jump\t// in\n    tag_40:\n      stop\n        /* \"Dcoffer_flat.sol\":25235:25547  function totalSupply() public view override returns (uint256) {... */\n    tag_6:\n      callvalue\n      dup1\n      iszero\n      tag_44\n      jumpi\n      0x00\n      dup1\n      revert\n    tag_44:\n      pop\n      tag_45\n      tag_46\n      jump\t// in\n    tag_45:\n      mload(0x40)\n      tag_47\n      swap2\n      swap1\n      tag_48\n      jump\t// in\n    tag_47:\n      mload(0x40)\n      dup1\n      swap2\n      sub\n      swap1\n      return\n        /* \"Dcoffer_flat.sol\":31560:31730  function transferFrom(... */\n    tag_7:\n      callvalue\n      dup1\n      iszero\n      tag_49\n      jumpi\n      0x00\n      dup1\n      revert\n    tag_49:\n      pop\n      tag_50\n      0x04\n      dup1\n      calldatasize\n      sub\n      dup2\n      add\n      swap1\n      tag_51\n      swap2\n      swap1\n      tag_52\n      jump\t// in\n    tag_51:\n      tag_53\n      jump\t// in\n    tag_50:\n      stop\n        /* \"Dcoffer_flat.sol\":31801:31986  function safeTransferFrom(... */\n    tag_8:\n      callvalue\n      dup1\n      iszero\n      tag_54\n      jumpi\n      0x00\n      dup1\n      revert\n    tag_54:\n      pop\n      tag_55\n      0x04\n      dup1\n      calldatasize\n      sub\n      dup2\n      add\n      swap1\n      tag_56\n      swap2\n      swap1\n      tag_52\n      jump\t// in\n    tag_56:\n      tag_57\n      jump\t// in\n    tag_55:\n      stop\n        /* \"Dcoffer_flat.sol\":28918:29043  function ownerOf(uint256 tokenId) public view override returns (address) {... */\n    tag_9:\n      callvalue\n      dup1\n      iszero\n      tag_58\n      jumpi\n      0x00\n      dup1\n      revert\n    tag_58:\n      pop\n      tag_59\n      0x04\n      dup1\n      calldatasize\n      sub\n      dup2\n      add\n      swap1\n      tag_60\n      swap2\n      swap1\n      tag_35\n      jump\t// in\n    tag_60:\n      tag_61\n      jump\t// in\n    tag_59:\n      mload(0x40)\n      tag_62\n      swap2\n      swap1\n      tag_38\n      jump\t// in\n    tag_62:\n      mload(0x40)\n      dup1\n      swap2\n      sub\n      swap1\n      return\n        /* \"Dcoffer_flat.sol\":26364:26570  function balanceOf(address owner) public view override returns (uint256) {... */\n    tag_10:\n      callvalue\n      dup1\n      iszero\n      tag_63\n      jumpi\n      0x00\n      dup1\n      revert\n    tag_63:\n      pop\n      tag_64\n      0x04\n      dup1\n      calldatasize\n      sub\n      dup2\n      add\n      swap1\n      tag_65\n      swap2\n      swap1\n      tag_66\n      jump\t// in\n    tag_65:\n      tag_67\n      jump\t// in\n    tag_64:\n      mload(0x40)\n      tag_68\n      swap2\n      swap1\n      tag_48\n      jump\t// in\n    tag_68:\n      mload(0x40)\n      dup1\n      swap2\n      sub\n      swap1\n      return\n        /* \"Dcoffer_flat.sol\":29279:29383  function symbol() public view virtual override returns (string memory) {... */\n    tag_11:\n      callvalue\n      dup1\n      iszero\n      tag_69\n      jumpi\n      0x00\n      dup1\n      revert\n    tag_69:\n      pop\n      tag_70\n      tag_71\n      jump\t// in\n    tag_70:\n      mload(0x40)\n      tag_72\n      swap2\n      swap1\n      tag_31\n      jump\t// in\n    tag_72:\n      mload(0x40)\n      dup1\n      swap2\n      sub\n      swap1\n      return\n        /* \"Dcoffer_flat.sol\":45036:45205  function mint(uint256 quantity) external payable {... */\n    tag_12:\n      tag_73\n      0x04\n      dup1\n      calldatasize\n      sub\n      dup2\n      add\n      swap1\n      tag_74\n      swap2\n      swap1\n      tag_35\n      jump\t// in\n    tag_74:\n      tag_75\n      jump\t// in\n    tag_73:\n      stop\n        /* \"Dcoffer_flat.sol\":30971:31258  function setApprovalForAll(address operator, bool approved) public virtual override {... */\n    tag_13:\n      callvalue\n      dup1\n      iszero\n      tag_76\n      jumpi\n      0x00\n      dup1\n      revert\n    tag_76:\n      pop\n      tag_77\n      0x04\n      dup1\n      calldatasize\n      sub\n      dup2\n      add\n      swap1\n      tag_78\n      swap2\n      swap1\n      tag_79\n      jump\t// in\n    tag_78:\n      tag_80\n      jump\t// in\n    tag_77:\n      stop\n        /* \"Dcoffer_flat.sol\":32057:32427  function safeTransferFrom(... */\n    tag_14:\n      callvalue\n      dup1\n      iszero\n      tag_81\n      jumpi\n      0x00\n      dup1\n      revert\n    tag_81:\n      pop\n      tag_82\n      0x04\n      dup1\n      calldatasize\n      sub\n      dup2\n      add\n      swap1\n      tag_83\n      swap2\n      swap1\n      tag_84\n      jump\t// in\n    tag_83:\n      tag_85\n      jump\t// in\n    tag_82:\n      stop\n        /* \"Dcoffer_flat.sol\":29454:29772  function tokenURI(uint256 tokenId) public view virtual override returns (string memory) {... */\n    tag_15:\n      callvalue\n      dup1\n      iszero\n      tag_86\n      jumpi\n      0x00\n      dup1\n      revert\n    tag_86:\n      pop\n      tag_87\n      0x04\n      dup1\n      calldatasize\n      sub\n      dup2\n      add\n      swap1\n      tag_88\n      swap2\n      swap1\n      tag_35\n      jump\t// in\n    tag_88:\n      tag_89\n      jump\t// in\n    tag_87:\n      mload(0x40)\n      tag_90\n      swap2\n      swap1\n      tag_31\n      jump\t// in\n    tag_90:\n      mload(0x40)\n      dup1\n      swap2\n      sub\n      swap1\n      return\n        /* \"Dcoffer_flat.sol\":31329:31493  function isApprovedForAll(address owner, address operator) public view virtual override returns (bool) {... */\n    tag_16:\n      callvalue\n      dup1\n      iszero\n      tag_91\n      jumpi\n      0x00\n      dup1\n      revert\n    tag_91:\n      pop\n      tag_92\n      0x04\n      dup1\n      calldatasize\n      sub\n      dup2\n      add\n      swap1\n      tag_93\n      swap2\n      swap1\n      tag_94\n      jump\t// in\n    tag_93:\n      tag_95\n      jump\t// in\n    tag_92:\n      mload(0x40)\n      tag_96\n      swap2\n      swap1\n      tag_26\n      jump\t// in\n    tag_96:\n      mload(0x40)\n      dup1\n      swap2\n      sub\n      swap1\n      return\n        /* \"Dcoffer_flat.sol\":25995:26300  function supportsInterface(bytes4 interfaceId) public view virtual override(ERC165, IERC165) returns (bool) {... */\n    tag_24:\n        /* \"Dcoffer_flat.sol\":26097:26101  bool */\n      0x00\n        /* \"Dcoffer_flat.sol\":26149:26174  type(IERC721).interfaceId */\n      0x80ac58cd00000000000000000000000000000000000000000000000000000000\n        /* \"Dcoffer_flat.sol\":26134:26174  interfaceId == type(IERC721).interfaceId */\n      not(0xffffffffffffffffffffffffffffffffffffffffffffffffffffffff)\n      and\n        /* \"Dcoffer_flat.sol\":26134:26145  interfaceId */\n      dup3\n        /* \"Dcoffer_flat.sol\":26134:26174  interfaceId == type(IERC721).interfaceId */\n      not(0xffffffffffffffffffffffffffffffffffffffffffffffffffffffff)\n      and\n      eq\n        /* \"Dcoffer_flat.sol\":26134:26239  interfaceId == type(IERC721).interfaceId ||... */\n      dup1\n      tag_98\n      jumpi\n      pop\n        /* \"Dcoffer_flat.sol\":26206:26239  type(IERC721Metadata).interfaceId */\n      0x5b5e139f00000000000000000000000000000000000000000000000000000000\n        /* \"Dcoffer_flat.sol\":26191:26239  interfaceId == type(IERC721Metadata).interfaceId */\n      not(0xffffffffffffffffffffffffffffffffffffffffffffffffffffffff)\n      and\n        /* \"Dcoffer_flat.sol\":26191:26202  interfaceId */\n      dup3\n        /* \"Dcoffer_flat.sol\":26191:26239  interfaceId == type(IERC721Metadata).interfaceId */\n      not(0xffffffffffffffffffffffffffffffffffffffffffffffffffffffff)\n      and\n      eq\n        /* \"Dcoffer_flat.sol\":26134:26239  interfaceId == type(IERC721).interfaceId ||... */\n    tag_98:\n        /* \"Dcoffer_flat.sol\":26134:26292  interfaceId == type(IERC721).interfaceId ||... */\n      dup1\n      tag_99\n      jumpi\n      pop\n        /* \"Dcoffer_flat.sol\":26256:26292  super.supportsInterface(interfaceId) */\n      tag_100\n        /* \"Dcoffer_flat.sol\":26280:26291  interfaceId */\n      dup3\n        /* \"Dcoffer_flat.sol\":26256:26279  super.supportsInterface */\n      tag_101\n        /* \"Dcoffer_flat.sol\":26256:26292  super.supportsInterface(interfaceId) */\n      jump\t// in\n    tag_100:\n        /* \"Dcoffer_flat.sol\":26134:26292  interfaceId == type(IERC721).interfaceId ||... */\n    tag_99:\n        /* \"Dcoffer_flat.sol\":26114:26292  return... */\n      swap1\n      pop\n        /* \"Dcoffer_flat.sol\":25995:26300  function supportsInterface(bytes4 interfaceId) public view virtual override(ERC165, IERC165) returns (bool) {... */\n      swap2\n      swap1\n      pop\n      jump\t// out\n        /* \"Dcoffer_flat.sol\":29110:29210  function name() public view virtual override returns (string memory) {... */\n    tag_29:\n        /* \"Dcoffer_flat.sol\":29164:29177  string memory */\n      0x60\n        /* \"Dcoffer_flat.sol\":29197:29202  _name */\n      0x02\n        /* \"Dcoffer_flat.sol\":29190:29202  return _name */\n      dup1\n      sload\n      tag_103\n      swap1\n      tag_104\n      jump\t// in\n    tag_103:\n      dup1\n      0x1f\n      add\n      0x20\n      dup1\n      swap2\n      div\n      mul\n      0x20\n      add\n      mload(0x40)\n      swap1\n      dup2\n      add\n      0x40\n      mstore\n      dup1\n      swap3\n      swap2\n      swap1\n      dup2\n      dup2\n      mstore\n      0x20\n      add\n      dup3\n      dup1\n      sload\n      tag_105\n      swap1\n      tag_104\n      jump\t// in\n    tag_105:\n      dup1\n      iszero\n      tag_106\n      jumpi\n      dup1\n      0x1f\n      lt\n      tag_107\n      jumpi\n      0x0100\n      dup1\n      dup4\n      sload\n      div\n      mul\n      dup4\n      mstore\n      swap2\n      0x20\n      add\n      swap2\n      jump(tag_106)\n    tag_107:\n      dup3\n      add\n      swap2\n      swap1\n      0x00\n      mstore\n      keccak256(0x00, 0x20)\n      swap1\n    tag_108:\n      dup2\n      sload\n      dup2\n      mstore\n      swap1\n      0x01\n      add\n      swap1\n      0x20\n      add\n      dup1\n      dup4\n      gt\n      tag_108\n      jumpi\n      dup3\n      swap1\n      sub\n      0x1f\n      and\n      dup3\n      add\n      swap2\n    tag_106:\n      pop\n      pop\n      pop\n      pop\n      pop\n      swap1\n      pop\n        /* \"Dcoffer_flat.sol\":29110:29210  function name() public view virtual override returns (string memory) {... */\n      swap1\n      jump\t// out\n        /* \"Dcoffer_flat.sol\":30695:30899  function getApproved(uint256 tokenId) public view override returns (address) {... */\n    tag_36:\n        /* \"Dcoffer_flat.sol\":30763:30770  address */\n      0x00\n        /* \"Dcoffer_flat.sol\":30788:30804  _exists(tokenId) */\n      tag_110\n        /* \"Dcoffer_flat.sol\":30796:30803  tokenId */\n      dup3\n        /* \"Dcoffer_flat.sol\":30788:30795  _exists */\n      tag_111\n        /* \"Dcoffer_flat.sol\":30788:30804  _exists(tokenId) */\n      jump\t// in\n    tag_110:\n        /* \"Dcoffer_flat.sol\":30783:30847  if (!_exists(tokenId)) revert ApprovalQueryForNonexistentToken() */\n      tag_112\n      jumpi\n        /* \"Dcoffer_flat.sol\":30813:30847  ApprovalQueryForNonexistentToken() */\n      mload(0x40)\n      0xcf4700e400000000000000000000000000000000000000000000000000000000\n      dup2\n      mstore\n      0x04\n      add\n      mload(0x40)\n      dup1\n      swap2\n      sub\n      swap1\n      revert\n        /* \"Dcoffer_flat.sol\":30783:30847  if (!_exists(tokenId)) revert ApprovalQueryForNonexistentToken() */\n    tag_112:\n        /* \"Dcoffer_flat.sol\":30867:30882  _tokenApprovals */\n      0x06\n        /* \"Dcoffer_flat.sol\":30867:30891  _tokenApprovals[tokenId] */\n      0x00\n        /* \"Dcoffer_flat.sol\":30883:30890  tokenId */\n      dup4\n        /* \"Dcoffer_flat.sol\":30867:30891  _tokenApprovals[tokenId] */\n      dup2\n      mstore\n      0x20\n      add\n      swap1\n      dup2\n      mstore\n      0x20\n      add\n      0x00\n      keccak256\n      0x00\n      swap1\n      sload\n      swap1\n      0x0100\n      exp\n      swap1\n      div\n      0xffffffffffffffffffffffffffffffffffffffff\n      and\n        /* \"Dcoffer_flat.sol\":30860:30891  return _tokenApprovals[tokenId] */\n      swap1\n      pop\n        /* \"Dcoffer_flat.sol\":30695:30899  function getApproved(uint256 tokenId) public view override returns (address) {... */\n      swap2\n      swap1\n      pop\n      jump\t// out\n        /* \"Dcoffer_flat.sol\":30257:30629  function approve(address to, uint256 tokenId) public override {... */\n    tag_43:\n        /* \"Dcoffer_flat.sol\":30330:30343  address owner */\n      0x00\n        /* \"Dcoffer_flat.sol\":30346:30370  ERC721A.ownerOf(tokenId) */\n      tag_114\n        /* \"Dcoffer_flat.sol\":30362:30369  tokenId */\n      dup3\n        /* \"Dcoffer_flat.sol\":30346:30361  ERC721A.ownerOf */\n      tag_61\n        /* \"Dcoffer_flat.sol\":30346:30370  ERC721A.ownerOf(tokenId) */\n      jump\t// in\n    tag_114:\n        /* \"Dcoffer_flat.sol\":30330:30370  address owner = ERC721A.ownerOf(tokenId) */\n      swap1\n      pop\n        /* \"Dcoffer_flat.sol\":30391:30396  owner */\n      dup1\n        /* \"Dcoffer_flat.sol\":30385:30396  to == owner */\n      0xffffffffffffffffffffffffffffffffffffffff\n      and\n        /* \"Dcoffer_flat.sol\":30385:30387  to */\n      dup4\n        /* \"Dcoffer_flat.sol\":30385:30396  to == owner */\n      0xffffffffffffffffffffffffffffffffffffffff\n      and\n      sub\n        /* \"Dcoffer_flat.sol\":30381:30429  if (to == owner) revert ApprovalToCurrentOwner() */\n      tag_115\n      jumpi\n        /* \"Dcoffer_flat.sol\":30405:30429  ApprovalToCurrentOwner() */\n      mload(0x40)\n      0x943f7b8c00000000000000000000000000000000000000000000000000000000\n      dup2\n      mstore\n      0x04\n      add\n      mload(0x40)\n      dup1\n      swap2\n      sub\n      swap1\n      revert\n        /* \"Dcoffer_flat.sol\":30381:30429  if (to == owner) revert ApprovalToCurrentOwner() */\n    tag_115:\n        /* \"Dcoffer_flat.sol\":30462:30467  owner */\n      dup1\n        /* \"Dcoffer_flat.sol\":30446:30467  _msgSender() != owner */\n      0xffffffffffffffffffffffffffffffffffffffff\n      and\n        /* \"Dcoffer_flat.sol\":30446:30458  _msgSender() */\n      tag_116\n        /* \"Dcoffer_flat.sol\":30446:30456  _msgSender */\n      tag_117\n        /* \"Dcoffer_flat.sol\":30446:30458  _msgSender() */\n      jump\t// in\n    tag_116:\n        /* \"Dcoffer_flat.sol\":30446:30467  _msgSender() != owner */\n      0xffffffffffffffffffffffffffffffffffffffff\n      and\n      eq\n        /* \"Dcoffer_flat.sol\":30442:30581  if (_msgSender() != owner) if(!isApprovedForAll(owner, _msgSender())) {... */\n      tag_118\n      jumpi\n        /* \"Dcoffer_flat.sol\":30473:30510  isApprovedForAll(owner, _msgSender()) */\n      tag_119\n        /* \"Dcoffer_flat.sol\":30490:30495  owner */\n      dup2\n        /* \"Dcoffer_flat.sol\":30497:30509  _msgSender() */\n      tag_120\n        /* \"Dcoffer_flat.sol\":30497:30507  _msgSender */\n      tag_117\n        /* \"Dcoffer_flat.sol\":30497:30509  _msgSender() */\n      jump\t// in\n    tag_120:\n        /* \"Dcoffer_flat.sol\":30473:30489  isApprovedForAll */\n      tag_95\n        /* \"Dcoffer_flat.sol\":30473:30510  isApprovedForAll(owner, _msgSender()) */\n      jump\t// in\n    tag_119:\n        /* \"Dcoffer_flat.sol\":30469:30581  if(!isApprovedForAll(owner, _msgSender())) {... */\n      tag_121\n      jumpi\n        /* \"Dcoffer_flat.sol\":30534:30569  ApprovalCallerNotOwnerNorApproved() */\n      mload(0x40)\n      0xcfb3b94200000000000000000000000000000000000000000000000000000000\n      dup2\n      mstore\n      0x04\n      add\n      mload(0x40)\n      dup1\n      swap2\n      sub\n      swap1\n      revert\n        /* \"Dcoffer_flat.sol\":30469:30581  if(!isApprovedForAll(owner, _msgSender())) {... */\n    tag_121:\n        /* \"Dcoffer_flat.sol\":30442:30581  if (_msgSender() != owner) if(!isApprovedForAll(owner, _msgSender())) {... */\n    tag_118:\n        /* \"Dcoffer_flat.sol\":30593:30621  _approve(to, tokenId, owner) */\n      tag_122\n        /* \"Dcoffer_flat.sol\":30602:30604  to */\n      dup4\n        /* \"Dcoffer_flat.sol\":30606:30613  tokenId */\n      dup4\n        /* \"Dcoffer_flat.sol\":30615:30620  owner */\n      dup4\n        /* \"Dcoffer_flat.sol\":30593:30601  _approve */\n      tag_123\n        /* \"Dcoffer_flat.sol\":30593:30621  _approve(to, tokenId, owner) */\n      jump\t// in\n    tag_122:\n        /* \"Dcoffer_flat.sol\":30319:30629  {... */\n      pop\n        /* \"Dcoffer_flat.sol\":30257:30629  function approve(address to, uint256 tokenId) public override {... */\n      pop\n      pop\n      jump\t// out\n        /* \"Dcoffer_flat.sol\":25235:25547  function totalSupply() public view override returns (uint256) {... */\n    tag_46:\n        /* \"Dcoffer_flat.sol\":25288:25295  uint256 */\n      0x00\n        /* \"Dcoffer_flat.sol\":25513:25528  _startTokenId() */\n      tag_125\n        /* \"Dcoffer_flat.sol\":25513:25526  _startTokenId */\n      tag_126\n        /* \"Dcoffer_flat.sol\":25513:25528  _startTokenId() */\n      jump\t// in\n    tag_125:\n        /* \"Dcoffer_flat.sol\":25498:25510  _burnCounter */\n      sload(0x01)\n        /* \"Dcoffer_flat.sol\":25482:25495  _currentIndex */\n      sload(0x00)\n        /* \"Dcoffer_flat.sol\":25482:25510  _currentIndex - _burnCounter */\n      sub\n        /* \"Dcoffer_flat.sol\":25482:25528  _currentIndex - _burnCounter - _startTokenId() */\n      sub\n        /* \"Dcoffer_flat.sol\":25475:25528  return _currentIndex - _burnCounter - _startTokenId() */\n      swap1\n      pop\n        /* \"Dcoffer_flat.sol\":25235:25547  function totalSupply() public view override returns (uint256) {... */\n      swap1\n      jump\t// out\n        /* \"Dcoffer_flat.sol\":31560:31730  function transferFrom(... */\n    tag_53:\n        /* \"Dcoffer_flat.sol\":31694:31722  _transfer(from, to, tokenId) */\n      tag_128\n        /* \"Dcoffer_flat.sol\":31704:31708  from */\n      dup4\n        /* \"Dcoffer_flat.sol\":31710:31712  to */\n      dup4\n        /* \"Dcoffer_flat.sol\":31714:31721  tokenId */\n      dup4\n        /* \"Dcoffer_flat.sol\":31694:31703  _transfer */\n      tag_129\n        /* \"Dcoffer_flat.sol\":31694:31722  _transfer(from, to, tokenId) */\n      jump\t// in\n    tag_128:\n        /* \"Dcoffer_flat.sol\":31560:31730  function transferFrom(... */\n      pop\n      pop\n      pop\n      jump\t// out\n        /* \"Dcoffer_flat.sol\":31801:31986  function safeTransferFrom(... */\n    tag_57:\n        /* \"Dcoffer_flat.sol\":31939:31978  safeTransferFrom(from, to, tokenId, '') */\n      tag_131\n        /* \"Dcoffer_flat.sol\":31956:31960  from */\n      dup4\n        /* \"Dcoffer_flat.sol\":31962:31964  to */\n      dup4\n        /* \"Dcoffer_flat.sol\":31966:31973  tokenId */\n      dup4\n        /* \"Dcoffer_flat.sol\":31939:31978  safeTransferFrom(from, to, tokenId, '') */\n      mload(0x40)\n      dup1\n      0x20\n      add\n      0x40\n      mstore\n      dup1\n      0x00\n      dup2\n      mstore\n      pop\n        /* \"Dcoffer_flat.sol\":31939:31955  safeTransferFrom */\n      tag_85\n        /* \"Dcoffer_flat.sol\":31939:31978  safeTransferFrom(from, to, tokenId, '') */\n      jump\t// in\n    tag_131:\n        /* \"Dcoffer_flat.sol\":31801:31986  function safeTransferFrom(... */\n      pop\n      pop\n      pop\n      jump\t// out\n        /* \"Dcoffer_flat.sol\":28918:29043  function ownerOf(uint256 tokenId) public view override returns (address) {... */\n    tag_61:\n        /* \"Dcoffer_flat.sol\":28982:28989  address */\n      0x00\n        /* \"Dcoffer_flat.sol\":29009:29030  _ownershipOf(tokenId) */\n      tag_133\n        /* \"Dcoffer_flat.sol\":29022:29029  tokenId */\n      dup3\n        /* \"Dcoffer_flat.sol\":29009:29021  _ownershipOf */\n      tag_134\n        /* \"Dcoffer_flat.sol\":29009:29030  _ownershipOf(tokenId) */\n      jump\t// in\n    tag_133:\n        /* \"Dcoffer_flat.sol\":29009:29035  _ownershipOf(tokenId).addr */\n      0x00\n      add\n      mload\n        /* \"Dcoffer_flat.sol\":29002:29035  return _ownershipOf(tokenId).addr */\n      swap1\n      pop\n        /* \"Dcoffer_flat.sol\":28918:29043  function ownerOf(uint256 tokenId) public view override returns (address) {... */\n      swap2\n      swap1\n      pop\n      jump\t// out\n        /* \"Dcoffer_flat.sol\":26364:26570  function balanceOf(address owner) public view override returns (uint256) {... */\n    tag_67:\n        /* \"Dcoffer_flat.sol\":26428:26435  uint256 */\n      0x00\n        /* \"Dcoffer_flat.sol\":26469:26470  0 */\n      dup1\n        /* \"Dcoffer_flat.sol\":26452:26471  owner == address(0) */\n      0xffffffffffffffffffffffffffffffffffffffff\n      and\n        /* \"Dcoffer_flat.sol\":26452:26457  owner */\n      dup3\n        /* \"Dcoffer_flat.sol\":26452:26471  owner == address(0) */\n      0xffffffffffffffffffffffffffffffffffffffff\n      and\n      sub\n        /* \"Dcoffer_flat.sol\":26448:26508  if (owner == address(0)) revert BalanceQueryForZeroAddress() */\n      tag_136\n      jumpi\n        /* \"Dcoffer_flat.sol\":26480:26508  BalanceQueryForZeroAddress() */\n      mload(0x40)\n      0x8f4eb60400000000000000000000000000000000000000000000000000000000\n      dup2\n      mstore\n      0x04\n      add\n      mload(0x40)\n      dup1\n      swap2\n      sub\n      swap1\n      revert\n        /* \"Dcoffer_flat.sol\":26448:26508  if (owner == address(0)) revert BalanceQueryForZeroAddress() */\n    tag_136:\n        /* \"Dcoffer_flat.sol\":26534:26546  _addressData */\n      0x05\n        /* \"Dcoffer_flat.sol\":26534:26553  _addressData[owner] */\n      0x00\n        /* \"Dcoffer_flat.sol\":26547:26552  owner */\n      dup4\n        /* \"Dcoffer_flat.sol\":26534:26553  _addressData[owner] */\n      0xffffffffffffffffffffffffffffffffffffffff\n      and\n      0xffffffffffffffffffffffffffffffffffffffff\n      and\n      dup2\n      mstore\n      0x20\n      add\n      swap1\n      dup2\n      mstore\n      0x20\n      add\n      0x00\n      keccak256\n        /* \"Dcoffer_flat.sol\":26534:26561  _addressData[owner].balance */\n      0x00\n      add\n      0x00\n      swap1\n      sload\n      swap1\n      0x0100\n      exp\n      swap1\n      div\n      0xffffffffffffffff\n      and\n        /* \"Dcoffer_flat.sol\":26526:26562  uint256(_addressData[owner].balance) */\n      0xffffffffffffffff\n      and\n        /* \"Dcoffer_flat.sol\":26519:26562  return uint256(_addressData[owner].balance) */\n      swap1\n      pop\n        /* \"Dcoffer_flat.sol\":26364:26570  function balanceOf(address owner) public view override returns (uint256) {... */\n      swap2\n      swap1\n      pop\n      jump\t// out\n        /* \"Dcoffer_flat.sol\":29279:29383  function symbol() public view virtual override returns (string memory) {... */\n    tag_71:\n        /* \"Dcoffer_flat.sol\":29335:29348  string memory */\n      0x60\n        /* \"Dcoffer_flat.sol\":29368:29375  _symbol */\n      0x03\n        /* \"Dcoffer_flat.sol\":29361:29375  return _symbol */\n      dup1\n      sload\n      tag_138\n      swap1\n      tag_104\n      jump\t// in\n    tag_138:\n      dup1\n      0x1f\n      add\n      0x20\n      dup1\n      swap2\n      div\n      mul\n      0x20\n      add\n      mload(0x40)\n      swap1\n      dup2\n      add\n      0x40\n      mstore\n      dup1\n      swap3\n      swap2\n      swap1\n      dup2\n      dup2\n      mstore\n      0x20\n      add\n      dup3\n      dup1\n      sload\n      tag_139\n      swap1\n      tag_104\n      jump\t// in\n    tag_139:\n      dup1\n      iszero\n      tag_140\n      jumpi\n      dup1\n      0x1f\n      lt\n      tag_141\n      jumpi\n      0x0100\n      dup1\n      dup4\n      sload\n      div\n      mul\n      dup4\n      mstore\n      swap2\n      0x20\n      add\n      swap2\n      jump(tag_140)\n    tag_141:\n      dup3\n      add\n      swap2\n      swap1\n      0x00\n      mstore\n      keccak256(0x00, 0x20)\n      swap1\n    tag_142:\n      dup2\n      sload\n      dup2\n      mstore\n      swap1\n      0x01\n      add\n      swap1\n      0x20\n      add\n      dup1\n      dup4\n      gt\n      tag_142\n      jumpi\n      dup3\n      swap1\n      sub\n      0x1f\n      and\n      dup3\n      add\n      swap2\n    tag_140:\n      pop\n      pop\n      pop\n      pop\n      pop\n      swap1\n      pop\n        /* \"Dcoffer_flat.sol\":29279:29383  function symbol() public view virtual override returns (string memory) {... */\n      swap1\n      jump\t// out\n        /* \"Dcoffer_flat.sol\":45036:45205  function mint(uint256 quantity) external payable {... */\n    tag_75:\n        /* \"Dcoffer_flat.sol\":45168:45199  _safeMint(msg.sender, quantity) */\n      tag_144\n        /* \"Dcoffer_flat.sol\":45178:45188  msg.sender */\n      caller\n        /* \"Dcoffer_flat.sol\":45190:45198  quantity */\n      dup3\n        /* \"Dcoffer_flat.sol\":45168:45177  _safeMint */\n      tag_145\n        /* \"Dcoffer_flat.sol\":45168:45199  _safeMint(msg.sender, quantity) */\n      jump\t// in\n    tag_144:\n        /* \"Dcoffer_flat.sol\":45036:45205  function mint(uint256 quantity) external payable {... */\n      pop\n      jump\t// out\n        /* \"Dcoffer_flat.sol\":30971:31258  function setApprovalForAll(address operator, bool approved) public virtual override {... */\n    tag_80:\n        /* \"Dcoffer_flat.sol\":31082:31094  _msgSender() */\n      tag_147\n        /* \"Dcoffer_flat.sol\":31082:31092  _msgSender */\n      tag_117\n        /* \"Dcoffer_flat.sol\":31082:31094  _msgSender() */\n      jump\t// in\n    tag_147:\n        /* \"Dcoffer_flat.sol\":31070:31094  operator == _msgSender() */\n      0xffffffffffffffffffffffffffffffffffffffff\n      and\n        /* \"Dcoffer_flat.sol\":31070:31078  operator */\n      dup3\n        /* \"Dcoffer_flat.sol\":31070:31094  operator == _msgSender() */\n      0xffffffffffffffffffffffffffffffffffffffff\n      and\n      sub\n        /* \"Dcoffer_flat.sol\":31066:31120  if (operator == _msgSender()) revert ApproveToCaller() */\n      tag_148\n      jumpi\n        /* \"Dcoffer_flat.sol\":31103:31120  ApproveToCaller() */\n      mload(0x40)\n      0xb06307db00000000000000000000000000000000000000000000000000000000\n      dup2\n      mstore\n      0x04\n      add\n      mload(0x40)\n      dup1\n      swap2\n      sub\n      swap1\n      revert\n        /* \"Dcoffer_flat.sol\":31066:31120  if (operator == _msgSender()) revert ApproveToCaller() */\n    tag_148:\n        /* \"Dcoffer_flat.sol\":31178:31186  approved */\n      dup1\n        /* \"Dcoffer_flat.sol\":31133:31151  _operatorApprovals */\n      0x07\n        /* \"Dcoffer_flat.sol\":31133:31165  _operatorApprovals[_msgSender()] */\n      0x00\n        /* \"Dcoffer_flat.sol\":31152:31164  _msgSender() */\n      tag_149\n        /* \"Dcoffer_flat.sol\":31152:31162  _msgSender */\n      tag_117\n        /* \"Dcoffer_flat.sol\":31152:31164  _msgSender() */\n      jump\t// in\n    tag_149:\n        /* \"Dcoffer_flat.sol\":31133:31165  _operatorApprovals[_msgSender()] */\n      0xffffffffffffffffffffffffffffffffffffffff\n      and\n      0xffffffffffffffffffffffffffffffffffffffff\n      and\n      dup2\n      mstore\n      0x20\n      add\n      swap1\n      dup2\n      mstore\n      0x20\n      add\n      0x00\n      keccak256\n        /* \"Dcoffer_flat.sol\":31133:31175  _operatorApprovals[_msgSender()][operator] */\n      0x00\n        /* \"Dcoffer_flat.sol\":31166:31174  operator */\n      dup5\n        /* \"Dcoffer_flat.sol\":31133:31175  _operatorApprovals[_msgSender()][operator] */\n      0xffffffffffffffffffffffffffffffffffffffff\n      and\n      0xffffffffffffffffffffffffffffffffffffffff\n      and\n      dup2\n      mstore\n      0x20\n      add\n      swap1\n      dup2\n      mstore\n      0x20\n      add\n      0x00\n      keccak256\n      0x00\n        /* \"Dcoffer_flat.sol\":31133:31186  _operatorApprovals[_msgSender()][operator] = approved */\n      0x0100\n      exp\n      dup2\n      sload\n      dup2\n      0xff\n      mul\n      not\n      and\n      swap1\n      dup4\n      iszero\n      iszero\n      mul\n      or\n      swap1\n      sstore\n      pop\n        /* \"Dcoffer_flat.sol\":31231:31239  operator */\n      dup2\n        /* \"Dcoffer_flat.sol\":31202:31250  ApprovalForAll(_msgSender(), operator, approved) */\n      0xffffffffffffffffffffffffffffffffffffffff\n      and\n        /* \"Dcoffer_flat.sol\":31217:31229  _msgSender() */\n      tag_150\n        /* \"Dcoffer_flat.sol\":31217:31227  _msgSender */\n      tag_117\n        /* \"Dcoffer_flat.sol\":31217:31229  _msgSender() */\n      jump\t// in\n    tag_150:\n        /* \"Dcoffer_flat.sol\":31202:31250  ApprovalForAll(_msgSender(), operator, approved) */\n      0xffffffffffffffffffffffffffffffffffffffff\n      and\n      0x17307eab39ab6107e8899845ad3d59bd9653f200f220920489ca2b5937696c31\n        /* \"Dcoffer_flat.sol\":31241:31249  approved */\n      dup4\n        /* \"Dcoffer_flat.sol\":31202:31250  ApprovalForAll(_msgSender(), operator, approved) */\n      mload(0x40)\n      tag_151\n      swap2\n      swap1\n      tag_26\n      jump\t// in\n    tag_151:\n      mload(0x40)\n      dup1\n      swap2\n      sub\n      swap1\n      log3\n        /* \"Dcoffer_flat.sol\":30971:31258  function setApprovalForAll(address operator, bool approved) public virtual override {... */\n      pop\n      pop\n      jump\t// out\n        /* \"Dcoffer_flat.sol\":32057:32427  function safeTransferFrom(... */\n    tag_85:\n        /* \"Dcoffer_flat.sol\":32224:32252  _transfer(from, to, tokenId) */\n      tag_153\n        /* \"Dcoffer_flat.sol\":32234:32238  from */\n      dup5\n        /* \"Dcoffer_flat.sol\":32240:32242  to */\n      dup5\n        /* \"Dcoffer_flat.sol\":32244:32251  tokenId */\n      dup5\n        /* \"Dcoffer_flat.sol\":32224:32233  _transfer */\n      tag_129\n        /* \"Dcoffer_flat.sol\":32224:32252  _transfer(from, to, tokenId) */\n      jump\t// in\n    tag_153:\n        /* \"Dcoffer_flat.sol\":32267:32282  to.isContract() */\n      tag_154\n        /* \"Dcoffer_flat.sol\":32267:32269  to */\n      dup4\n        /* \"Dcoffer_flat.sol\":32267:32280  to.isContract */\n      0xffffffffffffffffffffffffffffffffffffffff\n      and\n      tag_155\n        /* \"Dcoffer_flat.sol\":32267:32282  to.isContract() */\n      jump\t// in\n    tag_154:\n        /* \"Dcoffer_flat.sol\":32263:32420  if (to.isContract()) if(!_checkContractOnERC721Received(from, to, tokenId, _data)) {... */\n      iszero\n      tag_156\n      jumpi\n        /* \"Dcoffer_flat.sol\":32288:32344  _checkContractOnERC721Received(from, to, tokenId, _data) */\n      tag_157\n        /* \"Dcoffer_flat.sol\":32319:32323  from */\n      dup5\n        /* \"Dcoffer_flat.sol\":32325:32327  to */\n      dup5\n        /* \"Dcoffer_flat.sol\":32329:32336  tokenId */\n      dup5\n        /* \"Dcoffer_flat.sol\":32338:32343  _data */\n      dup5\n        /* \"Dcoffer_flat.sol\":32288:32318  _checkContractOnERC721Received */\n      tag_158\n        /* \"Dcoffer_flat.sol\":32288:32344  _checkContractOnERC721Received(from, to, tokenId, _data) */\n      jump\t// in\n    tag_157:\n        /* \"Dcoffer_flat.sol\":32284:32420  if(!_checkContractOnERC721Received(from, to, tokenId, _data)) {... */\n      tag_159\n      jumpi\n        /* \"Dcoffer_flat.sol\":32368:32408  TransferToNonERC721ReceiverImplementer() */\n      mload(0x40)\n      0xd1a57ed600000000000000000000000000000000000000000000000000000000\n      dup2\n      mstore\n      0x04\n      add\n      mload(0x40)\n      dup1\n      swap2\n      sub\n      swap1\n      revert\n        /* \"Dcoffer_flat.sol\":32284:32420  if(!_checkContractOnERC721Received(from, to, tokenId, _data)) {... */\n    tag_159:\n        /* \"Dcoffer_flat.sol\":32263:32420  if (to.isContract()) if(!_checkContractOnERC721Received(from, to, tokenId, _data)) {... */\n    tag_156:\n        /* \"Dcoffer_flat.sol\":32057:32427  function safeTransferFrom(... */\n      pop\n      pop\n      pop\n      pop\n      jump\t// out\n        /* \"Dcoffer_flat.sol\":29454:29772  function tokenURI(uint256 tokenId) public view virtual override returns (string memory) {... */\n    tag_89:\n        /* \"Dcoffer_flat.sol\":29527:29540  string memory */\n      0x60\n        /* \"Dcoffer_flat.sol\":29558:29574  _exists(tokenId) */\n      tag_161\n        /* \"Dcoffer_flat.sol\":29566:29573  tokenId */\n      dup3\n        /* \"Dcoffer_flat.sol\":29558:29565  _exists */\n      tag_111\n        /* \"Dcoffer_flat.sol\":29558:29574  _exists(tokenId) */\n      jump\t// in\n    tag_161:\n        /* \"Dcoffer_flat.sol\":29553:29612  if (!_exists(tokenId)) revert URIQueryForNonexistentToken() */\n      tag_162\n      jumpi\n        /* \"Dcoffer_flat.sol\":29583:29612  URIQueryForNonexistentToken() */\n      mload(0x40)\n      0xa14c4b5000000000000000000000000000000000000000000000000000000000\n      dup2\n      mstore\n      0x04\n      add\n      mload(0x40)\n      dup1\n      swap2\n      sub\n      swap1\n      revert\n        /* \"Dcoffer_flat.sol\":29553:29612  if (!_exists(tokenId)) revert URIQueryForNonexistentToken() */\n    tag_162:\n        /* \"Dcoffer_flat.sol\":29625:29646  string memory baseURI */\n      0x00\n        /* \"Dcoffer_flat.sol\":29649:29659  _baseURI() */\n      tag_163\n        /* \"Dcoffer_flat.sol\":29649:29657  _baseURI */\n      tag_164\n        /* \"Dcoffer_flat.sol\":29649:29659  _baseURI() */\n      jump\t// in\n    tag_163:\n        /* \"Dcoffer_flat.sol\":29625:29659  string memory baseURI = _baseURI() */\n      swap1\n      pop\n        /* \"Dcoffer_flat.sol\":29702:29703  0 */\n      0x00\n        /* \"Dcoffer_flat.sol\":29683:29690  baseURI */\n      dup2\n        /* \"Dcoffer_flat.sol\":29677:29698  bytes(baseURI).length */\n      mload\n        /* \"Dcoffer_flat.sol\":29677:29703  bytes(baseURI).length != 0 */\n      sub\n        /* \"Dcoffer_flat.sol\":29677:29764  bytes(baseURI).length != 0 ? string(abi.encodePacked(baseURI, tokenId.toString())) : '' */\n      tag_165\n      jumpi\n      mload(0x40)\n      dup1\n      0x20\n      add\n      0x40\n      mstore\n      dup1\n      0x00\n      dup2\n      mstore\n      pop\n      jump(tag_166)\n    tag_165:\n        /* \"Dcoffer_flat.sol\":29730:29737  baseURI */\n      dup1\n        /* \"Dcoffer_flat.sol\":29739:29757  tokenId.toString() */\n      tag_167\n        /* \"Dcoffer_flat.sol\":29739:29746  tokenId */\n      dup5\n        /* \"Dcoffer_flat.sol\":29739:29755  tokenId.toString */\n      tag_168\n        /* \"Dcoffer_flat.sol\":29739:29757  tokenId.toString() */\n      jump\t// in\n    tag_167:\n        /* \"Dcoffer_flat.sol\":29713:29758  abi.encodePacked(baseURI, tokenId.toString()) */\n      add(0x20, mload(0x40))\n      tag_169\n      swap3\n      swap2\n      swap1\n      tag_170\n      jump\t// in\n    tag_169:\n      mload(0x40)\n      0x20\n      dup2\n      dup4\n      sub\n      sub\n      dup2\n      mstore\n      swap1\n      0x40\n      mstore\n        /* \"Dcoffer_flat.sol\":29677:29764  bytes(baseURI).length != 0 ? string(abi.encodePacked(baseURI, tokenId.toString())) : '' */\n    tag_166:\n        /* \"Dcoffer_flat.sol\":29670:29764  return bytes(baseURI).length != 0 ? string(abi.encodePacked(baseURI, tokenId.toString())) : '' */\n      swap2\n      pop\n      pop\n        /* \"Dcoffer_flat.sol\":29454:29772  function tokenURI(uint256 tokenId) public view virtual override returns (string memory) {... */\n      swap2\n      swap1\n      pop\n      jump\t// out\n        /* \"Dcoffer_flat.sol\":31329:31493  function isApprovedForAll(address owner, address operator) public view virtual override returns (bool) {... */\n    tag_95:\n        /* \"Dcoffer_flat.sol\":31426:31430  bool */\n      0x00\n        /* \"Dcoffer_flat.sol\":31450:31468  _operatorApprovals */\n      0x07\n        /* \"Dcoffer_flat.sol\":31450:31475  _operatorApprovals[owner] */\n      0x00\n        /* \"Dcoffer_flat.sol\":31469:31474  owner */\n      dup5\n        /* \"Dcoffer_flat.sol\":31450:31475  _operatorApprovals[owner] */\n      0xffffffffffffffffffffffffffffffffffffffff\n      and\n      0xffffffffffffffffffffffffffffffffffffffff\n      and\n      dup2\n      mstore\n      0x20\n      add\n      swap1\n      dup2\n      mstore\n      0x20\n      add\n      0x00\n      keccak256\n        /* \"Dcoffer_flat.sol\":31450:31485  _operatorApprovals[owner][operator] */\n      0x00\n        /* \"Dcoffer_flat.sol\":31476:31484  operator */\n      dup4\n        /* \"Dcoffer_flat.sol\":31450:31485  _operatorApprovals[owner][operator] */\n      0xffffffffffffffffffffffffffffffffffffffff\n      and\n      0xffffffffffffffffffffffffffffffffffffffff\n      and\n      dup2\n      mstore\n      0x20\n      add\n      swap1\n      dup2\n      mstore\n      0x20\n      add\n      0x00\n      keccak256\n      0x00\n      swap1\n      sload\n      swap1\n      0x0100\n      exp\n      swap1\n      div\n      0xff\n      and\n        /* \"Dcoffer_flat.sol\":31443:31485  return _operatorApprovals[owner][operator] */\n      swap1\n      pop\n        /* \"Dcoffer_flat.sol\":31329:31493  function isApprovedForAll(address owner, address operator) public view virtual override returns (bool) {... */\n      swap3\n      swap2\n      pop\n      pop\n      jump\t// out\n        /* \"Dcoffer_flat.sol\":14358:14515  function supportsInterface(bytes4 interfaceId) public view virtual override returns (bool) {... */\n    tag_101:\n        /* \"Dcoffer_flat.sol\":14443:14447  bool */\n      0x00\n        /* \"Dcoffer_flat.sol\":14482:14507  type(IERC165).interfaceId */\n      0x01ffc9a700000000000000000000000000000000000000000000000000000000\n        /* \"Dcoffer_flat.sol\":14467:14507  interfaceId == type(IERC165).interfaceId */\n      not(0xffffffffffffffffffffffffffffffffffffffffffffffffffffffff)\n      and\n        /* \"Dcoffer_flat.sol\":14467:14478  interfaceId */\n      dup3\n        /* \"Dcoffer_flat.sol\":14467:14507  interfaceId == type(IERC165).interfaceId */\n      not(0xffffffffffffffffffffffffffffffffffffffffffffffffffffffff)\n      and\n      eq\n        /* \"Dcoffer_flat.sol\":14460:14507  return interfaceId == type(IERC165).interfaceId */\n      swap1\n      pop\n        /* \"Dcoffer_flat.sol\":14358:14515  function supportsInterface(bytes4 interfaceId) public view virtual override returns (bool) {... */\n      swap2\n      swap1\n      pop\n      jump\t// out\n        /* \"Dcoffer_flat.sol\":32682:32856  function _exists(uint256 tokenId) internal view returns (bool) {... */\n    tag_111:\n        /* \"Dcoffer_flat.sol\":32739:32743  bool */\n      0x00\n        /* \"Dcoffer_flat.sol\":32782:32789  tokenId */\n      dup2\n        /* \"Dcoffer_flat.sol\":32763:32778  _startTokenId() */\n      tag_174\n        /* \"Dcoffer_flat.sol\":32763:32776  _startTokenId */\n      tag_126\n        /* \"Dcoffer_flat.sol\":32763:32778  _startTokenId() */\n      jump\t// in\n    tag_174:\n        /* \"Dcoffer_flat.sol\":32763:32789  _startTokenId() <= tokenId */\n      gt\n      iszero\n        /* \"Dcoffer_flat.sol\":32763:32816  _startTokenId() <= tokenId && tokenId < _currentIndex */\n      dup1\n      iszero\n      tag_175\n      jumpi\n      pop\n        /* \"Dcoffer_flat.sol\":32803:32816  _currentIndex */\n      sload(0x00)\n        /* \"Dcoffer_flat.sol\":32793:32800  tokenId */\n      dup3\n        /* \"Dcoffer_flat.sol\":32793:32816  tokenId < _currentIndex */\n      lt\n        /* \"Dcoffer_flat.sol\":32763:32816  _startTokenId() <= tokenId && tokenId < _currentIndex */\n    tag_175:\n        /* \"Dcoffer_flat.sol\":32763:32848  _startTokenId() <= tokenId && tokenId < _currentIndex && !_ownerships[tokenId].burned */\n      dup1\n      iszero\n      tag_176\n      jumpi\n      pop\n        /* \"Dcoffer_flat.sol\":32821:32832  _ownerships */\n      0x04\n        /* \"Dcoffer_flat.sol\":32821:32841  _ownerships[tokenId] */\n      0x00\n        /* \"Dcoffer_flat.sol\":32833:32840  tokenId */\n      dup4\n        /* \"Dcoffer_flat.sol\":32821:32841  _ownerships[tokenId] */\n      dup2\n      mstore\n      0x20\n      add\n      swap1\n      dup2\n      mstore\n      0x20\n      add\n      0x00\n      keccak256\n        /* \"Dcoffer_flat.sol\":32821:32848  _ownerships[tokenId].burned */\n      0x00\n      add\n      0x1c\n      swap1\n      sload\n      swap1\n      0x0100\n      exp\n      swap1\n      div\n      0xff\n      and\n        /* \"Dcoffer_flat.sol\":32820:32848  !_ownerships[tokenId].burned */\n      iszero\n        /* \"Dcoffer_flat.sol\":32763:32848  _startTokenId() <= tokenId && tokenId < _currentIndex && !_ownerships[tokenId].burned */\n    tag_176:\n        /* \"Dcoffer_flat.sol\":32756:32848  return _startTokenId() <= tokenId && tokenId < _currentIndex && !_ownerships[tokenId].burned */\n      swap1\n      pop\n        /* \"Dcoffer_flat.sol\":32682:32856  function _exists(uint256 tokenId) internal view returns (bool) {... */\n      swap2\n      swap1\n      pop\n      jump\t// out\n        /* \"Dcoffer_flat.sol\":2805:2903  function _msgSender() internal view virtual returns (address) {... */\n    tag_117:\n        /* \"Dcoffer_flat.sol\":2858:2865  address */\n      0x00\n        /* \"Dcoffer_flat.sol\":2885:2895  msg.sender */\n      caller\n        /* \"Dcoffer_flat.sol\":2878:2895  return msg.sender */\n      swap1\n      pop\n        /* \"Dcoffer_flat.sol\":2805:2903  function _msgSender() internal view virtual returns (address) {... */\n      swap1\n      jump\t// out\n        /* \"Dcoffer_flat.sol\":41904:42100  function _approve(... */\n    tag_123:\n        /* \"Dcoffer_flat.sol\":42046:42048  to */\n      dup3\n        /* \"Dcoffer_flat.sol\":42019:42034  _tokenApprovals */\n      0x06\n        /* \"Dcoffer_flat.sol\":42019:42043  _tokenApprovals[tokenId] */\n      0x00\n        /* \"Dcoffer_flat.sol\":42035:42042  tokenId */\n      dup5\n        /* \"Dcoffer_flat.sol\":42019:42043  _tokenApprovals[tokenId] */\n      dup2\n      mstore\n      0x20\n      add\n      swap1\n      dup2\n      mstore\n      0x20\n      add\n      0x00\n      keccak256\n      0x00\n        /* \"Dcoffer_flat.sol\":42019:42048  _tokenApprovals[tokenId] = to */\n      0x0100\n      exp\n      dup2\n      sload\n      dup2\n      0xffffffffffffffffffffffffffffffffffffffff\n      mul\n      not\n      and\n      swap1\n      dup4\n      0xffffffffffffffffffffffffffffffffffffffff\n      and\n      mul\n      or\n      swap1\n      sstore\n      pop\n        /* \"Dcoffer_flat.sol\":42084:42091  tokenId */\n      dup2\n        /* \"Dcoffer_flat.sol\":42080:42082  to */\n      dup4\n        /* \"Dcoffer_flat.sol\":42064:42092  Approval(owner, to, tokenId) */\n      0xffffffffffffffffffffffffffffffffffffffff\n      and\n        /* \"Dcoffer_flat.sol\":42073:42078  owner */\n      dup3\n        /* \"Dcoffer_flat.sol\":42064:42092  Approval(owner, to, tokenId) */\n      0xffffffffffffffffffffffffffffffffffffffff\n      and\n      0x8c5be1e5ebec7d5bd14f71427d1e84f3dd0314c0f7b2291e5b200ac8c7c3b925\n      mload(0x40)\n      mload(0x40)\n      dup1\n      swap2\n      sub\n      swap1\n      log4\n        /* \"Dcoffer_flat.sol\":41904:42100  function _approve(... */\n      pop\n      pop\n      pop\n      jump\t// out\n        /* \"Dcoffer_flat.sol\":25009:25101  function _startTokenId() internal view virtual returns (uint256) {... */\n    tag_126:\n        /* \"Dcoffer_flat.sol\":25065:25072  uint256 */\n      0x00\n        /* \"Dcoffer_flat.sol\":25092:25093  1 */\n      0x01\n        /* \"Dcoffer_flat.sol\":25085:25093  return 1 */\n      swap1\n      pop\n        /* \"Dcoffer_flat.sol\":25009:25101  function _startTokenId() internal view virtual returns (uint256) {... */\n      swap1\n      jump\t// out\n        /* \"Dcoffer_flat.sol\":36852:38982  function _transfer(... */\n    tag_129:\n        /* \"Dcoffer_flat.sol\":36967:37002  TokenOwnership memory prevOwnership */\n      0x00\n        /* \"Dcoffer_flat.sol\":37005:37026  _ownershipOf(tokenId) */\n      tag_181\n        /* \"Dcoffer_flat.sol\":37018:37025  tokenId */\n      dup3\n        /* \"Dcoffer_flat.sol\":37005:37017  _ownershipOf */\n      tag_134\n        /* \"Dcoffer_flat.sol\":37005:37026  _ownershipOf(tokenId) */\n      jump\t// in\n    tag_181:\n        /* \"Dcoffer_flat.sol\":36967:37026  TokenOwnership memory prevOwnership = _ownershipOf(tokenId) */\n      swap1\n      pop\n        /* \"Dcoffer_flat.sol\":37065:37069  from */\n      dup4\n        /* \"Dcoffer_flat.sol\":37043:37069  prevOwnership.addr != from */\n      0xffffffffffffffffffffffffffffffffffffffff\n      and\n        /* \"Dcoffer_flat.sol\":37043:37056  prevOwnership */\n      dup2\n        /* \"Dcoffer_flat.sol\":37043:37061  prevOwnership.addr */\n      0x00\n      add\n      mload\n        /* \"Dcoffer_flat.sol\":37043:37069  prevOwnership.addr != from */\n      0xffffffffffffffffffffffffffffffffffffffff\n      and\n      eq\n        /* \"Dcoffer_flat.sol\":37039:37106  if (prevOwnership.addr != from) revert TransferFromIncorrectOwner() */\n      tag_182\n      jumpi\n        /* \"Dcoffer_flat.sol\":37078:37106  TransferFromIncorrectOwner() */\n      mload(0x40)\n      0xa114810000000000000000000000000000000000000000000000000000000000\n      dup2\n      mstore\n      0x04\n      add\n      mload(0x40)\n      dup1\n      swap2\n      sub\n      swap1\n      revert\n        /* \"Dcoffer_flat.sol\":37039:37106  if (prevOwnership.addr != from) revert TransferFromIncorrectOwner() */\n    tag_182:\n        /* \"Dcoffer_flat.sol\":37119:37141  bool isApprovedOrOwner */\n      0x00\n        /* \"Dcoffer_flat.sol\":37161:37165  from */\n      dup5\n        /* \"Dcoffer_flat.sol\":37145:37165  _msgSender() == from */\n      0xffffffffffffffffffffffffffffffffffffffff\n      and\n        /* \"Dcoffer_flat.sol\":37145:37157  _msgSender() */\n      tag_183\n        /* \"Dcoffer_flat.sol\":37145:37155  _msgSender */\n      tag_117\n        /* \"Dcoffer_flat.sol\":37145:37157  _msgSender() */\n      jump\t// in\n    tag_183:\n        /* \"Dcoffer_flat.sol\":37145:37165  _msgSender() == from */\n      0xffffffffffffffffffffffffffffffffffffffff\n      and\n      eq\n        /* \"Dcoffer_flat.sol\":37145:37218  _msgSender() == from ||... */\n      dup1\n      tag_184\n      jumpi\n      pop\n        /* \"Dcoffer_flat.sol\":37182:37218  isApprovedForAll(from, _msgSender()) */\n      tag_185\n        /* \"Dcoffer_flat.sol\":37199:37203  from */\n      dup6\n        /* \"Dcoffer_flat.sol\":37205:37217  _msgSender() */\n      tag_186\n        /* \"Dcoffer_flat.sol\":37205:37215  _msgSender */\n      tag_117\n        /* \"Dcoffer_flat.sol\":37205:37217  _msgSender() */\n      jump\t// in\n    tag_186:\n        /* \"Dcoffer_flat.sol\":37182:37198  isApprovedForAll */\n      tag_95\n        /* \"Dcoffer_flat.sol\":37182:37218  isApprovedForAll(from, _msgSender()) */\n      jump\t// in\n    tag_185:\n        /* \"Dcoffer_flat.sol\":37145:37218  _msgSender() == from ||... */\n    tag_184:\n        /* \"Dcoffer_flat.sol\":37145:37271  _msgSender() == from ||... */\n      dup1\n      tag_187\n      jumpi\n      pop\n        /* \"Dcoffer_flat.sol\":37259:37271  _msgSender() */\n      tag_188\n        /* \"Dcoffer_flat.sol\":37259:37269  _msgSender */\n      tag_117\n        /* \"Dcoffer_flat.sol\":37259:37271  _msgSender() */\n      jump\t// in\n    tag_188:\n        /* \"Dcoffer_flat.sol\":37235:37271  getApproved(tokenId) == _msgSender() */\n      0xffffffffffffffffffffffffffffffffffffffff\n      and\n        /* \"Dcoffer_flat.sol\":37235:37255  getApproved(tokenId) */\n      tag_189\n        /* \"Dcoffer_flat.sol\":37247:37254  tokenId */\n      dup5\n        /* \"Dcoffer_flat.sol\":37235:37246  getApproved */\n      tag_36\n        /* \"Dcoffer_flat.sol\":37235:37255  getApproved(tokenId) */\n      jump\t// in\n    tag_189:\n        /* \"Dcoffer_flat.sol\":37235:37271  getApproved(tokenId) == _msgSender() */\n      0xffffffffffffffffffffffffffffffffffffffff\n      and\n      eq\n        /* \"Dcoffer_flat.sol\":37145:37271  _msgSender() == from ||... */\n    tag_187:\n        /* \"Dcoffer_flat.sol\":37119:37272  bool isApprovedOrOwner = (_msgSender() == from ||... */\n      swap1\n      pop\n        /* \"Dcoffer_flat.sol\":37290:37307  isApprovedOrOwner */\n      dup1\n        /* \"Dcoffer_flat.sol\":37285:37351  if (!isApprovedOrOwner) revert TransferCallerNotOwnerNorApproved() */\n      tag_190\n      jumpi\n        /* \"Dcoffer_flat.sol\":37316:37351  TransferCallerNotOwnerNorApproved() */\n      mload(0x40)\n      0x59c896be00000000000000000000000000000000000000000000000000000000\n      dup2\n      mstore\n      0x04\n      add\n      mload(0x40)\n      dup1\n      swap2\n      sub\n      swap1\n      revert\n        /* \"Dcoffer_flat.sol\":37285:37351  if (!isApprovedOrOwner) revert TransferCallerNotOwnerNorApproved() */\n    tag_190:\n        /* \"Dcoffer_flat.sol\":37380:37381  0 */\n      0x00\n        /* \"Dcoffer_flat.sol\":37366:37382  to == address(0) */\n      0xffffffffffffffffffffffffffffffffffffffff\n      and\n        /* \"Dcoffer_flat.sol\":37366:37368  to */\n      dup5\n        /* \"Dcoffer_flat.sol\":37366:37382  to == address(0) */\n      0xffffffffffffffffffffffffffffffffffffffff\n      and\n      sub\n        /* \"Dcoffer_flat.sol\":37362:37414  if (to == address(0)) revert TransferToZeroAddress() */\n      tag_191\n      jumpi\n        /* \"Dcoffer_flat.sol\":37391:37414  TransferToZeroAddress() */\n      mload(0x40)\n      0xea553b3400000000000000000000000000000000000000000000000000000000\n      dup2\n      mstore\n      0x04\n      add\n      mload(0x40)\n      dup1\n      swap2\n      sub\n      swap1\n      revert\n        /* \"Dcoffer_flat.sol\":37362:37414  if (to == address(0)) revert TransferToZeroAddress() */\n    tag_191:\n        /* \"Dcoffer_flat.sol\":37427:37470  _beforeTokenTransfers(from, to, tokenId, 1) */\n      tag_192\n        /* \"Dcoffer_flat.sol\":37449:37453  from */\n      dup6\n        /* \"Dcoffer_flat.sol\":37455:37457  to */\n      dup6\n        /* \"Dcoffer_flat.sol\":37459:37466  tokenId */\n      dup6\n        /* \"Dcoffer_flat.sol\":37468:37469  1 */\n      0x01\n        /* \"Dcoffer_flat.sol\":37427:37448  _beforeTokenTransfers */\n      tag_193\n        /* \"Dcoffer_flat.sol\":37427:37470  _beforeTokenTransfers(from, to, tokenId, 1) */\n      jump\t// in\n    tag_192:\n        /* \"Dcoffer_flat.sol\":37535:37570  _approve(address(0), tokenId, from) */\n      tag_194\n        /* \"Dcoffer_flat.sol\":37552:37553  0 */\n      0x00\n        /* \"Dcoffer_flat.sol\":37556:37563  tokenId */\n      dup5\n        /* \"Dcoffer_flat.sol\":37565:37569  from */\n      dup8\n        /* \"Dcoffer_flat.sol\":37535:37543  _approve */\n      tag_123\n        /* \"Dcoffer_flat.sol\":37535:37570  _approve(address(0), tokenId, from) */\n      jump\t// in\n    tag_194:\n        /* \"Dcoffer_flat.sol\":37896:37897  1 */\n      0x01\n        /* \"Dcoffer_flat.sol\":37866:37878  _addressData */\n      0x05\n        /* \"Dcoffer_flat.sol\":37866:37884  _addressData[from] */\n      0x00\n        /* \"Dcoffer_flat.sol\":37879:37883  from */\n      dup8\n        /* \"Dcoffer_flat.sol\":37866:37884  _addressData[from] */\n      0xffffffffffffffffffffffffffffffffffffffff\n      and\n      0xffffffffffffffffffffffffffffffffffffffff\n      and\n      dup2\n      mstore\n      0x20\n      add\n      swap1\n      dup2\n      mstore\n      0x20\n      add\n      0x00\n      keccak256\n        /* \"Dcoffer_flat.sol\":37866:37892  _addressData[from].balance */\n      0x00\n      add\n      0x00\n        /* \"Dcoffer_flat.sol\":37866:37897  _addressData[from].balance -= 1 */\n      dup3\n      dup3\n      dup3\n      swap1\n      sload\n      swap1\n      0x0100\n      exp\n      swap1\n      div\n      0xffffffffffffffff\n      and\n      sub\n      swap3\n      pop\n      0x0100\n      exp\n      dup2\n      sload\n      dup2\n      0xffffffffffffffff\n      mul\n      not\n      and\n      swap1\n      dup4\n      0xffffffffffffffff\n      and\n      mul\n      or\n      swap1\n      sstore\n      pop\n        /* \"Dcoffer_flat.sol\":37940:37941  1 */\n      0x01\n        /* \"Dcoffer_flat.sol\":37912:37924  _addressData */\n      0x05\n        /* \"Dcoffer_flat.sol\":37912:37928  _addressData[to] */\n      0x00\n        /* \"Dcoffer_flat.sol\":37925:37927  to */\n      dup7\n        /* \"Dcoffer_flat.sol\":37912:37928  _addressData[to] */\n      0xffffffffffffffffffffffffffffffffffffffff\n      and\n      0xffffffffffffffffffffffffffffffffffffffff\n      and\n      dup2\n      mstore\n      0x20\n      add\n      swap1\n      dup2\n      mstore\n      0x20\n      add\n      0x00\n      keccak256\n        /* \"Dcoffer_flat.sol\":37912:37936  _addressData[to].balance */\n      0x00\n      add\n      0x00\n        /* \"Dcoffer_flat.sol\":37912:37941  _addressData[to].balance += 1 */\n      dup3\n      dup3\n      dup3\n      swap1\n      sload\n      swap1\n      0x0100\n      exp\n      swap1\n      div\n      0xffffffffffffffff\n      and\n      add\n      swap3\n      pop\n      0x0100\n      exp\n      dup2\n      sload\n      dup2\n      0xffffffffffffffff\n      mul\n      not\n      and\n      swap1\n      dup4\n      0xffffffffffffffff\n      and\n      mul\n      or\n      swap1\n      sstore\n      pop\n        /* \"Dcoffer_flat.sol\":37958:37989  TokenOwnership storage currSlot */\n      0x00\n        /* \"Dcoffer_flat.sol\":37992:38003  _ownerships */\n      0x04\n        /* \"Dcoffer_flat.sol\":37992:38012  _ownerships[tokenId] */\n      0x00\n        /* \"Dcoffer_flat.sol\":38004:38011  tokenId */\n      dup6\n        /* \"Dcoffer_flat.sol\":37992:38012  _ownerships[tokenId] */\n      dup2\n      mstore\n      0x20\n      add\n      swap1\n      dup2\n      mstore\n      0x20\n      add\n      0x00\n      keccak256\n        /* \"Dcoffer_flat.sol\":37958:38012  TokenOwnership storage currSlot = _ownerships[tokenId] */\n      swap1\n      pop\n        /* \"Dcoffer_flat.sol\":38043:38045  to */\n      dup5\n        /* \"Dcoffer_flat.sol\":38027:38035  currSlot */\n      dup2\n        /* \"Dcoffer_flat.sol\":38027:38040  currSlot.addr */\n      0x00\n      add\n      0x00\n        /* \"Dcoffer_flat.sol\":38027:38045  currSlot.addr = to */\n      0x0100\n      exp\n      dup2\n      sload\n      dup2\n      0xffffffffffffffffffffffffffffffffffffffff\n      mul\n      not\n      and\n      swap1\n      dup4\n      0xffffffffffffffffffffffffffffffffffffffff\n      and\n      mul\n      or\n      swap1\n      sstore\n      pop\n        /* \"Dcoffer_flat.sol\":38093:38108  block.timestamp */\n      timestamp\n        /* \"Dcoffer_flat.sol\":38060:38068  currSlot */\n      dup2\n        /* \"Dcoffer_flat.sol\":38060:38083  currSlot.startTimestamp */\n      0x00\n      add\n      0x14\n        /* \"Dcoffer_flat.sol\":38060:38109  currSlot.startTimestamp = uint64(block.timestamp) */\n      0x0100\n      exp\n      dup2\n      sload\n      dup2\n      0xffffffffffffffff\n      mul\n      not\n      and\n      swap1\n      dup4\n      0xffffffffffffffff\n      and\n      mul\n      or\n      swap1\n      sstore\n      pop\n        /* \"Dcoffer_flat.sol\":38361:38380  uint256 nextTokenId */\n      0x00\n        /* \"Dcoffer_flat.sol\":38393:38394  1 */\n      0x01\n        /* \"Dcoffer_flat.sol\":38383:38390  tokenId */\n      dup6\n        /* \"Dcoffer_flat.sol\":38383:38394  tokenId + 1 */\n      add\n        /* \"Dcoffer_flat.sol\":38361:38394  uint256 nextTokenId = tokenId + 1 */\n      swap1\n      pop\n        /* \"Dcoffer_flat.sol\":38409:38440  TokenOwnership storage nextSlot */\n      0x00\n        /* \"Dcoffer_flat.sol\":38443:38454  _ownerships */\n      0x04\n        /* \"Dcoffer_flat.sol\":38443:38467  _ownerships[nextTokenId] */\n      0x00\n        /* \"Dcoffer_flat.sol\":38455:38466  nextTokenId */\n      dup4\n        /* \"Dcoffer_flat.sol\":38443:38467  _ownerships[nextTokenId] */\n      dup2\n      mstore\n      0x20\n      add\n      swap1\n      dup2\n      mstore\n      0x20\n      add\n      0x00\n      keccak256\n        /* \"Dcoffer_flat.sol\":38409:38467  TokenOwnership storage nextSlot = _ownerships[nextTokenId] */\n      swap1\n      pop\n        /* \"Dcoffer_flat.sol\":38511:38512  0 */\n      0x00\n        /* \"Dcoffer_flat.sol\":38486:38513  nextSlot.addr == address(0) */\n      0xffffffffffffffffffffffffffffffffffffffff\n      and\n        /* \"Dcoffer_flat.sol\":38486:38494  nextSlot */\n      dup2\n        /* \"Dcoffer_flat.sol\":38486:38499  nextSlot.addr */\n      0x00\n      add\n      0x00\n      swap1\n      sload\n      swap1\n      0x0100\n      exp\n      swap1\n      div\n      0xffffffffffffffffffffffffffffffffffffffff\n      and\n        /* \"Dcoffer_flat.sol\":38486:38513  nextSlot.addr == address(0) */\n      0xffffffffffffffffffffffffffffffffffffffff\n      and\n      sub\n        /* \"Dcoffer_flat.sol\":38482:38866  if (nextSlot.addr == address(0)) {... */\n      tag_195\n      jumpi\n        /* \"Dcoffer_flat.sol\":38696:38709  _currentIndex */\n      sload(0x00)\n        /* \"Dcoffer_flat.sol\":38681:38692  nextTokenId */\n      dup3\n        /* \"Dcoffer_flat.sol\":38681:38709  nextTokenId != _currentIndex */\n      eq\n        /* \"Dcoffer_flat.sol\":38677:38851  if (nextTokenId != _currentIndex) {... */\n      tag_196\n      jumpi\n        /* \"Dcoffer_flat.sol\":38750:38754  from */\n      dup8\n        /* \"Dcoffer_flat.sol\":38734:38742  nextSlot */\n      dup2\n        /* \"Dcoffer_flat.sol\":38734:38747  nextSlot.addr */\n      0x00\n      add\n      0x00\n        /* \"Dcoffer_flat.sol\":38734:38754  nextSlot.addr = from */\n      0x0100\n      exp\n      dup2\n      sload\n      dup2\n      0xffffffffffffffffffffffffffffffffffffffff\n      mul\n      not\n      and\n      swap1\n      dup4\n      0xffffffffffffffffffffffffffffffffffffffff\n      and\n      mul\n      or\n      swap1\n      sstore\n      pop\n        /* \"Dcoffer_flat.sol\":38803:38816  prevOwnership */\n      dup5\n        /* \"Dcoffer_flat.sol\":38803:38831  prevOwnership.startTimestamp */\n      0x20\n      add\n      mload\n        /* \"Dcoffer_flat.sol\":38777:38785  nextSlot */\n      dup2\n        /* \"Dcoffer_flat.sol\":38777:38800  nextSlot.startTimestamp */\n      0x00\n      add\n      0x14\n        /* \"Dcoffer_flat.sol\":38777:38831  nextSlot.startTimestamp = prevOwnership.startTimestamp */\n      0x0100\n      exp\n      dup2\n      sload\n      dup2\n      0xffffffffffffffff\n      mul\n      not\n      and\n      swap1\n      dup4\n      0xffffffffffffffff\n      and\n      mul\n      or\n      swap1\n      sstore\n      pop\n        /* \"Dcoffer_flat.sol\":38677:38851  if (nextTokenId != _currentIndex) {... */\n    tag_196:\n        /* \"Dcoffer_flat.sol\":38482:38866  if (nextSlot.addr == address(0)) {... */\n    tag_195:\n        /* \"Dcoffer_flat.sol\":37841:38877  unchecked {... */\n      pop\n      pop\n      pop\n        /* \"Dcoffer_flat.sol\":38913:38920  tokenId */\n      dup3\n        /* \"Dcoffer_flat.sol\":38909:38911  to */\n      dup5\n        /* \"Dcoffer_flat.sol\":38894:38921  Transfer(from, to, tokenId) */\n      0xffffffffffffffffffffffffffffffffffffffff\n      and\n        /* \"Dcoffer_flat.sol\":38903:38907  from */\n      dup7\n        /* \"Dcoffer_flat.sol\":38894:38921  Transfer(from, to, tokenId) */\n      0xffffffffffffffffffffffffffffffffffffffff\n      and\n      0xddf252ad1be2c89b69c2b068fc378daa952ba7f163c4a11628f55a4df523b3ef\n      mload(0x40)\n      mload(0x40)\n      dup1\n      swap2\n      sub\n      swap1\n      log4\n        /* \"Dcoffer_flat.sol\":38932:38974  _afterTokenTransfers(from, to, tokenId, 1) */\n      tag_197\n        /* \"Dcoffer_flat.sol\":38953:38957  from */\n      dup6\n        /* \"Dcoffer_flat.sol\":38959:38961  to */\n      dup6\n        /* \"Dcoffer_flat.sol\":38963:38970  tokenId */\n      dup6\n        /* \"Dcoffer_flat.sol\":38972:38973  1 */\n      0x01\n        /* \"Dcoffer_flat.sol\":38932:38952  _afterTokenTransfers */\n      tag_198\n        /* \"Dcoffer_flat.sol\":38932:38974  _afterTokenTransfers(from, to, tokenId, 1) */\n      jump\t// in\n    tag_197:\n        /* \"Dcoffer_flat.sol\":36956:38982  {... */\n      pop\n      pop\n        /* \"Dcoffer_flat.sol\":36852:38982  function _transfer(... */\n      pop\n      pop\n      pop\n      jump\t// out\n        /* \"Dcoffer_flat.sol\":27745:28856  function _ownershipOf(uint256 tokenId) internal view returns (TokenOwnership memory) {... */\n    tag_134:\n        /* \"Dcoffer_flat.sol\":27807:27828  TokenOwnership memory */\n      tag_199\n      tag_200\n      jump\t// in\n    tag_199:\n        /* \"Dcoffer_flat.sol\":27841:27853  uint256 curr */\n      0x00\n        /* \"Dcoffer_flat.sol\":27856:27863  tokenId */\n      dup3\n        /* \"Dcoffer_flat.sol\":27841:27863  uint256 curr = tokenId */\n      swap1\n      pop\n        /* \"Dcoffer_flat.sol\":27924:27928  curr */\n      dup1\n        /* \"Dcoffer_flat.sol\":27905:27920  _startTokenId() */\n      tag_202\n        /* \"Dcoffer_flat.sol\":27905:27918  _startTokenId */\n      tag_126\n        /* \"Dcoffer_flat.sol\":27905:27920  _startTokenId() */\n      jump\t// in\n    tag_202:\n        /* \"Dcoffer_flat.sol\":27905:27928  _startTokenId() <= curr */\n      gt\n        /* \"Dcoffer_flat.sol\":27901:28789  if (_startTokenId() <= curr) if (curr < _currentIndex) {... */\n      tag_203\n      jumpi\n        /* \"Dcoffer_flat.sol\":27941:27954  _currentIndex */\n      sload(0x00)\n        /* \"Dcoffer_flat.sol\":27934:27938  curr */\n      dup2\n        /* \"Dcoffer_flat.sol\":27934:27954  curr < _currentIndex */\n      lt\n        /* \"Dcoffer_flat.sol\":27930:28789  if (curr < _currentIndex) {... */\n      iszero\n      tag_204\n      jumpi\n        /* \"Dcoffer_flat.sol\":27975:28006  TokenOwnership memory ownership */\n      0x00\n        /* \"Dcoffer_flat.sol\":28009:28020  _ownerships */\n      0x04\n        /* \"Dcoffer_flat.sol\":28009:28026  _ownerships[curr] */\n      0x00\n        /* \"Dcoffer_flat.sol\":28021:28025  curr */\n      dup4\n        /* \"Dcoffer_flat.sol\":28009:28026  _ownerships[curr] */\n      dup2\n      mstore\n      0x20\n      add\n      swap1\n      dup2\n      mstore\n      0x20\n      add\n      0x00\n      keccak256\n        /* \"Dcoffer_flat.sol\":27975:28026  TokenOwnership memory ownership = _ownerships[curr] */\n      mload(0x40)\n      dup1\n      0x60\n      add\n      0x40\n      mstore\n      swap1\n      dup2\n      0x00\n      dup3\n      add\n      0x00\n      swap1\n      sload\n      swap1\n      0x0100\n      exp\n      swap1\n      div\n      0xffffffffffffffffffffffffffffffffffffffff\n      and\n      0xffffffffffffffffffffffffffffffffffffffff\n      and\n      0xffffffffffffffffffffffffffffffffffffffff\n      and\n      dup2\n      mstore\n      0x20\n      add\n      0x00\n      dup3\n      add\n      0x14\n      swap1\n      sload\n      swap1\n      0x0100\n      exp\n      swap1\n      div\n      0xffffffffffffffff\n      and\n      0xffffffffffffffff\n      and\n      0xffffffffffffffff\n      and\n      dup2\n      mstore\n      0x20\n      add\n      0x00\n      dup3\n      add\n      0x1c\n      swap1\n      sload\n      swap1\n      0x0100\n      exp\n      swap1\n      div\n      0xff\n      and\n      iszero\n      iszero\n      iszero\n      iszero\n      dup2\n      mstore\n      pop\n      pop\n      swap1\n      pop\n        /* \"Dcoffer_flat.sol\":28050:28059  ownership */\n      dup1\n        /* \"Dcoffer_flat.sol\":28050:28066  ownership.burned */\n      0x40\n      add\n      mload\n        /* \"Dcoffer_flat.sol\":28045:28774  if (!ownership.burned) {... */\n      tag_205\n      jumpi\n        /* \"Dcoffer_flat.sol\":28121:28122  0 */\n      0x00\n        /* \"Dcoffer_flat.sol\":28095:28123  ownership.addr != address(0) */\n      0xffffffffffffffffffffffffffffffffffffffff\n      and\n        /* \"Dcoffer_flat.sol\":28095:28104  ownership */\n      dup2\n        /* \"Dcoffer_flat.sol\":28095:28109  ownership.addr */\n      0x00\n      add\n      mload\n        /* \"Dcoffer_flat.sol\":28095:28123  ownership.addr != address(0) */\n      0xffffffffffffffffffffffffffffffffffffffff\n      and\n      eq\n        /* \"Dcoffer_flat.sol\":28091:28192  if (ownership.addr != address(0)) {... */\n      tag_206\n      jumpi\n        /* \"Dcoffer_flat.sol\":28159:28168  ownership */\n      dup1\n        /* \"Dcoffer_flat.sol\":28152:28168  return ownership */\n      swap3\n      pop\n      pop\n      pop\n      jump(tag_201)\n        /* \"Dcoffer_flat.sol\":28091:28192  if (ownership.addr != address(0)) {... */\n    tag_206:\n        /* \"Dcoffer_flat.sol\":28494:28755  while (true) {... */\n    tag_207:\n        /* \"Dcoffer_flat.sol\":28501:28505  true */\n      0x01\n        /* \"Dcoffer_flat.sol\":28494:28755  while (true) {... */\n      iszero\n      tag_208\n      jumpi\n        /* \"Dcoffer_flat.sol\":28534:28540  curr-- */\n      dup2\n      dup1\n      0x01\n      swap1\n      sub\n      swap3\n      pop\n      pop\n        /* \"Dcoffer_flat.sol\":28579:28590  _ownerships */\n      0x04\n        /* \"Dcoffer_flat.sol\":28579:28596  _ownerships[curr] */\n      0x00\n        /* \"Dcoffer_flat.sol\":28591:28595  curr */\n      dup4\n        /* \"Dcoffer_flat.sol\":28579:28596  _ownerships[curr] */\n      dup2\n      mstore\n      0x20\n      add\n      swap1\n      dup2\n      mstore\n      0x20\n      add\n      0x00\n      keccak256\n        /* \"Dcoffer_flat.sol\":28567:28596  ownership = _ownerships[curr] */\n      mload(0x40)\n      dup1\n      0x60\n      add\n      0x40\n      mstore\n      swap1\n      dup2\n      0x00\n      dup3\n      add\n      0x00\n      swap1\n      sload\n      swap1\n      0x0100\n      exp\n      swap1\n      div\n      0xffffffffffffffffffffffffffffffffffffffff\n      and\n      0xffffffffffffffffffffffffffffffffffffffff\n      and\n      0xffffffffffffffffffffffffffffffffffffffff\n      and\n      dup2\n      mstore\n      0x20\n      add\n      0x00\n      dup3\n      add\n      0x14\n      swap1\n      sload\n      swap1\n      0x0100\n      exp\n      swap1\n      div\n      0xffffffffffffffff\n      and\n      0xffffffffffffffff\n      and\n      0xffffffffffffffff\n      and\n      dup2\n      mstore\n      0x20\n      add\n      0x00\n      dup3\n      add\n      0x1c\n      swap1\n      sload\n      swap1\n      0x0100\n      exp\n      swap1\n      div\n      0xff\n      and\n      iszero\n      iszero\n      iszero\n      iszero\n      dup2\n      mstore\n      pop\n      pop\n      swap1\n      pop\n        /* \"Dcoffer_flat.sol\":28653:28654  0 */\n      0x00\n        /* \"Dcoffer_flat.sol\":28627:28655  ownership.addr != address(0) */\n      0xffffffffffffffffffffffffffffffffffffffff\n      and\n        /* \"Dcoffer_flat.sol\":28627:28636  ownership */\n      dup2\n        /* \"Dcoffer_flat.sol\":28627:28641  ownership.addr */\n      0x00\n      add\n      mload\n        /* \"Dcoffer_flat.sol\":28627:28655  ownership.addr != address(0) */\n      0xffffffffffffffffffffffffffffffffffffffff\n      and\n      eq\n        /* \"Dcoffer_flat.sol\":28623:28732  if (ownership.addr != address(0)) {... */\n      tag_209\n      jumpi\n        /* \"Dcoffer_flat.sol\":28695:28704  ownership */\n      dup1\n        /* \"Dcoffer_flat.sol\":28688:28704  return ownership */\n      swap3\n      pop\n      pop\n      pop\n      jump(tag_201)\n        /* \"Dcoffer_flat.sol\":28623:28732  if (ownership.addr != address(0)) {... */\n    tag_209:\n        /* \"Dcoffer_flat.sol\":28494:28755  while (true) {... */\n      jump(tag_207)\n    tag_208:\n        /* \"Dcoffer_flat.sol\":28045:28774  if (!ownership.burned) {... */\n    tag_205:\n        /* \"Dcoffer_flat.sol\":27956:28789  {... */\n      pop\n        /* \"Dcoffer_flat.sol\":27930:28789  if (curr < _currentIndex) {... */\n    tag_204:\n        /* \"Dcoffer_flat.sol\":27901:28789  if (_startTokenId() <= curr) if (curr < _currentIndex) {... */\n    tag_203:\n        /* \"Dcoffer_flat.sol\":28817:28848  OwnerQueryForNonexistentToken() */\n      mload(0x40)\n      0xdf2d9b4200000000000000000000000000000000000000000000000000000000\n      dup2\n      mstore\n      0x04\n      add\n      mload(0x40)\n      dup1\n      swap2\n      sub\n      swap1\n      revert\n        /* \"Dcoffer_flat.sol\":27745:28856  function _ownershipOf(uint256 tokenId) internal view returns (TokenOwnership memory) {... */\n    tag_201:\n      swap2\n      swap1\n      pop\n      jump\t// out\n        /* \"Dcoffer_flat.sol\":32940:33044  function _safeMint(address to, uint256 quantity) internal {... */\n    tag_145:\n        /* \"Dcoffer_flat.sol\":33009:33036  _safeMint(to, quantity, '') */\n      tag_211\n        /* \"Dcoffer_flat.sol\":33019:33021  to */\n      dup3\n        /* \"Dcoffer_flat.sol\":33023:33031  quantity */\n      dup3\n        /* \"Dcoffer_flat.sol\":33009:33036  _safeMint(to, quantity, '') */\n      mload(0x40)\n      dup1\n      0x20\n      add\n      0x40\n      mstore\n      dup1\n      0x00\n      dup2\n      mstore\n      pop\n        /* \"Dcoffer_flat.sol\":33009:33018  _safeMint */\n      tag_212\n        /* \"Dcoffer_flat.sol\":33009:33036  _safeMint(to, quantity, '') */\n      jump\t// in\n    tag_211:\n        /* \"Dcoffer_flat.sol\":32940:33044  function _safeMint(address to, uint256 quantity) internal {... */\n      pop\n      pop\n      jump\t// out\n        /* \"Dcoffer_flat.sol\":4252:4578  function isContract(address account) internal view returns (bool) {... */\n    tag_155:\n        /* \"Dcoffer_flat.sol\":4312:4316  bool */\n      0x00\n        /* \"Dcoffer_flat.sol\":4569:4570  0 */\n      dup1\n        /* \"Dcoffer_flat.sol\":4547:4554  account */\n      dup3\n        /* \"Dcoffer_flat.sol\":4547:4566  account.code.length */\n      0xffffffffffffffffffffffffffffffffffffffff\n      and\n      extcodesize\n        /* \"Dcoffer_flat.sol\":4547:4570  account.code.length > 0 */\n      gt\n        /* \"Dcoffer_flat.sol\":4540:4570  return account.code.length > 0 */\n      swap1\n      pop\n        /* \"Dcoffer_flat.sol\":4252:4578  function isContract(address account) internal view returns (bool) {... */\n      swap2\n      swap1\n      pop\n      jump\t// out\n        /* \"Dcoffer_flat.sol\":42592:43259  function _checkContractOnERC721Received(... */\n    tag_158:\n        /* \"Dcoffer_flat.sol\":42755:42759  bool */\n      0x00\n        /* \"Dcoffer_flat.sol\":42792:42794  to */\n      dup4\n        /* \"Dcoffer_flat.sol\":42776:42812  IERC721Receiver(to).onERC721Received */\n      0xffffffffffffffffffffffffffffffffffffffff\n      and\n      0x150b7a02\n        /* \"Dcoffer_flat.sol\":42813:42825  _msgSender() */\n      tag_215\n        /* \"Dcoffer_flat.sol\":42813:42823  _msgSender */\n      tag_117\n        /* \"Dcoffer_flat.sol\":42813:42825  _msgSender() */\n      jump\t// in\n    tag_215:\n        /* \"Dcoffer_flat.sol\":42827:42831  from */\n      dup8\n        /* \"Dcoffer_flat.sol\":42833:42840  tokenId */\n      dup7\n        /* \"Dcoffer_flat.sol\":42842:42847  _data */\n      dup7\n        /* \"Dcoffer_flat.sol\":42776:42848  IERC721Receiver(to).onERC721Received(_msgSender(), from, tokenId, _data) */\n      mload(0x40)\n      dup6\n      0xffffffff\n      and\n      0xe0\n      shl\n      dup2\n      mstore\n      0x04\n      add\n      tag_216\n      swap5\n      swap4\n      swap3\n      swap2\n      swap1\n      tag_217\n      jump\t// in\n    tag_216:\n      0x20\n      mload(0x40)\n      dup1\n      dup4\n      sub\n      dup2\n      0x00\n      dup8\n      gas\n      call\n      swap3\n      pop\n      pop\n      pop\n      dup1\n      iszero\n      tag_218\n      jumpi\n      pop\n      mload(0x40)\n      returndatasize\n      not(0x1f)\n      0x1f\n      dup3\n      add\n      and\n      dup3\n      add\n      dup1\n      0x40\n      mstore\n      pop\n      dup2\n      add\n      swap1\n      tag_219\n      swap2\n      swap1\n      tag_220\n      jump\t// in\n    tag_219:\n      0x01\n    tag_218:\n        /* \"Dcoffer_flat.sol\":42772:43252  try IERC721Receiver(to).onERC721Received(_msgSender(), from, tokenId, _data) returns (bytes4 retval) {... */\n      tag_221\n      jumpi\n      returndatasize\n      dup1\n      0x00\n      dup2\n      eq\n      tag_226\n      jumpi\n      mload(0x40)\n      swap2\n      pop\n      and(add(returndatasize, 0x3f), not(0x1f))\n      dup3\n      add\n      0x40\n      mstore\n      returndatasize\n      dup3\n      mstore\n      returndatasize\n      0x00\n      0x20\n      dup5\n      add\n      returndatacopy\n      jump(tag_225)\n    tag_226:\n      0x60\n      swap2\n      pop\n    tag_225:\n      pop\n        /* \"Dcoffer_flat.sol\":43027:43028  0 */\n      0x00\n        /* \"Dcoffer_flat.sol\":43010:43016  reason */\n      dup2\n        /* \"Dcoffer_flat.sol\":43010:43023  reason.length */\n      mload\n        /* \"Dcoffer_flat.sol\":43010:43028  reason.length == 0 */\n      sub\n        /* \"Dcoffer_flat.sol\":43006:43241  if (reason.length == 0) {... */\n      tag_227\n      jumpi\n        /* \"Dcoffer_flat.sol\":43056:43096  TransferToNonERC721ReceiverImplementer() */\n      mload(0x40)\n      0xd1a57ed600000000000000000000000000000000000000000000000000000000\n      dup2\n      mstore\n      0x04\n      add\n      mload(0x40)\n      dup1\n      swap2\n      sub\n      swap1\n      revert\n        /* \"Dcoffer_flat.sol\":43006:43241  if (reason.length == 0) {... */\n    tag_227:\n        /* \"Dcoffer_flat.sol\":43199:43205  reason */\n      dup1\n        /* \"Dcoffer_flat.sol\":43193:43206  mload(reason) */\n      mload\n        /* \"Dcoffer_flat.sol\":43184:43190  reason */\n      dup2\n        /* \"Dcoffer_flat.sol\":43180:43182  32 */\n      0x20\n        /* \"Dcoffer_flat.sol\":43176:43191  add(32, reason) */\n      add\n        /* \"Dcoffer_flat.sol\":43169:43207  revert(add(32, reason), mload(reason)) */\n      revert\n        /* \"Dcoffer_flat.sol\":42772:43252  try IERC721Receiver(to).onERC721Received(_msgSender(), from, tokenId, _data) returns (bytes4 retval) {... */\n    tag_221:\n        /* \"Dcoffer_flat.sol\":42905:42950  IERC721Receiver(to).onERC721Received.selector */\n      shl(0xe0, 0x150b7a02)\n        /* \"Dcoffer_flat.sol\":42895:42950  retval == IERC721Receiver(to).onERC721Received.selector */\n      not(0xffffffffffffffffffffffffffffffffffffffffffffffffffffffff)\n      and\n        /* \"Dcoffer_flat.sol\":42895:42901  retval */\n      dup2\n        /* \"Dcoffer_flat.sol\":42895:42950  retval == IERC721Receiver(to).onERC721Received.selector */\n      not(0xffffffffffffffffffffffffffffffffffffffffffffffffffffffff)\n      and\n      eq\n        /* \"Dcoffer_flat.sol\":42888:42950  return retval == IERC721Receiver(to).onERC721Received.selector */\n      swap2\n      pop\n      pop\n        /* \"Dcoffer_flat.sol\":42592:43259  function _checkContractOnERC721Received(... */\n      swap5\n      swap4\n      pop\n      pop\n      pop\n      pop\n      jump\t// out\n        /* \"Dcoffer_flat.sol\":30020:30195  function _baseURI() internal view virtual returns (string memory) {... */\n    tag_164:\n        /* \"Dcoffer_flat.sol\":30071:30084  string memory */\n      0x60\n        /* \"Dcoffer_flat.sol\":30097:30187  return 'https://gateway.pinata.cloud/ipfs/QmfHWktTbSTBNLww8ZDh2qc5DKqiZciknoq76ZfXrsoR1v/' */\n      mload(0x40)\n      dup1\n      0x80\n      add\n      0x40\n      mstore\n      dup1\n      0x51\n      dup2\n      mstore\n      0x20\n      add\n      data_d8bb5093925f17312ccd69c1ad4eefb61d29f5f451bdf501cef244662be1efab\n      0x51\n      swap2\n      codecopy\n      swap1\n      pop\n        /* \"Dcoffer_flat.sol\":30020:30195  function _baseURI() internal view virtual returns (string memory) {... */\n      swap1\n      jump\t// out\n        /* \"Dcoffer_flat.sol\":367:1090  function toString(uint256 value) internal pure returns (string memory) {... */\n    tag_168:\n        /* \"Dcoffer_flat.sol\":423:436  string memory */\n      0x60\n        /* \"Dcoffer_flat.sol\":653:654  0 */\n      0x00\n        /* \"Dcoffer_flat.sol\":644:649  value */\n      dup3\n        /* \"Dcoffer_flat.sol\":644:654  value == 0 */\n      sub\n        /* \"Dcoffer_flat.sol\":640:693  if (value == 0) {... */\n      tag_232\n      jumpi\n        /* \"Dcoffer_flat.sol\":671:681  return \"0\" */\n      mload(0x40)\n      dup1\n      0x40\n      add\n      0x40\n      mstore\n      dup1\n      0x01\n      dup2\n      mstore\n      0x20\n      add\n      0x3000000000000000000000000000000000000000000000000000000000000000\n      dup2\n      mstore\n      pop\n      swap1\n      pop\n      jump(tag_231)\n        /* \"Dcoffer_flat.sol\":640:693  if (value == 0) {... */\n    tag_232:\n        /* \"Dcoffer_flat.sol\":703:715  uint256 temp */\n      0x00\n        /* \"Dcoffer_flat.sol\":718:723  value */\n      dup3\n        /* \"Dcoffer_flat.sol\":703:723  uint256 temp = value */\n      swap1\n      pop\n        /* \"Dcoffer_flat.sol\":734:748  uint256 digits */\n      0x00\n        /* \"Dcoffer_flat.sol\":759:837  while (temp != 0) {... */\n    tag_233:\n        /* \"Dcoffer_flat.sol\":774:775  0 */\n      0x00\n        /* \"Dcoffer_flat.sol\":766:770  temp */\n      dup3\n        /* \"Dcoffer_flat.sol\":766:775  temp != 0 */\n      eq\n        /* \"Dcoffer_flat.sol\":759:837  while (temp != 0) {... */\n      tag_234\n      jumpi\n        /* \"Dcoffer_flat.sol\":792:800  digits++ */\n      dup1\n      dup1\n      tag_235\n      swap1\n      tag_236\n      jump\t// in\n    tag_235:\n      swap2\n      pop\n      pop\n        /* \"Dcoffer_flat.sol\":823:825  10 */\n      0x0a\n        /* \"Dcoffer_flat.sol\":815:825  temp /= 10 */\n      dup3\n      tag_237\n      swap2\n      swap1\n      tag_238\n      jump\t// in\n    tag_237:\n      swap2\n      pop\n        /* \"Dcoffer_flat.sol\":759:837  while (temp != 0) {... */\n      jump(tag_233)\n    tag_234:\n        /* \"Dcoffer_flat.sol\":847:866  bytes memory buffer */\n      0x00\n        /* \"Dcoffer_flat.sol\":879:885  digits */\n      dup2\n        /* \"Dcoffer_flat.sol\":869:886  new bytes(digits) */\n      0xffffffffffffffff\n      dup2\n      gt\n      iszero\n      tag_239\n      jumpi\n      tag_240\n      tag_241\n      jump\t// in\n    tag_240:\n    tag_239:\n      mload(0x40)\n      swap1\n      dup1\n      dup3\n      mstore\n      dup1\n      0x1f\n      add\n      not(0x1f)\n      and\n      0x20\n      add\n      dup3\n      add\n      0x40\n      mstore\n      dup1\n      iszero\n      tag_242\n      jumpi\n      dup2\n      0x20\n      add\n      0x01\n      dup3\n      mul\n      dup1\n      calldatasize\n      dup4\n      calldatacopy\n      dup1\n      dup3\n      add\n      swap2\n      pop\n      pop\n      swap1\n      pop\n    tag_242:\n      pop\n        /* \"Dcoffer_flat.sol\":847:886  bytes memory buffer = new bytes(digits) */\n      swap1\n      pop\n        /* \"Dcoffer_flat.sol\":897:1051  while (value != 0) {... */\n    tag_243:\n        /* \"Dcoffer_flat.sol\":913:914  0 */\n      0x00\n        /* \"Dcoffer_flat.sol\":904:909  value */\n      dup6\n        /* \"Dcoffer_flat.sol\":904:914  value != 0 */\n      eq\n        /* \"Dcoffer_flat.sol\":897:1051  while (value != 0) {... */\n      tag_244\n      jumpi\n        /* \"Dcoffer_flat.sol\":941:942  1 */\n      0x01\n        /* \"Dcoffer_flat.sol\":931:942  digits -= 1 */\n      dup3\n      tag_245\n      swap2\n      swap1\n      tag_246\n      jump\t// in\n    tag_245:\n      swap2\n      pop\n        /* \"Dcoffer_flat.sol\":1008:1010  10 */\n      0x0a\n        /* \"Dcoffer_flat.sol\":1000:1005  value */\n      dup6\n        /* \"Dcoffer_flat.sol\":1000:1010  value % 10 */\n      tag_247\n      swap2\n      swap1\n      tag_248\n      jump\t// in\n    tag_247:\n        /* \"Dcoffer_flat.sol\":987:989  48 */\n      0x30\n        /* \"Dcoffer_flat.sol\":987:1011  48 + uint256(value % 10) */\n      tag_249\n      swap2\n      swap1\n      tag_250\n      jump\t// in\n    tag_249:\n        /* \"Dcoffer_flat.sol\":974:1013  bytes1(uint8(48 + uint256(value % 10))) */\n      0xf8\n      shl\n        /* \"Dcoffer_flat.sol\":957:963  buffer */\n      dup2\n        /* \"Dcoffer_flat.sol\":964:970  digits */\n      dup4\n        /* \"Dcoffer_flat.sol\":957:971  buffer[digits] */\n      dup2\n      mload\n      dup2\n      lt\n      tag_251\n      jumpi\n      tag_252\n      tag_253\n      jump\t// in\n    tag_252:\n    tag_251:\n      0x20\n      add\n      add\n        /* \"Dcoffer_flat.sol\":957:1013  buffer[digits] = bytes1(uint8(48 + uint256(value % 10))) */\n      swap1\n      not(0xffffffffffffffffffffffffffffffffffffffffffffffffffffffffffffff)\n      and\n      swap1\n      dup2\n      0x00\n      byte\n      swap1\n      mstore8\n      pop\n        /* \"Dcoffer_flat.sol\":1037:1039  10 */\n      0x0a\n        /* \"Dcoffer_flat.sol\":1028:1039  value /= 10 */\n      dup6\n      tag_254\n      swap2\n      swap1\n      tag_238\n      jump\t// in\n    tag_254:\n      swap5\n      pop\n        /* \"Dcoffer_flat.sol\":897:1051  while (value != 0) {... */\n      jump(tag_243)\n    tag_244:\n        /* \"Dcoffer_flat.sol\":1075:1081  buffer */\n      dup1\n        /* \"Dcoffer_flat.sol\":1061:1082  return string(buffer) */\n      swap4\n      pop\n      pop\n      pop\n      pop\n        /* \"Dcoffer_flat.sol\":367:1090  function toString(uint256 value) internal pure returns (string memory) {... */\n    tag_231:\n      swap2\n      swap1\n      pop\n      jump\t// out\n        /* \"Dcoffer_flat.sol\":43907:44066  function _beforeTokenTransfers(... */\n    tag_193:\n      pop\n      pop\n      pop\n      pop\n      jump\t// out\n        /* \"Dcoffer_flat.sol\":44725:44883  function _afterTokenTransfers(... */\n    tag_198:\n      pop\n      pop\n      pop\n      pop\n      jump\t// out\n        /* \"Dcoffer_flat.sol\":33417:35166  function _safeMint(... */\n    tag_212:\n        /* \"Dcoffer_flat.sol\":33540:33560  uint256 startTokenId */\n      0x00\n        /* \"Dcoffer_flat.sol\":33563:33576  _currentIndex */\n      dup1\n      sload\n        /* \"Dcoffer_flat.sol\":33540:33576  uint256 startTokenId = _currentIndex */\n      swap1\n      pop\n        /* \"Dcoffer_flat.sol\":33605:33606  0 */\n      0x00\n        /* \"Dcoffer_flat.sol\":33591:33607  to == address(0) */\n      0xffffffffffffffffffffffffffffffffffffffff\n      and\n        /* \"Dcoffer_flat.sol\":33591:33593  to */\n      dup5\n        /* \"Dcoffer_flat.sol\":33591:33607  to == address(0) */\n      0xffffffffffffffffffffffffffffffffffffffff\n      and\n      sub\n        /* \"Dcoffer_flat.sol\":33587:33635  if (to == address(0)) revert MintToZeroAddress() */\n      tag_258\n      jumpi\n        /* \"Dcoffer_flat.sol\":33616:33635  MintToZeroAddress() */\n      mload(0x40)\n      0x2e07630000000000000000000000000000000000000000000000000000000000\n      dup2\n      mstore\n      0x04\n      add\n      mload(0x40)\n      dup1\n      swap2\n      sub\n      swap1\n      revert\n        /* \"Dcoffer_flat.sol\":33587:33635  if (to == address(0)) revert MintToZeroAddress() */\n    tag_258:\n        /* \"Dcoffer_flat.sol\":33662:33663  0 */\n      0x00\n        /* \"Dcoffer_flat.sol\":33650:33658  quantity */\n      dup4\n        /* \"Dcoffer_flat.sol\":33650:33663  quantity == 0 */\n      sub\n        /* \"Dcoffer_flat.sol\":33646:33690  if (quantity == 0) revert MintZeroQuantity() */\n      tag_259\n      jumpi\n        /* \"Dcoffer_flat.sol\":33672:33690  MintZeroQuantity() */\n      mload(0x40)\n      0xb562e8dd00000000000000000000000000000000000000000000000000000000\n      dup2\n      mstore\n      0x04\n      add\n      mload(0x40)\n      dup1\n      swap2\n      sub\n      swap1\n      revert\n        /* \"Dcoffer_flat.sol\":33646:33690  if (quantity == 0) revert MintZeroQuantity() */\n    tag_259:\n        /* \"Dcoffer_flat.sol\":33703:33764  _beforeTokenTransfers(address(0), to, startTokenId, quantity) */\n      tag_260\n        /* \"Dcoffer_flat.sol\":33733:33734  0 */\n      0x00\n        /* \"Dcoffer_flat.sol\":33737:33739  to */\n      dup6\n        /* \"Dcoffer_flat.sol\":33741:33753  startTokenId */\n      dup4\n        /* \"Dcoffer_flat.sol\":33755:33763  quantity */\n      dup7\n        /* \"Dcoffer_flat.sol\":33703:33724  _beforeTokenTransfers */\n      tag_193\n        /* \"Dcoffer_flat.sol\":33703:33764  _beforeTokenTransfers(address(0), to, startTokenId, quantity) */\n      jump\t// in\n    tag_260:\n        /* \"Dcoffer_flat.sol\":34076:34084  quantity */\n      dup3\n        /* \"Dcoffer_flat.sol\":34041:34053  _addressData */\n      0x05\n        /* \"Dcoffer_flat.sol\":34041:34057  _addressData[to] */\n      0x00\n        /* \"Dcoffer_flat.sol\":34054:34056  to */\n      dup7\n        /* \"Dcoffer_flat.sol\":34041:34057  _addressData[to] */\n      0xffffffffffffffffffffffffffffffffffffffff\n      and\n      0xffffffffffffffffffffffffffffffffffffffff\n      and\n      dup2\n      mstore\n      0x20\n      add\n      swap1\n      dup2\n      mstore\n      0x20\n      add\n      0x00\n      keccak256\n        /* \"Dcoffer_flat.sol\":34041:34065  _addressData[to].balance */\n      0x00\n      add\n      0x00\n        /* \"Dcoffer_flat.sol\":34041:34085  _addressData[to].balance += uint64(quantity) */\n      dup3\n      dup3\n      dup3\n      swap1\n      sload\n      swap1\n      0x0100\n      exp\n      swap1\n      div\n      0xffffffffffffffff\n      and\n      add\n      swap3\n      pop\n      0x0100\n      exp\n      dup2\n      sload\n      dup2\n      0xffffffffffffffff\n      mul\n      not\n      and\n      swap1\n      dup4\n      0xffffffffffffffff\n      and\n      mul\n      or\n      swap1\n      sstore\n      pop\n        /* \"Dcoffer_flat.sol\":34140:34148  quantity */\n      dup3\n        /* \"Dcoffer_flat.sol\":34100:34112  _addressData */\n      0x05\n        /* \"Dcoffer_flat.sol\":34100:34116  _addressData[to] */\n      0x00\n        /* \"Dcoffer_flat.sol\":34113:34115  to */\n      dup7\n        /* \"Dcoffer_flat.sol\":34100:34116  _addressData[to] */\n      0xffffffffffffffffffffffffffffffffffffffff\n      and\n      0xffffffffffffffffffffffffffffffffffffffff\n      and\n      dup2\n      mstore\n      0x20\n      add\n      swap1\n      dup2\n      mstore\n      0x20\n      add\n      0x00\n      keccak256\n        /* \"Dcoffer_flat.sol\":34100:34129  _addressData[to].numberMinted */\n      0x00\n      add\n      0x08\n        /* \"Dcoffer_flat.sol\":34100:34149  _addressData[to].numberMinted += uint64(quantity) */\n      dup3\n      dup3\n      dup3\n      swap1\n      sload\n      swap1\n      0x0100\n      exp\n      swap1\n      div\n      0xffffffffffffffff\n      and\n      add\n      swap3\n      pop\n      0x0100\n      exp\n      dup2\n      sload\n      dup2\n      0xffffffffffffffff\n      mul\n      not\n      and\n      swap1\n      dup4\n      0xffffffffffffffff\n      and\n      mul\n      or\n      swap1\n      sstore\n      pop\n        /* \"Dcoffer_flat.sol\":34199:34201  to */\n      dup4\n        /* \"Dcoffer_flat.sol\":34166:34177  _ownerships */\n      0x04\n        /* \"Dcoffer_flat.sol\":34166:34191  _ownerships[startTokenId] */\n      0x00\n        /* \"Dcoffer_flat.sol\":34178:34190  startTokenId */\n      dup4\n        /* \"Dcoffer_flat.sol\":34166:34191  _ownerships[startTokenId] */\n      dup2\n      mstore\n      0x20\n      add\n      swap1\n      dup2\n      mstore\n      0x20\n      add\n      0x00\n      keccak256\n        /* \"Dcoffer_flat.sol\":34166:34196  _ownerships[startTokenId].addr */\n      0x00\n      add\n      0x00\n        /* \"Dcoffer_flat.sol\":34166:34201  _ownerships[startTokenId].addr = to */\n      0x0100\n      exp\n      dup2\n      sload\n      dup2\n      0xffffffffffffffffffffffffffffffffffffffff\n      mul\n      not\n      and\n      swap1\n      dup4\n      0xffffffffffffffffffffffffffffffffffffffff\n      and\n      mul\n      or\n      swap1\n      sstore\n      pop\n        /* \"Dcoffer_flat.sol\":34266:34281  block.timestamp */\n      timestamp\n        /* \"Dcoffer_flat.sol\":34216:34227  _ownerships */\n      0x04\n        /* \"Dcoffer_flat.sol\":34216:34241  _ownerships[startTokenId] */\n      0x00\n        /* \"Dcoffer_flat.sol\":34228:34240  startTokenId */\n      dup4\n        /* \"Dcoffer_flat.sol\":34216:34241  _ownerships[startTokenId] */\n      dup2\n      mstore\n      0x20\n      add\n      swap1\n      dup2\n      mstore\n      0x20\n      add\n      0x00\n      keccak256\n        /* \"Dcoffer_flat.sol\":34216:34256  _ownerships[startTokenId].startTimestamp */\n      0x00\n      add\n      0x14\n        /* \"Dcoffer_flat.sol\":34216:34282  _ownerships[startTokenId].startTimestamp = uint64(block.timestamp) */\n      0x0100\n      exp\n      dup2\n      sload\n      dup2\n      0xffffffffffffffff\n      mul\n      not\n      and\n      swap1\n      dup4\n      0xffffffffffffffff\n      and\n      mul\n      or\n      swap1\n      sstore\n      pop\n        /* \"Dcoffer_flat.sol\":34299:34319  uint256 updatedIndex */\n      0x00\n        /* \"Dcoffer_flat.sol\":34322:34334  startTokenId */\n      dup2\n        /* \"Dcoffer_flat.sol\":34299:34334  uint256 updatedIndex = startTokenId */\n      swap1\n      pop\n        /* \"Dcoffer_flat.sol\":34349:34360  uint256 end */\n      0x00\n        /* \"Dcoffer_flat.sol\":34378:34386  quantity */\n      dup5\n        /* \"Dcoffer_flat.sol\":34363:34375  updatedIndex */\n      dup3\n        /* \"Dcoffer_flat.sol\":34363:34386  updatedIndex + quantity */\n      add\n        /* \"Dcoffer_flat.sol\":34349:34386  uint256 end = updatedIndex + quantity */\n      swap1\n      pop\n        /* \"Dcoffer_flat.sol\":34407:34422  to.isContract() */\n      tag_261\n        /* \"Dcoffer_flat.sol\":34407:34409  to */\n      dup7\n        /* \"Dcoffer_flat.sol\":34407:34420  to.isContract */\n      0xffffffffffffffffffffffffffffffffffffffff\n      and\n      tag_155\n        /* \"Dcoffer_flat.sol\":34407:34422  to.isContract() */\n      jump\t// in\n    tag_261:\n        /* \"Dcoffer_flat.sol\":34403:35034  if (to.isContract()) {... */\n      iszero\n      tag_262\n      jumpi\n        /* \"Dcoffer_flat.sol\":34443:34756  do {... */\n    tag_263:\n        /* \"Dcoffer_flat.sol\":34499:34511  updatedIndex */\n      dup2\n        /* \"Dcoffer_flat.sol\":34495:34497  to */\n      dup7\n        /* \"Dcoffer_flat.sol\":34474:34512  Transfer(address(0), to, updatedIndex) */\n      0xffffffffffffffffffffffffffffffffffffffff\n      and\n        /* \"Dcoffer_flat.sol\":34491:34492  0 */\n      0x00\n        /* \"Dcoffer_flat.sol\":34474:34512  Transfer(address(0), to, updatedIndex) */\n      0xffffffffffffffffffffffffffffffffffffffff\n      and\n      0xddf252ad1be2c89b69c2b068fc378daa952ba7f163c4a11628f55a4df523b3ef\n      mload(0x40)\n      mload(0x40)\n      dup1\n      swap2\n      sub\n      swap1\n      log4\n        /* \"Dcoffer_flat.sol\":34540:34609  _checkContractOnERC721Received(address(0), to, updatedIndex++, _data) */\n      tag_266\n        /* \"Dcoffer_flat.sol\":34579:34580  0 */\n      0x00\n        /* \"Dcoffer_flat.sol\":34583:34585  to */\n      dup8\n        /* \"Dcoffer_flat.sol\":34587:34601  updatedIndex++ */\n      dup5\n      dup1\n      0x01\n      add\n      swap6\n      pop\n        /* \"Dcoffer_flat.sol\":34603:34608  _data */\n      dup8\n        /* \"Dcoffer_flat.sol\":34540:34570  _checkContractOnERC721Received */\n      tag_158\n        /* \"Dcoffer_flat.sol\":34540:34609  _checkContractOnERC721Received(address(0), to, updatedIndex++, _data) */\n      jump\t// in\n    tag_266:\n        /* \"Dcoffer_flat.sol\":34535:34709  if (!_checkContractOnERC721Received(address(0), to, updatedIndex++, _data)) {... */\n      tag_267\n      jumpi\n        /* \"Dcoffer_flat.sol\":34645:34685  TransferToNonERC721ReceiverImplementer() */\n      mload(0x40)\n      0xd1a57ed600000000000000000000000000000000000000000000000000000000\n      dup2\n      mstore\n      0x04\n      add\n      mload(0x40)\n      dup1\n      swap2\n      sub\n      swap1\n      revert\n        /* \"Dcoffer_flat.sol\":34535:34709  if (!_checkContractOnERC721Received(address(0), to, updatedIndex++, _data)) {... */\n    tag_267:\n        /* \"Dcoffer_flat.sol\":34751:34754  end */\n      dup1\n        /* \"Dcoffer_flat.sol\":34736:34748  updatedIndex */\n      dup3\n        /* \"Dcoffer_flat.sol\":34736:34754  updatedIndex < end */\n      lt\n        /* \"Dcoffer_flat.sol\":34443:34756  do {... */\n      tag_263\n      jumpi\n        /* \"Dcoffer_flat.sol\":34837:34849  startTokenId */\n      dup3\n        /* \"Dcoffer_flat.sol\":34820:34833  _currentIndex */\n      sload(0x00)\n        /* \"Dcoffer_flat.sol\":34820:34849  _currentIndex != startTokenId */\n      eq\n        /* \"Dcoffer_flat.sol\":34816:34859  if (_currentIndex != startTokenId) revert() */\n      tag_268\n      jumpi\n        /* \"Dcoffer_flat.sol\":34851:34859  revert() */\n      0x00\n      dup1\n      revert\n        /* \"Dcoffer_flat.sol\":34816:34859  if (_currentIndex != startTokenId) revert() */\n    tag_268:\n        /* \"Dcoffer_flat.sol\":34403:35034  if (to.isContract()) {... */\n      jump(tag_269)\n    tag_262:\n        /* \"Dcoffer_flat.sol\":34900:35019  do {... */\n    tag_270:\n        /* \"Dcoffer_flat.sol\":34956:34970  updatedIndex++ */\n      dup2\n      dup1\n      0x01\n      add\n      swap3\n      pop\n        /* \"Dcoffer_flat.sol\":34952:34954  to */\n      dup7\n        /* \"Dcoffer_flat.sol\":34931:34971  Transfer(address(0), to, updatedIndex++) */\n      0xffffffffffffffffffffffffffffffffffffffff\n      and\n        /* \"Dcoffer_flat.sol\":34948:34949  0 */\n      0x00\n        /* \"Dcoffer_flat.sol\":34931:34971  Transfer(address(0), to, updatedIndex++) */\n      0xffffffffffffffffffffffffffffffffffffffff\n      and\n      0xddf252ad1be2c89b69c2b068fc378daa952ba7f163c4a11628f55a4df523b3ef\n      mload(0x40)\n      mload(0x40)\n      dup1\n      swap2\n      sub\n      swap1\n      log4\n        /* \"Dcoffer_flat.sol\":35014:35017  end */\n      dup1\n        /* \"Dcoffer_flat.sol\":34999:35011  updatedIndex */\n      dup3\n        /* \"Dcoffer_flat.sol\":34999:35017  updatedIndex < end */\n      lt\n        /* \"Dcoffer_flat.sol\":34900:35019  do {... */\n      tag_270\n      jumpi\n        /* \"Dcoffer_flat.sol\":34403:35034  if (to.isContract()) {... */\n    tag_269:\n        /* \"Dcoffer_flat.sol\":35064:35076  updatedIndex */\n      dup2\n        /* \"Dcoffer_flat.sol\":35048:35061  _currentIndex */\n      0x00\n        /* \"Dcoffer_flat.sol\":35048:35076  _currentIndex = updatedIndex */\n      dup2\n      swap1\n      sstore\n      pop\n        /* \"Dcoffer_flat.sol\":34016:35088  unchecked {... */\n      pop\n      pop\n        /* \"Dcoffer_flat.sol\":35098:35158  _afterTokenTransfers(address(0), to, startTokenId, quantity) */\n      tag_273\n        /* \"Dcoffer_flat.sol\":35127:35128  0 */\n      0x00\n        /* \"Dcoffer_flat.sol\":35131:35133  to */\n      dup6\n        /* \"Dcoffer_flat.sol\":35135:35147  startTokenId */\n      dup4\n        /* \"Dcoffer_flat.sol\":35149:35157  quantity */\n      dup7\n        /* \"Dcoffer_flat.sol\":35098:35118  _afterTokenTransfers */\n      tag_198\n        /* \"Dcoffer_flat.sol\":35098:35158  _afterTokenTransfers(address(0), to, startTokenId, quantity) */\n      jump\t// in\n    tag_273:\n        /* \"Dcoffer_flat.sol\":33529:35166  {... */\n      pop\n        /* \"Dcoffer_flat.sol\":33417:35166  function _safeMint(... */\n      pop\n      pop\n      pop\n      jump\t// out\n    tag_200:\n      mload(0x40)\n      dup1\n      0x60\n      add\n      0x40\n      mstore\n      dup1\n      and(0xffffffffffffffffffffffffffffffffffffffff, 0x00)\n      dup2\n      mstore\n      0x20\n      add\n      and(0xffffffffffffffff, 0x00)\n      dup2\n      mstore\n      0x20\n      add\n      iszero(iszero(0x00))\n      dup2\n      mstore\n      pop\n      swap1\n      jump\t// out\n        /* \"#utility.yul\":7:82   */\n    tag_274:\n        /* \"#utility.yul\":40:46   */\n      0x00\n        /* \"#utility.yul\":73:75   */\n      0x40\n        /* \"#utility.yul\":67:76   */\n      mload\n        /* \"#utility.yul\":57:76   */\n      swap1\n      pop\n        /* \"#utility.yul\":7:82   */\n      swap1\n      jump\t// out\n        /* \"#utility.yul\":88:205   */\n    tag_275:\n        /* \"#utility.yul\":197:198   */\n      0x00\n        /* \"#utility.yul\":194:195   */\n      dup1\n        /* \"#utility.yul\":187:199   */\n      revert\n        /* \"#utility.yul\":211:328   */\n    tag_276:\n        /* \"#utility.yul\":320:321   */\n      0x00\n        /* \"#utility.yul\":317:318   */\n      dup1\n        /* \"#utility.yul\":310:322   */\n      revert\n        /* \"#utility.yul\":334:483   */\n    tag_277:\n        /* \"#utility.yul\":370:377   */\n      0x00\n        /* \"#utility.yul\":410:476   */\n      0xffffffff00000000000000000000000000000000000000000000000000000000\n        /* \"#utility.yul\":403:408   */\n      dup3\n        /* \"#utility.yul\":399:477   */\n      and\n        /* \"#utility.yul\":388:477   */\n      swap1\n      pop\n        /* \"#utility.yul\":334:483   */\n      swap2\n      swap1\n      pop\n      jump\t// out\n        /* \"#utility.yul\":489:609   */\n    tag_278:\n        /* \"#utility.yul\":561:584   */\n      tag_321\n        /* \"#utility.yul\":578:583   */\n      dup2\n        /* \"#utility.yul\":561:584   */\n      tag_277\n      jump\t// in\n    tag_321:\n        /* \"#utility.yul\":554:559   */\n      dup2\n        /* \"#utility.yul\":551:585   */\n      eq\n        /* \"#utility.yul\":541:603   */\n      tag_322\n      jumpi\n        /* \"#utility.yul\":599:600   */\n      0x00\n        /* \"#utility.yul\":596:597   */\n      dup1\n        /* \"#utility.yul\":589:601   */\n      revert\n        /* \"#utility.yul\":541:603   */\n    tag_322:\n        /* \"#utility.yul\":489:609   */\n      pop\n      jump\t// out\n        /* \"#utility.yul\":615:752   */\n    tag_279:\n        /* \"#utility.yul\":660:665   */\n      0x00\n        /* \"#utility.yul\":698:704   */\n      dup2\n        /* \"#utility.yul\":685:705   */\n      calldataload\n        /* \"#utility.yul\":676:705   */\n      swap1\n      pop\n        /* \"#utility.yul\":714:746   */\n      tag_324\n        /* \"#utility.yul\":740:745   */\n      dup2\n        /* \"#utility.yul\":714:746   */\n      tag_278\n      jump\t// in\n    tag_324:\n        /* \"#utility.yul\":615:752   */\n      swap3\n      swap2\n      pop\n      pop\n      jump\t// out\n        /* \"#utility.yul\":758:1085   */\n    tag_23:\n        /* \"#utility.yul\":816:822   */\n      0x00\n        /* \"#utility.yul\":865:867   */\n      0x20\n        /* \"#utility.yul\":853:862   */\n      dup3\n        /* \"#utility.yul\":844:851   */\n      dup5\n        /* \"#utility.yul\":840:863   */\n      sub\n        /* \"#utility.yul\":836:868   */\n      slt\n        /* \"#utility.yul\":833:952   */\n      iszero\n      tag_326\n      jumpi\n        /* \"#utility.yul\":871:950   */\n      tag_327\n      tag_275\n      jump\t// in\n    tag_327:\n        /* \"#utility.yul\":833:952   */\n    tag_326:\n        /* \"#utility.yul\":991:992   */\n      0x00\n        /* \"#utility.yul\":1016:1068   */\n      tag_328\n        /* \"#utility.yul\":1060:1067   */\n      dup5\n        /* \"#utility.yul\":1051:1057   */\n      dup3\n        /* \"#utility.yul\":1040:1049   */\n      dup6\n        /* \"#utility.yul\":1036:1058   */\n      add\n        /* \"#utility.yul\":1016:1068   */\n      tag_279\n      jump\t// in\n    tag_328:\n        /* \"#utility.yul\":1006:1068   */\n      swap2\n      pop\n        /* \"#utility.yul\":962:1078   */\n      pop\n        /* \"#utility.yul\":758:1085   */\n      swap3\n      swap2\n      pop\n      pop\n      jump\t// out\n        /* \"#utility.yul\":1091:1181   */\n    tag_280:\n        /* \"#utility.yul\":1125:1132   */\n      0x00\n        /* \"#utility.yul\":1168:1173   */\n      dup2\n        /* \"#utility.yul\":1161:1174   */\n      iszero\n        /* \"#utility.yul\":1154:1175   */\n      iszero\n        /* \"#utility.yul\":1143:1175   */\n      swap1\n      pop\n        /* \"#utility.yul\":1091:1181   */\n      swap2\n      swap1\n      pop\n      jump\t// out\n        /* \"#utility.yul\":1187:1296   */\n    tag_281:\n        /* \"#utility.yul\":1268:1289   */\n      tag_331\n        /* \"#utility.yul\":1283:1288   */\n      dup2\n        /* \"#utility.yul\":1268:1289   */\n      tag_280\n      jump\t// in\n    tag_331:\n        /* \"#utility.yul\":1263:1266   */\n      dup3\n        /* \"#utility.yul\":1256:1290   */\n      mstore\n        /* \"#utility.yul\":1187:1296   */\n      pop\n      pop\n      jump\t// out\n        /* \"#utility.yul\":1302:1512   */\n    tag_26:\n        /* \"#utility.yul\":1389:1393   */\n      0x00\n        /* \"#utility.yul\":1427:1429   */\n      0x20\n        /* \"#utility.yul\":1416:1425   */\n      dup3\n        /* \"#utility.yul\":1412:1430   */\n      add\n        /* \"#utility.yul\":1404:1430   */\n      swap1\n      pop\n        /* \"#utility.yul\":1440:1505   */\n      tag_333\n        /* \"#utility.yul\":1502:1503   */\n      0x00\n        /* \"#utility.yul\":1491:1500   */\n      dup4\n        /* \"#utility.yul\":1487:1504   */\n      add\n        /* \"#utility.yul\":1478:1484   */\n      dup5\n        /* \"#utility.yul\":1440:1505   */\n      tag_281\n      jump\t// in\n    tag_333:\n        /* \"#utility.yul\":1302:1512   */\n      swap3\n      swap2\n      pop\n      pop\n      jump\t// out\n        /* \"#utility.yul\":1518:1617   */\n    tag_282:\n        /* \"#utility.yul\":1570:1576   */\n      0x00\n        /* \"#utility.yul\":1604:1609   */\n      dup2\n        /* \"#utility.yul\":1598:1610   */\n      mload\n        /* \"#utility.yul\":1588:1610   */\n      swap1\n      pop\n        /* \"#utility.yul\":1518:1617   */\n      swap2\n      swap1\n      pop\n      jump\t// out\n        /* \"#utility.yul\":1623:1792   */\n    tag_283:\n        /* \"#utility.yul\":1707:1718   */\n      0x00\n        /* \"#utility.yul\":1741:1747   */\n      dup3\n        /* \"#utility.yul\":1736:1739   */\n      dup3\n        /* \"#utility.yul\":1729:1748   */\n      mstore\n        /* \"#utility.yul\":1781:1785   */\n      0x20\n        /* \"#utility.yul\":1776:1779   */\n      dup3\n        /* \"#utility.yul\":1772:1786   */\n      add\n        /* \"#utility.yul\":1757:1786   */\n      swap1\n      pop\n        /* \"#utility.yul\":1623:1792   */\n      swap3\n      swap2\n      pop\n      pop\n      jump\t// out\n        /* \"#utility.yul\":1798:2105   */\n    tag_284:\n        /* \"#utility.yul\":1866:1867   */\n      0x00\n        /* \"#utility.yul\":1876:1989   */\n    tag_337:\n        /* \"#utility.yul\":1890:1896   */\n      dup4\n        /* \"#utility.yul\":1887:1888   */\n      dup2\n        /* \"#utility.yul\":1884:1897   */\n      lt\n        /* \"#utility.yul\":1876:1989   */\n      iszero\n      tag_339\n      jumpi\n        /* \"#utility.yul\":1975:1976   */\n      dup1\n        /* \"#utility.yul\":1970:1973   */\n      dup3\n        /* \"#utility.yul\":1966:1977   */\n      add\n        /* \"#utility.yul\":1960:1978   */\n      mload\n        /* \"#utility.yul\":1956:1957   */\n      dup2\n        /* \"#utility.yul\":1951:1954   */\n      dup5\n        /* \"#utility.yul\":1947:1958   */\n      add\n        /* \"#utility.yul\":1940:1979   */\n      mstore\n        /* \"#utility.yul\":1912:1914   */\n      0x20\n        /* \"#utility.yul\":1909:1910   */\n      dup2\n        /* \"#utility.yul\":1905:1915   */\n      add\n        /* \"#utility.yul\":1900:1915   */\n      swap1\n      pop\n        /* \"#utility.yul\":1876:1989   */\n      jump(tag_337)\n    tag_339:\n        /* \"#utility.yul\":2007:2013   */\n      dup4\n        /* \"#utility.yul\":2004:2005   */\n      dup2\n        /* \"#utility.yul\":2001:2014   */\n      gt\n        /* \"#utility.yul\":1998:2099   */\n      iszero\n      tag_340\n      jumpi\n        /* \"#utility.yul\":2087:2088   */\n      0x00\n        /* \"#utility.yul\":2078:2084   */\n      dup5\n        /* \"#utility.yul\":2073:2076   */\n      dup5\n        /* \"#utility.yul\":2069:2085   */\n      add\n        /* \"#utility.yul\":2062:2089   */\n      mstore\n        /* \"#utility.yul\":1998:2099   */\n    tag_340:\n        /* \"#utility.yul\":1847:2105   */\n      pop\n        /* \"#utility.yul\":1798:2105   */\n      pop\n      pop\n      pop\n      jump\t// out\n        /* \"#utility.yul\":2111:2213   */\n    tag_285:\n        /* \"#utility.yul\":2152:2158   */\n      0x00\n        /* \"#utility.yul\":2203:2205   */\n      0x1f\n        /* \"#utility.yul\":2199:2206   */\n      not\n        /* \"#utility.yul\":2194:2196   */\n      0x1f\n        /* \"#utility.yul\":2187:2192   */\n      dup4\n        /* \"#utility.yul\":2183:2197   */\n      add\n        /* \"#utility.yul\":2179:2207   */\n      and\n        /* \"#utility.yul\":2169:2207   */\n      swap1\n      pop\n        /* \"#utility.yul\":2111:2213   */\n      swap2\n      swap1\n      pop\n      jump\t// out\n        /* \"#utility.yul\":2219:2583   */\n    tag_286:\n        /* \"#utility.yul\":2307:2310   */\n      0x00\n        /* \"#utility.yul\":2335:2374   */\n      tag_343\n        /* \"#utility.yul\":2368:2373   */\n      dup3\n        /* \"#utility.yul\":2335:2374   */\n      tag_282\n      jump\t// in\n    tag_343:\n        /* \"#utility.yul\":2390:2461   */\n      tag_344\n        /* \"#utility.yul\":2454:2460   */\n      dup2\n        /* \"#utility.yul\":2449:2452   */\n      dup6\n        /* \"#utility.yul\":2390:2461   */\n      tag_283\n      jump\t// in\n    tag_344:\n        /* \"#utility.yul\":2383:2461   */\n      swap4\n      pop\n        /* \"#utility.yul\":2470:2522   */\n      tag_345\n        /* \"#utility.yul\":2515:2521   */\n      dup2\n        /* \"#utility.yul\":2510:2513   */\n      dup6\n        /* \"#utility.yul\":2503:2507   */\n      0x20\n        /* \"#utility.yul\":2496:2501   */\n      dup7\n        /* \"#utility.yul\":2492:2508   */\n      add\n        /* \"#utility.yul\":2470:2522   */\n      tag_284\n      jump\t// in\n    tag_345:\n        /* \"#utility.yul\":2547:2576   */\n      tag_346\n        /* \"#utility.yul\":2569:2575   */\n      dup2\n        /* \"#utility.yul\":2547:2576   */\n      tag_285\n      jump\t// in\n    tag_346:\n        /* \"#utility.yul\":2542:2545   */\n      dup5\n        /* \"#utility.yul\":2538:2577   */\n      add\n        /* \"#utility.yul\":2531:2577   */\n      swap2\n      pop\n        /* \"#utility.yul\":2311:2583   */\n      pop\n        /* \"#utility.yul\":2219:2583   */\n      swap3\n      swap2\n      pop\n      pop\n      jump\t// out\n        /* \"#utility.yul\":2589:2902   */\n    tag_31:\n        /* \"#utility.yul\":2702:2706   */\n      0x00\n        /* \"#utility.yul\":2740:2742   */\n      0x20\n        /* \"#utility.yul\":2729:2738   */\n      dup3\n        /* \"#utility.yul\":2725:2743   */\n      add\n        /* \"#utility.yul\":2717:2743   */\n      swap1\n      pop\n        /* \"#utility.yul\":2789:2798   */\n      dup2\n        /* \"#utility.yul\":2783:2787   */\n      dup2\n        /* \"#utility.yul\":2779:2799   */\n      sub\n        /* \"#utility.yul\":2775:2776   */\n      0x00\n        /* \"#utility.yul\":2764:2773   */\n      dup4\n        /* \"#utility.yul\":2760:2777   */\n      add\n        /* \"#utility.yul\":2753:2800   */\n      mstore\n        /* \"#utility.yul\":2817:2895   */\n      tag_348\n        /* \"#utility.yul\":2890:2894   */\n      dup2\n        /* \"#utility.yul\":2881:2887   */\n      dup5\n        /* \"#utility.yul\":2817:2895   */\n      tag_286\n      jump\t// in\n    tag_348:\n        /* \"#utility.yul\":2809:2895   */\n      swap1\n      pop\n        /* \"#utility.yul\":2589:2902   */\n      swap3\n      swap2\n      pop\n      pop\n      jump\t// out\n        /* \"#utility.yul\":2908:2985   */\n    tag_287:\n        /* \"#utility.yul\":2945:2952   */\n      0x00\n        /* \"#utility.yul\":2974:2979   */\n      dup2\n        /* \"#utility.yul\":2963:2979   */\n      swap1\n      pop\n        /* \"#utility.yul\":2908:2985   */\n      swap2\n      swap1\n      pop\n      jump\t// out\n        /* \"#utility.yul\":2991:3113   */\n    tag_288:\n        /* \"#utility.yul\":3064:3088   */\n      tag_351\n        /* \"#utility.yul\":3082:3087   */\n      dup2\n        /* \"#utility.yul\":3064:3088   */\n      tag_287\n      jump\t// in\n    tag_351:\n        /* \"#utility.yul\":3057:3062   */\n      dup2\n        /* \"#utility.yul\":3054:3089   */\n      eq\n        /* \"#utility.yul\":3044:3107   */\n      tag_352\n      jumpi\n        /* \"#utility.yul\":3103:3104   */\n      0x00\n        /* \"#utility.yul\":3100:3101   */\n      dup1\n        /* \"#utility.yul\":3093:3105   */\n      revert\n        /* \"#utility.yul\":3044:3107   */\n    tag_352:\n        /* \"#utility.yul\":2991:3113   */\n      pop\n      jump\t// out\n        /* \"#utility.yul\":3119:3258   */\n    tag_289:\n        /* \"#utility.yul\":3165:3170   */\n      0x00\n        /* \"#utility.yul\":3203:3209   */\n      dup2\n        /* \"#utility.yul\":3190:3210   */\n      calldataload\n        /* \"#utility.yul\":3181:3210   */\n      swap1\n      pop\n        /* \"#utility.yul\":3219:3252   */\n      tag_354\n        /* \"#utility.yul\":3246:3251   */\n      dup2\n        /* \"#utility.yul\":3219:3252   */\n      tag_288\n      jump\t// in\n    tag_354:\n        /* \"#utility.yul\":3119:3258   */\n      swap3\n      swap2\n      pop\n      pop\n      jump\t// out\n        /* \"#utility.yul\":3264:3593   */\n    tag_35:\n        /* \"#utility.yul\":3323:3329   */\n      0x00\n        /* \"#utility.yul\":3372:3374   */\n      0x20\n        /* \"#utility.yul\":3360:3369   */\n      dup3\n        /* \"#utility.yul\":3351:3358   */\n      dup5\n        /* \"#utility.yul\":3347:3370   */\n      sub\n        /* \"#utility.yul\":3343:3375   */\n      slt\n        /* \"#utility.yul\":3340:3459   */\n      iszero\n      tag_356\n      jumpi\n        /* \"#utility.yul\":3378:3457   */\n      tag_357\n      tag_275\n      jump\t// in\n    tag_357:\n        /* \"#utility.yul\":3340:3459   */\n    tag_356:\n        /* \"#utility.yul\":3498:3499   */\n      0x00\n        /* \"#utility.yul\":3523:3576   */\n      tag_358\n        /* \"#utility.yul\":3568:3575   */\n      dup5\n        /* \"#utility.yul\":3559:3565   */\n      dup3\n        /* \"#utility.yul\":3548:3557   */\n      dup6\n        /* \"#utility.yul\":3544:3566   */\n      add\n        /* \"#utility.yul\":3523:3576   */\n      tag_289\n      jump\t// in\n    tag_358:\n        /* \"#utility.yul\":3513:3576   */\n      swap2\n      pop\n        /* \"#utility.yul\":3469:3586   */\n      pop\n        /* \"#utility.yul\":3264:3593   */\n      swap3\n      swap2\n      pop\n      pop\n      jump\t// out\n        /* \"#utility.yul\":3599:3725   */\n    tag_290:\n        /* \"#utility.yul\":3636:3643   */\n      0x00\n        /* \"#utility.yul\":3676:3718   */\n      0xffffffffffffffffffffffffffffffffffffffff\n        /* \"#utility.yul\":3669:3674   */\n      dup3\n        /* \"#utility.yul\":3665:3719   */\n      and\n        /* \"#utility.yul\":3654:3719   */\n      swap1\n      pop\n        /* \"#utility.yul\":3599:3725   */\n      swap2\n      swap1\n      pop\n      jump\t// out\n        /* \"#utility.yul\":3731:3827   */\n    tag_291:\n        /* \"#utility.yul\":3768:3775   */\n      0x00\n        /* \"#utility.yul\":3797:3821   */\n      tag_361\n        /* \"#utility.yul\":3815:3820   */\n      dup3\n        /* \"#utility.yul\":3797:3821   */\n      tag_290\n      jump\t// in\n    tag_361:\n        /* \"#utility.yul\":3786:3821   */\n      swap1\n      pop\n        /* \"#utility.yul\":3731:3827   */\n      swap2\n      swap1\n      pop\n      jump\t// out\n        /* \"#utility.yul\":3833:3951   */\n    tag_292:\n        /* \"#utility.yul\":3920:3944   */\n      tag_363\n        /* \"#utility.yul\":3938:3943   */\n      dup2\n        /* \"#utility.yul\":3920:3944   */\n      tag_291\n      jump\t// in\n    tag_363:\n        /* \"#utility.yul\":3915:3918   */\n      dup3\n        /* \"#utility.yul\":3908:3945   */\n      mstore\n        /* \"#utility.yul\":3833:3951   */\n      pop\n      pop\n      jump\t// out\n        /* \"#utility.yul\":3957:4179   */\n    tag_38:\n        /* \"#utility.yul\":4050:4054   */\n      0x00\n        /* \"#utility.yul\":4088:4090   */\n      0x20\n        /* \"#utility.yul\":4077:4086   */\n      dup3\n        /* \"#utility.yul\":4073:4091   */\n      add\n        /* \"#utility.yul\":4065:4091   */\n      swap1\n      pop\n        /* \"#utility.yul\":4101:4172   */\n      tag_365\n        /* \"#utility.yul\":4169:4170   */\n      0x00\n        /* \"#utility.yul\":4158:4167   */\n      dup4\n        /* \"#utility.yul\":4154:4171   */\n      add\n        /* \"#utility.yul\":4145:4151   */\n      dup5\n        /* \"#utility.yul\":4101:4172   */\n      tag_292\n      jump\t// in\n    tag_365:\n        /* \"#utility.yul\":3957:4179   */\n      swap3\n      swap2\n      pop\n      pop\n      jump\t// out\n        /* \"#utility.yul\":4185:4307   */\n    tag_293:\n        /* \"#utility.yul\":4258:4282   */\n      tag_367\n        /* \"#utility.yul\":4276:4281   */\n      dup2\n        /* \"#utility.yul\":4258:4282   */\n      tag_291\n      jump\t// in\n    tag_367:\n        /* \"#utility.yul\":4251:4256   */\n      dup2\n        /* \"#utility.yul\":4248:4283   */\n      eq\n        /* \"#utility.yul\":4238:4301   */\n      tag_368\n      jumpi\n        /* \"#utility.yul\":4297:4298   */\n      0x00\n        /* \"#utility.yul\":4294:4295   */\n      dup1\n        /* \"#utility.yul\":4287:4299   */\n      revert\n        /* \"#utility.yul\":4238:4301   */\n    tag_368:\n        /* \"#utility.yul\":4185:4307   */\n      pop\n      jump\t// out\n        /* \"#utility.yul\":4313:4452   */\n    tag_294:\n        /* \"#utility.yul\":4359:4364   */\n      0x00\n        /* \"#utility.yul\":4397:4403   */\n      dup2\n        /* \"#utility.yul\":4384:4404   */\n      calldataload\n        /* \"#utility.yul\":4375:4404   */\n      swap1\n      pop\n        /* \"#utility.yul\":4413:4446   */\n      tag_370\n        /* \"#utility.yul\":4440:4445   */\n      dup2\n        /* \"#utility.yul\":4413:4446   */\n      tag_293\n      jump\t// in\n    tag_370:\n        /* \"#utility.yul\":4313:4452   */\n      swap3\n      swap2\n      pop\n      pop\n      jump\t// out\n        /* \"#utility.yul\":4458:4932   */\n    tag_42:\n        /* \"#utility.yul\":4526:4532   */\n      0x00\n        /* \"#utility.yul\":4534:4540   */\n      dup1\n        /* \"#utility.yul\":4583:4585   */\n      0x40\n        /* \"#utility.yul\":4571:4580   */\n      dup4\n        /* \"#utility.yul\":4562:4569   */\n      dup6\n        /* \"#utility.yul\":4558:4581   */\n      sub\n        /* \"#utility.yul\":4554:4586   */\n      slt\n        /* \"#utility.yul\":4551:4670   */\n      iszero\n      tag_372\n      jumpi\n        /* \"#utility.yul\":4589:4668   */\n      tag_373\n      tag_275\n      jump\t// in\n    tag_373:\n        /* \"#utility.yul\":4551:4670   */\n    tag_372:\n        /* \"#utility.yul\":4709:4710   */\n      0x00\n        /* \"#utility.yul\":4734:4787   */\n      tag_374\n        /* \"#utility.yul\":4779:4786   */\n      dup6\n        /* \"#utility.yul\":4770:4776   */\n      dup3\n        /* \"#utility.yul\":4759:4768   */\n      dup7\n        /* \"#utility.yul\":4755:4777   */\n      add\n        /* \"#utility.yul\":4734:4787   */\n      tag_294\n      jump\t// in\n    tag_374:\n        /* \"#utility.yul\":4724:4787   */\n      swap3\n      pop\n        /* \"#utility.yul\":4680:4797   */\n      pop\n        /* \"#utility.yul\":4836:4838   */\n      0x20\n        /* \"#utility.yul\":4862:4915   */\n      tag_375\n        /* \"#utility.yul\":4907:4914   */\n      dup6\n        /* \"#utility.yul\":4898:4904   */\n      dup3\n        /* \"#utility.yul\":4887:4896   */\n      dup7\n        /* \"#utility.yul\":4883:4905   */\n      add\n        /* \"#utility.yul\":4862:4915   */\n      tag_289\n      jump\t// in\n    tag_375:\n        /* \"#utility.yul\":4852:4915   */\n      swap2\n      pop\n        /* \"#utility.yul\":4807:4925   */\n      pop\n        /* \"#utility.yul\":4458:4932   */\n      swap3\n      pop\n      swap3\n      swap1\n      pop\n      jump\t// out\n        /* \"#utility.yul\":4938:5056   */\n    tag_295:\n        /* \"#utility.yul\":5025:5049   */\n      tag_377\n        /* \"#utility.yul\":5043:5048   */\n      dup2\n        /* \"#utility.yul\":5025:5049   */\n      tag_287\n      jump\t// in\n    tag_377:\n        /* \"#utility.yul\":5020:5023   */\n      dup3\n        /* \"#utility.yul\":5013:5050   */\n      mstore\n        /* \"#utility.yul\":4938:5056   */\n      pop\n      pop\n      jump\t// out\n        /* \"#utility.yul\":5062:5284   */\n    tag_48:\n        /* \"#utility.yul\":5155:5159   */\n      0x00\n        /* \"#utility.yul\":5193:5195   */\n      0x20\n        /* \"#utility.yul\":5182:5191   */\n      dup3\n        /* \"#utility.yul\":5178:5196   */\n      add\n        /* \"#utility.yul\":5170:5196   */\n      swap1\n      pop\n        /* \"#utility.yul\":5206:5277   */\n      tag_379\n        /* \"#utility.yul\":5274:5275   */\n      0x00\n        /* \"#utility.yul\":5263:5272   */\n      dup4\n        /* \"#utility.yul\":5259:5276   */\n      add\n        /* \"#utility.yul\":5250:5256   */\n      dup5\n        /* \"#utility.yul\":5206:5277   */\n      tag_295\n      jump\t// in\n    tag_379:\n        /* \"#utility.yul\":5062:5284   */\n      swap3\n      swap2\n      pop\n      pop\n      jump\t// out\n        /* \"#utility.yul\":5290:5909   */\n    tag_52:\n        /* \"#utility.yul\":5367:5373   */\n      0x00\n        /* \"#utility.yul\":5375:5381   */\n      dup1\n        /* \"#utility.yul\":5383:5389   */\n      0x00\n        /* \"#utility.yul\":5432:5434   */\n      0x60\n        /* \"#utility.yul\":5420:5429   */\n      dup5\n        /* \"#utility.yul\":5411:5418   */\n      dup7\n        /* \"#utility.yul\":5407:5430   */\n      sub\n        /* \"#utility.yul\":5403:5435   */\n      slt\n        /* \"#utility.yul\":5400:5519   */\n      iszero\n      tag_381\n      jumpi\n        /* \"#utility.yul\":5438:5517   */\n      tag_382\n      tag_275\n      jump\t// in\n    tag_382:\n        /* \"#utility.yul\":5400:5519   */\n    tag_381:\n        /* \"#utility.yul\":5558:5559   */\n      0x00\n        /* \"#utility.yul\":5583:5636   */\n      tag_383\n        /* \"#utility.yul\":5628:5635   */\n      dup7\n        /* \"#utility.yul\":5619:5625   */\n      dup3\n        /* \"#utility.yul\":5608:5617   */\n      dup8\n        /* \"#utility.yul\":5604:5626   */\n      add\n        /* \"#utility.yul\":5583:5636   */\n      tag_294\n      jump\t// in\n    tag_383:\n        /* \"#utility.yul\":5573:5636   */\n      swap4\n      pop\n        /* \"#utility.yul\":5529:5646   */\n      pop\n        /* \"#utility.yul\":5685:5687   */\n      0x20\n        /* \"#utility.yul\":5711:5764   */\n      tag_384\n        /* \"#utility.yul\":5756:5763   */\n      dup7\n        /* \"#utility.yul\":5747:5753   */\n      dup3\n        /* \"#utility.yul\":5736:5745   */\n      dup8\n        /* \"#utility.yul\":5732:5754   */\n      add\n        /* \"#utility.yul\":5711:5764   */\n      tag_294\n      jump\t// in\n    tag_384:\n        /* \"#utility.yul\":5701:5764   */\n      swap3\n      pop\n        /* \"#utility.yul\":5656:5774   */\n      pop\n        /* \"#utility.yul\":5813:5815   */\n      0x40\n        /* \"#utility.yul\":5839:5892   */\n      tag_385\n        /* \"#utility.yul\":5884:5891   */\n      dup7\n        /* \"#utility.yul\":5875:5881   */\n      dup3\n        /* \"#utility.yul\":5864:5873   */\n      dup8\n        /* \"#utility.yul\":5860:5882   */\n      add\n        /* \"#utility.yul\":5839:5892   */\n      tag_289\n      jump\t// in\n    tag_385:\n        /* \"#utility.yul\":5829:5892   */\n      swap2\n      pop\n        /* \"#utility.yul\":5784:5902   */\n      pop\n        /* \"#utility.yul\":5290:5909   */\n      swap3\n      pop\n      swap3\n      pop\n      swap3\n      jump\t// out\n        /* \"#utility.yul\":5915:6244   */\n    tag_66:\n        /* \"#utility.yul\":5974:5980   */\n      0x00\n        /* \"#utility.yul\":6023:6025   */\n      0x20\n        /* \"#utility.yul\":6011:6020   */\n      dup3\n        /* \"#utility.yul\":6002:6009   */\n      dup5\n        /* \"#utility.yul\":5998:6021   */\n      sub\n        /* \"#utility.yul\":5994:6026   */\n      slt\n        /* \"#utility.yul\":5991:6110   */\n      iszero\n      tag_387\n      jumpi\n        /* \"#utility.yul\":6029:6108   */\n      tag_388\n      tag_275\n      jump\t// in\n    tag_388:\n        /* \"#utility.yul\":5991:6110   */\n    tag_387:\n        /* \"#utility.yul\":6149:6150   */\n      0x00\n        /* \"#utility.yul\":6174:6227   */\n      tag_389\n        /* \"#utility.yul\":6219:6226   */\n      dup5\n        /* \"#utility.yul\":6210:6216   */\n      dup3\n        /* \"#utility.yul\":6199:6208   */\n      dup6\n        /* \"#utility.yul\":6195:6217   */\n      add\n        /* \"#utility.yul\":6174:6227   */\n      tag_294\n      jump\t// in\n    tag_389:\n        /* \"#utility.yul\":6164:6227   */\n      swap2\n      pop\n        /* \"#utility.yul\":6120:6237   */\n      pop\n        /* \"#utility.yul\":5915:6244   */\n      swap3\n      swap2\n      pop\n      pop\n      jump\t// out\n        /* \"#utility.yul\":6250:6366   */\n    tag_296:\n        /* \"#utility.yul\":6320:6341   */\n      tag_391\n        /* \"#utility.yul\":6335:6340   */\n      dup2\n        /* \"#utility.yul\":6320:6341   */\n      tag_280\n      jump\t// in\n    tag_391:\n        /* \"#utility.yul\":6313:6318   */\n      dup2\n        /* \"#utility.yul\":6310:6342   */\n      eq\n        /* \"#utility.yul\":6300:6360   */\n      tag_392\n      jumpi\n        /* \"#utility.yul\":6356:6357   */\n      0x00\n        /* \"#utility.yul\":6353:6354   */\n      dup1\n        /* \"#utility.yul\":6346:6358   */\n      revert\n        /* \"#utility.yul\":6300:6360   */\n    tag_392:\n        /* \"#utility.yul\":6250:6366   */\n      pop\n      jump\t// out\n        /* \"#utility.yul\":6372:6505   */\n    tag_297:\n        /* \"#utility.yul\":6415:6420   */\n      0x00\n        /* \"#utility.yul\":6453:6459   */\n      dup2\n        /* \"#utility.yul\":6440:6460   */\n      calldataload\n        /* \"#utility.yul\":6431:6460   */\n      swap1\n      pop\n        /* \"#utility.yul\":6469:6499   */\n      tag_394\n        /* \"#utility.yul\":6493:6498   */\n      dup2\n        /* \"#utility.yul\":6469:6499   */\n      tag_296\n      jump\t// in\n    tag_394:\n        /* \"#utility.yul\":6372:6505   */\n      swap3\n      swap2\n      pop\n      pop\n      jump\t// out\n        /* \"#utility.yul\":6511:6979   */\n    tag_79:\n        /* \"#utility.yul\":6576:6582   */\n      0x00\n        /* \"#utility.yul\":6584:6590   */\n      dup1\n        /* \"#utility.yul\":6633:6635   */\n      0x40\n        /* \"#utility.yul\":6621:6630   */\n      dup4\n        /* \"#utility.yul\":6612:6619   */\n      dup6\n        /* \"#utility.yul\":6608:6631   */\n      sub\n        /* \"#utility.yul\":6604:6636   */\n      slt\n        /* \"#utility.yul\":6601:6720   */\n      iszero\n      tag_396\n      jumpi\n        /* \"#utility.yul\":6639:6718   */\n      tag_397\n      tag_275\n      jump\t// in\n    tag_397:\n        /* \"#utility.yul\":6601:6720   */\n    tag_396:\n        /* \"#utility.yul\":6759:6760   */\n      0x00\n        /* \"#utility.yul\":6784:6837   */\n      tag_398\n        /* \"#utility.yul\":6829:6836   */\n      dup6\n        /* \"#utility.yul\":6820:6826   */\n      dup3\n        /* \"#utility.yul\":6809:6818   */\n      dup7\n        /* \"#utility.yul\":6805:6827   */\n      add\n        /* \"#utility.yul\":6784:6837   */\n      tag_294\n      jump\t// in\n    tag_398:\n        /* \"#utility.yul\":6774:6837   */\n      swap3\n      pop\n        /* \"#utility.yul\":6730:6847   */\n      pop\n        /* \"#utility.yul\":6886:6888   */\n      0x20\n        /* \"#utility.yul\":6912:6962   */\n      tag_399\n        /* \"#utility.yul\":6954:6961   */\n      dup6\n        /* \"#utility.yul\":6945:6951   */\n      dup3\n        /* \"#utility.yul\":6934:6943   */\n      dup7\n        /* \"#utility.yul\":6930:6952   */\n      add\n        /* \"#utility.yul\":6912:6962   */\n      tag_297\n      jump\t// in\n    tag_399:\n        /* \"#utility.yul\":6902:6962   */\n      swap2\n      pop\n        /* \"#utility.yul\":6857:6972   */\n      pop\n        /* \"#utility.yul\":6511:6979   */\n      swap3\n      pop\n      swap3\n      swap1\n      pop\n      jump\t// out\n        /* \"#utility.yul\":6985:7102   */\n    tag_298:\n        /* \"#utility.yul\":7094:7095   */\n      0x00\n        /* \"#utility.yul\":7091:7092   */\n      dup1\n        /* \"#utility.yul\":7084:7096   */\n      revert\n        /* \"#utility.yul\":7108:7225   */\n    tag_299:\n        /* \"#utility.yul\":7217:7218   */\n      0x00\n        /* \"#utility.yul\":7214:7215   */\n      dup1\n        /* \"#utility.yul\":7207:7219   */\n      revert\n        /* \"#utility.yul\":7231:7411   */\n    tag_241:\n        /* \"#utility.yul\":7279:7356   */\n      0x4e487b7100000000000000000000000000000000000000000000000000000000\n        /* \"#utility.yul\":7276:7277   */\n      0x00\n        /* \"#utility.yul\":7269:7357   */\n      mstore\n        /* \"#utility.yul\":7376:7380   */\n      0x41\n        /* \"#utility.yul\":7373:7374   */\n      0x04\n        /* \"#utility.yul\":7366:7381   */\n      mstore\n        /* \"#utility.yul\":7400:7404   */\n      0x24\n        /* \"#utility.yul\":7397:7398   */\n      0x00\n        /* \"#utility.yul\":7390:7405   */\n      revert\n        /* \"#utility.yul\":7417:7698   */\n    tag_300:\n        /* \"#utility.yul\":7500:7527   */\n      tag_404\n        /* \"#utility.yul\":7522:7526   */\n      dup3\n        /* \"#utility.yul\":7500:7527   */\n      tag_285\n      jump\t// in\n    tag_404:\n        /* \"#utility.yul\":7492:7498   */\n      dup2\n        /* \"#utility.yul\":7488:7528   */\n      add\n        /* \"#utility.yul\":7630:7636   */\n      dup2\n        /* \"#utility.yul\":7618:7628   */\n      dup2\n        /* \"#utility.yul\":7615:7637   */\n      lt\n        /* \"#utility.yul\":7594:7612   */\n      0xffffffffffffffff\n        /* \"#utility.yul\":7582:7592   */\n      dup3\n        /* \"#utility.yul\":7579:7613   */\n      gt\n        /* \"#utility.yul\":7576:7638   */\n      or\n        /* \"#utility.yul\":7573:7661   */\n      iszero\n      tag_405\n      jumpi\n        /* \"#utility.yul\":7641:7659   */\n      tag_406\n      tag_241\n      jump\t// in\n    tag_406:\n        /* \"#utility.yul\":7573:7661   */\n    tag_405:\n        /* \"#utility.yul\":7681:7691   */\n      dup1\n        /* \"#utility.yul\":7677:7679   */\n      0x40\n        /* \"#utility.yul\":7670:7692   */\n      mstore\n        /* \"#utility.yul\":7460:7698   */\n      pop\n        /* \"#utility.yul\":7417:7698   */\n      pop\n      pop\n      jump\t// out\n        /* \"#utility.yul\":7704:7833   */\n    tag_301:\n        /* \"#utility.yul\":7738:7744   */\n      0x00\n        /* \"#utility.yul\":7765:7785   */\n      tag_408\n      tag_274\n      jump\t// in\n    tag_408:\n        /* \"#utility.yul\":7755:7785   */\n      swap1\n      pop\n        /* \"#utility.yul\":7794:7827   */\n      tag_409\n        /* \"#utility.yul\":7822:7826   */\n      dup3\n        /* \"#utility.yul\":7814:7820   */\n      dup3\n        /* \"#utility.yul\":7794:7827   */\n      tag_300\n      jump\t// in\n    tag_409:\n        /* \"#utility.yul\":7704:7833   */\n      swap2\n      swap1\n      pop\n      jump\t// out\n        /* \"#utility.yul\":7839:8146   */\n    tag_302:\n        /* \"#utility.yul\":7900:7904   */\n      0x00\n        /* \"#utility.yul\":7990:8008   */\n      0xffffffffffffffff\n        /* \"#utility.yul\":7982:7988   */\n      dup3\n        /* \"#utility.yul\":7979:8009   */\n      gt\n        /* \"#utility.yul\":7976:8032   */\n      iszero\n      tag_411\n      jumpi\n        /* \"#utility.yul\":8012:8030   */\n      tag_412\n      tag_241\n      jump\t// in\n    tag_412:\n        /* \"#utility.yul\":7976:8032   */\n    tag_411:\n        /* \"#utility.yul\":8050:8079   */\n      tag_413\n        /* \"#utility.yul\":8072:8078   */\n      dup3\n        /* \"#utility.yul\":8050:8079   */\n      tag_285\n      jump\t// in\n    tag_413:\n        /* \"#utility.yul\":8042:8079   */\n      swap1\n      pop\n        /* \"#utility.yul\":8134:8138   */\n      0x20\n        /* \"#utility.yul\":8128:8132   */\n      dup2\n        /* \"#utility.yul\":8124:8139   */\n      add\n        /* \"#utility.yul\":8116:8139   */\n      swap1\n      pop\n        /* \"#utility.yul\":7839:8146   */\n      swap2\n      swap1\n      pop\n      jump\t// out\n        /* \"#utility.yul\":8152:8306   */\n    tag_303:\n        /* \"#utility.yul\":8236:8242   */\n      dup3\n        /* \"#utility.yul\":8231:8234   */\n      dup2\n        /* \"#utility.yul\":8226:8229   */\n      dup4\n        /* \"#utility.yul\":8213:8243   */\n      calldatacopy\n        /* \"#utility.yul\":8298:8299   */\n      0x00\n        /* \"#utility.yul\":8289:8295   */\n      dup4\n        /* \"#utility.yul\":8284:8287   */\n      dup4\n        /* \"#utility.yul\":8280:8296   */\n      add\n        /* \"#utility.yul\":8273:8300   */\n      mstore\n        /* \"#utility.yul\":8152:8306   */\n      pop\n      pop\n      pop\n      jump\t// out\n        /* \"#utility.yul\":8312:8722   */\n    tag_304:\n        /* \"#utility.yul\":8389:8394   */\n      0x00\n        /* \"#utility.yul\":8414:8479   */\n      tag_416\n        /* \"#utility.yul\":8430:8478   */\n      tag_417\n        /* \"#utility.yul\":8471:8477   */\n      dup5\n        /* \"#utility.yul\":8430:8478   */\n      tag_302\n      jump\t// in\n    tag_417:\n        /* \"#utility.yul\":8414:8479   */\n      tag_301\n      jump\t// in\n    tag_416:\n        /* \"#utility.yul\":8405:8479   */\n      swap1\n      pop\n        /* \"#utility.yul\":8502:8508   */\n      dup3\n        /* \"#utility.yul\":8495:8500   */\n      dup2\n        /* \"#utility.yul\":8488:8509   */\n      mstore\n        /* \"#utility.yul\":8540:8544   */\n      0x20\n        /* \"#utility.yul\":8533:8538   */\n      dup2\n        /* \"#utility.yul\":8529:8545   */\n      add\n        /* \"#utility.yul\":8578:8581   */\n      dup5\n        /* \"#utility.yul\":8569:8575   */\n      dup5\n        /* \"#utility.yul\":8564:8567   */\n      dup5\n        /* \"#utility.yul\":8560:8576   */\n      add\n        /* \"#utility.yul\":8557:8582   */\n      gt\n        /* \"#utility.yul\":8554:8666   */\n      iszero\n      tag_418\n      jumpi\n        /* \"#utility.yul\":8585:8664   */\n      tag_419\n      tag_299\n      jump\t// in\n    tag_419:\n        /* \"#utility.yul\":8554:8666   */\n    tag_418:\n        /* \"#utility.yul\":8675:8716   */\n      tag_420\n        /* \"#utility.yul\":8709:8715   */\n      dup5\n        /* \"#utility.yul\":8704:8707   */\n      dup3\n        /* \"#utility.yul\":8699:8702   */\n      dup6\n        /* \"#utility.yul\":8675:8716   */\n      tag_303\n      jump\t// in\n    tag_420:\n        /* \"#utility.yul\":8395:8722   */\n      pop\n        /* \"#utility.yul\":8312:8722   */\n      swap4\n      swap3\n      pop\n      pop\n      pop\n      jump\t// out\n        /* \"#utility.yul\":8741:9079   */\n    tag_305:\n        /* \"#utility.yul\":8796:8801   */\n      0x00\n        /* \"#utility.yul\":8845:8848   */\n      dup3\n        /* \"#utility.yul\":8838:8842   */\n      0x1f\n        /* \"#utility.yul\":8830:8836   */\n      dup4\n        /* \"#utility.yul\":8826:8843   */\n      add\n        /* \"#utility.yul\":8822:8849   */\n      slt\n        /* \"#utility.yul\":8812:8934   */\n      tag_422\n      jumpi\n        /* \"#utility.yul\":8853:8932   */\n      tag_423\n      tag_298\n      jump\t// in\n    tag_423:\n        /* \"#utility.yul\":8812:8934   */\n    tag_422:\n        /* \"#utility.yul\":8970:8976   */\n      dup2\n        /* \"#utility.yul\":8957:8977   */\n      calldataload\n        /* \"#utility.yul\":8995:9073   */\n      tag_424\n        /* \"#utility.yul\":9069:9072   */\n      dup5\n        /* \"#utility.yul\":9061:9067   */\n      dup3\n        /* \"#utility.yul\":9054:9058   */\n      0x20\n        /* \"#utility.yul\":9046:9052   */\n      dup7\n        /* \"#utility.yul\":9042:9059   */\n      add\n        /* \"#utility.yul\":8995:9073   */\n      tag_304\n      jump\t// in\n    tag_424:\n        /* \"#utility.yul\":8986:9073   */\n      swap2\n      pop\n        /* \"#utility.yul\":8802:9079   */\n      pop\n        /* \"#utility.yul\":8741:9079   */\n      swap3\n      swap2\n      pop\n      pop\n      jump\t// out\n        /* \"#utility.yul\":9085:10028   */\n    tag_84:\n        /* \"#utility.yul\":9180:9186   */\n      0x00\n        /* \"#utility.yul\":9188:9194   */\n      dup1\n        /* \"#utility.yul\":9196:9202   */\n      0x00\n        /* \"#utility.yul\":9204:9210   */\n      dup1\n        /* \"#utility.yul\":9253:9256   */\n      0x80\n        /* \"#utility.yul\":9241:9250   */\n      dup6\n        /* \"#utility.yul\":9232:9239   */\n      dup8\n        /* \"#utility.yul\":9228:9251   */\n      sub\n        /* \"#utility.yul\":9224:9257   */\n      slt\n        /* \"#utility.yul\":9221:9341   */\n      iszero\n      tag_426\n      jumpi\n        /* \"#utility.yul\":9260:9339   */\n      tag_427\n      tag_275\n      jump\t// in\n    tag_427:\n        /* \"#utility.yul\":9221:9341   */\n    tag_426:\n        /* \"#utility.yul\":9380:9381   */\n      0x00\n        /* \"#utility.yul\":9405:9458   */\n      tag_428\n        /* \"#utility.yul\":9450:9457   */\n      dup8\n        /* \"#utility.yul\":9441:9447   */\n      dup3\n        /* \"#utility.yul\":9430:9439   */\n      dup9\n        /* \"#utility.yul\":9426:9448   */\n      add\n        /* \"#utility.yul\":9405:9458   */\n      tag_294\n      jump\t// in\n    tag_428:\n        /* \"#utility.yul\":9395:9458   */\n      swap5\n      pop\n        /* \"#utility.yul\":9351:9468   */\n      pop\n        /* \"#utility.yul\":9507:9509   */\n      0x20\n        /* \"#utility.yul\":9533:9586   */\n      tag_429\n        /* \"#utility.yul\":9578:9585   */\n      dup8\n        /* \"#utility.yul\":9569:9575   */\n      dup3\n        /* \"#utility.yul\":9558:9567   */\n      dup9\n        /* \"#utility.yul\":9554:9576   */\n      add\n        /* \"#utility.yul\":9533:9586   */\n      tag_294\n      jump\t// in\n    tag_429:\n        /* \"#utility.yul\":9523:9586   */\n      swap4\n      pop\n        /* \"#utility.yul\":9478:9596   */\n      pop\n        /* \"#utility.yul\":9635:9637   */\n      0x40\n        /* \"#utility.yul\":9661:9714   */\n      tag_430\n        /* \"#utility.yul\":9706:9713   */\n      dup8\n        /* \"#utility.yul\":9697:9703   */\n      dup3\n        /* \"#utility.yul\":9686:9695   */\n      dup9\n        /* \"#utility.yul\":9682:9704   */\n      add\n        /* \"#utility.yul\":9661:9714   */\n      tag_289\n      jump\t// in\n    tag_430:\n        /* \"#utility.yul\":9651:9714   */\n      swap3\n      pop\n        /* \"#utility.yul\":9606:9724   */\n      pop\n        /* \"#utility.yul\":9791:9793   */\n      0x60\n        /* \"#utility.yul\":9780:9789   */\n      dup6\n        /* \"#utility.yul\":9776:9794   */\n      add\n        /* \"#utility.yul\":9763:9795   */\n      calldataload\n        /* \"#utility.yul\":9822:9840   */\n      0xffffffffffffffff\n        /* \"#utility.yul\":9814:9820   */\n      dup2\n        /* \"#utility.yul\":9811:9841   */\n      gt\n        /* \"#utility.yul\":9808:9925   */\n      iszero\n      tag_431\n      jumpi\n        /* \"#utility.yul\":9844:9923   */\n      tag_432\n      tag_276\n      jump\t// in\n    tag_432:\n        /* \"#utility.yul\":9808:9925   */\n    tag_431:\n        /* \"#utility.yul\":9949:10011   */\n      tag_433\n        /* \"#utility.yul\":10003:10010   */\n      dup8\n        /* \"#utility.yul\":9994:10000   */\n      dup3\n        /* \"#utility.yul\":9983:9992   */\n      dup9\n        /* \"#utility.yul\":9979:10001   */\n      add\n        /* \"#utility.yul\":9949:10011   */\n      tag_305\n      jump\t// in\n    tag_433:\n        /* \"#utility.yul\":9939:10011   */\n      swap2\n      pop\n        /* \"#utility.yul\":9734:10021   */\n      pop\n        /* \"#utility.yul\":9085:10028   */\n      swap3\n      swap6\n      swap2\n      swap5\n      pop\n      swap3\n      pop\n      jump\t// out\n        /* \"#utility.yul\":10034:10508   */\n    tag_94:\n        /* \"#utility.yul\":10102:10108   */\n      0x00\n        /* \"#utility.yul\":10110:10116   */\n      dup1\n        /* \"#utility.yul\":10159:10161   */\n      0x40\n        /* \"#utility.yul\":10147:10156   */\n      dup4\n        /* \"#utility.yul\":10138:10145   */\n      dup6\n        /* \"#utility.yul\":10134:10157   */\n      sub\n        /* \"#utility.yul\":10130:10162   */\n      slt\n        /* \"#utility.yul\":10127:10246   */\n      iszero\n      tag_435\n      jumpi\n        /* \"#utility.yul\":10165:10244   */\n      tag_436\n      tag_275\n      jump\t// in\n    tag_436:\n        /* \"#utility.yul\":10127:10246   */\n    tag_435:\n        /* \"#utility.yul\":10285:10286   */\n      0x00\n        /* \"#utility.yul\":10310:10363   */\n      tag_437\n        /* \"#utility.yul\":10355:10362   */\n      dup6\n        /* \"#utility.yul\":10346:10352   */\n      dup3\n        /* \"#utility.yul\":10335:10344   */\n      dup7\n        /* \"#utility.yul\":10331:10353   */\n      add\n        /* \"#utility.yul\":10310:10363   */\n      tag_294\n      jump\t// in\n    tag_437:\n        /* \"#utility.yul\":10300:10363   */\n      swap3\n      pop\n        /* \"#utility.yul\":10256:10373   */\n      pop\n        /* \"#utility.yul\":10412:10414   */\n      0x20\n        /* \"#utility.yul\":10438:10491   */\n      tag_438\n        /* \"#utility.yul\":10483:10490   */\n      dup6\n        /* \"#utility.yul\":10474:10480   */\n      dup3\n        /* \"#utility.yul\":10463:10472   */\n      dup7\n        /* \"#utility.yul\":10459:10481   */\n      add\n        /* \"#utility.yul\":10438:10491   */\n      tag_294\n      jump\t// in\n    tag_438:\n        /* \"#utility.yul\":10428:10491   */\n      swap2\n      pop\n        /* \"#utility.yul\":10383:10501   */\n      pop\n        /* \"#utility.yul\":10034:10508   */\n      swap3\n      pop\n      swap3\n      swap1\n      pop\n      jump\t// out\n        /* \"#utility.yul\":10514:10694   */\n    tag_306:\n        /* \"#utility.yul\":10562:10639   */\n      0x4e487b7100000000000000000000000000000000000000000000000000000000\n        /* \"#utility.yul\":10559:10560   */\n      0x00\n        /* \"#utility.yul\":10552:10640   */\n      mstore\n        /* \"#utility.yul\":10659:10663   */\n      0x22\n        /* \"#utility.yul\":10656:10657   */\n      0x04\n        /* \"#utility.yul\":10649:10664   */\n      mstore\n        /* \"#utility.yul\":10683:10687   */\n      0x24\n        /* \"#utility.yul\":10680:10681   */\n      0x00\n        /* \"#utility.yul\":10673:10688   */\n      revert\n        /* \"#utility.yul\":10700:11020   */\n    tag_104:\n        /* \"#utility.yul\":10744:10750   */\n      0x00\n        /* \"#utility.yul\":10781:10782   */\n      0x02\n        /* \"#utility.yul\":10775:10779   */\n      dup3\n        /* \"#utility.yul\":10771:10783   */\n      div\n        /* \"#utility.yul\":10761:10783   */\n      swap1\n      pop\n        /* \"#utility.yul\":10828:10829   */\n      0x01\n        /* \"#utility.yul\":10822:10826   */\n      dup3\n        /* \"#utility.yul\":10818:10830   */\n      and\n        /* \"#utility.yul\":10849:10867   */\n      dup1\n        /* \"#utility.yul\":10839:10920   */\n      tag_441\n      jumpi\n        /* \"#utility.yul\":10905:10909   */\n      0x7f\n        /* \"#utility.yul\":10897:10903   */\n      dup3\n        /* \"#utility.yul\":10893:10910   */\n      and\n        /* \"#utility.yul\":10883:10910   */\n      swap2\n      pop\n        /* \"#utility.yul\":10839:10920   */\n    tag_441:\n        /* \"#utility.yul\":10967:10969   */\n      0x20\n        /* \"#utility.yul\":10959:10965   */\n      dup3\n        /* \"#utility.yul\":10956:10970   */\n      lt\n        /* \"#utility.yul\":10936:10954   */\n      dup2\n        /* \"#utility.yul\":10933:10971   */\n      sub\n        /* \"#utility.yul\":10930:11014   */\n      tag_442\n      jumpi\n        /* \"#utility.yul\":10986:11004   */\n      tag_443\n      tag_306\n      jump\t// in\n    tag_443:\n        /* \"#utility.yul\":10930:11014   */\n    tag_442:\n        /* \"#utility.yul\":10751:11020   */\n      pop\n        /* \"#utility.yul\":10700:11020   */\n      swap2\n      swap1\n      pop\n      jump\t// out\n        /* \"#utility.yul\":11026:11174   */\n    tag_307:\n        /* \"#utility.yul\":11128:11139   */\n      0x00\n        /* \"#utility.yul\":11165:11168   */\n      dup2\n        /* \"#utility.yul\":11150:11168   */\n      swap1\n      pop\n        /* \"#utility.yul\":11026:11174   */\n      swap3\n      swap2\n      pop\n      pop\n      jump\t// out\n        /* \"#utility.yul\":11180:11557   */\n    tag_308:\n        /* \"#utility.yul\":11286:11289   */\n      0x00\n        /* \"#utility.yul\":11314:11353   */\n      tag_446\n        /* \"#utility.yul\":11347:11352   */\n      dup3\n        /* \"#utility.yul\":11314:11353   */\n      tag_282\n      jump\t// in\n    tag_446:\n        /* \"#utility.yul\":11369:11458   */\n      tag_447\n        /* \"#utility.yul\":11451:11457   */\n      dup2\n        /* \"#utility.yul\":11446:11449   */\n      dup6\n        /* \"#utility.yul\":11369:11458   */\n      tag_307\n      jump\t// in\n    tag_447:\n        /* \"#utility.yul\":11362:11458   */\n      swap4\n      pop\n        /* \"#utility.yul\":11467:11519   */\n      tag_448\n        /* \"#utility.yul\":11512:11518   */\n      dup2\n        /* \"#utility.yul\":11507:11510   */\n      dup6\n        /* \"#utility.yul\":11500:11504   */\n      0x20\n        /* \"#utility.yul\":11493:11498   */\n      dup7\n        /* \"#utility.yul\":11489:11505   */\n      add\n        /* \"#utility.yul\":11467:11519   */\n      tag_284\n      jump\t// in\n    tag_448:\n        /* \"#utility.yul\":11544:11550   */\n      dup1\n        /* \"#utility.yul\":11539:11542   */\n      dup5\n        /* \"#utility.yul\":11535:11551   */\n      add\n        /* \"#utility.yul\":11528:11551   */\n      swap2\n      pop\n        /* \"#utility.yul\":11290:11557   */\n      pop\n        /* \"#utility.yul\":11180:11557   */\n      swap3\n      swap2\n      pop\n      pop\n      jump\t// out\n        /* \"#utility.yul\":11563:11998   */\n    tag_170:\n        /* \"#utility.yul\":11743:11746   */\n      0x00\n        /* \"#utility.yul\":11765:11860   */\n      tag_450\n        /* \"#utility.yul\":11856:11859   */\n      dup3\n        /* \"#utility.yul\":11847:11853   */\n      dup6\n        /* \"#utility.yul\":11765:11860   */\n      tag_308\n      jump\t// in\n    tag_450:\n        /* \"#utility.yul\":11758:11860   */\n      swap2\n      pop\n        /* \"#utility.yul\":11877:11972   */\n      tag_451\n        /* \"#utility.yul\":11968:11971   */\n      dup3\n        /* \"#utility.yul\":11959:11965   */\n      dup5\n        /* \"#utility.yul\":11877:11972   */\n      tag_308\n      jump\t// in\n    tag_451:\n        /* \"#utility.yul\":11870:11972   */\n      swap2\n      pop\n        /* \"#utility.yul\":11989:11992   */\n      dup2\n        /* \"#utility.yul\":11982:11992   */\n      swap1\n      pop\n        /* \"#utility.yul\":11563:11998   */\n      swap4\n      swap3\n      pop\n      pop\n      pop\n      jump\t// out\n        /* \"#utility.yul\":12004:12102   */\n    tag_309:\n        /* \"#utility.yul\":12055:12061   */\n      0x00\n        /* \"#utility.yul\":12089:12094   */\n      dup2\n        /* \"#utility.yul\":12083:12095   */\n      mload\n        /* \"#utility.yul\":12073:12095   */\n      swap1\n      pop\n        /* \"#utility.yul\":12004:12102   */\n      swap2\n      swap1\n      pop\n      jump\t// out\n        /* \"#utility.yul\":12108:12276   */\n    tag_310:\n        /* \"#utility.yul\":12191:12202   */\n      0x00\n        /* \"#utility.yul\":12225:12231   */\n      dup3\n        /* \"#utility.yul\":12220:12223   */\n      dup3\n        /* \"#utility.yul\":12213:12232   */\n      mstore\n        /* \"#utility.yul\":12265:12269   */\n      0x20\n        /* \"#utility.yul\":12260:12263   */\n      dup3\n        /* \"#utility.yul\":12256:12270   */\n      add\n        /* \"#utility.yul\":12241:12270   */\n      swap1\n      pop\n        /* \"#utility.yul\":12108:12276   */\n      swap3\n      swap2\n      pop\n      pop\n      jump\t// out\n        /* \"#utility.yul\":12282:12642   */\n    tag_311:\n        /* \"#utility.yul\":12368:12371   */\n      0x00\n        /* \"#utility.yul\":12396:12434   */\n      tag_455\n        /* \"#utility.yul\":12428:12433   */\n      dup3\n        /* \"#utility.yul\":12396:12434   */\n      tag_309\n      jump\t// in\n    tag_455:\n        /* \"#utility.yul\":12450:12520   */\n      tag_456\n        /* \"#utility.yul\":12513:12519   */\n      dup2\n        /* \"#utility.yul\":12508:12511   */\n      dup6\n        /* \"#utility.yul\":12450:12520   */\n      tag_310\n      jump\t// in\n    tag_456:\n        /* \"#utility.yul\":12443:12520   */\n      swap4\n      pop\n        /* \"#utility.yul\":12529:12581   */\n      tag_457\n        /* \"#utility.yul\":12574:12580   */\n      dup2\n        /* \"#utility.yul\":12569:12572   */\n      dup6\n        /* \"#utility.yul\":12562:12566   */\n      0x20\n        /* \"#utility.yul\":12555:12560   */\n      dup7\n        /* \"#utility.yul\":12551:12567   */\n      add\n        /* \"#utility.yul\":12529:12581   */\n      tag_284\n      jump\t// in\n    tag_457:\n        /* \"#utility.yul\":12606:12635   */\n      tag_458\n        /* \"#utility.yul\":12628:12634   */\n      dup2\n        /* \"#utility.yul\":12606:12635   */\n      tag_285\n      jump\t// in\n    tag_458:\n        /* \"#utility.yul\":12601:12604   */\n      dup5\n        /* \"#utility.yul\":12597:12636   */\n      add\n        /* \"#utility.yul\":12590:12636   */\n      swap2\n      pop\n        /* \"#utility.yul\":12372:12642   */\n      pop\n        /* \"#utility.yul\":12282:12642   */\n      swap3\n      swap2\n      pop\n      pop\n      jump\t// out\n        /* \"#utility.yul\":12648:13288   */\n    tag_217:\n        /* \"#utility.yul\":12843:12847   */\n      0x00\n        /* \"#utility.yul\":12881:12884   */\n      0x80\n        /* \"#utility.yul\":12870:12879   */\n      dup3\n        /* \"#utility.yul\":12866:12885   */\n      add\n        /* \"#utility.yul\":12858:12885   */\n      swap1\n      pop\n        /* \"#utility.yul\":12895:12966   */\n      tag_460\n        /* \"#utility.yul\":12963:12964   */\n      0x00\n        /* \"#utility.yul\":12952:12961   */\n      dup4\n        /* \"#utility.yul\":12948:12965   */\n      add\n        /* \"#utility.yul\":12939:12945   */\n      dup8\n        /* \"#utility.yul\":12895:12966   */\n      tag_292\n      jump\t// in\n    tag_460:\n        /* \"#utility.yul\":12976:13048   */\n      tag_461\n        /* \"#utility.yul\":13044:13046   */\n      0x20\n        /* \"#utility.yul\":13033:13042   */\n      dup4\n        /* \"#utility.yul\":13029:13047   */\n      add\n        /* \"#utility.yul\":13020:13026   */\n      dup7\n        /* \"#utility.yul\":12976:13048   */\n      tag_292\n      jump\t// in\n    tag_461:\n        /* \"#utility.yul\":13058:13130   */\n      tag_462\n        /* \"#utility.yul\":13126:13128   */\n      0x40\n        /* \"#utility.yul\":13115:13124   */\n      dup4\n        /* \"#utility.yul\":13111:13129   */\n      add\n        /* \"#utility.yul\":13102:13108   */\n      dup6\n        /* \"#utility.yul\":13058:13130   */\n      tag_295\n      jump\t// in\n    tag_462:\n        /* \"#utility.yul\":13177:13186   */\n      dup2\n        /* \"#utility.yul\":13171:13175   */\n      dup2\n        /* \"#utility.yul\":13167:13187   */\n      sub\n        /* \"#utility.yul\":13162:13164   */\n      0x60\n        /* \"#utility.yul\":13151:13160   */\n      dup4\n        /* \"#utility.yul\":13147:13165   */\n      add\n        /* \"#utility.yul\":13140:13188   */\n      mstore\n        /* \"#utility.yul\":13205:13281   */\n      tag_463\n        /* \"#utility.yul\":13276:13280   */\n      dup2\n        /* \"#utility.yul\":13267:13273   */\n      dup5\n        /* \"#utility.yul\":13205:13281   */\n      tag_311\n      jump\t// in\n    tag_463:\n        /* \"#utility.yul\":13197:13281   */\n      swap1\n      pop\n        /* \"#utility.yul\":12648:13288   */\n      swap6\n      swap5\n      pop\n      pop\n      pop\n      pop\n      pop\n      jump\t// out\n        /* \"#utility.yul\":13294:13435   */\n    tag_312:\n        /* \"#utility.yul\":13350:13355   */\n      0x00\n        /* \"#utility.yul\":13381:13387   */\n      dup2\n        /* \"#utility.yul\":13375:13388   */\n      mload\n        /* \"#utility.yul\":13366:13388   */\n      swap1\n      pop\n        /* \"#utility.yul\":13397:13429   */\n      tag_465\n        /* \"#utility.yul\":13423:13428   */\n      dup2\n        /* \"#utility.yul\":13397:13429   */\n      tag_278\n      jump\t// in\n    tag_465:\n        /* \"#utility.yul\":13294:13435   */\n      swap3\n      swap2\n      pop\n      pop\n      jump\t// out\n        /* \"#utility.yul\":13441:13790   */\n    tag_220:\n        /* \"#utility.yul\":13510:13516   */\n      0x00\n        /* \"#utility.yul\":13559:13561   */\n      0x20\n        /* \"#utility.yul\":13547:13556   */\n      dup3\n        /* \"#utility.yul\":13538:13545   */\n      dup5\n        /* \"#utility.yul\":13534:13557   */\n      sub\n        /* \"#utility.yul\":13530:13562   */\n      slt\n        /* \"#utility.yul\":13527:13646   */\n      iszero\n      tag_467\n      jumpi\n        /* \"#utility.yul\":13565:13644   */\n      tag_468\n      tag_275\n      jump\t// in\n    tag_468:\n        /* \"#utility.yul\":13527:13646   */\n    tag_467:\n        /* \"#utility.yul\":13685:13686   */\n      0x00\n        /* \"#utility.yul\":13710:13773   */\n      tag_469\n        /* \"#utility.yul\":13765:13772   */\n      dup5\n        /* \"#utility.yul\":13756:13762   */\n      dup3\n        /* \"#utility.yul\":13745:13754   */\n      dup6\n        /* \"#utility.yul\":13741:13763   */\n      add\n        /* \"#utility.yul\":13710:13773   */\n      tag_312\n      jump\t// in\n    tag_469:\n        /* \"#utility.yul\":13700:13773   */\n      swap2\n      pop\n        /* \"#utility.yul\":13656:13783   */\n      pop\n        /* \"#utility.yul\":13441:13790   */\n      swap3\n      swap2\n      pop\n      pop\n      jump\t// out\n        /* \"#utility.yul\":13796:13976   */\n    tag_313:\n        /* \"#utility.yul\":13844:13921   */\n      0x4e487b7100000000000000000000000000000000000000000000000000000000\n        /* \"#utility.yul\":13841:13842   */\n      0x00\n        /* \"#utility.yul\":13834:13922   */\n      mstore\n        /* \"#utility.yul\":13941:13945   */\n      0x11\n        /* \"#utility.yul\":13938:13939   */\n      0x04\n        /* \"#utility.yul\":13931:13946   */\n      mstore\n        /* \"#utility.yul\":13965:13969   */\n      0x24\n        /* \"#utility.yul\":13962:13963   */\n      0x00\n        /* \"#utility.yul\":13955:13970   */\n      revert\n        /* \"#utility.yul\":13982:14215   */\n    tag_236:\n        /* \"#utility.yul\":14021:14024   */\n      0x00\n        /* \"#utility.yul\":14044:14068   */\n      tag_472\n        /* \"#utility.yul\":14062:14067   */\n      dup3\n        /* \"#utility.yul\":14044:14068   */\n      tag_287\n      jump\t// in\n    tag_472:\n        /* \"#utility.yul\":14035:14068   */\n      swap2\n      pop\n        /* \"#utility.yul\":14090:14156   */\n      0xffffffffffffffffffffffffffffffffffffffffffffffffffffffffffffffff\n        /* \"#utility.yul\":14083:14088   */\n      dup3\n        /* \"#utility.yul\":14080:14157   */\n      sub\n        /* \"#utility.yul\":14077:14180   */\n      tag_473\n      jumpi\n        /* \"#utility.yul\":14160:14178   */\n      tag_474\n      tag_313\n      jump\t// in\n    tag_474:\n        /* \"#utility.yul\":14077:14180   */\n    tag_473:\n        /* \"#utility.yul\":14207:14208   */\n      0x01\n        /* \"#utility.yul\":14200:14205   */\n      dup3\n        /* \"#utility.yul\":14196:14209   */\n      add\n        /* \"#utility.yul\":14189:14209   */\n      swap1\n      pop\n        /* \"#utility.yul\":13982:14215   */\n      swap2\n      swap1\n      pop\n      jump\t// out\n        /* \"#utility.yul\":14221:14401   */\n    tag_314:\n        /* \"#utility.yul\":14269:14346   */\n      0x4e487b7100000000000000000000000000000000000000000000000000000000\n        /* \"#utility.yul\":14266:14267   */\n      0x00\n        /* \"#utility.yul\":14259:14347   */\n      mstore\n        /* \"#utility.yul\":14366:14370   */\n      0x12\n        /* \"#utility.yul\":14363:14364   */\n      0x04\n        /* \"#utility.yul\":14356:14371   */\n      mstore\n        /* \"#utility.yul\":14390:14394   */\n      0x24\n        /* \"#utility.yul\":14387:14388   */\n      0x00\n        /* \"#utility.yul\":14380:14395   */\n      revert\n        /* \"#utility.yul\":14407:14592   */\n    tag_238:\n        /* \"#utility.yul\":14447:14448   */\n      0x00\n        /* \"#utility.yul\":14464:14484   */\n      tag_477\n        /* \"#utility.yul\":14482:14483   */\n      dup3\n        /* \"#utility.yul\":14464:14484   */\n      tag_287\n      jump\t// in\n    tag_477:\n        /* \"#utility.yul\":14459:14484   */\n      swap2\n      pop\n        /* \"#utility.yul\":14498:14518   */\n      tag_478\n        /* \"#utility.yul\":14516:14517   */\n      dup4\n        /* \"#utility.yul\":14498:14518   */\n      tag_287\n      jump\t// in\n    tag_478:\n        /* \"#utility.yul\":14493:14518   */\n      swap3\n      pop\n        /* \"#utility.yul\":14537:14538   */\n      dup3\n        /* \"#utility.yul\":14527:14562   */\n      tag_479\n      jumpi\n        /* \"#utility.yul\":14542:14560   */\n      tag_480\n      tag_314\n      jump\t// in\n    tag_480:\n        /* \"#utility.yul\":14527:14562   */\n    tag_479:\n        /* \"#utility.yul\":14584:14585   */\n      dup3\n        /* \"#utility.yul\":14581:14582   */\n      dup3\n        /* \"#utility.yul\":14577:14586   */\n      div\n        /* \"#utility.yul\":14572:14586   */\n      swap1\n      pop\n        /* \"#utility.yul\":14407:14592   */\n      swap3\n      swap2\n      pop\n      pop\n      jump\t// out\n        /* \"#utility.yul\":14598:14789   */\n    tag_246:\n        /* \"#utility.yul\":14638:14642   */\n      0x00\n        /* \"#utility.yul\":14658:14678   */\n      tag_482\n        /* \"#utility.yul\":14676:14677   */\n      dup3\n        /* \"#utility.yul\":14658:14678   */\n      tag_287\n      jump\t// in\n    tag_482:\n        /* \"#utility.yul\":14653:14678   */\n      swap2\n      pop\n        /* \"#utility.yul\":14692:14712   */\n      tag_483\n        /* \"#utility.yul\":14710:14711   */\n      dup4\n        /* \"#utility.yul\":14692:14712   */\n      tag_287\n      jump\t// in\n    tag_483:\n        /* \"#utility.yul\":14687:14712   */\n      swap3\n      pop\n        /* \"#utility.yul\":14731:14732   */\n      dup3\n        /* \"#utility.yul\":14728:14729   */\n      dup3\n        /* \"#utility.yul\":14725:14733   */\n      lt\n        /* \"#utility.yul\":14722:14756   */\n      iszero\n      tag_484\n      jumpi\n        /* \"#utility.yul\":14736:14754   */\n      tag_485\n      tag_313\n      jump\t// in\n    tag_485:\n        /* \"#utility.yul\":14722:14756   */\n    tag_484:\n        /* \"#utility.yul\":14781:14782   */\n      dup3\n        /* \"#utility.yul\":14778:14779   */\n      dup3\n        /* \"#utility.yul\":14774:14783   */\n      sub\n        /* \"#utility.yul\":14766:14783   */\n      swap1\n      pop\n        /* \"#utility.yul\":14598:14789   */\n      swap3\n      swap2\n      pop\n      pop\n      jump\t// out\n        /* \"#utility.yul\":14795:14971   */\n    tag_248:\n        /* \"#utility.yul\":14827:14828   */\n      0x00\n        /* \"#utility.yul\":14844:14864   */\n      tag_487\n        /* \"#utility.yul\":14862:14863   */\n      dup3\n        /* \"#utility.yul\":14844:14864   */\n      tag_287\n      jump\t// in\n    tag_487:\n        /* \"#utility.yul\":14839:14864   */\n      swap2\n      pop\n        /* \"#utility.yul\":14878:14898   */\n      tag_488\n        /* \"#utility.yul\":14896:14897   */\n      dup4\n        /* \"#utility.yul\":14878:14898   */\n      tag_287\n      jump\t// in\n    tag_488:\n        /* \"#utility.yul\":14873:14898   */\n      swap3\n      pop\n        /* \"#utility.yul\":14917:14918   */\n      dup3\n        /* \"#utility.yul\":14907:14942   */\n      tag_489\n      jumpi\n        /* \"#utility.yul\":14922:14940   */\n      tag_490\n      tag_314\n      jump\t// in\n    tag_490:\n        /* \"#utility.yul\":14907:14942   */\n    tag_489:\n        /* \"#utility.yul\":14963:14964   */\n      dup3\n        /* \"#utility.yul\":14960:14961   */\n      dup3\n        /* \"#utility.yul\":14956:14965   */\n      mod\n        /* \"#utility.yul\":14951:14965   */\n      swap1\n      pop\n        /* \"#utility.yul\":14795:14971   */\n      swap3\n      swap2\n      pop\n      pop\n      jump\t// out\n        /* \"#utility.yul\":14977:15282   */\n    tag_250:\n        /* \"#utility.yul\":15017:15020   */\n      0x00\n        /* \"#utility.yul\":15036:15056   */\n      tag_492\n        /* \"#utility.yul\":15054:15055   */\n      dup3\n        /* \"#utility.yul\":15036:15056   */\n      tag_287\n      jump\t// in\n    tag_492:\n        /* \"#utility.yul\":15031:15056   */\n      swap2\n      pop\n        /* \"#utility.yul\":15070:15090   */\n      tag_493\n        /* \"#utility.yul\":15088:15089   */\n      dup4\n        /* \"#utility.yul\":15070:15090   */\n      tag_287\n      jump\t// in\n    tag_493:\n        /* \"#utility.yul\":15065:15090   */\n      swap3\n      pop\n        /* \"#utility.yul\":15224:15225   */\n      dup3\n        /* \"#utility.yul\":15156:15222   */\n      0xffffffffffffffffffffffffffffffffffffffffffffffffffffffffffffffff\n        /* \"#utility.yul\":15152:15226   */\n      sub\n        /* \"#utility.yul\":15149:15150   */\n      dup3\n        /* \"#utility.yul\":15146:15227   */\n      gt\n        /* \"#utility.yul\":15143:15250   */\n      iszero\n      tag_494\n      jumpi\n        /* \"#utility.yul\":15230:15248   */\n      tag_495\n      tag_313\n      jump\t// in\n    tag_495:\n        /* \"#utility.yul\":15143:15250   */\n    tag_494:\n        /* \"#utility.yul\":15274:15275   */\n      dup3\n        /* \"#utility.yul\":15271:15272   */\n      dup3\n        /* \"#utility.yul\":15267:15276   */\n      add\n        /* \"#utility.yul\":15260:15276   */\n      swap1\n      pop\n        /* \"#utility.yul\":14977:15282   */\n      swap3\n      swap2\n      pop\n      pop\n      jump\t// out\n        /* \"#utility.yul\":15288:15468   */\n    tag_253:\n        /* \"#utility.yul\":15336:15413   */\n      0x4e487b7100000000000000000000000000000000000000000000000000000000\n        /* \"#utility.yul\":15333:15334   */\n      0x00\n        /* \"#utility.yul\":15326:15414   */\n      mstore\n        /* \"#utility.yul\":15433:15437   */\n      0x32\n        /* \"#utility.yul\":15430:15431   */\n      0x04\n        /* \"#utility.yul\":15423:15438   */\n      mstore\n        /* \"#utility.yul\":15457:15461   */\n      0x24\n        /* \"#utility.yul\":15454:15455   */\n      0x00\n        /* \"#utility.yul\":15447:15462   */\n      revert\n    stop\n    data_d8bb5093925f17312ccd69c1ad4eefb61d29f5f451bdf501cef244662be1efab 68747470733a2f2f676174657761792e70696e6174612e636c6f75642f697066732f516d6648576b7454625354424e4c7777385a446832716335444b71695a63696b6e6f7137365a665872736f5231762f\n\n    auxdata: 0xa2646970667358221220df5ea11e84886e2438721930b782b8d7dc3b0d9fe9d83e794aba5c7289eef20c64736f6c634300080d0033\n}\n",
				"bytecode": {
					"linkReferences": {},
					"object": "60806040523480156200001157600080fd5b506040518060400160405280600781526020017f44636f66666572000000000000000000000000000000000000000000000000008152506040518060400160405280600781526020017f44636f6666657200000000000000000000000000000000000000000000000000815250816002908051906020019062000096929190620000d7565b508060039080519060200190620000af929190620000d7565b50620000c0620000ce60201b60201c565b6000819055505050620001eb565b60006001905090565b828054620000e590620001b6565b90600052602060002090601f01602090048101928262000109576000855562000155565b82601f106200012457805160ff191683800117855562000155565b8280016001018555821562000155579182015b828111156200015457825182559160200191906001019062000137565b5b50905062000164919062000168565b5090565b5b808211156200018357600081600090555060010162000169565b5090565b7f4e487b7100000000000000000000000000000000000000000000000000000000600052602260045260246000fd5b60006002820490506001821680620001cf57607f821691505b602082108103620001e557620001e462000187565b5b50919050565b61252d80620001fb6000396000f3fe6080604052600436106100e85760003560e01c80636352211e1161008a578063a22cb46511610059578063a22cb465146102f9578063b88d4fde14610322578063c87b56dd1461034b578063e985e9c514610388576100e8565b80636352211e1461023857806370a082311461027557806395d89b41146102b2578063a0712d68146102dd576100e8565b8063095ea7b3116100c6578063095ea7b31461019257806318160ddd146101bb57806323b872dd146101e657806342842e0e1461020f576100e8565b806301ffc9a7146100ed57806306fdde031461012a578063081812fc14610155575b600080fd5b3480156100f957600080fd5b50610114600480360381019061010f9190611beb565b6103c5565b6040516101219190611c33565b60405180910390f35b34801561013657600080fd5b5061013f6104a7565b60405161014c9190611ce7565b60405180910390f35b34801561016157600080fd5b5061017c60048036038101906101779190611d3f565b610539565b6040516101899190611dad565b60405180910390f35b34801561019e57600080fd5b506101b960048036038101906101b49190611df4565b6105b5565b005b3480156101c757600080fd5b506101d06106b9565b6040516101dd9190611e43565b60405180910390f35b3480156101f257600080fd5b5061020d60048036038101906102089190611e5e565b6106d0565b005b34801561021b57600080fd5b5061023660048036038101906102319190611e5e565b6106e0565b005b34801561024457600080fd5b5061025f600480360381019061025a9190611d3f565b610700565b60405161026c9190611dad565b60405180910390f35b34801561028157600080fd5b5061029c60048036038101906102979190611eb1565b610716565b6040516102a99190611e43565b60405180910390f35b3480156102be57600080fd5b506102c76107e5565b6040516102d49190611ce7565b60405180910390f35b6102f760048036038101906102f29190611d3f565b610877565b005b34801561030557600080fd5b50610320600480360381019061031b9190611f0a565b610884565b005b34801561032e57600080fd5b506103496004803603810190610344919061207f565b6109fb565b005b34801561035757600080fd5b50610372600480360381019061036d9190611d3f565b610a73565b60405161037f9190611ce7565b60405180910390f35b34801561039457600080fd5b506103af60048036038101906103aa9190612102565b610b11565b6040516103bc9190611c33565b60405180910390f35b60007f80ac58cd000000000000000000000000000000000000000000000000000000007bffffffffffffffffffffffffffffffffffffffffffffffffffffffff1916827bffffffffffffffffffffffffffffffffffffffffffffffffffffffff1916148061049057507f5b5e139f000000000000000000000000000000000000000000000000000000007bffffffffffffffffffffffffffffffffffffffffffffffffffffffff1916827bffffffffffffffffffffffffffffffffffffffffffffffffffffffff1916145b806104a0575061049f82610ba5565b5b9050919050565b6060600280546104b690612171565b80601f01602080910402602001604051908101604052809291908181526020018280546104e290612171565b801561052f5780601f106105045761010080835404028352916020019161052f565b820191906000526020600020905b81548152906001019060200180831161051257829003601f168201915b5050505050905090565b600061054482610c0f565b61057a576040517fcf4700e400000000000000000000000000000000000000000000000000000000815260040160405180910390fd5b6006600083815260200190815260200160002060009054906101000a900473ffffffffffffffffffffffffffffffffffffffff169050919050565b60006105c082610700565b90508073ffffffffffffffffffffffffffffffffffffffff168373ffffffffffffffffffffffffffffffffffffffff1603610627576040517f943f7b8c00000000000000000000000000000000000000000000000000000000815260040160405180910390fd5b8073ffffffffffffffffffffffffffffffffffffffff16610646610c5d565b73ffffffffffffffffffffffffffffffffffffffff16146106a9576106728161066d610c5d565b610b11565b6106a8576040517fcfb3b94200000000000000000000000000000000000000000000000000000000815260040160405180910390fd5b5b6106b4838383610c65565b505050565b60006106c3610d17565b6001546000540303905090565b6106db838383610d20565b505050565b6106fb838383604051806020016040528060008152506109fb565b505050565b600061070b826111d4565b600001519050919050565b60008073ffffffffffffffffffffffffffffffffffffffff168273ffffffffffffffffffffffffffffffffffffffff160361077d576040517f8f4eb60400000000000000000000000000000000000000000000000000000000815260040160405180910390fd5b600560008373ffffffffffffffffffffffffffffffffffffffff1673ffffffffffffffffffffffffffffffffffffffff16815260200190815260200160002060000160009054906101000a900467ffffffffffffffff1667ffffffffffffffff169050919050565b6060600380546107f490612171565b80601f016020809104026020016040519081016040528092919081815260200182805461082090612171565b801561086d5780601f106108425761010080835404028352916020019161086d565b820191906000526020600020905b81548152906001019060200180831161085057829003601f168201915b5050505050905090565b610881338261145f565b50565b61088c610c5d565b73ffffffffffffffffffffffffffffffffffffffff168273ffffffffffffffffffffffffffffffffffffffff16036108f0576040517fb06307db00000000000000000000000000000000000000000000000000000000815260040160405180910390fd5b80600760006108fd610c5d565b73ffffffffffffffffffffffffffffffffffffffff1673ffffffffffffffffffffffffffffffffffffffff16815260200190815260200160002060008473ffffffffffffffffffffffffffffffffffffffff1673ffffffffffffffffffffffffffffffffffffffff16815260200190815260200160002060006101000a81548160ff0219169083151502179055508173ffffffffffffffffffffffffffffffffffffffff166109aa610c5d565b73ffffffffffffffffffffffffffffffffffffffff167f17307eab39ab6107e8899845ad3d59bd9653f200f220920489ca2b5937696c31836040516109ef9190611c33565b60405180910390a35050565b610a06848484610d20565b610a258373ffffffffffffffffffffffffffffffffffffffff1661147d565b15610a6d57610a36848484846114a0565b610a6c576040517fd1a57ed600000000000000000000000000000000000000000000000000000000815260040160405180910390fd5b5b50505050565b6060610a7e82610c0f565b610ab4576040517fa14c4b5000000000000000000000000000000000000000000000000000000000815260040160405180910390fd5b6000610abe6115f0565b90506000815103610ade5760405180602001604052806000815250610b09565b80610ae884611610565b604051602001610af99291906121de565b6040516020818303038152906040525b915050919050565b6000600760008473ffffffffffffffffffffffffffffffffffffffff1673ffffffffffffffffffffffffffffffffffffffff16815260200190815260200160002060008373ffffffffffffffffffffffffffffffffffffffff1673ffffffffffffffffffffffffffffffffffffffff16815260200190815260200160002060009054906101000a900460ff16905092915050565b60007f01ffc9a7000000000000000000000000000000000000000000000000000000007bffffffffffffffffffffffffffffffffffffffffffffffffffffffff1916827bffffffffffffffffffffffffffffffffffffffffffffffffffffffff1916149050919050565b600081610c1a610d17565b11158015610c29575060005482105b8015610c56575060046000838152602001908152602001600020600001601c9054906101000a900460ff16155b9050919050565b600033905090565b826006600084815260200190815260200160002060006101000a81548173ffffffffffffffffffffffffffffffffffffffff021916908373ffffffffffffffffffffffffffffffffffffffff160217905550818373ffffffffffffffffffffffffffffffffffffffff168273ffffffffffffffffffffffffffffffffffffffff167f8c5be1e5ebec7d5bd14f71427d1e84f3dd0314c0f7b2291e5b200ac8c7c3b92560405160405180910390a4505050565b60006001905090565b6000610d2b826111d4565b90508373ffffffffffffffffffffffffffffffffffffffff16816000015173ffffffffffffffffffffffffffffffffffffffff1614610d96576040517fa114810000000000000000000000000000000000000000000000000000000000815260040160405180910390fd5b60008473ffffffffffffffffffffffffffffffffffffffff16610db7610c5d565b73ffffffffffffffffffffffffffffffffffffffff161480610de65750610de585610de0610c5d565b610b11565b5b80610e2b5750610df4610c5d565b73ffffffffffffffffffffffffffffffffffffffff16610e1384610539565b73ffffffffffffffffffffffffffffffffffffffff16145b905080610e64576040517f59c896be00000000000000000000000000000000000000000000000000000000815260040160405180910390fd5b600073ffffffffffffffffffffffffffffffffffffffff168473ffffffffffffffffffffffffffffffffffffffff1603610eca576040517fea553b3400000000000000000000000000000000000000000000000000000000815260040160405180910390fd5b610ed78585856001611770565b610ee360008487610c65565b6001600560008773ffffffffffffffffffffffffffffffffffffffff1673ffffffffffffffffffffffffffffffffffffffff16815260200190815260200160002060000160008282829054906101000a900467ffffffffffffffff160392506101000a81548167ffffffffffffffff021916908367ffffffffffffffff1602179055506001600560008673ffffffffffffffffffffffffffffffffffffffff1673ffffffffffffffffffffffffffffffffffffffff16815260200190815260200160002060000160008282829054906101000a900467ffffffffffffffff160192506101000a81548167ffffffffffffffff021916908367ffffffffffffffff1602179055506000600460008581526020019081526020016000209050848160000160006101000a81548173ffffffffffffffffffffffffffffffffffffffff021916908373ffffffffffffffffffffffffffffffffffffffff160217905550428160000160146101000a81548167ffffffffffffffff021916908367ffffffffffffffff16021790555060006001850190506000600460008381526020019081526020016000209050600073ffffffffffffffffffffffffffffffffffffffff168160000160009054906101000a900473ffffffffffffffffffffffffffffffffffffffff1673ffffffffffffffffffffffffffffffffffffffff160361116257600054821461116157878160000160006101000a81548173ffffffffffffffffffffffffffffffffffffffff021916908373ffffffffffffffffffffffffffffffffffffffff16021790555084602001518160000160146101000a81548167ffffffffffffffff021916908367ffffffffffffffff1602179055505b5b505050828473ffffffffffffffffffffffffffffffffffffffff168673ffffffffffffffffffffffffffffffffffffffff167fddf252ad1be2c89b69c2b068fc378daa952ba7f163c4a11628f55a4df523b3ef60405160405180910390a46111cd8585856001611776565b5050505050565b6111dc611b3c565b6000829050806111ea610d17565b1161142857600054811015611427576000600460008381526020019081526020016000206040518060600160405290816000820160009054906101000a900473ffffffffffffffffffffffffffffffffffffffff1673ffffffffffffffffffffffffffffffffffffffff1673ffffffffffffffffffffffffffffffffffffffff1681526020016000820160149054906101000a900467ffffffffffffffff1667ffffffffffffffff1667ffffffffffffffff16815260200160008201601c9054906101000a900460ff1615151515815250509050806040015161142557600073ffffffffffffffffffffffffffffffffffffffff16816000015173ffffffffffffffffffffffffffffffffffffffff161461130957809250505061145a565b5b60011561142457818060019003925050600460008381526020019081526020016000206040518060600160405290816000820160009054906101000a900473ffffffffffffffffffffffffffffffffffffffff1673ffffffffffffffffffffffffffffffffffffffff1673ffffffffffffffffffffffffffffffffffffffff1681526020016000820160149054906101000a900467ffffffffffffffff1667ffffffffffffffff1667ffffffffffffffff16815260200160008201601c9054906101000a900460ff1615151515815250509050600073ffffffffffffffffffffffffffffffffffffffff16816000015173ffffffffffffffffffffffffffffffffffffffff161461141f57809250505061145a565b61130a565b5b505b5b6040517fdf2d9b4200000000000000000000000000000000000000000000000000000000815260040160405180910390fd5b919050565b61147982826040518060200160405280600081525061177c565b5050565b6000808273ffffffffffffffffffffffffffffffffffffffff163b119050919050565b60008373ffffffffffffffffffffffffffffffffffffffff1663150b7a026114c6610c5d565b8786866040518563ffffffff1660e01b81526004016114e89493929190612257565b6020604051808303816000875af192505050801561152457506040513d601f19601f8201168201806040525081019061152191906122b8565b60015b61159d573d8060008114611554576040519150601f19603f3d011682016040523d82523d6000602084013e611559565b606091505b506000815103611595576040517fd1a57ed600000000000000000000000000000000000000000000000000000000815260040160405180910390fd5b805181602001fd5b63150b7a0260e01b7bffffffffffffffffffffffffffffffffffffffffffffffffffffffff1916817bffffffffffffffffffffffffffffffffffffffffffffffffffffffff191614915050949350505050565b60606040518060800160405280605181526020016124a760519139905090565b606060008203611657576040518060400160405280600181526020017f3000000000000000000000000000000000000000000000000000000000000000815250905061176b565b600082905060005b6000821461168957808061167290612314565b915050600a82611682919061238b565b915061165f565b60008167ffffffffffffffff8111156116a5576116a4611f54565b5b6040519080825280601f01601f1916602001820160405280156116d75781602001600182028036833780820191505090505b5090505b60008514611764576001826116f091906123bc565b9150600a856116ff91906123f0565b603061170b9190612421565b60f81b81838151811061172157611720612477565b5b60200101907effffffffffffffffffffffffffffffffffffffffffffffffffffffffffffff1916908160001a905350600a8561175d919061238b565b94506116db565b8093505050505b919050565b50505050565b50505050565b600080549050600073ffffffffffffffffffffffffffffffffffffffff168473ffffffffffffffffffffffffffffffffffffffff16036117e8576040517f2e07630000000000000000000000000000000000000000000000000000000000815260040160405180910390fd5b60008303611822576040517fb562e8dd00000000000000000000000000000000000000000000000000000000815260040160405180910390fd5b61182f6000858386611770565b82600560008673ffffffffffffffffffffffffffffffffffffffff1673ffffffffffffffffffffffffffffffffffffffff16815260200190815260200160002060000160008282829054906101000a900467ffffffffffffffff160192506101000a81548167ffffffffffffffff021916908367ffffffffffffffff16021790555082600560008673ffffffffffffffffffffffffffffffffffffffff1673ffffffffffffffffffffffffffffffffffffffff16815260200190815260200160002060000160088282829054906101000a900467ffffffffffffffff160192506101000a81548167ffffffffffffffff021916908367ffffffffffffffff160217905550836004600083815260200190815260200160002060000160006101000a81548173ffffffffffffffffffffffffffffffffffffffff021916908373ffffffffffffffffffffffffffffffffffffffff160217905550426004600083815260200190815260200160002060000160146101000a81548167ffffffffffffffff021916908367ffffffffffffffff1602179055506000819050600084820190506119f08673ffffffffffffffffffffffffffffffffffffffff1661147d565b15611ab5575b818673ffffffffffffffffffffffffffffffffffffffff16600073ffffffffffffffffffffffffffffffffffffffff167fddf252ad1be2c89b69c2b068fc378daa952ba7f163c4a11628f55a4df523b3ef60405160405180910390a4611a6560008784806001019550876114a0565b611a9b576040517fd1a57ed600000000000000000000000000000000000000000000000000000000815260040160405180910390fd5b8082106119f6578260005414611ab057600080fd5b611b20565b5b818060010192508673ffffffffffffffffffffffffffffffffffffffff16600073ffffffffffffffffffffffffffffffffffffffff167fddf252ad1be2c89b69c2b068fc378daa952ba7f163c4a11628f55a4df523b3ef60405160405180910390a4808210611ab6575b816000819055505050611b366000858386611776565b50505050565b6040518060600160405280600073ffffffffffffffffffffffffffffffffffffffff168152602001600067ffffffffffffffff1681526020016000151581525090565b6000604051905090565b600080fd5b600080fd5b60007fffffffff0000000000000000000000000000000000000000000000000000000082169050919050565b611bc881611b93565b8114611bd357600080fd5b50565b600081359050611be581611bbf565b92915050565b600060208284031215611c0157611c00611b89565b5b6000611c0f84828501611bd6565b91505092915050565b60008115159050919050565b611c2d81611c18565b82525050565b6000602082019050611c486000830184611c24565b92915050565b600081519050919050565b600082825260208201905092915050565b60005b83811015611c88578082015181840152602081019050611c6d565b83811115611c97576000848401525b50505050565b6000601f19601f8301169050919050565b6000611cb982611c4e565b611cc38185611c59565b9350611cd3818560208601611c6a565b611cdc81611c9d565b840191505092915050565b60006020820190508181036000830152611d018184611cae565b905092915050565b6000819050919050565b611d1c81611d09565b8114611d2757600080fd5b50565b600081359050611d3981611d13565b92915050565b600060208284031215611d5557611d54611b89565b5b6000611d6384828501611d2a565b91505092915050565b600073ffffffffffffffffffffffffffffffffffffffff82169050919050565b6000611d9782611d6c565b9050919050565b611da781611d8c565b82525050565b6000602082019050611dc26000830184611d9e565b92915050565b611dd181611d8c565b8114611ddc57600080fd5b50565b600081359050611dee81611dc8565b92915050565b60008060408385031215611e0b57611e0a611b89565b5b6000611e1985828601611ddf565b9250506020611e2a85828601611d2a565b9150509250929050565b611e3d81611d09565b82525050565b6000602082019050611e586000830184611e34565b92915050565b600080600060608486031215611e7757611e76611b89565b5b6000611e8586828701611ddf565b9350506020611e9686828701611ddf565b9250506040611ea786828701611d2a565b9150509250925092565b600060208284031215611ec757611ec6611b89565b5b6000611ed584828501611ddf565b91505092915050565b611ee781611c18565b8114611ef257600080fd5b50565b600081359050611f0481611ede565b92915050565b60008060408385031215611f2157611f20611b89565b5b6000611f2f85828601611ddf565b9250506020611f4085828601611ef5565b9150509250929050565b600080fd5b600080fd5b7f4e487b7100000000000000000000000000000000000000000000000000000000600052604160045260246000fd5b611f8c82611c9d565b810181811067ffffffffffffffff82111715611fab57611faa611f54565b5b80604052505050565b6000611fbe611b7f565b9050611fca8282611f83565b919050565b600067ffffffffffffffff821115611fea57611fe9611f54565b5b611ff382611c9d565b9050602081019050919050565b82818337600083830152505050565b600061202261201d84611fcf565b611fb4565b90508281526020810184848401111561203e5761203d611f4f565b5b612049848285612000565b509392505050565b600082601f83011261206657612065611f4a565b5b813561207684826020860161200f565b91505092915050565b6000806000806080858703121561209957612098611b89565b5b60006120a787828801611ddf565b94505060206120b887828801611ddf565b93505060406120c987828801611d2a565b925050606085013567ffffffffffffffff8111156120ea576120e9611b8e565b5b6120f687828801612051565b91505092959194509250565b6000806040838503121561211957612118611b89565b5b600061212785828601611ddf565b925050602061213885828601611ddf565b9150509250929050565b7f4e487b7100000000000000000000000000000000000000000000000000000000600052602260045260246000fd5b6000600282049050600182168061218957607f821691505b60208210810361219c5761219b612142565b5b50919050565b600081905092915050565b60006121b882611c4e565b6121c281856121a2565b93506121d2818560208601611c6a565b80840191505092915050565b60006121ea82856121ad565b91506121f682846121ad565b91508190509392505050565b600081519050919050565b600082825260208201905092915050565b600061222982612202565b612233818561220d565b9350612243818560208601611c6a565b61224c81611c9d565b840191505092915050565b600060808201905061226c6000830187611d9e565b6122796020830186611d9e565b6122866040830185611e34565b8181036060830152612298818461221e565b905095945050505050565b6000815190506122b281611bbf565b92915050565b6000602082840312156122ce576122cd611b89565b5b60006122dc848285016122a3565b91505092915050565b7f4e487b7100000000000000000000000000000000000000000000000000000000600052601160045260246000fd5b600061231f82611d09565b91507fffffffffffffffffffffffffffffffffffffffffffffffffffffffffffffffff8203612351576123506122e5565b5b600182019050919050565b7f4e487b7100000000000000000000000000000000000000000000000000000000600052601260045260246000fd5b600061239682611d09565b91506123a183611d09565b9250826123b1576123b061235c565b5b828204905092915050565b60006123c782611d09565b91506123d283611d09565b9250828210156123e5576123e46122e5565b5b828203905092915050565b60006123fb82611d09565b915061240683611d09565b9250826124165761241561235c565b5b828206905092915050565b600061242c82611d09565b915061243783611d09565b9250827fffffffffffffffffffffffffffffffffffffffffffffffffffffffffffffffff0382111561246c5761246b6122e5565b5b828201905092915050565b7f4e487b7100000000000000000000000000000000000000000000000000000000600052603260045260246000fdfe68747470733a2f2f676174657761792e70696e6174612e636c6f75642f697066732f516d6648576b7454625354424e4c7777385a446832716335444b71695a63696b6e6f7137365a665872736f5231762fa2646970667358221220df5ea11e84886e2438721930b782b8d7dc3b0d9fe9d83e794aba5c7289eef20c64736f6c634300080d0033",
					"opcodes": "PUSH1 0x80 PUSH1 0x40 MSTORE CALLVALUE DUP1 ISZERO PUSH3 0x11 JUMPI PUSH1 0x0 DUP1 REVERT JUMPDEST POP PUSH1 0x40 MLOAD DUP1 PUSH1 0x40 ADD PUSH1 0x40 MSTORE DUP1 PUSH1 0x7 DUP2 MSTORE PUSH1 0x20 ADD PUSH32 0x44636F6666657200000000000000000000000000000000000000000000000000 DUP2 MSTORE POP PUSH1 0x40 MLOAD DUP1 PUSH1 0x40 ADD PUSH1 0x40 MSTORE DUP1 PUSH1 0x7 DUP2 MSTORE PUSH1 0x20 ADD PUSH32 0x44636F6666657200000000000000000000000000000000000000000000000000 DUP2 MSTORE POP DUP2 PUSH1 0x2 SWAP1 DUP1 MLOAD SWAP1 PUSH1 0x20 ADD SWAP1 PUSH3 0x96 SWAP3 SWAP2 SWAP1 PUSH3 0xD7 JUMP JUMPDEST POP DUP1 PUSH1 0x3 SWAP1 DUP1 MLOAD SWAP1 PUSH1 0x20 ADD SWAP1 PUSH3 0xAF SWAP3 SWAP2 SWAP1 PUSH3 0xD7 JUMP JUMPDEST POP PUSH3 0xC0 PUSH3 0xCE PUSH1 0x20 SHL PUSH1 0x20 SHR JUMP JUMPDEST PUSH1 0x0 DUP2 SWAP1 SSTORE POP POP POP PUSH3 0x1EB JUMP JUMPDEST PUSH1 0x0 PUSH1 0x1 SWAP1 POP SWAP1 JUMP JUMPDEST DUP3 DUP1 SLOAD PUSH3 0xE5 SWAP1 PUSH3 0x1B6 JUMP JUMPDEST SWAP1 PUSH1 0x0 MSTORE PUSH1 0x20 PUSH1 0x0 KECCAK256 SWAP1 PUSH1 0x1F ADD PUSH1 0x20 SWAP1 DIV DUP2 ADD SWAP3 DUP3 PUSH3 0x109 JUMPI PUSH1 0x0 DUP6 SSTORE PUSH3 0x155 JUMP JUMPDEST DUP3 PUSH1 0x1F LT PUSH3 0x124 JUMPI DUP1 MLOAD PUSH1 0xFF NOT AND DUP4 DUP1 ADD OR DUP6 SSTORE PUSH3 0x155 JUMP JUMPDEST DUP3 DUP1 ADD PUSH1 0x1 ADD DUP6 SSTORE DUP3 ISZERO PUSH3 0x155 JUMPI SWAP2 DUP3 ADD JUMPDEST DUP3 DUP2 GT ISZERO PUSH3 0x154 JUMPI DUP3 MLOAD DUP3 SSTORE SWAP2 PUSH1 0x20 ADD SWAP2 SWAP1 PUSH1 0x1 ADD SWAP1 PUSH3 0x137 JUMP JUMPDEST JUMPDEST POP SWAP1 POP PUSH3 0x164 SWAP2 SWAP1 PUSH3 0x168 JUMP JUMPDEST POP SWAP1 JUMP JUMPDEST JUMPDEST DUP1 DUP3 GT ISZERO PUSH3 0x183 JUMPI PUSH1 0x0 DUP2 PUSH1 0x0 SWAP1 SSTORE POP PUSH1 0x1 ADD PUSH3 0x169 JUMP JUMPDEST POP SWAP1 JUMP JUMPDEST PUSH32 0x4E487B7100000000000000000000000000000000000000000000000000000000 PUSH1 0x0 MSTORE PUSH1 0x22 PUSH1 0x4 MSTORE PUSH1 0x24 PUSH1 0x0 REVERT JUMPDEST PUSH1 0x0 PUSH1 0x2 DUP3 DIV SWAP1 POP PUSH1 0x1 DUP3 AND DUP1 PUSH3 0x1CF JUMPI PUSH1 0x7F DUP3 AND SWAP2 POP JUMPDEST PUSH1 0x20 DUP3 LT DUP2 SUB PUSH3 0x1E5 JUMPI PUSH3 0x1E4 PUSH3 0x187 JUMP JUMPDEST JUMPDEST POP SWAP2 SWAP1 POP JUMP JUMPDEST PUSH2 0x252D DUP1 PUSH3 0x1FB PUSH1 0x0 CODECOPY PUSH1 0x0 RETURN INVALID PUSH1 0x80 PUSH1 0x40 MSTORE PUSH1 0x4 CALLDATASIZE LT PUSH2 0xE8 JUMPI PUSH1 0x0 CALLDATALOAD PUSH1 0xE0 SHR DUP1 PUSH4 0x6352211E GT PUSH2 0x8A JUMPI DUP1 PUSH4 0xA22CB465 GT PUSH2 0x59 JUMPI DUP1 PUSH4 0xA22CB465 EQ PUSH2 0x2F9 JUMPI DUP1 PUSH4 0xB88D4FDE EQ PUSH2 0x322 JUMPI DUP1 PUSH4 0xC87B56DD EQ PUSH2 0x34B JUMPI DUP1 PUSH4 0xE985E9C5 EQ PUSH2 0x388 JUMPI PUSH2 0xE8 JUMP JUMPDEST DUP1 PUSH4 0x6352211E EQ PUSH2 0x238 JUMPI DUP1 PUSH4 0x70A08231 EQ PUSH2 0x275 JUMPI DUP1 PUSH4 0x95D89B41 EQ PUSH2 0x2B2 JUMPI DUP1 PUSH4 0xA0712D68 EQ PUSH2 0x2DD JUMPI PUSH2 0xE8 JUMP JUMPDEST DUP1 PUSH4 0x95EA7B3 GT PUSH2 0xC6 JUMPI DUP1 PUSH4 0x95EA7B3 EQ PUSH2 0x192 JUMPI DUP1 PUSH4 0x18160DDD EQ PUSH2 0x1BB JUMPI DUP1 PUSH4 0x23B872DD EQ PUSH2 0x1E6 JUMPI DUP1 PUSH4 0x42842E0E EQ PUSH2 0x20F JUMPI PUSH2 0xE8 JUMP JUMPDEST DUP1 PUSH4 0x1FFC9A7 EQ PUSH2 0xED JUMPI DUP1 PUSH4 0x6FDDE03 EQ PUSH2 0x12A JUMPI DUP1 PUSH4 0x81812FC EQ PUSH2 0x155 JUMPI JUMPDEST PUSH1 0x0 DUP1 REVERT JUMPDEST CALLVALUE DUP1 ISZERO PUSH2 0xF9 JUMPI PUSH1 0x0 DUP1 REVERT JUMPDEST POP PUSH2 0x114 PUSH1 0x4 DUP1 CALLDATASIZE SUB DUP2 ADD SWAP1 PUSH2 0x10F SWAP2 SWAP1 PUSH2 0x1BEB JUMP JUMPDEST PUSH2 0x3C5 JUMP JUMPDEST PUSH1 0x40 MLOAD PUSH2 0x121 SWAP2 SWAP1 PUSH2 0x1C33 JUMP JUMPDEST PUSH1 0x40 MLOAD DUP1 SWAP2 SUB SWAP1 RETURN JUMPDEST CALLVALUE DUP1 ISZERO PUSH2 0x136 JUMPI PUSH1 0x0 DUP1 REVERT JUMPDEST POP PUSH2 0x13F PUSH2 0x4A7 JUMP JUMPDEST PUSH1 0x40 MLOAD PUSH2 0x14C SWAP2 SWAP1 PUSH2 0x1CE7 JUMP JUMPDEST PUSH1 0x40 MLOAD DUP1 SWAP2 SUB SWAP1 RETURN JUMPDEST CALLVALUE DUP1 ISZERO PUSH2 0x161 JUMPI PUSH1 0x0 DUP1 REVERT JUMPDEST POP PUSH2 0x17C PUSH1 0x4 DUP1 CALLDATASIZE SUB DUP2 ADD SWAP1 PUSH2 0x177 SWAP2 SWAP1 PUSH2 0x1D3F JUMP JUMPDEST PUSH2 0x539 JUMP JUMPDEST PUSH1 0x40 MLOAD PUSH2 0x189 SWAP2 SWAP1 PUSH2 0x1DAD JUMP JUMPDEST PUSH1 0x40 MLOAD DUP1 SWAP2 SUB SWAP1 RETURN JUMPDEST CALLVALUE DUP1 ISZERO PUSH2 0x19E JUMPI PUSH1 0x0 DUP1 REVERT JUMPDEST POP PUSH2 0x1B9 PUSH1 0x4 DUP1 CALLDATASIZE SUB DUP2 ADD SWAP1 PUSH2 0x1B4 SWAP2 SWAP1 PUSH2 0x1DF4 JUMP JUMPDEST PUSH2 0x5B5 JUMP JUMPDEST STOP JUMPDEST CALLVALUE DUP1 ISZERO PUSH2 0x1C7 JUMPI PUSH1 0x0 DUP1 REVERT JUMPDEST POP PUSH2 0x1D0 PUSH2 0x6B9 JUMP JUMPDEST PUSH1 0x40 MLOAD PUSH2 0x1DD SWAP2 SWAP1 PUSH2 0x1E43 JUMP JUMPDEST PUSH1 0x40 MLOAD DUP1 SWAP2 SUB SWAP1 RETURN JUMPDEST CALLVALUE DUP1 ISZERO PUSH2 0x1F2 JUMPI PUSH1 0x0 DUP1 REVERT JUMPDEST POP PUSH2 0x20D PUSH1 0x4 DUP1 CALLDATASIZE SUB DUP2 ADD SWAP1 PUSH2 0x208 SWAP2 SWAP1 PUSH2 0x1E5E JUMP JUMPDEST PUSH2 0x6D0 JUMP JUMPDEST STOP JUMPDEST CALLVALUE DUP1 ISZERO PUSH2 0x21B JUMPI PUSH1 0x0 DUP1 REVERT JUMPDEST POP PUSH2 0x236 PUSH1 0x4 DUP1 CALLDATASIZE SUB DUP2 ADD SWAP1 PUSH2 0x231 SWAP2 SWAP1 PUSH2 0x1E5E JUMP JUMPDEST PUSH2 0x6E0 JUMP JUMPDEST STOP JUMPDEST CALLVALUE DUP1 ISZERO PUSH2 0x244 JUMPI PUSH1 0x0 DUP1 REVERT JUMPDEST POP PUSH2 0x25F PUSH1 0x4 DUP1 CALLDATASIZE SUB DUP2 ADD SWAP1 PUSH2 0x25A SWAP2 SWAP1 PUSH2 0x1D3F JUMP JUMPDEST PUSH2 0x700 JUMP JUMPDEST PUSH1 0x40 MLOAD PUSH2 0x26C SWAP2 SWAP1 PUSH2 0x1DAD JUMP JUMPDEST PUSH1 0x40 MLOAD DUP1 SWAP2 SUB SWAP1 RETURN JUMPDEST CALLVALUE DUP1 ISZERO PUSH2 0x281 JUMPI PUSH1 0x0 DUP1 REVERT JUMPDEST POP PUSH2 0x29C PUSH1 0x4 DUP1 CALLDATASIZE SUB DUP2 ADD SWAP1 PUSH2 0x297 SWAP2 SWAP1 PUSH2 0x1EB1 JUMP JUMPDEST PUSH2 0x716 JUMP JUMPDEST PUSH1 0x40 MLOAD PUSH2 0x2A9 SWAP2 SWAP1 PUSH2 0x1E43 JUMP JUMPDEST PUSH1 0x40 MLOAD DUP1 SWAP2 SUB SWAP1 RETURN JUMPDEST CALLVALUE DUP1 ISZERO PUSH2 0x2BE JUMPI PUSH1 0x0 DUP1 REVERT JUMPDEST POP PUSH2 0x2C7 PUSH2 0x7E5 JUMP JUMPDEST PUSH1 0x40 MLOAD PUSH2 0x2D4 SWAP2 SWAP1 PUSH2 0x1CE7 JUMP JUMPDEST PUSH1 0x40 MLOAD DUP1 SWAP2 SUB SWAP1 RETURN JUMPDEST PUSH2 0x2F7 PUSH1 0x4 DUP1 CALLDATASIZE SUB DUP2 ADD SWAP1 PUSH2 0x2F2 SWAP2 SWAP1 PUSH2 0x1D3F JUMP JUMPDEST PUSH2 0x877 JUMP JUMPDEST STOP JUMPDEST CALLVALUE DUP1 ISZERO PUSH2 0x305 JUMPI PUSH1 0x0 DUP1 REVERT JUMPDEST POP PUSH2 0x320 PUSH1 0x4 DUP1 CALLDATASIZE SUB DUP2 ADD SWAP1 PUSH2 0x31B SWAP2 SWAP1 PUSH2 0x1F0A JUMP JUMPDEST PUSH2 0x884 JUMP JUMPDEST STOP JUMPDEST CALLVALUE DUP1 ISZERO PUSH2 0x32E JUMPI PUSH1 0x0 DUP1 REVERT JUMPDEST POP PUSH2 0x349 PUSH1 0x4 DUP1 CALLDATASIZE SUB DUP2 ADD SWAP1 PUSH2 0x344 SWAP2 SWAP1 PUSH2 0x207F JUMP JUMPDEST PUSH2 0x9FB JUMP JUMPDEST STOP JUMPDEST CALLVALUE DUP1 ISZERO PUSH2 0x357 JUMPI PUSH1 0x0 DUP1 REVERT JUMPDEST POP PUSH2 0x372 PUSH1 0x4 DUP1 CALLDATASIZE SUB DUP2 ADD SWAP1 PUSH2 0x36D SWAP2 SWAP1 PUSH2 0x1D3F JUMP JUMPDEST PUSH2 0xA73 JUMP JUMPDEST PUSH1 0x40 MLOAD PUSH2 0x37F SWAP2 SWAP1 PUSH2 0x1CE7 JUMP JUMPDEST PUSH1 0x40 MLOAD DUP1 SWAP2 SUB SWAP1 RETURN JUMPDEST CALLVALUE DUP1 ISZERO PUSH2 0x394 JUMPI PUSH1 0x0 DUP1 REVERT JUMPDEST POP PUSH2 0x3AF PUSH1 0x4 DUP1 CALLDATASIZE SUB DUP2 ADD SWAP1 PUSH2 0x3AA SWAP2 SWAP1 PUSH2 0x2102 JUMP JUMPDEST PUSH2 0xB11 JUMP JUMPDEST PUSH1 0x40 MLOAD PUSH2 0x3BC SWAP2 SWAP1 PUSH2 0x1C33 JUMP JUMPDEST PUSH1 0x40 MLOAD DUP1 SWAP2 SUB SWAP1 RETURN JUMPDEST PUSH1 0x0 PUSH32 0x80AC58CD00000000000000000000000000000000000000000000000000000000 PUSH28 0xFFFFFFFFFFFFFFFFFFFFFFFFFFFFFFFFFFFFFFFFFFFFFFFFFFFFFFFF NOT AND DUP3 PUSH28 0xFFFFFFFFFFFFFFFFFFFFFFFFFFFFFFFFFFFFFFFFFFFFFFFFFFFFFFFF NOT AND EQ DUP1 PUSH2 0x490 JUMPI POP PUSH32 0x5B5E139F00000000000000000000000000000000000000000000000000000000 PUSH28 0xFFFFFFFFFFFFFFFFFFFFFFFFFFFFFFFFFFFFFFFFFFFFFFFFFFFFFFFF NOT AND DUP3 PUSH28 0xFFFFFFFFFFFFFFFFFFFFFFFFFFFFFFFFFFFFFFFFFFFFFFFFFFFFFFFF NOT AND EQ JUMPDEST DUP1 PUSH2 0x4A0 JUMPI POP PUSH2 0x49F DUP3 PUSH2 0xBA5 JUMP JUMPDEST JUMPDEST SWAP1 POP SWAP2 SWAP1 POP JUMP JUMPDEST PUSH1 0x60 PUSH1 0x2 DUP1 SLOAD PUSH2 0x4B6 SWAP1 PUSH2 0x2171 JUMP JUMPDEST DUP1 PUSH1 0x1F ADD PUSH1 0x20 DUP1 SWAP2 DIV MUL PUSH1 0x20 ADD PUSH1 0x40 MLOAD SWAP1 DUP2 ADD PUSH1 0x40 MSTORE DUP1 SWAP3 SWAP2 SWAP1 DUP2 DUP2 MSTORE PUSH1 0x20 ADD DUP3 DUP1 SLOAD PUSH2 0x4E2 SWAP1 PUSH2 0x2171 JUMP JUMPDEST DUP1 ISZERO PUSH2 0x52F JUMPI DUP1 PUSH1 0x1F LT PUSH2 0x504 JUMPI PUSH2 0x100 DUP1 DUP4 SLOAD DIV MUL DUP4 MSTORE SWAP2 PUSH1 0x20 ADD SWAP2 PUSH2 0x52F JUMP JUMPDEST DUP3 ADD SWAP2 SWAP1 PUSH1 0x0 MSTORE PUSH1 0x20 PUSH1 0x0 KECCAK256 SWAP1 JUMPDEST DUP2 SLOAD DUP2 MSTORE SWAP1 PUSH1 0x1 ADD SWAP1 PUSH1 0x20 ADD DUP1 DUP4 GT PUSH2 0x512 JUMPI DUP3 SWAP1 SUB PUSH1 0x1F AND DUP3 ADD SWAP2 JUMPDEST POP POP POP POP POP SWAP1 POP SWAP1 JUMP JUMPDEST PUSH1 0x0 PUSH2 0x544 DUP3 PUSH2 0xC0F JUMP JUMPDEST PUSH2 0x57A JUMPI PUSH1 0x40 MLOAD PUSH32 0xCF4700E400000000000000000000000000000000000000000000000000000000 DUP2 MSTORE PUSH1 0x4 ADD PUSH1 0x40 MLOAD DUP1 SWAP2 SUB SWAP1 REVERT JUMPDEST PUSH1 0x6 PUSH1 0x0 DUP4 DUP2 MSTORE PUSH1 0x20 ADD SWAP1 DUP2 MSTORE PUSH1 0x20 ADD PUSH1 0x0 KECCAK256 PUSH1 0x0 SWAP1 SLOAD SWAP1 PUSH2 0x100 EXP SWAP1 DIV PUSH20 0xFFFFFFFFFFFFFFFFFFFFFFFFFFFFFFFFFFFFFFFF AND SWAP1 POP SWAP2 SWAP1 POP JUMP JUMPDEST PUSH1 0x0 PUSH2 0x5C0 DUP3 PUSH2 0x700 JUMP JUMPDEST SWAP1 POP DUP1 PUSH20 0xFFFFFFFFFFFFFFFFFFFFFFFFFFFFFFFFFFFFFFFF AND DUP4 PUSH20 0xFFFFFFFFFFFFFFFFFFFFFFFFFFFFFFFFFFFFFFFF AND SUB PUSH2 0x627 JUMPI PUSH1 0x40 MLOAD PUSH32 0x943F7B8C00000000000000000000000000000000000000000000000000000000 DUP2 MSTORE PUSH1 0x4 ADD PUSH1 0x40 MLOAD DUP1 SWAP2 SUB SWAP1 REVERT JUMPDEST DUP1 PUSH20 0xFFFFFFFFFFFFFFFFFFFFFFFFFFFFFFFFFFFFFFFF AND PUSH2 0x646 PUSH2 0xC5D JUMP JUMPDEST PUSH20 0xFFFFFFFFFFFFFFFFFFFFFFFFFFFFFFFFFFFFFFFF AND EQ PUSH2 0x6A9 JUMPI PUSH2 0x672 DUP2 PUSH2 0x66D PUSH2 0xC5D JUMP JUMPDEST PUSH2 0xB11 JUMP JUMPDEST PUSH2 0x6A8 JUMPI PUSH1 0x40 MLOAD PUSH32 0xCFB3B94200000000000000000000000000000000000000000000000000000000 DUP2 MSTORE PUSH1 0x4 ADD PUSH1 0x40 MLOAD DUP1 SWAP2 SUB SWAP1 REVERT JUMPDEST JUMPDEST PUSH2 0x6B4 DUP4 DUP4 DUP4 PUSH2 0xC65 JUMP JUMPDEST POP POP POP JUMP JUMPDEST PUSH1 0x0 PUSH2 0x6C3 PUSH2 0xD17 JUMP JUMPDEST PUSH1 0x1 SLOAD PUSH1 0x0 SLOAD SUB SUB SWAP1 POP SWAP1 JUMP JUMPDEST PUSH2 0x6DB DUP4 DUP4 DUP4 PUSH2 0xD20 JUMP JUMPDEST POP POP POP JUMP JUMPDEST PUSH2 0x6FB DUP4 DUP4 DUP4 PUSH1 0x40 MLOAD DUP1 PUSH1 0x20 ADD PUSH1 0x40 MSTORE DUP1 PUSH1 0x0 DUP2 MSTORE POP PUSH2 0x9FB JUMP JUMPDEST POP POP POP JUMP JUMPDEST PUSH1 0x0 PUSH2 0x70B DUP3 PUSH2 0x11D4 JUMP JUMPDEST PUSH1 0x0 ADD MLOAD SWAP1 POP SWAP2 SWAP1 POP JUMP JUMPDEST PUSH1 0x0 DUP1 PUSH20 0xFFFFFFFFFFFFFFFFFFFFFFFFFFFFFFFFFFFFFFFF AND DUP3 PUSH20 0xFFFFFFFFFFFFFFFFFFFFFFFFFFFFFFFFFFFFFFFF AND SUB PUSH2 0x77D JUMPI PUSH1 0x40 MLOAD PUSH32 0x8F4EB60400000000000000000000000000000000000000000000000000000000 DUP2 MSTORE PUSH1 0x4 ADD PUSH1 0x40 MLOAD DUP1 SWAP2 SUB SWAP1 REVERT JUMPDEST PUSH1 0x5 PUSH1 0x0 DUP4 PUSH20 0xFFFFFFFFFFFFFFFFFFFFFFFFFFFFFFFFFFFFFFFF AND PUSH20 0xFFFFFFFFFFFFFFFFFFFFFFFFFFFFFFFFFFFFFFFF AND DUP2 MSTORE PUSH1 0x20 ADD SWAP1 DUP2 MSTORE PUSH1 0x20 ADD PUSH1 0x0 KECCAK256 PUSH1 0x0 ADD PUSH1 0x0 SWAP1 SLOAD SWAP1 PUSH2 0x100 EXP SWAP1 DIV PUSH8 0xFFFFFFFFFFFFFFFF AND PUSH8 0xFFFFFFFFFFFFFFFF AND SWAP1 POP SWAP2 SWAP1 POP JUMP JUMPDEST PUSH1 0x60 PUSH1 0x3 DUP1 SLOAD PUSH2 0x7F4 SWAP1 PUSH2 0x2171 JUMP JUMPDEST DUP1 PUSH1 0x1F ADD PUSH1 0x20 DUP1 SWAP2 DIV MUL PUSH1 0x20 ADD PUSH1 0x40 MLOAD SWAP1 DUP2 ADD PUSH1 0x40 MSTORE DUP1 SWAP3 SWAP2 SWAP1 DUP2 DUP2 MSTORE PUSH1 0x20 ADD DUP3 DUP1 SLOAD PUSH2 0x820 SWAP1 PUSH2 0x2171 JUMP JUMPDEST DUP1 ISZERO PUSH2 0x86D JUMPI DUP1 PUSH1 0x1F LT PUSH2 0x842 JUMPI PUSH2 0x100 DUP1 DUP4 SLOAD DIV MUL DUP4 MSTORE SWAP2 PUSH1 0x20 ADD SWAP2 PUSH2 0x86D JUMP JUMPDEST DUP3 ADD SWAP2 SWAP1 PUSH1 0x0 MSTORE PUSH1 0x20 PUSH1 0x0 KECCAK256 SWAP1 JUMPDEST DUP2 SLOAD DUP2 MSTORE SWAP1 PUSH1 0x1 ADD SWAP1 PUSH1 0x20 ADD DUP1 DUP4 GT PUSH2 0x850 JUMPI DUP3 SWAP1 SUB PUSH1 0x1F AND DUP3 ADD SWAP2 JUMPDEST POP POP POP POP POP SWAP1 POP SWAP1 JUMP JUMPDEST PUSH2 0x881 CALLER DUP3 PUSH2 0x145F JUMP JUMPDEST POP JUMP JUMPDEST PUSH2 0x88C PUSH2 0xC5D JUMP JUMPDEST PUSH20 0xFFFFFFFFFFFFFFFFFFFFFFFFFFFFFFFFFFFFFFFF AND DUP3 PUSH20 0xFFFFFFFFFFFFFFFFFFFFFFFFFFFFFFFFFFFFFFFF AND SUB PUSH2 0x8F0 JUMPI PUSH1 0x40 MLOAD PUSH32 0xB06307DB00000000000000000000000000000000000000000000000000000000 DUP2 MSTORE PUSH1 0x4 ADD PUSH1 0x40 MLOAD DUP1 SWAP2 SUB SWAP1 REVERT JUMPDEST DUP1 PUSH1 0x7 PUSH1 0x0 PUSH2 0x8FD PUSH2 0xC5D JUMP JUMPDEST PUSH20 0xFFFFFFFFFFFFFFFFFFFFFFFFFFFFFFFFFFFFFFFF AND PUSH20 0xFFFFFFFFFFFFFFFFFFFFFFFFFFFFFFFFFFFFFFFF AND DUP2 MSTORE PUSH1 0x20 ADD SWAP1 DUP2 MSTORE PUSH1 0x20 ADD PUSH1 0x0 KECCAK256 PUSH1 0x0 DUP5 PUSH20 0xFFFFFFFFFFFFFFFFFFFFFFFFFFFFFFFFFFFFFFFF AND PUSH20 0xFFFFFFFFFFFFFFFFFFFFFFFFFFFFFFFFFFFFFFFF AND DUP2 MSTORE PUSH1 0x20 ADD SWAP1 DUP2 MSTORE PUSH1 0x20 ADD PUSH1 0x0 KECCAK256 PUSH1 0x0 PUSH2 0x100 EXP DUP2 SLOAD DUP2 PUSH1 0xFF MUL NOT AND SWAP1 DUP4 ISZERO ISZERO MUL OR SWAP1 SSTORE POP DUP2 PUSH20 0xFFFFFFFFFFFFFFFFFFFFFFFFFFFFFFFFFFFFFFFF AND PUSH2 0x9AA PUSH2 0xC5D JUMP JUMPDEST PUSH20 0xFFFFFFFFFFFFFFFFFFFFFFFFFFFFFFFFFFFFFFFF AND PUSH32 0x17307EAB39AB6107E8899845AD3D59BD9653F200F220920489CA2B5937696C31 DUP4 PUSH1 0x40 MLOAD PUSH2 0x9EF SWAP2 SWAP1 PUSH2 0x1C33 JUMP JUMPDEST PUSH1 0x40 MLOAD DUP1 SWAP2 SUB SWAP1 LOG3 POP POP JUMP JUMPDEST PUSH2 0xA06 DUP5 DUP5 DUP5 PUSH2 0xD20 JUMP JUMPDEST PUSH2 0xA25 DUP4 PUSH20 0xFFFFFFFFFFFFFFFFFFFFFFFFFFFFFFFFFFFFFFFF AND PUSH2 0x147D JUMP JUMPDEST ISZERO PUSH2 0xA6D JUMPI PUSH2 0xA36 DUP5 DUP5 DUP5 DUP5 PUSH2 0x14A0 JUMP JUMPDEST PUSH2 0xA6C JUMPI PUSH1 0x40 MLOAD PUSH32 0xD1A57ED600000000000000000000000000000000000000000000000000000000 DUP2 MSTORE PUSH1 0x4 ADD PUSH1 0x40 MLOAD DUP1 SWAP2 SUB SWAP1 REVERT JUMPDEST JUMPDEST POP POP POP POP JUMP JUMPDEST PUSH1 0x60 PUSH2 0xA7E DUP3 PUSH2 0xC0F JUMP JUMPDEST PUSH2 0xAB4 JUMPI PUSH1 0x40 MLOAD PUSH32 0xA14C4B5000000000000000000000000000000000000000000000000000000000 DUP2 MSTORE PUSH1 0x4 ADD PUSH1 0x40 MLOAD DUP1 SWAP2 SUB SWAP1 REVERT JUMPDEST PUSH1 0x0 PUSH2 0xABE PUSH2 0x15F0 JUMP JUMPDEST SWAP1 POP PUSH1 0x0 DUP2 MLOAD SUB PUSH2 0xADE JUMPI PUSH1 0x40 MLOAD DUP1 PUSH1 0x20 ADD PUSH1 0x40 MSTORE DUP1 PUSH1 0x0 DUP2 MSTORE POP PUSH2 0xB09 JUMP JUMPDEST DUP1 PUSH2 0xAE8 DUP5 PUSH2 0x1610 JUMP JUMPDEST PUSH1 0x40 MLOAD PUSH1 0x20 ADD PUSH2 0xAF9 SWAP3 SWAP2 SWAP1 PUSH2 0x21DE JUMP JUMPDEST PUSH1 0x40 MLOAD PUSH1 0x20 DUP2 DUP4 SUB SUB DUP2 MSTORE SWAP1 PUSH1 0x40 MSTORE JUMPDEST SWAP2 POP POP SWAP2 SWAP1 POP JUMP JUMPDEST PUSH1 0x0 PUSH1 0x7 PUSH1 0x0 DUP5 PUSH20 0xFFFFFFFFFFFFFFFFFFFFFFFFFFFFFFFFFFFFFFFF AND PUSH20 0xFFFFFFFFFFFFFFFFFFFFFFFFFFFFFFFFFFFFFFFF AND DUP2 MSTORE PUSH1 0x20 ADD SWAP1 DUP2 MSTORE PUSH1 0x20 ADD PUSH1 0x0 KECCAK256 PUSH1 0x0 DUP4 PUSH20 0xFFFFFFFFFFFFFFFFFFFFFFFFFFFFFFFFFFFFFFFF AND PUSH20 0xFFFFFFFFFFFFFFFFFFFFFFFFFFFFFFFFFFFFFFFF AND DUP2 MSTORE PUSH1 0x20 ADD SWAP1 DUP2 MSTORE PUSH1 0x20 ADD PUSH1 0x0 KECCAK256 PUSH1 0x0 SWAP1 SLOAD SWAP1 PUSH2 0x100 EXP SWAP1 DIV PUSH1 0xFF AND SWAP1 POP SWAP3 SWAP2 POP POP JUMP JUMPDEST PUSH1 0x0 PUSH32 0x1FFC9A700000000000000000000000000000000000000000000000000000000 PUSH28 0xFFFFFFFFFFFFFFFFFFFFFFFFFFFFFFFFFFFFFFFFFFFFFFFFFFFFFFFF NOT AND DUP3 PUSH28 0xFFFFFFFFFFFFFFFFFFFFFFFFFFFFFFFFFFFFFFFFFFFFFFFFFFFFFFFF NOT AND EQ SWAP1 POP SWAP2 SWAP1 POP JUMP JUMPDEST PUSH1 0x0 DUP2 PUSH2 0xC1A PUSH2 0xD17 JUMP JUMPDEST GT ISZERO DUP1 ISZERO PUSH2 0xC29 JUMPI POP PUSH1 0x0 SLOAD DUP3 LT JUMPDEST DUP1 ISZERO PUSH2 0xC56 JUMPI POP PUSH1 0x4 PUSH1 0x0 DUP4 DUP2 MSTORE PUSH1 0x20 ADD SWAP1 DUP2 MSTORE PUSH1 0x20 ADD PUSH1 0x0 KECCAK256 PUSH1 0x0 ADD PUSH1 0x1C SWAP1 SLOAD SWAP1 PUSH2 0x100 EXP SWAP1 DIV PUSH1 0xFF AND ISZERO JUMPDEST SWAP1 POP SWAP2 SWAP1 POP JUMP JUMPDEST PUSH1 0x0 CALLER SWAP1 POP SWAP1 JUMP JUMPDEST DUP3 PUSH1 0x6 PUSH1 0x0 DUP5 DUP2 MSTORE PUSH1 0x20 ADD SWAP1 DUP2 MSTORE PUSH1 0x20 ADD PUSH1 0x0 KECCAK256 PUSH1 0x0 PUSH2 0x100 EXP DUP2 SLOAD DUP2 PUSH20 0xFFFFFFFFFFFFFFFFFFFFFFFFFFFFFFFFFFFFFFFF MUL NOT AND SWAP1 DUP4 PUSH20 0xFFFFFFFFFFFFFFFFFFFFFFFFFFFFFFFFFFFFFFFF AND MUL OR SWAP1 SSTORE POP DUP2 DUP4 PUSH20 0xFFFFFFFFFFFFFFFFFFFFFFFFFFFFFFFFFFFFFFFF AND DUP3 PUSH20 0xFFFFFFFFFFFFFFFFFFFFFFFFFFFFFFFFFFFFFFFF AND PUSH32 0x8C5BE1E5EBEC7D5BD14F71427D1E84F3DD0314C0F7B2291E5B200AC8C7C3B925 PUSH1 0x40 MLOAD PUSH1 0x40 MLOAD DUP1 SWAP2 SUB SWAP1 LOG4 POP POP POP JUMP JUMPDEST PUSH1 0x0 PUSH1 0x1 SWAP1 POP SWAP1 JUMP JUMPDEST PUSH1 0x0 PUSH2 0xD2B DUP3 PUSH2 0x11D4 JUMP JUMPDEST SWAP1 POP DUP4 PUSH20 0xFFFFFFFFFFFFFFFFFFFFFFFFFFFFFFFFFFFFFFFF AND DUP2 PUSH1 0x0 ADD MLOAD PUSH20 0xFFFFFFFFFFFFFFFFFFFFFFFFFFFFFFFFFFFFFFFF AND EQ PUSH2 0xD96 JUMPI PUSH1 0x40 MLOAD PUSH32 0xA114810000000000000000000000000000000000000000000000000000000000 DUP2 MSTORE PUSH1 0x4 ADD PUSH1 0x40 MLOAD DUP1 SWAP2 SUB SWAP1 REVERT JUMPDEST PUSH1 0x0 DUP5 PUSH20 0xFFFFFFFFFFFFFFFFFFFFFFFFFFFFFFFFFFFFFFFF AND PUSH2 0xDB7 PUSH2 0xC5D JUMP JUMPDEST PUSH20 0xFFFFFFFFFFFFFFFFFFFFFFFFFFFFFFFFFFFFFFFF AND EQ DUP1 PUSH2 0xDE6 JUMPI POP PUSH2 0xDE5 DUP6 PUSH2 0xDE0 PUSH2 0xC5D JUMP JUMPDEST PUSH2 0xB11 JUMP JUMPDEST JUMPDEST DUP1 PUSH2 0xE2B JUMPI POP PUSH2 0xDF4 PUSH2 0xC5D JUMP JUMPDEST PUSH20 0xFFFFFFFFFFFFFFFFFFFFFFFFFFFFFFFFFFFFFFFF AND PUSH2 0xE13 DUP5 PUSH2 0x539 JUMP JUMPDEST PUSH20 0xFFFFFFFFFFFFFFFFFFFFFFFFFFFFFFFFFFFFFFFF AND EQ JUMPDEST SWAP1 POP DUP1 PUSH2 0xE64 JUMPI PUSH1 0x40 MLOAD PUSH32 0x59C896BE00000000000000000000000000000000000000000000000000000000 DUP2 MSTORE PUSH1 0x4 ADD PUSH1 0x40 MLOAD DUP1 SWAP2 SUB SWAP1 REVERT JUMPDEST PUSH1 0x0 PUSH20 0xFFFFFFFFFFFFFFFFFFFFFFFFFFFFFFFFFFFFFFFF AND DUP5 PUSH20 0xFFFFFFFFFFFFFFFFFFFFFFFFFFFFFFFFFFFFFFFF AND SUB PUSH2 0xECA JUMPI PUSH1 0x40 MLOAD PUSH32 0xEA553B3400000000000000000000000000000000000000000000000000000000 DUP2 MSTORE PUSH1 0x4 ADD PUSH1 0x40 MLOAD DUP1 SWAP2 SUB SWAP1 REVERT JUMPDEST PUSH2 0xED7 DUP6 DUP6 DUP6 PUSH1 0x1 PUSH2 0x1770 JUMP JUMPDEST PUSH2 0xEE3 PUSH1 0x0 DUP5 DUP8 PUSH2 0xC65 JUMP JUMPDEST PUSH1 0x1 PUSH1 0x5 PUSH1 0x0 DUP8 PUSH20 0xFFFFFFFFFFFFFFFFFFFFFFFFFFFFFFFFFFFFFFFF AND PUSH20 0xFFFFFFFFFFFFFFFFFFFFFFFFFFFFFFFFFFFFFFFF AND DUP2 MSTORE PUSH1 0x20 ADD SWAP1 DUP2 MSTORE PUSH1 0x20 ADD PUSH1 0x0 KECCAK256 PUSH1 0x0 ADD PUSH1 0x0 DUP3 DUP3 DUP3 SWAP1 SLOAD SWAP1 PUSH2 0x100 EXP SWAP1 DIV PUSH8 0xFFFFFFFFFFFFFFFF AND SUB SWAP3 POP PUSH2 0x100 EXP DUP2 SLOAD DUP2 PUSH8 0xFFFFFFFFFFFFFFFF MUL NOT AND SWAP1 DUP4 PUSH8 0xFFFFFFFFFFFFFFFF AND MUL OR SWAP1 SSTORE POP PUSH1 0x1 PUSH1 0x5 PUSH1 0x0 DUP7 PUSH20 0xFFFFFFFFFFFFFFFFFFFFFFFFFFFFFFFFFFFFFFFF AND PUSH20 0xFFFFFFFFFFFFFFFFFFFFFFFFFFFFFFFFFFFFFFFF AND DUP2 MSTORE PUSH1 0x20 ADD SWAP1 DUP2 MSTORE PUSH1 0x20 ADD PUSH1 0x0 KECCAK256 PUSH1 0x0 ADD PUSH1 0x0 DUP3 DUP3 DUP3 SWAP1 SLOAD SWAP1 PUSH2 0x100 EXP SWAP1 DIV PUSH8 0xFFFFFFFFFFFFFFFF AND ADD SWAP3 POP PUSH2 0x100 EXP DUP2 SLOAD DUP2 PUSH8 0xFFFFFFFFFFFFFFFF MUL NOT AND SWAP1 DUP4 PUSH8 0xFFFFFFFFFFFFFFFF AND MUL OR SWAP1 SSTORE POP PUSH1 0x0 PUSH1 0x4 PUSH1 0x0 DUP6 DUP2 MSTORE PUSH1 0x20 ADD SWAP1 DUP2 MSTORE PUSH1 0x20 ADD PUSH1 0x0 KECCAK256 SWAP1 POP DUP5 DUP2 PUSH1 0x0 ADD PUSH1 0x0 PUSH2 0x100 EXP DUP2 SLOAD DUP2 PUSH20 0xFFFFFFFFFFFFFFFFFFFFFFFFFFFFFFFFFFFFFFFF MUL NOT AND SWAP1 DUP4 PUSH20 0xFFFFFFFFFFFFFFFFFFFFFFFFFFFFFFFFFFFFFFFF AND MUL OR SWAP1 SSTORE POP TIMESTAMP DUP2 PUSH1 0x0 ADD PUSH1 0x14 PUSH2 0x100 EXP DUP2 SLOAD DUP2 PUSH8 0xFFFFFFFFFFFFFFFF MUL NOT AND SWAP1 DUP4 PUSH8 0xFFFFFFFFFFFFFFFF AND MUL OR SWAP1 SSTORE POP PUSH1 0x0 PUSH1 0x1 DUP6 ADD SWAP1 POP PUSH1 0x0 PUSH1 0x4 PUSH1 0x0 DUP4 DUP2 MSTORE PUSH1 0x20 ADD SWAP1 DUP2 MSTORE PUSH1 0x20 ADD PUSH1 0x0 KECCAK256 SWAP1 POP PUSH1 0x0 PUSH20 0xFFFFFFFFFFFFFFFFFFFFFFFFFFFFFFFFFFFFFFFF AND DUP2 PUSH1 0x0 ADD PUSH1 0x0 SWAP1 SLOAD SWAP1 PUSH2 0x100 EXP SWAP1 DIV PUSH20 0xFFFFFFFFFFFFFFFFFFFFFFFFFFFFFFFFFFFFFFFF AND PUSH20 0xFFFFFFFFFFFFFFFFFFFFFFFFFFFFFFFFFFFFFFFF AND SUB PUSH2 0x1162 JUMPI PUSH1 0x0 SLOAD DUP3 EQ PUSH2 0x1161 JUMPI DUP8 DUP2 PUSH1 0x0 ADD PUSH1 0x0 PUSH2 0x100 EXP DUP2 SLOAD DUP2 PUSH20 0xFFFFFFFFFFFFFFFFFFFFFFFFFFFFFFFFFFFFFFFF MUL NOT AND SWAP1 DUP4 PUSH20 0xFFFFFFFFFFFFFFFFFFFFFFFFFFFFFFFFFFFFFFFF AND MUL OR SWAP1 SSTORE POP DUP5 PUSH1 0x20 ADD MLOAD DUP2 PUSH1 0x0 ADD PUSH1 0x14 PUSH2 0x100 EXP DUP2 SLOAD DUP2 PUSH8 0xFFFFFFFFFFFFFFFF MUL NOT AND SWAP1 DUP4 PUSH8 0xFFFFFFFFFFFFFFFF AND MUL OR SWAP1 SSTORE POP JUMPDEST JUMPDEST POP POP POP DUP3 DUP5 PUSH20 0xFFFFFFFFFFFFFFFFFFFFFFFFFFFFFFFFFFFFFFFF AND DUP7 PUSH20 0xFFFFFFFFFFFFFFFFFFFFFFFFFFFFFFFFFFFFFFFF AND PUSH32 0xDDF252AD1BE2C89B69C2B068FC378DAA952BA7F163C4A11628F55A4DF523B3EF PUSH1 0x40 MLOAD PUSH1 0x40 MLOAD DUP1 SWAP2 SUB SWAP1 LOG4 PUSH2 0x11CD DUP6 DUP6 DUP6 PUSH1 0x1 PUSH2 0x1776 JUMP JUMPDEST POP POP POP POP POP JUMP JUMPDEST PUSH2 0x11DC PUSH2 0x1B3C JUMP JUMPDEST PUSH1 0x0 DUP3 SWAP1 POP DUP1 PUSH2 0x11EA PUSH2 0xD17 JUMP JUMPDEST GT PUSH2 0x1428 JUMPI PUSH1 0x0 SLOAD DUP2 LT ISZERO PUSH2 0x1427 JUMPI PUSH1 0x0 PUSH1 0x4 PUSH1 0x0 DUP4 DUP2 MSTORE PUSH1 0x20 ADD SWAP1 DUP2 MSTORE PUSH1 0x20 ADD PUSH1 0x0 KECCAK256 PUSH1 0x40 MLOAD DUP1 PUSH1 0x60 ADD PUSH1 0x40 MSTORE SWAP1 DUP2 PUSH1 0x0 DUP3 ADD PUSH1 0x0 SWAP1 SLOAD SWAP1 PUSH2 0x100 EXP SWAP1 DIV PUSH20 0xFFFFFFFFFFFFFFFFFFFFFFFFFFFFFFFFFFFFFFFF AND PUSH20 0xFFFFFFFFFFFFFFFFFFFFFFFFFFFFFFFFFFFFFFFF AND PUSH20 0xFFFFFFFFFFFFFFFFFFFFFFFFFFFFFFFFFFFFFFFF AND DUP2 MSTORE PUSH1 0x20 ADD PUSH1 0x0 DUP3 ADD PUSH1 0x14 SWAP1 SLOAD SWAP1 PUSH2 0x100 EXP SWAP1 DIV PUSH8 0xFFFFFFFFFFFFFFFF AND PUSH8 0xFFFFFFFFFFFFFFFF AND PUSH8 0xFFFFFFFFFFFFFFFF AND DUP2 MSTORE PUSH1 0x20 ADD PUSH1 0x0 DUP3 ADD PUSH1 0x1C SWAP1 SLOAD SWAP1 PUSH2 0x100 EXP SWAP1 DIV PUSH1 0xFF AND ISZERO ISZERO ISZERO ISZERO DUP2 MSTORE POP POP SWAP1 POP DUP1 PUSH1 0x40 ADD MLOAD PUSH2 0x1425 JUMPI PUSH1 0x0 PUSH20 0xFFFFFFFFFFFFFFFFFFFFFFFFFFFFFFFFFFFFFFFF AND DUP2 PUSH1 0x0 ADD MLOAD PUSH20 0xFFFFFFFFFFFFFFFFFFFFFFFFFFFFFFFFFFFFFFFF AND EQ PUSH2 0x1309 JUMPI DUP1 SWAP3 POP POP POP PUSH2 0x145A JUMP JUMPDEST JUMPDEST PUSH1 0x1 ISZERO PUSH2 0x1424 JUMPI DUP2 DUP1 PUSH1 0x1 SWAP1 SUB SWAP3 POP POP PUSH1 0x4 PUSH1 0x0 DUP4 DUP2 MSTORE PUSH1 0x20 ADD SWAP1 DUP2 MSTORE PUSH1 0x20 ADD PUSH1 0x0 KECCAK256 PUSH1 0x40 MLOAD DUP1 PUSH1 0x60 ADD PUSH1 0x40 MSTORE SWAP1 DUP2 PUSH1 0x0 DUP3 ADD PUSH1 0x0 SWAP1 SLOAD SWAP1 PUSH2 0x100 EXP SWAP1 DIV PUSH20 0xFFFFFFFFFFFFFFFFFFFFFFFFFFFFFFFFFFFFFFFF AND PUSH20 0xFFFFFFFFFFFFFFFFFFFFFFFFFFFFFFFFFFFFFFFF AND PUSH20 0xFFFFFFFFFFFFFFFFFFFFFFFFFFFFFFFFFFFFFFFF AND DUP2 MSTORE PUSH1 0x20 ADD PUSH1 0x0 DUP3 ADD PUSH1 0x14 SWAP1 SLOAD SWAP1 PUSH2 0x100 EXP SWAP1 DIV PUSH8 0xFFFFFFFFFFFFFFFF AND PUSH8 0xFFFFFFFFFFFFFFFF AND PUSH8 0xFFFFFFFFFFFFFFFF AND DUP2 MSTORE PUSH1 0x20 ADD PUSH1 0x0 DUP3 ADD PUSH1 0x1C SWAP1 SLOAD SWAP1 PUSH2 0x100 EXP SWAP1 DIV PUSH1 0xFF AND ISZERO ISZERO ISZERO ISZERO DUP2 MSTORE POP POP SWAP1 POP PUSH1 0x0 PUSH20 0xFFFFFFFFFFFFFFFFFFFFFFFFFFFFFFFFFFFFFFFF AND DUP2 PUSH1 0x0 ADD MLOAD PUSH20 0xFFFFFFFFFFFFFFFFFFFFFFFFFFFFFFFFFFFFFFFF AND EQ PUSH2 0x141F JUMPI DUP1 SWAP3 POP POP POP PUSH2 0x145A JUMP JUMPDEST PUSH2 0x130A JUMP JUMPDEST JUMPDEST POP JUMPDEST JUMPDEST PUSH1 0x40 MLOAD PUSH32 0xDF2D9B4200000000000000000000000000000000000000000000000000000000 DUP2 MSTORE PUSH1 0x4 ADD PUSH1 0x40 MLOAD DUP1 SWAP2 SUB SWAP1 REVERT JUMPDEST SWAP2 SWAP1 POP JUMP JUMPDEST PUSH2 0x1479 DUP3 DUP3 PUSH1 0x40 MLOAD DUP1 PUSH1 0x20 ADD PUSH1 0x40 MSTORE DUP1 PUSH1 0x0 DUP2 MSTORE POP PUSH2 0x177C JUMP JUMPDEST POP POP JUMP JUMPDEST PUSH1 0x0 DUP1 DUP3 PUSH20 0xFFFFFFFFFFFFFFFFFFFFFFFFFFFFFFFFFFFFFFFF AND EXTCODESIZE GT SWAP1 POP SWAP2 SWAP1 POP JUMP JUMPDEST PUSH1 0x0 DUP4 PUSH20 0xFFFFFFFFFFFFFFFFFFFFFFFFFFFFFFFFFFFFFFFF AND PUSH4 0x150B7A02 PUSH2 0x14C6 PUSH2 0xC5D JUMP JUMPDEST DUP8 DUP7 DUP7 PUSH1 0x40 MLOAD DUP6 PUSH4 0xFFFFFFFF AND PUSH1 0xE0 SHL DUP2 MSTORE PUSH1 0x4 ADD PUSH2 0x14E8 SWAP5 SWAP4 SWAP3 SWAP2 SWAP1 PUSH2 0x2257 JUMP JUMPDEST PUSH1 0x20 PUSH1 0x40 MLOAD DUP1 DUP4 SUB DUP2 PUSH1 0x0 DUP8 GAS CALL SWAP3 POP POP POP DUP1 ISZERO PUSH2 0x1524 JUMPI POP PUSH1 0x40 MLOAD RETURNDATASIZE PUSH1 0x1F NOT PUSH1 0x1F DUP3 ADD AND DUP3 ADD DUP1 PUSH1 0x40 MSTORE POP DUP2 ADD SWAP1 PUSH2 0x1521 SWAP2 SWAP1 PUSH2 0x22B8 JUMP JUMPDEST PUSH1 0x1 JUMPDEST PUSH2 0x159D JUMPI RETURNDATASIZE DUP1 PUSH1 0x0 DUP2 EQ PUSH2 0x1554 JUMPI PUSH1 0x40 MLOAD SWAP2 POP PUSH1 0x1F NOT PUSH1 0x3F RETURNDATASIZE ADD AND DUP3 ADD PUSH1 0x40 MSTORE RETURNDATASIZE DUP3 MSTORE RETURNDATASIZE PUSH1 0x0 PUSH1 0x20 DUP5 ADD RETURNDATACOPY PUSH2 0x1559 JUMP JUMPDEST PUSH1 0x60 SWAP2 POP JUMPDEST POP PUSH1 0x0 DUP2 MLOAD SUB PUSH2 0x1595 JUMPI PUSH1 0x40 MLOAD PUSH32 0xD1A57ED600000000000000000000000000000000000000000000000000000000 DUP2 MSTORE PUSH1 0x4 ADD PUSH1 0x40 MLOAD DUP1 SWAP2 SUB SWAP1 REVERT JUMPDEST DUP1 MLOAD DUP2 PUSH1 0x20 ADD REVERT JUMPDEST PUSH4 0x150B7A02 PUSH1 0xE0 SHL PUSH28 0xFFFFFFFFFFFFFFFFFFFFFFFFFFFFFFFFFFFFFFFFFFFFFFFFFFFFFFFF NOT AND DUP2 PUSH28 0xFFFFFFFFFFFFFFFFFFFFFFFFFFFFFFFFFFFFFFFFFFFFFFFFFFFFFFFF NOT AND EQ SWAP2 POP POP SWAP5 SWAP4 POP POP POP POP JUMP JUMPDEST PUSH1 0x60 PUSH1 0x40 MLOAD DUP1 PUSH1 0x80 ADD PUSH1 0x40 MSTORE DUP1 PUSH1 0x51 DUP2 MSTORE PUSH1 0x20 ADD PUSH2 0x24A7 PUSH1 0x51 SWAP2 CODECOPY SWAP1 POP SWAP1 JUMP JUMPDEST PUSH1 0x60 PUSH1 0x0 DUP3 SUB PUSH2 0x1657 JUMPI PUSH1 0x40 MLOAD DUP1 PUSH1 0x40 ADD PUSH1 0x40 MSTORE DUP1 PUSH1 0x1 DUP2 MSTORE PUSH1 0x20 ADD PUSH32 0x3000000000000000000000000000000000000000000000000000000000000000 DUP2 MSTORE POP SWAP1 POP PUSH2 0x176B JUMP JUMPDEST PUSH1 0x0 DUP3 SWAP1 POP PUSH1 0x0 JUMPDEST PUSH1 0x0 DUP3 EQ PUSH2 0x1689 JUMPI DUP1 DUP1 PUSH2 0x1672 SWAP1 PUSH2 0x2314 JUMP JUMPDEST SWAP2 POP POP PUSH1 0xA DUP3 PUSH2 0x1682 SWAP2 SWAP1 PUSH2 0x238B JUMP JUMPDEST SWAP2 POP PUSH2 0x165F JUMP JUMPDEST PUSH1 0x0 DUP2 PUSH8 0xFFFFFFFFFFFFFFFF DUP2 GT ISZERO PUSH2 0x16A5 JUMPI PUSH2 0x16A4 PUSH2 0x1F54 JUMP JUMPDEST JUMPDEST PUSH1 0x40 MLOAD SWAP1 DUP1 DUP3 MSTORE DUP1 PUSH1 0x1F ADD PUSH1 0x1F NOT AND PUSH1 0x20 ADD DUP3 ADD PUSH1 0x40 MSTORE DUP1 ISZERO PUSH2 0x16D7 JUMPI DUP2 PUSH1 0x20 ADD PUSH1 0x1 DUP3 MUL DUP1 CALLDATASIZE DUP4 CALLDATACOPY DUP1 DUP3 ADD SWAP2 POP POP SWAP1 POP JUMPDEST POP SWAP1 POP JUMPDEST PUSH1 0x0 DUP6 EQ PUSH2 0x1764 JUMPI PUSH1 0x1 DUP3 PUSH2 0x16F0 SWAP2 SWAP1 PUSH2 0x23BC JUMP JUMPDEST SWAP2 POP PUSH1 0xA DUP6 PUSH2 0x16FF SWAP2 SWAP1 PUSH2 0x23F0 JUMP JUMPDEST PUSH1 0x30 PUSH2 0x170B SWAP2 SWAP1 PUSH2 0x2421 JUMP JUMPDEST PUSH1 0xF8 SHL DUP2 DUP4 DUP2 MLOAD DUP2 LT PUSH2 0x1721 JUMPI PUSH2 0x1720 PUSH2 0x2477 JUMP JUMPDEST JUMPDEST PUSH1 0x20 ADD ADD SWAP1 PUSH31 0xFFFFFFFFFFFFFFFFFFFFFFFFFFFFFFFFFFFFFFFFFFFFFFFFFFFFFFFFFFFFFF NOT AND SWAP1 DUP2 PUSH1 0x0 BYTE SWAP1 MSTORE8 POP PUSH1 0xA DUP6 PUSH2 0x175D SWAP2 SWAP1 PUSH2 0x238B JUMP JUMPDEST SWAP5 POP PUSH2 0x16DB JUMP JUMPDEST DUP1 SWAP4 POP POP POP POP JUMPDEST SWAP2 SWAP1 POP JUMP JUMPDEST POP POP POP POP JUMP JUMPDEST POP POP POP POP JUMP JUMPDEST PUSH1 0x0 DUP1 SLOAD SWAP1 POP PUSH1 0x0 PUSH20 0xFFFFFFFFFFFFFFFFFFFFFFFFFFFFFFFFFFFFFFFF AND DUP5 PUSH20 0xFFFFFFFFFFFFFFFFFFFFFFFFFFFFFFFFFFFFFFFF AND SUB PUSH2 0x17E8 JUMPI PUSH1 0x40 MLOAD PUSH32 0x2E07630000000000000000000000000000000000000000000000000000000000 DUP2 MSTORE PUSH1 0x4 ADD PUSH1 0x40 MLOAD DUP1 SWAP2 SUB SWAP1 REVERT JUMPDEST PUSH1 0x0 DUP4 SUB PUSH2 0x1822 JUMPI PUSH1 0x40 MLOAD PUSH32 0xB562E8DD00000000000000000000000000000000000000000000000000000000 DUP2 MSTORE PUSH1 0x4 ADD PUSH1 0x40 MLOAD DUP1 SWAP2 SUB SWAP1 REVERT JUMPDEST PUSH2 0x182F PUSH1 0x0 DUP6 DUP4 DUP7 PUSH2 0x1770 JUMP JUMPDEST DUP3 PUSH1 0x5 PUSH1 0x0 DUP7 PUSH20 0xFFFFFFFFFFFFFFFFFFFFFFFFFFFFFFFFFFFFFFFF AND PUSH20 0xFFFFFFFFFFFFFFFFFFFFFFFFFFFFFFFFFFFFFFFF AND DUP2 MSTORE PUSH1 0x20 ADD SWAP1 DUP2 MSTORE PUSH1 0x20 ADD PUSH1 0x0 KECCAK256 PUSH1 0x0 ADD PUSH1 0x0 DUP3 DUP3 DUP3 SWAP1 SLOAD SWAP1 PUSH2 0x100 EXP SWAP1 DIV PUSH8 0xFFFFFFFFFFFFFFFF AND ADD SWAP3 POP PUSH2 0x100 EXP DUP2 SLOAD DUP2 PUSH8 0xFFFFFFFFFFFFFFFF MUL NOT AND SWAP1 DUP4 PUSH8 0xFFFFFFFFFFFFFFFF AND MUL OR SWAP1 SSTORE POP DUP3 PUSH1 0x5 PUSH1 0x0 DUP7 PUSH20 0xFFFFFFFFFFFFFFFFFFFFFFFFFFFFFFFFFFFFFFFF AND PUSH20 0xFFFFFFFFFFFFFFFFFFFFFFFFFFFFFFFFFFFFFFFF AND DUP2 MSTORE PUSH1 0x20 ADD SWAP1 DUP2 MSTORE PUSH1 0x20 ADD PUSH1 0x0 KECCAK256 PUSH1 0x0 ADD PUSH1 0x8 DUP3 DUP3 DUP3 SWAP1 SLOAD SWAP1 PUSH2 0x100 EXP SWAP1 DIV PUSH8 0xFFFFFFFFFFFFFFFF AND ADD SWAP3 POP PUSH2 0x100 EXP DUP2 SLOAD DUP2 PUSH8 0xFFFFFFFFFFFFFFFF MUL NOT AND SWAP1 DUP4 PUSH8 0xFFFFFFFFFFFFFFFF AND MUL OR SWAP1 SSTORE POP DUP4 PUSH1 0x4 PUSH1 0x0 DUP4 DUP2 MSTORE PUSH1 0x20 ADD SWAP1 DUP2 MSTORE PUSH1 0x20 ADD PUSH1 0x0 KECCAK256 PUSH1 0x0 ADD PUSH1 0x0 PUSH2 0x100 EXP DUP2 SLOAD DUP2 PUSH20 0xFFFFFFFFFFFFFFFFFFFFFFFFFFFFFFFFFFFFFFFF MUL NOT AND SWAP1 DUP4 PUSH20 0xFFFFFFFFFFFFFFFFFFFFFFFFFFFFFFFFFFFFFFFF AND MUL OR SWAP1 SSTORE POP TIMESTAMP PUSH1 0x4 PUSH1 0x0 DUP4 DUP2 MSTORE PUSH1 0x20 ADD SWAP1 DUP2 MSTORE PUSH1 0x20 ADD PUSH1 0x0 KECCAK256 PUSH1 0x0 ADD PUSH1 0x14 PUSH2 0x100 EXP DUP2 SLOAD DUP2 PUSH8 0xFFFFFFFFFFFFFFFF MUL NOT AND SWAP1 DUP4 PUSH8 0xFFFFFFFFFFFFFFFF AND MUL OR SWAP1 SSTORE POP PUSH1 0x0 DUP2 SWAP1 POP PUSH1 0x0 DUP5 DUP3 ADD SWAP1 POP PUSH2 0x19F0 DUP7 PUSH20 0xFFFFFFFFFFFFFFFFFFFFFFFFFFFFFFFFFFFFFFFF AND PUSH2 0x147D JUMP JUMPDEST ISZERO PUSH2 0x1AB5 JUMPI JUMPDEST DUP2 DUP7 PUSH20 0xFFFFFFFFFFFFFFFFFFFFFFFFFFFFFFFFFFFFFFFF AND PUSH1 0x0 PUSH20 0xFFFFFFFFFFFFFFFFFFFFFFFFFFFFFFFFFFFFFFFF AND PUSH32 0xDDF252AD1BE2C89B69C2B068FC378DAA952BA7F163C4A11628F55A4DF523B3EF PUSH1 0x40 MLOAD PUSH1 0x40 MLOAD DUP1 SWAP2 SUB SWAP1 LOG4 PUSH2 0x1A65 PUSH1 0x0 DUP8 DUP5 DUP1 PUSH1 0x1 ADD SWAP6 POP DUP8 PUSH2 0x14A0 JUMP JUMPDEST PUSH2 0x1A9B JUMPI PUSH1 0x40 MLOAD PUSH32 0xD1A57ED600000000000000000000000000000000000000000000000000000000 DUP2 MSTORE PUSH1 0x4 ADD PUSH1 0x40 MLOAD DUP1 SWAP2 SUB SWAP1 REVERT JUMPDEST DUP1 DUP3 LT PUSH2 0x19F6 JUMPI DUP3 PUSH1 0x0 SLOAD EQ PUSH2 0x1AB0 JUMPI PUSH1 0x0 DUP1 REVERT JUMPDEST PUSH2 0x1B20 JUMP JUMPDEST JUMPDEST DUP2 DUP1 PUSH1 0x1 ADD SWAP3 POP DUP7 PUSH20 0xFFFFFFFFFFFFFFFFFFFFFFFFFFFFFFFFFFFFFFFF AND PUSH1 0x0 PUSH20 0xFFFFFFFFFFFFFFFFFFFFFFFFFFFFFFFFFFFFFFFF AND PUSH32 0xDDF252AD1BE2C89B69C2B068FC378DAA952BA7F163C4A11628F55A4DF523B3EF PUSH1 0x40 MLOAD PUSH1 0x40 MLOAD DUP1 SWAP2 SUB SWAP1 LOG4 DUP1 DUP3 LT PUSH2 0x1AB6 JUMPI JUMPDEST DUP2 PUSH1 0x0 DUP2 SWAP1 SSTORE POP POP POP PUSH2 0x1B36 PUSH1 0x0 DUP6 DUP4 DUP7 PUSH2 0x1776 JUMP JUMPDEST POP POP POP POP JUMP JUMPDEST PUSH1 0x40 MLOAD DUP1 PUSH1 0x60 ADD PUSH1 0x40 MSTORE DUP1 PUSH1 0x0 PUSH20 0xFFFFFFFFFFFFFFFFFFFFFFFFFFFFFFFFFFFFFFFF AND DUP2 MSTORE PUSH1 0x20 ADD PUSH1 0x0 PUSH8 0xFFFFFFFFFFFFFFFF AND DUP2 MSTORE PUSH1 0x20 ADD PUSH1 0x0 ISZERO ISZERO DUP2 MSTORE POP SWAP1 JUMP JUMPDEST PUSH1 0x0 PUSH1 0x40 MLOAD SWAP1 POP SWAP1 JUMP JUMPDEST PUSH1 0x0 DUP1 REVERT JUMPDEST PUSH1 0x0 DUP1 REVERT JUMPDEST PUSH1 0x0 PUSH32 0xFFFFFFFF00000000000000000000000000000000000000000000000000000000 DUP3 AND SWAP1 POP SWAP2 SWAP1 POP JUMP JUMPDEST PUSH2 0x1BC8 DUP2 PUSH2 0x1B93 JUMP JUMPDEST DUP2 EQ PUSH2 0x1BD3 JUMPI PUSH1 0x0 DUP1 REVERT JUMPDEST POP JUMP JUMPDEST PUSH1 0x0 DUP2 CALLDATALOAD SWAP1 POP PUSH2 0x1BE5 DUP2 PUSH2 0x1BBF JUMP JUMPDEST SWAP3 SWAP2 POP POP JUMP JUMPDEST PUSH1 0x0 PUSH1 0x20 DUP3 DUP5 SUB SLT ISZERO PUSH2 0x1C01 JUMPI PUSH2 0x1C00 PUSH2 0x1B89 JUMP JUMPDEST JUMPDEST PUSH1 0x0 PUSH2 0x1C0F DUP5 DUP3 DUP6 ADD PUSH2 0x1BD6 JUMP JUMPDEST SWAP2 POP POP SWAP3 SWAP2 POP POP JUMP JUMPDEST PUSH1 0x0 DUP2 ISZERO ISZERO SWAP1 POP SWAP2 SWAP1 POP JUMP JUMPDEST PUSH2 0x1C2D DUP2 PUSH2 0x1C18 JUMP JUMPDEST DUP3 MSTORE POP POP JUMP JUMPDEST PUSH1 0x0 PUSH1 0x20 DUP3 ADD SWAP1 POP PUSH2 0x1C48 PUSH1 0x0 DUP4 ADD DUP5 PUSH2 0x1C24 JUMP JUMPDEST SWAP3 SWAP2 POP POP JUMP JUMPDEST PUSH1 0x0 DUP2 MLOAD SWAP1 POP SWAP2 SWAP1 POP JUMP JUMPDEST PUSH1 0x0 DUP3 DUP3 MSTORE PUSH1 0x20 DUP3 ADD SWAP1 POP SWAP3 SWAP2 POP POP JUMP JUMPDEST PUSH1 0x0 JUMPDEST DUP4 DUP2 LT ISZERO PUSH2 0x1C88 JUMPI DUP1 DUP3 ADD MLOAD DUP2 DUP5 ADD MSTORE PUSH1 0x20 DUP2 ADD SWAP1 POP PUSH2 0x1C6D JUMP JUMPDEST DUP4 DUP2 GT ISZERO PUSH2 0x1C97 JUMPI PUSH1 0x0 DUP5 DUP5 ADD MSTORE JUMPDEST POP POP POP POP JUMP JUMPDEST PUSH1 0x0 PUSH1 0x1F NOT PUSH1 0x1F DUP4 ADD AND SWAP1 POP SWAP2 SWAP1 POP JUMP JUMPDEST PUSH1 0x0 PUSH2 0x1CB9 DUP3 PUSH2 0x1C4E JUMP JUMPDEST PUSH2 0x1CC3 DUP2 DUP6 PUSH2 0x1C59 JUMP JUMPDEST SWAP4 POP PUSH2 0x1CD3 DUP2 DUP6 PUSH1 0x20 DUP7 ADD PUSH2 0x1C6A JUMP JUMPDEST PUSH2 0x1CDC DUP2 PUSH2 0x1C9D JUMP JUMPDEST DUP5 ADD SWAP2 POP POP SWAP3 SWAP2 POP POP JUMP JUMPDEST PUSH1 0x0 PUSH1 0x20 DUP3 ADD SWAP1 POP DUP2 DUP2 SUB PUSH1 0x0 DUP4 ADD MSTORE PUSH2 0x1D01 DUP2 DUP5 PUSH2 0x1CAE JUMP JUMPDEST SWAP1 POP SWAP3 SWAP2 POP POP JUMP JUMPDEST PUSH1 0x0 DUP2 SWAP1 POP SWAP2 SWAP1 POP JUMP JUMPDEST PUSH2 0x1D1C DUP2 PUSH2 0x1D09 JUMP JUMPDEST DUP2 EQ PUSH2 0x1D27 JUMPI PUSH1 0x0 DUP1 REVERT JUMPDEST POP JUMP JUMPDEST PUSH1 0x0 DUP2 CALLDATALOAD SWAP1 POP PUSH2 0x1D39 DUP2 PUSH2 0x1D13 JUMP JUMPDEST SWAP3 SWAP2 POP POP JUMP JUMPDEST PUSH1 0x0 PUSH1 0x20 DUP3 DUP5 SUB SLT ISZERO PUSH2 0x1D55 JUMPI PUSH2 0x1D54 PUSH2 0x1B89 JUMP JUMPDEST JUMPDEST PUSH1 0x0 PUSH2 0x1D63 DUP5 DUP3 DUP6 ADD PUSH2 0x1D2A JUMP JUMPDEST SWAP2 POP POP SWAP3 SWAP2 POP POP JUMP JUMPDEST PUSH1 0x0 PUSH20 0xFFFFFFFFFFFFFFFFFFFFFFFFFFFFFFFFFFFFFFFF DUP3 AND SWAP1 POP SWAP2 SWAP1 POP JUMP JUMPDEST PUSH1 0x0 PUSH2 0x1D97 DUP3 PUSH2 0x1D6C JUMP JUMPDEST SWAP1 POP SWAP2 SWAP1 POP JUMP JUMPDEST PUSH2 0x1DA7 DUP2 PUSH2 0x1D8C JUMP JUMPDEST DUP3 MSTORE POP POP JUMP JUMPDEST PUSH1 0x0 PUSH1 0x20 DUP3 ADD SWAP1 POP PUSH2 0x1DC2 PUSH1 0x0 DUP4 ADD DUP5 PUSH2 0x1D9E JUMP JUMPDEST SWAP3 SWAP2 POP POP JUMP JUMPDEST PUSH2 0x1DD1 DUP2 PUSH2 0x1D8C JUMP JUMPDEST DUP2 EQ PUSH2 0x1DDC JUMPI PUSH1 0x0 DUP1 REVERT JUMPDEST POP JUMP JUMPDEST PUSH1 0x0 DUP2 CALLDATALOAD SWAP1 POP PUSH2 0x1DEE DUP2 PUSH2 0x1DC8 JUMP JUMPDEST SWAP3 SWAP2 POP POP JUMP JUMPDEST PUSH1 0x0 DUP1 PUSH1 0x40 DUP4 DUP6 SUB SLT ISZERO PUSH2 0x1E0B JUMPI PUSH2 0x1E0A PUSH2 0x1B89 JUMP JUMPDEST JUMPDEST PUSH1 0x0 PUSH2 0x1E19 DUP6 DUP3 DUP7 ADD PUSH2 0x1DDF JUMP JUMPDEST SWAP3 POP POP PUSH1 0x20 PUSH2 0x1E2A DUP6 DUP3 DUP7 ADD PUSH2 0x1D2A JUMP JUMPDEST SWAP2 POP POP SWAP3 POP SWAP3 SWAP1 POP JUMP JUMPDEST PUSH2 0x1E3D DUP2 PUSH2 0x1D09 JUMP JUMPDEST DUP3 MSTORE POP POP JUMP JUMPDEST PUSH1 0x0 PUSH1 0x20 DUP3 ADD SWAP1 POP PUSH2 0x1E58 PUSH1 0x0 DUP4 ADD DUP5 PUSH2 0x1E34 JUMP JUMPDEST SWAP3 SWAP2 POP POP JUMP JUMPDEST PUSH1 0x0 DUP1 PUSH1 0x0 PUSH1 0x60 DUP5 DUP7 SUB SLT ISZERO PUSH2 0x1E77 JUMPI PUSH2 0x1E76 PUSH2 0x1B89 JUMP JUMPDEST JUMPDEST PUSH1 0x0 PUSH2 0x1E85 DUP7 DUP3 DUP8 ADD PUSH2 0x1DDF JUMP JUMPDEST SWAP4 POP POP PUSH1 0x20 PUSH2 0x1E96 DUP7 DUP3 DUP8 ADD PUSH2 0x1DDF JUMP JUMPDEST SWAP3 POP POP PUSH1 0x40 PUSH2 0x1EA7 DUP7 DUP3 DUP8 ADD PUSH2 0x1D2A JUMP JUMPDEST SWAP2 POP POP SWAP3 POP SWAP3 POP SWAP3 JUMP JUMPDEST PUSH1 0x0 PUSH1 0x20 DUP3 DUP5 SUB SLT ISZERO PUSH2 0x1EC7 JUMPI PUSH2 0x1EC6 PUSH2 0x1B89 JUMP JUMPDEST JUMPDEST PUSH1 0x0 PUSH2 0x1ED5 DUP5 DUP3 DUP6 ADD PUSH2 0x1DDF JUMP JUMPDEST SWAP2 POP POP SWAP3 SWAP2 POP POP JUMP JUMPDEST PUSH2 0x1EE7 DUP2 PUSH2 0x1C18 JUMP JUMPDEST DUP2 EQ PUSH2 0x1EF2 JUMPI PUSH1 0x0 DUP1 REVERT JUMPDEST POP JUMP JUMPDEST PUSH1 0x0 DUP2 CALLDATALOAD SWAP1 POP PUSH2 0x1F04 DUP2 PUSH2 0x1EDE JUMP JUMPDEST SWAP3 SWAP2 POP POP JUMP JUMPDEST PUSH1 0x0 DUP1 PUSH1 0x40 DUP4 DUP6 SUB SLT ISZERO PUSH2 0x1F21 JUMPI PUSH2 0x1F20 PUSH2 0x1B89 JUMP JUMPDEST JUMPDEST PUSH1 0x0 PUSH2 0x1F2F DUP6 DUP3 DUP7 ADD PUSH2 0x1DDF JUMP JUMPDEST SWAP3 POP POP PUSH1 0x20 PUSH2 0x1F40 DUP6 DUP3 DUP7 ADD PUSH2 0x1EF5 JUMP JUMPDEST SWAP2 POP POP SWAP3 POP SWAP3 SWAP1 POP JUMP JUMPDEST PUSH1 0x0 DUP1 REVERT JUMPDEST PUSH1 0x0 DUP1 REVERT JUMPDEST PUSH32 0x4E487B7100000000000000000000000000000000000000000000000000000000 PUSH1 0x0 MSTORE PUSH1 0x41 PUSH1 0x4 MSTORE PUSH1 0x24 PUSH1 0x0 REVERT JUMPDEST PUSH2 0x1F8C DUP3 PUSH2 0x1C9D JUMP JUMPDEST DUP2 ADD DUP2 DUP2 LT PUSH8 0xFFFFFFFFFFFFFFFF DUP3 GT OR ISZERO PUSH2 0x1FAB JUMPI PUSH2 0x1FAA PUSH2 0x1F54 JUMP JUMPDEST JUMPDEST DUP1 PUSH1 0x40 MSTORE POP POP POP JUMP JUMPDEST PUSH1 0x0 PUSH2 0x1FBE PUSH2 0x1B7F JUMP JUMPDEST SWAP1 POP PUSH2 0x1FCA DUP3 DUP3 PUSH2 0x1F83 JUMP JUMPDEST SWAP2 SWAP1 POP JUMP JUMPDEST PUSH1 0x0 PUSH8 0xFFFFFFFFFFFFFFFF DUP3 GT ISZERO PUSH2 0x1FEA JUMPI PUSH2 0x1FE9 PUSH2 0x1F54 JUMP JUMPDEST JUMPDEST PUSH2 0x1FF3 DUP3 PUSH2 0x1C9D JUMP JUMPDEST SWAP1 POP PUSH1 0x20 DUP2 ADD SWAP1 POP SWAP2 SWAP1 POP JUMP JUMPDEST DUP3 DUP2 DUP4 CALLDATACOPY PUSH1 0x0 DUP4 DUP4 ADD MSTORE POP POP POP JUMP JUMPDEST PUSH1 0x0 PUSH2 0x2022 PUSH2 0x201D DUP5 PUSH2 0x1FCF JUMP JUMPDEST PUSH2 0x1FB4 JUMP JUMPDEST SWAP1 POP DUP3 DUP2 MSTORE PUSH1 0x20 DUP2 ADD DUP5 DUP5 DUP5 ADD GT ISZERO PUSH2 0x203E JUMPI PUSH2 0x203D PUSH2 0x1F4F JUMP JUMPDEST JUMPDEST PUSH2 0x2049 DUP5 DUP3 DUP6 PUSH2 0x2000 JUMP JUMPDEST POP SWAP4 SWAP3 POP POP POP JUMP JUMPDEST PUSH1 0x0 DUP3 PUSH1 0x1F DUP4 ADD SLT PUSH2 0x2066 JUMPI PUSH2 0x2065 PUSH2 0x1F4A JUMP JUMPDEST JUMPDEST DUP2 CALLDATALOAD PUSH2 0x2076 DUP5 DUP3 PUSH1 0x20 DUP7 ADD PUSH2 0x200F JUMP JUMPDEST SWAP2 POP POP SWAP3 SWAP2 POP POP JUMP JUMPDEST PUSH1 0x0 DUP1 PUSH1 0x0 DUP1 PUSH1 0x80 DUP6 DUP8 SUB SLT ISZERO PUSH2 0x2099 JUMPI PUSH2 0x2098 PUSH2 0x1B89 JUMP JUMPDEST JUMPDEST PUSH1 0x0 PUSH2 0x20A7 DUP8 DUP3 DUP9 ADD PUSH2 0x1DDF JUMP JUMPDEST SWAP5 POP POP PUSH1 0x20 PUSH2 0x20B8 DUP8 DUP3 DUP9 ADD PUSH2 0x1DDF JUMP JUMPDEST SWAP4 POP POP PUSH1 0x40 PUSH2 0x20C9 DUP8 DUP3 DUP9 ADD PUSH2 0x1D2A JUMP JUMPDEST SWAP3 POP POP PUSH1 0x60 DUP6 ADD CALLDATALOAD PUSH8 0xFFFFFFFFFFFFFFFF DUP2 GT ISZERO PUSH2 0x20EA JUMPI PUSH2 0x20E9 PUSH2 0x1B8E JUMP JUMPDEST JUMPDEST PUSH2 0x20F6 DUP8 DUP3 DUP9 ADD PUSH2 0x2051 JUMP JUMPDEST SWAP2 POP POP SWAP3 SWAP6 SWAP2 SWAP5 POP SWAP3 POP JUMP JUMPDEST PUSH1 0x0 DUP1 PUSH1 0x40 DUP4 DUP6 SUB SLT ISZERO PUSH2 0x2119 JUMPI PUSH2 0x2118 PUSH2 0x1B89 JUMP JUMPDEST JUMPDEST PUSH1 0x0 PUSH2 0x2127 DUP6 DUP3 DUP7 ADD PUSH2 0x1DDF JUMP JUMPDEST SWAP3 POP POP PUSH1 0x20 PUSH2 0x2138 DUP6 DUP3 DUP7 ADD PUSH2 0x1DDF JUMP JUMPDEST SWAP2 POP POP SWAP3 POP SWAP3 SWAP1 POP JUMP JUMPDEST PUSH32 0x4E487B7100000000000000000000000000000000000000000000000000000000 PUSH1 0x0 MSTORE PUSH1 0x22 PUSH1 0x4 MSTORE PUSH1 0x24 PUSH1 0x0 REVERT JUMPDEST PUSH1 0x0 PUSH1 0x2 DUP3 DIV SWAP1 POP PUSH1 0x1 DUP3 AND DUP1 PUSH2 0x2189 JUMPI PUSH1 0x7F DUP3 AND SWAP2 POP JUMPDEST PUSH1 0x20 DUP3 LT DUP2 SUB PUSH2 0x219C JUMPI PUSH2 0x219B PUSH2 0x2142 JUMP JUMPDEST JUMPDEST POP SWAP2 SWAP1 POP JUMP JUMPDEST PUSH1 0x0 DUP2 SWAP1 POP SWAP3 SWAP2 POP POP JUMP JUMPDEST PUSH1 0x0 PUSH2 0x21B8 DUP3 PUSH2 0x1C4E JUMP JUMPDEST PUSH2 0x21C2 DUP2 DUP6 PUSH2 0x21A2 JUMP JUMPDEST SWAP4 POP PUSH2 0x21D2 DUP2 DUP6 PUSH1 0x20 DUP7 ADD PUSH2 0x1C6A JUMP JUMPDEST DUP1 DUP5 ADD SWAP2 POP POP SWAP3 SWAP2 POP POP JUMP JUMPDEST PUSH1 0x0 PUSH2 0x21EA DUP3 DUP6 PUSH2 0x21AD JUMP JUMPDEST SWAP2 POP PUSH2 0x21F6 DUP3 DUP5 PUSH2 0x21AD JUMP JUMPDEST SWAP2 POP DUP2 SWAP1 POP SWAP4 SWAP3 POP POP POP JUMP JUMPDEST PUSH1 0x0 DUP2 MLOAD SWAP1 POP SWAP2 SWAP1 POP JUMP JUMPDEST PUSH1 0x0 DUP3 DUP3 MSTORE PUSH1 0x20 DUP3 ADD SWAP1 POP SWAP3 SWAP2 POP POP JUMP JUMPDEST PUSH1 0x0 PUSH2 0x2229 DUP3 PUSH2 0x2202 JUMP JUMPDEST PUSH2 0x2233 DUP2 DUP6 PUSH2 0x220D JUMP JUMPDEST SWAP4 POP PUSH2 0x2243 DUP2 DUP6 PUSH1 0x20 DUP7 ADD PUSH2 0x1C6A JUMP JUMPDEST PUSH2 0x224C DUP2 PUSH2 0x1C9D JUMP JUMPDEST DUP5 ADD SWAP2 POP POP SWAP3 SWAP2 POP POP JUMP JUMPDEST PUSH1 0x0 PUSH1 0x80 DUP3 ADD SWAP1 POP PUSH2 0x226C PUSH1 0x0 DUP4 ADD DUP8 PUSH2 0x1D9E JUMP JUMPDEST PUSH2 0x2279 PUSH1 0x20 DUP4 ADD DUP7 PUSH2 0x1D9E JUMP JUMPDEST PUSH2 0x2286 PUSH1 0x40 DUP4 ADD DUP6 PUSH2 0x1E34 JUMP JUMPDEST DUP2 DUP2 SUB PUSH1 0x60 DUP4 ADD MSTORE PUSH2 0x2298 DUP2 DUP5 PUSH2 0x221E JUMP JUMPDEST SWAP1 POP SWAP6 SWAP5 POP POP POP POP POP JUMP JUMPDEST PUSH1 0x0 DUP2 MLOAD SWAP1 POP PUSH2 0x22B2 DUP2 PUSH2 0x1BBF JUMP JUMPDEST SWAP3 SWAP2 POP POP JUMP JUMPDEST PUSH1 0x0 PUSH1 0x20 DUP3 DUP5 SUB SLT ISZERO PUSH2 0x22CE JUMPI PUSH2 0x22CD PUSH2 0x1B89 JUMP JUMPDEST JUMPDEST PUSH1 0x0 PUSH2 0x22DC DUP5 DUP3 DUP6 ADD PUSH2 0x22A3 JUMP JUMPDEST SWAP2 POP POP SWAP3 SWAP2 POP POP JUMP JUMPDEST PUSH32 0x4E487B7100000000000000000000000000000000000000000000000000000000 PUSH1 0x0 MSTORE PUSH1 0x11 PUSH1 0x4 MSTORE PUSH1 0x24 PUSH1 0x0 REVERT JUMPDEST PUSH1 0x0 PUSH2 0x231F DUP3 PUSH2 0x1D09 JUMP JUMPDEST SWAP2 POP PUSH32 0xFFFFFFFFFFFFFFFFFFFFFFFFFFFFFFFFFFFFFFFFFFFFFFFFFFFFFFFFFFFFFFFF DUP3 SUB PUSH2 0x2351 JUMPI PUSH2 0x2350 PUSH2 0x22E5 JUMP JUMPDEST JUMPDEST PUSH1 0x1 DUP3 ADD SWAP1 POP SWAP2 SWAP1 POP JUMP JUMPDEST PUSH32 0x4E487B7100000000000000000000000000000000000000000000000000000000 PUSH1 0x0 MSTORE PUSH1 0x12 PUSH1 0x4 MSTORE PUSH1 0x24 PUSH1 0x0 REVERT JUMPDEST PUSH1 0x0 PUSH2 0x2396 DUP3 PUSH2 0x1D09 JUMP JUMPDEST SWAP2 POP PUSH2 0x23A1 DUP4 PUSH2 0x1D09 JUMP JUMPDEST SWAP3 POP DUP3 PUSH2 0x23B1 JUMPI PUSH2 0x23B0 PUSH2 0x235C JUMP JUMPDEST JUMPDEST DUP3 DUP3 DIV SWAP1 POP SWAP3 SWAP2 POP POP JUMP JUMPDEST PUSH1 0x0 PUSH2 0x23C7 DUP3 PUSH2 0x1D09 JUMP JUMPDEST SWAP2 POP PUSH2 0x23D2 DUP4 PUSH2 0x1D09 JUMP JUMPDEST SWAP3 POP DUP3 DUP3 LT ISZERO PUSH2 0x23E5 JUMPI PUSH2 0x23E4 PUSH2 0x22E5 JUMP JUMPDEST JUMPDEST DUP3 DUP3 SUB SWAP1 POP SWAP3 SWAP2 POP POP JUMP JUMPDEST PUSH1 0x0 PUSH2 0x23FB DUP3 PUSH2 0x1D09 JUMP JUMPDEST SWAP2 POP PUSH2 0x2406 DUP4 PUSH2 0x1D09 JUMP JUMPDEST SWAP3 POP DUP3 PUSH2 0x2416 JUMPI PUSH2 0x2415 PUSH2 0x235C JUMP JUMPDEST JUMPDEST DUP3 DUP3 MOD SWAP1 POP SWAP3 SWAP2 POP POP JUMP JUMPDEST PUSH1 0x0 PUSH2 0x242C DUP3 PUSH2 0x1D09 JUMP JUMPDEST SWAP2 POP PUSH2 0x2437 DUP4 PUSH2 0x1D09 JUMP JUMPDEST SWAP3 POP DUP3 PUSH32 0xFFFFFFFFFFFFFFFFFFFFFFFFFFFFFFFFFFFFFFFFFFFFFFFFFFFFFFFFFFFFFFFF SUB DUP3 GT ISZERO PUSH2 0x246C JUMPI PUSH2 0x246B PUSH2 0x22E5 JUMP JUMPDEST JUMPDEST DUP3 DUP3 ADD SWAP1 POP SWAP3 SWAP2 POP POP JUMP JUMPDEST PUSH32 0x4E487B7100000000000000000000000000000000000000000000000000000000 PUSH1 0x0 MSTORE PUSH1 0x32 PUSH1 0x4 MSTORE PUSH1 0x24 PUSH1 0x0 REVERT INVALID PUSH9 0x747470733A2F2F6761 PUSH21 0x657761792E70696E6174612E636C6F75642F697066 PUSH20 0x2F516D6648576B7454625354424E4C7777385A44 PUSH9 0x32716335444B71695A PUSH4 0x696B6E6F PUSH18 0x37365A665872736F5231762FA26469706673 PC 0x22 SLT KECCAK256 0xDF 0x5E LOG1 0x1E DUP5 DUP9 PUSH15 0x2438721930B782B8D7DC3B0D9FE9D8 RETURNDATACOPY PUSH26 0x4ABA5C7289EEF20C64736F6C634300080D003300000000000000 "
				},
				"gasEstimates": {
					"creation": {
						"codeDepositCost": "1903400",
						"executionCost": "infinite",
						"totalCost": "infinite"
					},
					"external": {
						"approve(address,uint256)": "infinite",
						"balanceOf(address)": "2969",
						"getApproved(uint256)": "7466",
						"isApprovedForAll(address,address)": "infinite",
						"mint(uint256)": "infinite",
						"name()": "infinite",
						"ownerOf(uint256)": "infinite",
						"safeTransferFrom(address,address,uint256)": "infinite",
						"safeTransferFrom(address,address,uint256,bytes)": "infinite",
						"setApprovalForAll(address,bool)": "infinite",
						"supportsInterface(bytes4)": "797",
						"symbol()": "infinite",
						"tokenURI(uint256)": "infinite",
						"totalSupply()": "4629",
						"transferFrom(address,address,uint256)": "infinite"
					}
				},
				"methodIdentifiers": {
					"approve(address,uint256)": "095ea7b3",
					"balanceOf(address)": "70a08231",
					"getApproved(uint256)": "081812fc",
					"isApprovedForAll(address,address)": "e985e9c5",
					"mint(uint256)": "a0712d68",
					"name()": "06fdde03",
					"ownerOf(uint256)": "6352211e",
					"safeTransferFrom(address,address,uint256)": "42842e0e",
					"safeTransferFrom(address,address,uint256,bytes)": "b88d4fde",
					"setApprovalForAll(address,bool)": "a22cb465",
					"supportsInterface(bytes4)": "01ffc9a7",
					"symbol()": "95d89b41",
					"tokenURI(uint256)": "c87b56dd",
					"totalSupply()": "18160ddd",
					"transferFrom(address,address,uint256)": "23b872dd"
				}
			},
			"storageLayout": {
				"storage": [
					{
						"astId": 790,
						"contract": "Dcoffer_flat.sol:Dcoffer",
						"label": "_currentIndex",
						"offset": 0,
						"slot": "0",
						"type": "t_uint256"
					},
					{
						"astId": 792,
						"contract": "Dcoffer_flat.sol:Dcoffer",
						"label": "_burnCounter",
						"offset": 0,
						"slot": "1",
						"type": "t_uint256"
					},
					{
						"astId": 794,
						"contract": "Dcoffer_flat.sol:Dcoffer",
						"label": "_name",
						"offset": 0,
						"slot": "2",
						"type": "t_string_storage"
					},
					{
						"astId": 796,
						"contract": "Dcoffer_flat.sol:Dcoffer",
						"label": "_symbol",
						"offset": 0,
						"slot": "3",
						"type": "t_string_storage"
					},
					{
						"astId": 801,
						"contract": "Dcoffer_flat.sol:Dcoffer",
						"label": "_ownerships",
						"offset": 0,
						"slot": "4",
						"type": "t_mapping(t_uint256,t_struct(TokenOwnership)758_storage)"
					},
					{
						"astId": 806,
						"contract": "Dcoffer_flat.sol:Dcoffer",
						"label": "_addressData",
						"offset": 0,
						"slot": "5",
						"type": "t_mapping(t_address,t_struct(AddressData)767_storage)"
					},
					{
						"astId": 810,
						"contract": "Dcoffer_flat.sol:Dcoffer",
						"label": "_tokenApprovals",
						"offset": 0,
						"slot": "6",
						"type": "t_mapping(t_uint256,t_address)"
					},
					{
						"astId": 816,
						"contract": "Dcoffer_flat.sol:Dcoffer",
						"label": "_operatorApprovals",
						"offset": 0,
						"slot": "7",
						"type": "t_mapping(t_address,t_mapping(t_address,t_bool))"
					}
				],
				"types": {
					"t_address": {
						"encoding": "inplace",
						"label": "address",
						"numberOfBytes": "20"
					},
					"t_bool": {
						"encoding": "inplace",
						"label": "bool",
						"numberOfBytes": "1"
					},
					"t_mapping(t_address,t_bool)": {
						"encoding": "mapping",
						"key": "t_address",
						"label": "mapping(address => bool)",
						"numberOfBytes": "32",
						"value": "t_bool"
					},
					"t_mapping(t_address,t_mapping(t_address,t_bool))": {
						"encoding": "mapping",
						"key": "t_address",
						"label": "mapping(address => mapping(address => bool))",
						"numberOfBytes": "32",
						"value": "t_mapping(t_address,t_bool)"
					},
					"t_mapping(t_address,t_struct(AddressData)767_storage)": {
						"encoding": "mapping",
						"key": "t_address",
						"label": "mapping(address => struct IERC721A.AddressData)",
						"numberOfBytes": "32",
						"value": "t_struct(AddressData)767_storage"
					},
					"t_mapping(t_uint256,t_address)": {
						"encoding": "mapping",
						"key": "t_uint256",
						"label": "mapping(uint256 => address)",
						"numberOfBytes": "32",
						"value": "t_address"
					},
					"t_mapping(t_uint256,t_struct(TokenOwnership)758_storage)": {
						"encoding": "mapping",
						"key": "t_uint256",
						"label": "mapping(uint256 => struct IERC721A.TokenOwnership)",
						"numberOfBytes": "32",
						"value": "t_struct(TokenOwnership)758_storage"
					},
					"t_string_storage": {
						"encoding": "bytes",
						"label": "string",
						"numberOfBytes": "32"
					},
					"t_struct(AddressData)767_storage": {
						"encoding": "inplace",
						"label": "struct IERC721A.AddressData",
						"members": [
							{
								"astId": 760,
								"contract": "Dcoffer_flat.sol:Dcoffer",
								"label": "balance",
								"offset": 0,
								"slot": "0",
								"type": "t_uint64"
							},
							{
								"astId": 762,
								"contract": "Dcoffer_flat.sol:Dcoffer",
								"label": "numberMinted",
								"offset": 8,
								"slot": "0",
								"type": "t_uint64"
							},
							{
								"astId": 764,
								"contract": "Dcoffer_flat.sol:Dcoffer",
								"label": "numberBurned",
								"offset": 16,
								"slot": "0",
								"type": "t_uint64"
							},
							{
								"astId": 766,
								"contract": "Dcoffer_flat.sol:Dcoffer",
								"label": "aux",
								"offset": 24,
								"slot": "0",
								"type": "t_uint64"
							}
						],
						"numberOfBytes": "32"
					},
					"t_struct(TokenOwnership)758_storage": {
						"encoding": "inplace",
						"label": "struct IERC721A.TokenOwnership",
						"members": [
							{
								"astId": 753,
								"contract": "Dcoffer_flat.sol:Dcoffer",
								"label": "addr",
								"offset": 0,
								"slot": "0",
								"type": "t_address"
							},
							{
								"astId": 755,
								"contract": "Dcoffer_flat.sol:Dcoffer",
								"label": "startTimestamp",
								"offset": 20,
								"slot": "0",
								"type": "t_uint64"
							},
							{
								"astId": 757,
								"contract": "Dcoffer_flat.sol:Dcoffer",
								"label": "burned",
								"offset": 28,
								"slot": "0",
								"type": "t_bool"
							}
						],
						"numberOfBytes": "32"
					},
					"t_uint256": {
						"encoding": "inplace",
						"label": "uint256",
						"numberOfBytes": "32"
					},
					"t_uint64": {
						"encoding": "inplace",
						"label": "uint64",
						"numberOfBytes": "8"
					}
				}
			},
			"userdoc": {
				"errors": {
					"ApprovalCallerNotOwnerNorApproved()": [
						{
							"notice": "The caller must own the token or be an approved operator."
						}
					],
					"ApprovalQueryForNonexistentToken()": [
						{
							"notice": "The token does not exist."
						}
					],
					"ApprovalToCurrentOwner()": [
						{
							"notice": "The caller cannot approve to the current owner."
						}
					],
					"ApproveToCaller()": [
						{
							"notice": "The caller cannot approve to their own address."
						}
					],
					"BalanceQueryForZeroAddress()": [
						{
							"notice": "Cannot query the balance for the zero address."
						}
					],
					"MintToZeroAddress()": [
						{
							"notice": "Cannot mint to the zero address."
						}
					],
					"MintZeroQuantity()": [
						{
							"notice": "The quantity of tokens minted must be more than zero."
						}
					],
					"OwnerQueryForNonexistentToken()": [
						{
							"notice": "The token does not exist."
						}
					],
					"TransferCallerNotOwnerNorApproved()": [
						{
							"notice": "The caller must own the token or be an approved operator."
						}
					],
					"TransferFromIncorrectOwner()": [
						{
							"notice": "The token must be owned by `from`."
						}
					],
					"TransferToNonERC721ReceiverImplementer()": [
						{
							"notice": "Cannot safely transfer to a contract that does not implement the ERC721Receiver interface."
						}
					],
					"TransferToZeroAddress()": [
						{
							"notice": "Cannot transfer to the zero address."
						}
					],
					"URIQueryForNonexistentToken()": [
						{
							"notice": "The token does not exist."
						}
					]
				},
				"kind": "user",
				"methods": {},
				"version": 1
			}
		}
	}
}