{
	"treasury.sol": {
		"bigTreasury": {
			"abi": [
				{
					"inputs": [],
					"stateMutability": "nonpayable",
					"type": "constructor"
				},
				{
					"inputs": [],
					"name": "dcfPrice",
					"outputs": [
						{
							"internalType": "uint256",
							"name": "",
							"type": "uint256"
						}
					],
					"stateMutability": "view",
					"type": "function"
				},
				{
					"inputs": [],
					"name": "payment",
					"outputs": [],
					"stateMutability": "payable",
					"type": "function"
				},
				{
					"inputs": [],
					"name": "publicWorks",
					"outputs": [],
					"stateMutability": "nonpayable",
					"type": "function"
				},
				{
					"inputs": [
						{
							"internalType": "uint256",
							"name": "dcf_amount",
							"type": "uint256"
						}
					],
					"name": "sell",
					"outputs": [],
					"stateMutability": "nonpayable",
					"type": "function"
				},
				{
					"inputs": [],
					"name": "subscribe",
					"outputs": [],
					"stateMutability": "payable",
					"type": "function"
				}
			],
			"devdoc": {
				"kind": "dev",
				"methods": {},
				"version": 1
			},
			"evm": {
				"assembly": "    /* \"treasury.sol\":7265:9445  contract bigTreasury{... */\n  mstore(0x40, 0x80)\n    /* \"treasury.sol\":7344:7386  0xC77f56De066fE50C3e1564bA1cec85aC0aD663cE */\n  0xc77f56de066fe50c3e1564ba1cec85ac0ad663ce\n    /* \"treasury.sol\":7324:7387  IERC20 dcf = IERC20(0xC77f56De066fE50C3e1564bA1cec85aC0aD663cE) */\n  0x00\n  dup1\n  0x0100\n  exp\n  dup2\n  sload\n  dup2\n  0xffffffffffffffffffffffffffffffffffffffff\n  mul\n  not\n  and\n  swap1\n  dup4\n  0xffffffffffffffffffffffffffffffffffffffff\n  and\n  mul\n  or\n  swap1\n  sstore\n  pop\n    /* \"treasury.sol\":7642:7747  constructor(){... */\n  callvalue\n  dup1\n  iszero\n  tag_1\n  jumpi\n  0x00\n  dup1\n  revert\ntag_1:\n  pop\n    /* \"treasury.sol\":7674:7684  msg.sender */\n  caller\n    /* \"treasury.sol\":7666:7671  owner */\n  0x01\n  0x00\n    /* \"treasury.sol\":7666:7684  owner = msg.sender */\n  0x0100\n  exp\n  dup2\n  sload\n  dup2\n  0xffffffffffffffffffffffffffffffffffffffff\n  mul\n  not\n  and\n  swap1\n  dup4\n  0xffffffffffffffffffffffffffffffffffffffff\n  and\n  mul\n  or\n  swap1\n  sstore\n  pop\n    /* \"treasury.sol\":7709:7712  500 */\n  0x01f4\n    /* \"treasury.sol\":7696:7706  profitRate */\n  0x02\n    /* \"treasury.sol\":7696:7712  profitRate = 500 */\n  dup2\n  swap1\n  sstore\n  pop\n    /* \"treasury.sol\":7729:7731  10 */\n  0x0a\n    /* \"treasury.sol\":7723:7726  tax */\n  0x05\n    /* \"treasury.sol\":7723:7731  tax = 10 */\n  dup2\n  swap1\n  sstore\n  pop\n    /* \"treasury.sol\":7265:9445  contract bigTreasury{... */\n  dataSize(sub_0)\n  dup1\n  dataOffset(sub_0)\n  0x00\n  codecopy\n  0x00\n  return\nstop\n\nsub_0: assembly {\n        /* \"treasury.sol\":7265:9445  contract bigTreasury{... */\n      mstore(0x40, 0x80)\n      jumpi(tag_1, lt(calldatasize, 0x04))\n      shr(0xe0, calldataload(0x00))\n      dup1\n      0x42f6487a\n      eq\n      tag_2\n      jumpi\n      dup1\n      0x6bb4e283\n      eq\n      tag_3\n      jumpi\n      dup1\n      0x8f449a05\n      eq\n      tag_4\n      jumpi\n      dup1\n      0xa7d9c57e\n      eq\n      tag_5\n      jumpi\n      dup1\n      0xe4849b32\n      eq\n      tag_6\n      jumpi\n    tag_1:\n      0x00\n      dup1\n      revert\n        /* \"treasury.sol\":7763:7869  function payment()external payable{... */\n    tag_2:\n      tag_7\n      tag_8\n      jump\t// in\n    tag_7:\n      stop\n        /* \"treasury.sol\":8960:9166  function dcfPrice()public view returns(uint){        ... */\n    tag_3:\n      callvalue\n      dup1\n      iszero\n      tag_9\n      jumpi\n      0x00\n      dup1\n      revert\n    tag_9:\n      pop\n      tag_10\n      tag_11\n      jump\t// in\n    tag_10:\n      mload(0x40)\n      tag_12\n      swap2\n      swap1\n      tag_13\n      jump\t// in\n    tag_12:\n      mload(0x40)\n      dup1\n      swap2\n      sub\n      swap1\n      return\n        /* \"treasury.sol\":7883:8236  function subscribe()external payable{... */\n    tag_4:\n      tag_14\n      tag_15\n      jump\t// in\n    tag_14:\n      stop\n        /* \"treasury.sol\":9320:9436  function publicWorks()external onlyOwner{... */\n    tag_5:\n      callvalue\n      dup1\n      iszero\n      tag_16\n      jumpi\n      0x00\n      dup1\n      revert\n    tag_16:\n      pop\n      tag_17\n      tag_18\n      jump\t// in\n    tag_17:\n      stop\n        /* \"treasury.sol\":8500:8940  function sell(uint dcf_amount)external{... */\n    tag_6:\n      callvalue\n      dup1\n      iszero\n      tag_19\n      jumpi\n      0x00\n      dup1\n      revert\n    tag_19:\n      pop\n      tag_20\n      0x04\n      dup1\n      calldatasize\n      sub\n      dup2\n      add\n      swap1\n      tag_21\n      swap2\n      swap1\n      tag_22\n      jump\t// in\n    tag_21:\n      tag_23\n      jump\t// in\n    tag_20:\n      stop\n        /* \"treasury.sol\":7763:7869  function payment()external payable{... */\n    tag_8:\n        /* \"treasury.sol\":7828:7829  0 */\n      0x00\n        /* \"treasury.sol\":7816:7825  msg.value */\n      callvalue\n        /* \"treasury.sol\":7816:7829  msg.value > 0 */\n      gt\n        /* \"treasury.sol\":7808:7830  require(msg.value > 0) */\n      tag_25\n      jumpi\n      0x00\n      dup1\n      revert\n    tag_25:\n        /* \"treasury.sol\":7843:7855  allocation() */\n      tag_26\n        /* \"treasury.sol\":7843:7853  allocation */\n      tag_27\n        /* \"treasury.sol\":7843:7855  allocation() */\n      jump\t// in\n    tag_26:\n        /* \"treasury.sol\":7763:7869  function payment()external payable{... */\n      jump\t// out\n        /* \"treasury.sol\":8960:9166  function dcfPrice()public view returns(uint){        ... */\n    tag_11:\n        /* \"treasury.sol\":8999:9003  uint */\n      0x00\n        /* \"treasury.sol\":9023:9042  uint dcfTotlaSupply */\n      dup1\n        /* \"treasury.sol\":9045:9048  dcf */\n      0x00\n      dup1\n      sload\n      swap1\n      0x0100\n      exp\n      swap1\n      div\n      0xffffffffffffffffffffffffffffffffffffffff\n      and\n        /* \"treasury.sol\":9045:9060  dcf.totalSupply */\n      0xffffffffffffffffffffffffffffffffffffffff\n      and\n      0x18160ddd\n        /* \"treasury.sol\":9045:9062  dcf.totalSupply() */\n      mload(0x40)\n      dup2\n      0xffffffff\n      and\n      0xe0\n      shl\n      dup2\n      mstore\n      0x04\n      add\n      0x20\n      mload(0x40)\n      dup1\n      dup4\n      sub\n      dup2\n      dup7\n      gas\n      staticcall\n      iszero\n      dup1\n      iszero\n      tag_30\n      jumpi\n      returndatasize\n      0x00\n      dup1\n      returndatacopy\n      revert(0x00, returndatasize)\n    tag_30:\n      pop\n      pop\n      pop\n      pop\n      mload(0x40)\n      returndatasize\n      not(0x1f)\n      0x1f\n      dup3\n      add\n      and\n      dup3\n      add\n      dup1\n      0x40\n      mstore\n      pop\n      dup2\n      add\n      swap1\n      tag_31\n      swap2\n      swap1\n      tag_32\n      jump\t// in\n    tag_31:\n        /* \"treasury.sol\":9023:9062  uint dcfTotlaSupply = dcf.totalSupply() */\n      swap1\n      pop\n        /* \"treasury.sol\":9073:9083  uint price */\n      0x00\n        /* \"treasury.sol\":9086:9135  uint(1e18).mul(profitSharing).div(dcfTotlaSupply) */\n      tag_33\n        /* \"treasury.sol\":9120:9134  dcfTotlaSupply */\n      dup3\n        /* \"treasury.sol\":9086:9115  uint(1e18).mul(profitSharing) */\n      tag_34\n        /* \"treasury.sol\":9101:9114  profitSharing */\n      sload(0x03)\n        /* \"treasury.sol\":9091:9095  1e18 */\n      0x0de0b6b3a7640000\n        /* \"treasury.sol\":9086:9100  uint(1e18).mul */\n      tag_35\n      swap1\n        /* \"treasury.sol\":9086:9115  uint(1e18).mul(profitSharing) */\n      swap2\n      swap1\n      0xffffffff\n      and\n      jump\t// in\n    tag_34:\n        /* \"treasury.sol\":9086:9119  uint(1e18).mul(profitSharing).div */\n      tag_36\n      swap1\n        /* \"treasury.sol\":9086:9135  uint(1e18).mul(profitSharing).div(dcfTotlaSupply) */\n      swap2\n      swap1\n      0xffffffff\n      and\n      jump\t// in\n    tag_33:\n        /* \"treasury.sol\":9073:9135  uint price = uint(1e18).mul(profitSharing).div(dcfTotlaSupply) */\n      swap1\n      pop\n        /* \"treasury.sol\":9153:9158  price */\n      dup1\n        /* \"treasury.sol\":9146:9158  return price */\n      swap3\n      pop\n      pop\n      pop\n        /* \"treasury.sol\":8960:9166  function dcfPrice()public view returns(uint){        ... */\n      swap1\n      jump\t// out\n        /* \"treasury.sol\":7883:8236  function subscribe()external payable{... */\n    tag_15:\n        /* \"treasury.sol\":7951:7955  1e16 */\n      0x2386f26fc10000\n        /* \"treasury.sol\":7938:7947  msg.value */\n      callvalue\n        /* \"treasury.sol\":7938:7955  msg.value >= 1e16 */\n      lt\n      iszero\n        /* \"treasury.sol\":7930:7956  require(msg.value >= 1e16) */\n      tag_38\n      jumpi\n      0x00\n      dup1\n      revert\n    tag_38:\n        /* \"treasury.sol\":7967:7977  uint price */\n      0x00\n        /* \"treasury.sol\":7980:7990  dcfPrice() */\n      tag_39\n        /* \"treasury.sol\":7980:7988  dcfPrice */\n      tag_11\n        /* \"treasury.sol\":7980:7990  dcfPrice() */\n      jump\t// in\n    tag_39:\n        /* \"treasury.sol\":7967:7990  uint price = dcfPrice() */\n      swap1\n      pop\n        /* \"treasury.sol\":8009:8024  uint dcf_amount */\n      0x00\n        /* \"treasury.sol\":8027:8063  uint(1e18).mul(msg.value).div(price) */\n      tag_40\n        /* \"treasury.sol\":8057:8062  price */\n      dup3\n        /* \"treasury.sol\":8027:8052  uint(1e18).mul(msg.value) */\n      tag_41\n        /* \"treasury.sol\":8042:8051  msg.value */\n      callvalue\n        /* \"treasury.sol\":8032:8036  1e18 */\n      0x0de0b6b3a7640000\n        /* \"treasury.sol\":8027:8041  uint(1e18).mul */\n      tag_35\n      swap1\n        /* \"treasury.sol\":8027:8052  uint(1e18).mul(msg.value) */\n      swap2\n      swap1\n      0xffffffff\n      and\n      jump\t// in\n    tag_41:\n        /* \"treasury.sol\":8027:8056  uint(1e18).mul(msg.value).div */\n      tag_36\n      swap1\n        /* \"treasury.sol\":8027:8063  uint(1e18).mul(msg.value).div(price) */\n      swap2\n      swap1\n      0xffffffff\n      and\n      jump\t// in\n    tag_40:\n        /* \"treasury.sol\":8009:8063  uint dcf_amount = uint(1e18).mul(msg.value).div(price) */\n      swap1\n      pop\n        /* \"treasury.sol\":8074:8082  uint fee */\n      0x00\n        /* \"treasury.sol\":8085:8114  dcf_amount.mul(tax).div(1000) */\n      tag_42\n        /* \"treasury.sol\":8109:8113  1000 */\n      0x03e8\n        /* \"treasury.sol\":8085:8104  dcf_amount.mul(tax) */\n      tag_43\n        /* \"treasury.sol\":8100:8103  tax */\n      sload(0x05)\n        /* \"treasury.sol\":8085:8095  dcf_amount */\n      dup6\n        /* \"treasury.sol\":8085:8099  dcf_amount.mul */\n      tag_35\n      swap1\n        /* \"treasury.sol\":8085:8104  dcf_amount.mul(tax) */\n      swap2\n      swap1\n      0xffffffff\n      and\n      jump\t// in\n    tag_43:\n        /* \"treasury.sol\":8085:8108  dcf_amount.mul(tax).div */\n      tag_36\n      swap1\n        /* \"treasury.sol\":8085:8114  dcf_amount.mul(tax).div(1000) */\n      swap2\n      swap1\n      0xffffffff\n      and\n      jump\t// in\n    tag_42:\n        /* \"treasury.sol\":8074:8114  uint fee = dcf_amount.mul(tax).div(1000) */\n      swap1\n      pop\n        /* \"treasury.sol\":8138:8157  dcf_amount.sub(fee) */\n      tag_44\n        /* \"treasury.sol\":8153:8156  fee */\n      dup2\n        /* \"treasury.sol\":8138:8148  dcf_amount */\n      dup4\n        /* \"treasury.sol\":8138:8152  dcf_amount.sub */\n      tag_45\n      swap1\n        /* \"treasury.sol\":8138:8157  dcf_amount.sub(fee) */\n      swap2\n      swap1\n      0xffffffff\n      and\n      jump\t// in\n    tag_44:\n        /* \"treasury.sol\":8125:8157  dcf_amount = dcf_amount.sub(fee) */\n      swap2\n      pop\n        /* \"treasury.sol\":8170:8173  dcf */\n      0x00\n      dup1\n      sload\n      swap1\n      0x0100\n      exp\n      swap1\n      div\n      0xffffffffffffffffffffffffffffffffffffffff\n      and\n        /* \"treasury.sol\":8170:8182  dcf.transfer */\n      0xffffffffffffffffffffffffffffffffffffffff\n      and\n      0xa9059cbb\n        /* \"treasury.sol\":8183:8193  msg.sender */\n      caller\n        /* \"treasury.sol\":8194:8204  dcf_amount */\n      dup5\n        /* \"treasury.sol\":8170:8205  dcf.transfer(msg.sender,dcf_amount) */\n      mload(0x40)\n      dup4\n      0xffffffff\n      and\n      0xe0\n      shl\n      dup2\n      mstore\n      0x04\n      add\n      tag_46\n      swap3\n      swap2\n      swap1\n      tag_47\n      jump\t// in\n    tag_46:\n      0x20\n      mload(0x40)\n      dup1\n      dup4\n      sub\n      dup2\n      0x00\n      dup8\n      gas\n      call\n      iszero\n      dup1\n      iszero\n      tag_49\n      jumpi\n      returndatasize\n      0x00\n      dup1\n      returndatacopy\n      revert(0x00, returndatasize)\n    tag_49:\n      pop\n      pop\n      pop\n      pop\n      mload(0x40)\n      returndatasize\n      not(0x1f)\n      0x1f\n      dup3\n      add\n      and\n      dup3\n      add\n      dup1\n      0x40\n      mstore\n      pop\n      dup2\n      add\n      swap1\n      tag_50\n      swap2\n      swap1\n      tag_51\n      jump\t// in\n    tag_50:\n      pop\n        /* \"treasury.sol\":8216:8228  allocation() */\n      tag_52\n        /* \"treasury.sol\":8216:8226  allocation */\n      tag_27\n        /* \"treasury.sol\":8216:8228  allocation() */\n      jump\t// in\n    tag_52:\n        /* \"treasury.sol\":7919:8236  {... */\n      pop\n      pop\n      pop\n        /* \"treasury.sol\":7883:8236  function subscribe()external payable{... */\n      jump\t// out\n        /* \"treasury.sol\":9320:9436  function publicWorks()external onlyOwner{... */\n    tag_18:\n        /* \"treasury.sol\":7565:7575  msg.sender */\n      caller\n        /* \"treasury.sol\":7556:7575  owner == msg.sender */\n      0xffffffffffffffffffffffffffffffffffffffff\n      and\n        /* \"treasury.sol\":7556:7561  owner */\n      0x01\n      0x00\n      swap1\n      sload\n      swap1\n      0x0100\n      exp\n      swap1\n      div\n      0xffffffffffffffffffffffffffffffffffffffff\n      and\n        /* \"treasury.sol\":7556:7575  owner == msg.sender */\n      0xffffffffffffffffffffffffffffffffffffffff\n      and\n      eq\n        /* \"treasury.sol\":7548:7612  require(owner == msg.sender, \"Ownable: caller is not the owner\") */\n      tag_54\n      jumpi\n      mload(0x40)\n      0x08c379a000000000000000000000000000000000000000000000000000000000\n      dup2\n      mstore\n      0x04\n      add\n      tag_55\n      swap1\n      tag_56\n      jump\t// in\n    tag_55:\n      mload(0x40)\n      dup1\n      swap2\n      sub\n      swap1\n      revert\n    tag_54:\n        /* \"treasury.sol\":9379:9384  owner */\n      0x01\n      0x00\n      swap1\n      sload\n      swap1\n      0x0100\n      exp\n      swap1\n      div\n      0xffffffffffffffffffffffffffffffffffffffff\n      and\n        /* \"treasury.sol\":9371:9394  payable(owner).transfer */\n      0xffffffffffffffffffffffffffffffffffffffff\n      and\n        /* \"treasury.sol\":9371:9404  payable(owner).transfer(treasury) */\n      0x08fc\n        /* \"treasury.sol\":9395:9403  treasury */\n      sload(0x04)\n        /* \"treasury.sol\":9371:9404  payable(owner).transfer(treasury) */\n      swap1\n      dup2\n      iszero\n      mul\n      swap1\n      mload(0x40)\n      0x00\n      mload(0x40)\n      dup1\n      dup4\n      sub\n      dup2\n      dup6\n      dup9\n      dup9\n      call\n      swap4\n      pop\n      pop\n      pop\n      pop\n      iszero\n      dup1\n      iszero\n      tag_59\n      jumpi\n      returndatasize\n      0x00\n      dup1\n      returndatacopy\n      revert(0x00, returndatasize)\n    tag_59:\n      pop\n        /* \"treasury.sol\":9426:9427  0 */\n      0x00\n        /* \"treasury.sol\":9415:9423  treasury */\n      0x04\n        /* \"treasury.sol\":9415:9427  treasury = 0 */\n      dup2\n      swap1\n      sstore\n      pop\n        /* \"treasury.sol\":9320:9436  function publicWorks()external onlyOwner{... */\n      jump\t// out\n        /* \"treasury.sol\":8500:8940  function sell(uint dcf_amount)external{... */\n    tag_23:\n        /* \"treasury.sol\":8585:8595  dcf_amount */\n      dup1\n        /* \"treasury.sol\":8556:8559  dcf */\n      0x00\n      dup1\n      sload\n      swap1\n      0x0100\n      exp\n      swap1\n      div\n      0xffffffffffffffffffffffffffffffffffffffff\n      and\n        /* \"treasury.sol\":8556:8569  dcf.balanceOf */\n      0xffffffffffffffffffffffffffffffffffffffff\n      and\n      0x70a08231\n        /* \"treasury.sol\":8570:8580  msg.sender */\n      caller\n        /* \"treasury.sol\":8556:8581  dcf.balanceOf(msg.sender) */\n      mload(0x40)\n      dup3\n      0xffffffff\n      and\n      0xe0\n      shl\n      dup2\n      mstore\n      0x04\n      add\n      tag_61\n      swap2\n      swap1\n      tag_62\n      jump\t// in\n    tag_61:\n      0x20\n      mload(0x40)\n      dup1\n      dup4\n      sub\n      dup2\n      dup7\n      gas\n      staticcall\n      iszero\n      dup1\n      iszero\n      tag_64\n      jumpi\n      returndatasize\n      0x00\n      dup1\n      returndatacopy\n      revert(0x00, returndatasize)\n    tag_64:\n      pop\n      pop\n      pop\n      pop\n      mload(0x40)\n      returndatasize\n      not(0x1f)\n      0x1f\n      dup3\n      add\n      and\n      dup3\n      add\n      dup1\n      0x40\n      mstore\n      pop\n      dup2\n      add\n      swap1\n      tag_65\n      swap2\n      swap1\n      tag_32\n      jump\t// in\n    tag_65:\n        /* \"treasury.sol\":8556:8595  dcf.balanceOf(msg.sender) >= dcf_amount */\n      lt\n      iszero\n        /* \"treasury.sol\":8548:8596  require(dcf.balanceOf(msg.sender) >= dcf_amount) */\n      tag_66\n      jumpi\n      0x00\n      dup1\n      revert\n    tag_66:\n        /* \"treasury.sol\":8606:8616  uint price */\n      0x00\n        /* \"treasury.sol\":8619:8629  dcfPrice() */\n      tag_67\n        /* \"treasury.sol\":8619:8627  dcfPrice */\n      tag_11\n        /* \"treasury.sol\":8619:8629  dcfPrice() */\n      jump\t// in\n    tag_67:\n        /* \"treasury.sol\":8606:8629  uint price = dcfPrice() */\n      swap1\n      pop\n        /* \"treasury.sol\":8639:8654  uint eth_amount */\n      0x00\n        /* \"treasury.sol\":8657:8688  dcf_amount.mul(price).div(1e18) */\n      tag_68\n        /* \"treasury.sol\":8683:8687  1e18 */\n      0x0de0b6b3a7640000\n        /* \"treasury.sol\":8657:8678  dcf_amount.mul(price) */\n      tag_69\n        /* \"treasury.sol\":8672:8677  price */\n      dup5\n        /* \"treasury.sol\":8657:8667  dcf_amount */\n      dup7\n        /* \"treasury.sol\":8657:8671  dcf_amount.mul */\n      tag_35\n      swap1\n        /* \"treasury.sol\":8657:8678  dcf_amount.mul(price) */\n      swap2\n      swap1\n      0xffffffff\n      and\n      jump\t// in\n    tag_69:\n        /* \"treasury.sol\":8657:8682  dcf_amount.mul(price).div */\n      tag_36\n      swap1\n        /* \"treasury.sol\":8657:8688  dcf_amount.mul(price).div(1e18) */\n      swap2\n      swap1\n      0xffffffff\n      and\n      jump\t// in\n    tag_68:\n        /* \"treasury.sol\":8639:8688  uint eth_amount = dcf_amount.mul(price).div(1e18) */\n      swap1\n      pop\n        /* \"treasury.sol\":8700:8708  uint fee */\n      0x00\n        /* \"treasury.sol\":8711:8740  eth_amount.mul(tax).div(1000) */\n      tag_70\n        /* \"treasury.sol\":8735:8739  1000 */\n      0x03e8\n        /* \"treasury.sol\":8711:8730  eth_amount.mul(tax) */\n      tag_71\n        /* \"treasury.sol\":8726:8729  tax */\n      sload(0x05)\n        /* \"treasury.sol\":8711:8721  eth_amount */\n      dup6\n        /* \"treasury.sol\":8711:8725  eth_amount.mul */\n      tag_35\n      swap1\n        /* \"treasury.sol\":8711:8730  eth_amount.mul(tax) */\n      swap2\n      swap1\n      0xffffffff\n      and\n      jump\t// in\n    tag_71:\n        /* \"treasury.sol\":8711:8734  eth_amount.mul(tax).div */\n      tag_36\n      swap1\n        /* \"treasury.sol\":8711:8740  eth_amount.mul(tax).div(1000) */\n      swap2\n      swap1\n      0xffffffff\n      and\n      jump\t// in\n    tag_70:\n        /* \"treasury.sol\":8700:8740  uint fee = eth_amount.mul(tax).div(1000) */\n      swap1\n      pop\n        /* \"treasury.sol\":8774:8793  eth_amount.sub(fee) */\n      tag_72\n        /* \"treasury.sol\":8789:8792  fee */\n      dup2\n        /* \"treasury.sol\":8774:8784  eth_amount */\n      dup4\n        /* \"treasury.sol\":8774:8788  eth_amount.sub */\n      tag_45\n      swap1\n        /* \"treasury.sol\":8774:8793  eth_amount.sub(fee) */\n      swap2\n      swap1\n      0xffffffff\n      and\n      jump\t// in\n    tag_72:\n        /* \"treasury.sol\":8761:8793  eth_amount = eth_amount.sub(fee) */\n      swap2\n      pop\n        /* \"treasury.sol\":8817:8827  msg.sender */\n      caller\n        /* \"treasury.sol\":8809:8837  payable(msg.sender).transfer */\n      0xffffffffffffffffffffffffffffffffffffffff\n      and\n        /* \"treasury.sol\":8809:8849  payable(msg.sender).transfer(eth_amount) */\n      0x08fc\n        /* \"treasury.sol\":8838:8848  eth_amount */\n      dup4\n        /* \"treasury.sol\":8809:8849  payable(msg.sender).transfer(eth_amount) */\n      swap1\n      dup2\n      iszero\n      mul\n      swap1\n      mload(0x40)\n      0x00\n      mload(0x40)\n      dup1\n      dup4\n      sub\n      dup2\n      dup6\n      dup9\n      dup9\n      call\n      swap4\n      pop\n      pop\n      pop\n      pop\n      iszero\n      dup1\n      iszero\n      tag_74\n      jumpi\n      returndatasize\n      0x00\n      dup1\n      returndatacopy\n      revert(0x00, returndatasize)\n    tag_74:\n      pop\n        /* \"treasury.sol\":8875:8904  profitSharing.sub(eth_amount) */\n      tag_75\n        /* \"treasury.sol\":8893:8903  eth_amount */\n      dup3\n        /* \"treasury.sol\":8875:8888  profitSharing */\n      sload(0x03)\n        /* \"treasury.sol\":8875:8892  profitSharing.sub */\n      tag_45\n      swap1\n        /* \"treasury.sol\":8875:8904  profitSharing.sub(eth_amount) */\n      swap2\n      swap1\n      0xffffffff\n      and\n      jump\t// in\n    tag_75:\n        /* \"treasury.sol\":8859:8872  profitSharing */\n      0x03\n        /* \"treasury.sol\":8859:8904  profitSharing = profitSharing.sub(eth_amount) */\n      dup2\n      swap1\n      sstore\n      pop\n        /* \"treasury.sol\":8916:8932  burn(dcf_amount) */\n      tag_76\n        /* \"treasury.sol\":8921:8931  dcf_amount */\n      dup5\n        /* \"treasury.sol\":8916:8920  burn */\n      tag_77\n        /* \"treasury.sol\":8916:8932  burn(dcf_amount) */\n      jump\t// in\n    tag_76:\n        /* \"treasury.sol\":8538:8940  {... */\n      pop\n      pop\n      pop\n        /* \"treasury.sol\":8500:8940  function sell(uint dcf_amount)external{... */\n      pop\n      jump\t// out\n        /* \"treasury.sol\":8246:8459  function allocation()private{... */\n    tag_27:\n        /* \"treasury.sol\":8285:8296  uint profit */\n      0x00\n        /* \"treasury.sol\":8299:8334  msg.value.mul(profitRate).div(1000) */\n      tag_79\n        /* \"treasury.sol\":8329:8333  1000 */\n      0x03e8\n        /* \"treasury.sol\":8299:8324  msg.value.mul(profitRate) */\n      tag_80\n        /* \"treasury.sol\":8313:8323  profitRate */\n      sload(0x02)\n        /* \"treasury.sol\":8299:8308  msg.value */\n      callvalue\n        /* \"treasury.sol\":8299:8312  msg.value.mul */\n      tag_35\n      swap1\n        /* \"treasury.sol\":8299:8324  msg.value.mul(profitRate) */\n      swap2\n      swap1\n      0xffffffff\n      and\n      jump\t// in\n    tag_80:\n        /* \"treasury.sol\":8299:8328  msg.value.mul(profitRate).div */\n      tag_36\n      swap1\n        /* \"treasury.sol\":8299:8334  msg.value.mul(profitRate).div(1000) */\n      swap2\n      swap1\n      0xffffffff\n      and\n      jump\t// in\n    tag_79:\n        /* \"treasury.sol\":8285:8334  uint profit = msg.value.mul(profitRate).div(1000) */\n      swap1\n      pop\n        /* \"treasury.sol\":8369:8394  profitSharing.add(profit) */\n      tag_81\n        /* \"treasury.sol\":8387:8393  profit */\n      dup2\n        /* \"treasury.sol\":8369:8382  profitSharing */\n      sload(0x03)\n        /* \"treasury.sol\":8369:8386  profitSharing.add */\n      tag_82\n      swap1\n        /* \"treasury.sol\":8369:8394  profitSharing.add(profit) */\n      swap2\n      swap1\n      0xffffffff\n      and\n      jump\t// in\n    tag_81:\n        /* \"treasury.sol\":8353:8366  profitSharing */\n      0x03\n        /* \"treasury.sol\":8353:8394  profitSharing = profitSharing.add(profit) */\n      dup2\n      swap1\n      sstore\n      pop\n        /* \"treasury.sol\":8416:8451  treasury.add(msg.value.sub(profit)) */\n      tag_83\n        /* \"treasury.sol\":8429:8450  msg.value.sub(profit) */\n      tag_84\n        /* \"treasury.sol\":8443:8449  profit */\n      dup3\n        /* \"treasury.sol\":8429:8438  msg.value */\n      callvalue\n        /* \"treasury.sol\":8429:8442  msg.value.sub */\n      tag_45\n      swap1\n        /* \"treasury.sol\":8429:8450  msg.value.sub(profit) */\n      swap2\n      swap1\n      0xffffffff\n      and\n      jump\t// in\n    tag_84:\n        /* \"treasury.sol\":8416:8424  treasury */\n      sload(0x04)\n        /* \"treasury.sol\":8416:8428  treasury.add */\n      tag_82\n      swap1\n        /* \"treasury.sol\":8416:8451  treasury.add(msg.value.sub(profit)) */\n      swap2\n      swap1\n      0xffffffff\n      and\n      jump\t// in\n    tag_83:\n        /* \"treasury.sol\":8405:8413  treasury */\n      0x04\n        /* \"treasury.sol\":8405:8451  treasury = treasury.add(msg.value.sub(profit)) */\n      dup2\n      swap1\n      sstore\n      pop\n        /* \"treasury.sol\":8274:8459  {... */\n      pop\n        /* \"treasury.sol\":8246:8459  function allocation()private{... */\n      jump\t// out\n        /* \"treasury.sol\":3511:3609  function mul(uint256 a, uint256 b) internal pure returns (uint256) {... */\n    tag_35:\n        /* \"treasury.sol\":3569:3576  uint256 */\n      0x00\n        /* \"treasury.sol\":3600:3601  b */\n      dup2\n        /* \"treasury.sol\":3596:3597  a */\n      dup4\n        /* \"treasury.sol\":3596:3601  a * b */\n      tag_86\n      swap2\n      swap1\n      tag_87\n      jump\t// in\n    tag_86:\n        /* \"treasury.sol\":3589:3601  return a * b */\n      swap1\n      pop\n        /* \"treasury.sol\":3511:3609  function mul(uint256 a, uint256 b) internal pure returns (uint256) {... */\n      swap3\n      swap2\n      pop\n      pop\n      jump\t// out\n        /* \"treasury.sol\":3910:4008  function div(uint256 a, uint256 b) internal pure returns (uint256) {... */\n    tag_36:\n        /* \"treasury.sol\":3968:3975  uint256 */\n      0x00\n        /* \"treasury.sol\":3999:4000  b */\n      dup2\n        /* \"treasury.sol\":3995:3996  a */\n      dup4\n        /* \"treasury.sol\":3995:4000  a / b */\n      tag_89\n      swap2\n      swap1\n      tag_90\n      jump\t// in\n    tag_89:\n        /* \"treasury.sol\":3988:4000  return a / b */\n      swap1\n      pop\n        /* \"treasury.sol\":3910:4008  function div(uint256 a, uint256 b) internal pure returns (uint256) {... */\n      swap3\n      swap2\n      pop\n      pop\n      jump\t// out\n        /* \"treasury.sol\":3154:3252  function sub(uint256 a, uint256 b) internal pure returns (uint256) {... */\n    tag_45:\n        /* \"treasury.sol\":3212:3219  uint256 */\n      0x00\n        /* \"treasury.sol\":3243:3244  b */\n      dup2\n        /* \"treasury.sol\":3239:3240  a */\n      dup4\n        /* \"treasury.sol\":3239:3244  a - b */\n      tag_92\n      swap2\n      swap1\n      tag_93\n      jump\t// in\n    tag_92:\n        /* \"treasury.sol\":3232:3244  return a - b */\n      swap1\n      pop\n        /* \"treasury.sol\":3154:3252  function sub(uint256 a, uint256 b) internal pure returns (uint256) {... */\n      swap3\n      swap2\n      pop\n      pop\n      jump\t// out\n        /* \"treasury.sol\":9174:9265  function burn(uint dcf_amount)private{... */\n    tag_77:\n        /* \"treasury.sol\":9222:9225  dcf */\n      0x00\n      dup1\n      sload\n      swap1\n      0x0100\n      exp\n      swap1\n      div\n      0xffffffffffffffffffffffffffffffffffffffff\n      and\n        /* \"treasury.sol\":9222:9234  dcf.burnFrom */\n      0xffffffffffffffffffffffffffffffffffffffff\n      and\n      0x79cc6790\n        /* \"treasury.sol\":9235:9245  msg.sender */\n      caller\n        /* \"treasury.sol\":9246:9256  dcf_amount */\n      dup4\n        /* \"treasury.sol\":9222:9257  dcf.burnFrom(msg.sender,dcf_amount) */\n      mload(0x40)\n      dup4\n      0xffffffff\n      and\n      0xe0\n      shl\n      dup2\n      mstore\n      0x04\n      add\n      tag_95\n      swap3\n      swap2\n      swap1\n      tag_47\n      jump\t// in\n    tag_95:\n      0x00\n      mload(0x40)\n      dup1\n      dup4\n      sub\n      dup2\n      0x00\n      dup8\n      dup1\n      extcodesize\n      iszero\n      dup1\n      iszero\n      tag_96\n      jumpi\n      0x00\n      dup1\n      revert\n    tag_96:\n      pop\n      gas\n      call\n      iszero\n      dup1\n      iszero\n      tag_98\n      jumpi\n      returndatasize\n      0x00\n      dup1\n      returndatacopy\n      revert(0x00, returndatasize)\n    tag_98:\n      pop\n      pop\n      pop\n      pop\n        /* \"treasury.sol\":9174:9265  function burn(uint dcf_amount)private{... */\n      pop\n      jump\t// out\n        /* \"treasury.sol\":2773:2871  function add(uint256 a, uint256 b) internal pure returns (uint256) {... */\n    tag_82:\n        /* \"treasury.sol\":2831:2838  uint256 */\n      0x00\n        /* \"treasury.sol\":2862:2863  b */\n      dup2\n        /* \"treasury.sol\":2858:2859  a */\n      dup4\n        /* \"treasury.sol\":2858:2863  a + b */\n      tag_100\n      swap2\n      swap1\n      tag_101\n      jump\t// in\n    tag_100:\n        /* \"treasury.sol\":2851:2863  return a + b */\n      swap1\n      pop\n        /* \"treasury.sol\":2773:2871  function add(uint256 a, uint256 b) internal pure returns (uint256) {... */\n      swap3\n      swap2\n      pop\n      pop\n      jump\t// out\n        /* \"#utility.yul\":7:84   */\n    tag_102:\n        /* \"#utility.yul\":44:51   */\n      0x00\n        /* \"#utility.yul\":73:78   */\n      dup2\n        /* \"#utility.yul\":62:78   */\n      swap1\n      pop\n        /* \"#utility.yul\":7:84   */\n      swap2\n      swap1\n      pop\n      jump\t// out\n        /* \"#utility.yul\":90:208   */\n    tag_103:\n        /* \"#utility.yul\":177:201   */\n      tag_124\n        /* \"#utility.yul\":195:200   */\n      dup2\n        /* \"#utility.yul\":177:201   */\n      tag_102\n      jump\t// in\n    tag_124:\n        /* \"#utility.yul\":172:175   */\n      dup3\n        /* \"#utility.yul\":165:202   */\n      mstore\n        /* \"#utility.yul\":90:208   */\n      pop\n      pop\n      jump\t// out\n        /* \"#utility.yul\":214:436   */\n    tag_13:\n        /* \"#utility.yul\":307:311   */\n      0x00\n        /* \"#utility.yul\":345:347   */\n      0x20\n        /* \"#utility.yul\":334:343   */\n      dup3\n        /* \"#utility.yul\":330:348   */\n      add\n        /* \"#utility.yul\":322:348   */\n      swap1\n      pop\n        /* \"#utility.yul\":358:429   */\n      tag_126\n        /* \"#utility.yul\":426:427   */\n      0x00\n        /* \"#utility.yul\":415:424   */\n      dup4\n        /* \"#utility.yul\":411:428   */\n      add\n        /* \"#utility.yul\":402:408   */\n      dup5\n        /* \"#utility.yul\":358:429   */\n      tag_103\n      jump\t// in\n    tag_126:\n        /* \"#utility.yul\":214:436   */\n      swap3\n      swap2\n      pop\n      pop\n      jump\t// out\n        /* \"#utility.yul\":523:640   */\n    tag_105:\n        /* \"#utility.yul\":632:633   */\n      0x00\n        /* \"#utility.yul\":629:630   */\n      dup1\n        /* \"#utility.yul\":622:634   */\n      revert\n        /* \"#utility.yul\":769:891   */\n    tag_107:\n        /* \"#utility.yul\":842:866   */\n      tag_131\n        /* \"#utility.yul\":860:865   */\n      dup2\n        /* \"#utility.yul\":842:866   */\n      tag_102\n      jump\t// in\n    tag_131:\n        /* \"#utility.yul\":835:840   */\n      dup2\n        /* \"#utility.yul\":832:867   */\n      eq\n        /* \"#utility.yul\":822:885   */\n      tag_132\n      jumpi\n        /* \"#utility.yul\":881:882   */\n      0x00\n        /* \"#utility.yul\":878:879   */\n      dup1\n        /* \"#utility.yul\":871:883   */\n      revert\n        /* \"#utility.yul\":822:885   */\n    tag_132:\n        /* \"#utility.yul\":769:891   */\n      pop\n      jump\t// out\n        /* \"#utility.yul\":897:1036   */\n    tag_108:\n        /* \"#utility.yul\":943:948   */\n      0x00\n        /* \"#utility.yul\":981:987   */\n      dup2\n        /* \"#utility.yul\":968:988   */\n      calldataload\n        /* \"#utility.yul\":959:988   */\n      swap1\n      pop\n        /* \"#utility.yul\":997:1030   */\n      tag_134\n        /* \"#utility.yul\":1024:1029   */\n      dup2\n        /* \"#utility.yul\":997:1030   */\n      tag_107\n      jump\t// in\n    tag_134:\n        /* \"#utility.yul\":897:1036   */\n      swap3\n      swap2\n      pop\n      pop\n      jump\t// out\n        /* \"#utility.yul\":1042:1371   */\n    tag_22:\n        /* \"#utility.yul\":1101:1107   */\n      0x00\n        /* \"#utility.yul\":1150:1152   */\n      0x20\n        /* \"#utility.yul\":1138:1147   */\n      dup3\n        /* \"#utility.yul\":1129:1136   */\n      dup5\n        /* \"#utility.yul\":1125:1148   */\n      sub\n        /* \"#utility.yul\":1121:1153   */\n      slt\n        /* \"#utility.yul\":1118:1237   */\n      iszero\n      tag_136\n      jumpi\n        /* \"#utility.yul\":1156:1235   */\n      tag_137\n      tag_105\n      jump\t// in\n    tag_137:\n        /* \"#utility.yul\":1118:1237   */\n    tag_136:\n        /* \"#utility.yul\":1276:1277   */\n      0x00\n        /* \"#utility.yul\":1301:1354   */\n      tag_138\n        /* \"#utility.yul\":1346:1353   */\n      dup5\n        /* \"#utility.yul\":1337:1343   */\n      dup3\n        /* \"#utility.yul\":1326:1335   */\n      dup6\n        /* \"#utility.yul\":1322:1344   */\n      add\n        /* \"#utility.yul\":1301:1354   */\n      tag_108\n      jump\t// in\n    tag_138:\n        /* \"#utility.yul\":1291:1354   */\n      swap2\n      pop\n        /* \"#utility.yul\":1247:1364   */\n      pop\n        /* \"#utility.yul\":1042:1371   */\n      swap3\n      swap2\n      pop\n      pop\n      jump\t// out\n        /* \"#utility.yul\":1377:1520   */\n    tag_109:\n        /* \"#utility.yul\":1434:1439   */\n      0x00\n        /* \"#utility.yul\":1465:1471   */\n      dup2\n        /* \"#utility.yul\":1459:1472   */\n      mload\n        /* \"#utility.yul\":1450:1472   */\n      swap1\n      pop\n        /* \"#utility.yul\":1481:1514   */\n      tag_140\n        /* \"#utility.yul\":1508:1513   */\n      dup2\n        /* \"#utility.yul\":1481:1514   */\n      tag_107\n      jump\t// in\n    tag_140:\n        /* \"#utility.yul\":1377:1520   */\n      swap3\n      swap2\n      pop\n      pop\n      jump\t// out\n        /* \"#utility.yul\":1526:1877   */\n    tag_32:\n        /* \"#utility.yul\":1596:1602   */\n      0x00\n        /* \"#utility.yul\":1645:1647   */\n      0x20\n        /* \"#utility.yul\":1633:1642   */\n      dup3\n        /* \"#utility.yul\":1624:1631   */\n      dup5\n        /* \"#utility.yul\":1620:1643   */\n      sub\n        /* \"#utility.yul\":1616:1648   */\n      slt\n        /* \"#utility.yul\":1613:1732   */\n      iszero\n      tag_142\n      jumpi\n        /* \"#utility.yul\":1651:1730   */\n      tag_143\n      tag_105\n      jump\t// in\n    tag_143:\n        /* \"#utility.yul\":1613:1732   */\n    tag_142:\n        /* \"#utility.yul\":1771:1772   */\n      0x00\n        /* \"#utility.yul\":1796:1860   */\n      tag_144\n        /* \"#utility.yul\":1852:1859   */\n      dup5\n        /* \"#utility.yul\":1843:1849   */\n      dup3\n        /* \"#utility.yul\":1832:1841   */\n      dup6\n        /* \"#utility.yul\":1828:1850   */\n      add\n        /* \"#utility.yul\":1796:1860   */\n      tag_109\n      jump\t// in\n    tag_144:\n        /* \"#utility.yul\":1786:1860   */\n      swap2\n      pop\n        /* \"#utility.yul\":1742:1870   */\n      pop\n        /* \"#utility.yul\":1526:1877   */\n      swap3\n      swap2\n      pop\n      pop\n      jump\t// out\n        /* \"#utility.yul\":1883:2009   */\n    tag_110:\n        /* \"#utility.yul\":1920:1927   */\n      0x00\n        /* \"#utility.yul\":1960:2002   */\n      0xffffffffffffffffffffffffffffffffffffffff\n        /* \"#utility.yul\":1953:1958   */\n      dup3\n        /* \"#utility.yul\":1949:2003   */\n      and\n        /* \"#utility.yul\":1938:2003   */\n      swap1\n      pop\n        /* \"#utility.yul\":1883:2009   */\n      swap2\n      swap1\n      pop\n      jump\t// out\n        /* \"#utility.yul\":2015:2111   */\n    tag_111:\n        /* \"#utility.yul\":2052:2059   */\n      0x00\n        /* \"#utility.yul\":2081:2105   */\n      tag_147\n        /* \"#utility.yul\":2099:2104   */\n      dup3\n        /* \"#utility.yul\":2081:2105   */\n      tag_110\n      jump\t// in\n    tag_147:\n        /* \"#utility.yul\":2070:2105   */\n      swap1\n      pop\n        /* \"#utility.yul\":2015:2111   */\n      swap2\n      swap1\n      pop\n      jump\t// out\n        /* \"#utility.yul\":2117:2235   */\n    tag_112:\n        /* \"#utility.yul\":2204:2228   */\n      tag_149\n        /* \"#utility.yul\":2222:2227   */\n      dup2\n        /* \"#utility.yul\":2204:2228   */\n      tag_111\n      jump\t// in\n    tag_149:\n        /* \"#utility.yul\":2199:2202   */\n      dup3\n        /* \"#utility.yul\":2192:2229   */\n      mstore\n        /* \"#utility.yul\":2117:2235   */\n      pop\n      pop\n      jump\t// out\n        /* \"#utility.yul\":2241:2573   */\n    tag_47:\n        /* \"#utility.yul\":2362:2366   */\n      0x00\n        /* \"#utility.yul\":2400:2402   */\n      0x40\n        /* \"#utility.yul\":2389:2398   */\n      dup3\n        /* \"#utility.yul\":2385:2403   */\n      add\n        /* \"#utility.yul\":2377:2403   */\n      swap1\n      pop\n        /* \"#utility.yul\":2413:2484   */\n      tag_151\n        /* \"#utility.yul\":2481:2482   */\n      0x00\n        /* \"#utility.yul\":2470:2479   */\n      dup4\n        /* \"#utility.yul\":2466:2483   */\n      add\n        /* \"#utility.yul\":2457:2463   */\n      dup6\n        /* \"#utility.yul\":2413:2484   */\n      tag_112\n      jump\t// in\n    tag_151:\n        /* \"#utility.yul\":2494:2566   */\n      tag_152\n        /* \"#utility.yul\":2562:2564   */\n      0x20\n        /* \"#utility.yul\":2551:2560   */\n      dup4\n        /* \"#utility.yul\":2547:2565   */\n      add\n        /* \"#utility.yul\":2538:2544   */\n      dup5\n        /* \"#utility.yul\":2494:2566   */\n      tag_103\n      jump\t// in\n    tag_152:\n        /* \"#utility.yul\":2241:2573   */\n      swap4\n      swap3\n      pop\n      pop\n      pop\n      jump\t// out\n        /* \"#utility.yul\":2579:2669   */\n    tag_113:\n        /* \"#utility.yul\":2613:2620   */\n      0x00\n        /* \"#utility.yul\":2656:2661   */\n      dup2\n        /* \"#utility.yul\":2649:2662   */\n      iszero\n        /* \"#utility.yul\":2642:2663   */\n      iszero\n        /* \"#utility.yul\":2631:2663   */\n      swap1\n      pop\n        /* \"#utility.yul\":2579:2669   */\n      swap2\n      swap1\n      pop\n      jump\t// out\n        /* \"#utility.yul\":2675:2791   */\n    tag_114:\n        /* \"#utility.yul\":2745:2766   */\n      tag_155\n        /* \"#utility.yul\":2760:2765   */\n      dup2\n        /* \"#utility.yul\":2745:2766   */\n      tag_113\n      jump\t// in\n    tag_155:\n        /* \"#utility.yul\":2738:2743   */\n      dup2\n        /* \"#utility.yul\":2735:2767   */\n      eq\n        /* \"#utility.yul\":2725:2785   */\n      tag_156\n      jumpi\n        /* \"#utility.yul\":2781:2782   */\n      0x00\n        /* \"#utility.yul\":2778:2779   */\n      dup1\n        /* \"#utility.yul\":2771:2783   */\n      revert\n        /* \"#utility.yul\":2725:2785   */\n    tag_156:\n        /* \"#utility.yul\":2675:2791   */\n      pop\n      jump\t// out\n        /* \"#utility.yul\":2797:2934   */\n    tag_115:\n        /* \"#utility.yul\":2851:2856   */\n      0x00\n        /* \"#utility.yul\":2882:2888   */\n      dup2\n        /* \"#utility.yul\":2876:2889   */\n      mload\n        /* \"#utility.yul\":2867:2889   */\n      swap1\n      pop\n        /* \"#utility.yul\":2898:2928   */\n      tag_158\n        /* \"#utility.yul\":2922:2927   */\n      dup2\n        /* \"#utility.yul\":2898:2928   */\n      tag_114\n      jump\t// in\n    tag_158:\n        /* \"#utility.yul\":2797:2934   */\n      swap3\n      swap2\n      pop\n      pop\n      jump\t// out\n        /* \"#utility.yul\":2940:3285   */\n    tag_51:\n        /* \"#utility.yul\":3007:3013   */\n      0x00\n        /* \"#utility.yul\":3056:3058   */\n      0x20\n        /* \"#utility.yul\":3044:3053   */\n      dup3\n        /* \"#utility.yul\":3035:3042   */\n      dup5\n        /* \"#utility.yul\":3031:3054   */\n      sub\n        /* \"#utility.yul\":3027:3059   */\n      slt\n        /* \"#utility.yul\":3024:3143   */\n      iszero\n      tag_160\n      jumpi\n        /* \"#utility.yul\":3062:3141   */\n      tag_161\n      tag_105\n      jump\t// in\n    tag_161:\n        /* \"#utility.yul\":3024:3143   */\n    tag_160:\n        /* \"#utility.yul\":3182:3183   */\n      0x00\n        /* \"#utility.yul\":3207:3268   */\n      tag_162\n        /* \"#utility.yul\":3260:3267   */\n      dup5\n        /* \"#utility.yul\":3251:3257   */\n      dup3\n        /* \"#utility.yul\":3240:3249   */\n      dup6\n        /* \"#utility.yul\":3236:3258   */\n      add\n        /* \"#utility.yul\":3207:3268   */\n      tag_115\n      jump\t// in\n    tag_162:\n        /* \"#utility.yul\":3197:3268   */\n      swap2\n      pop\n        /* \"#utility.yul\":3153:3278   */\n      pop\n        /* \"#utility.yul\":2940:3285   */\n      swap3\n      swap2\n      pop\n      pop\n      jump\t// out\n        /* \"#utility.yul\":3291:3460   */\n    tag_116:\n        /* \"#utility.yul\":3375:3386   */\n      0x00\n        /* \"#utility.yul\":3409:3415   */\n      dup3\n        /* \"#utility.yul\":3404:3407   */\n      dup3\n        /* \"#utility.yul\":3397:3416   */\n      mstore\n        /* \"#utility.yul\":3449:3453   */\n      0x20\n        /* \"#utility.yul\":3444:3447   */\n      dup3\n        /* \"#utility.yul\":3440:3454   */\n      add\n        /* \"#utility.yul\":3425:3454   */\n      swap1\n      pop\n        /* \"#utility.yul\":3291:3460   */\n      swap3\n      swap2\n      pop\n      pop\n      jump\t// out\n        /* \"#utility.yul\":3466:3648   */\n    tag_117:\n        /* \"#utility.yul\":3606:3640   */\n      0x4f776e61626c653a2063616c6c6572206973206e6f7420746865206f776e6572\n        /* \"#utility.yul\":3602:3603   */\n      0x00\n        /* \"#utility.yul\":3594:3600   */\n      dup3\n        /* \"#utility.yul\":3590:3604   */\n      add\n        /* \"#utility.yul\":3583:3641   */\n      mstore\n        /* \"#utility.yul\":3466:3648   */\n      pop\n      jump\t// out\n        /* \"#utility.yul\":3654:4020   */\n    tag_118:\n        /* \"#utility.yul\":3796:3799   */\n      0x00\n        /* \"#utility.yul\":3817:3884   */\n      tag_166\n        /* \"#utility.yul\":3881:3883   */\n      0x20\n        /* \"#utility.yul\":3876:3879   */\n      dup4\n        /* \"#utility.yul\":3817:3884   */\n      tag_116\n      jump\t// in\n    tag_166:\n        /* \"#utility.yul\":3810:3884   */\n      swap2\n      pop\n        /* \"#utility.yul\":3893:3986   */\n      tag_167\n        /* \"#utility.yul\":3982:3985   */\n      dup3\n        /* \"#utility.yul\":3893:3986   */\n      tag_117\n      jump\t// in\n    tag_167:\n        /* \"#utility.yul\":4011:4013   */\n      0x20\n        /* \"#utility.yul\":4006:4009   */\n      dup3\n        /* \"#utility.yul\":4002:4014   */\n      add\n        /* \"#utility.yul\":3995:4014   */\n      swap1\n      pop\n        /* \"#utility.yul\":3654:4020   */\n      swap2\n      swap1\n      pop\n      jump\t// out\n        /* \"#utility.yul\":4026:4445   */\n    tag_56:\n        /* \"#utility.yul\":4192:4196   */\n      0x00\n        /* \"#utility.yul\":4230:4232   */\n      0x20\n        /* \"#utility.yul\":4219:4228   */\n      dup3\n        /* \"#utility.yul\":4215:4233   */\n      add\n        /* \"#utility.yul\":4207:4233   */\n      swap1\n      pop\n        /* \"#utility.yul\":4279:4288   */\n      dup2\n        /* \"#utility.yul\":4273:4277   */\n      dup2\n        /* \"#utility.yul\":4269:4289   */\n      sub\n        /* \"#utility.yul\":4265:4266   */\n      0x00\n        /* \"#utility.yul\":4254:4263   */\n      dup4\n        /* \"#utility.yul\":4250:4267   */\n      add\n        /* \"#utility.yul\":4243:4290   */\n      mstore\n        /* \"#utility.yul\":4307:4438   */\n      tag_169\n        /* \"#utility.yul\":4433:4437   */\n      dup2\n        /* \"#utility.yul\":4307:4438   */\n      tag_118\n      jump\t// in\n    tag_169:\n        /* \"#utility.yul\":4299:4438   */\n      swap1\n      pop\n        /* \"#utility.yul\":4026:4445   */\n      swap2\n      swap1\n      pop\n      jump\t// out\n        /* \"#utility.yul\":4451:4673   */\n    tag_62:\n        /* \"#utility.yul\":4544:4548   */\n      0x00\n        /* \"#utility.yul\":4582:4584   */\n      0x20\n        /* \"#utility.yul\":4571:4580   */\n      dup3\n        /* \"#utility.yul\":4567:4585   */\n      add\n        /* \"#utility.yul\":4559:4585   */\n      swap1\n      pop\n        /* \"#utility.yul\":4595:4666   */\n      tag_171\n        /* \"#utility.yul\":4663:4664   */\n      0x00\n        /* \"#utility.yul\":4652:4661   */\n      dup4\n        /* \"#utility.yul\":4648:4665   */\n      add\n        /* \"#utility.yul\":4639:4645   */\n      dup5\n        /* \"#utility.yul\":4595:4666   */\n      tag_112\n      jump\t// in\n    tag_171:\n        /* \"#utility.yul\":4451:4673   */\n      swap3\n      swap2\n      pop\n      pop\n      jump\t// out\n        /* \"#utility.yul\":4679:4859   */\n    tag_119:\n        /* \"#utility.yul\":4727:4804   */\n      0x4e487b7100000000000000000000000000000000000000000000000000000000\n        /* \"#utility.yul\":4724:4725   */\n      0x00\n        /* \"#utility.yul\":4717:4805   */\n      mstore\n        /* \"#utility.yul\":4824:4828   */\n      0x11\n        /* \"#utility.yul\":4821:4822   */\n      0x04\n        /* \"#utility.yul\":4814:4829   */\n      mstore\n        /* \"#utility.yul\":4848:4852   */\n      0x24\n        /* \"#utility.yul\":4845:4846   */\n      0x00\n        /* \"#utility.yul\":4838:4853   */\n      revert\n        /* \"#utility.yul\":4865:5213   */\n    tag_87:\n        /* \"#utility.yul\":4905:4912   */\n      0x00\n        /* \"#utility.yul\":4928:4948   */\n      tag_174\n        /* \"#utility.yul\":4946:4947   */\n      dup3\n        /* \"#utility.yul\":4928:4948   */\n      tag_102\n      jump\t// in\n    tag_174:\n        /* \"#utility.yul\":4923:4948   */\n      swap2\n      pop\n        /* \"#utility.yul\":4962:4982   */\n      tag_175\n        /* \"#utility.yul\":4980:4981   */\n      dup4\n        /* \"#utility.yul\":4962:4982   */\n      tag_102\n      jump\t// in\n    tag_175:\n        /* \"#utility.yul\":4957:4982   */\n      swap3\n      pop\n        /* \"#utility.yul\":5150:5151   */\n      dup2\n        /* \"#utility.yul\":5082:5148   */\n      0xffffffffffffffffffffffffffffffffffffffffffffffffffffffffffffffff\n        /* \"#utility.yul\":5078:5152   */\n      div\n        /* \"#utility.yul\":5075:5076   */\n      dup4\n        /* \"#utility.yul\":5072:5153   */\n      gt\n        /* \"#utility.yul\":5067:5068   */\n      dup3\n        /* \"#utility.yul\":5060:5069   */\n      iszero\n        /* \"#utility.yul\":5053:5070   */\n      iszero\n        /* \"#utility.yul\":5049:5154   */\n      and\n        /* \"#utility.yul\":5046:5177   */\n      iszero\n      tag_176\n      jumpi\n        /* \"#utility.yul\":5157:5175   */\n      tag_177\n      tag_119\n      jump\t// in\n    tag_177:\n        /* \"#utility.yul\":5046:5177   */\n    tag_176:\n        /* \"#utility.yul\":5205:5206   */\n      dup3\n        /* \"#utility.yul\":5202:5203   */\n      dup3\n        /* \"#utility.yul\":5198:5207   */\n      mul\n        /* \"#utility.yul\":5187:5207   */\n      swap1\n      pop\n        /* \"#utility.yul\":4865:5213   */\n      swap3\n      swap2\n      pop\n      pop\n      jump\t// out\n        /* \"#utility.yul\":5219:5399   */\n    tag_120:\n        /* \"#utility.yul\":5267:5344   */\n      0x4e487b7100000000000000000000000000000000000000000000000000000000\n        /* \"#utility.yul\":5264:5265   */\n      0x00\n        /* \"#utility.yul\":5257:5345   */\n      mstore\n        /* \"#utility.yul\":5364:5368   */\n      0x12\n        /* \"#utility.yul\":5361:5362   */\n      0x04\n        /* \"#utility.yul\":5354:5369   */\n      mstore\n        /* \"#utility.yul\":5388:5392   */\n      0x24\n        /* \"#utility.yul\":5385:5386   */\n      0x00\n        /* \"#utility.yul\":5378:5393   */\n      revert\n        /* \"#utility.yul\":5405:5590   */\n    tag_90:\n        /* \"#utility.yul\":5445:5446   */\n      0x00\n        /* \"#utility.yul\":5462:5482   */\n      tag_180\n        /* \"#utility.yul\":5480:5481   */\n      dup3\n        /* \"#utility.yul\":5462:5482   */\n      tag_102\n      jump\t// in\n    tag_180:\n        /* \"#utility.yul\":5457:5482   */\n      swap2\n      pop\n        /* \"#utility.yul\":5496:5516   */\n      tag_181\n        /* \"#utility.yul\":5514:5515   */\n      dup4\n        /* \"#utility.yul\":5496:5516   */\n      tag_102\n      jump\t// in\n    tag_181:\n        /* \"#utility.yul\":5491:5516   */\n      swap3\n      pop\n        /* \"#utility.yul\":5535:5536   */\n      dup3\n        /* \"#utility.yul\":5525:5560   */\n      tag_182\n      jumpi\n        /* \"#utility.yul\":5540:5558   */\n      tag_183\n      tag_120\n      jump\t// in\n    tag_183:\n        /* \"#utility.yul\":5525:5560   */\n    tag_182:\n        /* \"#utility.yul\":5582:5583   */\n      dup3\n        /* \"#utility.yul\":5579:5580   */\n      dup3\n        /* \"#utility.yul\":5575:5584   */\n      div\n        /* \"#utility.yul\":5570:5584   */\n      swap1\n      pop\n        /* \"#utility.yul\":5405:5590   */\n      swap3\n      swap2\n      pop\n      pop\n      jump\t// out\n        /* \"#utility.yul\":5596:5787   */\n    tag_93:\n        /* \"#utility.yul\":5636:5640   */\n      0x00\n        /* \"#utility.yul\":5656:5676   */\n      tag_185\n        /* \"#utility.yul\":5674:5675   */\n      dup3\n        /* \"#utility.yul\":5656:5676   */\n      tag_102\n      jump\t// in\n    tag_185:\n        /* \"#utility.yul\":5651:5676   */\n      swap2\n      pop\n        /* \"#utility.yul\":5690:5710   */\n      tag_186\n        /* \"#utility.yul\":5708:5709   */\n      dup4\n        /* \"#utility.yul\":5690:5710   */\n      tag_102\n      jump\t// in\n    tag_186:\n        /* \"#utility.yul\":5685:5710   */\n      swap3\n      pop\n        /* \"#utility.yul\":5729:5730   */\n      dup3\n        /* \"#utility.yul\":5726:5727   */\n      dup3\n        /* \"#utility.yul\":5723:5731   */\n      lt\n        /* \"#utility.yul\":5720:5754   */\n      iszero\n      tag_187\n      jumpi\n        /* \"#utility.yul\":5734:5752   */\n      tag_188\n      tag_119\n      jump\t// in\n    tag_188:\n        /* \"#utility.yul\":5720:5754   */\n    tag_187:\n        /* \"#utility.yul\":5779:5780   */\n      dup3\n        /* \"#utility.yul\":5776:5777   */\n      dup3\n        /* \"#utility.yul\":5772:5781   */\n      sub\n        /* \"#utility.yul\":5764:5781   */\n      swap1\n      pop\n        /* \"#utility.yul\":5596:5787   */\n      swap3\n      swap2\n      pop\n      pop\n      jump\t// out\n        /* \"#utility.yul\":5793:6098   */\n    tag_101:\n        /* \"#utility.yul\":5833:5836   */\n      0x00\n        /* \"#utility.yul\":5852:5872   */\n      tag_190\n        /* \"#utility.yul\":5870:5871   */\n      dup3\n        /* \"#utility.yul\":5852:5872   */\n      tag_102\n      jump\t// in\n    tag_190:\n        /* \"#utility.yul\":5847:5872   */\n      swap2\n      pop\n        /* \"#utility.yul\":5886:5906   */\n      tag_191\n        /* \"#utility.yul\":5904:5905   */\n      dup4\n        /* \"#utility.yul\":5886:5906   */\n      tag_102\n      jump\t// in\n    tag_191:\n        /* \"#utility.yul\":5881:5906   */\n      swap3\n      pop\n        /* \"#utility.yul\":6040:6041   */\n      dup3\n        /* \"#utility.yul\":5972:6038   */\n      0xffffffffffffffffffffffffffffffffffffffffffffffffffffffffffffffff\n        /* \"#utility.yul\":5968:6042   */\n      sub\n        /* \"#utility.yul\":5965:5966   */\n      dup3\n        /* \"#utility.yul\":5962:6043   */\n      gt\n        /* \"#utility.yul\":5959:6066   */\n      iszero\n      tag_192\n      jumpi\n        /* \"#utility.yul\":6046:6064   */\n      tag_193\n      tag_119\n      jump\t// in\n    tag_193:\n        /* \"#utility.yul\":5959:6066   */\n    tag_192:\n        /* \"#utility.yul\":6090:6091   */\n      dup3\n        /* \"#utility.yul\":6087:6088   */\n      dup3\n        /* \"#utility.yul\":6083:6092   */\n      add\n        /* \"#utility.yul\":6076:6092   */\n      swap1\n      pop\n        /* \"#utility.yul\":5793:6098   */\n      swap3\n      swap2\n      pop\n      pop\n      jump\t// out\n\n    auxdata: 0xa2646970667358221220d806a88c854a789ae4b1729970ae884696673a870d5565baffa065110731b9be64736f6c634300080d0033\n}\n",
				"bytecode": {
					"linkReferences": {},
					"object": "608060405273c77f56de066fe50c3e1564ba1cec85ac0ad663ce6000806101000a81548173ffffffffffffffffffffffffffffffffffffffff021916908373ffffffffffffffffffffffffffffffffffffffff16021790555034801561006457600080fd5b5033600160006101000a81548173ffffffffffffffffffffffffffffffffffffffff021916908373ffffffffffffffffffffffffffffffffffffffff1602179055506101f4600281905550600a600581905550610ad2806100c66000396000f3fe60806040526004361061004a5760003560e01c806342f6487a1461004f5780636bb4e283146100595780638f449a0514610084578063a7d9c57e1461008e578063e4849b32146100a5575b600080fd5b6100576100ce565b005b34801561006557600080fd5b5061006e6100e5565b60405161007b9190610707565b60405180910390f35b61008c6101b4565b005b34801561009a57600080fd5b506100a36102f3565b005b3480156100b157600080fd5b506100cc60048036038101906100c79190610753565b6103f8565b005b600034116100db57600080fd5b6100e361058e565b565b60008060008054906101000a900473ffffffffffffffffffffffffffffffffffffffff1673ffffffffffffffffffffffffffffffffffffffff166318160ddd6040518163ffffffff1660e01b8152600401602060405180830381865afa158015610153573d6000803e3d6000fd5b505050506040513d601f19601f820116820180604052508101906101779190610795565b905060006101aa8261019c600354670de0b6b3a764000061060690919063ffffffff16565b61061c90919063ffffffff16565b9050809250505090565b662386f26fc100003410156101c857600080fd5b60006101d26100e5565b90506000610203826101f534670de0b6b3a764000061060690919063ffffffff16565b61061c90919063ffffffff16565b905060006102306103e86102226005548561060690919063ffffffff16565b61061c90919063ffffffff16565b9050610245818361063290919063ffffffff16565b915060008054906101000a900473ffffffffffffffffffffffffffffffffffffffff1673ffffffffffffffffffffffffffffffffffffffff1663a9059cbb33846040518363ffffffff1660e01b81526004016102a2929190610803565b6020604051808303816000875af11580156102c1573d6000803e3d6000fd5b505050506040513d601f19601f820116820180604052508101906102e59190610864565b506102ee61058e565b505050565b3373ffffffffffffffffffffffffffffffffffffffff16600160009054906101000a900473ffffffffffffffffffffffffffffffffffffffff1673ffffffffffffffffffffffffffffffffffffffff1614610383576040517f08c379a000000000000000000000000000000000000000000000000000000000815260040161037a906108ee565b60405180910390fd5b600160009054906101000a900473ffffffffffffffffffffffffffffffffffffffff1673ffffffffffffffffffffffffffffffffffffffff166108fc6004549081150290604051600060405180830381858888f193505050501580156103ed573d6000803e3d6000fd5b506000600481905550565b8060008054906101000a900473ffffffffffffffffffffffffffffffffffffffff1673ffffffffffffffffffffffffffffffffffffffff166370a08231336040518263ffffffff1660e01b8152600401610452919061090e565b602060405180830381865afa15801561046f573d6000803e3d6000fd5b505050506040513d601f19601f820116820180604052508101906104939190610795565b101561049e57600080fd5b60006104a86100e5565b905060006104d9670de0b6b3a76400006104cb848661060690919063ffffffff16565b61061c90919063ffffffff16565b905060006105066103e86104f86005548561060690919063ffffffff16565b61061c90919063ffffffff16565b905061051b818361063290919063ffffffff16565b91503373ffffffffffffffffffffffffffffffffffffffff166108fc839081150290604051600060405180830381858888f19350505050158015610563573d6000803e3d6000fd5b506105798260035461063290919063ffffffff16565b60038190555061058884610648565b50505050565b60006105b96103e86105ab6002543461060690919063ffffffff16565b61061c90919063ffffffff16565b90506105d0816003546106d890919063ffffffff16565b6003819055506105fd6105ec823461063290919063ffffffff16565b6004546106d890919063ffffffff16565b60048190555050565b600081836106149190610958565b905092915050565b6000818361062a91906109e1565b905092915050565b600081836106409190610a12565b905092915050565b60008054906101000a900473ffffffffffffffffffffffffffffffffffffffff1673ffffffffffffffffffffffffffffffffffffffff166379cc679033836040518363ffffffff1660e01b81526004016106a3929190610803565b600060405180830381600087803b1580156106bd57600080fd5b505af11580156106d1573d6000803e3d6000fd5b5050505050565b600081836106e69190610a46565b905092915050565b6000819050919050565b610701816106ee565b82525050565b600060208201905061071c60008301846106f8565b92915050565b600080fd5b610730816106ee565b811461073b57600080fd5b50565b60008135905061074d81610727565b92915050565b60006020828403121561076957610768610722565b5b60006107778482850161073e565b91505092915050565b60008151905061078f81610727565b92915050565b6000602082840312156107ab576107aa610722565b5b60006107b984828501610780565b91505092915050565b600073ffffffffffffffffffffffffffffffffffffffff82169050919050565b60006107ed826107c2565b9050919050565b6107fd816107e2565b82525050565b600060408201905061081860008301856107f4565b61082560208301846106f8565b9392505050565b60008115159050919050565b6108418161082c565b811461084c57600080fd5b50565b60008151905061085e81610838565b92915050565b60006020828403121561087a57610879610722565b5b60006108888482850161084f565b91505092915050565b600082825260208201905092915050565b7f4f776e61626c653a2063616c6c6572206973206e6f7420746865206f776e6572600082015250565b60006108d8602083610891565b91506108e3826108a2565b602082019050919050565b60006020820190508181036000830152610907816108cb565b9050919050565b600060208201905061092360008301846107f4565b92915050565b7f4e487b7100000000000000000000000000000000000000000000000000000000600052601160045260246000fd5b6000610963826106ee565b915061096e836106ee565b9250817fffffffffffffffffffffffffffffffffffffffffffffffffffffffffffffffff04831182151516156109a7576109a6610929565b5b828202905092915050565b7f4e487b7100000000000000000000000000000000000000000000000000000000600052601260045260246000fd5b60006109ec826106ee565b91506109f7836106ee565b925082610a0757610a066109b2565b5b828204905092915050565b6000610a1d826106ee565b9150610a28836106ee565b925082821015610a3b57610a3a610929565b5b828203905092915050565b6000610a51826106ee565b9150610a5c836106ee565b9250827fffffffffffffffffffffffffffffffffffffffffffffffffffffffffffffffff03821115610a9157610a90610929565b5b82820190509291505056fea2646970667358221220d806a88c854a789ae4b1729970ae884696673a870d5565baffa065110731b9be64736f6c634300080d0033",
					"opcodes": "PUSH1 0x80 PUSH1 0x40 MSTORE PUSH20 0xC77F56DE066FE50C3E1564BA1CEC85AC0AD663CE PUSH1 0x0 DUP1 PUSH2 0x100 EXP DUP2 SLOAD DUP2 PUSH20 0xFFFFFFFFFFFFFFFFFFFFFFFFFFFFFFFFFFFFFFFF MUL NOT AND SWAP1 DUP4 PUSH20 0xFFFFFFFFFFFFFFFFFFFFFFFFFFFFFFFFFFFFFFFF AND MUL OR SWAP1 SSTORE POP CALLVALUE DUP1 ISZERO PUSH2 0x64 JUMPI PUSH1 0x0 DUP1 REVERT JUMPDEST POP CALLER PUSH1 0x1 PUSH1 0x0 PUSH2 0x100 EXP DUP2 SLOAD DUP2 PUSH20 0xFFFFFFFFFFFFFFFFFFFFFFFFFFFFFFFFFFFFFFFF MUL NOT AND SWAP1 DUP4 PUSH20 0xFFFFFFFFFFFFFFFFFFFFFFFFFFFFFFFFFFFFFFFF AND MUL OR SWAP1 SSTORE POP PUSH2 0x1F4 PUSH1 0x2 DUP2 SWAP1 SSTORE POP PUSH1 0xA PUSH1 0x5 DUP2 SWAP1 SSTORE POP PUSH2 0xAD2 DUP1 PUSH2 0xC6 PUSH1 0x0 CODECOPY PUSH1 0x0 RETURN INVALID PUSH1 0x80 PUSH1 0x40 MSTORE PUSH1 0x4 CALLDATASIZE LT PUSH2 0x4A JUMPI PUSH1 0x0 CALLDATALOAD PUSH1 0xE0 SHR DUP1 PUSH4 0x42F6487A EQ PUSH2 0x4F JUMPI DUP1 PUSH4 0x6BB4E283 EQ PUSH2 0x59 JUMPI DUP1 PUSH4 0x8F449A05 EQ PUSH2 0x84 JUMPI DUP1 PUSH4 0xA7D9C57E EQ PUSH2 0x8E JUMPI DUP1 PUSH4 0xE4849B32 EQ PUSH2 0xA5 JUMPI JUMPDEST PUSH1 0x0 DUP1 REVERT JUMPDEST PUSH2 0x57 PUSH2 0xCE JUMP JUMPDEST STOP JUMPDEST CALLVALUE DUP1 ISZERO PUSH2 0x65 JUMPI PUSH1 0x0 DUP1 REVERT JUMPDEST POP PUSH2 0x6E PUSH2 0xE5 JUMP JUMPDEST PUSH1 0x40 MLOAD PUSH2 0x7B SWAP2 SWAP1 PUSH2 0x707 JUMP JUMPDEST PUSH1 0x40 MLOAD DUP1 SWAP2 SUB SWAP1 RETURN JUMPDEST PUSH2 0x8C PUSH2 0x1B4 JUMP JUMPDEST STOP JUMPDEST CALLVALUE DUP1 ISZERO PUSH2 0x9A JUMPI PUSH1 0x0 DUP1 REVERT JUMPDEST POP PUSH2 0xA3 PUSH2 0x2F3 JUMP JUMPDEST STOP JUMPDEST CALLVALUE DUP1 ISZERO PUSH2 0xB1 JUMPI PUSH1 0x0 DUP1 REVERT JUMPDEST POP PUSH2 0xCC PUSH1 0x4 DUP1 CALLDATASIZE SUB DUP2 ADD SWAP1 PUSH2 0xC7 SWAP2 SWAP1 PUSH2 0x753 JUMP JUMPDEST PUSH2 0x3F8 JUMP JUMPDEST STOP JUMPDEST PUSH1 0x0 CALLVALUE GT PUSH2 0xDB JUMPI PUSH1 0x0 DUP1 REVERT JUMPDEST PUSH2 0xE3 PUSH2 0x58E JUMP JUMPDEST JUMP JUMPDEST PUSH1 0x0 DUP1 PUSH1 0x0 DUP1 SLOAD SWAP1 PUSH2 0x100 EXP SWAP1 DIV PUSH20 0xFFFFFFFFFFFFFFFFFFFFFFFFFFFFFFFFFFFFFFFF AND PUSH20 0xFFFFFFFFFFFFFFFFFFFFFFFFFFFFFFFFFFFFFFFF AND PUSH4 0x18160DDD PUSH1 0x40 MLOAD DUP2 PUSH4 0xFFFFFFFF AND PUSH1 0xE0 SHL DUP2 MSTORE PUSH1 0x4 ADD PUSH1 0x20 PUSH1 0x40 MLOAD DUP1 DUP4 SUB DUP2 DUP7 GAS STATICCALL ISZERO DUP1 ISZERO PUSH2 0x153 JUMPI RETURNDATASIZE PUSH1 0x0 DUP1 RETURNDATACOPY RETURNDATASIZE PUSH1 0x0 REVERT JUMPDEST POP POP POP POP PUSH1 0x40 MLOAD RETURNDATASIZE PUSH1 0x1F NOT PUSH1 0x1F DUP3 ADD AND DUP3 ADD DUP1 PUSH1 0x40 MSTORE POP DUP2 ADD SWAP1 PUSH2 0x177 SWAP2 SWAP1 PUSH2 0x795 JUMP JUMPDEST SWAP1 POP PUSH1 0x0 PUSH2 0x1AA DUP3 PUSH2 0x19C PUSH1 0x3 SLOAD PUSH8 0xDE0B6B3A7640000 PUSH2 0x606 SWAP1 SWAP2 SWAP1 PUSH4 0xFFFFFFFF AND JUMP JUMPDEST PUSH2 0x61C SWAP1 SWAP2 SWAP1 PUSH4 0xFFFFFFFF AND JUMP JUMPDEST SWAP1 POP DUP1 SWAP3 POP POP POP SWAP1 JUMP JUMPDEST PUSH7 0x2386F26FC10000 CALLVALUE LT ISZERO PUSH2 0x1C8 JUMPI PUSH1 0x0 DUP1 REVERT JUMPDEST PUSH1 0x0 PUSH2 0x1D2 PUSH2 0xE5 JUMP JUMPDEST SWAP1 POP PUSH1 0x0 PUSH2 0x203 DUP3 PUSH2 0x1F5 CALLVALUE PUSH8 0xDE0B6B3A7640000 PUSH2 0x606 SWAP1 SWAP2 SWAP1 PUSH4 0xFFFFFFFF AND JUMP JUMPDEST PUSH2 0x61C SWAP1 SWAP2 SWAP1 PUSH4 0xFFFFFFFF AND JUMP JUMPDEST SWAP1 POP PUSH1 0x0 PUSH2 0x230 PUSH2 0x3E8 PUSH2 0x222 PUSH1 0x5 SLOAD DUP6 PUSH2 0x606 SWAP1 SWAP2 SWAP1 PUSH4 0xFFFFFFFF AND JUMP JUMPDEST PUSH2 0x61C SWAP1 SWAP2 SWAP1 PUSH4 0xFFFFFFFF AND JUMP JUMPDEST SWAP1 POP PUSH2 0x245 DUP2 DUP4 PUSH2 0x632 SWAP1 SWAP2 SWAP1 PUSH4 0xFFFFFFFF AND JUMP JUMPDEST SWAP2 POP PUSH1 0x0 DUP1 SLOAD SWAP1 PUSH2 0x100 EXP SWAP1 DIV PUSH20 0xFFFFFFFFFFFFFFFFFFFFFFFFFFFFFFFFFFFFFFFF AND PUSH20 0xFFFFFFFFFFFFFFFFFFFFFFFFFFFFFFFFFFFFFFFF AND PUSH4 0xA9059CBB CALLER DUP5 PUSH1 0x40 MLOAD DUP4 PUSH4 0xFFFFFFFF AND PUSH1 0xE0 SHL DUP2 MSTORE PUSH1 0x4 ADD PUSH2 0x2A2 SWAP3 SWAP2 SWAP1 PUSH2 0x803 JUMP JUMPDEST PUSH1 0x20 PUSH1 0x40 MLOAD DUP1 DUP4 SUB DUP2 PUSH1 0x0 DUP8 GAS CALL ISZERO DUP1 ISZERO PUSH2 0x2C1 JUMPI RETURNDATASIZE PUSH1 0x0 DUP1 RETURNDATACOPY RETURNDATASIZE PUSH1 0x0 REVERT JUMPDEST POP POP POP POP PUSH1 0x40 MLOAD RETURNDATASIZE PUSH1 0x1F NOT PUSH1 0x1F DUP3 ADD AND DUP3 ADD DUP1 PUSH1 0x40 MSTORE POP DUP2 ADD SWAP1 PUSH2 0x2E5 SWAP2 SWAP1 PUSH2 0x864 JUMP JUMPDEST POP PUSH2 0x2EE PUSH2 0x58E JUMP JUMPDEST POP POP POP JUMP JUMPDEST CALLER PUSH20 0xFFFFFFFFFFFFFFFFFFFFFFFFFFFFFFFFFFFFFFFF AND PUSH1 0x1 PUSH1 0x0 SWAP1 SLOAD SWAP1 PUSH2 0x100 EXP SWAP1 DIV PUSH20 0xFFFFFFFFFFFFFFFFFFFFFFFFFFFFFFFFFFFFFFFF AND PUSH20 0xFFFFFFFFFFFFFFFFFFFFFFFFFFFFFFFFFFFFFFFF AND EQ PUSH2 0x383 JUMPI PUSH1 0x40 MLOAD PUSH32 0x8C379A000000000000000000000000000000000000000000000000000000000 DUP2 MSTORE PUSH1 0x4 ADD PUSH2 0x37A SWAP1 PUSH2 0x8EE JUMP JUMPDEST PUSH1 0x40 MLOAD DUP1 SWAP2 SUB SWAP1 REVERT JUMPDEST PUSH1 0x1 PUSH1 0x0 SWAP1 SLOAD SWAP1 PUSH2 0x100 EXP SWAP1 DIV PUSH20 0xFFFFFFFFFFFFFFFFFFFFFFFFFFFFFFFFFFFFFFFF AND PUSH20 0xFFFFFFFFFFFFFFFFFFFFFFFFFFFFFFFFFFFFFFFF AND PUSH2 0x8FC PUSH1 0x4 SLOAD SWAP1 DUP2 ISZERO MUL SWAP1 PUSH1 0x40 MLOAD PUSH1 0x0 PUSH1 0x40 MLOAD DUP1 DUP4 SUB DUP2 DUP6 DUP9 DUP9 CALL SWAP4 POP POP POP POP ISZERO DUP1 ISZERO PUSH2 0x3ED JUMPI RETURNDATASIZE PUSH1 0x0 DUP1 RETURNDATACOPY RETURNDATASIZE PUSH1 0x0 REVERT JUMPDEST POP PUSH1 0x0 PUSH1 0x4 DUP2 SWAP1 SSTORE POP JUMP JUMPDEST DUP1 PUSH1 0x0 DUP1 SLOAD SWAP1 PUSH2 0x100 EXP SWAP1 DIV PUSH20 0xFFFFFFFFFFFFFFFFFFFFFFFFFFFFFFFFFFFFFFFF AND PUSH20 0xFFFFFFFFFFFFFFFFFFFFFFFFFFFFFFFFFFFFFFFF AND PUSH4 0x70A08231 CALLER PUSH1 0x40 MLOAD DUP3 PUSH4 0xFFFFFFFF AND PUSH1 0xE0 SHL DUP2 MSTORE PUSH1 0x4 ADD PUSH2 0x452 SWAP2 SWAP1 PUSH2 0x90E JUMP JUMPDEST PUSH1 0x20 PUSH1 0x40 MLOAD DUP1 DUP4 SUB DUP2 DUP7 GAS STATICCALL ISZERO DUP1 ISZERO PUSH2 0x46F JUMPI RETURNDATASIZE PUSH1 0x0 DUP1 RETURNDATACOPY RETURNDATASIZE PUSH1 0x0 REVERT JUMPDEST POP POP POP POP PUSH1 0x40 MLOAD RETURNDATASIZE PUSH1 0x1F NOT PUSH1 0x1F DUP3 ADD AND DUP3 ADD DUP1 PUSH1 0x40 MSTORE POP DUP2 ADD SWAP1 PUSH2 0x493 SWAP2 SWAP1 PUSH2 0x795 JUMP JUMPDEST LT ISZERO PUSH2 0x49E JUMPI PUSH1 0x0 DUP1 REVERT JUMPDEST PUSH1 0x0 PUSH2 0x4A8 PUSH2 0xE5 JUMP JUMPDEST SWAP1 POP PUSH1 0x0 PUSH2 0x4D9 PUSH8 0xDE0B6B3A7640000 PUSH2 0x4CB DUP5 DUP7 PUSH2 0x606 SWAP1 SWAP2 SWAP1 PUSH4 0xFFFFFFFF AND JUMP JUMPDEST PUSH2 0x61C SWAP1 SWAP2 SWAP1 PUSH4 0xFFFFFFFF AND JUMP JUMPDEST SWAP1 POP PUSH1 0x0 PUSH2 0x506 PUSH2 0x3E8 PUSH2 0x4F8 PUSH1 0x5 SLOAD DUP6 PUSH2 0x606 SWAP1 SWAP2 SWAP1 PUSH4 0xFFFFFFFF AND JUMP JUMPDEST PUSH2 0x61C SWAP1 SWAP2 SWAP1 PUSH4 0xFFFFFFFF AND JUMP JUMPDEST SWAP1 POP PUSH2 0x51B DUP2 DUP4 PUSH2 0x632 SWAP1 SWAP2 SWAP1 PUSH4 0xFFFFFFFF AND JUMP JUMPDEST SWAP2 POP CALLER PUSH20 0xFFFFFFFFFFFFFFFFFFFFFFFFFFFFFFFFFFFFFFFF AND PUSH2 0x8FC DUP4 SWAP1 DUP2 ISZERO MUL SWAP1 PUSH1 0x40 MLOAD PUSH1 0x0 PUSH1 0x40 MLOAD DUP1 DUP4 SUB DUP2 DUP6 DUP9 DUP9 CALL SWAP4 POP POP POP POP ISZERO DUP1 ISZERO PUSH2 0x563 JUMPI RETURNDATASIZE PUSH1 0x0 DUP1 RETURNDATACOPY RETURNDATASIZE PUSH1 0x0 REVERT JUMPDEST POP PUSH2 0x579 DUP3 PUSH1 0x3 SLOAD PUSH2 0x632 SWAP1 SWAP2 SWAP1 PUSH4 0xFFFFFFFF AND JUMP JUMPDEST PUSH1 0x3 DUP2 SWAP1 SSTORE POP PUSH2 0x588 DUP5 PUSH2 0x648 JUMP JUMPDEST POP POP POP POP JUMP JUMPDEST PUSH1 0x0 PUSH2 0x5B9 PUSH2 0x3E8 PUSH2 0x5AB PUSH1 0x2 SLOAD CALLVALUE PUSH2 0x606 SWAP1 SWAP2 SWAP1 PUSH4 0xFFFFFFFF AND JUMP JUMPDEST PUSH2 0x61C SWAP1 SWAP2 SWAP1 PUSH4 0xFFFFFFFF AND JUMP JUMPDEST SWAP1 POP PUSH2 0x5D0 DUP2 PUSH1 0x3 SLOAD PUSH2 0x6D8 SWAP1 SWAP2 SWAP1 PUSH4 0xFFFFFFFF AND JUMP JUMPDEST PUSH1 0x3 DUP2 SWAP1 SSTORE POP PUSH2 0x5FD PUSH2 0x5EC DUP3 CALLVALUE PUSH2 0x632 SWAP1 SWAP2 SWAP1 PUSH4 0xFFFFFFFF AND JUMP JUMPDEST PUSH1 0x4 SLOAD PUSH2 0x6D8 SWAP1 SWAP2 SWAP1 PUSH4 0xFFFFFFFF AND JUMP JUMPDEST PUSH1 0x4 DUP2 SWAP1 SSTORE POP POP JUMP JUMPDEST PUSH1 0x0 DUP2 DUP4 PUSH2 0x614 SWAP2 SWAP1 PUSH2 0x958 JUMP JUMPDEST SWAP1 POP SWAP3 SWAP2 POP POP JUMP JUMPDEST PUSH1 0x0 DUP2 DUP4 PUSH2 0x62A SWAP2 SWAP1 PUSH2 0x9E1 JUMP JUMPDEST SWAP1 POP SWAP3 SWAP2 POP POP JUMP JUMPDEST PUSH1 0x0 DUP2 DUP4 PUSH2 0x640 SWAP2 SWAP1 PUSH2 0xA12 JUMP JUMPDEST SWAP1 POP SWAP3 SWAP2 POP POP JUMP JUMPDEST PUSH1 0x0 DUP1 SLOAD SWAP1 PUSH2 0x100 EXP SWAP1 DIV PUSH20 0xFFFFFFFFFFFFFFFFFFFFFFFFFFFFFFFFFFFFFFFF AND PUSH20 0xFFFFFFFFFFFFFFFFFFFFFFFFFFFFFFFFFFFFFFFF AND PUSH4 0x79CC6790 CALLER DUP4 PUSH1 0x40 MLOAD DUP4 PUSH4 0xFFFFFFFF AND PUSH1 0xE0 SHL DUP2 MSTORE PUSH1 0x4 ADD PUSH2 0x6A3 SWAP3 SWAP2 SWAP1 PUSH2 0x803 JUMP JUMPDEST PUSH1 0x0 PUSH1 0x40 MLOAD DUP1 DUP4 SUB DUP2 PUSH1 0x0 DUP8 DUP1 EXTCODESIZE ISZERO DUP1 ISZERO PUSH2 0x6BD JUMPI PUSH1 0x0 DUP1 REVERT JUMPDEST POP GAS CALL ISZERO DUP1 ISZERO PUSH2 0x6D1 JUMPI RETURNDATASIZE PUSH1 0x0 DUP1 RETURNDATACOPY RETURNDATASIZE PUSH1 0x0 REVERT JUMPDEST POP POP POP POP POP JUMP JUMPDEST PUSH1 0x0 DUP2 DUP4 PUSH2 0x6E6 SWAP2 SWAP1 PUSH2 0xA46 JUMP JUMPDEST SWAP1 POP SWAP3 SWAP2 POP POP JUMP JUMPDEST PUSH1 0x0 DUP2 SWAP1 POP SWAP2 SWAP1 POP JUMP JUMPDEST PUSH2 0x701 DUP2 PUSH2 0x6EE JUMP JUMPDEST DUP3 MSTORE POP POP JUMP JUMPDEST PUSH1 0x0 PUSH1 0x20 DUP3 ADD SWAP1 POP PUSH2 0x71C PUSH1 0x0 DUP4 ADD DUP5 PUSH2 0x6F8 JUMP JUMPDEST SWAP3 SWAP2 POP POP JUMP JUMPDEST PUSH1 0x0 DUP1 REVERT JUMPDEST PUSH2 0x730 DUP2 PUSH2 0x6EE JUMP JUMPDEST DUP2 EQ PUSH2 0x73B JUMPI PUSH1 0x0 DUP1 REVERT JUMPDEST POP JUMP JUMPDEST PUSH1 0x0 DUP2 CALLDATALOAD SWAP1 POP PUSH2 0x74D DUP2 PUSH2 0x727 JUMP JUMPDEST SWAP3 SWAP2 POP POP JUMP JUMPDEST PUSH1 0x0 PUSH1 0x20 DUP3 DUP5 SUB SLT ISZERO PUSH2 0x769 JUMPI PUSH2 0x768 PUSH2 0x722 JUMP JUMPDEST JUMPDEST PUSH1 0x0 PUSH2 0x777 DUP5 DUP3 DUP6 ADD PUSH2 0x73E JUMP JUMPDEST SWAP2 POP POP SWAP3 SWAP2 POP POP JUMP JUMPDEST PUSH1 0x0 DUP2 MLOAD SWAP1 POP PUSH2 0x78F DUP2 PUSH2 0x727 JUMP JUMPDEST SWAP3 SWAP2 POP POP JUMP JUMPDEST PUSH1 0x0 PUSH1 0x20 DUP3 DUP5 SUB SLT ISZERO PUSH2 0x7AB JUMPI PUSH2 0x7AA PUSH2 0x722 JUMP JUMPDEST JUMPDEST PUSH1 0x0 PUSH2 0x7B9 DUP5 DUP3 DUP6 ADD PUSH2 0x780 JUMP JUMPDEST SWAP2 POP POP SWAP3 SWAP2 POP POP JUMP JUMPDEST PUSH1 0x0 PUSH20 0xFFFFFFFFFFFFFFFFFFFFFFFFFFFFFFFFFFFFFFFF DUP3 AND SWAP1 POP SWAP2 SWAP1 POP JUMP JUMPDEST PUSH1 0x0 PUSH2 0x7ED DUP3 PUSH2 0x7C2 JUMP JUMPDEST SWAP1 POP SWAP2 SWAP1 POP JUMP JUMPDEST PUSH2 0x7FD DUP2 PUSH2 0x7E2 JUMP JUMPDEST DUP3 MSTORE POP POP JUMP JUMPDEST PUSH1 0x0 PUSH1 0x40 DUP3 ADD SWAP1 POP PUSH2 0x818 PUSH1 0x0 DUP4 ADD DUP6 PUSH2 0x7F4 JUMP JUMPDEST PUSH2 0x825 PUSH1 0x20 DUP4 ADD DUP5 PUSH2 0x6F8 JUMP JUMPDEST SWAP4 SWAP3 POP POP POP JUMP JUMPDEST PUSH1 0x0 DUP2 ISZERO ISZERO SWAP1 POP SWAP2 SWAP1 POP JUMP JUMPDEST PUSH2 0x841 DUP2 PUSH2 0x82C JUMP JUMPDEST DUP2 EQ PUSH2 0x84C JUMPI PUSH1 0x0 DUP1 REVERT JUMPDEST POP JUMP JUMPDEST PUSH1 0x0 DUP2 MLOAD SWAP1 POP PUSH2 0x85E DUP2 PUSH2 0x838 JUMP JUMPDEST SWAP3 SWAP2 POP POP JUMP JUMPDEST PUSH1 0x0 PUSH1 0x20 DUP3 DUP5 SUB SLT ISZERO PUSH2 0x87A JUMPI PUSH2 0x879 PUSH2 0x722 JUMP JUMPDEST JUMPDEST PUSH1 0x0 PUSH2 0x888 DUP5 DUP3 DUP6 ADD PUSH2 0x84F JUMP JUMPDEST SWAP2 POP POP SWAP3 SWAP2 POP POP JUMP JUMPDEST PUSH1 0x0 DUP3 DUP3 MSTORE PUSH1 0x20 DUP3 ADD SWAP1 POP SWAP3 SWAP2 POP POP JUMP JUMPDEST PUSH32 0x4F776E61626C653A2063616C6C6572206973206E6F7420746865206F776E6572 PUSH1 0x0 DUP3 ADD MSTORE POP JUMP JUMPDEST PUSH1 0x0 PUSH2 0x8D8 PUSH1 0x20 DUP4 PUSH2 0x891 JUMP JUMPDEST SWAP2 POP PUSH2 0x8E3 DUP3 PUSH2 0x8A2 JUMP JUMPDEST PUSH1 0x20 DUP3 ADD SWAP1 POP SWAP2 SWAP1 POP JUMP JUMPDEST PUSH1 0x0 PUSH1 0x20 DUP3 ADD SWAP1 POP DUP2 DUP2 SUB PUSH1 0x0 DUP4 ADD MSTORE PUSH2 0x907 DUP2 PUSH2 0x8CB JUMP JUMPDEST SWAP1 POP SWAP2 SWAP1 POP JUMP JUMPDEST PUSH1 0x0 PUSH1 0x20 DUP3 ADD SWAP1 POP PUSH2 0x923 PUSH1 0x0 DUP4 ADD DUP5 PUSH2 0x7F4 JUMP JUMPDEST SWAP3 SWAP2 POP POP JUMP JUMPDEST PUSH32 0x4E487B7100000000000000000000000000000000000000000000000000000000 PUSH1 0x0 MSTORE PUSH1 0x11 PUSH1 0x4 MSTORE PUSH1 0x24 PUSH1 0x0 REVERT JUMPDEST PUSH1 0x0 PUSH2 0x963 DUP3 PUSH2 0x6EE JUMP JUMPDEST SWAP2 POP PUSH2 0x96E DUP4 PUSH2 0x6EE JUMP JUMPDEST SWAP3 POP DUP2 PUSH32 0xFFFFFFFFFFFFFFFFFFFFFFFFFFFFFFFFFFFFFFFFFFFFFFFFFFFFFFFFFFFFFFFF DIV DUP4 GT DUP3 ISZERO ISZERO AND ISZERO PUSH2 0x9A7 JUMPI PUSH2 0x9A6 PUSH2 0x929 JUMP JUMPDEST JUMPDEST DUP3 DUP3 MUL SWAP1 POP SWAP3 SWAP2 POP POP JUMP JUMPDEST PUSH32 0x4E487B7100000000000000000000000000000000000000000000000000000000 PUSH1 0x0 MSTORE PUSH1 0x12 PUSH1 0x4 MSTORE PUSH1 0x24 PUSH1 0x0 REVERT JUMPDEST PUSH1 0x0 PUSH2 0x9EC DUP3 PUSH2 0x6EE JUMP JUMPDEST SWAP2 POP PUSH2 0x9F7 DUP4 PUSH2 0x6EE JUMP JUMPDEST SWAP3 POP DUP3 PUSH2 0xA07 JUMPI PUSH2 0xA06 PUSH2 0x9B2 JUMP JUMPDEST JUMPDEST DUP3 DUP3 DIV SWAP1 POP SWAP3 SWAP2 POP POP JUMP JUMPDEST PUSH1 0x0 PUSH2 0xA1D DUP3 PUSH2 0x6EE JUMP JUMPDEST SWAP2 POP PUSH2 0xA28 DUP4 PUSH2 0x6EE JUMP JUMPDEST SWAP3 POP DUP3 DUP3 LT ISZERO PUSH2 0xA3B JUMPI PUSH2 0xA3A PUSH2 0x929 JUMP JUMPDEST JUMPDEST DUP3 DUP3 SUB SWAP1 POP SWAP3 SWAP2 POP POP JUMP JUMPDEST PUSH1 0x0 PUSH2 0xA51 DUP3 PUSH2 0x6EE JUMP JUMPDEST SWAP2 POP PUSH2 0xA5C DUP4 PUSH2 0x6EE JUMP JUMPDEST SWAP3 POP DUP3 PUSH32 0xFFFFFFFFFFFFFFFFFFFFFFFFFFFFFFFFFFFFFFFFFFFFFFFFFFFFFFFFFFFFFFFF SUB DUP3 GT ISZERO PUSH2 0xA91 JUMPI PUSH2 0xA90 PUSH2 0x929 JUMP JUMPDEST JUMPDEST DUP3 DUP3 ADD SWAP1 POP SWAP3 SWAP2 POP POP JUMP INVALID LOG2 PUSH5 0x6970667358 0x22 SLT KECCAK256 0xD8 MOD 0xA8 DUP13 DUP6 0x4A PUSH25 0x9AE4B1729970AE884696673A870D5565BAFFA065110731B9BE PUSH5 0x736F6C6343 STOP ADDMOD 0xD STOP CALLER "
				},
				"gasEstimates": {
					"creation": {
						"codeDepositCost": "554000",
						"executionCost": "93348",
						"totalCost": "647348"
					},
					"external": {
						"dcfPrice()": "infinite",
						"payment()": "infinite",
						"publicWorks()": "infinite",
						"sell(uint256)": "infinite",
						"subscribe()": "infinite"
					},
					"internal": {
						"allocation()": "infinite",
						"burn(uint256)": "infinite"
					}
				},
				"methodIdentifiers": {
					"dcfPrice()": "6bb4e283",
					"payment()": "42f6487a",
					"publicWorks()": "a7d9c57e",
					"sell(uint256)": "e4849b32",
					"subscribe()": "8f449a05"
				}
			},
			"userdoc": {
				"kind": "user",
				"methods": {},
				"version": 1
			}
		}
	}
}