{
	"Dcoffer/treasury.sol": {
		"treasury": {
			"abi": [
				{
					"inputs": [],
					"stateMutability": "nonpayable",
					"type": "constructor"
				},
				{
					"inputs": [],
					"name": "MineDcoff",
					"outputs": [],
					"stateMutability": "nonpayable",
					"type": "function"
				},
				{
					"inputs": [],
					"name": "ViewGetDCF",
					"outputs": [
						{
							"internalType": "uint256",
							"name": "",
							"type": "uint256"
						}
					],
					"stateMutability": "view",
					"type": "function"
				}
			],
			"devdoc": {
				"kind": "dev",
				"methods": {},
				"version": 1
			},
			"evm": {
				"assembly": "    /* \"Dcoffer/treasury.sol\":206:951  contract treasury  {... */\n  mstore(0x40, 0x80)\n    /* \"Dcoffer/treasury.sol\":277:319  0x6a544367FCa7064B6ADA5dc87F7E5058A9bB7Af9 */\n  0x6a544367fca7064b6ada5dc87f7e5058a9bb7af9\n    /* \"Dcoffer/treasury.sol\":260:320  IDCF mine = IDCF(0x6a544367FCa7064B6ADA5dc87F7E5058A9bB7Af9) */\n  0x00\n  dup1\n  0x0100\n  exp\n  dup2\n  sload\n  dup2\n  0xffffffffffffffffffffffffffffffffffffffff\n  mul\n  not\n  and\n  swap1\n  dup4\n  0xffffffffffffffffffffffffffffffffffffffff\n  and\n  mul\n  or\n  swap1\n  sstore\n  pop\n    /* \"Dcoffer/treasury.sol\":348:390  0xbE0C856e2981b9f03d7613566DFC6679eEe4708A */\n  0xbe0c856e2981b9f03d7613566dfc6679eee4708a\n    /* \"Dcoffer/treasury.sol\":325:391  IERC20 dcoff =  IERC20(0xbE0C856e2981b9f03d7613566DFC6679eEe4708A) */\n  0x01\n  exp(0x0100, 0x00)\n  dup2\n  sload\n  dup2\n  0xffffffffffffffffffffffffffffffffffffffff\n  mul\n  not\n  and\n  swap1\n  dup4\n  0xffffffffffffffffffffffffffffffffffffffff\n  and\n  mul\n  or\n  swap1\n  sstore\n  pop\n    /* \"Dcoffer/treasury.sol\":483:529  constructor(){... */\n  callvalue\n  dup1\n  iszero\n  tag_1\n  jumpi\n  0x00\n  dup1\n  revert\ntag_1:\n  pop\n    /* \"Dcoffer/treasury.sol\":519:523  2e14 */\n  0xb5e620f48000\n    /* \"Dcoffer/treasury.sol\":503:516  DcoffperBlock */\n  0x02\n    /* \"Dcoffer/treasury.sol\":503:523  DcoffperBlock = 2e14 */\n  dup2\n  swap1\n  sstore\n  pop\n    /* \"Dcoffer/treasury.sol\":206:951  contract treasury  {... */\n  dataSize(sub_0)\n  dup1\n  dataOffset(sub_0)\n  0x00\n  codecopy\n  0x00\n  return\nstop\n\nsub_0: assembly {\n        /* \"Dcoffer/treasury.sol\":206:951  contract treasury  {... */\n      mstore(0x40, 0x80)\n      callvalue\n      dup1\n      iszero\n      tag_1\n      jumpi\n      0x00\n      dup1\n      revert\n    tag_1:\n      pop\n      jumpi(tag_2, lt(calldatasize, 0x04))\n      shr(0xe0, calldataload(0x00))\n      dup1\n      0x8766c383\n      eq\n      tag_3\n      jumpi\n      dup1\n      0x8bed4778\n      eq\n      tag_4\n      jumpi\n    tag_2:\n      0x00\n      dup1\n      revert\n        /* \"Dcoffer/treasury.sol\":879:942  function ViewGetDCF()external view returns(uint256){... */\n    tag_3:\n      tag_5\n      tag_6\n      jump\t// in\n    tag_5:\n      mload(0x40)\n      tag_7\n      swap2\n      swap1\n      tag_8\n      jump\t// in\n    tag_7:\n      mload(0x40)\n      dup1\n      swap2\n      sub\n      swap1\n      return\n        /* \"Dcoffer/treasury.sol\":537:867  function MineDcoff()external{... */\n    tag_4:\n      tag_9\n      tag_10\n      jump\t// in\n    tag_9:\n      stop\n        /* \"Dcoffer/treasury.sol\":879:942  function ViewGetDCF()external view returns(uint256){... */\n    tag_6:\n        /* \"Dcoffer/treasury.sol\":922:929  uint256 */\n      0x00\n        /* \"Dcoffer/treasury.sol\":879:942  function ViewGetDCF()external view returns(uint256){... */\n      swap1\n      jump\t// out\n        /* \"Dcoffer/treasury.sol\":537:867  function MineDcoff()external{... */\n    tag_10:\n        /* \"Dcoffer/treasury.sol\":574:587  uint256 Score */\n      0x00\n        /* \"Dcoffer/treasury.sol\":590:594  mine */\n      dup1\n      0x00\n      swap1\n      sload\n      swap1\n      0x0100\n      exp\n      swap1\n      div\n      0xffffffffffffffffffffffffffffffffffffffff\n      and\n        /* \"Dcoffer/treasury.sol\":590:605  mine.BlockScore */\n      0xffffffffffffffffffffffffffffffffffffffff\n      and\n      0x325b272a\n        /* \"Dcoffer/treasury.sol\":606:616  msg.sender */\n      caller\n        /* \"Dcoffer/treasury.sol\":590:617  mine.BlockScore(msg.sender) */\n      mload(0x40)\n      dup3\n      0xffffffff\n      and\n      0xe0\n      shl\n      dup2\n      mstore\n      0x04\n      add\n      tag_13\n      swap2\n      swap1\n      tag_14\n      jump\t// in\n    tag_13:\n      0x20\n      mload(0x40)\n      dup1\n      dup4\n      sub\n      dup2\n      dup7\n      gas\n      staticcall\n      iszero\n      dup1\n      iszero\n      tag_16\n      jumpi\n      returndatasize\n      0x00\n      dup1\n      returndatacopy\n      revert(0x00, returndatasize)\n    tag_16:\n      pop\n      pop\n      pop\n      pop\n      mload(0x40)\n      returndatasize\n      not(0x1f)\n      0x1f\n      dup3\n      add\n      and\n      dup3\n      add\n      dup1\n      0x40\n      mstore\n      pop\n      dup2\n      add\n      swap1\n      tag_17\n      swap2\n      swap1\n      tag_18\n      jump\t// in\n    tag_17:\n        /* \"Dcoffer/treasury.sol\":574:617  uint256 Score = mine.BlockScore(msg.sender) */\n      swap1\n      pop\n        /* \"Dcoffer/treasury.sol\":626:644  uint256 afterScore */\n      0x00\n        /* \"Dcoffer/treasury.sol\":647:684  Score.sub(ScoreWithdrawn[msg.sender]) */\n      tag_19\n        /* \"Dcoffer/treasury.sol\":657:671  ScoreWithdrawn */\n      0x03\n        /* \"Dcoffer/treasury.sol\":657:683  ScoreWithdrawn[msg.sender] */\n      0x00\n        /* \"Dcoffer/treasury.sol\":672:682  msg.sender */\n      caller\n        /* \"Dcoffer/treasury.sol\":657:683  ScoreWithdrawn[msg.sender] */\n      0xffffffffffffffffffffffffffffffffffffffff\n      and\n      0xffffffffffffffffffffffffffffffffffffffff\n      and\n      dup2\n      mstore\n      0x20\n      add\n      swap1\n      dup2\n      mstore\n      0x20\n      add\n      0x00\n      keccak256\n      sload\n        /* \"Dcoffer/treasury.sol\":647:652  Score */\n      dup4\n        /* \"Dcoffer/treasury.sol\":647:656  Score.sub */\n      tag_20\n      swap1\n        /* \"Dcoffer/treasury.sol\":647:684  Score.sub(ScoreWithdrawn[msg.sender]) */\n      swap2\n      swap1\n      0xffffffff\n      and\n      jump\t// in\n    tag_19:\n        /* \"Dcoffer/treasury.sol\":626:684  uint256 afterScore = Score.sub(ScoreWithdrawn[msg.sender]) */\n      swap1\n      pop\n        /* \"Dcoffer/treasury.sol\":693:707  uint256 GetDCF */\n      0x00\n        /* \"Dcoffer/treasury.sol\":710:739  afterScore.mul(DcoffperBlock) */\n      tag_21\n        /* \"Dcoffer/treasury.sol\":725:738  DcoffperBlock */\n      sload(0x02)\n        /* \"Dcoffer/treasury.sol\":710:720  afterScore */\n      dup4\n        /* \"Dcoffer/treasury.sol\":710:724  afterScore.mul */\n      tag_22\n      swap1\n        /* \"Dcoffer/treasury.sol\":710:739  afterScore.mul(DcoffperBlock) */\n      swap2\n      swap1\n      0xffffffff\n      and\n      jump\t// in\n    tag_21:\n        /* \"Dcoffer/treasury.sol\":693:739  uint256 GetDCF = afterScore.mul(DcoffperBlock) */\n      swap1\n      pop\n        /* \"Dcoffer/treasury.sol\":748:753  dcoff */\n      0x01\n      0x00\n      swap1\n      sload\n      swap1\n      0x0100\n      exp\n      swap1\n      div\n      0xffffffffffffffffffffffffffffffffffffffff\n      and\n        /* \"Dcoffer/treasury.sol\":748:762  dcoff.transfer */\n      0xffffffffffffffffffffffffffffffffffffffff\n      and\n      0xa9059cbb\n        /* \"Dcoffer/treasury.sol\":763:773  msg.sender */\n      caller\n        /* \"Dcoffer/treasury.sol\":774:780  GetDCF */\n      dup4\n        /* \"Dcoffer/treasury.sol\":748:781  dcoff.transfer(msg.sender,GetDCF) */\n      mload(0x40)\n      dup4\n      0xffffffff\n      and\n      0xe0\n      shl\n      dup2\n      mstore\n      0x04\n      add\n      tag_23\n      swap3\n      swap2\n      swap1\n      tag_24\n      jump\t// in\n    tag_23:\n      0x20\n      mload(0x40)\n      dup1\n      dup4\n      sub\n      dup2\n      0x00\n      dup8\n      gas\n      call\n      iszero\n      dup1\n      iszero\n      tag_26\n      jumpi\n      returndatasize\n      0x00\n      dup1\n      returndatacopy\n      revert(0x00, returndatasize)\n    tag_26:\n      pop\n      pop\n      pop\n      pop\n      mload(0x40)\n      returndatasize\n      not(0x1f)\n      0x1f\n      dup3\n      add\n      and\n      dup3\n      add\n      dup1\n      0x40\n      mstore\n      pop\n      dup2\n      add\n      swap1\n      tag_27\n      swap2\n      swap1\n      tag_28\n      jump\t// in\n    tag_27:\n      pop\n        /* \"Dcoffer/treasury.sol\":819:861  ScoreWithdrawn[msg.sender].add(afterScore) */\n      tag_29\n        /* \"Dcoffer/treasury.sol\":850:860  afterScore */\n      dup3\n        /* \"Dcoffer/treasury.sol\":819:833  ScoreWithdrawn */\n      0x03\n        /* \"Dcoffer/treasury.sol\":819:845  ScoreWithdrawn[msg.sender] */\n      0x00\n        /* \"Dcoffer/treasury.sol\":834:844  msg.sender */\n      caller\n        /* \"Dcoffer/treasury.sol\":819:845  ScoreWithdrawn[msg.sender] */\n      0xffffffffffffffffffffffffffffffffffffffff\n      and\n      0xffffffffffffffffffffffffffffffffffffffff\n      and\n      dup2\n      mstore\n      0x20\n      add\n      swap1\n      dup2\n      mstore\n      0x20\n      add\n      0x00\n      keccak256\n      sload\n        /* \"Dcoffer/treasury.sol\":819:849  ScoreWithdrawn[msg.sender].add */\n      tag_30\n      swap1\n        /* \"Dcoffer/treasury.sol\":819:861  ScoreWithdrawn[msg.sender].add(afterScore) */\n      swap2\n      swap1\n      0xffffffff\n      and\n      jump\t// in\n    tag_29:\n        /* \"Dcoffer/treasury.sol\":790:804  ScoreWithdrawn */\n      0x03\n        /* \"Dcoffer/treasury.sol\":790:816  ScoreWithdrawn[msg.sender] */\n      0x00\n        /* \"Dcoffer/treasury.sol\":805:815  msg.sender */\n      caller\n        /* \"Dcoffer/treasury.sol\":790:816  ScoreWithdrawn[msg.sender] */\n      0xffffffffffffffffffffffffffffffffffffffff\n      and\n      0xffffffffffffffffffffffffffffffffffffffff\n      and\n      dup2\n      mstore\n      0x20\n      add\n      swap1\n      dup2\n      mstore\n      0x20\n      add\n      0x00\n      keccak256\n        /* \"Dcoffer/treasury.sol\":790:861  ScoreWithdrawn[msg.sender] = ScoreWithdrawn[msg.sender].add(afterScore) */\n      dup2\n      swap1\n      sstore\n      pop\n        /* \"Dcoffer/treasury.sol\":565:867  {... */\n      pop\n      pop\n      pop\n        /* \"Dcoffer/treasury.sol\":537:867  function MineDcoff()external{... */\n      jump\t// out\n        /* \"@openzeppelin/contracts/utils/math/SafeMath.sol\":3122:3218  function sub(uint256 a, uint256 b) internal pure returns (uint256) {... */\n    tag_20:\n        /* \"@openzeppelin/contracts/utils/math/SafeMath.sol\":3180:3187  uint256 */\n      0x00\n        /* \"@openzeppelin/contracts/utils/math/SafeMath.sol\":3210:3211  b */\n      dup2\n        /* \"@openzeppelin/contracts/utils/math/SafeMath.sol\":3206:3207  a */\n      dup4\n        /* \"@openzeppelin/contracts/utils/math/SafeMath.sol\":3206:3211  a - b */\n      tag_32\n      swap2\n      swap1\n      tag_33\n      jump\t// in\n    tag_32:\n        /* \"@openzeppelin/contracts/utils/math/SafeMath.sol\":3199:3211  return a - b */\n      swap1\n      pop\n        /* \"@openzeppelin/contracts/utils/math/SafeMath.sol\":3122:3218  function sub(uint256 a, uint256 b) internal pure returns (uint256) {... */\n      swap3\n      swap2\n      pop\n      pop\n      jump\t// out\n        /* \"@openzeppelin/contracts/utils/math/SafeMath.sol\":3465:3561  function mul(uint256 a, uint256 b) internal pure returns (uint256) {... */\n    tag_22:\n        /* \"@openzeppelin/contracts/utils/math/SafeMath.sol\":3523:3530  uint256 */\n      0x00\n        /* \"@openzeppelin/contracts/utils/math/SafeMath.sol\":3553:3554  b */\n      dup2\n        /* \"@openzeppelin/contracts/utils/math/SafeMath.sol\":3549:3550  a */\n      dup4\n        /* \"@openzeppelin/contracts/utils/math/SafeMath.sol\":3549:3554  a * b */\n      tag_35\n      swap2\n      swap1\n      tag_36\n      jump\t// in\n    tag_35:\n        /* \"@openzeppelin/contracts/utils/math/SafeMath.sol\":3542:3554  return a * b */\n      swap1\n      pop\n        /* \"@openzeppelin/contracts/utils/math/SafeMath.sol\":3465:3561  function mul(uint256 a, uint256 b) internal pure returns (uint256) {... */\n      swap3\n      swap2\n      pop\n      pop\n      jump\t// out\n        /* \"@openzeppelin/contracts/utils/math/SafeMath.sol\":2755:2851  function add(uint256 a, uint256 b) internal pure returns (uint256) {... */\n    tag_30:\n        /* \"@openzeppelin/contracts/utils/math/SafeMath.sol\":2813:2820  uint256 */\n      0x00\n        /* \"@openzeppelin/contracts/utils/math/SafeMath.sol\":2843:2844  b */\n      dup2\n        /* \"@openzeppelin/contracts/utils/math/SafeMath.sol\":2839:2840  a */\n      dup4\n        /* \"@openzeppelin/contracts/utils/math/SafeMath.sol\":2839:2844  a + b */\n      tag_38\n      swap2\n      swap1\n      tag_39\n      jump\t// in\n    tag_38:\n        /* \"@openzeppelin/contracts/utils/math/SafeMath.sol\":2832:2844  return a + b */\n      swap1\n      pop\n        /* \"@openzeppelin/contracts/utils/math/SafeMath.sol\":2755:2851  function add(uint256 a, uint256 b) internal pure returns (uint256) {... */\n      swap3\n      swap2\n      pop\n      pop\n      jump\t// out\n        /* \"#utility.yul\":7:84   */\n    tag_40:\n        /* \"#utility.yul\":44:51   */\n      0x00\n        /* \"#utility.yul\":73:78   */\n      dup2\n        /* \"#utility.yul\":62:78   */\n      swap1\n      pop\n        /* \"#utility.yul\":7:84   */\n      swap2\n      swap1\n      pop\n      jump\t// out\n        /* \"#utility.yul\":90:208   */\n    tag_41:\n        /* \"#utility.yul\":177:201   */\n      tag_57\n        /* \"#utility.yul\":195:200   */\n      dup2\n        /* \"#utility.yul\":177:201   */\n      tag_40\n      jump\t// in\n    tag_57:\n        /* \"#utility.yul\":172:175   */\n      dup3\n        /* \"#utility.yul\":165:202   */\n      mstore\n        /* \"#utility.yul\":90:208   */\n      pop\n      pop\n      jump\t// out\n        /* \"#utility.yul\":214:436   */\n    tag_8:\n        /* \"#utility.yul\":307:311   */\n      0x00\n        /* \"#utility.yul\":345:347   */\n      0x20\n        /* \"#utility.yul\":334:343   */\n      dup3\n        /* \"#utility.yul\":330:348   */\n      add\n        /* \"#utility.yul\":322:348   */\n      swap1\n      pop\n        /* \"#utility.yul\":358:429   */\n      tag_59\n        /* \"#utility.yul\":426:427   */\n      0x00\n        /* \"#utility.yul\":415:424   */\n      dup4\n        /* \"#utility.yul\":411:428   */\n      add\n        /* \"#utility.yul\":402:408   */\n      dup5\n        /* \"#utility.yul\":358:429   */\n      tag_41\n      jump\t// in\n    tag_59:\n        /* \"#utility.yul\":214:436   */\n      swap3\n      swap2\n      pop\n      pop\n      jump\t// out\n        /* \"#utility.yul\":442:568   */\n    tag_42:\n        /* \"#utility.yul\":479:486   */\n      0x00\n        /* \"#utility.yul\":519:561   */\n      0xffffffffffffffffffffffffffffffffffffffff\n        /* \"#utility.yul\":512:517   */\n      dup3\n        /* \"#utility.yul\":508:562   */\n      and\n        /* \"#utility.yul\":497:562   */\n      swap1\n      pop\n        /* \"#utility.yul\":442:568   */\n      swap2\n      swap1\n      pop\n      jump\t// out\n        /* \"#utility.yul\":574:670   */\n    tag_43:\n        /* \"#utility.yul\":611:618   */\n      0x00\n        /* \"#utility.yul\":640:664   */\n      tag_62\n        /* \"#utility.yul\":658:663   */\n      dup3\n        /* \"#utility.yul\":640:664   */\n      tag_42\n      jump\t// in\n    tag_62:\n        /* \"#utility.yul\":629:664   */\n      swap1\n      pop\n        /* \"#utility.yul\":574:670   */\n      swap2\n      swap1\n      pop\n      jump\t// out\n        /* \"#utility.yul\":676:794   */\n    tag_44:\n        /* \"#utility.yul\":763:787   */\n      tag_64\n        /* \"#utility.yul\":781:786   */\n      dup2\n        /* \"#utility.yul\":763:787   */\n      tag_43\n      jump\t// in\n    tag_64:\n        /* \"#utility.yul\":758:761   */\n      dup3\n        /* \"#utility.yul\":751:788   */\n      mstore\n        /* \"#utility.yul\":676:794   */\n      pop\n      pop\n      jump\t// out\n        /* \"#utility.yul\":800:1022   */\n    tag_14:\n        /* \"#utility.yul\":893:897   */\n      0x00\n        /* \"#utility.yul\":931:933   */\n      0x20\n        /* \"#utility.yul\":920:929   */\n      dup3\n        /* \"#utility.yul\":916:934   */\n      add\n        /* \"#utility.yul\":908:934   */\n      swap1\n      pop\n        /* \"#utility.yul\":944:1015   */\n      tag_66\n        /* \"#utility.yul\":1012:1013   */\n      0x00\n        /* \"#utility.yul\":1001:1010   */\n      dup4\n        /* \"#utility.yul\":997:1014   */\n      add\n        /* \"#utility.yul\":988:994   */\n      dup5\n        /* \"#utility.yul\":944:1015   */\n      tag_44\n      jump\t// in\n    tag_66:\n        /* \"#utility.yul\":800:1022   */\n      swap3\n      swap2\n      pop\n      pop\n      jump\t// out\n        /* \"#utility.yul\":1109:1226   */\n    tag_46:\n        /* \"#utility.yul\":1218:1219   */\n      0x00\n        /* \"#utility.yul\":1215:1216   */\n      dup1\n        /* \"#utility.yul\":1208:1220   */\n      revert\n        /* \"#utility.yul\":1355:1477   */\n    tag_48:\n        /* \"#utility.yul\":1428:1452   */\n      tag_71\n        /* \"#utility.yul\":1446:1451   */\n      dup2\n        /* \"#utility.yul\":1428:1452   */\n      tag_40\n      jump\t// in\n    tag_71:\n        /* \"#utility.yul\":1421:1426   */\n      dup2\n        /* \"#utility.yul\":1418:1453   */\n      eq\n        /* \"#utility.yul\":1408:1471   */\n      tag_72\n      jumpi\n        /* \"#utility.yul\":1467:1468   */\n      0x00\n        /* \"#utility.yul\":1464:1465   */\n      dup1\n        /* \"#utility.yul\":1457:1469   */\n      revert\n        /* \"#utility.yul\":1408:1471   */\n    tag_72:\n        /* \"#utility.yul\":1355:1477   */\n      pop\n      jump\t// out\n        /* \"#utility.yul\":1483:1626   */\n    tag_49:\n        /* \"#utility.yul\":1540:1545   */\n      0x00\n        /* \"#utility.yul\":1571:1577   */\n      dup2\n        /* \"#utility.yul\":1565:1578   */\n      mload\n        /* \"#utility.yul\":1556:1578   */\n      swap1\n      pop\n        /* \"#utility.yul\":1587:1620   */\n      tag_74\n        /* \"#utility.yul\":1614:1619   */\n      dup2\n        /* \"#utility.yul\":1587:1620   */\n      tag_48\n      jump\t// in\n    tag_74:\n        /* \"#utility.yul\":1483:1626   */\n      swap3\n      swap2\n      pop\n      pop\n      jump\t// out\n        /* \"#utility.yul\":1632:1983   */\n    tag_18:\n        /* \"#utility.yul\":1702:1708   */\n      0x00\n        /* \"#utility.yul\":1751:1753   */\n      0x20\n        /* \"#utility.yul\":1739:1748   */\n      dup3\n        /* \"#utility.yul\":1730:1737   */\n      dup5\n        /* \"#utility.yul\":1726:1749   */\n      sub\n        /* \"#utility.yul\":1722:1754   */\n      slt\n        /* \"#utility.yul\":1719:1838   */\n      iszero\n      tag_76\n      jumpi\n        /* \"#utility.yul\":1757:1836   */\n      tag_77\n      tag_46\n      jump\t// in\n    tag_77:\n        /* \"#utility.yul\":1719:1838   */\n    tag_76:\n        /* \"#utility.yul\":1877:1878   */\n      0x00\n        /* \"#utility.yul\":1902:1966   */\n      tag_78\n        /* \"#utility.yul\":1958:1965   */\n      dup5\n        /* \"#utility.yul\":1949:1955   */\n      dup3\n        /* \"#utility.yul\":1938:1947   */\n      dup6\n        /* \"#utility.yul\":1934:1956   */\n      add\n        /* \"#utility.yul\":1902:1966   */\n      tag_49\n      jump\t// in\n    tag_78:\n        /* \"#utility.yul\":1892:1966   */\n      swap2\n      pop\n        /* \"#utility.yul\":1848:1976   */\n      pop\n        /* \"#utility.yul\":1632:1983   */\n      swap3\n      swap2\n      pop\n      pop\n      jump\t// out\n        /* \"#utility.yul\":1989:2321   */\n    tag_24:\n        /* \"#utility.yul\":2110:2114   */\n      0x00\n        /* \"#utility.yul\":2148:2150   */\n      0x40\n        /* \"#utility.yul\":2137:2146   */\n      dup3\n        /* \"#utility.yul\":2133:2151   */\n      add\n        /* \"#utility.yul\":2125:2151   */\n      swap1\n      pop\n        /* \"#utility.yul\":2161:2232   */\n      tag_80\n        /* \"#utility.yul\":2229:2230   */\n      0x00\n        /* \"#utility.yul\":2218:2227   */\n      dup4\n        /* \"#utility.yul\":2214:2231   */\n      add\n        /* \"#utility.yul\":2205:2211   */\n      dup6\n        /* \"#utility.yul\":2161:2232   */\n      tag_44\n      jump\t// in\n    tag_80:\n        /* \"#utility.yul\":2242:2314   */\n      tag_81\n        /* \"#utility.yul\":2310:2312   */\n      0x20\n        /* \"#utility.yul\":2299:2308   */\n      dup4\n        /* \"#utility.yul\":2295:2313   */\n      add\n        /* \"#utility.yul\":2286:2292   */\n      dup5\n        /* \"#utility.yul\":2242:2314   */\n      tag_41\n      jump\t// in\n    tag_81:\n        /* \"#utility.yul\":1989:2321   */\n      swap4\n      swap3\n      pop\n      pop\n      pop\n      jump\t// out\n        /* \"#utility.yul\":2327:2417   */\n    tag_50:\n        /* \"#utility.yul\":2361:2368   */\n      0x00\n        /* \"#utility.yul\":2404:2409   */\n      dup2\n        /* \"#utility.yul\":2397:2410   */\n      iszero\n        /* \"#utility.yul\":2390:2411   */\n      iszero\n        /* \"#utility.yul\":2379:2411   */\n      swap1\n      pop\n        /* \"#utility.yul\":2327:2417   */\n      swap2\n      swap1\n      pop\n      jump\t// out\n        /* \"#utility.yul\":2423:2539   */\n    tag_51:\n        /* \"#utility.yul\":2493:2514   */\n      tag_84\n        /* \"#utility.yul\":2508:2513   */\n      dup2\n        /* \"#utility.yul\":2493:2514   */\n      tag_50\n      jump\t// in\n    tag_84:\n        /* \"#utility.yul\":2486:2491   */\n      dup2\n        /* \"#utility.yul\":2483:2515   */\n      eq\n        /* \"#utility.yul\":2473:2533   */\n      tag_85\n      jumpi\n        /* \"#utility.yul\":2529:2530   */\n      0x00\n        /* \"#utility.yul\":2526:2527   */\n      dup1\n        /* \"#utility.yul\":2519:2531   */\n      revert\n        /* \"#utility.yul\":2473:2533   */\n    tag_85:\n        /* \"#utility.yul\":2423:2539   */\n      pop\n      jump\t// out\n        /* \"#utility.yul\":2545:2682   */\n    tag_52:\n        /* \"#utility.yul\":2599:2604   */\n      0x00\n        /* \"#utility.yul\":2630:2636   */\n      dup2\n        /* \"#utility.yul\":2624:2637   */\n      mload\n        /* \"#utility.yul\":2615:2637   */\n      swap1\n      pop\n        /* \"#utility.yul\":2646:2676   */\n      tag_87\n        /* \"#utility.yul\":2670:2675   */\n      dup2\n        /* \"#utility.yul\":2646:2676   */\n      tag_51\n      jump\t// in\n    tag_87:\n        /* \"#utility.yul\":2545:2682   */\n      swap3\n      swap2\n      pop\n      pop\n      jump\t// out\n        /* \"#utility.yul\":2688:3033   */\n    tag_28:\n        /* \"#utility.yul\":2755:2761   */\n      0x00\n        /* \"#utility.yul\":2804:2806   */\n      0x20\n        /* \"#utility.yul\":2792:2801   */\n      dup3\n        /* \"#utility.yul\":2783:2790   */\n      dup5\n        /* \"#utility.yul\":2779:2802   */\n      sub\n        /* \"#utility.yul\":2775:2807   */\n      slt\n        /* \"#utility.yul\":2772:2891   */\n      iszero\n      tag_89\n      jumpi\n        /* \"#utility.yul\":2810:2889   */\n      tag_90\n      tag_46\n      jump\t// in\n    tag_90:\n        /* \"#utility.yul\":2772:2891   */\n    tag_89:\n        /* \"#utility.yul\":2930:2931   */\n      0x00\n        /* \"#utility.yul\":2955:3016   */\n      tag_91\n        /* \"#utility.yul\":3008:3015   */\n      dup5\n        /* \"#utility.yul\":2999:3005   */\n      dup3\n        /* \"#utility.yul\":2988:2997   */\n      dup6\n        /* \"#utility.yul\":2984:3006   */\n      add\n        /* \"#utility.yul\":2955:3016   */\n      tag_52\n      jump\t// in\n    tag_91:\n        /* \"#utility.yul\":2945:3016   */\n      swap2\n      pop\n        /* \"#utility.yul\":2901:3026   */\n      pop\n        /* \"#utility.yul\":2688:3033   */\n      swap3\n      swap2\n      pop\n      pop\n      jump\t// out\n        /* \"#utility.yul\":3039:3219   */\n    tag_53:\n        /* \"#utility.yul\":3087:3164   */\n      0x4e487b7100000000000000000000000000000000000000000000000000000000\n        /* \"#utility.yul\":3084:3085   */\n      0x00\n        /* \"#utility.yul\":3077:3165   */\n      mstore\n        /* \"#utility.yul\":3184:3188   */\n      0x11\n        /* \"#utility.yul\":3181:3182   */\n      0x04\n        /* \"#utility.yul\":3174:3189   */\n      mstore\n        /* \"#utility.yul\":3208:3212   */\n      0x24\n        /* \"#utility.yul\":3205:3206   */\n      0x00\n        /* \"#utility.yul\":3198:3213   */\n      revert\n        /* \"#utility.yul\":3225:3416   */\n    tag_33:\n        /* \"#utility.yul\":3265:3269   */\n      0x00\n        /* \"#utility.yul\":3285:3305   */\n      tag_94\n        /* \"#utility.yul\":3303:3304   */\n      dup3\n        /* \"#utility.yul\":3285:3305   */\n      tag_40\n      jump\t// in\n    tag_94:\n        /* \"#utility.yul\":3280:3305   */\n      swap2\n      pop\n        /* \"#utility.yul\":3319:3339   */\n      tag_95\n        /* \"#utility.yul\":3337:3338   */\n      dup4\n        /* \"#utility.yul\":3319:3339   */\n      tag_40\n      jump\t// in\n    tag_95:\n        /* \"#utility.yul\":3314:3339   */\n      swap3\n      pop\n        /* \"#utility.yul\":3358:3359   */\n      dup3\n        /* \"#utility.yul\":3355:3356   */\n      dup3\n        /* \"#utility.yul\":3352:3360   */\n      lt\n        /* \"#utility.yul\":3349:3383   */\n      iszero\n      tag_96\n      jumpi\n        /* \"#utility.yul\":3363:3381   */\n      tag_97\n      tag_53\n      jump\t// in\n    tag_97:\n        /* \"#utility.yul\":3349:3383   */\n    tag_96:\n        /* \"#utility.yul\":3408:3409   */\n      dup3\n        /* \"#utility.yul\":3405:3406   */\n      dup3\n        /* \"#utility.yul\":3401:3410   */\n      sub\n        /* \"#utility.yul\":3393:3410   */\n      swap1\n      pop\n        /* \"#utility.yul\":3225:3416   */\n      swap3\n      swap2\n      pop\n      pop\n      jump\t// out\n        /* \"#utility.yul\":3422:3770   */\n    tag_36:\n        /* \"#utility.yul\":3462:3469   */\n      0x00\n        /* \"#utility.yul\":3485:3505   */\n      tag_99\n        /* \"#utility.yul\":3503:3504   */\n      dup3\n        /* \"#utility.yul\":3485:3505   */\n      tag_40\n      jump\t// in\n    tag_99:\n        /* \"#utility.yul\":3480:3505   */\n      swap2\n      pop\n        /* \"#utility.yul\":3519:3539   */\n      tag_100\n        /* \"#utility.yul\":3537:3538   */\n      dup4\n        /* \"#utility.yul\":3519:3539   */\n      tag_40\n      jump\t// in\n    tag_100:\n        /* \"#utility.yul\":3514:3539   */\n      swap3\n      pop\n        /* \"#utility.yul\":3707:3708   */\n      dup2\n        /* \"#utility.yul\":3639:3705   */\n      0xffffffffffffffffffffffffffffffffffffffffffffffffffffffffffffffff\n        /* \"#utility.yul\":3635:3709   */\n      div\n        /* \"#utility.yul\":3632:3633   */\n      dup4\n        /* \"#utility.yul\":3629:3710   */\n      gt\n        /* \"#utility.yul\":3624:3625   */\n      dup3\n        /* \"#utility.yul\":3617:3626   */\n      iszero\n        /* \"#utility.yul\":3610:3627   */\n      iszero\n        /* \"#utility.yul\":3606:3711   */\n      and\n        /* \"#utility.yul\":3603:3734   */\n      iszero\n      tag_101\n      jumpi\n        /* \"#utility.yul\":3714:3732   */\n      tag_102\n      tag_53\n      jump\t// in\n    tag_102:\n        /* \"#utility.yul\":3603:3734   */\n    tag_101:\n        /* \"#utility.yul\":3762:3763   */\n      dup3\n        /* \"#utility.yul\":3759:3760   */\n      dup3\n        /* \"#utility.yul\":3755:3764   */\n      mul\n        /* \"#utility.yul\":3744:3764   */\n      swap1\n      pop\n        /* \"#utility.yul\":3422:3770   */\n      swap3\n      swap2\n      pop\n      pop\n      jump\t// out\n        /* \"#utility.yul\":3776:4081   */\n    tag_39:\n        /* \"#utility.yul\":3816:3819   */\n      0x00\n        /* \"#utility.yul\":3835:3855   */\n      tag_104\n        /* \"#utility.yul\":3853:3854   */\n      dup3\n        /* \"#utility.yul\":3835:3855   */\n      tag_40\n      jump\t// in\n    tag_104:\n        /* \"#utility.yul\":3830:3855   */\n      swap2\n      pop\n        /* \"#utility.yul\":3869:3889   */\n      tag_105\n        /* \"#utility.yul\":3887:3888   */\n      dup4\n        /* \"#utility.yul\":3869:3889   */\n      tag_40\n      jump\t// in\n    tag_105:\n        /* \"#utility.yul\":3864:3889   */\n      swap3\n      pop\n        /* \"#utility.yul\":4023:4024   */\n      dup3\n        /* \"#utility.yul\":3955:4021   */\n      0xffffffffffffffffffffffffffffffffffffffffffffffffffffffffffffffff\n        /* \"#utility.yul\":3951:4025   */\n      sub\n        /* \"#utility.yul\":3948:3949   */\n      dup3\n        /* \"#utility.yul\":3945:4026   */\n      gt\n        /* \"#utility.yul\":3942:4049   */\n      iszero\n      tag_106\n      jumpi\n        /* \"#utility.yul\":4029:4047   */\n      tag_107\n      tag_53\n      jump\t// in\n    tag_107:\n        /* \"#utility.yul\":3942:4049   */\n    tag_106:\n        /* \"#utility.yul\":4073:4074   */\n      dup3\n        /* \"#utility.yul\":4070:4071   */\n      dup3\n        /* \"#utility.yul\":4066:4075   */\n      add\n        /* \"#utility.yul\":4059:4075   */\n      swap1\n      pop\n        /* \"#utility.yul\":3776:4081   */\n      swap3\n      swap2\n      pop\n      pop\n      jump\t// out\n\n    auxdata: 0xa264697066735822122024f02a20db7b30622d9b0987b730c16a51c23f2234cda8a757c3c763817c7e7c64736f6c634300080d0033\n}\n",
				"bytecode": {
					"linkReferences": {},
					"object": "6080604052736a544367fca7064b6ada5dc87f7e5058a9bb7af96000806101000a81548173ffffffffffffffffffffffffffffffffffffffff021916908373ffffffffffffffffffffffffffffffffffffffff16021790555073be0c856e2981b9f03d7613566dfc6679eee4708a600160006101000a81548173ffffffffffffffffffffffffffffffffffffffff021916908373ffffffffffffffffffffffffffffffffffffffff1602179055503480156100b957600080fd5b5065b5e620f480006002819055506105b8806100d66000396000f3fe608060405234801561001057600080fd5b50600436106100365760003560e01c80638766c3831461003b5780638bed477814610059575b600080fd5b610043610063565b604051610050919061030c565b60405180910390f35b610061610068565b005b600090565b60008060009054906101000a900473ffffffffffffffffffffffffffffffffffffffff1673ffffffffffffffffffffffffffffffffffffffff1663325b272a336040518263ffffffff1660e01b81526004016100c49190610368565b602060405180830381865afa1580156100e1573d6000803e3d6000fd5b505050506040513d601f19601f8201168201806040525081019061010591906103b4565b9050600061015b600360003373ffffffffffffffffffffffffffffffffffffffff1673ffffffffffffffffffffffffffffffffffffffff16815260200190815260200160002054836102b190919063ffffffff16565b90506000610174600254836102c790919063ffffffff16565b9050600160009054906101000a900473ffffffffffffffffffffffffffffffffffffffff1673ffffffffffffffffffffffffffffffffffffffff1663a9059cbb33836040518363ffffffff1660e01b81526004016101d39291906103e1565b6020604051808303816000875af11580156101f2573d6000803e3d6000fd5b505050506040513d601f19601f820116820180604052508101906102169190610442565b5061026982600360003373ffffffffffffffffffffffffffffffffffffffff1673ffffffffffffffffffffffffffffffffffffffff168152602001908152602001600020546102dd90919063ffffffff16565b600360003373ffffffffffffffffffffffffffffffffffffffff1673ffffffffffffffffffffffffffffffffffffffff16815260200190815260200160002081905550505050565b600081836102bf919061049e565b905092915050565b600081836102d591906104d2565b905092915050565b600081836102eb919061052c565b905092915050565b6000819050919050565b610306816102f3565b82525050565b600060208201905061032160008301846102fd565b92915050565b600073ffffffffffffffffffffffffffffffffffffffff82169050919050565b600061035282610327565b9050919050565b61036281610347565b82525050565b600060208201905061037d6000830184610359565b92915050565b600080fd5b610391816102f3565b811461039c57600080fd5b50565b6000815190506103ae81610388565b92915050565b6000602082840312156103ca576103c9610383565b5b60006103d88482850161039f565b91505092915050565b60006040820190506103f66000830185610359565b61040360208301846102fd565b9392505050565b60008115159050919050565b61041f8161040a565b811461042a57600080fd5b50565b60008151905061043c81610416565b92915050565b60006020828403121561045857610457610383565b5b60006104668482850161042d565b91505092915050565b7f4e487b7100000000000000000000000000000000000000000000000000000000600052601160045260246000fd5b60006104a9826102f3565b91506104b4836102f3565b9250828210156104c7576104c661046f565b5b828203905092915050565b60006104dd826102f3565b91506104e8836102f3565b9250817fffffffffffffffffffffffffffffffffffffffffffffffffffffffffffffffff04831182151516156105215761052061046f565b5b828202905092915050565b6000610537826102f3565b9150610542836102f3565b9250827fffffffffffffffffffffffffffffffffffffffffffffffffffffffffffffffff038211156105775761057661046f565b5b82820190509291505056fea264697066735822122024f02a20db7b30622d9b0987b730c16a51c23f2234cda8a757c3c763817c7e7c64736f6c634300080d0033",
					"opcodes": "PUSH1 0x80 PUSH1 0x40 MSTORE PUSH20 0x6A544367FCA7064B6ADA5DC87F7E5058A9BB7AF9 PUSH1 0x0 DUP1 PUSH2 0x100 EXP DUP2 SLOAD DUP2 PUSH20 0xFFFFFFFFFFFFFFFFFFFFFFFFFFFFFFFFFFFFFFFF MUL NOT AND SWAP1 DUP4 PUSH20 0xFFFFFFFFFFFFFFFFFFFFFFFFFFFFFFFFFFFFFFFF AND MUL OR SWAP1 SSTORE POP PUSH20 0xBE0C856E2981B9F03D7613566DFC6679EEE4708A PUSH1 0x1 PUSH1 0x0 PUSH2 0x100 EXP DUP2 SLOAD DUP2 PUSH20 0xFFFFFFFFFFFFFFFFFFFFFFFFFFFFFFFFFFFFFFFF MUL NOT AND SWAP1 DUP4 PUSH20 0xFFFFFFFFFFFFFFFFFFFFFFFFFFFFFFFFFFFFFFFF AND MUL OR SWAP1 SSTORE POP CALLVALUE DUP1 ISZERO PUSH2 0xB9 JUMPI PUSH1 0x0 DUP1 REVERT JUMPDEST POP PUSH6 0xB5E620F48000 PUSH1 0x2 DUP2 SWAP1 SSTORE POP PUSH2 0x5B8 DUP1 PUSH2 0xD6 PUSH1 0x0 CODECOPY PUSH1 0x0 RETURN INVALID PUSH1 0x80 PUSH1 0x40 MSTORE CALLVALUE DUP1 ISZERO PUSH2 0x10 JUMPI PUSH1 0x0 DUP1 REVERT JUMPDEST POP PUSH1 0x4 CALLDATASIZE LT PUSH2 0x36 JUMPI PUSH1 0x0 CALLDATALOAD PUSH1 0xE0 SHR DUP1 PUSH4 0x8766C383 EQ PUSH2 0x3B JUMPI DUP1 PUSH4 0x8BED4778 EQ PUSH2 0x59 JUMPI JUMPDEST PUSH1 0x0 DUP1 REVERT JUMPDEST PUSH2 0x43 PUSH2 0x63 JUMP JUMPDEST PUSH1 0x40 MLOAD PUSH2 0x50 SWAP2 SWAP1 PUSH2 0x30C JUMP JUMPDEST PUSH1 0x40 MLOAD DUP1 SWAP2 SUB SWAP1 RETURN JUMPDEST PUSH2 0x61 PUSH2 0x68 JUMP JUMPDEST STOP JUMPDEST PUSH1 0x0 SWAP1 JUMP JUMPDEST PUSH1 0x0 DUP1 PUSH1 0x0 SWAP1 SLOAD SWAP1 PUSH2 0x100 EXP SWAP1 DIV PUSH20 0xFFFFFFFFFFFFFFFFFFFFFFFFFFFFFFFFFFFFFFFF AND PUSH20 0xFFFFFFFFFFFFFFFFFFFFFFFFFFFFFFFFFFFFFFFF AND PUSH4 0x325B272A CALLER PUSH1 0x40 MLOAD DUP3 PUSH4 0xFFFFFFFF AND PUSH1 0xE0 SHL DUP2 MSTORE PUSH1 0x4 ADD PUSH2 0xC4 SWAP2 SWAP1 PUSH2 0x368 JUMP JUMPDEST PUSH1 0x20 PUSH1 0x40 MLOAD DUP1 DUP4 SUB DUP2 DUP7 GAS STATICCALL ISZERO DUP1 ISZERO PUSH2 0xE1 JUMPI RETURNDATASIZE PUSH1 0x0 DUP1 RETURNDATACOPY RETURNDATASIZE PUSH1 0x0 REVERT JUMPDEST POP POP POP POP PUSH1 0x40 MLOAD RETURNDATASIZE PUSH1 0x1F NOT PUSH1 0x1F DUP3 ADD AND DUP3 ADD DUP1 PUSH1 0x40 MSTORE POP DUP2 ADD SWAP1 PUSH2 0x105 SWAP2 SWAP1 PUSH2 0x3B4 JUMP JUMPDEST SWAP1 POP PUSH1 0x0 PUSH2 0x15B PUSH1 0x3 PUSH1 0x0 CALLER PUSH20 0xFFFFFFFFFFFFFFFFFFFFFFFFFFFFFFFFFFFFFFFF AND PUSH20 0xFFFFFFFFFFFFFFFFFFFFFFFFFFFFFFFFFFFFFFFF AND DUP2 MSTORE PUSH1 0x20 ADD SWAP1 DUP2 MSTORE PUSH1 0x20 ADD PUSH1 0x0 KECCAK256 SLOAD DUP4 PUSH2 0x2B1 SWAP1 SWAP2 SWAP1 PUSH4 0xFFFFFFFF AND JUMP JUMPDEST SWAP1 POP PUSH1 0x0 PUSH2 0x174 PUSH1 0x2 SLOAD DUP4 PUSH2 0x2C7 SWAP1 SWAP2 SWAP1 PUSH4 0xFFFFFFFF AND JUMP JUMPDEST SWAP1 POP PUSH1 0x1 PUSH1 0x0 SWAP1 SLOAD SWAP1 PUSH2 0x100 EXP SWAP1 DIV PUSH20 0xFFFFFFFFFFFFFFFFFFFFFFFFFFFFFFFFFFFFFFFF AND PUSH20 0xFFFFFFFFFFFFFFFFFFFFFFFFFFFFFFFFFFFFFFFF AND PUSH4 0xA9059CBB CALLER DUP4 PUSH1 0x40 MLOAD DUP4 PUSH4 0xFFFFFFFF AND PUSH1 0xE0 SHL DUP2 MSTORE PUSH1 0x4 ADD PUSH2 0x1D3 SWAP3 SWAP2 SWAP1 PUSH2 0x3E1 JUMP JUMPDEST PUSH1 0x20 PUSH1 0x40 MLOAD DUP1 DUP4 SUB DUP2 PUSH1 0x0 DUP8 GAS CALL ISZERO DUP1 ISZERO PUSH2 0x1F2 JUMPI RETURNDATASIZE PUSH1 0x0 DUP1 RETURNDATACOPY RETURNDATASIZE PUSH1 0x0 REVERT JUMPDEST POP POP POP POP PUSH1 0x40 MLOAD RETURNDATASIZE PUSH1 0x1F NOT PUSH1 0x1F DUP3 ADD AND DUP3 ADD DUP1 PUSH1 0x40 MSTORE POP DUP2 ADD SWAP1 PUSH2 0x216 SWAP2 SWAP1 PUSH2 0x442 JUMP JUMPDEST POP PUSH2 0x269 DUP3 PUSH1 0x3 PUSH1 0x0 CALLER PUSH20 0xFFFFFFFFFFFFFFFFFFFFFFFFFFFFFFFFFFFFFFFF AND PUSH20 0xFFFFFFFFFFFFFFFFFFFFFFFFFFFFFFFFFFFFFFFF AND DUP2 MSTORE PUSH1 0x20 ADD SWAP1 DUP2 MSTORE PUSH1 0x20 ADD PUSH1 0x0 KECCAK256 SLOAD PUSH2 0x2DD SWAP1 SWAP2 SWAP1 PUSH4 0xFFFFFFFF AND JUMP JUMPDEST PUSH1 0x3 PUSH1 0x0 CALLER PUSH20 0xFFFFFFFFFFFFFFFFFFFFFFFFFFFFFFFFFFFFFFFF AND PUSH20 0xFFFFFFFFFFFFFFFFFFFFFFFFFFFFFFFFFFFFFFFF AND DUP2 MSTORE PUSH1 0x20 ADD SWAP1 DUP2 MSTORE PUSH1 0x20 ADD PUSH1 0x0 KECCAK256 DUP2 SWAP1 SSTORE POP POP POP POP JUMP JUMPDEST PUSH1 0x0 DUP2 DUP4 PUSH2 0x2BF SWAP2 SWAP1 PUSH2 0x49E JUMP JUMPDEST SWAP1 POP SWAP3 SWAP2 POP POP JUMP JUMPDEST PUSH1 0x0 DUP2 DUP4 PUSH2 0x2D5 SWAP2 SWAP1 PUSH2 0x4D2 JUMP JUMPDEST SWAP1 POP SWAP3 SWAP2 POP POP JUMP JUMPDEST PUSH1 0x0 DUP2 DUP4 PUSH2 0x2EB SWAP2 SWAP1 PUSH2 0x52C JUMP JUMPDEST SWAP1 POP SWAP3 SWAP2 POP POP JUMP JUMPDEST PUSH1 0x0 DUP2 SWAP1 POP SWAP2 SWAP1 POP JUMP JUMPDEST PUSH2 0x306 DUP2 PUSH2 0x2F3 JUMP JUMPDEST DUP3 MSTORE POP POP JUMP JUMPDEST PUSH1 0x0 PUSH1 0x20 DUP3 ADD SWAP1 POP PUSH2 0x321 PUSH1 0x0 DUP4 ADD DUP5 PUSH2 0x2FD JUMP JUMPDEST SWAP3 SWAP2 POP POP JUMP JUMPDEST PUSH1 0x0 PUSH20 0xFFFFFFFFFFFFFFFFFFFFFFFFFFFFFFFFFFFFFFFF DUP3 AND SWAP1 POP SWAP2 SWAP1 POP JUMP JUMPDEST PUSH1 0x0 PUSH2 0x352 DUP3 PUSH2 0x327 JUMP JUMPDEST SWAP1 POP SWAP2 SWAP1 POP JUMP JUMPDEST PUSH2 0x362 DUP2 PUSH2 0x347 JUMP JUMPDEST DUP3 MSTORE POP POP JUMP JUMPDEST PUSH1 0x0 PUSH1 0x20 DUP3 ADD SWAP1 POP PUSH2 0x37D PUSH1 0x0 DUP4 ADD DUP5 PUSH2 0x359 JUMP JUMPDEST SWAP3 SWAP2 POP POP JUMP JUMPDEST PUSH1 0x0 DUP1 REVERT JUMPDEST PUSH2 0x391 DUP2 PUSH2 0x2F3 JUMP JUMPDEST DUP2 EQ PUSH2 0x39C JUMPI PUSH1 0x0 DUP1 REVERT JUMPDEST POP JUMP JUMPDEST PUSH1 0x0 DUP2 MLOAD SWAP1 POP PUSH2 0x3AE DUP2 PUSH2 0x388 JUMP JUMPDEST SWAP3 SWAP2 POP POP JUMP JUMPDEST PUSH1 0x0 PUSH1 0x20 DUP3 DUP5 SUB SLT ISZERO PUSH2 0x3CA JUMPI PUSH2 0x3C9 PUSH2 0x383 JUMP JUMPDEST JUMPDEST PUSH1 0x0 PUSH2 0x3D8 DUP5 DUP3 DUP6 ADD PUSH2 0x39F JUMP JUMPDEST SWAP2 POP POP SWAP3 SWAP2 POP POP JUMP JUMPDEST PUSH1 0x0 PUSH1 0x40 DUP3 ADD SWAP1 POP PUSH2 0x3F6 PUSH1 0x0 DUP4 ADD DUP6 PUSH2 0x359 JUMP JUMPDEST PUSH2 0x403 PUSH1 0x20 DUP4 ADD DUP5 PUSH2 0x2FD JUMP JUMPDEST SWAP4 SWAP3 POP POP POP JUMP JUMPDEST PUSH1 0x0 DUP2 ISZERO ISZERO SWAP1 POP SWAP2 SWAP1 POP JUMP JUMPDEST PUSH2 0x41F DUP2 PUSH2 0x40A JUMP JUMPDEST DUP2 EQ PUSH2 0x42A JUMPI PUSH1 0x0 DUP1 REVERT JUMPDEST POP JUMP JUMPDEST PUSH1 0x0 DUP2 MLOAD SWAP1 POP PUSH2 0x43C DUP2 PUSH2 0x416 JUMP JUMPDEST SWAP3 SWAP2 POP POP JUMP JUMPDEST PUSH1 0x0 PUSH1 0x20 DUP3 DUP5 SUB SLT ISZERO PUSH2 0x458 JUMPI PUSH2 0x457 PUSH2 0x383 JUMP JUMPDEST JUMPDEST PUSH1 0x0 PUSH2 0x466 DUP5 DUP3 DUP6 ADD PUSH2 0x42D JUMP JUMPDEST SWAP2 POP POP SWAP3 SWAP2 POP POP JUMP JUMPDEST PUSH32 0x4E487B7100000000000000000000000000000000000000000000000000000000 PUSH1 0x0 MSTORE PUSH1 0x11 PUSH1 0x4 MSTORE PUSH1 0x24 PUSH1 0x0 REVERT JUMPDEST PUSH1 0x0 PUSH2 0x4A9 DUP3 PUSH2 0x2F3 JUMP JUMPDEST SWAP2 POP PUSH2 0x4B4 DUP4 PUSH2 0x2F3 JUMP JUMPDEST SWAP3 POP DUP3 DUP3 LT ISZERO PUSH2 0x4C7 JUMPI PUSH2 0x4C6 PUSH2 0x46F JUMP JUMPDEST JUMPDEST DUP3 DUP3 SUB SWAP1 POP SWAP3 SWAP2 POP POP JUMP JUMPDEST PUSH1 0x0 PUSH2 0x4DD DUP3 PUSH2 0x2F3 JUMP JUMPDEST SWAP2 POP PUSH2 0x4E8 DUP4 PUSH2 0x2F3 JUMP JUMPDEST SWAP3 POP DUP2 PUSH32 0xFFFFFFFFFFFFFFFFFFFFFFFFFFFFFFFFFFFFFFFFFFFFFFFFFFFFFFFFFFFFFFFF DIV DUP4 GT DUP3 ISZERO ISZERO AND ISZERO PUSH2 0x521 JUMPI PUSH2 0x520 PUSH2 0x46F JUMP JUMPDEST JUMPDEST DUP3 DUP3 MUL SWAP1 POP SWAP3 SWAP2 POP POP JUMP JUMPDEST PUSH1 0x0 PUSH2 0x537 DUP3 PUSH2 0x2F3 JUMP JUMPDEST SWAP2 POP PUSH2 0x542 DUP4 PUSH2 0x2F3 JUMP JUMPDEST SWAP3 POP DUP3 PUSH32 0xFFFFFFFFFFFFFFFFFFFFFFFFFFFFFFFFFFFFFFFFFFFFFFFFFFFFFFFFFFFFFFFF SUB DUP3 GT ISZERO PUSH2 0x577 JUMPI PUSH2 0x576 PUSH2 0x46F JUMP JUMPDEST JUMPDEST DUP3 DUP3 ADD SWAP1 POP SWAP3 SWAP2 POP POP JUMP INVALID LOG2 PUSH5 0x6970667358 0x22 SLT KECCAK256 0x24 CREATE 0x2A KECCAK256 0xDB PUSH28 0x30622D9B0987B730C16A51C23F2234CDA8A757C3C763817C7E7C6473 PUSH16 0x6C634300080D00330000000000000000 "
				},
				"gasEstimates": {
					"creation": {
						"codeDepositCost": "292800",
						"executionCost": "70979",
						"totalCost": "363779"
					},
					"external": {
						"MineDcoff()": "infinite",
						"ViewGetDCF()": "307"
					}
				},
				"methodIdentifiers": {
					"MineDcoff()": "8bed4778",
					"ViewGetDCF()": "8766c383"
				}
			},
			"storageLayout": {
				"storage": [
					{
						"astId": 414,
						"contract": "Dcoffer/treasury.sol:treasury",
						"label": "mine",
						"offset": 0,
						"slot": "0",
						"type": "t_contract(IDCF)400"
					},
					{
						"astId": 420,
						"contract": "Dcoffer/treasury.sol:treasury",
						"label": "dcoff",
						"offset": 0,
						"slot": "1",
						"type": "t_contract(IERC20)77"
					},
					{
						"astId": 422,
						"contract": "Dcoffer/treasury.sol:treasury",
						"label": "DcoffperBlock",
						"offset": 0,
						"slot": "2",
						"type": "t_uint256"
					},
					{
						"astId": 426,
						"contract": "Dcoffer/treasury.sol:treasury",
						"label": "ScoreWithdrawn",
						"offset": 0,
						"slot": "3",
						"type": "t_mapping(t_address,t_uint256)"
					}
				],
				"types": {
					"t_address": {
						"encoding": "inplace",
						"label": "address",
						"numberOfBytes": "20"
					},
					"t_contract(IDCF)400": {
						"encoding": "inplace",
						"label": "contract IDCF",
						"numberOfBytes": "20"
					},
					"t_contract(IERC20)77": {
						"encoding": "inplace",
						"label": "contract IERC20",
						"numberOfBytes": "20"
					},
					"t_mapping(t_address,t_uint256)": {
						"encoding": "mapping",
						"key": "t_address",
						"label": "mapping(address => uint256)",
						"numberOfBytes": "32",
						"value": "t_uint256"
					},
					"t_uint256": {
						"encoding": "inplace",
						"label": "uint256",
						"numberOfBytes": "32"
					}
				}
			},
			"userdoc": {
				"kind": "user",
				"methods": {},
				"version": 1
			}
		}
	}
}