{
	"Dcoffer/treasury.sol": {
		"treasury": {
			"abi": [
				{
					"inputs": [
						{
							"internalType": "uint256",
							"name": "_k",
							"type": "uint256"
						}
					],
					"stateMutability": "payable",
					"type": "constructor"
				},
				{
					"inputs": [
						{
							"internalType": "uint256",
							"name": "dcf_amount",
							"type": "uint256"
						}
					],
					"name": "DCF_ETH",
					"outputs": [
						{
							"internalType": "uint256",
							"name": "",
							"type": "uint256"
						}
					],
					"stateMutability": "view",
					"type": "function"
				},
				{
					"inputs": [
						{
							"internalType": "uint256",
							"name": "eth_amount",
							"type": "uint256"
						}
					],
					"name": "ETH_DCF",
					"outputs": [
						{
							"internalType": "uint256",
							"name": "",
							"type": "uint256"
						}
					],
					"stateMutability": "view",
					"type": "function"
				},
				{
					"inputs": [
						{
							"internalType": "address",
							"name": "user",
							"type": "address"
						},
						{
							"internalType": "bool",
							"name": "power",
							"type": "bool"
						}
					],
					"name": "setRouter",
					"outputs": [],
					"stateMutability": "nonpayable",
					"type": "function"
				},
				{
					"inputs": [
						{
							"internalType": "address",
							"name": "subscriber",
							"type": "address"
						}
					],
					"name": "subscribe",
					"outputs": [],
					"stateMutability": "payable",
					"type": "function"
				}
			],
			"devdoc": {
				"kind": "dev",
				"methods": {},
				"version": 1
			},
			"evm": {
				"assembly": "    /* \"Dcoffer/treasury.sol\":181:1693  contract treasury  {... */\n  mstore(0x40, 0x80)\n    /* \"Dcoffer/treasury.sol\":260:302  0xd14ff067355Ce838A6e110bDFb672DbEc83cA23C */\n  0xd14ff067355ce838a6e110bdfb672dbec83ca23c\n    /* \"Dcoffer/treasury.sol\":237:303  IERC20 dcoff =  IERC20(0xd14ff067355Ce838A6e110bDFb672DbEc83cA23C) */\n  0x00\n  dup1\n  0x0100\n  exp\n  dup2\n  sload\n  dup2\n  0xffffffffffffffffffffffffffffffffffffffff\n  mul\n  not\n  and\n  swap1\n  dup4\n  0xffffffffffffffffffffffffffffffffffffffff\n  and\n  mul\n  or\n  swap1\n  sstore\n  pop\n    /* \"Dcoffer/treasury.sol\":334:405  constructor(uint _k)payable{... */\n  mload(0x40)\n  sub(codesize, bytecodeSize)\n  dup1\n  bytecodeSize\n  dup4\n  codecopy\n  dup2\n  dup2\n  add\n  0x40\n  mstore\n  dup2\n  add\n  swap1\n  tag_1\n  swap2\n  swap1\n  tag_2\n  jump\t// in\ntag_1:\n    /* \"Dcoffer/treasury.sol\":376:386  msg.sender */\n  caller\n    /* \"Dcoffer/treasury.sol\":368:373  owner */\n  0x02\n  0x00\n    /* \"Dcoffer/treasury.sol\":368:386  owner = msg.sender */\n  0x0100\n  exp\n  dup2\n  sload\n  dup2\n  0xffffffffffffffffffffffffffffffffffffffff\n  mul\n  not\n  and\n  swap1\n  dup4\n  0xffffffffffffffffffffffffffffffffffffffff\n  and\n  mul\n  or\n  swap1\n  sstore\n  pop\n    /* \"Dcoffer/treasury.sol\":397:399  _k */\n  dup1\n    /* \"Dcoffer/treasury.sol\":393:394  K */\n  0x01\n    /* \"Dcoffer/treasury.sol\":393:399  K = _k */\n  dup2\n  swap1\n  sstore\n  pop\n    /* \"Dcoffer/treasury.sol\":334:405  constructor(uint _k)payable{... */\n  pop\n    /* \"Dcoffer/treasury.sol\":181:1693  contract treasury  {... */\n  jump(tag_5)\n    /* \"#utility.yul\":88:205   */\ntag_7:\n    /* \"#utility.yul\":197:198   */\n  0x00\n    /* \"#utility.yul\":194:195   */\n  dup1\n    /* \"#utility.yul\":187:199   */\n  revert\n    /* \"#utility.yul\":334:411   */\ntag_9:\n    /* \"#utility.yul\":371:378   */\n  0x00\n    /* \"#utility.yul\":400:405   */\n  dup2\n    /* \"#utility.yul\":389:405   */\n  swap1\n  pop\n    /* \"#utility.yul\":334:411   */\n  swap2\n  swap1\n  pop\n  jump\t// out\n    /* \"#utility.yul\":417:539   */\ntag_10:\n    /* \"#utility.yul\":490:514   */\n  tag_18\n    /* \"#utility.yul\":508:513   */\n  dup2\n    /* \"#utility.yul\":490:514   */\n  tag_9\n  jump\t// in\ntag_18:\n    /* \"#utility.yul\":483:488   */\n  dup2\n    /* \"#utility.yul\":480:515   */\n  eq\n    /* \"#utility.yul\":470:533   */\n  tag_19\n  jumpi\n    /* \"#utility.yul\":529:530   */\n  0x00\n    /* \"#utility.yul\":526:527   */\n  dup1\n    /* \"#utility.yul\":519:531   */\n  revert\n    /* \"#utility.yul\":470:533   */\ntag_19:\n    /* \"#utility.yul\":417:539   */\n  pop\n  jump\t// out\n    /* \"#utility.yul\":545:688   */\ntag_11:\n    /* \"#utility.yul\":602:607   */\n  0x00\n    /* \"#utility.yul\":633:639   */\n  dup2\n    /* \"#utility.yul\":627:640   */\n  mload\n    /* \"#utility.yul\":618:640   */\n  swap1\n  pop\n    /* \"#utility.yul\":649:682   */\n  tag_21\n    /* \"#utility.yul\":676:681   */\n  dup2\n    /* \"#utility.yul\":649:682   */\n  tag_10\n  jump\t// in\ntag_21:\n    /* \"#utility.yul\":545:688   */\n  swap3\n  swap2\n  pop\n  pop\n  jump\t// out\n    /* \"#utility.yul\":694:1045   */\ntag_2:\n    /* \"#utility.yul\":764:770   */\n  0x00\n    /* \"#utility.yul\":813:815   */\n  0x20\n    /* \"#utility.yul\":801:810   */\n  dup3\n    /* \"#utility.yul\":792:799   */\n  dup5\n    /* \"#utility.yul\":788:811   */\n  sub\n    /* \"#utility.yul\":784:816   */\n  slt\n    /* \"#utility.yul\":781:900   */\n  iszero\n  tag_23\n  jumpi\n    /* \"#utility.yul\":819:898   */\n  tag_24\n  tag_7\n  jump\t// in\ntag_24:\n    /* \"#utility.yul\":781:900   */\ntag_23:\n    /* \"#utility.yul\":939:940   */\n  0x00\n    /* \"#utility.yul\":964:1028   */\n  tag_25\n    /* \"#utility.yul\":1020:1027   */\n  dup5\n    /* \"#utility.yul\":1011:1017   */\n  dup3\n    /* \"#utility.yul\":1000:1009   */\n  dup6\n    /* \"#utility.yul\":996:1018   */\n  add\n    /* \"#utility.yul\":964:1028   */\n  tag_11\n  jump\t// in\ntag_25:\n    /* \"#utility.yul\":954:1028   */\n  swap2\n  pop\n    /* \"#utility.yul\":910:1038   */\n  pop\n    /* \"#utility.yul\":694:1045   */\n  swap3\n  swap2\n  pop\n  pop\n  jump\t// out\n    /* \"Dcoffer/treasury.sol\":181:1693  contract treasury  {... */\ntag_5:\n  dataSize(sub_0)\n  dup1\n  dataOffset(sub_0)\n  0x00\n  codecopy\n  0x00\n  return\nstop\n\nsub_0: assembly {\n        /* \"Dcoffer/treasury.sol\":181:1693  contract treasury  {... */\n      mstore(0x40, 0x80)\n      jumpi(tag_1, lt(calldatasize, 0x04))\n      shr(0xe0, calldataload(0x00))\n      dup1\n      0x3a23bf49\n      eq\n      tag_2\n      jumpi\n      dup1\n      0x41a7726a\n      eq\n      tag_3\n      jumpi\n      dup1\n      0x97dedb1d\n      eq\n      tag_4\n      jumpi\n      dup1\n      0xc3c64674\n      eq\n      tag_5\n      jumpi\n    tag_1:\n      0x00\n      dup1\n      revert\n        /* \"Dcoffer/treasury.sol\":843:1304  function DCF_ETH(uint256 dcf_amount)public view returns(uint256){... */\n    tag_2:\n      callvalue\n      dup1\n      iszero\n      tag_6\n      jumpi\n      0x00\n      dup1\n      revert\n    tag_6:\n      pop\n      tag_7\n      0x04\n      dup1\n      calldatasize\n      sub\n      dup2\n      add\n      swap1\n      tag_8\n      swap2\n      swap1\n      tag_9\n      jump\t// in\n    tag_8:\n      tag_10\n      jump\t// in\n    tag_7:\n      mload(0x40)\n      tag_11\n      swap2\n      swap1\n      tag_12\n      jump\t// in\n    tag_11:\n      mload(0x40)\n      dup1\n      swap2\n      sub\n      swap1\n      return\n        /* \"Dcoffer/treasury.sol\":717:835  function subscribe(address subscriber)external payable{... */\n    tag_3:\n      tag_13\n      0x04\n      dup1\n      calldatasize\n      sub\n      dup2\n      add\n      swap1\n      tag_14\n      swap2\n      swap1\n      tag_15\n      jump\t// in\n    tag_14:\n      tag_16\n      jump\t// in\n    tag_13:\n      stop\n        /* \"Dcoffer/treasury.sol\":1312:1670  function ETH_DCF(uint256 eth_amount)public view returns(uint256){... */\n    tag_4:\n      callvalue\n      dup1\n      iszero\n      tag_17\n      jumpi\n      0x00\n      dup1\n      revert\n    tag_17:\n      pop\n      tag_18\n      0x04\n      dup1\n      calldatasize\n      sub\n      dup2\n      add\n      swap1\n      tag_19\n      swap2\n      swap1\n      tag_9\n      jump\t// in\n    tag_19:\n      tag_20\n      jump\t// in\n    tag_18:\n      mload(0x40)\n      tag_21\n      swap2\n      swap1\n      tag_12\n      jump\t// in\n    tag_21:\n      mload(0x40)\n      dup1\n      swap2\n      sub\n      swap1\n      return\n        /* \"Dcoffer/treasury.sol\":609:709  function setRouter(address user, bool power)external onlyOwner{... */\n    tag_5:\n      callvalue\n      dup1\n      iszero\n      tag_22\n      jumpi\n      0x00\n      dup1\n      revert\n    tag_22:\n      pop\n      tag_23\n      0x04\n      dup1\n      calldatasize\n      sub\n      dup2\n      add\n      swap1\n      tag_24\n      swap2\n      swap1\n      tag_25\n      jump\t// in\n    tag_24:\n      tag_26\n      jump\t// in\n    tag_23:\n      stop\n        /* \"Dcoffer/treasury.sol\":843:1304  function DCF_ETH(uint256 dcf_amount)public view returns(uint256){... */\n    tag_10:\n        /* \"Dcoffer/treasury.sol\":899:906  uint256 */\n      0x00\n        /* \"Dcoffer/treasury.sol\":914:933  uint256 _eth_amount */\n      dup1\n        /* \"Dcoffer/treasury.sol\":936:957  address(this).balance */\n      selfbalance\n        /* \"Dcoffer/treasury.sol\":914:957  uint256 _eth_amount = address(this).balance */\n      swap1\n      pop\n        /* \"Dcoffer/treasury.sol\":964:983  uint256 _dcf_amount */\n      0x00\n        /* \"Dcoffer/treasury.sol\":986:991  dcoff */\n      dup1\n      0x00\n      swap1\n      sload\n      swap1\n      0x0100\n      exp\n      swap1\n      div\n      0xffffffffffffffffffffffffffffffffffffffff\n      and\n        /* \"Dcoffer/treasury.sol\":986:1001  dcoff.balanceOf */\n      0xffffffffffffffffffffffffffffffffffffffff\n      and\n      0x70a08231\n        /* \"Dcoffer/treasury.sol\":1010:1014  this */\n      address\n        /* \"Dcoffer/treasury.sol\":986:1016  dcoff.balanceOf(address(this)) */\n      mload(0x40)\n      dup3\n      0xffffffff\n      and\n      0xe0\n      shl\n      dup2\n      mstore\n      0x04\n      add\n      tag_28\n      swap2\n      swap1\n      tag_29\n      jump\t// in\n    tag_28:\n      0x20\n      mload(0x40)\n      dup1\n      dup4\n      sub\n      dup2\n      dup7\n      gas\n      staticcall\n      iszero\n      dup1\n      iszero\n      tag_31\n      jumpi\n      returndatasize\n      0x00\n      dup1\n      returndatacopy\n      revert(0x00, returndatasize)\n    tag_31:\n      pop\n      pop\n      pop\n      pop\n      mload(0x40)\n      returndatasize\n      not(0x1f)\n      0x1f\n      dup3\n      add\n      and\n      dup3\n      add\n      dup1\n      0x40\n      mstore\n      pop\n      dup2\n      add\n      swap1\n      tag_32\n      swap2\n      swap1\n      tag_33\n      jump\t// in\n    tag_32:\n        /* \"Dcoffer/treasury.sol\":964:1016  uint256 _dcf_amount = dcoff.balanceOf(address(this)) */\n      swap1\n      pop\n        /* \"Dcoffer/treasury.sol\":1027:1047  uint256 Variable_dcf */\n      0x00\n        /* \"Dcoffer/treasury.sol\":1050:1077  _dcf_amount.add(dcf_amount) */\n      tag_34\n        /* \"Dcoffer/treasury.sol\":1066:1076  dcf_amount */\n      dup6\n        /* \"Dcoffer/treasury.sol\":1050:1061  _dcf_amount */\n      dup4\n        /* \"Dcoffer/treasury.sol\":1050:1065  _dcf_amount.add */\n      tag_35\n      swap1\n        /* \"Dcoffer/treasury.sol\":1050:1077  _dcf_amount.add(dcf_amount) */\n      swap2\n      swap1\n      0xffffffff\n      and\n      jump\t// in\n    tag_34:\n        /* \"Dcoffer/treasury.sol\":1027:1077  uint256 Variable_dcf = _dcf_amount.add(dcf_amount) */\n      swap1\n      pop\n        /* \"Dcoffer/treasury.sol\":1104:1109  dcoff */\n      0x00\n      dup1\n      sload\n      swap1\n      0x0100\n      exp\n      swap1\n      div\n      0xffffffffffffffffffffffffffffffffffffffff\n      and\n        /* \"Dcoffer/treasury.sol\":1104:1121  dcoff.totalSupply */\n      0xffffffffffffffffffffffffffffffffffffffff\n      and\n      0x18160ddd\n        /* \"Dcoffer/treasury.sol\":1104:1123  dcoff.totalSupply() */\n      mload(0x40)\n      dup2\n      0xffffffff\n      and\n      0xe0\n      shl\n      dup2\n      mstore\n      0x04\n      add\n      0x20\n      mload(0x40)\n      dup1\n      dup4\n      sub\n      dup2\n      dup7\n      gas\n      staticcall\n      iszero\n      dup1\n      iszero\n      tag_37\n      jumpi\n      returndatasize\n      0x00\n      dup1\n      returndatacopy\n      revert(0x00, returndatasize)\n    tag_37:\n      pop\n      pop\n      pop\n      pop\n      mload(0x40)\n      returndatasize\n      not(0x1f)\n      0x1f\n      dup3\n      add\n      and\n      dup3\n      add\n      dup1\n      0x40\n      mstore\n      pop\n      dup2\n      add\n      swap1\n      tag_38\n      swap2\n      swap1\n      tag_33\n      jump\t// in\n    tag_38:\n        /* \"Dcoffer/treasury.sol\":1089:1101  Variable_dcf */\n      dup2\n        /* \"Dcoffer/treasury.sol\":1089:1123  Variable_dcf > dcoff.totalSupply() */\n      gt\n        /* \"Dcoffer/treasury.sol\":1086:1175  if(Variable_dcf > dcoff.totalSupply()){... */\n      iszero\n      tag_39\n      jumpi\n        /* \"Dcoffer/treasury.sol\":1148:1153  dcoff */\n      0x00\n      dup1\n      sload\n      swap1\n      0x0100\n      exp\n      swap1\n      div\n      0xffffffffffffffffffffffffffffffffffffffff\n      and\n        /* \"Dcoffer/treasury.sol\":1148:1165  dcoff.totalSupply */\n      0xffffffffffffffffffffffffffffffffffffffff\n      and\n      0x18160ddd\n        /* \"Dcoffer/treasury.sol\":1148:1167  dcoff.totalSupply() */\n      mload(0x40)\n      dup2\n      0xffffffff\n      and\n      0xe0\n      shl\n      dup2\n      mstore\n      0x04\n      add\n      0x20\n      mload(0x40)\n      dup1\n      dup4\n      sub\n      dup2\n      dup7\n      gas\n      staticcall\n      iszero\n      dup1\n      iszero\n      tag_41\n      jumpi\n      returndatasize\n      0x00\n      dup1\n      returndatacopy\n      revert(0x00, returndatasize)\n    tag_41:\n      pop\n      pop\n      pop\n      pop\n      mload(0x40)\n      returndatasize\n      not(0x1f)\n      0x1f\n      dup3\n      add\n      and\n      dup3\n      add\n      dup1\n      0x40\n      mstore\n      pop\n      dup2\n      add\n      swap1\n      tag_42\n      swap2\n      swap1\n      tag_33\n      jump\t// in\n    tag_42:\n        /* \"Dcoffer/treasury.sol\":1133:1167  Variable_dcf = dcoff.totalSupply() */\n      swap1\n      pop\n        /* \"Dcoffer/treasury.sol\":1086:1175  if(Variable_dcf > dcoff.totalSupply()){... */\n    tag_39:\n        /* \"Dcoffer/treasury.sol\":1183:1203  uint256 Variable_eth */\n      0x00\n        /* \"Dcoffer/treasury.sol\":1206:1225  K.div(Variable_dcf) */\n      tag_43\n        /* \"Dcoffer/treasury.sol\":1212:1224  Variable_dcf */\n      dup3\n        /* \"Dcoffer/treasury.sol\":1206:1207  K */\n      sload(0x01)\n        /* \"Dcoffer/treasury.sol\":1206:1211  K.div */\n      tag_44\n      swap1\n        /* \"Dcoffer/treasury.sol\":1206:1225  K.div(Variable_dcf) */\n      swap2\n      swap1\n      0xffffffff\n      and\n      jump\t// in\n    tag_43:\n        /* \"Dcoffer/treasury.sol\":1183:1225  uint256 Variable_eth = K.div(Variable_dcf) */\n      swap1\n      pop\n        /* \"Dcoffer/treasury.sol\":1232:1246  uint256 _price */\n      0x00\n        /* \"Dcoffer/treasury.sol\":1249:1278  _eth_amount.sub(Variable_eth) */\n      tag_45\n        /* \"Dcoffer/treasury.sol\":1265:1277  Variable_eth */\n      dup3\n        /* \"Dcoffer/treasury.sol\":1249:1260  _eth_amount */\n      dup7\n        /* \"Dcoffer/treasury.sol\":1249:1264  _eth_amount.sub */\n      tag_46\n      swap1\n        /* \"Dcoffer/treasury.sol\":1249:1278  _eth_amount.sub(Variable_eth) */\n      swap2\n      swap1\n      0xffffffff\n      and\n      jump\t// in\n    tag_45:\n        /* \"Dcoffer/treasury.sol\":1232:1278  uint256 _price = _eth_amount.sub(Variable_eth) */\n      swap1\n      pop\n        /* \"Dcoffer/treasury.sol\":1292:1298  _price */\n      dup1\n        /* \"Dcoffer/treasury.sol\":1285:1298  return _price */\n      swap6\n      pop\n      pop\n      pop\n      pop\n      pop\n      pop\n        /* \"Dcoffer/treasury.sol\":843:1304  function DCF_ETH(uint256 dcf_amount)public view returns(uint256){... */\n      swap2\n      swap1\n      pop\n      jump\t// out\n        /* \"Dcoffer/treasury.sol\":717:835  function subscribe(address subscriber)external payable{... */\n    tag_16:\n        /* \"Dcoffer/treasury.sol\":788:806  uint256 dcf_amount */\n      0x00\n        /* \"Dcoffer/treasury.sol\":809:827  ETH_DCF(msg.value) */\n      tag_48\n        /* \"Dcoffer/treasury.sol\":817:826  msg.value */\n      callvalue\n        /* \"Dcoffer/treasury.sol\":809:816  ETH_DCF */\n      tag_20\n        /* \"Dcoffer/treasury.sol\":809:827  ETH_DCF(msg.value) */\n      jump\t// in\n    tag_48:\n        /* \"Dcoffer/treasury.sol\":788:827  uint256 dcf_amount = ETH_DCF(msg.value) */\n      swap1\n      pop\n        /* \"Dcoffer/treasury.sol\":771:835  {... */\n      pop\n        /* \"Dcoffer/treasury.sol\":717:835  function subscribe(address subscriber)external payable{... */\n      pop\n      jump\t// out\n        /* \"Dcoffer/treasury.sol\":1312:1670  function ETH_DCF(uint256 eth_amount)public view returns(uint256){... */\n    tag_20:\n        /* \"Dcoffer/treasury.sol\":1368:1375  uint256 */\n      0x00\n        /* \"Dcoffer/treasury.sol\":1383:1402  uint256 _eth_amount */\n      dup1\n        /* \"Dcoffer/treasury.sol\":1405:1426  address(this).balance */\n      selfbalance\n        /* \"Dcoffer/treasury.sol\":1383:1426  uint256 _eth_amount = address(this).balance */\n      swap1\n      pop\n        /* \"Dcoffer/treasury.sol\":1433:1452  uint256 _dcf_amount */\n      0x00\n        /* \"Dcoffer/treasury.sol\":1455:1460  dcoff */\n      dup1\n      0x00\n      swap1\n      sload\n      swap1\n      0x0100\n      exp\n      swap1\n      div\n      0xffffffffffffffffffffffffffffffffffffffff\n      and\n        /* \"Dcoffer/treasury.sol\":1455:1470  dcoff.balanceOf */\n      0xffffffffffffffffffffffffffffffffffffffff\n      and\n      0x70a08231\n        /* \"Dcoffer/treasury.sol\":1479:1483  this */\n      address\n        /* \"Dcoffer/treasury.sol\":1455:1485  dcoff.balanceOf(address(this)) */\n      mload(0x40)\n      dup3\n      0xffffffff\n      and\n      0xe0\n      shl\n      dup2\n      mstore\n      0x04\n      add\n      tag_50\n      swap2\n      swap1\n      tag_29\n      jump\t// in\n    tag_50:\n      0x20\n      mload(0x40)\n      dup1\n      dup4\n      sub\n      dup2\n      dup7\n      gas\n      staticcall\n      iszero\n      dup1\n      iszero\n      tag_52\n      jumpi\n      returndatasize\n      0x00\n      dup1\n      returndatacopy\n      revert(0x00, returndatasize)\n    tag_52:\n      pop\n      pop\n      pop\n      pop\n      mload(0x40)\n      returndatasize\n      not(0x1f)\n      0x1f\n      dup3\n      add\n      and\n      dup3\n      add\n      dup1\n      0x40\n      mstore\n      pop\n      dup2\n      add\n      swap1\n      tag_53\n      swap2\n      swap1\n      tag_33\n      jump\t// in\n    tag_53:\n        /* \"Dcoffer/treasury.sol\":1433:1485  uint256 _dcf_amount = dcoff.balanceOf(address(this)) */\n      swap1\n      pop\n        /* \"Dcoffer/treasury.sol\":1492:1512  uint256 Variable_eth */\n      0x00\n        /* \"Dcoffer/treasury.sol\":1515:1542  _eth_amount.add(eth_amount) */\n      tag_54\n        /* \"Dcoffer/treasury.sol\":1531:1541  eth_amount */\n      dup6\n        /* \"Dcoffer/treasury.sol\":1515:1526  _eth_amount */\n      dup5\n        /* \"Dcoffer/treasury.sol\":1515:1530  _eth_amount.add */\n      tag_35\n      swap1\n        /* \"Dcoffer/treasury.sol\":1515:1542  _eth_amount.add(eth_amount) */\n      swap2\n      swap1\n      0xffffffff\n      and\n      jump\t// in\n    tag_54:\n        /* \"Dcoffer/treasury.sol\":1492:1542  uint256 Variable_eth = _eth_amount.add(eth_amount) */\n      swap1\n      pop\n        /* \"Dcoffer/treasury.sol\":1549:1569  uint256 Variable_dcf */\n      0x00\n        /* \"Dcoffer/treasury.sol\":1572:1591  K.div(Variable_eth) */\n      tag_55\n        /* \"Dcoffer/treasury.sol\":1578:1590  Variable_eth */\n      dup3\n        /* \"Dcoffer/treasury.sol\":1572:1573  K */\n      sload(0x01)\n        /* \"Dcoffer/treasury.sol\":1572:1577  K.div */\n      tag_44\n      swap1\n        /* \"Dcoffer/treasury.sol\":1572:1591  K.div(Variable_eth) */\n      swap2\n      swap1\n      0xffffffff\n      and\n      jump\t// in\n    tag_55:\n        /* \"Dcoffer/treasury.sol\":1549:1591  uint256 Variable_dcf = K.div(Variable_eth) */\n      swap1\n      pop\n        /* \"Dcoffer/treasury.sol\":1598:1612  uint256 _price */\n      0x00\n        /* \"Dcoffer/treasury.sol\":1615:1644  _dcf_amount.sub(Variable_dcf) */\n      tag_56\n        /* \"Dcoffer/treasury.sol\":1631:1643  Variable_dcf */\n      dup3\n        /* \"Dcoffer/treasury.sol\":1615:1626  _dcf_amount */\n      dup6\n        /* \"Dcoffer/treasury.sol\":1615:1630  _dcf_amount.sub */\n      tag_46\n      swap1\n        /* \"Dcoffer/treasury.sol\":1615:1644  _dcf_amount.sub(Variable_dcf) */\n      swap2\n      swap1\n      0xffffffff\n      and\n      jump\t// in\n    tag_56:\n        /* \"Dcoffer/treasury.sol\":1598:1644  uint256 _price = _dcf_amount.sub(Variable_dcf) */\n      swap1\n      pop\n        /* \"Dcoffer/treasury.sol\":1658:1664  _price */\n      dup1\n        /* \"Dcoffer/treasury.sol\":1651:1664  return _price */\n      swap6\n      pop\n      pop\n      pop\n      pop\n      pop\n      pop\n        /* \"Dcoffer/treasury.sol\":1312:1670  function ETH_DCF(uint256 eth_amount)public view returns(uint256){... */\n      swap2\n      swap1\n      pop\n      jump\t// out\n        /* \"Dcoffer/treasury.sol\":609:709  function setRouter(address user, bool power)external onlyOwner{... */\n    tag_26:\n        /* \"Dcoffer/treasury.sol\":528:538  msg.sender */\n      caller\n        /* \"Dcoffer/treasury.sol\":519:538  owner == msg.sender */\n      0xffffffffffffffffffffffffffffffffffffffff\n      and\n        /* \"Dcoffer/treasury.sol\":519:524  owner */\n      0x02\n      0x00\n      swap1\n      sload\n      swap1\n      0x0100\n      exp\n      swap1\n      div\n      0xffffffffffffffffffffffffffffffffffffffff\n      and\n        /* \"Dcoffer/treasury.sol\":519:538  owner == msg.sender */\n      0xffffffffffffffffffffffffffffffffffffffff\n      and\n      eq\n        /* \"Dcoffer/treasury.sol\":511:575  require(owner == msg.sender, \"Ownable: caller is not the owner\") */\n      tag_58\n      jumpi\n      mload(0x40)\n      0x08c379a000000000000000000000000000000000000000000000000000000000\n      dup2\n      mstore\n      0x04\n      add\n      tag_59\n      swap1\n      tag_60\n      jump\t// in\n    tag_59:\n      mload(0x40)\n      dup1\n      swap2\n      sub\n      swap1\n      revert\n    tag_58:\n        /* \"Dcoffer/treasury.sol\":698:703  power */\n      dup1\n        /* \"Dcoffer/treasury.sol\":678:689  RouterAdmin */\n      0x03\n        /* \"Dcoffer/treasury.sol\":678:695  RouterAdmin[user] */\n      0x00\n        /* \"Dcoffer/treasury.sol\":690:694  user */\n      dup5\n        /* \"Dcoffer/treasury.sol\":678:695  RouterAdmin[user] */\n      0xffffffffffffffffffffffffffffffffffffffff\n      and\n      0xffffffffffffffffffffffffffffffffffffffff\n      and\n      dup2\n      mstore\n      0x20\n      add\n      swap1\n      dup2\n      mstore\n      0x20\n      add\n      0x00\n      keccak256\n      0x00\n        /* \"Dcoffer/treasury.sol\":678:703  RouterAdmin[user] = power */\n      0x0100\n      exp\n      dup2\n      sload\n      dup2\n      0xff\n      mul\n      not\n      and\n      swap1\n      dup4\n      iszero\n      iszero\n      mul\n      or\n      swap1\n      sstore\n      pop\n        /* \"Dcoffer/treasury.sol\":609:709  function setRouter(address user, bool power)external onlyOwner{... */\n      pop\n      pop\n      jump\t// out\n        /* \"@openzeppelin/contracts/utils/math/SafeMath.sol\":2755:2851  function add(uint256 a, uint256 b) internal pure returns (uint256) {... */\n    tag_35:\n        /* \"@openzeppelin/contracts/utils/math/SafeMath.sol\":2813:2820  uint256 */\n      0x00\n        /* \"@openzeppelin/contracts/utils/math/SafeMath.sol\":2843:2844  b */\n      dup2\n        /* \"@openzeppelin/contracts/utils/math/SafeMath.sol\":2839:2840  a */\n      dup4\n        /* \"@openzeppelin/contracts/utils/math/SafeMath.sol\":2839:2844  a + b */\n      tag_63\n      swap2\n      swap1\n      tag_64\n      jump\t// in\n    tag_63:\n        /* \"@openzeppelin/contracts/utils/math/SafeMath.sol\":2832:2844  return a + b */\n      swap1\n      pop\n        /* \"@openzeppelin/contracts/utils/math/SafeMath.sol\":2755:2851  function add(uint256 a, uint256 b) internal pure returns (uint256) {... */\n      swap3\n      swap2\n      pop\n      pop\n      jump\t// out\n        /* \"@openzeppelin/contracts/utils/math/SafeMath.sol\":3850:3946  function div(uint256 a, uint256 b) internal pure returns (uint256) {... */\n    tag_44:\n        /* \"@openzeppelin/contracts/utils/math/SafeMath.sol\":3908:3915  uint256 */\n      0x00\n        /* \"@openzeppelin/contracts/utils/math/SafeMath.sol\":3938:3939  b */\n      dup2\n        /* \"@openzeppelin/contracts/utils/math/SafeMath.sol\":3934:3935  a */\n      dup4\n        /* \"@openzeppelin/contracts/utils/math/SafeMath.sol\":3934:3939  a / b */\n      tag_66\n      swap2\n      swap1\n      tag_67\n      jump\t// in\n    tag_66:\n        /* \"@openzeppelin/contracts/utils/math/SafeMath.sol\":3927:3939  return a / b */\n      swap1\n      pop\n        /* \"@openzeppelin/contracts/utils/math/SafeMath.sol\":3850:3946  function div(uint256 a, uint256 b) internal pure returns (uint256) {... */\n      swap3\n      swap2\n      pop\n      pop\n      jump\t// out\n        /* \"@openzeppelin/contracts/utils/math/SafeMath.sol\":3122:3218  function sub(uint256 a, uint256 b) internal pure returns (uint256) {... */\n    tag_46:\n        /* \"@openzeppelin/contracts/utils/math/SafeMath.sol\":3180:3187  uint256 */\n      0x00\n        /* \"@openzeppelin/contracts/utils/math/SafeMath.sol\":3210:3211  b */\n      dup2\n        /* \"@openzeppelin/contracts/utils/math/SafeMath.sol\":3206:3207  a */\n      dup4\n        /* \"@openzeppelin/contracts/utils/math/SafeMath.sol\":3206:3211  a - b */\n      tag_69\n      swap2\n      swap1\n      tag_70\n      jump\t// in\n    tag_69:\n        /* \"@openzeppelin/contracts/utils/math/SafeMath.sol\":3199:3211  return a - b */\n      swap1\n      pop\n        /* \"@openzeppelin/contracts/utils/math/SafeMath.sol\":3122:3218  function sub(uint256 a, uint256 b) internal pure returns (uint256) {... */\n      swap3\n      swap2\n      pop\n      pop\n      jump\t// out\n        /* \"#utility.yul\":88:205   */\n    tag_72:\n        /* \"#utility.yul\":197:198   */\n      0x00\n        /* \"#utility.yul\":194:195   */\n      dup1\n        /* \"#utility.yul\":187:199   */\n      revert\n        /* \"#utility.yul\":334:411   */\n    tag_74:\n        /* \"#utility.yul\":371:378   */\n      0x00\n        /* \"#utility.yul\":400:405   */\n      dup2\n        /* \"#utility.yul\":389:405   */\n      swap1\n      pop\n        /* \"#utility.yul\":334:411   */\n      swap2\n      swap1\n      pop\n      jump\t// out\n        /* \"#utility.yul\":417:539   */\n    tag_75:\n        /* \"#utility.yul\":490:514   */\n      tag_98\n        /* \"#utility.yul\":508:513   */\n      dup2\n        /* \"#utility.yul\":490:514   */\n      tag_74\n      jump\t// in\n    tag_98:\n        /* \"#utility.yul\":483:488   */\n      dup2\n        /* \"#utility.yul\":480:515   */\n      eq\n        /* \"#utility.yul\":470:533   */\n      tag_99\n      jumpi\n        /* \"#utility.yul\":529:530   */\n      0x00\n        /* \"#utility.yul\":526:527   */\n      dup1\n        /* \"#utility.yul\":519:531   */\n      revert\n        /* \"#utility.yul\":470:533   */\n    tag_99:\n        /* \"#utility.yul\":417:539   */\n      pop\n      jump\t// out\n        /* \"#utility.yul\":545:684   */\n    tag_76:\n        /* \"#utility.yul\":591:596   */\n      0x00\n        /* \"#utility.yul\":629:635   */\n      dup2\n        /* \"#utility.yul\":616:636   */\n      calldataload\n        /* \"#utility.yul\":607:636   */\n      swap1\n      pop\n        /* \"#utility.yul\":645:678   */\n      tag_101\n        /* \"#utility.yul\":672:677   */\n      dup2\n        /* \"#utility.yul\":645:678   */\n      tag_75\n      jump\t// in\n    tag_101:\n        /* \"#utility.yul\":545:684   */\n      swap3\n      swap2\n      pop\n      pop\n      jump\t// out\n        /* \"#utility.yul\":690:1019   */\n    tag_9:\n        /* \"#utility.yul\":749:755   */\n      0x00\n        /* \"#utility.yul\":798:800   */\n      0x20\n        /* \"#utility.yul\":786:795   */\n      dup3\n        /* \"#utility.yul\":777:784   */\n      dup5\n        /* \"#utility.yul\":773:796   */\n      sub\n        /* \"#utility.yul\":769:801   */\n      slt\n        /* \"#utility.yul\":766:885   */\n      iszero\n      tag_103\n      jumpi\n        /* \"#utility.yul\":804:883   */\n      tag_104\n      tag_72\n      jump\t// in\n    tag_104:\n        /* \"#utility.yul\":766:885   */\n    tag_103:\n        /* \"#utility.yul\":924:925   */\n      0x00\n        /* \"#utility.yul\":949:1002   */\n      tag_105\n        /* \"#utility.yul\":994:1001   */\n      dup5\n        /* \"#utility.yul\":985:991   */\n      dup3\n        /* \"#utility.yul\":974:983   */\n      dup6\n        /* \"#utility.yul\":970:992   */\n      add\n        /* \"#utility.yul\":949:1002   */\n      tag_76\n      jump\t// in\n    tag_105:\n        /* \"#utility.yul\":939:1002   */\n      swap2\n      pop\n        /* \"#utility.yul\":895:1012   */\n      pop\n        /* \"#utility.yul\":690:1019   */\n      swap3\n      swap2\n      pop\n      pop\n      jump\t// out\n        /* \"#utility.yul\":1025:1143   */\n    tag_77:\n        /* \"#utility.yul\":1112:1136   */\n      tag_107\n        /* \"#utility.yul\":1130:1135   */\n      dup2\n        /* \"#utility.yul\":1112:1136   */\n      tag_74\n      jump\t// in\n    tag_107:\n        /* \"#utility.yul\":1107:1110   */\n      dup3\n        /* \"#utility.yul\":1100:1137   */\n      mstore\n        /* \"#utility.yul\":1025:1143   */\n      pop\n      pop\n      jump\t// out\n        /* \"#utility.yul\":1149:1371   */\n    tag_12:\n        /* \"#utility.yul\":1242:1246   */\n      0x00\n        /* \"#utility.yul\":1280:1282   */\n      0x20\n        /* \"#utility.yul\":1269:1278   */\n      dup3\n        /* \"#utility.yul\":1265:1283   */\n      add\n        /* \"#utility.yul\":1257:1283   */\n      swap1\n      pop\n        /* \"#utility.yul\":1293:1364   */\n      tag_109\n        /* \"#utility.yul\":1361:1362   */\n      0x00\n        /* \"#utility.yul\":1350:1359   */\n      dup4\n        /* \"#utility.yul\":1346:1363   */\n      add\n        /* \"#utility.yul\":1337:1343   */\n      dup5\n        /* \"#utility.yul\":1293:1364   */\n      tag_77\n      jump\t// in\n    tag_109:\n        /* \"#utility.yul\":1149:1371   */\n      swap3\n      swap2\n      pop\n      pop\n      jump\t// out\n        /* \"#utility.yul\":1377:1503   */\n    tag_78:\n        /* \"#utility.yul\":1414:1421   */\n      0x00\n        /* \"#utility.yul\":1454:1496   */\n      0xffffffffffffffffffffffffffffffffffffffff\n        /* \"#utility.yul\":1447:1452   */\n      dup3\n        /* \"#utility.yul\":1443:1497   */\n      and\n        /* \"#utility.yul\":1432:1497   */\n      swap1\n      pop\n        /* \"#utility.yul\":1377:1503   */\n      swap2\n      swap1\n      pop\n      jump\t// out\n        /* \"#utility.yul\":1509:1605   */\n    tag_79:\n        /* \"#utility.yul\":1546:1553   */\n      0x00\n        /* \"#utility.yul\":1575:1599   */\n      tag_112\n        /* \"#utility.yul\":1593:1598   */\n      dup3\n        /* \"#utility.yul\":1575:1599   */\n      tag_78\n      jump\t// in\n    tag_112:\n        /* \"#utility.yul\":1564:1599   */\n      swap1\n      pop\n        /* \"#utility.yul\":1509:1605   */\n      swap2\n      swap1\n      pop\n      jump\t// out\n        /* \"#utility.yul\":1611:1733   */\n    tag_80:\n        /* \"#utility.yul\":1684:1708   */\n      tag_114\n        /* \"#utility.yul\":1702:1707   */\n      dup2\n        /* \"#utility.yul\":1684:1708   */\n      tag_79\n      jump\t// in\n    tag_114:\n        /* \"#utility.yul\":1677:1682   */\n      dup2\n        /* \"#utility.yul\":1674:1709   */\n      eq\n        /* \"#utility.yul\":1664:1727   */\n      tag_115\n      jumpi\n        /* \"#utility.yul\":1723:1724   */\n      0x00\n        /* \"#utility.yul\":1720:1721   */\n      dup1\n        /* \"#utility.yul\":1713:1725   */\n      revert\n        /* \"#utility.yul\":1664:1727   */\n    tag_115:\n        /* \"#utility.yul\":1611:1733   */\n      pop\n      jump\t// out\n        /* \"#utility.yul\":1739:1878   */\n    tag_81:\n        /* \"#utility.yul\":1785:1790   */\n      0x00\n        /* \"#utility.yul\":1823:1829   */\n      dup2\n        /* \"#utility.yul\":1810:1830   */\n      calldataload\n        /* \"#utility.yul\":1801:1830   */\n      swap1\n      pop\n        /* \"#utility.yul\":1839:1872   */\n      tag_117\n        /* \"#utility.yul\":1866:1871   */\n      dup2\n        /* \"#utility.yul\":1839:1872   */\n      tag_80\n      jump\t// in\n    tag_117:\n        /* \"#utility.yul\":1739:1878   */\n      swap3\n      swap2\n      pop\n      pop\n      jump\t// out\n        /* \"#utility.yul\":1884:2213   */\n    tag_15:\n        /* \"#utility.yul\":1943:1949   */\n      0x00\n        /* \"#utility.yul\":1992:1994   */\n      0x20\n        /* \"#utility.yul\":1980:1989   */\n      dup3\n        /* \"#utility.yul\":1971:1978   */\n      dup5\n        /* \"#utility.yul\":1967:1990   */\n      sub\n        /* \"#utility.yul\":1963:1995   */\n      slt\n        /* \"#utility.yul\":1960:2079   */\n      iszero\n      tag_119\n      jumpi\n        /* \"#utility.yul\":1998:2077   */\n      tag_120\n      tag_72\n      jump\t// in\n    tag_120:\n        /* \"#utility.yul\":1960:2079   */\n    tag_119:\n        /* \"#utility.yul\":2118:2119   */\n      0x00\n        /* \"#utility.yul\":2143:2196   */\n      tag_121\n        /* \"#utility.yul\":2188:2195   */\n      dup5\n        /* \"#utility.yul\":2179:2185   */\n      dup3\n        /* \"#utility.yul\":2168:2177   */\n      dup6\n        /* \"#utility.yul\":2164:2186   */\n      add\n        /* \"#utility.yul\":2143:2196   */\n      tag_81\n      jump\t// in\n    tag_121:\n        /* \"#utility.yul\":2133:2196   */\n      swap2\n      pop\n        /* \"#utility.yul\":2089:2206   */\n      pop\n        /* \"#utility.yul\":1884:2213   */\n      swap3\n      swap2\n      pop\n      pop\n      jump\t// out\n        /* \"#utility.yul\":2219:2309   */\n    tag_82:\n        /* \"#utility.yul\":2253:2260   */\n      0x00\n        /* \"#utility.yul\":2296:2301   */\n      dup2\n        /* \"#utility.yul\":2289:2302   */\n      iszero\n        /* \"#utility.yul\":2282:2303   */\n      iszero\n        /* \"#utility.yul\":2271:2303   */\n      swap1\n      pop\n        /* \"#utility.yul\":2219:2309   */\n      swap2\n      swap1\n      pop\n      jump\t// out\n        /* \"#utility.yul\":2315:2431   */\n    tag_83:\n        /* \"#utility.yul\":2385:2406   */\n      tag_124\n        /* \"#utility.yul\":2400:2405   */\n      dup2\n        /* \"#utility.yul\":2385:2406   */\n      tag_82\n      jump\t// in\n    tag_124:\n        /* \"#utility.yul\":2378:2383   */\n      dup2\n        /* \"#utility.yul\":2375:2407   */\n      eq\n        /* \"#utility.yul\":2365:2425   */\n      tag_125\n      jumpi\n        /* \"#utility.yul\":2421:2422   */\n      0x00\n        /* \"#utility.yul\":2418:2419   */\n      dup1\n        /* \"#utility.yul\":2411:2423   */\n      revert\n        /* \"#utility.yul\":2365:2425   */\n    tag_125:\n        /* \"#utility.yul\":2315:2431   */\n      pop\n      jump\t// out\n        /* \"#utility.yul\":2437:2570   */\n    tag_84:\n        /* \"#utility.yul\":2480:2485   */\n      0x00\n        /* \"#utility.yul\":2518:2524   */\n      dup2\n        /* \"#utility.yul\":2505:2525   */\n      calldataload\n        /* \"#utility.yul\":2496:2525   */\n      swap1\n      pop\n        /* \"#utility.yul\":2534:2564   */\n      tag_127\n        /* \"#utility.yul\":2558:2563   */\n      dup2\n        /* \"#utility.yul\":2534:2564   */\n      tag_83\n      jump\t// in\n    tag_127:\n        /* \"#utility.yul\":2437:2570   */\n      swap3\n      swap2\n      pop\n      pop\n      jump\t// out\n        /* \"#utility.yul\":2576:3044   */\n    tag_25:\n        /* \"#utility.yul\":2641:2647   */\n      0x00\n        /* \"#utility.yul\":2649:2655   */\n      dup1\n        /* \"#utility.yul\":2698:2700   */\n      0x40\n        /* \"#utility.yul\":2686:2695   */\n      dup4\n        /* \"#utility.yul\":2677:2684   */\n      dup6\n        /* \"#utility.yul\":2673:2696   */\n      sub\n        /* \"#utility.yul\":2669:2701   */\n      slt\n        /* \"#utility.yul\":2666:2785   */\n      iszero\n      tag_129\n      jumpi\n        /* \"#utility.yul\":2704:2783   */\n      tag_130\n      tag_72\n      jump\t// in\n    tag_130:\n        /* \"#utility.yul\":2666:2785   */\n    tag_129:\n        /* \"#utility.yul\":2824:2825   */\n      0x00\n        /* \"#utility.yul\":2849:2902   */\n      tag_131\n        /* \"#utility.yul\":2894:2901   */\n      dup6\n        /* \"#utility.yul\":2885:2891   */\n      dup3\n        /* \"#utility.yul\":2874:2883   */\n      dup7\n        /* \"#utility.yul\":2870:2892   */\n      add\n        /* \"#utility.yul\":2849:2902   */\n      tag_81\n      jump\t// in\n    tag_131:\n        /* \"#utility.yul\":2839:2902   */\n      swap3\n      pop\n        /* \"#utility.yul\":2795:2912   */\n      pop\n        /* \"#utility.yul\":2951:2953   */\n      0x20\n        /* \"#utility.yul\":2977:3027   */\n      tag_132\n        /* \"#utility.yul\":3019:3026   */\n      dup6\n        /* \"#utility.yul\":3010:3016   */\n      dup3\n        /* \"#utility.yul\":2999:3008   */\n      dup7\n        /* \"#utility.yul\":2995:3017   */\n      add\n        /* \"#utility.yul\":2977:3027   */\n      tag_84\n      jump\t// in\n    tag_132:\n        /* \"#utility.yul\":2967:3027   */\n      swap2\n      pop\n        /* \"#utility.yul\":2922:3037   */\n      pop\n        /* \"#utility.yul\":2576:3044   */\n      swap3\n      pop\n      swap3\n      swap1\n      pop\n      jump\t// out\n        /* \"#utility.yul\":3050:3168   */\n    tag_85:\n        /* \"#utility.yul\":3137:3161   */\n      tag_134\n        /* \"#utility.yul\":3155:3160   */\n      dup2\n        /* \"#utility.yul\":3137:3161   */\n      tag_79\n      jump\t// in\n    tag_134:\n        /* \"#utility.yul\":3132:3135   */\n      dup3\n        /* \"#utility.yul\":3125:3162   */\n      mstore\n        /* \"#utility.yul\":3050:3168   */\n      pop\n      pop\n      jump\t// out\n        /* \"#utility.yul\":3174:3396   */\n    tag_29:\n        /* \"#utility.yul\":3267:3271   */\n      0x00\n        /* \"#utility.yul\":3305:3307   */\n      0x20\n        /* \"#utility.yul\":3294:3303   */\n      dup3\n        /* \"#utility.yul\":3290:3308   */\n      add\n        /* \"#utility.yul\":3282:3308   */\n      swap1\n      pop\n        /* \"#utility.yul\":3318:3389   */\n      tag_136\n        /* \"#utility.yul\":3386:3387   */\n      0x00\n        /* \"#utility.yul\":3375:3384   */\n      dup4\n        /* \"#utility.yul\":3371:3388   */\n      add\n        /* \"#utility.yul\":3362:3368   */\n      dup5\n        /* \"#utility.yul\":3318:3389   */\n      tag_85\n      jump\t// in\n    tag_136:\n        /* \"#utility.yul\":3174:3396   */\n      swap3\n      swap2\n      pop\n      pop\n      jump\t// out\n        /* \"#utility.yul\":3402:3545   */\n    tag_86:\n        /* \"#utility.yul\":3459:3464   */\n      0x00\n        /* \"#utility.yul\":3490:3496   */\n      dup2\n        /* \"#utility.yul\":3484:3497   */\n      mload\n        /* \"#utility.yul\":3475:3497   */\n      swap1\n      pop\n        /* \"#utility.yul\":3506:3539   */\n      tag_138\n        /* \"#utility.yul\":3533:3538   */\n      dup2\n        /* \"#utility.yul\":3506:3539   */\n      tag_75\n      jump\t// in\n    tag_138:\n        /* \"#utility.yul\":3402:3545   */\n      swap3\n      swap2\n      pop\n      pop\n      jump\t// out\n        /* \"#utility.yul\":3551:3902   */\n    tag_33:\n        /* \"#utility.yul\":3621:3627   */\n      0x00\n        /* \"#utility.yul\":3670:3672   */\n      0x20\n        /* \"#utility.yul\":3658:3667   */\n      dup3\n        /* \"#utility.yul\":3649:3656   */\n      dup5\n        /* \"#utility.yul\":3645:3668   */\n      sub\n        /* \"#utility.yul\":3641:3673   */\n      slt\n        /* \"#utility.yul\":3638:3757   */\n      iszero\n      tag_140\n      jumpi\n        /* \"#utility.yul\":3676:3755   */\n      tag_141\n      tag_72\n      jump\t// in\n    tag_141:\n        /* \"#utility.yul\":3638:3757   */\n    tag_140:\n        /* \"#utility.yul\":3796:3797   */\n      0x00\n        /* \"#utility.yul\":3821:3885   */\n      tag_142\n        /* \"#utility.yul\":3877:3884   */\n      dup5\n        /* \"#utility.yul\":3868:3874   */\n      dup3\n        /* \"#utility.yul\":3857:3866   */\n      dup6\n        /* \"#utility.yul\":3853:3875   */\n      add\n        /* \"#utility.yul\":3821:3885   */\n      tag_86\n      jump\t// in\n    tag_142:\n        /* \"#utility.yul\":3811:3885   */\n      swap2\n      pop\n        /* \"#utility.yul\":3767:3895   */\n      pop\n        /* \"#utility.yul\":3551:3902   */\n      swap3\n      swap2\n      pop\n      pop\n      jump\t// out\n        /* \"#utility.yul\":3908:4077   */\n    tag_87:\n        /* \"#utility.yul\":3992:4003   */\n      0x00\n        /* \"#utility.yul\":4026:4032   */\n      dup3\n        /* \"#utility.yul\":4021:4024   */\n      dup3\n        /* \"#utility.yul\":4014:4033   */\n      mstore\n        /* \"#utility.yul\":4066:4070   */\n      0x20\n        /* \"#utility.yul\":4061:4064   */\n      dup3\n        /* \"#utility.yul\":4057:4071   */\n      add\n        /* \"#utility.yul\":4042:4071   */\n      swap1\n      pop\n        /* \"#utility.yul\":3908:4077   */\n      swap3\n      swap2\n      pop\n      pop\n      jump\t// out\n        /* \"#utility.yul\":4083:4265   */\n    tag_88:\n        /* \"#utility.yul\":4223:4257   */\n      0x4f776e61626c653a2063616c6c6572206973206e6f7420746865206f776e6572\n        /* \"#utility.yul\":4219:4220   */\n      0x00\n        /* \"#utility.yul\":4211:4217   */\n      dup3\n        /* \"#utility.yul\":4207:4221   */\n      add\n        /* \"#utility.yul\":4200:4258   */\n      mstore\n        /* \"#utility.yul\":4083:4265   */\n      pop\n      jump\t// out\n        /* \"#utility.yul\":4271:4637   */\n    tag_89:\n        /* \"#utility.yul\":4413:4416   */\n      0x00\n        /* \"#utility.yul\":4434:4501   */\n      tag_146\n        /* \"#utility.yul\":4498:4500   */\n      0x20\n        /* \"#utility.yul\":4493:4496   */\n      dup4\n        /* \"#utility.yul\":4434:4501   */\n      tag_87\n      jump\t// in\n    tag_146:\n        /* \"#utility.yul\":4427:4501   */\n      swap2\n      pop\n        /* \"#utility.yul\":4510:4603   */\n      tag_147\n        /* \"#utility.yul\":4599:4602   */\n      dup3\n        /* \"#utility.yul\":4510:4603   */\n      tag_88\n      jump\t// in\n    tag_147:\n        /* \"#utility.yul\":4628:4630   */\n      0x20\n        /* \"#utility.yul\":4623:4626   */\n      dup3\n        /* \"#utility.yul\":4619:4631   */\n      add\n        /* \"#utility.yul\":4612:4631   */\n      swap1\n      pop\n        /* \"#utility.yul\":4271:4637   */\n      swap2\n      swap1\n      pop\n      jump\t// out\n        /* \"#utility.yul\":4643:5062   */\n    tag_60:\n        /* \"#utility.yul\":4809:4813   */\n      0x00\n        /* \"#utility.yul\":4847:4849   */\n      0x20\n        /* \"#utility.yul\":4836:4845   */\n      dup3\n        /* \"#utility.yul\":4832:4850   */\n      add\n        /* \"#utility.yul\":4824:4850   */\n      swap1\n      pop\n        /* \"#utility.yul\":4896:4905   */\n      dup2\n        /* \"#utility.yul\":4890:4894   */\n      dup2\n        /* \"#utility.yul\":4886:4906   */\n      sub\n        /* \"#utility.yul\":4882:4883   */\n      0x00\n        /* \"#utility.yul\":4871:4880   */\n      dup4\n        /* \"#utility.yul\":4867:4884   */\n      add\n        /* \"#utility.yul\":4860:4907   */\n      mstore\n        /* \"#utility.yul\":4924:5055   */\n      tag_149\n        /* \"#utility.yul\":5050:5054   */\n      dup2\n        /* \"#utility.yul\":4924:5055   */\n      tag_89\n      jump\t// in\n    tag_149:\n        /* \"#utility.yul\":4916:5055   */\n      swap1\n      pop\n        /* \"#utility.yul\":4643:5062   */\n      swap2\n      swap1\n      pop\n      jump\t// out\n        /* \"#utility.yul\":5068:5248   */\n    tag_90:\n        /* \"#utility.yul\":5116:5193   */\n      0x4e487b7100000000000000000000000000000000000000000000000000000000\n        /* \"#utility.yul\":5113:5114   */\n      0x00\n        /* \"#utility.yul\":5106:5194   */\n      mstore\n        /* \"#utility.yul\":5213:5217   */\n      0x11\n        /* \"#utility.yul\":5210:5211   */\n      0x04\n        /* \"#utility.yul\":5203:5218   */\n      mstore\n        /* \"#utility.yul\":5237:5241   */\n      0x24\n        /* \"#utility.yul\":5234:5235   */\n      0x00\n        /* \"#utility.yul\":5227:5242   */\n      revert\n        /* \"#utility.yul\":5254:5559   */\n    tag_64:\n        /* \"#utility.yul\":5294:5297   */\n      0x00\n        /* \"#utility.yul\":5313:5333   */\n      tag_152\n        /* \"#utility.yul\":5331:5332   */\n      dup3\n        /* \"#utility.yul\":5313:5333   */\n      tag_74\n      jump\t// in\n    tag_152:\n        /* \"#utility.yul\":5308:5333   */\n      swap2\n      pop\n        /* \"#utility.yul\":5347:5367   */\n      tag_153\n        /* \"#utility.yul\":5365:5366   */\n      dup4\n        /* \"#utility.yul\":5347:5367   */\n      tag_74\n      jump\t// in\n    tag_153:\n        /* \"#utility.yul\":5342:5367   */\n      swap3\n      pop\n        /* \"#utility.yul\":5501:5502   */\n      dup3\n        /* \"#utility.yul\":5433:5499   */\n      0xffffffffffffffffffffffffffffffffffffffffffffffffffffffffffffffff\n        /* \"#utility.yul\":5429:5503   */\n      sub\n        /* \"#utility.yul\":5426:5427   */\n      dup3\n        /* \"#utility.yul\":5423:5504   */\n      gt\n        /* \"#utility.yul\":5420:5527   */\n      iszero\n      tag_154\n      jumpi\n        /* \"#utility.yul\":5507:5525   */\n      tag_155\n      tag_90\n      jump\t// in\n    tag_155:\n        /* \"#utility.yul\":5420:5527   */\n    tag_154:\n        /* \"#utility.yul\":5551:5552   */\n      dup3\n        /* \"#utility.yul\":5548:5549   */\n      dup3\n        /* \"#utility.yul\":5544:5553   */\n      add\n        /* \"#utility.yul\":5537:5553   */\n      swap1\n      pop\n        /* \"#utility.yul\":5254:5559   */\n      swap3\n      swap2\n      pop\n      pop\n      jump\t// out\n        /* \"#utility.yul\":5565:5745   */\n    tag_91:\n        /* \"#utility.yul\":5613:5690   */\n      0x4e487b7100000000000000000000000000000000000000000000000000000000\n        /* \"#utility.yul\":5610:5611   */\n      0x00\n        /* \"#utility.yul\":5603:5691   */\n      mstore\n        /* \"#utility.yul\":5710:5714   */\n      0x12\n        /* \"#utility.yul\":5707:5708   */\n      0x04\n        /* \"#utility.yul\":5700:5715   */\n      mstore\n        /* \"#utility.yul\":5734:5738   */\n      0x24\n        /* \"#utility.yul\":5731:5732   */\n      0x00\n        /* \"#utility.yul\":5724:5739   */\n      revert\n        /* \"#utility.yul\":5751:5936   */\n    tag_67:\n        /* \"#utility.yul\":5791:5792   */\n      0x00\n        /* \"#utility.yul\":5808:5828   */\n      tag_158\n        /* \"#utility.yul\":5826:5827   */\n      dup3\n        /* \"#utility.yul\":5808:5828   */\n      tag_74\n      jump\t// in\n    tag_158:\n        /* \"#utility.yul\":5803:5828   */\n      swap2\n      pop\n        /* \"#utility.yul\":5842:5862   */\n      tag_159\n        /* \"#utility.yul\":5860:5861   */\n      dup4\n        /* \"#utility.yul\":5842:5862   */\n      tag_74\n      jump\t// in\n    tag_159:\n        /* \"#utility.yul\":5837:5862   */\n      swap3\n      pop\n        /* \"#utility.yul\":5881:5882   */\n      dup3\n        /* \"#utility.yul\":5871:5906   */\n      tag_160\n      jumpi\n        /* \"#utility.yul\":5886:5904   */\n      tag_161\n      tag_91\n      jump\t// in\n    tag_161:\n        /* \"#utility.yul\":5871:5906   */\n    tag_160:\n        /* \"#utility.yul\":5928:5929   */\n      dup3\n        /* \"#utility.yul\":5925:5926   */\n      dup3\n        /* \"#utility.yul\":5921:5930   */\n      div\n        /* \"#utility.yul\":5916:5930   */\n      swap1\n      pop\n        /* \"#utility.yul\":5751:5936   */\n      swap3\n      swap2\n      pop\n      pop\n      jump\t// out\n        /* \"#utility.yul\":5942:6133   */\n    tag_70:\n        /* \"#utility.yul\":5982:5986   */\n      0x00\n        /* \"#utility.yul\":6002:6022   */\n      tag_163\n        /* \"#utility.yul\":6020:6021   */\n      dup3\n        /* \"#utility.yul\":6002:6022   */\n      tag_74\n      jump\t// in\n    tag_163:\n        /* \"#utility.yul\":5997:6022   */\n      swap2\n      pop\n        /* \"#utility.yul\":6036:6056   */\n      tag_164\n        /* \"#utility.yul\":6054:6055   */\n      dup4\n        /* \"#utility.yul\":6036:6056   */\n      tag_74\n      jump\t// in\n    tag_164:\n        /* \"#utility.yul\":6031:6056   */\n      swap3\n      pop\n        /* \"#utility.yul\":6075:6076   */\n      dup3\n        /* \"#utility.yul\":6072:6073   */\n      dup3\n        /* \"#utility.yul\":6069:6077   */\n      lt\n        /* \"#utility.yul\":6066:6100   */\n      iszero\n      tag_165\n      jumpi\n        /* \"#utility.yul\":6080:6098   */\n      tag_166\n      tag_90\n      jump\t// in\n    tag_166:\n        /* \"#utility.yul\":6066:6100   */\n    tag_165:\n        /* \"#utility.yul\":6125:6126   */\n      dup3\n        /* \"#utility.yul\":6122:6123   */\n      dup3\n        /* \"#utility.yul\":6118:6127   */\n      sub\n        /* \"#utility.yul\":6110:6127   */\n      swap1\n      pop\n        /* \"#utility.yul\":5942:6133   */\n      swap3\n      swap2\n      pop\n      pop\n      jump\t// out\n\n    auxdata: 0xa26469706673582212201665498c332ddd00d453dbc6d7b400c9d94b9826027add3372bb1376905ea34564736f6c634300080e0033\n}\n",
				"bytecode": {
					"linkReferences": {},
					"object": "608060405273d14ff067355ce838a6e110bdfb672dbec83ca23c6000806101000a81548173ffffffffffffffffffffffffffffffffffffffff021916908373ffffffffffffffffffffffffffffffffffffffff160217905550604051610a66380380610a6683398181016040528101906100799190610102565b33600260006101000a81548173ffffffffffffffffffffffffffffffffffffffff021916908373ffffffffffffffffffffffffffffffffffffffff160217905550806001819055505061012f565b600080fd5b6000819050919050565b6100df816100cc565b81146100ea57600080fd5b50565b6000815190506100fc816100d6565b92915050565b600060208284031215610118576101176100c7565b5b6000610126848285016100ed565b91505092915050565b6109288061013e6000396000f3fe60806040526004361061003f5760003560e01c80633a23bf491461004457806341a7726a1461008157806397dedb1d1461009d578063c3c64674146100da575b600080fd5b34801561005057600080fd5b5061006b60048036038101906100669190610596565b610103565b60405161007891906105d2565b60405180910390f35b61009b6004803603810190610096919061064b565b610324565b005b3480156100a957600080fd5b506100c460048036038101906100bf9190610596565b610335565b6040516100d191906105d2565b60405180910390f35b3480156100e657600080fd5b5061010160048036038101906100fc91906106b0565b61042e565b005b60008047905060008060009054906101000a900473ffffffffffffffffffffffffffffffffffffffff1673ffffffffffffffffffffffffffffffffffffffff166370a08231306040518263ffffffff1660e01b815260040161016591906106ff565b602060405180830381865afa158015610182573d6000803e3d6000fd5b505050506040513d601f19601f820116820180604052508101906101a6919061072f565b905060006101bd858361051990919063ffffffff16565b905060008054906101000a900473ffffffffffffffffffffffffffffffffffffffff1673ffffffffffffffffffffffffffffffffffffffff166318160ddd6040518163ffffffff1660e01b8152600401602060405180830381865afa15801561022a573d6000803e3d6000fd5b505050506040513d601f19601f8201168201806040525081019061024e919061072f565b8111156102e75760008054906101000a900473ffffffffffffffffffffffffffffffffffffffff1673ffffffffffffffffffffffffffffffffffffffff166318160ddd6040518163ffffffff1660e01b8152600401602060405180830381865afa1580156102c0573d6000803e3d6000fd5b505050506040513d601f19601f820116820180604052508101906102e4919061072f565b90505b60006102fe8260015461052f90919063ffffffff16565b90506000610315828661054590919063ffffffff16565b90508095505050505050919050565b600061032f34610335565b90505050565b60008047905060008060009054906101000a900473ffffffffffffffffffffffffffffffffffffffff1673ffffffffffffffffffffffffffffffffffffffff166370a08231306040518263ffffffff1660e01b815260040161039791906106ff565b602060405180830381865afa1580156103b4573d6000803e3d6000fd5b505050506040513d601f19601f820116820180604052508101906103d8919061072f565b905060006103ef858461051990919063ffffffff16565b905060006104088260015461052f90919063ffffffff16565b9050600061041f828561054590919063ffffffff16565b90508095505050505050919050565b3373ffffffffffffffffffffffffffffffffffffffff16600260009054906101000a900473ffffffffffffffffffffffffffffffffffffffff1673ffffffffffffffffffffffffffffffffffffffff16146104be576040517f08c379a00000000000000000000000000000000000000000000000000000000081526004016104b5906107b9565b60405180910390fd5b80600360008473ffffffffffffffffffffffffffffffffffffffff1673ffffffffffffffffffffffffffffffffffffffff16815260200190815260200160002060006101000a81548160ff0219169083151502179055505050565b600081836105279190610808565b905092915050565b6000818361053d919061088d565b905092915050565b6000818361055391906108be565b905092915050565b600080fd5b6000819050919050565b61057381610560565b811461057e57600080fd5b50565b6000813590506105908161056a565b92915050565b6000602082840312156105ac576105ab61055b565b5b60006105ba84828501610581565b91505092915050565b6105cc81610560565b82525050565b60006020820190506105e760008301846105c3565b92915050565b600073ffffffffffffffffffffffffffffffffffffffff82169050919050565b6000610618826105ed565b9050919050565b6106288161060d565b811461063357600080fd5b50565b6000813590506106458161061f565b92915050565b6000602082840312156106615761066061055b565b5b600061066f84828501610636565b91505092915050565b60008115159050919050565b61068d81610678565b811461069857600080fd5b50565b6000813590506106aa81610684565b92915050565b600080604083850312156106c7576106c661055b565b5b60006106d585828601610636565b92505060206106e68582860161069b565b9150509250929050565b6106f98161060d565b82525050565b600060208201905061071460008301846106f0565b92915050565b6000815190506107298161056a565b92915050565b6000602082840312156107455761074461055b565b5b60006107538482850161071a565b91505092915050565b600082825260208201905092915050565b7f4f776e61626c653a2063616c6c6572206973206e6f7420746865206f776e6572600082015250565b60006107a360208361075c565b91506107ae8261076d565b602082019050919050565b600060208201905081810360008301526107d281610796565b9050919050565b7f4e487b7100000000000000000000000000000000000000000000000000000000600052601160045260246000fd5b600061081382610560565b915061081e83610560565b9250827fffffffffffffffffffffffffffffffffffffffffffffffffffffffffffffffff03821115610853576108526107d9565b5b828201905092915050565b7f4e487b7100000000000000000000000000000000000000000000000000000000600052601260045260246000fd5b600061089882610560565b91506108a383610560565b9250826108b3576108b261085e565b5b828204905092915050565b60006108c982610560565b91506108d483610560565b9250828210156108e7576108e66107d9565b5b82820390509291505056fea26469706673582212201665498c332ddd00d453dbc6d7b400c9d94b9826027add3372bb1376905ea34564736f6c634300080e0033",
					"opcodes": "PUSH1 0x80 PUSH1 0x40 MSTORE PUSH20 0xD14FF067355CE838A6E110BDFB672DBEC83CA23C PUSH1 0x0 DUP1 PUSH2 0x100 EXP DUP2 SLOAD DUP2 PUSH20 0xFFFFFFFFFFFFFFFFFFFFFFFFFFFFFFFFFFFFFFFF MUL NOT AND SWAP1 DUP4 PUSH20 0xFFFFFFFFFFFFFFFFFFFFFFFFFFFFFFFFFFFFFFFF AND MUL OR SWAP1 SSTORE POP PUSH1 0x40 MLOAD PUSH2 0xA66 CODESIZE SUB DUP1 PUSH2 0xA66 DUP4 CODECOPY DUP2 DUP2 ADD PUSH1 0x40 MSTORE DUP2 ADD SWAP1 PUSH2 0x79 SWAP2 SWAP1 PUSH2 0x102 JUMP JUMPDEST CALLER PUSH1 0x2 PUSH1 0x0 PUSH2 0x100 EXP DUP2 SLOAD DUP2 PUSH20 0xFFFFFFFFFFFFFFFFFFFFFFFFFFFFFFFFFFFFFFFF MUL NOT AND SWAP1 DUP4 PUSH20 0xFFFFFFFFFFFFFFFFFFFFFFFFFFFFFFFFFFFFFFFF AND MUL OR SWAP1 SSTORE POP DUP1 PUSH1 0x1 DUP2 SWAP1 SSTORE POP POP PUSH2 0x12F JUMP JUMPDEST PUSH1 0x0 DUP1 REVERT JUMPDEST PUSH1 0x0 DUP2 SWAP1 POP SWAP2 SWAP1 POP JUMP JUMPDEST PUSH2 0xDF DUP2 PUSH2 0xCC JUMP JUMPDEST DUP2 EQ PUSH2 0xEA JUMPI PUSH1 0x0 DUP1 REVERT JUMPDEST POP JUMP JUMPDEST PUSH1 0x0 DUP2 MLOAD SWAP1 POP PUSH2 0xFC DUP2 PUSH2 0xD6 JUMP JUMPDEST SWAP3 SWAP2 POP POP JUMP JUMPDEST PUSH1 0x0 PUSH1 0x20 DUP3 DUP5 SUB SLT ISZERO PUSH2 0x118 JUMPI PUSH2 0x117 PUSH2 0xC7 JUMP JUMPDEST JUMPDEST PUSH1 0x0 PUSH2 0x126 DUP5 DUP3 DUP6 ADD PUSH2 0xED JUMP JUMPDEST SWAP2 POP POP SWAP3 SWAP2 POP POP JUMP JUMPDEST PUSH2 0x928 DUP1 PUSH2 0x13E PUSH1 0x0 CODECOPY PUSH1 0x0 RETURN INVALID PUSH1 0x80 PUSH1 0x40 MSTORE PUSH1 0x4 CALLDATASIZE LT PUSH2 0x3F JUMPI PUSH1 0x0 CALLDATALOAD PUSH1 0xE0 SHR DUP1 PUSH4 0x3A23BF49 EQ PUSH2 0x44 JUMPI DUP1 PUSH4 0x41A7726A EQ PUSH2 0x81 JUMPI DUP1 PUSH4 0x97DEDB1D EQ PUSH2 0x9D JUMPI DUP1 PUSH4 0xC3C64674 EQ PUSH2 0xDA JUMPI JUMPDEST PUSH1 0x0 DUP1 REVERT JUMPDEST CALLVALUE DUP1 ISZERO PUSH2 0x50 JUMPI PUSH1 0x0 DUP1 REVERT JUMPDEST POP PUSH2 0x6B PUSH1 0x4 DUP1 CALLDATASIZE SUB DUP2 ADD SWAP1 PUSH2 0x66 SWAP2 SWAP1 PUSH2 0x596 JUMP JUMPDEST PUSH2 0x103 JUMP JUMPDEST PUSH1 0x40 MLOAD PUSH2 0x78 SWAP2 SWAP1 PUSH2 0x5D2 JUMP JUMPDEST PUSH1 0x40 MLOAD DUP1 SWAP2 SUB SWAP1 RETURN JUMPDEST PUSH2 0x9B PUSH1 0x4 DUP1 CALLDATASIZE SUB DUP2 ADD SWAP1 PUSH2 0x96 SWAP2 SWAP1 PUSH2 0x64B JUMP JUMPDEST PUSH2 0x324 JUMP JUMPDEST STOP JUMPDEST CALLVALUE DUP1 ISZERO PUSH2 0xA9 JUMPI PUSH1 0x0 DUP1 REVERT JUMPDEST POP PUSH2 0xC4 PUSH1 0x4 DUP1 CALLDATASIZE SUB DUP2 ADD SWAP1 PUSH2 0xBF SWAP2 SWAP1 PUSH2 0x596 JUMP JUMPDEST PUSH2 0x335 JUMP JUMPDEST PUSH1 0x40 MLOAD PUSH2 0xD1 SWAP2 SWAP1 PUSH2 0x5D2 JUMP JUMPDEST PUSH1 0x40 MLOAD DUP1 SWAP2 SUB SWAP1 RETURN JUMPDEST CALLVALUE DUP1 ISZERO PUSH2 0xE6 JUMPI PUSH1 0x0 DUP1 REVERT JUMPDEST POP PUSH2 0x101 PUSH1 0x4 DUP1 CALLDATASIZE SUB DUP2 ADD SWAP1 PUSH2 0xFC SWAP2 SWAP1 PUSH2 0x6B0 JUMP JUMPDEST PUSH2 0x42E JUMP JUMPDEST STOP JUMPDEST PUSH1 0x0 DUP1 SELFBALANCE SWAP1 POP PUSH1 0x0 DUP1 PUSH1 0x0 SWAP1 SLOAD SWAP1 PUSH2 0x100 EXP SWAP1 DIV PUSH20 0xFFFFFFFFFFFFFFFFFFFFFFFFFFFFFFFFFFFFFFFF AND PUSH20 0xFFFFFFFFFFFFFFFFFFFFFFFFFFFFFFFFFFFFFFFF AND PUSH4 0x70A08231 ADDRESS PUSH1 0x40 MLOAD DUP3 PUSH4 0xFFFFFFFF AND PUSH1 0xE0 SHL DUP2 MSTORE PUSH1 0x4 ADD PUSH2 0x165 SWAP2 SWAP1 PUSH2 0x6FF JUMP JUMPDEST PUSH1 0x20 PUSH1 0x40 MLOAD DUP1 DUP4 SUB DUP2 DUP7 GAS STATICCALL ISZERO DUP1 ISZERO PUSH2 0x182 JUMPI RETURNDATASIZE PUSH1 0x0 DUP1 RETURNDATACOPY RETURNDATASIZE PUSH1 0x0 REVERT JUMPDEST POP POP POP POP PUSH1 0x40 MLOAD RETURNDATASIZE PUSH1 0x1F NOT PUSH1 0x1F DUP3 ADD AND DUP3 ADD DUP1 PUSH1 0x40 MSTORE POP DUP2 ADD SWAP1 PUSH2 0x1A6 SWAP2 SWAP1 PUSH2 0x72F JUMP JUMPDEST SWAP1 POP PUSH1 0x0 PUSH2 0x1BD DUP6 DUP4 PUSH2 0x519 SWAP1 SWAP2 SWAP1 PUSH4 0xFFFFFFFF AND JUMP JUMPDEST SWAP1 POP PUSH1 0x0 DUP1 SLOAD SWAP1 PUSH2 0x100 EXP SWAP1 DIV PUSH20 0xFFFFFFFFFFFFFFFFFFFFFFFFFFFFFFFFFFFFFFFF AND PUSH20 0xFFFFFFFFFFFFFFFFFFFFFFFFFFFFFFFFFFFFFFFF AND PUSH4 0x18160DDD PUSH1 0x40 MLOAD DUP2 PUSH4 0xFFFFFFFF AND PUSH1 0xE0 SHL DUP2 MSTORE PUSH1 0x4 ADD PUSH1 0x20 PUSH1 0x40 MLOAD DUP1 DUP4 SUB DUP2 DUP7 GAS STATICCALL ISZERO DUP1 ISZERO PUSH2 0x22A JUMPI RETURNDATASIZE PUSH1 0x0 DUP1 RETURNDATACOPY RETURNDATASIZE PUSH1 0x0 REVERT JUMPDEST POP POP POP POP PUSH1 0x40 MLOAD RETURNDATASIZE PUSH1 0x1F NOT PUSH1 0x1F DUP3 ADD AND DUP3 ADD DUP1 PUSH1 0x40 MSTORE POP DUP2 ADD SWAP1 PUSH2 0x24E SWAP2 SWAP1 PUSH2 0x72F JUMP JUMPDEST DUP2 GT ISZERO PUSH2 0x2E7 JUMPI PUSH1 0x0 DUP1 SLOAD SWAP1 PUSH2 0x100 EXP SWAP1 DIV PUSH20 0xFFFFFFFFFFFFFFFFFFFFFFFFFFFFFFFFFFFFFFFF AND PUSH20 0xFFFFFFFFFFFFFFFFFFFFFFFFFFFFFFFFFFFFFFFF AND PUSH4 0x18160DDD PUSH1 0x40 MLOAD DUP2 PUSH4 0xFFFFFFFF AND PUSH1 0xE0 SHL DUP2 MSTORE PUSH1 0x4 ADD PUSH1 0x20 PUSH1 0x40 MLOAD DUP1 DUP4 SUB DUP2 DUP7 GAS STATICCALL ISZERO DUP1 ISZERO PUSH2 0x2C0 JUMPI RETURNDATASIZE PUSH1 0x0 DUP1 RETURNDATACOPY RETURNDATASIZE PUSH1 0x0 REVERT JUMPDEST POP POP POP POP PUSH1 0x40 MLOAD RETURNDATASIZE PUSH1 0x1F NOT PUSH1 0x1F DUP3 ADD AND DUP3 ADD DUP1 PUSH1 0x40 MSTORE POP DUP2 ADD SWAP1 PUSH2 0x2E4 SWAP2 SWAP1 PUSH2 0x72F JUMP JUMPDEST SWAP1 POP JUMPDEST PUSH1 0x0 PUSH2 0x2FE DUP3 PUSH1 0x1 SLOAD PUSH2 0x52F SWAP1 SWAP2 SWAP1 PUSH4 0xFFFFFFFF AND JUMP JUMPDEST SWAP1 POP PUSH1 0x0 PUSH2 0x315 DUP3 DUP7 PUSH2 0x545 SWAP1 SWAP2 SWAP1 PUSH4 0xFFFFFFFF AND JUMP JUMPDEST SWAP1 POP DUP1 SWAP6 POP POP POP POP POP POP SWAP2 SWAP1 POP JUMP JUMPDEST PUSH1 0x0 PUSH2 0x32F CALLVALUE PUSH2 0x335 JUMP JUMPDEST SWAP1 POP POP POP JUMP JUMPDEST PUSH1 0x0 DUP1 SELFBALANCE SWAP1 POP PUSH1 0x0 DUP1 PUSH1 0x0 SWAP1 SLOAD SWAP1 PUSH2 0x100 EXP SWAP1 DIV PUSH20 0xFFFFFFFFFFFFFFFFFFFFFFFFFFFFFFFFFFFFFFFF AND PUSH20 0xFFFFFFFFFFFFFFFFFFFFFFFFFFFFFFFFFFFFFFFF AND PUSH4 0x70A08231 ADDRESS PUSH1 0x40 MLOAD DUP3 PUSH4 0xFFFFFFFF AND PUSH1 0xE0 SHL DUP2 MSTORE PUSH1 0x4 ADD PUSH2 0x397 SWAP2 SWAP1 PUSH2 0x6FF JUMP JUMPDEST PUSH1 0x20 PUSH1 0x40 MLOAD DUP1 DUP4 SUB DUP2 DUP7 GAS STATICCALL ISZERO DUP1 ISZERO PUSH2 0x3B4 JUMPI RETURNDATASIZE PUSH1 0x0 DUP1 RETURNDATACOPY RETURNDATASIZE PUSH1 0x0 REVERT JUMPDEST POP POP POP POP PUSH1 0x40 MLOAD RETURNDATASIZE PUSH1 0x1F NOT PUSH1 0x1F DUP3 ADD AND DUP3 ADD DUP1 PUSH1 0x40 MSTORE POP DUP2 ADD SWAP1 PUSH2 0x3D8 SWAP2 SWAP1 PUSH2 0x72F JUMP JUMPDEST SWAP1 POP PUSH1 0x0 PUSH2 0x3EF DUP6 DUP5 PUSH2 0x519 SWAP1 SWAP2 SWAP1 PUSH4 0xFFFFFFFF AND JUMP JUMPDEST SWAP1 POP PUSH1 0x0 PUSH2 0x408 DUP3 PUSH1 0x1 SLOAD PUSH2 0x52F SWAP1 SWAP2 SWAP1 PUSH4 0xFFFFFFFF AND JUMP JUMPDEST SWAP1 POP PUSH1 0x0 PUSH2 0x41F DUP3 DUP6 PUSH2 0x545 SWAP1 SWAP2 SWAP1 PUSH4 0xFFFFFFFF AND JUMP JUMPDEST SWAP1 POP DUP1 SWAP6 POP POP POP POP POP POP SWAP2 SWAP1 POP JUMP JUMPDEST CALLER PUSH20 0xFFFFFFFFFFFFFFFFFFFFFFFFFFFFFFFFFFFFFFFF AND PUSH1 0x2 PUSH1 0x0 SWAP1 SLOAD SWAP1 PUSH2 0x100 EXP SWAP1 DIV PUSH20 0xFFFFFFFFFFFFFFFFFFFFFFFFFFFFFFFFFFFFFFFF AND PUSH20 0xFFFFFFFFFFFFFFFFFFFFFFFFFFFFFFFFFFFFFFFF AND EQ PUSH2 0x4BE JUMPI PUSH1 0x40 MLOAD PUSH32 0x8C379A000000000000000000000000000000000000000000000000000000000 DUP2 MSTORE PUSH1 0x4 ADD PUSH2 0x4B5 SWAP1 PUSH2 0x7B9 JUMP JUMPDEST PUSH1 0x40 MLOAD DUP1 SWAP2 SUB SWAP1 REVERT JUMPDEST DUP1 PUSH1 0x3 PUSH1 0x0 DUP5 PUSH20 0xFFFFFFFFFFFFFFFFFFFFFFFFFFFFFFFFFFFFFFFF AND PUSH20 0xFFFFFFFFFFFFFFFFFFFFFFFFFFFFFFFFFFFFFFFF AND DUP2 MSTORE PUSH1 0x20 ADD SWAP1 DUP2 MSTORE PUSH1 0x20 ADD PUSH1 0x0 KECCAK256 PUSH1 0x0 PUSH2 0x100 EXP DUP2 SLOAD DUP2 PUSH1 0xFF MUL NOT AND SWAP1 DUP4 ISZERO ISZERO MUL OR SWAP1 SSTORE POP POP POP JUMP JUMPDEST PUSH1 0x0 DUP2 DUP4 PUSH2 0x527 SWAP2 SWAP1 PUSH2 0x808 JUMP JUMPDEST SWAP1 POP SWAP3 SWAP2 POP POP JUMP JUMPDEST PUSH1 0x0 DUP2 DUP4 PUSH2 0x53D SWAP2 SWAP1 PUSH2 0x88D JUMP JUMPDEST SWAP1 POP SWAP3 SWAP2 POP POP JUMP JUMPDEST PUSH1 0x0 DUP2 DUP4 PUSH2 0x553 SWAP2 SWAP1 PUSH2 0x8BE JUMP JUMPDEST SWAP1 POP SWAP3 SWAP2 POP POP JUMP JUMPDEST PUSH1 0x0 DUP1 REVERT JUMPDEST PUSH1 0x0 DUP2 SWAP1 POP SWAP2 SWAP1 POP JUMP JUMPDEST PUSH2 0x573 DUP2 PUSH2 0x560 JUMP JUMPDEST DUP2 EQ PUSH2 0x57E JUMPI PUSH1 0x0 DUP1 REVERT JUMPDEST POP JUMP JUMPDEST PUSH1 0x0 DUP2 CALLDATALOAD SWAP1 POP PUSH2 0x590 DUP2 PUSH2 0x56A JUMP JUMPDEST SWAP3 SWAP2 POP POP JUMP JUMPDEST PUSH1 0x0 PUSH1 0x20 DUP3 DUP5 SUB SLT ISZERO PUSH2 0x5AC JUMPI PUSH2 0x5AB PUSH2 0x55B JUMP JUMPDEST JUMPDEST PUSH1 0x0 PUSH2 0x5BA DUP5 DUP3 DUP6 ADD PUSH2 0x581 JUMP JUMPDEST SWAP2 POP POP SWAP3 SWAP2 POP POP JUMP JUMPDEST PUSH2 0x5CC DUP2 PUSH2 0x560 JUMP JUMPDEST DUP3 MSTORE POP POP JUMP JUMPDEST PUSH1 0x0 PUSH1 0x20 DUP3 ADD SWAP1 POP PUSH2 0x5E7 PUSH1 0x0 DUP4 ADD DUP5 PUSH2 0x5C3 JUMP JUMPDEST SWAP3 SWAP2 POP POP JUMP JUMPDEST PUSH1 0x0 PUSH20 0xFFFFFFFFFFFFFFFFFFFFFFFFFFFFFFFFFFFFFFFF DUP3 AND SWAP1 POP SWAP2 SWAP1 POP JUMP JUMPDEST PUSH1 0x0 PUSH2 0x618 DUP3 PUSH2 0x5ED JUMP JUMPDEST SWAP1 POP SWAP2 SWAP1 POP JUMP JUMPDEST PUSH2 0x628 DUP2 PUSH2 0x60D JUMP JUMPDEST DUP2 EQ PUSH2 0x633 JUMPI PUSH1 0x0 DUP1 REVERT JUMPDEST POP JUMP JUMPDEST PUSH1 0x0 DUP2 CALLDATALOAD SWAP1 POP PUSH2 0x645 DUP2 PUSH2 0x61F JUMP JUMPDEST SWAP3 SWAP2 POP POP JUMP JUMPDEST PUSH1 0x0 PUSH1 0x20 DUP3 DUP5 SUB SLT ISZERO PUSH2 0x661 JUMPI PUSH2 0x660 PUSH2 0x55B JUMP JUMPDEST JUMPDEST PUSH1 0x0 PUSH2 0x66F DUP5 DUP3 DUP6 ADD PUSH2 0x636 JUMP JUMPDEST SWAP2 POP POP SWAP3 SWAP2 POP POP JUMP JUMPDEST PUSH1 0x0 DUP2 ISZERO ISZERO SWAP1 POP SWAP2 SWAP1 POP JUMP JUMPDEST PUSH2 0x68D DUP2 PUSH2 0x678 JUMP JUMPDEST DUP2 EQ PUSH2 0x698 JUMPI PUSH1 0x0 DUP1 REVERT JUMPDEST POP JUMP JUMPDEST PUSH1 0x0 DUP2 CALLDATALOAD SWAP1 POP PUSH2 0x6AA DUP2 PUSH2 0x684 JUMP JUMPDEST SWAP3 SWAP2 POP POP JUMP JUMPDEST PUSH1 0x0 DUP1 PUSH1 0x40 DUP4 DUP6 SUB SLT ISZERO PUSH2 0x6C7 JUMPI PUSH2 0x6C6 PUSH2 0x55B JUMP JUMPDEST JUMPDEST PUSH1 0x0 PUSH2 0x6D5 DUP6 DUP3 DUP7 ADD PUSH2 0x636 JUMP JUMPDEST SWAP3 POP POP PUSH1 0x20 PUSH2 0x6E6 DUP6 DUP3 DUP7 ADD PUSH2 0x69B JUMP JUMPDEST SWAP2 POP POP SWAP3 POP SWAP3 SWAP1 POP JUMP JUMPDEST PUSH2 0x6F9 DUP2 PUSH2 0x60D JUMP JUMPDEST DUP3 MSTORE POP POP JUMP JUMPDEST PUSH1 0x0 PUSH1 0x20 DUP3 ADD SWAP1 POP PUSH2 0x714 PUSH1 0x0 DUP4 ADD DUP5 PUSH2 0x6F0 JUMP JUMPDEST SWAP3 SWAP2 POP POP JUMP JUMPDEST PUSH1 0x0 DUP2 MLOAD SWAP1 POP PUSH2 0x729 DUP2 PUSH2 0x56A JUMP JUMPDEST SWAP3 SWAP2 POP POP JUMP JUMPDEST PUSH1 0x0 PUSH1 0x20 DUP3 DUP5 SUB SLT ISZERO PUSH2 0x745 JUMPI PUSH2 0x744 PUSH2 0x55B JUMP JUMPDEST JUMPDEST PUSH1 0x0 PUSH2 0x753 DUP5 DUP3 DUP6 ADD PUSH2 0x71A JUMP JUMPDEST SWAP2 POP POP SWAP3 SWAP2 POP POP JUMP JUMPDEST PUSH1 0x0 DUP3 DUP3 MSTORE PUSH1 0x20 DUP3 ADD SWAP1 POP SWAP3 SWAP2 POP POP JUMP JUMPDEST PUSH32 0x4F776E61626C653A2063616C6C6572206973206E6F7420746865206F776E6572 PUSH1 0x0 DUP3 ADD MSTORE POP JUMP JUMPDEST PUSH1 0x0 PUSH2 0x7A3 PUSH1 0x20 DUP4 PUSH2 0x75C JUMP JUMPDEST SWAP2 POP PUSH2 0x7AE DUP3 PUSH2 0x76D JUMP JUMPDEST PUSH1 0x20 DUP3 ADD SWAP1 POP SWAP2 SWAP1 POP JUMP JUMPDEST PUSH1 0x0 PUSH1 0x20 DUP3 ADD SWAP1 POP DUP2 DUP2 SUB PUSH1 0x0 DUP4 ADD MSTORE PUSH2 0x7D2 DUP2 PUSH2 0x796 JUMP JUMPDEST SWAP1 POP SWAP2 SWAP1 POP JUMP JUMPDEST PUSH32 0x4E487B7100000000000000000000000000000000000000000000000000000000 PUSH1 0x0 MSTORE PUSH1 0x11 PUSH1 0x4 MSTORE PUSH1 0x24 PUSH1 0x0 REVERT JUMPDEST PUSH1 0x0 PUSH2 0x813 DUP3 PUSH2 0x560 JUMP JUMPDEST SWAP2 POP PUSH2 0x81E DUP4 PUSH2 0x560 JUMP JUMPDEST SWAP3 POP DUP3 PUSH32 0xFFFFFFFFFFFFFFFFFFFFFFFFFFFFFFFFFFFFFFFFFFFFFFFFFFFFFFFFFFFFFFFF SUB DUP3 GT ISZERO PUSH2 0x853 JUMPI PUSH2 0x852 PUSH2 0x7D9 JUMP JUMPDEST JUMPDEST DUP3 DUP3 ADD SWAP1 POP SWAP3 SWAP2 POP POP JUMP JUMPDEST PUSH32 0x4E487B7100000000000000000000000000000000000000000000000000000000 PUSH1 0x0 MSTORE PUSH1 0x12 PUSH1 0x4 MSTORE PUSH1 0x24 PUSH1 0x0 REVERT JUMPDEST PUSH1 0x0 PUSH2 0x898 DUP3 PUSH2 0x560 JUMP JUMPDEST SWAP2 POP PUSH2 0x8A3 DUP4 PUSH2 0x560 JUMP JUMPDEST SWAP3 POP DUP3 PUSH2 0x8B3 JUMPI PUSH2 0x8B2 PUSH2 0x85E JUMP JUMPDEST JUMPDEST DUP3 DUP3 DIV SWAP1 POP SWAP3 SWAP2 POP POP JUMP JUMPDEST PUSH1 0x0 PUSH2 0x8C9 DUP3 PUSH2 0x560 JUMP JUMPDEST SWAP2 POP PUSH2 0x8D4 DUP4 PUSH2 0x560 JUMP JUMPDEST SWAP3 POP DUP3 DUP3 LT ISZERO PUSH2 0x8E7 JUMPI PUSH2 0x8E6 PUSH2 0x7D9 JUMP JUMPDEST JUMPDEST DUP3 DUP3 SUB SWAP1 POP SWAP3 SWAP2 POP POP JUMP INVALID LOG2 PUSH5 0x6970667358 0x22 SLT KECCAK256 AND PUSH6 0x498C332DDD00 0xD4 MSTORE8 0xDB 0xC6 0xD7 0xB4 STOP 0xC9 0xD9 0x4B SWAP9 0x26 MUL PUSH27 0xDD3372BB1376905EA34564736F6C634300080E0033000000000000 "
				},
				"gasEstimates": {
					"creation": {
						"codeDepositCost": "468800",
						"executionCost": "infinite",
						"totalCost": "infinite"
					},
					"external": {
						"DCF_ETH(uint256)": "infinite",
						"ETH_DCF(uint256)": "infinite",
						"setRouter(address,bool)": "27205",
						"subscribe(address)": "infinite"
					}
				},
				"methodIdentifiers": {
					"DCF_ETH(uint256)": "3a23bf49",
					"ETH_DCF(uint256)": "97dedb1d",
					"setRouter(address,bool)": "c3c64674",
					"subscribe(address)": "41a7726a"
				}
			},
			"storageLayout": {
				"storage": [
					{
						"astId": 402,
						"contract": "Dcoffer/treasury.sol:treasury",
						"label": "dcoff",
						"offset": 0,
						"slot": "0",
						"type": "t_contract(IERC20)77"
					},
					{
						"astId": 404,
						"contract": "Dcoffer/treasury.sol:treasury",
						"label": "K",
						"offset": 0,
						"slot": "1",
						"type": "t_uint256"
					},
					{
						"astId": 421,
						"contract": "Dcoffer/treasury.sol:treasury",
						"label": "owner",
						"offset": 0,
						"slot": "2",
						"type": "t_address"
					},
					{
						"astId": 425,
						"contract": "Dcoffer/treasury.sol:treasury",
						"label": "RouterAdmin",
						"offset": 0,
						"slot": "3",
						"type": "t_mapping(t_address,t_bool)"
					}
				],
				"types": {
					"t_address": {
						"encoding": "inplace",
						"label": "address",
						"numberOfBytes": "20"
					},
					"t_bool": {
						"encoding": "inplace",
						"label": "bool",
						"numberOfBytes": "1"
					},
					"t_contract(IERC20)77": {
						"encoding": "inplace",
						"label": "contract IERC20",
						"numberOfBytes": "20"
					},
					"t_mapping(t_address,t_bool)": {
						"encoding": "mapping",
						"key": "t_address",
						"label": "mapping(address => bool)",
						"numberOfBytes": "32",
						"value": "t_bool"
					},
					"t_uint256": {
						"encoding": "inplace",
						"label": "uint256",
						"numberOfBytes": "32"
					}
				}
			},
			"userdoc": {
				"kind": "user",
				"methods": {},
				"version": 1
			}
		}
	}
}