{
	"ERC721A/ERC721A.sol": {
		"ERC721A": {
			"abi": [
				{
					"inputs": [
						{
							"internalType": "string",
							"name": "name_",
							"type": "string"
						},
						{
							"internalType": "string",
							"name": "symbol_",
							"type": "string"
						}
					],
					"stateMutability": "nonpayable",
					"type": "constructor"
				},
				{
					"inputs": [],
					"name": "ApprovalCallerNotOwnerNorApproved",
					"type": "error"
				},
				{
					"inputs": [],
					"name": "ApprovalQueryForNonexistentToken",
					"type": "error"
				},
				{
					"inputs": [],
					"name": "ApprovalToCurrentOwner",
					"type": "error"
				},
				{
					"inputs": [],
					"name": "ApproveToCaller",
					"type": "error"
				},
				{
					"inputs": [],
					"name": "BalanceQueryForZeroAddress",
					"type": "error"
				},
				{
					"inputs": [],
					"name": "MintToZeroAddress",
					"type": "error"
				},
				{
					"inputs": [],
					"name": "MintZeroQuantity",
					"type": "error"
				},
				{
					"inputs": [],
					"name": "OwnerQueryForNonexistentToken",
					"type": "error"
				},
				{
					"inputs": [],
					"name": "TransferCallerNotOwnerNorApproved",
					"type": "error"
				},
				{
					"inputs": [],
					"name": "TransferFromIncorrectOwner",
					"type": "error"
				},
				{
					"inputs": [],
					"name": "TransferToNonERC721ReceiverImplementer",
					"type": "error"
				},
				{
					"inputs": [],
					"name": "TransferToZeroAddress",
					"type": "error"
				},
				{
					"inputs": [],
					"name": "URIQueryForNonexistentToken",
					"type": "error"
				},
				{
					"anonymous": false,
					"inputs": [
						{
							"indexed": true,
							"internalType": "address",
							"name": "owner",
							"type": "address"
						},
						{
							"indexed": true,
							"internalType": "address",
							"name": "approved",
							"type": "address"
						},
						{
							"indexed": true,
							"internalType": "uint256",
							"name": "tokenId",
							"type": "uint256"
						}
					],
					"name": "Approval",
					"type": "event"
				},
				{
					"anonymous": false,
					"inputs": [
						{
							"indexed": true,
							"internalType": "address",
							"name": "owner",
							"type": "address"
						},
						{
							"indexed": true,
							"internalType": "address",
							"name": "operator",
							"type": "address"
						},
						{
							"indexed": false,
							"internalType": "bool",
							"name": "approved",
							"type": "bool"
						}
					],
					"name": "ApprovalForAll",
					"type": "event"
				},
				{
					"anonymous": false,
					"inputs": [
						{
							"indexed": true,
							"internalType": "address",
							"name": "from",
							"type": "address"
						},
						{
							"indexed": true,
							"internalType": "address",
							"name": "to",
							"type": "address"
						},
						{
							"indexed": true,
							"internalType": "uint256",
							"name": "tokenId",
							"type": "uint256"
						}
					],
					"name": "Transfer",
					"type": "event"
				},
				{
					"inputs": [
						{
							"internalType": "address",
							"name": "user",
							"type": "address"
						}
					],
					"name": "BlockScore",
					"outputs": [
						{
							"internalType": "uint256",
							"name": "",
							"type": "uint256"
						}
					],
					"stateMutability": "view",
					"type": "function"
				},
				{
					"inputs": [
						{
							"internalType": "address",
							"name": "to",
							"type": "address"
						},
						{
							"internalType": "uint256",
							"name": "tokenId",
							"type": "uint256"
						}
					],
					"name": "approve",
					"outputs": [],
					"stateMutability": "nonpayable",
					"type": "function"
				},
				{
					"inputs": [
						{
							"internalType": "address",
							"name": "owner",
							"type": "address"
						}
					],
					"name": "balanceOf",
					"outputs": [
						{
							"internalType": "uint256",
							"name": "",
							"type": "uint256"
						}
					],
					"stateMutability": "view",
					"type": "function"
				},
				{
					"inputs": [
						{
							"internalType": "uint256",
							"name": "tokenId",
							"type": "uint256"
						}
					],
					"name": "getApproved",
					"outputs": [
						{
							"internalType": "address",
							"name": "",
							"type": "address"
						}
					],
					"stateMutability": "view",
					"type": "function"
				},
				{
					"inputs": [
						{
							"internalType": "address",
							"name": "owner",
							"type": "address"
						},
						{
							"internalType": "address",
							"name": "operator",
							"type": "address"
						}
					],
					"name": "isApprovedForAll",
					"outputs": [
						{
							"internalType": "bool",
							"name": "",
							"type": "bool"
						}
					],
					"stateMutability": "view",
					"type": "function"
				},
				{
					"inputs": [],
					"name": "name",
					"outputs": [
						{
							"internalType": "string",
							"name": "",
							"type": "string"
						}
					],
					"stateMutability": "view",
					"type": "function"
				},
				{
					"inputs": [
						{
							"internalType": "uint256",
							"name": "tokenId",
							"type": "uint256"
						}
					],
					"name": "ownerOf",
					"outputs": [
						{
							"internalType": "address",
							"name": "",
							"type": "address"
						}
					],
					"stateMutability": "view",
					"type": "function"
				},
				{
					"inputs": [
						{
							"internalType": "address",
							"name": "from",
							"type": "address"
						},
						{
							"internalType": "address",
							"name": "to",
							"type": "address"
						},
						{
							"internalType": "uint256",
							"name": "tokenId",
							"type": "uint256"
						}
					],
					"name": "safeTransferFrom",
					"outputs": [],
					"stateMutability": "nonpayable",
					"type": "function"
				},
				{
					"inputs": [
						{
							"internalType": "address",
							"name": "from",
							"type": "address"
						},
						{
							"internalType": "address",
							"name": "to",
							"type": "address"
						},
						{
							"internalType": "uint256",
							"name": "tokenId",
							"type": "uint256"
						},
						{
							"internalType": "bytes",
							"name": "_data",
							"type": "bytes"
						}
					],
					"name": "safeTransferFrom",
					"outputs": [],
					"stateMutability": "nonpayable",
					"type": "function"
				},
				{
					"inputs": [
						{
							"internalType": "address",
							"name": "operator",
							"type": "address"
						},
						{
							"internalType": "bool",
							"name": "approved",
							"type": "bool"
						}
					],
					"name": "setApprovalForAll",
					"outputs": [],
					"stateMutability": "nonpayable",
					"type": "function"
				},
				{
					"inputs": [
						{
							"internalType": "bytes4",
							"name": "interfaceId",
							"type": "bytes4"
						}
					],
					"name": "supportsInterface",
					"outputs": [
						{
							"internalType": "bool",
							"name": "",
							"type": "bool"
						}
					],
					"stateMutability": "view",
					"type": "function"
				},
				{
					"inputs": [],
					"name": "symbol",
					"outputs": [
						{
							"internalType": "string",
							"name": "",
							"type": "string"
						}
					],
					"stateMutability": "view",
					"type": "function"
				},
				{
					"inputs": [
						{
							"internalType": "uint256",
							"name": "tokenId",
							"type": "uint256"
						}
					],
					"name": "tokenURI",
					"outputs": [
						{
							"internalType": "string",
							"name": "",
							"type": "string"
						}
					],
					"stateMutability": "view",
					"type": "function"
				},
				{
					"inputs": [],
					"name": "totalSupply",
					"outputs": [
						{
							"internalType": "uint256",
							"name": "",
							"type": "uint256"
						}
					],
					"stateMutability": "view",
					"type": "function"
				},
				{
					"inputs": [
						{
							"internalType": "address",
							"name": "from",
							"type": "address"
						},
						{
							"internalType": "address",
							"name": "to",
							"type": "address"
						},
						{
							"internalType": "uint256",
							"name": "tokenId",
							"type": "uint256"
						}
					],
					"name": "transferFrom",
					"outputs": [],
					"stateMutability": "nonpayable",
					"type": "function"
				}
			],
			"devdoc": {
				"details": "Implementation of https://eips.ethereum.org/EIPS/eip-721[ERC721] Non-Fungible Token Standard, including the Metadata extension. Built to optimize for lower gas during batch mints. Assumes serials are sequentially minted starting at _startTokenId() (defaults to 0, e.g. 0, 1, 2, 3..). Assumes that an owner cannot have more than 2**64 - 1 (max value of uint64) of supply. Assumes that the maximum token id cannot exceed 2**256 - 1 (max value of uint256).",
				"kind": "dev",
				"methods": {
					"approve(address,uint256)": {
						"details": "See {IERC721-approve}."
					},
					"balanceOf(address)": {
						"details": "See {IERC721-balanceOf}."
					},
					"getApproved(uint256)": {
						"details": "See {IERC721-getApproved}."
					},
					"isApprovedForAll(address,address)": {
						"details": "See {IERC721-isApprovedForAll}."
					},
					"name()": {
						"details": "See {IERC721Metadata-name}."
					},
					"ownerOf(uint256)": {
						"details": "See {IERC721-ownerOf}."
					},
					"safeTransferFrom(address,address,uint256)": {
						"details": "See {IERC721-safeTransferFrom}."
					},
					"safeTransferFrom(address,address,uint256,bytes)": {
						"details": "See {IERC721-safeTransferFrom}."
					},
					"setApprovalForAll(address,bool)": {
						"details": "See {IERC721-setApprovalForAll}."
					},
					"supportsInterface(bytes4)": {
						"details": "See {IERC165-supportsInterface}."
					},
					"symbol()": {
						"details": "See {IERC721Metadata-symbol}."
					},
					"tokenURI(uint256)": {
						"details": "See {IERC721Metadata-tokenURI}."
					},
					"totalSupply()": {
						"details": "Burned tokens are calculated here, use _totalMinted() if you want to count just minted tokens."
					},
					"transferFrom(address,address,uint256)": {
						"details": "See {IERC721-transferFrom}."
					}
				},
				"version": 1
			},
			"evm": {
				"assembly": "    /* \"ERC721A/ERC721A.sol\":1018:22638  contract ERC721A is Context, ERC165, IERC721A, IDCF {... */\n  mstore(0x40, 0x80)\n    /* \"ERC721A/ERC721A.sol\":2187:2345  constructor(string memory name_, string memory symbol_) {... */\n  callvalue\n  dup1\n  iszero\n  tag_1\n  jumpi\n  0x00\n  dup1\n  revert\ntag_1:\n  pop\n  mload(0x40)\n  sub(codesize, bytecodeSize)\n  dup1\n  bytecodeSize\n  dup4\n  codecopy\n  dup2\n  dup2\n  add\n  0x40\n  mstore\n  dup2\n  add\n  swap1\n  tag_2\n  swap2\n  swap1\n  tag_3\n  jump\t// in\ntag_2:\n    /* \"ERC721A/ERC721A.sol\":2262:2267  name_ */\n  dup2\n    /* \"ERC721A/ERC721A.sol\":2254:2259  _name */\n  0x02\n    /* \"ERC721A/ERC721A.sol\":2254:2267  _name = name_ */\n  swap1\n  dup1\n  mload\n  swap1\n  0x20\n  add\n  swap1\n  tag_6\n  swap3\n  swap2\n  swap1\n  tag_7\n  jump\t// in\ntag_6:\n  pop\n    /* \"ERC721A/ERC721A.sol\":2288:2295  symbol_ */\n  dup1\n    /* \"ERC721A/ERC721A.sol\":2278:2285  _symbol */\n  0x03\n    /* \"ERC721A/ERC721A.sol\":2278:2295  _symbol = symbol_ */\n  swap1\n  dup1\n  mload\n  swap1\n  0x20\n  add\n  swap1\n  tag_8\n  swap3\n  swap2\n  swap1\n  tag_7\n  jump\t// in\ntag_8:\n  pop\n    /* \"ERC721A/ERC721A.sol\":2322:2337  _startTokenId() */\n  tag_9\n    /* \"ERC721A/ERC721A.sol\":2322:2335  _startTokenId */\n  shl(0x20, tag_10)\n    /* \"ERC721A/ERC721A.sol\":2322:2337  _startTokenId() */\n  0x20\n  shr\n  jump\t// in\ntag_9:\n    /* \"ERC721A/ERC721A.sol\":2306:2319  _currentIndex */\n  0x00\n    /* \"ERC721A/ERC721A.sol\":2306:2337  _currentIndex = _startTokenId() */\n  dup2\n  swap1\n  sstore\n  pop\n    /* \"ERC721A/ERC721A.sol\":2187:2345  constructor(string memory name_, string memory symbol_) {... */\n  pop\n  pop\n    /* \"ERC721A/ERC721A.sol\":1018:22638  contract ERC721A is Context, ERC165, IERC721A, IDCF {... */\n  jump(tag_11)\n    /* \"ERC721A/ERC721A.sol\":2761:2853  function _startTokenId() internal view virtual returns (uint256) {... */\ntag_10:\n    /* \"ERC721A/ERC721A.sol\":2817:2824  uint256 */\n  0x00\n    /* \"ERC721A/ERC721A.sol\":2844:2845  1 */\n  0x01\n    /* \"ERC721A/ERC721A.sol\":2837:2845  return 1 */\n  swap1\n  pop\n    /* \"ERC721A/ERC721A.sol\":2761:2853  function _startTokenId() internal view virtual returns (uint256) {... */\n  swap1\n  jump\t// out\n    /* \"ERC721A/ERC721A.sol\":1018:22638  contract ERC721A is Context, ERC165, IERC721A, IDCF {... */\ntag_7:\n  dup3\n  dup1\n  sload\n  tag_13\n  swap1\n  tag_14\n  jump\t// in\ntag_13:\n  swap1\n  0x00\n  mstore\n  keccak256(0x00, 0x20)\n  swap1\n  0x1f\n  add\n  0x20\n  swap1\n  div\n  dup2\n  add\n  swap3\n  dup3\n  tag_16\n  jumpi\n  0x00\n  dup6\n  sstore\n  jump(tag_15)\ntag_16:\n  dup3\n  0x1f\n  lt\n  tag_17\n  jumpi\n  dup1\n  mload\n  not(0xff)\n  and\n  dup4\n  dup1\n  add\n  or\n  dup6\n  sstore\n  jump(tag_15)\ntag_17:\n  dup3\n  dup1\n  add\n  0x01\n  add\n  dup6\n  sstore\n  dup3\n  iszero\n  tag_15\n  jumpi\n  swap2\n  dup3\n  add\ntag_18:\n  dup3\n  dup2\n  gt\n  iszero\n  tag_19\n  jumpi\n  dup3\n  mload\n  dup3\n  sstore\n  swap2\n  0x20\n  add\n  swap2\n  swap1\n  0x01\n  add\n  swap1\n  jump(tag_18)\ntag_19:\ntag_15:\n  pop\n  swap1\n  pop\n  tag_20\n  swap2\n  swap1\n  tag_21\n  jump\t// in\ntag_20:\n  pop\n  swap1\n  jump\t// out\ntag_21:\ntag_22:\n  dup1\n  dup3\n  gt\n  iszero\n  tag_23\n  jumpi\n  0x00\n  dup2\n  0x00\n  swap1\n  sstore\n  pop\n  0x01\n  add\n  jump(tag_22)\ntag_23:\n  pop\n  swap1\n  jump\t// out\n    /* \"#utility.yul\":7:82   */\ntag_24:\n    /* \"#utility.yul\":40:46   */\n  0x00\n    /* \"#utility.yul\":73:75   */\n  0x40\n    /* \"#utility.yul\":67:76   */\n  mload\n    /* \"#utility.yul\":57:76   */\n  swap1\n  pop\n    /* \"#utility.yul\":7:82   */\n  swap1\n  jump\t// out\n    /* \"#utility.yul\":88:205   */\ntag_25:\n    /* \"#utility.yul\":197:198   */\n  0x00\n    /* \"#utility.yul\":194:195   */\n  dup1\n    /* \"#utility.yul\":187:199   */\n  revert\n    /* \"#utility.yul\":211:328   */\ntag_26:\n    /* \"#utility.yul\":320:321   */\n  0x00\n    /* \"#utility.yul\":317:318   */\n  dup1\n    /* \"#utility.yul\":310:322   */\n  revert\n    /* \"#utility.yul\":334:451   */\ntag_27:\n    /* \"#utility.yul\":443:444   */\n  0x00\n    /* \"#utility.yul\":440:441   */\n  dup1\n    /* \"#utility.yul\":433:445   */\n  revert\n    /* \"#utility.yul\":457:574   */\ntag_28:\n    /* \"#utility.yul\":566:567   */\n  0x00\n    /* \"#utility.yul\":563:564   */\n  dup1\n    /* \"#utility.yul\":556:568   */\n  revert\n    /* \"#utility.yul\":580:682   */\ntag_29:\n    /* \"#utility.yul\":621:627   */\n  0x00\n    /* \"#utility.yul\":672:674   */\n  0x1f\n    /* \"#utility.yul\":668:675   */\n  not\n    /* \"#utility.yul\":663:665   */\n  0x1f\n    /* \"#utility.yul\":656:661   */\n  dup4\n    /* \"#utility.yul\":652:666   */\n  add\n    /* \"#utility.yul\":648:676   */\n  and\n    /* \"#utility.yul\":638:676   */\n  swap1\n  pop\n    /* \"#utility.yul\":580:682   */\n  swap2\n  swap1\n  pop\n  jump\t// out\n    /* \"#utility.yul\":688:868   */\ntag_30:\n    /* \"#utility.yul\":736:813   */\n  0x4e487b7100000000000000000000000000000000000000000000000000000000\n    /* \"#utility.yul\":733:734   */\n  0x00\n    /* \"#utility.yul\":726:814   */\n  mstore\n    /* \"#utility.yul\":833:837   */\n  0x41\n    /* \"#utility.yul\":830:831   */\n  0x04\n    /* \"#utility.yul\":823:838   */\n  mstore\n    /* \"#utility.yul\":857:861   */\n  0x24\n    /* \"#utility.yul\":854:855   */\n  0x00\n    /* \"#utility.yul\":847:862   */\n  revert\n    /* \"#utility.yul\":874:1155   */\ntag_31:\n    /* \"#utility.yul\":957:984   */\n  tag_47\n    /* \"#utility.yul\":979:983   */\n  dup3\n    /* \"#utility.yul\":957:984   */\n  tag_29\n  jump\t// in\ntag_47:\n    /* \"#utility.yul\":949:955   */\n  dup2\n    /* \"#utility.yul\":945:985   */\n  add\n    /* \"#utility.yul\":1087:1093   */\n  dup2\n    /* \"#utility.yul\":1075:1085   */\n  dup2\n    /* \"#utility.yul\":1072:1094   */\n  lt\n    /* \"#utility.yul\":1051:1069   */\n  0xffffffffffffffff\n    /* \"#utility.yul\":1039:1049   */\n  dup3\n    /* \"#utility.yul\":1036:1070   */\n  gt\n    /* \"#utility.yul\":1033:1095   */\n  or\n    /* \"#utility.yul\":1030:1118   */\n  iszero\n  tag_48\n  jumpi\n    /* \"#utility.yul\":1098:1116   */\n  tag_49\n  tag_30\n  jump\t// in\ntag_49:\n    /* \"#utility.yul\":1030:1118   */\ntag_48:\n    /* \"#utility.yul\":1138:1148   */\n  dup1\n    /* \"#utility.yul\":1134:1136   */\n  0x40\n    /* \"#utility.yul\":1127:1149   */\n  mstore\n    /* \"#utility.yul\":917:1155   */\n  pop\n    /* \"#utility.yul\":874:1155   */\n  pop\n  pop\n  jump\t// out\n    /* \"#utility.yul\":1161:1290   */\ntag_32:\n    /* \"#utility.yul\":1195:1201   */\n  0x00\n    /* \"#utility.yul\":1222:1242   */\n  tag_51\n  tag_24\n  jump\t// in\ntag_51:\n    /* \"#utility.yul\":1212:1242   */\n  swap1\n  pop\n    /* \"#utility.yul\":1251:1284   */\n  tag_52\n    /* \"#utility.yul\":1279:1283   */\n  dup3\n    /* \"#utility.yul\":1271:1277   */\n  dup3\n    /* \"#utility.yul\":1251:1284   */\n  tag_31\n  jump\t// in\ntag_52:\n    /* \"#utility.yul\":1161:1290   */\n  swap2\n  swap1\n  pop\n  jump\t// out\n    /* \"#utility.yul\":1296:1604   */\ntag_33:\n    /* \"#utility.yul\":1358:1362   */\n  0x00\n    /* \"#utility.yul\":1448:1466   */\n  0xffffffffffffffff\n    /* \"#utility.yul\":1440:1446   */\n  dup3\n    /* \"#utility.yul\":1437:1467   */\n  gt\n    /* \"#utility.yul\":1434:1490   */\n  iszero\n  tag_54\n  jumpi\n    /* \"#utility.yul\":1470:1488   */\n  tag_55\n  tag_30\n  jump\t// in\ntag_55:\n    /* \"#utility.yul\":1434:1490   */\ntag_54:\n    /* \"#utility.yul\":1508:1537   */\n  tag_56\n    /* \"#utility.yul\":1530:1536   */\n  dup3\n    /* \"#utility.yul\":1508:1537   */\n  tag_29\n  jump\t// in\ntag_56:\n    /* \"#utility.yul\":1500:1537   */\n  swap1\n  pop\n    /* \"#utility.yul\":1592:1596   */\n  0x20\n    /* \"#utility.yul\":1586:1590   */\n  dup2\n    /* \"#utility.yul\":1582:1597   */\n  add\n    /* \"#utility.yul\":1574:1597   */\n  swap1\n  pop\n    /* \"#utility.yul\":1296:1604   */\n  swap2\n  swap1\n  pop\n  jump\t// out\n    /* \"#utility.yul\":1610:1917   */\ntag_34:\n    /* \"#utility.yul\":1678:1679   */\n  0x00\n    /* \"#utility.yul\":1688:1801   */\ntag_58:\n    /* \"#utility.yul\":1702:1708   */\n  dup4\n    /* \"#utility.yul\":1699:1700   */\n  dup2\n    /* \"#utility.yul\":1696:1709   */\n  lt\n    /* \"#utility.yul\":1688:1801   */\n  iszero\n  tag_60\n  jumpi\n    /* \"#utility.yul\":1787:1788   */\n  dup1\n    /* \"#utility.yul\":1782:1785   */\n  dup3\n    /* \"#utility.yul\":1778:1789   */\n  add\n    /* \"#utility.yul\":1772:1790   */\n  mload\n    /* \"#utility.yul\":1768:1769   */\n  dup2\n    /* \"#utility.yul\":1763:1766   */\n  dup5\n    /* \"#utility.yul\":1759:1770   */\n  add\n    /* \"#utility.yul\":1752:1791   */\n  mstore\n    /* \"#utility.yul\":1724:1726   */\n  0x20\n    /* \"#utility.yul\":1721:1722   */\n  dup2\n    /* \"#utility.yul\":1717:1727   */\n  add\n    /* \"#utility.yul\":1712:1727   */\n  swap1\n  pop\n    /* \"#utility.yul\":1688:1801   */\n  jump(tag_58)\ntag_60:\n    /* \"#utility.yul\":1819:1825   */\n  dup4\n    /* \"#utility.yul\":1816:1817   */\n  dup2\n    /* \"#utility.yul\":1813:1826   */\n  gt\n    /* \"#utility.yul\":1810:1911   */\n  iszero\n  tag_61\n  jumpi\n    /* \"#utility.yul\":1899:1900   */\n  0x00\n    /* \"#utility.yul\":1890:1896   */\n  dup5\n    /* \"#utility.yul\":1885:1888   */\n  dup5\n    /* \"#utility.yul\":1881:1897   */\n  add\n    /* \"#utility.yul\":1874:1901   */\n  mstore\n    /* \"#utility.yul\":1810:1911   */\ntag_61:\n    /* \"#utility.yul\":1659:1917   */\n  pop\n    /* \"#utility.yul\":1610:1917   */\n  pop\n  pop\n  pop\n  jump\t// out\n    /* \"#utility.yul\":1923:2344   */\ntag_35:\n    /* \"#utility.yul\":2012:2017   */\n  0x00\n    /* \"#utility.yul\":2037:2103   */\n  tag_63\n    /* \"#utility.yul\":2053:2102   */\n  tag_64\n    /* \"#utility.yul\":2095:2101   */\n  dup5\n    /* \"#utility.yul\":2053:2102   */\n  tag_33\n  jump\t// in\ntag_64:\n    /* \"#utility.yul\":2037:2103   */\n  tag_32\n  jump\t// in\ntag_63:\n    /* \"#utility.yul\":2028:2103   */\n  swap1\n  pop\n    /* \"#utility.yul\":2126:2132   */\n  dup3\n    /* \"#utility.yul\":2119:2124   */\n  dup2\n    /* \"#utility.yul\":2112:2133   */\n  mstore\n    /* \"#utility.yul\":2164:2168   */\n  0x20\n    /* \"#utility.yul\":2157:2162   */\n  dup2\n    /* \"#utility.yul\":2153:2169   */\n  add\n    /* \"#utility.yul\":2202:2205   */\n  dup5\n    /* \"#utility.yul\":2193:2199   */\n  dup5\n    /* \"#utility.yul\":2188:2191   */\n  dup5\n    /* \"#utility.yul\":2184:2200   */\n  add\n    /* \"#utility.yul\":2181:2206   */\n  gt\n    /* \"#utility.yul\":2178:2290   */\n  iszero\n  tag_65\n  jumpi\n    /* \"#utility.yul\":2209:2288   */\n  tag_66\n  tag_28\n  jump\t// in\ntag_66:\n    /* \"#utility.yul\":2178:2290   */\ntag_65:\n    /* \"#utility.yul\":2299:2338   */\n  tag_67\n    /* \"#utility.yul\":2331:2337   */\n  dup5\n    /* \"#utility.yul\":2326:2329   */\n  dup3\n    /* \"#utility.yul\":2321:2324   */\n  dup6\n    /* \"#utility.yul\":2299:2338   */\n  tag_34\n  jump\t// in\ntag_67:\n    /* \"#utility.yul\":2018:2344   */\n  pop\n    /* \"#utility.yul\":1923:2344   */\n  swap4\n  swap3\n  pop\n  pop\n  pop\n  jump\t// out\n    /* \"#utility.yul\":2364:2719   */\ntag_36:\n    /* \"#utility.yul\":2431:2436   */\n  0x00\n    /* \"#utility.yul\":2480:2483   */\n  dup3\n    /* \"#utility.yul\":2473:2477   */\n  0x1f\n    /* \"#utility.yul\":2465:2471   */\n  dup4\n    /* \"#utility.yul\":2461:2478   */\n  add\n    /* \"#utility.yul\":2457:2484   */\n  slt\n    /* \"#utility.yul\":2447:2569   */\n  tag_69\n  jumpi\n    /* \"#utility.yul\":2488:2567   */\n  tag_70\n  tag_27\n  jump\t// in\ntag_70:\n    /* \"#utility.yul\":2447:2569   */\ntag_69:\n    /* \"#utility.yul\":2598:2604   */\n  dup2\n    /* \"#utility.yul\":2592:2605   */\n  mload\n    /* \"#utility.yul\":2623:2713   */\n  tag_71\n    /* \"#utility.yul\":2709:2712   */\n  dup5\n    /* \"#utility.yul\":2701:2707   */\n  dup3\n    /* \"#utility.yul\":2694:2698   */\n  0x20\n    /* \"#utility.yul\":2686:2692   */\n  dup7\n    /* \"#utility.yul\":2682:2699   */\n  add\n    /* \"#utility.yul\":2623:2713   */\n  tag_35\n  jump\t// in\ntag_71:\n    /* \"#utility.yul\":2614:2713   */\n  swap2\n  pop\n    /* \"#utility.yul\":2437:2719   */\n  pop\n    /* \"#utility.yul\":2364:2719   */\n  swap3\n  swap2\n  pop\n  pop\n  jump\t// out\n    /* \"#utility.yul\":2725:3578   */\ntag_3:\n    /* \"#utility.yul\":2824:2830   */\n  0x00\n    /* \"#utility.yul\":2832:2838   */\n  dup1\n    /* \"#utility.yul\":2881:2883   */\n  0x40\n    /* \"#utility.yul\":2869:2878   */\n  dup4\n    /* \"#utility.yul\":2860:2867   */\n  dup6\n    /* \"#utility.yul\":2856:2879   */\n  sub\n    /* \"#utility.yul\":2852:2884   */\n  slt\n    /* \"#utility.yul\":2849:2968   */\n  iszero\n  tag_73\n  jumpi\n    /* \"#utility.yul\":2887:2966   */\n  tag_74\n  tag_25\n  jump\t// in\ntag_74:\n    /* \"#utility.yul\":2849:2968   */\ntag_73:\n    /* \"#utility.yul\":3028:3029   */\n  0x00\n    /* \"#utility.yul\":3017:3026   */\n  dup4\n    /* \"#utility.yul\":3013:3030   */\n  add\n    /* \"#utility.yul\":3007:3031   */\n  mload\n    /* \"#utility.yul\":3058:3076   */\n  0xffffffffffffffff\n    /* \"#utility.yul\":3050:3056   */\n  dup2\n    /* \"#utility.yul\":3047:3077   */\n  gt\n    /* \"#utility.yul\":3044:3161   */\n  iszero\n  tag_75\n  jumpi\n    /* \"#utility.yul\":3080:3159   */\n  tag_76\n  tag_26\n  jump\t// in\ntag_76:\n    /* \"#utility.yul\":3044:3161   */\ntag_75:\n    /* \"#utility.yul\":3185:3259   */\n  tag_77\n    /* \"#utility.yul\":3251:3258   */\n  dup6\n    /* \"#utility.yul\":3242:3248   */\n  dup3\n    /* \"#utility.yul\":3231:3240   */\n  dup7\n    /* \"#utility.yul\":3227:3249   */\n  add\n    /* \"#utility.yul\":3185:3259   */\n  tag_36\n  jump\t// in\ntag_77:\n    /* \"#utility.yul\":3175:3259   */\n  swap3\n  pop\n    /* \"#utility.yul\":2978:3269   */\n  pop\n    /* \"#utility.yul\":3329:3331   */\n  0x20\n    /* \"#utility.yul\":3318:3327   */\n  dup4\n    /* \"#utility.yul\":3314:3332   */\n  add\n    /* \"#utility.yul\":3308:3333   */\n  mload\n    /* \"#utility.yul\":3360:3378   */\n  0xffffffffffffffff\n    /* \"#utility.yul\":3352:3358   */\n  dup2\n    /* \"#utility.yul\":3349:3379   */\n  gt\n    /* \"#utility.yul\":3346:3463   */\n  iszero\n  tag_78\n  jumpi\n    /* \"#utility.yul\":3382:3461   */\n  tag_79\n  tag_26\n  jump\t// in\ntag_79:\n    /* \"#utility.yul\":3346:3463   */\ntag_78:\n    /* \"#utility.yul\":3487:3561   */\n  tag_80\n    /* \"#utility.yul\":3553:3560   */\n  dup6\n    /* \"#utility.yul\":3544:3550   */\n  dup3\n    /* \"#utility.yul\":3533:3542   */\n  dup7\n    /* \"#utility.yul\":3529:3551   */\n  add\n    /* \"#utility.yul\":3487:3561   */\n  tag_36\n  jump\t// in\ntag_80:\n    /* \"#utility.yul\":3477:3561   */\n  swap2\n  pop\n    /* \"#utility.yul\":3279:3571   */\n  pop\n    /* \"#utility.yul\":2725:3578   */\n  swap3\n  pop\n  swap3\n  swap1\n  pop\n  jump\t// out\n    /* \"#utility.yul\":3584:3764   */\ntag_37:\n    /* \"#utility.yul\":3632:3709   */\n  0x4e487b7100000000000000000000000000000000000000000000000000000000\n    /* \"#utility.yul\":3629:3630   */\n  0x00\n    /* \"#utility.yul\":3622:3710   */\n  mstore\n    /* \"#utility.yul\":3729:3733   */\n  0x22\n    /* \"#utility.yul\":3726:3727   */\n  0x04\n    /* \"#utility.yul\":3719:3734   */\n  mstore\n    /* \"#utility.yul\":3753:3757   */\n  0x24\n    /* \"#utility.yul\":3750:3751   */\n  0x00\n    /* \"#utility.yul\":3743:3758   */\n  revert\n    /* \"#utility.yul\":3770:4090   */\ntag_14:\n    /* \"#utility.yul\":3814:3820   */\n  0x00\n    /* \"#utility.yul\":3851:3852   */\n  0x02\n    /* \"#utility.yul\":3845:3849   */\n  dup3\n    /* \"#utility.yul\":3841:3853   */\n  div\n    /* \"#utility.yul\":3831:3853   */\n  swap1\n  pop\n    /* \"#utility.yul\":3898:3899   */\n  0x01\n    /* \"#utility.yul\":3892:3896   */\n  dup3\n    /* \"#utility.yul\":3888:3900   */\n  and\n    /* \"#utility.yul\":3919:3937   */\n  dup1\n    /* \"#utility.yul\":3909:3990   */\n  tag_83\n  jumpi\n    /* \"#utility.yul\":3975:3979   */\n  0x7f\n    /* \"#utility.yul\":3967:3973   */\n  dup3\n    /* \"#utility.yul\":3963:3980   */\n  and\n    /* \"#utility.yul\":3953:3980   */\n  swap2\n  pop\n    /* \"#utility.yul\":3909:3990   */\ntag_83:\n    /* \"#utility.yul\":4037:4039   */\n  0x20\n    /* \"#utility.yul\":4029:4035   */\n  dup3\n    /* \"#utility.yul\":4026:4040   */\n  lt\n    /* \"#utility.yul\":4006:4024   */\n  dup2\n    /* \"#utility.yul\":4003:4041   */\n  sub\n    /* \"#utility.yul\":4000:4084   */\n  tag_84\n  jumpi\n    /* \"#utility.yul\":4056:4074   */\n  tag_85\n  tag_37\n  jump\t// in\ntag_85:\n    /* \"#utility.yul\":4000:4084   */\ntag_84:\n    /* \"#utility.yul\":3821:4090   */\n  pop\n    /* \"#utility.yul\":3770:4090   */\n  swap2\n  swap1\n  pop\n  jump\t// out\n    /* \"ERC721A/ERC721A.sol\":1018:22638  contract ERC721A is Context, ERC165, IERC721A, IDCF {... */\ntag_11:\n  dataSize(sub_0)\n  dup1\n  dataOffset(sub_0)\n  0x00\n  codecopy\n  0x00\n  return\nstop\n\nsub_0: assembly {\n        /* \"ERC721A/ERC721A.sol\":1018:22638  contract ERC721A is Context, ERC165, IERC721A, IDCF {... */\n      mstore(0x40, 0x80)\n      callvalue\n      dup1\n      iszero\n      tag_1\n      jumpi\n      0x00\n      dup1\n      revert\n    tag_1:\n      pop\n      jumpi(tag_2, lt(calldatasize, 0x04))\n      shr(0xe0, calldataload(0x00))\n      dup1\n      0x42842e0e\n      gt\n      tag_18\n      jumpi\n      dup1\n      0xa22cb465\n      gt\n      tag_19\n      jumpi\n      dup1\n      0xa22cb465\n      eq\n      tag_14\n      jumpi\n      dup1\n      0xb88d4fde\n      eq\n      tag_15\n      jumpi\n      dup1\n      0xc87b56dd\n      eq\n      tag_16\n      jumpi\n      dup1\n      0xe985e9c5\n      eq\n      tag_17\n      jumpi\n      jump(tag_2)\n    tag_19:\n      dup1\n      0x42842e0e\n      eq\n      tag_10\n      jumpi\n      dup1\n      0x6352211e\n      eq\n      tag_11\n      jumpi\n      dup1\n      0x70a08231\n      eq\n      tag_12\n      jumpi\n      dup1\n      0x95d89b41\n      eq\n      tag_13\n      jumpi\n      jump(tag_2)\n    tag_18:\n      dup1\n      0x095ea7b3\n      gt\n      tag_20\n      jumpi\n      dup1\n      0x095ea7b3\n      eq\n      tag_6\n      jumpi\n      dup1\n      0x18160ddd\n      eq\n      tag_7\n      jumpi\n      dup1\n      0x23b872dd\n      eq\n      tag_8\n      jumpi\n      dup1\n      0x325b272a\n      eq\n      tag_9\n      jumpi\n      jump(tag_2)\n    tag_20:\n      dup1\n      0x01ffc9a7\n      eq\n      tag_3\n      jumpi\n      dup1\n      0x06fdde03\n      eq\n      tag_4\n      jumpi\n      dup1\n      0x081812fc\n      eq\n      tag_5\n      jumpi\n    tag_2:\n      0x00\n      dup1\n      revert\n        /* \"ERC721A/ERC721A.sol\":3747:4052  function supportsInterface(bytes4 interfaceId) public view virtual override(ERC165, IERC165) returns (bool) {... */\n    tag_3:\n      tag_21\n      0x04\n      dup1\n      calldatasize\n      sub\n      dup2\n      add\n      swap1\n      tag_22\n      swap2\n      swap1\n      tag_23\n      jump\t// in\n    tag_22:\n      tag_24\n      jump\t// in\n    tag_21:\n      mload(0x40)\n      tag_25\n      swap2\n      swap1\n      tag_26\n      jump\t// in\n    tag_25:\n      mload(0x40)\n      dup1\n      swap2\n      sub\n      swap1\n      return\n        /* \"ERC721A/ERC721A.sol\":6862:6962  function name() public view virtual override returns (string memory) {... */\n    tag_4:\n      tag_27\n      tag_28\n      jump\t// in\n    tag_27:\n      mload(0x40)\n      tag_29\n      swap2\n      swap1\n      tag_30\n      jump\t// in\n    tag_29:\n      mload(0x40)\n      dup1\n      swap2\n      sub\n      swap1\n      return\n        /* \"ERC721A/ERC721A.sol\":8447:8651  function getApproved(uint256 tokenId) public view override returns (address) {... */\n    tag_5:\n      tag_31\n      0x04\n      dup1\n      calldatasize\n      sub\n      dup2\n      add\n      swap1\n      tag_32\n      swap2\n      swap1\n      tag_33\n      jump\t// in\n    tag_32:\n      tag_34\n      jump\t// in\n    tag_31:\n      mload(0x40)\n      tag_35\n      swap2\n      swap1\n      tag_36\n      jump\t// in\n    tag_35:\n      mload(0x40)\n      dup1\n      swap2\n      sub\n      swap1\n      return\n        /* \"ERC721A/ERC721A.sol\":8009:8381  function approve(address to, uint256 tokenId) public override {... */\n    tag_6:\n      tag_37\n      0x04\n      dup1\n      calldatasize\n      sub\n      dup2\n      add\n      swap1\n      tag_38\n      swap2\n      swap1\n      tag_39\n      jump\t// in\n    tag_38:\n      tag_40\n      jump\t// in\n    tag_37:\n      stop\n        /* \"ERC721A/ERC721A.sol\":2987:3299  function totalSupply() public view override returns (uint256) {... */\n    tag_7:\n      tag_41\n      tag_42\n      jump\t// in\n    tag_41:\n      mload(0x40)\n      tag_43\n      swap2\n      swap1\n      tag_44\n      jump\t// in\n    tag_43:\n      mload(0x40)\n      dup1\n      swap2\n      sub\n      swap1\n      return\n        /* \"ERC721A/ERC721A.sol\":9312:9482  function transferFrom(... */\n    tag_8:\n      tag_45\n      0x04\n      dup1\n      calldatasize\n      sub\n      dup2\n      add\n      swap1\n      tag_46\n      swap2\n      swap1\n      tag_47\n      jump\t// in\n    tag_46:\n      tag_48\n      jump\t// in\n    tag_45:\n      stop\n        /* \"ERC721A/ERC721A.sol\":2359:2657  function BlockScore(address user)external view returns(uint256){... */\n    tag_9:\n      tag_49\n      0x04\n      dup1\n      calldatasize\n      sub\n      dup2\n      add\n      swap1\n      tag_50\n      swap2\n      swap1\n      tag_51\n      jump\t// in\n    tag_50:\n      tag_52\n      jump\t// in\n    tag_49:\n      mload(0x40)\n      tag_53\n      swap2\n      swap1\n      tag_44\n      jump\t// in\n    tag_53:\n      mload(0x40)\n      dup1\n      swap2\n      sub\n      swap1\n      return\n        /* \"ERC721A/ERC721A.sol\":9553:9738  function safeTransferFrom(... */\n    tag_10:\n      tag_54\n      0x04\n      dup1\n      calldatasize\n      sub\n      dup2\n      add\n      swap1\n      tag_55\n      swap2\n      swap1\n      tag_47\n      jump\t// in\n    tag_55:\n      tag_56\n      jump\t// in\n    tag_54:\n      stop\n        /* \"ERC721A/ERC721A.sol\":6670:6795  function ownerOf(uint256 tokenId) public view override returns (address) {... */\n    tag_11:\n      tag_57\n      0x04\n      dup1\n      calldatasize\n      sub\n      dup2\n      add\n      swap1\n      tag_58\n      swap2\n      swap1\n      tag_33\n      jump\t// in\n    tag_58:\n      tag_59\n      jump\t// in\n    tag_57:\n      mload(0x40)\n      tag_60\n      swap2\n      swap1\n      tag_36\n      jump\t// in\n    tag_60:\n      mload(0x40)\n      dup1\n      swap2\n      sub\n      swap1\n      return\n        /* \"ERC721A/ERC721A.sol\":4116:4322  function balanceOf(address owner) public view override returns (uint256) {... */\n    tag_12:\n      tag_61\n      0x04\n      dup1\n      calldatasize\n      sub\n      dup2\n      add\n      swap1\n      tag_62\n      swap2\n      swap1\n      tag_51\n      jump\t// in\n    tag_62:\n      tag_63\n      jump\t// in\n    tag_61:\n      mload(0x40)\n      tag_64\n      swap2\n      swap1\n      tag_44\n      jump\t// in\n    tag_64:\n      mload(0x40)\n      dup1\n      swap2\n      sub\n      swap1\n      return\n        /* \"ERC721A/ERC721A.sol\":7031:7135  function symbol() public view virtual override returns (string memory) {... */\n    tag_13:\n      tag_65\n      tag_66\n      jump\t// in\n    tag_65:\n      mload(0x40)\n      tag_67\n      swap2\n      swap1\n      tag_30\n      jump\t// in\n    tag_67:\n      mload(0x40)\n      dup1\n      swap2\n      sub\n      swap1\n      return\n        /* \"ERC721A/ERC721A.sol\":8723:9010  function setApprovalForAll(address operator, bool approved) public virtual override {... */\n    tag_14:\n      tag_68\n      0x04\n      dup1\n      calldatasize\n      sub\n      dup2\n      add\n      swap1\n      tag_69\n      swap2\n      swap1\n      tag_70\n      jump\t// in\n    tag_69:\n      tag_71\n      jump\t// in\n    tag_68:\n      stop\n        /* \"ERC721A/ERC721A.sol\":9809:10179  function safeTransferFrom(... */\n    tag_15:\n      tag_72\n      0x04\n      dup1\n      calldatasize\n      sub\n      dup2\n      add\n      swap1\n      tag_73\n      swap2\n      swap1\n      tag_74\n      jump\t// in\n    tag_73:\n      tag_75\n      jump\t// in\n    tag_72:\n      stop\n        /* \"ERC721A/ERC721A.sol\":7206:7524  function tokenURI(uint256 tokenId) public view virtual override returns (string memory) {... */\n    tag_16:\n      tag_76\n      0x04\n      dup1\n      calldatasize\n      sub\n      dup2\n      add\n      swap1\n      tag_77\n      swap2\n      swap1\n      tag_33\n      jump\t// in\n    tag_77:\n      tag_78\n      jump\t// in\n    tag_76:\n      mload(0x40)\n      tag_79\n      swap2\n      swap1\n      tag_30\n      jump\t// in\n    tag_79:\n      mload(0x40)\n      dup1\n      swap2\n      sub\n      swap1\n      return\n        /* \"ERC721A/ERC721A.sol\":9081:9245  function isApprovedForAll(address owner, address operator) public view virtual override returns (bool) {... */\n    tag_17:\n      tag_80\n      0x04\n      dup1\n      calldatasize\n      sub\n      dup2\n      add\n      swap1\n      tag_81\n      swap2\n      swap1\n      tag_82\n      jump\t// in\n    tag_81:\n      tag_83\n      jump\t// in\n    tag_80:\n      mload(0x40)\n      tag_84\n      swap2\n      swap1\n      tag_26\n      jump\t// in\n    tag_84:\n      mload(0x40)\n      dup1\n      swap2\n      sub\n      swap1\n      return\n        /* \"ERC721A/ERC721A.sol\":3747:4052  function supportsInterface(bytes4 interfaceId) public view virtual override(ERC165, IERC165) returns (bool) {... */\n    tag_24:\n        /* \"ERC721A/ERC721A.sol\":3849:3853  bool */\n      0x00\n        /* \"ERC721A/ERC721A.sol\":3901:3926  type(IERC721).interfaceId */\n      0x80ac58cd00000000000000000000000000000000000000000000000000000000\n        /* \"ERC721A/ERC721A.sol\":3886:3926  interfaceId == type(IERC721).interfaceId */\n      not(0xffffffffffffffffffffffffffffffffffffffffffffffffffffffff)\n      and\n        /* \"ERC721A/ERC721A.sol\":3886:3897  interfaceId */\n      dup3\n        /* \"ERC721A/ERC721A.sol\":3886:3926  interfaceId == type(IERC721).interfaceId */\n      not(0xffffffffffffffffffffffffffffffffffffffffffffffffffffffff)\n      and\n      eq\n        /* \"ERC721A/ERC721A.sol\":3886:3991  interfaceId == type(IERC721).interfaceId ||... */\n      dup1\n      tag_86\n      jumpi\n      pop\n        /* \"ERC721A/ERC721A.sol\":3958:3991  type(IERC721Metadata).interfaceId */\n      0x5b5e139f00000000000000000000000000000000000000000000000000000000\n        /* \"ERC721A/ERC721A.sol\":3943:3991  interfaceId == type(IERC721Metadata).interfaceId */\n      not(0xffffffffffffffffffffffffffffffffffffffffffffffffffffffff)\n      and\n        /* \"ERC721A/ERC721A.sol\":3943:3954  interfaceId */\n      dup3\n        /* \"ERC721A/ERC721A.sol\":3943:3991  interfaceId == type(IERC721Metadata).interfaceId */\n      not(0xffffffffffffffffffffffffffffffffffffffffffffffffffffffff)\n      and\n      eq\n        /* \"ERC721A/ERC721A.sol\":3886:3991  interfaceId == type(IERC721).interfaceId ||... */\n    tag_86:\n        /* \"ERC721A/ERC721A.sol\":3886:4044  interfaceId == type(IERC721).interfaceId ||... */\n      dup1\n      tag_87\n      jumpi\n      pop\n        /* \"ERC721A/ERC721A.sol\":4008:4044  super.supportsInterface(interfaceId) */\n      tag_88\n        /* \"ERC721A/ERC721A.sol\":4032:4043  interfaceId */\n      dup3\n        /* \"ERC721A/ERC721A.sol\":4008:4031  super.supportsInterface */\n      tag_89\n        /* \"ERC721A/ERC721A.sol\":4008:4044  super.supportsInterface(interfaceId) */\n      jump\t// in\n    tag_88:\n        /* \"ERC721A/ERC721A.sol\":3886:4044  interfaceId == type(IERC721).interfaceId ||... */\n    tag_87:\n        /* \"ERC721A/ERC721A.sol\":3866:4044  return... */\n      swap1\n      pop\n        /* \"ERC721A/ERC721A.sol\":3747:4052  function supportsInterface(bytes4 interfaceId) public view virtual override(ERC165, IERC165) returns (bool) {... */\n      swap2\n      swap1\n      pop\n      jump\t// out\n        /* \"ERC721A/ERC721A.sol\":6862:6962  function name() public view virtual override returns (string memory) {... */\n    tag_28:\n        /* \"ERC721A/ERC721A.sol\":6916:6929  string memory */\n      0x60\n        /* \"ERC721A/ERC721A.sol\":6949:6954  _name */\n      0x02\n        /* \"ERC721A/ERC721A.sol\":6942:6954  return _name */\n      dup1\n      sload\n      tag_91\n      swap1\n      tag_92\n      jump\t// in\n    tag_91:\n      dup1\n      0x1f\n      add\n      0x20\n      dup1\n      swap2\n      div\n      mul\n      0x20\n      add\n      mload(0x40)\n      swap1\n      dup2\n      add\n      0x40\n      mstore\n      dup1\n      swap3\n      swap2\n      swap1\n      dup2\n      dup2\n      mstore\n      0x20\n      add\n      dup3\n      dup1\n      sload\n      tag_93\n      swap1\n      tag_92\n      jump\t// in\n    tag_93:\n      dup1\n      iszero\n      tag_94\n      jumpi\n      dup1\n      0x1f\n      lt\n      tag_95\n      jumpi\n      0x0100\n      dup1\n      dup4\n      sload\n      div\n      mul\n      dup4\n      mstore\n      swap2\n      0x20\n      add\n      swap2\n      jump(tag_94)\n    tag_95:\n      dup3\n      add\n      swap2\n      swap1\n      0x00\n      mstore\n      keccak256(0x00, 0x20)\n      swap1\n    tag_96:\n      dup2\n      sload\n      dup2\n      mstore\n      swap1\n      0x01\n      add\n      swap1\n      0x20\n      add\n      dup1\n      dup4\n      gt\n      tag_96\n      jumpi\n      dup3\n      swap1\n      sub\n      0x1f\n      and\n      dup3\n      add\n      swap2\n    tag_94:\n      pop\n      pop\n      pop\n      pop\n      pop\n      swap1\n      pop\n        /* \"ERC721A/ERC721A.sol\":6862:6962  function name() public view virtual override returns (string memory) {... */\n      swap1\n      jump\t// out\n        /* \"ERC721A/ERC721A.sol\":8447:8651  function getApproved(uint256 tokenId) public view override returns (address) {... */\n    tag_34:\n        /* \"ERC721A/ERC721A.sol\":8515:8522  address */\n      0x00\n        /* \"ERC721A/ERC721A.sol\":8540:8556  _exists(tokenId) */\n      tag_98\n        /* \"ERC721A/ERC721A.sol\":8548:8555  tokenId */\n      dup3\n        /* \"ERC721A/ERC721A.sol\":8540:8547  _exists */\n      tag_99\n        /* \"ERC721A/ERC721A.sol\":8540:8556  _exists(tokenId) */\n      jump\t// in\n    tag_98:\n        /* \"ERC721A/ERC721A.sol\":8535:8599  if (!_exists(tokenId)) revert ApprovalQueryForNonexistentToken() */\n      tag_100\n      jumpi\n        /* \"ERC721A/ERC721A.sol\":8565:8599  ApprovalQueryForNonexistentToken() */\n      mload(0x40)\n      0xcf4700e400000000000000000000000000000000000000000000000000000000\n      dup2\n      mstore\n      0x04\n      add\n      mload(0x40)\n      dup1\n      swap2\n      sub\n      swap1\n      revert\n        /* \"ERC721A/ERC721A.sol\":8535:8599  if (!_exists(tokenId)) revert ApprovalQueryForNonexistentToken() */\n    tag_100:\n        /* \"ERC721A/ERC721A.sol\":8619:8634  _tokenApprovals */\n      0x06\n        /* \"ERC721A/ERC721A.sol\":8619:8643  _tokenApprovals[tokenId] */\n      0x00\n        /* \"ERC721A/ERC721A.sol\":8635:8642  tokenId */\n      dup4\n        /* \"ERC721A/ERC721A.sol\":8619:8643  _tokenApprovals[tokenId] */\n      dup2\n      mstore\n      0x20\n      add\n      swap1\n      dup2\n      mstore\n      0x20\n      add\n      0x00\n      keccak256\n      0x00\n      swap1\n      sload\n      swap1\n      0x0100\n      exp\n      swap1\n      div\n      0xffffffffffffffffffffffffffffffffffffffff\n      and\n        /* \"ERC721A/ERC721A.sol\":8612:8643  return _tokenApprovals[tokenId] */\n      swap1\n      pop\n        /* \"ERC721A/ERC721A.sol\":8447:8651  function getApproved(uint256 tokenId) public view override returns (address) {... */\n      swap2\n      swap1\n      pop\n      jump\t// out\n        /* \"ERC721A/ERC721A.sol\":8009:8381  function approve(address to, uint256 tokenId) public override {... */\n    tag_40:\n        /* \"ERC721A/ERC721A.sol\":8082:8095  address owner */\n      0x00\n        /* \"ERC721A/ERC721A.sol\":8098:8122  ERC721A.ownerOf(tokenId) */\n      tag_102\n        /* \"ERC721A/ERC721A.sol\":8114:8121  tokenId */\n      dup3\n        /* \"ERC721A/ERC721A.sol\":8098:8113  ERC721A.ownerOf */\n      tag_59\n        /* \"ERC721A/ERC721A.sol\":8098:8122  ERC721A.ownerOf(tokenId) */\n      jump\t// in\n    tag_102:\n        /* \"ERC721A/ERC721A.sol\":8082:8122  address owner = ERC721A.ownerOf(tokenId) */\n      swap1\n      pop\n        /* \"ERC721A/ERC721A.sol\":8143:8148  owner */\n      dup1\n        /* \"ERC721A/ERC721A.sol\":8137:8148  to == owner */\n      0xffffffffffffffffffffffffffffffffffffffff\n      and\n        /* \"ERC721A/ERC721A.sol\":8137:8139  to */\n      dup4\n        /* \"ERC721A/ERC721A.sol\":8137:8148  to == owner */\n      0xffffffffffffffffffffffffffffffffffffffff\n      and\n      sub\n        /* \"ERC721A/ERC721A.sol\":8133:8181  if (to == owner) revert ApprovalToCurrentOwner() */\n      tag_103\n      jumpi\n        /* \"ERC721A/ERC721A.sol\":8157:8181  ApprovalToCurrentOwner() */\n      mload(0x40)\n      0x943f7b8c00000000000000000000000000000000000000000000000000000000\n      dup2\n      mstore\n      0x04\n      add\n      mload(0x40)\n      dup1\n      swap2\n      sub\n      swap1\n      revert\n        /* \"ERC721A/ERC721A.sol\":8133:8181  if (to == owner) revert ApprovalToCurrentOwner() */\n    tag_103:\n        /* \"ERC721A/ERC721A.sol\":8214:8219  owner */\n      dup1\n        /* \"ERC721A/ERC721A.sol\":8198:8219  _msgSender() != owner */\n      0xffffffffffffffffffffffffffffffffffffffff\n      and\n        /* \"ERC721A/ERC721A.sol\":8198:8210  _msgSender() */\n      tag_104\n        /* \"ERC721A/ERC721A.sol\":8198:8208  _msgSender */\n      tag_105\n        /* \"ERC721A/ERC721A.sol\":8198:8210  _msgSender() */\n      jump\t// in\n    tag_104:\n        /* \"ERC721A/ERC721A.sol\":8198:8219  _msgSender() != owner */\n      0xffffffffffffffffffffffffffffffffffffffff\n      and\n      eq\n        /* \"ERC721A/ERC721A.sol\":8194:8333  if (_msgSender() != owner) if(!isApprovedForAll(owner, _msgSender())) {... */\n      tag_106\n      jumpi\n        /* \"ERC721A/ERC721A.sol\":8225:8262  isApprovedForAll(owner, _msgSender()) */\n      tag_107\n        /* \"ERC721A/ERC721A.sol\":8242:8247  owner */\n      dup2\n        /* \"ERC721A/ERC721A.sol\":8249:8261  _msgSender() */\n      tag_108\n        /* \"ERC721A/ERC721A.sol\":8249:8259  _msgSender */\n      tag_105\n        /* \"ERC721A/ERC721A.sol\":8249:8261  _msgSender() */\n      jump\t// in\n    tag_108:\n        /* \"ERC721A/ERC721A.sol\":8225:8241  isApprovedForAll */\n      tag_83\n        /* \"ERC721A/ERC721A.sol\":8225:8262  isApprovedForAll(owner, _msgSender()) */\n      jump\t// in\n    tag_107:\n        /* \"ERC721A/ERC721A.sol\":8221:8333  if(!isApprovedForAll(owner, _msgSender())) {... */\n      tag_109\n      jumpi\n        /* \"ERC721A/ERC721A.sol\":8286:8321  ApprovalCallerNotOwnerNorApproved() */\n      mload(0x40)\n      0xcfb3b94200000000000000000000000000000000000000000000000000000000\n      dup2\n      mstore\n      0x04\n      add\n      mload(0x40)\n      dup1\n      swap2\n      sub\n      swap1\n      revert\n        /* \"ERC721A/ERC721A.sol\":8221:8333  if(!isApprovedForAll(owner, _msgSender())) {... */\n    tag_109:\n        /* \"ERC721A/ERC721A.sol\":8194:8333  if (_msgSender() != owner) if(!isApprovedForAll(owner, _msgSender())) {... */\n    tag_106:\n        /* \"ERC721A/ERC721A.sol\":8345:8373  _approve(to, tokenId, owner) */\n      tag_110\n        /* \"ERC721A/ERC721A.sol\":8354:8356  to */\n      dup4\n        /* \"ERC721A/ERC721A.sol\":8358:8365  tokenId */\n      dup4\n        /* \"ERC721A/ERC721A.sol\":8367:8372  owner */\n      dup4\n        /* \"ERC721A/ERC721A.sol\":8345:8353  _approve */\n      tag_111\n        /* \"ERC721A/ERC721A.sol\":8345:8373  _approve(to, tokenId, owner) */\n      jump\t// in\n    tag_110:\n        /* \"ERC721A/ERC721A.sol\":8071:8381  {... */\n      pop\n        /* \"ERC721A/ERC721A.sol\":8009:8381  function approve(address to, uint256 tokenId) public override {... */\n      pop\n      pop\n      jump\t// out\n        /* \"ERC721A/ERC721A.sol\":2987:3299  function totalSupply() public view override returns (uint256) {... */\n    tag_42:\n        /* \"ERC721A/ERC721A.sol\":3040:3047  uint256 */\n      0x00\n        /* \"ERC721A/ERC721A.sol\":3265:3280  _startTokenId() */\n      tag_113\n        /* \"ERC721A/ERC721A.sol\":3265:3278  _startTokenId */\n      tag_114\n        /* \"ERC721A/ERC721A.sol\":3265:3280  _startTokenId() */\n      jump\t// in\n    tag_113:\n        /* \"ERC721A/ERC721A.sol\":3250:3262  _burnCounter */\n      sload(0x01)\n        /* \"ERC721A/ERC721A.sol\":3234:3247  _currentIndex */\n      sload(0x00)\n        /* \"ERC721A/ERC721A.sol\":3234:3262  _currentIndex - _burnCounter */\n      sub\n        /* \"ERC721A/ERC721A.sol\":3234:3280  _currentIndex - _burnCounter - _startTokenId() */\n      sub\n        /* \"ERC721A/ERC721A.sol\":3227:3280  return _currentIndex - _burnCounter - _startTokenId() */\n      swap1\n      pop\n        /* \"ERC721A/ERC721A.sol\":2987:3299  function totalSupply() public view override returns (uint256) {... */\n      swap1\n      jump\t// out\n        /* \"ERC721A/ERC721A.sol\":9312:9482  function transferFrom(... */\n    tag_48:\n        /* \"ERC721A/ERC721A.sol\":9446:9474  _transfer(from, to, tokenId) */\n      tag_116\n        /* \"ERC721A/ERC721A.sol\":9456:9460  from */\n      dup4\n        /* \"ERC721A/ERC721A.sol\":9462:9464  to */\n      dup4\n        /* \"ERC721A/ERC721A.sol\":9466:9473  tokenId */\n      dup4\n        /* \"ERC721A/ERC721A.sol\":9446:9455  _transfer */\n      tag_117\n        /* \"ERC721A/ERC721A.sol\":9446:9474  _transfer(from, to, tokenId) */\n      jump\t// in\n    tag_116:\n        /* \"ERC721A/ERC721A.sol\":9312:9482  function transferFrom(... */\n      pop\n      pop\n      pop\n      jump\t// out\n        /* \"ERC721A/ERC721A.sol\":2359:2657  function BlockScore(address user)external view returns(uint256){... */\n    tag_52:\n        /* \"ERC721A/ERC721A.sol\":2414:2421  uint256 */\n      0x00\n        /* \"ERC721A/ERC721A.sol\":2433:2451  uint256 difference */\n      dup1\n        /* \"ERC721A/ERC721A.sol\":2454:2492  block.number.sub(_BlockScore[user][1]) */\n      tag_119\n        /* \"ERC721A/ERC721A.sol\":2471:2482  _BlockScore */\n      0x08\n        /* \"ERC721A/ERC721A.sol\":2471:2488  _BlockScore[user] */\n      0x00\n        /* \"ERC721A/ERC721A.sol\":2483:2487  user */\n      dup6\n        /* \"ERC721A/ERC721A.sol\":2471:2488  _BlockScore[user] */\n      0xffffffffffffffffffffffffffffffffffffffff\n      and\n      0xffffffffffffffffffffffffffffffffffffffff\n      and\n      dup2\n      mstore\n      0x20\n      add\n      swap1\n      dup2\n      mstore\n      0x20\n      add\n      0x00\n      keccak256\n        /* \"ERC721A/ERC721A.sol\":2471:2491  _BlockScore[user][1] */\n      0x00\n        /* \"ERC721A/ERC721A.sol\":2489:2490  1 */\n      0x01\n        /* \"ERC721A/ERC721A.sol\":2471:2491  _BlockScore[user][1] */\n      dup2\n      mstore\n      0x20\n      add\n      swap1\n      dup2\n      mstore\n      0x20\n      add\n      0x00\n      keccak256\n      sload\n        /* \"ERC721A/ERC721A.sol\":2454:2466  block.number */\n      number\n        /* \"ERC721A/ERC721A.sol\":2454:2470  block.number.sub */\n      tag_120\n      swap1\n        /* \"ERC721A/ERC721A.sol\":2454:2492  block.number.sub(_BlockScore[user][1]) */\n      swap2\n      swap1\n      0xffffffff\n      and\n      jump\t// in\n    tag_119:\n        /* \"ERC721A/ERC721A.sol\":2433:2492  uint256 difference = block.number.sub(_BlockScore[user][1]) */\n      swap1\n      pop\n        /* \"ERC721A/ERC721A.sol\":2503:2518  uint256 Product */\n      0x00\n        /* \"ERC721A/ERC721A.sol\":2521:2552  balanceOf(user).mul(difference) */\n      tag_121\n        /* \"ERC721A/ERC721A.sol\":2541:2551  difference */\n      dup3\n        /* \"ERC721A/ERC721A.sol\":2521:2536  balanceOf(user) */\n      tag_122\n        /* \"ERC721A/ERC721A.sol\":2531:2535  user */\n      dup7\n        /* \"ERC721A/ERC721A.sol\":2521:2530  balanceOf */\n      tag_63\n        /* \"ERC721A/ERC721A.sol\":2521:2536  balanceOf(user) */\n      jump\t// in\n    tag_122:\n        /* \"ERC721A/ERC721A.sol\":2521:2540  balanceOf(user).mul */\n      tag_123\n      swap1\n        /* \"ERC721A/ERC721A.sol\":2521:2552  balanceOf(user).mul(difference) */\n      swap2\n      swap1\n      0xffffffff\n      and\n      jump\t// in\n    tag_121:\n        /* \"ERC721A/ERC721A.sol\":2503:2552  uint256 Product = balanceOf(user).mul(difference) */\n      swap1\n      pop\n        /* \"ERC721A/ERC721A.sol\":2563:2583  uint256 accumulation */\n      0x00\n        /* \"ERC721A/ERC721A.sol\":2586:2619  _BlockScore[user][2].add(Product) */\n      tag_124\n        /* \"ERC721A/ERC721A.sol\":2611:2618  Product */\n      dup3\n        /* \"ERC721A/ERC721A.sol\":2586:2597  _BlockScore */\n      0x08\n        /* \"ERC721A/ERC721A.sol\":2586:2603  _BlockScore[user] */\n      0x00\n        /* \"ERC721A/ERC721A.sol\":2598:2602  user */\n      dup9\n        /* \"ERC721A/ERC721A.sol\":2586:2603  _BlockScore[user] */\n      0xffffffffffffffffffffffffffffffffffffffff\n      and\n      0xffffffffffffffffffffffffffffffffffffffff\n      and\n      dup2\n      mstore\n      0x20\n      add\n      swap1\n      dup2\n      mstore\n      0x20\n      add\n      0x00\n      keccak256\n        /* \"ERC721A/ERC721A.sol\":2586:2606  _BlockScore[user][2] */\n      0x00\n        /* \"ERC721A/ERC721A.sol\":2604:2605  2 */\n      0x02\n        /* \"ERC721A/ERC721A.sol\":2586:2606  _BlockScore[user][2] */\n      dup2\n      mstore\n      0x20\n      add\n      swap1\n      dup2\n      mstore\n      0x20\n      add\n      0x00\n      keccak256\n      sload\n        /* \"ERC721A/ERC721A.sol\":2586:2610  _BlockScore[user][2].add */\n      tag_125\n      swap1\n        /* \"ERC721A/ERC721A.sol\":2586:2619  _BlockScore[user][2].add(Product) */\n      swap2\n      swap1\n      0xffffffff\n      and\n      jump\t// in\n    tag_124:\n        /* \"ERC721A/ERC721A.sol\":2563:2619  uint256 accumulation = _BlockScore[user][2].add(Product) */\n      swap1\n      pop\n        /* \"ERC721A/ERC721A.sol\":2637:2649  accumulation */\n      dup1\n        /* \"ERC721A/ERC721A.sol\":2630:2649  return accumulation */\n      swap4\n      pop\n      pop\n      pop\n      pop\n        /* \"ERC721A/ERC721A.sol\":2359:2657  function BlockScore(address user)external view returns(uint256){... */\n      swap2\n      swap1\n      pop\n      jump\t// out\n        /* \"ERC721A/ERC721A.sol\":9553:9738  function safeTransferFrom(... */\n    tag_56:\n        /* \"ERC721A/ERC721A.sol\":9691:9730  safeTransferFrom(from, to, tokenId, '') */\n      tag_127\n        /* \"ERC721A/ERC721A.sol\":9708:9712  from */\n      dup4\n        /* \"ERC721A/ERC721A.sol\":9714:9716  to */\n      dup4\n        /* \"ERC721A/ERC721A.sol\":9718:9725  tokenId */\n      dup4\n        /* \"ERC721A/ERC721A.sol\":9691:9730  safeTransferFrom(from, to, tokenId, '') */\n      mload(0x40)\n      dup1\n      0x20\n      add\n      0x40\n      mstore\n      dup1\n      0x00\n      dup2\n      mstore\n      pop\n        /* \"ERC721A/ERC721A.sol\":9691:9707  safeTransferFrom */\n      tag_75\n        /* \"ERC721A/ERC721A.sol\":9691:9730  safeTransferFrom(from, to, tokenId, '') */\n      jump\t// in\n    tag_127:\n        /* \"ERC721A/ERC721A.sol\":9553:9738  function safeTransferFrom(... */\n      pop\n      pop\n      pop\n      jump\t// out\n        /* \"ERC721A/ERC721A.sol\":6670:6795  function ownerOf(uint256 tokenId) public view override returns (address) {... */\n    tag_59:\n        /* \"ERC721A/ERC721A.sol\":6734:6741  address */\n      0x00\n        /* \"ERC721A/ERC721A.sol\":6761:6782  _ownershipOf(tokenId) */\n      tag_129\n        /* \"ERC721A/ERC721A.sol\":6774:6781  tokenId */\n      dup3\n        /* \"ERC721A/ERC721A.sol\":6761:6773  _ownershipOf */\n      tag_130\n        /* \"ERC721A/ERC721A.sol\":6761:6782  _ownershipOf(tokenId) */\n      jump\t// in\n    tag_129:\n        /* \"ERC721A/ERC721A.sol\":6761:6787  _ownershipOf(tokenId).addr */\n      0x00\n      add\n      mload\n        /* \"ERC721A/ERC721A.sol\":6754:6787  return _ownershipOf(tokenId).addr */\n      swap1\n      pop\n        /* \"ERC721A/ERC721A.sol\":6670:6795  function ownerOf(uint256 tokenId) public view override returns (address) {... */\n      swap2\n      swap1\n      pop\n      jump\t// out\n        /* \"ERC721A/ERC721A.sol\":4116:4322  function balanceOf(address owner) public view override returns (uint256) {... */\n    tag_63:\n        /* \"ERC721A/ERC721A.sol\":4180:4187  uint256 */\n      0x00\n        /* \"ERC721A/ERC721A.sol\":4221:4222  0 */\n      dup1\n        /* \"ERC721A/ERC721A.sol\":4204:4223  owner == address(0) */\n      0xffffffffffffffffffffffffffffffffffffffff\n      and\n        /* \"ERC721A/ERC721A.sol\":4204:4209  owner */\n      dup3\n        /* \"ERC721A/ERC721A.sol\":4204:4223  owner == address(0) */\n      0xffffffffffffffffffffffffffffffffffffffff\n      and\n      sub\n        /* \"ERC721A/ERC721A.sol\":4200:4260  if (owner == address(0)) revert BalanceQueryForZeroAddress() */\n      tag_132\n      jumpi\n        /* \"ERC721A/ERC721A.sol\":4232:4260  BalanceQueryForZeroAddress() */\n      mload(0x40)\n      0x8f4eb60400000000000000000000000000000000000000000000000000000000\n      dup2\n      mstore\n      0x04\n      add\n      mload(0x40)\n      dup1\n      swap2\n      sub\n      swap1\n      revert\n        /* \"ERC721A/ERC721A.sol\":4200:4260  if (owner == address(0)) revert BalanceQueryForZeroAddress() */\n    tag_132:\n        /* \"ERC721A/ERC721A.sol\":4286:4298  _addressData */\n      0x05\n        /* \"ERC721A/ERC721A.sol\":4286:4305  _addressData[owner] */\n      0x00\n        /* \"ERC721A/ERC721A.sol\":4299:4304  owner */\n      dup4\n        /* \"ERC721A/ERC721A.sol\":4286:4305  _addressData[owner] */\n      0xffffffffffffffffffffffffffffffffffffffff\n      and\n      0xffffffffffffffffffffffffffffffffffffffff\n      and\n      dup2\n      mstore\n      0x20\n      add\n      swap1\n      dup2\n      mstore\n      0x20\n      add\n      0x00\n      keccak256\n        /* \"ERC721A/ERC721A.sol\":4286:4313  _addressData[owner].balance */\n      0x00\n      add\n      0x00\n      swap1\n      sload\n      swap1\n      0x0100\n      exp\n      swap1\n      div\n      0xffffffffffffffff\n      and\n        /* \"ERC721A/ERC721A.sol\":4278:4314  uint256(_addressData[owner].balance) */\n      0xffffffffffffffff\n      and\n        /* \"ERC721A/ERC721A.sol\":4271:4314  return uint256(_addressData[owner].balance) */\n      swap1\n      pop\n        /* \"ERC721A/ERC721A.sol\":4116:4322  function balanceOf(address owner) public view override returns (uint256) {... */\n      swap2\n      swap1\n      pop\n      jump\t// out\n        /* \"ERC721A/ERC721A.sol\":7031:7135  function symbol() public view virtual override returns (string memory) {... */\n    tag_66:\n        /* \"ERC721A/ERC721A.sol\":7087:7100  string memory */\n      0x60\n        /* \"ERC721A/ERC721A.sol\":7120:7127  _symbol */\n      0x03\n        /* \"ERC721A/ERC721A.sol\":7113:7127  return _symbol */\n      dup1\n      sload\n      tag_134\n      swap1\n      tag_92\n      jump\t// in\n    tag_134:\n      dup1\n      0x1f\n      add\n      0x20\n      dup1\n      swap2\n      div\n      mul\n      0x20\n      add\n      mload(0x40)\n      swap1\n      dup2\n      add\n      0x40\n      mstore\n      dup1\n      swap3\n      swap2\n      swap1\n      dup2\n      dup2\n      mstore\n      0x20\n      add\n      dup3\n      dup1\n      sload\n      tag_135\n      swap1\n      tag_92\n      jump\t// in\n    tag_135:\n      dup1\n      iszero\n      tag_136\n      jumpi\n      dup1\n      0x1f\n      lt\n      tag_137\n      jumpi\n      0x0100\n      dup1\n      dup4\n      sload\n      div\n      mul\n      dup4\n      mstore\n      swap2\n      0x20\n      add\n      swap2\n      jump(tag_136)\n    tag_137:\n      dup3\n      add\n      swap2\n      swap1\n      0x00\n      mstore\n      keccak256(0x00, 0x20)\n      swap1\n    tag_138:\n      dup2\n      sload\n      dup2\n      mstore\n      swap1\n      0x01\n      add\n      swap1\n      0x20\n      add\n      dup1\n      dup4\n      gt\n      tag_138\n      jumpi\n      dup3\n      swap1\n      sub\n      0x1f\n      and\n      dup3\n      add\n      swap2\n    tag_136:\n      pop\n      pop\n      pop\n      pop\n      pop\n      swap1\n      pop\n        /* \"ERC721A/ERC721A.sol\":7031:7135  function symbol() public view virtual override returns (string memory) {... */\n      swap1\n      jump\t// out\n        /* \"ERC721A/ERC721A.sol\":8723:9010  function setApprovalForAll(address operator, bool approved) public virtual override {... */\n    tag_71:\n        /* \"ERC721A/ERC721A.sol\":8834:8846  _msgSender() */\n      tag_140\n        /* \"ERC721A/ERC721A.sol\":8834:8844  _msgSender */\n      tag_105\n        /* \"ERC721A/ERC721A.sol\":8834:8846  _msgSender() */\n      jump\t// in\n    tag_140:\n        /* \"ERC721A/ERC721A.sol\":8822:8846  operator == _msgSender() */\n      0xffffffffffffffffffffffffffffffffffffffff\n      and\n        /* \"ERC721A/ERC721A.sol\":8822:8830  operator */\n      dup3\n        /* \"ERC721A/ERC721A.sol\":8822:8846  operator == _msgSender() */\n      0xffffffffffffffffffffffffffffffffffffffff\n      and\n      sub\n        /* \"ERC721A/ERC721A.sol\":8818:8872  if (operator == _msgSender()) revert ApproveToCaller() */\n      tag_141\n      jumpi\n        /* \"ERC721A/ERC721A.sol\":8855:8872  ApproveToCaller() */\n      mload(0x40)\n      0xb06307db00000000000000000000000000000000000000000000000000000000\n      dup2\n      mstore\n      0x04\n      add\n      mload(0x40)\n      dup1\n      swap2\n      sub\n      swap1\n      revert\n        /* \"ERC721A/ERC721A.sol\":8818:8872  if (operator == _msgSender()) revert ApproveToCaller() */\n    tag_141:\n        /* \"ERC721A/ERC721A.sol\":8930:8938  approved */\n      dup1\n        /* \"ERC721A/ERC721A.sol\":8885:8903  _operatorApprovals */\n      0x07\n        /* \"ERC721A/ERC721A.sol\":8885:8917  _operatorApprovals[_msgSender()] */\n      0x00\n        /* \"ERC721A/ERC721A.sol\":8904:8916  _msgSender() */\n      tag_142\n        /* \"ERC721A/ERC721A.sol\":8904:8914  _msgSender */\n      tag_105\n        /* \"ERC721A/ERC721A.sol\":8904:8916  _msgSender() */\n      jump\t// in\n    tag_142:\n        /* \"ERC721A/ERC721A.sol\":8885:8917  _operatorApprovals[_msgSender()] */\n      0xffffffffffffffffffffffffffffffffffffffff\n      and\n      0xffffffffffffffffffffffffffffffffffffffff\n      and\n      dup2\n      mstore\n      0x20\n      add\n      swap1\n      dup2\n      mstore\n      0x20\n      add\n      0x00\n      keccak256\n        /* \"ERC721A/ERC721A.sol\":8885:8927  _operatorApprovals[_msgSender()][operator] */\n      0x00\n        /* \"ERC721A/ERC721A.sol\":8918:8926  operator */\n      dup5\n        /* \"ERC721A/ERC721A.sol\":8885:8927  _operatorApprovals[_msgSender()][operator] */\n      0xffffffffffffffffffffffffffffffffffffffff\n      and\n      0xffffffffffffffffffffffffffffffffffffffff\n      and\n      dup2\n      mstore\n      0x20\n      add\n      swap1\n      dup2\n      mstore\n      0x20\n      add\n      0x00\n      keccak256\n      0x00\n        /* \"ERC721A/ERC721A.sol\":8885:8938  _operatorApprovals[_msgSender()][operator] = approved */\n      0x0100\n      exp\n      dup2\n      sload\n      dup2\n      0xff\n      mul\n      not\n      and\n      swap1\n      dup4\n      iszero\n      iszero\n      mul\n      or\n      swap1\n      sstore\n      pop\n        /* \"ERC721A/ERC721A.sol\":8983:8991  operator */\n      dup2\n        /* \"ERC721A/ERC721A.sol\":8954:9002  ApprovalForAll(_msgSender(), operator, approved) */\n      0xffffffffffffffffffffffffffffffffffffffff\n      and\n        /* \"ERC721A/ERC721A.sol\":8969:8981  _msgSender() */\n      tag_143\n        /* \"ERC721A/ERC721A.sol\":8969:8979  _msgSender */\n      tag_105\n        /* \"ERC721A/ERC721A.sol\":8969:8981  _msgSender() */\n      jump\t// in\n    tag_143:\n        /* \"ERC721A/ERC721A.sol\":8954:9002  ApprovalForAll(_msgSender(), operator, approved) */\n      0xffffffffffffffffffffffffffffffffffffffff\n      and\n      0x17307eab39ab6107e8899845ad3d59bd9653f200f220920489ca2b5937696c31\n        /* \"ERC721A/ERC721A.sol\":8993:9001  approved */\n      dup4\n        /* \"ERC721A/ERC721A.sol\":8954:9002  ApprovalForAll(_msgSender(), operator, approved) */\n      mload(0x40)\n      tag_144\n      swap2\n      swap1\n      tag_26\n      jump\t// in\n    tag_144:\n      mload(0x40)\n      dup1\n      swap2\n      sub\n      swap1\n      log3\n        /* \"ERC721A/ERC721A.sol\":8723:9010  function setApprovalForAll(address operator, bool approved) public virtual override {... */\n      pop\n      pop\n      jump\t// out\n        /* \"ERC721A/ERC721A.sol\":9809:10179  function safeTransferFrom(... */\n    tag_75:\n        /* \"ERC721A/ERC721A.sol\":9976:10004  _transfer(from, to, tokenId) */\n      tag_146\n        /* \"ERC721A/ERC721A.sol\":9986:9990  from */\n      dup5\n        /* \"ERC721A/ERC721A.sol\":9992:9994  to */\n      dup5\n        /* \"ERC721A/ERC721A.sol\":9996:10003  tokenId */\n      dup5\n        /* \"ERC721A/ERC721A.sol\":9976:9985  _transfer */\n      tag_117\n        /* \"ERC721A/ERC721A.sol\":9976:10004  _transfer(from, to, tokenId) */\n      jump\t// in\n    tag_146:\n        /* \"ERC721A/ERC721A.sol\":10019:10034  to.isContract() */\n      tag_147\n        /* \"ERC721A/ERC721A.sol\":10019:10021  to */\n      dup4\n        /* \"ERC721A/ERC721A.sol\":10019:10032  to.isContract */\n      0xffffffffffffffffffffffffffffffffffffffff\n      and\n      tag_148\n        /* \"ERC721A/ERC721A.sol\":10019:10034  to.isContract() */\n      jump\t// in\n    tag_147:\n        /* \"ERC721A/ERC721A.sol\":10015:10172  if (to.isContract()) if(!_checkContractOnERC721Received(from, to, tokenId, _data)) {... */\n      iszero\n      tag_149\n      jumpi\n        /* \"ERC721A/ERC721A.sol\":10040:10096  _checkContractOnERC721Received(from, to, tokenId, _data) */\n      tag_150\n        /* \"ERC721A/ERC721A.sol\":10071:10075  from */\n      dup5\n        /* \"ERC721A/ERC721A.sol\":10077:10079  to */\n      dup5\n        /* \"ERC721A/ERC721A.sol\":10081:10088  tokenId */\n      dup5\n        /* \"ERC721A/ERC721A.sol\":10090:10095  _data */\n      dup5\n        /* \"ERC721A/ERC721A.sol\":10040:10070  _checkContractOnERC721Received */\n      tag_151\n        /* \"ERC721A/ERC721A.sol\":10040:10096  _checkContractOnERC721Received(from, to, tokenId, _data) */\n      jump\t// in\n    tag_150:\n        /* \"ERC721A/ERC721A.sol\":10036:10172  if(!_checkContractOnERC721Received(from, to, tokenId, _data)) {... */\n      tag_152\n      jumpi\n        /* \"ERC721A/ERC721A.sol\":10120:10160  TransferToNonERC721ReceiverImplementer() */\n      mload(0x40)\n      0xd1a57ed600000000000000000000000000000000000000000000000000000000\n      dup2\n      mstore\n      0x04\n      add\n      mload(0x40)\n      dup1\n      swap2\n      sub\n      swap1\n      revert\n        /* \"ERC721A/ERC721A.sol\":10036:10172  if(!_checkContractOnERC721Received(from, to, tokenId, _data)) {... */\n    tag_152:\n        /* \"ERC721A/ERC721A.sol\":10015:10172  if (to.isContract()) if(!_checkContractOnERC721Received(from, to, tokenId, _data)) {... */\n    tag_149:\n        /* \"ERC721A/ERC721A.sol\":9809:10179  function safeTransferFrom(... */\n      pop\n      pop\n      pop\n      pop\n      jump\t// out\n        /* \"ERC721A/ERC721A.sol\":7206:7524  function tokenURI(uint256 tokenId) public view virtual override returns (string memory) {... */\n    tag_78:\n        /* \"ERC721A/ERC721A.sol\":7279:7292  string memory */\n      0x60\n        /* \"ERC721A/ERC721A.sol\":7310:7326  _exists(tokenId) */\n      tag_154\n        /* \"ERC721A/ERC721A.sol\":7318:7325  tokenId */\n      dup3\n        /* \"ERC721A/ERC721A.sol\":7310:7317  _exists */\n      tag_99\n        /* \"ERC721A/ERC721A.sol\":7310:7326  _exists(tokenId) */\n      jump\t// in\n    tag_154:\n        /* \"ERC721A/ERC721A.sol\":7305:7364  if (!_exists(tokenId)) revert URIQueryForNonexistentToken() */\n      tag_155\n      jumpi\n        /* \"ERC721A/ERC721A.sol\":7335:7364  URIQueryForNonexistentToken() */\n      mload(0x40)\n      0xa14c4b5000000000000000000000000000000000000000000000000000000000\n      dup2\n      mstore\n      0x04\n      add\n      mload(0x40)\n      dup1\n      swap2\n      sub\n      swap1\n      revert\n        /* \"ERC721A/ERC721A.sol\":7305:7364  if (!_exists(tokenId)) revert URIQueryForNonexistentToken() */\n    tag_155:\n        /* \"ERC721A/ERC721A.sol\":7377:7398  string memory baseURI */\n      0x00\n        /* \"ERC721A/ERC721A.sol\":7401:7411  _baseURI() */\n      tag_156\n        /* \"ERC721A/ERC721A.sol\":7401:7409  _baseURI */\n      tag_157\n        /* \"ERC721A/ERC721A.sol\":7401:7411  _baseURI() */\n      jump\t// in\n    tag_156:\n        /* \"ERC721A/ERC721A.sol\":7377:7411  string memory baseURI = _baseURI() */\n      swap1\n      pop\n        /* \"ERC721A/ERC721A.sol\":7454:7455  0 */\n      0x00\n        /* \"ERC721A/ERC721A.sol\":7435:7442  baseURI */\n      dup2\n        /* \"ERC721A/ERC721A.sol\":7429:7450  bytes(baseURI).length */\n      mload\n        /* \"ERC721A/ERC721A.sol\":7429:7455  bytes(baseURI).length != 0 */\n      sub\n        /* \"ERC721A/ERC721A.sol\":7429:7516  bytes(baseURI).length != 0 ? string(abi.encodePacked(baseURI, tokenId.toString())) : '' */\n      tag_158\n      jumpi\n      mload(0x40)\n      dup1\n      0x20\n      add\n      0x40\n      mstore\n      dup1\n      0x00\n      dup2\n      mstore\n      pop\n      jump(tag_159)\n    tag_158:\n        /* \"ERC721A/ERC721A.sol\":7482:7489  baseURI */\n      dup1\n        /* \"ERC721A/ERC721A.sol\":7491:7509  tokenId.toString() */\n      tag_160\n        /* \"ERC721A/ERC721A.sol\":7491:7498  tokenId */\n      dup5\n        /* \"ERC721A/ERC721A.sol\":7491:7507  tokenId.toString */\n      tag_161\n        /* \"ERC721A/ERC721A.sol\":7491:7509  tokenId.toString() */\n      jump\t// in\n    tag_160:\n        /* \"ERC721A/ERC721A.sol\":7465:7510  abi.encodePacked(baseURI, tokenId.toString()) */\n      add(0x20, mload(0x40))\n      tag_162\n      swap3\n      swap2\n      swap1\n      tag_163\n      jump\t// in\n    tag_162:\n      mload(0x40)\n      0x20\n      dup2\n      dup4\n      sub\n      sub\n      dup2\n      mstore\n      swap1\n      0x40\n      mstore\n        /* \"ERC721A/ERC721A.sol\":7429:7516  bytes(baseURI).length != 0 ? string(abi.encodePacked(baseURI, tokenId.toString())) : '' */\n    tag_159:\n        /* \"ERC721A/ERC721A.sol\":7422:7516  return bytes(baseURI).length != 0 ? string(abi.encodePacked(baseURI, tokenId.toString())) : '' */\n      swap2\n      pop\n      pop\n        /* \"ERC721A/ERC721A.sol\":7206:7524  function tokenURI(uint256 tokenId) public view virtual override returns (string memory) {... */\n      swap2\n      swap1\n      pop\n      jump\t// out\n        /* \"ERC721A/ERC721A.sol\":9081:9245  function isApprovedForAll(address owner, address operator) public view virtual override returns (bool) {... */\n    tag_83:\n        /* \"ERC721A/ERC721A.sol\":9178:9182  bool */\n      0x00\n        /* \"ERC721A/ERC721A.sol\":9202:9220  _operatorApprovals */\n      0x07\n        /* \"ERC721A/ERC721A.sol\":9202:9227  _operatorApprovals[owner] */\n      0x00\n        /* \"ERC721A/ERC721A.sol\":9221:9226  owner */\n      dup5\n        /* \"ERC721A/ERC721A.sol\":9202:9227  _operatorApprovals[owner] */\n      0xffffffffffffffffffffffffffffffffffffffff\n      and\n      0xffffffffffffffffffffffffffffffffffffffff\n      and\n      dup2\n      mstore\n      0x20\n      add\n      swap1\n      dup2\n      mstore\n      0x20\n      add\n      0x00\n      keccak256\n        /* \"ERC721A/ERC721A.sol\":9202:9237  _operatorApprovals[owner][operator] */\n      0x00\n        /* \"ERC721A/ERC721A.sol\":9228:9236  operator */\n      dup4\n        /* \"ERC721A/ERC721A.sol\":9202:9237  _operatorApprovals[owner][operator] */\n      0xffffffffffffffffffffffffffffffffffffffff\n      and\n      0xffffffffffffffffffffffffffffffffffffffff\n      and\n      dup2\n      mstore\n      0x20\n      add\n      swap1\n      dup2\n      mstore\n      0x20\n      add\n      0x00\n      keccak256\n      0x00\n      swap1\n      sload\n      swap1\n      0x0100\n      exp\n      swap1\n      div\n      0xff\n      and\n        /* \"ERC721A/ERC721A.sol\":9195:9237  return _operatorApprovals[owner][operator] */\n      swap1\n      pop\n        /* \"ERC721A/ERC721A.sol\":9081:9245  function isApprovedForAll(address owner, address operator) public view virtual override returns (bool) {... */\n      swap3\n      swap2\n      pop\n      pop\n      jump\t// out\n        /* \"@openzeppelin/contracts/utils/introspection/ERC165.sol\":829:984  function supportsInterface(bytes4 interfaceId) public view virtual override returns (bool) {... */\n    tag_89:\n        /* \"@openzeppelin/contracts/utils/introspection/ERC165.sol\":914:918  bool */\n      0x00\n        /* \"@openzeppelin/contracts/utils/introspection/ERC165.sol\":952:977  type(IERC165).interfaceId */\n      0x01ffc9a700000000000000000000000000000000000000000000000000000000\n        /* \"@openzeppelin/contracts/utils/introspection/ERC165.sol\":937:977  interfaceId == type(IERC165).interfaceId */\n      not(0xffffffffffffffffffffffffffffffffffffffffffffffffffffffff)\n      and\n        /* \"@openzeppelin/contracts/utils/introspection/ERC165.sol\":937:948  interfaceId */\n      dup3\n        /* \"@openzeppelin/contracts/utils/introspection/ERC165.sol\":937:977  interfaceId == type(IERC165).interfaceId */\n      not(0xffffffffffffffffffffffffffffffffffffffffffffffffffffffff)\n      and\n      eq\n        /* \"@openzeppelin/contracts/utils/introspection/ERC165.sol\":930:977  return interfaceId == type(IERC165).interfaceId */\n      swap1\n      pop\n        /* \"@openzeppelin/contracts/utils/introspection/ERC165.sol\":829:984  function supportsInterface(bytes4 interfaceId) public view virtual override returns (bool) {... */\n      swap2\n      swap1\n      pop\n      jump\t// out\n        /* \"ERC721A/ERC721A.sol\":10434:10608  function _exists(uint256 tokenId) internal view returns (bool) {... */\n    tag_99:\n        /* \"ERC721A/ERC721A.sol\":10491:10495  bool */\n      0x00\n        /* \"ERC721A/ERC721A.sol\":10534:10541  tokenId */\n      dup2\n        /* \"ERC721A/ERC721A.sol\":10515:10530  _startTokenId() */\n      tag_167\n        /* \"ERC721A/ERC721A.sol\":10515:10528  _startTokenId */\n      tag_114\n        /* \"ERC721A/ERC721A.sol\":10515:10530  _startTokenId() */\n      jump\t// in\n    tag_167:\n        /* \"ERC721A/ERC721A.sol\":10515:10541  _startTokenId() <= tokenId */\n      gt\n      iszero\n        /* \"ERC721A/ERC721A.sol\":10515:10568  _startTokenId() <= tokenId && tokenId < _currentIndex */\n      dup1\n      iszero\n      tag_168\n      jumpi\n      pop\n        /* \"ERC721A/ERC721A.sol\":10555:10568  _currentIndex */\n      sload(0x00)\n        /* \"ERC721A/ERC721A.sol\":10545:10552  tokenId */\n      dup3\n        /* \"ERC721A/ERC721A.sol\":10545:10568  tokenId < _currentIndex */\n      lt\n        /* \"ERC721A/ERC721A.sol\":10515:10568  _startTokenId() <= tokenId && tokenId < _currentIndex */\n    tag_168:\n        /* \"ERC721A/ERC721A.sol\":10515:10600  _startTokenId() <= tokenId && tokenId < _currentIndex && !_ownerships[tokenId].burned */\n      dup1\n      iszero\n      tag_169\n      jumpi\n      pop\n        /* \"ERC721A/ERC721A.sol\":10573:10584  _ownerships */\n      0x04\n        /* \"ERC721A/ERC721A.sol\":10573:10593  _ownerships[tokenId] */\n      0x00\n        /* \"ERC721A/ERC721A.sol\":10585:10592  tokenId */\n      dup4\n        /* \"ERC721A/ERC721A.sol\":10573:10593  _ownerships[tokenId] */\n      dup2\n      mstore\n      0x20\n      add\n      swap1\n      dup2\n      mstore\n      0x20\n      add\n      0x00\n      keccak256\n        /* \"ERC721A/ERC721A.sol\":10573:10600  _ownerships[tokenId].burned */\n      0x00\n      add\n      0x1c\n      swap1\n      sload\n      swap1\n      0x0100\n      exp\n      swap1\n      div\n      0xff\n      and\n        /* \"ERC721A/ERC721A.sol\":10572:10600  !_ownerships[tokenId].burned */\n      iszero\n        /* \"ERC721A/ERC721A.sol\":10515:10600  _startTokenId() <= tokenId && tokenId < _currentIndex && !_ownerships[tokenId].burned */\n    tag_169:\n        /* \"ERC721A/ERC721A.sol\":10508:10600  return _startTokenId() <= tokenId && tokenId < _currentIndex && !_ownerships[tokenId].burned */\n      swap1\n      pop\n        /* \"ERC721A/ERC721A.sol\":10434:10608  function _exists(uint256 tokenId) internal view returns (bool) {... */\n      swap2\n      swap1\n      pop\n      jump\t// out\n        /* \"@openzeppelin/contracts/utils/Context.sol\":640:736  function _msgSender() internal view virtual returns (address) {... */\n    tag_105:\n        /* \"@openzeppelin/contracts/utils/Context.sol\":693:700  address */\n      0x00\n        /* \"@openzeppelin/contracts/utils/Context.sol\":719:729  msg.sender */\n      caller\n        /* \"@openzeppelin/contracts/utils/Context.sol\":712:729  return msg.sender */\n      swap1\n      pop\n        /* \"@openzeppelin/contracts/utils/Context.sol\":640:736  function _msgSender() internal view virtual returns (address) {... */\n      swap1\n      jump\t// out\n        /* \"ERC721A/ERC721A.sol\":19656:19852  function _approve(... */\n    tag_111:\n        /* \"ERC721A/ERC721A.sol\":19798:19800  to */\n      dup3\n        /* \"ERC721A/ERC721A.sol\":19771:19786  _tokenApprovals */\n      0x06\n        /* \"ERC721A/ERC721A.sol\":19771:19795  _tokenApprovals[tokenId] */\n      0x00\n        /* \"ERC721A/ERC721A.sol\":19787:19794  tokenId */\n      dup5\n        /* \"ERC721A/ERC721A.sol\":19771:19795  _tokenApprovals[tokenId] */\n      dup2\n      mstore\n      0x20\n      add\n      swap1\n      dup2\n      mstore\n      0x20\n      add\n      0x00\n      keccak256\n      0x00\n        /* \"ERC721A/ERC721A.sol\":19771:19800  _tokenApprovals[tokenId] = to */\n      0x0100\n      exp\n      dup2\n      sload\n      dup2\n      0xffffffffffffffffffffffffffffffffffffffff\n      mul\n      not\n      and\n      swap1\n      dup4\n      0xffffffffffffffffffffffffffffffffffffffff\n      and\n      mul\n      or\n      swap1\n      sstore\n      pop\n        /* \"ERC721A/ERC721A.sol\":19836:19843  tokenId */\n      dup2\n        /* \"ERC721A/ERC721A.sol\":19832:19834  to */\n      dup4\n        /* \"ERC721A/ERC721A.sol\":19816:19844  Approval(owner, to, tokenId) */\n      0xffffffffffffffffffffffffffffffffffffffff\n      and\n        /* \"ERC721A/ERC721A.sol\":19825:19830  owner */\n      dup3\n        /* \"ERC721A/ERC721A.sol\":19816:19844  Approval(owner, to, tokenId) */\n      0xffffffffffffffffffffffffffffffffffffffff\n      and\n      0x8c5be1e5ebec7d5bd14f71427d1e84f3dd0314c0f7b2291e5b200ac8c7c3b925\n      mload(0x40)\n      mload(0x40)\n      dup1\n      swap2\n      sub\n      swap1\n      log4\n        /* \"ERC721A/ERC721A.sol\":19656:19852  function _approve(... */\n      pop\n      pop\n      pop\n      jump\t// out\n        /* \"ERC721A/ERC721A.sol\":2761:2853  function _startTokenId() internal view virtual returns (uint256) {... */\n    tag_114:\n        /* \"ERC721A/ERC721A.sol\":2817:2824  uint256 */\n      0x00\n        /* \"ERC721A/ERC721A.sol\":2844:2845  1 */\n      0x01\n        /* \"ERC721A/ERC721A.sol\":2837:2845  return 1 */\n      swap1\n      pop\n        /* \"ERC721A/ERC721A.sol\":2761:2853  function _startTokenId() internal view virtual returns (uint256) {... */\n      swap1\n      jump\t// out\n        /* \"ERC721A/ERC721A.sol\":14604:16734  function _transfer(... */\n    tag_117:\n        /* \"ERC721A/ERC721A.sol\":14719:14754  TokenOwnership memory prevOwnership */\n      0x00\n        /* \"ERC721A/ERC721A.sol\":14757:14778  _ownershipOf(tokenId) */\n      tag_174\n        /* \"ERC721A/ERC721A.sol\":14770:14777  tokenId */\n      dup3\n        /* \"ERC721A/ERC721A.sol\":14757:14769  _ownershipOf */\n      tag_130\n        /* \"ERC721A/ERC721A.sol\":14757:14778  _ownershipOf(tokenId) */\n      jump\t// in\n    tag_174:\n        /* \"ERC721A/ERC721A.sol\":14719:14778  TokenOwnership memory prevOwnership = _ownershipOf(tokenId) */\n      swap1\n      pop\n        /* \"ERC721A/ERC721A.sol\":14817:14821  from */\n      dup4\n        /* \"ERC721A/ERC721A.sol\":14795:14821  prevOwnership.addr != from */\n      0xffffffffffffffffffffffffffffffffffffffff\n      and\n        /* \"ERC721A/ERC721A.sol\":14795:14808  prevOwnership */\n      dup2\n        /* \"ERC721A/ERC721A.sol\":14795:14813  prevOwnership.addr */\n      0x00\n      add\n      mload\n        /* \"ERC721A/ERC721A.sol\":14795:14821  prevOwnership.addr != from */\n      0xffffffffffffffffffffffffffffffffffffffff\n      and\n      eq\n        /* \"ERC721A/ERC721A.sol\":14791:14858  if (prevOwnership.addr != from) revert TransferFromIncorrectOwner() */\n      tag_175\n      jumpi\n        /* \"ERC721A/ERC721A.sol\":14830:14858  TransferFromIncorrectOwner() */\n      mload(0x40)\n      0xa114810000000000000000000000000000000000000000000000000000000000\n      dup2\n      mstore\n      0x04\n      add\n      mload(0x40)\n      dup1\n      swap2\n      sub\n      swap1\n      revert\n        /* \"ERC721A/ERC721A.sol\":14791:14858  if (prevOwnership.addr != from) revert TransferFromIncorrectOwner() */\n    tag_175:\n        /* \"ERC721A/ERC721A.sol\":14871:14893  bool isApprovedOrOwner */\n      0x00\n        /* \"ERC721A/ERC721A.sol\":14913:14917  from */\n      dup5\n        /* \"ERC721A/ERC721A.sol\":14897:14917  _msgSender() == from */\n      0xffffffffffffffffffffffffffffffffffffffff\n      and\n        /* \"ERC721A/ERC721A.sol\":14897:14909  _msgSender() */\n      tag_176\n        /* \"ERC721A/ERC721A.sol\":14897:14907  _msgSender */\n      tag_105\n        /* \"ERC721A/ERC721A.sol\":14897:14909  _msgSender() */\n      jump\t// in\n    tag_176:\n        /* \"ERC721A/ERC721A.sol\":14897:14917  _msgSender() == from */\n      0xffffffffffffffffffffffffffffffffffffffff\n      and\n      eq\n        /* \"ERC721A/ERC721A.sol\":14897:14970  _msgSender() == from ||... */\n      dup1\n      tag_177\n      jumpi\n      pop\n        /* \"ERC721A/ERC721A.sol\":14934:14970  isApprovedForAll(from, _msgSender()) */\n      tag_178\n        /* \"ERC721A/ERC721A.sol\":14951:14955  from */\n      dup6\n        /* \"ERC721A/ERC721A.sol\":14957:14969  _msgSender() */\n      tag_179\n        /* \"ERC721A/ERC721A.sol\":14957:14967  _msgSender */\n      tag_105\n        /* \"ERC721A/ERC721A.sol\":14957:14969  _msgSender() */\n      jump\t// in\n    tag_179:\n        /* \"ERC721A/ERC721A.sol\":14934:14950  isApprovedForAll */\n      tag_83\n        /* \"ERC721A/ERC721A.sol\":14934:14970  isApprovedForAll(from, _msgSender()) */\n      jump\t// in\n    tag_178:\n        /* \"ERC721A/ERC721A.sol\":14897:14970  _msgSender() == from ||... */\n    tag_177:\n        /* \"ERC721A/ERC721A.sol\":14897:15023  _msgSender() == from ||... */\n      dup1\n      tag_180\n      jumpi\n      pop\n        /* \"ERC721A/ERC721A.sol\":15011:15023  _msgSender() */\n      tag_181\n        /* \"ERC721A/ERC721A.sol\":15011:15021  _msgSender */\n      tag_105\n        /* \"ERC721A/ERC721A.sol\":15011:15023  _msgSender() */\n      jump\t// in\n    tag_181:\n        /* \"ERC721A/ERC721A.sol\":14987:15023  getApproved(tokenId) == _msgSender() */\n      0xffffffffffffffffffffffffffffffffffffffff\n      and\n        /* \"ERC721A/ERC721A.sol\":14987:15007  getApproved(tokenId) */\n      tag_182\n        /* \"ERC721A/ERC721A.sol\":14999:15006  tokenId */\n      dup5\n        /* \"ERC721A/ERC721A.sol\":14987:14998  getApproved */\n      tag_34\n        /* \"ERC721A/ERC721A.sol\":14987:15007  getApproved(tokenId) */\n      jump\t// in\n    tag_182:\n        /* \"ERC721A/ERC721A.sol\":14987:15023  getApproved(tokenId) == _msgSender() */\n      0xffffffffffffffffffffffffffffffffffffffff\n      and\n      eq\n        /* \"ERC721A/ERC721A.sol\":14897:15023  _msgSender() == from ||... */\n    tag_180:\n        /* \"ERC721A/ERC721A.sol\":14871:15024  bool isApprovedOrOwner = (_msgSender() == from ||... */\n      swap1\n      pop\n        /* \"ERC721A/ERC721A.sol\":15042:15059  isApprovedOrOwner */\n      dup1\n        /* \"ERC721A/ERC721A.sol\":15037:15103  if (!isApprovedOrOwner) revert TransferCallerNotOwnerNorApproved() */\n      tag_183\n      jumpi\n        /* \"ERC721A/ERC721A.sol\":15068:15103  TransferCallerNotOwnerNorApproved() */\n      mload(0x40)\n      0x59c896be00000000000000000000000000000000000000000000000000000000\n      dup2\n      mstore\n      0x04\n      add\n      mload(0x40)\n      dup1\n      swap2\n      sub\n      swap1\n      revert\n        /* \"ERC721A/ERC721A.sol\":15037:15103  if (!isApprovedOrOwner) revert TransferCallerNotOwnerNorApproved() */\n    tag_183:\n        /* \"ERC721A/ERC721A.sol\":15132:15133  0 */\n      0x00\n        /* \"ERC721A/ERC721A.sol\":15118:15134  to == address(0) */\n      0xffffffffffffffffffffffffffffffffffffffff\n      and\n        /* \"ERC721A/ERC721A.sol\":15118:15120  to */\n      dup5\n        /* \"ERC721A/ERC721A.sol\":15118:15134  to == address(0) */\n      0xffffffffffffffffffffffffffffffffffffffff\n      and\n      sub\n        /* \"ERC721A/ERC721A.sol\":15114:15166  if (to == address(0)) revert TransferToZeroAddress() */\n      tag_184\n      jumpi\n        /* \"ERC721A/ERC721A.sol\":15143:15166  TransferToZeroAddress() */\n      mload(0x40)\n      0xea553b3400000000000000000000000000000000000000000000000000000000\n      dup2\n      mstore\n      0x04\n      add\n      mload(0x40)\n      dup1\n      swap2\n      sub\n      swap1\n      revert\n        /* \"ERC721A/ERC721A.sol\":15114:15166  if (to == address(0)) revert TransferToZeroAddress() */\n    tag_184:\n        /* \"ERC721A/ERC721A.sol\":15179:15222  _beforeTokenTransfers(from, to, tokenId, 1) */\n      tag_185\n        /* \"ERC721A/ERC721A.sol\":15201:15205  from */\n      dup6\n        /* \"ERC721A/ERC721A.sol\":15207:15209  to */\n      dup6\n        /* \"ERC721A/ERC721A.sol\":15211:15218  tokenId */\n      dup6\n        /* \"ERC721A/ERC721A.sol\":15220:15221  1 */\n      0x01\n        /* \"ERC721A/ERC721A.sol\":15179:15200  _beforeTokenTransfers */\n      tag_186\n        /* \"ERC721A/ERC721A.sol\":15179:15222  _beforeTokenTransfers(from, to, tokenId, 1) */\n      jump\t// in\n    tag_185:\n        /* \"ERC721A/ERC721A.sol\":15287:15322  _approve(address(0), tokenId, from) */\n      tag_187\n        /* \"ERC721A/ERC721A.sol\":15304:15305  0 */\n      0x00\n        /* \"ERC721A/ERC721A.sol\":15308:15315  tokenId */\n      dup5\n        /* \"ERC721A/ERC721A.sol\":15317:15321  from */\n      dup8\n        /* \"ERC721A/ERC721A.sol\":15287:15295  _approve */\n      tag_111\n        /* \"ERC721A/ERC721A.sol\":15287:15322  _approve(address(0), tokenId, from) */\n      jump\t// in\n    tag_187:\n        /* \"ERC721A/ERC721A.sol\":15648:15649  1 */\n      0x01\n        /* \"ERC721A/ERC721A.sol\":15618:15630  _addressData */\n      0x05\n        /* \"ERC721A/ERC721A.sol\":15618:15636  _addressData[from] */\n      0x00\n        /* \"ERC721A/ERC721A.sol\":15631:15635  from */\n      dup8\n        /* \"ERC721A/ERC721A.sol\":15618:15636  _addressData[from] */\n      0xffffffffffffffffffffffffffffffffffffffff\n      and\n      0xffffffffffffffffffffffffffffffffffffffff\n      and\n      dup2\n      mstore\n      0x20\n      add\n      swap1\n      dup2\n      mstore\n      0x20\n      add\n      0x00\n      keccak256\n        /* \"ERC721A/ERC721A.sol\":15618:15644  _addressData[from].balance */\n      0x00\n      add\n      0x00\n        /* \"ERC721A/ERC721A.sol\":15618:15649  _addressData[from].balance -= 1 */\n      dup3\n      dup3\n      dup3\n      swap1\n      sload\n      swap1\n      0x0100\n      exp\n      swap1\n      div\n      0xffffffffffffffff\n      and\n      sub\n      swap3\n      pop\n      0x0100\n      exp\n      dup2\n      sload\n      dup2\n      0xffffffffffffffff\n      mul\n      not\n      and\n      swap1\n      dup4\n      0xffffffffffffffff\n      and\n      mul\n      or\n      swap1\n      sstore\n      pop\n        /* \"ERC721A/ERC721A.sol\":15692:15693  1 */\n      0x01\n        /* \"ERC721A/ERC721A.sol\":15664:15676  _addressData */\n      0x05\n        /* \"ERC721A/ERC721A.sol\":15664:15680  _addressData[to] */\n      0x00\n        /* \"ERC721A/ERC721A.sol\":15677:15679  to */\n      dup7\n        /* \"ERC721A/ERC721A.sol\":15664:15680  _addressData[to] */\n      0xffffffffffffffffffffffffffffffffffffffff\n      and\n      0xffffffffffffffffffffffffffffffffffffffff\n      and\n      dup2\n      mstore\n      0x20\n      add\n      swap1\n      dup2\n      mstore\n      0x20\n      add\n      0x00\n      keccak256\n        /* \"ERC721A/ERC721A.sol\":15664:15688  _addressData[to].balance */\n      0x00\n      add\n      0x00\n        /* \"ERC721A/ERC721A.sol\":15664:15693  _addressData[to].balance += 1 */\n      dup3\n      dup3\n      dup3\n      swap1\n      sload\n      swap1\n      0x0100\n      exp\n      swap1\n      div\n      0xffffffffffffffff\n      and\n      add\n      swap3\n      pop\n      0x0100\n      exp\n      dup2\n      sload\n      dup2\n      0xffffffffffffffff\n      mul\n      not\n      and\n      swap1\n      dup4\n      0xffffffffffffffff\n      and\n      mul\n      or\n      swap1\n      sstore\n      pop\n        /* \"ERC721A/ERC721A.sol\":15710:15741  TokenOwnership storage currSlot */\n      0x00\n        /* \"ERC721A/ERC721A.sol\":15744:15755  _ownerships */\n      0x04\n        /* \"ERC721A/ERC721A.sol\":15744:15764  _ownerships[tokenId] */\n      0x00\n        /* \"ERC721A/ERC721A.sol\":15756:15763  tokenId */\n      dup6\n        /* \"ERC721A/ERC721A.sol\":15744:15764  _ownerships[tokenId] */\n      dup2\n      mstore\n      0x20\n      add\n      swap1\n      dup2\n      mstore\n      0x20\n      add\n      0x00\n      keccak256\n        /* \"ERC721A/ERC721A.sol\":15710:15764  TokenOwnership storage currSlot = _ownerships[tokenId] */\n      swap1\n      pop\n        /* \"ERC721A/ERC721A.sol\":15795:15797  to */\n      dup5\n        /* \"ERC721A/ERC721A.sol\":15779:15787  currSlot */\n      dup2\n        /* \"ERC721A/ERC721A.sol\":15779:15792  currSlot.addr */\n      0x00\n      add\n      0x00\n        /* \"ERC721A/ERC721A.sol\":15779:15797  currSlot.addr = to */\n      0x0100\n      exp\n      dup2\n      sload\n      dup2\n      0xffffffffffffffffffffffffffffffffffffffff\n      mul\n      not\n      and\n      swap1\n      dup4\n      0xffffffffffffffffffffffffffffffffffffffff\n      and\n      mul\n      or\n      swap1\n      sstore\n      pop\n        /* \"ERC721A/ERC721A.sol\":15845:15860  block.timestamp */\n      timestamp\n        /* \"ERC721A/ERC721A.sol\":15812:15820  currSlot */\n      dup2\n        /* \"ERC721A/ERC721A.sol\":15812:15835  currSlot.startTimestamp */\n      0x00\n      add\n      0x14\n        /* \"ERC721A/ERC721A.sol\":15812:15861  currSlot.startTimestamp = uint64(block.timestamp) */\n      0x0100\n      exp\n      dup2\n      sload\n      dup2\n      0xffffffffffffffff\n      mul\n      not\n      and\n      swap1\n      dup4\n      0xffffffffffffffff\n      and\n      mul\n      or\n      swap1\n      sstore\n      pop\n        /* \"ERC721A/ERC721A.sol\":16113:16132  uint256 nextTokenId */\n      0x00\n        /* \"ERC721A/ERC721A.sol\":16145:16146  1 */\n      0x01\n        /* \"ERC721A/ERC721A.sol\":16135:16142  tokenId */\n      dup6\n        /* \"ERC721A/ERC721A.sol\":16135:16146  tokenId + 1 */\n      add\n        /* \"ERC721A/ERC721A.sol\":16113:16146  uint256 nextTokenId = tokenId + 1 */\n      swap1\n      pop\n        /* \"ERC721A/ERC721A.sol\":16161:16192  TokenOwnership storage nextSlot */\n      0x00\n        /* \"ERC721A/ERC721A.sol\":16195:16206  _ownerships */\n      0x04\n        /* \"ERC721A/ERC721A.sol\":16195:16219  _ownerships[nextTokenId] */\n      0x00\n        /* \"ERC721A/ERC721A.sol\":16207:16218  nextTokenId */\n      dup4\n        /* \"ERC721A/ERC721A.sol\":16195:16219  _ownerships[nextTokenId] */\n      dup2\n      mstore\n      0x20\n      add\n      swap1\n      dup2\n      mstore\n      0x20\n      add\n      0x00\n      keccak256\n        /* \"ERC721A/ERC721A.sol\":16161:16219  TokenOwnership storage nextSlot = _ownerships[nextTokenId] */\n      swap1\n      pop\n        /* \"ERC721A/ERC721A.sol\":16263:16264  0 */\n      0x00\n        /* \"ERC721A/ERC721A.sol\":16238:16265  nextSlot.addr == address(0) */\n      0xffffffffffffffffffffffffffffffffffffffff\n      and\n        /* \"ERC721A/ERC721A.sol\":16238:16246  nextSlot */\n      dup2\n        /* \"ERC721A/ERC721A.sol\":16238:16251  nextSlot.addr */\n      0x00\n      add\n      0x00\n      swap1\n      sload\n      swap1\n      0x0100\n      exp\n      swap1\n      div\n      0xffffffffffffffffffffffffffffffffffffffff\n      and\n        /* \"ERC721A/ERC721A.sol\":16238:16265  nextSlot.addr == address(0) */\n      0xffffffffffffffffffffffffffffffffffffffff\n      and\n      sub\n        /* \"ERC721A/ERC721A.sol\":16234:16618  if (nextSlot.addr == address(0)) {... */\n      tag_188\n      jumpi\n        /* \"ERC721A/ERC721A.sol\":16448:16461  _currentIndex */\n      sload(0x00)\n        /* \"ERC721A/ERC721A.sol\":16433:16444  nextTokenId */\n      dup3\n        /* \"ERC721A/ERC721A.sol\":16433:16461  nextTokenId != _currentIndex */\n      eq\n        /* \"ERC721A/ERC721A.sol\":16429:16603  if (nextTokenId != _currentIndex) {... */\n      tag_189\n      jumpi\n        /* \"ERC721A/ERC721A.sol\":16502:16506  from */\n      dup8\n        /* \"ERC721A/ERC721A.sol\":16486:16494  nextSlot */\n      dup2\n        /* \"ERC721A/ERC721A.sol\":16486:16499  nextSlot.addr */\n      0x00\n      add\n      0x00\n        /* \"ERC721A/ERC721A.sol\":16486:16506  nextSlot.addr = from */\n      0x0100\n      exp\n      dup2\n      sload\n      dup2\n      0xffffffffffffffffffffffffffffffffffffffff\n      mul\n      not\n      and\n      swap1\n      dup4\n      0xffffffffffffffffffffffffffffffffffffffff\n      and\n      mul\n      or\n      swap1\n      sstore\n      pop\n        /* \"ERC721A/ERC721A.sol\":16555:16568  prevOwnership */\n      dup5\n        /* \"ERC721A/ERC721A.sol\":16555:16583  prevOwnership.startTimestamp */\n      0x20\n      add\n      mload\n        /* \"ERC721A/ERC721A.sol\":16529:16537  nextSlot */\n      dup2\n        /* \"ERC721A/ERC721A.sol\":16529:16552  nextSlot.startTimestamp */\n      0x00\n      add\n      0x14\n        /* \"ERC721A/ERC721A.sol\":16529:16583  nextSlot.startTimestamp = prevOwnership.startTimestamp */\n      0x0100\n      exp\n      dup2\n      sload\n      dup2\n      0xffffffffffffffff\n      mul\n      not\n      and\n      swap1\n      dup4\n      0xffffffffffffffff\n      and\n      mul\n      or\n      swap1\n      sstore\n      pop\n        /* \"ERC721A/ERC721A.sol\":16429:16603  if (nextTokenId != _currentIndex) {... */\n    tag_189:\n        /* \"ERC721A/ERC721A.sol\":16234:16618  if (nextSlot.addr == address(0)) {... */\n    tag_188:\n        /* \"ERC721A/ERC721A.sol\":15593:16629  unchecked {... */\n      pop\n      pop\n      pop\n        /* \"ERC721A/ERC721A.sol\":16665:16672  tokenId */\n      dup3\n        /* \"ERC721A/ERC721A.sol\":16661:16663  to */\n      dup5\n        /* \"ERC721A/ERC721A.sol\":16646:16673  Transfer(from, to, tokenId) */\n      0xffffffffffffffffffffffffffffffffffffffff\n      and\n        /* \"ERC721A/ERC721A.sol\":16655:16659  from */\n      dup7\n        /* \"ERC721A/ERC721A.sol\":16646:16673  Transfer(from, to, tokenId) */\n      0xffffffffffffffffffffffffffffffffffffffff\n      and\n      0xddf252ad1be2c89b69c2b068fc378daa952ba7f163c4a11628f55a4df523b3ef\n      mload(0x40)\n      mload(0x40)\n      dup1\n      swap2\n      sub\n      swap1\n      log4\n        /* \"ERC721A/ERC721A.sol\":16684:16726  _afterTokenTransfers(from, to, tokenId, 1) */\n      tag_190\n        /* \"ERC721A/ERC721A.sol\":16705:16709  from */\n      dup6\n        /* \"ERC721A/ERC721A.sol\":16711:16713  to */\n      dup6\n        /* \"ERC721A/ERC721A.sol\":16715:16722  tokenId */\n      dup6\n        /* \"ERC721A/ERC721A.sol\":16724:16725  1 */\n      0x01\n        /* \"ERC721A/ERC721A.sol\":16684:16704  _afterTokenTransfers */\n      tag_191\n        /* \"ERC721A/ERC721A.sol\":16684:16726  _afterTokenTransfers(from, to, tokenId, 1) */\n      jump\t// in\n    tag_190:\n        /* \"ERC721A/ERC721A.sol\":14708:16734  {... */\n      pop\n      pop\n        /* \"ERC721A/ERC721A.sol\":14604:16734  function _transfer(... */\n      pop\n      pop\n      pop\n      jump\t// out\n        /* \"@openzeppelin/contracts/utils/math/SafeMath.sol\":3122:3218  function sub(uint256 a, uint256 b) internal pure returns (uint256) {... */\n    tag_120:\n        /* \"@openzeppelin/contracts/utils/math/SafeMath.sol\":3180:3187  uint256 */\n      0x00\n        /* \"@openzeppelin/contracts/utils/math/SafeMath.sol\":3210:3211  b */\n      dup2\n        /* \"@openzeppelin/contracts/utils/math/SafeMath.sol\":3206:3207  a */\n      dup4\n        /* \"@openzeppelin/contracts/utils/math/SafeMath.sol\":3206:3211  a - b */\n      tag_193\n      swap2\n      swap1\n      tag_194\n      jump\t// in\n    tag_193:\n        /* \"@openzeppelin/contracts/utils/math/SafeMath.sol\":3199:3211  return a - b */\n      swap1\n      pop\n        /* \"@openzeppelin/contracts/utils/math/SafeMath.sol\":3122:3218  function sub(uint256 a, uint256 b) internal pure returns (uint256) {... */\n      swap3\n      swap2\n      pop\n      pop\n      jump\t// out\n        /* \"@openzeppelin/contracts/utils/math/SafeMath.sol\":3465:3561  function mul(uint256 a, uint256 b) internal pure returns (uint256) {... */\n    tag_123:\n        /* \"@openzeppelin/contracts/utils/math/SafeMath.sol\":3523:3530  uint256 */\n      0x00\n        /* \"@openzeppelin/contracts/utils/math/SafeMath.sol\":3553:3554  b */\n      dup2\n        /* \"@openzeppelin/contracts/utils/math/SafeMath.sol\":3549:3550  a */\n      dup4\n        /* \"@openzeppelin/contracts/utils/math/SafeMath.sol\":3549:3554  a * b */\n      tag_196\n      swap2\n      swap1\n      tag_197\n      jump\t// in\n    tag_196:\n        /* \"@openzeppelin/contracts/utils/math/SafeMath.sol\":3542:3554  return a * b */\n      swap1\n      pop\n        /* \"@openzeppelin/contracts/utils/math/SafeMath.sol\":3465:3561  function mul(uint256 a, uint256 b) internal pure returns (uint256) {... */\n      swap3\n      swap2\n      pop\n      pop\n      jump\t// out\n        /* \"@openzeppelin/contracts/utils/math/SafeMath.sol\":2755:2851  function add(uint256 a, uint256 b) internal pure returns (uint256) {... */\n    tag_125:\n        /* \"@openzeppelin/contracts/utils/math/SafeMath.sol\":2813:2820  uint256 */\n      0x00\n        /* \"@openzeppelin/contracts/utils/math/SafeMath.sol\":2843:2844  b */\n      dup2\n        /* \"@openzeppelin/contracts/utils/math/SafeMath.sol\":2839:2840  a */\n      dup4\n        /* \"@openzeppelin/contracts/utils/math/SafeMath.sol\":2839:2844  a + b */\n      tag_199\n      swap2\n      swap1\n      tag_200\n      jump\t// in\n    tag_199:\n        /* \"@openzeppelin/contracts/utils/math/SafeMath.sol\":2832:2844  return a + b */\n      swap1\n      pop\n        /* \"@openzeppelin/contracts/utils/math/SafeMath.sol\":2755:2851  function add(uint256 a, uint256 b) internal pure returns (uint256) {... */\n      swap3\n      swap2\n      pop\n      pop\n      jump\t// out\n        /* \"ERC721A/ERC721A.sol\":5497:6608  function _ownershipOf(uint256 tokenId) internal view returns (TokenOwnership memory) {... */\n    tag_130:\n        /* \"ERC721A/ERC721A.sol\":5559:5580  TokenOwnership memory */\n      tag_201\n      tag_202\n      jump\t// in\n    tag_201:\n        /* \"ERC721A/ERC721A.sol\":5593:5605  uint256 curr */\n      0x00\n        /* \"ERC721A/ERC721A.sol\":5608:5615  tokenId */\n      dup3\n        /* \"ERC721A/ERC721A.sol\":5593:5615  uint256 curr = tokenId */\n      swap1\n      pop\n        /* \"ERC721A/ERC721A.sol\":5676:5680  curr */\n      dup1\n        /* \"ERC721A/ERC721A.sol\":5657:5672  _startTokenId() */\n      tag_204\n        /* \"ERC721A/ERC721A.sol\":5657:5670  _startTokenId */\n      tag_114\n        /* \"ERC721A/ERC721A.sol\":5657:5672  _startTokenId() */\n      jump\t// in\n    tag_204:\n        /* \"ERC721A/ERC721A.sol\":5657:5680  _startTokenId() <= curr */\n      gt\n        /* \"ERC721A/ERC721A.sol\":5653:6541  if (_startTokenId() <= curr) if (curr < _currentIndex) {... */\n      tag_205\n      jumpi\n        /* \"ERC721A/ERC721A.sol\":5693:5706  _currentIndex */\n      sload(0x00)\n        /* \"ERC721A/ERC721A.sol\":5686:5690  curr */\n      dup2\n        /* \"ERC721A/ERC721A.sol\":5686:5706  curr < _currentIndex */\n      lt\n        /* \"ERC721A/ERC721A.sol\":5682:6541  if (curr < _currentIndex) {... */\n      iszero\n      tag_206\n      jumpi\n        /* \"ERC721A/ERC721A.sol\":5727:5758  TokenOwnership memory ownership */\n      0x00\n        /* \"ERC721A/ERC721A.sol\":5761:5772  _ownerships */\n      0x04\n        /* \"ERC721A/ERC721A.sol\":5761:5778  _ownerships[curr] */\n      0x00\n        /* \"ERC721A/ERC721A.sol\":5773:5777  curr */\n      dup4\n        /* \"ERC721A/ERC721A.sol\":5761:5778  _ownerships[curr] */\n      dup2\n      mstore\n      0x20\n      add\n      swap1\n      dup2\n      mstore\n      0x20\n      add\n      0x00\n      keccak256\n        /* \"ERC721A/ERC721A.sol\":5727:5778  TokenOwnership memory ownership = _ownerships[curr] */\n      mload(0x40)\n      dup1\n      0x60\n      add\n      0x40\n      mstore\n      swap1\n      dup2\n      0x00\n      dup3\n      add\n      0x00\n      swap1\n      sload\n      swap1\n      0x0100\n      exp\n      swap1\n      div\n      0xffffffffffffffffffffffffffffffffffffffff\n      and\n      0xffffffffffffffffffffffffffffffffffffffff\n      and\n      0xffffffffffffffffffffffffffffffffffffffff\n      and\n      dup2\n      mstore\n      0x20\n      add\n      0x00\n      dup3\n      add\n      0x14\n      swap1\n      sload\n      swap1\n      0x0100\n      exp\n      swap1\n      div\n      0xffffffffffffffff\n      and\n      0xffffffffffffffff\n      and\n      0xffffffffffffffff\n      and\n      dup2\n      mstore\n      0x20\n      add\n      0x00\n      dup3\n      add\n      0x1c\n      swap1\n      sload\n      swap1\n      0x0100\n      exp\n      swap1\n      div\n      0xff\n      and\n      iszero\n      iszero\n      iszero\n      iszero\n      dup2\n      mstore\n      pop\n      pop\n      swap1\n      pop\n        /* \"ERC721A/ERC721A.sol\":5802:5811  ownership */\n      dup1\n        /* \"ERC721A/ERC721A.sol\":5802:5818  ownership.burned */\n      0x40\n      add\n      mload\n        /* \"ERC721A/ERC721A.sol\":5797:6526  if (!ownership.burned) {... */\n      tag_207\n      jumpi\n        /* \"ERC721A/ERC721A.sol\":5873:5874  0 */\n      0x00\n        /* \"ERC721A/ERC721A.sol\":5847:5875  ownership.addr != address(0) */\n      0xffffffffffffffffffffffffffffffffffffffff\n      and\n        /* \"ERC721A/ERC721A.sol\":5847:5856  ownership */\n      dup2\n        /* \"ERC721A/ERC721A.sol\":5847:5861  ownership.addr */\n      0x00\n      add\n      mload\n        /* \"ERC721A/ERC721A.sol\":5847:5875  ownership.addr != address(0) */\n      0xffffffffffffffffffffffffffffffffffffffff\n      and\n      eq\n        /* \"ERC721A/ERC721A.sol\":5843:5944  if (ownership.addr != address(0)) {... */\n      tag_208\n      jumpi\n        /* \"ERC721A/ERC721A.sol\":5911:5920  ownership */\n      dup1\n        /* \"ERC721A/ERC721A.sol\":5904:5920  return ownership */\n      swap3\n      pop\n      pop\n      pop\n      jump(tag_203)\n        /* \"ERC721A/ERC721A.sol\":5843:5944  if (ownership.addr != address(0)) {... */\n    tag_208:\n        /* \"ERC721A/ERC721A.sol\":6246:6507  while (true) {... */\n    tag_209:\n        /* \"ERC721A/ERC721A.sol\":6253:6257  true */\n      0x01\n        /* \"ERC721A/ERC721A.sol\":6246:6507  while (true) {... */\n      iszero\n      tag_210\n      jumpi\n        /* \"ERC721A/ERC721A.sol\":6286:6292  curr-- */\n      dup2\n      dup1\n      0x01\n      swap1\n      sub\n      swap3\n      pop\n      pop\n        /* \"ERC721A/ERC721A.sol\":6331:6342  _ownerships */\n      0x04\n        /* \"ERC721A/ERC721A.sol\":6331:6348  _ownerships[curr] */\n      0x00\n        /* \"ERC721A/ERC721A.sol\":6343:6347  curr */\n      dup4\n        /* \"ERC721A/ERC721A.sol\":6331:6348  _ownerships[curr] */\n      dup2\n      mstore\n      0x20\n      add\n      swap1\n      dup2\n      mstore\n      0x20\n      add\n      0x00\n      keccak256\n        /* \"ERC721A/ERC721A.sol\":6319:6348  ownership = _ownerships[curr] */\n      mload(0x40)\n      dup1\n      0x60\n      add\n      0x40\n      mstore\n      swap1\n      dup2\n      0x00\n      dup3\n      add\n      0x00\n      swap1\n      sload\n      swap1\n      0x0100\n      exp\n      swap1\n      div\n      0xffffffffffffffffffffffffffffffffffffffff\n      and\n      0xffffffffffffffffffffffffffffffffffffffff\n      and\n      0xffffffffffffffffffffffffffffffffffffffff\n      and\n      dup2\n      mstore\n      0x20\n      add\n      0x00\n      dup3\n      add\n      0x14\n      swap1\n      sload\n      swap1\n      0x0100\n      exp\n      swap1\n      div\n      0xffffffffffffffff\n      and\n      0xffffffffffffffff\n      and\n      0xffffffffffffffff\n      and\n      dup2\n      mstore\n      0x20\n      add\n      0x00\n      dup3\n      add\n      0x1c\n      swap1\n      sload\n      swap1\n      0x0100\n      exp\n      swap1\n      div\n      0xff\n      and\n      iszero\n      iszero\n      iszero\n      iszero\n      dup2\n      mstore\n      pop\n      pop\n      swap1\n      pop\n        /* \"ERC721A/ERC721A.sol\":6405:6406  0 */\n      0x00\n        /* \"ERC721A/ERC721A.sol\":6379:6407  ownership.addr != address(0) */\n      0xffffffffffffffffffffffffffffffffffffffff\n      and\n        /* \"ERC721A/ERC721A.sol\":6379:6388  ownership */\n      dup2\n        /* \"ERC721A/ERC721A.sol\":6379:6393  ownership.addr */\n      0x00\n      add\n      mload\n        /* \"ERC721A/ERC721A.sol\":6379:6407  ownership.addr != address(0) */\n      0xffffffffffffffffffffffffffffffffffffffff\n      and\n      eq\n        /* \"ERC721A/ERC721A.sol\":6375:6484  if (ownership.addr != address(0)) {... */\n      tag_211\n      jumpi\n        /* \"ERC721A/ERC721A.sol\":6447:6456  ownership */\n      dup1\n        /* \"ERC721A/ERC721A.sol\":6440:6456  return ownership */\n      swap3\n      pop\n      pop\n      pop\n      jump(tag_203)\n        /* \"ERC721A/ERC721A.sol\":6375:6484  if (ownership.addr != address(0)) {... */\n    tag_211:\n        /* \"ERC721A/ERC721A.sol\":6246:6507  while (true) {... */\n      jump(tag_209)\n    tag_210:\n        /* \"ERC721A/ERC721A.sol\":5797:6526  if (!ownership.burned) {... */\n    tag_207:\n        /* \"ERC721A/ERC721A.sol\":5708:6541  {... */\n      pop\n        /* \"ERC721A/ERC721A.sol\":5682:6541  if (curr < _currentIndex) {... */\n    tag_206:\n        /* \"ERC721A/ERC721A.sol\":5653:6541  if (_startTokenId() <= curr) if (curr < _currentIndex) {... */\n    tag_205:\n        /* \"ERC721A/ERC721A.sol\":6569:6600  OwnerQueryForNonexistentToken() */\n      mload(0x40)\n      0xdf2d9b4200000000000000000000000000000000000000000000000000000000\n      dup2\n      mstore\n      0x04\n      add\n      mload(0x40)\n      dup1\n      swap2\n      sub\n      swap1\n      revert\n        /* \"ERC721A/ERC721A.sol\":5497:6608  function _ownershipOf(uint256 tokenId) internal view returns (TokenOwnership memory) {... */\n    tag_203:\n      swap2\n      swap1\n      pop\n      jump\t// out\n        /* \"@openzeppelin/contracts/utils/Address.sol\":1175:1495  function isContract(address account) internal view returns (bool) {... */\n    tag_148:\n        /* \"@openzeppelin/contracts/utils/Address.sol\":1235:1239  bool */\n      0x00\n        /* \"@openzeppelin/contracts/utils/Address.sol\":1487:1488  0 */\n      dup1\n        /* \"@openzeppelin/contracts/utils/Address.sol\":1465:1472  account */\n      dup3\n        /* \"@openzeppelin/contracts/utils/Address.sol\":1465:1484  account.code.length */\n      0xffffffffffffffffffffffffffffffffffffffff\n      and\n      extcodesize\n        /* \"@openzeppelin/contracts/utils/Address.sol\":1465:1488  account.code.length > 0 */\n      gt\n        /* \"@openzeppelin/contracts/utils/Address.sol\":1458:1488  return account.code.length > 0 */\n      swap1\n      pop\n        /* \"@openzeppelin/contracts/utils/Address.sol\":1175:1495  function isContract(address account) internal view returns (bool) {... */\n      swap2\n      swap1\n      pop\n      jump\t// out\n        /* \"ERC721A/ERC721A.sol\":20344:21011  function _checkContractOnERC721Received(... */\n    tag_151:\n        /* \"ERC721A/ERC721A.sol\":20507:20511  bool */\n      0x00\n        /* \"ERC721A/ERC721A.sol\":20544:20546  to */\n      dup4\n        /* \"ERC721A/ERC721A.sol\":20528:20564  IERC721Receiver(to).onERC721Received */\n      0xffffffffffffffffffffffffffffffffffffffff\n      and\n      0x150b7a02\n        /* \"ERC721A/ERC721A.sol\":20565:20577  _msgSender() */\n      tag_214\n        /* \"ERC721A/ERC721A.sol\":20565:20575  _msgSender */\n      tag_105\n        /* \"ERC721A/ERC721A.sol\":20565:20577  _msgSender() */\n      jump\t// in\n    tag_214:\n        /* \"ERC721A/ERC721A.sol\":20579:20583  from */\n      dup8\n        /* \"ERC721A/ERC721A.sol\":20585:20592  tokenId */\n      dup7\n        /* \"ERC721A/ERC721A.sol\":20594:20599  _data */\n      dup7\n        /* \"ERC721A/ERC721A.sol\":20528:20600  IERC721Receiver(to).onERC721Received(_msgSender(), from, tokenId, _data) */\n      mload(0x40)\n      dup6\n      0xffffffff\n      and\n      0xe0\n      shl\n      dup2\n      mstore\n      0x04\n      add\n      tag_215\n      swap5\n      swap4\n      swap3\n      swap2\n      swap1\n      tag_216\n      jump\t// in\n    tag_215:\n      0x20\n      mload(0x40)\n      dup1\n      dup4\n      sub\n      dup2\n      0x00\n      dup8\n      gas\n      call\n      swap3\n      pop\n      pop\n      pop\n      dup1\n      iszero\n      tag_217\n      jumpi\n      pop\n      mload(0x40)\n      returndatasize\n      not(0x1f)\n      0x1f\n      dup3\n      add\n      and\n      dup3\n      add\n      dup1\n      0x40\n      mstore\n      pop\n      dup2\n      add\n      swap1\n      tag_218\n      swap2\n      swap1\n      tag_219\n      jump\t// in\n    tag_218:\n      0x01\n    tag_217:\n        /* \"ERC721A/ERC721A.sol\":20524:21004  try IERC721Receiver(to).onERC721Received(_msgSender(), from, tokenId, _data) returns (bytes4 retval) {... */\n      tag_220\n      jumpi\n      returndatasize\n      dup1\n      0x00\n      dup2\n      eq\n      tag_225\n      jumpi\n      mload(0x40)\n      swap2\n      pop\n      and(add(returndatasize, 0x3f), not(0x1f))\n      dup3\n      add\n      0x40\n      mstore\n      returndatasize\n      dup3\n      mstore\n      returndatasize\n      0x00\n      0x20\n      dup5\n      add\n      returndatacopy\n      jump(tag_224)\n    tag_225:\n      0x60\n      swap2\n      pop\n    tag_224:\n      pop\n        /* \"ERC721A/ERC721A.sol\":20779:20780  0 */\n      0x00\n        /* \"ERC721A/ERC721A.sol\":20762:20768  reason */\n      dup2\n        /* \"ERC721A/ERC721A.sol\":20762:20775  reason.length */\n      mload\n        /* \"ERC721A/ERC721A.sol\":20762:20780  reason.length == 0 */\n      sub\n        /* \"ERC721A/ERC721A.sol\":20758:20993  if (reason.length == 0) {... */\n      tag_226\n      jumpi\n        /* \"ERC721A/ERC721A.sol\":20808:20848  TransferToNonERC721ReceiverImplementer() */\n      mload(0x40)\n      0xd1a57ed600000000000000000000000000000000000000000000000000000000\n      dup2\n      mstore\n      0x04\n      add\n      mload(0x40)\n      dup1\n      swap2\n      sub\n      swap1\n      revert\n        /* \"ERC721A/ERC721A.sol\":20758:20993  if (reason.length == 0) {... */\n    tag_226:\n        /* \"ERC721A/ERC721A.sol\":20951:20957  reason */\n      dup1\n        /* \"ERC721A/ERC721A.sol\":20945:20958  mload(reason) */\n      mload\n        /* \"ERC721A/ERC721A.sol\":20936:20942  reason */\n      dup2\n        /* \"ERC721A/ERC721A.sol\":20932:20934  32 */\n      0x20\n        /* \"ERC721A/ERC721A.sol\":20928:20943  add(32, reason) */\n      add\n        /* \"ERC721A/ERC721A.sol\":20921:20959  revert(add(32, reason), mload(reason)) */\n      revert\n        /* \"ERC721A/ERC721A.sol\":20524:21004  try IERC721Receiver(to).onERC721Received(_msgSender(), from, tokenId, _data) returns (bytes4 retval) {... */\n    tag_220:\n        /* \"ERC721A/ERC721A.sol\":20657:20702  IERC721Receiver(to).onERC721Received.selector */\n      shl(0xe0, 0x150b7a02)\n        /* \"ERC721A/ERC721A.sol\":20647:20702  retval == IERC721Receiver(to).onERC721Received.selector */\n      not(0xffffffffffffffffffffffffffffffffffffffffffffffffffffffff)\n      and\n        /* \"ERC721A/ERC721A.sol\":20647:20653  retval */\n      dup2\n        /* \"ERC721A/ERC721A.sol\":20647:20702  retval == IERC721Receiver(to).onERC721Received.selector */\n      not(0xffffffffffffffffffffffffffffffffffffffffffffffffffffffff)\n      and\n      eq\n        /* \"ERC721A/ERC721A.sol\":20640:20702  return retval == IERC721Receiver(to).onERC721Received.selector */\n      swap2\n      pop\n      pop\n        /* \"ERC721A/ERC721A.sol\":20344:21011  function _checkContractOnERC721Received(... */\n      swap5\n      swap4\n      pop\n      pop\n      pop\n      pop\n      jump\t// out\n        /* \"ERC721A/ERC721A.sol\":7772:7947  function _baseURI() internal view virtual returns (string memory) {... */\n    tag_157:\n        /* \"ERC721A/ERC721A.sol\":7823:7836  string memory */\n      0x60\n        /* \"ERC721A/ERC721A.sol\":7849:7939  return 'https://gateway.pinata.cloud/ipfs/QmfHWktTbSTBNLww8ZDh2qc5DKqiZciknoq76ZfXrsoR1v/' */\n      mload(0x40)\n      dup1\n      0x80\n      add\n      0x40\n      mstore\n      dup1\n      0x51\n      dup2\n      mstore\n      0x20\n      add\n      data_d8bb5093925f17312ccd69c1ad4eefb61d29f5f451bdf501cef244662be1efab\n      0x51\n      swap2\n      codecopy\n      swap1\n      pop\n        /* \"ERC721A/ERC721A.sol\":7772:7947  function _baseURI() internal view virtual returns (string memory) {... */\n      swap1\n      jump\t// out\n        /* \"@openzeppelin/contracts/utils/Strings.sol\":328:1031  function toString(uint256 value) internal pure returns (string memory) {... */\n    tag_161:\n        /* \"@openzeppelin/contracts/utils/Strings.sol\":384:397  string memory */\n      0x60\n        /* \"@openzeppelin/contracts/utils/Strings.sol\":610:611  0 */\n      0x00\n        /* \"@openzeppelin/contracts/utils/Strings.sol\":601:606  value */\n      dup3\n        /* \"@openzeppelin/contracts/utils/Strings.sol\":601:611  value == 0 */\n      sub\n        /* \"@openzeppelin/contracts/utils/Strings.sol\":597:648  if (value == 0) {... */\n      tag_231\n      jumpi\n        /* \"@openzeppelin/contracts/utils/Strings.sol\":627:637  return \"0\" */\n      mload(0x40)\n      dup1\n      0x40\n      add\n      0x40\n      mstore\n      dup1\n      0x01\n      dup2\n      mstore\n      0x20\n      add\n      0x3000000000000000000000000000000000000000000000000000000000000000\n      dup2\n      mstore\n      pop\n      swap1\n      pop\n      jump(tag_230)\n        /* \"@openzeppelin/contracts/utils/Strings.sol\":597:648  if (value == 0) {... */\n    tag_231:\n        /* \"@openzeppelin/contracts/utils/Strings.sol\":657:669  uint256 temp */\n      0x00\n        /* \"@openzeppelin/contracts/utils/Strings.sol\":672:677  value */\n      dup3\n        /* \"@openzeppelin/contracts/utils/Strings.sol\":657:677  uint256 temp = value */\n      swap1\n      pop\n        /* \"@openzeppelin/contracts/utils/Strings.sol\":687:701  uint256 digits */\n      0x00\n        /* \"@openzeppelin/contracts/utils/Strings.sol\":711:786  while (temp != 0) {... */\n    tag_232:\n        /* \"@openzeppelin/contracts/utils/Strings.sol\":726:727  0 */\n      0x00\n        /* \"@openzeppelin/contracts/utils/Strings.sol\":718:722  temp */\n      dup3\n        /* \"@openzeppelin/contracts/utils/Strings.sol\":718:727  temp != 0 */\n      eq\n        /* \"@openzeppelin/contracts/utils/Strings.sol\":711:786  while (temp != 0) {... */\n      tag_233\n      jumpi\n        /* \"@openzeppelin/contracts/utils/Strings.sol\":743:751  digits++ */\n      dup1\n      dup1\n      tag_234\n      swap1\n      tag_235\n      jump\t// in\n    tag_234:\n      swap2\n      pop\n      pop\n        /* \"@openzeppelin/contracts/utils/Strings.sol\":773:775  10 */\n      0x0a\n        /* \"@openzeppelin/contracts/utils/Strings.sol\":765:775  temp /= 10 */\n      dup3\n      tag_236\n      swap2\n      swap1\n      tag_237\n      jump\t// in\n    tag_236:\n      swap2\n      pop\n        /* \"@openzeppelin/contracts/utils/Strings.sol\":711:786  while (temp != 0) {... */\n      jump(tag_232)\n    tag_233:\n        /* \"@openzeppelin/contracts/utils/Strings.sol\":795:814  bytes memory buffer */\n      0x00\n        /* \"@openzeppelin/contracts/utils/Strings.sol\":827:833  digits */\n      dup2\n        /* \"@openzeppelin/contracts/utils/Strings.sol\":817:834  new bytes(digits) */\n      0xffffffffffffffff\n      dup2\n      gt\n      iszero\n      tag_238\n      jumpi\n      tag_239\n      tag_240\n      jump\t// in\n    tag_239:\n    tag_238:\n      mload(0x40)\n      swap1\n      dup1\n      dup3\n      mstore\n      dup1\n      0x1f\n      add\n      not(0x1f)\n      and\n      0x20\n      add\n      dup3\n      add\n      0x40\n      mstore\n      dup1\n      iszero\n      tag_241\n      jumpi\n      dup2\n      0x20\n      add\n      0x01\n      dup3\n      mul\n      dup1\n      calldatasize\n      dup4\n      calldatacopy\n      dup1\n      dup3\n      add\n      swap2\n      pop\n      pop\n      swap1\n      pop\n    tag_241:\n      pop\n        /* \"@openzeppelin/contracts/utils/Strings.sol\":795:834  bytes memory buffer = new bytes(digits) */\n      swap1\n      pop\n        /* \"@openzeppelin/contracts/utils/Strings.sol\":844:994  while (value != 0) {... */\n    tag_242:\n        /* \"@openzeppelin/contracts/utils/Strings.sol\":860:861  0 */\n      0x00\n        /* \"@openzeppelin/contracts/utils/Strings.sol\":851:856  value */\n      dup6\n        /* \"@openzeppelin/contracts/utils/Strings.sol\":851:861  value != 0 */\n      eq\n        /* \"@openzeppelin/contracts/utils/Strings.sol\":844:994  while (value != 0) {... */\n      tag_243\n      jumpi\n        /* \"@openzeppelin/contracts/utils/Strings.sol\":887:888  1 */\n      0x01\n        /* \"@openzeppelin/contracts/utils/Strings.sol\":877:888  digits -= 1 */\n      dup3\n      tag_244\n      swap2\n      swap1\n      tag_194\n      jump\t// in\n    tag_244:\n      swap2\n      pop\n        /* \"@openzeppelin/contracts/utils/Strings.sol\":953:955  10 */\n      0x0a\n        /* \"@openzeppelin/contracts/utils/Strings.sol\":945:950  value */\n      dup6\n        /* \"@openzeppelin/contracts/utils/Strings.sol\":945:955  value % 10 */\n      tag_245\n      swap2\n      swap1\n      tag_246\n      jump\t// in\n    tag_245:\n        /* \"@openzeppelin/contracts/utils/Strings.sol\":932:934  48 */\n      0x30\n        /* \"@openzeppelin/contracts/utils/Strings.sol\":932:956  48 + uint256(value % 10) */\n      tag_247\n      swap2\n      swap1\n      tag_200\n      jump\t// in\n    tag_247:\n        /* \"@openzeppelin/contracts/utils/Strings.sol\":919:958  bytes1(uint8(48 + uint256(value % 10))) */\n      0xf8\n      shl\n        /* \"@openzeppelin/contracts/utils/Strings.sol\":902:908  buffer */\n      dup2\n        /* \"@openzeppelin/contracts/utils/Strings.sol\":909:915  digits */\n      dup4\n        /* \"@openzeppelin/contracts/utils/Strings.sol\":902:916  buffer[digits] */\n      dup2\n      mload\n      dup2\n      lt\n      tag_248\n      jumpi\n      tag_249\n      tag_250\n      jump\t// in\n    tag_249:\n    tag_248:\n      0x20\n      add\n      add\n        /* \"@openzeppelin/contracts/utils/Strings.sol\":902:958  buffer[digits] = bytes1(uint8(48 + uint256(value % 10))) */\n      swap1\n      not(0xffffffffffffffffffffffffffffffffffffffffffffffffffffffffffffff)\n      and\n      swap1\n      dup2\n      0x00\n      byte\n      swap1\n      mstore8\n      pop\n        /* \"@openzeppelin/contracts/utils/Strings.sol\":981:983  10 */\n      0x0a\n        /* \"@openzeppelin/contracts/utils/Strings.sol\":972:983  value /= 10 */\n      dup6\n      tag_251\n      swap2\n      swap1\n      tag_237\n      jump\t// in\n    tag_251:\n      swap5\n      pop\n        /* \"@openzeppelin/contracts/utils/Strings.sol\":844:994  while (value != 0) {... */\n      jump(tag_242)\n    tag_243:\n        /* \"@openzeppelin/contracts/utils/Strings.sol\":1017:1023  buffer */\n      dup1\n        /* \"@openzeppelin/contracts/utils/Strings.sol\":1003:1024  return string(buffer) */\n      swap4\n      pop\n      pop\n      pop\n      pop\n        /* \"@openzeppelin/contracts/utils/Strings.sol\":328:1031  function toString(uint256 value) internal pure returns (string memory) {... */\n    tag_230:\n      swap2\n      swap1\n      pop\n      jump\t// out\n        /* \"ERC721A/ERC721A.sol\":21659:21818  function _beforeTokenTransfers(... */\n    tag_186:\n      pop\n      pop\n      pop\n      pop\n      jump\t// out\n        /* \"ERC721A/ERC721A.sol\":22477:22635  function _afterTokenTransfers(... */\n    tag_191:\n      pop\n      pop\n      pop\n      pop\n      jump\t// out\n    tag_202:\n      mload(0x40)\n      dup1\n      0x60\n      add\n      0x40\n      mstore\n      dup1\n      and(0xffffffffffffffffffffffffffffffffffffffff, 0x00)\n      dup2\n      mstore\n      0x20\n      add\n      and(0xffffffffffffffff, 0x00)\n      dup2\n      mstore\n      0x20\n      add\n      iszero(iszero(0x00))\n      dup2\n      mstore\n      pop\n      swap1\n      jump\t// out\n        /* \"#utility.yul\":7:82   */\n    tag_254:\n        /* \"#utility.yul\":40:46   */\n      0x00\n        /* \"#utility.yul\":73:75   */\n      0x40\n        /* \"#utility.yul\":67:76   */\n      mload\n        /* \"#utility.yul\":57:76   */\n      swap1\n      pop\n        /* \"#utility.yul\":7:82   */\n      swap1\n      jump\t// out\n        /* \"#utility.yul\":88:205   */\n    tag_255:\n        /* \"#utility.yul\":197:198   */\n      0x00\n        /* \"#utility.yul\":194:195   */\n      dup1\n        /* \"#utility.yul\":187:199   */\n      revert\n        /* \"#utility.yul\":211:328   */\n    tag_256:\n        /* \"#utility.yul\":320:321   */\n      0x00\n        /* \"#utility.yul\":317:318   */\n      dup1\n        /* \"#utility.yul\":310:322   */\n      revert\n        /* \"#utility.yul\":334:483   */\n    tag_257:\n        /* \"#utility.yul\":370:377   */\n      0x00\n        /* \"#utility.yul\":410:476   */\n      0xffffffff00000000000000000000000000000000000000000000000000000000\n        /* \"#utility.yul\":403:408   */\n      dup3\n        /* \"#utility.yul\":399:477   */\n      and\n        /* \"#utility.yul\":388:477   */\n      swap1\n      pop\n        /* \"#utility.yul\":334:483   */\n      swap2\n      swap1\n      pop\n      jump\t// out\n        /* \"#utility.yul\":489:609   */\n    tag_258:\n        /* \"#utility.yul\":561:584   */\n      tag_301\n        /* \"#utility.yul\":578:583   */\n      dup2\n        /* \"#utility.yul\":561:584   */\n      tag_257\n      jump\t// in\n    tag_301:\n        /* \"#utility.yul\":554:559   */\n      dup2\n        /* \"#utility.yul\":551:585   */\n      eq\n        /* \"#utility.yul\":541:603   */\n      tag_302\n      jumpi\n        /* \"#utility.yul\":599:600   */\n      0x00\n        /* \"#utility.yul\":596:597   */\n      dup1\n        /* \"#utility.yul\":589:601   */\n      revert\n        /* \"#utility.yul\":541:603   */\n    tag_302:\n        /* \"#utility.yul\":489:609   */\n      pop\n      jump\t// out\n        /* \"#utility.yul\":615:752   */\n    tag_259:\n        /* \"#utility.yul\":660:665   */\n      0x00\n        /* \"#utility.yul\":698:704   */\n      dup2\n        /* \"#utility.yul\":685:705   */\n      calldataload\n        /* \"#utility.yul\":676:705   */\n      swap1\n      pop\n        /* \"#utility.yul\":714:746   */\n      tag_304\n        /* \"#utility.yul\":740:745   */\n      dup2\n        /* \"#utility.yul\":714:746   */\n      tag_258\n      jump\t// in\n    tag_304:\n        /* \"#utility.yul\":615:752   */\n      swap3\n      swap2\n      pop\n      pop\n      jump\t// out\n        /* \"#utility.yul\":758:1085   */\n    tag_23:\n        /* \"#utility.yul\":816:822   */\n      0x00\n        /* \"#utility.yul\":865:867   */\n      0x20\n        /* \"#utility.yul\":853:862   */\n      dup3\n        /* \"#utility.yul\":844:851   */\n      dup5\n        /* \"#utility.yul\":840:863   */\n      sub\n        /* \"#utility.yul\":836:868   */\n      slt\n        /* \"#utility.yul\":833:952   */\n      iszero\n      tag_306\n      jumpi\n        /* \"#utility.yul\":871:950   */\n      tag_307\n      tag_255\n      jump\t// in\n    tag_307:\n        /* \"#utility.yul\":833:952   */\n    tag_306:\n        /* \"#utility.yul\":991:992   */\n      0x00\n        /* \"#utility.yul\":1016:1068   */\n      tag_308\n        /* \"#utility.yul\":1060:1067   */\n      dup5\n        /* \"#utility.yul\":1051:1057   */\n      dup3\n        /* \"#utility.yul\":1040:1049   */\n      dup6\n        /* \"#utility.yul\":1036:1058   */\n      add\n        /* \"#utility.yul\":1016:1068   */\n      tag_259\n      jump\t// in\n    tag_308:\n        /* \"#utility.yul\":1006:1068   */\n      swap2\n      pop\n        /* \"#utility.yul\":962:1078   */\n      pop\n        /* \"#utility.yul\":758:1085   */\n      swap3\n      swap2\n      pop\n      pop\n      jump\t// out\n        /* \"#utility.yul\":1091:1181   */\n    tag_260:\n        /* \"#utility.yul\":1125:1132   */\n      0x00\n        /* \"#utility.yul\":1168:1173   */\n      dup2\n        /* \"#utility.yul\":1161:1174   */\n      iszero\n        /* \"#utility.yul\":1154:1175   */\n      iszero\n        /* \"#utility.yul\":1143:1175   */\n      swap1\n      pop\n        /* \"#utility.yul\":1091:1181   */\n      swap2\n      swap1\n      pop\n      jump\t// out\n        /* \"#utility.yul\":1187:1296   */\n    tag_261:\n        /* \"#utility.yul\":1268:1289   */\n      tag_311\n        /* \"#utility.yul\":1283:1288   */\n      dup2\n        /* \"#utility.yul\":1268:1289   */\n      tag_260\n      jump\t// in\n    tag_311:\n        /* \"#utility.yul\":1263:1266   */\n      dup3\n        /* \"#utility.yul\":1256:1290   */\n      mstore\n        /* \"#utility.yul\":1187:1296   */\n      pop\n      pop\n      jump\t// out\n        /* \"#utility.yul\":1302:1512   */\n    tag_26:\n        /* \"#utility.yul\":1389:1393   */\n      0x00\n        /* \"#utility.yul\":1427:1429   */\n      0x20\n        /* \"#utility.yul\":1416:1425   */\n      dup3\n        /* \"#utility.yul\":1412:1430   */\n      add\n        /* \"#utility.yul\":1404:1430   */\n      swap1\n      pop\n        /* \"#utility.yul\":1440:1505   */\n      tag_313\n        /* \"#utility.yul\":1502:1503   */\n      0x00\n        /* \"#utility.yul\":1491:1500   */\n      dup4\n        /* \"#utility.yul\":1487:1504   */\n      add\n        /* \"#utility.yul\":1478:1484   */\n      dup5\n        /* \"#utility.yul\":1440:1505   */\n      tag_261\n      jump\t// in\n    tag_313:\n        /* \"#utility.yul\":1302:1512   */\n      swap3\n      swap2\n      pop\n      pop\n      jump\t// out\n        /* \"#utility.yul\":1518:1617   */\n    tag_262:\n        /* \"#utility.yul\":1570:1576   */\n      0x00\n        /* \"#utility.yul\":1604:1609   */\n      dup2\n        /* \"#utility.yul\":1598:1610   */\n      mload\n        /* \"#utility.yul\":1588:1610   */\n      swap1\n      pop\n        /* \"#utility.yul\":1518:1617   */\n      swap2\n      swap1\n      pop\n      jump\t// out\n        /* \"#utility.yul\":1623:1792   */\n    tag_263:\n        /* \"#utility.yul\":1707:1718   */\n      0x00\n        /* \"#utility.yul\":1741:1747   */\n      dup3\n        /* \"#utility.yul\":1736:1739   */\n      dup3\n        /* \"#utility.yul\":1729:1748   */\n      mstore\n        /* \"#utility.yul\":1781:1785   */\n      0x20\n        /* \"#utility.yul\":1776:1779   */\n      dup3\n        /* \"#utility.yul\":1772:1786   */\n      add\n        /* \"#utility.yul\":1757:1786   */\n      swap1\n      pop\n        /* \"#utility.yul\":1623:1792   */\n      swap3\n      swap2\n      pop\n      pop\n      jump\t// out\n        /* \"#utility.yul\":1798:2105   */\n    tag_264:\n        /* \"#utility.yul\":1866:1867   */\n      0x00\n        /* \"#utility.yul\":1876:1989   */\n    tag_317:\n        /* \"#utility.yul\":1890:1896   */\n      dup4\n        /* \"#utility.yul\":1887:1888   */\n      dup2\n        /* \"#utility.yul\":1884:1897   */\n      lt\n        /* \"#utility.yul\":1876:1989   */\n      iszero\n      tag_319\n      jumpi\n        /* \"#utility.yul\":1975:1976   */\n      dup1\n        /* \"#utility.yul\":1970:1973   */\n      dup3\n        /* \"#utility.yul\":1966:1977   */\n      add\n        /* \"#utility.yul\":1960:1978   */\n      mload\n        /* \"#utility.yul\":1956:1957   */\n      dup2\n        /* \"#utility.yul\":1951:1954   */\n      dup5\n        /* \"#utility.yul\":1947:1958   */\n      add\n        /* \"#utility.yul\":1940:1979   */\n      mstore\n        /* \"#utility.yul\":1912:1914   */\n      0x20\n        /* \"#utility.yul\":1909:1910   */\n      dup2\n        /* \"#utility.yul\":1905:1915   */\n      add\n        /* \"#utility.yul\":1900:1915   */\n      swap1\n      pop\n        /* \"#utility.yul\":1876:1989   */\n      jump(tag_317)\n    tag_319:\n        /* \"#utility.yul\":2007:2013   */\n      dup4\n        /* \"#utility.yul\":2004:2005   */\n      dup2\n        /* \"#utility.yul\":2001:2014   */\n      gt\n        /* \"#utility.yul\":1998:2099   */\n      iszero\n      tag_320\n      jumpi\n        /* \"#utility.yul\":2087:2088   */\n      0x00\n        /* \"#utility.yul\":2078:2084   */\n      dup5\n        /* \"#utility.yul\":2073:2076   */\n      dup5\n        /* \"#utility.yul\":2069:2085   */\n      add\n        /* \"#utility.yul\":2062:2089   */\n      mstore\n        /* \"#utility.yul\":1998:2099   */\n    tag_320:\n        /* \"#utility.yul\":1847:2105   */\n      pop\n        /* \"#utility.yul\":1798:2105   */\n      pop\n      pop\n      pop\n      jump\t// out\n        /* \"#utility.yul\":2111:2213   */\n    tag_265:\n        /* \"#utility.yul\":2152:2158   */\n      0x00\n        /* \"#utility.yul\":2203:2205   */\n      0x1f\n        /* \"#utility.yul\":2199:2206   */\n      not\n        /* \"#utility.yul\":2194:2196   */\n      0x1f\n        /* \"#utility.yul\":2187:2192   */\n      dup4\n        /* \"#utility.yul\":2183:2197   */\n      add\n        /* \"#utility.yul\":2179:2207   */\n      and\n        /* \"#utility.yul\":2169:2207   */\n      swap1\n      pop\n        /* \"#utility.yul\":2111:2213   */\n      swap2\n      swap1\n      pop\n      jump\t// out\n        /* \"#utility.yul\":2219:2583   */\n    tag_266:\n        /* \"#utility.yul\":2307:2310   */\n      0x00\n        /* \"#utility.yul\":2335:2374   */\n      tag_323\n        /* \"#utility.yul\":2368:2373   */\n      dup3\n        /* \"#utility.yul\":2335:2374   */\n      tag_262\n      jump\t// in\n    tag_323:\n        /* \"#utility.yul\":2390:2461   */\n      tag_324\n        /* \"#utility.yul\":2454:2460   */\n      dup2\n        /* \"#utility.yul\":2449:2452   */\n      dup6\n        /* \"#utility.yul\":2390:2461   */\n      tag_263\n      jump\t// in\n    tag_324:\n        /* \"#utility.yul\":2383:2461   */\n      swap4\n      pop\n        /* \"#utility.yul\":2470:2522   */\n      tag_325\n        /* \"#utility.yul\":2515:2521   */\n      dup2\n        /* \"#utility.yul\":2510:2513   */\n      dup6\n        /* \"#utility.yul\":2503:2507   */\n      0x20\n        /* \"#utility.yul\":2496:2501   */\n      dup7\n        /* \"#utility.yul\":2492:2508   */\n      add\n        /* \"#utility.yul\":2470:2522   */\n      tag_264\n      jump\t// in\n    tag_325:\n        /* \"#utility.yul\":2547:2576   */\n      tag_326\n        /* \"#utility.yul\":2569:2575   */\n      dup2\n        /* \"#utility.yul\":2547:2576   */\n      tag_265\n      jump\t// in\n    tag_326:\n        /* \"#utility.yul\":2542:2545   */\n      dup5\n        /* \"#utility.yul\":2538:2577   */\n      add\n        /* \"#utility.yul\":2531:2577   */\n      swap2\n      pop\n        /* \"#utility.yul\":2311:2583   */\n      pop\n        /* \"#utility.yul\":2219:2583   */\n      swap3\n      swap2\n      pop\n      pop\n      jump\t// out\n        /* \"#utility.yul\":2589:2902   */\n    tag_30:\n        /* \"#utility.yul\":2702:2706   */\n      0x00\n        /* \"#utility.yul\":2740:2742   */\n      0x20\n        /* \"#utility.yul\":2729:2738   */\n      dup3\n        /* \"#utility.yul\":2725:2743   */\n      add\n        /* \"#utility.yul\":2717:2743   */\n      swap1\n      pop\n        /* \"#utility.yul\":2789:2798   */\n      dup2\n        /* \"#utility.yul\":2783:2787   */\n      dup2\n        /* \"#utility.yul\":2779:2799   */\n      sub\n        /* \"#utility.yul\":2775:2776   */\n      0x00\n        /* \"#utility.yul\":2764:2773   */\n      dup4\n        /* \"#utility.yul\":2760:2777   */\n      add\n        /* \"#utility.yul\":2753:2800   */\n      mstore\n        /* \"#utility.yul\":2817:2895   */\n      tag_328\n        /* \"#utility.yul\":2890:2894   */\n      dup2\n        /* \"#utility.yul\":2881:2887   */\n      dup5\n        /* \"#utility.yul\":2817:2895   */\n      tag_266\n      jump\t// in\n    tag_328:\n        /* \"#utility.yul\":2809:2895   */\n      swap1\n      pop\n        /* \"#utility.yul\":2589:2902   */\n      swap3\n      swap2\n      pop\n      pop\n      jump\t// out\n        /* \"#utility.yul\":2908:2985   */\n    tag_267:\n        /* \"#utility.yul\":2945:2952   */\n      0x00\n        /* \"#utility.yul\":2974:2979   */\n      dup2\n        /* \"#utility.yul\":2963:2979   */\n      swap1\n      pop\n        /* \"#utility.yul\":2908:2985   */\n      swap2\n      swap1\n      pop\n      jump\t// out\n        /* \"#utility.yul\":2991:3113   */\n    tag_268:\n        /* \"#utility.yul\":3064:3088   */\n      tag_331\n        /* \"#utility.yul\":3082:3087   */\n      dup2\n        /* \"#utility.yul\":3064:3088   */\n      tag_267\n      jump\t// in\n    tag_331:\n        /* \"#utility.yul\":3057:3062   */\n      dup2\n        /* \"#utility.yul\":3054:3089   */\n      eq\n        /* \"#utility.yul\":3044:3107   */\n      tag_332\n      jumpi\n        /* \"#utility.yul\":3103:3104   */\n      0x00\n        /* \"#utility.yul\":3100:3101   */\n      dup1\n        /* \"#utility.yul\":3093:3105   */\n      revert\n        /* \"#utility.yul\":3044:3107   */\n    tag_332:\n        /* \"#utility.yul\":2991:3113   */\n      pop\n      jump\t// out\n        /* \"#utility.yul\":3119:3258   */\n    tag_269:\n        /* \"#utility.yul\":3165:3170   */\n      0x00\n        /* \"#utility.yul\":3203:3209   */\n      dup2\n        /* \"#utility.yul\":3190:3210   */\n      calldataload\n        /* \"#utility.yul\":3181:3210   */\n      swap1\n      pop\n        /* \"#utility.yul\":3219:3252   */\n      tag_334\n        /* \"#utility.yul\":3246:3251   */\n      dup2\n        /* \"#utility.yul\":3219:3252   */\n      tag_268\n      jump\t// in\n    tag_334:\n        /* \"#utility.yul\":3119:3258   */\n      swap3\n      swap2\n      pop\n      pop\n      jump\t// out\n        /* \"#utility.yul\":3264:3593   */\n    tag_33:\n        /* \"#utility.yul\":3323:3329   */\n      0x00\n        /* \"#utility.yul\":3372:3374   */\n      0x20\n        /* \"#utility.yul\":3360:3369   */\n      dup3\n        /* \"#utility.yul\":3351:3358   */\n      dup5\n        /* \"#utility.yul\":3347:3370   */\n      sub\n        /* \"#utility.yul\":3343:3375   */\n      slt\n        /* \"#utility.yul\":3340:3459   */\n      iszero\n      tag_336\n      jumpi\n        /* \"#utility.yul\":3378:3457   */\n      tag_337\n      tag_255\n      jump\t// in\n    tag_337:\n        /* \"#utility.yul\":3340:3459   */\n    tag_336:\n        /* \"#utility.yul\":3498:3499   */\n      0x00\n        /* \"#utility.yul\":3523:3576   */\n      tag_338\n        /* \"#utility.yul\":3568:3575   */\n      dup5\n        /* \"#utility.yul\":3559:3565   */\n      dup3\n        /* \"#utility.yul\":3548:3557   */\n      dup6\n        /* \"#utility.yul\":3544:3566   */\n      add\n        /* \"#utility.yul\":3523:3576   */\n      tag_269\n      jump\t// in\n    tag_338:\n        /* \"#utility.yul\":3513:3576   */\n      swap2\n      pop\n        /* \"#utility.yul\":3469:3586   */\n      pop\n        /* \"#utility.yul\":3264:3593   */\n      swap3\n      swap2\n      pop\n      pop\n      jump\t// out\n        /* \"#utility.yul\":3599:3725   */\n    tag_270:\n        /* \"#utility.yul\":3636:3643   */\n      0x00\n        /* \"#utility.yul\":3676:3718   */\n      0xffffffffffffffffffffffffffffffffffffffff\n        /* \"#utility.yul\":3669:3674   */\n      dup3\n        /* \"#utility.yul\":3665:3719   */\n      and\n        /* \"#utility.yul\":3654:3719   */\n      swap1\n      pop\n        /* \"#utility.yul\":3599:3725   */\n      swap2\n      swap1\n      pop\n      jump\t// out\n        /* \"#utility.yul\":3731:3827   */\n    tag_271:\n        /* \"#utility.yul\":3768:3775   */\n      0x00\n        /* \"#utility.yul\":3797:3821   */\n      tag_341\n        /* \"#utility.yul\":3815:3820   */\n      dup3\n        /* \"#utility.yul\":3797:3821   */\n      tag_270\n      jump\t// in\n    tag_341:\n        /* \"#utility.yul\":3786:3821   */\n      swap1\n      pop\n        /* \"#utility.yul\":3731:3827   */\n      swap2\n      swap1\n      pop\n      jump\t// out\n        /* \"#utility.yul\":3833:3951   */\n    tag_272:\n        /* \"#utility.yul\":3920:3944   */\n      tag_343\n        /* \"#utility.yul\":3938:3943   */\n      dup2\n        /* \"#utility.yul\":3920:3944   */\n      tag_271\n      jump\t// in\n    tag_343:\n        /* \"#utility.yul\":3915:3918   */\n      dup3\n        /* \"#utility.yul\":3908:3945   */\n      mstore\n        /* \"#utility.yul\":3833:3951   */\n      pop\n      pop\n      jump\t// out\n        /* \"#utility.yul\":3957:4179   */\n    tag_36:\n        /* \"#utility.yul\":4050:4054   */\n      0x00\n        /* \"#utility.yul\":4088:4090   */\n      0x20\n        /* \"#utility.yul\":4077:4086   */\n      dup3\n        /* \"#utility.yul\":4073:4091   */\n      add\n        /* \"#utility.yul\":4065:4091   */\n      swap1\n      pop\n        /* \"#utility.yul\":4101:4172   */\n      tag_345\n        /* \"#utility.yul\":4169:4170   */\n      0x00\n        /* \"#utility.yul\":4158:4167   */\n      dup4\n        /* \"#utility.yul\":4154:4171   */\n      add\n        /* \"#utility.yul\":4145:4151   */\n      dup5\n        /* \"#utility.yul\":4101:4172   */\n      tag_272\n      jump\t// in\n    tag_345:\n        /* \"#utility.yul\":3957:4179   */\n      swap3\n      swap2\n      pop\n      pop\n      jump\t// out\n        /* \"#utility.yul\":4185:4307   */\n    tag_273:\n        /* \"#utility.yul\":4258:4282   */\n      tag_347\n        /* \"#utility.yul\":4276:4281   */\n      dup2\n        /* \"#utility.yul\":4258:4282   */\n      tag_271\n      jump\t// in\n    tag_347:\n        /* \"#utility.yul\":4251:4256   */\n      dup2\n        /* \"#utility.yul\":4248:4283   */\n      eq\n        /* \"#utility.yul\":4238:4301   */\n      tag_348\n      jumpi\n        /* \"#utility.yul\":4297:4298   */\n      0x00\n        /* \"#utility.yul\":4294:4295   */\n      dup1\n        /* \"#utility.yul\":4287:4299   */\n      revert\n        /* \"#utility.yul\":4238:4301   */\n    tag_348:\n        /* \"#utility.yul\":4185:4307   */\n      pop\n      jump\t// out\n        /* \"#utility.yul\":4313:4452   */\n    tag_274:\n        /* \"#utility.yul\":4359:4364   */\n      0x00\n        /* \"#utility.yul\":4397:4403   */\n      dup2\n        /* \"#utility.yul\":4384:4404   */\n      calldataload\n        /* \"#utility.yul\":4375:4404   */\n      swap1\n      pop\n        /* \"#utility.yul\":4413:4446   */\n      tag_350\n        /* \"#utility.yul\":4440:4445   */\n      dup2\n        /* \"#utility.yul\":4413:4446   */\n      tag_273\n      jump\t// in\n    tag_350:\n        /* \"#utility.yul\":4313:4452   */\n      swap3\n      swap2\n      pop\n      pop\n      jump\t// out\n        /* \"#utility.yul\":4458:4932   */\n    tag_39:\n        /* \"#utility.yul\":4526:4532   */\n      0x00\n        /* \"#utility.yul\":4534:4540   */\n      dup1\n        /* \"#utility.yul\":4583:4585   */\n      0x40\n        /* \"#utility.yul\":4571:4580   */\n      dup4\n        /* \"#utility.yul\":4562:4569   */\n      dup6\n        /* \"#utility.yul\":4558:4581   */\n      sub\n        /* \"#utility.yul\":4554:4586   */\n      slt\n        /* \"#utility.yul\":4551:4670   */\n      iszero\n      tag_352\n      jumpi\n        /* \"#utility.yul\":4589:4668   */\n      tag_353\n      tag_255\n      jump\t// in\n    tag_353:\n        /* \"#utility.yul\":4551:4670   */\n    tag_352:\n        /* \"#utility.yul\":4709:4710   */\n      0x00\n        /* \"#utility.yul\":4734:4787   */\n      tag_354\n        /* \"#utility.yul\":4779:4786   */\n      dup6\n        /* \"#utility.yul\":4770:4776   */\n      dup3\n        /* \"#utility.yul\":4759:4768   */\n      dup7\n        /* \"#utility.yul\":4755:4777   */\n      add\n        /* \"#utility.yul\":4734:4787   */\n      tag_274\n      jump\t// in\n    tag_354:\n        /* \"#utility.yul\":4724:4787   */\n      swap3\n      pop\n        /* \"#utility.yul\":4680:4797   */\n      pop\n        /* \"#utility.yul\":4836:4838   */\n      0x20\n        /* \"#utility.yul\":4862:4915   */\n      tag_355\n        /* \"#utility.yul\":4907:4914   */\n      dup6\n        /* \"#utility.yul\":4898:4904   */\n      dup3\n        /* \"#utility.yul\":4887:4896   */\n      dup7\n        /* \"#utility.yul\":4883:4905   */\n      add\n        /* \"#utility.yul\":4862:4915   */\n      tag_269\n      jump\t// in\n    tag_355:\n        /* \"#utility.yul\":4852:4915   */\n      swap2\n      pop\n        /* \"#utility.yul\":4807:4925   */\n      pop\n        /* \"#utility.yul\":4458:4932   */\n      swap3\n      pop\n      swap3\n      swap1\n      pop\n      jump\t// out\n        /* \"#utility.yul\":4938:5056   */\n    tag_275:\n        /* \"#utility.yul\":5025:5049   */\n      tag_357\n        /* \"#utility.yul\":5043:5048   */\n      dup2\n        /* \"#utility.yul\":5025:5049   */\n      tag_267\n      jump\t// in\n    tag_357:\n        /* \"#utility.yul\":5020:5023   */\n      dup3\n        /* \"#utility.yul\":5013:5050   */\n      mstore\n        /* \"#utility.yul\":4938:5056   */\n      pop\n      pop\n      jump\t// out\n        /* \"#utility.yul\":5062:5284   */\n    tag_44:\n        /* \"#utility.yul\":5155:5159   */\n      0x00\n        /* \"#utility.yul\":5193:5195   */\n      0x20\n        /* \"#utility.yul\":5182:5191   */\n      dup3\n        /* \"#utility.yul\":5178:5196   */\n      add\n        /* \"#utility.yul\":5170:5196   */\n      swap1\n      pop\n        /* \"#utility.yul\":5206:5277   */\n      tag_359\n        /* \"#utility.yul\":5274:5275   */\n      0x00\n        /* \"#utility.yul\":5263:5272   */\n      dup4\n        /* \"#utility.yul\":5259:5276   */\n      add\n        /* \"#utility.yul\":5250:5256   */\n      dup5\n        /* \"#utility.yul\":5206:5277   */\n      tag_275\n      jump\t// in\n    tag_359:\n        /* \"#utility.yul\":5062:5284   */\n      swap3\n      swap2\n      pop\n      pop\n      jump\t// out\n        /* \"#utility.yul\":5290:5909   */\n    tag_47:\n        /* \"#utility.yul\":5367:5373   */\n      0x00\n        /* \"#utility.yul\":5375:5381   */\n      dup1\n        /* \"#utility.yul\":5383:5389   */\n      0x00\n        /* \"#utility.yul\":5432:5434   */\n      0x60\n        /* \"#utility.yul\":5420:5429   */\n      dup5\n        /* \"#utility.yul\":5411:5418   */\n      dup7\n        /* \"#utility.yul\":5407:5430   */\n      sub\n        /* \"#utility.yul\":5403:5435   */\n      slt\n        /* \"#utility.yul\":5400:5519   */\n      iszero\n      tag_361\n      jumpi\n        /* \"#utility.yul\":5438:5517   */\n      tag_362\n      tag_255\n      jump\t// in\n    tag_362:\n        /* \"#utility.yul\":5400:5519   */\n    tag_361:\n        /* \"#utility.yul\":5558:5559   */\n      0x00\n        /* \"#utility.yul\":5583:5636   */\n      tag_363\n        /* \"#utility.yul\":5628:5635   */\n      dup7\n        /* \"#utility.yul\":5619:5625   */\n      dup3\n        /* \"#utility.yul\":5608:5617   */\n      dup8\n        /* \"#utility.yul\":5604:5626   */\n      add\n        /* \"#utility.yul\":5583:5636   */\n      tag_274\n      jump\t// in\n    tag_363:\n        /* \"#utility.yul\":5573:5636   */\n      swap4\n      pop\n        /* \"#utility.yul\":5529:5646   */\n      pop\n        /* \"#utility.yul\":5685:5687   */\n      0x20\n        /* \"#utility.yul\":5711:5764   */\n      tag_364\n        /* \"#utility.yul\":5756:5763   */\n      dup7\n        /* \"#utility.yul\":5747:5753   */\n      dup3\n        /* \"#utility.yul\":5736:5745   */\n      dup8\n        /* \"#utility.yul\":5732:5754   */\n      add\n        /* \"#utility.yul\":5711:5764   */\n      tag_274\n      jump\t// in\n    tag_364:\n        /* \"#utility.yul\":5701:5764   */\n      swap3\n      pop\n        /* \"#utility.yul\":5656:5774   */\n      pop\n        /* \"#utility.yul\":5813:5815   */\n      0x40\n        /* \"#utility.yul\":5839:5892   */\n      tag_365\n        /* \"#utility.yul\":5884:5891   */\n      dup7\n        /* \"#utility.yul\":5875:5881   */\n      dup3\n        /* \"#utility.yul\":5864:5873   */\n      dup8\n        /* \"#utility.yul\":5860:5882   */\n      add\n        /* \"#utility.yul\":5839:5892   */\n      tag_269\n      jump\t// in\n    tag_365:\n        /* \"#utility.yul\":5829:5892   */\n      swap2\n      pop\n        /* \"#utility.yul\":5784:5902   */\n      pop\n        /* \"#utility.yul\":5290:5909   */\n      swap3\n      pop\n      swap3\n      pop\n      swap3\n      jump\t// out\n        /* \"#utility.yul\":5915:6244   */\n    tag_51:\n        /* \"#utility.yul\":5974:5980   */\n      0x00\n        /* \"#utility.yul\":6023:6025   */\n      0x20\n        /* \"#utility.yul\":6011:6020   */\n      dup3\n        /* \"#utility.yul\":6002:6009   */\n      dup5\n        /* \"#utility.yul\":5998:6021   */\n      sub\n        /* \"#utility.yul\":5994:6026   */\n      slt\n        /* \"#utility.yul\":5991:6110   */\n      iszero\n      tag_367\n      jumpi\n        /* \"#utility.yul\":6029:6108   */\n      tag_368\n      tag_255\n      jump\t// in\n    tag_368:\n        /* \"#utility.yul\":5991:6110   */\n    tag_367:\n        /* \"#utility.yul\":6149:6150   */\n      0x00\n        /* \"#utility.yul\":6174:6227   */\n      tag_369\n        /* \"#utility.yul\":6219:6226   */\n      dup5\n        /* \"#utility.yul\":6210:6216   */\n      dup3\n        /* \"#utility.yul\":6199:6208   */\n      dup6\n        /* \"#utility.yul\":6195:6217   */\n      add\n        /* \"#utility.yul\":6174:6227   */\n      tag_274\n      jump\t// in\n    tag_369:\n        /* \"#utility.yul\":6164:6227   */\n      swap2\n      pop\n        /* \"#utility.yul\":6120:6237   */\n      pop\n        /* \"#utility.yul\":5915:6244   */\n      swap3\n      swap2\n      pop\n      pop\n      jump\t// out\n        /* \"#utility.yul\":6250:6366   */\n    tag_276:\n        /* \"#utility.yul\":6320:6341   */\n      tag_371\n        /* \"#utility.yul\":6335:6340   */\n      dup2\n        /* \"#utility.yul\":6320:6341   */\n      tag_260\n      jump\t// in\n    tag_371:\n        /* \"#utility.yul\":6313:6318   */\n      dup2\n        /* \"#utility.yul\":6310:6342   */\n      eq\n        /* \"#utility.yul\":6300:6360   */\n      tag_372\n      jumpi\n        /* \"#utility.yul\":6356:6357   */\n      0x00\n        /* \"#utility.yul\":6353:6354   */\n      dup1\n        /* \"#utility.yul\":6346:6358   */\n      revert\n        /* \"#utility.yul\":6300:6360   */\n    tag_372:\n        /* \"#utility.yul\":6250:6366   */\n      pop\n      jump\t// out\n        /* \"#utility.yul\":6372:6505   */\n    tag_277:\n        /* \"#utility.yul\":6415:6420   */\n      0x00\n        /* \"#utility.yul\":6453:6459   */\n      dup2\n        /* \"#utility.yul\":6440:6460   */\n      calldataload\n        /* \"#utility.yul\":6431:6460   */\n      swap1\n      pop\n        /* \"#utility.yul\":6469:6499   */\n      tag_374\n        /* \"#utility.yul\":6493:6498   */\n      dup2\n        /* \"#utility.yul\":6469:6499   */\n      tag_276\n      jump\t// in\n    tag_374:\n        /* \"#utility.yul\":6372:6505   */\n      swap3\n      swap2\n      pop\n      pop\n      jump\t// out\n        /* \"#utility.yul\":6511:6979   */\n    tag_70:\n        /* \"#utility.yul\":6576:6582   */\n      0x00\n        /* \"#utility.yul\":6584:6590   */\n      dup1\n        /* \"#utility.yul\":6633:6635   */\n      0x40\n        /* \"#utility.yul\":6621:6630   */\n      dup4\n        /* \"#utility.yul\":6612:6619   */\n      dup6\n        /* \"#utility.yul\":6608:6631   */\n      sub\n        /* \"#utility.yul\":6604:6636   */\n      slt\n        /* \"#utility.yul\":6601:6720   */\n      iszero\n      tag_376\n      jumpi\n        /* \"#utility.yul\":6639:6718   */\n      tag_377\n      tag_255\n      jump\t// in\n    tag_377:\n        /* \"#utility.yul\":6601:6720   */\n    tag_376:\n        /* \"#utility.yul\":6759:6760   */\n      0x00\n        /* \"#utility.yul\":6784:6837   */\n      tag_378\n        /* \"#utility.yul\":6829:6836   */\n      dup6\n        /* \"#utility.yul\":6820:6826   */\n      dup3\n        /* \"#utility.yul\":6809:6818   */\n      dup7\n        /* \"#utility.yul\":6805:6827   */\n      add\n        /* \"#utility.yul\":6784:6837   */\n      tag_274\n      jump\t// in\n    tag_378:\n        /* \"#utility.yul\":6774:6837   */\n      swap3\n      pop\n        /* \"#utility.yul\":6730:6847   */\n      pop\n        /* \"#utility.yul\":6886:6888   */\n      0x20\n        /* \"#utility.yul\":6912:6962   */\n      tag_379\n        /* \"#utility.yul\":6954:6961   */\n      dup6\n        /* \"#utility.yul\":6945:6951   */\n      dup3\n        /* \"#utility.yul\":6934:6943   */\n      dup7\n        /* \"#utility.yul\":6930:6952   */\n      add\n        /* \"#utility.yul\":6912:6962   */\n      tag_277\n      jump\t// in\n    tag_379:\n        /* \"#utility.yul\":6902:6962   */\n      swap2\n      pop\n        /* \"#utility.yul\":6857:6972   */\n      pop\n        /* \"#utility.yul\":6511:6979   */\n      swap3\n      pop\n      swap3\n      swap1\n      pop\n      jump\t// out\n        /* \"#utility.yul\":6985:7102   */\n    tag_278:\n        /* \"#utility.yul\":7094:7095   */\n      0x00\n        /* \"#utility.yul\":7091:7092   */\n      dup1\n        /* \"#utility.yul\":7084:7096   */\n      revert\n        /* \"#utility.yul\":7108:7225   */\n    tag_279:\n        /* \"#utility.yul\":7217:7218   */\n      0x00\n        /* \"#utility.yul\":7214:7215   */\n      dup1\n        /* \"#utility.yul\":7207:7219   */\n      revert\n        /* \"#utility.yul\":7231:7411   */\n    tag_240:\n        /* \"#utility.yul\":7279:7356   */\n      0x4e487b7100000000000000000000000000000000000000000000000000000000\n        /* \"#utility.yul\":7276:7277   */\n      0x00\n        /* \"#utility.yul\":7269:7357   */\n      mstore\n        /* \"#utility.yul\":7376:7380   */\n      0x41\n        /* \"#utility.yul\":7373:7374   */\n      0x04\n        /* \"#utility.yul\":7366:7381   */\n      mstore\n        /* \"#utility.yul\":7400:7404   */\n      0x24\n        /* \"#utility.yul\":7397:7398   */\n      0x00\n        /* \"#utility.yul\":7390:7405   */\n      revert\n        /* \"#utility.yul\":7417:7698   */\n    tag_280:\n        /* \"#utility.yul\":7500:7527   */\n      tag_384\n        /* \"#utility.yul\":7522:7526   */\n      dup3\n        /* \"#utility.yul\":7500:7527   */\n      tag_265\n      jump\t// in\n    tag_384:\n        /* \"#utility.yul\":7492:7498   */\n      dup2\n        /* \"#utility.yul\":7488:7528   */\n      add\n        /* \"#utility.yul\":7630:7636   */\n      dup2\n        /* \"#utility.yul\":7618:7628   */\n      dup2\n        /* \"#utility.yul\":7615:7637   */\n      lt\n        /* \"#utility.yul\":7594:7612   */\n      0xffffffffffffffff\n        /* \"#utility.yul\":7582:7592   */\n      dup3\n        /* \"#utility.yul\":7579:7613   */\n      gt\n        /* \"#utility.yul\":7576:7638   */\n      or\n        /* \"#utility.yul\":7573:7661   */\n      iszero\n      tag_385\n      jumpi\n        /* \"#utility.yul\":7641:7659   */\n      tag_386\n      tag_240\n      jump\t// in\n    tag_386:\n        /* \"#utility.yul\":7573:7661   */\n    tag_385:\n        /* \"#utility.yul\":7681:7691   */\n      dup1\n        /* \"#utility.yul\":7677:7679   */\n      0x40\n        /* \"#utility.yul\":7670:7692   */\n      mstore\n        /* \"#utility.yul\":7460:7698   */\n      pop\n        /* \"#utility.yul\":7417:7698   */\n      pop\n      pop\n      jump\t// out\n        /* \"#utility.yul\":7704:7833   */\n    tag_281:\n        /* \"#utility.yul\":7738:7744   */\n      0x00\n        /* \"#utility.yul\":7765:7785   */\n      tag_388\n      tag_254\n      jump\t// in\n    tag_388:\n        /* \"#utility.yul\":7755:7785   */\n      swap1\n      pop\n        /* \"#utility.yul\":7794:7827   */\n      tag_389\n        /* \"#utility.yul\":7822:7826   */\n      dup3\n        /* \"#utility.yul\":7814:7820   */\n      dup3\n        /* \"#utility.yul\":7794:7827   */\n      tag_280\n      jump\t// in\n    tag_389:\n        /* \"#utility.yul\":7704:7833   */\n      swap2\n      swap1\n      pop\n      jump\t// out\n        /* \"#utility.yul\":7839:8146   */\n    tag_282:\n        /* \"#utility.yul\":7900:7904   */\n      0x00\n        /* \"#utility.yul\":7990:8008   */\n      0xffffffffffffffff\n        /* \"#utility.yul\":7982:7988   */\n      dup3\n        /* \"#utility.yul\":7979:8009   */\n      gt\n        /* \"#utility.yul\":7976:8032   */\n      iszero\n      tag_391\n      jumpi\n        /* \"#utility.yul\":8012:8030   */\n      tag_392\n      tag_240\n      jump\t// in\n    tag_392:\n        /* \"#utility.yul\":7976:8032   */\n    tag_391:\n        /* \"#utility.yul\":8050:8079   */\n      tag_393\n        /* \"#utility.yul\":8072:8078   */\n      dup3\n        /* \"#utility.yul\":8050:8079   */\n      tag_265\n      jump\t// in\n    tag_393:\n        /* \"#utility.yul\":8042:8079   */\n      swap1\n      pop\n        /* \"#utility.yul\":8134:8138   */\n      0x20\n        /* \"#utility.yul\":8128:8132   */\n      dup2\n        /* \"#utility.yul\":8124:8139   */\n      add\n        /* \"#utility.yul\":8116:8139   */\n      swap1\n      pop\n        /* \"#utility.yul\":7839:8146   */\n      swap2\n      swap1\n      pop\n      jump\t// out\n        /* \"#utility.yul\":8152:8306   */\n    tag_283:\n        /* \"#utility.yul\":8236:8242   */\n      dup3\n        /* \"#utility.yul\":8231:8234   */\n      dup2\n        /* \"#utility.yul\":8226:8229   */\n      dup4\n        /* \"#utility.yul\":8213:8243   */\n      calldatacopy\n        /* \"#utility.yul\":8298:8299   */\n      0x00\n        /* \"#utility.yul\":8289:8295   */\n      dup4\n        /* \"#utility.yul\":8284:8287   */\n      dup4\n        /* \"#utility.yul\":8280:8296   */\n      add\n        /* \"#utility.yul\":8273:8300   */\n      mstore\n        /* \"#utility.yul\":8152:8306   */\n      pop\n      pop\n      pop\n      jump\t// out\n        /* \"#utility.yul\":8312:8722   */\n    tag_284:\n        /* \"#utility.yul\":8389:8394   */\n      0x00\n        /* \"#utility.yul\":8414:8479   */\n      tag_396\n        /* \"#utility.yul\":8430:8478   */\n      tag_397\n        /* \"#utility.yul\":8471:8477   */\n      dup5\n        /* \"#utility.yul\":8430:8478   */\n      tag_282\n      jump\t// in\n    tag_397:\n        /* \"#utility.yul\":8414:8479   */\n      tag_281\n      jump\t// in\n    tag_396:\n        /* \"#utility.yul\":8405:8479   */\n      swap1\n      pop\n        /* \"#utility.yul\":8502:8508   */\n      dup3\n        /* \"#utility.yul\":8495:8500   */\n      dup2\n        /* \"#utility.yul\":8488:8509   */\n      mstore\n        /* \"#utility.yul\":8540:8544   */\n      0x20\n        /* \"#utility.yul\":8533:8538   */\n      dup2\n        /* \"#utility.yul\":8529:8545   */\n      add\n        /* \"#utility.yul\":8578:8581   */\n      dup5\n        /* \"#utility.yul\":8569:8575   */\n      dup5\n        /* \"#utility.yul\":8564:8567   */\n      dup5\n        /* \"#utility.yul\":8560:8576   */\n      add\n        /* \"#utility.yul\":8557:8582   */\n      gt\n        /* \"#utility.yul\":8554:8666   */\n      iszero\n      tag_398\n      jumpi\n        /* \"#utility.yul\":8585:8664   */\n      tag_399\n      tag_279\n      jump\t// in\n    tag_399:\n        /* \"#utility.yul\":8554:8666   */\n    tag_398:\n        /* \"#utility.yul\":8675:8716   */\n      tag_400\n        /* \"#utility.yul\":8709:8715   */\n      dup5\n        /* \"#utility.yul\":8704:8707   */\n      dup3\n        /* \"#utility.yul\":8699:8702   */\n      dup6\n        /* \"#utility.yul\":8675:8716   */\n      tag_283\n      jump\t// in\n    tag_400:\n        /* \"#utility.yul\":8395:8722   */\n      pop\n        /* \"#utility.yul\":8312:8722   */\n      swap4\n      swap3\n      pop\n      pop\n      pop\n      jump\t// out\n        /* \"#utility.yul\":8741:9079   */\n    tag_285:\n        /* \"#utility.yul\":8796:8801   */\n      0x00\n        /* \"#utility.yul\":8845:8848   */\n      dup3\n        /* \"#utility.yul\":8838:8842   */\n      0x1f\n        /* \"#utility.yul\":8830:8836   */\n      dup4\n        /* \"#utility.yul\":8826:8843   */\n      add\n        /* \"#utility.yul\":8822:8849   */\n      slt\n        /* \"#utility.yul\":8812:8934   */\n      tag_402\n      jumpi\n        /* \"#utility.yul\":8853:8932   */\n      tag_403\n      tag_278\n      jump\t// in\n    tag_403:\n        /* \"#utility.yul\":8812:8934   */\n    tag_402:\n        /* \"#utility.yul\":8970:8976   */\n      dup2\n        /* \"#utility.yul\":8957:8977   */\n      calldataload\n        /* \"#utility.yul\":8995:9073   */\n      tag_404\n        /* \"#utility.yul\":9069:9072   */\n      dup5\n        /* \"#utility.yul\":9061:9067   */\n      dup3\n        /* \"#utility.yul\":9054:9058   */\n      0x20\n        /* \"#utility.yul\":9046:9052   */\n      dup7\n        /* \"#utility.yul\":9042:9059   */\n      add\n        /* \"#utility.yul\":8995:9073   */\n      tag_284\n      jump\t// in\n    tag_404:\n        /* \"#utility.yul\":8986:9073   */\n      swap2\n      pop\n        /* \"#utility.yul\":8802:9079   */\n      pop\n        /* \"#utility.yul\":8741:9079   */\n      swap3\n      swap2\n      pop\n      pop\n      jump\t// out\n        /* \"#utility.yul\":9085:10028   */\n    tag_74:\n        /* \"#utility.yul\":9180:9186   */\n      0x00\n        /* \"#utility.yul\":9188:9194   */\n      dup1\n        /* \"#utility.yul\":9196:9202   */\n      0x00\n        /* \"#utility.yul\":9204:9210   */\n      dup1\n        /* \"#utility.yul\":9253:9256   */\n      0x80\n        /* \"#utility.yul\":9241:9250   */\n      dup6\n        /* \"#utility.yul\":9232:9239   */\n      dup8\n        /* \"#utility.yul\":9228:9251   */\n      sub\n        /* \"#utility.yul\":9224:9257   */\n      slt\n        /* \"#utility.yul\":9221:9341   */\n      iszero\n      tag_406\n      jumpi\n        /* \"#utility.yul\":9260:9339   */\n      tag_407\n      tag_255\n      jump\t// in\n    tag_407:\n        /* \"#utility.yul\":9221:9341   */\n    tag_406:\n        /* \"#utility.yul\":9380:9381   */\n      0x00\n        /* \"#utility.yul\":9405:9458   */\n      tag_408\n        /* \"#utility.yul\":9450:9457   */\n      dup8\n        /* \"#utility.yul\":9441:9447   */\n      dup3\n        /* \"#utility.yul\":9430:9439   */\n      dup9\n        /* \"#utility.yul\":9426:9448   */\n      add\n        /* \"#utility.yul\":9405:9458   */\n      tag_274\n      jump\t// in\n    tag_408:\n        /* \"#utility.yul\":9395:9458   */\n      swap5\n      pop\n        /* \"#utility.yul\":9351:9468   */\n      pop\n        /* \"#utility.yul\":9507:9509   */\n      0x20\n        /* \"#utility.yul\":9533:9586   */\n      tag_409\n        /* \"#utility.yul\":9578:9585   */\n      dup8\n        /* \"#utility.yul\":9569:9575   */\n      dup3\n        /* \"#utility.yul\":9558:9567   */\n      dup9\n        /* \"#utility.yul\":9554:9576   */\n      add\n        /* \"#utility.yul\":9533:9586   */\n      tag_274\n      jump\t// in\n    tag_409:\n        /* \"#utility.yul\":9523:9586   */\n      swap4\n      pop\n        /* \"#utility.yul\":9478:9596   */\n      pop\n        /* \"#utility.yul\":9635:9637   */\n      0x40\n        /* \"#utility.yul\":9661:9714   */\n      tag_410\n        /* \"#utility.yul\":9706:9713   */\n      dup8\n        /* \"#utility.yul\":9697:9703   */\n      dup3\n        /* \"#utility.yul\":9686:9695   */\n      dup9\n        /* \"#utility.yul\":9682:9704   */\n      add\n        /* \"#utility.yul\":9661:9714   */\n      tag_269\n      jump\t// in\n    tag_410:\n        /* \"#utility.yul\":9651:9714   */\n      swap3\n      pop\n        /* \"#utility.yul\":9606:9724   */\n      pop\n        /* \"#utility.yul\":9791:9793   */\n      0x60\n        /* \"#utility.yul\":9780:9789   */\n      dup6\n        /* \"#utility.yul\":9776:9794   */\n      add\n        /* \"#utility.yul\":9763:9795   */\n      calldataload\n        /* \"#utility.yul\":9822:9840   */\n      0xffffffffffffffff\n        /* \"#utility.yul\":9814:9820   */\n      dup2\n        /* \"#utility.yul\":9811:9841   */\n      gt\n        /* \"#utility.yul\":9808:9925   */\n      iszero\n      tag_411\n      jumpi\n        /* \"#utility.yul\":9844:9923   */\n      tag_412\n      tag_256\n      jump\t// in\n    tag_412:\n        /* \"#utility.yul\":9808:9925   */\n    tag_411:\n        /* \"#utility.yul\":9949:10011   */\n      tag_413\n        /* \"#utility.yul\":10003:10010   */\n      dup8\n        /* \"#utility.yul\":9994:10000   */\n      dup3\n        /* \"#utility.yul\":9983:9992   */\n      dup9\n        /* \"#utility.yul\":9979:10001   */\n      add\n        /* \"#utility.yul\":9949:10011   */\n      tag_285\n      jump\t// in\n    tag_413:\n        /* \"#utility.yul\":9939:10011   */\n      swap2\n      pop\n        /* \"#utility.yul\":9734:10021   */\n      pop\n        /* \"#utility.yul\":9085:10028   */\n      swap3\n      swap6\n      swap2\n      swap5\n      pop\n      swap3\n      pop\n      jump\t// out\n        /* \"#utility.yul\":10034:10508   */\n    tag_82:\n        /* \"#utility.yul\":10102:10108   */\n      0x00\n        /* \"#utility.yul\":10110:10116   */\n      dup1\n        /* \"#utility.yul\":10159:10161   */\n      0x40\n        /* \"#utility.yul\":10147:10156   */\n      dup4\n        /* \"#utility.yul\":10138:10145   */\n      dup6\n        /* \"#utility.yul\":10134:10157   */\n      sub\n        /* \"#utility.yul\":10130:10162   */\n      slt\n        /* \"#utility.yul\":10127:10246   */\n      iszero\n      tag_415\n      jumpi\n        /* \"#utility.yul\":10165:10244   */\n      tag_416\n      tag_255\n      jump\t// in\n    tag_416:\n        /* \"#utility.yul\":10127:10246   */\n    tag_415:\n        /* \"#utility.yul\":10285:10286   */\n      0x00\n        /* \"#utility.yul\":10310:10363   */\n      tag_417\n        /* \"#utility.yul\":10355:10362   */\n      dup6\n        /* \"#utility.yul\":10346:10352   */\n      dup3\n        /* \"#utility.yul\":10335:10344   */\n      dup7\n        /* \"#utility.yul\":10331:10353   */\n      add\n        /* \"#utility.yul\":10310:10363   */\n      tag_274\n      jump\t// in\n    tag_417:\n        /* \"#utility.yul\":10300:10363   */\n      swap3\n      pop\n        /* \"#utility.yul\":10256:10373   */\n      pop\n        /* \"#utility.yul\":10412:10414   */\n      0x20\n        /* \"#utility.yul\":10438:10491   */\n      tag_418\n        /* \"#utility.yul\":10483:10490   */\n      dup6\n        /* \"#utility.yul\":10474:10480   */\n      dup3\n        /* \"#utility.yul\":10463:10472   */\n      dup7\n        /* \"#utility.yul\":10459:10481   */\n      add\n        /* \"#utility.yul\":10438:10491   */\n      tag_274\n      jump\t// in\n    tag_418:\n        /* \"#utility.yul\":10428:10491   */\n      swap2\n      pop\n        /* \"#utility.yul\":10383:10501   */\n      pop\n        /* \"#utility.yul\":10034:10508   */\n      swap3\n      pop\n      swap3\n      swap1\n      pop\n      jump\t// out\n        /* \"#utility.yul\":10514:10694   */\n    tag_286:\n        /* \"#utility.yul\":10562:10639   */\n      0x4e487b7100000000000000000000000000000000000000000000000000000000\n        /* \"#utility.yul\":10559:10560   */\n      0x00\n        /* \"#utility.yul\":10552:10640   */\n      mstore\n        /* \"#utility.yul\":10659:10663   */\n      0x22\n        /* \"#utility.yul\":10656:10657   */\n      0x04\n        /* \"#utility.yul\":10649:10664   */\n      mstore\n        /* \"#utility.yul\":10683:10687   */\n      0x24\n        /* \"#utility.yul\":10680:10681   */\n      0x00\n        /* \"#utility.yul\":10673:10688   */\n      revert\n        /* \"#utility.yul\":10700:11020   */\n    tag_92:\n        /* \"#utility.yul\":10744:10750   */\n      0x00\n        /* \"#utility.yul\":10781:10782   */\n      0x02\n        /* \"#utility.yul\":10775:10779   */\n      dup3\n        /* \"#utility.yul\":10771:10783   */\n      div\n        /* \"#utility.yul\":10761:10783   */\n      swap1\n      pop\n        /* \"#utility.yul\":10828:10829   */\n      0x01\n        /* \"#utility.yul\":10822:10826   */\n      dup3\n        /* \"#utility.yul\":10818:10830   */\n      and\n        /* \"#utility.yul\":10849:10867   */\n      dup1\n        /* \"#utility.yul\":10839:10920   */\n      tag_421\n      jumpi\n        /* \"#utility.yul\":10905:10909   */\n      0x7f\n        /* \"#utility.yul\":10897:10903   */\n      dup3\n        /* \"#utility.yul\":10893:10910   */\n      and\n        /* \"#utility.yul\":10883:10910   */\n      swap2\n      pop\n        /* \"#utility.yul\":10839:10920   */\n    tag_421:\n        /* \"#utility.yul\":10967:10969   */\n      0x20\n        /* \"#utility.yul\":10959:10965   */\n      dup3\n        /* \"#utility.yul\":10956:10970   */\n      lt\n        /* \"#utility.yul\":10936:10954   */\n      dup2\n        /* \"#utility.yul\":10933:10971   */\n      sub\n        /* \"#utility.yul\":10930:11014   */\n      tag_422\n      jumpi\n        /* \"#utility.yul\":10986:11004   */\n      tag_423\n      tag_286\n      jump\t// in\n    tag_423:\n        /* \"#utility.yul\":10930:11014   */\n    tag_422:\n        /* \"#utility.yul\":10751:11020   */\n      pop\n        /* \"#utility.yul\":10700:11020   */\n      swap2\n      swap1\n      pop\n      jump\t// out\n        /* \"#utility.yul\":11026:11174   */\n    tag_287:\n        /* \"#utility.yul\":11128:11139   */\n      0x00\n        /* \"#utility.yul\":11165:11168   */\n      dup2\n        /* \"#utility.yul\":11150:11168   */\n      swap1\n      pop\n        /* \"#utility.yul\":11026:11174   */\n      swap3\n      swap2\n      pop\n      pop\n      jump\t// out\n        /* \"#utility.yul\":11180:11557   */\n    tag_288:\n        /* \"#utility.yul\":11286:11289   */\n      0x00\n        /* \"#utility.yul\":11314:11353   */\n      tag_426\n        /* \"#utility.yul\":11347:11352   */\n      dup3\n        /* \"#utility.yul\":11314:11353   */\n      tag_262\n      jump\t// in\n    tag_426:\n        /* \"#utility.yul\":11369:11458   */\n      tag_427\n        /* \"#utility.yul\":11451:11457   */\n      dup2\n        /* \"#utility.yul\":11446:11449   */\n      dup6\n        /* \"#utility.yul\":11369:11458   */\n      tag_287\n      jump\t// in\n    tag_427:\n        /* \"#utility.yul\":11362:11458   */\n      swap4\n      pop\n        /* \"#utility.yul\":11467:11519   */\n      tag_428\n        /* \"#utility.yul\":11512:11518   */\n      dup2\n        /* \"#utility.yul\":11507:11510   */\n      dup6\n        /* \"#utility.yul\":11500:11504   */\n      0x20\n        /* \"#utility.yul\":11493:11498   */\n      dup7\n        /* \"#utility.yul\":11489:11505   */\n      add\n        /* \"#utility.yul\":11467:11519   */\n      tag_264\n      jump\t// in\n    tag_428:\n        /* \"#utility.yul\":11544:11550   */\n      dup1\n        /* \"#utility.yul\":11539:11542   */\n      dup5\n        /* \"#utility.yul\":11535:11551   */\n      add\n        /* \"#utility.yul\":11528:11551   */\n      swap2\n      pop\n        /* \"#utility.yul\":11290:11557   */\n      pop\n        /* \"#utility.yul\":11180:11557   */\n      swap3\n      swap2\n      pop\n      pop\n      jump\t// out\n        /* \"#utility.yul\":11563:11998   */\n    tag_163:\n        /* \"#utility.yul\":11743:11746   */\n      0x00\n        /* \"#utility.yul\":11765:11860   */\n      tag_430\n        /* \"#utility.yul\":11856:11859   */\n      dup3\n        /* \"#utility.yul\":11847:11853   */\n      dup6\n        /* \"#utility.yul\":11765:11860   */\n      tag_288\n      jump\t// in\n    tag_430:\n        /* \"#utility.yul\":11758:11860   */\n      swap2\n      pop\n        /* \"#utility.yul\":11877:11972   */\n      tag_431\n        /* \"#utility.yul\":11968:11971   */\n      dup3\n        /* \"#utility.yul\":11959:11965   */\n      dup5\n        /* \"#utility.yul\":11877:11972   */\n      tag_288\n      jump\t// in\n    tag_431:\n        /* \"#utility.yul\":11870:11972   */\n      swap2\n      pop\n        /* \"#utility.yul\":11989:11992   */\n      dup2\n        /* \"#utility.yul\":11982:11992   */\n      swap1\n      pop\n        /* \"#utility.yul\":11563:11998   */\n      swap4\n      swap3\n      pop\n      pop\n      pop\n      jump\t// out\n        /* \"#utility.yul\":12004:12184   */\n    tag_289:\n        /* \"#utility.yul\":12052:12129   */\n      0x4e487b7100000000000000000000000000000000000000000000000000000000\n        /* \"#utility.yul\":12049:12050   */\n      0x00\n        /* \"#utility.yul\":12042:12130   */\n      mstore\n        /* \"#utility.yul\":12149:12153   */\n      0x11\n        /* \"#utility.yul\":12146:12147   */\n      0x04\n        /* \"#utility.yul\":12139:12154   */\n      mstore\n        /* \"#utility.yul\":12173:12177   */\n      0x24\n        /* \"#utility.yul\":12170:12171   */\n      0x00\n        /* \"#utility.yul\":12163:12178   */\n      revert\n        /* \"#utility.yul\":12190:12381   */\n    tag_194:\n        /* \"#utility.yul\":12230:12234   */\n      0x00\n        /* \"#utility.yul\":12250:12270   */\n      tag_434\n        /* \"#utility.yul\":12268:12269   */\n      dup3\n        /* \"#utility.yul\":12250:12270   */\n      tag_267\n      jump\t// in\n    tag_434:\n        /* \"#utility.yul\":12245:12270   */\n      swap2\n      pop\n        /* \"#utility.yul\":12284:12304   */\n      tag_435\n        /* \"#utility.yul\":12302:12303   */\n      dup4\n        /* \"#utility.yul\":12284:12304   */\n      tag_267\n      jump\t// in\n    tag_435:\n        /* \"#utility.yul\":12279:12304   */\n      swap3\n      pop\n        /* \"#utility.yul\":12323:12324   */\n      dup3\n        /* \"#utility.yul\":12320:12321   */\n      dup3\n        /* \"#utility.yul\":12317:12325   */\n      lt\n        /* \"#utility.yul\":12314:12348   */\n      iszero\n      tag_436\n      jumpi\n        /* \"#utility.yul\":12328:12346   */\n      tag_437\n      tag_289\n      jump\t// in\n    tag_437:\n        /* \"#utility.yul\":12314:12348   */\n    tag_436:\n        /* \"#utility.yul\":12373:12374   */\n      dup3\n        /* \"#utility.yul\":12370:12371   */\n      dup3\n        /* \"#utility.yul\":12366:12375   */\n      sub\n        /* \"#utility.yul\":12358:12375   */\n      swap1\n      pop\n        /* \"#utility.yul\":12190:12381   */\n      swap3\n      swap2\n      pop\n      pop\n      jump\t// out\n        /* \"#utility.yul\":12387:12735   */\n    tag_197:\n        /* \"#utility.yul\":12427:12434   */\n      0x00\n        /* \"#utility.yul\":12450:12470   */\n      tag_439\n        /* \"#utility.yul\":12468:12469   */\n      dup3\n        /* \"#utility.yul\":12450:12470   */\n      tag_267\n      jump\t// in\n    tag_439:\n        /* \"#utility.yul\":12445:12470   */\n      swap2\n      pop\n        /* \"#utility.yul\":12484:12504   */\n      tag_440\n        /* \"#utility.yul\":12502:12503   */\n      dup4\n        /* \"#utility.yul\":12484:12504   */\n      tag_267\n      jump\t// in\n    tag_440:\n        /* \"#utility.yul\":12479:12504   */\n      swap3\n      pop\n        /* \"#utility.yul\":12672:12673   */\n      dup2\n        /* \"#utility.yul\":12604:12670   */\n      0xffffffffffffffffffffffffffffffffffffffffffffffffffffffffffffffff\n        /* \"#utility.yul\":12600:12674   */\n      div\n        /* \"#utility.yul\":12597:12598   */\n      dup4\n        /* \"#utility.yul\":12594:12675   */\n      gt\n        /* \"#utility.yul\":12589:12590   */\n      dup3\n        /* \"#utility.yul\":12582:12591   */\n      iszero\n        /* \"#utility.yul\":12575:12592   */\n      iszero\n        /* \"#utility.yul\":12571:12676   */\n      and\n        /* \"#utility.yul\":12568:12699   */\n      iszero\n      tag_441\n      jumpi\n        /* \"#utility.yul\":12679:12697   */\n      tag_442\n      tag_289\n      jump\t// in\n    tag_442:\n        /* \"#utility.yul\":12568:12699   */\n    tag_441:\n        /* \"#utility.yul\":12727:12728   */\n      dup3\n        /* \"#utility.yul\":12724:12725   */\n      dup3\n        /* \"#utility.yul\":12720:12729   */\n      mul\n        /* \"#utility.yul\":12709:12729   */\n      swap1\n      pop\n        /* \"#utility.yul\":12387:12735   */\n      swap3\n      swap2\n      pop\n      pop\n      jump\t// out\n        /* \"#utility.yul\":12741:13046   */\n    tag_200:\n        /* \"#utility.yul\":12781:12784   */\n      0x00\n        /* \"#utility.yul\":12800:12820   */\n      tag_444\n        /* \"#utility.yul\":12818:12819   */\n      dup3\n        /* \"#utility.yul\":12800:12820   */\n      tag_267\n      jump\t// in\n    tag_444:\n        /* \"#utility.yul\":12795:12820   */\n      swap2\n      pop\n        /* \"#utility.yul\":12834:12854   */\n      tag_445\n        /* \"#utility.yul\":12852:12853   */\n      dup4\n        /* \"#utility.yul\":12834:12854   */\n      tag_267\n      jump\t// in\n    tag_445:\n        /* \"#utility.yul\":12829:12854   */\n      swap3\n      pop\n        /* \"#utility.yul\":12988:12989   */\n      dup3\n        /* \"#utility.yul\":12920:12986   */\n      0xffffffffffffffffffffffffffffffffffffffffffffffffffffffffffffffff\n        /* \"#utility.yul\":12916:12990   */\n      sub\n        /* \"#utility.yul\":12913:12914   */\n      dup3\n        /* \"#utility.yul\":12910:12991   */\n      gt\n        /* \"#utility.yul\":12907:13014   */\n      iszero\n      tag_446\n      jumpi\n        /* \"#utility.yul\":12994:13012   */\n      tag_447\n      tag_289\n      jump\t// in\n    tag_447:\n        /* \"#utility.yul\":12907:13014   */\n    tag_446:\n        /* \"#utility.yul\":13038:13039   */\n      dup3\n        /* \"#utility.yul\":13035:13036   */\n      dup3\n        /* \"#utility.yul\":13031:13040   */\n      add\n        /* \"#utility.yul\":13024:13040   */\n      swap1\n      pop\n        /* \"#utility.yul\":12741:13046   */\n      swap3\n      swap2\n      pop\n      pop\n      jump\t// out\n        /* \"#utility.yul\":13052:13150   */\n    tag_290:\n        /* \"#utility.yul\":13103:13109   */\n      0x00\n        /* \"#utility.yul\":13137:13142   */\n      dup2\n        /* \"#utility.yul\":13131:13143   */\n      mload\n        /* \"#utility.yul\":13121:13143   */\n      swap1\n      pop\n        /* \"#utility.yul\":13052:13150   */\n      swap2\n      swap1\n      pop\n      jump\t// out\n        /* \"#utility.yul\":13156:13324   */\n    tag_291:\n        /* \"#utility.yul\":13239:13250   */\n      0x00\n        /* \"#utility.yul\":13273:13279   */\n      dup3\n        /* \"#utility.yul\":13268:13271   */\n      dup3\n        /* \"#utility.yul\":13261:13280   */\n      mstore\n        /* \"#utility.yul\":13313:13317   */\n      0x20\n        /* \"#utility.yul\":13308:13311   */\n      dup3\n        /* \"#utility.yul\":13304:13318   */\n      add\n        /* \"#utility.yul\":13289:13318   */\n      swap1\n      pop\n        /* \"#utility.yul\":13156:13324   */\n      swap3\n      swap2\n      pop\n      pop\n      jump\t// out\n        /* \"#utility.yul\":13330:13690   */\n    tag_292:\n        /* \"#utility.yul\":13416:13419   */\n      0x00\n        /* \"#utility.yul\":13444:13482   */\n      tag_451\n        /* \"#utility.yul\":13476:13481   */\n      dup3\n        /* \"#utility.yul\":13444:13482   */\n      tag_290\n      jump\t// in\n    tag_451:\n        /* \"#utility.yul\":13498:13568   */\n      tag_452\n        /* \"#utility.yul\":13561:13567   */\n      dup2\n        /* \"#utility.yul\":13556:13559   */\n      dup6\n        /* \"#utility.yul\":13498:13568   */\n      tag_291\n      jump\t// in\n    tag_452:\n        /* \"#utility.yul\":13491:13568   */\n      swap4\n      pop\n        /* \"#utility.yul\":13577:13629   */\n      tag_453\n        /* \"#utility.yul\":13622:13628   */\n      dup2\n        /* \"#utility.yul\":13617:13620   */\n      dup6\n        /* \"#utility.yul\":13610:13614   */\n      0x20\n        /* \"#utility.yul\":13603:13608   */\n      dup7\n        /* \"#utility.yul\":13599:13615   */\n      add\n        /* \"#utility.yul\":13577:13629   */\n      tag_264\n      jump\t// in\n    tag_453:\n        /* \"#utility.yul\":13654:13683   */\n      tag_454\n        /* \"#utility.yul\":13676:13682   */\n      dup2\n        /* \"#utility.yul\":13654:13683   */\n      tag_265\n      jump\t// in\n    tag_454:\n        /* \"#utility.yul\":13649:13652   */\n      dup5\n        /* \"#utility.yul\":13645:13684   */\n      add\n        /* \"#utility.yul\":13638:13684   */\n      swap2\n      pop\n        /* \"#utility.yul\":13420:13690   */\n      pop\n        /* \"#utility.yul\":13330:13690   */\n      swap3\n      swap2\n      pop\n      pop\n      jump\t// out\n        /* \"#utility.yul\":13696:14336   */\n    tag_216:\n        /* \"#utility.yul\":13891:13895   */\n      0x00\n        /* \"#utility.yul\":13929:13932   */\n      0x80\n        /* \"#utility.yul\":13918:13927   */\n      dup3\n        /* \"#utility.yul\":13914:13933   */\n      add\n        /* \"#utility.yul\":13906:13933   */\n      swap1\n      pop\n        /* \"#utility.yul\":13943:14014   */\n      tag_456\n        /* \"#utility.yul\":14011:14012   */\n      0x00\n        /* \"#utility.yul\":14000:14009   */\n      dup4\n        /* \"#utility.yul\":13996:14013   */\n      add\n        /* \"#utility.yul\":13987:13993   */\n      dup8\n        /* \"#utility.yul\":13943:14014   */\n      tag_272\n      jump\t// in\n    tag_456:\n        /* \"#utility.yul\":14024:14096   */\n      tag_457\n        /* \"#utility.yul\":14092:14094   */\n      0x20\n        /* \"#utility.yul\":14081:14090   */\n      dup4\n        /* \"#utility.yul\":14077:14095   */\n      add\n        /* \"#utility.yul\":14068:14074   */\n      dup7\n        /* \"#utility.yul\":14024:14096   */\n      tag_272\n      jump\t// in\n    tag_457:\n        /* \"#utility.yul\":14106:14178   */\n      tag_458\n        /* \"#utility.yul\":14174:14176   */\n      0x40\n        /* \"#utility.yul\":14163:14172   */\n      dup4\n        /* \"#utility.yul\":14159:14177   */\n      add\n        /* \"#utility.yul\":14150:14156   */\n      dup6\n        /* \"#utility.yul\":14106:14178   */\n      tag_275\n      jump\t// in\n    tag_458:\n        /* \"#utility.yul\":14225:14234   */\n      dup2\n        /* \"#utility.yul\":14219:14223   */\n      dup2\n        /* \"#utility.yul\":14215:14235   */\n      sub\n        /* \"#utility.yul\":14210:14212   */\n      0x60\n        /* \"#utility.yul\":14199:14208   */\n      dup4\n        /* \"#utility.yul\":14195:14213   */\n      add\n        /* \"#utility.yul\":14188:14236   */\n      mstore\n        /* \"#utility.yul\":14253:14329   */\n      tag_459\n        /* \"#utility.yul\":14324:14328   */\n      dup2\n        /* \"#utility.yul\":14315:14321   */\n      dup5\n        /* \"#utility.yul\":14253:14329   */\n      tag_292\n      jump\t// in\n    tag_459:\n        /* \"#utility.yul\":14245:14329   */\n      swap1\n      pop\n        /* \"#utility.yul\":13696:14336   */\n      swap6\n      swap5\n      pop\n      pop\n      pop\n      pop\n      pop\n      jump\t// out\n        /* \"#utility.yul\":14342:14483   */\n    tag_293:\n        /* \"#utility.yul\":14398:14403   */\n      0x00\n        /* \"#utility.yul\":14429:14435   */\n      dup2\n        /* \"#utility.yul\":14423:14436   */\n      mload\n        /* \"#utility.yul\":14414:14436   */\n      swap1\n      pop\n        /* \"#utility.yul\":14445:14477   */\n      tag_461\n        /* \"#utility.yul\":14471:14476   */\n      dup2\n        /* \"#utility.yul\":14445:14477   */\n      tag_258\n      jump\t// in\n    tag_461:\n        /* \"#utility.yul\":14342:14483   */\n      swap3\n      swap2\n      pop\n      pop\n      jump\t// out\n        /* \"#utility.yul\":14489:14838   */\n    tag_219:\n        /* \"#utility.yul\":14558:14564   */\n      0x00\n        /* \"#utility.yul\":14607:14609   */\n      0x20\n        /* \"#utility.yul\":14595:14604   */\n      dup3\n        /* \"#utility.yul\":14586:14593   */\n      dup5\n        /* \"#utility.yul\":14582:14605   */\n      sub\n        /* \"#utility.yul\":14578:14610   */\n      slt\n        /* \"#utility.yul\":14575:14694   */\n      iszero\n      tag_463\n      jumpi\n        /* \"#utility.yul\":14613:14692   */\n      tag_464\n      tag_255\n      jump\t// in\n    tag_464:\n        /* \"#utility.yul\":14575:14694   */\n    tag_463:\n        /* \"#utility.yul\":14733:14734   */\n      0x00\n        /* \"#utility.yul\":14758:14821   */\n      tag_465\n        /* \"#utility.yul\":14813:14820   */\n      dup5\n        /* \"#utility.yul\":14804:14810   */\n      dup3\n        /* \"#utility.yul\":14793:14802   */\n      dup6\n        /* \"#utility.yul\":14789:14811   */\n      add\n        /* \"#utility.yul\":14758:14821   */\n      tag_293\n      jump\t// in\n    tag_465:\n        /* \"#utility.yul\":14748:14821   */\n      swap2\n      pop\n        /* \"#utility.yul\":14704:14831   */\n      pop\n        /* \"#utility.yul\":14489:14838   */\n      swap3\n      swap2\n      pop\n      pop\n      jump\t// out\n        /* \"#utility.yul\":14844:15077   */\n    tag_235:\n        /* \"#utility.yul\":14883:14886   */\n      0x00\n        /* \"#utility.yul\":14906:14930   */\n      tag_467\n        /* \"#utility.yul\":14924:14929   */\n      dup3\n        /* \"#utility.yul\":14906:14930   */\n      tag_267\n      jump\t// in\n    tag_467:\n        /* \"#utility.yul\":14897:14930   */\n      swap2\n      pop\n        /* \"#utility.yul\":14952:15018   */\n      0xffffffffffffffffffffffffffffffffffffffffffffffffffffffffffffffff\n        /* \"#utility.yul\":14945:14950   */\n      dup3\n        /* \"#utility.yul\":14942:15019   */\n      sub\n        /* \"#utility.yul\":14939:15042   */\n      tag_468\n      jumpi\n        /* \"#utility.yul\":15022:15040   */\n      tag_469\n      tag_289\n      jump\t// in\n    tag_469:\n        /* \"#utility.yul\":14939:15042   */\n    tag_468:\n        /* \"#utility.yul\":15069:15070   */\n      0x01\n        /* \"#utility.yul\":15062:15067   */\n      dup3\n        /* \"#utility.yul\":15058:15071   */\n      add\n        /* \"#utility.yul\":15051:15071   */\n      swap1\n      pop\n        /* \"#utility.yul\":14844:15077   */\n      swap2\n      swap1\n      pop\n      jump\t// out\n        /* \"#utility.yul\":15083:15263   */\n    tag_294:\n        /* \"#utility.yul\":15131:15208   */\n      0x4e487b7100000000000000000000000000000000000000000000000000000000\n        /* \"#utility.yul\":15128:15129   */\n      0x00\n        /* \"#utility.yul\":15121:15209   */\n      mstore\n        /* \"#utility.yul\":15228:15232   */\n      0x12\n        /* \"#utility.yul\":15225:15226   */\n      0x04\n        /* \"#utility.yul\":15218:15233   */\n      mstore\n        /* \"#utility.yul\":15252:15256   */\n      0x24\n        /* \"#utility.yul\":15249:15250   */\n      0x00\n        /* \"#utility.yul\":15242:15257   */\n      revert\n        /* \"#utility.yul\":15269:15454   */\n    tag_237:\n        /* \"#utility.yul\":15309:15310   */\n      0x00\n        /* \"#utility.yul\":15326:15346   */\n      tag_472\n        /* \"#utility.yul\":15344:15345   */\n      dup3\n        /* \"#utility.yul\":15326:15346   */\n      tag_267\n      jump\t// in\n    tag_472:\n        /* \"#utility.yul\":15321:15346   */\n      swap2\n      pop\n        /* \"#utility.yul\":15360:15380   */\n      tag_473\n        /* \"#utility.yul\":15378:15379   */\n      dup4\n        /* \"#utility.yul\":15360:15380   */\n      tag_267\n      jump\t// in\n    tag_473:\n        /* \"#utility.yul\":15355:15380   */\n      swap3\n      pop\n        /* \"#utility.yul\":15399:15400   */\n      dup3\n        /* \"#utility.yul\":15389:15424   */\n      tag_474\n      jumpi\n        /* \"#utility.yul\":15404:15422   */\n      tag_475\n      tag_294\n      jump\t// in\n    tag_475:\n        /* \"#utility.yul\":15389:15424   */\n    tag_474:\n        /* \"#utility.yul\":15446:15447   */\n      dup3\n        /* \"#utility.yul\":15443:15444   */\n      dup3\n        /* \"#utility.yul\":15439:15448   */\n      div\n        /* \"#utility.yul\":15434:15448   */\n      swap1\n      pop\n        /* \"#utility.yul\":15269:15454   */\n      swap3\n      swap2\n      pop\n      pop\n      jump\t// out\n        /* \"#utility.yul\":15460:15636   */\n    tag_246:\n        /* \"#utility.yul\":15492:15493   */\n      0x00\n        /* \"#utility.yul\":15509:15529   */\n      tag_477\n        /* \"#utility.yul\":15527:15528   */\n      dup3\n        /* \"#utility.yul\":15509:15529   */\n      tag_267\n      jump\t// in\n    tag_477:\n        /* \"#utility.yul\":15504:15529   */\n      swap2\n      pop\n        /* \"#utility.yul\":15543:15563   */\n      tag_478\n        /* \"#utility.yul\":15561:15562   */\n      dup4\n        /* \"#utility.yul\":15543:15563   */\n      tag_267\n      jump\t// in\n    tag_478:\n        /* \"#utility.yul\":15538:15563   */\n      swap3\n      pop\n        /* \"#utility.yul\":15582:15583   */\n      dup3\n        /* \"#utility.yul\":15572:15607   */\n      tag_479\n      jumpi\n        /* \"#utility.yul\":15587:15605   */\n      tag_480\n      tag_294\n      jump\t// in\n    tag_480:\n        /* \"#utility.yul\":15572:15607   */\n    tag_479:\n        /* \"#utility.yul\":15628:15629   */\n      dup3\n        /* \"#utility.yul\":15625:15626   */\n      dup3\n        /* \"#utility.yul\":15621:15630   */\n      mod\n        /* \"#utility.yul\":15616:15630   */\n      swap1\n      pop\n        /* \"#utility.yul\":15460:15636   */\n      swap3\n      swap2\n      pop\n      pop\n      jump\t// out\n        /* \"#utility.yul\":15642:15822   */\n    tag_250:\n        /* \"#utility.yul\":15690:15767   */\n      0x4e487b7100000000000000000000000000000000000000000000000000000000\n        /* \"#utility.yul\":15687:15688   */\n      0x00\n        /* \"#utility.yul\":15680:15768   */\n      mstore\n        /* \"#utility.yul\":15787:15791   */\n      0x32\n        /* \"#utility.yul\":15784:15785   */\n      0x04\n        /* \"#utility.yul\":15777:15792   */\n      mstore\n        /* \"#utility.yul\":15811:15815   */\n      0x24\n        /* \"#utility.yul\":15808:15809   */\n      0x00\n        /* \"#utility.yul\":15801:15816   */\n      revert\n    stop\n    data_d8bb5093925f17312ccd69c1ad4eefb61d29f5f451bdf501cef244662be1efab 68747470733a2f2f676174657761792e70696e6174612e636c6f75642f697066732f516d6648576b7454625354424e4c7777385a446832716335444b71695a63696b6e6f7137365a665872736f5231762f\n\n    auxdata: 0xa26469706673582212200c97666107ffd7e2c8001b195322bdd62e1bdc4bdc9edb8b885e27ca4f50dc6c64736f6c634300080d0033\n}\n",
				"bytecode": {
					"linkReferences": {},
					"object": "60806040523480156200001157600080fd5b506040516200261a3803806200261a8339818101604052810190620000379190620002dd565b81600290805190602001906200004f92919062000090565b5080600390805190602001906200006892919062000090565b50620000796200008760201b60201c565b6000819055505050620003c6565b60006001905090565b8280546200009e9062000391565b90600052602060002090601f016020900481019282620000c257600085556200010e565b82601f10620000dd57805160ff19168380011785556200010e565b828001600101855582156200010e579182015b828111156200010d578251825591602001919060010190620000f0565b5b5090506200011d919062000121565b5090565b5b808211156200013c57600081600090555060010162000122565b5090565b6000604051905090565b600080fd5b600080fd5b600080fd5b600080fd5b6000601f19601f8301169050919050565b7f4e487b7100000000000000000000000000000000000000000000000000000000600052604160045260246000fd5b620001a9826200015e565b810181811067ffffffffffffffff82111715620001cb57620001ca6200016f565b5b80604052505050565b6000620001e062000140565b9050620001ee82826200019e565b919050565b600067ffffffffffffffff8211156200021157620002106200016f565b5b6200021c826200015e565b9050602081019050919050565b60005b83811015620002495780820151818401526020810190506200022c565b8381111562000259576000848401525b50505050565b6000620002766200027084620001f3565b620001d4565b90508281526020810184848401111562000295576200029462000159565b5b620002a284828562000229565b509392505050565b600082601f830112620002c257620002c162000154565b5b8151620002d48482602086016200025f565b91505092915050565b60008060408385031215620002f757620002f66200014a565b5b600083015167ffffffffffffffff8111156200031857620003176200014f565b5b6200032685828601620002aa565b925050602083015167ffffffffffffffff8111156200034a57620003496200014f565b5b6200035885828601620002aa565b9150509250929050565b7f4e487b7100000000000000000000000000000000000000000000000000000000600052602260045260246000fd5b60006002820490506001821680620003aa57607f821691505b602082108103620003c057620003bf62000362565b5b50919050565b61224480620003d66000396000f3fe608060405234801561001057600080fd5b50600436106100f55760003560e01c806342842e0e11610097578063a22cb46511610066578063a22cb46514610298578063b88d4fde146102b4578063c87b56dd146102d0578063e985e9c514610300576100f5565b806342842e0e146101fe5780636352211e1461021a57806370a082311461024a57806395d89b411461027a576100f5565b8063095ea7b3116100d3578063095ea7b31461017857806318160ddd1461019457806323b872dd146101b2578063325b272a146101ce576100f5565b806301ffc9a7146100fa57806306fdde031461012a578063081812fc14610148575b600080fd5b610114600480360381019061010f91906118a8565b610330565b60405161012191906118f0565b60405180910390f35b610132610412565b60405161013f91906119a4565b60405180910390f35b610162600480360381019061015d91906119fc565b6104a4565b60405161016f9190611a6a565b60405180910390f35b610192600480360381019061018d9190611ab1565b610520565b005b61019c610624565b6040516101a99190611b00565b60405180910390f35b6101cc60048036038101906101c79190611b1b565b61063b565b005b6101e860048036038101906101e39190611b6e565b61064b565b6040516101f59190611b00565b60405180910390f35b61021860048036038101906102139190611b1b565b610746565b005b610234600480360381019061022f91906119fc565b610766565b6040516102419190611a6a565b60405180910390f35b610264600480360381019061025f9190611b6e565b61077c565b6040516102719190611b00565b60405180910390f35b61028261084b565b60405161028f91906119a4565b60405180910390f35b6102b260048036038101906102ad9190611bc7565b6108dd565b005b6102ce60048036038101906102c99190611d3c565b610a54565b005b6102ea60048036038101906102e591906119fc565b610acc565b6040516102f791906119a4565b60405180910390f35b61031a60048036038101906103159190611dbf565b610b6a565b60405161032791906118f0565b60405180910390f35b60007f80ac58cd000000000000000000000000000000000000000000000000000000007bffffffffffffffffffffffffffffffffffffffffffffffffffffffff1916827bffffffffffffffffffffffffffffffffffffffffffffffffffffffff191614806103fb57507f5b5e139f000000000000000000000000000000000000000000000000000000007bffffffffffffffffffffffffffffffffffffffffffffffffffffffff1916827bffffffffffffffffffffffffffffffffffffffffffffffffffffffff1916145b8061040b575061040a82610bfe565b5b9050919050565b60606002805461042190611e2e565b80601f016020809104026020016040519081016040528092919081815260200182805461044d90611e2e565b801561049a5780601f1061046f5761010080835404028352916020019161049a565b820191906000526020600020905b81548152906001019060200180831161047d57829003601f168201915b5050505050905090565b60006104af82610c68565b6104e5576040517fcf4700e400000000000000000000000000000000000000000000000000000000815260040160405180910390fd5b6006600083815260200190815260200160002060009054906101000a900473ffffffffffffffffffffffffffffffffffffffff169050919050565b600061052b82610766565b90508073ffffffffffffffffffffffffffffffffffffffff168373ffffffffffffffffffffffffffffffffffffffff1603610592576040517f943f7b8c00000000000000000000000000000000000000000000000000000000815260040160405180910390fd5b8073ffffffffffffffffffffffffffffffffffffffff166105b1610cb6565b73ffffffffffffffffffffffffffffffffffffffff1614610614576105dd816105d8610cb6565b610b6a565b610613576040517fcfb3b94200000000000000000000000000000000000000000000000000000000815260040160405180910390fd5b5b61061f838383610cbe565b505050565b600061062e610d70565b6001546000540303905090565b610646838383610d79565b505050565b6000806106b2600860008573ffffffffffffffffffffffffffffffffffffffff1673ffffffffffffffffffffffffffffffffffffffff168152602001908152602001600020600060018152602001908152602001600020544361122d90919063ffffffff16565b905060006106d1826106c38661077c565b61124390919063ffffffff16565b9050600061073982600860008873ffffffffffffffffffffffffffffffffffffffff1673ffffffffffffffffffffffffffffffffffffffff1681526020019081526020016000206000600281526020019081526020016000205461125990919063ffffffff16565b9050809350505050919050565b61076183838360405180602001604052806000815250610a54565b505050565b60006107718261126f565b600001519050919050565b60008073ffffffffffffffffffffffffffffffffffffffff168273ffffffffffffffffffffffffffffffffffffffff16036107e3576040517f8f4eb60400000000000000000000000000000000000000000000000000000000815260040160405180910390fd5b600560008373ffffffffffffffffffffffffffffffffffffffff1673ffffffffffffffffffffffffffffffffffffffff16815260200190815260200160002060000160009054906101000a900467ffffffffffffffff1667ffffffffffffffff169050919050565b60606003805461085a90611e2e565b80601f016020809104026020016040519081016040528092919081815260200182805461088690611e2e565b80156108d35780601f106108a8576101008083540402835291602001916108d3565b820191906000526020600020905b8154815290600101906020018083116108b657829003601f168201915b5050505050905090565b6108e5610cb6565b73ffffffffffffffffffffffffffffffffffffffff168273ffffffffffffffffffffffffffffffffffffffff1603610949576040517fb06307db00000000000000000000000000000000000000000000000000000000815260040160405180910390fd5b8060076000610956610cb6565b73ffffffffffffffffffffffffffffffffffffffff1673ffffffffffffffffffffffffffffffffffffffff16815260200190815260200160002060008473ffffffffffffffffffffffffffffffffffffffff1673ffffffffffffffffffffffffffffffffffffffff16815260200190815260200160002060006101000a81548160ff0219169083151502179055508173ffffffffffffffffffffffffffffffffffffffff16610a03610cb6565b73ffffffffffffffffffffffffffffffffffffffff167f17307eab39ab6107e8899845ad3d59bd9653f200f220920489ca2b5937696c3183604051610a4891906118f0565b60405180910390a35050565b610a5f848484610d79565b610a7e8373ffffffffffffffffffffffffffffffffffffffff166114fa565b15610ac657610a8f8484848461151d565b610ac5576040517fd1a57ed600000000000000000000000000000000000000000000000000000000815260040160405180910390fd5b5b50505050565b6060610ad782610c68565b610b0d576040517fa14c4b5000000000000000000000000000000000000000000000000000000000815260040160405180910390fd5b6000610b1761166d565b90506000815103610b375760405180602001604052806000815250610b62565b80610b418461168d565b604051602001610b52929190611e9b565b6040516020818303038152906040525b915050919050565b6000600760008473ffffffffffffffffffffffffffffffffffffffff1673ffffffffffffffffffffffffffffffffffffffff16815260200190815260200160002060008373ffffffffffffffffffffffffffffffffffffffff1673ffffffffffffffffffffffffffffffffffffffff16815260200190815260200160002060009054906101000a900460ff16905092915050565b60007f01ffc9a7000000000000000000000000000000000000000000000000000000007bffffffffffffffffffffffffffffffffffffffffffffffffffffffff1916827bffffffffffffffffffffffffffffffffffffffffffffffffffffffff1916149050919050565b600081610c73610d70565b11158015610c82575060005482105b8015610caf575060046000838152602001908152602001600020600001601c9054906101000a900460ff16155b9050919050565b600033905090565b826006600084815260200190815260200160002060006101000a81548173ffffffffffffffffffffffffffffffffffffffff021916908373ffffffffffffffffffffffffffffffffffffffff160217905550818373ffffffffffffffffffffffffffffffffffffffff168273ffffffffffffffffffffffffffffffffffffffff167f8c5be1e5ebec7d5bd14f71427d1e84f3dd0314c0f7b2291e5b200ac8c7c3b92560405160405180910390a4505050565b60006001905090565b6000610d848261126f565b90508373ffffffffffffffffffffffffffffffffffffffff16816000015173ffffffffffffffffffffffffffffffffffffffff1614610def576040517fa114810000000000000000000000000000000000000000000000000000000000815260040160405180910390fd5b60008473ffffffffffffffffffffffffffffffffffffffff16610e10610cb6565b73ffffffffffffffffffffffffffffffffffffffff161480610e3f5750610e3e85610e39610cb6565b610b6a565b5b80610e845750610e4d610cb6565b73ffffffffffffffffffffffffffffffffffffffff16610e6c846104a4565b73ffffffffffffffffffffffffffffffffffffffff16145b905080610ebd576040517f59c896be00000000000000000000000000000000000000000000000000000000815260040160405180910390fd5b600073ffffffffffffffffffffffffffffffffffffffff168473ffffffffffffffffffffffffffffffffffffffff1603610f23576040517fea553b3400000000000000000000000000000000000000000000000000000000815260040160405180910390fd5b610f3085858560016117ed565b610f3c60008487610cbe565b6001600560008773ffffffffffffffffffffffffffffffffffffffff1673ffffffffffffffffffffffffffffffffffffffff16815260200190815260200160002060000160008282829054906101000a900467ffffffffffffffff160392506101000a81548167ffffffffffffffff021916908367ffffffffffffffff1602179055506001600560008673ffffffffffffffffffffffffffffffffffffffff1673ffffffffffffffffffffffffffffffffffffffff16815260200190815260200160002060000160008282829054906101000a900467ffffffffffffffff160192506101000a81548167ffffffffffffffff021916908367ffffffffffffffff1602179055506000600460008581526020019081526020016000209050848160000160006101000a81548173ffffffffffffffffffffffffffffffffffffffff021916908373ffffffffffffffffffffffffffffffffffffffff160217905550428160000160146101000a81548167ffffffffffffffff021916908367ffffffffffffffff16021790555060006001850190506000600460008381526020019081526020016000209050600073ffffffffffffffffffffffffffffffffffffffff168160000160009054906101000a900473ffffffffffffffffffffffffffffffffffffffff1673ffffffffffffffffffffffffffffffffffffffff16036111bb5760005482146111ba57878160000160006101000a81548173ffffffffffffffffffffffffffffffffffffffff021916908373ffffffffffffffffffffffffffffffffffffffff16021790555084602001518160000160146101000a81548167ffffffffffffffff021916908367ffffffffffffffff1602179055505b5b505050828473ffffffffffffffffffffffffffffffffffffffff168673ffffffffffffffffffffffffffffffffffffffff167fddf252ad1be2c89b69c2b068fc378daa952ba7f163c4a11628f55a4df523b3ef60405160405180910390a461122685858560016117f3565b5050505050565b6000818361123b9190611eee565b905092915050565b600081836112519190611f22565b905092915050565b600081836112679190611f7c565b905092915050565b6112776117f9565b600082905080611285610d70565b116114c3576000548110156114c2576000600460008381526020019081526020016000206040518060600160405290816000820160009054906101000a900473ffffffffffffffffffffffffffffffffffffffff1673ffffffffffffffffffffffffffffffffffffffff1673ffffffffffffffffffffffffffffffffffffffff1681526020016000820160149054906101000a900467ffffffffffffffff1667ffffffffffffffff1667ffffffffffffffff16815260200160008201601c9054906101000a900460ff161515151581525050905080604001516114c057600073ffffffffffffffffffffffffffffffffffffffff16816000015173ffffffffffffffffffffffffffffffffffffffff16146113a45780925050506114f5565b5b6001156114bf57818060019003925050600460008381526020019081526020016000206040518060600160405290816000820160009054906101000a900473ffffffffffffffffffffffffffffffffffffffff1673ffffffffffffffffffffffffffffffffffffffff1673ffffffffffffffffffffffffffffffffffffffff1681526020016000820160149054906101000a900467ffffffffffffffff1667ffffffffffffffff1667ffffffffffffffff16815260200160008201601c9054906101000a900460ff1615151515815250509050600073ffffffffffffffffffffffffffffffffffffffff16816000015173ffffffffffffffffffffffffffffffffffffffff16146114ba5780925050506114f5565b6113a5565b5b505b5b6040517fdf2d9b4200000000000000000000000000000000000000000000000000000000815260040160405180910390fd5b919050565b6000808273ffffffffffffffffffffffffffffffffffffffff163b119050919050565b60008373ffffffffffffffffffffffffffffffffffffffff1663150b7a02611543610cb6565b8786866040518563ffffffff1660e01b81526004016115659493929190612027565b6020604051808303816000875af19250505080156115a157506040513d601f19601f8201168201806040525081019061159e9190612088565b60015b61161a573d80600081146115d1576040519150601f19603f3d011682016040523d82523d6000602084013e6115d6565b606091505b506000815103611612576040517fd1a57ed600000000000000000000000000000000000000000000000000000000815260040160405180910390fd5b805181602001fd5b63150b7a0260e01b7bffffffffffffffffffffffffffffffffffffffffffffffffffffffff1916817bffffffffffffffffffffffffffffffffffffffffffffffffffffffff191614915050949350505050565b60606040518060800160405280605181526020016121be60519139905090565b6060600082036116d4576040518060400160405280600181526020017f300000000000000000000000000000000000000000000000000000000000000081525090506117e8565b600082905060005b600082146117065780806116ef906120b5565b915050600a826116ff919061212c565b91506116dc565b60008167ffffffffffffffff81111561172257611721611c11565b5b6040519080825280601f01601f1916602001820160405280156117545781602001600182028036833780820191505090505b5090505b600085146117e15760018261176d9190611eee565b9150600a8561177c919061215d565b60306117889190611f7c565b60f81b81838151811061179e5761179d61218e565b5b60200101907effffffffffffffffffffffffffffffffffffffffffffffffffffffffffffff1916908160001a905350600a856117da919061212c565b9450611758565b8093505050505b919050565b50505050565b50505050565b6040518060600160405280600073ffffffffffffffffffffffffffffffffffffffff168152602001600067ffffffffffffffff1681526020016000151581525090565b6000604051905090565b600080fd5b600080fd5b60007fffffffff0000000000000000000000000000000000000000000000000000000082169050919050565b61188581611850565b811461189057600080fd5b50565b6000813590506118a28161187c565b92915050565b6000602082840312156118be576118bd611846565b5b60006118cc84828501611893565b91505092915050565b60008115159050919050565b6118ea816118d5565b82525050565b600060208201905061190560008301846118e1565b92915050565b600081519050919050565b600082825260208201905092915050565b60005b8381101561194557808201518184015260208101905061192a565b83811115611954576000848401525b50505050565b6000601f19601f8301169050919050565b60006119768261190b565b6119808185611916565b9350611990818560208601611927565b6119998161195a565b840191505092915050565b600060208201905081810360008301526119be818461196b565b905092915050565b6000819050919050565b6119d9816119c6565b81146119e457600080fd5b50565b6000813590506119f6816119d0565b92915050565b600060208284031215611a1257611a11611846565b5b6000611a20848285016119e7565b91505092915050565b600073ffffffffffffffffffffffffffffffffffffffff82169050919050565b6000611a5482611a29565b9050919050565b611a6481611a49565b82525050565b6000602082019050611a7f6000830184611a5b565b92915050565b611a8e81611a49565b8114611a9957600080fd5b50565b600081359050611aab81611a85565b92915050565b60008060408385031215611ac857611ac7611846565b5b6000611ad685828601611a9c565b9250506020611ae7858286016119e7565b9150509250929050565b611afa816119c6565b82525050565b6000602082019050611b156000830184611af1565b92915050565b600080600060608486031215611b3457611b33611846565b5b6000611b4286828701611a9c565b9350506020611b5386828701611a9c565b9250506040611b64868287016119e7565b9150509250925092565b600060208284031215611b8457611b83611846565b5b6000611b9284828501611a9c565b91505092915050565b611ba4816118d5565b8114611baf57600080fd5b50565b600081359050611bc181611b9b565b92915050565b60008060408385031215611bde57611bdd611846565b5b6000611bec85828601611a9c565b9250506020611bfd85828601611bb2565b9150509250929050565b600080fd5b600080fd5b7f4e487b7100000000000000000000000000000000000000000000000000000000600052604160045260246000fd5b611c498261195a565b810181811067ffffffffffffffff82111715611c6857611c67611c11565b5b80604052505050565b6000611c7b61183c565b9050611c878282611c40565b919050565b600067ffffffffffffffff821115611ca757611ca6611c11565b5b611cb08261195a565b9050602081019050919050565b82818337600083830152505050565b6000611cdf611cda84611c8c565b611c71565b905082815260208101848484011115611cfb57611cfa611c0c565b5b611d06848285611cbd565b509392505050565b600082601f830112611d2357611d22611c07565b5b8135611d33848260208601611ccc565b91505092915050565b60008060008060808587031215611d5657611d55611846565b5b6000611d6487828801611a9c565b9450506020611d7587828801611a9c565b9350506040611d86878288016119e7565b925050606085013567ffffffffffffffff811115611da757611da661184b565b5b611db387828801611d0e565b91505092959194509250565b60008060408385031215611dd657611dd5611846565b5b6000611de485828601611a9c565b9250506020611df585828601611a9c565b9150509250929050565b7f4e487b7100000000000000000000000000000000000000000000000000000000600052602260045260246000fd5b60006002820490506001821680611e4657607f821691505b602082108103611e5957611e58611dff565b5b50919050565b600081905092915050565b6000611e758261190b565b611e7f8185611e5f565b9350611e8f818560208601611927565b80840191505092915050565b6000611ea78285611e6a565b9150611eb38284611e6a565b91508190509392505050565b7f4e487b7100000000000000000000000000000000000000000000000000000000600052601160045260246000fd5b6000611ef9826119c6565b9150611f04836119c6565b925082821015611f1757611f16611ebf565b5b828203905092915050565b6000611f2d826119c6565b9150611f38836119c6565b9250817fffffffffffffffffffffffffffffffffffffffffffffffffffffffffffffffff0483118215151615611f7157611f70611ebf565b5b828202905092915050565b6000611f87826119c6565b9150611f92836119c6565b9250827fffffffffffffffffffffffffffffffffffffffffffffffffffffffffffffffff03821115611fc757611fc6611ebf565b5b828201905092915050565b600081519050919050565b600082825260208201905092915050565b6000611ff982611fd2565b6120038185611fdd565b9350612013818560208601611927565b61201c8161195a565b840191505092915050565b600060808201905061203c6000830187611a5b565b6120496020830186611a5b565b6120566040830185611af1565b81810360608301526120688184611fee565b905095945050505050565b6000815190506120828161187c565b92915050565b60006020828403121561209e5761209d611846565b5b60006120ac84828501612073565b91505092915050565b60006120c0826119c6565b91507fffffffffffffffffffffffffffffffffffffffffffffffffffffffffffffffff82036120f2576120f1611ebf565b5b600182019050919050565b7f4e487b7100000000000000000000000000000000000000000000000000000000600052601260045260246000fd5b6000612137826119c6565b9150612142836119c6565b925082612152576121516120fd565b5b828204905092915050565b6000612168826119c6565b9150612173836119c6565b925082612183576121826120fd565b5b828206905092915050565b7f4e487b7100000000000000000000000000000000000000000000000000000000600052603260045260246000fdfe68747470733a2f2f676174657761792e70696e6174612e636c6f75642f697066732f516d6648576b7454625354424e4c7777385a446832716335444b71695a63696b6e6f7137365a665872736f5231762fa26469706673582212200c97666107ffd7e2c8001b195322bdd62e1bdc4bdc9edb8b885e27ca4f50dc6c64736f6c634300080d0033",
					"opcodes": "PUSH1 0x80 PUSH1 0x40 MSTORE CALLVALUE DUP1 ISZERO PUSH3 0x11 JUMPI PUSH1 0x0 DUP1 REVERT JUMPDEST POP PUSH1 0x40 MLOAD PUSH3 0x261A CODESIZE SUB DUP1 PUSH3 0x261A DUP4 CODECOPY DUP2 DUP2 ADD PUSH1 0x40 MSTORE DUP2 ADD SWAP1 PUSH3 0x37 SWAP2 SWAP1 PUSH3 0x2DD JUMP JUMPDEST DUP2 PUSH1 0x2 SWAP1 DUP1 MLOAD SWAP1 PUSH1 0x20 ADD SWAP1 PUSH3 0x4F SWAP3 SWAP2 SWAP1 PUSH3 0x90 JUMP JUMPDEST POP DUP1 PUSH1 0x3 SWAP1 DUP1 MLOAD SWAP1 PUSH1 0x20 ADD SWAP1 PUSH3 0x68 SWAP3 SWAP2 SWAP1 PUSH3 0x90 JUMP JUMPDEST POP PUSH3 0x79 PUSH3 0x87 PUSH1 0x20 SHL PUSH1 0x20 SHR JUMP JUMPDEST PUSH1 0x0 DUP2 SWAP1 SSTORE POP POP POP PUSH3 0x3C6 JUMP JUMPDEST PUSH1 0x0 PUSH1 0x1 SWAP1 POP SWAP1 JUMP JUMPDEST DUP3 DUP1 SLOAD PUSH3 0x9E SWAP1 PUSH3 0x391 JUMP JUMPDEST SWAP1 PUSH1 0x0 MSTORE PUSH1 0x20 PUSH1 0x0 KECCAK256 SWAP1 PUSH1 0x1F ADD PUSH1 0x20 SWAP1 DIV DUP2 ADD SWAP3 DUP3 PUSH3 0xC2 JUMPI PUSH1 0x0 DUP6 SSTORE PUSH3 0x10E JUMP JUMPDEST DUP3 PUSH1 0x1F LT PUSH3 0xDD JUMPI DUP1 MLOAD PUSH1 0xFF NOT AND DUP4 DUP1 ADD OR DUP6 SSTORE PUSH3 0x10E JUMP JUMPDEST DUP3 DUP1 ADD PUSH1 0x1 ADD DUP6 SSTORE DUP3 ISZERO PUSH3 0x10E JUMPI SWAP2 DUP3 ADD JUMPDEST DUP3 DUP2 GT ISZERO PUSH3 0x10D JUMPI DUP3 MLOAD DUP3 SSTORE SWAP2 PUSH1 0x20 ADD SWAP2 SWAP1 PUSH1 0x1 ADD SWAP1 PUSH3 0xF0 JUMP JUMPDEST JUMPDEST POP SWAP1 POP PUSH3 0x11D SWAP2 SWAP1 PUSH3 0x121 JUMP JUMPDEST POP SWAP1 JUMP JUMPDEST JUMPDEST DUP1 DUP3 GT ISZERO PUSH3 0x13C JUMPI PUSH1 0x0 DUP2 PUSH1 0x0 SWAP1 SSTORE POP PUSH1 0x1 ADD PUSH3 0x122 JUMP JUMPDEST POP SWAP1 JUMP JUMPDEST PUSH1 0x0 PUSH1 0x40 MLOAD SWAP1 POP SWAP1 JUMP JUMPDEST PUSH1 0x0 DUP1 REVERT JUMPDEST PUSH1 0x0 DUP1 REVERT JUMPDEST PUSH1 0x0 DUP1 REVERT JUMPDEST PUSH1 0x0 DUP1 REVERT JUMPDEST PUSH1 0x0 PUSH1 0x1F NOT PUSH1 0x1F DUP4 ADD AND SWAP1 POP SWAP2 SWAP1 POP JUMP JUMPDEST PUSH32 0x4E487B7100000000000000000000000000000000000000000000000000000000 PUSH1 0x0 MSTORE PUSH1 0x41 PUSH1 0x4 MSTORE PUSH1 0x24 PUSH1 0x0 REVERT JUMPDEST PUSH3 0x1A9 DUP3 PUSH3 0x15E JUMP JUMPDEST DUP2 ADD DUP2 DUP2 LT PUSH8 0xFFFFFFFFFFFFFFFF DUP3 GT OR ISZERO PUSH3 0x1CB JUMPI PUSH3 0x1CA PUSH3 0x16F JUMP JUMPDEST JUMPDEST DUP1 PUSH1 0x40 MSTORE POP POP POP JUMP JUMPDEST PUSH1 0x0 PUSH3 0x1E0 PUSH3 0x140 JUMP JUMPDEST SWAP1 POP PUSH3 0x1EE DUP3 DUP3 PUSH3 0x19E JUMP JUMPDEST SWAP2 SWAP1 POP JUMP JUMPDEST PUSH1 0x0 PUSH8 0xFFFFFFFFFFFFFFFF DUP3 GT ISZERO PUSH3 0x211 JUMPI PUSH3 0x210 PUSH3 0x16F JUMP JUMPDEST JUMPDEST PUSH3 0x21C DUP3 PUSH3 0x15E JUMP JUMPDEST SWAP1 POP PUSH1 0x20 DUP2 ADD SWAP1 POP SWAP2 SWAP1 POP JUMP JUMPDEST PUSH1 0x0 JUMPDEST DUP4 DUP2 LT ISZERO PUSH3 0x249 JUMPI DUP1 DUP3 ADD MLOAD DUP2 DUP5 ADD MSTORE PUSH1 0x20 DUP2 ADD SWAP1 POP PUSH3 0x22C JUMP JUMPDEST DUP4 DUP2 GT ISZERO PUSH3 0x259 JUMPI PUSH1 0x0 DUP5 DUP5 ADD MSTORE JUMPDEST POP POP POP POP JUMP JUMPDEST PUSH1 0x0 PUSH3 0x276 PUSH3 0x270 DUP5 PUSH3 0x1F3 JUMP JUMPDEST PUSH3 0x1D4 JUMP JUMPDEST SWAP1 POP DUP3 DUP2 MSTORE PUSH1 0x20 DUP2 ADD DUP5 DUP5 DUP5 ADD GT ISZERO PUSH3 0x295 JUMPI PUSH3 0x294 PUSH3 0x159 JUMP JUMPDEST JUMPDEST PUSH3 0x2A2 DUP5 DUP3 DUP6 PUSH3 0x229 JUMP JUMPDEST POP SWAP4 SWAP3 POP POP POP JUMP JUMPDEST PUSH1 0x0 DUP3 PUSH1 0x1F DUP4 ADD SLT PUSH3 0x2C2 JUMPI PUSH3 0x2C1 PUSH3 0x154 JUMP JUMPDEST JUMPDEST DUP2 MLOAD PUSH3 0x2D4 DUP5 DUP3 PUSH1 0x20 DUP7 ADD PUSH3 0x25F JUMP JUMPDEST SWAP2 POP POP SWAP3 SWAP2 POP POP JUMP JUMPDEST PUSH1 0x0 DUP1 PUSH1 0x40 DUP4 DUP6 SUB SLT ISZERO PUSH3 0x2F7 JUMPI PUSH3 0x2F6 PUSH3 0x14A JUMP JUMPDEST JUMPDEST PUSH1 0x0 DUP4 ADD MLOAD PUSH8 0xFFFFFFFFFFFFFFFF DUP2 GT ISZERO PUSH3 0x318 JUMPI PUSH3 0x317 PUSH3 0x14F JUMP JUMPDEST JUMPDEST PUSH3 0x326 DUP6 DUP3 DUP7 ADD PUSH3 0x2AA JUMP JUMPDEST SWAP3 POP POP PUSH1 0x20 DUP4 ADD MLOAD PUSH8 0xFFFFFFFFFFFFFFFF DUP2 GT ISZERO PUSH3 0x34A JUMPI PUSH3 0x349 PUSH3 0x14F JUMP JUMPDEST JUMPDEST PUSH3 0x358 DUP6 DUP3 DUP7 ADD PUSH3 0x2AA JUMP JUMPDEST SWAP2 POP POP SWAP3 POP SWAP3 SWAP1 POP JUMP JUMPDEST PUSH32 0x4E487B7100000000000000000000000000000000000000000000000000000000 PUSH1 0x0 MSTORE PUSH1 0x22 PUSH1 0x4 MSTORE PUSH1 0x24 PUSH1 0x0 REVERT JUMPDEST PUSH1 0x0 PUSH1 0x2 DUP3 DIV SWAP1 POP PUSH1 0x1 DUP3 AND DUP1 PUSH3 0x3AA JUMPI PUSH1 0x7F DUP3 AND SWAP2 POP JUMPDEST PUSH1 0x20 DUP3 LT DUP2 SUB PUSH3 0x3C0 JUMPI PUSH3 0x3BF PUSH3 0x362 JUMP JUMPDEST JUMPDEST POP SWAP2 SWAP1 POP JUMP JUMPDEST PUSH2 0x2244 DUP1 PUSH3 0x3D6 PUSH1 0x0 CODECOPY PUSH1 0x0 RETURN INVALID PUSH1 0x80 PUSH1 0x40 MSTORE CALLVALUE DUP1 ISZERO PUSH2 0x10 JUMPI PUSH1 0x0 DUP1 REVERT JUMPDEST POP PUSH1 0x4 CALLDATASIZE LT PUSH2 0xF5 JUMPI PUSH1 0x0 CALLDATALOAD PUSH1 0xE0 SHR DUP1 PUSH4 0x42842E0E GT PUSH2 0x97 JUMPI DUP1 PUSH4 0xA22CB465 GT PUSH2 0x66 JUMPI DUP1 PUSH4 0xA22CB465 EQ PUSH2 0x298 JUMPI DUP1 PUSH4 0xB88D4FDE EQ PUSH2 0x2B4 JUMPI DUP1 PUSH4 0xC87B56DD EQ PUSH2 0x2D0 JUMPI DUP1 PUSH4 0xE985E9C5 EQ PUSH2 0x300 JUMPI PUSH2 0xF5 JUMP JUMPDEST DUP1 PUSH4 0x42842E0E EQ PUSH2 0x1FE JUMPI DUP1 PUSH4 0x6352211E EQ PUSH2 0x21A JUMPI DUP1 PUSH4 0x70A08231 EQ PUSH2 0x24A JUMPI DUP1 PUSH4 0x95D89B41 EQ PUSH2 0x27A JUMPI PUSH2 0xF5 JUMP JUMPDEST DUP1 PUSH4 0x95EA7B3 GT PUSH2 0xD3 JUMPI DUP1 PUSH4 0x95EA7B3 EQ PUSH2 0x178 JUMPI DUP1 PUSH4 0x18160DDD EQ PUSH2 0x194 JUMPI DUP1 PUSH4 0x23B872DD EQ PUSH2 0x1B2 JUMPI DUP1 PUSH4 0x325B272A EQ PUSH2 0x1CE JUMPI PUSH2 0xF5 JUMP JUMPDEST DUP1 PUSH4 0x1FFC9A7 EQ PUSH2 0xFA JUMPI DUP1 PUSH4 0x6FDDE03 EQ PUSH2 0x12A JUMPI DUP1 PUSH4 0x81812FC EQ PUSH2 0x148 JUMPI JUMPDEST PUSH1 0x0 DUP1 REVERT JUMPDEST PUSH2 0x114 PUSH1 0x4 DUP1 CALLDATASIZE SUB DUP2 ADD SWAP1 PUSH2 0x10F SWAP2 SWAP1 PUSH2 0x18A8 JUMP JUMPDEST PUSH2 0x330 JUMP JUMPDEST PUSH1 0x40 MLOAD PUSH2 0x121 SWAP2 SWAP1 PUSH2 0x18F0 JUMP JUMPDEST PUSH1 0x40 MLOAD DUP1 SWAP2 SUB SWAP1 RETURN JUMPDEST PUSH2 0x132 PUSH2 0x412 JUMP JUMPDEST PUSH1 0x40 MLOAD PUSH2 0x13F SWAP2 SWAP1 PUSH2 0x19A4 JUMP JUMPDEST PUSH1 0x40 MLOAD DUP1 SWAP2 SUB SWAP1 RETURN JUMPDEST PUSH2 0x162 PUSH1 0x4 DUP1 CALLDATASIZE SUB DUP2 ADD SWAP1 PUSH2 0x15D SWAP2 SWAP1 PUSH2 0x19FC JUMP JUMPDEST PUSH2 0x4A4 JUMP JUMPDEST PUSH1 0x40 MLOAD PUSH2 0x16F SWAP2 SWAP1 PUSH2 0x1A6A JUMP JUMPDEST PUSH1 0x40 MLOAD DUP1 SWAP2 SUB SWAP1 RETURN JUMPDEST PUSH2 0x192 PUSH1 0x4 DUP1 CALLDATASIZE SUB DUP2 ADD SWAP1 PUSH2 0x18D SWAP2 SWAP1 PUSH2 0x1AB1 JUMP JUMPDEST PUSH2 0x520 JUMP JUMPDEST STOP JUMPDEST PUSH2 0x19C PUSH2 0x624 JUMP JUMPDEST PUSH1 0x40 MLOAD PUSH2 0x1A9 SWAP2 SWAP1 PUSH2 0x1B00 JUMP JUMPDEST PUSH1 0x40 MLOAD DUP1 SWAP2 SUB SWAP1 RETURN JUMPDEST PUSH2 0x1CC PUSH1 0x4 DUP1 CALLDATASIZE SUB DUP2 ADD SWAP1 PUSH2 0x1C7 SWAP2 SWAP1 PUSH2 0x1B1B JUMP JUMPDEST PUSH2 0x63B JUMP JUMPDEST STOP JUMPDEST PUSH2 0x1E8 PUSH1 0x4 DUP1 CALLDATASIZE SUB DUP2 ADD SWAP1 PUSH2 0x1E3 SWAP2 SWAP1 PUSH2 0x1B6E JUMP JUMPDEST PUSH2 0x64B JUMP JUMPDEST PUSH1 0x40 MLOAD PUSH2 0x1F5 SWAP2 SWAP1 PUSH2 0x1B00 JUMP JUMPDEST PUSH1 0x40 MLOAD DUP1 SWAP2 SUB SWAP1 RETURN JUMPDEST PUSH2 0x218 PUSH1 0x4 DUP1 CALLDATASIZE SUB DUP2 ADD SWAP1 PUSH2 0x213 SWAP2 SWAP1 PUSH2 0x1B1B JUMP JUMPDEST PUSH2 0x746 JUMP JUMPDEST STOP JUMPDEST PUSH2 0x234 PUSH1 0x4 DUP1 CALLDATASIZE SUB DUP2 ADD SWAP1 PUSH2 0x22F SWAP2 SWAP1 PUSH2 0x19FC JUMP JUMPDEST PUSH2 0x766 JUMP JUMPDEST PUSH1 0x40 MLOAD PUSH2 0x241 SWAP2 SWAP1 PUSH2 0x1A6A JUMP JUMPDEST PUSH1 0x40 MLOAD DUP1 SWAP2 SUB SWAP1 RETURN JUMPDEST PUSH2 0x264 PUSH1 0x4 DUP1 CALLDATASIZE SUB DUP2 ADD SWAP1 PUSH2 0x25F SWAP2 SWAP1 PUSH2 0x1B6E JUMP JUMPDEST PUSH2 0x77C JUMP JUMPDEST PUSH1 0x40 MLOAD PUSH2 0x271 SWAP2 SWAP1 PUSH2 0x1B00 JUMP JUMPDEST PUSH1 0x40 MLOAD DUP1 SWAP2 SUB SWAP1 RETURN JUMPDEST PUSH2 0x282 PUSH2 0x84B JUMP JUMPDEST PUSH1 0x40 MLOAD PUSH2 0x28F SWAP2 SWAP1 PUSH2 0x19A4 JUMP JUMPDEST PUSH1 0x40 MLOAD DUP1 SWAP2 SUB SWAP1 RETURN JUMPDEST PUSH2 0x2B2 PUSH1 0x4 DUP1 CALLDATASIZE SUB DUP2 ADD SWAP1 PUSH2 0x2AD SWAP2 SWAP1 PUSH2 0x1BC7 JUMP JUMPDEST PUSH2 0x8DD JUMP JUMPDEST STOP JUMPDEST PUSH2 0x2CE PUSH1 0x4 DUP1 CALLDATASIZE SUB DUP2 ADD SWAP1 PUSH2 0x2C9 SWAP2 SWAP1 PUSH2 0x1D3C JUMP JUMPDEST PUSH2 0xA54 JUMP JUMPDEST STOP JUMPDEST PUSH2 0x2EA PUSH1 0x4 DUP1 CALLDATASIZE SUB DUP2 ADD SWAP1 PUSH2 0x2E5 SWAP2 SWAP1 PUSH2 0x19FC JUMP JUMPDEST PUSH2 0xACC JUMP JUMPDEST PUSH1 0x40 MLOAD PUSH2 0x2F7 SWAP2 SWAP1 PUSH2 0x19A4 JUMP JUMPDEST PUSH1 0x40 MLOAD DUP1 SWAP2 SUB SWAP1 RETURN JUMPDEST PUSH2 0x31A PUSH1 0x4 DUP1 CALLDATASIZE SUB DUP2 ADD SWAP1 PUSH2 0x315 SWAP2 SWAP1 PUSH2 0x1DBF JUMP JUMPDEST PUSH2 0xB6A JUMP JUMPDEST PUSH1 0x40 MLOAD PUSH2 0x327 SWAP2 SWAP1 PUSH2 0x18F0 JUMP JUMPDEST PUSH1 0x40 MLOAD DUP1 SWAP2 SUB SWAP1 RETURN JUMPDEST PUSH1 0x0 PUSH32 0x80AC58CD00000000000000000000000000000000000000000000000000000000 PUSH28 0xFFFFFFFFFFFFFFFFFFFFFFFFFFFFFFFFFFFFFFFFFFFFFFFFFFFFFFFF NOT AND DUP3 PUSH28 0xFFFFFFFFFFFFFFFFFFFFFFFFFFFFFFFFFFFFFFFFFFFFFFFFFFFFFFFF NOT AND EQ DUP1 PUSH2 0x3FB JUMPI POP PUSH32 0x5B5E139F00000000000000000000000000000000000000000000000000000000 PUSH28 0xFFFFFFFFFFFFFFFFFFFFFFFFFFFFFFFFFFFFFFFFFFFFFFFFFFFFFFFF NOT AND DUP3 PUSH28 0xFFFFFFFFFFFFFFFFFFFFFFFFFFFFFFFFFFFFFFFFFFFFFFFFFFFFFFFF NOT AND EQ JUMPDEST DUP1 PUSH2 0x40B JUMPI POP PUSH2 0x40A DUP3 PUSH2 0xBFE JUMP JUMPDEST JUMPDEST SWAP1 POP SWAP2 SWAP1 POP JUMP JUMPDEST PUSH1 0x60 PUSH1 0x2 DUP1 SLOAD PUSH2 0x421 SWAP1 PUSH2 0x1E2E JUMP JUMPDEST DUP1 PUSH1 0x1F ADD PUSH1 0x20 DUP1 SWAP2 DIV MUL PUSH1 0x20 ADD PUSH1 0x40 MLOAD SWAP1 DUP2 ADD PUSH1 0x40 MSTORE DUP1 SWAP3 SWAP2 SWAP1 DUP2 DUP2 MSTORE PUSH1 0x20 ADD DUP3 DUP1 SLOAD PUSH2 0x44D SWAP1 PUSH2 0x1E2E JUMP JUMPDEST DUP1 ISZERO PUSH2 0x49A JUMPI DUP1 PUSH1 0x1F LT PUSH2 0x46F JUMPI PUSH2 0x100 DUP1 DUP4 SLOAD DIV MUL DUP4 MSTORE SWAP2 PUSH1 0x20 ADD SWAP2 PUSH2 0x49A JUMP JUMPDEST DUP3 ADD SWAP2 SWAP1 PUSH1 0x0 MSTORE PUSH1 0x20 PUSH1 0x0 KECCAK256 SWAP1 JUMPDEST DUP2 SLOAD DUP2 MSTORE SWAP1 PUSH1 0x1 ADD SWAP1 PUSH1 0x20 ADD DUP1 DUP4 GT PUSH2 0x47D JUMPI DUP3 SWAP1 SUB PUSH1 0x1F AND DUP3 ADD SWAP2 JUMPDEST POP POP POP POP POP SWAP1 POP SWAP1 JUMP JUMPDEST PUSH1 0x0 PUSH2 0x4AF DUP3 PUSH2 0xC68 JUMP JUMPDEST PUSH2 0x4E5 JUMPI PUSH1 0x40 MLOAD PUSH32 0xCF4700E400000000000000000000000000000000000000000000000000000000 DUP2 MSTORE PUSH1 0x4 ADD PUSH1 0x40 MLOAD DUP1 SWAP2 SUB SWAP1 REVERT JUMPDEST PUSH1 0x6 PUSH1 0x0 DUP4 DUP2 MSTORE PUSH1 0x20 ADD SWAP1 DUP2 MSTORE PUSH1 0x20 ADD PUSH1 0x0 KECCAK256 PUSH1 0x0 SWAP1 SLOAD SWAP1 PUSH2 0x100 EXP SWAP1 DIV PUSH20 0xFFFFFFFFFFFFFFFFFFFFFFFFFFFFFFFFFFFFFFFF AND SWAP1 POP SWAP2 SWAP1 POP JUMP JUMPDEST PUSH1 0x0 PUSH2 0x52B DUP3 PUSH2 0x766 JUMP JUMPDEST SWAP1 POP DUP1 PUSH20 0xFFFFFFFFFFFFFFFFFFFFFFFFFFFFFFFFFFFFFFFF AND DUP4 PUSH20 0xFFFFFFFFFFFFFFFFFFFFFFFFFFFFFFFFFFFFFFFF AND SUB PUSH2 0x592 JUMPI PUSH1 0x40 MLOAD PUSH32 0x943F7B8C00000000000000000000000000000000000000000000000000000000 DUP2 MSTORE PUSH1 0x4 ADD PUSH1 0x40 MLOAD DUP1 SWAP2 SUB SWAP1 REVERT JUMPDEST DUP1 PUSH20 0xFFFFFFFFFFFFFFFFFFFFFFFFFFFFFFFFFFFFFFFF AND PUSH2 0x5B1 PUSH2 0xCB6 JUMP JUMPDEST PUSH20 0xFFFFFFFFFFFFFFFFFFFFFFFFFFFFFFFFFFFFFFFF AND EQ PUSH2 0x614 JUMPI PUSH2 0x5DD DUP2 PUSH2 0x5D8 PUSH2 0xCB6 JUMP JUMPDEST PUSH2 0xB6A JUMP JUMPDEST PUSH2 0x613 JUMPI PUSH1 0x40 MLOAD PUSH32 0xCFB3B94200000000000000000000000000000000000000000000000000000000 DUP2 MSTORE PUSH1 0x4 ADD PUSH1 0x40 MLOAD DUP1 SWAP2 SUB SWAP1 REVERT JUMPDEST JUMPDEST PUSH2 0x61F DUP4 DUP4 DUP4 PUSH2 0xCBE JUMP JUMPDEST POP POP POP JUMP JUMPDEST PUSH1 0x0 PUSH2 0x62E PUSH2 0xD70 JUMP JUMPDEST PUSH1 0x1 SLOAD PUSH1 0x0 SLOAD SUB SUB SWAP1 POP SWAP1 JUMP JUMPDEST PUSH2 0x646 DUP4 DUP4 DUP4 PUSH2 0xD79 JUMP JUMPDEST POP POP POP JUMP JUMPDEST PUSH1 0x0 DUP1 PUSH2 0x6B2 PUSH1 0x8 PUSH1 0x0 DUP6 PUSH20 0xFFFFFFFFFFFFFFFFFFFFFFFFFFFFFFFFFFFFFFFF AND PUSH20 0xFFFFFFFFFFFFFFFFFFFFFFFFFFFFFFFFFFFFFFFF AND DUP2 MSTORE PUSH1 0x20 ADD SWAP1 DUP2 MSTORE PUSH1 0x20 ADD PUSH1 0x0 KECCAK256 PUSH1 0x0 PUSH1 0x1 DUP2 MSTORE PUSH1 0x20 ADD SWAP1 DUP2 MSTORE PUSH1 0x20 ADD PUSH1 0x0 KECCAK256 SLOAD NUMBER PUSH2 0x122D SWAP1 SWAP2 SWAP1 PUSH4 0xFFFFFFFF AND JUMP JUMPDEST SWAP1 POP PUSH1 0x0 PUSH2 0x6D1 DUP3 PUSH2 0x6C3 DUP7 PUSH2 0x77C JUMP JUMPDEST PUSH2 0x1243 SWAP1 SWAP2 SWAP1 PUSH4 0xFFFFFFFF AND JUMP JUMPDEST SWAP1 POP PUSH1 0x0 PUSH2 0x739 DUP3 PUSH1 0x8 PUSH1 0x0 DUP9 PUSH20 0xFFFFFFFFFFFFFFFFFFFFFFFFFFFFFFFFFFFFFFFF AND PUSH20 0xFFFFFFFFFFFFFFFFFFFFFFFFFFFFFFFFFFFFFFFF AND DUP2 MSTORE PUSH1 0x20 ADD SWAP1 DUP2 MSTORE PUSH1 0x20 ADD PUSH1 0x0 KECCAK256 PUSH1 0x0 PUSH1 0x2 DUP2 MSTORE PUSH1 0x20 ADD SWAP1 DUP2 MSTORE PUSH1 0x20 ADD PUSH1 0x0 KECCAK256 SLOAD PUSH2 0x1259 SWAP1 SWAP2 SWAP1 PUSH4 0xFFFFFFFF AND JUMP JUMPDEST SWAP1 POP DUP1 SWAP4 POP POP POP POP SWAP2 SWAP1 POP JUMP JUMPDEST PUSH2 0x761 DUP4 DUP4 DUP4 PUSH1 0x40 MLOAD DUP1 PUSH1 0x20 ADD PUSH1 0x40 MSTORE DUP1 PUSH1 0x0 DUP2 MSTORE POP PUSH2 0xA54 JUMP JUMPDEST POP POP POP JUMP JUMPDEST PUSH1 0x0 PUSH2 0x771 DUP3 PUSH2 0x126F JUMP JUMPDEST PUSH1 0x0 ADD MLOAD SWAP1 POP SWAP2 SWAP1 POP JUMP JUMPDEST PUSH1 0x0 DUP1 PUSH20 0xFFFFFFFFFFFFFFFFFFFFFFFFFFFFFFFFFFFFFFFF AND DUP3 PUSH20 0xFFFFFFFFFFFFFFFFFFFFFFFFFFFFFFFFFFFFFFFF AND SUB PUSH2 0x7E3 JUMPI PUSH1 0x40 MLOAD PUSH32 0x8F4EB60400000000000000000000000000000000000000000000000000000000 DUP2 MSTORE PUSH1 0x4 ADD PUSH1 0x40 MLOAD DUP1 SWAP2 SUB SWAP1 REVERT JUMPDEST PUSH1 0x5 PUSH1 0x0 DUP4 PUSH20 0xFFFFFFFFFFFFFFFFFFFFFFFFFFFFFFFFFFFFFFFF AND PUSH20 0xFFFFFFFFFFFFFFFFFFFFFFFFFFFFFFFFFFFFFFFF AND DUP2 MSTORE PUSH1 0x20 ADD SWAP1 DUP2 MSTORE PUSH1 0x20 ADD PUSH1 0x0 KECCAK256 PUSH1 0x0 ADD PUSH1 0x0 SWAP1 SLOAD SWAP1 PUSH2 0x100 EXP SWAP1 DIV PUSH8 0xFFFFFFFFFFFFFFFF AND PUSH8 0xFFFFFFFFFFFFFFFF AND SWAP1 POP SWAP2 SWAP1 POP JUMP JUMPDEST PUSH1 0x60 PUSH1 0x3 DUP1 SLOAD PUSH2 0x85A SWAP1 PUSH2 0x1E2E JUMP JUMPDEST DUP1 PUSH1 0x1F ADD PUSH1 0x20 DUP1 SWAP2 DIV MUL PUSH1 0x20 ADD PUSH1 0x40 MLOAD SWAP1 DUP2 ADD PUSH1 0x40 MSTORE DUP1 SWAP3 SWAP2 SWAP1 DUP2 DUP2 MSTORE PUSH1 0x20 ADD DUP3 DUP1 SLOAD PUSH2 0x886 SWAP1 PUSH2 0x1E2E JUMP JUMPDEST DUP1 ISZERO PUSH2 0x8D3 JUMPI DUP1 PUSH1 0x1F LT PUSH2 0x8A8 JUMPI PUSH2 0x100 DUP1 DUP4 SLOAD DIV MUL DUP4 MSTORE SWAP2 PUSH1 0x20 ADD SWAP2 PUSH2 0x8D3 JUMP JUMPDEST DUP3 ADD SWAP2 SWAP1 PUSH1 0x0 MSTORE PUSH1 0x20 PUSH1 0x0 KECCAK256 SWAP1 JUMPDEST DUP2 SLOAD DUP2 MSTORE SWAP1 PUSH1 0x1 ADD SWAP1 PUSH1 0x20 ADD DUP1 DUP4 GT PUSH2 0x8B6 JUMPI DUP3 SWAP1 SUB PUSH1 0x1F AND DUP3 ADD SWAP2 JUMPDEST POP POP POP POP POP SWAP1 POP SWAP1 JUMP JUMPDEST PUSH2 0x8E5 PUSH2 0xCB6 JUMP JUMPDEST PUSH20 0xFFFFFFFFFFFFFFFFFFFFFFFFFFFFFFFFFFFFFFFF AND DUP3 PUSH20 0xFFFFFFFFFFFFFFFFFFFFFFFFFFFFFFFFFFFFFFFF AND SUB PUSH2 0x949 JUMPI PUSH1 0x40 MLOAD PUSH32 0xB06307DB00000000000000000000000000000000000000000000000000000000 DUP2 MSTORE PUSH1 0x4 ADD PUSH1 0x40 MLOAD DUP1 SWAP2 SUB SWAP1 REVERT JUMPDEST DUP1 PUSH1 0x7 PUSH1 0x0 PUSH2 0x956 PUSH2 0xCB6 JUMP JUMPDEST PUSH20 0xFFFFFFFFFFFFFFFFFFFFFFFFFFFFFFFFFFFFFFFF AND PUSH20 0xFFFFFFFFFFFFFFFFFFFFFFFFFFFFFFFFFFFFFFFF AND DUP2 MSTORE PUSH1 0x20 ADD SWAP1 DUP2 MSTORE PUSH1 0x20 ADD PUSH1 0x0 KECCAK256 PUSH1 0x0 DUP5 PUSH20 0xFFFFFFFFFFFFFFFFFFFFFFFFFFFFFFFFFFFFFFFF AND PUSH20 0xFFFFFFFFFFFFFFFFFFFFFFFFFFFFFFFFFFFFFFFF AND DUP2 MSTORE PUSH1 0x20 ADD SWAP1 DUP2 MSTORE PUSH1 0x20 ADD PUSH1 0x0 KECCAK256 PUSH1 0x0 PUSH2 0x100 EXP DUP2 SLOAD DUP2 PUSH1 0xFF MUL NOT AND SWAP1 DUP4 ISZERO ISZERO MUL OR SWAP1 SSTORE POP DUP2 PUSH20 0xFFFFFFFFFFFFFFFFFFFFFFFFFFFFFFFFFFFFFFFF AND PUSH2 0xA03 PUSH2 0xCB6 JUMP JUMPDEST PUSH20 0xFFFFFFFFFFFFFFFFFFFFFFFFFFFFFFFFFFFFFFFF AND PUSH32 0x17307EAB39AB6107E8899845AD3D59BD9653F200F220920489CA2B5937696C31 DUP4 PUSH1 0x40 MLOAD PUSH2 0xA48 SWAP2 SWAP1 PUSH2 0x18F0 JUMP JUMPDEST PUSH1 0x40 MLOAD DUP1 SWAP2 SUB SWAP1 LOG3 POP POP JUMP JUMPDEST PUSH2 0xA5F DUP5 DUP5 DUP5 PUSH2 0xD79 JUMP JUMPDEST PUSH2 0xA7E DUP4 PUSH20 0xFFFFFFFFFFFFFFFFFFFFFFFFFFFFFFFFFFFFFFFF AND PUSH2 0x14FA JUMP JUMPDEST ISZERO PUSH2 0xAC6 JUMPI PUSH2 0xA8F DUP5 DUP5 DUP5 DUP5 PUSH2 0x151D JUMP JUMPDEST PUSH2 0xAC5 JUMPI PUSH1 0x40 MLOAD PUSH32 0xD1A57ED600000000000000000000000000000000000000000000000000000000 DUP2 MSTORE PUSH1 0x4 ADD PUSH1 0x40 MLOAD DUP1 SWAP2 SUB SWAP1 REVERT JUMPDEST JUMPDEST POP POP POP POP JUMP JUMPDEST PUSH1 0x60 PUSH2 0xAD7 DUP3 PUSH2 0xC68 JUMP JUMPDEST PUSH2 0xB0D JUMPI PUSH1 0x40 MLOAD PUSH32 0xA14C4B5000000000000000000000000000000000000000000000000000000000 DUP2 MSTORE PUSH1 0x4 ADD PUSH1 0x40 MLOAD DUP1 SWAP2 SUB SWAP1 REVERT JUMPDEST PUSH1 0x0 PUSH2 0xB17 PUSH2 0x166D JUMP JUMPDEST SWAP1 POP PUSH1 0x0 DUP2 MLOAD SUB PUSH2 0xB37 JUMPI PUSH1 0x40 MLOAD DUP1 PUSH1 0x20 ADD PUSH1 0x40 MSTORE DUP1 PUSH1 0x0 DUP2 MSTORE POP PUSH2 0xB62 JUMP JUMPDEST DUP1 PUSH2 0xB41 DUP5 PUSH2 0x168D JUMP JUMPDEST PUSH1 0x40 MLOAD PUSH1 0x20 ADD PUSH2 0xB52 SWAP3 SWAP2 SWAP1 PUSH2 0x1E9B JUMP JUMPDEST PUSH1 0x40 MLOAD PUSH1 0x20 DUP2 DUP4 SUB SUB DUP2 MSTORE SWAP1 PUSH1 0x40 MSTORE JUMPDEST SWAP2 POP POP SWAP2 SWAP1 POP JUMP JUMPDEST PUSH1 0x0 PUSH1 0x7 PUSH1 0x0 DUP5 PUSH20 0xFFFFFFFFFFFFFFFFFFFFFFFFFFFFFFFFFFFFFFFF AND PUSH20 0xFFFFFFFFFFFFFFFFFFFFFFFFFFFFFFFFFFFFFFFF AND DUP2 MSTORE PUSH1 0x20 ADD SWAP1 DUP2 MSTORE PUSH1 0x20 ADD PUSH1 0x0 KECCAK256 PUSH1 0x0 DUP4 PUSH20 0xFFFFFFFFFFFFFFFFFFFFFFFFFFFFFFFFFFFFFFFF AND PUSH20 0xFFFFFFFFFFFFFFFFFFFFFFFFFFFFFFFFFFFFFFFF AND DUP2 MSTORE PUSH1 0x20 ADD SWAP1 DUP2 MSTORE PUSH1 0x20 ADD PUSH1 0x0 KECCAK256 PUSH1 0x0 SWAP1 SLOAD SWAP1 PUSH2 0x100 EXP SWAP1 DIV PUSH1 0xFF AND SWAP1 POP SWAP3 SWAP2 POP POP JUMP JUMPDEST PUSH1 0x0 PUSH32 0x1FFC9A700000000000000000000000000000000000000000000000000000000 PUSH28 0xFFFFFFFFFFFFFFFFFFFFFFFFFFFFFFFFFFFFFFFFFFFFFFFFFFFFFFFF NOT AND DUP3 PUSH28 0xFFFFFFFFFFFFFFFFFFFFFFFFFFFFFFFFFFFFFFFFFFFFFFFFFFFFFFFF NOT AND EQ SWAP1 POP SWAP2 SWAP1 POP JUMP JUMPDEST PUSH1 0x0 DUP2 PUSH2 0xC73 PUSH2 0xD70 JUMP JUMPDEST GT ISZERO DUP1 ISZERO PUSH2 0xC82 JUMPI POP PUSH1 0x0 SLOAD DUP3 LT JUMPDEST DUP1 ISZERO PUSH2 0xCAF JUMPI POP PUSH1 0x4 PUSH1 0x0 DUP4 DUP2 MSTORE PUSH1 0x20 ADD SWAP1 DUP2 MSTORE PUSH1 0x20 ADD PUSH1 0x0 KECCAK256 PUSH1 0x0 ADD PUSH1 0x1C SWAP1 SLOAD SWAP1 PUSH2 0x100 EXP SWAP1 DIV PUSH1 0xFF AND ISZERO JUMPDEST SWAP1 POP SWAP2 SWAP1 POP JUMP JUMPDEST PUSH1 0x0 CALLER SWAP1 POP SWAP1 JUMP JUMPDEST DUP3 PUSH1 0x6 PUSH1 0x0 DUP5 DUP2 MSTORE PUSH1 0x20 ADD SWAP1 DUP2 MSTORE PUSH1 0x20 ADD PUSH1 0x0 KECCAK256 PUSH1 0x0 PUSH2 0x100 EXP DUP2 SLOAD DUP2 PUSH20 0xFFFFFFFFFFFFFFFFFFFFFFFFFFFFFFFFFFFFFFFF MUL NOT AND SWAP1 DUP4 PUSH20 0xFFFFFFFFFFFFFFFFFFFFFFFFFFFFFFFFFFFFFFFF AND MUL OR SWAP1 SSTORE POP DUP2 DUP4 PUSH20 0xFFFFFFFFFFFFFFFFFFFFFFFFFFFFFFFFFFFFFFFF AND DUP3 PUSH20 0xFFFFFFFFFFFFFFFFFFFFFFFFFFFFFFFFFFFFFFFF AND PUSH32 0x8C5BE1E5EBEC7D5BD14F71427D1E84F3DD0314C0F7B2291E5B200AC8C7C3B925 PUSH1 0x40 MLOAD PUSH1 0x40 MLOAD DUP1 SWAP2 SUB SWAP1 LOG4 POP POP POP JUMP JUMPDEST PUSH1 0x0 PUSH1 0x1 SWAP1 POP SWAP1 JUMP JUMPDEST PUSH1 0x0 PUSH2 0xD84 DUP3 PUSH2 0x126F JUMP JUMPDEST SWAP1 POP DUP4 PUSH20 0xFFFFFFFFFFFFFFFFFFFFFFFFFFFFFFFFFFFFFFFF AND DUP2 PUSH1 0x0 ADD MLOAD PUSH20 0xFFFFFFFFFFFFFFFFFFFFFFFFFFFFFFFFFFFFFFFF AND EQ PUSH2 0xDEF JUMPI PUSH1 0x40 MLOAD PUSH32 0xA114810000000000000000000000000000000000000000000000000000000000 DUP2 MSTORE PUSH1 0x4 ADD PUSH1 0x40 MLOAD DUP1 SWAP2 SUB SWAP1 REVERT JUMPDEST PUSH1 0x0 DUP5 PUSH20 0xFFFFFFFFFFFFFFFFFFFFFFFFFFFFFFFFFFFFFFFF AND PUSH2 0xE10 PUSH2 0xCB6 JUMP JUMPDEST PUSH20 0xFFFFFFFFFFFFFFFFFFFFFFFFFFFFFFFFFFFFFFFF AND EQ DUP1 PUSH2 0xE3F JUMPI POP PUSH2 0xE3E DUP6 PUSH2 0xE39 PUSH2 0xCB6 JUMP JUMPDEST PUSH2 0xB6A JUMP JUMPDEST JUMPDEST DUP1 PUSH2 0xE84 JUMPI POP PUSH2 0xE4D PUSH2 0xCB6 JUMP JUMPDEST PUSH20 0xFFFFFFFFFFFFFFFFFFFFFFFFFFFFFFFFFFFFFFFF AND PUSH2 0xE6C DUP5 PUSH2 0x4A4 JUMP JUMPDEST PUSH20 0xFFFFFFFFFFFFFFFFFFFFFFFFFFFFFFFFFFFFFFFF AND EQ JUMPDEST SWAP1 POP DUP1 PUSH2 0xEBD JUMPI PUSH1 0x40 MLOAD PUSH32 0x59C896BE00000000000000000000000000000000000000000000000000000000 DUP2 MSTORE PUSH1 0x4 ADD PUSH1 0x40 MLOAD DUP1 SWAP2 SUB SWAP1 REVERT JUMPDEST PUSH1 0x0 PUSH20 0xFFFFFFFFFFFFFFFFFFFFFFFFFFFFFFFFFFFFFFFF AND DUP5 PUSH20 0xFFFFFFFFFFFFFFFFFFFFFFFFFFFFFFFFFFFFFFFF AND SUB PUSH2 0xF23 JUMPI PUSH1 0x40 MLOAD PUSH32 0xEA553B3400000000000000000000000000000000000000000000000000000000 DUP2 MSTORE PUSH1 0x4 ADD PUSH1 0x40 MLOAD DUP1 SWAP2 SUB SWAP1 REVERT JUMPDEST PUSH2 0xF30 DUP6 DUP6 DUP6 PUSH1 0x1 PUSH2 0x17ED JUMP JUMPDEST PUSH2 0xF3C PUSH1 0x0 DUP5 DUP8 PUSH2 0xCBE JUMP JUMPDEST PUSH1 0x1 PUSH1 0x5 PUSH1 0x0 DUP8 PUSH20 0xFFFFFFFFFFFFFFFFFFFFFFFFFFFFFFFFFFFFFFFF AND PUSH20 0xFFFFFFFFFFFFFFFFFFFFFFFFFFFFFFFFFFFFFFFF AND DUP2 MSTORE PUSH1 0x20 ADD SWAP1 DUP2 MSTORE PUSH1 0x20 ADD PUSH1 0x0 KECCAK256 PUSH1 0x0 ADD PUSH1 0x0 DUP3 DUP3 DUP3 SWAP1 SLOAD SWAP1 PUSH2 0x100 EXP SWAP1 DIV PUSH8 0xFFFFFFFFFFFFFFFF AND SUB SWAP3 POP PUSH2 0x100 EXP DUP2 SLOAD DUP2 PUSH8 0xFFFFFFFFFFFFFFFF MUL NOT AND SWAP1 DUP4 PUSH8 0xFFFFFFFFFFFFFFFF AND MUL OR SWAP1 SSTORE POP PUSH1 0x1 PUSH1 0x5 PUSH1 0x0 DUP7 PUSH20 0xFFFFFFFFFFFFFFFFFFFFFFFFFFFFFFFFFFFFFFFF AND PUSH20 0xFFFFFFFFFFFFFFFFFFFFFFFFFFFFFFFFFFFFFFFF AND DUP2 MSTORE PUSH1 0x20 ADD SWAP1 DUP2 MSTORE PUSH1 0x20 ADD PUSH1 0x0 KECCAK256 PUSH1 0x0 ADD PUSH1 0x0 DUP3 DUP3 DUP3 SWAP1 SLOAD SWAP1 PUSH2 0x100 EXP SWAP1 DIV PUSH8 0xFFFFFFFFFFFFFFFF AND ADD SWAP3 POP PUSH2 0x100 EXP DUP2 SLOAD DUP2 PUSH8 0xFFFFFFFFFFFFFFFF MUL NOT AND SWAP1 DUP4 PUSH8 0xFFFFFFFFFFFFFFFF AND MUL OR SWAP1 SSTORE POP PUSH1 0x0 PUSH1 0x4 PUSH1 0x0 DUP6 DUP2 MSTORE PUSH1 0x20 ADD SWAP1 DUP2 MSTORE PUSH1 0x20 ADD PUSH1 0x0 KECCAK256 SWAP1 POP DUP5 DUP2 PUSH1 0x0 ADD PUSH1 0x0 PUSH2 0x100 EXP DUP2 SLOAD DUP2 PUSH20 0xFFFFFFFFFFFFFFFFFFFFFFFFFFFFFFFFFFFFFFFF MUL NOT AND SWAP1 DUP4 PUSH20 0xFFFFFFFFFFFFFFFFFFFFFFFFFFFFFFFFFFFFFFFF AND MUL OR SWAP1 SSTORE POP TIMESTAMP DUP2 PUSH1 0x0 ADD PUSH1 0x14 PUSH2 0x100 EXP DUP2 SLOAD DUP2 PUSH8 0xFFFFFFFFFFFFFFFF MUL NOT AND SWAP1 DUP4 PUSH8 0xFFFFFFFFFFFFFFFF AND MUL OR SWAP1 SSTORE POP PUSH1 0x0 PUSH1 0x1 DUP6 ADD SWAP1 POP PUSH1 0x0 PUSH1 0x4 PUSH1 0x0 DUP4 DUP2 MSTORE PUSH1 0x20 ADD SWAP1 DUP2 MSTORE PUSH1 0x20 ADD PUSH1 0x0 KECCAK256 SWAP1 POP PUSH1 0x0 PUSH20 0xFFFFFFFFFFFFFFFFFFFFFFFFFFFFFFFFFFFFFFFF AND DUP2 PUSH1 0x0 ADD PUSH1 0x0 SWAP1 SLOAD SWAP1 PUSH2 0x100 EXP SWAP1 DIV PUSH20 0xFFFFFFFFFFFFFFFFFFFFFFFFFFFFFFFFFFFFFFFF AND PUSH20 0xFFFFFFFFFFFFFFFFFFFFFFFFFFFFFFFFFFFFFFFF AND SUB PUSH2 0x11BB JUMPI PUSH1 0x0 SLOAD DUP3 EQ PUSH2 0x11BA JUMPI DUP8 DUP2 PUSH1 0x0 ADD PUSH1 0x0 PUSH2 0x100 EXP DUP2 SLOAD DUP2 PUSH20 0xFFFFFFFFFFFFFFFFFFFFFFFFFFFFFFFFFFFFFFFF MUL NOT AND SWAP1 DUP4 PUSH20 0xFFFFFFFFFFFFFFFFFFFFFFFFFFFFFFFFFFFFFFFF AND MUL OR SWAP1 SSTORE POP DUP5 PUSH1 0x20 ADD MLOAD DUP2 PUSH1 0x0 ADD PUSH1 0x14 PUSH2 0x100 EXP DUP2 SLOAD DUP2 PUSH8 0xFFFFFFFFFFFFFFFF MUL NOT AND SWAP1 DUP4 PUSH8 0xFFFFFFFFFFFFFFFF AND MUL OR SWAP1 SSTORE POP JUMPDEST JUMPDEST POP POP POP DUP3 DUP5 PUSH20 0xFFFFFFFFFFFFFFFFFFFFFFFFFFFFFFFFFFFFFFFF AND DUP7 PUSH20 0xFFFFFFFFFFFFFFFFFFFFFFFFFFFFFFFFFFFFFFFF AND PUSH32 0xDDF252AD1BE2C89B69C2B068FC378DAA952BA7F163C4A11628F55A4DF523B3EF PUSH1 0x40 MLOAD PUSH1 0x40 MLOAD DUP1 SWAP2 SUB SWAP1 LOG4 PUSH2 0x1226 DUP6 DUP6 DUP6 PUSH1 0x1 PUSH2 0x17F3 JUMP JUMPDEST POP POP POP POP POP JUMP JUMPDEST PUSH1 0x0 DUP2 DUP4 PUSH2 0x123B SWAP2 SWAP1 PUSH2 0x1EEE JUMP JUMPDEST SWAP1 POP SWAP3 SWAP2 POP POP JUMP JUMPDEST PUSH1 0x0 DUP2 DUP4 PUSH2 0x1251 SWAP2 SWAP1 PUSH2 0x1F22 JUMP JUMPDEST SWAP1 POP SWAP3 SWAP2 POP POP JUMP JUMPDEST PUSH1 0x0 DUP2 DUP4 PUSH2 0x1267 SWAP2 SWAP1 PUSH2 0x1F7C JUMP JUMPDEST SWAP1 POP SWAP3 SWAP2 POP POP JUMP JUMPDEST PUSH2 0x1277 PUSH2 0x17F9 JUMP JUMPDEST PUSH1 0x0 DUP3 SWAP1 POP DUP1 PUSH2 0x1285 PUSH2 0xD70 JUMP JUMPDEST GT PUSH2 0x14C3 JUMPI PUSH1 0x0 SLOAD DUP2 LT ISZERO PUSH2 0x14C2 JUMPI PUSH1 0x0 PUSH1 0x4 PUSH1 0x0 DUP4 DUP2 MSTORE PUSH1 0x20 ADD SWAP1 DUP2 MSTORE PUSH1 0x20 ADD PUSH1 0x0 KECCAK256 PUSH1 0x40 MLOAD DUP1 PUSH1 0x60 ADD PUSH1 0x40 MSTORE SWAP1 DUP2 PUSH1 0x0 DUP3 ADD PUSH1 0x0 SWAP1 SLOAD SWAP1 PUSH2 0x100 EXP SWAP1 DIV PUSH20 0xFFFFFFFFFFFFFFFFFFFFFFFFFFFFFFFFFFFFFFFF AND PUSH20 0xFFFFFFFFFFFFFFFFFFFFFFFFFFFFFFFFFFFFFFFF AND PUSH20 0xFFFFFFFFFFFFFFFFFFFFFFFFFFFFFFFFFFFFFFFF AND DUP2 MSTORE PUSH1 0x20 ADD PUSH1 0x0 DUP3 ADD PUSH1 0x14 SWAP1 SLOAD SWAP1 PUSH2 0x100 EXP SWAP1 DIV PUSH8 0xFFFFFFFFFFFFFFFF AND PUSH8 0xFFFFFFFFFFFFFFFF AND PUSH8 0xFFFFFFFFFFFFFFFF AND DUP2 MSTORE PUSH1 0x20 ADD PUSH1 0x0 DUP3 ADD PUSH1 0x1C SWAP1 SLOAD SWAP1 PUSH2 0x100 EXP SWAP1 DIV PUSH1 0xFF AND ISZERO ISZERO ISZERO ISZERO DUP2 MSTORE POP POP SWAP1 POP DUP1 PUSH1 0x40 ADD MLOAD PUSH2 0x14C0 JUMPI PUSH1 0x0 PUSH20 0xFFFFFFFFFFFFFFFFFFFFFFFFFFFFFFFFFFFFFFFF AND DUP2 PUSH1 0x0 ADD MLOAD PUSH20 0xFFFFFFFFFFFFFFFFFFFFFFFFFFFFFFFFFFFFFFFF AND EQ PUSH2 0x13A4 JUMPI DUP1 SWAP3 POP POP POP PUSH2 0x14F5 JUMP JUMPDEST JUMPDEST PUSH1 0x1 ISZERO PUSH2 0x14BF JUMPI DUP2 DUP1 PUSH1 0x1 SWAP1 SUB SWAP3 POP POP PUSH1 0x4 PUSH1 0x0 DUP4 DUP2 MSTORE PUSH1 0x20 ADD SWAP1 DUP2 MSTORE PUSH1 0x20 ADD PUSH1 0x0 KECCAK256 PUSH1 0x40 MLOAD DUP1 PUSH1 0x60 ADD PUSH1 0x40 MSTORE SWAP1 DUP2 PUSH1 0x0 DUP3 ADD PUSH1 0x0 SWAP1 SLOAD SWAP1 PUSH2 0x100 EXP SWAP1 DIV PUSH20 0xFFFFFFFFFFFFFFFFFFFFFFFFFFFFFFFFFFFFFFFF AND PUSH20 0xFFFFFFFFFFFFFFFFFFFFFFFFFFFFFFFFFFFFFFFF AND PUSH20 0xFFFFFFFFFFFFFFFFFFFFFFFFFFFFFFFFFFFFFFFF AND DUP2 MSTORE PUSH1 0x20 ADD PUSH1 0x0 DUP3 ADD PUSH1 0x14 SWAP1 SLOAD SWAP1 PUSH2 0x100 EXP SWAP1 DIV PUSH8 0xFFFFFFFFFFFFFFFF AND PUSH8 0xFFFFFFFFFFFFFFFF AND PUSH8 0xFFFFFFFFFFFFFFFF AND DUP2 MSTORE PUSH1 0x20 ADD PUSH1 0x0 DUP3 ADD PUSH1 0x1C SWAP1 SLOAD SWAP1 PUSH2 0x100 EXP SWAP1 DIV PUSH1 0xFF AND ISZERO ISZERO ISZERO ISZERO DUP2 MSTORE POP POP SWAP1 POP PUSH1 0x0 PUSH20 0xFFFFFFFFFFFFFFFFFFFFFFFFFFFFFFFFFFFFFFFF AND DUP2 PUSH1 0x0 ADD MLOAD PUSH20 0xFFFFFFFFFFFFFFFFFFFFFFFFFFFFFFFFFFFFFFFF AND EQ PUSH2 0x14BA JUMPI DUP1 SWAP3 POP POP POP PUSH2 0x14F5 JUMP JUMPDEST PUSH2 0x13A5 JUMP JUMPDEST JUMPDEST POP JUMPDEST JUMPDEST PUSH1 0x40 MLOAD PUSH32 0xDF2D9B4200000000000000000000000000000000000000000000000000000000 DUP2 MSTORE PUSH1 0x4 ADD PUSH1 0x40 MLOAD DUP1 SWAP2 SUB SWAP1 REVERT JUMPDEST SWAP2 SWAP1 POP JUMP JUMPDEST PUSH1 0x0 DUP1 DUP3 PUSH20 0xFFFFFFFFFFFFFFFFFFFFFFFFFFFFFFFFFFFFFFFF AND EXTCODESIZE GT SWAP1 POP SWAP2 SWAP1 POP JUMP JUMPDEST PUSH1 0x0 DUP4 PUSH20 0xFFFFFFFFFFFFFFFFFFFFFFFFFFFFFFFFFFFFFFFF AND PUSH4 0x150B7A02 PUSH2 0x1543 PUSH2 0xCB6 JUMP JUMPDEST DUP8 DUP7 DUP7 PUSH1 0x40 MLOAD DUP6 PUSH4 0xFFFFFFFF AND PUSH1 0xE0 SHL DUP2 MSTORE PUSH1 0x4 ADD PUSH2 0x1565 SWAP5 SWAP4 SWAP3 SWAP2 SWAP1 PUSH2 0x2027 JUMP JUMPDEST PUSH1 0x20 PUSH1 0x40 MLOAD DUP1 DUP4 SUB DUP2 PUSH1 0x0 DUP8 GAS CALL SWAP3 POP POP POP DUP1 ISZERO PUSH2 0x15A1 JUMPI POP PUSH1 0x40 MLOAD RETURNDATASIZE PUSH1 0x1F NOT PUSH1 0x1F DUP3 ADD AND DUP3 ADD DUP1 PUSH1 0x40 MSTORE POP DUP2 ADD SWAP1 PUSH2 0x159E SWAP2 SWAP1 PUSH2 0x2088 JUMP JUMPDEST PUSH1 0x1 JUMPDEST PUSH2 0x161A JUMPI RETURNDATASIZE DUP1 PUSH1 0x0 DUP2 EQ PUSH2 0x15D1 JUMPI PUSH1 0x40 MLOAD SWAP2 POP PUSH1 0x1F NOT PUSH1 0x3F RETURNDATASIZE ADD AND DUP3 ADD PUSH1 0x40 MSTORE RETURNDATASIZE DUP3 MSTORE RETURNDATASIZE PUSH1 0x0 PUSH1 0x20 DUP5 ADD RETURNDATACOPY PUSH2 0x15D6 JUMP JUMPDEST PUSH1 0x60 SWAP2 POP JUMPDEST POP PUSH1 0x0 DUP2 MLOAD SUB PUSH2 0x1612 JUMPI PUSH1 0x40 MLOAD PUSH32 0xD1A57ED600000000000000000000000000000000000000000000000000000000 DUP2 MSTORE PUSH1 0x4 ADD PUSH1 0x40 MLOAD DUP1 SWAP2 SUB SWAP1 REVERT JUMPDEST DUP1 MLOAD DUP2 PUSH1 0x20 ADD REVERT JUMPDEST PUSH4 0x150B7A02 PUSH1 0xE0 SHL PUSH28 0xFFFFFFFFFFFFFFFFFFFFFFFFFFFFFFFFFFFFFFFFFFFFFFFFFFFFFFFF NOT AND DUP2 PUSH28 0xFFFFFFFFFFFFFFFFFFFFFFFFFFFFFFFFFFFFFFFFFFFFFFFFFFFFFFFF NOT AND EQ SWAP2 POP POP SWAP5 SWAP4 POP POP POP POP JUMP JUMPDEST PUSH1 0x60 PUSH1 0x40 MLOAD DUP1 PUSH1 0x80 ADD PUSH1 0x40 MSTORE DUP1 PUSH1 0x51 DUP2 MSTORE PUSH1 0x20 ADD PUSH2 0x21BE PUSH1 0x51 SWAP2 CODECOPY SWAP1 POP SWAP1 JUMP JUMPDEST PUSH1 0x60 PUSH1 0x0 DUP3 SUB PUSH2 0x16D4 JUMPI PUSH1 0x40 MLOAD DUP1 PUSH1 0x40 ADD PUSH1 0x40 MSTORE DUP1 PUSH1 0x1 DUP2 MSTORE PUSH1 0x20 ADD PUSH32 0x3000000000000000000000000000000000000000000000000000000000000000 DUP2 MSTORE POP SWAP1 POP PUSH2 0x17E8 JUMP JUMPDEST PUSH1 0x0 DUP3 SWAP1 POP PUSH1 0x0 JUMPDEST PUSH1 0x0 DUP3 EQ PUSH2 0x1706 JUMPI DUP1 DUP1 PUSH2 0x16EF SWAP1 PUSH2 0x20B5 JUMP JUMPDEST SWAP2 POP POP PUSH1 0xA DUP3 PUSH2 0x16FF SWAP2 SWAP1 PUSH2 0x212C JUMP JUMPDEST SWAP2 POP PUSH2 0x16DC JUMP JUMPDEST PUSH1 0x0 DUP2 PUSH8 0xFFFFFFFFFFFFFFFF DUP2 GT ISZERO PUSH2 0x1722 JUMPI PUSH2 0x1721 PUSH2 0x1C11 JUMP JUMPDEST JUMPDEST PUSH1 0x40 MLOAD SWAP1 DUP1 DUP3 MSTORE DUP1 PUSH1 0x1F ADD PUSH1 0x1F NOT AND PUSH1 0x20 ADD DUP3 ADD PUSH1 0x40 MSTORE DUP1 ISZERO PUSH2 0x1754 JUMPI DUP2 PUSH1 0x20 ADD PUSH1 0x1 DUP3 MUL DUP1 CALLDATASIZE DUP4 CALLDATACOPY DUP1 DUP3 ADD SWAP2 POP POP SWAP1 POP JUMPDEST POP SWAP1 POP JUMPDEST PUSH1 0x0 DUP6 EQ PUSH2 0x17E1 JUMPI PUSH1 0x1 DUP3 PUSH2 0x176D SWAP2 SWAP1 PUSH2 0x1EEE JUMP JUMPDEST SWAP2 POP PUSH1 0xA DUP6 PUSH2 0x177C SWAP2 SWAP1 PUSH2 0x215D JUMP JUMPDEST PUSH1 0x30 PUSH2 0x1788 SWAP2 SWAP1 PUSH2 0x1F7C JUMP JUMPDEST PUSH1 0xF8 SHL DUP2 DUP4 DUP2 MLOAD DUP2 LT PUSH2 0x179E JUMPI PUSH2 0x179D PUSH2 0x218E JUMP JUMPDEST JUMPDEST PUSH1 0x20 ADD ADD SWAP1 PUSH31 0xFFFFFFFFFFFFFFFFFFFFFFFFFFFFFFFFFFFFFFFFFFFFFFFFFFFFFFFFFFFFFF NOT AND SWAP1 DUP2 PUSH1 0x0 BYTE SWAP1 MSTORE8 POP PUSH1 0xA DUP6 PUSH2 0x17DA SWAP2 SWAP1 PUSH2 0x212C JUMP JUMPDEST SWAP5 POP PUSH2 0x1758 JUMP JUMPDEST DUP1 SWAP4 POP POP POP POP JUMPDEST SWAP2 SWAP1 POP JUMP JUMPDEST POP POP POP POP JUMP JUMPDEST POP POP POP POP JUMP JUMPDEST PUSH1 0x40 MLOAD DUP1 PUSH1 0x60 ADD PUSH1 0x40 MSTORE DUP1 PUSH1 0x0 PUSH20 0xFFFFFFFFFFFFFFFFFFFFFFFFFFFFFFFFFFFFFFFF AND DUP2 MSTORE PUSH1 0x20 ADD PUSH1 0x0 PUSH8 0xFFFFFFFFFFFFFFFF AND DUP2 MSTORE PUSH1 0x20 ADD PUSH1 0x0 ISZERO ISZERO DUP2 MSTORE POP SWAP1 JUMP JUMPDEST PUSH1 0x0 PUSH1 0x40 MLOAD SWAP1 POP SWAP1 JUMP JUMPDEST PUSH1 0x0 DUP1 REVERT JUMPDEST PUSH1 0x0 DUP1 REVERT JUMPDEST PUSH1 0x0 PUSH32 0xFFFFFFFF00000000000000000000000000000000000000000000000000000000 DUP3 AND SWAP1 POP SWAP2 SWAP1 POP JUMP JUMPDEST PUSH2 0x1885 DUP2 PUSH2 0x1850 JUMP JUMPDEST DUP2 EQ PUSH2 0x1890 JUMPI PUSH1 0x0 DUP1 REVERT JUMPDEST POP JUMP JUMPDEST PUSH1 0x0 DUP2 CALLDATALOAD SWAP1 POP PUSH2 0x18A2 DUP2 PUSH2 0x187C JUMP JUMPDEST SWAP3 SWAP2 POP POP JUMP JUMPDEST PUSH1 0x0 PUSH1 0x20 DUP3 DUP5 SUB SLT ISZERO PUSH2 0x18BE JUMPI PUSH2 0x18BD PUSH2 0x1846 JUMP JUMPDEST JUMPDEST PUSH1 0x0 PUSH2 0x18CC DUP5 DUP3 DUP6 ADD PUSH2 0x1893 JUMP JUMPDEST SWAP2 POP POP SWAP3 SWAP2 POP POP JUMP JUMPDEST PUSH1 0x0 DUP2 ISZERO ISZERO SWAP1 POP SWAP2 SWAP1 POP JUMP JUMPDEST PUSH2 0x18EA DUP2 PUSH2 0x18D5 JUMP JUMPDEST DUP3 MSTORE POP POP JUMP JUMPDEST PUSH1 0x0 PUSH1 0x20 DUP3 ADD SWAP1 POP PUSH2 0x1905 PUSH1 0x0 DUP4 ADD DUP5 PUSH2 0x18E1 JUMP JUMPDEST SWAP3 SWAP2 POP POP JUMP JUMPDEST PUSH1 0x0 DUP2 MLOAD SWAP1 POP SWAP2 SWAP1 POP JUMP JUMPDEST PUSH1 0x0 DUP3 DUP3 MSTORE PUSH1 0x20 DUP3 ADD SWAP1 POP SWAP3 SWAP2 POP POP JUMP JUMPDEST PUSH1 0x0 JUMPDEST DUP4 DUP2 LT ISZERO PUSH2 0x1945 JUMPI DUP1 DUP3 ADD MLOAD DUP2 DUP5 ADD MSTORE PUSH1 0x20 DUP2 ADD SWAP1 POP PUSH2 0x192A JUMP JUMPDEST DUP4 DUP2 GT ISZERO PUSH2 0x1954 JUMPI PUSH1 0x0 DUP5 DUP5 ADD MSTORE JUMPDEST POP POP POP POP JUMP JUMPDEST PUSH1 0x0 PUSH1 0x1F NOT PUSH1 0x1F DUP4 ADD AND SWAP1 POP SWAP2 SWAP1 POP JUMP JUMPDEST PUSH1 0x0 PUSH2 0x1976 DUP3 PUSH2 0x190B JUMP JUMPDEST PUSH2 0x1980 DUP2 DUP6 PUSH2 0x1916 JUMP JUMPDEST SWAP4 POP PUSH2 0x1990 DUP2 DUP6 PUSH1 0x20 DUP7 ADD PUSH2 0x1927 JUMP JUMPDEST PUSH2 0x1999 DUP2 PUSH2 0x195A JUMP JUMPDEST DUP5 ADD SWAP2 POP POP SWAP3 SWAP2 POP POP JUMP JUMPDEST PUSH1 0x0 PUSH1 0x20 DUP3 ADD SWAP1 POP DUP2 DUP2 SUB PUSH1 0x0 DUP4 ADD MSTORE PUSH2 0x19BE DUP2 DUP5 PUSH2 0x196B JUMP JUMPDEST SWAP1 POP SWAP3 SWAP2 POP POP JUMP JUMPDEST PUSH1 0x0 DUP2 SWAP1 POP SWAP2 SWAP1 POP JUMP JUMPDEST PUSH2 0x19D9 DUP2 PUSH2 0x19C6 JUMP JUMPDEST DUP2 EQ PUSH2 0x19E4 JUMPI PUSH1 0x0 DUP1 REVERT JUMPDEST POP JUMP JUMPDEST PUSH1 0x0 DUP2 CALLDATALOAD SWAP1 POP PUSH2 0x19F6 DUP2 PUSH2 0x19D0 JUMP JUMPDEST SWAP3 SWAP2 POP POP JUMP JUMPDEST PUSH1 0x0 PUSH1 0x20 DUP3 DUP5 SUB SLT ISZERO PUSH2 0x1A12 JUMPI PUSH2 0x1A11 PUSH2 0x1846 JUMP JUMPDEST JUMPDEST PUSH1 0x0 PUSH2 0x1A20 DUP5 DUP3 DUP6 ADD PUSH2 0x19E7 JUMP JUMPDEST SWAP2 POP POP SWAP3 SWAP2 POP POP JUMP JUMPDEST PUSH1 0x0 PUSH20 0xFFFFFFFFFFFFFFFFFFFFFFFFFFFFFFFFFFFFFFFF DUP3 AND SWAP1 POP SWAP2 SWAP1 POP JUMP JUMPDEST PUSH1 0x0 PUSH2 0x1A54 DUP3 PUSH2 0x1A29 JUMP JUMPDEST SWAP1 POP SWAP2 SWAP1 POP JUMP JUMPDEST PUSH2 0x1A64 DUP2 PUSH2 0x1A49 JUMP JUMPDEST DUP3 MSTORE POP POP JUMP JUMPDEST PUSH1 0x0 PUSH1 0x20 DUP3 ADD SWAP1 POP PUSH2 0x1A7F PUSH1 0x0 DUP4 ADD DUP5 PUSH2 0x1A5B JUMP JUMPDEST SWAP3 SWAP2 POP POP JUMP JUMPDEST PUSH2 0x1A8E DUP2 PUSH2 0x1A49 JUMP JUMPDEST DUP2 EQ PUSH2 0x1A99 JUMPI PUSH1 0x0 DUP1 REVERT JUMPDEST POP JUMP JUMPDEST PUSH1 0x0 DUP2 CALLDATALOAD SWAP1 POP PUSH2 0x1AAB DUP2 PUSH2 0x1A85 JUMP JUMPDEST SWAP3 SWAP2 POP POP JUMP JUMPDEST PUSH1 0x0 DUP1 PUSH1 0x40 DUP4 DUP6 SUB SLT ISZERO PUSH2 0x1AC8 JUMPI PUSH2 0x1AC7 PUSH2 0x1846 JUMP JUMPDEST JUMPDEST PUSH1 0x0 PUSH2 0x1AD6 DUP6 DUP3 DUP7 ADD PUSH2 0x1A9C JUMP JUMPDEST SWAP3 POP POP PUSH1 0x20 PUSH2 0x1AE7 DUP6 DUP3 DUP7 ADD PUSH2 0x19E7 JUMP JUMPDEST SWAP2 POP POP SWAP3 POP SWAP3 SWAP1 POP JUMP JUMPDEST PUSH2 0x1AFA DUP2 PUSH2 0x19C6 JUMP JUMPDEST DUP3 MSTORE POP POP JUMP JUMPDEST PUSH1 0x0 PUSH1 0x20 DUP3 ADD SWAP1 POP PUSH2 0x1B15 PUSH1 0x0 DUP4 ADD DUP5 PUSH2 0x1AF1 JUMP JUMPDEST SWAP3 SWAP2 POP POP JUMP JUMPDEST PUSH1 0x0 DUP1 PUSH1 0x0 PUSH1 0x60 DUP5 DUP7 SUB SLT ISZERO PUSH2 0x1B34 JUMPI PUSH2 0x1B33 PUSH2 0x1846 JUMP JUMPDEST JUMPDEST PUSH1 0x0 PUSH2 0x1B42 DUP7 DUP3 DUP8 ADD PUSH2 0x1A9C JUMP JUMPDEST SWAP4 POP POP PUSH1 0x20 PUSH2 0x1B53 DUP7 DUP3 DUP8 ADD PUSH2 0x1A9C JUMP JUMPDEST SWAP3 POP POP PUSH1 0x40 PUSH2 0x1B64 DUP7 DUP3 DUP8 ADD PUSH2 0x19E7 JUMP JUMPDEST SWAP2 POP POP SWAP3 POP SWAP3 POP SWAP3 JUMP JUMPDEST PUSH1 0x0 PUSH1 0x20 DUP3 DUP5 SUB SLT ISZERO PUSH2 0x1B84 JUMPI PUSH2 0x1B83 PUSH2 0x1846 JUMP JUMPDEST JUMPDEST PUSH1 0x0 PUSH2 0x1B92 DUP5 DUP3 DUP6 ADD PUSH2 0x1A9C JUMP JUMPDEST SWAP2 POP POP SWAP3 SWAP2 POP POP JUMP JUMPDEST PUSH2 0x1BA4 DUP2 PUSH2 0x18D5 JUMP JUMPDEST DUP2 EQ PUSH2 0x1BAF JUMPI PUSH1 0x0 DUP1 REVERT JUMPDEST POP JUMP JUMPDEST PUSH1 0x0 DUP2 CALLDATALOAD SWAP1 POP PUSH2 0x1BC1 DUP2 PUSH2 0x1B9B JUMP JUMPDEST SWAP3 SWAP2 POP POP JUMP JUMPDEST PUSH1 0x0 DUP1 PUSH1 0x40 DUP4 DUP6 SUB SLT ISZERO PUSH2 0x1BDE JUMPI PUSH2 0x1BDD PUSH2 0x1846 JUMP JUMPDEST JUMPDEST PUSH1 0x0 PUSH2 0x1BEC DUP6 DUP3 DUP7 ADD PUSH2 0x1A9C JUMP JUMPDEST SWAP3 POP POP PUSH1 0x20 PUSH2 0x1BFD DUP6 DUP3 DUP7 ADD PUSH2 0x1BB2 JUMP JUMPDEST SWAP2 POP POP SWAP3 POP SWAP3 SWAP1 POP JUMP JUMPDEST PUSH1 0x0 DUP1 REVERT JUMPDEST PUSH1 0x0 DUP1 REVERT JUMPDEST PUSH32 0x4E487B7100000000000000000000000000000000000000000000000000000000 PUSH1 0x0 MSTORE PUSH1 0x41 PUSH1 0x4 MSTORE PUSH1 0x24 PUSH1 0x0 REVERT JUMPDEST PUSH2 0x1C49 DUP3 PUSH2 0x195A JUMP JUMPDEST DUP2 ADD DUP2 DUP2 LT PUSH8 0xFFFFFFFFFFFFFFFF DUP3 GT OR ISZERO PUSH2 0x1C68 JUMPI PUSH2 0x1C67 PUSH2 0x1C11 JUMP JUMPDEST JUMPDEST DUP1 PUSH1 0x40 MSTORE POP POP POP JUMP JUMPDEST PUSH1 0x0 PUSH2 0x1C7B PUSH2 0x183C JUMP JUMPDEST SWAP1 POP PUSH2 0x1C87 DUP3 DUP3 PUSH2 0x1C40 JUMP JUMPDEST SWAP2 SWAP1 POP JUMP JUMPDEST PUSH1 0x0 PUSH8 0xFFFFFFFFFFFFFFFF DUP3 GT ISZERO PUSH2 0x1CA7 JUMPI PUSH2 0x1CA6 PUSH2 0x1C11 JUMP JUMPDEST JUMPDEST PUSH2 0x1CB0 DUP3 PUSH2 0x195A JUMP JUMPDEST SWAP1 POP PUSH1 0x20 DUP2 ADD SWAP1 POP SWAP2 SWAP1 POP JUMP JUMPDEST DUP3 DUP2 DUP4 CALLDATACOPY PUSH1 0x0 DUP4 DUP4 ADD MSTORE POP POP POP JUMP JUMPDEST PUSH1 0x0 PUSH2 0x1CDF PUSH2 0x1CDA DUP5 PUSH2 0x1C8C JUMP JUMPDEST PUSH2 0x1C71 JUMP JUMPDEST SWAP1 POP DUP3 DUP2 MSTORE PUSH1 0x20 DUP2 ADD DUP5 DUP5 DUP5 ADD GT ISZERO PUSH2 0x1CFB JUMPI PUSH2 0x1CFA PUSH2 0x1C0C JUMP JUMPDEST JUMPDEST PUSH2 0x1D06 DUP5 DUP3 DUP6 PUSH2 0x1CBD JUMP JUMPDEST POP SWAP4 SWAP3 POP POP POP JUMP JUMPDEST PUSH1 0x0 DUP3 PUSH1 0x1F DUP4 ADD SLT PUSH2 0x1D23 JUMPI PUSH2 0x1D22 PUSH2 0x1C07 JUMP JUMPDEST JUMPDEST DUP2 CALLDATALOAD PUSH2 0x1D33 DUP5 DUP3 PUSH1 0x20 DUP7 ADD PUSH2 0x1CCC JUMP JUMPDEST SWAP2 POP POP SWAP3 SWAP2 POP POP JUMP JUMPDEST PUSH1 0x0 DUP1 PUSH1 0x0 DUP1 PUSH1 0x80 DUP6 DUP8 SUB SLT ISZERO PUSH2 0x1D56 JUMPI PUSH2 0x1D55 PUSH2 0x1846 JUMP JUMPDEST JUMPDEST PUSH1 0x0 PUSH2 0x1D64 DUP8 DUP3 DUP9 ADD PUSH2 0x1A9C JUMP JUMPDEST SWAP5 POP POP PUSH1 0x20 PUSH2 0x1D75 DUP8 DUP3 DUP9 ADD PUSH2 0x1A9C JUMP JUMPDEST SWAP4 POP POP PUSH1 0x40 PUSH2 0x1D86 DUP8 DUP3 DUP9 ADD PUSH2 0x19E7 JUMP JUMPDEST SWAP3 POP POP PUSH1 0x60 DUP6 ADD CALLDATALOAD PUSH8 0xFFFFFFFFFFFFFFFF DUP2 GT ISZERO PUSH2 0x1DA7 JUMPI PUSH2 0x1DA6 PUSH2 0x184B JUMP JUMPDEST JUMPDEST PUSH2 0x1DB3 DUP8 DUP3 DUP9 ADD PUSH2 0x1D0E JUMP JUMPDEST SWAP2 POP POP SWAP3 SWAP6 SWAP2 SWAP5 POP SWAP3 POP JUMP JUMPDEST PUSH1 0x0 DUP1 PUSH1 0x40 DUP4 DUP6 SUB SLT ISZERO PUSH2 0x1DD6 JUMPI PUSH2 0x1DD5 PUSH2 0x1846 JUMP JUMPDEST JUMPDEST PUSH1 0x0 PUSH2 0x1DE4 DUP6 DUP3 DUP7 ADD PUSH2 0x1A9C JUMP JUMPDEST SWAP3 POP POP PUSH1 0x20 PUSH2 0x1DF5 DUP6 DUP3 DUP7 ADD PUSH2 0x1A9C JUMP JUMPDEST SWAP2 POP POP SWAP3 POP SWAP3 SWAP1 POP JUMP JUMPDEST PUSH32 0x4E487B7100000000000000000000000000000000000000000000000000000000 PUSH1 0x0 MSTORE PUSH1 0x22 PUSH1 0x4 MSTORE PUSH1 0x24 PUSH1 0x0 REVERT JUMPDEST PUSH1 0x0 PUSH1 0x2 DUP3 DIV SWAP1 POP PUSH1 0x1 DUP3 AND DUP1 PUSH2 0x1E46 JUMPI PUSH1 0x7F DUP3 AND SWAP2 POP JUMPDEST PUSH1 0x20 DUP3 LT DUP2 SUB PUSH2 0x1E59 JUMPI PUSH2 0x1E58 PUSH2 0x1DFF JUMP JUMPDEST JUMPDEST POP SWAP2 SWAP1 POP JUMP JUMPDEST PUSH1 0x0 DUP2 SWAP1 POP SWAP3 SWAP2 POP POP JUMP JUMPDEST PUSH1 0x0 PUSH2 0x1E75 DUP3 PUSH2 0x190B JUMP JUMPDEST PUSH2 0x1E7F DUP2 DUP6 PUSH2 0x1E5F JUMP JUMPDEST SWAP4 POP PUSH2 0x1E8F DUP2 DUP6 PUSH1 0x20 DUP7 ADD PUSH2 0x1927 JUMP JUMPDEST DUP1 DUP5 ADD SWAP2 POP POP SWAP3 SWAP2 POP POP JUMP JUMPDEST PUSH1 0x0 PUSH2 0x1EA7 DUP3 DUP6 PUSH2 0x1E6A JUMP JUMPDEST SWAP2 POP PUSH2 0x1EB3 DUP3 DUP5 PUSH2 0x1E6A JUMP JUMPDEST SWAP2 POP DUP2 SWAP1 POP SWAP4 SWAP3 POP POP POP JUMP JUMPDEST PUSH32 0x4E487B7100000000000000000000000000000000000000000000000000000000 PUSH1 0x0 MSTORE PUSH1 0x11 PUSH1 0x4 MSTORE PUSH1 0x24 PUSH1 0x0 REVERT JUMPDEST PUSH1 0x0 PUSH2 0x1EF9 DUP3 PUSH2 0x19C6 JUMP JUMPDEST SWAP2 POP PUSH2 0x1F04 DUP4 PUSH2 0x19C6 JUMP JUMPDEST SWAP3 POP DUP3 DUP3 LT ISZERO PUSH2 0x1F17 JUMPI PUSH2 0x1F16 PUSH2 0x1EBF JUMP JUMPDEST JUMPDEST DUP3 DUP3 SUB SWAP1 POP SWAP3 SWAP2 POP POP JUMP JUMPDEST PUSH1 0x0 PUSH2 0x1F2D DUP3 PUSH2 0x19C6 JUMP JUMPDEST SWAP2 POP PUSH2 0x1F38 DUP4 PUSH2 0x19C6 JUMP JUMPDEST SWAP3 POP DUP2 PUSH32 0xFFFFFFFFFFFFFFFFFFFFFFFFFFFFFFFFFFFFFFFFFFFFFFFFFFFFFFFFFFFFFFFF DIV DUP4 GT DUP3 ISZERO ISZERO AND ISZERO PUSH2 0x1F71 JUMPI PUSH2 0x1F70 PUSH2 0x1EBF JUMP JUMPDEST JUMPDEST DUP3 DUP3 MUL SWAP1 POP SWAP3 SWAP2 POP POP JUMP JUMPDEST PUSH1 0x0 PUSH2 0x1F87 DUP3 PUSH2 0x19C6 JUMP JUMPDEST SWAP2 POP PUSH2 0x1F92 DUP4 PUSH2 0x19C6 JUMP JUMPDEST SWAP3 POP DUP3 PUSH32 0xFFFFFFFFFFFFFFFFFFFFFFFFFFFFFFFFFFFFFFFFFFFFFFFFFFFFFFFFFFFFFFFF SUB DUP3 GT ISZERO PUSH2 0x1FC7 JUMPI PUSH2 0x1FC6 PUSH2 0x1EBF JUMP JUMPDEST JUMPDEST DUP3 DUP3 ADD SWAP1 POP SWAP3 SWAP2 POP POP JUMP JUMPDEST PUSH1 0x0 DUP2 MLOAD SWAP1 POP SWAP2 SWAP1 POP JUMP JUMPDEST PUSH1 0x0 DUP3 DUP3 MSTORE PUSH1 0x20 DUP3 ADD SWAP1 POP SWAP3 SWAP2 POP POP JUMP JUMPDEST PUSH1 0x0 PUSH2 0x1FF9 DUP3 PUSH2 0x1FD2 JUMP JUMPDEST PUSH2 0x2003 DUP2 DUP6 PUSH2 0x1FDD JUMP JUMPDEST SWAP4 POP PUSH2 0x2013 DUP2 DUP6 PUSH1 0x20 DUP7 ADD PUSH2 0x1927 JUMP JUMPDEST PUSH2 0x201C DUP2 PUSH2 0x195A JUMP JUMPDEST DUP5 ADD SWAP2 POP POP SWAP3 SWAP2 POP POP JUMP JUMPDEST PUSH1 0x0 PUSH1 0x80 DUP3 ADD SWAP1 POP PUSH2 0x203C PUSH1 0x0 DUP4 ADD DUP8 PUSH2 0x1A5B JUMP JUMPDEST PUSH2 0x2049 PUSH1 0x20 DUP4 ADD DUP7 PUSH2 0x1A5B JUMP JUMPDEST PUSH2 0x2056 PUSH1 0x40 DUP4 ADD DUP6 PUSH2 0x1AF1 JUMP JUMPDEST DUP2 DUP2 SUB PUSH1 0x60 DUP4 ADD MSTORE PUSH2 0x2068 DUP2 DUP5 PUSH2 0x1FEE JUMP JUMPDEST SWAP1 POP SWAP6 SWAP5 POP POP POP POP POP JUMP JUMPDEST PUSH1 0x0 DUP2 MLOAD SWAP1 POP PUSH2 0x2082 DUP2 PUSH2 0x187C JUMP JUMPDEST SWAP3 SWAP2 POP POP JUMP JUMPDEST PUSH1 0x0 PUSH1 0x20 DUP3 DUP5 SUB SLT ISZERO PUSH2 0x209E JUMPI PUSH2 0x209D PUSH2 0x1846 JUMP JUMPDEST JUMPDEST PUSH1 0x0 PUSH2 0x20AC DUP5 DUP3 DUP6 ADD PUSH2 0x2073 JUMP JUMPDEST SWAP2 POP POP SWAP3 SWAP2 POP POP JUMP JUMPDEST PUSH1 0x0 PUSH2 0x20C0 DUP3 PUSH2 0x19C6 JUMP JUMPDEST SWAP2 POP PUSH32 0xFFFFFFFFFFFFFFFFFFFFFFFFFFFFFFFFFFFFFFFFFFFFFFFFFFFFFFFFFFFFFFFF DUP3 SUB PUSH2 0x20F2 JUMPI PUSH2 0x20F1 PUSH2 0x1EBF JUMP JUMPDEST JUMPDEST PUSH1 0x1 DUP3 ADD SWAP1 POP SWAP2 SWAP1 POP JUMP JUMPDEST PUSH32 0x4E487B7100000000000000000000000000000000000000000000000000000000 PUSH1 0x0 MSTORE PUSH1 0x12 PUSH1 0x4 MSTORE PUSH1 0x24 PUSH1 0x0 REVERT JUMPDEST PUSH1 0x0 PUSH2 0x2137 DUP3 PUSH2 0x19C6 JUMP JUMPDEST SWAP2 POP PUSH2 0x2142 DUP4 PUSH2 0x19C6 JUMP JUMPDEST SWAP3 POP DUP3 PUSH2 0x2152 JUMPI PUSH2 0x2151 PUSH2 0x20FD JUMP JUMPDEST JUMPDEST DUP3 DUP3 DIV SWAP1 POP SWAP3 SWAP2 POP POP JUMP JUMPDEST PUSH1 0x0 PUSH2 0x2168 DUP3 PUSH2 0x19C6 JUMP JUMPDEST SWAP2 POP PUSH2 0x2173 DUP4 PUSH2 0x19C6 JUMP JUMPDEST SWAP3 POP DUP3 PUSH2 0x2183 JUMPI PUSH2 0x2182 PUSH2 0x20FD JUMP JUMPDEST JUMPDEST DUP3 DUP3 MOD SWAP1 POP SWAP3 SWAP2 POP POP JUMP JUMPDEST PUSH32 0x4E487B7100000000000000000000000000000000000000000000000000000000 PUSH1 0x0 MSTORE PUSH1 0x32 PUSH1 0x4 MSTORE PUSH1 0x24 PUSH1 0x0 REVERT INVALID PUSH9 0x747470733A2F2F6761 PUSH21 0x657761792E70696E6174612E636C6F75642F697066 PUSH20 0x2F516D6648576B7454625354424E4C7777385A44 PUSH9 0x32716335444B71695A PUSH4 0x696B6E6F PUSH18 0x37365A665872736F5231762FA26469706673 PC 0x22 SLT KECCAK256 0xC SWAP8 PUSH7 0x6107FFD7E2C800 SHL NOT MSTORE8 0x22 0xBD 0xD6 0x2E SHL 0xDC 0x4B 0xDC SWAP15 0xDB DUP12 DUP9 0x5E 0x27 0xCA 0x4F POP 0xDC PUSH13 0x64736F6C634300080D00330000 "
				},
				"gasEstimates": {
					"creation": {
						"codeDepositCost": "1754400",
						"executionCost": "infinite",
						"totalCost": "infinite"
					},
					"external": {
						"BlockScore(address)": "infinite",
						"approve(address,uint256)": "infinite",
						"balanceOf(address)": "2991",
						"getApproved(uint256)": "7466",
						"isApprovedForAll(address,address)": "infinite",
						"name()": "infinite",
						"ownerOf(uint256)": "infinite",
						"safeTransferFrom(address,address,uint256)": "infinite",
						"safeTransferFrom(address,address,uint256,bytes)": "infinite",
						"setApprovalForAll(address,bool)": "infinite",
						"supportsInterface(bytes4)": "797",
						"symbol()": "infinite",
						"tokenURI(uint256)": "infinite",
						"totalSupply()": "4629",
						"transferFrom(address,address,uint256)": "infinite"
					},
					"internal": {
						"_afterTokenTransfers(address,address,uint256,uint256)": "17",
						"_approve(address,uint256,address)": "26292",
						"_baseURI()": "infinite",
						"_beforeTokenTransfers(address,address,uint256,uint256)": "17",
						"_burn(uint256)": "infinite",
						"_burn(uint256,bool)": "infinite",
						"_checkContractOnERC721Received(address,address,uint256,bytes memory)": "infinite",
						"_exists(uint256)": "4507",
						"_getAux(address)": "infinite",
						"_mint(address,uint256)": "infinite",
						"_numberBurned(address)": "infinite",
						"_numberMinted(address)": "infinite",
						"_ownershipOf(uint256)": "infinite",
						"_safeMint(address,uint256)": "infinite",
						"_safeMint(address,uint256,bytes memory)": "infinite",
						"_setAux(address,uint64)": "infinite",
						"_startTokenId()": "23",
						"_totalMinted()": "infinite",
						"_transfer(address,address,uint256)": "infinite"
					}
				},
				"methodIdentifiers": {
					"BlockScore(address)": "325b272a",
					"approve(address,uint256)": "095ea7b3",
					"balanceOf(address)": "70a08231",
					"getApproved(uint256)": "081812fc",
					"isApprovedForAll(address,address)": "e985e9c5",
					"name()": "06fdde03",
					"ownerOf(uint256)": "6352211e",
					"safeTransferFrom(address,address,uint256)": "42842e0e",
					"safeTransferFrom(address,address,uint256,bytes)": "b88d4fde",
					"setApprovalForAll(address,bool)": "a22cb465",
					"supportsInterface(bytes4)": "01ffc9a7",
					"symbol()": "95d89b41",
					"tokenURI(uint256)": "c87b56dd",
					"totalSupply()": "18160ddd",
					"transferFrom(address,address,uint256)": "23b872dd"
				}
			},
			"storageLayout": {
				"storage": [
					{
						"astId": 1119,
						"contract": "ERC721A/ERC721A.sol:ERC721A",
						"label": "_currentIndex",
						"offset": 0,
						"slot": "0",
						"type": "t_uint256"
					},
					{
						"astId": 1121,
						"contract": "ERC721A/ERC721A.sol:ERC721A",
						"label": "_burnCounter",
						"offset": 0,
						"slot": "1",
						"type": "t_uint256"
					},
					{
						"astId": 1123,
						"contract": "ERC721A/ERC721A.sol:ERC721A",
						"label": "_name",
						"offset": 0,
						"slot": "2",
						"type": "t_string_storage"
					},
					{
						"astId": 1125,
						"contract": "ERC721A/ERC721A.sol:ERC721A",
						"label": "_symbol",
						"offset": 0,
						"slot": "3",
						"type": "t_string_storage"
					},
					{
						"astId": 1130,
						"contract": "ERC721A/ERC721A.sol:ERC721A",
						"label": "_ownerships",
						"offset": 0,
						"slot": "4",
						"type": "t_mapping(t_uint256,t_struct(TokenOwnership)2585_storage)"
					},
					{
						"astId": 1135,
						"contract": "ERC721A/ERC721A.sol:ERC721A",
						"label": "_addressData",
						"offset": 0,
						"slot": "5",
						"type": "t_mapping(t_address,t_struct(AddressData)2594_storage)"
					},
					{
						"astId": 1139,
						"contract": "ERC721A/ERC721A.sol:ERC721A",
						"label": "_tokenApprovals",
						"offset": 0,
						"slot": "6",
						"type": "t_mapping(t_uint256,t_address)"
					},
					{
						"astId": 1145,
						"contract": "ERC721A/ERC721A.sol:ERC721A",
						"label": "_operatorApprovals",
						"offset": 0,
						"slot": "7",
						"type": "t_mapping(t_address,t_mapping(t_address,t_bool))"
					},
					{
						"astId": 1152,
						"contract": "ERC721A/ERC721A.sol:ERC721A",
						"label": "_BlockScore",
						"offset": 0,
						"slot": "8",
						"type": "t_mapping(t_address,t_mapping(t_uint256,t_uint256))"
					}
				],
				"types": {
					"t_address": {
						"encoding": "inplace",
						"label": "address",
						"numberOfBytes": "20"
					},
					"t_bool": {
						"encoding": "inplace",
						"label": "bool",
						"numberOfBytes": "1"
					},
					"t_mapping(t_address,t_bool)": {
						"encoding": "mapping",
						"key": "t_address",
						"label": "mapping(address => bool)",
						"numberOfBytes": "32",
						"value": "t_bool"
					},
					"t_mapping(t_address,t_mapping(t_address,t_bool))": {
						"encoding": "mapping",
						"key": "t_address",
						"label": "mapping(address => mapping(address => bool))",
						"numberOfBytes": "32",
						"value": "t_mapping(t_address,t_bool)"
					},
					"t_mapping(t_address,t_mapping(t_uint256,t_uint256))": {
						"encoding": "mapping",
						"key": "t_address",
						"label": "mapping(address => mapping(uint256 => uint256))",
						"numberOfBytes": "32",
						"value": "t_mapping(t_uint256,t_uint256)"
					},
					"t_mapping(t_address,t_struct(AddressData)2594_storage)": {
						"encoding": "mapping",
						"key": "t_address",
						"label": "mapping(address => struct IERC721A.AddressData)",
						"numberOfBytes": "32",
						"value": "t_struct(AddressData)2594_storage"
					},
					"t_mapping(t_uint256,t_address)": {
						"encoding": "mapping",
						"key": "t_uint256",
						"label": "mapping(uint256 => address)",
						"numberOfBytes": "32",
						"value": "t_address"
					},
					"t_mapping(t_uint256,t_struct(TokenOwnership)2585_storage)": {
						"encoding": "mapping",
						"key": "t_uint256",
						"label": "mapping(uint256 => struct IERC721A.TokenOwnership)",
						"numberOfBytes": "32",
						"value": "t_struct(TokenOwnership)2585_storage"
					},
					"t_mapping(t_uint256,t_uint256)": {
						"encoding": "mapping",
						"key": "t_uint256",
						"label": "mapping(uint256 => uint256)",
						"numberOfBytes": "32",
						"value": "t_uint256"
					},
					"t_string_storage": {
						"encoding": "bytes",
						"label": "string",
						"numberOfBytes": "32"
					},
					"t_struct(AddressData)2594_storage": {
						"encoding": "inplace",
						"label": "struct IERC721A.AddressData",
						"members": [
							{
								"astId": 2587,
								"contract": "ERC721A/ERC721A.sol:ERC721A",
								"label": "balance",
								"offset": 0,
								"slot": "0",
								"type": "t_uint64"
							},
							{
								"astId": 2589,
								"contract": "ERC721A/ERC721A.sol:ERC721A",
								"label": "numberMinted",
								"offset": 8,
								"slot": "0",
								"type": "t_uint64"
							},
							{
								"astId": 2591,
								"contract": "ERC721A/ERC721A.sol:ERC721A",
								"label": "numberBurned",
								"offset": 16,
								"slot": "0",
								"type": "t_uint64"
							},
							{
								"astId": 2593,
								"contract": "ERC721A/ERC721A.sol:ERC721A",
								"label": "aux",
								"offset": 24,
								"slot": "0",
								"type": "t_uint64"
							}
						],
						"numberOfBytes": "32"
					},
					"t_struct(TokenOwnership)2585_storage": {
						"encoding": "inplace",
						"label": "struct IERC721A.TokenOwnership",
						"members": [
							{
								"astId": 2580,
								"contract": "ERC721A/ERC721A.sol:ERC721A",
								"label": "addr",
								"offset": 0,
								"slot": "0",
								"type": "t_address"
							},
							{
								"astId": 2582,
								"contract": "ERC721A/ERC721A.sol:ERC721A",
								"label": "startTimestamp",
								"offset": 20,
								"slot": "0",
								"type": "t_uint64"
							},
							{
								"astId": 2584,
								"contract": "ERC721A/ERC721A.sol:ERC721A",
								"label": "burned",
								"offset": 28,
								"slot": "0",
								"type": "t_bool"
							}
						],
						"numberOfBytes": "32"
					},
					"t_uint256": {
						"encoding": "inplace",
						"label": "uint256",
						"numberOfBytes": "32"
					},
					"t_uint64": {
						"encoding": "inplace",
						"label": "uint64",
						"numberOfBytes": "8"
					}
				}
			},
			"userdoc": {
				"errors": {
					"ApprovalCallerNotOwnerNorApproved()": [
						{
							"notice": "The caller must own the token or be an approved operator."
						}
					],
					"ApprovalQueryForNonexistentToken()": [
						{
							"notice": "The token does not exist."
						}
					],
					"ApprovalToCurrentOwner()": [
						{
							"notice": "The caller cannot approve to the current owner."
						}
					],
					"ApproveToCaller()": [
						{
							"notice": "The caller cannot approve to their own address."
						}
					],
					"BalanceQueryForZeroAddress()": [
						{
							"notice": "Cannot query the balance for the zero address."
						}
					],
					"MintToZeroAddress()": [
						{
							"notice": "Cannot mint to the zero address."
						}
					],
					"MintZeroQuantity()": [
						{
							"notice": "The quantity of tokens minted must be more than zero."
						}
					],
					"OwnerQueryForNonexistentToken()": [
						{
							"notice": "The token does not exist."
						}
					],
					"TransferCallerNotOwnerNorApproved()": [
						{
							"notice": "The caller must own the token or be an approved operator."
						}
					],
					"TransferFromIncorrectOwner()": [
						{
							"notice": "The token must be owned by `from`."
						}
					],
					"TransferToNonERC721ReceiverImplementer()": [
						{
							"notice": "Cannot safely transfer to a contract that does not implement the ERC721Receiver interface."
						}
					],
					"TransferToZeroAddress()": [
						{
							"notice": "Cannot transfer to the zero address."
						}
					],
					"URIQueryForNonexistentToken()": [
						{
							"notice": "The token does not exist."
						}
					]
				},
				"kind": "user",
				"methods": {},
				"version": 1
			}
		}
	}
}