{
	"Dcoffer/treasury.sol": {
		"treasury": {
			"abi": [
				{
					"inputs": [
						{
							"internalType": "uint256",
							"name": "_k",
							"type": "uint256"
						},
						{
							"internalType": "uint256",
							"name": "_fee",
							"type": "uint256"
						}
					],
					"stateMutability": "payable",
					"type": "constructor"
				},
				{
					"inputs": [
						{
							"internalType": "uint256",
							"name": "dcf_amount",
							"type": "uint256"
						}
					],
					"name": "DCF_ETH",
					"outputs": [
						{
							"internalType": "uint256",
							"name": "",
							"type": "uint256"
						}
					],
					"stateMutability": "view",
					"type": "function"
				},
				{
					"inputs": [
						{
							"internalType": "uint256",
							"name": "eth_amount",
							"type": "uint256"
						}
					],
					"name": "ETH_DCF",
					"outputs": [
						{
							"internalType": "uint256",
							"name": "",
							"type": "uint256"
						}
					],
					"stateMutability": "view",
					"type": "function"
				},
				{
					"inputs": [],
					"name": "Warning_protect",
					"outputs": [],
					"stateMutability": "nonpayable",
					"type": "function"
				},
				{
					"inputs": [],
					"name": "admin_fee",
					"outputs": [],
					"stateMutability": "nonpayable",
					"type": "function"
				},
				{
					"inputs": [
						{
							"internalType": "address payable",
							"name": "seller",
							"type": "address"
						},
						{
							"internalType": "uint256",
							"name": "dcf_amount",
							"type": "uint256"
						}
					],
					"name": "market",
					"outputs": [],
					"stateMutability": "nonpayable",
					"type": "function"
				},
				{
					"inputs": [
						{
							"internalType": "address",
							"name": "user",
							"type": "address"
						},
						{
							"internalType": "bool",
							"name": "power",
							"type": "bool"
						}
					],
					"name": "setRouter",
					"outputs": [],
					"stateMutability": "nonpayable",
					"type": "function"
				},
				{
					"inputs": [
						{
							"internalType": "address",
							"name": "subscriber",
							"type": "address"
						}
					],
					"name": "subscribe",
					"outputs": [],
					"stateMutability": "payable",
					"type": "function"
				}
			],
			"devdoc": {
				"kind": "dev",
				"methods": {},
				"version": 1
			},
			"evm": {
				"assembly": "    /* \"Dcoffer/treasury.sol\":183:3047  contract treasury {... */\n  mstore(0x40, 0x80)\n    /* \"Dcoffer/treasury.sol\":261:303  0x58d3a4cb28f30d9C87E8F79544f98F358cde6227 */\n  0x58d3a4cb28f30d9c87e8f79544f98f358cde6227\n    /* \"Dcoffer/treasury.sol\":238:304  IERC20 dcoff =  IERC20(0x58d3a4cb28f30d9C87E8F79544f98F358cde6227) */\n  0x00\n  dup1\n  0x0100\n  exp\n  dup2\n  sload\n  dup2\n  0xffffffffffffffffffffffffffffffffffffffff\n  mul\n  not\n  and\n  swap1\n  dup4\n  0xffffffffffffffffffffffffffffffffffffffff\n  and\n  mul\n  or\n  swap1\n  sstore\n  pop\n    /* \"Dcoffer/treasury.sol\":518:654  constructor(uint256 _k, uint256 _fee)payable{... */\n  mload(0x40)\n  sub(codesize, bytecodeSize)\n  dup1\n  bytecodeSize\n  dup4\n  codecopy\n  dup2\n  dup2\n  add\n  0x40\n  mstore\n  dup2\n  add\n  swap1\n  tag_1\n  swap2\n  swap1\n  tag_2\n  jump\t// in\ntag_1:\n    /* \"Dcoffer/treasury.sol\":577:587  msg.sender */\n  caller\n    /* \"Dcoffer/treasury.sol\":569:574  owner */\n  0x06\n  0x00\n    /* \"Dcoffer/treasury.sol\":569:587  owner = msg.sender */\n  0x0100\n  exp\n  dup2\n  sload\n  dup2\n  0xffffffffffffffffffffffffffffffffffffffff\n  mul\n  not\n  and\n  swap1\n  dup4\n  0xffffffffffffffffffffffffffffffffffffffff\n  and\n  mul\n  or\n  swap1\n  sstore\n  pop\n    /* \"Dcoffer/treasury.sol\":609:618  msg.value */\n  callvalue\n    /* \"Dcoffer/treasury.sol\":594:606  last_balance */\n  0x03\n    /* \"Dcoffer/treasury.sol\":594:618  last_balance = msg.value */\n  dup2\n  swap1\n  sstore\n  pop\n    /* \"Dcoffer/treasury.sol\":629:631  _k */\n  dup2\n    /* \"Dcoffer/treasury.sol\":625:626  K */\n  0x01\n    /* \"Dcoffer/treasury.sol\":625:631  K = _k */\n  dup2\n  swap1\n  sstore\n  pop\n    /* \"Dcoffer/treasury.sol\":644:648  _fee */\n  dup1\n    /* \"Dcoffer/treasury.sol\":638:641  fee */\n  0x02\n    /* \"Dcoffer/treasury.sol\":638:648  fee = _fee */\n  dup2\n  swap1\n  sstore\n  pop\n    /* \"Dcoffer/treasury.sol\":518:654  constructor(uint256 _k, uint256 _fee)payable{... */\n  pop\n  pop\n    /* \"Dcoffer/treasury.sol\":183:3047  contract treasury {... */\n  jump(tag_5)\n    /* \"#utility.yul\":88:205   */\ntag_7:\n    /* \"#utility.yul\":197:198   */\n  0x00\n    /* \"#utility.yul\":194:195   */\n  dup1\n    /* \"#utility.yul\":187:199   */\n  revert\n    /* \"#utility.yul\":334:411   */\ntag_9:\n    /* \"#utility.yul\":371:378   */\n  0x00\n    /* \"#utility.yul\":400:405   */\n  dup2\n    /* \"#utility.yul\":389:405   */\n  swap1\n  pop\n    /* \"#utility.yul\":334:411   */\n  swap2\n  swap1\n  pop\n  jump\t// out\n    /* \"#utility.yul\":417:539   */\ntag_10:\n    /* \"#utility.yul\":490:514   */\n  tag_18\n    /* \"#utility.yul\":508:513   */\n  dup2\n    /* \"#utility.yul\":490:514   */\n  tag_9\n  jump\t// in\ntag_18:\n    /* \"#utility.yul\":483:488   */\n  dup2\n    /* \"#utility.yul\":480:515   */\n  eq\n    /* \"#utility.yul\":470:533   */\n  tag_19\n  jumpi\n    /* \"#utility.yul\":529:530   */\n  0x00\n    /* \"#utility.yul\":526:527   */\n  dup1\n    /* \"#utility.yul\":519:531   */\n  revert\n    /* \"#utility.yul\":470:533   */\ntag_19:\n    /* \"#utility.yul\":417:539   */\n  pop\n  jump\t// out\n    /* \"#utility.yul\":545:688   */\ntag_11:\n    /* \"#utility.yul\":602:607   */\n  0x00\n    /* \"#utility.yul\":633:639   */\n  dup2\n    /* \"#utility.yul\":627:640   */\n  mload\n    /* \"#utility.yul\":618:640   */\n  swap1\n  pop\n    /* \"#utility.yul\":649:682   */\n  tag_21\n    /* \"#utility.yul\":676:681   */\n  dup2\n    /* \"#utility.yul\":649:682   */\n  tag_10\n  jump\t// in\ntag_21:\n    /* \"#utility.yul\":545:688   */\n  swap3\n  swap2\n  pop\n  pop\n  jump\t// out\n    /* \"#utility.yul\":694:1201   */\ntag_2:\n    /* \"#utility.yul\":773:779   */\n  0x00\n    /* \"#utility.yul\":781:787   */\n  dup1\n    /* \"#utility.yul\":830:832   */\n  0x40\n    /* \"#utility.yul\":818:827   */\n  dup4\n    /* \"#utility.yul\":809:816   */\n  dup6\n    /* \"#utility.yul\":805:828   */\n  sub\n    /* \"#utility.yul\":801:833   */\n  slt\n    /* \"#utility.yul\":798:917   */\n  iszero\n  tag_23\n  jumpi\n    /* \"#utility.yul\":836:915   */\n  tag_24\n  tag_7\n  jump\t// in\ntag_24:\n    /* \"#utility.yul\":798:917   */\ntag_23:\n    /* \"#utility.yul\":956:957   */\n  0x00\n    /* \"#utility.yul\":981:1045   */\n  tag_25\n    /* \"#utility.yul\":1037:1044   */\n  dup6\n    /* \"#utility.yul\":1028:1034   */\n  dup3\n    /* \"#utility.yul\":1017:1026   */\n  dup7\n    /* \"#utility.yul\":1013:1035   */\n  add\n    /* \"#utility.yul\":981:1045   */\n  tag_11\n  jump\t// in\ntag_25:\n    /* \"#utility.yul\":971:1045   */\n  swap3\n  pop\n    /* \"#utility.yul\":927:1055   */\n  pop\n    /* \"#utility.yul\":1094:1096   */\n  0x20\n    /* \"#utility.yul\":1120:1184   */\n  tag_26\n    /* \"#utility.yul\":1176:1183   */\n  dup6\n    /* \"#utility.yul\":1167:1173   */\n  dup3\n    /* \"#utility.yul\":1156:1165   */\n  dup7\n    /* \"#utility.yul\":1152:1174   */\n  add\n    /* \"#utility.yul\":1120:1184   */\n  tag_11\n  jump\t// in\ntag_26:\n    /* \"#utility.yul\":1110:1184   */\n  swap2\n  pop\n    /* \"#utility.yul\":1065:1194   */\n  pop\n    /* \"#utility.yul\":694:1201   */\n  swap3\n  pop\n  swap3\n  swap1\n  pop\n  jump\t// out\n    /* \"Dcoffer/treasury.sol\":183:3047  contract treasury {... */\ntag_5:\n  dataSize(sub_0)\n  dup1\n  dataOffset(sub_0)\n  0x00\n  codecopy\n  0x00\n  return\nstop\n\nsub_0: assembly {\n        /* \"Dcoffer/treasury.sol\":183:3047  contract treasury {... */\n      mstore(0x40, 0x80)\n      jumpi(tag_1, lt(calldatasize, 0x04))\n      shr(0xe0, calldataload(0x00))\n      dup1\n      0x97dedb1d\n      gt\n      tag_9\n      jumpi\n      dup1\n      0x97dedb1d\n      eq\n      tag_5\n      jumpi\n      dup1\n      0xc3c64674\n      eq\n      tag_6\n      jumpi\n      dup1\n      0xdac3fad4\n      eq\n      tag_7\n      jumpi\n      dup1\n      0xfee3f7f9\n      eq\n      tag_8\n      jumpi\n      jump(tag_1)\n    tag_9:\n      dup1\n      0x3a23bf49\n      eq\n      tag_2\n      jumpi\n      dup1\n      0x41a7726a\n      eq\n      tag_3\n      jumpi\n      dup1\n      0x94756aa7\n      eq\n      tag_4\n      jumpi\n    tag_1:\n      0x00\n      dup1\n      revert\n        /* \"Dcoffer/treasury.sol\":1912:2375  function DCF_ETH(uint256 dcf_amount)public view returns(uint256){... */\n    tag_2:\n      callvalue\n      dup1\n      iszero\n      tag_10\n      jumpi\n      0x00\n      dup1\n      revert\n    tag_10:\n      pop\n      tag_11\n      0x04\n      dup1\n      calldatasize\n      sub\n      dup2\n      add\n      swap1\n      tag_12\n      swap2\n      swap1\n      tag_13\n      jump\t// in\n    tag_12:\n      tag_14\n      jump\t// in\n    tag_11:\n      mload(0x40)\n      tag_15\n      swap2\n      swap1\n      tag_16\n      jump\t// in\n    tag_15:\n      mload(0x40)\n      dup1\n      swap2\n      sub\n      swap1\n      return\n        /* \"Dcoffer/treasury.sol\":964:1374  function subscribe(address subscriber)external payable{... */\n    tag_3:\n      tag_17\n      0x04\n      dup1\n      calldatasize\n      sub\n      dup2\n      add\n      swap1\n      tag_18\n      swap2\n      swap1\n      tag_19\n      jump\t// in\n    tag_18:\n      tag_20\n      jump\t// in\n    tag_17:\n      stop\n        /* \"Dcoffer/treasury.sol\":1382:1904  function market(address payable seller, uint256 dcf_amount)external {... */\n    tag_4:\n      callvalue\n      dup1\n      iszero\n      tag_21\n      jumpi\n      0x00\n      dup1\n      revert\n    tag_21:\n      pop\n      tag_22\n      0x04\n      dup1\n      calldatasize\n      sub\n      dup2\n      add\n      swap1\n      tag_23\n      swap2\n      swap1\n      tag_24\n      jump\t// in\n    tag_23:\n      tag_25\n      jump\t// in\n    tag_22:\n      stop\n        /* \"Dcoffer/treasury.sol\":2383:2743  function ETH_DCF(uint256 eth_amount)public view returns(uint256){... */\n    tag_5:\n      callvalue\n      dup1\n      iszero\n      tag_26\n      jumpi\n      0x00\n      dup1\n      revert\n    tag_26:\n      pop\n      tag_27\n      0x04\n      dup1\n      calldatasize\n      sub\n      dup2\n      add\n      swap1\n      tag_28\n      swap2\n      swap1\n      tag_13\n      jump\t// in\n    tag_28:\n      tag_29\n      jump\t// in\n    tag_27:\n      mload(0x40)\n      tag_30\n      swap2\n      swap1\n      tag_16\n      jump\t// in\n    tag_30:\n      mload(0x40)\n      dup1\n      swap2\n      sub\n      swap1\n      return\n        /* \"Dcoffer/treasury.sol\":854:956  function setRouter(address user, bool power)external onlyOwner{... */\n    tag_6:\n      callvalue\n      dup1\n      iszero\n      tag_31\n      jumpi\n      0x00\n      dup1\n      revert\n    tag_31:\n      pop\n      tag_32\n      0x04\n      dup1\n      calldatasize\n      sub\n      dup2\n      add\n      swap1\n      tag_33\n      swap2\n      swap1\n      tag_34\n      jump\t// in\n    tag_33:\n      tag_35\n      jump\t// in\n    tag_32:\n      stop\n        /* \"Dcoffer/treasury.sol\":2756:2918  function Warning_protect()external onlyOwner{... */\n    tag_7:\n      callvalue\n      dup1\n      iszero\n      tag_36\n      jumpi\n      0x00\n      dup1\n      revert\n    tag_36:\n      pop\n      tag_37\n      tag_38\n      jump\t// in\n    tag_37:\n      stop\n        /* \"Dcoffer/treasury.sol\":2926:3024  function admin_fee()external onlyOwner{... */\n    tag_8:\n      callvalue\n      dup1\n      iszero\n      tag_39\n      jumpi\n      0x00\n      dup1\n      revert\n    tag_39:\n      pop\n      tag_40\n      tag_41\n      jump\t// in\n    tag_40:\n      stop\n        /* \"Dcoffer/treasury.sol\":1912:2375  function DCF_ETH(uint256 dcf_amount)public view returns(uint256){... */\n    tag_14:\n        /* \"Dcoffer/treasury.sol\":1968:1975  uint256 */\n      0x00\n        /* \"Dcoffer/treasury.sol\":1983:2002  uint256 _eth_amount */\n      dup1\n        /* \"Dcoffer/treasury.sol\":2005:2028  last_balance.sub(admin) */\n      tag_43\n        /* \"Dcoffer/treasury.sol\":2022:2027  admin */\n      sload(0x04)\n        /* \"Dcoffer/treasury.sol\":2005:2017  last_balance */\n      sload(0x03)\n        /* \"Dcoffer/treasury.sol\":2005:2021  last_balance.sub */\n      tag_44\n      swap1\n        /* \"Dcoffer/treasury.sol\":2005:2028  last_balance.sub(admin) */\n      swap2\n      swap1\n      0xffffffff\n      and\n      jump\t// in\n    tag_43:\n        /* \"Dcoffer/treasury.sol\":1983:2028  uint256 _eth_amount = last_balance.sub(admin) */\n      swap1\n      pop\n        /* \"Dcoffer/treasury.sol\":2035:2054  uint256 _dcf_amount */\n      0x00\n        /* \"Dcoffer/treasury.sol\":2057:2062  dcoff */\n      dup1\n      0x00\n      swap1\n      sload\n      swap1\n      0x0100\n      exp\n      swap1\n      div\n      0xffffffffffffffffffffffffffffffffffffffff\n      and\n        /* \"Dcoffer/treasury.sol\":2057:2072  dcoff.balanceOf */\n      0xffffffffffffffffffffffffffffffffffffffff\n      and\n      0x70a08231\n        /* \"Dcoffer/treasury.sol\":2081:2085  this */\n      address\n        /* \"Dcoffer/treasury.sol\":2057:2087  dcoff.balanceOf(address(this)) */\n      mload(0x40)\n      dup3\n      0xffffffff\n      and\n      0xe0\n      shl\n      dup2\n      mstore\n      0x04\n      add\n      tag_45\n      swap2\n      swap1\n      tag_46\n      jump\t// in\n    tag_45:\n      0x20\n      mload(0x40)\n      dup1\n      dup4\n      sub\n      dup2\n      dup7\n      gas\n      staticcall\n      iszero\n      dup1\n      iszero\n      tag_48\n      jumpi\n      returndatasize\n      0x00\n      dup1\n      returndatacopy\n      revert(0x00, returndatasize)\n    tag_48:\n      pop\n      pop\n      pop\n      pop\n      mload(0x40)\n      returndatasize\n      not(0x1f)\n      0x1f\n      dup3\n      add\n      and\n      dup3\n      add\n      dup1\n      0x40\n      mstore\n      pop\n      dup2\n      add\n      swap1\n      tag_49\n      swap2\n      swap1\n      tag_50\n      jump\t// in\n    tag_49:\n        /* \"Dcoffer/treasury.sol\":2035:2087  uint256 _dcf_amount = dcoff.balanceOf(address(this)) */\n      swap1\n      pop\n        /* \"Dcoffer/treasury.sol\":2098:2118  uint256 Variable_dcf */\n      0x00\n        /* \"Dcoffer/treasury.sol\":2121:2148  _dcf_amount.add(dcf_amount) */\n      tag_51\n        /* \"Dcoffer/treasury.sol\":2137:2147  dcf_amount */\n      dup6\n        /* \"Dcoffer/treasury.sol\":2121:2132  _dcf_amount */\n      dup4\n        /* \"Dcoffer/treasury.sol\":2121:2136  _dcf_amount.add */\n      tag_52\n      swap1\n        /* \"Dcoffer/treasury.sol\":2121:2148  _dcf_amount.add(dcf_amount) */\n      swap2\n      swap1\n      0xffffffff\n      and\n      jump\t// in\n    tag_51:\n        /* \"Dcoffer/treasury.sol\":2098:2148  uint256 Variable_dcf = _dcf_amount.add(dcf_amount) */\n      swap1\n      pop\n        /* \"Dcoffer/treasury.sol\":2175:2180  dcoff */\n      0x00\n      dup1\n      sload\n      swap1\n      0x0100\n      exp\n      swap1\n      div\n      0xffffffffffffffffffffffffffffffffffffffff\n      and\n        /* \"Dcoffer/treasury.sol\":2175:2192  dcoff.totalSupply */\n      0xffffffffffffffffffffffffffffffffffffffff\n      and\n      0x18160ddd\n        /* \"Dcoffer/treasury.sol\":2175:2194  dcoff.totalSupply() */\n      mload(0x40)\n      dup2\n      0xffffffff\n      and\n      0xe0\n      shl\n      dup2\n      mstore\n      0x04\n      add\n      0x20\n      mload(0x40)\n      dup1\n      dup4\n      sub\n      dup2\n      dup7\n      gas\n      staticcall\n      iszero\n      dup1\n      iszero\n      tag_54\n      jumpi\n      returndatasize\n      0x00\n      dup1\n      returndatacopy\n      revert(0x00, returndatasize)\n    tag_54:\n      pop\n      pop\n      pop\n      pop\n      mload(0x40)\n      returndatasize\n      not(0x1f)\n      0x1f\n      dup3\n      add\n      and\n      dup3\n      add\n      dup1\n      0x40\n      mstore\n      pop\n      dup2\n      add\n      swap1\n      tag_55\n      swap2\n      swap1\n      tag_50\n      jump\t// in\n    tag_55:\n        /* \"Dcoffer/treasury.sol\":2160:2172  Variable_dcf */\n      dup2\n        /* \"Dcoffer/treasury.sol\":2160:2194  Variable_dcf > dcoff.totalSupply() */\n      gt\n        /* \"Dcoffer/treasury.sol\":2157:2246  if(Variable_dcf > dcoff.totalSupply()){... */\n      iszero\n      tag_56\n      jumpi\n        /* \"Dcoffer/treasury.sol\":2219:2224  dcoff */\n      0x00\n      dup1\n      sload\n      swap1\n      0x0100\n      exp\n      swap1\n      div\n      0xffffffffffffffffffffffffffffffffffffffff\n      and\n        /* \"Dcoffer/treasury.sol\":2219:2236  dcoff.totalSupply */\n      0xffffffffffffffffffffffffffffffffffffffff\n      and\n      0x18160ddd\n        /* \"Dcoffer/treasury.sol\":2219:2238  dcoff.totalSupply() */\n      mload(0x40)\n      dup2\n      0xffffffff\n      and\n      0xe0\n      shl\n      dup2\n      mstore\n      0x04\n      add\n      0x20\n      mload(0x40)\n      dup1\n      dup4\n      sub\n      dup2\n      dup7\n      gas\n      staticcall\n      iszero\n      dup1\n      iszero\n      tag_58\n      jumpi\n      returndatasize\n      0x00\n      dup1\n      returndatacopy\n      revert(0x00, returndatasize)\n    tag_58:\n      pop\n      pop\n      pop\n      pop\n      mload(0x40)\n      returndatasize\n      not(0x1f)\n      0x1f\n      dup3\n      add\n      and\n      dup3\n      add\n      dup1\n      0x40\n      mstore\n      pop\n      dup2\n      add\n      swap1\n      tag_59\n      swap2\n      swap1\n      tag_50\n      jump\t// in\n    tag_59:\n        /* \"Dcoffer/treasury.sol\":2204:2238  Variable_dcf = dcoff.totalSupply() */\n      swap1\n      pop\n        /* \"Dcoffer/treasury.sol\":2157:2246  if(Variable_dcf > dcoff.totalSupply()){... */\n    tag_56:\n        /* \"Dcoffer/treasury.sol\":2254:2274  uint256 Variable_eth */\n      0x00\n        /* \"Dcoffer/treasury.sol\":2277:2296  K.div(Variable_dcf) */\n      tag_60\n        /* \"Dcoffer/treasury.sol\":2283:2295  Variable_dcf */\n      dup3\n        /* \"Dcoffer/treasury.sol\":2277:2278  K */\n      sload(0x01)\n        /* \"Dcoffer/treasury.sol\":2277:2282  K.div */\n      tag_61\n      swap1\n        /* \"Dcoffer/treasury.sol\":2277:2296  K.div(Variable_dcf) */\n      swap2\n      swap1\n      0xffffffff\n      and\n      jump\t// in\n    tag_60:\n        /* \"Dcoffer/treasury.sol\":2254:2296  uint256 Variable_eth = K.div(Variable_dcf) */\n      swap1\n      pop\n        /* \"Dcoffer/treasury.sol\":2303:2317  uint256 _price */\n      0x00\n        /* \"Dcoffer/treasury.sol\":2320:2349  _eth_amount.sub(Variable_eth) */\n      tag_62\n        /* \"Dcoffer/treasury.sol\":2336:2348  Variable_eth */\n      dup3\n        /* \"Dcoffer/treasury.sol\":2320:2331  _eth_amount */\n      dup7\n        /* \"Dcoffer/treasury.sol\":2320:2335  _eth_amount.sub */\n      tag_44\n      swap1\n        /* \"Dcoffer/treasury.sol\":2320:2349  _eth_amount.sub(Variable_eth) */\n      swap2\n      swap1\n      0xffffffff\n      and\n      jump\t// in\n    tag_62:\n        /* \"Dcoffer/treasury.sol\":2303:2349  uint256 _price = _eth_amount.sub(Variable_eth) */\n      swap1\n      pop\n        /* \"Dcoffer/treasury.sol\":2363:2369  _price */\n      dup1\n        /* \"Dcoffer/treasury.sol\":2356:2369  return _price */\n      swap6\n      pop\n      pop\n      pop\n      pop\n      pop\n      pop\n        /* \"Dcoffer/treasury.sol\":1912:2375  function DCF_ETH(uint256 dcf_amount)public view returns(uint256){... */\n      swap2\n      swap1\n      pop\n      jump\t// out\n        /* \"Dcoffer/treasury.sol\":964:1374  function subscribe(address subscriber)external payable{... */\n    tag_20:\n        /* \"Dcoffer/treasury.sol\":1062:1066  true */\n      0x01\n        /* \"Dcoffer/treasury.sol\":1035:1066  RouterAdmin[msg.sender] == true */\n      iszero\n      iszero\n        /* \"Dcoffer/treasury.sol\":1035:1046  RouterAdmin */\n      0x07\n        /* \"Dcoffer/treasury.sol\":1035:1058  RouterAdmin[msg.sender] */\n      0x00\n        /* \"Dcoffer/treasury.sol\":1047:1057  msg.sender */\n      caller\n        /* \"Dcoffer/treasury.sol\":1035:1058  RouterAdmin[msg.sender] */\n      0xffffffffffffffffffffffffffffffffffffffff\n      and\n      0xffffffffffffffffffffffffffffffffffffffff\n      and\n      dup2\n      mstore\n      0x20\n      add\n      swap1\n      dup2\n      mstore\n      0x20\n      add\n      0x00\n      keccak256\n      0x00\n      swap1\n      sload\n      swap1\n      0x0100\n      exp\n      swap1\n      div\n      0xff\n      and\n        /* \"Dcoffer/treasury.sol\":1035:1066  RouterAdmin[msg.sender] == true */\n      iszero\n      iszero\n      eq\n        /* \"Dcoffer/treasury.sol\":1027:1067  require(RouterAdmin[msg.sender] == true) */\n      tag_64\n      jumpi\n      0x00\n      dup1\n      revert\n    tag_64:\n        /* \"Dcoffer/treasury.sol\":1078:1090  uint256 _fee */\n      0x00\n        /* \"Dcoffer/treasury.sol\":1093:1121  msg.value.mul(fee).div(1000) */\n      tag_65\n        /* \"Dcoffer/treasury.sol\":1116:1120  1000 */\n      0x03e8\n        /* \"Dcoffer/treasury.sol\":1093:1111  msg.value.mul(fee) */\n      tag_66\n        /* \"Dcoffer/treasury.sol\":1107:1110  fee */\n      sload(0x02)\n        /* \"Dcoffer/treasury.sol\":1093:1102  msg.value */\n      callvalue\n        /* \"Dcoffer/treasury.sol\":1093:1106  msg.value.mul */\n      tag_67\n      swap1\n        /* \"Dcoffer/treasury.sol\":1093:1111  msg.value.mul(fee) */\n      swap2\n      swap1\n      0xffffffff\n      and\n      jump\t// in\n    tag_66:\n        /* \"Dcoffer/treasury.sol\":1093:1115  msg.value.mul(fee).div */\n      tag_61\n      swap1\n        /* \"Dcoffer/treasury.sol\":1093:1121  msg.value.mul(fee).div(1000) */\n      swap2\n      swap1\n      0xffffffff\n      and\n      jump\t// in\n    tag_65:\n        /* \"Dcoffer/treasury.sol\":1078:1121  uint256 _fee = msg.value.mul(fee).div(1000) */\n      swap1\n      pop\n        /* \"Dcoffer/treasury.sol\":1144:1159  admin.add(_fee) */\n      tag_68\n        /* \"Dcoffer/treasury.sol\":1154:1158  _fee */\n      dup2\n        /* \"Dcoffer/treasury.sol\":1144:1149  admin */\n      sload(0x04)\n        /* \"Dcoffer/treasury.sol\":1144:1153  admin.add */\n      tag_52\n      swap1\n        /* \"Dcoffer/treasury.sol\":1144:1159  admin.add(_fee) */\n      swap2\n      swap1\n      0xffffffff\n      and\n      jump\t// in\n    tag_68:\n        /* \"Dcoffer/treasury.sol\":1136:1141  admin */\n      0x04\n        /* \"Dcoffer/treasury.sol\":1136:1159  admin = admin.add(_fee) */\n      dup2\n      swap1\n      sstore\n      pop\n        /* \"Dcoffer/treasury.sol\":1168:1186  uint256 eth_amount */\n      0x00\n        /* \"Dcoffer/treasury.sol\":1189:1208  msg.value.sub(_fee) */\n      tag_69\n        /* \"Dcoffer/treasury.sol\":1203:1207  _fee */\n      dup3\n        /* \"Dcoffer/treasury.sol\":1189:1198  msg.value */\n      callvalue\n        /* \"Dcoffer/treasury.sol\":1189:1202  msg.value.sub */\n      tag_44\n      swap1\n        /* \"Dcoffer/treasury.sol\":1189:1208  msg.value.sub(_fee) */\n      swap2\n      swap1\n      0xffffffff\n      and\n      jump\t// in\n    tag_69:\n        /* \"Dcoffer/treasury.sol\":1168:1208  uint256 eth_amount = msg.value.sub(_fee) */\n      swap1\n      pop\n        /* \"Dcoffer/treasury.sol\":1219:1237  uint256 dcf_amount */\n      0x00\n        /* \"Dcoffer/treasury.sol\":1240:1259  ETH_DCF(eth_amount) */\n      tag_70\n        /* \"Dcoffer/treasury.sol\":1248:1258  eth_amount */\n      dup3\n        /* \"Dcoffer/treasury.sol\":1240:1247  ETH_DCF */\n      tag_29\n        /* \"Dcoffer/treasury.sol\":1240:1259  ETH_DCF(eth_amount) */\n      jump\t// in\n    tag_70:\n        /* \"Dcoffer/treasury.sol\":1219:1259  uint256 dcf_amount = ETH_DCF(eth_amount) */\n      swap1\n      pop\n        /* \"Dcoffer/treasury.sol\":1274:1279  dcoff */\n      0x00\n      dup1\n      sload\n      swap1\n      0x0100\n      exp\n      swap1\n      div\n      0xffffffffffffffffffffffffffffffffffffffff\n      and\n        /* \"Dcoffer/treasury.sol\":1274:1288  dcoff.transfer */\n      0xffffffffffffffffffffffffffffffffffffffff\n      and\n      0xa9059cbb\n        /* \"Dcoffer/treasury.sol\":1289:1299  subscriber */\n      dup6\n        /* \"Dcoffer/treasury.sol\":1300:1310  dcf_amount */\n      dup4\n        /* \"Dcoffer/treasury.sol\":1274:1311  dcoff.transfer(subscriber,dcf_amount) */\n      mload(0x40)\n      dup4\n      0xffffffff\n      and\n      0xe0\n      shl\n      dup2\n      mstore\n      0x04\n      add\n      tag_71\n      swap3\n      swap2\n      swap1\n      tag_72\n      jump\t// in\n    tag_71:\n      0x20\n      mload(0x40)\n      dup1\n      dup4\n      sub\n      dup2\n      0x00\n      dup8\n      gas\n      call\n      iszero\n      dup1\n      iszero\n      tag_74\n      jumpi\n      returndatasize\n      0x00\n      dup1\n      returndatacopy\n      revert(0x00, returndatasize)\n    tag_74:\n      pop\n      pop\n      pop\n      pop\n      mload(0x40)\n      returndatasize\n      not(0x1f)\n      0x1f\n      dup3\n      add\n      and\n      dup3\n      add\n      dup1\n      0x40\n      mstore\n      pop\n      dup2\n      add\n      swap1\n      tag_75\n      swap2\n      swap1\n      tag_76\n      jump\t// in\n    tag_75:\n      pop\n        /* \"Dcoffer/treasury.sol\":1339:1360  address(this).balance */\n      selfbalance\n        /* \"Dcoffer/treasury.sol\":1324:1336  last_balance */\n      0x03\n        /* \"Dcoffer/treasury.sol\":1324:1360  last_balance = address(this).balance */\n      dup2\n      swap1\n      sstore\n      pop\n        /* \"Dcoffer/treasury.sol\":1018:1374  {... */\n      pop\n      pop\n      pop\n        /* \"Dcoffer/treasury.sol\":964:1374  function subscribe(address subscriber)external payable{... */\n      pop\n      jump\t// out\n        /* \"Dcoffer/treasury.sol\":1382:1904  function market(address payable seller, uint256 dcf_amount)external {... */\n    tag_25:\n        /* \"Dcoffer/treasury.sol\":1494:1498  true */\n      0x01\n        /* \"Dcoffer/treasury.sol\":1467:1498  RouterAdmin[msg.sender] == true */\n      iszero\n      iszero\n        /* \"Dcoffer/treasury.sol\":1467:1478  RouterAdmin */\n      0x07\n        /* \"Dcoffer/treasury.sol\":1467:1490  RouterAdmin[msg.sender] */\n      0x00\n        /* \"Dcoffer/treasury.sol\":1479:1489  msg.sender */\n      caller\n        /* \"Dcoffer/treasury.sol\":1467:1490  RouterAdmin[msg.sender] */\n      0xffffffffffffffffffffffffffffffffffffffff\n      and\n      0xffffffffffffffffffffffffffffffffffffffff\n      and\n      dup2\n      mstore\n      0x20\n      add\n      swap1\n      dup2\n      mstore\n      0x20\n      add\n      0x00\n      keccak256\n      0x00\n      swap1\n      sload\n      swap1\n      0x0100\n      exp\n      swap1\n      div\n      0xff\n      and\n        /* \"Dcoffer/treasury.sol\":1467:1498  RouterAdmin[msg.sender] == true */\n      iszero\n      iszero\n      eq\n        /* \"Dcoffer/treasury.sol\":1459:1499  require(RouterAdmin[msg.sender] == true) */\n      tag_78\n      jumpi\n      0x00\n      dup1\n      revert\n    tag_78:\n        /* \"Dcoffer/treasury.sol\":1543:1553  dcf_amount */\n      dup1\n        /* \"Dcoffer/treasury.sol\":1516:1521  dcoff */\n      0x00\n      dup1\n      sload\n      swap1\n      0x0100\n      exp\n      swap1\n      div\n      0xffffffffffffffffffffffffffffffffffffffff\n      and\n        /* \"Dcoffer/treasury.sol\":1516:1531  dcoff.balanceOf */\n      0xffffffffffffffffffffffffffffffffffffffff\n      and\n      0x70a08231\n        /* \"Dcoffer/treasury.sol\":1532:1538  seller */\n      dup5\n        /* \"Dcoffer/treasury.sol\":1516:1539  dcoff.balanceOf(seller) */\n      mload(0x40)\n      dup3\n      0xffffffff\n      and\n      0xe0\n      shl\n      dup2\n      mstore\n      0x04\n      add\n      tag_79\n      swap2\n      swap1\n      tag_80\n      jump\t// in\n    tag_79:\n      0x20\n      mload(0x40)\n      dup1\n      dup4\n      sub\n      dup2\n      dup7\n      gas\n      staticcall\n      iszero\n      dup1\n      iszero\n      tag_82\n      jumpi\n      returndatasize\n      0x00\n      dup1\n      returndatacopy\n      revert(0x00, returndatasize)\n    tag_82:\n      pop\n      pop\n      pop\n      pop\n      mload(0x40)\n      returndatasize\n      not(0x1f)\n      0x1f\n      dup3\n      add\n      and\n      dup3\n      add\n      dup1\n      0x40\n      mstore\n      pop\n      dup2\n      add\n      swap1\n      tag_83\n      swap2\n      swap1\n      tag_50\n      jump\t// in\n    tag_83:\n        /* \"Dcoffer/treasury.sol\":1516:1553  dcoff.balanceOf(seller) >= dcf_amount */\n      lt\n      iszero\n        /* \"Dcoffer/treasury.sol\":1508:1554  require(dcoff.balanceOf(seller) >= dcf_amount) */\n      tag_84\n      jumpi\n      0x00\n      dup1\n      revert\n    tag_84:\n        /* \"Dcoffer/treasury.sol\":1565:1583  uint256 eth_amount */\n      0x00\n        /* \"Dcoffer/treasury.sol\":1586:1605  DCF_ETH(dcf_amount) */\n      tag_85\n        /* \"Dcoffer/treasury.sol\":1594:1604  dcf_amount */\n      dup3\n        /* \"Dcoffer/treasury.sol\":1586:1593  DCF_ETH */\n      tag_14\n        /* \"Dcoffer/treasury.sol\":1586:1605  DCF_ETH(dcf_amount) */\n      jump\t// in\n    tag_85:\n        /* \"Dcoffer/treasury.sol\":1565:1605  uint256 eth_amount = DCF_ETH(dcf_amount) */\n      swap1\n      pop\n        /* \"Dcoffer/treasury.sol\":1614:1626  uint256 _fee */\n      0x00\n        /* \"Dcoffer/treasury.sol\":1629:1658  eth_amount.mul(fee).div(1000) */\n      tag_86\n        /* \"Dcoffer/treasury.sol\":1653:1657  1000 */\n      0x03e8\n        /* \"Dcoffer/treasury.sol\":1629:1648  eth_amount.mul(fee) */\n      tag_87\n        /* \"Dcoffer/treasury.sol\":1644:1647  fee */\n      sload(0x02)\n        /* \"Dcoffer/treasury.sol\":1629:1639  eth_amount */\n      dup6\n        /* \"Dcoffer/treasury.sol\":1629:1643  eth_amount.mul */\n      tag_67\n      swap1\n        /* \"Dcoffer/treasury.sol\":1629:1648  eth_amount.mul(fee) */\n      swap2\n      swap1\n      0xffffffff\n      and\n      jump\t// in\n    tag_87:\n        /* \"Dcoffer/treasury.sol\":1629:1652  eth_amount.mul(fee).div */\n      tag_61\n      swap1\n        /* \"Dcoffer/treasury.sol\":1629:1658  eth_amount.mul(fee).div(1000) */\n      swap2\n      swap1\n      0xffffffff\n      and\n      jump\t// in\n    tag_86:\n        /* \"Dcoffer/treasury.sol\":1614:1658  uint256 _fee = eth_amount.mul(fee).div(1000) */\n      swap1\n      pop\n        /* \"Dcoffer/treasury.sol\":1675:1690  admin.add(_fee) */\n      tag_88\n        /* \"Dcoffer/treasury.sol\":1685:1689  _fee */\n      dup2\n        /* \"Dcoffer/treasury.sol\":1675:1680  admin */\n      sload(0x04)\n        /* \"Dcoffer/treasury.sol\":1675:1684  admin.add */\n      tag_52\n      swap1\n        /* \"Dcoffer/treasury.sol\":1675:1690  admin.add(_fee) */\n      swap2\n      swap1\n      0xffffffff\n      and\n      jump\t// in\n    tag_88:\n        /* \"Dcoffer/treasury.sol\":1667:1672  admin */\n      0x04\n        /* \"Dcoffer/treasury.sol\":1667:1690  admin = admin.add(_fee) */\n      dup2\n      swap1\n      sstore\n      pop\n        /* \"Dcoffer/treasury.sol\":1712:1732  eth_amount.sub(_fee) */\n      tag_89\n        /* \"Dcoffer/treasury.sol\":1727:1731  _fee */\n      dup2\n        /* \"Dcoffer/treasury.sol\":1712:1722  eth_amount */\n      dup4\n        /* \"Dcoffer/treasury.sol\":1712:1726  eth_amount.sub */\n      tag_44\n      swap1\n        /* \"Dcoffer/treasury.sol\":1712:1732  eth_amount.sub(_fee) */\n      swap2\n      swap1\n      0xffffffff\n      and\n      jump\t// in\n    tag_89:\n        /* \"Dcoffer/treasury.sol\":1699:1732  eth_amount = eth_amount.sub(_fee) */\n      swap2\n      pop\n        /* \"Dcoffer/treasury.sol\":1747:1753  seller */\n      dup4\n        /* \"Dcoffer/treasury.sol\":1747:1762  seller.transfer */\n      0xffffffffffffffffffffffffffffffffffffffff\n      and\n        /* \"Dcoffer/treasury.sol\":1747:1774  seller.transfer(eth_amount) */\n      0x08fc\n        /* \"Dcoffer/treasury.sol\":1763:1773  eth_amount */\n      dup4\n        /* \"Dcoffer/treasury.sol\":1747:1774  seller.transfer(eth_amount) */\n      swap1\n      dup2\n      iszero\n      mul\n      swap1\n      mload(0x40)\n      0x00\n      mload(0x40)\n      dup1\n      dup4\n      sub\n      dup2\n      dup6\n      dup9\n      dup9\n      call\n      swap4\n      pop\n      pop\n      pop\n      pop\n      iszero\n      dup1\n      iszero\n      tag_91\n      jumpi\n      returndatasize\n      0x00\n      dup1\n      returndatacopy\n      revert(0x00, returndatasize)\n    tag_91:\n      pop\n        /* \"Dcoffer/treasury.sol\":1783:1788  dcoff */\n      0x00\n      dup1\n      sload\n      swap1\n      0x0100\n      exp\n      swap1\n      div\n      0xffffffffffffffffffffffffffffffffffffffff\n      and\n        /* \"Dcoffer/treasury.sol\":1783:1801  dcoff.transferFrom */\n      0xffffffffffffffffffffffffffffffffffffffff\n      and\n      0x23b872dd\n        /* \"Dcoffer/treasury.sol\":1802:1808  seller */\n      dup6\n        /* \"Dcoffer/treasury.sol\":1817:1821  this */\n      address\n        /* \"Dcoffer/treasury.sol\":1823:1833  dcf_amount */\n      dup7\n        /* \"Dcoffer/treasury.sol\":1783:1834  dcoff.transferFrom(seller,address(this),dcf_amount) */\n      mload(0x40)\n      dup5\n      0xffffffff\n      and\n      0xe0\n      shl\n      dup2\n      mstore\n      0x04\n      add\n      tag_92\n      swap4\n      swap3\n      swap2\n      swap1\n      tag_93\n      jump\t// in\n    tag_92:\n      0x20\n      mload(0x40)\n      dup1\n      dup4\n      sub\n      dup2\n      0x00\n      dup8\n      gas\n      call\n      iszero\n      dup1\n      iszero\n      tag_95\n      jumpi\n      returndatasize\n      0x00\n      dup1\n      returndatacopy\n      revert(0x00, returndatasize)\n    tag_95:\n      pop\n      pop\n      pop\n      pop\n      mload(0x40)\n      returndatasize\n      not(0x1f)\n      0x1f\n      dup3\n      add\n      and\n      dup3\n      add\n      dup1\n      0x40\n      mstore\n      pop\n      dup2\n      add\n      swap1\n      tag_96\n      swap2\n      swap1\n      tag_76\n      jump\t// in\n    tag_96:\n      pop\n        /* \"Dcoffer/treasury.sol\":1863:1884  address(this).balance */\n      selfbalance\n        /* \"Dcoffer/treasury.sol\":1848:1860  last_balance */\n      0x03\n        /* \"Dcoffer/treasury.sol\":1848:1884  last_balance = address(this).balance */\n      dup2\n      swap1\n      sstore\n      pop\n        /* \"Dcoffer/treasury.sol\":1450:1904  {... */\n      pop\n      pop\n        /* \"Dcoffer/treasury.sol\":1382:1904  function market(address payable seller, uint256 dcf_amount)external {... */\n      pop\n      pop\n      jump\t// out\n        /* \"Dcoffer/treasury.sol\":2383:2743  function ETH_DCF(uint256 eth_amount)public view returns(uint256){... */\n    tag_29:\n        /* \"Dcoffer/treasury.sol\":2439:2446  uint256 */\n      0x00\n        /* \"Dcoffer/treasury.sol\":2454:2473  uint256 _eth_amount */\n      dup1\n        /* \"Dcoffer/treasury.sol\":2476:2499  last_balance.sub(admin) */\n      tag_98\n        /* \"Dcoffer/treasury.sol\":2493:2498  admin */\n      sload(0x04)\n        /* \"Dcoffer/treasury.sol\":2476:2488  last_balance */\n      sload(0x03)\n        /* \"Dcoffer/treasury.sol\":2476:2492  last_balance.sub */\n      tag_44\n      swap1\n        /* \"Dcoffer/treasury.sol\":2476:2499  last_balance.sub(admin) */\n      swap2\n      swap1\n      0xffffffff\n      and\n      jump\t// in\n    tag_98:\n        /* \"Dcoffer/treasury.sol\":2454:2499  uint256 _eth_amount = last_balance.sub(admin) */\n      swap1\n      pop\n        /* \"Dcoffer/treasury.sol\":2506:2525  uint256 _dcf_amount */\n      0x00\n        /* \"Dcoffer/treasury.sol\":2528:2533  dcoff */\n      dup1\n      0x00\n      swap1\n      sload\n      swap1\n      0x0100\n      exp\n      swap1\n      div\n      0xffffffffffffffffffffffffffffffffffffffff\n      and\n        /* \"Dcoffer/treasury.sol\":2528:2543  dcoff.balanceOf */\n      0xffffffffffffffffffffffffffffffffffffffff\n      and\n      0x70a08231\n        /* \"Dcoffer/treasury.sol\":2552:2556  this */\n      address\n        /* \"Dcoffer/treasury.sol\":2528:2558  dcoff.balanceOf(address(this)) */\n      mload(0x40)\n      dup3\n      0xffffffff\n      and\n      0xe0\n      shl\n      dup2\n      mstore\n      0x04\n      add\n      tag_99\n      swap2\n      swap1\n      tag_46\n      jump\t// in\n    tag_99:\n      0x20\n      mload(0x40)\n      dup1\n      dup4\n      sub\n      dup2\n      dup7\n      gas\n      staticcall\n      iszero\n      dup1\n      iszero\n      tag_101\n      jumpi\n      returndatasize\n      0x00\n      dup1\n      returndatacopy\n      revert(0x00, returndatasize)\n    tag_101:\n      pop\n      pop\n      pop\n      pop\n      mload(0x40)\n      returndatasize\n      not(0x1f)\n      0x1f\n      dup3\n      add\n      and\n      dup3\n      add\n      dup1\n      0x40\n      mstore\n      pop\n      dup2\n      add\n      swap1\n      tag_102\n      swap2\n      swap1\n      tag_50\n      jump\t// in\n    tag_102:\n        /* \"Dcoffer/treasury.sol\":2506:2558  uint256 _dcf_amount = dcoff.balanceOf(address(this)) */\n      swap1\n      pop\n        /* \"Dcoffer/treasury.sol\":2565:2585  uint256 Variable_eth */\n      0x00\n        /* \"Dcoffer/treasury.sol\":2588:2615  _eth_amount.add(eth_amount) */\n      tag_103\n        /* \"Dcoffer/treasury.sol\":2604:2614  eth_amount */\n      dup6\n        /* \"Dcoffer/treasury.sol\":2588:2599  _eth_amount */\n      dup5\n        /* \"Dcoffer/treasury.sol\":2588:2603  _eth_amount.add */\n      tag_52\n      swap1\n        /* \"Dcoffer/treasury.sol\":2588:2615  _eth_amount.add(eth_amount) */\n      swap2\n      swap1\n      0xffffffff\n      and\n      jump\t// in\n    tag_103:\n        /* \"Dcoffer/treasury.sol\":2565:2615  uint256 Variable_eth = _eth_amount.add(eth_amount) */\n      swap1\n      pop\n        /* \"Dcoffer/treasury.sol\":2622:2642  uint256 Variable_dcf */\n      0x00\n        /* \"Dcoffer/treasury.sol\":2645:2664  K.div(Variable_eth) */\n      tag_104\n        /* \"Dcoffer/treasury.sol\":2651:2663  Variable_eth */\n      dup3\n        /* \"Dcoffer/treasury.sol\":2645:2646  K */\n      sload(0x01)\n        /* \"Dcoffer/treasury.sol\":2645:2650  K.div */\n      tag_61\n      swap1\n        /* \"Dcoffer/treasury.sol\":2645:2664  K.div(Variable_eth) */\n      swap2\n      swap1\n      0xffffffff\n      and\n      jump\t// in\n    tag_104:\n        /* \"Dcoffer/treasury.sol\":2622:2664  uint256 Variable_dcf = K.div(Variable_eth) */\n      swap1\n      pop\n        /* \"Dcoffer/treasury.sol\":2671:2685  uint256 _price */\n      0x00\n        /* \"Dcoffer/treasury.sol\":2688:2717  _dcf_amount.sub(Variable_dcf) */\n      tag_105\n        /* \"Dcoffer/treasury.sol\":2704:2716  Variable_dcf */\n      dup3\n        /* \"Dcoffer/treasury.sol\":2688:2699  _dcf_amount */\n      dup6\n        /* \"Dcoffer/treasury.sol\":2688:2703  _dcf_amount.sub */\n      tag_44\n      swap1\n        /* \"Dcoffer/treasury.sol\":2688:2717  _dcf_amount.sub(Variable_dcf) */\n      swap2\n      swap1\n      0xffffffff\n      and\n      jump\t// in\n    tag_105:\n        /* \"Dcoffer/treasury.sol\":2671:2717  uint256 _price = _dcf_amount.sub(Variable_dcf) */\n      swap1\n      pop\n        /* \"Dcoffer/treasury.sol\":2731:2737  _price */\n      dup1\n        /* \"Dcoffer/treasury.sol\":2724:2737  return _price */\n      swap6\n      pop\n      pop\n      pop\n      pop\n      pop\n      pop\n        /* \"Dcoffer/treasury.sol\":2383:2743  function ETH_DCF(uint256 eth_amount)public view returns(uint256){... */\n      swap2\n      swap1\n      pop\n      jump\t// out\n        /* \"Dcoffer/treasury.sol\":854:956  function setRouter(address user, bool power)external onlyOwner{... */\n    tag_35:\n        /* \"Dcoffer/treasury.sol\":777:787  msg.sender */\n      caller\n        /* \"Dcoffer/treasury.sol\":768:787  owner == msg.sender */\n      0xffffffffffffffffffffffffffffffffffffffff\n      and\n        /* \"Dcoffer/treasury.sol\":768:773  owner */\n      0x06\n      0x00\n      swap1\n      sload\n      swap1\n      0x0100\n      exp\n      swap1\n      div\n      0xffffffffffffffffffffffffffffffffffffffff\n      and\n        /* \"Dcoffer/treasury.sol\":768:787  owner == msg.sender */\n      0xffffffffffffffffffffffffffffffffffffffff\n      and\n      eq\n        /* \"Dcoffer/treasury.sol\":760:824  require(owner == msg.sender, \"Ownable: caller is not the owner\") */\n      tag_107\n      jumpi\n      mload(0x40)\n      0x08c379a000000000000000000000000000000000000000000000000000000000\n      dup2\n      mstore\n      0x04\n      add\n      tag_108\n      swap1\n      tag_109\n      jump\t// in\n    tag_108:\n      mload(0x40)\n      dup1\n      swap2\n      sub\n      swap1\n      revert\n    tag_107:\n        /* \"Dcoffer/treasury.sol\":945:950  power */\n      dup1\n        /* \"Dcoffer/treasury.sol\":925:936  RouterAdmin */\n      0x07\n        /* \"Dcoffer/treasury.sol\":925:942  RouterAdmin[user] */\n      0x00\n        /* \"Dcoffer/treasury.sol\":937:941  user */\n      dup5\n        /* \"Dcoffer/treasury.sol\":925:942  RouterAdmin[user] */\n      0xffffffffffffffffffffffffffffffffffffffff\n      and\n      0xffffffffffffffffffffffffffffffffffffffff\n      and\n      dup2\n      mstore\n      0x20\n      add\n      swap1\n      dup2\n      mstore\n      0x20\n      add\n      0x00\n      keccak256\n      0x00\n        /* \"Dcoffer/treasury.sol\":925:950  RouterAdmin[user] = power */\n      0x0100\n      exp\n      dup2\n      sload\n      dup2\n      0xff\n      mul\n      not\n      and\n      swap1\n      dup4\n      iszero\n      iszero\n      mul\n      or\n      swap1\n      sstore\n      pop\n        /* \"Dcoffer/treasury.sol\":854:956  function setRouter(address user, bool power)external onlyOwner{... */\n      pop\n      pop\n      jump\t// out\n        /* \"Dcoffer/treasury.sol\":2756:2918  function Warning_protect()external onlyOwner{... */\n    tag_38:\n        /* \"Dcoffer/treasury.sol\":777:787  msg.sender */\n      caller\n        /* \"Dcoffer/treasury.sol\":768:787  owner == msg.sender */\n      0xffffffffffffffffffffffffffffffffffffffff\n      and\n        /* \"Dcoffer/treasury.sol\":768:773  owner */\n      0x06\n      0x00\n      swap1\n      sload\n      swap1\n      0x0100\n      exp\n      swap1\n      div\n      0xffffffffffffffffffffffffffffffffffffffff\n      and\n        /* \"Dcoffer/treasury.sol\":768:787  owner == msg.sender */\n      0xffffffffffffffffffffffffffffffffffffffff\n      and\n      eq\n        /* \"Dcoffer/treasury.sol\":760:824  require(owner == msg.sender, \"Ownable: caller is not the owner\") */\n      tag_112\n      jumpi\n      mload(0x40)\n      0x08c379a000000000000000000000000000000000000000000000000000000000\n      dup2\n      mstore\n      0x04\n      add\n      tag_113\n      swap1\n      tag_109\n      jump\t// in\n    tag_113:\n      mload(0x40)\n      dup1\n      swap2\n      sub\n      swap1\n      revert\n    tag_112:\n        /* \"Dcoffer/treasury.sol\":2815:2820  owner */\n      0x06\n      0x00\n      swap1\n      sload\n      swap1\n      0x0100\n      exp\n      swap1\n      div\n      0xffffffffffffffffffffffffffffffffffffffff\n      and\n        /* \"Dcoffer/treasury.sol\":2807:2830  payable(owner).transfer */\n      0xffffffffffffffffffffffffffffffffffffffff\n      and\n        /* \"Dcoffer/treasury.sol\":2807:2853  payable(owner).transfer(address(this).balance) */\n      0x08fc\n        /* \"Dcoffer/treasury.sol\":2831:2852  address(this).balance */\n      selfbalance\n        /* \"Dcoffer/treasury.sol\":2807:2853  payable(owner).transfer(address(this).balance) */\n      swap1\n      dup2\n      iszero\n      mul\n      swap1\n      mload(0x40)\n      0x00\n      mload(0x40)\n      dup1\n      dup4\n      sub\n      dup2\n      dup6\n      dup9\n      dup9\n      call\n      swap4\n      pop\n      pop\n      pop\n      pop\n      iszero\n      dup1\n      iszero\n      tag_116\n      jumpi\n      returndatasize\n      0x00\n      dup1\n      returndatacopy\n      revert(0x00, returndatasize)\n    tag_116:\n      pop\n        /* \"Dcoffer/treasury.sol\":2860:2865  dcoff */\n      0x00\n      dup1\n      sload\n      swap1\n      0x0100\n      exp\n      swap1\n      div\n      0xffffffffffffffffffffffffffffffffffffffff\n      and\n        /* \"Dcoffer/treasury.sol\":2860:2874  dcoff.transfer */\n      0xffffffffffffffffffffffffffffffffffffffff\n      and\n      0xa9059cbb\n        /* \"Dcoffer/treasury.sol\":2875:2880  owner */\n      0x06\n      0x00\n      swap1\n      sload\n      swap1\n      0x0100\n      exp\n      swap1\n      div\n      0xffffffffffffffffffffffffffffffffffffffff\n      and\n        /* \"Dcoffer/treasury.sol\":2881:2886  dcoff */\n      0x00\n      dup1\n      sload\n      swap1\n      0x0100\n      exp\n      swap1\n      div\n      0xffffffffffffffffffffffffffffffffffffffff\n      and\n        /* \"Dcoffer/treasury.sol\":2881:2896  dcoff.balanceOf */\n      0xffffffffffffffffffffffffffffffffffffffff\n      and\n      0x70a08231\n        /* \"Dcoffer/treasury.sol\":2905:2909  this */\n      address\n        /* \"Dcoffer/treasury.sol\":2881:2911  dcoff.balanceOf(address(this)) */\n      mload(0x40)\n      dup3\n      0xffffffff\n      and\n      0xe0\n      shl\n      dup2\n      mstore\n      0x04\n      add\n      tag_117\n      swap2\n      swap1\n      tag_46\n      jump\t// in\n    tag_117:\n      0x20\n      mload(0x40)\n      dup1\n      dup4\n      sub\n      dup2\n      dup7\n      gas\n      staticcall\n      iszero\n      dup1\n      iszero\n      tag_119\n      jumpi\n      returndatasize\n      0x00\n      dup1\n      returndatacopy\n      revert(0x00, returndatasize)\n    tag_119:\n      pop\n      pop\n      pop\n      pop\n      mload(0x40)\n      returndatasize\n      not(0x1f)\n      0x1f\n      dup3\n      add\n      and\n      dup3\n      add\n      dup1\n      0x40\n      mstore\n      pop\n      dup2\n      add\n      swap1\n      tag_120\n      swap2\n      swap1\n      tag_50\n      jump\t// in\n    tag_120:\n        /* \"Dcoffer/treasury.sol\":2860:2912  dcoff.transfer(owner,dcoff.balanceOf(address(this))) */\n      mload(0x40)\n      dup4\n      0xffffffff\n      and\n      0xe0\n      shl\n      dup2\n      mstore\n      0x04\n      add\n      tag_121\n      swap3\n      swap2\n      swap1\n      tag_72\n      jump\t// in\n    tag_121:\n      0x20\n      mload(0x40)\n      dup1\n      dup4\n      sub\n      dup2\n      0x00\n      dup8\n      gas\n      call\n      iszero\n      dup1\n      iszero\n      tag_123\n      jumpi\n      returndatasize\n      0x00\n      dup1\n      returndatacopy\n      revert(0x00, returndatasize)\n    tag_123:\n      pop\n      pop\n      pop\n      pop\n      mload(0x40)\n      returndatasize\n      not(0x1f)\n      0x1f\n      dup3\n      add\n      and\n      dup3\n      add\n      dup1\n      0x40\n      mstore\n      pop\n      dup2\n      add\n      swap1\n      tag_124\n      swap2\n      swap1\n      tag_76\n      jump\t// in\n    tag_124:\n      pop\n        /* \"Dcoffer/treasury.sol\":2756:2918  function Warning_protect()external onlyOwner{... */\n      jump\t// out\n        /* \"Dcoffer/treasury.sol\":2926:3024  function admin_fee()external onlyOwner{... */\n    tag_41:\n        /* \"Dcoffer/treasury.sol\":777:787  msg.sender */\n      caller\n        /* \"Dcoffer/treasury.sol\":768:787  owner == msg.sender */\n      0xffffffffffffffffffffffffffffffffffffffff\n      and\n        /* \"Dcoffer/treasury.sol\":768:773  owner */\n      0x06\n      0x00\n      swap1\n      sload\n      swap1\n      0x0100\n      exp\n      swap1\n      div\n      0xffffffffffffffffffffffffffffffffffffffff\n      and\n        /* \"Dcoffer/treasury.sol\":768:787  owner == msg.sender */\n      0xffffffffffffffffffffffffffffffffffffffff\n      and\n      eq\n        /* \"Dcoffer/treasury.sol\":760:824  require(owner == msg.sender, \"Ownable: caller is not the owner\") */\n      tag_126\n      jumpi\n      mload(0x40)\n      0x08c379a000000000000000000000000000000000000000000000000000000000\n      dup2\n      mstore\n      0x04\n      add\n      tag_127\n      swap1\n      tag_109\n      jump\t// in\n    tag_127:\n      mload(0x40)\n      dup1\n      swap2\n      sub\n      swap1\n      revert\n    tag_126:\n        /* \"Dcoffer/treasury.sol\":2979:2984  owner */\n      0x06\n      0x00\n      swap1\n      sload\n      swap1\n      0x0100\n      exp\n      swap1\n      div\n      0xffffffffffffffffffffffffffffffffffffffff\n      and\n        /* \"Dcoffer/treasury.sol\":2971:2994  payable(owner).transfer */\n      0xffffffffffffffffffffffffffffffffffffffff\n      and\n        /* \"Dcoffer/treasury.sol\":2971:3001  payable(owner).transfer(admin) */\n      0x08fc\n        /* \"Dcoffer/treasury.sol\":2995:3000  admin */\n      sload(0x04)\n        /* \"Dcoffer/treasury.sol\":2971:3001  payable(owner).transfer(admin) */\n      swap1\n      dup2\n      iszero\n      mul\n      swap1\n      mload(0x40)\n      0x00\n      mload(0x40)\n      dup1\n      dup4\n      sub\n      dup2\n      dup6\n      dup9\n      dup9\n      call\n      swap4\n      pop\n      pop\n      pop\n      pop\n      iszero\n      dup1\n      iszero\n      tag_130\n      jumpi\n      returndatasize\n      0x00\n      dup1\n      returndatacopy\n      revert(0x00, returndatasize)\n    tag_130:\n      pop\n        /* \"Dcoffer/treasury.sol\":3016:3017  0 */\n      0x00\n        /* \"Dcoffer/treasury.sol\":3008:3013  admin */\n      0x04\n        /* \"Dcoffer/treasury.sol\":3008:3017  admin = 0 */\n      dup2\n      swap1\n      sstore\n      pop\n        /* \"Dcoffer/treasury.sol\":2926:3024  function admin_fee()external onlyOwner{... */\n      jump\t// out\n        /* \"@openzeppelin/contracts/utils/math/SafeMath.sol\":3122:3218  function sub(uint256 a, uint256 b) internal pure returns (uint256) {... */\n    tag_44:\n        /* \"@openzeppelin/contracts/utils/math/SafeMath.sol\":3180:3187  uint256 */\n      0x00\n        /* \"@openzeppelin/contracts/utils/math/SafeMath.sol\":3210:3211  b */\n      dup2\n        /* \"@openzeppelin/contracts/utils/math/SafeMath.sol\":3206:3207  a */\n      dup4\n        /* \"@openzeppelin/contracts/utils/math/SafeMath.sol\":3206:3211  a - b */\n      tag_132\n      swap2\n      swap1\n      tag_133\n      jump\t// in\n    tag_132:\n        /* \"@openzeppelin/contracts/utils/math/SafeMath.sol\":3199:3211  return a - b */\n      swap1\n      pop\n        /* \"@openzeppelin/contracts/utils/math/SafeMath.sol\":3122:3218  function sub(uint256 a, uint256 b) internal pure returns (uint256) {... */\n      swap3\n      swap2\n      pop\n      pop\n      jump\t// out\n        /* \"@openzeppelin/contracts/utils/math/SafeMath.sol\":2755:2851  function add(uint256 a, uint256 b) internal pure returns (uint256) {... */\n    tag_52:\n        /* \"@openzeppelin/contracts/utils/math/SafeMath.sol\":2813:2820  uint256 */\n      0x00\n        /* \"@openzeppelin/contracts/utils/math/SafeMath.sol\":2843:2844  b */\n      dup2\n        /* \"@openzeppelin/contracts/utils/math/SafeMath.sol\":2839:2840  a */\n      dup4\n        /* \"@openzeppelin/contracts/utils/math/SafeMath.sol\":2839:2844  a + b */\n      tag_135\n      swap2\n      swap1\n      tag_136\n      jump\t// in\n    tag_135:\n        /* \"@openzeppelin/contracts/utils/math/SafeMath.sol\":2832:2844  return a + b */\n      swap1\n      pop\n        /* \"@openzeppelin/contracts/utils/math/SafeMath.sol\":2755:2851  function add(uint256 a, uint256 b) internal pure returns (uint256) {... */\n      swap3\n      swap2\n      pop\n      pop\n      jump\t// out\n        /* \"@openzeppelin/contracts/utils/math/SafeMath.sol\":3850:3946  function div(uint256 a, uint256 b) internal pure returns (uint256) {... */\n    tag_61:\n        /* \"@openzeppelin/contracts/utils/math/SafeMath.sol\":3908:3915  uint256 */\n      0x00\n        /* \"@openzeppelin/contracts/utils/math/SafeMath.sol\":3938:3939  b */\n      dup2\n        /* \"@openzeppelin/contracts/utils/math/SafeMath.sol\":3934:3935  a */\n      dup4\n        /* \"@openzeppelin/contracts/utils/math/SafeMath.sol\":3934:3939  a / b */\n      tag_138\n      swap2\n      swap1\n      tag_139\n      jump\t// in\n    tag_138:\n        /* \"@openzeppelin/contracts/utils/math/SafeMath.sol\":3927:3939  return a / b */\n      swap1\n      pop\n        /* \"@openzeppelin/contracts/utils/math/SafeMath.sol\":3850:3946  function div(uint256 a, uint256 b) internal pure returns (uint256) {... */\n      swap3\n      swap2\n      pop\n      pop\n      jump\t// out\n        /* \"@openzeppelin/contracts/utils/math/SafeMath.sol\":3465:3561  function mul(uint256 a, uint256 b) internal pure returns (uint256) {... */\n    tag_67:\n        /* \"@openzeppelin/contracts/utils/math/SafeMath.sol\":3523:3530  uint256 */\n      0x00\n        /* \"@openzeppelin/contracts/utils/math/SafeMath.sol\":3553:3554  b */\n      dup2\n        /* \"@openzeppelin/contracts/utils/math/SafeMath.sol\":3549:3550  a */\n      dup4\n        /* \"@openzeppelin/contracts/utils/math/SafeMath.sol\":3549:3554  a * b */\n      tag_141\n      swap2\n      swap1\n      tag_142\n      jump\t// in\n    tag_141:\n        /* \"@openzeppelin/contracts/utils/math/SafeMath.sol\":3542:3554  return a * b */\n      swap1\n      pop\n        /* \"@openzeppelin/contracts/utils/math/SafeMath.sol\":3465:3561  function mul(uint256 a, uint256 b) internal pure returns (uint256) {... */\n      swap3\n      swap2\n      pop\n      pop\n      jump\t// out\n        /* \"#utility.yul\":88:205   */\n    tag_144:\n        /* \"#utility.yul\":197:198   */\n      0x00\n        /* \"#utility.yul\":194:195   */\n      dup1\n        /* \"#utility.yul\":187:199   */\n      revert\n        /* \"#utility.yul\":334:411   */\n    tag_146:\n        /* \"#utility.yul\":371:378   */\n      0x00\n        /* \"#utility.yul\":400:405   */\n      dup2\n        /* \"#utility.yul\":389:405   */\n      swap1\n      pop\n        /* \"#utility.yul\":334:411   */\n      swap2\n      swap1\n      pop\n      jump\t// out\n        /* \"#utility.yul\":417:539   */\n    tag_147:\n        /* \"#utility.yul\":490:514   */\n      tag_179\n        /* \"#utility.yul\":508:513   */\n      dup2\n        /* \"#utility.yul\":490:514   */\n      tag_146\n      jump\t// in\n    tag_179:\n        /* \"#utility.yul\":483:488   */\n      dup2\n        /* \"#utility.yul\":480:515   */\n      eq\n        /* \"#utility.yul\":470:533   */\n      tag_180\n      jumpi\n        /* \"#utility.yul\":529:530   */\n      0x00\n        /* \"#utility.yul\":526:527   */\n      dup1\n        /* \"#utility.yul\":519:531   */\n      revert\n        /* \"#utility.yul\":470:533   */\n    tag_180:\n        /* \"#utility.yul\":417:539   */\n      pop\n      jump\t// out\n        /* \"#utility.yul\":545:684   */\n    tag_148:\n        /* \"#utility.yul\":591:596   */\n      0x00\n        /* \"#utility.yul\":629:635   */\n      dup2\n        /* \"#utility.yul\":616:636   */\n      calldataload\n        /* \"#utility.yul\":607:636   */\n      swap1\n      pop\n        /* \"#utility.yul\":645:678   */\n      tag_182\n        /* \"#utility.yul\":672:677   */\n      dup2\n        /* \"#utility.yul\":645:678   */\n      tag_147\n      jump\t// in\n    tag_182:\n        /* \"#utility.yul\":545:684   */\n      swap3\n      swap2\n      pop\n      pop\n      jump\t// out\n        /* \"#utility.yul\":690:1019   */\n    tag_13:\n        /* \"#utility.yul\":749:755   */\n      0x00\n        /* \"#utility.yul\":798:800   */\n      0x20\n        /* \"#utility.yul\":786:795   */\n      dup3\n        /* \"#utility.yul\":777:784   */\n      dup5\n        /* \"#utility.yul\":773:796   */\n      sub\n        /* \"#utility.yul\":769:801   */\n      slt\n        /* \"#utility.yul\":766:885   */\n      iszero\n      tag_184\n      jumpi\n        /* \"#utility.yul\":804:883   */\n      tag_185\n      tag_144\n      jump\t// in\n    tag_185:\n        /* \"#utility.yul\":766:885   */\n    tag_184:\n        /* \"#utility.yul\":924:925   */\n      0x00\n        /* \"#utility.yul\":949:1002   */\n      tag_186\n        /* \"#utility.yul\":994:1001   */\n      dup5\n        /* \"#utility.yul\":985:991   */\n      dup3\n        /* \"#utility.yul\":974:983   */\n      dup6\n        /* \"#utility.yul\":970:992   */\n      add\n        /* \"#utility.yul\":949:1002   */\n      tag_148\n      jump\t// in\n    tag_186:\n        /* \"#utility.yul\":939:1002   */\n      swap2\n      pop\n        /* \"#utility.yul\":895:1012   */\n      pop\n        /* \"#utility.yul\":690:1019   */\n      swap3\n      swap2\n      pop\n      pop\n      jump\t// out\n        /* \"#utility.yul\":1025:1143   */\n    tag_149:\n        /* \"#utility.yul\":1112:1136   */\n      tag_188\n        /* \"#utility.yul\":1130:1135   */\n      dup2\n        /* \"#utility.yul\":1112:1136   */\n      tag_146\n      jump\t// in\n    tag_188:\n        /* \"#utility.yul\":1107:1110   */\n      dup3\n        /* \"#utility.yul\":1100:1137   */\n      mstore\n        /* \"#utility.yul\":1025:1143   */\n      pop\n      pop\n      jump\t// out\n        /* \"#utility.yul\":1149:1371   */\n    tag_16:\n        /* \"#utility.yul\":1242:1246   */\n      0x00\n        /* \"#utility.yul\":1280:1282   */\n      0x20\n        /* \"#utility.yul\":1269:1278   */\n      dup3\n        /* \"#utility.yul\":1265:1283   */\n      add\n        /* \"#utility.yul\":1257:1283   */\n      swap1\n      pop\n        /* \"#utility.yul\":1293:1364   */\n      tag_190\n        /* \"#utility.yul\":1361:1362   */\n      0x00\n        /* \"#utility.yul\":1350:1359   */\n      dup4\n        /* \"#utility.yul\":1346:1363   */\n      add\n        /* \"#utility.yul\":1337:1343   */\n      dup5\n        /* \"#utility.yul\":1293:1364   */\n      tag_149\n      jump\t// in\n    tag_190:\n        /* \"#utility.yul\":1149:1371   */\n      swap3\n      swap2\n      pop\n      pop\n      jump\t// out\n        /* \"#utility.yul\":1377:1503   */\n    tag_150:\n        /* \"#utility.yul\":1414:1421   */\n      0x00\n        /* \"#utility.yul\":1454:1496   */\n      0xffffffffffffffffffffffffffffffffffffffff\n        /* \"#utility.yul\":1447:1452   */\n      dup3\n        /* \"#utility.yul\":1443:1497   */\n      and\n        /* \"#utility.yul\":1432:1497   */\n      swap1\n      pop\n        /* \"#utility.yul\":1377:1503   */\n      swap2\n      swap1\n      pop\n      jump\t// out\n        /* \"#utility.yul\":1509:1605   */\n    tag_151:\n        /* \"#utility.yul\":1546:1553   */\n      0x00\n        /* \"#utility.yul\":1575:1599   */\n      tag_193\n        /* \"#utility.yul\":1593:1598   */\n      dup3\n        /* \"#utility.yul\":1575:1599   */\n      tag_150\n      jump\t// in\n    tag_193:\n        /* \"#utility.yul\":1564:1599   */\n      swap1\n      pop\n        /* \"#utility.yul\":1509:1605   */\n      swap2\n      swap1\n      pop\n      jump\t// out\n        /* \"#utility.yul\":1611:1733   */\n    tag_152:\n        /* \"#utility.yul\":1684:1708   */\n      tag_195\n        /* \"#utility.yul\":1702:1707   */\n      dup2\n        /* \"#utility.yul\":1684:1708   */\n      tag_151\n      jump\t// in\n    tag_195:\n        /* \"#utility.yul\":1677:1682   */\n      dup2\n        /* \"#utility.yul\":1674:1709   */\n      eq\n        /* \"#utility.yul\":1664:1727   */\n      tag_196\n      jumpi\n        /* \"#utility.yul\":1723:1724   */\n      0x00\n        /* \"#utility.yul\":1720:1721   */\n      dup1\n        /* \"#utility.yul\":1713:1725   */\n      revert\n        /* \"#utility.yul\":1664:1727   */\n    tag_196:\n        /* \"#utility.yul\":1611:1733   */\n      pop\n      jump\t// out\n        /* \"#utility.yul\":1739:1878   */\n    tag_153:\n        /* \"#utility.yul\":1785:1790   */\n      0x00\n        /* \"#utility.yul\":1823:1829   */\n      dup2\n        /* \"#utility.yul\":1810:1830   */\n      calldataload\n        /* \"#utility.yul\":1801:1830   */\n      swap1\n      pop\n        /* \"#utility.yul\":1839:1872   */\n      tag_198\n        /* \"#utility.yul\":1866:1871   */\n      dup2\n        /* \"#utility.yul\":1839:1872   */\n      tag_152\n      jump\t// in\n    tag_198:\n        /* \"#utility.yul\":1739:1878   */\n      swap3\n      swap2\n      pop\n      pop\n      jump\t// out\n        /* \"#utility.yul\":1884:2213   */\n    tag_19:\n        /* \"#utility.yul\":1943:1949   */\n      0x00\n        /* \"#utility.yul\":1992:1994   */\n      0x20\n        /* \"#utility.yul\":1980:1989   */\n      dup3\n        /* \"#utility.yul\":1971:1978   */\n      dup5\n        /* \"#utility.yul\":1967:1990   */\n      sub\n        /* \"#utility.yul\":1963:1995   */\n      slt\n        /* \"#utility.yul\":1960:2079   */\n      iszero\n      tag_200\n      jumpi\n        /* \"#utility.yul\":1998:2077   */\n      tag_201\n      tag_144\n      jump\t// in\n    tag_201:\n        /* \"#utility.yul\":1960:2079   */\n    tag_200:\n        /* \"#utility.yul\":2118:2119   */\n      0x00\n        /* \"#utility.yul\":2143:2196   */\n      tag_202\n        /* \"#utility.yul\":2188:2195   */\n      dup5\n        /* \"#utility.yul\":2179:2185   */\n      dup3\n        /* \"#utility.yul\":2168:2177   */\n      dup6\n        /* \"#utility.yul\":2164:2186   */\n      add\n        /* \"#utility.yul\":2143:2196   */\n      tag_153\n      jump\t// in\n    tag_202:\n        /* \"#utility.yul\":2133:2196   */\n      swap2\n      pop\n        /* \"#utility.yul\":2089:2206   */\n      pop\n        /* \"#utility.yul\":1884:2213   */\n      swap3\n      swap2\n      pop\n      pop\n      jump\t// out\n        /* \"#utility.yul\":2219:2323   */\n    tag_154:\n        /* \"#utility.yul\":2264:2271   */\n      0x00\n        /* \"#utility.yul\":2293:2317   */\n      tag_204\n        /* \"#utility.yul\":2311:2316   */\n      dup3\n        /* \"#utility.yul\":2293:2317   */\n      tag_150\n      jump\t// in\n    tag_204:\n        /* \"#utility.yul\":2282:2317   */\n      swap1\n      pop\n        /* \"#utility.yul\":2219:2323   */\n      swap2\n      swap1\n      pop\n      jump\t// out\n        /* \"#utility.yul\":2329:2467   */\n    tag_155:\n        /* \"#utility.yul\":2410:2442   */\n      tag_206\n        /* \"#utility.yul\":2436:2441   */\n      dup2\n        /* \"#utility.yul\":2410:2442   */\n      tag_154\n      jump\t// in\n    tag_206:\n        /* \"#utility.yul\":2403:2408   */\n      dup2\n        /* \"#utility.yul\":2400:2443   */\n      eq\n        /* \"#utility.yul\":2390:2461   */\n      tag_207\n      jumpi\n        /* \"#utility.yul\":2457:2458   */\n      0x00\n        /* \"#utility.yul\":2454:2455   */\n      dup1\n        /* \"#utility.yul\":2447:2459   */\n      revert\n        /* \"#utility.yul\":2390:2461   */\n    tag_207:\n        /* \"#utility.yul\":2329:2467   */\n      pop\n      jump\t// out\n        /* \"#utility.yul\":2473:2628   */\n    tag_156:\n        /* \"#utility.yul\":2527:2532   */\n      0x00\n        /* \"#utility.yul\":2565:2571   */\n      dup2\n        /* \"#utility.yul\":2552:2572   */\n      calldataload\n        /* \"#utility.yul\":2543:2572   */\n      swap1\n      pop\n        /* \"#utility.yul\":2581:2622   */\n      tag_209\n        /* \"#utility.yul\":2616:2621   */\n      dup2\n        /* \"#utility.yul\":2581:2622   */\n      tag_155\n      jump\t// in\n    tag_209:\n        /* \"#utility.yul\":2473:2628   */\n      swap3\n      swap2\n      pop\n      pop\n      jump\t// out\n        /* \"#utility.yul\":2634:3124   */\n    tag_24:\n        /* \"#utility.yul\":2710:2716   */\n      0x00\n        /* \"#utility.yul\":2718:2724   */\n      dup1\n        /* \"#utility.yul\":2767:2769   */\n      0x40\n        /* \"#utility.yul\":2755:2764   */\n      dup4\n        /* \"#utility.yul\":2746:2753   */\n      dup6\n        /* \"#utility.yul\":2742:2765   */\n      sub\n        /* \"#utility.yul\":2738:2770   */\n      slt\n        /* \"#utility.yul\":2735:2854   */\n      iszero\n      tag_211\n      jumpi\n        /* \"#utility.yul\":2773:2852   */\n      tag_212\n      tag_144\n      jump\t// in\n    tag_212:\n        /* \"#utility.yul\":2735:2854   */\n    tag_211:\n        /* \"#utility.yul\":2893:2894   */\n      0x00\n        /* \"#utility.yul\":2918:2979   */\n      tag_213\n        /* \"#utility.yul\":2971:2978   */\n      dup6\n        /* \"#utility.yul\":2962:2968   */\n      dup3\n        /* \"#utility.yul\":2951:2960   */\n      dup7\n        /* \"#utility.yul\":2947:2969   */\n      add\n        /* \"#utility.yul\":2918:2979   */\n      tag_156\n      jump\t// in\n    tag_213:\n        /* \"#utility.yul\":2908:2979   */\n      swap3\n      pop\n        /* \"#utility.yul\":2864:2989   */\n      pop\n        /* \"#utility.yul\":3028:3030   */\n      0x20\n        /* \"#utility.yul\":3054:3107   */\n      tag_214\n        /* \"#utility.yul\":3099:3106   */\n      dup6\n        /* \"#utility.yul\":3090:3096   */\n      dup3\n        /* \"#utility.yul\":3079:3088   */\n      dup7\n        /* \"#utility.yul\":3075:3097   */\n      add\n        /* \"#utility.yul\":3054:3107   */\n      tag_148\n      jump\t// in\n    tag_214:\n        /* \"#utility.yul\":3044:3107   */\n      swap2\n      pop\n        /* \"#utility.yul\":2999:3117   */\n      pop\n        /* \"#utility.yul\":2634:3124   */\n      swap3\n      pop\n      swap3\n      swap1\n      pop\n      jump\t// out\n        /* \"#utility.yul\":3130:3220   */\n    tag_157:\n        /* \"#utility.yul\":3164:3171   */\n      0x00\n        /* \"#utility.yul\":3207:3212   */\n      dup2\n        /* \"#utility.yul\":3200:3213   */\n      iszero\n        /* \"#utility.yul\":3193:3214   */\n      iszero\n        /* \"#utility.yul\":3182:3214   */\n      swap1\n      pop\n        /* \"#utility.yul\":3130:3220   */\n      swap2\n      swap1\n      pop\n      jump\t// out\n        /* \"#utility.yul\":3226:3342   */\n    tag_158:\n        /* \"#utility.yul\":3296:3317   */\n      tag_217\n        /* \"#utility.yul\":3311:3316   */\n      dup2\n        /* \"#utility.yul\":3296:3317   */\n      tag_157\n      jump\t// in\n    tag_217:\n        /* \"#utility.yul\":3289:3294   */\n      dup2\n        /* \"#utility.yul\":3286:3318   */\n      eq\n        /* \"#utility.yul\":3276:3336   */\n      tag_218\n      jumpi\n        /* \"#utility.yul\":3332:3333   */\n      0x00\n        /* \"#utility.yul\":3329:3330   */\n      dup1\n        /* \"#utility.yul\":3322:3334   */\n      revert\n        /* \"#utility.yul\":3276:3336   */\n    tag_218:\n        /* \"#utility.yul\":3226:3342   */\n      pop\n      jump\t// out\n        /* \"#utility.yul\":3348:3481   */\n    tag_159:\n        /* \"#utility.yul\":3391:3396   */\n      0x00\n        /* \"#utility.yul\":3429:3435   */\n      dup2\n        /* \"#utility.yul\":3416:3436   */\n      calldataload\n        /* \"#utility.yul\":3407:3436   */\n      swap1\n      pop\n        /* \"#utility.yul\":3445:3475   */\n      tag_220\n        /* \"#utility.yul\":3469:3474   */\n      dup2\n        /* \"#utility.yul\":3445:3475   */\n      tag_158\n      jump\t// in\n    tag_220:\n        /* \"#utility.yul\":3348:3481   */\n      swap3\n      swap2\n      pop\n      pop\n      jump\t// out\n        /* \"#utility.yul\":3487:3955   */\n    tag_34:\n        /* \"#utility.yul\":3552:3558   */\n      0x00\n        /* \"#utility.yul\":3560:3566   */\n      dup1\n        /* \"#utility.yul\":3609:3611   */\n      0x40\n        /* \"#utility.yul\":3597:3606   */\n      dup4\n        /* \"#utility.yul\":3588:3595   */\n      dup6\n        /* \"#utility.yul\":3584:3607   */\n      sub\n        /* \"#utility.yul\":3580:3612   */\n      slt\n        /* \"#utility.yul\":3577:3696   */\n      iszero\n      tag_222\n      jumpi\n        /* \"#utility.yul\":3615:3694   */\n      tag_223\n      tag_144\n      jump\t// in\n    tag_223:\n        /* \"#utility.yul\":3577:3696   */\n    tag_222:\n        /* \"#utility.yul\":3735:3736   */\n      0x00\n        /* \"#utility.yul\":3760:3813   */\n      tag_224\n        /* \"#utility.yul\":3805:3812   */\n      dup6\n        /* \"#utility.yul\":3796:3802   */\n      dup3\n        /* \"#utility.yul\":3785:3794   */\n      dup7\n        /* \"#utility.yul\":3781:3803   */\n      add\n        /* \"#utility.yul\":3760:3813   */\n      tag_153\n      jump\t// in\n    tag_224:\n        /* \"#utility.yul\":3750:3813   */\n      swap3\n      pop\n        /* \"#utility.yul\":3706:3823   */\n      pop\n        /* \"#utility.yul\":3862:3864   */\n      0x20\n        /* \"#utility.yul\":3888:3938   */\n      tag_225\n        /* \"#utility.yul\":3930:3937   */\n      dup6\n        /* \"#utility.yul\":3921:3927   */\n      dup3\n        /* \"#utility.yul\":3910:3919   */\n      dup7\n        /* \"#utility.yul\":3906:3928   */\n      add\n        /* \"#utility.yul\":3888:3938   */\n      tag_159\n      jump\t// in\n    tag_225:\n        /* \"#utility.yul\":3878:3938   */\n      swap2\n      pop\n        /* \"#utility.yul\":3833:3948   */\n      pop\n        /* \"#utility.yul\":3487:3955   */\n      swap3\n      pop\n      swap3\n      swap1\n      pop\n      jump\t// out\n        /* \"#utility.yul\":3961:4079   */\n    tag_160:\n        /* \"#utility.yul\":4048:4072   */\n      tag_227\n        /* \"#utility.yul\":4066:4071   */\n      dup2\n        /* \"#utility.yul\":4048:4072   */\n      tag_151\n      jump\t// in\n    tag_227:\n        /* \"#utility.yul\":4043:4046   */\n      dup3\n        /* \"#utility.yul\":4036:4073   */\n      mstore\n        /* \"#utility.yul\":3961:4079   */\n      pop\n      pop\n      jump\t// out\n        /* \"#utility.yul\":4085:4307   */\n    tag_46:\n        /* \"#utility.yul\":4178:4182   */\n      0x00\n        /* \"#utility.yul\":4216:4218   */\n      0x20\n        /* \"#utility.yul\":4205:4214   */\n      dup3\n        /* \"#utility.yul\":4201:4219   */\n      add\n        /* \"#utility.yul\":4193:4219   */\n      swap1\n      pop\n        /* \"#utility.yul\":4229:4300   */\n      tag_229\n        /* \"#utility.yul\":4297:4298   */\n      0x00\n        /* \"#utility.yul\":4286:4295   */\n      dup4\n        /* \"#utility.yul\":4282:4299   */\n      add\n        /* \"#utility.yul\":4273:4279   */\n      dup5\n        /* \"#utility.yul\":4229:4300   */\n      tag_160\n      jump\t// in\n    tag_229:\n        /* \"#utility.yul\":4085:4307   */\n      swap3\n      swap2\n      pop\n      pop\n      jump\t// out\n        /* \"#utility.yul\":4313:4456   */\n    tag_161:\n        /* \"#utility.yul\":4370:4375   */\n      0x00\n        /* \"#utility.yul\":4401:4407   */\n      dup2\n        /* \"#utility.yul\":4395:4408   */\n      mload\n        /* \"#utility.yul\":4386:4408   */\n      swap1\n      pop\n        /* \"#utility.yul\":4417:4450   */\n      tag_231\n        /* \"#utility.yul\":4444:4449   */\n      dup2\n        /* \"#utility.yul\":4417:4450   */\n      tag_147\n      jump\t// in\n    tag_231:\n        /* \"#utility.yul\":4313:4456   */\n      swap3\n      swap2\n      pop\n      pop\n      jump\t// out\n        /* \"#utility.yul\":4462:4813   */\n    tag_50:\n        /* \"#utility.yul\":4532:4538   */\n      0x00\n        /* \"#utility.yul\":4581:4583   */\n      0x20\n        /* \"#utility.yul\":4569:4578   */\n      dup3\n        /* \"#utility.yul\":4560:4567   */\n      dup5\n        /* \"#utility.yul\":4556:4579   */\n      sub\n        /* \"#utility.yul\":4552:4584   */\n      slt\n        /* \"#utility.yul\":4549:4668   */\n      iszero\n      tag_233\n      jumpi\n        /* \"#utility.yul\":4587:4666   */\n      tag_234\n      tag_144\n      jump\t// in\n    tag_234:\n        /* \"#utility.yul\":4549:4668   */\n    tag_233:\n        /* \"#utility.yul\":4707:4708   */\n      0x00\n        /* \"#utility.yul\":4732:4796   */\n      tag_235\n        /* \"#utility.yul\":4788:4795   */\n      dup5\n        /* \"#utility.yul\":4779:4785   */\n      dup3\n        /* \"#utility.yul\":4768:4777   */\n      dup6\n        /* \"#utility.yul\":4764:4786   */\n      add\n        /* \"#utility.yul\":4732:4796   */\n      tag_161\n      jump\t// in\n    tag_235:\n        /* \"#utility.yul\":4722:4796   */\n      swap2\n      pop\n        /* \"#utility.yul\":4678:4806   */\n      pop\n        /* \"#utility.yul\":4462:4813   */\n      swap3\n      swap2\n      pop\n      pop\n      jump\t// out\n        /* \"#utility.yul\":4819:5151   */\n    tag_72:\n        /* \"#utility.yul\":4940:4944   */\n      0x00\n        /* \"#utility.yul\":4978:4980   */\n      0x40\n        /* \"#utility.yul\":4967:4976   */\n      dup3\n        /* \"#utility.yul\":4963:4981   */\n      add\n        /* \"#utility.yul\":4955:4981   */\n      swap1\n      pop\n        /* \"#utility.yul\":4991:5062   */\n      tag_237\n        /* \"#utility.yul\":5059:5060   */\n      0x00\n        /* \"#utility.yul\":5048:5057   */\n      dup4\n        /* \"#utility.yul\":5044:5061   */\n      add\n        /* \"#utility.yul\":5035:5041   */\n      dup6\n        /* \"#utility.yul\":4991:5062   */\n      tag_160\n      jump\t// in\n    tag_237:\n        /* \"#utility.yul\":5072:5144   */\n      tag_238\n        /* \"#utility.yul\":5140:5142   */\n      0x20\n        /* \"#utility.yul\":5129:5138   */\n      dup4\n        /* \"#utility.yul\":5125:5143   */\n      add\n        /* \"#utility.yul\":5116:5122   */\n      dup5\n        /* \"#utility.yul\":5072:5144   */\n      tag_149\n      jump\t// in\n    tag_238:\n        /* \"#utility.yul\":4819:5151   */\n      swap4\n      swap3\n      pop\n      pop\n      pop\n      jump\t// out\n        /* \"#utility.yul\":5157:5294   */\n    tag_162:\n        /* \"#utility.yul\":5211:5216   */\n      0x00\n        /* \"#utility.yul\":5242:5248   */\n      dup2\n        /* \"#utility.yul\":5236:5249   */\n      mload\n        /* \"#utility.yul\":5227:5249   */\n      swap1\n      pop\n        /* \"#utility.yul\":5258:5288   */\n      tag_240\n        /* \"#utility.yul\":5282:5287   */\n      dup2\n        /* \"#utility.yul\":5258:5288   */\n      tag_158\n      jump\t// in\n    tag_240:\n        /* \"#utility.yul\":5157:5294   */\n      swap3\n      swap2\n      pop\n      pop\n      jump\t// out\n        /* \"#utility.yul\":5300:5645   */\n    tag_76:\n        /* \"#utility.yul\":5367:5373   */\n      0x00\n        /* \"#utility.yul\":5416:5418   */\n      0x20\n        /* \"#utility.yul\":5404:5413   */\n      dup3\n        /* \"#utility.yul\":5395:5402   */\n      dup5\n        /* \"#utility.yul\":5391:5414   */\n      sub\n        /* \"#utility.yul\":5387:5419   */\n      slt\n        /* \"#utility.yul\":5384:5503   */\n      iszero\n      tag_242\n      jumpi\n        /* \"#utility.yul\":5422:5501   */\n      tag_243\n      tag_144\n      jump\t// in\n    tag_243:\n        /* \"#utility.yul\":5384:5503   */\n    tag_242:\n        /* \"#utility.yul\":5542:5543   */\n      0x00\n        /* \"#utility.yul\":5567:5628   */\n      tag_244\n        /* \"#utility.yul\":5620:5627   */\n      dup5\n        /* \"#utility.yul\":5611:5617   */\n      dup3\n        /* \"#utility.yul\":5600:5609   */\n      dup6\n        /* \"#utility.yul\":5596:5618   */\n      add\n        /* \"#utility.yul\":5567:5628   */\n      tag_162\n      jump\t// in\n    tag_244:\n        /* \"#utility.yul\":5557:5628   */\n      swap2\n      pop\n        /* \"#utility.yul\":5513:5638   */\n      pop\n        /* \"#utility.yul\":5300:5645   */\n      swap3\n      swap2\n      pop\n      pop\n      jump\t// out\n        /* \"#utility.yul\":5651:5711   */\n    tag_163:\n        /* \"#utility.yul\":5679:5682   */\n      0x00\n        /* \"#utility.yul\":5700:5705   */\n      dup2\n        /* \"#utility.yul\":5693:5705   */\n      swap1\n      pop\n        /* \"#utility.yul\":5651:5711   */\n      swap2\n      swap1\n      pop\n      jump\t// out\n        /* \"#utility.yul\":5717:5859   */\n    tag_164:\n        /* \"#utility.yul\":5767:5776   */\n      0x00\n        /* \"#utility.yul\":5800:5853   */\n      tag_247\n        /* \"#utility.yul\":5818:5852   */\n      tag_248\n        /* \"#utility.yul\":5827:5851   */\n      tag_249\n        /* \"#utility.yul\":5845:5850   */\n      dup5\n        /* \"#utility.yul\":5827:5851   */\n      tag_150\n      jump\t// in\n    tag_249:\n        /* \"#utility.yul\":5818:5852   */\n      tag_163\n      jump\t// in\n    tag_248:\n        /* \"#utility.yul\":5800:5853   */\n      tag_150\n      jump\t// in\n    tag_247:\n        /* \"#utility.yul\":5787:5853   */\n      swap1\n      pop\n        /* \"#utility.yul\":5717:5859   */\n      swap2\n      swap1\n      pop\n      jump\t// out\n        /* \"#utility.yul\":5865:5991   */\n    tag_165:\n        /* \"#utility.yul\":5915:5924   */\n      0x00\n        /* \"#utility.yul\":5948:5985   */\n      tag_251\n        /* \"#utility.yul\":5979:5984   */\n      dup3\n        /* \"#utility.yul\":5948:5985   */\n      tag_164\n      jump\t// in\n    tag_251:\n        /* \"#utility.yul\":5935:5985   */\n      swap1\n      pop\n        /* \"#utility.yul\":5865:5991   */\n      swap2\n      swap1\n      pop\n      jump\t// out\n        /* \"#utility.yul\":5997:6131   */\n    tag_166:\n        /* \"#utility.yul\":6055:6064   */\n      0x00\n        /* \"#utility.yul\":6088:6125   */\n      tag_253\n        /* \"#utility.yul\":6119:6124   */\n      dup3\n        /* \"#utility.yul\":6088:6125   */\n      tag_165\n      jump\t// in\n    tag_253:\n        /* \"#utility.yul\":6075:6125   */\n      swap1\n      pop\n        /* \"#utility.yul\":5997:6131   */\n      swap2\n      swap1\n      pop\n      jump\t// out\n        /* \"#utility.yul\":6137:6284   */\n    tag_167:\n        /* \"#utility.yul\":6232:6277   */\n      tag_255\n        /* \"#utility.yul\":6271:6276   */\n      dup2\n        /* \"#utility.yul\":6232:6277   */\n      tag_166\n      jump\t// in\n    tag_255:\n        /* \"#utility.yul\":6227:6230   */\n      dup3\n        /* \"#utility.yul\":6220:6278   */\n      mstore\n        /* \"#utility.yul\":6137:6284   */\n      pop\n      pop\n      jump\t// out\n        /* \"#utility.yul\":6290:6528   */\n    tag_80:\n        /* \"#utility.yul\":6391:6395   */\n      0x00\n        /* \"#utility.yul\":6429:6431   */\n      0x20\n        /* \"#utility.yul\":6418:6427   */\n      dup3\n        /* \"#utility.yul\":6414:6432   */\n      add\n        /* \"#utility.yul\":6406:6432   */\n      swap1\n      pop\n        /* \"#utility.yul\":6442:6521   */\n      tag_257\n        /* \"#utility.yul\":6518:6519   */\n      0x00\n        /* \"#utility.yul\":6507:6516   */\n      dup4\n        /* \"#utility.yul\":6503:6520   */\n      add\n        /* \"#utility.yul\":6494:6500   */\n      dup5\n        /* \"#utility.yul\":6442:6521   */\n      tag_167\n      jump\t// in\n    tag_257:\n        /* \"#utility.yul\":6290:6528   */\n      swap3\n      swap2\n      pop\n      pop\n      jump\t// out\n        /* \"#utility.yul\":6534:6992   */\n    tag_93:\n        /* \"#utility.yul\":6691:6695   */\n      0x00\n        /* \"#utility.yul\":6729:6731   */\n      0x60\n        /* \"#utility.yul\":6718:6727   */\n      dup3\n        /* \"#utility.yul\":6714:6732   */\n      add\n        /* \"#utility.yul\":6706:6732   */\n      swap1\n      pop\n        /* \"#utility.yul\":6742:6821   */\n      tag_259\n        /* \"#utility.yul\":6818:6819   */\n      0x00\n        /* \"#utility.yul\":6807:6816   */\n      dup4\n        /* \"#utility.yul\":6803:6820   */\n      add\n        /* \"#utility.yul\":6794:6800   */\n      dup7\n        /* \"#utility.yul\":6742:6821   */\n      tag_167\n      jump\t// in\n    tag_259:\n        /* \"#utility.yul\":6831:6903   */\n      tag_260\n        /* \"#utility.yul\":6899:6901   */\n      0x20\n        /* \"#utility.yul\":6888:6897   */\n      dup4\n        /* \"#utility.yul\":6884:6902   */\n      add\n        /* \"#utility.yul\":6875:6881   */\n      dup6\n        /* \"#utility.yul\":6831:6903   */\n      tag_160\n      jump\t// in\n    tag_260:\n        /* \"#utility.yul\":6913:6985   */\n      tag_261\n        /* \"#utility.yul\":6981:6983   */\n      0x40\n        /* \"#utility.yul\":6970:6979   */\n      dup4\n        /* \"#utility.yul\":6966:6984   */\n      add\n        /* \"#utility.yul\":6957:6963   */\n      dup5\n        /* \"#utility.yul\":6913:6985   */\n      tag_149\n      jump\t// in\n    tag_261:\n        /* \"#utility.yul\":6534:6992   */\n      swap5\n      swap4\n      pop\n      pop\n      pop\n      pop\n      jump\t// out\n        /* \"#utility.yul\":6998:7167   */\n    tag_168:\n        /* \"#utility.yul\":7082:7093   */\n      0x00\n        /* \"#utility.yul\":7116:7122   */\n      dup3\n        /* \"#utility.yul\":7111:7114   */\n      dup3\n        /* \"#utility.yul\":7104:7123   */\n      mstore\n        /* \"#utility.yul\":7156:7160   */\n      0x20\n        /* \"#utility.yul\":7151:7154   */\n      dup3\n        /* \"#utility.yul\":7147:7161   */\n      add\n        /* \"#utility.yul\":7132:7161   */\n      swap1\n      pop\n        /* \"#utility.yul\":6998:7167   */\n      swap3\n      swap2\n      pop\n      pop\n      jump\t// out\n        /* \"#utility.yul\":7173:7355   */\n    tag_169:\n        /* \"#utility.yul\":7313:7347   */\n      0x4f776e61626c653a2063616c6c6572206973206e6f7420746865206f776e6572\n        /* \"#utility.yul\":7309:7310   */\n      0x00\n        /* \"#utility.yul\":7301:7307   */\n      dup3\n        /* \"#utility.yul\":7297:7311   */\n      add\n        /* \"#utility.yul\":7290:7348   */\n      mstore\n        /* \"#utility.yul\":7173:7355   */\n      pop\n      jump\t// out\n        /* \"#utility.yul\":7361:7727   */\n    tag_170:\n        /* \"#utility.yul\":7503:7506   */\n      0x00\n        /* \"#utility.yul\":7524:7591   */\n      tag_265\n        /* \"#utility.yul\":7588:7590   */\n      0x20\n        /* \"#utility.yul\":7583:7586   */\n      dup4\n        /* \"#utility.yul\":7524:7591   */\n      tag_168\n      jump\t// in\n    tag_265:\n        /* \"#utility.yul\":7517:7591   */\n      swap2\n      pop\n        /* \"#utility.yul\":7600:7693   */\n      tag_266\n        /* \"#utility.yul\":7689:7692   */\n      dup3\n        /* \"#utility.yul\":7600:7693   */\n      tag_169\n      jump\t// in\n    tag_266:\n        /* \"#utility.yul\":7718:7720   */\n      0x20\n        /* \"#utility.yul\":7713:7716   */\n      dup3\n        /* \"#utility.yul\":7709:7721   */\n      add\n        /* \"#utility.yul\":7702:7721   */\n      swap1\n      pop\n        /* \"#utility.yul\":7361:7727   */\n      swap2\n      swap1\n      pop\n      jump\t// out\n        /* \"#utility.yul\":7733:8152   */\n    tag_109:\n        /* \"#utility.yul\":7899:7903   */\n      0x00\n        /* \"#utility.yul\":7937:7939   */\n      0x20\n        /* \"#utility.yul\":7926:7935   */\n      dup3\n        /* \"#utility.yul\":7922:7940   */\n      add\n        /* \"#utility.yul\":7914:7940   */\n      swap1\n      pop\n        /* \"#utility.yul\":7986:7995   */\n      dup2\n        /* \"#utility.yul\":7980:7984   */\n      dup2\n        /* \"#utility.yul\":7976:7996   */\n      sub\n        /* \"#utility.yul\":7972:7973   */\n      0x00\n        /* \"#utility.yul\":7961:7970   */\n      dup4\n        /* \"#utility.yul\":7957:7974   */\n      add\n        /* \"#utility.yul\":7950:7997   */\n      mstore\n        /* \"#utility.yul\":8014:8145   */\n      tag_268\n        /* \"#utility.yul\":8140:8144   */\n      dup2\n        /* \"#utility.yul\":8014:8145   */\n      tag_170\n      jump\t// in\n    tag_268:\n        /* \"#utility.yul\":8006:8145   */\n      swap1\n      pop\n        /* \"#utility.yul\":7733:8152   */\n      swap2\n      swap1\n      pop\n      jump\t// out\n        /* \"#utility.yul\":8158:8338   */\n    tag_171:\n        /* \"#utility.yul\":8206:8283   */\n      0x4e487b7100000000000000000000000000000000000000000000000000000000\n        /* \"#utility.yul\":8203:8204   */\n      0x00\n        /* \"#utility.yul\":8196:8284   */\n      mstore\n        /* \"#utility.yul\":8303:8307   */\n      0x11\n        /* \"#utility.yul\":8300:8301   */\n      0x04\n        /* \"#utility.yul\":8293:8308   */\n      mstore\n        /* \"#utility.yul\":8327:8331   */\n      0x24\n        /* \"#utility.yul\":8324:8325   */\n      0x00\n        /* \"#utility.yul\":8317:8332   */\n      revert\n        /* \"#utility.yul\":8344:8535   */\n    tag_133:\n        /* \"#utility.yul\":8384:8388   */\n      0x00\n        /* \"#utility.yul\":8404:8424   */\n      tag_271\n        /* \"#utility.yul\":8422:8423   */\n      dup3\n        /* \"#utility.yul\":8404:8424   */\n      tag_146\n      jump\t// in\n    tag_271:\n        /* \"#utility.yul\":8399:8424   */\n      swap2\n      pop\n        /* \"#utility.yul\":8438:8458   */\n      tag_272\n        /* \"#utility.yul\":8456:8457   */\n      dup4\n        /* \"#utility.yul\":8438:8458   */\n      tag_146\n      jump\t// in\n    tag_272:\n        /* \"#utility.yul\":8433:8458   */\n      swap3\n      pop\n        /* \"#utility.yul\":8477:8478   */\n      dup3\n        /* \"#utility.yul\":8474:8475   */\n      dup3\n        /* \"#utility.yul\":8471:8479   */\n      lt\n        /* \"#utility.yul\":8468:8502   */\n      iszero\n      tag_273\n      jumpi\n        /* \"#utility.yul\":8482:8500   */\n      tag_274\n      tag_171\n      jump\t// in\n    tag_274:\n        /* \"#utility.yul\":8468:8502   */\n    tag_273:\n        /* \"#utility.yul\":8527:8528   */\n      dup3\n        /* \"#utility.yul\":8524:8525   */\n      dup3\n        /* \"#utility.yul\":8520:8529   */\n      sub\n        /* \"#utility.yul\":8512:8529   */\n      swap1\n      pop\n        /* \"#utility.yul\":8344:8535   */\n      swap3\n      swap2\n      pop\n      pop\n      jump\t// out\n        /* \"#utility.yul\":8541:8846   */\n    tag_136:\n        /* \"#utility.yul\":8581:8584   */\n      0x00\n        /* \"#utility.yul\":8600:8620   */\n      tag_276\n        /* \"#utility.yul\":8618:8619   */\n      dup3\n        /* \"#utility.yul\":8600:8620   */\n      tag_146\n      jump\t// in\n    tag_276:\n        /* \"#utility.yul\":8595:8620   */\n      swap2\n      pop\n        /* \"#utility.yul\":8634:8654   */\n      tag_277\n        /* \"#utility.yul\":8652:8653   */\n      dup4\n        /* \"#utility.yul\":8634:8654   */\n      tag_146\n      jump\t// in\n    tag_277:\n        /* \"#utility.yul\":8629:8654   */\n      swap3\n      pop\n        /* \"#utility.yul\":8788:8789   */\n      dup3\n        /* \"#utility.yul\":8720:8786   */\n      0xffffffffffffffffffffffffffffffffffffffffffffffffffffffffffffffff\n        /* \"#utility.yul\":8716:8790   */\n      sub\n        /* \"#utility.yul\":8713:8714   */\n      dup3\n        /* \"#utility.yul\":8710:8791   */\n      gt\n        /* \"#utility.yul\":8707:8814   */\n      iszero\n      tag_278\n      jumpi\n        /* \"#utility.yul\":8794:8812   */\n      tag_279\n      tag_171\n      jump\t// in\n    tag_279:\n        /* \"#utility.yul\":8707:8814   */\n    tag_278:\n        /* \"#utility.yul\":8838:8839   */\n      dup3\n        /* \"#utility.yul\":8835:8836   */\n      dup3\n        /* \"#utility.yul\":8831:8840   */\n      add\n        /* \"#utility.yul\":8824:8840   */\n      swap1\n      pop\n        /* \"#utility.yul\":8541:8846   */\n      swap3\n      swap2\n      pop\n      pop\n      jump\t// out\n        /* \"#utility.yul\":8852:9032   */\n    tag_172:\n        /* \"#utility.yul\":8900:8977   */\n      0x4e487b7100000000000000000000000000000000000000000000000000000000\n        /* \"#utility.yul\":8897:8898   */\n      0x00\n        /* \"#utility.yul\":8890:8978   */\n      mstore\n        /* \"#utility.yul\":8997:9001   */\n      0x12\n        /* \"#utility.yul\":8994:8995   */\n      0x04\n        /* \"#utility.yul\":8987:9002   */\n      mstore\n        /* \"#utility.yul\":9021:9025   */\n      0x24\n        /* \"#utility.yul\":9018:9019   */\n      0x00\n        /* \"#utility.yul\":9011:9026   */\n      revert\n        /* \"#utility.yul\":9038:9223   */\n    tag_139:\n        /* \"#utility.yul\":9078:9079   */\n      0x00\n        /* \"#utility.yul\":9095:9115   */\n      tag_282\n        /* \"#utility.yul\":9113:9114   */\n      dup3\n        /* \"#utility.yul\":9095:9115   */\n      tag_146\n      jump\t// in\n    tag_282:\n        /* \"#utility.yul\":9090:9115   */\n      swap2\n      pop\n        /* \"#utility.yul\":9129:9149   */\n      tag_283\n        /* \"#utility.yul\":9147:9148   */\n      dup4\n        /* \"#utility.yul\":9129:9149   */\n      tag_146\n      jump\t// in\n    tag_283:\n        /* \"#utility.yul\":9124:9149   */\n      swap3\n      pop\n        /* \"#utility.yul\":9168:9169   */\n      dup3\n        /* \"#utility.yul\":9158:9193   */\n      tag_284\n      jumpi\n        /* \"#utility.yul\":9173:9191   */\n      tag_285\n      tag_172\n      jump\t// in\n    tag_285:\n        /* \"#utility.yul\":9158:9193   */\n    tag_284:\n        /* \"#utility.yul\":9215:9216   */\n      dup3\n        /* \"#utility.yul\":9212:9213   */\n      dup3\n        /* \"#utility.yul\":9208:9217   */\n      div\n        /* \"#utility.yul\":9203:9217   */\n      swap1\n      pop\n        /* \"#utility.yul\":9038:9223   */\n      swap3\n      swap2\n      pop\n      pop\n      jump\t// out\n        /* \"#utility.yul\":9229:9577   */\n    tag_142:\n        /* \"#utility.yul\":9269:9276   */\n      0x00\n        /* \"#utility.yul\":9292:9312   */\n      tag_287\n        /* \"#utility.yul\":9310:9311   */\n      dup3\n        /* \"#utility.yul\":9292:9312   */\n      tag_146\n      jump\t// in\n    tag_287:\n        /* \"#utility.yul\":9287:9312   */\n      swap2\n      pop\n        /* \"#utility.yul\":9326:9346   */\n      tag_288\n        /* \"#utility.yul\":9344:9345   */\n      dup4\n        /* \"#utility.yul\":9326:9346   */\n      tag_146\n      jump\t// in\n    tag_288:\n        /* \"#utility.yul\":9321:9346   */\n      swap3\n      pop\n        /* \"#utility.yul\":9514:9515   */\n      dup2\n        /* \"#utility.yul\":9446:9512   */\n      0xffffffffffffffffffffffffffffffffffffffffffffffffffffffffffffffff\n        /* \"#utility.yul\":9442:9516   */\n      div\n        /* \"#utility.yul\":9439:9440   */\n      dup4\n        /* \"#utility.yul\":9436:9517   */\n      gt\n        /* \"#utility.yul\":9431:9432   */\n      dup3\n        /* \"#utility.yul\":9424:9433   */\n      iszero\n        /* \"#utility.yul\":9417:9434   */\n      iszero\n        /* \"#utility.yul\":9413:9518   */\n      and\n        /* \"#utility.yul\":9410:9541   */\n      iszero\n      tag_289\n      jumpi\n        /* \"#utility.yul\":9521:9539   */\n      tag_290\n      tag_171\n      jump\t// in\n    tag_290:\n        /* \"#utility.yul\":9410:9541   */\n    tag_289:\n        /* \"#utility.yul\":9569:9570   */\n      dup3\n        /* \"#utility.yul\":9566:9567   */\n      dup3\n        /* \"#utility.yul\":9562:9571   */\n      mul\n        /* \"#utility.yul\":9551:9571   */\n      swap1\n      pop\n        /* \"#utility.yul\":9229:9577   */\n      swap3\n      swap2\n      pop\n      pop\n      jump\t// out\n\n    auxdata: 0xa2646970667358221220b09e14db54ac6e696aa475daf4cae14aba57f7b37aaaf4961106b2cd81b6371764736f6c634300080e0033\n}\n",
				"bytecode": {
					"linkReferences": {},
					"object": "60806040527358d3a4cb28f30d9c87e8f79544f98f358cde62276000806101000a81548173ffffffffffffffffffffffffffffffffffffffff021916908373ffffffffffffffffffffffffffffffffffffffff160217905550604051620014783803806200147883398181016040528101906200007d91906200011b565b33600660006101000a81548173ffffffffffffffffffffffffffffffffffffffff021916908373ffffffffffffffffffffffffffffffffffffffff160217905550346003819055508160018190555080600281905550505062000162565b600080fd5b6000819050919050565b620000f581620000e0565b81146200010157600080fd5b50565b6000815190506200011581620000ea565b92915050565b60008060408385031215620001355762000134620000db565b5b6000620001458582860162000104565b9250506020620001588582860162000104565b9150509250929050565b61130680620001726000396000f3fe6080604052600436106100705760003560e01c806397dedb1d1161004e57806397dedb1d146100f7578063c3c6467414610134578063dac3fad41461015d578063fee3f7f91461017457610070565b80633a23bf491461007557806341a7726a146100b257806394756aa7146100ce575b600080fd5b34801561008157600080fd5b5061009c60048036038101906100979190610d80565b61018b565b6040516100a99190610dbc565b60405180910390f35b6100cc60048036038101906100c79190610e35565b6103c2565b005b3480156100da57600080fd5b506100f560048036038101906100f09190610ea0565b610537565b005b34801561010357600080fd5b5061011e60048036038101906101199190610d80565b610799565b60405161012b9190610dbc565b60405180910390f35b34801561014057600080fd5b5061015b60048036038101906101569190610f18565b6108a8565b005b34801561016957600080fd5b50610172610993565b005b34801561018057600080fd5b50610189610be8565b005b6000806101a5600454600354610ced90919063ffffffff16565b905060008060009054906101000a900473ffffffffffffffffffffffffffffffffffffffff1673ffffffffffffffffffffffffffffffffffffffff166370a08231306040518263ffffffff1660e01b81526004016102039190610f67565b602060405180830381865afa158015610220573d6000803e3d6000fd5b505050506040513d601f19601f820116820180604052508101906102449190610f97565b9050600061025b8583610d0390919063ffffffff16565b905060008054906101000a900473ffffffffffffffffffffffffffffffffffffffff1673ffffffffffffffffffffffffffffffffffffffff166318160ddd6040518163ffffffff1660e01b8152600401602060405180830381865afa1580156102c8573d6000803e3d6000fd5b505050506040513d601f19601f820116820180604052508101906102ec9190610f97565b8111156103855760008054906101000a900473ffffffffffffffffffffffffffffffffffffffff1673ffffffffffffffffffffffffffffffffffffffff166318160ddd6040518163ffffffff1660e01b8152600401602060405180830381865afa15801561035e573d6000803e3d6000fd5b505050506040513d601f19601f820116820180604052508101906103829190610f97565b90505b600061039c82600154610d1990919063ffffffff16565b905060006103b38286610ced90919063ffffffff16565b90508095505050505050919050565b60011515600760003373ffffffffffffffffffffffffffffffffffffffff1673ffffffffffffffffffffffffffffffffffffffff16815260200190815260200160002060009054906101000a900460ff1615151461041f57600080fd5b600061044a6103e861043c60025434610d2f90919063ffffffff16565b610d1990919063ffffffff16565b905061046181600454610d0390919063ffffffff16565b600481905550600061047c8234610ced90919063ffffffff16565b9050600061048982610799565b905060008054906101000a900473ffffffffffffffffffffffffffffffffffffffff1673ffffffffffffffffffffffffffffffffffffffff1663a9059cbb85836040518363ffffffff1660e01b81526004016104e6929190610fc4565b6020604051808303816000875af1158015610505573d6000803e3d6000fd5b505050506040513d601f19601f820116820180604052508101906105299190611002565b504760038190555050505050565b60011515600760003373ffffffffffffffffffffffffffffffffffffffff1673ffffffffffffffffffffffffffffffffffffffff16815260200190815260200160002060009054906101000a900460ff1615151461059457600080fd5b8060008054906101000a900473ffffffffffffffffffffffffffffffffffffffff1673ffffffffffffffffffffffffffffffffffffffff166370a08231846040518263ffffffff1660e01b81526004016105ee919061108e565b602060405180830381865afa15801561060b573d6000803e3d6000fd5b505050506040513d601f19601f8201168201806040525081019061062f9190610f97565b101561063a57600080fd5b60006106458261018b565b905060006106726103e861066460025485610d2f90919063ffffffff16565b610d1990919063ffffffff16565b905061068981600454610d0390919063ffffffff16565b6004819055506106a28183610ced90919063ffffffff16565b91508373ffffffffffffffffffffffffffffffffffffffff166108fc839081150290604051600060405180830381858888f193505050501580156106ea573d6000803e3d6000fd5b5060008054906101000a900473ffffffffffffffffffffffffffffffffffffffff1673ffffffffffffffffffffffffffffffffffffffff166323b872dd8530866040518463ffffffff1660e01b8152600401610748939291906110a9565b6020604051808303816000875af1158015610767573d6000803e3d6000fd5b505050506040513d601f19601f8201168201806040525081019061078b9190611002565b504760038190555050505050565b6000806107b3600454600354610ced90919063ffffffff16565b905060008060009054906101000a900473ffffffffffffffffffffffffffffffffffffffff1673ffffffffffffffffffffffffffffffffffffffff166370a08231306040518263ffffffff1660e01b81526004016108119190610f67565b602060405180830381865afa15801561082e573d6000803e3d6000fd5b505050506040513d601f19601f820116820180604052508101906108529190610f97565b905060006108698584610d0390919063ffffffff16565b9050600061088282600154610d1990919063ffffffff16565b905060006108998285610ced90919063ffffffff16565b90508095505050505050919050565b3373ffffffffffffffffffffffffffffffffffffffff16600660009054906101000a900473ffffffffffffffffffffffffffffffffffffffff1673ffffffffffffffffffffffffffffffffffffffff1614610938576040517f08c379a000000000000000000000000000000000000000000000000000000000815260040161092f9061113d565b60405180910390fd5b80600760008473ffffffffffffffffffffffffffffffffffffffff1673ffffffffffffffffffffffffffffffffffffffff16815260200190815260200160002060006101000a81548160ff0219169083151502179055505050565b3373ffffffffffffffffffffffffffffffffffffffff16600660009054906101000a900473ffffffffffffffffffffffffffffffffffffffff1673ffffffffffffffffffffffffffffffffffffffff1614610a23576040517f08c379a0000000000000000000000000000000000000000000000000000000008152600401610a1a9061113d565b60405180910390fd5b600660009054906101000a900473ffffffffffffffffffffffffffffffffffffffff1673ffffffffffffffffffffffffffffffffffffffff166108fc479081150290604051600060405180830381858888f19350505050158015610a8b573d6000803e3d6000fd5b5060008054906101000a900473ffffffffffffffffffffffffffffffffffffffff1673ffffffffffffffffffffffffffffffffffffffff1663a9059cbb600660009054906101000a900473ffffffffffffffffffffffffffffffffffffffff1660008054906101000a900473ffffffffffffffffffffffffffffffffffffffff1673ffffffffffffffffffffffffffffffffffffffff166370a08231306040518263ffffffff1660e01b8152600401610b449190610f67565b602060405180830381865afa158015610b61573d6000803e3d6000fd5b505050506040513d601f19601f82011682018060405250810190610b859190610f97565b6040518363ffffffff1660e01b8152600401610ba2929190610fc4565b6020604051808303816000875af1158015610bc1573d6000803e3d6000fd5b505050506040513d601f19601f82011682018060405250810190610be59190611002565b50565b3373ffffffffffffffffffffffffffffffffffffffff16600660009054906101000a900473ffffffffffffffffffffffffffffffffffffffff1673ffffffffffffffffffffffffffffffffffffffff1614610c78576040517f08c379a0000000000000000000000000000000000000000000000000000000008152600401610c6f9061113d565b60405180910390fd5b600660009054906101000a900473ffffffffffffffffffffffffffffffffffffffff1673ffffffffffffffffffffffffffffffffffffffff166108fc6004549081150290604051600060405180830381858888f19350505050158015610ce2573d6000803e3d6000fd5b506000600481905550565b60008183610cfb919061118c565b905092915050565b60008183610d1191906111c0565b905092915050565b60008183610d279190611245565b905092915050565b60008183610d3d9190611276565b905092915050565b600080fd5b6000819050919050565b610d5d81610d4a565b8114610d6857600080fd5b50565b600081359050610d7a81610d54565b92915050565b600060208284031215610d9657610d95610d45565b5b6000610da484828501610d6b565b91505092915050565b610db681610d4a565b82525050565b6000602082019050610dd16000830184610dad565b92915050565b600073ffffffffffffffffffffffffffffffffffffffff82169050919050565b6000610e0282610dd7565b9050919050565b610e1281610df7565b8114610e1d57600080fd5b50565b600081359050610e2f81610e09565b92915050565b600060208284031215610e4b57610e4a610d45565b5b6000610e5984828501610e20565b91505092915050565b6000610e6d82610dd7565b9050919050565b610e7d81610e62565b8114610e8857600080fd5b50565b600081359050610e9a81610e74565b92915050565b60008060408385031215610eb757610eb6610d45565b5b6000610ec585828601610e8b565b9250506020610ed685828601610d6b565b9150509250929050565b60008115159050919050565b610ef581610ee0565b8114610f0057600080fd5b50565b600081359050610f1281610eec565b92915050565b60008060408385031215610f2f57610f2e610d45565b5b6000610f3d85828601610e20565b9250506020610f4e85828601610f03565b9150509250929050565b610f6181610df7565b82525050565b6000602082019050610f7c6000830184610f58565b92915050565b600081519050610f9181610d54565b92915050565b600060208284031215610fad57610fac610d45565b5b6000610fbb84828501610f82565b91505092915050565b6000604082019050610fd96000830185610f58565b610fe66020830184610dad565b9392505050565b600081519050610ffc81610eec565b92915050565b60006020828403121561101857611017610d45565b5b600061102684828501610fed565b91505092915050565b6000819050919050565b600061105461104f61104a84610dd7565b61102f565b610dd7565b9050919050565b600061106682611039565b9050919050565b60006110788261105b565b9050919050565b6110888161106d565b82525050565b60006020820190506110a3600083018461107f565b92915050565b60006060820190506110be600083018661107f565b6110cb6020830185610f58565b6110d86040830184610dad565b949350505050565b600082825260208201905092915050565b7f4f776e61626c653a2063616c6c6572206973206e6f7420746865206f776e6572600082015250565b60006111276020836110e0565b9150611132826110f1565b602082019050919050565b600060208201905081810360008301526111568161111a565b9050919050565b7f4e487b7100000000000000000000000000000000000000000000000000000000600052601160045260246000fd5b600061119782610d4a565b91506111a283610d4a565b9250828210156111b5576111b461115d565b5b828203905092915050565b60006111cb82610d4a565b91506111d683610d4a565b9250827fffffffffffffffffffffffffffffffffffffffffffffffffffffffffffffffff0382111561120b5761120a61115d565b5b828201905092915050565b7f4e487b7100000000000000000000000000000000000000000000000000000000600052601260045260246000fd5b600061125082610d4a565b915061125b83610d4a565b92508261126b5761126a611216565b5b828204905092915050565b600061128182610d4a565b915061128c83610d4a565b9250817fffffffffffffffffffffffffffffffffffffffffffffffffffffffffffffffff04831182151516156112c5576112c461115d565b5b82820290509291505056fea2646970667358221220b09e14db54ac6e696aa475daf4cae14aba57f7b37aaaf4961106b2cd81b6371764736f6c634300080e0033",
					"opcodes": "PUSH1 0x80 PUSH1 0x40 MSTORE PUSH20 0x58D3A4CB28F30D9C87E8F79544F98F358CDE6227 PUSH1 0x0 DUP1 PUSH2 0x100 EXP DUP2 SLOAD DUP2 PUSH20 0xFFFFFFFFFFFFFFFFFFFFFFFFFFFFFFFFFFFFFFFF MUL NOT AND SWAP1 DUP4 PUSH20 0xFFFFFFFFFFFFFFFFFFFFFFFFFFFFFFFFFFFFFFFF AND MUL OR SWAP1 SSTORE POP PUSH1 0x40 MLOAD PUSH3 0x1478 CODESIZE SUB DUP1 PUSH3 0x1478 DUP4 CODECOPY DUP2 DUP2 ADD PUSH1 0x40 MSTORE DUP2 ADD SWAP1 PUSH3 0x7D SWAP2 SWAP1 PUSH3 0x11B JUMP JUMPDEST CALLER PUSH1 0x6 PUSH1 0x0 PUSH2 0x100 EXP DUP2 SLOAD DUP2 PUSH20 0xFFFFFFFFFFFFFFFFFFFFFFFFFFFFFFFFFFFFFFFF MUL NOT AND SWAP1 DUP4 PUSH20 0xFFFFFFFFFFFFFFFFFFFFFFFFFFFFFFFFFFFFFFFF AND MUL OR SWAP1 SSTORE POP CALLVALUE PUSH1 0x3 DUP2 SWAP1 SSTORE POP DUP2 PUSH1 0x1 DUP2 SWAP1 SSTORE POP DUP1 PUSH1 0x2 DUP2 SWAP1 SSTORE POP POP POP PUSH3 0x162 JUMP JUMPDEST PUSH1 0x0 DUP1 REVERT JUMPDEST PUSH1 0x0 DUP2 SWAP1 POP SWAP2 SWAP1 POP JUMP JUMPDEST PUSH3 0xF5 DUP2 PUSH3 0xE0 JUMP JUMPDEST DUP2 EQ PUSH3 0x101 JUMPI PUSH1 0x0 DUP1 REVERT JUMPDEST POP JUMP JUMPDEST PUSH1 0x0 DUP2 MLOAD SWAP1 POP PUSH3 0x115 DUP2 PUSH3 0xEA JUMP JUMPDEST SWAP3 SWAP2 POP POP JUMP JUMPDEST PUSH1 0x0 DUP1 PUSH1 0x40 DUP4 DUP6 SUB SLT ISZERO PUSH3 0x135 JUMPI PUSH3 0x134 PUSH3 0xDB JUMP JUMPDEST JUMPDEST PUSH1 0x0 PUSH3 0x145 DUP6 DUP3 DUP7 ADD PUSH3 0x104 JUMP JUMPDEST SWAP3 POP POP PUSH1 0x20 PUSH3 0x158 DUP6 DUP3 DUP7 ADD PUSH3 0x104 JUMP JUMPDEST SWAP2 POP POP SWAP3 POP SWAP3 SWAP1 POP JUMP JUMPDEST PUSH2 0x1306 DUP1 PUSH3 0x172 PUSH1 0x0 CODECOPY PUSH1 0x0 RETURN INVALID PUSH1 0x80 PUSH1 0x40 MSTORE PUSH1 0x4 CALLDATASIZE LT PUSH2 0x70 JUMPI PUSH1 0x0 CALLDATALOAD PUSH1 0xE0 SHR DUP1 PUSH4 0x97DEDB1D GT PUSH2 0x4E JUMPI DUP1 PUSH4 0x97DEDB1D EQ PUSH2 0xF7 JUMPI DUP1 PUSH4 0xC3C64674 EQ PUSH2 0x134 JUMPI DUP1 PUSH4 0xDAC3FAD4 EQ PUSH2 0x15D JUMPI DUP1 PUSH4 0xFEE3F7F9 EQ PUSH2 0x174 JUMPI PUSH2 0x70 JUMP JUMPDEST DUP1 PUSH4 0x3A23BF49 EQ PUSH2 0x75 JUMPI DUP1 PUSH4 0x41A7726A EQ PUSH2 0xB2 JUMPI DUP1 PUSH4 0x94756AA7 EQ PUSH2 0xCE JUMPI JUMPDEST PUSH1 0x0 DUP1 REVERT JUMPDEST CALLVALUE DUP1 ISZERO PUSH2 0x81 JUMPI PUSH1 0x0 DUP1 REVERT JUMPDEST POP PUSH2 0x9C PUSH1 0x4 DUP1 CALLDATASIZE SUB DUP2 ADD SWAP1 PUSH2 0x97 SWAP2 SWAP1 PUSH2 0xD80 JUMP JUMPDEST PUSH2 0x18B JUMP JUMPDEST PUSH1 0x40 MLOAD PUSH2 0xA9 SWAP2 SWAP1 PUSH2 0xDBC JUMP JUMPDEST PUSH1 0x40 MLOAD DUP1 SWAP2 SUB SWAP1 RETURN JUMPDEST PUSH2 0xCC PUSH1 0x4 DUP1 CALLDATASIZE SUB DUP2 ADD SWAP1 PUSH2 0xC7 SWAP2 SWAP1 PUSH2 0xE35 JUMP JUMPDEST PUSH2 0x3C2 JUMP JUMPDEST STOP JUMPDEST CALLVALUE DUP1 ISZERO PUSH2 0xDA JUMPI PUSH1 0x0 DUP1 REVERT JUMPDEST POP PUSH2 0xF5 PUSH1 0x4 DUP1 CALLDATASIZE SUB DUP2 ADD SWAP1 PUSH2 0xF0 SWAP2 SWAP1 PUSH2 0xEA0 JUMP JUMPDEST PUSH2 0x537 JUMP JUMPDEST STOP JUMPDEST CALLVALUE DUP1 ISZERO PUSH2 0x103 JUMPI PUSH1 0x0 DUP1 REVERT JUMPDEST POP PUSH2 0x11E PUSH1 0x4 DUP1 CALLDATASIZE SUB DUP2 ADD SWAP1 PUSH2 0x119 SWAP2 SWAP1 PUSH2 0xD80 JUMP JUMPDEST PUSH2 0x799 JUMP JUMPDEST PUSH1 0x40 MLOAD PUSH2 0x12B SWAP2 SWAP1 PUSH2 0xDBC JUMP JUMPDEST PUSH1 0x40 MLOAD DUP1 SWAP2 SUB SWAP1 RETURN JUMPDEST CALLVALUE DUP1 ISZERO PUSH2 0x140 JUMPI PUSH1 0x0 DUP1 REVERT JUMPDEST POP PUSH2 0x15B PUSH1 0x4 DUP1 CALLDATASIZE SUB DUP2 ADD SWAP1 PUSH2 0x156 SWAP2 SWAP1 PUSH2 0xF18 JUMP JUMPDEST PUSH2 0x8A8 JUMP JUMPDEST STOP JUMPDEST CALLVALUE DUP1 ISZERO PUSH2 0x169 JUMPI PUSH1 0x0 DUP1 REVERT JUMPDEST POP PUSH2 0x172 PUSH2 0x993 JUMP JUMPDEST STOP JUMPDEST CALLVALUE DUP1 ISZERO PUSH2 0x180 JUMPI PUSH1 0x0 DUP1 REVERT JUMPDEST POP PUSH2 0x189 PUSH2 0xBE8 JUMP JUMPDEST STOP JUMPDEST PUSH1 0x0 DUP1 PUSH2 0x1A5 PUSH1 0x4 SLOAD PUSH1 0x3 SLOAD PUSH2 0xCED SWAP1 SWAP2 SWAP1 PUSH4 0xFFFFFFFF AND JUMP JUMPDEST SWAP1 POP PUSH1 0x0 DUP1 PUSH1 0x0 SWAP1 SLOAD SWAP1 PUSH2 0x100 EXP SWAP1 DIV PUSH20 0xFFFFFFFFFFFFFFFFFFFFFFFFFFFFFFFFFFFFFFFF AND PUSH20 0xFFFFFFFFFFFFFFFFFFFFFFFFFFFFFFFFFFFFFFFF AND PUSH4 0x70A08231 ADDRESS PUSH1 0x40 MLOAD DUP3 PUSH4 0xFFFFFFFF AND PUSH1 0xE0 SHL DUP2 MSTORE PUSH1 0x4 ADD PUSH2 0x203 SWAP2 SWAP1 PUSH2 0xF67 JUMP JUMPDEST PUSH1 0x20 PUSH1 0x40 MLOAD DUP1 DUP4 SUB DUP2 DUP7 GAS STATICCALL ISZERO DUP1 ISZERO PUSH2 0x220 JUMPI RETURNDATASIZE PUSH1 0x0 DUP1 RETURNDATACOPY RETURNDATASIZE PUSH1 0x0 REVERT JUMPDEST POP POP POP POP PUSH1 0x40 MLOAD RETURNDATASIZE PUSH1 0x1F NOT PUSH1 0x1F DUP3 ADD AND DUP3 ADD DUP1 PUSH1 0x40 MSTORE POP DUP2 ADD SWAP1 PUSH2 0x244 SWAP2 SWAP1 PUSH2 0xF97 JUMP JUMPDEST SWAP1 POP PUSH1 0x0 PUSH2 0x25B DUP6 DUP4 PUSH2 0xD03 SWAP1 SWAP2 SWAP1 PUSH4 0xFFFFFFFF AND JUMP JUMPDEST SWAP1 POP PUSH1 0x0 DUP1 SLOAD SWAP1 PUSH2 0x100 EXP SWAP1 DIV PUSH20 0xFFFFFFFFFFFFFFFFFFFFFFFFFFFFFFFFFFFFFFFF AND PUSH20 0xFFFFFFFFFFFFFFFFFFFFFFFFFFFFFFFFFFFFFFFF AND PUSH4 0x18160DDD PUSH1 0x40 MLOAD DUP2 PUSH4 0xFFFFFFFF AND PUSH1 0xE0 SHL DUP2 MSTORE PUSH1 0x4 ADD PUSH1 0x20 PUSH1 0x40 MLOAD DUP1 DUP4 SUB DUP2 DUP7 GAS STATICCALL ISZERO DUP1 ISZERO PUSH2 0x2C8 JUMPI RETURNDATASIZE PUSH1 0x0 DUP1 RETURNDATACOPY RETURNDATASIZE PUSH1 0x0 REVERT JUMPDEST POP POP POP POP PUSH1 0x40 MLOAD RETURNDATASIZE PUSH1 0x1F NOT PUSH1 0x1F DUP3 ADD AND DUP3 ADD DUP1 PUSH1 0x40 MSTORE POP DUP2 ADD SWAP1 PUSH2 0x2EC SWAP2 SWAP1 PUSH2 0xF97 JUMP JUMPDEST DUP2 GT ISZERO PUSH2 0x385 JUMPI PUSH1 0x0 DUP1 SLOAD SWAP1 PUSH2 0x100 EXP SWAP1 DIV PUSH20 0xFFFFFFFFFFFFFFFFFFFFFFFFFFFFFFFFFFFFFFFF AND PUSH20 0xFFFFFFFFFFFFFFFFFFFFFFFFFFFFFFFFFFFFFFFF AND PUSH4 0x18160DDD PUSH1 0x40 MLOAD DUP2 PUSH4 0xFFFFFFFF AND PUSH1 0xE0 SHL DUP2 MSTORE PUSH1 0x4 ADD PUSH1 0x20 PUSH1 0x40 MLOAD DUP1 DUP4 SUB DUP2 DUP7 GAS STATICCALL ISZERO DUP1 ISZERO PUSH2 0x35E JUMPI RETURNDATASIZE PUSH1 0x0 DUP1 RETURNDATACOPY RETURNDATASIZE PUSH1 0x0 REVERT JUMPDEST POP POP POP POP PUSH1 0x40 MLOAD RETURNDATASIZE PUSH1 0x1F NOT PUSH1 0x1F DUP3 ADD AND DUP3 ADD DUP1 PUSH1 0x40 MSTORE POP DUP2 ADD SWAP1 PUSH2 0x382 SWAP2 SWAP1 PUSH2 0xF97 JUMP JUMPDEST SWAP1 POP JUMPDEST PUSH1 0x0 PUSH2 0x39C DUP3 PUSH1 0x1 SLOAD PUSH2 0xD19 SWAP1 SWAP2 SWAP1 PUSH4 0xFFFFFFFF AND JUMP JUMPDEST SWAP1 POP PUSH1 0x0 PUSH2 0x3B3 DUP3 DUP7 PUSH2 0xCED SWAP1 SWAP2 SWAP1 PUSH4 0xFFFFFFFF AND JUMP JUMPDEST SWAP1 POP DUP1 SWAP6 POP POP POP POP POP POP SWAP2 SWAP1 POP JUMP JUMPDEST PUSH1 0x1 ISZERO ISZERO PUSH1 0x7 PUSH1 0x0 CALLER PUSH20 0xFFFFFFFFFFFFFFFFFFFFFFFFFFFFFFFFFFFFFFFF AND PUSH20 0xFFFFFFFFFFFFFFFFFFFFFFFFFFFFFFFFFFFFFFFF AND DUP2 MSTORE PUSH1 0x20 ADD SWAP1 DUP2 MSTORE PUSH1 0x20 ADD PUSH1 0x0 KECCAK256 PUSH1 0x0 SWAP1 SLOAD SWAP1 PUSH2 0x100 EXP SWAP1 DIV PUSH1 0xFF AND ISZERO ISZERO EQ PUSH2 0x41F JUMPI PUSH1 0x0 DUP1 REVERT JUMPDEST PUSH1 0x0 PUSH2 0x44A PUSH2 0x3E8 PUSH2 0x43C PUSH1 0x2 SLOAD CALLVALUE PUSH2 0xD2F SWAP1 SWAP2 SWAP1 PUSH4 0xFFFFFFFF AND JUMP JUMPDEST PUSH2 0xD19 SWAP1 SWAP2 SWAP1 PUSH4 0xFFFFFFFF AND JUMP JUMPDEST SWAP1 POP PUSH2 0x461 DUP2 PUSH1 0x4 SLOAD PUSH2 0xD03 SWAP1 SWAP2 SWAP1 PUSH4 0xFFFFFFFF AND JUMP JUMPDEST PUSH1 0x4 DUP2 SWAP1 SSTORE POP PUSH1 0x0 PUSH2 0x47C DUP3 CALLVALUE PUSH2 0xCED SWAP1 SWAP2 SWAP1 PUSH4 0xFFFFFFFF AND JUMP JUMPDEST SWAP1 POP PUSH1 0x0 PUSH2 0x489 DUP3 PUSH2 0x799 JUMP JUMPDEST SWAP1 POP PUSH1 0x0 DUP1 SLOAD SWAP1 PUSH2 0x100 EXP SWAP1 DIV PUSH20 0xFFFFFFFFFFFFFFFFFFFFFFFFFFFFFFFFFFFFFFFF AND PUSH20 0xFFFFFFFFFFFFFFFFFFFFFFFFFFFFFFFFFFFFFFFF AND PUSH4 0xA9059CBB DUP6 DUP4 PUSH1 0x40 MLOAD DUP4 PUSH4 0xFFFFFFFF AND PUSH1 0xE0 SHL DUP2 MSTORE PUSH1 0x4 ADD PUSH2 0x4E6 SWAP3 SWAP2 SWAP1 PUSH2 0xFC4 JUMP JUMPDEST PUSH1 0x20 PUSH1 0x40 MLOAD DUP1 DUP4 SUB DUP2 PUSH1 0x0 DUP8 GAS CALL ISZERO DUP1 ISZERO PUSH2 0x505 JUMPI RETURNDATASIZE PUSH1 0x0 DUP1 RETURNDATACOPY RETURNDATASIZE PUSH1 0x0 REVERT JUMPDEST POP POP POP POP PUSH1 0x40 MLOAD RETURNDATASIZE PUSH1 0x1F NOT PUSH1 0x1F DUP3 ADD AND DUP3 ADD DUP1 PUSH1 0x40 MSTORE POP DUP2 ADD SWAP1 PUSH2 0x529 SWAP2 SWAP1 PUSH2 0x1002 JUMP JUMPDEST POP SELFBALANCE PUSH1 0x3 DUP2 SWAP1 SSTORE POP POP POP POP POP JUMP JUMPDEST PUSH1 0x1 ISZERO ISZERO PUSH1 0x7 PUSH1 0x0 CALLER PUSH20 0xFFFFFFFFFFFFFFFFFFFFFFFFFFFFFFFFFFFFFFFF AND PUSH20 0xFFFFFFFFFFFFFFFFFFFFFFFFFFFFFFFFFFFFFFFF AND DUP2 MSTORE PUSH1 0x20 ADD SWAP1 DUP2 MSTORE PUSH1 0x20 ADD PUSH1 0x0 KECCAK256 PUSH1 0x0 SWAP1 SLOAD SWAP1 PUSH2 0x100 EXP SWAP1 DIV PUSH1 0xFF AND ISZERO ISZERO EQ PUSH2 0x594 JUMPI PUSH1 0x0 DUP1 REVERT JUMPDEST DUP1 PUSH1 0x0 DUP1 SLOAD SWAP1 PUSH2 0x100 EXP SWAP1 DIV PUSH20 0xFFFFFFFFFFFFFFFFFFFFFFFFFFFFFFFFFFFFFFFF AND PUSH20 0xFFFFFFFFFFFFFFFFFFFFFFFFFFFFFFFFFFFFFFFF AND PUSH4 0x70A08231 DUP5 PUSH1 0x40 MLOAD DUP3 PUSH4 0xFFFFFFFF AND PUSH1 0xE0 SHL DUP2 MSTORE PUSH1 0x4 ADD PUSH2 0x5EE SWAP2 SWAP1 PUSH2 0x108E JUMP JUMPDEST PUSH1 0x20 PUSH1 0x40 MLOAD DUP1 DUP4 SUB DUP2 DUP7 GAS STATICCALL ISZERO DUP1 ISZERO PUSH2 0x60B JUMPI RETURNDATASIZE PUSH1 0x0 DUP1 RETURNDATACOPY RETURNDATASIZE PUSH1 0x0 REVERT JUMPDEST POP POP POP POP PUSH1 0x40 MLOAD RETURNDATASIZE PUSH1 0x1F NOT PUSH1 0x1F DUP3 ADD AND DUP3 ADD DUP1 PUSH1 0x40 MSTORE POP DUP2 ADD SWAP1 PUSH2 0x62F SWAP2 SWAP1 PUSH2 0xF97 JUMP JUMPDEST LT ISZERO PUSH2 0x63A JUMPI PUSH1 0x0 DUP1 REVERT JUMPDEST PUSH1 0x0 PUSH2 0x645 DUP3 PUSH2 0x18B JUMP JUMPDEST SWAP1 POP PUSH1 0x0 PUSH2 0x672 PUSH2 0x3E8 PUSH2 0x664 PUSH1 0x2 SLOAD DUP6 PUSH2 0xD2F SWAP1 SWAP2 SWAP1 PUSH4 0xFFFFFFFF AND JUMP JUMPDEST PUSH2 0xD19 SWAP1 SWAP2 SWAP1 PUSH4 0xFFFFFFFF AND JUMP JUMPDEST SWAP1 POP PUSH2 0x689 DUP2 PUSH1 0x4 SLOAD PUSH2 0xD03 SWAP1 SWAP2 SWAP1 PUSH4 0xFFFFFFFF AND JUMP JUMPDEST PUSH1 0x4 DUP2 SWAP1 SSTORE POP PUSH2 0x6A2 DUP2 DUP4 PUSH2 0xCED SWAP1 SWAP2 SWAP1 PUSH4 0xFFFFFFFF AND JUMP JUMPDEST SWAP2 POP DUP4 PUSH20 0xFFFFFFFFFFFFFFFFFFFFFFFFFFFFFFFFFFFFFFFF AND PUSH2 0x8FC DUP4 SWAP1 DUP2 ISZERO MUL SWAP1 PUSH1 0x40 MLOAD PUSH1 0x0 PUSH1 0x40 MLOAD DUP1 DUP4 SUB DUP2 DUP6 DUP9 DUP9 CALL SWAP4 POP POP POP POP ISZERO DUP1 ISZERO PUSH2 0x6EA JUMPI RETURNDATASIZE PUSH1 0x0 DUP1 RETURNDATACOPY RETURNDATASIZE PUSH1 0x0 REVERT JUMPDEST POP PUSH1 0x0 DUP1 SLOAD SWAP1 PUSH2 0x100 EXP SWAP1 DIV PUSH20 0xFFFFFFFFFFFFFFFFFFFFFFFFFFFFFFFFFFFFFFFF AND PUSH20 0xFFFFFFFFFFFFFFFFFFFFFFFFFFFFFFFFFFFFFFFF AND PUSH4 0x23B872DD DUP6 ADDRESS DUP7 PUSH1 0x40 MLOAD DUP5 PUSH4 0xFFFFFFFF AND PUSH1 0xE0 SHL DUP2 MSTORE PUSH1 0x4 ADD PUSH2 0x748 SWAP4 SWAP3 SWAP2 SWAP1 PUSH2 0x10A9 JUMP JUMPDEST PUSH1 0x20 PUSH1 0x40 MLOAD DUP1 DUP4 SUB DUP2 PUSH1 0x0 DUP8 GAS CALL ISZERO DUP1 ISZERO PUSH2 0x767 JUMPI RETURNDATASIZE PUSH1 0x0 DUP1 RETURNDATACOPY RETURNDATASIZE PUSH1 0x0 REVERT JUMPDEST POP POP POP POP PUSH1 0x40 MLOAD RETURNDATASIZE PUSH1 0x1F NOT PUSH1 0x1F DUP3 ADD AND DUP3 ADD DUP1 PUSH1 0x40 MSTORE POP DUP2 ADD SWAP1 PUSH2 0x78B SWAP2 SWAP1 PUSH2 0x1002 JUMP JUMPDEST POP SELFBALANCE PUSH1 0x3 DUP2 SWAP1 SSTORE POP POP POP POP POP JUMP JUMPDEST PUSH1 0x0 DUP1 PUSH2 0x7B3 PUSH1 0x4 SLOAD PUSH1 0x3 SLOAD PUSH2 0xCED SWAP1 SWAP2 SWAP1 PUSH4 0xFFFFFFFF AND JUMP JUMPDEST SWAP1 POP PUSH1 0x0 DUP1 PUSH1 0x0 SWAP1 SLOAD SWAP1 PUSH2 0x100 EXP SWAP1 DIV PUSH20 0xFFFFFFFFFFFFFFFFFFFFFFFFFFFFFFFFFFFFFFFF AND PUSH20 0xFFFFFFFFFFFFFFFFFFFFFFFFFFFFFFFFFFFFFFFF AND PUSH4 0x70A08231 ADDRESS PUSH1 0x40 MLOAD DUP3 PUSH4 0xFFFFFFFF AND PUSH1 0xE0 SHL DUP2 MSTORE PUSH1 0x4 ADD PUSH2 0x811 SWAP2 SWAP1 PUSH2 0xF67 JUMP JUMPDEST PUSH1 0x20 PUSH1 0x40 MLOAD DUP1 DUP4 SUB DUP2 DUP7 GAS STATICCALL ISZERO DUP1 ISZERO PUSH2 0x82E JUMPI RETURNDATASIZE PUSH1 0x0 DUP1 RETURNDATACOPY RETURNDATASIZE PUSH1 0x0 REVERT JUMPDEST POP POP POP POP PUSH1 0x40 MLOAD RETURNDATASIZE PUSH1 0x1F NOT PUSH1 0x1F DUP3 ADD AND DUP3 ADD DUP1 PUSH1 0x40 MSTORE POP DUP2 ADD SWAP1 PUSH2 0x852 SWAP2 SWAP1 PUSH2 0xF97 JUMP JUMPDEST SWAP1 POP PUSH1 0x0 PUSH2 0x869 DUP6 DUP5 PUSH2 0xD03 SWAP1 SWAP2 SWAP1 PUSH4 0xFFFFFFFF AND JUMP JUMPDEST SWAP1 POP PUSH1 0x0 PUSH2 0x882 DUP3 PUSH1 0x1 SLOAD PUSH2 0xD19 SWAP1 SWAP2 SWAP1 PUSH4 0xFFFFFFFF AND JUMP JUMPDEST SWAP1 POP PUSH1 0x0 PUSH2 0x899 DUP3 DUP6 PUSH2 0xCED SWAP1 SWAP2 SWAP1 PUSH4 0xFFFFFFFF AND JUMP JUMPDEST SWAP1 POP DUP1 SWAP6 POP POP POP POP POP POP SWAP2 SWAP1 POP JUMP JUMPDEST CALLER PUSH20 0xFFFFFFFFFFFFFFFFFFFFFFFFFFFFFFFFFFFFFFFF AND PUSH1 0x6 PUSH1 0x0 SWAP1 SLOAD SWAP1 PUSH2 0x100 EXP SWAP1 DIV PUSH20 0xFFFFFFFFFFFFFFFFFFFFFFFFFFFFFFFFFFFFFFFF AND PUSH20 0xFFFFFFFFFFFFFFFFFFFFFFFFFFFFFFFFFFFFFFFF AND EQ PUSH2 0x938 JUMPI PUSH1 0x40 MLOAD PUSH32 0x8C379A000000000000000000000000000000000000000000000000000000000 DUP2 MSTORE PUSH1 0x4 ADD PUSH2 0x92F SWAP1 PUSH2 0x113D JUMP JUMPDEST PUSH1 0x40 MLOAD DUP1 SWAP2 SUB SWAP1 REVERT JUMPDEST DUP1 PUSH1 0x7 PUSH1 0x0 DUP5 PUSH20 0xFFFFFFFFFFFFFFFFFFFFFFFFFFFFFFFFFFFFFFFF AND PUSH20 0xFFFFFFFFFFFFFFFFFFFFFFFFFFFFFFFFFFFFFFFF AND DUP2 MSTORE PUSH1 0x20 ADD SWAP1 DUP2 MSTORE PUSH1 0x20 ADD PUSH1 0x0 KECCAK256 PUSH1 0x0 PUSH2 0x100 EXP DUP2 SLOAD DUP2 PUSH1 0xFF MUL NOT AND SWAP1 DUP4 ISZERO ISZERO MUL OR SWAP1 SSTORE POP POP POP JUMP JUMPDEST CALLER PUSH20 0xFFFFFFFFFFFFFFFFFFFFFFFFFFFFFFFFFFFFFFFF AND PUSH1 0x6 PUSH1 0x0 SWAP1 SLOAD SWAP1 PUSH2 0x100 EXP SWAP1 DIV PUSH20 0xFFFFFFFFFFFFFFFFFFFFFFFFFFFFFFFFFFFFFFFF AND PUSH20 0xFFFFFFFFFFFFFFFFFFFFFFFFFFFFFFFFFFFFFFFF AND EQ PUSH2 0xA23 JUMPI PUSH1 0x40 MLOAD PUSH32 0x8C379A000000000000000000000000000000000000000000000000000000000 DUP2 MSTORE PUSH1 0x4 ADD PUSH2 0xA1A SWAP1 PUSH2 0x113D JUMP JUMPDEST PUSH1 0x40 MLOAD DUP1 SWAP2 SUB SWAP1 REVERT JUMPDEST PUSH1 0x6 PUSH1 0x0 SWAP1 SLOAD SWAP1 PUSH2 0x100 EXP SWAP1 DIV PUSH20 0xFFFFFFFFFFFFFFFFFFFFFFFFFFFFFFFFFFFFFFFF AND PUSH20 0xFFFFFFFFFFFFFFFFFFFFFFFFFFFFFFFFFFFFFFFF AND PUSH2 0x8FC SELFBALANCE SWAP1 DUP2 ISZERO MUL SWAP1 PUSH1 0x40 MLOAD PUSH1 0x0 PUSH1 0x40 MLOAD DUP1 DUP4 SUB DUP2 DUP6 DUP9 DUP9 CALL SWAP4 POP POP POP POP ISZERO DUP1 ISZERO PUSH2 0xA8B JUMPI RETURNDATASIZE PUSH1 0x0 DUP1 RETURNDATACOPY RETURNDATASIZE PUSH1 0x0 REVERT JUMPDEST POP PUSH1 0x0 DUP1 SLOAD SWAP1 PUSH2 0x100 EXP SWAP1 DIV PUSH20 0xFFFFFFFFFFFFFFFFFFFFFFFFFFFFFFFFFFFFFFFF AND PUSH20 0xFFFFFFFFFFFFFFFFFFFFFFFFFFFFFFFFFFFFFFFF AND PUSH4 0xA9059CBB PUSH1 0x6 PUSH1 0x0 SWAP1 SLOAD SWAP1 PUSH2 0x100 EXP SWAP1 DIV PUSH20 0xFFFFFFFFFFFFFFFFFFFFFFFFFFFFFFFFFFFFFFFF AND PUSH1 0x0 DUP1 SLOAD SWAP1 PUSH2 0x100 EXP SWAP1 DIV PUSH20 0xFFFFFFFFFFFFFFFFFFFFFFFFFFFFFFFFFFFFFFFF AND PUSH20 0xFFFFFFFFFFFFFFFFFFFFFFFFFFFFFFFFFFFFFFFF AND PUSH4 0x70A08231 ADDRESS PUSH1 0x40 MLOAD DUP3 PUSH4 0xFFFFFFFF AND PUSH1 0xE0 SHL DUP2 MSTORE PUSH1 0x4 ADD PUSH2 0xB44 SWAP2 SWAP1 PUSH2 0xF67 JUMP JUMPDEST PUSH1 0x20 PUSH1 0x40 MLOAD DUP1 DUP4 SUB DUP2 DUP7 GAS STATICCALL ISZERO DUP1 ISZERO PUSH2 0xB61 JUMPI RETURNDATASIZE PUSH1 0x0 DUP1 RETURNDATACOPY RETURNDATASIZE PUSH1 0x0 REVERT JUMPDEST POP POP POP POP PUSH1 0x40 MLOAD RETURNDATASIZE PUSH1 0x1F NOT PUSH1 0x1F DUP3 ADD AND DUP3 ADD DUP1 PUSH1 0x40 MSTORE POP DUP2 ADD SWAP1 PUSH2 0xB85 SWAP2 SWAP1 PUSH2 0xF97 JUMP JUMPDEST PUSH1 0x40 MLOAD DUP4 PUSH4 0xFFFFFFFF AND PUSH1 0xE0 SHL DUP2 MSTORE PUSH1 0x4 ADD PUSH2 0xBA2 SWAP3 SWAP2 SWAP1 PUSH2 0xFC4 JUMP JUMPDEST PUSH1 0x20 PUSH1 0x40 MLOAD DUP1 DUP4 SUB DUP2 PUSH1 0x0 DUP8 GAS CALL ISZERO DUP1 ISZERO PUSH2 0xBC1 JUMPI RETURNDATASIZE PUSH1 0x0 DUP1 RETURNDATACOPY RETURNDATASIZE PUSH1 0x0 REVERT JUMPDEST POP POP POP POP PUSH1 0x40 MLOAD RETURNDATASIZE PUSH1 0x1F NOT PUSH1 0x1F DUP3 ADD AND DUP3 ADD DUP1 PUSH1 0x40 MSTORE POP DUP2 ADD SWAP1 PUSH2 0xBE5 SWAP2 SWAP1 PUSH2 0x1002 JUMP JUMPDEST POP JUMP JUMPDEST CALLER PUSH20 0xFFFFFFFFFFFFFFFFFFFFFFFFFFFFFFFFFFFFFFFF AND PUSH1 0x6 PUSH1 0x0 SWAP1 SLOAD SWAP1 PUSH2 0x100 EXP SWAP1 DIV PUSH20 0xFFFFFFFFFFFFFFFFFFFFFFFFFFFFFFFFFFFFFFFF AND PUSH20 0xFFFFFFFFFFFFFFFFFFFFFFFFFFFFFFFFFFFFFFFF AND EQ PUSH2 0xC78 JUMPI PUSH1 0x40 MLOAD PUSH32 0x8C379A000000000000000000000000000000000000000000000000000000000 DUP2 MSTORE PUSH1 0x4 ADD PUSH2 0xC6F SWAP1 PUSH2 0x113D JUMP JUMPDEST PUSH1 0x40 MLOAD DUP1 SWAP2 SUB SWAP1 REVERT JUMPDEST PUSH1 0x6 PUSH1 0x0 SWAP1 SLOAD SWAP1 PUSH2 0x100 EXP SWAP1 DIV PUSH20 0xFFFFFFFFFFFFFFFFFFFFFFFFFFFFFFFFFFFFFFFF AND PUSH20 0xFFFFFFFFFFFFFFFFFFFFFFFFFFFFFFFFFFFFFFFF AND PUSH2 0x8FC PUSH1 0x4 SLOAD SWAP1 DUP2 ISZERO MUL SWAP1 PUSH1 0x40 MLOAD PUSH1 0x0 PUSH1 0x40 MLOAD DUP1 DUP4 SUB DUP2 DUP6 DUP9 DUP9 CALL SWAP4 POP POP POP POP ISZERO DUP1 ISZERO PUSH2 0xCE2 JUMPI RETURNDATASIZE PUSH1 0x0 DUP1 RETURNDATACOPY RETURNDATASIZE PUSH1 0x0 REVERT JUMPDEST POP PUSH1 0x0 PUSH1 0x4 DUP2 SWAP1 SSTORE POP JUMP JUMPDEST PUSH1 0x0 DUP2 DUP4 PUSH2 0xCFB SWAP2 SWAP1 PUSH2 0x118C JUMP JUMPDEST SWAP1 POP SWAP3 SWAP2 POP POP JUMP JUMPDEST PUSH1 0x0 DUP2 DUP4 PUSH2 0xD11 SWAP2 SWAP1 PUSH2 0x11C0 JUMP JUMPDEST SWAP1 POP SWAP3 SWAP2 POP POP JUMP JUMPDEST PUSH1 0x0 DUP2 DUP4 PUSH2 0xD27 SWAP2 SWAP1 PUSH2 0x1245 JUMP JUMPDEST SWAP1 POP SWAP3 SWAP2 POP POP JUMP JUMPDEST PUSH1 0x0 DUP2 DUP4 PUSH2 0xD3D SWAP2 SWAP1 PUSH2 0x1276 JUMP JUMPDEST SWAP1 POP SWAP3 SWAP2 POP POP JUMP JUMPDEST PUSH1 0x0 DUP1 REVERT JUMPDEST PUSH1 0x0 DUP2 SWAP1 POP SWAP2 SWAP1 POP JUMP JUMPDEST PUSH2 0xD5D DUP2 PUSH2 0xD4A JUMP JUMPDEST DUP2 EQ PUSH2 0xD68 JUMPI PUSH1 0x0 DUP1 REVERT JUMPDEST POP JUMP JUMPDEST PUSH1 0x0 DUP2 CALLDATALOAD SWAP1 POP PUSH2 0xD7A DUP2 PUSH2 0xD54 JUMP JUMPDEST SWAP3 SWAP2 POP POP JUMP JUMPDEST PUSH1 0x0 PUSH1 0x20 DUP3 DUP5 SUB SLT ISZERO PUSH2 0xD96 JUMPI PUSH2 0xD95 PUSH2 0xD45 JUMP JUMPDEST JUMPDEST PUSH1 0x0 PUSH2 0xDA4 DUP5 DUP3 DUP6 ADD PUSH2 0xD6B JUMP JUMPDEST SWAP2 POP POP SWAP3 SWAP2 POP POP JUMP JUMPDEST PUSH2 0xDB6 DUP2 PUSH2 0xD4A JUMP JUMPDEST DUP3 MSTORE POP POP JUMP JUMPDEST PUSH1 0x0 PUSH1 0x20 DUP3 ADD SWAP1 POP PUSH2 0xDD1 PUSH1 0x0 DUP4 ADD DUP5 PUSH2 0xDAD JUMP JUMPDEST SWAP3 SWAP2 POP POP JUMP JUMPDEST PUSH1 0x0 PUSH20 0xFFFFFFFFFFFFFFFFFFFFFFFFFFFFFFFFFFFFFFFF DUP3 AND SWAP1 POP SWAP2 SWAP1 POP JUMP JUMPDEST PUSH1 0x0 PUSH2 0xE02 DUP3 PUSH2 0xDD7 JUMP JUMPDEST SWAP1 POP SWAP2 SWAP1 POP JUMP JUMPDEST PUSH2 0xE12 DUP2 PUSH2 0xDF7 JUMP JUMPDEST DUP2 EQ PUSH2 0xE1D JUMPI PUSH1 0x0 DUP1 REVERT JUMPDEST POP JUMP JUMPDEST PUSH1 0x0 DUP2 CALLDATALOAD SWAP1 POP PUSH2 0xE2F DUP2 PUSH2 0xE09 JUMP JUMPDEST SWAP3 SWAP2 POP POP JUMP JUMPDEST PUSH1 0x0 PUSH1 0x20 DUP3 DUP5 SUB SLT ISZERO PUSH2 0xE4B JUMPI PUSH2 0xE4A PUSH2 0xD45 JUMP JUMPDEST JUMPDEST PUSH1 0x0 PUSH2 0xE59 DUP5 DUP3 DUP6 ADD PUSH2 0xE20 JUMP JUMPDEST SWAP2 POP POP SWAP3 SWAP2 POP POP JUMP JUMPDEST PUSH1 0x0 PUSH2 0xE6D DUP3 PUSH2 0xDD7 JUMP JUMPDEST SWAP1 POP SWAP2 SWAP1 POP JUMP JUMPDEST PUSH2 0xE7D DUP2 PUSH2 0xE62 JUMP JUMPDEST DUP2 EQ PUSH2 0xE88 JUMPI PUSH1 0x0 DUP1 REVERT JUMPDEST POP JUMP JUMPDEST PUSH1 0x0 DUP2 CALLDATALOAD SWAP1 POP PUSH2 0xE9A DUP2 PUSH2 0xE74 JUMP JUMPDEST SWAP3 SWAP2 POP POP JUMP JUMPDEST PUSH1 0x0 DUP1 PUSH1 0x40 DUP4 DUP6 SUB SLT ISZERO PUSH2 0xEB7 JUMPI PUSH2 0xEB6 PUSH2 0xD45 JUMP JUMPDEST JUMPDEST PUSH1 0x0 PUSH2 0xEC5 DUP6 DUP3 DUP7 ADD PUSH2 0xE8B JUMP JUMPDEST SWAP3 POP POP PUSH1 0x20 PUSH2 0xED6 DUP6 DUP3 DUP7 ADD PUSH2 0xD6B JUMP JUMPDEST SWAP2 POP POP SWAP3 POP SWAP3 SWAP1 POP JUMP JUMPDEST PUSH1 0x0 DUP2 ISZERO ISZERO SWAP1 POP SWAP2 SWAP1 POP JUMP JUMPDEST PUSH2 0xEF5 DUP2 PUSH2 0xEE0 JUMP JUMPDEST DUP2 EQ PUSH2 0xF00 JUMPI PUSH1 0x0 DUP1 REVERT JUMPDEST POP JUMP JUMPDEST PUSH1 0x0 DUP2 CALLDATALOAD SWAP1 POP PUSH2 0xF12 DUP2 PUSH2 0xEEC JUMP JUMPDEST SWAP3 SWAP2 POP POP JUMP JUMPDEST PUSH1 0x0 DUP1 PUSH1 0x40 DUP4 DUP6 SUB SLT ISZERO PUSH2 0xF2F JUMPI PUSH2 0xF2E PUSH2 0xD45 JUMP JUMPDEST JUMPDEST PUSH1 0x0 PUSH2 0xF3D DUP6 DUP3 DUP7 ADD PUSH2 0xE20 JUMP JUMPDEST SWAP3 POP POP PUSH1 0x20 PUSH2 0xF4E DUP6 DUP3 DUP7 ADD PUSH2 0xF03 JUMP JUMPDEST SWAP2 POP POP SWAP3 POP SWAP3 SWAP1 POP JUMP JUMPDEST PUSH2 0xF61 DUP2 PUSH2 0xDF7 JUMP JUMPDEST DUP3 MSTORE POP POP JUMP JUMPDEST PUSH1 0x0 PUSH1 0x20 DUP3 ADD SWAP1 POP PUSH2 0xF7C PUSH1 0x0 DUP4 ADD DUP5 PUSH2 0xF58 JUMP JUMPDEST SWAP3 SWAP2 POP POP JUMP JUMPDEST PUSH1 0x0 DUP2 MLOAD SWAP1 POP PUSH2 0xF91 DUP2 PUSH2 0xD54 JUMP JUMPDEST SWAP3 SWAP2 POP POP JUMP JUMPDEST PUSH1 0x0 PUSH1 0x20 DUP3 DUP5 SUB SLT ISZERO PUSH2 0xFAD JUMPI PUSH2 0xFAC PUSH2 0xD45 JUMP JUMPDEST JUMPDEST PUSH1 0x0 PUSH2 0xFBB DUP5 DUP3 DUP6 ADD PUSH2 0xF82 JUMP JUMPDEST SWAP2 POP POP SWAP3 SWAP2 POP POP JUMP JUMPDEST PUSH1 0x0 PUSH1 0x40 DUP3 ADD SWAP1 POP PUSH2 0xFD9 PUSH1 0x0 DUP4 ADD DUP6 PUSH2 0xF58 JUMP JUMPDEST PUSH2 0xFE6 PUSH1 0x20 DUP4 ADD DUP5 PUSH2 0xDAD JUMP JUMPDEST SWAP4 SWAP3 POP POP POP JUMP JUMPDEST PUSH1 0x0 DUP2 MLOAD SWAP1 POP PUSH2 0xFFC DUP2 PUSH2 0xEEC JUMP JUMPDEST SWAP3 SWAP2 POP POP JUMP JUMPDEST PUSH1 0x0 PUSH1 0x20 DUP3 DUP5 SUB SLT ISZERO PUSH2 0x1018 JUMPI PUSH2 0x1017 PUSH2 0xD45 JUMP JUMPDEST JUMPDEST PUSH1 0x0 PUSH2 0x1026 DUP5 DUP3 DUP6 ADD PUSH2 0xFED JUMP JUMPDEST SWAP2 POP POP SWAP3 SWAP2 POP POP JUMP JUMPDEST PUSH1 0x0 DUP2 SWAP1 POP SWAP2 SWAP1 POP JUMP JUMPDEST PUSH1 0x0 PUSH2 0x1054 PUSH2 0x104F PUSH2 0x104A DUP5 PUSH2 0xDD7 JUMP JUMPDEST PUSH2 0x102F JUMP JUMPDEST PUSH2 0xDD7 JUMP JUMPDEST SWAP1 POP SWAP2 SWAP1 POP JUMP JUMPDEST PUSH1 0x0 PUSH2 0x1066 DUP3 PUSH2 0x1039 JUMP JUMPDEST SWAP1 POP SWAP2 SWAP1 POP JUMP JUMPDEST PUSH1 0x0 PUSH2 0x1078 DUP3 PUSH2 0x105B JUMP JUMPDEST SWAP1 POP SWAP2 SWAP1 POP JUMP JUMPDEST PUSH2 0x1088 DUP2 PUSH2 0x106D JUMP JUMPDEST DUP3 MSTORE POP POP JUMP JUMPDEST PUSH1 0x0 PUSH1 0x20 DUP3 ADD SWAP1 POP PUSH2 0x10A3 PUSH1 0x0 DUP4 ADD DUP5 PUSH2 0x107F JUMP JUMPDEST SWAP3 SWAP2 POP POP JUMP JUMPDEST PUSH1 0x0 PUSH1 0x60 DUP3 ADD SWAP1 POP PUSH2 0x10BE PUSH1 0x0 DUP4 ADD DUP7 PUSH2 0x107F JUMP JUMPDEST PUSH2 0x10CB PUSH1 0x20 DUP4 ADD DUP6 PUSH2 0xF58 JUMP JUMPDEST PUSH2 0x10D8 PUSH1 0x40 DUP4 ADD DUP5 PUSH2 0xDAD JUMP JUMPDEST SWAP5 SWAP4 POP POP POP POP JUMP JUMPDEST PUSH1 0x0 DUP3 DUP3 MSTORE PUSH1 0x20 DUP3 ADD SWAP1 POP SWAP3 SWAP2 POP POP JUMP JUMPDEST PUSH32 0x4F776E61626C653A2063616C6C6572206973206E6F7420746865206F776E6572 PUSH1 0x0 DUP3 ADD MSTORE POP JUMP JUMPDEST PUSH1 0x0 PUSH2 0x1127 PUSH1 0x20 DUP4 PUSH2 0x10E0 JUMP JUMPDEST SWAP2 POP PUSH2 0x1132 DUP3 PUSH2 0x10F1 JUMP JUMPDEST PUSH1 0x20 DUP3 ADD SWAP1 POP SWAP2 SWAP1 POP JUMP JUMPDEST PUSH1 0x0 PUSH1 0x20 DUP3 ADD SWAP1 POP DUP2 DUP2 SUB PUSH1 0x0 DUP4 ADD MSTORE PUSH2 0x1156 DUP2 PUSH2 0x111A JUMP JUMPDEST SWAP1 POP SWAP2 SWAP1 POP JUMP JUMPDEST PUSH32 0x4E487B7100000000000000000000000000000000000000000000000000000000 PUSH1 0x0 MSTORE PUSH1 0x11 PUSH1 0x4 MSTORE PUSH1 0x24 PUSH1 0x0 REVERT JUMPDEST PUSH1 0x0 PUSH2 0x1197 DUP3 PUSH2 0xD4A JUMP JUMPDEST SWAP2 POP PUSH2 0x11A2 DUP4 PUSH2 0xD4A JUMP JUMPDEST SWAP3 POP DUP3 DUP3 LT ISZERO PUSH2 0x11B5 JUMPI PUSH2 0x11B4 PUSH2 0x115D JUMP JUMPDEST JUMPDEST DUP3 DUP3 SUB SWAP1 POP SWAP3 SWAP2 POP POP JUMP JUMPDEST PUSH1 0x0 PUSH2 0x11CB DUP3 PUSH2 0xD4A JUMP JUMPDEST SWAP2 POP PUSH2 0x11D6 DUP4 PUSH2 0xD4A JUMP JUMPDEST SWAP3 POP DUP3 PUSH32 0xFFFFFFFFFFFFFFFFFFFFFFFFFFFFFFFFFFFFFFFFFFFFFFFFFFFFFFFFFFFFFFFF SUB DUP3 GT ISZERO PUSH2 0x120B JUMPI PUSH2 0x120A PUSH2 0x115D JUMP JUMPDEST JUMPDEST DUP3 DUP3 ADD SWAP1 POP SWAP3 SWAP2 POP POP JUMP JUMPDEST PUSH32 0x4E487B7100000000000000000000000000000000000000000000000000000000 PUSH1 0x0 MSTORE PUSH1 0x12 PUSH1 0x4 MSTORE PUSH1 0x24 PUSH1 0x0 REVERT JUMPDEST PUSH1 0x0 PUSH2 0x1250 DUP3 PUSH2 0xD4A JUMP JUMPDEST SWAP2 POP PUSH2 0x125B DUP4 PUSH2 0xD4A JUMP JUMPDEST SWAP3 POP DUP3 PUSH2 0x126B JUMPI PUSH2 0x126A PUSH2 0x1216 JUMP JUMPDEST JUMPDEST DUP3 DUP3 DIV SWAP1 POP SWAP3 SWAP2 POP POP JUMP JUMPDEST PUSH1 0x0 PUSH2 0x1281 DUP3 PUSH2 0xD4A JUMP JUMPDEST SWAP2 POP PUSH2 0x128C DUP4 PUSH2 0xD4A JUMP JUMPDEST SWAP3 POP DUP2 PUSH32 0xFFFFFFFFFFFFFFFFFFFFFFFFFFFFFFFFFFFFFFFFFFFFFFFFFFFFFFFFFFFFFFFF DIV DUP4 GT DUP3 ISZERO ISZERO AND ISZERO PUSH2 0x12C5 JUMPI PUSH2 0x12C4 PUSH2 0x115D JUMP JUMPDEST JUMPDEST DUP3 DUP3 MUL SWAP1 POP SWAP3 SWAP2 POP POP JUMP INVALID LOG2 PUSH5 0x6970667358 0x22 SLT KECCAK256 0xB0 SWAP15 EQ 0xDB SLOAD 0xAC PUSH15 0x696AA475DAF4CAE14ABA57F7B37AAA DELEGATECALL SWAP7 GT MOD 0xB2 0xCD DUP2 0xB6 CALLDATACOPY OR PUSH5 0x736F6C6343 STOP ADDMOD 0xE STOP CALLER "
				},
				"gasEstimates": {
					"creation": {
						"codeDepositCost": "974000",
						"executionCost": "infinite",
						"totalCost": "infinite"
					},
					"external": {
						"DCF_ETH(uint256)": "infinite",
						"ETH_DCF(uint256)": "infinite",
						"Warning_protect()": "infinite",
						"admin_fee()": "infinite",
						"market(address,uint256)": "infinite",
						"setRouter(address,bool)": "27183",
						"subscribe(address)": "infinite"
					}
				},
				"methodIdentifiers": {
					"DCF_ETH(uint256)": "3a23bf49",
					"ETH_DCF(uint256)": "97dedb1d",
					"Warning_protect()": "dac3fad4",
					"admin_fee()": "fee3f7f9",
					"market(address,uint256)": "94756aa7",
					"setRouter(address,bool)": "c3c64674",
					"subscribe(address)": "41a7726a"
				}
			},
			"storageLayout": {
				"storage": [
					{
						"astId": 402,
						"contract": "Dcoffer/treasury.sol:treasury",
						"label": "dcoff",
						"offset": 0,
						"slot": "0",
						"type": "t_contract(IERC20)77"
					},
					{
						"astId": 404,
						"contract": "Dcoffer/treasury.sol:treasury",
						"label": "K",
						"offset": 0,
						"slot": "1",
						"type": "t_uint256"
					},
					{
						"astId": 406,
						"contract": "Dcoffer/treasury.sol:treasury",
						"label": "fee",
						"offset": 0,
						"slot": "2",
						"type": "t_uint256"
					},
					{
						"astId": 408,
						"contract": "Dcoffer/treasury.sol:treasury",
						"label": "last_balance",
						"offset": 0,
						"slot": "3",
						"type": "t_uint256"
					},
					{
						"astId": 410,
						"contract": "Dcoffer/treasury.sol:treasury",
						"label": "admin",
						"offset": 0,
						"slot": "4",
						"type": "t_uint256"
					},
					{
						"astId": 416,
						"contract": "Dcoffer/treasury.sol:treasury",
						"label": "info",
						"offset": 0,
						"slot": "5",
						"type": "t_mapping(t_uint256,t_mapping(t_uint256,t_uint256))"
					},
					{
						"astId": 444,
						"contract": "Dcoffer/treasury.sol:treasury",
						"label": "owner",
						"offset": 0,
						"slot": "6",
						"type": "t_address"
					},
					{
						"astId": 448,
						"contract": "Dcoffer/treasury.sol:treasury",
						"label": "RouterAdmin",
						"offset": 0,
						"slot": "7",
						"type": "t_mapping(t_address,t_bool)"
					}
				],
				"types": {
					"t_address": {
						"encoding": "inplace",
						"label": "address",
						"numberOfBytes": "20"
					},
					"t_bool": {
						"encoding": "inplace",
						"label": "bool",
						"numberOfBytes": "1"
					},
					"t_contract(IERC20)77": {
						"encoding": "inplace",
						"label": "contract IERC20",
						"numberOfBytes": "20"
					},
					"t_mapping(t_address,t_bool)": {
						"encoding": "mapping",
						"key": "t_address",
						"label": "mapping(address => bool)",
						"numberOfBytes": "32",
						"value": "t_bool"
					},
					"t_mapping(t_uint256,t_mapping(t_uint256,t_uint256))": {
						"encoding": "mapping",
						"key": "t_uint256",
						"label": "mapping(uint256 => mapping(uint256 => uint256))",
						"numberOfBytes": "32",
						"value": "t_mapping(t_uint256,t_uint256)"
					},
					"t_mapping(t_uint256,t_uint256)": {
						"encoding": "mapping",
						"key": "t_uint256",
						"label": "mapping(uint256 => uint256)",
						"numberOfBytes": "32",
						"value": "t_uint256"
					},
					"t_uint256": {
						"encoding": "inplace",
						"label": "uint256",
						"numberOfBytes": "32"
					}
				}
			},
			"userdoc": {
				"kind": "user",
				"methods": {},
				"version": 1
			}
		}
	}
}