{
	"Dcoffer/treasury.sol": {
		"treasury": {
			"abi": [
				{
					"inputs": [
						{
							"internalType": "uint256",
							"name": "_k",
							"type": "uint256"
						}
					],
					"stateMutability": "payable",
					"type": "constructor"
				},
				{
					"inputs": [
						{
							"internalType": "uint256",
							"name": "dcf_amount",
							"type": "uint256"
						}
					],
					"name": "DCF_ETH",
					"outputs": [
						{
							"internalType": "uint256",
							"name": "",
							"type": "uint256"
						}
					],
					"stateMutability": "view",
					"type": "function"
				},
				{
					"inputs": [
						{
							"internalType": "uint256",
							"name": "eth_amount",
							"type": "uint256"
						}
					],
					"name": "ETH_DCF",
					"outputs": [
						{
							"internalType": "uint256",
							"name": "",
							"type": "uint256"
						}
					],
					"stateMutability": "view",
					"type": "function"
				},
				{
					"inputs": [
						{
							"internalType": "address",
							"name": "subscriber",
							"type": "address"
						}
					],
					"name": "mar",
					"outputs": [],
					"stateMutability": "payable",
					"type": "function"
				},
				{
					"inputs": [
						{
							"internalType": "address",
							"name": "user",
							"type": "address"
						},
						{
							"internalType": "bool",
							"name": "power",
							"type": "bool"
						}
					],
					"name": "setRouter",
					"outputs": [],
					"stateMutability": "nonpayable",
					"type": "function"
				},
				{
					"inputs": [
						{
							"internalType": "address",
							"name": "subscriber",
							"type": "address"
						}
					],
					"name": "subscribe",
					"outputs": [],
					"stateMutability": "payable",
					"type": "function"
				}
			],
			"devdoc": {
				"kind": "dev",
				"methods": {},
				"version": 1
			},
			"evm": {
				"assembly": "    /* \"Dcoffer/treasury.sol\":181:1984  contract treasury  {... */\n  mstore(0x40, 0x80)\n    /* \"Dcoffer/treasury.sol\":260:302  0xd14ff067355Ce838A6e110bDFb672DbEc83cA23C */\n  0xd14ff067355ce838a6e110bdfb672dbec83ca23c\n    /* \"Dcoffer/treasury.sol\":237:303  IERC20 dcoff =  IERC20(0xd14ff067355Ce838A6e110bDFb672DbEc83cA23C) */\n  0x00\n  dup1\n  0x0100\n  exp\n  dup2\n  sload\n  dup2\n  0xffffffffffffffffffffffffffffffffffffffff\n  mul\n  not\n  and\n  swap1\n  dup4\n  0xffffffffffffffffffffffffffffffffffffffff\n  and\n  mul\n  or\n  swap1\n  sstore\n  pop\n    /* \"Dcoffer/treasury.sol\":334:405  constructor(uint _k)payable{... */\n  mload(0x40)\n  sub(codesize, bytecodeSize)\n  dup1\n  bytecodeSize\n  dup4\n  codecopy\n  dup2\n  dup2\n  add\n  0x40\n  mstore\n  dup2\n  add\n  swap1\n  tag_1\n  swap2\n  swap1\n  tag_2\n  jump\t// in\ntag_1:\n    /* \"Dcoffer/treasury.sol\":376:386  msg.sender */\n  caller\n    /* \"Dcoffer/treasury.sol\":368:373  owner */\n  0x02\n  0x00\n    /* \"Dcoffer/treasury.sol\":368:386  owner = msg.sender */\n  0x0100\n  exp\n  dup2\n  sload\n  dup2\n  0xffffffffffffffffffffffffffffffffffffffff\n  mul\n  not\n  and\n  swap1\n  dup4\n  0xffffffffffffffffffffffffffffffffffffffff\n  and\n  mul\n  or\n  swap1\n  sstore\n  pop\n    /* \"Dcoffer/treasury.sol\":397:399  _k */\n  dup1\n    /* \"Dcoffer/treasury.sol\":393:394  K */\n  0x01\n    /* \"Dcoffer/treasury.sol\":393:399  K = _k */\n  dup2\n  swap1\n  sstore\n  pop\n    /* \"Dcoffer/treasury.sol\":334:405  constructor(uint _k)payable{... */\n  pop\n    /* \"Dcoffer/treasury.sol\":181:1984  contract treasury  {... */\n  jump(tag_5)\n    /* \"#utility.yul\":88:205   */\ntag_7:\n    /* \"#utility.yul\":197:198   */\n  0x00\n    /* \"#utility.yul\":194:195   */\n  dup1\n    /* \"#utility.yul\":187:199   */\n  revert\n    /* \"#utility.yul\":334:411   */\ntag_9:\n    /* \"#utility.yul\":371:378   */\n  0x00\n    /* \"#utility.yul\":400:405   */\n  dup2\n    /* \"#utility.yul\":389:405   */\n  swap1\n  pop\n    /* \"#utility.yul\":334:411   */\n  swap2\n  swap1\n  pop\n  jump\t// out\n    /* \"#utility.yul\":417:539   */\ntag_10:\n    /* \"#utility.yul\":490:514   */\n  tag_18\n    /* \"#utility.yul\":508:513   */\n  dup2\n    /* \"#utility.yul\":490:514   */\n  tag_9\n  jump\t// in\ntag_18:\n    /* \"#utility.yul\":483:488   */\n  dup2\n    /* \"#utility.yul\":480:515   */\n  eq\n    /* \"#utility.yul\":470:533   */\n  tag_19\n  jumpi\n    /* \"#utility.yul\":529:530   */\n  0x00\n    /* \"#utility.yul\":526:527   */\n  dup1\n    /* \"#utility.yul\":519:531   */\n  revert\n    /* \"#utility.yul\":470:533   */\ntag_19:\n    /* \"#utility.yul\":417:539   */\n  pop\n  jump\t// out\n    /* \"#utility.yul\":545:688   */\ntag_11:\n    /* \"#utility.yul\":602:607   */\n  0x00\n    /* \"#utility.yul\":633:639   */\n  dup2\n    /* \"#utility.yul\":627:640   */\n  mload\n    /* \"#utility.yul\":618:640   */\n  swap1\n  pop\n    /* \"#utility.yul\":649:682   */\n  tag_21\n    /* \"#utility.yul\":676:681   */\n  dup2\n    /* \"#utility.yul\":649:682   */\n  tag_10\n  jump\t// in\ntag_21:\n    /* \"#utility.yul\":545:688   */\n  swap3\n  swap2\n  pop\n  pop\n  jump\t// out\n    /* \"#utility.yul\":694:1045   */\ntag_2:\n    /* \"#utility.yul\":764:770   */\n  0x00\n    /* \"#utility.yul\":813:815   */\n  0x20\n    /* \"#utility.yul\":801:810   */\n  dup3\n    /* \"#utility.yul\":792:799   */\n  dup5\n    /* \"#utility.yul\":788:811   */\n  sub\n    /* \"#utility.yul\":784:816   */\n  slt\n    /* \"#utility.yul\":781:900   */\n  iszero\n  tag_23\n  jumpi\n    /* \"#utility.yul\":819:898   */\n  tag_24\n  tag_7\n  jump\t// in\ntag_24:\n    /* \"#utility.yul\":781:900   */\ntag_23:\n    /* \"#utility.yul\":939:940   */\n  0x00\n    /* \"#utility.yul\":964:1028   */\n  tag_25\n    /* \"#utility.yul\":1020:1027   */\n  dup5\n    /* \"#utility.yul\":1011:1017   */\n  dup3\n    /* \"#utility.yul\":1000:1009   */\n  dup6\n    /* \"#utility.yul\":996:1018   */\n  add\n    /* \"#utility.yul\":964:1028   */\n  tag_11\n  jump\t// in\ntag_25:\n    /* \"#utility.yul\":954:1028   */\n  swap2\n  pop\n    /* \"#utility.yul\":910:1038   */\n  pop\n    /* \"#utility.yul\":694:1045   */\n  swap3\n  swap2\n  pop\n  pop\n  jump\t// out\n    /* \"Dcoffer/treasury.sol\":181:1984  contract treasury  {... */\ntag_5:\n  dataSize(sub_0)\n  dup1\n  dataOffset(sub_0)\n  0x00\n  codecopy\n  0x00\n  return\nstop\n\nsub_0: assembly {\n        /* \"Dcoffer/treasury.sol\":181:1984  contract treasury  {... */\n      mstore(0x40, 0x80)\n      jumpi(tag_1, lt(calldatasize, 0x04))\n      shr(0xe0, calldataload(0x00))\n      dup1\n      0x3a23bf49\n      eq\n      tag_2\n      jumpi\n      dup1\n      0x41a7726a\n      eq\n      tag_3\n      jumpi\n      dup1\n      0x6f515f3d\n      eq\n      tag_4\n      jumpi\n      dup1\n      0x97dedb1d\n      eq\n      tag_5\n      jumpi\n      dup1\n      0xc3c64674\n      eq\n      tag_6\n      jumpi\n    tag_1:\n      0x00\n      dup1\n      revert\n        /* \"Dcoffer/treasury.sol\":1134:1595  function DCF_ETH(uint256 dcf_amount)public view returns(uint256){... */\n    tag_2:\n      callvalue\n      dup1\n      iszero\n      tag_7\n      jumpi\n      0x00\n      dup1\n      revert\n    tag_7:\n      pop\n      tag_8\n      0x04\n      dup1\n      calldatasize\n      sub\n      dup2\n      add\n      swap1\n      tag_9\n      swap2\n      swap1\n      tag_10\n      jump\t// in\n    tag_9:\n      tag_11\n      jump\t// in\n    tag_8:\n      mload(0x40)\n      tag_12\n      swap2\n      swap1\n      tag_13\n      jump\t// in\n    tag_12:\n      mload(0x40)\n      dup1\n      swap2\n      sub\n      swap1\n      return\n        /* \"Dcoffer/treasury.sol\":713:918  function subscribe(address subscriber)external payable{... */\n    tag_3:\n      tag_14\n      0x04\n      dup1\n      calldatasize\n      sub\n      dup2\n      add\n      swap1\n      tag_15\n      swap2\n      swap1\n      tag_16\n      jump\t// in\n    tag_15:\n      tag_17\n      jump\t// in\n    tag_14:\n      stop\n        /* \"Dcoffer/treasury.sol\":927:1126  function mar(address subscriber)external payable{... */\n    tag_4:\n      tag_18\n      0x04\n      dup1\n      calldatasize\n      sub\n      dup2\n      add\n      swap1\n      tag_19\n      swap2\n      swap1\n      tag_16\n      jump\t// in\n    tag_19:\n      tag_20\n      jump\t// in\n    tag_18:\n      stop\n        /* \"Dcoffer/treasury.sol\":1603:1961  function ETH_DCF(uint256 eth_amount)public view returns(uint256){... */\n    tag_5:\n      callvalue\n      dup1\n      iszero\n      tag_21\n      jumpi\n      0x00\n      dup1\n      revert\n    tag_21:\n      pop\n      tag_22\n      0x04\n      dup1\n      calldatasize\n      sub\n      dup2\n      add\n      swap1\n      tag_23\n      swap2\n      swap1\n      tag_10\n      jump\t// in\n    tag_23:\n      tag_24\n      jump\t// in\n    tag_22:\n      mload(0x40)\n      tag_25\n      swap2\n      swap1\n      tag_13\n      jump\t// in\n    tag_25:\n      mload(0x40)\n      dup1\n      swap2\n      sub\n      swap1\n      return\n        /* \"Dcoffer/treasury.sol\":605:705  function setRouter(address user, bool power)external onlyOwner{... */\n    tag_6:\n      callvalue\n      dup1\n      iszero\n      tag_26\n      jumpi\n      0x00\n      dup1\n      revert\n    tag_26:\n      pop\n      tag_27\n      0x04\n      dup1\n      calldatasize\n      sub\n      dup2\n      add\n      swap1\n      tag_28\n      swap2\n      swap1\n      tag_29\n      jump\t// in\n    tag_28:\n      tag_30\n      jump\t// in\n    tag_27:\n      stop\n        /* \"Dcoffer/treasury.sol\":1134:1595  function DCF_ETH(uint256 dcf_amount)public view returns(uint256){... */\n    tag_11:\n        /* \"Dcoffer/treasury.sol\":1190:1197  uint256 */\n      0x00\n        /* \"Dcoffer/treasury.sol\":1205:1224  uint256 _eth_amount */\n      dup1\n        /* \"Dcoffer/treasury.sol\":1227:1248  address(this).balance */\n      selfbalance\n        /* \"Dcoffer/treasury.sol\":1205:1248  uint256 _eth_amount = address(this).balance */\n      swap1\n      pop\n        /* \"Dcoffer/treasury.sol\":1255:1274  uint256 _dcf_amount */\n      0x00\n        /* \"Dcoffer/treasury.sol\":1277:1282  dcoff */\n      dup1\n      0x00\n      swap1\n      sload\n      swap1\n      0x0100\n      exp\n      swap1\n      div\n      0xffffffffffffffffffffffffffffffffffffffff\n      and\n        /* \"Dcoffer/treasury.sol\":1277:1292  dcoff.balanceOf */\n      0xffffffffffffffffffffffffffffffffffffffff\n      and\n      0x70a08231\n        /* \"Dcoffer/treasury.sol\":1301:1305  this */\n      address\n        /* \"Dcoffer/treasury.sol\":1277:1307  dcoff.balanceOf(address(this)) */\n      mload(0x40)\n      dup3\n      0xffffffff\n      and\n      0xe0\n      shl\n      dup2\n      mstore\n      0x04\n      add\n      tag_32\n      swap2\n      swap1\n      tag_33\n      jump\t// in\n    tag_32:\n      0x20\n      mload(0x40)\n      dup1\n      dup4\n      sub\n      dup2\n      dup7\n      gas\n      staticcall\n      iszero\n      dup1\n      iszero\n      tag_35\n      jumpi\n      returndatasize\n      0x00\n      dup1\n      returndatacopy\n      revert(0x00, returndatasize)\n    tag_35:\n      pop\n      pop\n      pop\n      pop\n      mload(0x40)\n      returndatasize\n      not(0x1f)\n      0x1f\n      dup3\n      add\n      and\n      dup3\n      add\n      dup1\n      0x40\n      mstore\n      pop\n      dup2\n      add\n      swap1\n      tag_36\n      swap2\n      swap1\n      tag_37\n      jump\t// in\n    tag_36:\n        /* \"Dcoffer/treasury.sol\":1255:1307  uint256 _dcf_amount = dcoff.balanceOf(address(this)) */\n      swap1\n      pop\n        /* \"Dcoffer/treasury.sol\":1318:1338  uint256 Variable_dcf */\n      0x00\n        /* \"Dcoffer/treasury.sol\":1341:1368  _dcf_amount.add(dcf_amount) */\n      tag_38\n        /* \"Dcoffer/treasury.sol\":1357:1367  dcf_amount */\n      dup6\n        /* \"Dcoffer/treasury.sol\":1341:1352  _dcf_amount */\n      dup4\n        /* \"Dcoffer/treasury.sol\":1341:1356  _dcf_amount.add */\n      tag_39\n      swap1\n        /* \"Dcoffer/treasury.sol\":1341:1368  _dcf_amount.add(dcf_amount) */\n      swap2\n      swap1\n      0xffffffff\n      and\n      jump\t// in\n    tag_38:\n        /* \"Dcoffer/treasury.sol\":1318:1368  uint256 Variable_dcf = _dcf_amount.add(dcf_amount) */\n      swap1\n      pop\n        /* \"Dcoffer/treasury.sol\":1395:1400  dcoff */\n      0x00\n      dup1\n      sload\n      swap1\n      0x0100\n      exp\n      swap1\n      div\n      0xffffffffffffffffffffffffffffffffffffffff\n      and\n        /* \"Dcoffer/treasury.sol\":1395:1412  dcoff.totalSupply */\n      0xffffffffffffffffffffffffffffffffffffffff\n      and\n      0x18160ddd\n        /* \"Dcoffer/treasury.sol\":1395:1414  dcoff.totalSupply() */\n      mload(0x40)\n      dup2\n      0xffffffff\n      and\n      0xe0\n      shl\n      dup2\n      mstore\n      0x04\n      add\n      0x20\n      mload(0x40)\n      dup1\n      dup4\n      sub\n      dup2\n      dup7\n      gas\n      staticcall\n      iszero\n      dup1\n      iszero\n      tag_41\n      jumpi\n      returndatasize\n      0x00\n      dup1\n      returndatacopy\n      revert(0x00, returndatasize)\n    tag_41:\n      pop\n      pop\n      pop\n      pop\n      mload(0x40)\n      returndatasize\n      not(0x1f)\n      0x1f\n      dup3\n      add\n      and\n      dup3\n      add\n      dup1\n      0x40\n      mstore\n      pop\n      dup2\n      add\n      swap1\n      tag_42\n      swap2\n      swap1\n      tag_37\n      jump\t// in\n    tag_42:\n        /* \"Dcoffer/treasury.sol\":1380:1392  Variable_dcf */\n      dup2\n        /* \"Dcoffer/treasury.sol\":1380:1414  Variable_dcf > dcoff.totalSupply() */\n      gt\n        /* \"Dcoffer/treasury.sol\":1377:1466  if(Variable_dcf > dcoff.totalSupply()){... */\n      iszero\n      tag_43\n      jumpi\n        /* \"Dcoffer/treasury.sol\":1439:1444  dcoff */\n      0x00\n      dup1\n      sload\n      swap1\n      0x0100\n      exp\n      swap1\n      div\n      0xffffffffffffffffffffffffffffffffffffffff\n      and\n        /* \"Dcoffer/treasury.sol\":1439:1456  dcoff.totalSupply */\n      0xffffffffffffffffffffffffffffffffffffffff\n      and\n      0x18160ddd\n        /* \"Dcoffer/treasury.sol\":1439:1458  dcoff.totalSupply() */\n      mload(0x40)\n      dup2\n      0xffffffff\n      and\n      0xe0\n      shl\n      dup2\n      mstore\n      0x04\n      add\n      0x20\n      mload(0x40)\n      dup1\n      dup4\n      sub\n      dup2\n      dup7\n      gas\n      staticcall\n      iszero\n      dup1\n      iszero\n      tag_45\n      jumpi\n      returndatasize\n      0x00\n      dup1\n      returndatacopy\n      revert(0x00, returndatasize)\n    tag_45:\n      pop\n      pop\n      pop\n      pop\n      mload(0x40)\n      returndatasize\n      not(0x1f)\n      0x1f\n      dup3\n      add\n      and\n      dup3\n      add\n      dup1\n      0x40\n      mstore\n      pop\n      dup2\n      add\n      swap1\n      tag_46\n      swap2\n      swap1\n      tag_37\n      jump\t// in\n    tag_46:\n        /* \"Dcoffer/treasury.sol\":1424:1458  Variable_dcf = dcoff.totalSupply() */\n      swap1\n      pop\n        /* \"Dcoffer/treasury.sol\":1377:1466  if(Variable_dcf > dcoff.totalSupply()){... */\n    tag_43:\n        /* \"Dcoffer/treasury.sol\":1474:1494  uint256 Variable_eth */\n      0x00\n        /* \"Dcoffer/treasury.sol\":1497:1516  K.div(Variable_dcf) */\n      tag_47\n        /* \"Dcoffer/treasury.sol\":1503:1515  Variable_dcf */\n      dup3\n        /* \"Dcoffer/treasury.sol\":1497:1498  K */\n      sload(0x01)\n        /* \"Dcoffer/treasury.sol\":1497:1502  K.div */\n      tag_48\n      swap1\n        /* \"Dcoffer/treasury.sol\":1497:1516  K.div(Variable_dcf) */\n      swap2\n      swap1\n      0xffffffff\n      and\n      jump\t// in\n    tag_47:\n        /* \"Dcoffer/treasury.sol\":1474:1516  uint256 Variable_eth = K.div(Variable_dcf) */\n      swap1\n      pop\n        /* \"Dcoffer/treasury.sol\":1523:1537  uint256 _price */\n      0x00\n        /* \"Dcoffer/treasury.sol\":1540:1569  _eth_amount.sub(Variable_eth) */\n      tag_49\n        /* \"Dcoffer/treasury.sol\":1556:1568  Variable_eth */\n      dup3\n        /* \"Dcoffer/treasury.sol\":1540:1551  _eth_amount */\n      dup7\n        /* \"Dcoffer/treasury.sol\":1540:1555  _eth_amount.sub */\n      tag_50\n      swap1\n        /* \"Dcoffer/treasury.sol\":1540:1569  _eth_amount.sub(Variable_eth) */\n      swap2\n      swap1\n      0xffffffff\n      and\n      jump\t// in\n    tag_49:\n        /* \"Dcoffer/treasury.sol\":1523:1569  uint256 _price = _eth_amount.sub(Variable_eth) */\n      swap1\n      pop\n        /* \"Dcoffer/treasury.sol\":1583:1589  _price */\n      dup1\n        /* \"Dcoffer/treasury.sol\":1576:1589  return _price */\n      swap6\n      pop\n      pop\n      pop\n      pop\n      pop\n      pop\n        /* \"Dcoffer/treasury.sol\":1134:1595  function DCF_ETH(uint256 dcf_amount)public view returns(uint256){... */\n      swap2\n      swap1\n      pop\n      jump\t// out\n        /* \"Dcoffer/treasury.sol\":713:918  function subscribe(address subscriber)external payable{... */\n    tag_17:\n        /* \"Dcoffer/treasury.sol\":811:815  true */\n      0x01\n        /* \"Dcoffer/treasury.sol\":784:815  RouterAdmin[msg.sender] == true */\n      iszero\n      iszero\n        /* \"Dcoffer/treasury.sol\":784:795  RouterAdmin */\n      0x03\n        /* \"Dcoffer/treasury.sol\":784:807  RouterAdmin[msg.sender] */\n      0x00\n        /* \"Dcoffer/treasury.sol\":796:806  msg.sender */\n      caller\n        /* \"Dcoffer/treasury.sol\":784:807  RouterAdmin[msg.sender] */\n      0xffffffffffffffffffffffffffffffffffffffff\n      and\n      0xffffffffffffffffffffffffffffffffffffffff\n      and\n      dup2\n      mstore\n      0x20\n      add\n      swap1\n      dup2\n      mstore\n      0x20\n      add\n      0x00\n      keccak256\n      0x00\n      swap1\n      sload\n      swap1\n      0x0100\n      exp\n      swap1\n      div\n      0xff\n      and\n        /* \"Dcoffer/treasury.sol\":784:815  RouterAdmin[msg.sender] == true */\n      iszero\n      iszero\n      eq\n        /* \"Dcoffer/treasury.sol\":776:816  require(RouterAdmin[msg.sender] == true) */\n      tag_52\n      jumpi\n      0x00\n      dup1\n      revert\n    tag_52:\n        /* \"Dcoffer/treasury.sol\":825:843  uint256 dcf_amount */\n      0x00\n        /* \"Dcoffer/treasury.sol\":846:864  ETH_DCF(msg.value) */\n      tag_53\n        /* \"Dcoffer/treasury.sol\":854:863  msg.value */\n      callvalue\n        /* \"Dcoffer/treasury.sol\":846:853  ETH_DCF */\n      tag_24\n        /* \"Dcoffer/treasury.sol\":846:864  ETH_DCF(msg.value) */\n      jump\t// in\n    tag_53:\n        /* \"Dcoffer/treasury.sol\":825:864  uint256 dcf_amount = ETH_DCF(msg.value) */\n      swap1\n      pop\n        /* \"Dcoffer/treasury.sol\":873:878  dcoff */\n      0x00\n      dup1\n      sload\n      swap1\n      0x0100\n      exp\n      swap1\n      div\n      0xffffffffffffffffffffffffffffffffffffffff\n      and\n        /* \"Dcoffer/treasury.sol\":873:887  dcoff.transfer */\n      0xffffffffffffffffffffffffffffffffffffffff\n      and\n      0xa9059cbb\n        /* \"Dcoffer/treasury.sol\":888:898  subscriber */\n      dup4\n        /* \"Dcoffer/treasury.sol\":899:909  dcf_amount */\n      dup4\n        /* \"Dcoffer/treasury.sol\":873:910  dcoff.transfer(subscriber,dcf_amount) */\n      mload(0x40)\n      dup4\n      0xffffffff\n      and\n      0xe0\n      shl\n      dup2\n      mstore\n      0x04\n      add\n      tag_54\n      swap3\n      swap2\n      swap1\n      tag_55\n      jump\t// in\n    tag_54:\n      0x20\n      mload(0x40)\n      dup1\n      dup4\n      sub\n      dup2\n      0x00\n      dup8\n      gas\n      call\n      iszero\n      dup1\n      iszero\n      tag_57\n      jumpi\n      returndatasize\n      0x00\n      dup1\n      returndatacopy\n      revert(0x00, returndatasize)\n    tag_57:\n      pop\n      pop\n      pop\n      pop\n      mload(0x40)\n      returndatasize\n      not(0x1f)\n      0x1f\n      dup3\n      add\n      and\n      dup3\n      add\n      dup1\n      0x40\n      mstore\n      pop\n      dup2\n      add\n      swap1\n      tag_58\n      swap2\n      swap1\n      tag_59\n      jump\t// in\n    tag_58:\n      pop\n        /* \"Dcoffer/treasury.sol\":767:918  {... */\n      pop\n        /* \"Dcoffer/treasury.sol\":713:918  function subscribe(address subscriber)external payable{... */\n      pop\n      jump\t// out\n        /* \"Dcoffer/treasury.sol\":927:1126  function mar(address subscriber)external payable{... */\n    tag_20:\n        /* \"Dcoffer/treasury.sol\":1019:1023  true */\n      0x01\n        /* \"Dcoffer/treasury.sol\":992:1023  RouterAdmin[msg.sender] == true */\n      iszero\n      iszero\n        /* \"Dcoffer/treasury.sol\":992:1003  RouterAdmin */\n      0x03\n        /* \"Dcoffer/treasury.sol\":992:1015  RouterAdmin[msg.sender] */\n      0x00\n        /* \"Dcoffer/treasury.sol\":1004:1014  msg.sender */\n      caller\n        /* \"Dcoffer/treasury.sol\":992:1015  RouterAdmin[msg.sender] */\n      0xffffffffffffffffffffffffffffffffffffffff\n      and\n      0xffffffffffffffffffffffffffffffffffffffff\n      and\n      dup2\n      mstore\n      0x20\n      add\n      swap1\n      dup2\n      mstore\n      0x20\n      add\n      0x00\n      keccak256\n      0x00\n      swap1\n      sload\n      swap1\n      0x0100\n      exp\n      swap1\n      div\n      0xff\n      and\n        /* \"Dcoffer/treasury.sol\":992:1023  RouterAdmin[msg.sender] == true */\n      iszero\n      iszero\n      eq\n        /* \"Dcoffer/treasury.sol\":984:1024  require(RouterAdmin[msg.sender] == true) */\n      tag_61\n      jumpi\n      0x00\n      dup1\n      revert\n    tag_61:\n        /* \"Dcoffer/treasury.sol\":1033:1051  uint256 dcf_amount */\n      0x00\n        /* \"Dcoffer/treasury.sol\":1054:1072  ETH_DCF(msg.value) */\n      tag_62\n        /* \"Dcoffer/treasury.sol\":1062:1071  msg.value */\n      callvalue\n        /* \"Dcoffer/treasury.sol\":1054:1061  ETH_DCF */\n      tag_24\n        /* \"Dcoffer/treasury.sol\":1054:1072  ETH_DCF(msg.value) */\n      jump\t// in\n    tag_62:\n        /* \"Dcoffer/treasury.sol\":1033:1072  uint256 dcf_amount = ETH_DCF(msg.value) */\n      swap1\n      pop\n        /* \"Dcoffer/treasury.sol\":1081:1086  dcoff */\n      0x00\n      dup1\n      sload\n      swap1\n      0x0100\n      exp\n      swap1\n      div\n      0xffffffffffffffffffffffffffffffffffffffff\n      and\n        /* \"Dcoffer/treasury.sol\":1081:1095  dcoff.transfer */\n      0xffffffffffffffffffffffffffffffffffffffff\n      and\n      0xa9059cbb\n        /* \"Dcoffer/treasury.sol\":1096:1106  subscriber */\n      dup4\n        /* \"Dcoffer/treasury.sol\":1107:1117  dcf_amount */\n      dup4\n        /* \"Dcoffer/treasury.sol\":1081:1118  dcoff.transfer(subscriber,dcf_amount) */\n      mload(0x40)\n      dup4\n      0xffffffff\n      and\n      0xe0\n      shl\n      dup2\n      mstore\n      0x04\n      add\n      tag_63\n      swap3\n      swap2\n      swap1\n      tag_55\n      jump\t// in\n    tag_63:\n      0x20\n      mload(0x40)\n      dup1\n      dup4\n      sub\n      dup2\n      0x00\n      dup8\n      gas\n      call\n      iszero\n      dup1\n      iszero\n      tag_65\n      jumpi\n      returndatasize\n      0x00\n      dup1\n      returndatacopy\n      revert(0x00, returndatasize)\n    tag_65:\n      pop\n      pop\n      pop\n      pop\n      mload(0x40)\n      returndatasize\n      not(0x1f)\n      0x1f\n      dup3\n      add\n      and\n      dup3\n      add\n      dup1\n      0x40\n      mstore\n      pop\n      dup2\n      add\n      swap1\n      tag_66\n      swap2\n      swap1\n      tag_59\n      jump\t// in\n    tag_66:\n      pop\n        /* \"Dcoffer/treasury.sol\":975:1126  {... */\n      pop\n        /* \"Dcoffer/treasury.sol\":927:1126  function mar(address subscriber)external payable{... */\n      pop\n      jump\t// out\n        /* \"Dcoffer/treasury.sol\":1603:1961  function ETH_DCF(uint256 eth_amount)public view returns(uint256){... */\n    tag_24:\n        /* \"Dcoffer/treasury.sol\":1659:1666  uint256 */\n      0x00\n        /* \"Dcoffer/treasury.sol\":1674:1693  uint256 _eth_amount */\n      dup1\n        /* \"Dcoffer/treasury.sol\":1696:1717  address(this).balance */\n      selfbalance\n        /* \"Dcoffer/treasury.sol\":1674:1717  uint256 _eth_amount = address(this).balance */\n      swap1\n      pop\n        /* \"Dcoffer/treasury.sol\":1724:1743  uint256 _dcf_amount */\n      0x00\n        /* \"Dcoffer/treasury.sol\":1746:1751  dcoff */\n      dup1\n      0x00\n      swap1\n      sload\n      swap1\n      0x0100\n      exp\n      swap1\n      div\n      0xffffffffffffffffffffffffffffffffffffffff\n      and\n        /* \"Dcoffer/treasury.sol\":1746:1761  dcoff.balanceOf */\n      0xffffffffffffffffffffffffffffffffffffffff\n      and\n      0x70a08231\n        /* \"Dcoffer/treasury.sol\":1770:1774  this */\n      address\n        /* \"Dcoffer/treasury.sol\":1746:1776  dcoff.balanceOf(address(this)) */\n      mload(0x40)\n      dup3\n      0xffffffff\n      and\n      0xe0\n      shl\n      dup2\n      mstore\n      0x04\n      add\n      tag_68\n      swap2\n      swap1\n      tag_33\n      jump\t// in\n    tag_68:\n      0x20\n      mload(0x40)\n      dup1\n      dup4\n      sub\n      dup2\n      dup7\n      gas\n      staticcall\n      iszero\n      dup1\n      iszero\n      tag_70\n      jumpi\n      returndatasize\n      0x00\n      dup1\n      returndatacopy\n      revert(0x00, returndatasize)\n    tag_70:\n      pop\n      pop\n      pop\n      pop\n      mload(0x40)\n      returndatasize\n      not(0x1f)\n      0x1f\n      dup3\n      add\n      and\n      dup3\n      add\n      dup1\n      0x40\n      mstore\n      pop\n      dup2\n      add\n      swap1\n      tag_71\n      swap2\n      swap1\n      tag_37\n      jump\t// in\n    tag_71:\n        /* \"Dcoffer/treasury.sol\":1724:1776  uint256 _dcf_amount = dcoff.balanceOf(address(this)) */\n      swap1\n      pop\n        /* \"Dcoffer/treasury.sol\":1783:1803  uint256 Variable_eth */\n      0x00\n        /* \"Dcoffer/treasury.sol\":1806:1833  _eth_amount.add(eth_amount) */\n      tag_72\n        /* \"Dcoffer/treasury.sol\":1822:1832  eth_amount */\n      dup6\n        /* \"Dcoffer/treasury.sol\":1806:1817  _eth_amount */\n      dup5\n        /* \"Dcoffer/treasury.sol\":1806:1821  _eth_amount.add */\n      tag_39\n      swap1\n        /* \"Dcoffer/treasury.sol\":1806:1833  _eth_amount.add(eth_amount) */\n      swap2\n      swap1\n      0xffffffff\n      and\n      jump\t// in\n    tag_72:\n        /* \"Dcoffer/treasury.sol\":1783:1833  uint256 Variable_eth = _eth_amount.add(eth_amount) */\n      swap1\n      pop\n        /* \"Dcoffer/treasury.sol\":1840:1860  uint256 Variable_dcf */\n      0x00\n        /* \"Dcoffer/treasury.sol\":1863:1882  K.div(Variable_eth) */\n      tag_73\n        /* \"Dcoffer/treasury.sol\":1869:1881  Variable_eth */\n      dup3\n        /* \"Dcoffer/treasury.sol\":1863:1864  K */\n      sload(0x01)\n        /* \"Dcoffer/treasury.sol\":1863:1868  K.div */\n      tag_48\n      swap1\n        /* \"Dcoffer/treasury.sol\":1863:1882  K.div(Variable_eth) */\n      swap2\n      swap1\n      0xffffffff\n      and\n      jump\t// in\n    tag_73:\n        /* \"Dcoffer/treasury.sol\":1840:1882  uint256 Variable_dcf = K.div(Variable_eth) */\n      swap1\n      pop\n        /* \"Dcoffer/treasury.sol\":1889:1903  uint256 _price */\n      0x00\n        /* \"Dcoffer/treasury.sol\":1906:1935  _dcf_amount.sub(Variable_dcf) */\n      tag_74\n        /* \"Dcoffer/treasury.sol\":1922:1934  Variable_dcf */\n      dup3\n        /* \"Dcoffer/treasury.sol\":1906:1917  _dcf_amount */\n      dup6\n        /* \"Dcoffer/treasury.sol\":1906:1921  _dcf_amount.sub */\n      tag_50\n      swap1\n        /* \"Dcoffer/treasury.sol\":1906:1935  _dcf_amount.sub(Variable_dcf) */\n      swap2\n      swap1\n      0xffffffff\n      and\n      jump\t// in\n    tag_74:\n        /* \"Dcoffer/treasury.sol\":1889:1935  uint256 _price = _dcf_amount.sub(Variable_dcf) */\n      swap1\n      pop\n        /* \"Dcoffer/treasury.sol\":1949:1955  _price */\n      dup1\n        /* \"Dcoffer/treasury.sol\":1942:1955  return _price */\n      swap6\n      pop\n      pop\n      pop\n      pop\n      pop\n      pop\n        /* \"Dcoffer/treasury.sol\":1603:1961  function ETH_DCF(uint256 eth_amount)public view returns(uint256){... */\n      swap2\n      swap1\n      pop\n      jump\t// out\n        /* \"Dcoffer/treasury.sol\":605:705  function setRouter(address user, bool power)external onlyOwner{... */\n    tag_30:\n        /* \"Dcoffer/treasury.sol\":528:538  msg.sender */\n      caller\n        /* \"Dcoffer/treasury.sol\":519:538  owner == msg.sender */\n      0xffffffffffffffffffffffffffffffffffffffff\n      and\n        /* \"Dcoffer/treasury.sol\":519:524  owner */\n      0x02\n      0x00\n      swap1\n      sload\n      swap1\n      0x0100\n      exp\n      swap1\n      div\n      0xffffffffffffffffffffffffffffffffffffffff\n      and\n        /* \"Dcoffer/treasury.sol\":519:538  owner == msg.sender */\n      0xffffffffffffffffffffffffffffffffffffffff\n      and\n      eq\n        /* \"Dcoffer/treasury.sol\":511:575  require(owner == msg.sender, \"Ownable: caller is not the owner\") */\n      tag_76\n      jumpi\n      mload(0x40)\n      0x08c379a000000000000000000000000000000000000000000000000000000000\n      dup2\n      mstore\n      0x04\n      add\n      tag_77\n      swap1\n      tag_78\n      jump\t// in\n    tag_77:\n      mload(0x40)\n      dup1\n      swap2\n      sub\n      swap1\n      revert\n    tag_76:\n        /* \"Dcoffer/treasury.sol\":694:699  power */\n      dup1\n        /* \"Dcoffer/treasury.sol\":674:685  RouterAdmin */\n      0x03\n        /* \"Dcoffer/treasury.sol\":674:691  RouterAdmin[user] */\n      0x00\n        /* \"Dcoffer/treasury.sol\":686:690  user */\n      dup5\n        /* \"Dcoffer/treasury.sol\":674:691  RouterAdmin[user] */\n      0xffffffffffffffffffffffffffffffffffffffff\n      and\n      0xffffffffffffffffffffffffffffffffffffffff\n      and\n      dup2\n      mstore\n      0x20\n      add\n      swap1\n      dup2\n      mstore\n      0x20\n      add\n      0x00\n      keccak256\n      0x00\n        /* \"Dcoffer/treasury.sol\":674:699  RouterAdmin[user] = power */\n      0x0100\n      exp\n      dup2\n      sload\n      dup2\n      0xff\n      mul\n      not\n      and\n      swap1\n      dup4\n      iszero\n      iszero\n      mul\n      or\n      swap1\n      sstore\n      pop\n        /* \"Dcoffer/treasury.sol\":605:705  function setRouter(address user, bool power)external onlyOwner{... */\n      pop\n      pop\n      jump\t// out\n        /* \"@openzeppelin/contracts/utils/math/SafeMath.sol\":2755:2851  function add(uint256 a, uint256 b) internal pure returns (uint256) {... */\n    tag_39:\n        /* \"@openzeppelin/contracts/utils/math/SafeMath.sol\":2813:2820  uint256 */\n      0x00\n        /* \"@openzeppelin/contracts/utils/math/SafeMath.sol\":2843:2844  b */\n      dup2\n        /* \"@openzeppelin/contracts/utils/math/SafeMath.sol\":2839:2840  a */\n      dup4\n        /* \"@openzeppelin/contracts/utils/math/SafeMath.sol\":2839:2844  a + b */\n      tag_81\n      swap2\n      swap1\n      tag_82\n      jump\t// in\n    tag_81:\n        /* \"@openzeppelin/contracts/utils/math/SafeMath.sol\":2832:2844  return a + b */\n      swap1\n      pop\n        /* \"@openzeppelin/contracts/utils/math/SafeMath.sol\":2755:2851  function add(uint256 a, uint256 b) internal pure returns (uint256) {... */\n      swap3\n      swap2\n      pop\n      pop\n      jump\t// out\n        /* \"@openzeppelin/contracts/utils/math/SafeMath.sol\":3850:3946  function div(uint256 a, uint256 b) internal pure returns (uint256) {... */\n    tag_48:\n        /* \"@openzeppelin/contracts/utils/math/SafeMath.sol\":3908:3915  uint256 */\n      0x00\n        /* \"@openzeppelin/contracts/utils/math/SafeMath.sol\":3938:3939  b */\n      dup2\n        /* \"@openzeppelin/contracts/utils/math/SafeMath.sol\":3934:3935  a */\n      dup4\n        /* \"@openzeppelin/contracts/utils/math/SafeMath.sol\":3934:3939  a / b */\n      tag_84\n      swap2\n      swap1\n      tag_85\n      jump\t// in\n    tag_84:\n        /* \"@openzeppelin/contracts/utils/math/SafeMath.sol\":3927:3939  return a / b */\n      swap1\n      pop\n        /* \"@openzeppelin/contracts/utils/math/SafeMath.sol\":3850:3946  function div(uint256 a, uint256 b) internal pure returns (uint256) {... */\n      swap3\n      swap2\n      pop\n      pop\n      jump\t// out\n        /* \"@openzeppelin/contracts/utils/math/SafeMath.sol\":3122:3218  function sub(uint256 a, uint256 b) internal pure returns (uint256) {... */\n    tag_50:\n        /* \"@openzeppelin/contracts/utils/math/SafeMath.sol\":3180:3187  uint256 */\n      0x00\n        /* \"@openzeppelin/contracts/utils/math/SafeMath.sol\":3210:3211  b */\n      dup2\n        /* \"@openzeppelin/contracts/utils/math/SafeMath.sol\":3206:3207  a */\n      dup4\n        /* \"@openzeppelin/contracts/utils/math/SafeMath.sol\":3206:3211  a - b */\n      tag_87\n      swap2\n      swap1\n      tag_88\n      jump\t// in\n    tag_87:\n        /* \"@openzeppelin/contracts/utils/math/SafeMath.sol\":3199:3211  return a - b */\n      swap1\n      pop\n        /* \"@openzeppelin/contracts/utils/math/SafeMath.sol\":3122:3218  function sub(uint256 a, uint256 b) internal pure returns (uint256) {... */\n      swap3\n      swap2\n      pop\n      pop\n      jump\t// out\n        /* \"#utility.yul\":88:205   */\n    tag_90:\n        /* \"#utility.yul\":197:198   */\n      0x00\n        /* \"#utility.yul\":194:195   */\n      dup1\n        /* \"#utility.yul\":187:199   */\n      revert\n        /* \"#utility.yul\":334:411   */\n    tag_92:\n        /* \"#utility.yul\":371:378   */\n      0x00\n        /* \"#utility.yul\":400:405   */\n      dup2\n        /* \"#utility.yul\":389:405   */\n      swap1\n      pop\n        /* \"#utility.yul\":334:411   */\n      swap2\n      swap1\n      pop\n      jump\t// out\n        /* \"#utility.yul\":417:539   */\n    tag_93:\n        /* \"#utility.yul\":490:514   */\n      tag_117\n        /* \"#utility.yul\":508:513   */\n      dup2\n        /* \"#utility.yul\":490:514   */\n      tag_92\n      jump\t// in\n    tag_117:\n        /* \"#utility.yul\":483:488   */\n      dup2\n        /* \"#utility.yul\":480:515   */\n      eq\n        /* \"#utility.yul\":470:533   */\n      tag_118\n      jumpi\n        /* \"#utility.yul\":529:530   */\n      0x00\n        /* \"#utility.yul\":526:527   */\n      dup1\n        /* \"#utility.yul\":519:531   */\n      revert\n        /* \"#utility.yul\":470:533   */\n    tag_118:\n        /* \"#utility.yul\":417:539   */\n      pop\n      jump\t// out\n        /* \"#utility.yul\":545:684   */\n    tag_94:\n        /* \"#utility.yul\":591:596   */\n      0x00\n        /* \"#utility.yul\":629:635   */\n      dup2\n        /* \"#utility.yul\":616:636   */\n      calldataload\n        /* \"#utility.yul\":607:636   */\n      swap1\n      pop\n        /* \"#utility.yul\":645:678   */\n      tag_120\n        /* \"#utility.yul\":672:677   */\n      dup2\n        /* \"#utility.yul\":645:678   */\n      tag_93\n      jump\t// in\n    tag_120:\n        /* \"#utility.yul\":545:684   */\n      swap3\n      swap2\n      pop\n      pop\n      jump\t// out\n        /* \"#utility.yul\":690:1019   */\n    tag_10:\n        /* \"#utility.yul\":749:755   */\n      0x00\n        /* \"#utility.yul\":798:800   */\n      0x20\n        /* \"#utility.yul\":786:795   */\n      dup3\n        /* \"#utility.yul\":777:784   */\n      dup5\n        /* \"#utility.yul\":773:796   */\n      sub\n        /* \"#utility.yul\":769:801   */\n      slt\n        /* \"#utility.yul\":766:885   */\n      iszero\n      tag_122\n      jumpi\n        /* \"#utility.yul\":804:883   */\n      tag_123\n      tag_90\n      jump\t// in\n    tag_123:\n        /* \"#utility.yul\":766:885   */\n    tag_122:\n        /* \"#utility.yul\":924:925   */\n      0x00\n        /* \"#utility.yul\":949:1002   */\n      tag_124\n        /* \"#utility.yul\":994:1001   */\n      dup5\n        /* \"#utility.yul\":985:991   */\n      dup3\n        /* \"#utility.yul\":974:983   */\n      dup6\n        /* \"#utility.yul\":970:992   */\n      add\n        /* \"#utility.yul\":949:1002   */\n      tag_94\n      jump\t// in\n    tag_124:\n        /* \"#utility.yul\":939:1002   */\n      swap2\n      pop\n        /* \"#utility.yul\":895:1012   */\n      pop\n        /* \"#utility.yul\":690:1019   */\n      swap3\n      swap2\n      pop\n      pop\n      jump\t// out\n        /* \"#utility.yul\":1025:1143   */\n    tag_95:\n        /* \"#utility.yul\":1112:1136   */\n      tag_126\n        /* \"#utility.yul\":1130:1135   */\n      dup2\n        /* \"#utility.yul\":1112:1136   */\n      tag_92\n      jump\t// in\n    tag_126:\n        /* \"#utility.yul\":1107:1110   */\n      dup3\n        /* \"#utility.yul\":1100:1137   */\n      mstore\n        /* \"#utility.yul\":1025:1143   */\n      pop\n      pop\n      jump\t// out\n        /* \"#utility.yul\":1149:1371   */\n    tag_13:\n        /* \"#utility.yul\":1242:1246   */\n      0x00\n        /* \"#utility.yul\":1280:1282   */\n      0x20\n        /* \"#utility.yul\":1269:1278   */\n      dup3\n        /* \"#utility.yul\":1265:1283   */\n      add\n        /* \"#utility.yul\":1257:1283   */\n      swap1\n      pop\n        /* \"#utility.yul\":1293:1364   */\n      tag_128\n        /* \"#utility.yul\":1361:1362   */\n      0x00\n        /* \"#utility.yul\":1350:1359   */\n      dup4\n        /* \"#utility.yul\":1346:1363   */\n      add\n        /* \"#utility.yul\":1337:1343   */\n      dup5\n        /* \"#utility.yul\":1293:1364   */\n      tag_95\n      jump\t// in\n    tag_128:\n        /* \"#utility.yul\":1149:1371   */\n      swap3\n      swap2\n      pop\n      pop\n      jump\t// out\n        /* \"#utility.yul\":1377:1503   */\n    tag_96:\n        /* \"#utility.yul\":1414:1421   */\n      0x00\n        /* \"#utility.yul\":1454:1496   */\n      0xffffffffffffffffffffffffffffffffffffffff\n        /* \"#utility.yul\":1447:1452   */\n      dup3\n        /* \"#utility.yul\":1443:1497   */\n      and\n        /* \"#utility.yul\":1432:1497   */\n      swap1\n      pop\n        /* \"#utility.yul\":1377:1503   */\n      swap2\n      swap1\n      pop\n      jump\t// out\n        /* \"#utility.yul\":1509:1605   */\n    tag_97:\n        /* \"#utility.yul\":1546:1553   */\n      0x00\n        /* \"#utility.yul\":1575:1599   */\n      tag_131\n        /* \"#utility.yul\":1593:1598   */\n      dup3\n        /* \"#utility.yul\":1575:1599   */\n      tag_96\n      jump\t// in\n    tag_131:\n        /* \"#utility.yul\":1564:1599   */\n      swap1\n      pop\n        /* \"#utility.yul\":1509:1605   */\n      swap2\n      swap1\n      pop\n      jump\t// out\n        /* \"#utility.yul\":1611:1733   */\n    tag_98:\n        /* \"#utility.yul\":1684:1708   */\n      tag_133\n        /* \"#utility.yul\":1702:1707   */\n      dup2\n        /* \"#utility.yul\":1684:1708   */\n      tag_97\n      jump\t// in\n    tag_133:\n        /* \"#utility.yul\":1677:1682   */\n      dup2\n        /* \"#utility.yul\":1674:1709   */\n      eq\n        /* \"#utility.yul\":1664:1727   */\n      tag_134\n      jumpi\n        /* \"#utility.yul\":1723:1724   */\n      0x00\n        /* \"#utility.yul\":1720:1721   */\n      dup1\n        /* \"#utility.yul\":1713:1725   */\n      revert\n        /* \"#utility.yul\":1664:1727   */\n    tag_134:\n        /* \"#utility.yul\":1611:1733   */\n      pop\n      jump\t// out\n        /* \"#utility.yul\":1739:1878   */\n    tag_99:\n        /* \"#utility.yul\":1785:1790   */\n      0x00\n        /* \"#utility.yul\":1823:1829   */\n      dup2\n        /* \"#utility.yul\":1810:1830   */\n      calldataload\n        /* \"#utility.yul\":1801:1830   */\n      swap1\n      pop\n        /* \"#utility.yul\":1839:1872   */\n      tag_136\n        /* \"#utility.yul\":1866:1871   */\n      dup2\n        /* \"#utility.yul\":1839:1872   */\n      tag_98\n      jump\t// in\n    tag_136:\n        /* \"#utility.yul\":1739:1878   */\n      swap3\n      swap2\n      pop\n      pop\n      jump\t// out\n        /* \"#utility.yul\":1884:2213   */\n    tag_16:\n        /* \"#utility.yul\":1943:1949   */\n      0x00\n        /* \"#utility.yul\":1992:1994   */\n      0x20\n        /* \"#utility.yul\":1980:1989   */\n      dup3\n        /* \"#utility.yul\":1971:1978   */\n      dup5\n        /* \"#utility.yul\":1967:1990   */\n      sub\n        /* \"#utility.yul\":1963:1995   */\n      slt\n        /* \"#utility.yul\":1960:2079   */\n      iszero\n      tag_138\n      jumpi\n        /* \"#utility.yul\":1998:2077   */\n      tag_139\n      tag_90\n      jump\t// in\n    tag_139:\n        /* \"#utility.yul\":1960:2079   */\n    tag_138:\n        /* \"#utility.yul\":2118:2119   */\n      0x00\n        /* \"#utility.yul\":2143:2196   */\n      tag_140\n        /* \"#utility.yul\":2188:2195   */\n      dup5\n        /* \"#utility.yul\":2179:2185   */\n      dup3\n        /* \"#utility.yul\":2168:2177   */\n      dup6\n        /* \"#utility.yul\":2164:2186   */\n      add\n        /* \"#utility.yul\":2143:2196   */\n      tag_99\n      jump\t// in\n    tag_140:\n        /* \"#utility.yul\":2133:2196   */\n      swap2\n      pop\n        /* \"#utility.yul\":2089:2206   */\n      pop\n        /* \"#utility.yul\":1884:2213   */\n      swap3\n      swap2\n      pop\n      pop\n      jump\t// out\n        /* \"#utility.yul\":2219:2309   */\n    tag_100:\n        /* \"#utility.yul\":2253:2260   */\n      0x00\n        /* \"#utility.yul\":2296:2301   */\n      dup2\n        /* \"#utility.yul\":2289:2302   */\n      iszero\n        /* \"#utility.yul\":2282:2303   */\n      iszero\n        /* \"#utility.yul\":2271:2303   */\n      swap1\n      pop\n        /* \"#utility.yul\":2219:2309   */\n      swap2\n      swap1\n      pop\n      jump\t// out\n        /* \"#utility.yul\":2315:2431   */\n    tag_101:\n        /* \"#utility.yul\":2385:2406   */\n      tag_143\n        /* \"#utility.yul\":2400:2405   */\n      dup2\n        /* \"#utility.yul\":2385:2406   */\n      tag_100\n      jump\t// in\n    tag_143:\n        /* \"#utility.yul\":2378:2383   */\n      dup2\n        /* \"#utility.yul\":2375:2407   */\n      eq\n        /* \"#utility.yul\":2365:2425   */\n      tag_144\n      jumpi\n        /* \"#utility.yul\":2421:2422   */\n      0x00\n        /* \"#utility.yul\":2418:2419   */\n      dup1\n        /* \"#utility.yul\":2411:2423   */\n      revert\n        /* \"#utility.yul\":2365:2425   */\n    tag_144:\n        /* \"#utility.yul\":2315:2431   */\n      pop\n      jump\t// out\n        /* \"#utility.yul\":2437:2570   */\n    tag_102:\n        /* \"#utility.yul\":2480:2485   */\n      0x00\n        /* \"#utility.yul\":2518:2524   */\n      dup2\n        /* \"#utility.yul\":2505:2525   */\n      calldataload\n        /* \"#utility.yul\":2496:2525   */\n      swap1\n      pop\n        /* \"#utility.yul\":2534:2564   */\n      tag_146\n        /* \"#utility.yul\":2558:2563   */\n      dup2\n        /* \"#utility.yul\":2534:2564   */\n      tag_101\n      jump\t// in\n    tag_146:\n        /* \"#utility.yul\":2437:2570   */\n      swap3\n      swap2\n      pop\n      pop\n      jump\t// out\n        /* \"#utility.yul\":2576:3044   */\n    tag_29:\n        /* \"#utility.yul\":2641:2647   */\n      0x00\n        /* \"#utility.yul\":2649:2655   */\n      dup1\n        /* \"#utility.yul\":2698:2700   */\n      0x40\n        /* \"#utility.yul\":2686:2695   */\n      dup4\n        /* \"#utility.yul\":2677:2684   */\n      dup6\n        /* \"#utility.yul\":2673:2696   */\n      sub\n        /* \"#utility.yul\":2669:2701   */\n      slt\n        /* \"#utility.yul\":2666:2785   */\n      iszero\n      tag_148\n      jumpi\n        /* \"#utility.yul\":2704:2783   */\n      tag_149\n      tag_90\n      jump\t// in\n    tag_149:\n        /* \"#utility.yul\":2666:2785   */\n    tag_148:\n        /* \"#utility.yul\":2824:2825   */\n      0x00\n        /* \"#utility.yul\":2849:2902   */\n      tag_150\n        /* \"#utility.yul\":2894:2901   */\n      dup6\n        /* \"#utility.yul\":2885:2891   */\n      dup3\n        /* \"#utility.yul\":2874:2883   */\n      dup7\n        /* \"#utility.yul\":2870:2892   */\n      add\n        /* \"#utility.yul\":2849:2902   */\n      tag_99\n      jump\t// in\n    tag_150:\n        /* \"#utility.yul\":2839:2902   */\n      swap3\n      pop\n        /* \"#utility.yul\":2795:2912   */\n      pop\n        /* \"#utility.yul\":2951:2953   */\n      0x20\n        /* \"#utility.yul\":2977:3027   */\n      tag_151\n        /* \"#utility.yul\":3019:3026   */\n      dup6\n        /* \"#utility.yul\":3010:3016   */\n      dup3\n        /* \"#utility.yul\":2999:3008   */\n      dup7\n        /* \"#utility.yul\":2995:3017   */\n      add\n        /* \"#utility.yul\":2977:3027   */\n      tag_102\n      jump\t// in\n    tag_151:\n        /* \"#utility.yul\":2967:3027   */\n      swap2\n      pop\n        /* \"#utility.yul\":2922:3037   */\n      pop\n        /* \"#utility.yul\":2576:3044   */\n      swap3\n      pop\n      swap3\n      swap1\n      pop\n      jump\t// out\n        /* \"#utility.yul\":3050:3168   */\n    tag_103:\n        /* \"#utility.yul\":3137:3161   */\n      tag_153\n        /* \"#utility.yul\":3155:3160   */\n      dup2\n        /* \"#utility.yul\":3137:3161   */\n      tag_97\n      jump\t// in\n    tag_153:\n        /* \"#utility.yul\":3132:3135   */\n      dup3\n        /* \"#utility.yul\":3125:3162   */\n      mstore\n        /* \"#utility.yul\":3050:3168   */\n      pop\n      pop\n      jump\t// out\n        /* \"#utility.yul\":3174:3396   */\n    tag_33:\n        /* \"#utility.yul\":3267:3271   */\n      0x00\n        /* \"#utility.yul\":3305:3307   */\n      0x20\n        /* \"#utility.yul\":3294:3303   */\n      dup3\n        /* \"#utility.yul\":3290:3308   */\n      add\n        /* \"#utility.yul\":3282:3308   */\n      swap1\n      pop\n        /* \"#utility.yul\":3318:3389   */\n      tag_155\n        /* \"#utility.yul\":3386:3387   */\n      0x00\n        /* \"#utility.yul\":3375:3384   */\n      dup4\n        /* \"#utility.yul\":3371:3388   */\n      add\n        /* \"#utility.yul\":3362:3368   */\n      dup5\n        /* \"#utility.yul\":3318:3389   */\n      tag_103\n      jump\t// in\n    tag_155:\n        /* \"#utility.yul\":3174:3396   */\n      swap3\n      swap2\n      pop\n      pop\n      jump\t// out\n        /* \"#utility.yul\":3402:3545   */\n    tag_104:\n        /* \"#utility.yul\":3459:3464   */\n      0x00\n        /* \"#utility.yul\":3490:3496   */\n      dup2\n        /* \"#utility.yul\":3484:3497   */\n      mload\n        /* \"#utility.yul\":3475:3497   */\n      swap1\n      pop\n        /* \"#utility.yul\":3506:3539   */\n      tag_157\n        /* \"#utility.yul\":3533:3538   */\n      dup2\n        /* \"#utility.yul\":3506:3539   */\n      tag_93\n      jump\t// in\n    tag_157:\n        /* \"#utility.yul\":3402:3545   */\n      swap3\n      swap2\n      pop\n      pop\n      jump\t// out\n        /* \"#utility.yul\":3551:3902   */\n    tag_37:\n        /* \"#utility.yul\":3621:3627   */\n      0x00\n        /* \"#utility.yul\":3670:3672   */\n      0x20\n        /* \"#utility.yul\":3658:3667   */\n      dup3\n        /* \"#utility.yul\":3649:3656   */\n      dup5\n        /* \"#utility.yul\":3645:3668   */\n      sub\n        /* \"#utility.yul\":3641:3673   */\n      slt\n        /* \"#utility.yul\":3638:3757   */\n      iszero\n      tag_159\n      jumpi\n        /* \"#utility.yul\":3676:3755   */\n      tag_160\n      tag_90\n      jump\t// in\n    tag_160:\n        /* \"#utility.yul\":3638:3757   */\n    tag_159:\n        /* \"#utility.yul\":3796:3797   */\n      0x00\n        /* \"#utility.yul\":3821:3885   */\n      tag_161\n        /* \"#utility.yul\":3877:3884   */\n      dup5\n        /* \"#utility.yul\":3868:3874   */\n      dup3\n        /* \"#utility.yul\":3857:3866   */\n      dup6\n        /* \"#utility.yul\":3853:3875   */\n      add\n        /* \"#utility.yul\":3821:3885   */\n      tag_104\n      jump\t// in\n    tag_161:\n        /* \"#utility.yul\":3811:3885   */\n      swap2\n      pop\n        /* \"#utility.yul\":3767:3895   */\n      pop\n        /* \"#utility.yul\":3551:3902   */\n      swap3\n      swap2\n      pop\n      pop\n      jump\t// out\n        /* \"#utility.yul\":3908:4240   */\n    tag_55:\n        /* \"#utility.yul\":4029:4033   */\n      0x00\n        /* \"#utility.yul\":4067:4069   */\n      0x40\n        /* \"#utility.yul\":4056:4065   */\n      dup3\n        /* \"#utility.yul\":4052:4070   */\n      add\n        /* \"#utility.yul\":4044:4070   */\n      swap1\n      pop\n        /* \"#utility.yul\":4080:4151   */\n      tag_163\n        /* \"#utility.yul\":4148:4149   */\n      0x00\n        /* \"#utility.yul\":4137:4146   */\n      dup4\n        /* \"#utility.yul\":4133:4150   */\n      add\n        /* \"#utility.yul\":4124:4130   */\n      dup6\n        /* \"#utility.yul\":4080:4151   */\n      tag_103\n      jump\t// in\n    tag_163:\n        /* \"#utility.yul\":4161:4233   */\n      tag_164\n        /* \"#utility.yul\":4229:4231   */\n      0x20\n        /* \"#utility.yul\":4218:4227   */\n      dup4\n        /* \"#utility.yul\":4214:4232   */\n      add\n        /* \"#utility.yul\":4205:4211   */\n      dup5\n        /* \"#utility.yul\":4161:4233   */\n      tag_95\n      jump\t// in\n    tag_164:\n        /* \"#utility.yul\":3908:4240   */\n      swap4\n      swap3\n      pop\n      pop\n      pop\n      jump\t// out\n        /* \"#utility.yul\":4246:4383   */\n    tag_105:\n        /* \"#utility.yul\":4300:4305   */\n      0x00\n        /* \"#utility.yul\":4331:4337   */\n      dup2\n        /* \"#utility.yul\":4325:4338   */\n      mload\n        /* \"#utility.yul\":4316:4338   */\n      swap1\n      pop\n        /* \"#utility.yul\":4347:4377   */\n      tag_166\n        /* \"#utility.yul\":4371:4376   */\n      dup2\n        /* \"#utility.yul\":4347:4377   */\n      tag_101\n      jump\t// in\n    tag_166:\n        /* \"#utility.yul\":4246:4383   */\n      swap3\n      swap2\n      pop\n      pop\n      jump\t// out\n        /* \"#utility.yul\":4389:4734   */\n    tag_59:\n        /* \"#utility.yul\":4456:4462   */\n      0x00\n        /* \"#utility.yul\":4505:4507   */\n      0x20\n        /* \"#utility.yul\":4493:4502   */\n      dup3\n        /* \"#utility.yul\":4484:4491   */\n      dup5\n        /* \"#utility.yul\":4480:4503   */\n      sub\n        /* \"#utility.yul\":4476:4508   */\n      slt\n        /* \"#utility.yul\":4473:4592   */\n      iszero\n      tag_168\n      jumpi\n        /* \"#utility.yul\":4511:4590   */\n      tag_169\n      tag_90\n      jump\t// in\n    tag_169:\n        /* \"#utility.yul\":4473:4592   */\n    tag_168:\n        /* \"#utility.yul\":4631:4632   */\n      0x00\n        /* \"#utility.yul\":4656:4717   */\n      tag_170\n        /* \"#utility.yul\":4709:4716   */\n      dup5\n        /* \"#utility.yul\":4700:4706   */\n      dup3\n        /* \"#utility.yul\":4689:4698   */\n      dup6\n        /* \"#utility.yul\":4685:4707   */\n      add\n        /* \"#utility.yul\":4656:4717   */\n      tag_105\n      jump\t// in\n    tag_170:\n        /* \"#utility.yul\":4646:4717   */\n      swap2\n      pop\n        /* \"#utility.yul\":4602:4727   */\n      pop\n        /* \"#utility.yul\":4389:4734   */\n      swap3\n      swap2\n      pop\n      pop\n      jump\t// out\n        /* \"#utility.yul\":4740:4909   */\n    tag_106:\n        /* \"#utility.yul\":4824:4835   */\n      0x00\n        /* \"#utility.yul\":4858:4864   */\n      dup3\n        /* \"#utility.yul\":4853:4856   */\n      dup3\n        /* \"#utility.yul\":4846:4865   */\n      mstore\n        /* \"#utility.yul\":4898:4902   */\n      0x20\n        /* \"#utility.yul\":4893:4896   */\n      dup3\n        /* \"#utility.yul\":4889:4903   */\n      add\n        /* \"#utility.yul\":4874:4903   */\n      swap1\n      pop\n        /* \"#utility.yul\":4740:4909   */\n      swap3\n      swap2\n      pop\n      pop\n      jump\t// out\n        /* \"#utility.yul\":4915:5097   */\n    tag_107:\n        /* \"#utility.yul\":5055:5089   */\n      0x4f776e61626c653a2063616c6c6572206973206e6f7420746865206f776e6572\n        /* \"#utility.yul\":5051:5052   */\n      0x00\n        /* \"#utility.yul\":5043:5049   */\n      dup3\n        /* \"#utility.yul\":5039:5053   */\n      add\n        /* \"#utility.yul\":5032:5090   */\n      mstore\n        /* \"#utility.yul\":4915:5097   */\n      pop\n      jump\t// out\n        /* \"#utility.yul\":5103:5469   */\n    tag_108:\n        /* \"#utility.yul\":5245:5248   */\n      0x00\n        /* \"#utility.yul\":5266:5333   */\n      tag_174\n        /* \"#utility.yul\":5330:5332   */\n      0x20\n        /* \"#utility.yul\":5325:5328   */\n      dup4\n        /* \"#utility.yul\":5266:5333   */\n      tag_106\n      jump\t// in\n    tag_174:\n        /* \"#utility.yul\":5259:5333   */\n      swap2\n      pop\n        /* \"#utility.yul\":5342:5435   */\n      tag_175\n        /* \"#utility.yul\":5431:5434   */\n      dup3\n        /* \"#utility.yul\":5342:5435   */\n      tag_107\n      jump\t// in\n    tag_175:\n        /* \"#utility.yul\":5460:5462   */\n      0x20\n        /* \"#utility.yul\":5455:5458   */\n      dup3\n        /* \"#utility.yul\":5451:5463   */\n      add\n        /* \"#utility.yul\":5444:5463   */\n      swap1\n      pop\n        /* \"#utility.yul\":5103:5469   */\n      swap2\n      swap1\n      pop\n      jump\t// out\n        /* \"#utility.yul\":5475:5894   */\n    tag_78:\n        /* \"#utility.yul\":5641:5645   */\n      0x00\n        /* \"#utility.yul\":5679:5681   */\n      0x20\n        /* \"#utility.yul\":5668:5677   */\n      dup3\n        /* \"#utility.yul\":5664:5682   */\n      add\n        /* \"#utility.yul\":5656:5682   */\n      swap1\n      pop\n        /* \"#utility.yul\":5728:5737   */\n      dup2\n        /* \"#utility.yul\":5722:5726   */\n      dup2\n        /* \"#utility.yul\":5718:5738   */\n      sub\n        /* \"#utility.yul\":5714:5715   */\n      0x00\n        /* \"#utility.yul\":5703:5712   */\n      dup4\n        /* \"#utility.yul\":5699:5716   */\n      add\n        /* \"#utility.yul\":5692:5739   */\n      mstore\n        /* \"#utility.yul\":5756:5887   */\n      tag_177\n        /* \"#utility.yul\":5882:5886   */\n      dup2\n        /* \"#utility.yul\":5756:5887   */\n      tag_108\n      jump\t// in\n    tag_177:\n        /* \"#utility.yul\":5748:5887   */\n      swap1\n      pop\n        /* \"#utility.yul\":5475:5894   */\n      swap2\n      swap1\n      pop\n      jump\t// out\n        /* \"#utility.yul\":5900:6080   */\n    tag_109:\n        /* \"#utility.yul\":5948:6025   */\n      0x4e487b7100000000000000000000000000000000000000000000000000000000\n        /* \"#utility.yul\":5945:5946   */\n      0x00\n        /* \"#utility.yul\":5938:6026   */\n      mstore\n        /* \"#utility.yul\":6045:6049   */\n      0x11\n        /* \"#utility.yul\":6042:6043   */\n      0x04\n        /* \"#utility.yul\":6035:6050   */\n      mstore\n        /* \"#utility.yul\":6069:6073   */\n      0x24\n        /* \"#utility.yul\":6066:6067   */\n      0x00\n        /* \"#utility.yul\":6059:6074   */\n      revert\n        /* \"#utility.yul\":6086:6391   */\n    tag_82:\n        /* \"#utility.yul\":6126:6129   */\n      0x00\n        /* \"#utility.yul\":6145:6165   */\n      tag_180\n        /* \"#utility.yul\":6163:6164   */\n      dup3\n        /* \"#utility.yul\":6145:6165   */\n      tag_92\n      jump\t// in\n    tag_180:\n        /* \"#utility.yul\":6140:6165   */\n      swap2\n      pop\n        /* \"#utility.yul\":6179:6199   */\n      tag_181\n        /* \"#utility.yul\":6197:6198   */\n      dup4\n        /* \"#utility.yul\":6179:6199   */\n      tag_92\n      jump\t// in\n    tag_181:\n        /* \"#utility.yul\":6174:6199   */\n      swap3\n      pop\n        /* \"#utility.yul\":6333:6334   */\n      dup3\n        /* \"#utility.yul\":6265:6331   */\n      0xffffffffffffffffffffffffffffffffffffffffffffffffffffffffffffffff\n        /* \"#utility.yul\":6261:6335   */\n      sub\n        /* \"#utility.yul\":6258:6259   */\n      dup3\n        /* \"#utility.yul\":6255:6336   */\n      gt\n        /* \"#utility.yul\":6252:6359   */\n      iszero\n      tag_182\n      jumpi\n        /* \"#utility.yul\":6339:6357   */\n      tag_183\n      tag_109\n      jump\t// in\n    tag_183:\n        /* \"#utility.yul\":6252:6359   */\n    tag_182:\n        /* \"#utility.yul\":6383:6384   */\n      dup3\n        /* \"#utility.yul\":6380:6381   */\n      dup3\n        /* \"#utility.yul\":6376:6385   */\n      add\n        /* \"#utility.yul\":6369:6385   */\n      swap1\n      pop\n        /* \"#utility.yul\":6086:6391   */\n      swap3\n      swap2\n      pop\n      pop\n      jump\t// out\n        /* \"#utility.yul\":6397:6577   */\n    tag_110:\n        /* \"#utility.yul\":6445:6522   */\n      0x4e487b7100000000000000000000000000000000000000000000000000000000\n        /* \"#utility.yul\":6442:6443   */\n      0x00\n        /* \"#utility.yul\":6435:6523   */\n      mstore\n        /* \"#utility.yul\":6542:6546   */\n      0x12\n        /* \"#utility.yul\":6539:6540   */\n      0x04\n        /* \"#utility.yul\":6532:6547   */\n      mstore\n        /* \"#utility.yul\":6566:6570   */\n      0x24\n        /* \"#utility.yul\":6563:6564   */\n      0x00\n        /* \"#utility.yul\":6556:6571   */\n      revert\n        /* \"#utility.yul\":6583:6768   */\n    tag_85:\n        /* \"#utility.yul\":6623:6624   */\n      0x00\n        /* \"#utility.yul\":6640:6660   */\n      tag_186\n        /* \"#utility.yul\":6658:6659   */\n      dup3\n        /* \"#utility.yul\":6640:6660   */\n      tag_92\n      jump\t// in\n    tag_186:\n        /* \"#utility.yul\":6635:6660   */\n      swap2\n      pop\n        /* \"#utility.yul\":6674:6694   */\n      tag_187\n        /* \"#utility.yul\":6692:6693   */\n      dup4\n        /* \"#utility.yul\":6674:6694   */\n      tag_92\n      jump\t// in\n    tag_187:\n        /* \"#utility.yul\":6669:6694   */\n      swap3\n      pop\n        /* \"#utility.yul\":6713:6714   */\n      dup3\n        /* \"#utility.yul\":6703:6738   */\n      tag_188\n      jumpi\n        /* \"#utility.yul\":6718:6736   */\n      tag_189\n      tag_110\n      jump\t// in\n    tag_189:\n        /* \"#utility.yul\":6703:6738   */\n    tag_188:\n        /* \"#utility.yul\":6760:6761   */\n      dup3\n        /* \"#utility.yul\":6757:6758   */\n      dup3\n        /* \"#utility.yul\":6753:6762   */\n      div\n        /* \"#utility.yul\":6748:6762   */\n      swap1\n      pop\n        /* \"#utility.yul\":6583:6768   */\n      swap3\n      swap2\n      pop\n      pop\n      jump\t// out\n        /* \"#utility.yul\":6774:6965   */\n    tag_88:\n        /* \"#utility.yul\":6814:6818   */\n      0x00\n        /* \"#utility.yul\":6834:6854   */\n      tag_191\n        /* \"#utility.yul\":6852:6853   */\n      dup3\n        /* \"#utility.yul\":6834:6854   */\n      tag_92\n      jump\t// in\n    tag_191:\n        /* \"#utility.yul\":6829:6854   */\n      swap2\n      pop\n        /* \"#utility.yul\":6868:6888   */\n      tag_192\n        /* \"#utility.yul\":6886:6887   */\n      dup4\n        /* \"#utility.yul\":6868:6888   */\n      tag_92\n      jump\t// in\n    tag_192:\n        /* \"#utility.yul\":6863:6888   */\n      swap3\n      pop\n        /* \"#utility.yul\":6907:6908   */\n      dup3\n        /* \"#utility.yul\":6904:6905   */\n      dup3\n        /* \"#utility.yul\":6901:6909   */\n      lt\n        /* \"#utility.yul\":6898:6932   */\n      iszero\n      tag_193\n      jumpi\n        /* \"#utility.yul\":6912:6930   */\n      tag_194\n      tag_109\n      jump\t// in\n    tag_194:\n        /* \"#utility.yul\":6898:6932   */\n    tag_193:\n        /* \"#utility.yul\":6957:6958   */\n      dup3\n        /* \"#utility.yul\":6954:6955   */\n      dup3\n        /* \"#utility.yul\":6950:6959   */\n      sub\n        /* \"#utility.yul\":6942:6959   */\n      swap1\n      pop\n        /* \"#utility.yul\":6774:6965   */\n      swap3\n      swap2\n      pop\n      pop\n      jump\t// out\n\n    auxdata: 0xa2646970667358221220be6e95c308cba440d1ad55e1625689037eaf3df0ee5b2a571b8fd0f969f94e5c64736f6c634300080e0033\n}\n",
				"bytecode": {
					"linkReferences": {},
					"object": "608060405273d14ff067355ce838a6e110bdfb672dbec83ca23c6000806101000a81548173ffffffffffffffffffffffffffffffffffffffff021916908373ffffffffffffffffffffffffffffffffffffffff160217905550604051610d01380380610d0183398181016040528101906100799190610102565b33600260006101000a81548173ffffffffffffffffffffffffffffffffffffffff021916908373ffffffffffffffffffffffffffffffffffffffff160217905550806001819055505061012f565b600080fd5b6000819050919050565b6100df816100cc565b81146100ea57600080fd5b50565b6000815190506100fc816100d6565b92915050565b600060208284031215610118576101176100c7565b5b6000610126848285016100ed565b91505092915050565b610bc38061013e6000396000f3fe60806040526004361061004a5760003560e01c80633a23bf491461004f57806341a7726a1461008c5780636f515f3d146100a857806397dedb1d146100c4578063c3c6467414610101575b600080fd5b34801561005b57600080fd5b50610076600480360381019061007191906107c6565b61012a565b6040516100839190610802565b60405180910390f35b6100a660048036038101906100a1919061087b565b61034b565b005b6100c260048036038101906100bd919061087b565b610458565b005b3480156100d057600080fd5b506100eb60048036038101906100e691906107c6565b610565565b6040516100f89190610802565b60405180910390f35b34801561010d57600080fd5b50610128600480360381019061012391906108e0565b61065e565b005b60008047905060008060009054906101000a900473ffffffffffffffffffffffffffffffffffffffff1673ffffffffffffffffffffffffffffffffffffffff166370a08231306040518263ffffffff1660e01b815260040161018c919061092f565b602060405180830381865afa1580156101a9573d6000803e3d6000fd5b505050506040513d601f19601f820116820180604052508101906101cd919061095f565b905060006101e4858361074990919063ffffffff16565b905060008054906101000a900473ffffffffffffffffffffffffffffffffffffffff1673ffffffffffffffffffffffffffffffffffffffff166318160ddd6040518163ffffffff1660e01b8152600401602060405180830381865afa158015610251573d6000803e3d6000fd5b505050506040513d601f19601f82011682018060405250810190610275919061095f565b81111561030e5760008054906101000a900473ffffffffffffffffffffffffffffffffffffffff1673ffffffffffffffffffffffffffffffffffffffff166318160ddd6040518163ffffffff1660e01b8152600401602060405180830381865afa1580156102e7573d6000803e3d6000fd5b505050506040513d601f19601f8201168201806040525081019061030b919061095f565b90505b60006103258260015461075f90919063ffffffff16565b9050600061033c828661077590919063ffffffff16565b90508095505050505050919050565b60011515600360003373ffffffffffffffffffffffffffffffffffffffff1673ffffffffffffffffffffffffffffffffffffffff16815260200190815260200160002060009054906101000a900460ff161515146103a857600080fd5b60006103b334610565565b905060008054906101000a900473ffffffffffffffffffffffffffffffffffffffff1673ffffffffffffffffffffffffffffffffffffffff1663a9059cbb83836040518363ffffffff1660e01b815260040161041092919061098c565b6020604051808303816000875af115801561042f573d6000803e3d6000fd5b505050506040513d601f19601f8201168201806040525081019061045391906109ca565b505050565b60011515600360003373ffffffffffffffffffffffffffffffffffffffff1673ffffffffffffffffffffffffffffffffffffffff16815260200190815260200160002060009054906101000a900460ff161515146104b557600080fd5b60006104c034610565565b905060008054906101000a900473ffffffffffffffffffffffffffffffffffffffff1673ffffffffffffffffffffffffffffffffffffffff1663a9059cbb83836040518363ffffffff1660e01b815260040161051d92919061098c565b6020604051808303816000875af115801561053c573d6000803e3d6000fd5b505050506040513d601f19601f8201168201806040525081019061056091906109ca565b505050565b60008047905060008060009054906101000a900473ffffffffffffffffffffffffffffffffffffffff1673ffffffffffffffffffffffffffffffffffffffff166370a08231306040518263ffffffff1660e01b81526004016105c7919061092f565b602060405180830381865afa1580156105e4573d6000803e3d6000fd5b505050506040513d601f19601f82011682018060405250810190610608919061095f565b9050600061061f858461074990919063ffffffff16565b905060006106388260015461075f90919063ffffffff16565b9050600061064f828561077590919063ffffffff16565b90508095505050505050919050565b3373ffffffffffffffffffffffffffffffffffffffff16600260009054906101000a900473ffffffffffffffffffffffffffffffffffffffff1673ffffffffffffffffffffffffffffffffffffffff16146106ee576040517f08c379a00000000000000000000000000000000000000000000000000000000081526004016106e590610a54565b60405180910390fd5b80600360008473ffffffffffffffffffffffffffffffffffffffff1673ffffffffffffffffffffffffffffffffffffffff16815260200190815260200160002060006101000a81548160ff0219169083151502179055505050565b600081836107579190610aa3565b905092915050565b6000818361076d9190610b28565b905092915050565b600081836107839190610b59565b905092915050565b600080fd5b6000819050919050565b6107a381610790565b81146107ae57600080fd5b50565b6000813590506107c08161079a565b92915050565b6000602082840312156107dc576107db61078b565b5b60006107ea848285016107b1565b91505092915050565b6107fc81610790565b82525050565b600060208201905061081760008301846107f3565b92915050565b600073ffffffffffffffffffffffffffffffffffffffff82169050919050565b60006108488261081d565b9050919050565b6108588161083d565b811461086357600080fd5b50565b6000813590506108758161084f565b92915050565b6000602082840312156108915761089061078b565b5b600061089f84828501610866565b91505092915050565b60008115159050919050565b6108bd816108a8565b81146108c857600080fd5b50565b6000813590506108da816108b4565b92915050565b600080604083850312156108f7576108f661078b565b5b600061090585828601610866565b9250506020610916858286016108cb565b9150509250929050565b6109298161083d565b82525050565b60006020820190506109446000830184610920565b92915050565b6000815190506109598161079a565b92915050565b6000602082840312156109755761097461078b565b5b60006109838482850161094a565b91505092915050565b60006040820190506109a16000830185610920565b6109ae60208301846107f3565b9392505050565b6000815190506109c4816108b4565b92915050565b6000602082840312156109e0576109df61078b565b5b60006109ee848285016109b5565b91505092915050565b600082825260208201905092915050565b7f4f776e61626c653a2063616c6c6572206973206e6f7420746865206f776e6572600082015250565b6000610a3e6020836109f7565b9150610a4982610a08565b602082019050919050565b60006020820190508181036000830152610a6d81610a31565b9050919050565b7f4e487b7100000000000000000000000000000000000000000000000000000000600052601160045260246000fd5b6000610aae82610790565b9150610ab983610790565b9250827fffffffffffffffffffffffffffffffffffffffffffffffffffffffffffffffff03821115610aee57610aed610a74565b5b828201905092915050565b7f4e487b7100000000000000000000000000000000000000000000000000000000600052601260045260246000fd5b6000610b3382610790565b9150610b3e83610790565b925082610b4e57610b4d610af9565b5b828204905092915050565b6000610b6482610790565b9150610b6f83610790565b925082821015610b8257610b81610a74565b5b82820390509291505056fea2646970667358221220be6e95c308cba440d1ad55e1625689037eaf3df0ee5b2a571b8fd0f969f94e5c64736f6c634300080e0033",
					"opcodes": "PUSH1 0x80 PUSH1 0x40 MSTORE PUSH20 0xD14FF067355CE838A6E110BDFB672DBEC83CA23C PUSH1 0x0 DUP1 PUSH2 0x100 EXP DUP2 SLOAD DUP2 PUSH20 0xFFFFFFFFFFFFFFFFFFFFFFFFFFFFFFFFFFFFFFFF MUL NOT AND SWAP1 DUP4 PUSH20 0xFFFFFFFFFFFFFFFFFFFFFFFFFFFFFFFFFFFFFFFF AND MUL OR SWAP1 SSTORE POP PUSH1 0x40 MLOAD PUSH2 0xD01 CODESIZE SUB DUP1 PUSH2 0xD01 DUP4 CODECOPY DUP2 DUP2 ADD PUSH1 0x40 MSTORE DUP2 ADD SWAP1 PUSH2 0x79 SWAP2 SWAP1 PUSH2 0x102 JUMP JUMPDEST CALLER PUSH1 0x2 PUSH1 0x0 PUSH2 0x100 EXP DUP2 SLOAD DUP2 PUSH20 0xFFFFFFFFFFFFFFFFFFFFFFFFFFFFFFFFFFFFFFFF MUL NOT AND SWAP1 DUP4 PUSH20 0xFFFFFFFFFFFFFFFFFFFFFFFFFFFFFFFFFFFFFFFF AND MUL OR SWAP1 SSTORE POP DUP1 PUSH1 0x1 DUP2 SWAP1 SSTORE POP POP PUSH2 0x12F JUMP JUMPDEST PUSH1 0x0 DUP1 REVERT JUMPDEST PUSH1 0x0 DUP2 SWAP1 POP SWAP2 SWAP1 POP JUMP JUMPDEST PUSH2 0xDF DUP2 PUSH2 0xCC JUMP JUMPDEST DUP2 EQ PUSH2 0xEA JUMPI PUSH1 0x0 DUP1 REVERT JUMPDEST POP JUMP JUMPDEST PUSH1 0x0 DUP2 MLOAD SWAP1 POP PUSH2 0xFC DUP2 PUSH2 0xD6 JUMP JUMPDEST SWAP3 SWAP2 POP POP JUMP JUMPDEST PUSH1 0x0 PUSH1 0x20 DUP3 DUP5 SUB SLT ISZERO PUSH2 0x118 JUMPI PUSH2 0x117 PUSH2 0xC7 JUMP JUMPDEST JUMPDEST PUSH1 0x0 PUSH2 0x126 DUP5 DUP3 DUP6 ADD PUSH2 0xED JUMP JUMPDEST SWAP2 POP POP SWAP3 SWAP2 POP POP JUMP JUMPDEST PUSH2 0xBC3 DUP1 PUSH2 0x13E PUSH1 0x0 CODECOPY PUSH1 0x0 RETURN INVALID PUSH1 0x80 PUSH1 0x40 MSTORE PUSH1 0x4 CALLDATASIZE LT PUSH2 0x4A JUMPI PUSH1 0x0 CALLDATALOAD PUSH1 0xE0 SHR DUP1 PUSH4 0x3A23BF49 EQ PUSH2 0x4F JUMPI DUP1 PUSH4 0x41A7726A EQ PUSH2 0x8C JUMPI DUP1 PUSH4 0x6F515F3D EQ PUSH2 0xA8 JUMPI DUP1 PUSH4 0x97DEDB1D EQ PUSH2 0xC4 JUMPI DUP1 PUSH4 0xC3C64674 EQ PUSH2 0x101 JUMPI JUMPDEST PUSH1 0x0 DUP1 REVERT JUMPDEST CALLVALUE DUP1 ISZERO PUSH2 0x5B JUMPI PUSH1 0x0 DUP1 REVERT JUMPDEST POP PUSH2 0x76 PUSH1 0x4 DUP1 CALLDATASIZE SUB DUP2 ADD SWAP1 PUSH2 0x71 SWAP2 SWAP1 PUSH2 0x7C6 JUMP JUMPDEST PUSH2 0x12A JUMP JUMPDEST PUSH1 0x40 MLOAD PUSH2 0x83 SWAP2 SWAP1 PUSH2 0x802 JUMP JUMPDEST PUSH1 0x40 MLOAD DUP1 SWAP2 SUB SWAP1 RETURN JUMPDEST PUSH2 0xA6 PUSH1 0x4 DUP1 CALLDATASIZE SUB DUP2 ADD SWAP1 PUSH2 0xA1 SWAP2 SWAP1 PUSH2 0x87B JUMP JUMPDEST PUSH2 0x34B JUMP JUMPDEST STOP JUMPDEST PUSH2 0xC2 PUSH1 0x4 DUP1 CALLDATASIZE SUB DUP2 ADD SWAP1 PUSH2 0xBD SWAP2 SWAP1 PUSH2 0x87B JUMP JUMPDEST PUSH2 0x458 JUMP JUMPDEST STOP JUMPDEST CALLVALUE DUP1 ISZERO PUSH2 0xD0 JUMPI PUSH1 0x0 DUP1 REVERT JUMPDEST POP PUSH2 0xEB PUSH1 0x4 DUP1 CALLDATASIZE SUB DUP2 ADD SWAP1 PUSH2 0xE6 SWAP2 SWAP1 PUSH2 0x7C6 JUMP JUMPDEST PUSH2 0x565 JUMP JUMPDEST PUSH1 0x40 MLOAD PUSH2 0xF8 SWAP2 SWAP1 PUSH2 0x802 JUMP JUMPDEST PUSH1 0x40 MLOAD DUP1 SWAP2 SUB SWAP1 RETURN JUMPDEST CALLVALUE DUP1 ISZERO PUSH2 0x10D JUMPI PUSH1 0x0 DUP1 REVERT JUMPDEST POP PUSH2 0x128 PUSH1 0x4 DUP1 CALLDATASIZE SUB DUP2 ADD SWAP1 PUSH2 0x123 SWAP2 SWAP1 PUSH2 0x8E0 JUMP JUMPDEST PUSH2 0x65E JUMP JUMPDEST STOP JUMPDEST PUSH1 0x0 DUP1 SELFBALANCE SWAP1 POP PUSH1 0x0 DUP1 PUSH1 0x0 SWAP1 SLOAD SWAP1 PUSH2 0x100 EXP SWAP1 DIV PUSH20 0xFFFFFFFFFFFFFFFFFFFFFFFFFFFFFFFFFFFFFFFF AND PUSH20 0xFFFFFFFFFFFFFFFFFFFFFFFFFFFFFFFFFFFFFFFF AND PUSH4 0x70A08231 ADDRESS PUSH1 0x40 MLOAD DUP3 PUSH4 0xFFFFFFFF AND PUSH1 0xE0 SHL DUP2 MSTORE PUSH1 0x4 ADD PUSH2 0x18C SWAP2 SWAP1 PUSH2 0x92F JUMP JUMPDEST PUSH1 0x20 PUSH1 0x40 MLOAD DUP1 DUP4 SUB DUP2 DUP7 GAS STATICCALL ISZERO DUP1 ISZERO PUSH2 0x1A9 JUMPI RETURNDATASIZE PUSH1 0x0 DUP1 RETURNDATACOPY RETURNDATASIZE PUSH1 0x0 REVERT JUMPDEST POP POP POP POP PUSH1 0x40 MLOAD RETURNDATASIZE PUSH1 0x1F NOT PUSH1 0x1F DUP3 ADD AND DUP3 ADD DUP1 PUSH1 0x40 MSTORE POP DUP2 ADD SWAP1 PUSH2 0x1CD SWAP2 SWAP1 PUSH2 0x95F JUMP JUMPDEST SWAP1 POP PUSH1 0x0 PUSH2 0x1E4 DUP6 DUP4 PUSH2 0x749 SWAP1 SWAP2 SWAP1 PUSH4 0xFFFFFFFF AND JUMP JUMPDEST SWAP1 POP PUSH1 0x0 DUP1 SLOAD SWAP1 PUSH2 0x100 EXP SWAP1 DIV PUSH20 0xFFFFFFFFFFFFFFFFFFFFFFFFFFFFFFFFFFFFFFFF AND PUSH20 0xFFFFFFFFFFFFFFFFFFFFFFFFFFFFFFFFFFFFFFFF AND PUSH4 0x18160DDD PUSH1 0x40 MLOAD DUP2 PUSH4 0xFFFFFFFF AND PUSH1 0xE0 SHL DUP2 MSTORE PUSH1 0x4 ADD PUSH1 0x20 PUSH1 0x40 MLOAD DUP1 DUP4 SUB DUP2 DUP7 GAS STATICCALL ISZERO DUP1 ISZERO PUSH2 0x251 JUMPI RETURNDATASIZE PUSH1 0x0 DUP1 RETURNDATACOPY RETURNDATASIZE PUSH1 0x0 REVERT JUMPDEST POP POP POP POP PUSH1 0x40 MLOAD RETURNDATASIZE PUSH1 0x1F NOT PUSH1 0x1F DUP3 ADD AND DUP3 ADD DUP1 PUSH1 0x40 MSTORE POP DUP2 ADD SWAP1 PUSH2 0x275 SWAP2 SWAP1 PUSH2 0x95F JUMP JUMPDEST DUP2 GT ISZERO PUSH2 0x30E JUMPI PUSH1 0x0 DUP1 SLOAD SWAP1 PUSH2 0x100 EXP SWAP1 DIV PUSH20 0xFFFFFFFFFFFFFFFFFFFFFFFFFFFFFFFFFFFFFFFF AND PUSH20 0xFFFFFFFFFFFFFFFFFFFFFFFFFFFFFFFFFFFFFFFF AND PUSH4 0x18160DDD PUSH1 0x40 MLOAD DUP2 PUSH4 0xFFFFFFFF AND PUSH1 0xE0 SHL DUP2 MSTORE PUSH1 0x4 ADD PUSH1 0x20 PUSH1 0x40 MLOAD DUP1 DUP4 SUB DUP2 DUP7 GAS STATICCALL ISZERO DUP1 ISZERO PUSH2 0x2E7 JUMPI RETURNDATASIZE PUSH1 0x0 DUP1 RETURNDATACOPY RETURNDATASIZE PUSH1 0x0 REVERT JUMPDEST POP POP POP POP PUSH1 0x40 MLOAD RETURNDATASIZE PUSH1 0x1F NOT PUSH1 0x1F DUP3 ADD AND DUP3 ADD DUP1 PUSH1 0x40 MSTORE POP DUP2 ADD SWAP1 PUSH2 0x30B SWAP2 SWAP1 PUSH2 0x95F JUMP JUMPDEST SWAP1 POP JUMPDEST PUSH1 0x0 PUSH2 0x325 DUP3 PUSH1 0x1 SLOAD PUSH2 0x75F SWAP1 SWAP2 SWAP1 PUSH4 0xFFFFFFFF AND JUMP JUMPDEST SWAP1 POP PUSH1 0x0 PUSH2 0x33C DUP3 DUP7 PUSH2 0x775 SWAP1 SWAP2 SWAP1 PUSH4 0xFFFFFFFF AND JUMP JUMPDEST SWAP1 POP DUP1 SWAP6 POP POP POP POP POP POP SWAP2 SWAP1 POP JUMP JUMPDEST PUSH1 0x1 ISZERO ISZERO PUSH1 0x3 PUSH1 0x0 CALLER PUSH20 0xFFFFFFFFFFFFFFFFFFFFFFFFFFFFFFFFFFFFFFFF AND PUSH20 0xFFFFFFFFFFFFFFFFFFFFFFFFFFFFFFFFFFFFFFFF AND DUP2 MSTORE PUSH1 0x20 ADD SWAP1 DUP2 MSTORE PUSH1 0x20 ADD PUSH1 0x0 KECCAK256 PUSH1 0x0 SWAP1 SLOAD SWAP1 PUSH2 0x100 EXP SWAP1 DIV PUSH1 0xFF AND ISZERO ISZERO EQ PUSH2 0x3A8 JUMPI PUSH1 0x0 DUP1 REVERT JUMPDEST PUSH1 0x0 PUSH2 0x3B3 CALLVALUE PUSH2 0x565 JUMP JUMPDEST SWAP1 POP PUSH1 0x0 DUP1 SLOAD SWAP1 PUSH2 0x100 EXP SWAP1 DIV PUSH20 0xFFFFFFFFFFFFFFFFFFFFFFFFFFFFFFFFFFFFFFFF AND PUSH20 0xFFFFFFFFFFFFFFFFFFFFFFFFFFFFFFFFFFFFFFFF AND PUSH4 0xA9059CBB DUP4 DUP4 PUSH1 0x40 MLOAD DUP4 PUSH4 0xFFFFFFFF AND PUSH1 0xE0 SHL DUP2 MSTORE PUSH1 0x4 ADD PUSH2 0x410 SWAP3 SWAP2 SWAP1 PUSH2 0x98C JUMP JUMPDEST PUSH1 0x20 PUSH1 0x40 MLOAD DUP1 DUP4 SUB DUP2 PUSH1 0x0 DUP8 GAS CALL ISZERO DUP1 ISZERO PUSH2 0x42F JUMPI RETURNDATASIZE PUSH1 0x0 DUP1 RETURNDATACOPY RETURNDATASIZE PUSH1 0x0 REVERT JUMPDEST POP POP POP POP PUSH1 0x40 MLOAD RETURNDATASIZE PUSH1 0x1F NOT PUSH1 0x1F DUP3 ADD AND DUP3 ADD DUP1 PUSH1 0x40 MSTORE POP DUP2 ADD SWAP1 PUSH2 0x453 SWAP2 SWAP1 PUSH2 0x9CA JUMP JUMPDEST POP POP POP JUMP JUMPDEST PUSH1 0x1 ISZERO ISZERO PUSH1 0x3 PUSH1 0x0 CALLER PUSH20 0xFFFFFFFFFFFFFFFFFFFFFFFFFFFFFFFFFFFFFFFF AND PUSH20 0xFFFFFFFFFFFFFFFFFFFFFFFFFFFFFFFFFFFFFFFF AND DUP2 MSTORE PUSH1 0x20 ADD SWAP1 DUP2 MSTORE PUSH1 0x20 ADD PUSH1 0x0 KECCAK256 PUSH1 0x0 SWAP1 SLOAD SWAP1 PUSH2 0x100 EXP SWAP1 DIV PUSH1 0xFF AND ISZERO ISZERO EQ PUSH2 0x4B5 JUMPI PUSH1 0x0 DUP1 REVERT JUMPDEST PUSH1 0x0 PUSH2 0x4C0 CALLVALUE PUSH2 0x565 JUMP JUMPDEST SWAP1 POP PUSH1 0x0 DUP1 SLOAD SWAP1 PUSH2 0x100 EXP SWAP1 DIV PUSH20 0xFFFFFFFFFFFFFFFFFFFFFFFFFFFFFFFFFFFFFFFF AND PUSH20 0xFFFFFFFFFFFFFFFFFFFFFFFFFFFFFFFFFFFFFFFF AND PUSH4 0xA9059CBB DUP4 DUP4 PUSH1 0x40 MLOAD DUP4 PUSH4 0xFFFFFFFF AND PUSH1 0xE0 SHL DUP2 MSTORE PUSH1 0x4 ADD PUSH2 0x51D SWAP3 SWAP2 SWAP1 PUSH2 0x98C JUMP JUMPDEST PUSH1 0x20 PUSH1 0x40 MLOAD DUP1 DUP4 SUB DUP2 PUSH1 0x0 DUP8 GAS CALL ISZERO DUP1 ISZERO PUSH2 0x53C JUMPI RETURNDATASIZE PUSH1 0x0 DUP1 RETURNDATACOPY RETURNDATASIZE PUSH1 0x0 REVERT JUMPDEST POP POP POP POP PUSH1 0x40 MLOAD RETURNDATASIZE PUSH1 0x1F NOT PUSH1 0x1F DUP3 ADD AND DUP3 ADD DUP1 PUSH1 0x40 MSTORE POP DUP2 ADD SWAP1 PUSH2 0x560 SWAP2 SWAP1 PUSH2 0x9CA JUMP JUMPDEST POP POP POP JUMP JUMPDEST PUSH1 0x0 DUP1 SELFBALANCE SWAP1 POP PUSH1 0x0 DUP1 PUSH1 0x0 SWAP1 SLOAD SWAP1 PUSH2 0x100 EXP SWAP1 DIV PUSH20 0xFFFFFFFFFFFFFFFFFFFFFFFFFFFFFFFFFFFFFFFF AND PUSH20 0xFFFFFFFFFFFFFFFFFFFFFFFFFFFFFFFFFFFFFFFF AND PUSH4 0x70A08231 ADDRESS PUSH1 0x40 MLOAD DUP3 PUSH4 0xFFFFFFFF AND PUSH1 0xE0 SHL DUP2 MSTORE PUSH1 0x4 ADD PUSH2 0x5C7 SWAP2 SWAP1 PUSH2 0x92F JUMP JUMPDEST PUSH1 0x20 PUSH1 0x40 MLOAD DUP1 DUP4 SUB DUP2 DUP7 GAS STATICCALL ISZERO DUP1 ISZERO PUSH2 0x5E4 JUMPI RETURNDATASIZE PUSH1 0x0 DUP1 RETURNDATACOPY RETURNDATASIZE PUSH1 0x0 REVERT JUMPDEST POP POP POP POP PUSH1 0x40 MLOAD RETURNDATASIZE PUSH1 0x1F NOT PUSH1 0x1F DUP3 ADD AND DUP3 ADD DUP1 PUSH1 0x40 MSTORE POP DUP2 ADD SWAP1 PUSH2 0x608 SWAP2 SWAP1 PUSH2 0x95F JUMP JUMPDEST SWAP1 POP PUSH1 0x0 PUSH2 0x61F DUP6 DUP5 PUSH2 0x749 SWAP1 SWAP2 SWAP1 PUSH4 0xFFFFFFFF AND JUMP JUMPDEST SWAP1 POP PUSH1 0x0 PUSH2 0x638 DUP3 PUSH1 0x1 SLOAD PUSH2 0x75F SWAP1 SWAP2 SWAP1 PUSH4 0xFFFFFFFF AND JUMP JUMPDEST SWAP1 POP PUSH1 0x0 PUSH2 0x64F DUP3 DUP6 PUSH2 0x775 SWAP1 SWAP2 SWAP1 PUSH4 0xFFFFFFFF AND JUMP JUMPDEST SWAP1 POP DUP1 SWAP6 POP POP POP POP POP POP SWAP2 SWAP1 POP JUMP JUMPDEST CALLER PUSH20 0xFFFFFFFFFFFFFFFFFFFFFFFFFFFFFFFFFFFFFFFF AND PUSH1 0x2 PUSH1 0x0 SWAP1 SLOAD SWAP1 PUSH2 0x100 EXP SWAP1 DIV PUSH20 0xFFFFFFFFFFFFFFFFFFFFFFFFFFFFFFFFFFFFFFFF AND PUSH20 0xFFFFFFFFFFFFFFFFFFFFFFFFFFFFFFFFFFFFFFFF AND EQ PUSH2 0x6EE JUMPI PUSH1 0x40 MLOAD PUSH32 0x8C379A000000000000000000000000000000000000000000000000000000000 DUP2 MSTORE PUSH1 0x4 ADD PUSH2 0x6E5 SWAP1 PUSH2 0xA54 JUMP JUMPDEST PUSH1 0x40 MLOAD DUP1 SWAP2 SUB SWAP1 REVERT JUMPDEST DUP1 PUSH1 0x3 PUSH1 0x0 DUP5 PUSH20 0xFFFFFFFFFFFFFFFFFFFFFFFFFFFFFFFFFFFFFFFF AND PUSH20 0xFFFFFFFFFFFFFFFFFFFFFFFFFFFFFFFFFFFFFFFF AND DUP2 MSTORE PUSH1 0x20 ADD SWAP1 DUP2 MSTORE PUSH1 0x20 ADD PUSH1 0x0 KECCAK256 PUSH1 0x0 PUSH2 0x100 EXP DUP2 SLOAD DUP2 PUSH1 0xFF MUL NOT AND SWAP1 DUP4 ISZERO ISZERO MUL OR SWAP1 SSTORE POP POP POP JUMP JUMPDEST PUSH1 0x0 DUP2 DUP4 PUSH2 0x757 SWAP2 SWAP1 PUSH2 0xAA3 JUMP JUMPDEST SWAP1 POP SWAP3 SWAP2 POP POP JUMP JUMPDEST PUSH1 0x0 DUP2 DUP4 PUSH2 0x76D SWAP2 SWAP1 PUSH2 0xB28 JUMP JUMPDEST SWAP1 POP SWAP3 SWAP2 POP POP JUMP JUMPDEST PUSH1 0x0 DUP2 DUP4 PUSH2 0x783 SWAP2 SWAP1 PUSH2 0xB59 JUMP JUMPDEST SWAP1 POP SWAP3 SWAP2 POP POP JUMP JUMPDEST PUSH1 0x0 DUP1 REVERT JUMPDEST PUSH1 0x0 DUP2 SWAP1 POP SWAP2 SWAP1 POP JUMP JUMPDEST PUSH2 0x7A3 DUP2 PUSH2 0x790 JUMP JUMPDEST DUP2 EQ PUSH2 0x7AE JUMPI PUSH1 0x0 DUP1 REVERT JUMPDEST POP JUMP JUMPDEST PUSH1 0x0 DUP2 CALLDATALOAD SWAP1 POP PUSH2 0x7C0 DUP2 PUSH2 0x79A JUMP JUMPDEST SWAP3 SWAP2 POP POP JUMP JUMPDEST PUSH1 0x0 PUSH1 0x20 DUP3 DUP5 SUB SLT ISZERO PUSH2 0x7DC JUMPI PUSH2 0x7DB PUSH2 0x78B JUMP JUMPDEST JUMPDEST PUSH1 0x0 PUSH2 0x7EA DUP5 DUP3 DUP6 ADD PUSH2 0x7B1 JUMP JUMPDEST SWAP2 POP POP SWAP3 SWAP2 POP POP JUMP JUMPDEST PUSH2 0x7FC DUP2 PUSH2 0x790 JUMP JUMPDEST DUP3 MSTORE POP POP JUMP JUMPDEST PUSH1 0x0 PUSH1 0x20 DUP3 ADD SWAP1 POP PUSH2 0x817 PUSH1 0x0 DUP4 ADD DUP5 PUSH2 0x7F3 JUMP JUMPDEST SWAP3 SWAP2 POP POP JUMP JUMPDEST PUSH1 0x0 PUSH20 0xFFFFFFFFFFFFFFFFFFFFFFFFFFFFFFFFFFFFFFFF DUP3 AND SWAP1 POP SWAP2 SWAP1 POP JUMP JUMPDEST PUSH1 0x0 PUSH2 0x848 DUP3 PUSH2 0x81D JUMP JUMPDEST SWAP1 POP SWAP2 SWAP1 POP JUMP JUMPDEST PUSH2 0x858 DUP2 PUSH2 0x83D JUMP JUMPDEST DUP2 EQ PUSH2 0x863 JUMPI PUSH1 0x0 DUP1 REVERT JUMPDEST POP JUMP JUMPDEST PUSH1 0x0 DUP2 CALLDATALOAD SWAP1 POP PUSH2 0x875 DUP2 PUSH2 0x84F JUMP JUMPDEST SWAP3 SWAP2 POP POP JUMP JUMPDEST PUSH1 0x0 PUSH1 0x20 DUP3 DUP5 SUB SLT ISZERO PUSH2 0x891 JUMPI PUSH2 0x890 PUSH2 0x78B JUMP JUMPDEST JUMPDEST PUSH1 0x0 PUSH2 0x89F DUP5 DUP3 DUP6 ADD PUSH2 0x866 JUMP JUMPDEST SWAP2 POP POP SWAP3 SWAP2 POP POP JUMP JUMPDEST PUSH1 0x0 DUP2 ISZERO ISZERO SWAP1 POP SWAP2 SWAP1 POP JUMP JUMPDEST PUSH2 0x8BD DUP2 PUSH2 0x8A8 JUMP JUMPDEST DUP2 EQ PUSH2 0x8C8 JUMPI PUSH1 0x0 DUP1 REVERT JUMPDEST POP JUMP JUMPDEST PUSH1 0x0 DUP2 CALLDATALOAD SWAP1 POP PUSH2 0x8DA DUP2 PUSH2 0x8B4 JUMP JUMPDEST SWAP3 SWAP2 POP POP JUMP JUMPDEST PUSH1 0x0 DUP1 PUSH1 0x40 DUP4 DUP6 SUB SLT ISZERO PUSH2 0x8F7 JUMPI PUSH2 0x8F6 PUSH2 0x78B JUMP JUMPDEST JUMPDEST PUSH1 0x0 PUSH2 0x905 DUP6 DUP3 DUP7 ADD PUSH2 0x866 JUMP JUMPDEST SWAP3 POP POP PUSH1 0x20 PUSH2 0x916 DUP6 DUP3 DUP7 ADD PUSH2 0x8CB JUMP JUMPDEST SWAP2 POP POP SWAP3 POP SWAP3 SWAP1 POP JUMP JUMPDEST PUSH2 0x929 DUP2 PUSH2 0x83D JUMP JUMPDEST DUP3 MSTORE POP POP JUMP JUMPDEST PUSH1 0x0 PUSH1 0x20 DUP3 ADD SWAP1 POP PUSH2 0x944 PUSH1 0x0 DUP4 ADD DUP5 PUSH2 0x920 JUMP JUMPDEST SWAP3 SWAP2 POP POP JUMP JUMPDEST PUSH1 0x0 DUP2 MLOAD SWAP1 POP PUSH2 0x959 DUP2 PUSH2 0x79A JUMP JUMPDEST SWAP3 SWAP2 POP POP JUMP JUMPDEST PUSH1 0x0 PUSH1 0x20 DUP3 DUP5 SUB SLT ISZERO PUSH2 0x975 JUMPI PUSH2 0x974 PUSH2 0x78B JUMP JUMPDEST JUMPDEST PUSH1 0x0 PUSH2 0x983 DUP5 DUP3 DUP6 ADD PUSH2 0x94A JUMP JUMPDEST SWAP2 POP POP SWAP3 SWAP2 POP POP JUMP JUMPDEST PUSH1 0x0 PUSH1 0x40 DUP3 ADD SWAP1 POP PUSH2 0x9A1 PUSH1 0x0 DUP4 ADD DUP6 PUSH2 0x920 JUMP JUMPDEST PUSH2 0x9AE PUSH1 0x20 DUP4 ADD DUP5 PUSH2 0x7F3 JUMP JUMPDEST SWAP4 SWAP3 POP POP POP JUMP JUMPDEST PUSH1 0x0 DUP2 MLOAD SWAP1 POP PUSH2 0x9C4 DUP2 PUSH2 0x8B4 JUMP JUMPDEST SWAP3 SWAP2 POP POP JUMP JUMPDEST PUSH1 0x0 PUSH1 0x20 DUP3 DUP5 SUB SLT ISZERO PUSH2 0x9E0 JUMPI PUSH2 0x9DF PUSH2 0x78B JUMP JUMPDEST JUMPDEST PUSH1 0x0 PUSH2 0x9EE DUP5 DUP3 DUP6 ADD PUSH2 0x9B5 JUMP JUMPDEST SWAP2 POP POP SWAP3 SWAP2 POP POP JUMP JUMPDEST PUSH1 0x0 DUP3 DUP3 MSTORE PUSH1 0x20 DUP3 ADD SWAP1 POP SWAP3 SWAP2 POP POP JUMP JUMPDEST PUSH32 0x4F776E61626C653A2063616C6C6572206973206E6F7420746865206F776E6572 PUSH1 0x0 DUP3 ADD MSTORE POP JUMP JUMPDEST PUSH1 0x0 PUSH2 0xA3E PUSH1 0x20 DUP4 PUSH2 0x9F7 JUMP JUMPDEST SWAP2 POP PUSH2 0xA49 DUP3 PUSH2 0xA08 JUMP JUMPDEST PUSH1 0x20 DUP3 ADD SWAP1 POP SWAP2 SWAP1 POP JUMP JUMPDEST PUSH1 0x0 PUSH1 0x20 DUP3 ADD SWAP1 POP DUP2 DUP2 SUB PUSH1 0x0 DUP4 ADD MSTORE PUSH2 0xA6D DUP2 PUSH2 0xA31 JUMP JUMPDEST SWAP1 POP SWAP2 SWAP1 POP JUMP JUMPDEST PUSH32 0x4E487B7100000000000000000000000000000000000000000000000000000000 PUSH1 0x0 MSTORE PUSH1 0x11 PUSH1 0x4 MSTORE PUSH1 0x24 PUSH1 0x0 REVERT JUMPDEST PUSH1 0x0 PUSH2 0xAAE DUP3 PUSH2 0x790 JUMP JUMPDEST SWAP2 POP PUSH2 0xAB9 DUP4 PUSH2 0x790 JUMP JUMPDEST SWAP3 POP DUP3 PUSH32 0xFFFFFFFFFFFFFFFFFFFFFFFFFFFFFFFFFFFFFFFFFFFFFFFFFFFFFFFFFFFFFFFF SUB DUP3 GT ISZERO PUSH2 0xAEE JUMPI PUSH2 0xAED PUSH2 0xA74 JUMP JUMPDEST JUMPDEST DUP3 DUP3 ADD SWAP1 POP SWAP3 SWAP2 POP POP JUMP JUMPDEST PUSH32 0x4E487B7100000000000000000000000000000000000000000000000000000000 PUSH1 0x0 MSTORE PUSH1 0x12 PUSH1 0x4 MSTORE PUSH1 0x24 PUSH1 0x0 REVERT JUMPDEST PUSH1 0x0 PUSH2 0xB33 DUP3 PUSH2 0x790 JUMP JUMPDEST SWAP2 POP PUSH2 0xB3E DUP4 PUSH2 0x790 JUMP JUMPDEST SWAP3 POP DUP3 PUSH2 0xB4E JUMPI PUSH2 0xB4D PUSH2 0xAF9 JUMP JUMPDEST JUMPDEST DUP3 DUP3 DIV SWAP1 POP SWAP3 SWAP2 POP POP JUMP JUMPDEST PUSH1 0x0 PUSH2 0xB64 DUP3 PUSH2 0x790 JUMP JUMPDEST SWAP2 POP PUSH2 0xB6F DUP4 PUSH2 0x790 JUMP JUMPDEST SWAP3 POP DUP3 DUP3 LT ISZERO PUSH2 0xB82 JUMPI PUSH2 0xB81 PUSH2 0xA74 JUMP JUMPDEST JUMPDEST DUP3 DUP3 SUB SWAP1 POP SWAP3 SWAP2 POP POP JUMP INVALID LOG2 PUSH5 0x6970667358 0x22 SLT KECCAK256 0xBE PUSH15 0x95C308CBA440D1AD55E1625689037E 0xAF RETURNDATASIZE CREATE 0xEE JUMPDEST 0x2A JUMPI SHL DUP16 0xD0 0xF9 PUSH10 0xF94E5C64736F6C634300 ADDMOD 0xE STOP CALLER "
				},
				"gasEstimates": {
					"creation": {
						"codeDepositCost": "602200",
						"executionCost": "infinite",
						"totalCost": "infinite"
					},
					"external": {
						"DCF_ETH(uint256)": "infinite",
						"ETH_DCF(uint256)": "infinite",
						"mar(address)": "infinite",
						"setRouter(address,bool)": "27227",
						"subscribe(address)": "infinite"
					}
				},
				"methodIdentifiers": {
					"DCF_ETH(uint256)": "3a23bf49",
					"ETH_DCF(uint256)": "97dedb1d",
					"mar(address)": "6f515f3d",
					"setRouter(address,bool)": "c3c64674",
					"subscribe(address)": "41a7726a"
				}
			},
			"storageLayout": {
				"storage": [
					{
						"astId": 402,
						"contract": "Dcoffer/treasury.sol:treasury",
						"label": "dcoff",
						"offset": 0,
						"slot": "0",
						"type": "t_contract(IERC20)77"
					},
					{
						"astId": 404,
						"contract": "Dcoffer/treasury.sol:treasury",
						"label": "K",
						"offset": 0,
						"slot": "1",
						"type": "t_uint256"
					},
					{
						"astId": 421,
						"contract": "Dcoffer/treasury.sol:treasury",
						"label": "owner",
						"offset": 0,
						"slot": "2",
						"type": "t_address"
					},
					{
						"astId": 425,
						"contract": "Dcoffer/treasury.sol:treasury",
						"label": "RouterAdmin",
						"offset": 0,
						"slot": "3",
						"type": "t_mapping(t_address,t_bool)"
					}
				],
				"types": {
					"t_address": {
						"encoding": "inplace",
						"label": "address",
						"numberOfBytes": "20"
					},
					"t_bool": {
						"encoding": "inplace",
						"label": "bool",
						"numberOfBytes": "1"
					},
					"t_contract(IERC20)77": {
						"encoding": "inplace",
						"label": "contract IERC20",
						"numberOfBytes": "20"
					},
					"t_mapping(t_address,t_bool)": {
						"encoding": "mapping",
						"key": "t_address",
						"label": "mapping(address => bool)",
						"numberOfBytes": "32",
						"value": "t_bool"
					},
					"t_uint256": {
						"encoding": "inplace",
						"label": "uint256",
						"numberOfBytes": "32"
					}
				}
			},
			"userdoc": {
				"kind": "user",
				"methods": {},
				"version": 1
			}
		}
	}
}