{
	"ERC721A/ERC721A.sol": {
		"ERC721A": {
			"abi": [
				{
					"inputs": [
						{
							"internalType": "string",
							"name": "name_",
							"type": "string"
						},
						{
							"internalType": "string",
							"name": "symbol_",
							"type": "string"
						}
					],
					"stateMutability": "nonpayable",
					"type": "constructor"
				},
				{
					"inputs": [],
					"name": "ApprovalCallerNotOwnerNorApproved",
					"type": "error"
				},
				{
					"inputs": [],
					"name": "ApprovalQueryForNonexistentToken",
					"type": "error"
				},
				{
					"inputs": [],
					"name": "ApprovalToCurrentOwner",
					"type": "error"
				},
				{
					"inputs": [],
					"name": "ApproveToCaller",
					"type": "error"
				},
				{
					"inputs": [],
					"name": "BalanceQueryForZeroAddress",
					"type": "error"
				},
				{
					"inputs": [],
					"name": "MintToZeroAddress",
					"type": "error"
				},
				{
					"inputs": [],
					"name": "MintZeroQuantity",
					"type": "error"
				},
				{
					"inputs": [],
					"name": "OwnerQueryForNonexistentToken",
					"type": "error"
				},
				{
					"inputs": [],
					"name": "TransferCallerNotOwnerNorApproved",
					"type": "error"
				},
				{
					"inputs": [],
					"name": "TransferFromIncorrectOwner",
					"type": "error"
				},
				{
					"inputs": [],
					"name": "TransferToNonERC721ReceiverImplementer",
					"type": "error"
				},
				{
					"inputs": [],
					"name": "TransferToZeroAddress",
					"type": "error"
				},
				{
					"inputs": [],
					"name": "URIQueryForNonexistentToken",
					"type": "error"
				},
				{
					"anonymous": false,
					"inputs": [
						{
							"indexed": true,
							"internalType": "address",
							"name": "owner",
							"type": "address"
						},
						{
							"indexed": true,
							"internalType": "address",
							"name": "approved",
							"type": "address"
						},
						{
							"indexed": true,
							"internalType": "uint256",
							"name": "tokenId",
							"type": "uint256"
						}
					],
					"name": "Approval",
					"type": "event"
				},
				{
					"anonymous": false,
					"inputs": [
						{
							"indexed": true,
							"internalType": "address",
							"name": "owner",
							"type": "address"
						},
						{
							"indexed": true,
							"internalType": "address",
							"name": "operator",
							"type": "address"
						},
						{
							"indexed": false,
							"internalType": "bool",
							"name": "approved",
							"type": "bool"
						}
					],
					"name": "ApprovalForAll",
					"type": "event"
				},
				{
					"anonymous": false,
					"inputs": [
						{
							"indexed": true,
							"internalType": "address",
							"name": "from",
							"type": "address"
						},
						{
							"indexed": true,
							"internalType": "address",
							"name": "to",
							"type": "address"
						},
						{
							"indexed": true,
							"internalType": "uint256",
							"name": "tokenId",
							"type": "uint256"
						}
					],
					"name": "Transfer",
					"type": "event"
				},
				{
					"inputs": [
						{
							"internalType": "address",
							"name": "user",
							"type": "address"
						}
					],
					"name": "BlockScore",
					"outputs": [
						{
							"internalType": "uint256",
							"name": "",
							"type": "uint256"
						}
					],
					"stateMutability": "view",
					"type": "function"
				},
				{
					"inputs": [],
					"name": "CountBlockScore",
					"outputs": [],
					"stateMutability": "nonpayable",
					"type": "function"
				},
				{
					"inputs": [
						{
							"internalType": "address",
							"name": "to",
							"type": "address"
						},
						{
							"internalType": "uint256",
							"name": "tokenId",
							"type": "uint256"
						}
					],
					"name": "approve",
					"outputs": [],
					"stateMutability": "nonpayable",
					"type": "function"
				},
				{
					"inputs": [
						{
							"internalType": "address",
							"name": "owner",
							"type": "address"
						}
					],
					"name": "balanceOf",
					"outputs": [
						{
							"internalType": "uint256",
							"name": "",
							"type": "uint256"
						}
					],
					"stateMutability": "view",
					"type": "function"
				},
				{
					"inputs": [
						{
							"internalType": "uint256",
							"name": "tokenId",
							"type": "uint256"
						}
					],
					"name": "getApproved",
					"outputs": [
						{
							"internalType": "address",
							"name": "",
							"type": "address"
						}
					],
					"stateMutability": "view",
					"type": "function"
				},
				{
					"inputs": [
						{
							"internalType": "address",
							"name": "owner",
							"type": "address"
						},
						{
							"internalType": "address",
							"name": "operator",
							"type": "address"
						}
					],
					"name": "isApprovedForAll",
					"outputs": [
						{
							"internalType": "bool",
							"name": "",
							"type": "bool"
						}
					],
					"stateMutability": "view",
					"type": "function"
				},
				{
					"inputs": [],
					"name": "name",
					"outputs": [
						{
							"internalType": "string",
							"name": "",
							"type": "string"
						}
					],
					"stateMutability": "view",
					"type": "function"
				},
				{
					"inputs": [
						{
							"internalType": "uint256",
							"name": "tokenId",
							"type": "uint256"
						}
					],
					"name": "ownerOf",
					"outputs": [
						{
							"internalType": "address",
							"name": "",
							"type": "address"
						}
					],
					"stateMutability": "view",
					"type": "function"
				},
				{
					"inputs": [
						{
							"internalType": "address",
							"name": "from",
							"type": "address"
						},
						{
							"internalType": "address",
							"name": "to",
							"type": "address"
						},
						{
							"internalType": "uint256",
							"name": "tokenId",
							"type": "uint256"
						}
					],
					"name": "safeTransferFrom",
					"outputs": [],
					"stateMutability": "nonpayable",
					"type": "function"
				},
				{
					"inputs": [
						{
							"internalType": "address",
							"name": "from",
							"type": "address"
						},
						{
							"internalType": "address",
							"name": "to",
							"type": "address"
						},
						{
							"internalType": "uint256",
							"name": "tokenId",
							"type": "uint256"
						},
						{
							"internalType": "bytes",
							"name": "_data",
							"type": "bytes"
						}
					],
					"name": "safeTransferFrom",
					"outputs": [],
					"stateMutability": "nonpayable",
					"type": "function"
				},
				{
					"inputs": [
						{
							"internalType": "address",
							"name": "operator",
							"type": "address"
						},
						{
							"internalType": "bool",
							"name": "approved",
							"type": "bool"
						}
					],
					"name": "setApprovalForAll",
					"outputs": [],
					"stateMutability": "nonpayable",
					"type": "function"
				},
				{
					"inputs": [
						{
							"internalType": "bytes4",
							"name": "interfaceId",
							"type": "bytes4"
						}
					],
					"name": "supportsInterface",
					"outputs": [
						{
							"internalType": "bool",
							"name": "",
							"type": "bool"
						}
					],
					"stateMutability": "view",
					"type": "function"
				},
				{
					"inputs": [],
					"name": "symbol",
					"outputs": [
						{
							"internalType": "string",
							"name": "",
							"type": "string"
						}
					],
					"stateMutability": "view",
					"type": "function"
				},
				{
					"inputs": [
						{
							"internalType": "uint256",
							"name": "tokenId",
							"type": "uint256"
						}
					],
					"name": "tokenURI",
					"outputs": [
						{
							"internalType": "string",
							"name": "",
							"type": "string"
						}
					],
					"stateMutability": "view",
					"type": "function"
				},
				{
					"inputs": [],
					"name": "totalSupply",
					"outputs": [
						{
							"internalType": "uint256",
							"name": "",
							"type": "uint256"
						}
					],
					"stateMutability": "view",
					"type": "function"
				},
				{
					"inputs": [
						{
							"internalType": "address",
							"name": "from",
							"type": "address"
						},
						{
							"internalType": "address",
							"name": "to",
							"type": "address"
						},
						{
							"internalType": "uint256",
							"name": "tokenId",
							"type": "uint256"
						}
					],
					"name": "transferFrom",
					"outputs": [],
					"stateMutability": "nonpayable",
					"type": "function"
				}
			],
			"devdoc": {
				"details": "Implementation of https://eips.ethereum.org/EIPS/eip-721[ERC721] Non-Fungible Token Standard, including the Metadata extension. Built to optimize for lower gas during batch mints. Assumes serials are sequentially minted starting at _startTokenId() (defaults to 0, e.g. 0, 1, 2, 3..). Assumes that an owner cannot have more than 2**64 - 1 (max value of uint64) of supply. Assumes that the maximum token id cannot exceed 2**256 - 1 (max value of uint256).",
				"kind": "dev",
				"methods": {
					"approve(address,uint256)": {
						"details": "See {IERC721-approve}."
					},
					"balanceOf(address)": {
						"details": "See {IERC721-balanceOf}."
					},
					"getApproved(uint256)": {
						"details": "See {IERC721-getApproved}."
					},
					"isApprovedForAll(address,address)": {
						"details": "See {IERC721-isApprovedForAll}."
					},
					"name()": {
						"details": "See {IERC721Metadata-name}."
					},
					"ownerOf(uint256)": {
						"details": "See {IERC721-ownerOf}."
					},
					"safeTransferFrom(address,address,uint256)": {
						"details": "See {IERC721-safeTransferFrom}."
					},
					"safeTransferFrom(address,address,uint256,bytes)": {
						"details": "See {IERC721-safeTransferFrom}."
					},
					"setApprovalForAll(address,bool)": {
						"details": "See {IERC721-setApprovalForAll}."
					},
					"supportsInterface(bytes4)": {
						"details": "See {IERC165-supportsInterface}."
					},
					"symbol()": {
						"details": "See {IERC721Metadata-symbol}."
					},
					"tokenURI(uint256)": {
						"details": "See {IERC721Metadata-tokenURI}."
					},
					"totalSupply()": {
						"details": "Burned tokens are calculated here, use _totalMinted() if you want to count just minted tokens."
					},
					"transferFrom(address,address,uint256)": {
						"details": "See {IERC721-transferFrom}."
					}
				},
				"version": 1
			},
			"evm": {
				"assembly": "    /* \"ERC721A/ERC721A.sol\":1018:22647  contract ERC721A is Context, ERC165, IERC721A, IDCF {... */\n  mstore(0x40, 0x80)\n    /* \"ERC721A/ERC721A.sol\":2181:2339  constructor(string memory name_, string memory symbol_) {... */\n  callvalue\n  dup1\n  iszero\n  tag_1\n  jumpi\n  0x00\n  dup1\n  revert\ntag_1:\n  pop\n  mload(0x40)\n  sub(codesize, bytecodeSize)\n  dup1\n  bytecodeSize\n  dup4\n  codecopy\n  dup2\n  dup2\n  add\n  0x40\n  mstore\n  dup2\n  add\n  swap1\n  tag_2\n  swap2\n  swap1\n  tag_3\n  jump\t// in\ntag_2:\n    /* \"ERC721A/ERC721A.sol\":2256:2261  name_ */\n  dup2\n    /* \"ERC721A/ERC721A.sol\":2248:2253  _name */\n  0x02\n    /* \"ERC721A/ERC721A.sol\":2248:2261  _name = name_ */\n  swap1\n  dup1\n  mload\n  swap1\n  0x20\n  add\n  swap1\n  tag_6\n  swap3\n  swap2\n  swap1\n  tag_7\n  jump\t// in\ntag_6:\n  pop\n    /* \"ERC721A/ERC721A.sol\":2282:2289  symbol_ */\n  dup1\n    /* \"ERC721A/ERC721A.sol\":2272:2279  _symbol */\n  0x03\n    /* \"ERC721A/ERC721A.sol\":2272:2289  _symbol = symbol_ */\n  swap1\n  dup1\n  mload\n  swap1\n  0x20\n  add\n  swap1\n  tag_8\n  swap3\n  swap2\n  swap1\n  tag_7\n  jump\t// in\ntag_8:\n  pop\n    /* \"ERC721A/ERC721A.sol\":2316:2331  _startTokenId() */\n  tag_9\n    /* \"ERC721A/ERC721A.sol\":2316:2329  _startTokenId */\n  shl(0x20, tag_10)\n    /* \"ERC721A/ERC721A.sol\":2316:2331  _startTokenId() */\n  0x20\n  shr\n  jump\t// in\ntag_9:\n    /* \"ERC721A/ERC721A.sol\":2300:2313  _currentIndex */\n  0x00\n    /* \"ERC721A/ERC721A.sol\":2300:2331  _currentIndex = _startTokenId() */\n  dup2\n  swap1\n  sstore\n  pop\n    /* \"ERC721A/ERC721A.sol\":2181:2339  constructor(string memory name_, string memory symbol_) {... */\n  pop\n  pop\n    /* \"ERC721A/ERC721A.sol\":1018:22647  contract ERC721A is Context, ERC165, IERC721A, IDCF {... */\n  jump(tag_11)\n    /* \"ERC721A/ERC721A.sol\":2770:2862  function _startTokenId() internal view virtual returns (uint256) {... */\ntag_10:\n    /* \"ERC721A/ERC721A.sol\":2826:2833  uint256 */\n  0x00\n    /* \"ERC721A/ERC721A.sol\":2853:2854  1 */\n  0x01\n    /* \"ERC721A/ERC721A.sol\":2846:2854  return 1 */\n  swap1\n  pop\n    /* \"ERC721A/ERC721A.sol\":2770:2862  function _startTokenId() internal view virtual returns (uint256) {... */\n  swap1\n  jump\t// out\n    /* \"ERC721A/ERC721A.sol\":1018:22647  contract ERC721A is Context, ERC165, IERC721A, IDCF {... */\ntag_7:\n  dup3\n  dup1\n  sload\n  tag_13\n  swap1\n  tag_14\n  jump\t// in\ntag_13:\n  swap1\n  0x00\n  mstore\n  keccak256(0x00, 0x20)\n  swap1\n  0x1f\n  add\n  0x20\n  swap1\n  div\n  dup2\n  add\n  swap3\n  dup3\n  tag_16\n  jumpi\n  0x00\n  dup6\n  sstore\n  jump(tag_15)\ntag_16:\n  dup3\n  0x1f\n  lt\n  tag_17\n  jumpi\n  dup1\n  mload\n  not(0xff)\n  and\n  dup4\n  dup1\n  add\n  or\n  dup6\n  sstore\n  jump(tag_15)\ntag_17:\n  dup3\n  dup1\n  add\n  0x01\n  add\n  dup6\n  sstore\n  dup3\n  iszero\n  tag_15\n  jumpi\n  swap2\n  dup3\n  add\ntag_18:\n  dup3\n  dup2\n  gt\n  iszero\n  tag_19\n  jumpi\n  dup3\n  mload\n  dup3\n  sstore\n  swap2\n  0x20\n  add\n  swap2\n  swap1\n  0x01\n  add\n  swap1\n  jump(tag_18)\ntag_19:\ntag_15:\n  pop\n  swap1\n  pop\n  tag_20\n  swap2\n  swap1\n  tag_21\n  jump\t// in\ntag_20:\n  pop\n  swap1\n  jump\t// out\ntag_21:\ntag_22:\n  dup1\n  dup3\n  gt\n  iszero\n  tag_23\n  jumpi\n  0x00\n  dup2\n  0x00\n  swap1\n  sstore\n  pop\n  0x01\n  add\n  jump(tag_22)\ntag_23:\n  pop\n  swap1\n  jump\t// out\n    /* \"#utility.yul\":7:82   */\ntag_24:\n    /* \"#utility.yul\":40:46   */\n  0x00\n    /* \"#utility.yul\":73:75   */\n  0x40\n    /* \"#utility.yul\":67:76   */\n  mload\n    /* \"#utility.yul\":57:76   */\n  swap1\n  pop\n    /* \"#utility.yul\":7:82   */\n  swap1\n  jump\t// out\n    /* \"#utility.yul\":88:205   */\ntag_25:\n    /* \"#utility.yul\":197:198   */\n  0x00\n    /* \"#utility.yul\":194:195   */\n  dup1\n    /* \"#utility.yul\":187:199   */\n  revert\n    /* \"#utility.yul\":211:328   */\ntag_26:\n    /* \"#utility.yul\":320:321   */\n  0x00\n    /* \"#utility.yul\":317:318   */\n  dup1\n    /* \"#utility.yul\":310:322   */\n  revert\n    /* \"#utility.yul\":334:451   */\ntag_27:\n    /* \"#utility.yul\":443:444   */\n  0x00\n    /* \"#utility.yul\":440:441   */\n  dup1\n    /* \"#utility.yul\":433:445   */\n  revert\n    /* \"#utility.yul\":457:574   */\ntag_28:\n    /* \"#utility.yul\":566:567   */\n  0x00\n    /* \"#utility.yul\":563:564   */\n  dup1\n    /* \"#utility.yul\":556:568   */\n  revert\n    /* \"#utility.yul\":580:682   */\ntag_29:\n    /* \"#utility.yul\":621:627   */\n  0x00\n    /* \"#utility.yul\":672:674   */\n  0x1f\n    /* \"#utility.yul\":668:675   */\n  not\n    /* \"#utility.yul\":663:665   */\n  0x1f\n    /* \"#utility.yul\":656:661   */\n  dup4\n    /* \"#utility.yul\":652:666   */\n  add\n    /* \"#utility.yul\":648:676   */\n  and\n    /* \"#utility.yul\":638:676   */\n  swap1\n  pop\n    /* \"#utility.yul\":580:682   */\n  swap2\n  swap1\n  pop\n  jump\t// out\n    /* \"#utility.yul\":688:868   */\ntag_30:\n    /* \"#utility.yul\":736:813   */\n  0x4e487b7100000000000000000000000000000000000000000000000000000000\n    /* \"#utility.yul\":733:734   */\n  0x00\n    /* \"#utility.yul\":726:814   */\n  mstore\n    /* \"#utility.yul\":833:837   */\n  0x41\n    /* \"#utility.yul\":830:831   */\n  0x04\n    /* \"#utility.yul\":823:838   */\n  mstore\n    /* \"#utility.yul\":857:861   */\n  0x24\n    /* \"#utility.yul\":854:855   */\n  0x00\n    /* \"#utility.yul\":847:862   */\n  revert\n    /* \"#utility.yul\":874:1155   */\ntag_31:\n    /* \"#utility.yul\":957:984   */\n  tag_47\n    /* \"#utility.yul\":979:983   */\n  dup3\n    /* \"#utility.yul\":957:984   */\n  tag_29\n  jump\t// in\ntag_47:\n    /* \"#utility.yul\":949:955   */\n  dup2\n    /* \"#utility.yul\":945:985   */\n  add\n    /* \"#utility.yul\":1087:1093   */\n  dup2\n    /* \"#utility.yul\":1075:1085   */\n  dup2\n    /* \"#utility.yul\":1072:1094   */\n  lt\n    /* \"#utility.yul\":1051:1069   */\n  0xffffffffffffffff\n    /* \"#utility.yul\":1039:1049   */\n  dup3\n    /* \"#utility.yul\":1036:1070   */\n  gt\n    /* \"#utility.yul\":1033:1095   */\n  or\n    /* \"#utility.yul\":1030:1118   */\n  iszero\n  tag_48\n  jumpi\n    /* \"#utility.yul\":1098:1116   */\n  tag_49\n  tag_30\n  jump\t// in\ntag_49:\n    /* \"#utility.yul\":1030:1118   */\ntag_48:\n    /* \"#utility.yul\":1138:1148   */\n  dup1\n    /* \"#utility.yul\":1134:1136   */\n  0x40\n    /* \"#utility.yul\":1127:1149   */\n  mstore\n    /* \"#utility.yul\":917:1155   */\n  pop\n    /* \"#utility.yul\":874:1155   */\n  pop\n  pop\n  jump\t// out\n    /* \"#utility.yul\":1161:1290   */\ntag_32:\n    /* \"#utility.yul\":1195:1201   */\n  0x00\n    /* \"#utility.yul\":1222:1242   */\n  tag_51\n  tag_24\n  jump\t// in\ntag_51:\n    /* \"#utility.yul\":1212:1242   */\n  swap1\n  pop\n    /* \"#utility.yul\":1251:1284   */\n  tag_52\n    /* \"#utility.yul\":1279:1283   */\n  dup3\n    /* \"#utility.yul\":1271:1277   */\n  dup3\n    /* \"#utility.yul\":1251:1284   */\n  tag_31\n  jump\t// in\ntag_52:\n    /* \"#utility.yul\":1161:1290   */\n  swap2\n  swap1\n  pop\n  jump\t// out\n    /* \"#utility.yul\":1296:1604   */\ntag_33:\n    /* \"#utility.yul\":1358:1362   */\n  0x00\n    /* \"#utility.yul\":1448:1466   */\n  0xffffffffffffffff\n    /* \"#utility.yul\":1440:1446   */\n  dup3\n    /* \"#utility.yul\":1437:1467   */\n  gt\n    /* \"#utility.yul\":1434:1490   */\n  iszero\n  tag_54\n  jumpi\n    /* \"#utility.yul\":1470:1488   */\n  tag_55\n  tag_30\n  jump\t// in\ntag_55:\n    /* \"#utility.yul\":1434:1490   */\ntag_54:\n    /* \"#utility.yul\":1508:1537   */\n  tag_56\n    /* \"#utility.yul\":1530:1536   */\n  dup3\n    /* \"#utility.yul\":1508:1537   */\n  tag_29\n  jump\t// in\ntag_56:\n    /* \"#utility.yul\":1500:1537   */\n  swap1\n  pop\n    /* \"#utility.yul\":1592:1596   */\n  0x20\n    /* \"#utility.yul\":1586:1590   */\n  dup2\n    /* \"#utility.yul\":1582:1597   */\n  add\n    /* \"#utility.yul\":1574:1597   */\n  swap1\n  pop\n    /* \"#utility.yul\":1296:1604   */\n  swap2\n  swap1\n  pop\n  jump\t// out\n    /* \"#utility.yul\":1610:1917   */\ntag_34:\n    /* \"#utility.yul\":1678:1679   */\n  0x00\n    /* \"#utility.yul\":1688:1801   */\ntag_58:\n    /* \"#utility.yul\":1702:1708   */\n  dup4\n    /* \"#utility.yul\":1699:1700   */\n  dup2\n    /* \"#utility.yul\":1696:1709   */\n  lt\n    /* \"#utility.yul\":1688:1801   */\n  iszero\n  tag_60\n  jumpi\n    /* \"#utility.yul\":1787:1788   */\n  dup1\n    /* \"#utility.yul\":1782:1785   */\n  dup3\n    /* \"#utility.yul\":1778:1789   */\n  add\n    /* \"#utility.yul\":1772:1790   */\n  mload\n    /* \"#utility.yul\":1768:1769   */\n  dup2\n    /* \"#utility.yul\":1763:1766   */\n  dup5\n    /* \"#utility.yul\":1759:1770   */\n  add\n    /* \"#utility.yul\":1752:1791   */\n  mstore\n    /* \"#utility.yul\":1724:1726   */\n  0x20\n    /* \"#utility.yul\":1721:1722   */\n  dup2\n    /* \"#utility.yul\":1717:1727   */\n  add\n    /* \"#utility.yul\":1712:1727   */\n  swap1\n  pop\n    /* \"#utility.yul\":1688:1801   */\n  jump(tag_58)\ntag_60:\n    /* \"#utility.yul\":1819:1825   */\n  dup4\n    /* \"#utility.yul\":1816:1817   */\n  dup2\n    /* \"#utility.yul\":1813:1826   */\n  gt\n    /* \"#utility.yul\":1810:1911   */\n  iszero\n  tag_61\n  jumpi\n    /* \"#utility.yul\":1899:1900   */\n  0x00\n    /* \"#utility.yul\":1890:1896   */\n  dup5\n    /* \"#utility.yul\":1885:1888   */\n  dup5\n    /* \"#utility.yul\":1881:1897   */\n  add\n    /* \"#utility.yul\":1874:1901   */\n  mstore\n    /* \"#utility.yul\":1810:1911   */\ntag_61:\n    /* \"#utility.yul\":1659:1917   */\n  pop\n    /* \"#utility.yul\":1610:1917   */\n  pop\n  pop\n  pop\n  jump\t// out\n    /* \"#utility.yul\":1923:2344   */\ntag_35:\n    /* \"#utility.yul\":2012:2017   */\n  0x00\n    /* \"#utility.yul\":2037:2103   */\n  tag_63\n    /* \"#utility.yul\":2053:2102   */\n  tag_64\n    /* \"#utility.yul\":2095:2101   */\n  dup5\n    /* \"#utility.yul\":2053:2102   */\n  tag_33\n  jump\t// in\ntag_64:\n    /* \"#utility.yul\":2037:2103   */\n  tag_32\n  jump\t// in\ntag_63:\n    /* \"#utility.yul\":2028:2103   */\n  swap1\n  pop\n    /* \"#utility.yul\":2126:2132   */\n  dup3\n    /* \"#utility.yul\":2119:2124   */\n  dup2\n    /* \"#utility.yul\":2112:2133   */\n  mstore\n    /* \"#utility.yul\":2164:2168   */\n  0x20\n    /* \"#utility.yul\":2157:2162   */\n  dup2\n    /* \"#utility.yul\":2153:2169   */\n  add\n    /* \"#utility.yul\":2202:2205   */\n  dup5\n    /* \"#utility.yul\":2193:2199   */\n  dup5\n    /* \"#utility.yul\":2188:2191   */\n  dup5\n    /* \"#utility.yul\":2184:2200   */\n  add\n    /* \"#utility.yul\":2181:2206   */\n  gt\n    /* \"#utility.yul\":2178:2290   */\n  iszero\n  tag_65\n  jumpi\n    /* \"#utility.yul\":2209:2288   */\n  tag_66\n  tag_28\n  jump\t// in\ntag_66:\n    /* \"#utility.yul\":2178:2290   */\ntag_65:\n    /* \"#utility.yul\":2299:2338   */\n  tag_67\n    /* \"#utility.yul\":2331:2337   */\n  dup5\n    /* \"#utility.yul\":2326:2329   */\n  dup3\n    /* \"#utility.yul\":2321:2324   */\n  dup6\n    /* \"#utility.yul\":2299:2338   */\n  tag_34\n  jump\t// in\ntag_67:\n    /* \"#utility.yul\":2018:2344   */\n  pop\n    /* \"#utility.yul\":1923:2344   */\n  swap4\n  swap3\n  pop\n  pop\n  pop\n  jump\t// out\n    /* \"#utility.yul\":2364:2719   */\ntag_36:\n    /* \"#utility.yul\":2431:2436   */\n  0x00\n    /* \"#utility.yul\":2480:2483   */\n  dup3\n    /* \"#utility.yul\":2473:2477   */\n  0x1f\n    /* \"#utility.yul\":2465:2471   */\n  dup4\n    /* \"#utility.yul\":2461:2478   */\n  add\n    /* \"#utility.yul\":2457:2484   */\n  slt\n    /* \"#utility.yul\":2447:2569   */\n  tag_69\n  jumpi\n    /* \"#utility.yul\":2488:2567   */\n  tag_70\n  tag_27\n  jump\t// in\ntag_70:\n    /* \"#utility.yul\":2447:2569   */\ntag_69:\n    /* \"#utility.yul\":2598:2604   */\n  dup2\n    /* \"#utility.yul\":2592:2605   */\n  mload\n    /* \"#utility.yul\":2623:2713   */\n  tag_71\n    /* \"#utility.yul\":2709:2712   */\n  dup5\n    /* \"#utility.yul\":2701:2707   */\n  dup3\n    /* \"#utility.yul\":2694:2698   */\n  0x20\n    /* \"#utility.yul\":2686:2692   */\n  dup7\n    /* \"#utility.yul\":2682:2699   */\n  add\n    /* \"#utility.yul\":2623:2713   */\n  tag_35\n  jump\t// in\ntag_71:\n    /* \"#utility.yul\":2614:2713   */\n  swap2\n  pop\n    /* \"#utility.yul\":2437:2719   */\n  pop\n    /* \"#utility.yul\":2364:2719   */\n  swap3\n  swap2\n  pop\n  pop\n  jump\t// out\n    /* \"#utility.yul\":2725:3578   */\ntag_3:\n    /* \"#utility.yul\":2824:2830   */\n  0x00\n    /* \"#utility.yul\":2832:2838   */\n  dup1\n    /* \"#utility.yul\":2881:2883   */\n  0x40\n    /* \"#utility.yul\":2869:2878   */\n  dup4\n    /* \"#utility.yul\":2860:2867   */\n  dup6\n    /* \"#utility.yul\":2856:2879   */\n  sub\n    /* \"#utility.yul\":2852:2884   */\n  slt\n    /* \"#utility.yul\":2849:2968   */\n  iszero\n  tag_73\n  jumpi\n    /* \"#utility.yul\":2887:2966   */\n  tag_74\n  tag_25\n  jump\t// in\ntag_74:\n    /* \"#utility.yul\":2849:2968   */\ntag_73:\n    /* \"#utility.yul\":3028:3029   */\n  0x00\n    /* \"#utility.yul\":3017:3026   */\n  dup4\n    /* \"#utility.yul\":3013:3030   */\n  add\n    /* \"#utility.yul\":3007:3031   */\n  mload\n    /* \"#utility.yul\":3058:3076   */\n  0xffffffffffffffff\n    /* \"#utility.yul\":3050:3056   */\n  dup2\n    /* \"#utility.yul\":3047:3077   */\n  gt\n    /* \"#utility.yul\":3044:3161   */\n  iszero\n  tag_75\n  jumpi\n    /* \"#utility.yul\":3080:3159   */\n  tag_76\n  tag_26\n  jump\t// in\ntag_76:\n    /* \"#utility.yul\":3044:3161   */\ntag_75:\n    /* \"#utility.yul\":3185:3259   */\n  tag_77\n    /* \"#utility.yul\":3251:3258   */\n  dup6\n    /* \"#utility.yul\":3242:3248   */\n  dup3\n    /* \"#utility.yul\":3231:3240   */\n  dup7\n    /* \"#utility.yul\":3227:3249   */\n  add\n    /* \"#utility.yul\":3185:3259   */\n  tag_36\n  jump\t// in\ntag_77:\n    /* \"#utility.yul\":3175:3259   */\n  swap3\n  pop\n    /* \"#utility.yul\":2978:3269   */\n  pop\n    /* \"#utility.yul\":3329:3331   */\n  0x20\n    /* \"#utility.yul\":3318:3327   */\n  dup4\n    /* \"#utility.yul\":3314:3332   */\n  add\n    /* \"#utility.yul\":3308:3333   */\n  mload\n    /* \"#utility.yul\":3360:3378   */\n  0xffffffffffffffff\n    /* \"#utility.yul\":3352:3358   */\n  dup2\n    /* \"#utility.yul\":3349:3379   */\n  gt\n    /* \"#utility.yul\":3346:3463   */\n  iszero\n  tag_78\n  jumpi\n    /* \"#utility.yul\":3382:3461   */\n  tag_79\n  tag_26\n  jump\t// in\ntag_79:\n    /* \"#utility.yul\":3346:3463   */\ntag_78:\n    /* \"#utility.yul\":3487:3561   */\n  tag_80\n    /* \"#utility.yul\":3553:3560   */\n  dup6\n    /* \"#utility.yul\":3544:3550   */\n  dup3\n    /* \"#utility.yul\":3533:3542   */\n  dup7\n    /* \"#utility.yul\":3529:3551   */\n  add\n    /* \"#utility.yul\":3487:3561   */\n  tag_36\n  jump\t// in\ntag_80:\n    /* \"#utility.yul\":3477:3561   */\n  swap2\n  pop\n    /* \"#utility.yul\":3279:3571   */\n  pop\n    /* \"#utility.yul\":2725:3578   */\n  swap3\n  pop\n  swap3\n  swap1\n  pop\n  jump\t// out\n    /* \"#utility.yul\":3584:3764   */\ntag_37:\n    /* \"#utility.yul\":3632:3709   */\n  0x4e487b7100000000000000000000000000000000000000000000000000000000\n    /* \"#utility.yul\":3629:3630   */\n  0x00\n    /* \"#utility.yul\":3622:3710   */\n  mstore\n    /* \"#utility.yul\":3729:3733   */\n  0x22\n    /* \"#utility.yul\":3726:3727   */\n  0x04\n    /* \"#utility.yul\":3719:3734   */\n  mstore\n    /* \"#utility.yul\":3753:3757   */\n  0x24\n    /* \"#utility.yul\":3750:3751   */\n  0x00\n    /* \"#utility.yul\":3743:3758   */\n  revert\n    /* \"#utility.yul\":3770:4090   */\ntag_14:\n    /* \"#utility.yul\":3814:3820   */\n  0x00\n    /* \"#utility.yul\":3851:3852   */\n  0x02\n    /* \"#utility.yul\":3845:3849   */\n  dup3\n    /* \"#utility.yul\":3841:3853   */\n  div\n    /* \"#utility.yul\":3831:3853   */\n  swap1\n  pop\n    /* \"#utility.yul\":3898:3899   */\n  0x01\n    /* \"#utility.yul\":3892:3896   */\n  dup3\n    /* \"#utility.yul\":3888:3900   */\n  and\n    /* \"#utility.yul\":3919:3937   */\n  dup1\n    /* \"#utility.yul\":3909:3990   */\n  tag_83\n  jumpi\n    /* \"#utility.yul\":3975:3979   */\n  0x7f\n    /* \"#utility.yul\":3967:3973   */\n  dup3\n    /* \"#utility.yul\":3963:3980   */\n  and\n    /* \"#utility.yul\":3953:3980   */\n  swap2\n  pop\n    /* \"#utility.yul\":3909:3990   */\ntag_83:\n    /* \"#utility.yul\":4037:4039   */\n  0x20\n    /* \"#utility.yul\":4029:4035   */\n  dup3\n    /* \"#utility.yul\":4026:4040   */\n  lt\n    /* \"#utility.yul\":4006:4024   */\n  dup2\n    /* \"#utility.yul\":4003:4041   */\n  sub\n    /* \"#utility.yul\":4000:4084   */\n  tag_84\n  jumpi\n    /* \"#utility.yul\":4056:4074   */\n  tag_85\n  tag_37\n  jump\t// in\ntag_85:\n    /* \"#utility.yul\":4000:4084   */\ntag_84:\n    /* \"#utility.yul\":3821:4090   */\n  pop\n    /* \"#utility.yul\":3770:4090   */\n  swap2\n  swap1\n  pop\n  jump\t// out\n    /* \"ERC721A/ERC721A.sol\":1018:22647  contract ERC721A is Context, ERC165, IERC721A, IDCF {... */\ntag_11:\n  dataSize(sub_0)\n  dup1\n  dataOffset(sub_0)\n  0x00\n  codecopy\n  0x00\n  return\nstop\n\nsub_0: assembly {\n        /* \"ERC721A/ERC721A.sol\":1018:22647  contract ERC721A is Context, ERC165, IERC721A, IDCF {... */\n      mstore(0x40, 0x80)\n      callvalue\n      dup1\n      iszero\n      tag_1\n      jumpi\n      0x00\n      dup1\n      revert\n    tag_1:\n      pop\n      jumpi(tag_2, lt(calldatasize, 0x04))\n      shr(0xe0, calldataload(0x00))\n      dup1\n      0x42842e0e\n      gt\n      tag_19\n      jumpi\n      dup1\n      0xa22cb465\n      gt\n      tag_20\n      jumpi\n      dup1\n      0xa22cb465\n      eq\n      tag_15\n      jumpi\n      dup1\n      0xb88d4fde\n      eq\n      tag_16\n      jumpi\n      dup1\n      0xc87b56dd\n      eq\n      tag_17\n      jumpi\n      dup1\n      0xe985e9c5\n      eq\n      tag_18\n      jumpi\n      jump(tag_2)\n    tag_20:\n      dup1\n      0x42842e0e\n      eq\n      tag_11\n      jumpi\n      dup1\n      0x6352211e\n      eq\n      tag_12\n      jumpi\n      dup1\n      0x70a08231\n      eq\n      tag_13\n      jumpi\n      dup1\n      0x95d89b41\n      eq\n      tag_14\n      jumpi\n      jump(tag_2)\n    tag_19:\n      dup1\n      0x18160ddd\n      gt\n      tag_21\n      jumpi\n      dup1\n      0x18160ddd\n      eq\n      tag_7\n      jumpi\n      dup1\n      0x1e96c3ee\n      eq\n      tag_8\n      jumpi\n      dup1\n      0x23b872dd\n      eq\n      tag_9\n      jumpi\n      dup1\n      0x325b272a\n      eq\n      tag_10\n      jumpi\n      jump(tag_2)\n    tag_21:\n      dup1\n      0x01ffc9a7\n      eq\n      tag_3\n      jumpi\n      dup1\n      0x06fdde03\n      eq\n      tag_4\n      jumpi\n      dup1\n      0x081812fc\n      eq\n      tag_5\n      jumpi\n      dup1\n      0x095ea7b3\n      eq\n      tag_6\n      jumpi\n    tag_2:\n      0x00\n      dup1\n      revert\n        /* \"ERC721A/ERC721A.sol\":3756:4061  function supportsInterface(bytes4 interfaceId) public view virtual override(ERC165, IERC165) returns (bool) {... */\n    tag_3:\n      tag_22\n      0x04\n      dup1\n      calldatasize\n      sub\n      dup2\n      add\n      swap1\n      tag_23\n      swap2\n      swap1\n      tag_24\n      jump\t// in\n    tag_23:\n      tag_25\n      jump\t// in\n    tag_22:\n      mload(0x40)\n      tag_26\n      swap2\n      swap1\n      tag_27\n      jump\t// in\n    tag_26:\n      mload(0x40)\n      dup1\n      swap2\n      sub\n      swap1\n      return\n        /* \"ERC721A/ERC721A.sol\":6871:6971  function name() public view virtual override returns (string memory) {... */\n    tag_4:\n      tag_28\n      tag_29\n      jump\t// in\n    tag_28:\n      mload(0x40)\n      tag_30\n      swap2\n      swap1\n      tag_31\n      jump\t// in\n    tag_30:\n      mload(0x40)\n      dup1\n      swap2\n      sub\n      swap1\n      return\n        /* \"ERC721A/ERC721A.sol\":8456:8660  function getApproved(uint256 tokenId) public view override returns (address) {... */\n    tag_5:\n      tag_32\n      0x04\n      dup1\n      calldatasize\n      sub\n      dup2\n      add\n      swap1\n      tag_33\n      swap2\n      swap1\n      tag_34\n      jump\t// in\n    tag_33:\n      tag_35\n      jump\t// in\n    tag_32:\n      mload(0x40)\n      tag_36\n      swap2\n      swap1\n      tag_37\n      jump\t// in\n    tag_36:\n      mload(0x40)\n      dup1\n      swap2\n      sub\n      swap1\n      return\n        /* \"ERC721A/ERC721A.sol\":8018:8390  function approve(address to, uint256 tokenId) public override {... */\n    tag_6:\n      tag_38\n      0x04\n      dup1\n      calldatasize\n      sub\n      dup2\n      add\n      swap1\n      tag_39\n      swap2\n      swap1\n      tag_40\n      jump\t// in\n    tag_39:\n      tag_41\n      jump\t// in\n    tag_38:\n      stop\n        /* \"ERC721A/ERC721A.sol\":2996:3308  function totalSupply() public view override returns (uint256) {... */\n    tag_7:\n      tag_42\n      tag_43\n      jump\t// in\n    tag_42:\n      mload(0x40)\n      tag_44\n      swap2\n      swap1\n      tag_45\n      jump\t// in\n    tag_44:\n      mload(0x40)\n      dup1\n      swap2\n      sub\n      swap1\n      return\n        /* \"ERC721A/ERC721A.sol\":2607:2673  function CountBlockScore()external{... */\n    tag_8:\n      tag_46\n      tag_47\n      jump\t// in\n    tag_46:\n      stop\n        /* \"ERC721A/ERC721A.sol\":9321:9491  function transferFrom(... */\n    tag_9:\n      tag_48\n      0x04\n      dup1\n      calldatasize\n      sub\n      dup2\n      add\n      swap1\n      tag_49\n      swap2\n      swap1\n      tag_50\n      jump\t// in\n    tag_49:\n      tag_51\n      jump\t// in\n    tag_48:\n      stop\n        /* \"ERC721A/ERC721A.sol\":2365:2599  function BlockScore(address user)external view returns(uint){... */\n    tag_10:\n      tag_52\n      0x04\n      dup1\n      calldatasize\n      sub\n      dup2\n      add\n      swap1\n      tag_53\n      swap2\n      swap1\n      tag_54\n      jump\t// in\n    tag_53:\n      tag_55\n      jump\t// in\n    tag_52:\n      mload(0x40)\n      tag_56\n      swap2\n      swap1\n      tag_45\n      jump\t// in\n    tag_56:\n      mload(0x40)\n      dup1\n      swap2\n      sub\n      swap1\n      return\n        /* \"ERC721A/ERC721A.sol\":9562:9747  function safeTransferFrom(... */\n    tag_11:\n      tag_57\n      0x04\n      dup1\n      calldatasize\n      sub\n      dup2\n      add\n      swap1\n      tag_58\n      swap2\n      swap1\n      tag_50\n      jump\t// in\n    tag_58:\n      tag_59\n      jump\t// in\n    tag_57:\n      stop\n        /* \"ERC721A/ERC721A.sol\":6679:6804  function ownerOf(uint256 tokenId) public view override returns (address) {... */\n    tag_12:\n      tag_60\n      0x04\n      dup1\n      calldatasize\n      sub\n      dup2\n      add\n      swap1\n      tag_61\n      swap2\n      swap1\n      tag_34\n      jump\t// in\n    tag_61:\n      tag_62\n      jump\t// in\n    tag_60:\n      mload(0x40)\n      tag_63\n      swap2\n      swap1\n      tag_37\n      jump\t// in\n    tag_63:\n      mload(0x40)\n      dup1\n      swap2\n      sub\n      swap1\n      return\n        /* \"ERC721A/ERC721A.sol\":4125:4331  function balanceOf(address owner) public view override returns (uint256) {... */\n    tag_13:\n      tag_64\n      0x04\n      dup1\n      calldatasize\n      sub\n      dup2\n      add\n      swap1\n      tag_65\n      swap2\n      swap1\n      tag_54\n      jump\t// in\n    tag_65:\n      tag_66\n      jump\t// in\n    tag_64:\n      mload(0x40)\n      tag_67\n      swap2\n      swap1\n      tag_45\n      jump\t// in\n    tag_67:\n      mload(0x40)\n      dup1\n      swap2\n      sub\n      swap1\n      return\n        /* \"ERC721A/ERC721A.sol\":7040:7144  function symbol() public view virtual override returns (string memory) {... */\n    tag_14:\n      tag_68\n      tag_69\n      jump\t// in\n    tag_68:\n      mload(0x40)\n      tag_70\n      swap2\n      swap1\n      tag_31\n      jump\t// in\n    tag_70:\n      mload(0x40)\n      dup1\n      swap2\n      sub\n      swap1\n      return\n        /* \"ERC721A/ERC721A.sol\":8732:9019  function setApprovalForAll(address operator, bool approved) public virtual override {... */\n    tag_15:\n      tag_71\n      0x04\n      dup1\n      calldatasize\n      sub\n      dup2\n      add\n      swap1\n      tag_72\n      swap2\n      swap1\n      tag_73\n      jump\t// in\n    tag_72:\n      tag_74\n      jump\t// in\n    tag_71:\n      stop\n        /* \"ERC721A/ERC721A.sol\":9818:10188  function safeTransferFrom(... */\n    tag_16:\n      tag_75\n      0x04\n      dup1\n      calldatasize\n      sub\n      dup2\n      add\n      swap1\n      tag_76\n      swap2\n      swap1\n      tag_77\n      jump\t// in\n    tag_76:\n      tag_78\n      jump\t// in\n    tag_75:\n      stop\n        /* \"ERC721A/ERC721A.sol\":7215:7533  function tokenURI(uint256 tokenId) public view virtual override returns (string memory) {... */\n    tag_17:\n      tag_79\n      0x04\n      dup1\n      calldatasize\n      sub\n      dup2\n      add\n      swap1\n      tag_80\n      swap2\n      swap1\n      tag_34\n      jump\t// in\n    tag_80:\n      tag_81\n      jump\t// in\n    tag_79:\n      mload(0x40)\n      tag_82\n      swap2\n      swap1\n      tag_31\n      jump\t// in\n    tag_82:\n      mload(0x40)\n      dup1\n      swap2\n      sub\n      swap1\n      return\n        /* \"ERC721A/ERC721A.sol\":9090:9254  function isApprovedForAll(address owner, address operator) public view virtual override returns (bool) {... */\n    tag_18:\n      tag_83\n      0x04\n      dup1\n      calldatasize\n      sub\n      dup2\n      add\n      swap1\n      tag_84\n      swap2\n      swap1\n      tag_85\n      jump\t// in\n    tag_84:\n      tag_86\n      jump\t// in\n    tag_83:\n      mload(0x40)\n      tag_87\n      swap2\n      swap1\n      tag_27\n      jump\t// in\n    tag_87:\n      mload(0x40)\n      dup1\n      swap2\n      sub\n      swap1\n      return\n        /* \"ERC721A/ERC721A.sol\":3756:4061  function supportsInterface(bytes4 interfaceId) public view virtual override(ERC165, IERC165) returns (bool) {... */\n    tag_25:\n        /* \"ERC721A/ERC721A.sol\":3858:3862  bool */\n      0x00\n        /* \"ERC721A/ERC721A.sol\":3910:3935  type(IERC721).interfaceId */\n      0x80ac58cd00000000000000000000000000000000000000000000000000000000\n        /* \"ERC721A/ERC721A.sol\":3895:3935  interfaceId == type(IERC721).interfaceId */\n      not(0xffffffffffffffffffffffffffffffffffffffffffffffffffffffff)\n      and\n        /* \"ERC721A/ERC721A.sol\":3895:3906  interfaceId */\n      dup3\n        /* \"ERC721A/ERC721A.sol\":3895:3935  interfaceId == type(IERC721).interfaceId */\n      not(0xffffffffffffffffffffffffffffffffffffffffffffffffffffffff)\n      and\n      eq\n        /* \"ERC721A/ERC721A.sol\":3895:4000  interfaceId == type(IERC721).interfaceId ||... */\n      dup1\n      tag_89\n      jumpi\n      pop\n        /* \"ERC721A/ERC721A.sol\":3967:4000  type(IERC721Metadata).interfaceId */\n      0x5b5e139f00000000000000000000000000000000000000000000000000000000\n        /* \"ERC721A/ERC721A.sol\":3952:4000  interfaceId == type(IERC721Metadata).interfaceId */\n      not(0xffffffffffffffffffffffffffffffffffffffffffffffffffffffff)\n      and\n        /* \"ERC721A/ERC721A.sol\":3952:3963  interfaceId */\n      dup3\n        /* \"ERC721A/ERC721A.sol\":3952:4000  interfaceId == type(IERC721Metadata).interfaceId */\n      not(0xffffffffffffffffffffffffffffffffffffffffffffffffffffffff)\n      and\n      eq\n        /* \"ERC721A/ERC721A.sol\":3895:4000  interfaceId == type(IERC721).interfaceId ||... */\n    tag_89:\n        /* \"ERC721A/ERC721A.sol\":3895:4053  interfaceId == type(IERC721).interfaceId ||... */\n      dup1\n      tag_90\n      jumpi\n      pop\n        /* \"ERC721A/ERC721A.sol\":4017:4053  super.supportsInterface(interfaceId) */\n      tag_91\n        /* \"ERC721A/ERC721A.sol\":4041:4052  interfaceId */\n      dup3\n        /* \"ERC721A/ERC721A.sol\":4017:4040  super.supportsInterface */\n      tag_92\n        /* \"ERC721A/ERC721A.sol\":4017:4053  super.supportsInterface(interfaceId) */\n      jump\t// in\n    tag_91:\n        /* \"ERC721A/ERC721A.sol\":3895:4053  interfaceId == type(IERC721).interfaceId ||... */\n    tag_90:\n        /* \"ERC721A/ERC721A.sol\":3875:4053  return... */\n      swap1\n      pop\n        /* \"ERC721A/ERC721A.sol\":3756:4061  function supportsInterface(bytes4 interfaceId) public view virtual override(ERC165, IERC165) returns (bool) {... */\n      swap2\n      swap1\n      pop\n      jump\t// out\n        /* \"ERC721A/ERC721A.sol\":6871:6971  function name() public view virtual override returns (string memory) {... */\n    tag_29:\n        /* \"ERC721A/ERC721A.sol\":6925:6938  string memory */\n      0x60\n        /* \"ERC721A/ERC721A.sol\":6958:6963  _name */\n      0x02\n        /* \"ERC721A/ERC721A.sol\":6951:6963  return _name */\n      dup1\n      sload\n      tag_94\n      swap1\n      tag_95\n      jump\t// in\n    tag_94:\n      dup1\n      0x1f\n      add\n      0x20\n      dup1\n      swap2\n      div\n      mul\n      0x20\n      add\n      mload(0x40)\n      swap1\n      dup2\n      add\n      0x40\n      mstore\n      dup1\n      swap3\n      swap2\n      swap1\n      dup2\n      dup2\n      mstore\n      0x20\n      add\n      dup3\n      dup1\n      sload\n      tag_96\n      swap1\n      tag_95\n      jump\t// in\n    tag_96:\n      dup1\n      iszero\n      tag_97\n      jumpi\n      dup1\n      0x1f\n      lt\n      tag_98\n      jumpi\n      0x0100\n      dup1\n      dup4\n      sload\n      div\n      mul\n      dup4\n      mstore\n      swap2\n      0x20\n      add\n      swap2\n      jump(tag_97)\n    tag_98:\n      dup3\n      add\n      swap2\n      swap1\n      0x00\n      mstore\n      keccak256(0x00, 0x20)\n      swap1\n    tag_99:\n      dup2\n      sload\n      dup2\n      mstore\n      swap1\n      0x01\n      add\n      swap1\n      0x20\n      add\n      dup1\n      dup4\n      gt\n      tag_99\n      jumpi\n      dup3\n      swap1\n      sub\n      0x1f\n      and\n      dup3\n      add\n      swap2\n    tag_97:\n      pop\n      pop\n      pop\n      pop\n      pop\n      swap1\n      pop\n        /* \"ERC721A/ERC721A.sol\":6871:6971  function name() public view virtual override returns (string memory) {... */\n      swap1\n      jump\t// out\n        /* \"ERC721A/ERC721A.sol\":8456:8660  function getApproved(uint256 tokenId) public view override returns (address) {... */\n    tag_35:\n        /* \"ERC721A/ERC721A.sol\":8524:8531  address */\n      0x00\n        /* \"ERC721A/ERC721A.sol\":8549:8565  _exists(tokenId) */\n      tag_101\n        /* \"ERC721A/ERC721A.sol\":8557:8564  tokenId */\n      dup3\n        /* \"ERC721A/ERC721A.sol\":8549:8556  _exists */\n      tag_102\n        /* \"ERC721A/ERC721A.sol\":8549:8565  _exists(tokenId) */\n      jump\t// in\n    tag_101:\n        /* \"ERC721A/ERC721A.sol\":8544:8608  if (!_exists(tokenId)) revert ApprovalQueryForNonexistentToken() */\n      tag_103\n      jumpi\n        /* \"ERC721A/ERC721A.sol\":8574:8608  ApprovalQueryForNonexistentToken() */\n      mload(0x40)\n      0xcf4700e400000000000000000000000000000000000000000000000000000000\n      dup2\n      mstore\n      0x04\n      add\n      mload(0x40)\n      dup1\n      swap2\n      sub\n      swap1\n      revert\n        /* \"ERC721A/ERC721A.sol\":8544:8608  if (!_exists(tokenId)) revert ApprovalQueryForNonexistentToken() */\n    tag_103:\n        /* \"ERC721A/ERC721A.sol\":8628:8643  _tokenApprovals */\n      0x06\n        /* \"ERC721A/ERC721A.sol\":8628:8652  _tokenApprovals[tokenId] */\n      0x00\n        /* \"ERC721A/ERC721A.sol\":8644:8651  tokenId */\n      dup4\n        /* \"ERC721A/ERC721A.sol\":8628:8652  _tokenApprovals[tokenId] */\n      dup2\n      mstore\n      0x20\n      add\n      swap1\n      dup2\n      mstore\n      0x20\n      add\n      0x00\n      keccak256\n      0x00\n      swap1\n      sload\n      swap1\n      0x0100\n      exp\n      swap1\n      div\n      0xffffffffffffffffffffffffffffffffffffffff\n      and\n        /* \"ERC721A/ERC721A.sol\":8621:8652  return _tokenApprovals[tokenId] */\n      swap1\n      pop\n        /* \"ERC721A/ERC721A.sol\":8456:8660  function getApproved(uint256 tokenId) public view override returns (address) {... */\n      swap2\n      swap1\n      pop\n      jump\t// out\n        /* \"ERC721A/ERC721A.sol\":8018:8390  function approve(address to, uint256 tokenId) public override {... */\n    tag_41:\n        /* \"ERC721A/ERC721A.sol\":8091:8104  address owner */\n      0x00\n        /* \"ERC721A/ERC721A.sol\":8107:8131  ERC721A.ownerOf(tokenId) */\n      tag_105\n        /* \"ERC721A/ERC721A.sol\":8123:8130  tokenId */\n      dup3\n        /* \"ERC721A/ERC721A.sol\":8107:8122  ERC721A.ownerOf */\n      tag_62\n        /* \"ERC721A/ERC721A.sol\":8107:8131  ERC721A.ownerOf(tokenId) */\n      jump\t// in\n    tag_105:\n        /* \"ERC721A/ERC721A.sol\":8091:8131  address owner = ERC721A.ownerOf(tokenId) */\n      swap1\n      pop\n        /* \"ERC721A/ERC721A.sol\":8152:8157  owner */\n      dup1\n        /* \"ERC721A/ERC721A.sol\":8146:8157  to == owner */\n      0xffffffffffffffffffffffffffffffffffffffff\n      and\n        /* \"ERC721A/ERC721A.sol\":8146:8148  to */\n      dup4\n        /* \"ERC721A/ERC721A.sol\":8146:8157  to == owner */\n      0xffffffffffffffffffffffffffffffffffffffff\n      and\n      sub\n        /* \"ERC721A/ERC721A.sol\":8142:8190  if (to == owner) revert ApprovalToCurrentOwner() */\n      tag_106\n      jumpi\n        /* \"ERC721A/ERC721A.sol\":8166:8190  ApprovalToCurrentOwner() */\n      mload(0x40)\n      0x943f7b8c00000000000000000000000000000000000000000000000000000000\n      dup2\n      mstore\n      0x04\n      add\n      mload(0x40)\n      dup1\n      swap2\n      sub\n      swap1\n      revert\n        /* \"ERC721A/ERC721A.sol\":8142:8190  if (to == owner) revert ApprovalToCurrentOwner() */\n    tag_106:\n        /* \"ERC721A/ERC721A.sol\":8223:8228  owner */\n      dup1\n        /* \"ERC721A/ERC721A.sol\":8207:8228  _msgSender() != owner */\n      0xffffffffffffffffffffffffffffffffffffffff\n      and\n        /* \"ERC721A/ERC721A.sol\":8207:8219  _msgSender() */\n      tag_107\n        /* \"ERC721A/ERC721A.sol\":8207:8217  _msgSender */\n      tag_108\n        /* \"ERC721A/ERC721A.sol\":8207:8219  _msgSender() */\n      jump\t// in\n    tag_107:\n        /* \"ERC721A/ERC721A.sol\":8207:8228  _msgSender() != owner */\n      0xffffffffffffffffffffffffffffffffffffffff\n      and\n      eq\n        /* \"ERC721A/ERC721A.sol\":8203:8342  if (_msgSender() != owner) if(!isApprovedForAll(owner, _msgSender())) {... */\n      tag_109\n      jumpi\n        /* \"ERC721A/ERC721A.sol\":8234:8271  isApprovedForAll(owner, _msgSender()) */\n      tag_110\n        /* \"ERC721A/ERC721A.sol\":8251:8256  owner */\n      dup2\n        /* \"ERC721A/ERC721A.sol\":8258:8270  _msgSender() */\n      tag_111\n        /* \"ERC721A/ERC721A.sol\":8258:8268  _msgSender */\n      tag_108\n        /* \"ERC721A/ERC721A.sol\":8258:8270  _msgSender() */\n      jump\t// in\n    tag_111:\n        /* \"ERC721A/ERC721A.sol\":8234:8250  isApprovedForAll */\n      tag_86\n        /* \"ERC721A/ERC721A.sol\":8234:8271  isApprovedForAll(owner, _msgSender()) */\n      jump\t// in\n    tag_110:\n        /* \"ERC721A/ERC721A.sol\":8230:8342  if(!isApprovedForAll(owner, _msgSender())) {... */\n      tag_112\n      jumpi\n        /* \"ERC721A/ERC721A.sol\":8295:8330  ApprovalCallerNotOwnerNorApproved() */\n      mload(0x40)\n      0xcfb3b94200000000000000000000000000000000000000000000000000000000\n      dup2\n      mstore\n      0x04\n      add\n      mload(0x40)\n      dup1\n      swap2\n      sub\n      swap1\n      revert\n        /* \"ERC721A/ERC721A.sol\":8230:8342  if(!isApprovedForAll(owner, _msgSender())) {... */\n    tag_112:\n        /* \"ERC721A/ERC721A.sol\":8203:8342  if (_msgSender() != owner) if(!isApprovedForAll(owner, _msgSender())) {... */\n    tag_109:\n        /* \"ERC721A/ERC721A.sol\":8354:8382  _approve(to, tokenId, owner) */\n      tag_113\n        /* \"ERC721A/ERC721A.sol\":8363:8365  to */\n      dup4\n        /* \"ERC721A/ERC721A.sol\":8367:8374  tokenId */\n      dup4\n        /* \"ERC721A/ERC721A.sol\":8376:8381  owner */\n      dup4\n        /* \"ERC721A/ERC721A.sol\":8354:8362  _approve */\n      tag_114\n        /* \"ERC721A/ERC721A.sol\":8354:8382  _approve(to, tokenId, owner) */\n      jump\t// in\n    tag_113:\n        /* \"ERC721A/ERC721A.sol\":8080:8390  {... */\n      pop\n        /* \"ERC721A/ERC721A.sol\":8018:8390  function approve(address to, uint256 tokenId) public override {... */\n      pop\n      pop\n      jump\t// out\n        /* \"ERC721A/ERC721A.sol\":2996:3308  function totalSupply() public view override returns (uint256) {... */\n    tag_43:\n        /* \"ERC721A/ERC721A.sol\":3049:3056  uint256 */\n      0x00\n        /* \"ERC721A/ERC721A.sol\":3274:3289  _startTokenId() */\n      tag_116\n        /* \"ERC721A/ERC721A.sol\":3274:3287  _startTokenId */\n      tag_117\n        /* \"ERC721A/ERC721A.sol\":3274:3289  _startTokenId() */\n      jump\t// in\n    tag_116:\n        /* \"ERC721A/ERC721A.sol\":3259:3271  _burnCounter */\n      sload(0x01)\n        /* \"ERC721A/ERC721A.sol\":3243:3256  _currentIndex */\n      sload(0x00)\n        /* \"ERC721A/ERC721A.sol\":3243:3271  _currentIndex - _burnCounter */\n      sub\n        /* \"ERC721A/ERC721A.sol\":3243:3289  _currentIndex - _burnCounter - _startTokenId() */\n      sub\n        /* \"ERC721A/ERC721A.sol\":3236:3289  return _currentIndex - _burnCounter - _startTokenId() */\n      swap1\n      pop\n        /* \"ERC721A/ERC721A.sol\":2996:3308  function totalSupply() public view override returns (uint256) {... */\n      swap1\n      jump\t// out\n        /* \"ERC721A/ERC721A.sol\":2607:2673  function CountBlockScore()external{... */\n    tag_47:\n        /* \"ERC721A/ERC721A.sol\":2655:2665  msg.sender */\n      caller\n        /* \"ERC721A/ERC721A.sol\":2653:2654  a */\n      0x09\n      0x00\n        /* \"ERC721A/ERC721A.sol\":2653:2665  a=msg.sender */\n      0x0100\n      exp\n      dup2\n      sload\n      dup2\n      0xffffffffffffffffffffffffffffffffffffffff\n      mul\n      not\n      and\n      swap1\n      dup4\n      0xffffffffffffffffffffffffffffffffffffffff\n      and\n      mul\n      or\n      swap1\n      sstore\n      pop\n        /* \"ERC721A/ERC721A.sol\":2607:2673  function CountBlockScore()external{... */\n      jump\t// out\n        /* \"ERC721A/ERC721A.sol\":9321:9491  function transferFrom(... */\n    tag_51:\n        /* \"ERC721A/ERC721A.sol\":9455:9483  _transfer(from, to, tokenId) */\n      tag_120\n        /* \"ERC721A/ERC721A.sol\":9465:9469  from */\n      dup4\n        /* \"ERC721A/ERC721A.sol\":9471:9473  to */\n      dup4\n        /* \"ERC721A/ERC721A.sol\":9475:9482  tokenId */\n      dup4\n        /* \"ERC721A/ERC721A.sol\":9455:9464  _transfer */\n      tag_121\n        /* \"ERC721A/ERC721A.sol\":9455:9483  _transfer(from, to, tokenId) */\n      jump\t// in\n    tag_120:\n        /* \"ERC721A/ERC721A.sol\":9321:9491  function transferFrom(... */\n      pop\n      pop\n      pop\n      jump\t// out\n        /* \"ERC721A/ERC721A.sol\":2365:2599  function BlockScore(address user)external view returns(uint){... */\n    tag_55:\n        /* \"ERC721A/ERC721A.sol\":2420:2424  uint */\n      0x00\n        /* \"ERC721A/ERC721A.sol\":2436:2442  uint a */\n      dup1\n        /* \"ERC721A/ERC721A.sol\":2445:2483  block.number.sub(_BlockScore[user][1]) */\n      tag_123\n        /* \"ERC721A/ERC721A.sol\":2462:2473  _BlockScore */\n      0x08\n        /* \"ERC721A/ERC721A.sol\":2462:2479  _BlockScore[user] */\n      0x00\n        /* \"ERC721A/ERC721A.sol\":2474:2478  user */\n      dup6\n        /* \"ERC721A/ERC721A.sol\":2462:2479  _BlockScore[user] */\n      0xffffffffffffffffffffffffffffffffffffffff\n      and\n      0xffffffffffffffffffffffffffffffffffffffff\n      and\n      dup2\n      mstore\n      0x20\n      add\n      swap1\n      dup2\n      mstore\n      0x20\n      add\n      0x00\n      keccak256\n        /* \"ERC721A/ERC721A.sol\":2462:2482  _BlockScore[user][1] */\n      0x00\n        /* \"ERC721A/ERC721A.sol\":2480:2481  1 */\n      0x01\n        /* \"ERC721A/ERC721A.sol\":2462:2482  _BlockScore[user][1] */\n      dup2\n      mstore\n      0x20\n      add\n      swap1\n      dup2\n      mstore\n      0x20\n      add\n      0x00\n      keccak256\n      sload\n        /* \"ERC721A/ERC721A.sol\":2445:2457  block.number */\n      number\n        /* \"ERC721A/ERC721A.sol\":2445:2461  block.number.sub */\n      tag_124\n      swap1\n        /* \"ERC721A/ERC721A.sol\":2445:2483  block.number.sub(_BlockScore[user][1]) */\n      swap2\n      swap1\n      0xffffffff\n      and\n      jump\t// in\n    tag_123:\n        /* \"ERC721A/ERC721A.sol\":2436:2483  uint a = block.number.sub(_BlockScore[user][1]) */\n      swap1\n      pop\n        /* \"ERC721A/ERC721A.sol\":2494:2500  uint b */\n      0x00\n        /* \"ERC721A/ERC721A.sol\":2503:2525  balanceOf(user).mul(a) */\n      tag_125\n        /* \"ERC721A/ERC721A.sol\":2523:2524  a */\n      dup3\n        /* \"ERC721A/ERC721A.sol\":2503:2518  balanceOf(user) */\n      tag_126\n        /* \"ERC721A/ERC721A.sol\":2513:2517  user */\n      dup7\n        /* \"ERC721A/ERC721A.sol\":2503:2512  balanceOf */\n      tag_66\n        /* \"ERC721A/ERC721A.sol\":2503:2518  balanceOf(user) */\n      jump\t// in\n    tag_126:\n        /* \"ERC721A/ERC721A.sol\":2503:2522  balanceOf(user).mul */\n      tag_127\n      swap1\n        /* \"ERC721A/ERC721A.sol\":2503:2525  balanceOf(user).mul(a) */\n      swap2\n      swap1\n      0xffffffff\n      and\n      jump\t// in\n    tag_125:\n        /* \"ERC721A/ERC721A.sol\":2494:2525  uint b = balanceOf(user).mul(a) */\n      swap1\n      pop\n        /* \"ERC721A/ERC721A.sol\":2536:2542  uint c */\n      0x00\n        /* \"ERC721A/ERC721A.sol\":2545:2572  _BlockScore[user][2].add(b) */\n      tag_128\n        /* \"ERC721A/ERC721A.sol\":2570:2571  b */\n      dup3\n        /* \"ERC721A/ERC721A.sol\":2545:2556  _BlockScore */\n      0x08\n        /* \"ERC721A/ERC721A.sol\":2545:2562  _BlockScore[user] */\n      0x00\n        /* \"ERC721A/ERC721A.sol\":2557:2561  user */\n      dup9\n        /* \"ERC721A/ERC721A.sol\":2545:2562  _BlockScore[user] */\n      0xffffffffffffffffffffffffffffffffffffffff\n      and\n      0xffffffffffffffffffffffffffffffffffffffff\n      and\n      dup2\n      mstore\n      0x20\n      add\n      swap1\n      dup2\n      mstore\n      0x20\n      add\n      0x00\n      keccak256\n        /* \"ERC721A/ERC721A.sol\":2545:2565  _BlockScore[user][2] */\n      0x00\n        /* \"ERC721A/ERC721A.sol\":2563:2564  2 */\n      0x02\n        /* \"ERC721A/ERC721A.sol\":2545:2565  _BlockScore[user][2] */\n      dup2\n      mstore\n      0x20\n      add\n      swap1\n      dup2\n      mstore\n      0x20\n      add\n      0x00\n      keccak256\n      sload\n        /* \"ERC721A/ERC721A.sol\":2545:2569  _BlockScore[user][2].add */\n      tag_129\n      swap1\n        /* \"ERC721A/ERC721A.sol\":2545:2572  _BlockScore[user][2].add(b) */\n      swap2\n      swap1\n      0xffffffff\n      and\n      jump\t// in\n    tag_128:\n        /* \"ERC721A/ERC721A.sol\":2536:2572  uint c = _BlockScore[user][2].add(b) */\n      swap1\n      pop\n        /* \"ERC721A/ERC721A.sol\":2590:2591  c */\n      dup1\n        /* \"ERC721A/ERC721A.sol\":2583:2591  return c */\n      swap4\n      pop\n      pop\n      pop\n      pop\n        /* \"ERC721A/ERC721A.sol\":2365:2599  function BlockScore(address user)external view returns(uint){... */\n      swap2\n      swap1\n      pop\n      jump\t// out\n        /* \"ERC721A/ERC721A.sol\":9562:9747  function safeTransferFrom(... */\n    tag_59:\n        /* \"ERC721A/ERC721A.sol\":9700:9739  safeTransferFrom(from, to, tokenId, '') */\n      tag_131\n        /* \"ERC721A/ERC721A.sol\":9717:9721  from */\n      dup4\n        /* \"ERC721A/ERC721A.sol\":9723:9725  to */\n      dup4\n        /* \"ERC721A/ERC721A.sol\":9727:9734  tokenId */\n      dup4\n        /* \"ERC721A/ERC721A.sol\":9700:9739  safeTransferFrom(from, to, tokenId, '') */\n      mload(0x40)\n      dup1\n      0x20\n      add\n      0x40\n      mstore\n      dup1\n      0x00\n      dup2\n      mstore\n      pop\n        /* \"ERC721A/ERC721A.sol\":9700:9716  safeTransferFrom */\n      tag_78\n        /* \"ERC721A/ERC721A.sol\":9700:9739  safeTransferFrom(from, to, tokenId, '') */\n      jump\t// in\n    tag_131:\n        /* \"ERC721A/ERC721A.sol\":9562:9747  function safeTransferFrom(... */\n      pop\n      pop\n      pop\n      jump\t// out\n        /* \"ERC721A/ERC721A.sol\":6679:6804  function ownerOf(uint256 tokenId) public view override returns (address) {... */\n    tag_62:\n        /* \"ERC721A/ERC721A.sol\":6743:6750  address */\n      0x00\n        /* \"ERC721A/ERC721A.sol\":6770:6791  _ownershipOf(tokenId) */\n      tag_133\n        /* \"ERC721A/ERC721A.sol\":6783:6790  tokenId */\n      dup3\n        /* \"ERC721A/ERC721A.sol\":6770:6782  _ownershipOf */\n      tag_134\n        /* \"ERC721A/ERC721A.sol\":6770:6791  _ownershipOf(tokenId) */\n      jump\t// in\n    tag_133:\n        /* \"ERC721A/ERC721A.sol\":6770:6796  _ownershipOf(tokenId).addr */\n      0x00\n      add\n      mload\n        /* \"ERC721A/ERC721A.sol\":6763:6796  return _ownershipOf(tokenId).addr */\n      swap1\n      pop\n        /* \"ERC721A/ERC721A.sol\":6679:6804  function ownerOf(uint256 tokenId) public view override returns (address) {... */\n      swap2\n      swap1\n      pop\n      jump\t// out\n        /* \"ERC721A/ERC721A.sol\":4125:4331  function balanceOf(address owner) public view override returns (uint256) {... */\n    tag_66:\n        /* \"ERC721A/ERC721A.sol\":4189:4196  uint256 */\n      0x00\n        /* \"ERC721A/ERC721A.sol\":4230:4231  0 */\n      dup1\n        /* \"ERC721A/ERC721A.sol\":4213:4232  owner == address(0) */\n      0xffffffffffffffffffffffffffffffffffffffff\n      and\n        /* \"ERC721A/ERC721A.sol\":4213:4218  owner */\n      dup3\n        /* \"ERC721A/ERC721A.sol\":4213:4232  owner == address(0) */\n      0xffffffffffffffffffffffffffffffffffffffff\n      and\n      sub\n        /* \"ERC721A/ERC721A.sol\":4209:4269  if (owner == address(0)) revert BalanceQueryForZeroAddress() */\n      tag_136\n      jumpi\n        /* \"ERC721A/ERC721A.sol\":4241:4269  BalanceQueryForZeroAddress() */\n      mload(0x40)\n      0x8f4eb60400000000000000000000000000000000000000000000000000000000\n      dup2\n      mstore\n      0x04\n      add\n      mload(0x40)\n      dup1\n      swap2\n      sub\n      swap1\n      revert\n        /* \"ERC721A/ERC721A.sol\":4209:4269  if (owner == address(0)) revert BalanceQueryForZeroAddress() */\n    tag_136:\n        /* \"ERC721A/ERC721A.sol\":4295:4307  _addressData */\n      0x05\n        /* \"ERC721A/ERC721A.sol\":4295:4314  _addressData[owner] */\n      0x00\n        /* \"ERC721A/ERC721A.sol\":4308:4313  owner */\n      dup4\n        /* \"ERC721A/ERC721A.sol\":4295:4314  _addressData[owner] */\n      0xffffffffffffffffffffffffffffffffffffffff\n      and\n      0xffffffffffffffffffffffffffffffffffffffff\n      and\n      dup2\n      mstore\n      0x20\n      add\n      swap1\n      dup2\n      mstore\n      0x20\n      add\n      0x00\n      keccak256\n        /* \"ERC721A/ERC721A.sol\":4295:4322  _addressData[owner].balance */\n      0x00\n      add\n      0x00\n      swap1\n      sload\n      swap1\n      0x0100\n      exp\n      swap1\n      div\n      0xffffffffffffffff\n      and\n        /* \"ERC721A/ERC721A.sol\":4287:4323  uint256(_addressData[owner].balance) */\n      0xffffffffffffffff\n      and\n        /* \"ERC721A/ERC721A.sol\":4280:4323  return uint256(_addressData[owner].balance) */\n      swap1\n      pop\n        /* \"ERC721A/ERC721A.sol\":4125:4331  function balanceOf(address owner) public view override returns (uint256) {... */\n      swap2\n      swap1\n      pop\n      jump\t// out\n        /* \"ERC721A/ERC721A.sol\":7040:7144  function symbol() public view virtual override returns (string memory) {... */\n    tag_69:\n        /* \"ERC721A/ERC721A.sol\":7096:7109  string memory */\n      0x60\n        /* \"ERC721A/ERC721A.sol\":7129:7136  _symbol */\n      0x03\n        /* \"ERC721A/ERC721A.sol\":7122:7136  return _symbol */\n      dup1\n      sload\n      tag_138\n      swap1\n      tag_95\n      jump\t// in\n    tag_138:\n      dup1\n      0x1f\n      add\n      0x20\n      dup1\n      swap2\n      div\n      mul\n      0x20\n      add\n      mload(0x40)\n      swap1\n      dup2\n      add\n      0x40\n      mstore\n      dup1\n      swap3\n      swap2\n      swap1\n      dup2\n      dup2\n      mstore\n      0x20\n      add\n      dup3\n      dup1\n      sload\n      tag_139\n      swap1\n      tag_95\n      jump\t// in\n    tag_139:\n      dup1\n      iszero\n      tag_140\n      jumpi\n      dup1\n      0x1f\n      lt\n      tag_141\n      jumpi\n      0x0100\n      dup1\n      dup4\n      sload\n      div\n      mul\n      dup4\n      mstore\n      swap2\n      0x20\n      add\n      swap2\n      jump(tag_140)\n    tag_141:\n      dup3\n      add\n      swap2\n      swap1\n      0x00\n      mstore\n      keccak256(0x00, 0x20)\n      swap1\n    tag_142:\n      dup2\n      sload\n      dup2\n      mstore\n      swap1\n      0x01\n      add\n      swap1\n      0x20\n      add\n      dup1\n      dup4\n      gt\n      tag_142\n      jumpi\n      dup3\n      swap1\n      sub\n      0x1f\n      and\n      dup3\n      add\n      swap2\n    tag_140:\n      pop\n      pop\n      pop\n      pop\n      pop\n      swap1\n      pop\n        /* \"ERC721A/ERC721A.sol\":7040:7144  function symbol() public view virtual override returns (string memory) {... */\n      swap1\n      jump\t// out\n        /* \"ERC721A/ERC721A.sol\":8732:9019  function setApprovalForAll(address operator, bool approved) public virtual override {... */\n    tag_74:\n        /* \"ERC721A/ERC721A.sol\":8843:8855  _msgSender() */\n      tag_144\n        /* \"ERC721A/ERC721A.sol\":8843:8853  _msgSender */\n      tag_108\n        /* \"ERC721A/ERC721A.sol\":8843:8855  _msgSender() */\n      jump\t// in\n    tag_144:\n        /* \"ERC721A/ERC721A.sol\":8831:8855  operator == _msgSender() */\n      0xffffffffffffffffffffffffffffffffffffffff\n      and\n        /* \"ERC721A/ERC721A.sol\":8831:8839  operator */\n      dup3\n        /* \"ERC721A/ERC721A.sol\":8831:8855  operator == _msgSender() */\n      0xffffffffffffffffffffffffffffffffffffffff\n      and\n      sub\n        /* \"ERC721A/ERC721A.sol\":8827:8881  if (operator == _msgSender()) revert ApproveToCaller() */\n      tag_145\n      jumpi\n        /* \"ERC721A/ERC721A.sol\":8864:8881  ApproveToCaller() */\n      mload(0x40)\n      0xb06307db00000000000000000000000000000000000000000000000000000000\n      dup2\n      mstore\n      0x04\n      add\n      mload(0x40)\n      dup1\n      swap2\n      sub\n      swap1\n      revert\n        /* \"ERC721A/ERC721A.sol\":8827:8881  if (operator == _msgSender()) revert ApproveToCaller() */\n    tag_145:\n        /* \"ERC721A/ERC721A.sol\":8939:8947  approved */\n      dup1\n        /* \"ERC721A/ERC721A.sol\":8894:8912  _operatorApprovals */\n      0x07\n        /* \"ERC721A/ERC721A.sol\":8894:8926  _operatorApprovals[_msgSender()] */\n      0x00\n        /* \"ERC721A/ERC721A.sol\":8913:8925  _msgSender() */\n      tag_146\n        /* \"ERC721A/ERC721A.sol\":8913:8923  _msgSender */\n      tag_108\n        /* \"ERC721A/ERC721A.sol\":8913:8925  _msgSender() */\n      jump\t// in\n    tag_146:\n        /* \"ERC721A/ERC721A.sol\":8894:8926  _operatorApprovals[_msgSender()] */\n      0xffffffffffffffffffffffffffffffffffffffff\n      and\n      0xffffffffffffffffffffffffffffffffffffffff\n      and\n      dup2\n      mstore\n      0x20\n      add\n      swap1\n      dup2\n      mstore\n      0x20\n      add\n      0x00\n      keccak256\n        /* \"ERC721A/ERC721A.sol\":8894:8936  _operatorApprovals[_msgSender()][operator] */\n      0x00\n        /* \"ERC721A/ERC721A.sol\":8927:8935  operator */\n      dup5\n        /* \"ERC721A/ERC721A.sol\":8894:8936  _operatorApprovals[_msgSender()][operator] */\n      0xffffffffffffffffffffffffffffffffffffffff\n      and\n      0xffffffffffffffffffffffffffffffffffffffff\n      and\n      dup2\n      mstore\n      0x20\n      add\n      swap1\n      dup2\n      mstore\n      0x20\n      add\n      0x00\n      keccak256\n      0x00\n        /* \"ERC721A/ERC721A.sol\":8894:8947  _operatorApprovals[_msgSender()][operator] = approved */\n      0x0100\n      exp\n      dup2\n      sload\n      dup2\n      0xff\n      mul\n      not\n      and\n      swap1\n      dup4\n      iszero\n      iszero\n      mul\n      or\n      swap1\n      sstore\n      pop\n        /* \"ERC721A/ERC721A.sol\":8992:9000  operator */\n      dup2\n        /* \"ERC721A/ERC721A.sol\":8963:9011  ApprovalForAll(_msgSender(), operator, approved) */\n      0xffffffffffffffffffffffffffffffffffffffff\n      and\n        /* \"ERC721A/ERC721A.sol\":8978:8990  _msgSender() */\n      tag_147\n        /* \"ERC721A/ERC721A.sol\":8978:8988  _msgSender */\n      tag_108\n        /* \"ERC721A/ERC721A.sol\":8978:8990  _msgSender() */\n      jump\t// in\n    tag_147:\n        /* \"ERC721A/ERC721A.sol\":8963:9011  ApprovalForAll(_msgSender(), operator, approved) */\n      0xffffffffffffffffffffffffffffffffffffffff\n      and\n      0x17307eab39ab6107e8899845ad3d59bd9653f200f220920489ca2b5937696c31\n        /* \"ERC721A/ERC721A.sol\":9002:9010  approved */\n      dup4\n        /* \"ERC721A/ERC721A.sol\":8963:9011  ApprovalForAll(_msgSender(), operator, approved) */\n      mload(0x40)\n      tag_148\n      swap2\n      swap1\n      tag_27\n      jump\t// in\n    tag_148:\n      mload(0x40)\n      dup1\n      swap2\n      sub\n      swap1\n      log3\n        /* \"ERC721A/ERC721A.sol\":8732:9019  function setApprovalForAll(address operator, bool approved) public virtual override {... */\n      pop\n      pop\n      jump\t// out\n        /* \"ERC721A/ERC721A.sol\":9818:10188  function safeTransferFrom(... */\n    tag_78:\n        /* \"ERC721A/ERC721A.sol\":9985:10013  _transfer(from, to, tokenId) */\n      tag_150\n        /* \"ERC721A/ERC721A.sol\":9995:9999  from */\n      dup5\n        /* \"ERC721A/ERC721A.sol\":10001:10003  to */\n      dup5\n        /* \"ERC721A/ERC721A.sol\":10005:10012  tokenId */\n      dup5\n        /* \"ERC721A/ERC721A.sol\":9985:9994  _transfer */\n      tag_121\n        /* \"ERC721A/ERC721A.sol\":9985:10013  _transfer(from, to, tokenId) */\n      jump\t// in\n    tag_150:\n        /* \"ERC721A/ERC721A.sol\":10028:10043  to.isContract() */\n      tag_151\n        /* \"ERC721A/ERC721A.sol\":10028:10030  to */\n      dup4\n        /* \"ERC721A/ERC721A.sol\":10028:10041  to.isContract */\n      0xffffffffffffffffffffffffffffffffffffffff\n      and\n      tag_152\n        /* \"ERC721A/ERC721A.sol\":10028:10043  to.isContract() */\n      jump\t// in\n    tag_151:\n        /* \"ERC721A/ERC721A.sol\":10024:10181  if (to.isContract()) if(!_checkContractOnERC721Received(from, to, tokenId, _data)) {... */\n      iszero\n      tag_153\n      jumpi\n        /* \"ERC721A/ERC721A.sol\":10049:10105  _checkContractOnERC721Received(from, to, tokenId, _data) */\n      tag_154\n        /* \"ERC721A/ERC721A.sol\":10080:10084  from */\n      dup5\n        /* \"ERC721A/ERC721A.sol\":10086:10088  to */\n      dup5\n        /* \"ERC721A/ERC721A.sol\":10090:10097  tokenId */\n      dup5\n        /* \"ERC721A/ERC721A.sol\":10099:10104  _data */\n      dup5\n        /* \"ERC721A/ERC721A.sol\":10049:10079  _checkContractOnERC721Received */\n      tag_155\n        /* \"ERC721A/ERC721A.sol\":10049:10105  _checkContractOnERC721Received(from, to, tokenId, _data) */\n      jump\t// in\n    tag_154:\n        /* \"ERC721A/ERC721A.sol\":10045:10181  if(!_checkContractOnERC721Received(from, to, tokenId, _data)) {... */\n      tag_156\n      jumpi\n        /* \"ERC721A/ERC721A.sol\":10129:10169  TransferToNonERC721ReceiverImplementer() */\n      mload(0x40)\n      0xd1a57ed600000000000000000000000000000000000000000000000000000000\n      dup2\n      mstore\n      0x04\n      add\n      mload(0x40)\n      dup1\n      swap2\n      sub\n      swap1\n      revert\n        /* \"ERC721A/ERC721A.sol\":10045:10181  if(!_checkContractOnERC721Received(from, to, tokenId, _data)) {... */\n    tag_156:\n        /* \"ERC721A/ERC721A.sol\":10024:10181  if (to.isContract()) if(!_checkContractOnERC721Received(from, to, tokenId, _data)) {... */\n    tag_153:\n        /* \"ERC721A/ERC721A.sol\":9818:10188  function safeTransferFrom(... */\n      pop\n      pop\n      pop\n      pop\n      jump\t// out\n        /* \"ERC721A/ERC721A.sol\":7215:7533  function tokenURI(uint256 tokenId) public view virtual override returns (string memory) {... */\n    tag_81:\n        /* \"ERC721A/ERC721A.sol\":7288:7301  string memory */\n      0x60\n        /* \"ERC721A/ERC721A.sol\":7319:7335  _exists(tokenId) */\n      tag_158\n        /* \"ERC721A/ERC721A.sol\":7327:7334  tokenId */\n      dup3\n        /* \"ERC721A/ERC721A.sol\":7319:7326  _exists */\n      tag_102\n        /* \"ERC721A/ERC721A.sol\":7319:7335  _exists(tokenId) */\n      jump\t// in\n    tag_158:\n        /* \"ERC721A/ERC721A.sol\":7314:7373  if (!_exists(tokenId)) revert URIQueryForNonexistentToken() */\n      tag_159\n      jumpi\n        /* \"ERC721A/ERC721A.sol\":7344:7373  URIQueryForNonexistentToken() */\n      mload(0x40)\n      0xa14c4b5000000000000000000000000000000000000000000000000000000000\n      dup2\n      mstore\n      0x04\n      add\n      mload(0x40)\n      dup1\n      swap2\n      sub\n      swap1\n      revert\n        /* \"ERC721A/ERC721A.sol\":7314:7373  if (!_exists(tokenId)) revert URIQueryForNonexistentToken() */\n    tag_159:\n        /* \"ERC721A/ERC721A.sol\":7386:7407  string memory baseURI */\n      0x00\n        /* \"ERC721A/ERC721A.sol\":7410:7420  _baseURI() */\n      tag_160\n        /* \"ERC721A/ERC721A.sol\":7410:7418  _baseURI */\n      tag_161\n        /* \"ERC721A/ERC721A.sol\":7410:7420  _baseURI() */\n      jump\t// in\n    tag_160:\n        /* \"ERC721A/ERC721A.sol\":7386:7420  string memory baseURI = _baseURI() */\n      swap1\n      pop\n        /* \"ERC721A/ERC721A.sol\":7463:7464  0 */\n      0x00\n        /* \"ERC721A/ERC721A.sol\":7444:7451  baseURI */\n      dup2\n        /* \"ERC721A/ERC721A.sol\":7438:7459  bytes(baseURI).length */\n      mload\n        /* \"ERC721A/ERC721A.sol\":7438:7464  bytes(baseURI).length != 0 */\n      sub\n        /* \"ERC721A/ERC721A.sol\":7438:7525  bytes(baseURI).length != 0 ? string(abi.encodePacked(baseURI, tokenId.toString())) : '' */\n      tag_162\n      jumpi\n      mload(0x40)\n      dup1\n      0x20\n      add\n      0x40\n      mstore\n      dup1\n      0x00\n      dup2\n      mstore\n      pop\n      jump(tag_163)\n    tag_162:\n        /* \"ERC721A/ERC721A.sol\":7491:7498  baseURI */\n      dup1\n        /* \"ERC721A/ERC721A.sol\":7500:7518  tokenId.toString() */\n      tag_164\n        /* \"ERC721A/ERC721A.sol\":7500:7507  tokenId */\n      dup5\n        /* \"ERC721A/ERC721A.sol\":7500:7516  tokenId.toString */\n      tag_165\n        /* \"ERC721A/ERC721A.sol\":7500:7518  tokenId.toString() */\n      jump\t// in\n    tag_164:\n        /* \"ERC721A/ERC721A.sol\":7474:7519  abi.encodePacked(baseURI, tokenId.toString()) */\n      add(0x20, mload(0x40))\n      tag_166\n      swap3\n      swap2\n      swap1\n      tag_167\n      jump\t// in\n    tag_166:\n      mload(0x40)\n      0x20\n      dup2\n      dup4\n      sub\n      sub\n      dup2\n      mstore\n      swap1\n      0x40\n      mstore\n        /* \"ERC721A/ERC721A.sol\":7438:7525  bytes(baseURI).length != 0 ? string(abi.encodePacked(baseURI, tokenId.toString())) : '' */\n    tag_163:\n        /* \"ERC721A/ERC721A.sol\":7431:7525  return bytes(baseURI).length != 0 ? string(abi.encodePacked(baseURI, tokenId.toString())) : '' */\n      swap2\n      pop\n      pop\n        /* \"ERC721A/ERC721A.sol\":7215:7533  function tokenURI(uint256 tokenId) public view virtual override returns (string memory) {... */\n      swap2\n      swap1\n      pop\n      jump\t// out\n        /* \"ERC721A/ERC721A.sol\":9090:9254  function isApprovedForAll(address owner, address operator) public view virtual override returns (bool) {... */\n    tag_86:\n        /* \"ERC721A/ERC721A.sol\":9187:9191  bool */\n      0x00\n        /* \"ERC721A/ERC721A.sol\":9211:9229  _operatorApprovals */\n      0x07\n        /* \"ERC721A/ERC721A.sol\":9211:9236  _operatorApprovals[owner] */\n      0x00\n        /* \"ERC721A/ERC721A.sol\":9230:9235  owner */\n      dup5\n        /* \"ERC721A/ERC721A.sol\":9211:9236  _operatorApprovals[owner] */\n      0xffffffffffffffffffffffffffffffffffffffff\n      and\n      0xffffffffffffffffffffffffffffffffffffffff\n      and\n      dup2\n      mstore\n      0x20\n      add\n      swap1\n      dup2\n      mstore\n      0x20\n      add\n      0x00\n      keccak256\n        /* \"ERC721A/ERC721A.sol\":9211:9246  _operatorApprovals[owner][operator] */\n      0x00\n        /* \"ERC721A/ERC721A.sol\":9237:9245  operator */\n      dup4\n        /* \"ERC721A/ERC721A.sol\":9211:9246  _operatorApprovals[owner][operator] */\n      0xffffffffffffffffffffffffffffffffffffffff\n      and\n      0xffffffffffffffffffffffffffffffffffffffff\n      and\n      dup2\n      mstore\n      0x20\n      add\n      swap1\n      dup2\n      mstore\n      0x20\n      add\n      0x00\n      keccak256\n      0x00\n      swap1\n      sload\n      swap1\n      0x0100\n      exp\n      swap1\n      div\n      0xff\n      and\n        /* \"ERC721A/ERC721A.sol\":9204:9246  return _operatorApprovals[owner][operator] */\n      swap1\n      pop\n        /* \"ERC721A/ERC721A.sol\":9090:9254  function isApprovedForAll(address owner, address operator) public view virtual override returns (bool) {... */\n      swap3\n      swap2\n      pop\n      pop\n      jump\t// out\n        /* \"@openzeppelin/contracts/utils/introspection/ERC165.sol\":829:984  function supportsInterface(bytes4 interfaceId) public view virtual override returns (bool) {... */\n    tag_92:\n        /* \"@openzeppelin/contracts/utils/introspection/ERC165.sol\":914:918  bool */\n      0x00\n        /* \"@openzeppelin/contracts/utils/introspection/ERC165.sol\":952:977  type(IERC165).interfaceId */\n      0x01ffc9a700000000000000000000000000000000000000000000000000000000\n        /* \"@openzeppelin/contracts/utils/introspection/ERC165.sol\":937:977  interfaceId == type(IERC165).interfaceId */\n      not(0xffffffffffffffffffffffffffffffffffffffffffffffffffffffff)\n      and\n        /* \"@openzeppelin/contracts/utils/introspection/ERC165.sol\":937:948  interfaceId */\n      dup3\n        /* \"@openzeppelin/contracts/utils/introspection/ERC165.sol\":937:977  interfaceId == type(IERC165).interfaceId */\n      not(0xffffffffffffffffffffffffffffffffffffffffffffffffffffffff)\n      and\n      eq\n        /* \"@openzeppelin/contracts/utils/introspection/ERC165.sol\":930:977  return interfaceId == type(IERC165).interfaceId */\n      swap1\n      pop\n        /* \"@openzeppelin/contracts/utils/introspection/ERC165.sol\":829:984  function supportsInterface(bytes4 interfaceId) public view virtual override returns (bool) {... */\n      swap2\n      swap1\n      pop\n      jump\t// out\n        /* \"ERC721A/ERC721A.sol\":10443:10617  function _exists(uint256 tokenId) internal view returns (bool) {... */\n    tag_102:\n        /* \"ERC721A/ERC721A.sol\":10500:10504  bool */\n      0x00\n        /* \"ERC721A/ERC721A.sol\":10543:10550  tokenId */\n      dup2\n        /* \"ERC721A/ERC721A.sol\":10524:10539  _startTokenId() */\n      tag_171\n        /* \"ERC721A/ERC721A.sol\":10524:10537  _startTokenId */\n      tag_117\n        /* \"ERC721A/ERC721A.sol\":10524:10539  _startTokenId() */\n      jump\t// in\n    tag_171:\n        /* \"ERC721A/ERC721A.sol\":10524:10550  _startTokenId() <= tokenId */\n      gt\n      iszero\n        /* \"ERC721A/ERC721A.sol\":10524:10577  _startTokenId() <= tokenId && tokenId < _currentIndex */\n      dup1\n      iszero\n      tag_172\n      jumpi\n      pop\n        /* \"ERC721A/ERC721A.sol\":10564:10577  _currentIndex */\n      sload(0x00)\n        /* \"ERC721A/ERC721A.sol\":10554:10561  tokenId */\n      dup3\n        /* \"ERC721A/ERC721A.sol\":10554:10577  tokenId < _currentIndex */\n      lt\n        /* \"ERC721A/ERC721A.sol\":10524:10577  _startTokenId() <= tokenId && tokenId < _currentIndex */\n    tag_172:\n        /* \"ERC721A/ERC721A.sol\":10524:10609  _startTokenId() <= tokenId && tokenId < _currentIndex && !_ownerships[tokenId].burned */\n      dup1\n      iszero\n      tag_173\n      jumpi\n      pop\n        /* \"ERC721A/ERC721A.sol\":10582:10593  _ownerships */\n      0x04\n        /* \"ERC721A/ERC721A.sol\":10582:10602  _ownerships[tokenId] */\n      0x00\n        /* \"ERC721A/ERC721A.sol\":10594:10601  tokenId */\n      dup4\n        /* \"ERC721A/ERC721A.sol\":10582:10602  _ownerships[tokenId] */\n      dup2\n      mstore\n      0x20\n      add\n      swap1\n      dup2\n      mstore\n      0x20\n      add\n      0x00\n      keccak256\n        /* \"ERC721A/ERC721A.sol\":10582:10609  _ownerships[tokenId].burned */\n      0x00\n      add\n      0x1c\n      swap1\n      sload\n      swap1\n      0x0100\n      exp\n      swap1\n      div\n      0xff\n      and\n        /* \"ERC721A/ERC721A.sol\":10581:10609  !_ownerships[tokenId].burned */\n      iszero\n        /* \"ERC721A/ERC721A.sol\":10524:10609  _startTokenId() <= tokenId && tokenId < _currentIndex && !_ownerships[tokenId].burned */\n    tag_173:\n        /* \"ERC721A/ERC721A.sol\":10517:10609  return _startTokenId() <= tokenId && tokenId < _currentIndex && !_ownerships[tokenId].burned */\n      swap1\n      pop\n        /* \"ERC721A/ERC721A.sol\":10443:10617  function _exists(uint256 tokenId) internal view returns (bool) {... */\n      swap2\n      swap1\n      pop\n      jump\t// out\n        /* \"@openzeppelin/contracts/utils/Context.sol\":640:736  function _msgSender() internal view virtual returns (address) {... */\n    tag_108:\n        /* \"@openzeppelin/contracts/utils/Context.sol\":693:700  address */\n      0x00\n        /* \"@openzeppelin/contracts/utils/Context.sol\":719:729  msg.sender */\n      caller\n        /* \"@openzeppelin/contracts/utils/Context.sol\":712:729  return msg.sender */\n      swap1\n      pop\n        /* \"@openzeppelin/contracts/utils/Context.sol\":640:736  function _msgSender() internal view virtual returns (address) {... */\n      swap1\n      jump\t// out\n        /* \"ERC721A/ERC721A.sol\":19665:19861  function _approve(... */\n    tag_114:\n        /* \"ERC721A/ERC721A.sol\":19807:19809  to */\n      dup3\n        /* \"ERC721A/ERC721A.sol\":19780:19795  _tokenApprovals */\n      0x06\n        /* \"ERC721A/ERC721A.sol\":19780:19804  _tokenApprovals[tokenId] */\n      0x00\n        /* \"ERC721A/ERC721A.sol\":19796:19803  tokenId */\n      dup5\n        /* \"ERC721A/ERC721A.sol\":19780:19804  _tokenApprovals[tokenId] */\n      dup2\n      mstore\n      0x20\n      add\n      swap1\n      dup2\n      mstore\n      0x20\n      add\n      0x00\n      keccak256\n      0x00\n        /* \"ERC721A/ERC721A.sol\":19780:19809  _tokenApprovals[tokenId] = to */\n      0x0100\n      exp\n      dup2\n      sload\n      dup2\n      0xffffffffffffffffffffffffffffffffffffffff\n      mul\n      not\n      and\n      swap1\n      dup4\n      0xffffffffffffffffffffffffffffffffffffffff\n      and\n      mul\n      or\n      swap1\n      sstore\n      pop\n        /* \"ERC721A/ERC721A.sol\":19845:19852  tokenId */\n      dup2\n        /* \"ERC721A/ERC721A.sol\":19841:19843  to */\n      dup4\n        /* \"ERC721A/ERC721A.sol\":19825:19853  Approval(owner, to, tokenId) */\n      0xffffffffffffffffffffffffffffffffffffffff\n      and\n        /* \"ERC721A/ERC721A.sol\":19834:19839  owner */\n      dup3\n        /* \"ERC721A/ERC721A.sol\":19825:19853  Approval(owner, to, tokenId) */\n      0xffffffffffffffffffffffffffffffffffffffff\n      and\n      0x8c5be1e5ebec7d5bd14f71427d1e84f3dd0314c0f7b2291e5b200ac8c7c3b925\n      mload(0x40)\n      mload(0x40)\n      dup1\n      swap2\n      sub\n      swap1\n      log4\n        /* \"ERC721A/ERC721A.sol\":19665:19861  function _approve(... */\n      pop\n      pop\n      pop\n      jump\t// out\n        /* \"ERC721A/ERC721A.sol\":2770:2862  function _startTokenId() internal view virtual returns (uint256) {... */\n    tag_117:\n        /* \"ERC721A/ERC721A.sol\":2826:2833  uint256 */\n      0x00\n        /* \"ERC721A/ERC721A.sol\":2853:2854  1 */\n      0x01\n        /* \"ERC721A/ERC721A.sol\":2846:2854  return 1 */\n      swap1\n      pop\n        /* \"ERC721A/ERC721A.sol\":2770:2862  function _startTokenId() internal view virtual returns (uint256) {... */\n      swap1\n      jump\t// out\n        /* \"ERC721A/ERC721A.sol\":14613:16743  function _transfer(... */\n    tag_121:\n        /* \"ERC721A/ERC721A.sol\":14728:14763  TokenOwnership memory prevOwnership */\n      0x00\n        /* \"ERC721A/ERC721A.sol\":14766:14787  _ownershipOf(tokenId) */\n      tag_178\n        /* \"ERC721A/ERC721A.sol\":14779:14786  tokenId */\n      dup3\n        /* \"ERC721A/ERC721A.sol\":14766:14778  _ownershipOf */\n      tag_134\n        /* \"ERC721A/ERC721A.sol\":14766:14787  _ownershipOf(tokenId) */\n      jump\t// in\n    tag_178:\n        /* \"ERC721A/ERC721A.sol\":14728:14787  TokenOwnership memory prevOwnership = _ownershipOf(tokenId) */\n      swap1\n      pop\n        /* \"ERC721A/ERC721A.sol\":14826:14830  from */\n      dup4\n        /* \"ERC721A/ERC721A.sol\":14804:14830  prevOwnership.addr != from */\n      0xffffffffffffffffffffffffffffffffffffffff\n      and\n        /* \"ERC721A/ERC721A.sol\":14804:14817  prevOwnership */\n      dup2\n        /* \"ERC721A/ERC721A.sol\":14804:14822  prevOwnership.addr */\n      0x00\n      add\n      mload\n        /* \"ERC721A/ERC721A.sol\":14804:14830  prevOwnership.addr != from */\n      0xffffffffffffffffffffffffffffffffffffffff\n      and\n      eq\n        /* \"ERC721A/ERC721A.sol\":14800:14867  if (prevOwnership.addr != from) revert TransferFromIncorrectOwner() */\n      tag_179\n      jumpi\n        /* \"ERC721A/ERC721A.sol\":14839:14867  TransferFromIncorrectOwner() */\n      mload(0x40)\n      0xa114810000000000000000000000000000000000000000000000000000000000\n      dup2\n      mstore\n      0x04\n      add\n      mload(0x40)\n      dup1\n      swap2\n      sub\n      swap1\n      revert\n        /* \"ERC721A/ERC721A.sol\":14800:14867  if (prevOwnership.addr != from) revert TransferFromIncorrectOwner() */\n    tag_179:\n        /* \"ERC721A/ERC721A.sol\":14880:14902  bool isApprovedOrOwner */\n      0x00\n        /* \"ERC721A/ERC721A.sol\":14922:14926  from */\n      dup5\n        /* \"ERC721A/ERC721A.sol\":14906:14926  _msgSender() == from */\n      0xffffffffffffffffffffffffffffffffffffffff\n      and\n        /* \"ERC721A/ERC721A.sol\":14906:14918  _msgSender() */\n      tag_180\n        /* \"ERC721A/ERC721A.sol\":14906:14916  _msgSender */\n      tag_108\n        /* \"ERC721A/ERC721A.sol\":14906:14918  _msgSender() */\n      jump\t// in\n    tag_180:\n        /* \"ERC721A/ERC721A.sol\":14906:14926  _msgSender() == from */\n      0xffffffffffffffffffffffffffffffffffffffff\n      and\n      eq\n        /* \"ERC721A/ERC721A.sol\":14906:14979  _msgSender() == from ||... */\n      dup1\n      tag_181\n      jumpi\n      pop\n        /* \"ERC721A/ERC721A.sol\":14943:14979  isApprovedForAll(from, _msgSender()) */\n      tag_182\n        /* \"ERC721A/ERC721A.sol\":14960:14964  from */\n      dup6\n        /* \"ERC721A/ERC721A.sol\":14966:14978  _msgSender() */\n      tag_183\n        /* \"ERC721A/ERC721A.sol\":14966:14976  _msgSender */\n      tag_108\n        /* \"ERC721A/ERC721A.sol\":14966:14978  _msgSender() */\n      jump\t// in\n    tag_183:\n        /* \"ERC721A/ERC721A.sol\":14943:14959  isApprovedForAll */\n      tag_86\n        /* \"ERC721A/ERC721A.sol\":14943:14979  isApprovedForAll(from, _msgSender()) */\n      jump\t// in\n    tag_182:\n        /* \"ERC721A/ERC721A.sol\":14906:14979  _msgSender() == from ||... */\n    tag_181:\n        /* \"ERC721A/ERC721A.sol\":14906:15032  _msgSender() == from ||... */\n      dup1\n      tag_184\n      jumpi\n      pop\n        /* \"ERC721A/ERC721A.sol\":15020:15032  _msgSender() */\n      tag_185\n        /* \"ERC721A/ERC721A.sol\":15020:15030  _msgSender */\n      tag_108\n        /* \"ERC721A/ERC721A.sol\":15020:15032  _msgSender() */\n      jump\t// in\n    tag_185:\n        /* \"ERC721A/ERC721A.sol\":14996:15032  getApproved(tokenId) == _msgSender() */\n      0xffffffffffffffffffffffffffffffffffffffff\n      and\n        /* \"ERC721A/ERC721A.sol\":14996:15016  getApproved(tokenId) */\n      tag_186\n        /* \"ERC721A/ERC721A.sol\":15008:15015  tokenId */\n      dup5\n        /* \"ERC721A/ERC721A.sol\":14996:15007  getApproved */\n      tag_35\n        /* \"ERC721A/ERC721A.sol\":14996:15016  getApproved(tokenId) */\n      jump\t// in\n    tag_186:\n        /* \"ERC721A/ERC721A.sol\":14996:15032  getApproved(tokenId) == _msgSender() */\n      0xffffffffffffffffffffffffffffffffffffffff\n      and\n      eq\n        /* \"ERC721A/ERC721A.sol\":14906:15032  _msgSender() == from ||... */\n    tag_184:\n        /* \"ERC721A/ERC721A.sol\":14880:15033  bool isApprovedOrOwner = (_msgSender() == from ||... */\n      swap1\n      pop\n        /* \"ERC721A/ERC721A.sol\":15051:15068  isApprovedOrOwner */\n      dup1\n        /* \"ERC721A/ERC721A.sol\":15046:15112  if (!isApprovedOrOwner) revert TransferCallerNotOwnerNorApproved() */\n      tag_187\n      jumpi\n        /* \"ERC721A/ERC721A.sol\":15077:15112  TransferCallerNotOwnerNorApproved() */\n      mload(0x40)\n      0x59c896be00000000000000000000000000000000000000000000000000000000\n      dup2\n      mstore\n      0x04\n      add\n      mload(0x40)\n      dup1\n      swap2\n      sub\n      swap1\n      revert\n        /* \"ERC721A/ERC721A.sol\":15046:15112  if (!isApprovedOrOwner) revert TransferCallerNotOwnerNorApproved() */\n    tag_187:\n        /* \"ERC721A/ERC721A.sol\":15141:15142  0 */\n      0x00\n        /* \"ERC721A/ERC721A.sol\":15127:15143  to == address(0) */\n      0xffffffffffffffffffffffffffffffffffffffff\n      and\n        /* \"ERC721A/ERC721A.sol\":15127:15129  to */\n      dup5\n        /* \"ERC721A/ERC721A.sol\":15127:15143  to == address(0) */\n      0xffffffffffffffffffffffffffffffffffffffff\n      and\n      sub\n        /* \"ERC721A/ERC721A.sol\":15123:15175  if (to == address(0)) revert TransferToZeroAddress() */\n      tag_188\n      jumpi\n        /* \"ERC721A/ERC721A.sol\":15152:15175  TransferToZeroAddress() */\n      mload(0x40)\n      0xea553b3400000000000000000000000000000000000000000000000000000000\n      dup2\n      mstore\n      0x04\n      add\n      mload(0x40)\n      dup1\n      swap2\n      sub\n      swap1\n      revert\n        /* \"ERC721A/ERC721A.sol\":15123:15175  if (to == address(0)) revert TransferToZeroAddress() */\n    tag_188:\n        /* \"ERC721A/ERC721A.sol\":15188:15231  _beforeTokenTransfers(from, to, tokenId, 1) */\n      tag_189\n        /* \"ERC721A/ERC721A.sol\":15210:15214  from */\n      dup6\n        /* \"ERC721A/ERC721A.sol\":15216:15218  to */\n      dup6\n        /* \"ERC721A/ERC721A.sol\":15220:15227  tokenId */\n      dup6\n        /* \"ERC721A/ERC721A.sol\":15229:15230  1 */\n      0x01\n        /* \"ERC721A/ERC721A.sol\":15188:15209  _beforeTokenTransfers */\n      tag_190\n        /* \"ERC721A/ERC721A.sol\":15188:15231  _beforeTokenTransfers(from, to, tokenId, 1) */\n      jump\t// in\n    tag_189:\n        /* \"ERC721A/ERC721A.sol\":15296:15331  _approve(address(0), tokenId, from) */\n      tag_191\n        /* \"ERC721A/ERC721A.sol\":15313:15314  0 */\n      0x00\n        /* \"ERC721A/ERC721A.sol\":15317:15324  tokenId */\n      dup5\n        /* \"ERC721A/ERC721A.sol\":15326:15330  from */\n      dup8\n        /* \"ERC721A/ERC721A.sol\":15296:15304  _approve */\n      tag_114\n        /* \"ERC721A/ERC721A.sol\":15296:15331  _approve(address(0), tokenId, from) */\n      jump\t// in\n    tag_191:\n        /* \"ERC721A/ERC721A.sol\":15657:15658  1 */\n      0x01\n        /* \"ERC721A/ERC721A.sol\":15627:15639  _addressData */\n      0x05\n        /* \"ERC721A/ERC721A.sol\":15627:15645  _addressData[from] */\n      0x00\n        /* \"ERC721A/ERC721A.sol\":15640:15644  from */\n      dup8\n        /* \"ERC721A/ERC721A.sol\":15627:15645  _addressData[from] */\n      0xffffffffffffffffffffffffffffffffffffffff\n      and\n      0xffffffffffffffffffffffffffffffffffffffff\n      and\n      dup2\n      mstore\n      0x20\n      add\n      swap1\n      dup2\n      mstore\n      0x20\n      add\n      0x00\n      keccak256\n        /* \"ERC721A/ERC721A.sol\":15627:15653  _addressData[from].balance */\n      0x00\n      add\n      0x00\n        /* \"ERC721A/ERC721A.sol\":15627:15658  _addressData[from].balance -= 1 */\n      dup3\n      dup3\n      dup3\n      swap1\n      sload\n      swap1\n      0x0100\n      exp\n      swap1\n      div\n      0xffffffffffffffff\n      and\n      sub\n      swap3\n      pop\n      0x0100\n      exp\n      dup2\n      sload\n      dup2\n      0xffffffffffffffff\n      mul\n      not\n      and\n      swap1\n      dup4\n      0xffffffffffffffff\n      and\n      mul\n      or\n      swap1\n      sstore\n      pop\n        /* \"ERC721A/ERC721A.sol\":15701:15702  1 */\n      0x01\n        /* \"ERC721A/ERC721A.sol\":15673:15685  _addressData */\n      0x05\n        /* \"ERC721A/ERC721A.sol\":15673:15689  _addressData[to] */\n      0x00\n        /* \"ERC721A/ERC721A.sol\":15686:15688  to */\n      dup7\n        /* \"ERC721A/ERC721A.sol\":15673:15689  _addressData[to] */\n      0xffffffffffffffffffffffffffffffffffffffff\n      and\n      0xffffffffffffffffffffffffffffffffffffffff\n      and\n      dup2\n      mstore\n      0x20\n      add\n      swap1\n      dup2\n      mstore\n      0x20\n      add\n      0x00\n      keccak256\n        /* \"ERC721A/ERC721A.sol\":15673:15697  _addressData[to].balance */\n      0x00\n      add\n      0x00\n        /* \"ERC721A/ERC721A.sol\":15673:15702  _addressData[to].balance += 1 */\n      dup3\n      dup3\n      dup3\n      swap1\n      sload\n      swap1\n      0x0100\n      exp\n      swap1\n      div\n      0xffffffffffffffff\n      and\n      add\n      swap3\n      pop\n      0x0100\n      exp\n      dup2\n      sload\n      dup2\n      0xffffffffffffffff\n      mul\n      not\n      and\n      swap1\n      dup4\n      0xffffffffffffffff\n      and\n      mul\n      or\n      swap1\n      sstore\n      pop\n        /* \"ERC721A/ERC721A.sol\":15719:15750  TokenOwnership storage currSlot */\n      0x00\n        /* \"ERC721A/ERC721A.sol\":15753:15764  _ownerships */\n      0x04\n        /* \"ERC721A/ERC721A.sol\":15753:15773  _ownerships[tokenId] */\n      0x00\n        /* \"ERC721A/ERC721A.sol\":15765:15772  tokenId */\n      dup6\n        /* \"ERC721A/ERC721A.sol\":15753:15773  _ownerships[tokenId] */\n      dup2\n      mstore\n      0x20\n      add\n      swap1\n      dup2\n      mstore\n      0x20\n      add\n      0x00\n      keccak256\n        /* \"ERC721A/ERC721A.sol\":15719:15773  TokenOwnership storage currSlot = _ownerships[tokenId] */\n      swap1\n      pop\n        /* \"ERC721A/ERC721A.sol\":15804:15806  to */\n      dup5\n        /* \"ERC721A/ERC721A.sol\":15788:15796  currSlot */\n      dup2\n        /* \"ERC721A/ERC721A.sol\":15788:15801  currSlot.addr */\n      0x00\n      add\n      0x00\n        /* \"ERC721A/ERC721A.sol\":15788:15806  currSlot.addr = to */\n      0x0100\n      exp\n      dup2\n      sload\n      dup2\n      0xffffffffffffffffffffffffffffffffffffffff\n      mul\n      not\n      and\n      swap1\n      dup4\n      0xffffffffffffffffffffffffffffffffffffffff\n      and\n      mul\n      or\n      swap1\n      sstore\n      pop\n        /* \"ERC721A/ERC721A.sol\":15854:15869  block.timestamp */\n      timestamp\n        /* \"ERC721A/ERC721A.sol\":15821:15829  currSlot */\n      dup2\n        /* \"ERC721A/ERC721A.sol\":15821:15844  currSlot.startTimestamp */\n      0x00\n      add\n      0x14\n        /* \"ERC721A/ERC721A.sol\":15821:15870  currSlot.startTimestamp = uint64(block.timestamp) */\n      0x0100\n      exp\n      dup2\n      sload\n      dup2\n      0xffffffffffffffff\n      mul\n      not\n      and\n      swap1\n      dup4\n      0xffffffffffffffff\n      and\n      mul\n      or\n      swap1\n      sstore\n      pop\n        /* \"ERC721A/ERC721A.sol\":16122:16141  uint256 nextTokenId */\n      0x00\n        /* \"ERC721A/ERC721A.sol\":16154:16155  1 */\n      0x01\n        /* \"ERC721A/ERC721A.sol\":16144:16151  tokenId */\n      dup6\n        /* \"ERC721A/ERC721A.sol\":16144:16155  tokenId + 1 */\n      add\n        /* \"ERC721A/ERC721A.sol\":16122:16155  uint256 nextTokenId = tokenId + 1 */\n      swap1\n      pop\n        /* \"ERC721A/ERC721A.sol\":16170:16201  TokenOwnership storage nextSlot */\n      0x00\n        /* \"ERC721A/ERC721A.sol\":16204:16215  _ownerships */\n      0x04\n        /* \"ERC721A/ERC721A.sol\":16204:16228  _ownerships[nextTokenId] */\n      0x00\n        /* \"ERC721A/ERC721A.sol\":16216:16227  nextTokenId */\n      dup4\n        /* \"ERC721A/ERC721A.sol\":16204:16228  _ownerships[nextTokenId] */\n      dup2\n      mstore\n      0x20\n      add\n      swap1\n      dup2\n      mstore\n      0x20\n      add\n      0x00\n      keccak256\n        /* \"ERC721A/ERC721A.sol\":16170:16228  TokenOwnership storage nextSlot = _ownerships[nextTokenId] */\n      swap1\n      pop\n        /* \"ERC721A/ERC721A.sol\":16272:16273  0 */\n      0x00\n        /* \"ERC721A/ERC721A.sol\":16247:16274  nextSlot.addr == address(0) */\n      0xffffffffffffffffffffffffffffffffffffffff\n      and\n        /* \"ERC721A/ERC721A.sol\":16247:16255  nextSlot */\n      dup2\n        /* \"ERC721A/ERC721A.sol\":16247:16260  nextSlot.addr */\n      0x00\n      add\n      0x00\n      swap1\n      sload\n      swap1\n      0x0100\n      exp\n      swap1\n      div\n      0xffffffffffffffffffffffffffffffffffffffff\n      and\n        /* \"ERC721A/ERC721A.sol\":16247:16274  nextSlot.addr == address(0) */\n      0xffffffffffffffffffffffffffffffffffffffff\n      and\n      sub\n        /* \"ERC721A/ERC721A.sol\":16243:16627  if (nextSlot.addr == address(0)) {... */\n      tag_192\n      jumpi\n        /* \"ERC721A/ERC721A.sol\":16457:16470  _currentIndex */\n      sload(0x00)\n        /* \"ERC721A/ERC721A.sol\":16442:16453  nextTokenId */\n      dup3\n        /* \"ERC721A/ERC721A.sol\":16442:16470  nextTokenId != _currentIndex */\n      eq\n        /* \"ERC721A/ERC721A.sol\":16438:16612  if (nextTokenId != _currentIndex) {... */\n      tag_193\n      jumpi\n        /* \"ERC721A/ERC721A.sol\":16511:16515  from */\n      dup8\n        /* \"ERC721A/ERC721A.sol\":16495:16503  nextSlot */\n      dup2\n        /* \"ERC721A/ERC721A.sol\":16495:16508  nextSlot.addr */\n      0x00\n      add\n      0x00\n        /* \"ERC721A/ERC721A.sol\":16495:16515  nextSlot.addr = from */\n      0x0100\n      exp\n      dup2\n      sload\n      dup2\n      0xffffffffffffffffffffffffffffffffffffffff\n      mul\n      not\n      and\n      swap1\n      dup4\n      0xffffffffffffffffffffffffffffffffffffffff\n      and\n      mul\n      or\n      swap1\n      sstore\n      pop\n        /* \"ERC721A/ERC721A.sol\":16564:16577  prevOwnership */\n      dup5\n        /* \"ERC721A/ERC721A.sol\":16564:16592  prevOwnership.startTimestamp */\n      0x20\n      add\n      mload\n        /* \"ERC721A/ERC721A.sol\":16538:16546  nextSlot */\n      dup2\n        /* \"ERC721A/ERC721A.sol\":16538:16561  nextSlot.startTimestamp */\n      0x00\n      add\n      0x14\n        /* \"ERC721A/ERC721A.sol\":16538:16592  nextSlot.startTimestamp = prevOwnership.startTimestamp */\n      0x0100\n      exp\n      dup2\n      sload\n      dup2\n      0xffffffffffffffff\n      mul\n      not\n      and\n      swap1\n      dup4\n      0xffffffffffffffff\n      and\n      mul\n      or\n      swap1\n      sstore\n      pop\n        /* \"ERC721A/ERC721A.sol\":16438:16612  if (nextTokenId != _currentIndex) {... */\n    tag_193:\n        /* \"ERC721A/ERC721A.sol\":16243:16627  if (nextSlot.addr == address(0)) {... */\n    tag_192:\n        /* \"ERC721A/ERC721A.sol\":15602:16638  unchecked {... */\n      pop\n      pop\n      pop\n        /* \"ERC721A/ERC721A.sol\":16674:16681  tokenId */\n      dup3\n        /* \"ERC721A/ERC721A.sol\":16670:16672  to */\n      dup5\n        /* \"ERC721A/ERC721A.sol\":16655:16682  Transfer(from, to, tokenId) */\n      0xffffffffffffffffffffffffffffffffffffffff\n      and\n        /* \"ERC721A/ERC721A.sol\":16664:16668  from */\n      dup7\n        /* \"ERC721A/ERC721A.sol\":16655:16682  Transfer(from, to, tokenId) */\n      0xffffffffffffffffffffffffffffffffffffffff\n      and\n      0xddf252ad1be2c89b69c2b068fc378daa952ba7f163c4a11628f55a4df523b3ef\n      mload(0x40)\n      mload(0x40)\n      dup1\n      swap2\n      sub\n      swap1\n      log4\n        /* \"ERC721A/ERC721A.sol\":16693:16735  _afterTokenTransfers(from, to, tokenId, 1) */\n      tag_194\n        /* \"ERC721A/ERC721A.sol\":16714:16718  from */\n      dup6\n        /* \"ERC721A/ERC721A.sol\":16720:16722  to */\n      dup6\n        /* \"ERC721A/ERC721A.sol\":16724:16731  tokenId */\n      dup6\n        /* \"ERC721A/ERC721A.sol\":16733:16734  1 */\n      0x01\n        /* \"ERC721A/ERC721A.sol\":16693:16713  _afterTokenTransfers */\n      tag_195\n        /* \"ERC721A/ERC721A.sol\":16693:16735  _afterTokenTransfers(from, to, tokenId, 1) */\n      jump\t// in\n    tag_194:\n        /* \"ERC721A/ERC721A.sol\":14717:16743  {... */\n      pop\n      pop\n        /* \"ERC721A/ERC721A.sol\":14613:16743  function _transfer(... */\n      pop\n      pop\n      pop\n      jump\t// out\n        /* \"@openzeppelin/contracts/utils/math/SafeMath.sol\":3122:3218  function sub(uint256 a, uint256 b) internal pure returns (uint256) {... */\n    tag_124:\n        /* \"@openzeppelin/contracts/utils/math/SafeMath.sol\":3180:3187  uint256 */\n      0x00\n        /* \"@openzeppelin/contracts/utils/math/SafeMath.sol\":3210:3211  b */\n      dup2\n        /* \"@openzeppelin/contracts/utils/math/SafeMath.sol\":3206:3207  a */\n      dup4\n        /* \"@openzeppelin/contracts/utils/math/SafeMath.sol\":3206:3211  a - b */\n      tag_197\n      swap2\n      swap1\n      tag_198\n      jump\t// in\n    tag_197:\n        /* \"@openzeppelin/contracts/utils/math/SafeMath.sol\":3199:3211  return a - b */\n      swap1\n      pop\n        /* \"@openzeppelin/contracts/utils/math/SafeMath.sol\":3122:3218  function sub(uint256 a, uint256 b) internal pure returns (uint256) {... */\n      swap3\n      swap2\n      pop\n      pop\n      jump\t// out\n        /* \"@openzeppelin/contracts/utils/math/SafeMath.sol\":3465:3561  function mul(uint256 a, uint256 b) internal pure returns (uint256) {... */\n    tag_127:\n        /* \"@openzeppelin/contracts/utils/math/SafeMath.sol\":3523:3530  uint256 */\n      0x00\n        /* \"@openzeppelin/contracts/utils/math/SafeMath.sol\":3553:3554  b */\n      dup2\n        /* \"@openzeppelin/contracts/utils/math/SafeMath.sol\":3549:3550  a */\n      dup4\n        /* \"@openzeppelin/contracts/utils/math/SafeMath.sol\":3549:3554  a * b */\n      tag_200\n      swap2\n      swap1\n      tag_201\n      jump\t// in\n    tag_200:\n        /* \"@openzeppelin/contracts/utils/math/SafeMath.sol\":3542:3554  return a * b */\n      swap1\n      pop\n        /* \"@openzeppelin/contracts/utils/math/SafeMath.sol\":3465:3561  function mul(uint256 a, uint256 b) internal pure returns (uint256) {... */\n      swap3\n      swap2\n      pop\n      pop\n      jump\t// out\n        /* \"@openzeppelin/contracts/utils/math/SafeMath.sol\":2755:2851  function add(uint256 a, uint256 b) internal pure returns (uint256) {... */\n    tag_129:\n        /* \"@openzeppelin/contracts/utils/math/SafeMath.sol\":2813:2820  uint256 */\n      0x00\n        /* \"@openzeppelin/contracts/utils/math/SafeMath.sol\":2843:2844  b */\n      dup2\n        /* \"@openzeppelin/contracts/utils/math/SafeMath.sol\":2839:2840  a */\n      dup4\n        /* \"@openzeppelin/contracts/utils/math/SafeMath.sol\":2839:2844  a + b */\n      tag_203\n      swap2\n      swap1\n      tag_204\n      jump\t// in\n    tag_203:\n        /* \"@openzeppelin/contracts/utils/math/SafeMath.sol\":2832:2844  return a + b */\n      swap1\n      pop\n        /* \"@openzeppelin/contracts/utils/math/SafeMath.sol\":2755:2851  function add(uint256 a, uint256 b) internal pure returns (uint256) {... */\n      swap3\n      swap2\n      pop\n      pop\n      jump\t// out\n        /* \"ERC721A/ERC721A.sol\":5506:6617  function _ownershipOf(uint256 tokenId) internal view returns (TokenOwnership memory) {... */\n    tag_134:\n        /* \"ERC721A/ERC721A.sol\":5568:5589  TokenOwnership memory */\n      tag_205\n      tag_206\n      jump\t// in\n    tag_205:\n        /* \"ERC721A/ERC721A.sol\":5602:5614  uint256 curr */\n      0x00\n        /* \"ERC721A/ERC721A.sol\":5617:5624  tokenId */\n      dup3\n        /* \"ERC721A/ERC721A.sol\":5602:5624  uint256 curr = tokenId */\n      swap1\n      pop\n        /* \"ERC721A/ERC721A.sol\":5685:5689  curr */\n      dup1\n        /* \"ERC721A/ERC721A.sol\":5666:5681  _startTokenId() */\n      tag_208\n        /* \"ERC721A/ERC721A.sol\":5666:5679  _startTokenId */\n      tag_117\n        /* \"ERC721A/ERC721A.sol\":5666:5681  _startTokenId() */\n      jump\t// in\n    tag_208:\n        /* \"ERC721A/ERC721A.sol\":5666:5689  _startTokenId() <= curr */\n      gt\n        /* \"ERC721A/ERC721A.sol\":5662:6550  if (_startTokenId() <= curr) if (curr < _currentIndex) {... */\n      tag_209\n      jumpi\n        /* \"ERC721A/ERC721A.sol\":5702:5715  _currentIndex */\n      sload(0x00)\n        /* \"ERC721A/ERC721A.sol\":5695:5699  curr */\n      dup2\n        /* \"ERC721A/ERC721A.sol\":5695:5715  curr < _currentIndex */\n      lt\n        /* \"ERC721A/ERC721A.sol\":5691:6550  if (curr < _currentIndex) {... */\n      iszero\n      tag_210\n      jumpi\n        /* \"ERC721A/ERC721A.sol\":5736:5767  TokenOwnership memory ownership */\n      0x00\n        /* \"ERC721A/ERC721A.sol\":5770:5781  _ownerships */\n      0x04\n        /* \"ERC721A/ERC721A.sol\":5770:5787  _ownerships[curr] */\n      0x00\n        /* \"ERC721A/ERC721A.sol\":5782:5786  curr */\n      dup4\n        /* \"ERC721A/ERC721A.sol\":5770:5787  _ownerships[curr] */\n      dup2\n      mstore\n      0x20\n      add\n      swap1\n      dup2\n      mstore\n      0x20\n      add\n      0x00\n      keccak256\n        /* \"ERC721A/ERC721A.sol\":5736:5787  TokenOwnership memory ownership = _ownerships[curr] */\n      mload(0x40)\n      dup1\n      0x60\n      add\n      0x40\n      mstore\n      swap1\n      dup2\n      0x00\n      dup3\n      add\n      0x00\n      swap1\n      sload\n      swap1\n      0x0100\n      exp\n      swap1\n      div\n      0xffffffffffffffffffffffffffffffffffffffff\n      and\n      0xffffffffffffffffffffffffffffffffffffffff\n      and\n      0xffffffffffffffffffffffffffffffffffffffff\n      and\n      dup2\n      mstore\n      0x20\n      add\n      0x00\n      dup3\n      add\n      0x14\n      swap1\n      sload\n      swap1\n      0x0100\n      exp\n      swap1\n      div\n      0xffffffffffffffff\n      and\n      0xffffffffffffffff\n      and\n      0xffffffffffffffff\n      and\n      dup2\n      mstore\n      0x20\n      add\n      0x00\n      dup3\n      add\n      0x1c\n      swap1\n      sload\n      swap1\n      0x0100\n      exp\n      swap1\n      div\n      0xff\n      and\n      iszero\n      iszero\n      iszero\n      iszero\n      dup2\n      mstore\n      pop\n      pop\n      swap1\n      pop\n        /* \"ERC721A/ERC721A.sol\":5811:5820  ownership */\n      dup1\n        /* \"ERC721A/ERC721A.sol\":5811:5827  ownership.burned */\n      0x40\n      add\n      mload\n        /* \"ERC721A/ERC721A.sol\":5806:6535  if (!ownership.burned) {... */\n      tag_211\n      jumpi\n        /* \"ERC721A/ERC721A.sol\":5882:5883  0 */\n      0x00\n        /* \"ERC721A/ERC721A.sol\":5856:5884  ownership.addr != address(0) */\n      0xffffffffffffffffffffffffffffffffffffffff\n      and\n        /* \"ERC721A/ERC721A.sol\":5856:5865  ownership */\n      dup2\n        /* \"ERC721A/ERC721A.sol\":5856:5870  ownership.addr */\n      0x00\n      add\n      mload\n        /* \"ERC721A/ERC721A.sol\":5856:5884  ownership.addr != address(0) */\n      0xffffffffffffffffffffffffffffffffffffffff\n      and\n      eq\n        /* \"ERC721A/ERC721A.sol\":5852:5953  if (ownership.addr != address(0)) {... */\n      tag_212\n      jumpi\n        /* \"ERC721A/ERC721A.sol\":5920:5929  ownership */\n      dup1\n        /* \"ERC721A/ERC721A.sol\":5913:5929  return ownership */\n      swap3\n      pop\n      pop\n      pop\n      jump(tag_207)\n        /* \"ERC721A/ERC721A.sol\":5852:5953  if (ownership.addr != address(0)) {... */\n    tag_212:\n        /* \"ERC721A/ERC721A.sol\":6255:6516  while (true) {... */\n    tag_213:\n        /* \"ERC721A/ERC721A.sol\":6262:6266  true */\n      0x01\n        /* \"ERC721A/ERC721A.sol\":6255:6516  while (true) {... */\n      iszero\n      tag_214\n      jumpi\n        /* \"ERC721A/ERC721A.sol\":6295:6301  curr-- */\n      dup2\n      dup1\n      0x01\n      swap1\n      sub\n      swap3\n      pop\n      pop\n        /* \"ERC721A/ERC721A.sol\":6340:6351  _ownerships */\n      0x04\n        /* \"ERC721A/ERC721A.sol\":6340:6357  _ownerships[curr] */\n      0x00\n        /* \"ERC721A/ERC721A.sol\":6352:6356  curr */\n      dup4\n        /* \"ERC721A/ERC721A.sol\":6340:6357  _ownerships[curr] */\n      dup2\n      mstore\n      0x20\n      add\n      swap1\n      dup2\n      mstore\n      0x20\n      add\n      0x00\n      keccak256\n        /* \"ERC721A/ERC721A.sol\":6328:6357  ownership = _ownerships[curr] */\n      mload(0x40)\n      dup1\n      0x60\n      add\n      0x40\n      mstore\n      swap1\n      dup2\n      0x00\n      dup3\n      add\n      0x00\n      swap1\n      sload\n      swap1\n      0x0100\n      exp\n      swap1\n      div\n      0xffffffffffffffffffffffffffffffffffffffff\n      and\n      0xffffffffffffffffffffffffffffffffffffffff\n      and\n      0xffffffffffffffffffffffffffffffffffffffff\n      and\n      dup2\n      mstore\n      0x20\n      add\n      0x00\n      dup3\n      add\n      0x14\n      swap1\n      sload\n      swap1\n      0x0100\n      exp\n      swap1\n      div\n      0xffffffffffffffff\n      and\n      0xffffffffffffffff\n      and\n      0xffffffffffffffff\n      and\n      dup2\n      mstore\n      0x20\n      add\n      0x00\n      dup3\n      add\n      0x1c\n      swap1\n      sload\n      swap1\n      0x0100\n      exp\n      swap1\n      div\n      0xff\n      and\n      iszero\n      iszero\n      iszero\n      iszero\n      dup2\n      mstore\n      pop\n      pop\n      swap1\n      pop\n        /* \"ERC721A/ERC721A.sol\":6414:6415  0 */\n      0x00\n        /* \"ERC721A/ERC721A.sol\":6388:6416  ownership.addr != address(0) */\n      0xffffffffffffffffffffffffffffffffffffffff\n      and\n        /* \"ERC721A/ERC721A.sol\":6388:6397  ownership */\n      dup2\n        /* \"ERC721A/ERC721A.sol\":6388:6402  ownership.addr */\n      0x00\n      add\n      mload\n        /* \"ERC721A/ERC721A.sol\":6388:6416  ownership.addr != address(0) */\n      0xffffffffffffffffffffffffffffffffffffffff\n      and\n      eq\n        /* \"ERC721A/ERC721A.sol\":6384:6493  if (ownership.addr != address(0)) {... */\n      tag_215\n      jumpi\n        /* \"ERC721A/ERC721A.sol\":6456:6465  ownership */\n      dup1\n        /* \"ERC721A/ERC721A.sol\":6449:6465  return ownership */\n      swap3\n      pop\n      pop\n      pop\n      jump(tag_207)\n        /* \"ERC721A/ERC721A.sol\":6384:6493  if (ownership.addr != address(0)) {... */\n    tag_215:\n        /* \"ERC721A/ERC721A.sol\":6255:6516  while (true) {... */\n      jump(tag_213)\n    tag_214:\n        /* \"ERC721A/ERC721A.sol\":5806:6535  if (!ownership.burned) {... */\n    tag_211:\n        /* \"ERC721A/ERC721A.sol\":5717:6550  {... */\n      pop\n        /* \"ERC721A/ERC721A.sol\":5691:6550  if (curr < _currentIndex) {... */\n    tag_210:\n        /* \"ERC721A/ERC721A.sol\":5662:6550  if (_startTokenId() <= curr) if (curr < _currentIndex) {... */\n    tag_209:\n        /* \"ERC721A/ERC721A.sol\":6578:6609  OwnerQueryForNonexistentToken() */\n      mload(0x40)\n      0xdf2d9b4200000000000000000000000000000000000000000000000000000000\n      dup2\n      mstore\n      0x04\n      add\n      mload(0x40)\n      dup1\n      swap2\n      sub\n      swap1\n      revert\n        /* \"ERC721A/ERC721A.sol\":5506:6617  function _ownershipOf(uint256 tokenId) internal view returns (TokenOwnership memory) {... */\n    tag_207:\n      swap2\n      swap1\n      pop\n      jump\t// out\n        /* \"@openzeppelin/contracts/utils/Address.sol\":1175:1495  function isContract(address account) internal view returns (bool) {... */\n    tag_152:\n        /* \"@openzeppelin/contracts/utils/Address.sol\":1235:1239  bool */\n      0x00\n        /* \"@openzeppelin/contracts/utils/Address.sol\":1487:1488  0 */\n      dup1\n        /* \"@openzeppelin/contracts/utils/Address.sol\":1465:1472  account */\n      dup3\n        /* \"@openzeppelin/contracts/utils/Address.sol\":1465:1484  account.code.length */\n      0xffffffffffffffffffffffffffffffffffffffff\n      and\n      extcodesize\n        /* \"@openzeppelin/contracts/utils/Address.sol\":1465:1488  account.code.length > 0 */\n      gt\n        /* \"@openzeppelin/contracts/utils/Address.sol\":1458:1488  return account.code.length > 0 */\n      swap1\n      pop\n        /* \"@openzeppelin/contracts/utils/Address.sol\":1175:1495  function isContract(address account) internal view returns (bool) {... */\n      swap2\n      swap1\n      pop\n      jump\t// out\n        /* \"ERC721A/ERC721A.sol\":20353:21020  function _checkContractOnERC721Received(... */\n    tag_155:\n        /* \"ERC721A/ERC721A.sol\":20516:20520  bool */\n      0x00\n        /* \"ERC721A/ERC721A.sol\":20553:20555  to */\n      dup4\n        /* \"ERC721A/ERC721A.sol\":20537:20573  IERC721Receiver(to).onERC721Received */\n      0xffffffffffffffffffffffffffffffffffffffff\n      and\n      0x150b7a02\n        /* \"ERC721A/ERC721A.sol\":20574:20586  _msgSender() */\n      tag_218\n        /* \"ERC721A/ERC721A.sol\":20574:20584  _msgSender */\n      tag_108\n        /* \"ERC721A/ERC721A.sol\":20574:20586  _msgSender() */\n      jump\t// in\n    tag_218:\n        /* \"ERC721A/ERC721A.sol\":20588:20592  from */\n      dup8\n        /* \"ERC721A/ERC721A.sol\":20594:20601  tokenId */\n      dup7\n        /* \"ERC721A/ERC721A.sol\":20603:20608  _data */\n      dup7\n        /* \"ERC721A/ERC721A.sol\":20537:20609  IERC721Receiver(to).onERC721Received(_msgSender(), from, tokenId, _data) */\n      mload(0x40)\n      dup6\n      0xffffffff\n      and\n      0xe0\n      shl\n      dup2\n      mstore\n      0x04\n      add\n      tag_219\n      swap5\n      swap4\n      swap3\n      swap2\n      swap1\n      tag_220\n      jump\t// in\n    tag_219:\n      0x20\n      mload(0x40)\n      dup1\n      dup4\n      sub\n      dup2\n      0x00\n      dup8\n      gas\n      call\n      swap3\n      pop\n      pop\n      pop\n      dup1\n      iszero\n      tag_221\n      jumpi\n      pop\n      mload(0x40)\n      returndatasize\n      not(0x1f)\n      0x1f\n      dup3\n      add\n      and\n      dup3\n      add\n      dup1\n      0x40\n      mstore\n      pop\n      dup2\n      add\n      swap1\n      tag_222\n      swap2\n      swap1\n      tag_223\n      jump\t// in\n    tag_222:\n      0x01\n    tag_221:\n        /* \"ERC721A/ERC721A.sol\":20533:21013  try IERC721Receiver(to).onERC721Received(_msgSender(), from, tokenId, _data) returns (bytes4 retval) {... */\n      tag_224\n      jumpi\n      returndatasize\n      dup1\n      0x00\n      dup2\n      eq\n      tag_229\n      jumpi\n      mload(0x40)\n      swap2\n      pop\n      and(add(returndatasize, 0x3f), not(0x1f))\n      dup3\n      add\n      0x40\n      mstore\n      returndatasize\n      dup3\n      mstore\n      returndatasize\n      0x00\n      0x20\n      dup5\n      add\n      returndatacopy\n      jump(tag_228)\n    tag_229:\n      0x60\n      swap2\n      pop\n    tag_228:\n      pop\n        /* \"ERC721A/ERC721A.sol\":20788:20789  0 */\n      0x00\n        /* \"ERC721A/ERC721A.sol\":20771:20777  reason */\n      dup2\n        /* \"ERC721A/ERC721A.sol\":20771:20784  reason.length */\n      mload\n        /* \"ERC721A/ERC721A.sol\":20771:20789  reason.length == 0 */\n      sub\n        /* \"ERC721A/ERC721A.sol\":20767:21002  if (reason.length == 0) {... */\n      tag_230\n      jumpi\n        /* \"ERC721A/ERC721A.sol\":20817:20857  TransferToNonERC721ReceiverImplementer() */\n      mload(0x40)\n      0xd1a57ed600000000000000000000000000000000000000000000000000000000\n      dup2\n      mstore\n      0x04\n      add\n      mload(0x40)\n      dup1\n      swap2\n      sub\n      swap1\n      revert\n        /* \"ERC721A/ERC721A.sol\":20767:21002  if (reason.length == 0) {... */\n    tag_230:\n        /* \"ERC721A/ERC721A.sol\":20960:20966  reason */\n      dup1\n        /* \"ERC721A/ERC721A.sol\":20954:20967  mload(reason) */\n      mload\n        /* \"ERC721A/ERC721A.sol\":20945:20951  reason */\n      dup2\n        /* \"ERC721A/ERC721A.sol\":20941:20943  32 */\n      0x20\n        /* \"ERC721A/ERC721A.sol\":20937:20952  add(32, reason) */\n      add\n        /* \"ERC721A/ERC721A.sol\":20930:20968  revert(add(32, reason), mload(reason)) */\n      revert\n        /* \"ERC721A/ERC721A.sol\":20533:21013  try IERC721Receiver(to).onERC721Received(_msgSender(), from, tokenId, _data) returns (bytes4 retval) {... */\n    tag_224:\n        /* \"ERC721A/ERC721A.sol\":20666:20711  IERC721Receiver(to).onERC721Received.selector */\n      shl(0xe0, 0x150b7a02)\n        /* \"ERC721A/ERC721A.sol\":20656:20711  retval == IERC721Receiver(to).onERC721Received.selector */\n      not(0xffffffffffffffffffffffffffffffffffffffffffffffffffffffff)\n      and\n        /* \"ERC721A/ERC721A.sol\":20656:20662  retval */\n      dup2\n        /* \"ERC721A/ERC721A.sol\":20656:20711  retval == IERC721Receiver(to).onERC721Received.selector */\n      not(0xffffffffffffffffffffffffffffffffffffffffffffffffffffffff)\n      and\n      eq\n        /* \"ERC721A/ERC721A.sol\":20649:20711  return retval == IERC721Receiver(to).onERC721Received.selector */\n      swap2\n      pop\n      pop\n        /* \"ERC721A/ERC721A.sol\":20353:21020  function _checkContractOnERC721Received(... */\n      swap5\n      swap4\n      pop\n      pop\n      pop\n      pop\n      jump\t// out\n        /* \"ERC721A/ERC721A.sol\":7781:7956  function _baseURI() internal view virtual returns (string memory) {... */\n    tag_161:\n        /* \"ERC721A/ERC721A.sol\":7832:7845  string memory */\n      0x60\n        /* \"ERC721A/ERC721A.sol\":7858:7948  return 'https://gateway.pinata.cloud/ipfs/QmfHWktTbSTBNLww8ZDh2qc5DKqiZciknoq76ZfXrsoR1v/' */\n      mload(0x40)\n      dup1\n      0x80\n      add\n      0x40\n      mstore\n      dup1\n      0x51\n      dup2\n      mstore\n      0x20\n      add\n      data_d8bb5093925f17312ccd69c1ad4eefb61d29f5f451bdf501cef244662be1efab\n      0x51\n      swap2\n      codecopy\n      swap1\n      pop\n        /* \"ERC721A/ERC721A.sol\":7781:7956  function _baseURI() internal view virtual returns (string memory) {... */\n      swap1\n      jump\t// out\n        /* \"@openzeppelin/contracts/utils/Strings.sol\":328:1031  function toString(uint256 value) internal pure returns (string memory) {... */\n    tag_165:\n        /* \"@openzeppelin/contracts/utils/Strings.sol\":384:397  string memory */\n      0x60\n        /* \"@openzeppelin/contracts/utils/Strings.sol\":610:611  0 */\n      0x00\n        /* \"@openzeppelin/contracts/utils/Strings.sol\":601:606  value */\n      dup3\n        /* \"@openzeppelin/contracts/utils/Strings.sol\":601:611  value == 0 */\n      sub\n        /* \"@openzeppelin/contracts/utils/Strings.sol\":597:648  if (value == 0) {... */\n      tag_235\n      jumpi\n        /* \"@openzeppelin/contracts/utils/Strings.sol\":627:637  return \"0\" */\n      mload(0x40)\n      dup1\n      0x40\n      add\n      0x40\n      mstore\n      dup1\n      0x01\n      dup2\n      mstore\n      0x20\n      add\n      0x3000000000000000000000000000000000000000000000000000000000000000\n      dup2\n      mstore\n      pop\n      swap1\n      pop\n      jump(tag_234)\n        /* \"@openzeppelin/contracts/utils/Strings.sol\":597:648  if (value == 0) {... */\n    tag_235:\n        /* \"@openzeppelin/contracts/utils/Strings.sol\":657:669  uint256 temp */\n      0x00\n        /* \"@openzeppelin/contracts/utils/Strings.sol\":672:677  value */\n      dup3\n        /* \"@openzeppelin/contracts/utils/Strings.sol\":657:677  uint256 temp = value */\n      swap1\n      pop\n        /* \"@openzeppelin/contracts/utils/Strings.sol\":687:701  uint256 digits */\n      0x00\n        /* \"@openzeppelin/contracts/utils/Strings.sol\":711:786  while (temp != 0) {... */\n    tag_236:\n        /* \"@openzeppelin/contracts/utils/Strings.sol\":726:727  0 */\n      0x00\n        /* \"@openzeppelin/contracts/utils/Strings.sol\":718:722  temp */\n      dup3\n        /* \"@openzeppelin/contracts/utils/Strings.sol\":718:727  temp != 0 */\n      eq\n        /* \"@openzeppelin/contracts/utils/Strings.sol\":711:786  while (temp != 0) {... */\n      tag_237\n      jumpi\n        /* \"@openzeppelin/contracts/utils/Strings.sol\":743:751  digits++ */\n      dup1\n      dup1\n      tag_238\n      swap1\n      tag_239\n      jump\t// in\n    tag_238:\n      swap2\n      pop\n      pop\n        /* \"@openzeppelin/contracts/utils/Strings.sol\":773:775  10 */\n      0x0a\n        /* \"@openzeppelin/contracts/utils/Strings.sol\":765:775  temp /= 10 */\n      dup3\n      tag_240\n      swap2\n      swap1\n      tag_241\n      jump\t// in\n    tag_240:\n      swap2\n      pop\n        /* \"@openzeppelin/contracts/utils/Strings.sol\":711:786  while (temp != 0) {... */\n      jump(tag_236)\n    tag_237:\n        /* \"@openzeppelin/contracts/utils/Strings.sol\":795:814  bytes memory buffer */\n      0x00\n        /* \"@openzeppelin/contracts/utils/Strings.sol\":827:833  digits */\n      dup2\n        /* \"@openzeppelin/contracts/utils/Strings.sol\":817:834  new bytes(digits) */\n      0xffffffffffffffff\n      dup2\n      gt\n      iszero\n      tag_242\n      jumpi\n      tag_243\n      tag_244\n      jump\t// in\n    tag_243:\n    tag_242:\n      mload(0x40)\n      swap1\n      dup1\n      dup3\n      mstore\n      dup1\n      0x1f\n      add\n      not(0x1f)\n      and\n      0x20\n      add\n      dup3\n      add\n      0x40\n      mstore\n      dup1\n      iszero\n      tag_245\n      jumpi\n      dup2\n      0x20\n      add\n      0x01\n      dup3\n      mul\n      dup1\n      calldatasize\n      dup4\n      calldatacopy\n      dup1\n      dup3\n      add\n      swap2\n      pop\n      pop\n      swap1\n      pop\n    tag_245:\n      pop\n        /* \"@openzeppelin/contracts/utils/Strings.sol\":795:834  bytes memory buffer = new bytes(digits) */\n      swap1\n      pop\n        /* \"@openzeppelin/contracts/utils/Strings.sol\":844:994  while (value != 0) {... */\n    tag_246:\n        /* \"@openzeppelin/contracts/utils/Strings.sol\":860:861  0 */\n      0x00\n        /* \"@openzeppelin/contracts/utils/Strings.sol\":851:856  value */\n      dup6\n        /* \"@openzeppelin/contracts/utils/Strings.sol\":851:861  value != 0 */\n      eq\n        /* \"@openzeppelin/contracts/utils/Strings.sol\":844:994  while (value != 0) {... */\n      tag_247\n      jumpi\n        /* \"@openzeppelin/contracts/utils/Strings.sol\":887:888  1 */\n      0x01\n        /* \"@openzeppelin/contracts/utils/Strings.sol\":877:888  digits -= 1 */\n      dup3\n      tag_248\n      swap2\n      swap1\n      tag_198\n      jump\t// in\n    tag_248:\n      swap2\n      pop\n        /* \"@openzeppelin/contracts/utils/Strings.sol\":953:955  10 */\n      0x0a\n        /* \"@openzeppelin/contracts/utils/Strings.sol\":945:950  value */\n      dup6\n        /* \"@openzeppelin/contracts/utils/Strings.sol\":945:955  value % 10 */\n      tag_249\n      swap2\n      swap1\n      tag_250\n      jump\t// in\n    tag_249:\n        /* \"@openzeppelin/contracts/utils/Strings.sol\":932:934  48 */\n      0x30\n        /* \"@openzeppelin/contracts/utils/Strings.sol\":932:956  48 + uint256(value % 10) */\n      tag_251\n      swap2\n      swap1\n      tag_204\n      jump\t// in\n    tag_251:\n        /* \"@openzeppelin/contracts/utils/Strings.sol\":919:958  bytes1(uint8(48 + uint256(value % 10))) */\n      0xf8\n      shl\n        /* \"@openzeppelin/contracts/utils/Strings.sol\":902:908  buffer */\n      dup2\n        /* \"@openzeppelin/contracts/utils/Strings.sol\":909:915  digits */\n      dup4\n        /* \"@openzeppelin/contracts/utils/Strings.sol\":902:916  buffer[digits] */\n      dup2\n      mload\n      dup2\n      lt\n      tag_252\n      jumpi\n      tag_253\n      tag_254\n      jump\t// in\n    tag_253:\n    tag_252:\n      0x20\n      add\n      add\n        /* \"@openzeppelin/contracts/utils/Strings.sol\":902:958  buffer[digits] = bytes1(uint8(48 + uint256(value % 10))) */\n      swap1\n      not(0xffffffffffffffffffffffffffffffffffffffffffffffffffffffffffffff)\n      and\n      swap1\n      dup2\n      0x00\n      byte\n      swap1\n      mstore8\n      pop\n        /* \"@openzeppelin/contracts/utils/Strings.sol\":981:983  10 */\n      0x0a\n        /* \"@openzeppelin/contracts/utils/Strings.sol\":972:983  value /= 10 */\n      dup6\n      tag_255\n      swap2\n      swap1\n      tag_241\n      jump\t// in\n    tag_255:\n      swap5\n      pop\n        /* \"@openzeppelin/contracts/utils/Strings.sol\":844:994  while (value != 0) {... */\n      jump(tag_246)\n    tag_247:\n        /* \"@openzeppelin/contracts/utils/Strings.sol\":1017:1023  buffer */\n      dup1\n        /* \"@openzeppelin/contracts/utils/Strings.sol\":1003:1024  return string(buffer) */\n      swap4\n      pop\n      pop\n      pop\n      pop\n        /* \"@openzeppelin/contracts/utils/Strings.sol\":328:1031  function toString(uint256 value) internal pure returns (string memory) {... */\n    tag_234:\n      swap2\n      swap1\n      pop\n      jump\t// out\n        /* \"ERC721A/ERC721A.sol\":21668:21827  function _beforeTokenTransfers(... */\n    tag_190:\n      pop\n      pop\n      pop\n      pop\n      jump\t// out\n        /* \"ERC721A/ERC721A.sol\":22486:22644  function _afterTokenTransfers(... */\n    tag_195:\n      pop\n      pop\n      pop\n      pop\n      jump\t// out\n    tag_206:\n      mload(0x40)\n      dup1\n      0x60\n      add\n      0x40\n      mstore\n      dup1\n      and(0xffffffffffffffffffffffffffffffffffffffff, 0x00)\n      dup2\n      mstore\n      0x20\n      add\n      and(0xffffffffffffffff, 0x00)\n      dup2\n      mstore\n      0x20\n      add\n      iszero(iszero(0x00))\n      dup2\n      mstore\n      pop\n      swap1\n      jump\t// out\n        /* \"#utility.yul\":7:82   */\n    tag_258:\n        /* \"#utility.yul\":40:46   */\n      0x00\n        /* \"#utility.yul\":73:75   */\n      0x40\n        /* \"#utility.yul\":67:76   */\n      mload\n        /* \"#utility.yul\":57:76   */\n      swap1\n      pop\n        /* \"#utility.yul\":7:82   */\n      swap1\n      jump\t// out\n        /* \"#utility.yul\":88:205   */\n    tag_259:\n        /* \"#utility.yul\":197:198   */\n      0x00\n        /* \"#utility.yul\":194:195   */\n      dup1\n        /* \"#utility.yul\":187:199   */\n      revert\n        /* \"#utility.yul\":211:328   */\n    tag_260:\n        /* \"#utility.yul\":320:321   */\n      0x00\n        /* \"#utility.yul\":317:318   */\n      dup1\n        /* \"#utility.yul\":310:322   */\n      revert\n        /* \"#utility.yul\":334:483   */\n    tag_261:\n        /* \"#utility.yul\":370:377   */\n      0x00\n        /* \"#utility.yul\":410:476   */\n      0xffffffff00000000000000000000000000000000000000000000000000000000\n        /* \"#utility.yul\":403:408   */\n      dup3\n        /* \"#utility.yul\":399:477   */\n      and\n        /* \"#utility.yul\":388:477   */\n      swap1\n      pop\n        /* \"#utility.yul\":334:483   */\n      swap2\n      swap1\n      pop\n      jump\t// out\n        /* \"#utility.yul\":489:609   */\n    tag_262:\n        /* \"#utility.yul\":561:584   */\n      tag_305\n        /* \"#utility.yul\":578:583   */\n      dup2\n        /* \"#utility.yul\":561:584   */\n      tag_261\n      jump\t// in\n    tag_305:\n        /* \"#utility.yul\":554:559   */\n      dup2\n        /* \"#utility.yul\":551:585   */\n      eq\n        /* \"#utility.yul\":541:603   */\n      tag_306\n      jumpi\n        /* \"#utility.yul\":599:600   */\n      0x00\n        /* \"#utility.yul\":596:597   */\n      dup1\n        /* \"#utility.yul\":589:601   */\n      revert\n        /* \"#utility.yul\":541:603   */\n    tag_306:\n        /* \"#utility.yul\":489:609   */\n      pop\n      jump\t// out\n        /* \"#utility.yul\":615:752   */\n    tag_263:\n        /* \"#utility.yul\":660:665   */\n      0x00\n        /* \"#utility.yul\":698:704   */\n      dup2\n        /* \"#utility.yul\":685:705   */\n      calldataload\n        /* \"#utility.yul\":676:705   */\n      swap1\n      pop\n        /* \"#utility.yul\":714:746   */\n      tag_308\n        /* \"#utility.yul\":740:745   */\n      dup2\n        /* \"#utility.yul\":714:746   */\n      tag_262\n      jump\t// in\n    tag_308:\n        /* \"#utility.yul\":615:752   */\n      swap3\n      swap2\n      pop\n      pop\n      jump\t// out\n        /* \"#utility.yul\":758:1085   */\n    tag_24:\n        /* \"#utility.yul\":816:822   */\n      0x00\n        /* \"#utility.yul\":865:867   */\n      0x20\n        /* \"#utility.yul\":853:862   */\n      dup3\n        /* \"#utility.yul\":844:851   */\n      dup5\n        /* \"#utility.yul\":840:863   */\n      sub\n        /* \"#utility.yul\":836:868   */\n      slt\n        /* \"#utility.yul\":833:952   */\n      iszero\n      tag_310\n      jumpi\n        /* \"#utility.yul\":871:950   */\n      tag_311\n      tag_259\n      jump\t// in\n    tag_311:\n        /* \"#utility.yul\":833:952   */\n    tag_310:\n        /* \"#utility.yul\":991:992   */\n      0x00\n        /* \"#utility.yul\":1016:1068   */\n      tag_312\n        /* \"#utility.yul\":1060:1067   */\n      dup5\n        /* \"#utility.yul\":1051:1057   */\n      dup3\n        /* \"#utility.yul\":1040:1049   */\n      dup6\n        /* \"#utility.yul\":1036:1058   */\n      add\n        /* \"#utility.yul\":1016:1068   */\n      tag_263\n      jump\t// in\n    tag_312:\n        /* \"#utility.yul\":1006:1068   */\n      swap2\n      pop\n        /* \"#utility.yul\":962:1078   */\n      pop\n        /* \"#utility.yul\":758:1085   */\n      swap3\n      swap2\n      pop\n      pop\n      jump\t// out\n        /* \"#utility.yul\":1091:1181   */\n    tag_264:\n        /* \"#utility.yul\":1125:1132   */\n      0x00\n        /* \"#utility.yul\":1168:1173   */\n      dup2\n        /* \"#utility.yul\":1161:1174   */\n      iszero\n        /* \"#utility.yul\":1154:1175   */\n      iszero\n        /* \"#utility.yul\":1143:1175   */\n      swap1\n      pop\n        /* \"#utility.yul\":1091:1181   */\n      swap2\n      swap1\n      pop\n      jump\t// out\n        /* \"#utility.yul\":1187:1296   */\n    tag_265:\n        /* \"#utility.yul\":1268:1289   */\n      tag_315\n        /* \"#utility.yul\":1283:1288   */\n      dup2\n        /* \"#utility.yul\":1268:1289   */\n      tag_264\n      jump\t// in\n    tag_315:\n        /* \"#utility.yul\":1263:1266   */\n      dup3\n        /* \"#utility.yul\":1256:1290   */\n      mstore\n        /* \"#utility.yul\":1187:1296   */\n      pop\n      pop\n      jump\t// out\n        /* \"#utility.yul\":1302:1512   */\n    tag_27:\n        /* \"#utility.yul\":1389:1393   */\n      0x00\n        /* \"#utility.yul\":1427:1429   */\n      0x20\n        /* \"#utility.yul\":1416:1425   */\n      dup3\n        /* \"#utility.yul\":1412:1430   */\n      add\n        /* \"#utility.yul\":1404:1430   */\n      swap1\n      pop\n        /* \"#utility.yul\":1440:1505   */\n      tag_317\n        /* \"#utility.yul\":1502:1503   */\n      0x00\n        /* \"#utility.yul\":1491:1500   */\n      dup4\n        /* \"#utility.yul\":1487:1504   */\n      add\n        /* \"#utility.yul\":1478:1484   */\n      dup5\n        /* \"#utility.yul\":1440:1505   */\n      tag_265\n      jump\t// in\n    tag_317:\n        /* \"#utility.yul\":1302:1512   */\n      swap3\n      swap2\n      pop\n      pop\n      jump\t// out\n        /* \"#utility.yul\":1518:1617   */\n    tag_266:\n        /* \"#utility.yul\":1570:1576   */\n      0x00\n        /* \"#utility.yul\":1604:1609   */\n      dup2\n        /* \"#utility.yul\":1598:1610   */\n      mload\n        /* \"#utility.yul\":1588:1610   */\n      swap1\n      pop\n        /* \"#utility.yul\":1518:1617   */\n      swap2\n      swap1\n      pop\n      jump\t// out\n        /* \"#utility.yul\":1623:1792   */\n    tag_267:\n        /* \"#utility.yul\":1707:1718   */\n      0x00\n        /* \"#utility.yul\":1741:1747   */\n      dup3\n        /* \"#utility.yul\":1736:1739   */\n      dup3\n        /* \"#utility.yul\":1729:1748   */\n      mstore\n        /* \"#utility.yul\":1781:1785   */\n      0x20\n        /* \"#utility.yul\":1776:1779   */\n      dup3\n        /* \"#utility.yul\":1772:1786   */\n      add\n        /* \"#utility.yul\":1757:1786   */\n      swap1\n      pop\n        /* \"#utility.yul\":1623:1792   */\n      swap3\n      swap2\n      pop\n      pop\n      jump\t// out\n        /* \"#utility.yul\":1798:2105   */\n    tag_268:\n        /* \"#utility.yul\":1866:1867   */\n      0x00\n        /* \"#utility.yul\":1876:1989   */\n    tag_321:\n        /* \"#utility.yul\":1890:1896   */\n      dup4\n        /* \"#utility.yul\":1887:1888   */\n      dup2\n        /* \"#utility.yul\":1884:1897   */\n      lt\n        /* \"#utility.yul\":1876:1989   */\n      iszero\n      tag_323\n      jumpi\n        /* \"#utility.yul\":1975:1976   */\n      dup1\n        /* \"#utility.yul\":1970:1973   */\n      dup3\n        /* \"#utility.yul\":1966:1977   */\n      add\n        /* \"#utility.yul\":1960:1978   */\n      mload\n        /* \"#utility.yul\":1956:1957   */\n      dup2\n        /* \"#utility.yul\":1951:1954   */\n      dup5\n        /* \"#utility.yul\":1947:1958   */\n      add\n        /* \"#utility.yul\":1940:1979   */\n      mstore\n        /* \"#utility.yul\":1912:1914   */\n      0x20\n        /* \"#utility.yul\":1909:1910   */\n      dup2\n        /* \"#utility.yul\":1905:1915   */\n      add\n        /* \"#utility.yul\":1900:1915   */\n      swap1\n      pop\n        /* \"#utility.yul\":1876:1989   */\n      jump(tag_321)\n    tag_323:\n        /* \"#utility.yul\":2007:2013   */\n      dup4\n        /* \"#utility.yul\":2004:2005   */\n      dup2\n        /* \"#utility.yul\":2001:2014   */\n      gt\n        /* \"#utility.yul\":1998:2099   */\n      iszero\n      tag_324\n      jumpi\n        /* \"#utility.yul\":2087:2088   */\n      0x00\n        /* \"#utility.yul\":2078:2084   */\n      dup5\n        /* \"#utility.yul\":2073:2076   */\n      dup5\n        /* \"#utility.yul\":2069:2085   */\n      add\n        /* \"#utility.yul\":2062:2089   */\n      mstore\n        /* \"#utility.yul\":1998:2099   */\n    tag_324:\n        /* \"#utility.yul\":1847:2105   */\n      pop\n        /* \"#utility.yul\":1798:2105   */\n      pop\n      pop\n      pop\n      jump\t// out\n        /* \"#utility.yul\":2111:2213   */\n    tag_269:\n        /* \"#utility.yul\":2152:2158   */\n      0x00\n        /* \"#utility.yul\":2203:2205   */\n      0x1f\n        /* \"#utility.yul\":2199:2206   */\n      not\n        /* \"#utility.yul\":2194:2196   */\n      0x1f\n        /* \"#utility.yul\":2187:2192   */\n      dup4\n        /* \"#utility.yul\":2183:2197   */\n      add\n        /* \"#utility.yul\":2179:2207   */\n      and\n        /* \"#utility.yul\":2169:2207   */\n      swap1\n      pop\n        /* \"#utility.yul\":2111:2213   */\n      swap2\n      swap1\n      pop\n      jump\t// out\n        /* \"#utility.yul\":2219:2583   */\n    tag_270:\n        /* \"#utility.yul\":2307:2310   */\n      0x00\n        /* \"#utility.yul\":2335:2374   */\n      tag_327\n        /* \"#utility.yul\":2368:2373   */\n      dup3\n        /* \"#utility.yul\":2335:2374   */\n      tag_266\n      jump\t// in\n    tag_327:\n        /* \"#utility.yul\":2390:2461   */\n      tag_328\n        /* \"#utility.yul\":2454:2460   */\n      dup2\n        /* \"#utility.yul\":2449:2452   */\n      dup6\n        /* \"#utility.yul\":2390:2461   */\n      tag_267\n      jump\t// in\n    tag_328:\n        /* \"#utility.yul\":2383:2461   */\n      swap4\n      pop\n        /* \"#utility.yul\":2470:2522   */\n      tag_329\n        /* \"#utility.yul\":2515:2521   */\n      dup2\n        /* \"#utility.yul\":2510:2513   */\n      dup6\n        /* \"#utility.yul\":2503:2507   */\n      0x20\n        /* \"#utility.yul\":2496:2501   */\n      dup7\n        /* \"#utility.yul\":2492:2508   */\n      add\n        /* \"#utility.yul\":2470:2522   */\n      tag_268\n      jump\t// in\n    tag_329:\n        /* \"#utility.yul\":2547:2576   */\n      tag_330\n        /* \"#utility.yul\":2569:2575   */\n      dup2\n        /* \"#utility.yul\":2547:2576   */\n      tag_269\n      jump\t// in\n    tag_330:\n        /* \"#utility.yul\":2542:2545   */\n      dup5\n        /* \"#utility.yul\":2538:2577   */\n      add\n        /* \"#utility.yul\":2531:2577   */\n      swap2\n      pop\n        /* \"#utility.yul\":2311:2583   */\n      pop\n        /* \"#utility.yul\":2219:2583   */\n      swap3\n      swap2\n      pop\n      pop\n      jump\t// out\n        /* \"#utility.yul\":2589:2902   */\n    tag_31:\n        /* \"#utility.yul\":2702:2706   */\n      0x00\n        /* \"#utility.yul\":2740:2742   */\n      0x20\n        /* \"#utility.yul\":2729:2738   */\n      dup3\n        /* \"#utility.yul\":2725:2743   */\n      add\n        /* \"#utility.yul\":2717:2743   */\n      swap1\n      pop\n        /* \"#utility.yul\":2789:2798   */\n      dup2\n        /* \"#utility.yul\":2783:2787   */\n      dup2\n        /* \"#utility.yul\":2779:2799   */\n      sub\n        /* \"#utility.yul\":2775:2776   */\n      0x00\n        /* \"#utility.yul\":2764:2773   */\n      dup4\n        /* \"#utility.yul\":2760:2777   */\n      add\n        /* \"#utility.yul\":2753:2800   */\n      mstore\n        /* \"#utility.yul\":2817:2895   */\n      tag_332\n        /* \"#utility.yul\":2890:2894   */\n      dup2\n        /* \"#utility.yul\":2881:2887   */\n      dup5\n        /* \"#utility.yul\":2817:2895   */\n      tag_270\n      jump\t// in\n    tag_332:\n        /* \"#utility.yul\":2809:2895   */\n      swap1\n      pop\n        /* \"#utility.yul\":2589:2902   */\n      swap3\n      swap2\n      pop\n      pop\n      jump\t// out\n        /* \"#utility.yul\":2908:2985   */\n    tag_271:\n        /* \"#utility.yul\":2945:2952   */\n      0x00\n        /* \"#utility.yul\":2974:2979   */\n      dup2\n        /* \"#utility.yul\":2963:2979   */\n      swap1\n      pop\n        /* \"#utility.yul\":2908:2985   */\n      swap2\n      swap1\n      pop\n      jump\t// out\n        /* \"#utility.yul\":2991:3113   */\n    tag_272:\n        /* \"#utility.yul\":3064:3088   */\n      tag_335\n        /* \"#utility.yul\":3082:3087   */\n      dup2\n        /* \"#utility.yul\":3064:3088   */\n      tag_271\n      jump\t// in\n    tag_335:\n        /* \"#utility.yul\":3057:3062   */\n      dup2\n        /* \"#utility.yul\":3054:3089   */\n      eq\n        /* \"#utility.yul\":3044:3107   */\n      tag_336\n      jumpi\n        /* \"#utility.yul\":3103:3104   */\n      0x00\n        /* \"#utility.yul\":3100:3101   */\n      dup1\n        /* \"#utility.yul\":3093:3105   */\n      revert\n        /* \"#utility.yul\":3044:3107   */\n    tag_336:\n        /* \"#utility.yul\":2991:3113   */\n      pop\n      jump\t// out\n        /* \"#utility.yul\":3119:3258   */\n    tag_273:\n        /* \"#utility.yul\":3165:3170   */\n      0x00\n        /* \"#utility.yul\":3203:3209   */\n      dup2\n        /* \"#utility.yul\":3190:3210   */\n      calldataload\n        /* \"#utility.yul\":3181:3210   */\n      swap1\n      pop\n        /* \"#utility.yul\":3219:3252   */\n      tag_338\n        /* \"#utility.yul\":3246:3251   */\n      dup2\n        /* \"#utility.yul\":3219:3252   */\n      tag_272\n      jump\t// in\n    tag_338:\n        /* \"#utility.yul\":3119:3258   */\n      swap3\n      swap2\n      pop\n      pop\n      jump\t// out\n        /* \"#utility.yul\":3264:3593   */\n    tag_34:\n        /* \"#utility.yul\":3323:3329   */\n      0x00\n        /* \"#utility.yul\":3372:3374   */\n      0x20\n        /* \"#utility.yul\":3360:3369   */\n      dup3\n        /* \"#utility.yul\":3351:3358   */\n      dup5\n        /* \"#utility.yul\":3347:3370   */\n      sub\n        /* \"#utility.yul\":3343:3375   */\n      slt\n        /* \"#utility.yul\":3340:3459   */\n      iszero\n      tag_340\n      jumpi\n        /* \"#utility.yul\":3378:3457   */\n      tag_341\n      tag_259\n      jump\t// in\n    tag_341:\n        /* \"#utility.yul\":3340:3459   */\n    tag_340:\n        /* \"#utility.yul\":3498:3499   */\n      0x00\n        /* \"#utility.yul\":3523:3576   */\n      tag_342\n        /* \"#utility.yul\":3568:3575   */\n      dup5\n        /* \"#utility.yul\":3559:3565   */\n      dup3\n        /* \"#utility.yul\":3548:3557   */\n      dup6\n        /* \"#utility.yul\":3544:3566   */\n      add\n        /* \"#utility.yul\":3523:3576   */\n      tag_273\n      jump\t// in\n    tag_342:\n        /* \"#utility.yul\":3513:3576   */\n      swap2\n      pop\n        /* \"#utility.yul\":3469:3586   */\n      pop\n        /* \"#utility.yul\":3264:3593   */\n      swap3\n      swap2\n      pop\n      pop\n      jump\t// out\n        /* \"#utility.yul\":3599:3725   */\n    tag_274:\n        /* \"#utility.yul\":3636:3643   */\n      0x00\n        /* \"#utility.yul\":3676:3718   */\n      0xffffffffffffffffffffffffffffffffffffffff\n        /* \"#utility.yul\":3669:3674   */\n      dup3\n        /* \"#utility.yul\":3665:3719   */\n      and\n        /* \"#utility.yul\":3654:3719   */\n      swap1\n      pop\n        /* \"#utility.yul\":3599:3725   */\n      swap2\n      swap1\n      pop\n      jump\t// out\n        /* \"#utility.yul\":3731:3827   */\n    tag_275:\n        /* \"#utility.yul\":3768:3775   */\n      0x00\n        /* \"#utility.yul\":3797:3821   */\n      tag_345\n        /* \"#utility.yul\":3815:3820   */\n      dup3\n        /* \"#utility.yul\":3797:3821   */\n      tag_274\n      jump\t// in\n    tag_345:\n        /* \"#utility.yul\":3786:3821   */\n      swap1\n      pop\n        /* \"#utility.yul\":3731:3827   */\n      swap2\n      swap1\n      pop\n      jump\t// out\n        /* \"#utility.yul\":3833:3951   */\n    tag_276:\n        /* \"#utility.yul\":3920:3944   */\n      tag_347\n        /* \"#utility.yul\":3938:3943   */\n      dup2\n        /* \"#utility.yul\":3920:3944   */\n      tag_275\n      jump\t// in\n    tag_347:\n        /* \"#utility.yul\":3915:3918   */\n      dup3\n        /* \"#utility.yul\":3908:3945   */\n      mstore\n        /* \"#utility.yul\":3833:3951   */\n      pop\n      pop\n      jump\t// out\n        /* \"#utility.yul\":3957:4179   */\n    tag_37:\n        /* \"#utility.yul\":4050:4054   */\n      0x00\n        /* \"#utility.yul\":4088:4090   */\n      0x20\n        /* \"#utility.yul\":4077:4086   */\n      dup3\n        /* \"#utility.yul\":4073:4091   */\n      add\n        /* \"#utility.yul\":4065:4091   */\n      swap1\n      pop\n        /* \"#utility.yul\":4101:4172   */\n      tag_349\n        /* \"#utility.yul\":4169:4170   */\n      0x00\n        /* \"#utility.yul\":4158:4167   */\n      dup4\n        /* \"#utility.yul\":4154:4171   */\n      add\n        /* \"#utility.yul\":4145:4151   */\n      dup5\n        /* \"#utility.yul\":4101:4172   */\n      tag_276\n      jump\t// in\n    tag_349:\n        /* \"#utility.yul\":3957:4179   */\n      swap3\n      swap2\n      pop\n      pop\n      jump\t// out\n        /* \"#utility.yul\":4185:4307   */\n    tag_277:\n        /* \"#utility.yul\":4258:4282   */\n      tag_351\n        /* \"#utility.yul\":4276:4281   */\n      dup2\n        /* \"#utility.yul\":4258:4282   */\n      tag_275\n      jump\t// in\n    tag_351:\n        /* \"#utility.yul\":4251:4256   */\n      dup2\n        /* \"#utility.yul\":4248:4283   */\n      eq\n        /* \"#utility.yul\":4238:4301   */\n      tag_352\n      jumpi\n        /* \"#utility.yul\":4297:4298   */\n      0x00\n        /* \"#utility.yul\":4294:4295   */\n      dup1\n        /* \"#utility.yul\":4287:4299   */\n      revert\n        /* \"#utility.yul\":4238:4301   */\n    tag_352:\n        /* \"#utility.yul\":4185:4307   */\n      pop\n      jump\t// out\n        /* \"#utility.yul\":4313:4452   */\n    tag_278:\n        /* \"#utility.yul\":4359:4364   */\n      0x00\n        /* \"#utility.yul\":4397:4403   */\n      dup2\n        /* \"#utility.yul\":4384:4404   */\n      calldataload\n        /* \"#utility.yul\":4375:4404   */\n      swap1\n      pop\n        /* \"#utility.yul\":4413:4446   */\n      tag_354\n        /* \"#utility.yul\":4440:4445   */\n      dup2\n        /* \"#utility.yul\":4413:4446   */\n      tag_277\n      jump\t// in\n    tag_354:\n        /* \"#utility.yul\":4313:4452   */\n      swap3\n      swap2\n      pop\n      pop\n      jump\t// out\n        /* \"#utility.yul\":4458:4932   */\n    tag_40:\n        /* \"#utility.yul\":4526:4532   */\n      0x00\n        /* \"#utility.yul\":4534:4540   */\n      dup1\n        /* \"#utility.yul\":4583:4585   */\n      0x40\n        /* \"#utility.yul\":4571:4580   */\n      dup4\n        /* \"#utility.yul\":4562:4569   */\n      dup6\n        /* \"#utility.yul\":4558:4581   */\n      sub\n        /* \"#utility.yul\":4554:4586   */\n      slt\n        /* \"#utility.yul\":4551:4670   */\n      iszero\n      tag_356\n      jumpi\n        /* \"#utility.yul\":4589:4668   */\n      tag_357\n      tag_259\n      jump\t// in\n    tag_357:\n        /* \"#utility.yul\":4551:4670   */\n    tag_356:\n        /* \"#utility.yul\":4709:4710   */\n      0x00\n        /* \"#utility.yul\":4734:4787   */\n      tag_358\n        /* \"#utility.yul\":4779:4786   */\n      dup6\n        /* \"#utility.yul\":4770:4776   */\n      dup3\n        /* \"#utility.yul\":4759:4768   */\n      dup7\n        /* \"#utility.yul\":4755:4777   */\n      add\n        /* \"#utility.yul\":4734:4787   */\n      tag_278\n      jump\t// in\n    tag_358:\n        /* \"#utility.yul\":4724:4787   */\n      swap3\n      pop\n        /* \"#utility.yul\":4680:4797   */\n      pop\n        /* \"#utility.yul\":4836:4838   */\n      0x20\n        /* \"#utility.yul\":4862:4915   */\n      tag_359\n        /* \"#utility.yul\":4907:4914   */\n      dup6\n        /* \"#utility.yul\":4898:4904   */\n      dup3\n        /* \"#utility.yul\":4887:4896   */\n      dup7\n        /* \"#utility.yul\":4883:4905   */\n      add\n        /* \"#utility.yul\":4862:4915   */\n      tag_273\n      jump\t// in\n    tag_359:\n        /* \"#utility.yul\":4852:4915   */\n      swap2\n      pop\n        /* \"#utility.yul\":4807:4925   */\n      pop\n        /* \"#utility.yul\":4458:4932   */\n      swap3\n      pop\n      swap3\n      swap1\n      pop\n      jump\t// out\n        /* \"#utility.yul\":4938:5056   */\n    tag_279:\n        /* \"#utility.yul\":5025:5049   */\n      tag_361\n        /* \"#utility.yul\":5043:5048   */\n      dup2\n        /* \"#utility.yul\":5025:5049   */\n      tag_271\n      jump\t// in\n    tag_361:\n        /* \"#utility.yul\":5020:5023   */\n      dup3\n        /* \"#utility.yul\":5013:5050   */\n      mstore\n        /* \"#utility.yul\":4938:5056   */\n      pop\n      pop\n      jump\t// out\n        /* \"#utility.yul\":5062:5284   */\n    tag_45:\n        /* \"#utility.yul\":5155:5159   */\n      0x00\n        /* \"#utility.yul\":5193:5195   */\n      0x20\n        /* \"#utility.yul\":5182:5191   */\n      dup3\n        /* \"#utility.yul\":5178:5196   */\n      add\n        /* \"#utility.yul\":5170:5196   */\n      swap1\n      pop\n        /* \"#utility.yul\":5206:5277   */\n      tag_363\n        /* \"#utility.yul\":5274:5275   */\n      0x00\n        /* \"#utility.yul\":5263:5272   */\n      dup4\n        /* \"#utility.yul\":5259:5276   */\n      add\n        /* \"#utility.yul\":5250:5256   */\n      dup5\n        /* \"#utility.yul\":5206:5277   */\n      tag_279\n      jump\t// in\n    tag_363:\n        /* \"#utility.yul\":5062:5284   */\n      swap3\n      swap2\n      pop\n      pop\n      jump\t// out\n        /* \"#utility.yul\":5290:5909   */\n    tag_50:\n        /* \"#utility.yul\":5367:5373   */\n      0x00\n        /* \"#utility.yul\":5375:5381   */\n      dup1\n        /* \"#utility.yul\":5383:5389   */\n      0x00\n        /* \"#utility.yul\":5432:5434   */\n      0x60\n        /* \"#utility.yul\":5420:5429   */\n      dup5\n        /* \"#utility.yul\":5411:5418   */\n      dup7\n        /* \"#utility.yul\":5407:5430   */\n      sub\n        /* \"#utility.yul\":5403:5435   */\n      slt\n        /* \"#utility.yul\":5400:5519   */\n      iszero\n      tag_365\n      jumpi\n        /* \"#utility.yul\":5438:5517   */\n      tag_366\n      tag_259\n      jump\t// in\n    tag_366:\n        /* \"#utility.yul\":5400:5519   */\n    tag_365:\n        /* \"#utility.yul\":5558:5559   */\n      0x00\n        /* \"#utility.yul\":5583:5636   */\n      tag_367\n        /* \"#utility.yul\":5628:5635   */\n      dup7\n        /* \"#utility.yul\":5619:5625   */\n      dup3\n        /* \"#utility.yul\":5608:5617   */\n      dup8\n        /* \"#utility.yul\":5604:5626   */\n      add\n        /* \"#utility.yul\":5583:5636   */\n      tag_278\n      jump\t// in\n    tag_367:\n        /* \"#utility.yul\":5573:5636   */\n      swap4\n      pop\n        /* \"#utility.yul\":5529:5646   */\n      pop\n        /* \"#utility.yul\":5685:5687   */\n      0x20\n        /* \"#utility.yul\":5711:5764   */\n      tag_368\n        /* \"#utility.yul\":5756:5763   */\n      dup7\n        /* \"#utility.yul\":5747:5753   */\n      dup3\n        /* \"#utility.yul\":5736:5745   */\n      dup8\n        /* \"#utility.yul\":5732:5754   */\n      add\n        /* \"#utility.yul\":5711:5764   */\n      tag_278\n      jump\t// in\n    tag_368:\n        /* \"#utility.yul\":5701:5764   */\n      swap3\n      pop\n        /* \"#utility.yul\":5656:5774   */\n      pop\n        /* \"#utility.yul\":5813:5815   */\n      0x40\n        /* \"#utility.yul\":5839:5892   */\n      tag_369\n        /* \"#utility.yul\":5884:5891   */\n      dup7\n        /* \"#utility.yul\":5875:5881   */\n      dup3\n        /* \"#utility.yul\":5864:5873   */\n      dup8\n        /* \"#utility.yul\":5860:5882   */\n      add\n        /* \"#utility.yul\":5839:5892   */\n      tag_273\n      jump\t// in\n    tag_369:\n        /* \"#utility.yul\":5829:5892   */\n      swap2\n      pop\n        /* \"#utility.yul\":5784:5902   */\n      pop\n        /* \"#utility.yul\":5290:5909   */\n      swap3\n      pop\n      swap3\n      pop\n      swap3\n      jump\t// out\n        /* \"#utility.yul\":5915:6244   */\n    tag_54:\n        /* \"#utility.yul\":5974:5980   */\n      0x00\n        /* \"#utility.yul\":6023:6025   */\n      0x20\n        /* \"#utility.yul\":6011:6020   */\n      dup3\n        /* \"#utility.yul\":6002:6009   */\n      dup5\n        /* \"#utility.yul\":5998:6021   */\n      sub\n        /* \"#utility.yul\":5994:6026   */\n      slt\n        /* \"#utility.yul\":5991:6110   */\n      iszero\n      tag_371\n      jumpi\n        /* \"#utility.yul\":6029:6108   */\n      tag_372\n      tag_259\n      jump\t// in\n    tag_372:\n        /* \"#utility.yul\":5991:6110   */\n    tag_371:\n        /* \"#utility.yul\":6149:6150   */\n      0x00\n        /* \"#utility.yul\":6174:6227   */\n      tag_373\n        /* \"#utility.yul\":6219:6226   */\n      dup5\n        /* \"#utility.yul\":6210:6216   */\n      dup3\n        /* \"#utility.yul\":6199:6208   */\n      dup6\n        /* \"#utility.yul\":6195:6217   */\n      add\n        /* \"#utility.yul\":6174:6227   */\n      tag_278\n      jump\t// in\n    tag_373:\n        /* \"#utility.yul\":6164:6227   */\n      swap2\n      pop\n        /* \"#utility.yul\":6120:6237   */\n      pop\n        /* \"#utility.yul\":5915:6244   */\n      swap3\n      swap2\n      pop\n      pop\n      jump\t// out\n        /* \"#utility.yul\":6250:6366   */\n    tag_280:\n        /* \"#utility.yul\":6320:6341   */\n      tag_375\n        /* \"#utility.yul\":6335:6340   */\n      dup2\n        /* \"#utility.yul\":6320:6341   */\n      tag_264\n      jump\t// in\n    tag_375:\n        /* \"#utility.yul\":6313:6318   */\n      dup2\n        /* \"#utility.yul\":6310:6342   */\n      eq\n        /* \"#utility.yul\":6300:6360   */\n      tag_376\n      jumpi\n        /* \"#utility.yul\":6356:6357   */\n      0x00\n        /* \"#utility.yul\":6353:6354   */\n      dup1\n        /* \"#utility.yul\":6346:6358   */\n      revert\n        /* \"#utility.yul\":6300:6360   */\n    tag_376:\n        /* \"#utility.yul\":6250:6366   */\n      pop\n      jump\t// out\n        /* \"#utility.yul\":6372:6505   */\n    tag_281:\n        /* \"#utility.yul\":6415:6420   */\n      0x00\n        /* \"#utility.yul\":6453:6459   */\n      dup2\n        /* \"#utility.yul\":6440:6460   */\n      calldataload\n        /* \"#utility.yul\":6431:6460   */\n      swap1\n      pop\n        /* \"#utility.yul\":6469:6499   */\n      tag_378\n        /* \"#utility.yul\":6493:6498   */\n      dup2\n        /* \"#utility.yul\":6469:6499   */\n      tag_280\n      jump\t// in\n    tag_378:\n        /* \"#utility.yul\":6372:6505   */\n      swap3\n      swap2\n      pop\n      pop\n      jump\t// out\n        /* \"#utility.yul\":6511:6979   */\n    tag_73:\n        /* \"#utility.yul\":6576:6582   */\n      0x00\n        /* \"#utility.yul\":6584:6590   */\n      dup1\n        /* \"#utility.yul\":6633:6635   */\n      0x40\n        /* \"#utility.yul\":6621:6630   */\n      dup4\n        /* \"#utility.yul\":6612:6619   */\n      dup6\n        /* \"#utility.yul\":6608:6631   */\n      sub\n        /* \"#utility.yul\":6604:6636   */\n      slt\n        /* \"#utility.yul\":6601:6720   */\n      iszero\n      tag_380\n      jumpi\n        /* \"#utility.yul\":6639:6718   */\n      tag_381\n      tag_259\n      jump\t// in\n    tag_381:\n        /* \"#utility.yul\":6601:6720   */\n    tag_380:\n        /* \"#utility.yul\":6759:6760   */\n      0x00\n        /* \"#utility.yul\":6784:6837   */\n      tag_382\n        /* \"#utility.yul\":6829:6836   */\n      dup6\n        /* \"#utility.yul\":6820:6826   */\n      dup3\n        /* \"#utility.yul\":6809:6818   */\n      dup7\n        /* \"#utility.yul\":6805:6827   */\n      add\n        /* \"#utility.yul\":6784:6837   */\n      tag_278\n      jump\t// in\n    tag_382:\n        /* \"#utility.yul\":6774:6837   */\n      swap3\n      pop\n        /* \"#utility.yul\":6730:6847   */\n      pop\n        /* \"#utility.yul\":6886:6888   */\n      0x20\n        /* \"#utility.yul\":6912:6962   */\n      tag_383\n        /* \"#utility.yul\":6954:6961   */\n      dup6\n        /* \"#utility.yul\":6945:6951   */\n      dup3\n        /* \"#utility.yul\":6934:6943   */\n      dup7\n        /* \"#utility.yul\":6930:6952   */\n      add\n        /* \"#utility.yul\":6912:6962   */\n      tag_281\n      jump\t// in\n    tag_383:\n        /* \"#utility.yul\":6902:6962   */\n      swap2\n      pop\n        /* \"#utility.yul\":6857:6972   */\n      pop\n        /* \"#utility.yul\":6511:6979   */\n      swap3\n      pop\n      swap3\n      swap1\n      pop\n      jump\t// out\n        /* \"#utility.yul\":6985:7102   */\n    tag_282:\n        /* \"#utility.yul\":7094:7095   */\n      0x00\n        /* \"#utility.yul\":7091:7092   */\n      dup1\n        /* \"#utility.yul\":7084:7096   */\n      revert\n        /* \"#utility.yul\":7108:7225   */\n    tag_283:\n        /* \"#utility.yul\":7217:7218   */\n      0x00\n        /* \"#utility.yul\":7214:7215   */\n      dup1\n        /* \"#utility.yul\":7207:7219   */\n      revert\n        /* \"#utility.yul\":7231:7411   */\n    tag_244:\n        /* \"#utility.yul\":7279:7356   */\n      0x4e487b7100000000000000000000000000000000000000000000000000000000\n        /* \"#utility.yul\":7276:7277   */\n      0x00\n        /* \"#utility.yul\":7269:7357   */\n      mstore\n        /* \"#utility.yul\":7376:7380   */\n      0x41\n        /* \"#utility.yul\":7373:7374   */\n      0x04\n        /* \"#utility.yul\":7366:7381   */\n      mstore\n        /* \"#utility.yul\":7400:7404   */\n      0x24\n        /* \"#utility.yul\":7397:7398   */\n      0x00\n        /* \"#utility.yul\":7390:7405   */\n      revert\n        /* \"#utility.yul\":7417:7698   */\n    tag_284:\n        /* \"#utility.yul\":7500:7527   */\n      tag_388\n        /* \"#utility.yul\":7522:7526   */\n      dup3\n        /* \"#utility.yul\":7500:7527   */\n      tag_269\n      jump\t// in\n    tag_388:\n        /* \"#utility.yul\":7492:7498   */\n      dup2\n        /* \"#utility.yul\":7488:7528   */\n      add\n        /* \"#utility.yul\":7630:7636   */\n      dup2\n        /* \"#utility.yul\":7618:7628   */\n      dup2\n        /* \"#utility.yul\":7615:7637   */\n      lt\n        /* \"#utility.yul\":7594:7612   */\n      0xffffffffffffffff\n        /* \"#utility.yul\":7582:7592   */\n      dup3\n        /* \"#utility.yul\":7579:7613   */\n      gt\n        /* \"#utility.yul\":7576:7638   */\n      or\n        /* \"#utility.yul\":7573:7661   */\n      iszero\n      tag_389\n      jumpi\n        /* \"#utility.yul\":7641:7659   */\n      tag_390\n      tag_244\n      jump\t// in\n    tag_390:\n        /* \"#utility.yul\":7573:7661   */\n    tag_389:\n        /* \"#utility.yul\":7681:7691   */\n      dup1\n        /* \"#utility.yul\":7677:7679   */\n      0x40\n        /* \"#utility.yul\":7670:7692   */\n      mstore\n        /* \"#utility.yul\":7460:7698   */\n      pop\n        /* \"#utility.yul\":7417:7698   */\n      pop\n      pop\n      jump\t// out\n        /* \"#utility.yul\":7704:7833   */\n    tag_285:\n        /* \"#utility.yul\":7738:7744   */\n      0x00\n        /* \"#utility.yul\":7765:7785   */\n      tag_392\n      tag_258\n      jump\t// in\n    tag_392:\n        /* \"#utility.yul\":7755:7785   */\n      swap1\n      pop\n        /* \"#utility.yul\":7794:7827   */\n      tag_393\n        /* \"#utility.yul\":7822:7826   */\n      dup3\n        /* \"#utility.yul\":7814:7820   */\n      dup3\n        /* \"#utility.yul\":7794:7827   */\n      tag_284\n      jump\t// in\n    tag_393:\n        /* \"#utility.yul\":7704:7833   */\n      swap2\n      swap1\n      pop\n      jump\t// out\n        /* \"#utility.yul\":7839:8146   */\n    tag_286:\n        /* \"#utility.yul\":7900:7904   */\n      0x00\n        /* \"#utility.yul\":7990:8008   */\n      0xffffffffffffffff\n        /* \"#utility.yul\":7982:7988   */\n      dup3\n        /* \"#utility.yul\":7979:8009   */\n      gt\n        /* \"#utility.yul\":7976:8032   */\n      iszero\n      tag_395\n      jumpi\n        /* \"#utility.yul\":8012:8030   */\n      tag_396\n      tag_244\n      jump\t// in\n    tag_396:\n        /* \"#utility.yul\":7976:8032   */\n    tag_395:\n        /* \"#utility.yul\":8050:8079   */\n      tag_397\n        /* \"#utility.yul\":8072:8078   */\n      dup3\n        /* \"#utility.yul\":8050:8079   */\n      tag_269\n      jump\t// in\n    tag_397:\n        /* \"#utility.yul\":8042:8079   */\n      swap1\n      pop\n        /* \"#utility.yul\":8134:8138   */\n      0x20\n        /* \"#utility.yul\":8128:8132   */\n      dup2\n        /* \"#utility.yul\":8124:8139   */\n      add\n        /* \"#utility.yul\":8116:8139   */\n      swap1\n      pop\n        /* \"#utility.yul\":7839:8146   */\n      swap2\n      swap1\n      pop\n      jump\t// out\n        /* \"#utility.yul\":8152:8306   */\n    tag_287:\n        /* \"#utility.yul\":8236:8242   */\n      dup3\n        /* \"#utility.yul\":8231:8234   */\n      dup2\n        /* \"#utility.yul\":8226:8229   */\n      dup4\n        /* \"#utility.yul\":8213:8243   */\n      calldatacopy\n        /* \"#utility.yul\":8298:8299   */\n      0x00\n        /* \"#utility.yul\":8289:8295   */\n      dup4\n        /* \"#utility.yul\":8284:8287   */\n      dup4\n        /* \"#utility.yul\":8280:8296   */\n      add\n        /* \"#utility.yul\":8273:8300   */\n      mstore\n        /* \"#utility.yul\":8152:8306   */\n      pop\n      pop\n      pop\n      jump\t// out\n        /* \"#utility.yul\":8312:8722   */\n    tag_288:\n        /* \"#utility.yul\":8389:8394   */\n      0x00\n        /* \"#utility.yul\":8414:8479   */\n      tag_400\n        /* \"#utility.yul\":8430:8478   */\n      tag_401\n        /* \"#utility.yul\":8471:8477   */\n      dup5\n        /* \"#utility.yul\":8430:8478   */\n      tag_286\n      jump\t// in\n    tag_401:\n        /* \"#utility.yul\":8414:8479   */\n      tag_285\n      jump\t// in\n    tag_400:\n        /* \"#utility.yul\":8405:8479   */\n      swap1\n      pop\n        /* \"#utility.yul\":8502:8508   */\n      dup3\n        /* \"#utility.yul\":8495:8500   */\n      dup2\n        /* \"#utility.yul\":8488:8509   */\n      mstore\n        /* \"#utility.yul\":8540:8544   */\n      0x20\n        /* \"#utility.yul\":8533:8538   */\n      dup2\n        /* \"#utility.yul\":8529:8545   */\n      add\n        /* \"#utility.yul\":8578:8581   */\n      dup5\n        /* \"#utility.yul\":8569:8575   */\n      dup5\n        /* \"#utility.yul\":8564:8567   */\n      dup5\n        /* \"#utility.yul\":8560:8576   */\n      add\n        /* \"#utility.yul\":8557:8582   */\n      gt\n        /* \"#utility.yul\":8554:8666   */\n      iszero\n      tag_402\n      jumpi\n        /* \"#utility.yul\":8585:8664   */\n      tag_403\n      tag_283\n      jump\t// in\n    tag_403:\n        /* \"#utility.yul\":8554:8666   */\n    tag_402:\n        /* \"#utility.yul\":8675:8716   */\n      tag_404\n        /* \"#utility.yul\":8709:8715   */\n      dup5\n        /* \"#utility.yul\":8704:8707   */\n      dup3\n        /* \"#utility.yul\":8699:8702   */\n      dup6\n        /* \"#utility.yul\":8675:8716   */\n      tag_287\n      jump\t// in\n    tag_404:\n        /* \"#utility.yul\":8395:8722   */\n      pop\n        /* \"#utility.yul\":8312:8722   */\n      swap4\n      swap3\n      pop\n      pop\n      pop\n      jump\t// out\n        /* \"#utility.yul\":8741:9079   */\n    tag_289:\n        /* \"#utility.yul\":8796:8801   */\n      0x00\n        /* \"#utility.yul\":8845:8848   */\n      dup3\n        /* \"#utility.yul\":8838:8842   */\n      0x1f\n        /* \"#utility.yul\":8830:8836   */\n      dup4\n        /* \"#utility.yul\":8826:8843   */\n      add\n        /* \"#utility.yul\":8822:8849   */\n      slt\n        /* \"#utility.yul\":8812:8934   */\n      tag_406\n      jumpi\n        /* \"#utility.yul\":8853:8932   */\n      tag_407\n      tag_282\n      jump\t// in\n    tag_407:\n        /* \"#utility.yul\":8812:8934   */\n    tag_406:\n        /* \"#utility.yul\":8970:8976   */\n      dup2\n        /* \"#utility.yul\":8957:8977   */\n      calldataload\n        /* \"#utility.yul\":8995:9073   */\n      tag_408\n        /* \"#utility.yul\":9069:9072   */\n      dup5\n        /* \"#utility.yul\":9061:9067   */\n      dup3\n        /* \"#utility.yul\":9054:9058   */\n      0x20\n        /* \"#utility.yul\":9046:9052   */\n      dup7\n        /* \"#utility.yul\":9042:9059   */\n      add\n        /* \"#utility.yul\":8995:9073   */\n      tag_288\n      jump\t// in\n    tag_408:\n        /* \"#utility.yul\":8986:9073   */\n      swap2\n      pop\n        /* \"#utility.yul\":8802:9079   */\n      pop\n        /* \"#utility.yul\":8741:9079   */\n      swap3\n      swap2\n      pop\n      pop\n      jump\t// out\n        /* \"#utility.yul\":9085:10028   */\n    tag_77:\n        /* \"#utility.yul\":9180:9186   */\n      0x00\n        /* \"#utility.yul\":9188:9194   */\n      dup1\n        /* \"#utility.yul\":9196:9202   */\n      0x00\n        /* \"#utility.yul\":9204:9210   */\n      dup1\n        /* \"#utility.yul\":9253:9256   */\n      0x80\n        /* \"#utility.yul\":9241:9250   */\n      dup6\n        /* \"#utility.yul\":9232:9239   */\n      dup8\n        /* \"#utility.yul\":9228:9251   */\n      sub\n        /* \"#utility.yul\":9224:9257   */\n      slt\n        /* \"#utility.yul\":9221:9341   */\n      iszero\n      tag_410\n      jumpi\n        /* \"#utility.yul\":9260:9339   */\n      tag_411\n      tag_259\n      jump\t// in\n    tag_411:\n        /* \"#utility.yul\":9221:9341   */\n    tag_410:\n        /* \"#utility.yul\":9380:9381   */\n      0x00\n        /* \"#utility.yul\":9405:9458   */\n      tag_412\n        /* \"#utility.yul\":9450:9457   */\n      dup8\n        /* \"#utility.yul\":9441:9447   */\n      dup3\n        /* \"#utility.yul\":9430:9439   */\n      dup9\n        /* \"#utility.yul\":9426:9448   */\n      add\n        /* \"#utility.yul\":9405:9458   */\n      tag_278\n      jump\t// in\n    tag_412:\n        /* \"#utility.yul\":9395:9458   */\n      swap5\n      pop\n        /* \"#utility.yul\":9351:9468   */\n      pop\n        /* \"#utility.yul\":9507:9509   */\n      0x20\n        /* \"#utility.yul\":9533:9586   */\n      tag_413\n        /* \"#utility.yul\":9578:9585   */\n      dup8\n        /* \"#utility.yul\":9569:9575   */\n      dup3\n        /* \"#utility.yul\":9558:9567   */\n      dup9\n        /* \"#utility.yul\":9554:9576   */\n      add\n        /* \"#utility.yul\":9533:9586   */\n      tag_278\n      jump\t// in\n    tag_413:\n        /* \"#utility.yul\":9523:9586   */\n      swap4\n      pop\n        /* \"#utility.yul\":9478:9596   */\n      pop\n        /* \"#utility.yul\":9635:9637   */\n      0x40\n        /* \"#utility.yul\":9661:9714   */\n      tag_414\n        /* \"#utility.yul\":9706:9713   */\n      dup8\n        /* \"#utility.yul\":9697:9703   */\n      dup3\n        /* \"#utility.yul\":9686:9695   */\n      dup9\n        /* \"#utility.yul\":9682:9704   */\n      add\n        /* \"#utility.yul\":9661:9714   */\n      tag_273\n      jump\t// in\n    tag_414:\n        /* \"#utility.yul\":9651:9714   */\n      swap3\n      pop\n        /* \"#utility.yul\":9606:9724   */\n      pop\n        /* \"#utility.yul\":9791:9793   */\n      0x60\n        /* \"#utility.yul\":9780:9789   */\n      dup6\n        /* \"#utility.yul\":9776:9794   */\n      add\n        /* \"#utility.yul\":9763:9795   */\n      calldataload\n        /* \"#utility.yul\":9822:9840   */\n      0xffffffffffffffff\n        /* \"#utility.yul\":9814:9820   */\n      dup2\n        /* \"#utility.yul\":9811:9841   */\n      gt\n        /* \"#utility.yul\":9808:9925   */\n      iszero\n      tag_415\n      jumpi\n        /* \"#utility.yul\":9844:9923   */\n      tag_416\n      tag_260\n      jump\t// in\n    tag_416:\n        /* \"#utility.yul\":9808:9925   */\n    tag_415:\n        /* \"#utility.yul\":9949:10011   */\n      tag_417\n        /* \"#utility.yul\":10003:10010   */\n      dup8\n        /* \"#utility.yul\":9994:10000   */\n      dup3\n        /* \"#utility.yul\":9983:9992   */\n      dup9\n        /* \"#utility.yul\":9979:10001   */\n      add\n        /* \"#utility.yul\":9949:10011   */\n      tag_289\n      jump\t// in\n    tag_417:\n        /* \"#utility.yul\":9939:10011   */\n      swap2\n      pop\n        /* \"#utility.yul\":9734:10021   */\n      pop\n        /* \"#utility.yul\":9085:10028   */\n      swap3\n      swap6\n      swap2\n      swap5\n      pop\n      swap3\n      pop\n      jump\t// out\n        /* \"#utility.yul\":10034:10508   */\n    tag_85:\n        /* \"#utility.yul\":10102:10108   */\n      0x00\n        /* \"#utility.yul\":10110:10116   */\n      dup1\n        /* \"#utility.yul\":10159:10161   */\n      0x40\n        /* \"#utility.yul\":10147:10156   */\n      dup4\n        /* \"#utility.yul\":10138:10145   */\n      dup6\n        /* \"#utility.yul\":10134:10157   */\n      sub\n        /* \"#utility.yul\":10130:10162   */\n      slt\n        /* \"#utility.yul\":10127:10246   */\n      iszero\n      tag_419\n      jumpi\n        /* \"#utility.yul\":10165:10244   */\n      tag_420\n      tag_259\n      jump\t// in\n    tag_420:\n        /* \"#utility.yul\":10127:10246   */\n    tag_419:\n        /* \"#utility.yul\":10285:10286   */\n      0x00\n        /* \"#utility.yul\":10310:10363   */\n      tag_421\n        /* \"#utility.yul\":10355:10362   */\n      dup6\n        /* \"#utility.yul\":10346:10352   */\n      dup3\n        /* \"#utility.yul\":10335:10344   */\n      dup7\n        /* \"#utility.yul\":10331:10353   */\n      add\n        /* \"#utility.yul\":10310:10363   */\n      tag_278\n      jump\t// in\n    tag_421:\n        /* \"#utility.yul\":10300:10363   */\n      swap3\n      pop\n        /* \"#utility.yul\":10256:10373   */\n      pop\n        /* \"#utility.yul\":10412:10414   */\n      0x20\n        /* \"#utility.yul\":10438:10491   */\n      tag_422\n        /* \"#utility.yul\":10483:10490   */\n      dup6\n        /* \"#utility.yul\":10474:10480   */\n      dup3\n        /* \"#utility.yul\":10463:10472   */\n      dup7\n        /* \"#utility.yul\":10459:10481   */\n      add\n        /* \"#utility.yul\":10438:10491   */\n      tag_278\n      jump\t// in\n    tag_422:\n        /* \"#utility.yul\":10428:10491   */\n      swap2\n      pop\n        /* \"#utility.yul\":10383:10501   */\n      pop\n        /* \"#utility.yul\":10034:10508   */\n      swap3\n      pop\n      swap3\n      swap1\n      pop\n      jump\t// out\n        /* \"#utility.yul\":10514:10694   */\n    tag_290:\n        /* \"#utility.yul\":10562:10639   */\n      0x4e487b7100000000000000000000000000000000000000000000000000000000\n        /* \"#utility.yul\":10559:10560   */\n      0x00\n        /* \"#utility.yul\":10552:10640   */\n      mstore\n        /* \"#utility.yul\":10659:10663   */\n      0x22\n        /* \"#utility.yul\":10656:10657   */\n      0x04\n        /* \"#utility.yul\":10649:10664   */\n      mstore\n        /* \"#utility.yul\":10683:10687   */\n      0x24\n        /* \"#utility.yul\":10680:10681   */\n      0x00\n        /* \"#utility.yul\":10673:10688   */\n      revert\n        /* \"#utility.yul\":10700:11020   */\n    tag_95:\n        /* \"#utility.yul\":10744:10750   */\n      0x00\n        /* \"#utility.yul\":10781:10782   */\n      0x02\n        /* \"#utility.yul\":10775:10779   */\n      dup3\n        /* \"#utility.yul\":10771:10783   */\n      div\n        /* \"#utility.yul\":10761:10783   */\n      swap1\n      pop\n        /* \"#utility.yul\":10828:10829   */\n      0x01\n        /* \"#utility.yul\":10822:10826   */\n      dup3\n        /* \"#utility.yul\":10818:10830   */\n      and\n        /* \"#utility.yul\":10849:10867   */\n      dup1\n        /* \"#utility.yul\":10839:10920   */\n      tag_425\n      jumpi\n        /* \"#utility.yul\":10905:10909   */\n      0x7f\n        /* \"#utility.yul\":10897:10903   */\n      dup3\n        /* \"#utility.yul\":10893:10910   */\n      and\n        /* \"#utility.yul\":10883:10910   */\n      swap2\n      pop\n        /* \"#utility.yul\":10839:10920   */\n    tag_425:\n        /* \"#utility.yul\":10967:10969   */\n      0x20\n        /* \"#utility.yul\":10959:10965   */\n      dup3\n        /* \"#utility.yul\":10956:10970   */\n      lt\n        /* \"#utility.yul\":10936:10954   */\n      dup2\n        /* \"#utility.yul\":10933:10971   */\n      sub\n        /* \"#utility.yul\":10930:11014   */\n      tag_426\n      jumpi\n        /* \"#utility.yul\":10986:11004   */\n      tag_427\n      tag_290\n      jump\t// in\n    tag_427:\n        /* \"#utility.yul\":10930:11014   */\n    tag_426:\n        /* \"#utility.yul\":10751:11020   */\n      pop\n        /* \"#utility.yul\":10700:11020   */\n      swap2\n      swap1\n      pop\n      jump\t// out\n        /* \"#utility.yul\":11026:11174   */\n    tag_291:\n        /* \"#utility.yul\":11128:11139   */\n      0x00\n        /* \"#utility.yul\":11165:11168   */\n      dup2\n        /* \"#utility.yul\":11150:11168   */\n      swap1\n      pop\n        /* \"#utility.yul\":11026:11174   */\n      swap3\n      swap2\n      pop\n      pop\n      jump\t// out\n        /* \"#utility.yul\":11180:11557   */\n    tag_292:\n        /* \"#utility.yul\":11286:11289   */\n      0x00\n        /* \"#utility.yul\":11314:11353   */\n      tag_430\n        /* \"#utility.yul\":11347:11352   */\n      dup3\n        /* \"#utility.yul\":11314:11353   */\n      tag_266\n      jump\t// in\n    tag_430:\n        /* \"#utility.yul\":11369:11458   */\n      tag_431\n        /* \"#utility.yul\":11451:11457   */\n      dup2\n        /* \"#utility.yul\":11446:11449   */\n      dup6\n        /* \"#utility.yul\":11369:11458   */\n      tag_291\n      jump\t// in\n    tag_431:\n        /* \"#utility.yul\":11362:11458   */\n      swap4\n      pop\n        /* \"#utility.yul\":11467:11519   */\n      tag_432\n        /* \"#utility.yul\":11512:11518   */\n      dup2\n        /* \"#utility.yul\":11507:11510   */\n      dup6\n        /* \"#utility.yul\":11500:11504   */\n      0x20\n        /* \"#utility.yul\":11493:11498   */\n      dup7\n        /* \"#utility.yul\":11489:11505   */\n      add\n        /* \"#utility.yul\":11467:11519   */\n      tag_268\n      jump\t// in\n    tag_432:\n        /* \"#utility.yul\":11544:11550   */\n      dup1\n        /* \"#utility.yul\":11539:11542   */\n      dup5\n        /* \"#utility.yul\":11535:11551   */\n      add\n        /* \"#utility.yul\":11528:11551   */\n      swap2\n      pop\n        /* \"#utility.yul\":11290:11557   */\n      pop\n        /* \"#utility.yul\":11180:11557   */\n      swap3\n      swap2\n      pop\n      pop\n      jump\t// out\n        /* \"#utility.yul\":11563:11998   */\n    tag_167:\n        /* \"#utility.yul\":11743:11746   */\n      0x00\n        /* \"#utility.yul\":11765:11860   */\n      tag_434\n        /* \"#utility.yul\":11856:11859   */\n      dup3\n        /* \"#utility.yul\":11847:11853   */\n      dup6\n        /* \"#utility.yul\":11765:11860   */\n      tag_292\n      jump\t// in\n    tag_434:\n        /* \"#utility.yul\":11758:11860   */\n      swap2\n      pop\n        /* \"#utility.yul\":11877:11972   */\n      tag_435\n        /* \"#utility.yul\":11968:11971   */\n      dup3\n        /* \"#utility.yul\":11959:11965   */\n      dup5\n        /* \"#utility.yul\":11877:11972   */\n      tag_292\n      jump\t// in\n    tag_435:\n        /* \"#utility.yul\":11870:11972   */\n      swap2\n      pop\n        /* \"#utility.yul\":11989:11992   */\n      dup2\n        /* \"#utility.yul\":11982:11992   */\n      swap1\n      pop\n        /* \"#utility.yul\":11563:11998   */\n      swap4\n      swap3\n      pop\n      pop\n      pop\n      jump\t// out\n        /* \"#utility.yul\":12004:12184   */\n    tag_293:\n        /* \"#utility.yul\":12052:12129   */\n      0x4e487b7100000000000000000000000000000000000000000000000000000000\n        /* \"#utility.yul\":12049:12050   */\n      0x00\n        /* \"#utility.yul\":12042:12130   */\n      mstore\n        /* \"#utility.yul\":12149:12153   */\n      0x11\n        /* \"#utility.yul\":12146:12147   */\n      0x04\n        /* \"#utility.yul\":12139:12154   */\n      mstore\n        /* \"#utility.yul\":12173:12177   */\n      0x24\n        /* \"#utility.yul\":12170:12171   */\n      0x00\n        /* \"#utility.yul\":12163:12178   */\n      revert\n        /* \"#utility.yul\":12190:12381   */\n    tag_198:\n        /* \"#utility.yul\":12230:12234   */\n      0x00\n        /* \"#utility.yul\":12250:12270   */\n      tag_438\n        /* \"#utility.yul\":12268:12269   */\n      dup3\n        /* \"#utility.yul\":12250:12270   */\n      tag_271\n      jump\t// in\n    tag_438:\n        /* \"#utility.yul\":12245:12270   */\n      swap2\n      pop\n        /* \"#utility.yul\":12284:12304   */\n      tag_439\n        /* \"#utility.yul\":12302:12303   */\n      dup4\n        /* \"#utility.yul\":12284:12304   */\n      tag_271\n      jump\t// in\n    tag_439:\n        /* \"#utility.yul\":12279:12304   */\n      swap3\n      pop\n        /* \"#utility.yul\":12323:12324   */\n      dup3\n        /* \"#utility.yul\":12320:12321   */\n      dup3\n        /* \"#utility.yul\":12317:12325   */\n      lt\n        /* \"#utility.yul\":12314:12348   */\n      iszero\n      tag_440\n      jumpi\n        /* \"#utility.yul\":12328:12346   */\n      tag_441\n      tag_293\n      jump\t// in\n    tag_441:\n        /* \"#utility.yul\":12314:12348   */\n    tag_440:\n        /* \"#utility.yul\":12373:12374   */\n      dup3\n        /* \"#utility.yul\":12370:12371   */\n      dup3\n        /* \"#utility.yul\":12366:12375   */\n      sub\n        /* \"#utility.yul\":12358:12375   */\n      swap1\n      pop\n        /* \"#utility.yul\":12190:12381   */\n      swap3\n      swap2\n      pop\n      pop\n      jump\t// out\n        /* \"#utility.yul\":12387:12735   */\n    tag_201:\n        /* \"#utility.yul\":12427:12434   */\n      0x00\n        /* \"#utility.yul\":12450:12470   */\n      tag_443\n        /* \"#utility.yul\":12468:12469   */\n      dup3\n        /* \"#utility.yul\":12450:12470   */\n      tag_271\n      jump\t// in\n    tag_443:\n        /* \"#utility.yul\":12445:12470   */\n      swap2\n      pop\n        /* \"#utility.yul\":12484:12504   */\n      tag_444\n        /* \"#utility.yul\":12502:12503   */\n      dup4\n        /* \"#utility.yul\":12484:12504   */\n      tag_271\n      jump\t// in\n    tag_444:\n        /* \"#utility.yul\":12479:12504   */\n      swap3\n      pop\n        /* \"#utility.yul\":12672:12673   */\n      dup2\n        /* \"#utility.yul\":12604:12670   */\n      0xffffffffffffffffffffffffffffffffffffffffffffffffffffffffffffffff\n        /* \"#utility.yul\":12600:12674   */\n      div\n        /* \"#utility.yul\":12597:12598   */\n      dup4\n        /* \"#utility.yul\":12594:12675   */\n      gt\n        /* \"#utility.yul\":12589:12590   */\n      dup3\n        /* \"#utility.yul\":12582:12591   */\n      iszero\n        /* \"#utility.yul\":12575:12592   */\n      iszero\n        /* \"#utility.yul\":12571:12676   */\n      and\n        /* \"#utility.yul\":12568:12699   */\n      iszero\n      tag_445\n      jumpi\n        /* \"#utility.yul\":12679:12697   */\n      tag_446\n      tag_293\n      jump\t// in\n    tag_446:\n        /* \"#utility.yul\":12568:12699   */\n    tag_445:\n        /* \"#utility.yul\":12727:12728   */\n      dup3\n        /* \"#utility.yul\":12724:12725   */\n      dup3\n        /* \"#utility.yul\":12720:12729   */\n      mul\n        /* \"#utility.yul\":12709:12729   */\n      swap1\n      pop\n        /* \"#utility.yul\":12387:12735   */\n      swap3\n      swap2\n      pop\n      pop\n      jump\t// out\n        /* \"#utility.yul\":12741:13046   */\n    tag_204:\n        /* \"#utility.yul\":12781:12784   */\n      0x00\n        /* \"#utility.yul\":12800:12820   */\n      tag_448\n        /* \"#utility.yul\":12818:12819   */\n      dup3\n        /* \"#utility.yul\":12800:12820   */\n      tag_271\n      jump\t// in\n    tag_448:\n        /* \"#utility.yul\":12795:12820   */\n      swap2\n      pop\n        /* \"#utility.yul\":12834:12854   */\n      tag_449\n        /* \"#utility.yul\":12852:12853   */\n      dup4\n        /* \"#utility.yul\":12834:12854   */\n      tag_271\n      jump\t// in\n    tag_449:\n        /* \"#utility.yul\":12829:12854   */\n      swap3\n      pop\n        /* \"#utility.yul\":12988:12989   */\n      dup3\n        /* \"#utility.yul\":12920:12986   */\n      0xffffffffffffffffffffffffffffffffffffffffffffffffffffffffffffffff\n        /* \"#utility.yul\":12916:12990   */\n      sub\n        /* \"#utility.yul\":12913:12914   */\n      dup3\n        /* \"#utility.yul\":12910:12991   */\n      gt\n        /* \"#utility.yul\":12907:13014   */\n      iszero\n      tag_450\n      jumpi\n        /* \"#utility.yul\":12994:13012   */\n      tag_451\n      tag_293\n      jump\t// in\n    tag_451:\n        /* \"#utility.yul\":12907:13014   */\n    tag_450:\n        /* \"#utility.yul\":13038:13039   */\n      dup3\n        /* \"#utility.yul\":13035:13036   */\n      dup3\n        /* \"#utility.yul\":13031:13040   */\n      add\n        /* \"#utility.yul\":13024:13040   */\n      swap1\n      pop\n        /* \"#utility.yul\":12741:13046   */\n      swap3\n      swap2\n      pop\n      pop\n      jump\t// out\n        /* \"#utility.yul\":13052:13150   */\n    tag_294:\n        /* \"#utility.yul\":13103:13109   */\n      0x00\n        /* \"#utility.yul\":13137:13142   */\n      dup2\n        /* \"#utility.yul\":13131:13143   */\n      mload\n        /* \"#utility.yul\":13121:13143   */\n      swap1\n      pop\n        /* \"#utility.yul\":13052:13150   */\n      swap2\n      swap1\n      pop\n      jump\t// out\n        /* \"#utility.yul\":13156:13324   */\n    tag_295:\n        /* \"#utility.yul\":13239:13250   */\n      0x00\n        /* \"#utility.yul\":13273:13279   */\n      dup3\n        /* \"#utility.yul\":13268:13271   */\n      dup3\n        /* \"#utility.yul\":13261:13280   */\n      mstore\n        /* \"#utility.yul\":13313:13317   */\n      0x20\n        /* \"#utility.yul\":13308:13311   */\n      dup3\n        /* \"#utility.yul\":13304:13318   */\n      add\n        /* \"#utility.yul\":13289:13318   */\n      swap1\n      pop\n        /* \"#utility.yul\":13156:13324   */\n      swap3\n      swap2\n      pop\n      pop\n      jump\t// out\n        /* \"#utility.yul\":13330:13690   */\n    tag_296:\n        /* \"#utility.yul\":13416:13419   */\n      0x00\n        /* \"#utility.yul\":13444:13482   */\n      tag_455\n        /* \"#utility.yul\":13476:13481   */\n      dup3\n        /* \"#utility.yul\":13444:13482   */\n      tag_294\n      jump\t// in\n    tag_455:\n        /* \"#utility.yul\":13498:13568   */\n      tag_456\n        /* \"#utility.yul\":13561:13567   */\n      dup2\n        /* \"#utility.yul\":13556:13559   */\n      dup6\n        /* \"#utility.yul\":13498:13568   */\n      tag_295\n      jump\t// in\n    tag_456:\n        /* \"#utility.yul\":13491:13568   */\n      swap4\n      pop\n        /* \"#utility.yul\":13577:13629   */\n      tag_457\n        /* \"#utility.yul\":13622:13628   */\n      dup2\n        /* \"#utility.yul\":13617:13620   */\n      dup6\n        /* \"#utility.yul\":13610:13614   */\n      0x20\n        /* \"#utility.yul\":13603:13608   */\n      dup7\n        /* \"#utility.yul\":13599:13615   */\n      add\n        /* \"#utility.yul\":13577:13629   */\n      tag_268\n      jump\t// in\n    tag_457:\n        /* \"#utility.yul\":13654:13683   */\n      tag_458\n        /* \"#utility.yul\":13676:13682   */\n      dup2\n        /* \"#utility.yul\":13654:13683   */\n      tag_269\n      jump\t// in\n    tag_458:\n        /* \"#utility.yul\":13649:13652   */\n      dup5\n        /* \"#utility.yul\":13645:13684   */\n      add\n        /* \"#utility.yul\":13638:13684   */\n      swap2\n      pop\n        /* \"#utility.yul\":13420:13690   */\n      pop\n        /* \"#utility.yul\":13330:13690   */\n      swap3\n      swap2\n      pop\n      pop\n      jump\t// out\n        /* \"#utility.yul\":13696:14336   */\n    tag_220:\n        /* \"#utility.yul\":13891:13895   */\n      0x00\n        /* \"#utility.yul\":13929:13932   */\n      0x80\n        /* \"#utility.yul\":13918:13927   */\n      dup3\n        /* \"#utility.yul\":13914:13933   */\n      add\n        /* \"#utility.yul\":13906:13933   */\n      swap1\n      pop\n        /* \"#utility.yul\":13943:14014   */\n      tag_460\n        /* \"#utility.yul\":14011:14012   */\n      0x00\n        /* \"#utility.yul\":14000:14009   */\n      dup4\n        /* \"#utility.yul\":13996:14013   */\n      add\n        /* \"#utility.yul\":13987:13993   */\n      dup8\n        /* \"#utility.yul\":13943:14014   */\n      tag_276\n      jump\t// in\n    tag_460:\n        /* \"#utility.yul\":14024:14096   */\n      tag_461\n        /* \"#utility.yul\":14092:14094   */\n      0x20\n        /* \"#utility.yul\":14081:14090   */\n      dup4\n        /* \"#utility.yul\":14077:14095   */\n      add\n        /* \"#utility.yul\":14068:14074   */\n      dup7\n        /* \"#utility.yul\":14024:14096   */\n      tag_276\n      jump\t// in\n    tag_461:\n        /* \"#utility.yul\":14106:14178   */\n      tag_462\n        /* \"#utility.yul\":14174:14176   */\n      0x40\n        /* \"#utility.yul\":14163:14172   */\n      dup4\n        /* \"#utility.yul\":14159:14177   */\n      add\n        /* \"#utility.yul\":14150:14156   */\n      dup6\n        /* \"#utility.yul\":14106:14178   */\n      tag_279\n      jump\t// in\n    tag_462:\n        /* \"#utility.yul\":14225:14234   */\n      dup2\n        /* \"#utility.yul\":14219:14223   */\n      dup2\n        /* \"#utility.yul\":14215:14235   */\n      sub\n        /* \"#utility.yul\":14210:14212   */\n      0x60\n        /* \"#utility.yul\":14199:14208   */\n      dup4\n        /* \"#utility.yul\":14195:14213   */\n      add\n        /* \"#utility.yul\":14188:14236   */\n      mstore\n        /* \"#utility.yul\":14253:14329   */\n      tag_463\n        /* \"#utility.yul\":14324:14328   */\n      dup2\n        /* \"#utility.yul\":14315:14321   */\n      dup5\n        /* \"#utility.yul\":14253:14329   */\n      tag_296\n      jump\t// in\n    tag_463:\n        /* \"#utility.yul\":14245:14329   */\n      swap1\n      pop\n        /* \"#utility.yul\":13696:14336   */\n      swap6\n      swap5\n      pop\n      pop\n      pop\n      pop\n      pop\n      jump\t// out\n        /* \"#utility.yul\":14342:14483   */\n    tag_297:\n        /* \"#utility.yul\":14398:14403   */\n      0x00\n        /* \"#utility.yul\":14429:14435   */\n      dup2\n        /* \"#utility.yul\":14423:14436   */\n      mload\n        /* \"#utility.yul\":14414:14436   */\n      swap1\n      pop\n        /* \"#utility.yul\":14445:14477   */\n      tag_465\n        /* \"#utility.yul\":14471:14476   */\n      dup2\n        /* \"#utility.yul\":14445:14477   */\n      tag_262\n      jump\t// in\n    tag_465:\n        /* \"#utility.yul\":14342:14483   */\n      swap3\n      swap2\n      pop\n      pop\n      jump\t// out\n        /* \"#utility.yul\":14489:14838   */\n    tag_223:\n        /* \"#utility.yul\":14558:14564   */\n      0x00\n        /* \"#utility.yul\":14607:14609   */\n      0x20\n        /* \"#utility.yul\":14595:14604   */\n      dup3\n        /* \"#utility.yul\":14586:14593   */\n      dup5\n        /* \"#utility.yul\":14582:14605   */\n      sub\n        /* \"#utility.yul\":14578:14610   */\n      slt\n        /* \"#utility.yul\":14575:14694   */\n      iszero\n      tag_467\n      jumpi\n        /* \"#utility.yul\":14613:14692   */\n      tag_468\n      tag_259\n      jump\t// in\n    tag_468:\n        /* \"#utility.yul\":14575:14694   */\n    tag_467:\n        /* \"#utility.yul\":14733:14734   */\n      0x00\n        /* \"#utility.yul\":14758:14821   */\n      tag_469\n        /* \"#utility.yul\":14813:14820   */\n      dup5\n        /* \"#utility.yul\":14804:14810   */\n      dup3\n        /* \"#utility.yul\":14793:14802   */\n      dup6\n        /* \"#utility.yul\":14789:14811   */\n      add\n        /* \"#utility.yul\":14758:14821   */\n      tag_297\n      jump\t// in\n    tag_469:\n        /* \"#utility.yul\":14748:14821   */\n      swap2\n      pop\n        /* \"#utility.yul\":14704:14831   */\n      pop\n        /* \"#utility.yul\":14489:14838   */\n      swap3\n      swap2\n      pop\n      pop\n      jump\t// out\n        /* \"#utility.yul\":14844:15077   */\n    tag_239:\n        /* \"#utility.yul\":14883:14886   */\n      0x00\n        /* \"#utility.yul\":14906:14930   */\n      tag_471\n        /* \"#utility.yul\":14924:14929   */\n      dup3\n        /* \"#utility.yul\":14906:14930   */\n      tag_271\n      jump\t// in\n    tag_471:\n        /* \"#utility.yul\":14897:14930   */\n      swap2\n      pop\n        /* \"#utility.yul\":14952:15018   */\n      0xffffffffffffffffffffffffffffffffffffffffffffffffffffffffffffffff\n        /* \"#utility.yul\":14945:14950   */\n      dup3\n        /* \"#utility.yul\":14942:15019   */\n      sub\n        /* \"#utility.yul\":14939:15042   */\n      tag_472\n      jumpi\n        /* \"#utility.yul\":15022:15040   */\n      tag_473\n      tag_293\n      jump\t// in\n    tag_473:\n        /* \"#utility.yul\":14939:15042   */\n    tag_472:\n        /* \"#utility.yul\":15069:15070   */\n      0x01\n        /* \"#utility.yul\":15062:15067   */\n      dup3\n        /* \"#utility.yul\":15058:15071   */\n      add\n        /* \"#utility.yul\":15051:15071   */\n      swap1\n      pop\n        /* \"#utility.yul\":14844:15077   */\n      swap2\n      swap1\n      pop\n      jump\t// out\n        /* \"#utility.yul\":15083:15263   */\n    tag_298:\n        /* \"#utility.yul\":15131:15208   */\n      0x4e487b7100000000000000000000000000000000000000000000000000000000\n        /* \"#utility.yul\":15128:15129   */\n      0x00\n        /* \"#utility.yul\":15121:15209   */\n      mstore\n        /* \"#utility.yul\":15228:15232   */\n      0x12\n        /* \"#utility.yul\":15225:15226   */\n      0x04\n        /* \"#utility.yul\":15218:15233   */\n      mstore\n        /* \"#utility.yul\":15252:15256   */\n      0x24\n        /* \"#utility.yul\":15249:15250   */\n      0x00\n        /* \"#utility.yul\":15242:15257   */\n      revert\n        /* \"#utility.yul\":15269:15454   */\n    tag_241:\n        /* \"#utility.yul\":15309:15310   */\n      0x00\n        /* \"#utility.yul\":15326:15346   */\n      tag_476\n        /* \"#utility.yul\":15344:15345   */\n      dup3\n        /* \"#utility.yul\":15326:15346   */\n      tag_271\n      jump\t// in\n    tag_476:\n        /* \"#utility.yul\":15321:15346   */\n      swap2\n      pop\n        /* \"#utility.yul\":15360:15380   */\n      tag_477\n        /* \"#utility.yul\":15378:15379   */\n      dup4\n        /* \"#utility.yul\":15360:15380   */\n      tag_271\n      jump\t// in\n    tag_477:\n        /* \"#utility.yul\":15355:15380   */\n      swap3\n      pop\n        /* \"#utility.yul\":15399:15400   */\n      dup3\n        /* \"#utility.yul\":15389:15424   */\n      tag_478\n      jumpi\n        /* \"#utility.yul\":15404:15422   */\n      tag_479\n      tag_298\n      jump\t// in\n    tag_479:\n        /* \"#utility.yul\":15389:15424   */\n    tag_478:\n        /* \"#utility.yul\":15446:15447   */\n      dup3\n        /* \"#utility.yul\":15443:15444   */\n      dup3\n        /* \"#utility.yul\":15439:15448   */\n      div\n        /* \"#utility.yul\":15434:15448   */\n      swap1\n      pop\n        /* \"#utility.yul\":15269:15454   */\n      swap3\n      swap2\n      pop\n      pop\n      jump\t// out\n        /* \"#utility.yul\":15460:15636   */\n    tag_250:\n        /* \"#utility.yul\":15492:15493   */\n      0x00\n        /* \"#utility.yul\":15509:15529   */\n      tag_481\n        /* \"#utility.yul\":15527:15528   */\n      dup3\n        /* \"#utility.yul\":15509:15529   */\n      tag_271\n      jump\t// in\n    tag_481:\n        /* \"#utility.yul\":15504:15529   */\n      swap2\n      pop\n        /* \"#utility.yul\":15543:15563   */\n      tag_482\n        /* \"#utility.yul\":15561:15562   */\n      dup4\n        /* \"#utility.yul\":15543:15563   */\n      tag_271\n      jump\t// in\n    tag_482:\n        /* \"#utility.yul\":15538:15563   */\n      swap3\n      pop\n        /* \"#utility.yul\":15582:15583   */\n      dup3\n        /* \"#utility.yul\":15572:15607   */\n      tag_483\n      jumpi\n        /* \"#utility.yul\":15587:15605   */\n      tag_484\n      tag_298\n      jump\t// in\n    tag_484:\n        /* \"#utility.yul\":15572:15607   */\n    tag_483:\n        /* \"#utility.yul\":15628:15629   */\n      dup3\n        /* \"#utility.yul\":15625:15626   */\n      dup3\n        /* \"#utility.yul\":15621:15630   */\n      mod\n        /* \"#utility.yul\":15616:15630   */\n      swap1\n      pop\n        /* \"#utility.yul\":15460:15636   */\n      swap3\n      swap2\n      pop\n      pop\n      jump\t// out\n        /* \"#utility.yul\":15642:15822   */\n    tag_254:\n        /* \"#utility.yul\":15690:15767   */\n      0x4e487b7100000000000000000000000000000000000000000000000000000000\n        /* \"#utility.yul\":15687:15688   */\n      0x00\n        /* \"#utility.yul\":15680:15768   */\n      mstore\n        /* \"#utility.yul\":15787:15791   */\n      0x32\n        /* \"#utility.yul\":15784:15785   */\n      0x04\n        /* \"#utility.yul\":15777:15792   */\n      mstore\n        /* \"#utility.yul\":15811:15815   */\n      0x24\n        /* \"#utility.yul\":15808:15809   */\n      0x00\n        /* \"#utility.yul\":15801:15816   */\n      revert\n    stop\n    data_d8bb5093925f17312ccd69c1ad4eefb61d29f5f451bdf501cef244662be1efab 68747470733a2f2f676174657761792e70696e6174612e636c6f75642f697066732f516d6648576b7454625354424e4c7777385a446832716335444b71695a63696b6e6f7137365a665872736f5231762f\n\n    auxdata: 0xa2646970667358221220736a5657dc98ced9a75df927c3e4c88223c06ce2aac17f61795c3ccc4d4d8c5464736f6c634300080d0033\n}\n",
				"bytecode": {
					"linkReferences": {},
					"object": "60806040523480156200001157600080fd5b5060405162002672380380620026728339818101604052810190620000379190620002dd565b81600290805190602001906200004f92919062000090565b5080600390805190602001906200006892919062000090565b50620000796200008760201b60201c565b6000819055505050620003c6565b60006001905090565b8280546200009e9062000391565b90600052602060002090601f016020900481019282620000c257600085556200010e565b82601f10620000dd57805160ff19168380011785556200010e565b828001600101855582156200010e579182015b828111156200010d578251825591602001919060010190620000f0565b5b5090506200011d919062000121565b5090565b5b808211156200013c57600081600090555060010162000122565b5090565b6000604051905090565b600080fd5b600080fd5b600080fd5b600080fd5b6000601f19601f8301169050919050565b7f4e487b7100000000000000000000000000000000000000000000000000000000600052604160045260246000fd5b620001a9826200015e565b810181811067ffffffffffffffff82111715620001cb57620001ca6200016f565b5b80604052505050565b6000620001e062000140565b9050620001ee82826200019e565b919050565b600067ffffffffffffffff8211156200021157620002106200016f565b5b6200021c826200015e565b9050602081019050919050565b60005b83811015620002495780820151818401526020810190506200022c565b8381111562000259576000848401525b50505050565b6000620002766200027084620001f3565b620001d4565b90508281526020810184848401111562000295576200029462000159565b5b620002a284828562000229565b509392505050565b600082601f830112620002c257620002c162000154565b5b8151620002d48482602086016200025f565b91505092915050565b60008060408385031215620002f757620002f66200014a565b5b600083015167ffffffffffffffff8111156200031857620003176200014f565b5b6200032685828601620002aa565b925050602083015167ffffffffffffffff8111156200034a57620003496200014f565b5b6200035885828601620002aa565b9150509250929050565b7f4e487b7100000000000000000000000000000000000000000000000000000000600052602260045260246000fd5b60006002820490506001821680620003aa57607f821691505b602082108103620003c057620003bf62000362565b5b50919050565b61229c80620003d66000396000f3fe608060405234801561001057600080fd5b50600436106101005760003560e01c806342842e0e11610097578063a22cb46511610066578063a22cb465146102ad578063b88d4fde146102c9578063c87b56dd146102e5578063e985e9c51461031557610100565b806342842e0e146102135780636352211e1461022f57806370a082311461025f57806395d89b411461028f57610100565b806318160ddd116100d357806318160ddd1461019f5780631e96c3ee146101bd57806323b872dd146101c7578063325b272a146101e357610100565b806301ffc9a71461010557806306fdde0314610135578063081812fc14610153578063095ea7b314610183575b600080fd5b61011f600480360381019061011a9190611900565b610345565b60405161012c9190611948565b60405180910390f35b61013d610427565b60405161014a91906119fc565b60405180910390f35b61016d60048036038101906101689190611a54565b6104b9565b60405161017a9190611ac2565b60405180910390f35b61019d60048036038101906101989190611b09565b610535565b005b6101a7610639565b6040516101b49190611b58565b60405180910390f35b6101c5610650565b005b6101e160048036038101906101dc9190611b73565b610693565b005b6101fd60048036038101906101f89190611bc6565b6106a3565b60405161020a9190611b58565b60405180910390f35b61022d60048036038101906102289190611b73565b61079e565b005b61024960048036038101906102449190611a54565b6107be565b6040516102569190611ac2565b60405180910390f35b61027960048036038101906102749190611bc6565b6107d4565b6040516102869190611b58565b60405180910390f35b6102976108a3565b6040516102a491906119fc565b60405180910390f35b6102c760048036038101906102c29190611c1f565b610935565b005b6102e360048036038101906102de9190611d94565b610aac565b005b6102ff60048036038101906102fa9190611a54565b610b24565b60405161030c91906119fc565b60405180910390f35b61032f600480360381019061032a9190611e17565b610bc2565b60405161033c9190611948565b60405180910390f35b60007f80ac58cd000000000000000000000000000000000000000000000000000000007bffffffffffffffffffffffffffffffffffffffffffffffffffffffff1916827bffffffffffffffffffffffffffffffffffffffffffffffffffffffff1916148061041057507f5b5e139f000000000000000000000000000000000000000000000000000000007bffffffffffffffffffffffffffffffffffffffffffffffffffffffff1916827bffffffffffffffffffffffffffffffffffffffffffffffffffffffff1916145b80610420575061041f82610c56565b5b9050919050565b60606002805461043690611e86565b80601f016020809104026020016040519081016040528092919081815260200182805461046290611e86565b80156104af5780601f10610484576101008083540402835291602001916104af565b820191906000526020600020905b81548152906001019060200180831161049257829003601f168201915b5050505050905090565b60006104c482610cc0565b6104fa576040517fcf4700e400000000000000000000000000000000000000000000000000000000815260040160405180910390fd5b6006600083815260200190815260200160002060009054906101000a900473ffffffffffffffffffffffffffffffffffffffff169050919050565b6000610540826107be565b90508073ffffffffffffffffffffffffffffffffffffffff168373ffffffffffffffffffffffffffffffffffffffff16036105a7576040517f943f7b8c00000000000000000000000000000000000000000000000000000000815260040160405180910390fd5b8073ffffffffffffffffffffffffffffffffffffffff166105c6610d0e565b73ffffffffffffffffffffffffffffffffffffffff1614610629576105f2816105ed610d0e565b610bc2565b610628576040517fcfb3b94200000000000000000000000000000000000000000000000000000000815260040160405180910390fd5b5b610634838383610d16565b505050565b6000610643610dc8565b6001546000540303905090565b33600960006101000a81548173ffffffffffffffffffffffffffffffffffffffff021916908373ffffffffffffffffffffffffffffffffffffffff160217905550565b61069e838383610dd1565b505050565b60008061070a600860008573ffffffffffffffffffffffffffffffffffffffff1673ffffffffffffffffffffffffffffffffffffffff168152602001908152602001600020600060018152602001908152602001600020544361128590919063ffffffff16565b905060006107298261071b866107d4565b61129b90919063ffffffff16565b9050600061079182600860008873ffffffffffffffffffffffffffffffffffffffff1673ffffffffffffffffffffffffffffffffffffffff168152602001908152602001600020600060028152602001908152602001600020546112b190919063ffffffff16565b9050809350505050919050565b6107b983838360405180602001604052806000815250610aac565b505050565b60006107c9826112c7565b600001519050919050565b60008073ffffffffffffffffffffffffffffffffffffffff168273ffffffffffffffffffffffffffffffffffffffff160361083b576040517f8f4eb60400000000000000000000000000000000000000000000000000000000815260040160405180910390fd5b600560008373ffffffffffffffffffffffffffffffffffffffff1673ffffffffffffffffffffffffffffffffffffffff16815260200190815260200160002060000160009054906101000a900467ffffffffffffffff1667ffffffffffffffff169050919050565b6060600380546108b290611e86565b80601f01602080910402602001604051908101604052809291908181526020018280546108de90611e86565b801561092b5780601f106109005761010080835404028352916020019161092b565b820191906000526020600020905b81548152906001019060200180831161090e57829003601f168201915b5050505050905090565b61093d610d0e565b73ffffffffffffffffffffffffffffffffffffffff168273ffffffffffffffffffffffffffffffffffffffff16036109a1576040517fb06307db00000000000000000000000000000000000000000000000000000000815260040160405180910390fd5b80600760006109ae610d0e565b73ffffffffffffffffffffffffffffffffffffffff1673ffffffffffffffffffffffffffffffffffffffff16815260200190815260200160002060008473ffffffffffffffffffffffffffffffffffffffff1673ffffffffffffffffffffffffffffffffffffffff16815260200190815260200160002060006101000a81548160ff0219169083151502179055508173ffffffffffffffffffffffffffffffffffffffff16610a5b610d0e565b73ffffffffffffffffffffffffffffffffffffffff167f17307eab39ab6107e8899845ad3d59bd9653f200f220920489ca2b5937696c3183604051610aa09190611948565b60405180910390a35050565b610ab7848484610dd1565b610ad68373ffffffffffffffffffffffffffffffffffffffff16611552565b15610b1e57610ae784848484611575565b610b1d576040517fd1a57ed600000000000000000000000000000000000000000000000000000000815260040160405180910390fd5b5b50505050565b6060610b2f82610cc0565b610b65576040517fa14c4b5000000000000000000000000000000000000000000000000000000000815260040160405180910390fd5b6000610b6f6116c5565b90506000815103610b8f5760405180602001604052806000815250610bba565b80610b99846116e5565b604051602001610baa929190611ef3565b6040516020818303038152906040525b915050919050565b6000600760008473ffffffffffffffffffffffffffffffffffffffff1673ffffffffffffffffffffffffffffffffffffffff16815260200190815260200160002060008373ffffffffffffffffffffffffffffffffffffffff1673ffffffffffffffffffffffffffffffffffffffff16815260200190815260200160002060009054906101000a900460ff16905092915050565b60007f01ffc9a7000000000000000000000000000000000000000000000000000000007bffffffffffffffffffffffffffffffffffffffffffffffffffffffff1916827bffffffffffffffffffffffffffffffffffffffffffffffffffffffff1916149050919050565b600081610ccb610dc8565b11158015610cda575060005482105b8015610d07575060046000838152602001908152602001600020600001601c9054906101000a900460ff16155b9050919050565b600033905090565b826006600084815260200190815260200160002060006101000a81548173ffffffffffffffffffffffffffffffffffffffff021916908373ffffffffffffffffffffffffffffffffffffffff160217905550818373ffffffffffffffffffffffffffffffffffffffff168273ffffffffffffffffffffffffffffffffffffffff167f8c5be1e5ebec7d5bd14f71427d1e84f3dd0314c0f7b2291e5b200ac8c7c3b92560405160405180910390a4505050565b60006001905090565b6000610ddc826112c7565b90508373ffffffffffffffffffffffffffffffffffffffff16816000015173ffffffffffffffffffffffffffffffffffffffff1614610e47576040517fa114810000000000000000000000000000000000000000000000000000000000815260040160405180910390fd5b60008473ffffffffffffffffffffffffffffffffffffffff16610e68610d0e565b73ffffffffffffffffffffffffffffffffffffffff161480610e975750610e9685610e91610d0e565b610bc2565b5b80610edc5750610ea5610d0e565b73ffffffffffffffffffffffffffffffffffffffff16610ec4846104b9565b73ffffffffffffffffffffffffffffffffffffffff16145b905080610f15576040517f59c896be00000000000000000000000000000000000000000000000000000000815260040160405180910390fd5b600073ffffffffffffffffffffffffffffffffffffffff168473ffffffffffffffffffffffffffffffffffffffff1603610f7b576040517fea553b3400000000000000000000000000000000000000000000000000000000815260040160405180910390fd5b610f888585856001611845565b610f9460008487610d16565b6001600560008773ffffffffffffffffffffffffffffffffffffffff1673ffffffffffffffffffffffffffffffffffffffff16815260200190815260200160002060000160008282829054906101000a900467ffffffffffffffff160392506101000a81548167ffffffffffffffff021916908367ffffffffffffffff1602179055506001600560008673ffffffffffffffffffffffffffffffffffffffff1673ffffffffffffffffffffffffffffffffffffffff16815260200190815260200160002060000160008282829054906101000a900467ffffffffffffffff160192506101000a81548167ffffffffffffffff021916908367ffffffffffffffff1602179055506000600460008581526020019081526020016000209050848160000160006101000a81548173ffffffffffffffffffffffffffffffffffffffff021916908373ffffffffffffffffffffffffffffffffffffffff160217905550428160000160146101000a81548167ffffffffffffffff021916908367ffffffffffffffff16021790555060006001850190506000600460008381526020019081526020016000209050600073ffffffffffffffffffffffffffffffffffffffff168160000160009054906101000a900473ffffffffffffffffffffffffffffffffffffffff1673ffffffffffffffffffffffffffffffffffffffff160361121357600054821461121257878160000160006101000a81548173ffffffffffffffffffffffffffffffffffffffff021916908373ffffffffffffffffffffffffffffffffffffffff16021790555084602001518160000160146101000a81548167ffffffffffffffff021916908367ffffffffffffffff1602179055505b5b505050828473ffffffffffffffffffffffffffffffffffffffff168673ffffffffffffffffffffffffffffffffffffffff167fddf252ad1be2c89b69c2b068fc378daa952ba7f163c4a11628f55a4df523b3ef60405160405180910390a461127e858585600161184b565b5050505050565b600081836112939190611f46565b905092915050565b600081836112a99190611f7a565b905092915050565b600081836112bf9190611fd4565b905092915050565b6112cf611851565b6000829050806112dd610dc8565b1161151b5760005481101561151a576000600460008381526020019081526020016000206040518060600160405290816000820160009054906101000a900473ffffffffffffffffffffffffffffffffffffffff1673ffffffffffffffffffffffffffffffffffffffff1673ffffffffffffffffffffffffffffffffffffffff1681526020016000820160149054906101000a900467ffffffffffffffff1667ffffffffffffffff1667ffffffffffffffff16815260200160008201601c9054906101000a900460ff1615151515815250509050806040015161151857600073ffffffffffffffffffffffffffffffffffffffff16816000015173ffffffffffffffffffffffffffffffffffffffff16146113fc57809250505061154d565b5b60011561151757818060019003925050600460008381526020019081526020016000206040518060600160405290816000820160009054906101000a900473ffffffffffffffffffffffffffffffffffffffff1673ffffffffffffffffffffffffffffffffffffffff1673ffffffffffffffffffffffffffffffffffffffff1681526020016000820160149054906101000a900467ffffffffffffffff1667ffffffffffffffff1667ffffffffffffffff16815260200160008201601c9054906101000a900460ff1615151515815250509050600073ffffffffffffffffffffffffffffffffffffffff16816000015173ffffffffffffffffffffffffffffffffffffffff161461151257809250505061154d565b6113fd565b5b505b5b6040517fdf2d9b4200000000000000000000000000000000000000000000000000000000815260040160405180910390fd5b919050565b6000808273ffffffffffffffffffffffffffffffffffffffff163b119050919050565b60008373ffffffffffffffffffffffffffffffffffffffff1663150b7a0261159b610d0e565b8786866040518563ffffffff1660e01b81526004016115bd949392919061207f565b6020604051808303816000875af19250505080156115f957506040513d601f19601f820116820180604052508101906115f691906120e0565b60015b611672573d8060008114611629576040519150601f19603f3d011682016040523d82523d6000602084013e61162e565b606091505b50600081510361166a576040517fd1a57ed600000000000000000000000000000000000000000000000000000000815260040160405180910390fd5b805181602001fd5b63150b7a0260e01b7bffffffffffffffffffffffffffffffffffffffffffffffffffffffff1916817bffffffffffffffffffffffffffffffffffffffffffffffffffffffff191614915050949350505050565b606060405180608001604052806051815260200161221660519139905090565b60606000820361172c576040518060400160405280600181526020017f30000000000000000000000000000000000000000000000000000000000000008152509050611840565b600082905060005b6000821461175e5780806117479061210d565b915050600a826117579190612184565b9150611734565b60008167ffffffffffffffff81111561177a57611779611c69565b5b6040519080825280601f01601f1916602001820160405280156117ac5781602001600182028036833780820191505090505b5090505b60008514611839576001826117c59190611f46565b9150600a856117d491906121b5565b60306117e09190611fd4565b60f81b8183815181106117f6576117f56121e6565b5b60200101907effffffffffffffffffffffffffffffffffffffffffffffffffffffffffffff1916908160001a905350600a856118329190612184565b94506117b0565b8093505050505b919050565b50505050565b50505050565b6040518060600160405280600073ffffffffffffffffffffffffffffffffffffffff168152602001600067ffffffffffffffff1681526020016000151581525090565b6000604051905090565b600080fd5b600080fd5b60007fffffffff0000000000000000000000000000000000000000000000000000000082169050919050565b6118dd816118a8565b81146118e857600080fd5b50565b6000813590506118fa816118d4565b92915050565b6000602082840312156119165761191561189e565b5b6000611924848285016118eb565b91505092915050565b60008115159050919050565b6119428161192d565b82525050565b600060208201905061195d6000830184611939565b92915050565b600081519050919050565b600082825260208201905092915050565b60005b8381101561199d578082015181840152602081019050611982565b838111156119ac576000848401525b50505050565b6000601f19601f8301169050919050565b60006119ce82611963565b6119d8818561196e565b93506119e881856020860161197f565b6119f1816119b2565b840191505092915050565b60006020820190508181036000830152611a1681846119c3565b905092915050565b6000819050919050565b611a3181611a1e565b8114611a3c57600080fd5b50565b600081359050611a4e81611a28565b92915050565b600060208284031215611a6a57611a6961189e565b5b6000611a7884828501611a3f565b91505092915050565b600073ffffffffffffffffffffffffffffffffffffffff82169050919050565b6000611aac82611a81565b9050919050565b611abc81611aa1565b82525050565b6000602082019050611ad76000830184611ab3565b92915050565b611ae681611aa1565b8114611af157600080fd5b50565b600081359050611b0381611add565b92915050565b60008060408385031215611b2057611b1f61189e565b5b6000611b2e85828601611af4565b9250506020611b3f85828601611a3f565b9150509250929050565b611b5281611a1e565b82525050565b6000602082019050611b6d6000830184611b49565b92915050565b600080600060608486031215611b8c57611b8b61189e565b5b6000611b9a86828701611af4565b9350506020611bab86828701611af4565b9250506040611bbc86828701611a3f565b9150509250925092565b600060208284031215611bdc57611bdb61189e565b5b6000611bea84828501611af4565b91505092915050565b611bfc8161192d565b8114611c0757600080fd5b50565b600081359050611c1981611bf3565b92915050565b60008060408385031215611c3657611c3561189e565b5b6000611c4485828601611af4565b9250506020611c5585828601611c0a565b9150509250929050565b600080fd5b600080fd5b7f4e487b7100000000000000000000000000000000000000000000000000000000600052604160045260246000fd5b611ca1826119b2565b810181811067ffffffffffffffff82111715611cc057611cbf611c69565b5b80604052505050565b6000611cd3611894565b9050611cdf8282611c98565b919050565b600067ffffffffffffffff821115611cff57611cfe611c69565b5b611d08826119b2565b9050602081019050919050565b82818337600083830152505050565b6000611d37611d3284611ce4565b611cc9565b905082815260208101848484011115611d5357611d52611c64565b5b611d5e848285611d15565b509392505050565b600082601f830112611d7b57611d7a611c5f565b5b8135611d8b848260208601611d24565b91505092915050565b60008060008060808587031215611dae57611dad61189e565b5b6000611dbc87828801611af4565b9450506020611dcd87828801611af4565b9350506040611dde87828801611a3f565b925050606085013567ffffffffffffffff811115611dff57611dfe6118a3565b5b611e0b87828801611d66565b91505092959194509250565b60008060408385031215611e2e57611e2d61189e565b5b6000611e3c85828601611af4565b9250506020611e4d85828601611af4565b9150509250929050565b7f4e487b7100000000000000000000000000000000000000000000000000000000600052602260045260246000fd5b60006002820490506001821680611e9e57607f821691505b602082108103611eb157611eb0611e57565b5b50919050565b600081905092915050565b6000611ecd82611963565b611ed78185611eb7565b9350611ee781856020860161197f565b80840191505092915050565b6000611eff8285611ec2565b9150611f0b8284611ec2565b91508190509392505050565b7f4e487b7100000000000000000000000000000000000000000000000000000000600052601160045260246000fd5b6000611f5182611a1e565b9150611f5c83611a1e565b925082821015611f6f57611f6e611f17565b5b828203905092915050565b6000611f8582611a1e565b9150611f9083611a1e565b9250817fffffffffffffffffffffffffffffffffffffffffffffffffffffffffffffffff0483118215151615611fc957611fc8611f17565b5b828202905092915050565b6000611fdf82611a1e565b9150611fea83611a1e565b9250827fffffffffffffffffffffffffffffffffffffffffffffffffffffffffffffffff0382111561201f5761201e611f17565b5b828201905092915050565b600081519050919050565b600082825260208201905092915050565b60006120518261202a565b61205b8185612035565b935061206b81856020860161197f565b612074816119b2565b840191505092915050565b60006080820190506120946000830187611ab3565b6120a16020830186611ab3565b6120ae6040830185611b49565b81810360608301526120c08184612046565b905095945050505050565b6000815190506120da816118d4565b92915050565b6000602082840312156120f6576120f561189e565b5b6000612104848285016120cb565b91505092915050565b600061211882611a1e565b91507fffffffffffffffffffffffffffffffffffffffffffffffffffffffffffffffff820361214a57612149611f17565b5b600182019050919050565b7f4e487b7100000000000000000000000000000000000000000000000000000000600052601260045260246000fd5b600061218f82611a1e565b915061219a83611a1e565b9250826121aa576121a9612155565b5b828204905092915050565b60006121c082611a1e565b91506121cb83611a1e565b9250826121db576121da612155565b5b828206905092915050565b7f4e487b7100000000000000000000000000000000000000000000000000000000600052603260045260246000fdfe68747470733a2f2f676174657761792e70696e6174612e636c6f75642f697066732f516d6648576b7454625354424e4c7777385a446832716335444b71695a63696b6e6f7137365a665872736f5231762fa2646970667358221220736a5657dc98ced9a75df927c3e4c88223c06ce2aac17f61795c3ccc4d4d8c5464736f6c634300080d0033",
					"opcodes": "PUSH1 0x80 PUSH1 0x40 MSTORE CALLVALUE DUP1 ISZERO PUSH3 0x11 JUMPI PUSH1 0x0 DUP1 REVERT JUMPDEST POP PUSH1 0x40 MLOAD PUSH3 0x2672 CODESIZE SUB DUP1 PUSH3 0x2672 DUP4 CODECOPY DUP2 DUP2 ADD PUSH1 0x40 MSTORE DUP2 ADD SWAP1 PUSH3 0x37 SWAP2 SWAP1 PUSH3 0x2DD JUMP JUMPDEST DUP2 PUSH1 0x2 SWAP1 DUP1 MLOAD SWAP1 PUSH1 0x20 ADD SWAP1 PUSH3 0x4F SWAP3 SWAP2 SWAP1 PUSH3 0x90 JUMP JUMPDEST POP DUP1 PUSH1 0x3 SWAP1 DUP1 MLOAD SWAP1 PUSH1 0x20 ADD SWAP1 PUSH3 0x68 SWAP3 SWAP2 SWAP1 PUSH3 0x90 JUMP JUMPDEST POP PUSH3 0x79 PUSH3 0x87 PUSH1 0x20 SHL PUSH1 0x20 SHR JUMP JUMPDEST PUSH1 0x0 DUP2 SWAP1 SSTORE POP POP POP PUSH3 0x3C6 JUMP JUMPDEST PUSH1 0x0 PUSH1 0x1 SWAP1 POP SWAP1 JUMP JUMPDEST DUP3 DUP1 SLOAD PUSH3 0x9E SWAP1 PUSH3 0x391 JUMP JUMPDEST SWAP1 PUSH1 0x0 MSTORE PUSH1 0x20 PUSH1 0x0 KECCAK256 SWAP1 PUSH1 0x1F ADD PUSH1 0x20 SWAP1 DIV DUP2 ADD SWAP3 DUP3 PUSH3 0xC2 JUMPI PUSH1 0x0 DUP6 SSTORE PUSH3 0x10E JUMP JUMPDEST DUP3 PUSH1 0x1F LT PUSH3 0xDD JUMPI DUP1 MLOAD PUSH1 0xFF NOT AND DUP4 DUP1 ADD OR DUP6 SSTORE PUSH3 0x10E JUMP JUMPDEST DUP3 DUP1 ADD PUSH1 0x1 ADD DUP6 SSTORE DUP3 ISZERO PUSH3 0x10E JUMPI SWAP2 DUP3 ADD JUMPDEST DUP3 DUP2 GT ISZERO PUSH3 0x10D JUMPI DUP3 MLOAD DUP3 SSTORE SWAP2 PUSH1 0x20 ADD SWAP2 SWAP1 PUSH1 0x1 ADD SWAP1 PUSH3 0xF0 JUMP JUMPDEST JUMPDEST POP SWAP1 POP PUSH3 0x11D SWAP2 SWAP1 PUSH3 0x121 JUMP JUMPDEST POP SWAP1 JUMP JUMPDEST JUMPDEST DUP1 DUP3 GT ISZERO PUSH3 0x13C JUMPI PUSH1 0x0 DUP2 PUSH1 0x0 SWAP1 SSTORE POP PUSH1 0x1 ADD PUSH3 0x122 JUMP JUMPDEST POP SWAP1 JUMP JUMPDEST PUSH1 0x0 PUSH1 0x40 MLOAD SWAP1 POP SWAP1 JUMP JUMPDEST PUSH1 0x0 DUP1 REVERT JUMPDEST PUSH1 0x0 DUP1 REVERT JUMPDEST PUSH1 0x0 DUP1 REVERT JUMPDEST PUSH1 0x0 DUP1 REVERT JUMPDEST PUSH1 0x0 PUSH1 0x1F NOT PUSH1 0x1F DUP4 ADD AND SWAP1 POP SWAP2 SWAP1 POP JUMP JUMPDEST PUSH32 0x4E487B7100000000000000000000000000000000000000000000000000000000 PUSH1 0x0 MSTORE PUSH1 0x41 PUSH1 0x4 MSTORE PUSH1 0x24 PUSH1 0x0 REVERT JUMPDEST PUSH3 0x1A9 DUP3 PUSH3 0x15E JUMP JUMPDEST DUP2 ADD DUP2 DUP2 LT PUSH8 0xFFFFFFFFFFFFFFFF DUP3 GT OR ISZERO PUSH3 0x1CB JUMPI PUSH3 0x1CA PUSH3 0x16F JUMP JUMPDEST JUMPDEST DUP1 PUSH1 0x40 MSTORE POP POP POP JUMP JUMPDEST PUSH1 0x0 PUSH3 0x1E0 PUSH3 0x140 JUMP JUMPDEST SWAP1 POP PUSH3 0x1EE DUP3 DUP3 PUSH3 0x19E JUMP JUMPDEST SWAP2 SWAP1 POP JUMP JUMPDEST PUSH1 0x0 PUSH8 0xFFFFFFFFFFFFFFFF DUP3 GT ISZERO PUSH3 0x211 JUMPI PUSH3 0x210 PUSH3 0x16F JUMP JUMPDEST JUMPDEST PUSH3 0x21C DUP3 PUSH3 0x15E JUMP JUMPDEST SWAP1 POP PUSH1 0x20 DUP2 ADD SWAP1 POP SWAP2 SWAP1 POP JUMP JUMPDEST PUSH1 0x0 JUMPDEST DUP4 DUP2 LT ISZERO PUSH3 0x249 JUMPI DUP1 DUP3 ADD MLOAD DUP2 DUP5 ADD MSTORE PUSH1 0x20 DUP2 ADD SWAP1 POP PUSH3 0x22C JUMP JUMPDEST DUP4 DUP2 GT ISZERO PUSH3 0x259 JUMPI PUSH1 0x0 DUP5 DUP5 ADD MSTORE JUMPDEST POP POP POP POP JUMP JUMPDEST PUSH1 0x0 PUSH3 0x276 PUSH3 0x270 DUP5 PUSH3 0x1F3 JUMP JUMPDEST PUSH3 0x1D4 JUMP JUMPDEST SWAP1 POP DUP3 DUP2 MSTORE PUSH1 0x20 DUP2 ADD DUP5 DUP5 DUP5 ADD GT ISZERO PUSH3 0x295 JUMPI PUSH3 0x294 PUSH3 0x159 JUMP JUMPDEST JUMPDEST PUSH3 0x2A2 DUP5 DUP3 DUP6 PUSH3 0x229 JUMP JUMPDEST POP SWAP4 SWAP3 POP POP POP JUMP JUMPDEST PUSH1 0x0 DUP3 PUSH1 0x1F DUP4 ADD SLT PUSH3 0x2C2 JUMPI PUSH3 0x2C1 PUSH3 0x154 JUMP JUMPDEST JUMPDEST DUP2 MLOAD PUSH3 0x2D4 DUP5 DUP3 PUSH1 0x20 DUP7 ADD PUSH3 0x25F JUMP JUMPDEST SWAP2 POP POP SWAP3 SWAP2 POP POP JUMP JUMPDEST PUSH1 0x0 DUP1 PUSH1 0x40 DUP4 DUP6 SUB SLT ISZERO PUSH3 0x2F7 JUMPI PUSH3 0x2F6 PUSH3 0x14A JUMP JUMPDEST JUMPDEST PUSH1 0x0 DUP4 ADD MLOAD PUSH8 0xFFFFFFFFFFFFFFFF DUP2 GT ISZERO PUSH3 0x318 JUMPI PUSH3 0x317 PUSH3 0x14F JUMP JUMPDEST JUMPDEST PUSH3 0x326 DUP6 DUP3 DUP7 ADD PUSH3 0x2AA JUMP JUMPDEST SWAP3 POP POP PUSH1 0x20 DUP4 ADD MLOAD PUSH8 0xFFFFFFFFFFFFFFFF DUP2 GT ISZERO PUSH3 0x34A JUMPI PUSH3 0x349 PUSH3 0x14F JUMP JUMPDEST JUMPDEST PUSH3 0x358 DUP6 DUP3 DUP7 ADD PUSH3 0x2AA JUMP JUMPDEST SWAP2 POP POP SWAP3 POP SWAP3 SWAP1 POP JUMP JUMPDEST PUSH32 0x4E487B7100000000000000000000000000000000000000000000000000000000 PUSH1 0x0 MSTORE PUSH1 0x22 PUSH1 0x4 MSTORE PUSH1 0x24 PUSH1 0x0 REVERT JUMPDEST PUSH1 0x0 PUSH1 0x2 DUP3 DIV SWAP1 POP PUSH1 0x1 DUP3 AND DUP1 PUSH3 0x3AA JUMPI PUSH1 0x7F DUP3 AND SWAP2 POP JUMPDEST PUSH1 0x20 DUP3 LT DUP2 SUB PUSH3 0x3C0 JUMPI PUSH3 0x3BF PUSH3 0x362 JUMP JUMPDEST JUMPDEST POP SWAP2 SWAP1 POP JUMP JUMPDEST PUSH2 0x229C DUP1 PUSH3 0x3D6 PUSH1 0x0 CODECOPY PUSH1 0x0 RETURN INVALID PUSH1 0x80 PUSH1 0x40 MSTORE CALLVALUE DUP1 ISZERO PUSH2 0x10 JUMPI PUSH1 0x0 DUP1 REVERT JUMPDEST POP PUSH1 0x4 CALLDATASIZE LT PUSH2 0x100 JUMPI PUSH1 0x0 CALLDATALOAD PUSH1 0xE0 SHR DUP1 PUSH4 0x42842E0E GT PUSH2 0x97 JUMPI DUP1 PUSH4 0xA22CB465 GT PUSH2 0x66 JUMPI DUP1 PUSH4 0xA22CB465 EQ PUSH2 0x2AD JUMPI DUP1 PUSH4 0xB88D4FDE EQ PUSH2 0x2C9 JUMPI DUP1 PUSH4 0xC87B56DD EQ PUSH2 0x2E5 JUMPI DUP1 PUSH4 0xE985E9C5 EQ PUSH2 0x315 JUMPI PUSH2 0x100 JUMP JUMPDEST DUP1 PUSH4 0x42842E0E EQ PUSH2 0x213 JUMPI DUP1 PUSH4 0x6352211E EQ PUSH2 0x22F JUMPI DUP1 PUSH4 0x70A08231 EQ PUSH2 0x25F JUMPI DUP1 PUSH4 0x95D89B41 EQ PUSH2 0x28F JUMPI PUSH2 0x100 JUMP JUMPDEST DUP1 PUSH4 0x18160DDD GT PUSH2 0xD3 JUMPI DUP1 PUSH4 0x18160DDD EQ PUSH2 0x19F JUMPI DUP1 PUSH4 0x1E96C3EE EQ PUSH2 0x1BD JUMPI DUP1 PUSH4 0x23B872DD EQ PUSH2 0x1C7 JUMPI DUP1 PUSH4 0x325B272A EQ PUSH2 0x1E3 JUMPI PUSH2 0x100 JUMP JUMPDEST DUP1 PUSH4 0x1FFC9A7 EQ PUSH2 0x105 JUMPI DUP1 PUSH4 0x6FDDE03 EQ PUSH2 0x135 JUMPI DUP1 PUSH4 0x81812FC EQ PUSH2 0x153 JUMPI DUP1 PUSH4 0x95EA7B3 EQ PUSH2 0x183 JUMPI JUMPDEST PUSH1 0x0 DUP1 REVERT JUMPDEST PUSH2 0x11F PUSH1 0x4 DUP1 CALLDATASIZE SUB DUP2 ADD SWAP1 PUSH2 0x11A SWAP2 SWAP1 PUSH2 0x1900 JUMP JUMPDEST PUSH2 0x345 JUMP JUMPDEST PUSH1 0x40 MLOAD PUSH2 0x12C SWAP2 SWAP1 PUSH2 0x1948 JUMP JUMPDEST PUSH1 0x40 MLOAD DUP1 SWAP2 SUB SWAP1 RETURN JUMPDEST PUSH2 0x13D PUSH2 0x427 JUMP JUMPDEST PUSH1 0x40 MLOAD PUSH2 0x14A SWAP2 SWAP1 PUSH2 0x19FC JUMP JUMPDEST PUSH1 0x40 MLOAD DUP1 SWAP2 SUB SWAP1 RETURN JUMPDEST PUSH2 0x16D PUSH1 0x4 DUP1 CALLDATASIZE SUB DUP2 ADD SWAP1 PUSH2 0x168 SWAP2 SWAP1 PUSH2 0x1A54 JUMP JUMPDEST PUSH2 0x4B9 JUMP JUMPDEST PUSH1 0x40 MLOAD PUSH2 0x17A SWAP2 SWAP1 PUSH2 0x1AC2 JUMP JUMPDEST PUSH1 0x40 MLOAD DUP1 SWAP2 SUB SWAP1 RETURN JUMPDEST PUSH2 0x19D PUSH1 0x4 DUP1 CALLDATASIZE SUB DUP2 ADD SWAP1 PUSH2 0x198 SWAP2 SWAP1 PUSH2 0x1B09 JUMP JUMPDEST PUSH2 0x535 JUMP JUMPDEST STOP JUMPDEST PUSH2 0x1A7 PUSH2 0x639 JUMP JUMPDEST PUSH1 0x40 MLOAD PUSH2 0x1B4 SWAP2 SWAP1 PUSH2 0x1B58 JUMP JUMPDEST PUSH1 0x40 MLOAD DUP1 SWAP2 SUB SWAP1 RETURN JUMPDEST PUSH2 0x1C5 PUSH2 0x650 JUMP JUMPDEST STOP JUMPDEST PUSH2 0x1E1 PUSH1 0x4 DUP1 CALLDATASIZE SUB DUP2 ADD SWAP1 PUSH2 0x1DC SWAP2 SWAP1 PUSH2 0x1B73 JUMP JUMPDEST PUSH2 0x693 JUMP JUMPDEST STOP JUMPDEST PUSH2 0x1FD PUSH1 0x4 DUP1 CALLDATASIZE SUB DUP2 ADD SWAP1 PUSH2 0x1F8 SWAP2 SWAP1 PUSH2 0x1BC6 JUMP JUMPDEST PUSH2 0x6A3 JUMP JUMPDEST PUSH1 0x40 MLOAD PUSH2 0x20A SWAP2 SWAP1 PUSH2 0x1B58 JUMP JUMPDEST PUSH1 0x40 MLOAD DUP1 SWAP2 SUB SWAP1 RETURN JUMPDEST PUSH2 0x22D PUSH1 0x4 DUP1 CALLDATASIZE SUB DUP2 ADD SWAP1 PUSH2 0x228 SWAP2 SWAP1 PUSH2 0x1B73 JUMP JUMPDEST PUSH2 0x79E JUMP JUMPDEST STOP JUMPDEST PUSH2 0x249 PUSH1 0x4 DUP1 CALLDATASIZE SUB DUP2 ADD SWAP1 PUSH2 0x244 SWAP2 SWAP1 PUSH2 0x1A54 JUMP JUMPDEST PUSH2 0x7BE JUMP JUMPDEST PUSH1 0x40 MLOAD PUSH2 0x256 SWAP2 SWAP1 PUSH2 0x1AC2 JUMP JUMPDEST PUSH1 0x40 MLOAD DUP1 SWAP2 SUB SWAP1 RETURN JUMPDEST PUSH2 0x279 PUSH1 0x4 DUP1 CALLDATASIZE SUB DUP2 ADD SWAP1 PUSH2 0x274 SWAP2 SWAP1 PUSH2 0x1BC6 JUMP JUMPDEST PUSH2 0x7D4 JUMP JUMPDEST PUSH1 0x40 MLOAD PUSH2 0x286 SWAP2 SWAP1 PUSH2 0x1B58 JUMP JUMPDEST PUSH1 0x40 MLOAD DUP1 SWAP2 SUB SWAP1 RETURN JUMPDEST PUSH2 0x297 PUSH2 0x8A3 JUMP JUMPDEST PUSH1 0x40 MLOAD PUSH2 0x2A4 SWAP2 SWAP1 PUSH2 0x19FC JUMP JUMPDEST PUSH1 0x40 MLOAD DUP1 SWAP2 SUB SWAP1 RETURN JUMPDEST PUSH2 0x2C7 PUSH1 0x4 DUP1 CALLDATASIZE SUB DUP2 ADD SWAP1 PUSH2 0x2C2 SWAP2 SWAP1 PUSH2 0x1C1F JUMP JUMPDEST PUSH2 0x935 JUMP JUMPDEST STOP JUMPDEST PUSH2 0x2E3 PUSH1 0x4 DUP1 CALLDATASIZE SUB DUP2 ADD SWAP1 PUSH2 0x2DE SWAP2 SWAP1 PUSH2 0x1D94 JUMP JUMPDEST PUSH2 0xAAC JUMP JUMPDEST STOP JUMPDEST PUSH2 0x2FF PUSH1 0x4 DUP1 CALLDATASIZE SUB DUP2 ADD SWAP1 PUSH2 0x2FA SWAP2 SWAP1 PUSH2 0x1A54 JUMP JUMPDEST PUSH2 0xB24 JUMP JUMPDEST PUSH1 0x40 MLOAD PUSH2 0x30C SWAP2 SWAP1 PUSH2 0x19FC JUMP JUMPDEST PUSH1 0x40 MLOAD DUP1 SWAP2 SUB SWAP1 RETURN JUMPDEST PUSH2 0x32F PUSH1 0x4 DUP1 CALLDATASIZE SUB DUP2 ADD SWAP1 PUSH2 0x32A SWAP2 SWAP1 PUSH2 0x1E17 JUMP JUMPDEST PUSH2 0xBC2 JUMP JUMPDEST PUSH1 0x40 MLOAD PUSH2 0x33C SWAP2 SWAP1 PUSH2 0x1948 JUMP JUMPDEST PUSH1 0x40 MLOAD DUP1 SWAP2 SUB SWAP1 RETURN JUMPDEST PUSH1 0x0 PUSH32 0x80AC58CD00000000000000000000000000000000000000000000000000000000 PUSH28 0xFFFFFFFFFFFFFFFFFFFFFFFFFFFFFFFFFFFFFFFFFFFFFFFFFFFFFFFF NOT AND DUP3 PUSH28 0xFFFFFFFFFFFFFFFFFFFFFFFFFFFFFFFFFFFFFFFFFFFFFFFFFFFFFFFF NOT AND EQ DUP1 PUSH2 0x410 JUMPI POP PUSH32 0x5B5E139F00000000000000000000000000000000000000000000000000000000 PUSH28 0xFFFFFFFFFFFFFFFFFFFFFFFFFFFFFFFFFFFFFFFFFFFFFFFFFFFFFFFF NOT AND DUP3 PUSH28 0xFFFFFFFFFFFFFFFFFFFFFFFFFFFFFFFFFFFFFFFFFFFFFFFFFFFFFFFF NOT AND EQ JUMPDEST DUP1 PUSH2 0x420 JUMPI POP PUSH2 0x41F DUP3 PUSH2 0xC56 JUMP JUMPDEST JUMPDEST SWAP1 POP SWAP2 SWAP1 POP JUMP JUMPDEST PUSH1 0x60 PUSH1 0x2 DUP1 SLOAD PUSH2 0x436 SWAP1 PUSH2 0x1E86 JUMP JUMPDEST DUP1 PUSH1 0x1F ADD PUSH1 0x20 DUP1 SWAP2 DIV MUL PUSH1 0x20 ADD PUSH1 0x40 MLOAD SWAP1 DUP2 ADD PUSH1 0x40 MSTORE DUP1 SWAP3 SWAP2 SWAP1 DUP2 DUP2 MSTORE PUSH1 0x20 ADD DUP3 DUP1 SLOAD PUSH2 0x462 SWAP1 PUSH2 0x1E86 JUMP JUMPDEST DUP1 ISZERO PUSH2 0x4AF JUMPI DUP1 PUSH1 0x1F LT PUSH2 0x484 JUMPI PUSH2 0x100 DUP1 DUP4 SLOAD DIV MUL DUP4 MSTORE SWAP2 PUSH1 0x20 ADD SWAP2 PUSH2 0x4AF JUMP JUMPDEST DUP3 ADD SWAP2 SWAP1 PUSH1 0x0 MSTORE PUSH1 0x20 PUSH1 0x0 KECCAK256 SWAP1 JUMPDEST DUP2 SLOAD DUP2 MSTORE SWAP1 PUSH1 0x1 ADD SWAP1 PUSH1 0x20 ADD DUP1 DUP4 GT PUSH2 0x492 JUMPI DUP3 SWAP1 SUB PUSH1 0x1F AND DUP3 ADD SWAP2 JUMPDEST POP POP POP POP POP SWAP1 POP SWAP1 JUMP JUMPDEST PUSH1 0x0 PUSH2 0x4C4 DUP3 PUSH2 0xCC0 JUMP JUMPDEST PUSH2 0x4FA JUMPI PUSH1 0x40 MLOAD PUSH32 0xCF4700E400000000000000000000000000000000000000000000000000000000 DUP2 MSTORE PUSH1 0x4 ADD PUSH1 0x40 MLOAD DUP1 SWAP2 SUB SWAP1 REVERT JUMPDEST PUSH1 0x6 PUSH1 0x0 DUP4 DUP2 MSTORE PUSH1 0x20 ADD SWAP1 DUP2 MSTORE PUSH1 0x20 ADD PUSH1 0x0 KECCAK256 PUSH1 0x0 SWAP1 SLOAD SWAP1 PUSH2 0x100 EXP SWAP1 DIV PUSH20 0xFFFFFFFFFFFFFFFFFFFFFFFFFFFFFFFFFFFFFFFF AND SWAP1 POP SWAP2 SWAP1 POP JUMP JUMPDEST PUSH1 0x0 PUSH2 0x540 DUP3 PUSH2 0x7BE JUMP JUMPDEST SWAP1 POP DUP1 PUSH20 0xFFFFFFFFFFFFFFFFFFFFFFFFFFFFFFFFFFFFFFFF AND DUP4 PUSH20 0xFFFFFFFFFFFFFFFFFFFFFFFFFFFFFFFFFFFFFFFF AND SUB PUSH2 0x5A7 JUMPI PUSH1 0x40 MLOAD PUSH32 0x943F7B8C00000000000000000000000000000000000000000000000000000000 DUP2 MSTORE PUSH1 0x4 ADD PUSH1 0x40 MLOAD DUP1 SWAP2 SUB SWAP1 REVERT JUMPDEST DUP1 PUSH20 0xFFFFFFFFFFFFFFFFFFFFFFFFFFFFFFFFFFFFFFFF AND PUSH2 0x5C6 PUSH2 0xD0E JUMP JUMPDEST PUSH20 0xFFFFFFFFFFFFFFFFFFFFFFFFFFFFFFFFFFFFFFFF AND EQ PUSH2 0x629 JUMPI PUSH2 0x5F2 DUP2 PUSH2 0x5ED PUSH2 0xD0E JUMP JUMPDEST PUSH2 0xBC2 JUMP JUMPDEST PUSH2 0x628 JUMPI PUSH1 0x40 MLOAD PUSH32 0xCFB3B94200000000000000000000000000000000000000000000000000000000 DUP2 MSTORE PUSH1 0x4 ADD PUSH1 0x40 MLOAD DUP1 SWAP2 SUB SWAP1 REVERT JUMPDEST JUMPDEST PUSH2 0x634 DUP4 DUP4 DUP4 PUSH2 0xD16 JUMP JUMPDEST POP POP POP JUMP JUMPDEST PUSH1 0x0 PUSH2 0x643 PUSH2 0xDC8 JUMP JUMPDEST PUSH1 0x1 SLOAD PUSH1 0x0 SLOAD SUB SUB SWAP1 POP SWAP1 JUMP JUMPDEST CALLER PUSH1 0x9 PUSH1 0x0 PUSH2 0x100 EXP DUP2 SLOAD DUP2 PUSH20 0xFFFFFFFFFFFFFFFFFFFFFFFFFFFFFFFFFFFFFFFF MUL NOT AND SWAP1 DUP4 PUSH20 0xFFFFFFFFFFFFFFFFFFFFFFFFFFFFFFFFFFFFFFFF AND MUL OR SWAP1 SSTORE POP JUMP JUMPDEST PUSH2 0x69E DUP4 DUP4 DUP4 PUSH2 0xDD1 JUMP JUMPDEST POP POP POP JUMP JUMPDEST PUSH1 0x0 DUP1 PUSH2 0x70A PUSH1 0x8 PUSH1 0x0 DUP6 PUSH20 0xFFFFFFFFFFFFFFFFFFFFFFFFFFFFFFFFFFFFFFFF AND PUSH20 0xFFFFFFFFFFFFFFFFFFFFFFFFFFFFFFFFFFFFFFFF AND DUP2 MSTORE PUSH1 0x20 ADD SWAP1 DUP2 MSTORE PUSH1 0x20 ADD PUSH1 0x0 KECCAK256 PUSH1 0x0 PUSH1 0x1 DUP2 MSTORE PUSH1 0x20 ADD SWAP1 DUP2 MSTORE PUSH1 0x20 ADD PUSH1 0x0 KECCAK256 SLOAD NUMBER PUSH2 0x1285 SWAP1 SWAP2 SWAP1 PUSH4 0xFFFFFFFF AND JUMP JUMPDEST SWAP1 POP PUSH1 0x0 PUSH2 0x729 DUP3 PUSH2 0x71B DUP7 PUSH2 0x7D4 JUMP JUMPDEST PUSH2 0x129B SWAP1 SWAP2 SWAP1 PUSH4 0xFFFFFFFF AND JUMP JUMPDEST SWAP1 POP PUSH1 0x0 PUSH2 0x791 DUP3 PUSH1 0x8 PUSH1 0x0 DUP9 PUSH20 0xFFFFFFFFFFFFFFFFFFFFFFFFFFFFFFFFFFFFFFFF AND PUSH20 0xFFFFFFFFFFFFFFFFFFFFFFFFFFFFFFFFFFFFFFFF AND DUP2 MSTORE PUSH1 0x20 ADD SWAP1 DUP2 MSTORE PUSH1 0x20 ADD PUSH1 0x0 KECCAK256 PUSH1 0x0 PUSH1 0x2 DUP2 MSTORE PUSH1 0x20 ADD SWAP1 DUP2 MSTORE PUSH1 0x20 ADD PUSH1 0x0 KECCAK256 SLOAD PUSH2 0x12B1 SWAP1 SWAP2 SWAP1 PUSH4 0xFFFFFFFF AND JUMP JUMPDEST SWAP1 POP DUP1 SWAP4 POP POP POP POP SWAP2 SWAP1 POP JUMP JUMPDEST PUSH2 0x7B9 DUP4 DUP4 DUP4 PUSH1 0x40 MLOAD DUP1 PUSH1 0x20 ADD PUSH1 0x40 MSTORE DUP1 PUSH1 0x0 DUP2 MSTORE POP PUSH2 0xAAC JUMP JUMPDEST POP POP POP JUMP JUMPDEST PUSH1 0x0 PUSH2 0x7C9 DUP3 PUSH2 0x12C7 JUMP JUMPDEST PUSH1 0x0 ADD MLOAD SWAP1 POP SWAP2 SWAP1 POP JUMP JUMPDEST PUSH1 0x0 DUP1 PUSH20 0xFFFFFFFFFFFFFFFFFFFFFFFFFFFFFFFFFFFFFFFF AND DUP3 PUSH20 0xFFFFFFFFFFFFFFFFFFFFFFFFFFFFFFFFFFFFFFFF AND SUB PUSH2 0x83B JUMPI PUSH1 0x40 MLOAD PUSH32 0x8F4EB60400000000000000000000000000000000000000000000000000000000 DUP2 MSTORE PUSH1 0x4 ADD PUSH1 0x40 MLOAD DUP1 SWAP2 SUB SWAP1 REVERT JUMPDEST PUSH1 0x5 PUSH1 0x0 DUP4 PUSH20 0xFFFFFFFFFFFFFFFFFFFFFFFFFFFFFFFFFFFFFFFF AND PUSH20 0xFFFFFFFFFFFFFFFFFFFFFFFFFFFFFFFFFFFFFFFF AND DUP2 MSTORE PUSH1 0x20 ADD SWAP1 DUP2 MSTORE PUSH1 0x20 ADD PUSH1 0x0 KECCAK256 PUSH1 0x0 ADD PUSH1 0x0 SWAP1 SLOAD SWAP1 PUSH2 0x100 EXP SWAP1 DIV PUSH8 0xFFFFFFFFFFFFFFFF AND PUSH8 0xFFFFFFFFFFFFFFFF AND SWAP1 POP SWAP2 SWAP1 POP JUMP JUMPDEST PUSH1 0x60 PUSH1 0x3 DUP1 SLOAD PUSH2 0x8B2 SWAP1 PUSH2 0x1E86 JUMP JUMPDEST DUP1 PUSH1 0x1F ADD PUSH1 0x20 DUP1 SWAP2 DIV MUL PUSH1 0x20 ADD PUSH1 0x40 MLOAD SWAP1 DUP2 ADD PUSH1 0x40 MSTORE DUP1 SWAP3 SWAP2 SWAP1 DUP2 DUP2 MSTORE PUSH1 0x20 ADD DUP3 DUP1 SLOAD PUSH2 0x8DE SWAP1 PUSH2 0x1E86 JUMP JUMPDEST DUP1 ISZERO PUSH2 0x92B JUMPI DUP1 PUSH1 0x1F LT PUSH2 0x900 JUMPI PUSH2 0x100 DUP1 DUP4 SLOAD DIV MUL DUP4 MSTORE SWAP2 PUSH1 0x20 ADD SWAP2 PUSH2 0x92B JUMP JUMPDEST DUP3 ADD SWAP2 SWAP1 PUSH1 0x0 MSTORE PUSH1 0x20 PUSH1 0x0 KECCAK256 SWAP1 JUMPDEST DUP2 SLOAD DUP2 MSTORE SWAP1 PUSH1 0x1 ADD SWAP1 PUSH1 0x20 ADD DUP1 DUP4 GT PUSH2 0x90E JUMPI DUP3 SWAP1 SUB PUSH1 0x1F AND DUP3 ADD SWAP2 JUMPDEST POP POP POP POP POP SWAP1 POP SWAP1 JUMP JUMPDEST PUSH2 0x93D PUSH2 0xD0E JUMP JUMPDEST PUSH20 0xFFFFFFFFFFFFFFFFFFFFFFFFFFFFFFFFFFFFFFFF AND DUP3 PUSH20 0xFFFFFFFFFFFFFFFFFFFFFFFFFFFFFFFFFFFFFFFF AND SUB PUSH2 0x9A1 JUMPI PUSH1 0x40 MLOAD PUSH32 0xB06307DB00000000000000000000000000000000000000000000000000000000 DUP2 MSTORE PUSH1 0x4 ADD PUSH1 0x40 MLOAD DUP1 SWAP2 SUB SWAP1 REVERT JUMPDEST DUP1 PUSH1 0x7 PUSH1 0x0 PUSH2 0x9AE PUSH2 0xD0E JUMP JUMPDEST PUSH20 0xFFFFFFFFFFFFFFFFFFFFFFFFFFFFFFFFFFFFFFFF AND PUSH20 0xFFFFFFFFFFFFFFFFFFFFFFFFFFFFFFFFFFFFFFFF AND DUP2 MSTORE PUSH1 0x20 ADD SWAP1 DUP2 MSTORE PUSH1 0x20 ADD PUSH1 0x0 KECCAK256 PUSH1 0x0 DUP5 PUSH20 0xFFFFFFFFFFFFFFFFFFFFFFFFFFFFFFFFFFFFFFFF AND PUSH20 0xFFFFFFFFFFFFFFFFFFFFFFFFFFFFFFFFFFFFFFFF AND DUP2 MSTORE PUSH1 0x20 ADD SWAP1 DUP2 MSTORE PUSH1 0x20 ADD PUSH1 0x0 KECCAK256 PUSH1 0x0 PUSH2 0x100 EXP DUP2 SLOAD DUP2 PUSH1 0xFF MUL NOT AND SWAP1 DUP4 ISZERO ISZERO MUL OR SWAP1 SSTORE POP DUP2 PUSH20 0xFFFFFFFFFFFFFFFFFFFFFFFFFFFFFFFFFFFFFFFF AND PUSH2 0xA5B PUSH2 0xD0E JUMP JUMPDEST PUSH20 0xFFFFFFFFFFFFFFFFFFFFFFFFFFFFFFFFFFFFFFFF AND PUSH32 0x17307EAB39AB6107E8899845AD3D59BD9653F200F220920489CA2B5937696C31 DUP4 PUSH1 0x40 MLOAD PUSH2 0xAA0 SWAP2 SWAP1 PUSH2 0x1948 JUMP JUMPDEST PUSH1 0x40 MLOAD DUP1 SWAP2 SUB SWAP1 LOG3 POP POP JUMP JUMPDEST PUSH2 0xAB7 DUP5 DUP5 DUP5 PUSH2 0xDD1 JUMP JUMPDEST PUSH2 0xAD6 DUP4 PUSH20 0xFFFFFFFFFFFFFFFFFFFFFFFFFFFFFFFFFFFFFFFF AND PUSH2 0x1552 JUMP JUMPDEST ISZERO PUSH2 0xB1E JUMPI PUSH2 0xAE7 DUP5 DUP5 DUP5 DUP5 PUSH2 0x1575 JUMP JUMPDEST PUSH2 0xB1D JUMPI PUSH1 0x40 MLOAD PUSH32 0xD1A57ED600000000000000000000000000000000000000000000000000000000 DUP2 MSTORE PUSH1 0x4 ADD PUSH1 0x40 MLOAD DUP1 SWAP2 SUB SWAP1 REVERT JUMPDEST JUMPDEST POP POP POP POP JUMP JUMPDEST PUSH1 0x60 PUSH2 0xB2F DUP3 PUSH2 0xCC0 JUMP JUMPDEST PUSH2 0xB65 JUMPI PUSH1 0x40 MLOAD PUSH32 0xA14C4B5000000000000000000000000000000000000000000000000000000000 DUP2 MSTORE PUSH1 0x4 ADD PUSH1 0x40 MLOAD DUP1 SWAP2 SUB SWAP1 REVERT JUMPDEST PUSH1 0x0 PUSH2 0xB6F PUSH2 0x16C5 JUMP JUMPDEST SWAP1 POP PUSH1 0x0 DUP2 MLOAD SUB PUSH2 0xB8F JUMPI PUSH1 0x40 MLOAD DUP1 PUSH1 0x20 ADD PUSH1 0x40 MSTORE DUP1 PUSH1 0x0 DUP2 MSTORE POP PUSH2 0xBBA JUMP JUMPDEST DUP1 PUSH2 0xB99 DUP5 PUSH2 0x16E5 JUMP JUMPDEST PUSH1 0x40 MLOAD PUSH1 0x20 ADD PUSH2 0xBAA SWAP3 SWAP2 SWAP1 PUSH2 0x1EF3 JUMP JUMPDEST PUSH1 0x40 MLOAD PUSH1 0x20 DUP2 DUP4 SUB SUB DUP2 MSTORE SWAP1 PUSH1 0x40 MSTORE JUMPDEST SWAP2 POP POP SWAP2 SWAP1 POP JUMP JUMPDEST PUSH1 0x0 PUSH1 0x7 PUSH1 0x0 DUP5 PUSH20 0xFFFFFFFFFFFFFFFFFFFFFFFFFFFFFFFFFFFFFFFF AND PUSH20 0xFFFFFFFFFFFFFFFFFFFFFFFFFFFFFFFFFFFFFFFF AND DUP2 MSTORE PUSH1 0x20 ADD SWAP1 DUP2 MSTORE PUSH1 0x20 ADD PUSH1 0x0 KECCAK256 PUSH1 0x0 DUP4 PUSH20 0xFFFFFFFFFFFFFFFFFFFFFFFFFFFFFFFFFFFFFFFF AND PUSH20 0xFFFFFFFFFFFFFFFFFFFFFFFFFFFFFFFFFFFFFFFF AND DUP2 MSTORE PUSH1 0x20 ADD SWAP1 DUP2 MSTORE PUSH1 0x20 ADD PUSH1 0x0 KECCAK256 PUSH1 0x0 SWAP1 SLOAD SWAP1 PUSH2 0x100 EXP SWAP1 DIV PUSH1 0xFF AND SWAP1 POP SWAP3 SWAP2 POP POP JUMP JUMPDEST PUSH1 0x0 PUSH32 0x1FFC9A700000000000000000000000000000000000000000000000000000000 PUSH28 0xFFFFFFFFFFFFFFFFFFFFFFFFFFFFFFFFFFFFFFFFFFFFFFFFFFFFFFFF NOT AND DUP3 PUSH28 0xFFFFFFFFFFFFFFFFFFFFFFFFFFFFFFFFFFFFFFFFFFFFFFFFFFFFFFFF NOT AND EQ SWAP1 POP SWAP2 SWAP1 POP JUMP JUMPDEST PUSH1 0x0 DUP2 PUSH2 0xCCB PUSH2 0xDC8 JUMP JUMPDEST GT ISZERO DUP1 ISZERO PUSH2 0xCDA JUMPI POP PUSH1 0x0 SLOAD DUP3 LT JUMPDEST DUP1 ISZERO PUSH2 0xD07 JUMPI POP PUSH1 0x4 PUSH1 0x0 DUP4 DUP2 MSTORE PUSH1 0x20 ADD SWAP1 DUP2 MSTORE PUSH1 0x20 ADD PUSH1 0x0 KECCAK256 PUSH1 0x0 ADD PUSH1 0x1C SWAP1 SLOAD SWAP1 PUSH2 0x100 EXP SWAP1 DIV PUSH1 0xFF AND ISZERO JUMPDEST SWAP1 POP SWAP2 SWAP1 POP JUMP JUMPDEST PUSH1 0x0 CALLER SWAP1 POP SWAP1 JUMP JUMPDEST DUP3 PUSH1 0x6 PUSH1 0x0 DUP5 DUP2 MSTORE PUSH1 0x20 ADD SWAP1 DUP2 MSTORE PUSH1 0x20 ADD PUSH1 0x0 KECCAK256 PUSH1 0x0 PUSH2 0x100 EXP DUP2 SLOAD DUP2 PUSH20 0xFFFFFFFFFFFFFFFFFFFFFFFFFFFFFFFFFFFFFFFF MUL NOT AND SWAP1 DUP4 PUSH20 0xFFFFFFFFFFFFFFFFFFFFFFFFFFFFFFFFFFFFFFFF AND MUL OR SWAP1 SSTORE POP DUP2 DUP4 PUSH20 0xFFFFFFFFFFFFFFFFFFFFFFFFFFFFFFFFFFFFFFFF AND DUP3 PUSH20 0xFFFFFFFFFFFFFFFFFFFFFFFFFFFFFFFFFFFFFFFF AND PUSH32 0x8C5BE1E5EBEC7D5BD14F71427D1E84F3DD0314C0F7B2291E5B200AC8C7C3B925 PUSH1 0x40 MLOAD PUSH1 0x40 MLOAD DUP1 SWAP2 SUB SWAP1 LOG4 POP POP POP JUMP JUMPDEST PUSH1 0x0 PUSH1 0x1 SWAP1 POP SWAP1 JUMP JUMPDEST PUSH1 0x0 PUSH2 0xDDC DUP3 PUSH2 0x12C7 JUMP JUMPDEST SWAP1 POP DUP4 PUSH20 0xFFFFFFFFFFFFFFFFFFFFFFFFFFFFFFFFFFFFFFFF AND DUP2 PUSH1 0x0 ADD MLOAD PUSH20 0xFFFFFFFFFFFFFFFFFFFFFFFFFFFFFFFFFFFFFFFF AND EQ PUSH2 0xE47 JUMPI PUSH1 0x40 MLOAD PUSH32 0xA114810000000000000000000000000000000000000000000000000000000000 DUP2 MSTORE PUSH1 0x4 ADD PUSH1 0x40 MLOAD DUP1 SWAP2 SUB SWAP1 REVERT JUMPDEST PUSH1 0x0 DUP5 PUSH20 0xFFFFFFFFFFFFFFFFFFFFFFFFFFFFFFFFFFFFFFFF AND PUSH2 0xE68 PUSH2 0xD0E JUMP JUMPDEST PUSH20 0xFFFFFFFFFFFFFFFFFFFFFFFFFFFFFFFFFFFFFFFF AND EQ DUP1 PUSH2 0xE97 JUMPI POP PUSH2 0xE96 DUP6 PUSH2 0xE91 PUSH2 0xD0E JUMP JUMPDEST PUSH2 0xBC2 JUMP JUMPDEST JUMPDEST DUP1 PUSH2 0xEDC JUMPI POP PUSH2 0xEA5 PUSH2 0xD0E JUMP JUMPDEST PUSH20 0xFFFFFFFFFFFFFFFFFFFFFFFFFFFFFFFFFFFFFFFF AND PUSH2 0xEC4 DUP5 PUSH2 0x4B9 JUMP JUMPDEST PUSH20 0xFFFFFFFFFFFFFFFFFFFFFFFFFFFFFFFFFFFFFFFF AND EQ JUMPDEST SWAP1 POP DUP1 PUSH2 0xF15 JUMPI PUSH1 0x40 MLOAD PUSH32 0x59C896BE00000000000000000000000000000000000000000000000000000000 DUP2 MSTORE PUSH1 0x4 ADD PUSH1 0x40 MLOAD DUP1 SWAP2 SUB SWAP1 REVERT JUMPDEST PUSH1 0x0 PUSH20 0xFFFFFFFFFFFFFFFFFFFFFFFFFFFFFFFFFFFFFFFF AND DUP5 PUSH20 0xFFFFFFFFFFFFFFFFFFFFFFFFFFFFFFFFFFFFFFFF AND SUB PUSH2 0xF7B JUMPI PUSH1 0x40 MLOAD PUSH32 0xEA553B3400000000000000000000000000000000000000000000000000000000 DUP2 MSTORE PUSH1 0x4 ADD PUSH1 0x40 MLOAD DUP1 SWAP2 SUB SWAP1 REVERT JUMPDEST PUSH2 0xF88 DUP6 DUP6 DUP6 PUSH1 0x1 PUSH2 0x1845 JUMP JUMPDEST PUSH2 0xF94 PUSH1 0x0 DUP5 DUP8 PUSH2 0xD16 JUMP JUMPDEST PUSH1 0x1 PUSH1 0x5 PUSH1 0x0 DUP8 PUSH20 0xFFFFFFFFFFFFFFFFFFFFFFFFFFFFFFFFFFFFFFFF AND PUSH20 0xFFFFFFFFFFFFFFFFFFFFFFFFFFFFFFFFFFFFFFFF AND DUP2 MSTORE PUSH1 0x20 ADD SWAP1 DUP2 MSTORE PUSH1 0x20 ADD PUSH1 0x0 KECCAK256 PUSH1 0x0 ADD PUSH1 0x0 DUP3 DUP3 DUP3 SWAP1 SLOAD SWAP1 PUSH2 0x100 EXP SWAP1 DIV PUSH8 0xFFFFFFFFFFFFFFFF AND SUB SWAP3 POP PUSH2 0x100 EXP DUP2 SLOAD DUP2 PUSH8 0xFFFFFFFFFFFFFFFF MUL NOT AND SWAP1 DUP4 PUSH8 0xFFFFFFFFFFFFFFFF AND MUL OR SWAP1 SSTORE POP PUSH1 0x1 PUSH1 0x5 PUSH1 0x0 DUP7 PUSH20 0xFFFFFFFFFFFFFFFFFFFFFFFFFFFFFFFFFFFFFFFF AND PUSH20 0xFFFFFFFFFFFFFFFFFFFFFFFFFFFFFFFFFFFFFFFF AND DUP2 MSTORE PUSH1 0x20 ADD SWAP1 DUP2 MSTORE PUSH1 0x20 ADD PUSH1 0x0 KECCAK256 PUSH1 0x0 ADD PUSH1 0x0 DUP3 DUP3 DUP3 SWAP1 SLOAD SWAP1 PUSH2 0x100 EXP SWAP1 DIV PUSH8 0xFFFFFFFFFFFFFFFF AND ADD SWAP3 POP PUSH2 0x100 EXP DUP2 SLOAD DUP2 PUSH8 0xFFFFFFFFFFFFFFFF MUL NOT AND SWAP1 DUP4 PUSH8 0xFFFFFFFFFFFFFFFF AND MUL OR SWAP1 SSTORE POP PUSH1 0x0 PUSH1 0x4 PUSH1 0x0 DUP6 DUP2 MSTORE PUSH1 0x20 ADD SWAP1 DUP2 MSTORE PUSH1 0x20 ADD PUSH1 0x0 KECCAK256 SWAP1 POP DUP5 DUP2 PUSH1 0x0 ADD PUSH1 0x0 PUSH2 0x100 EXP DUP2 SLOAD DUP2 PUSH20 0xFFFFFFFFFFFFFFFFFFFFFFFFFFFFFFFFFFFFFFFF MUL NOT AND SWAP1 DUP4 PUSH20 0xFFFFFFFFFFFFFFFFFFFFFFFFFFFFFFFFFFFFFFFF AND MUL OR SWAP1 SSTORE POP TIMESTAMP DUP2 PUSH1 0x0 ADD PUSH1 0x14 PUSH2 0x100 EXP DUP2 SLOAD DUP2 PUSH8 0xFFFFFFFFFFFFFFFF MUL NOT AND SWAP1 DUP4 PUSH8 0xFFFFFFFFFFFFFFFF AND MUL OR SWAP1 SSTORE POP PUSH1 0x0 PUSH1 0x1 DUP6 ADD SWAP1 POP PUSH1 0x0 PUSH1 0x4 PUSH1 0x0 DUP4 DUP2 MSTORE PUSH1 0x20 ADD SWAP1 DUP2 MSTORE PUSH1 0x20 ADD PUSH1 0x0 KECCAK256 SWAP1 POP PUSH1 0x0 PUSH20 0xFFFFFFFFFFFFFFFFFFFFFFFFFFFFFFFFFFFFFFFF AND DUP2 PUSH1 0x0 ADD PUSH1 0x0 SWAP1 SLOAD SWAP1 PUSH2 0x100 EXP SWAP1 DIV PUSH20 0xFFFFFFFFFFFFFFFFFFFFFFFFFFFFFFFFFFFFFFFF AND PUSH20 0xFFFFFFFFFFFFFFFFFFFFFFFFFFFFFFFFFFFFFFFF AND SUB PUSH2 0x1213 JUMPI PUSH1 0x0 SLOAD DUP3 EQ PUSH2 0x1212 JUMPI DUP8 DUP2 PUSH1 0x0 ADD PUSH1 0x0 PUSH2 0x100 EXP DUP2 SLOAD DUP2 PUSH20 0xFFFFFFFFFFFFFFFFFFFFFFFFFFFFFFFFFFFFFFFF MUL NOT AND SWAP1 DUP4 PUSH20 0xFFFFFFFFFFFFFFFFFFFFFFFFFFFFFFFFFFFFFFFF AND MUL OR SWAP1 SSTORE POP DUP5 PUSH1 0x20 ADD MLOAD DUP2 PUSH1 0x0 ADD PUSH1 0x14 PUSH2 0x100 EXP DUP2 SLOAD DUP2 PUSH8 0xFFFFFFFFFFFFFFFF MUL NOT AND SWAP1 DUP4 PUSH8 0xFFFFFFFFFFFFFFFF AND MUL OR SWAP1 SSTORE POP JUMPDEST JUMPDEST POP POP POP DUP3 DUP5 PUSH20 0xFFFFFFFFFFFFFFFFFFFFFFFFFFFFFFFFFFFFFFFF AND DUP7 PUSH20 0xFFFFFFFFFFFFFFFFFFFFFFFFFFFFFFFFFFFFFFFF AND PUSH32 0xDDF252AD1BE2C89B69C2B068FC378DAA952BA7F163C4A11628F55A4DF523B3EF PUSH1 0x40 MLOAD PUSH1 0x40 MLOAD DUP1 SWAP2 SUB SWAP1 LOG4 PUSH2 0x127E DUP6 DUP6 DUP6 PUSH1 0x1 PUSH2 0x184B JUMP JUMPDEST POP POP POP POP POP JUMP JUMPDEST PUSH1 0x0 DUP2 DUP4 PUSH2 0x1293 SWAP2 SWAP1 PUSH2 0x1F46 JUMP JUMPDEST SWAP1 POP SWAP3 SWAP2 POP POP JUMP JUMPDEST PUSH1 0x0 DUP2 DUP4 PUSH2 0x12A9 SWAP2 SWAP1 PUSH2 0x1F7A JUMP JUMPDEST SWAP1 POP SWAP3 SWAP2 POP POP JUMP JUMPDEST PUSH1 0x0 DUP2 DUP4 PUSH2 0x12BF SWAP2 SWAP1 PUSH2 0x1FD4 JUMP JUMPDEST SWAP1 POP SWAP3 SWAP2 POP POP JUMP JUMPDEST PUSH2 0x12CF PUSH2 0x1851 JUMP JUMPDEST PUSH1 0x0 DUP3 SWAP1 POP DUP1 PUSH2 0x12DD PUSH2 0xDC8 JUMP JUMPDEST GT PUSH2 0x151B JUMPI PUSH1 0x0 SLOAD DUP2 LT ISZERO PUSH2 0x151A JUMPI PUSH1 0x0 PUSH1 0x4 PUSH1 0x0 DUP4 DUP2 MSTORE PUSH1 0x20 ADD SWAP1 DUP2 MSTORE PUSH1 0x20 ADD PUSH1 0x0 KECCAK256 PUSH1 0x40 MLOAD DUP1 PUSH1 0x60 ADD PUSH1 0x40 MSTORE SWAP1 DUP2 PUSH1 0x0 DUP3 ADD PUSH1 0x0 SWAP1 SLOAD SWAP1 PUSH2 0x100 EXP SWAP1 DIV PUSH20 0xFFFFFFFFFFFFFFFFFFFFFFFFFFFFFFFFFFFFFFFF AND PUSH20 0xFFFFFFFFFFFFFFFFFFFFFFFFFFFFFFFFFFFFFFFF AND PUSH20 0xFFFFFFFFFFFFFFFFFFFFFFFFFFFFFFFFFFFFFFFF AND DUP2 MSTORE PUSH1 0x20 ADD PUSH1 0x0 DUP3 ADD PUSH1 0x14 SWAP1 SLOAD SWAP1 PUSH2 0x100 EXP SWAP1 DIV PUSH8 0xFFFFFFFFFFFFFFFF AND PUSH8 0xFFFFFFFFFFFFFFFF AND PUSH8 0xFFFFFFFFFFFFFFFF AND DUP2 MSTORE PUSH1 0x20 ADD PUSH1 0x0 DUP3 ADD PUSH1 0x1C SWAP1 SLOAD SWAP1 PUSH2 0x100 EXP SWAP1 DIV PUSH1 0xFF AND ISZERO ISZERO ISZERO ISZERO DUP2 MSTORE POP POP SWAP1 POP DUP1 PUSH1 0x40 ADD MLOAD PUSH2 0x1518 JUMPI PUSH1 0x0 PUSH20 0xFFFFFFFFFFFFFFFFFFFFFFFFFFFFFFFFFFFFFFFF AND DUP2 PUSH1 0x0 ADD MLOAD PUSH20 0xFFFFFFFFFFFFFFFFFFFFFFFFFFFFFFFFFFFFFFFF AND EQ PUSH2 0x13FC JUMPI DUP1 SWAP3 POP POP POP PUSH2 0x154D JUMP JUMPDEST JUMPDEST PUSH1 0x1 ISZERO PUSH2 0x1517 JUMPI DUP2 DUP1 PUSH1 0x1 SWAP1 SUB SWAP3 POP POP PUSH1 0x4 PUSH1 0x0 DUP4 DUP2 MSTORE PUSH1 0x20 ADD SWAP1 DUP2 MSTORE PUSH1 0x20 ADD PUSH1 0x0 KECCAK256 PUSH1 0x40 MLOAD DUP1 PUSH1 0x60 ADD PUSH1 0x40 MSTORE SWAP1 DUP2 PUSH1 0x0 DUP3 ADD PUSH1 0x0 SWAP1 SLOAD SWAP1 PUSH2 0x100 EXP SWAP1 DIV PUSH20 0xFFFFFFFFFFFFFFFFFFFFFFFFFFFFFFFFFFFFFFFF AND PUSH20 0xFFFFFFFFFFFFFFFFFFFFFFFFFFFFFFFFFFFFFFFF AND PUSH20 0xFFFFFFFFFFFFFFFFFFFFFFFFFFFFFFFFFFFFFFFF AND DUP2 MSTORE PUSH1 0x20 ADD PUSH1 0x0 DUP3 ADD PUSH1 0x14 SWAP1 SLOAD SWAP1 PUSH2 0x100 EXP SWAP1 DIV PUSH8 0xFFFFFFFFFFFFFFFF AND PUSH8 0xFFFFFFFFFFFFFFFF AND PUSH8 0xFFFFFFFFFFFFFFFF AND DUP2 MSTORE PUSH1 0x20 ADD PUSH1 0x0 DUP3 ADD PUSH1 0x1C SWAP1 SLOAD SWAP1 PUSH2 0x100 EXP SWAP1 DIV PUSH1 0xFF AND ISZERO ISZERO ISZERO ISZERO DUP2 MSTORE POP POP SWAP1 POP PUSH1 0x0 PUSH20 0xFFFFFFFFFFFFFFFFFFFFFFFFFFFFFFFFFFFFFFFF AND DUP2 PUSH1 0x0 ADD MLOAD PUSH20 0xFFFFFFFFFFFFFFFFFFFFFFFFFFFFFFFFFFFFFFFF AND EQ PUSH2 0x1512 JUMPI DUP1 SWAP3 POP POP POP PUSH2 0x154D JUMP JUMPDEST PUSH2 0x13FD JUMP JUMPDEST JUMPDEST POP JUMPDEST JUMPDEST PUSH1 0x40 MLOAD PUSH32 0xDF2D9B4200000000000000000000000000000000000000000000000000000000 DUP2 MSTORE PUSH1 0x4 ADD PUSH1 0x40 MLOAD DUP1 SWAP2 SUB SWAP1 REVERT JUMPDEST SWAP2 SWAP1 POP JUMP JUMPDEST PUSH1 0x0 DUP1 DUP3 PUSH20 0xFFFFFFFFFFFFFFFFFFFFFFFFFFFFFFFFFFFFFFFF AND EXTCODESIZE GT SWAP1 POP SWAP2 SWAP1 POP JUMP JUMPDEST PUSH1 0x0 DUP4 PUSH20 0xFFFFFFFFFFFFFFFFFFFFFFFFFFFFFFFFFFFFFFFF AND PUSH4 0x150B7A02 PUSH2 0x159B PUSH2 0xD0E JUMP JUMPDEST DUP8 DUP7 DUP7 PUSH1 0x40 MLOAD DUP6 PUSH4 0xFFFFFFFF AND PUSH1 0xE0 SHL DUP2 MSTORE PUSH1 0x4 ADD PUSH2 0x15BD SWAP5 SWAP4 SWAP3 SWAP2 SWAP1 PUSH2 0x207F JUMP JUMPDEST PUSH1 0x20 PUSH1 0x40 MLOAD DUP1 DUP4 SUB DUP2 PUSH1 0x0 DUP8 GAS CALL SWAP3 POP POP POP DUP1 ISZERO PUSH2 0x15F9 JUMPI POP PUSH1 0x40 MLOAD RETURNDATASIZE PUSH1 0x1F NOT PUSH1 0x1F DUP3 ADD AND DUP3 ADD DUP1 PUSH1 0x40 MSTORE POP DUP2 ADD SWAP1 PUSH2 0x15F6 SWAP2 SWAP1 PUSH2 0x20E0 JUMP JUMPDEST PUSH1 0x1 JUMPDEST PUSH2 0x1672 JUMPI RETURNDATASIZE DUP1 PUSH1 0x0 DUP2 EQ PUSH2 0x1629 JUMPI PUSH1 0x40 MLOAD SWAP2 POP PUSH1 0x1F NOT PUSH1 0x3F RETURNDATASIZE ADD AND DUP3 ADD PUSH1 0x40 MSTORE RETURNDATASIZE DUP3 MSTORE RETURNDATASIZE PUSH1 0x0 PUSH1 0x20 DUP5 ADD RETURNDATACOPY PUSH2 0x162E JUMP JUMPDEST PUSH1 0x60 SWAP2 POP JUMPDEST POP PUSH1 0x0 DUP2 MLOAD SUB PUSH2 0x166A JUMPI PUSH1 0x40 MLOAD PUSH32 0xD1A57ED600000000000000000000000000000000000000000000000000000000 DUP2 MSTORE PUSH1 0x4 ADD PUSH1 0x40 MLOAD DUP1 SWAP2 SUB SWAP1 REVERT JUMPDEST DUP1 MLOAD DUP2 PUSH1 0x20 ADD REVERT JUMPDEST PUSH4 0x150B7A02 PUSH1 0xE0 SHL PUSH28 0xFFFFFFFFFFFFFFFFFFFFFFFFFFFFFFFFFFFFFFFFFFFFFFFFFFFFFFFF NOT AND DUP2 PUSH28 0xFFFFFFFFFFFFFFFFFFFFFFFFFFFFFFFFFFFFFFFFFFFFFFFFFFFFFFFF NOT AND EQ SWAP2 POP POP SWAP5 SWAP4 POP POP POP POP JUMP JUMPDEST PUSH1 0x60 PUSH1 0x40 MLOAD DUP1 PUSH1 0x80 ADD PUSH1 0x40 MSTORE DUP1 PUSH1 0x51 DUP2 MSTORE PUSH1 0x20 ADD PUSH2 0x2216 PUSH1 0x51 SWAP2 CODECOPY SWAP1 POP SWAP1 JUMP JUMPDEST PUSH1 0x60 PUSH1 0x0 DUP3 SUB PUSH2 0x172C JUMPI PUSH1 0x40 MLOAD DUP1 PUSH1 0x40 ADD PUSH1 0x40 MSTORE DUP1 PUSH1 0x1 DUP2 MSTORE PUSH1 0x20 ADD PUSH32 0x3000000000000000000000000000000000000000000000000000000000000000 DUP2 MSTORE POP SWAP1 POP PUSH2 0x1840 JUMP JUMPDEST PUSH1 0x0 DUP3 SWAP1 POP PUSH1 0x0 JUMPDEST PUSH1 0x0 DUP3 EQ PUSH2 0x175E JUMPI DUP1 DUP1 PUSH2 0x1747 SWAP1 PUSH2 0x210D JUMP JUMPDEST SWAP2 POP POP PUSH1 0xA DUP3 PUSH2 0x1757 SWAP2 SWAP1 PUSH2 0x2184 JUMP JUMPDEST SWAP2 POP PUSH2 0x1734 JUMP JUMPDEST PUSH1 0x0 DUP2 PUSH8 0xFFFFFFFFFFFFFFFF DUP2 GT ISZERO PUSH2 0x177A JUMPI PUSH2 0x1779 PUSH2 0x1C69 JUMP JUMPDEST JUMPDEST PUSH1 0x40 MLOAD SWAP1 DUP1 DUP3 MSTORE DUP1 PUSH1 0x1F ADD PUSH1 0x1F NOT AND PUSH1 0x20 ADD DUP3 ADD PUSH1 0x40 MSTORE DUP1 ISZERO PUSH2 0x17AC JUMPI DUP2 PUSH1 0x20 ADD PUSH1 0x1 DUP3 MUL DUP1 CALLDATASIZE DUP4 CALLDATACOPY DUP1 DUP3 ADD SWAP2 POP POP SWAP1 POP JUMPDEST POP SWAP1 POP JUMPDEST PUSH1 0x0 DUP6 EQ PUSH2 0x1839 JUMPI PUSH1 0x1 DUP3 PUSH2 0x17C5 SWAP2 SWAP1 PUSH2 0x1F46 JUMP JUMPDEST SWAP2 POP PUSH1 0xA DUP6 PUSH2 0x17D4 SWAP2 SWAP1 PUSH2 0x21B5 JUMP JUMPDEST PUSH1 0x30 PUSH2 0x17E0 SWAP2 SWAP1 PUSH2 0x1FD4 JUMP JUMPDEST PUSH1 0xF8 SHL DUP2 DUP4 DUP2 MLOAD DUP2 LT PUSH2 0x17F6 JUMPI PUSH2 0x17F5 PUSH2 0x21E6 JUMP JUMPDEST JUMPDEST PUSH1 0x20 ADD ADD SWAP1 PUSH31 0xFFFFFFFFFFFFFFFFFFFFFFFFFFFFFFFFFFFFFFFFFFFFFFFFFFFFFFFFFFFFFF NOT AND SWAP1 DUP2 PUSH1 0x0 BYTE SWAP1 MSTORE8 POP PUSH1 0xA DUP6 PUSH2 0x1832 SWAP2 SWAP1 PUSH2 0x2184 JUMP JUMPDEST SWAP5 POP PUSH2 0x17B0 JUMP JUMPDEST DUP1 SWAP4 POP POP POP POP JUMPDEST SWAP2 SWAP1 POP JUMP JUMPDEST POP POP POP POP JUMP JUMPDEST POP POP POP POP JUMP JUMPDEST PUSH1 0x40 MLOAD DUP1 PUSH1 0x60 ADD PUSH1 0x40 MSTORE DUP1 PUSH1 0x0 PUSH20 0xFFFFFFFFFFFFFFFFFFFFFFFFFFFFFFFFFFFFFFFF AND DUP2 MSTORE PUSH1 0x20 ADD PUSH1 0x0 PUSH8 0xFFFFFFFFFFFFFFFF AND DUP2 MSTORE PUSH1 0x20 ADD PUSH1 0x0 ISZERO ISZERO DUP2 MSTORE POP SWAP1 JUMP JUMPDEST PUSH1 0x0 PUSH1 0x40 MLOAD SWAP1 POP SWAP1 JUMP JUMPDEST PUSH1 0x0 DUP1 REVERT JUMPDEST PUSH1 0x0 DUP1 REVERT JUMPDEST PUSH1 0x0 PUSH32 0xFFFFFFFF00000000000000000000000000000000000000000000000000000000 DUP3 AND SWAP1 POP SWAP2 SWAP1 POP JUMP JUMPDEST PUSH2 0x18DD DUP2 PUSH2 0x18A8 JUMP JUMPDEST DUP2 EQ PUSH2 0x18E8 JUMPI PUSH1 0x0 DUP1 REVERT JUMPDEST POP JUMP JUMPDEST PUSH1 0x0 DUP2 CALLDATALOAD SWAP1 POP PUSH2 0x18FA DUP2 PUSH2 0x18D4 JUMP JUMPDEST SWAP3 SWAP2 POP POP JUMP JUMPDEST PUSH1 0x0 PUSH1 0x20 DUP3 DUP5 SUB SLT ISZERO PUSH2 0x1916 JUMPI PUSH2 0x1915 PUSH2 0x189E JUMP JUMPDEST JUMPDEST PUSH1 0x0 PUSH2 0x1924 DUP5 DUP3 DUP6 ADD PUSH2 0x18EB JUMP JUMPDEST SWAP2 POP POP SWAP3 SWAP2 POP POP JUMP JUMPDEST PUSH1 0x0 DUP2 ISZERO ISZERO SWAP1 POP SWAP2 SWAP1 POP JUMP JUMPDEST PUSH2 0x1942 DUP2 PUSH2 0x192D JUMP JUMPDEST DUP3 MSTORE POP POP JUMP JUMPDEST PUSH1 0x0 PUSH1 0x20 DUP3 ADD SWAP1 POP PUSH2 0x195D PUSH1 0x0 DUP4 ADD DUP5 PUSH2 0x1939 JUMP JUMPDEST SWAP3 SWAP2 POP POP JUMP JUMPDEST PUSH1 0x0 DUP2 MLOAD SWAP1 POP SWAP2 SWAP1 POP JUMP JUMPDEST PUSH1 0x0 DUP3 DUP3 MSTORE PUSH1 0x20 DUP3 ADD SWAP1 POP SWAP3 SWAP2 POP POP JUMP JUMPDEST PUSH1 0x0 JUMPDEST DUP4 DUP2 LT ISZERO PUSH2 0x199D JUMPI DUP1 DUP3 ADD MLOAD DUP2 DUP5 ADD MSTORE PUSH1 0x20 DUP2 ADD SWAP1 POP PUSH2 0x1982 JUMP JUMPDEST DUP4 DUP2 GT ISZERO PUSH2 0x19AC JUMPI PUSH1 0x0 DUP5 DUP5 ADD MSTORE JUMPDEST POP POP POP POP JUMP JUMPDEST PUSH1 0x0 PUSH1 0x1F NOT PUSH1 0x1F DUP4 ADD AND SWAP1 POP SWAP2 SWAP1 POP JUMP JUMPDEST PUSH1 0x0 PUSH2 0x19CE DUP3 PUSH2 0x1963 JUMP JUMPDEST PUSH2 0x19D8 DUP2 DUP6 PUSH2 0x196E JUMP JUMPDEST SWAP4 POP PUSH2 0x19E8 DUP2 DUP6 PUSH1 0x20 DUP7 ADD PUSH2 0x197F JUMP JUMPDEST PUSH2 0x19F1 DUP2 PUSH2 0x19B2 JUMP JUMPDEST DUP5 ADD SWAP2 POP POP SWAP3 SWAP2 POP POP JUMP JUMPDEST PUSH1 0x0 PUSH1 0x20 DUP3 ADD SWAP1 POP DUP2 DUP2 SUB PUSH1 0x0 DUP4 ADD MSTORE PUSH2 0x1A16 DUP2 DUP5 PUSH2 0x19C3 JUMP JUMPDEST SWAP1 POP SWAP3 SWAP2 POP POP JUMP JUMPDEST PUSH1 0x0 DUP2 SWAP1 POP SWAP2 SWAP1 POP JUMP JUMPDEST PUSH2 0x1A31 DUP2 PUSH2 0x1A1E JUMP JUMPDEST DUP2 EQ PUSH2 0x1A3C JUMPI PUSH1 0x0 DUP1 REVERT JUMPDEST POP JUMP JUMPDEST PUSH1 0x0 DUP2 CALLDATALOAD SWAP1 POP PUSH2 0x1A4E DUP2 PUSH2 0x1A28 JUMP JUMPDEST SWAP3 SWAP2 POP POP JUMP JUMPDEST PUSH1 0x0 PUSH1 0x20 DUP3 DUP5 SUB SLT ISZERO PUSH2 0x1A6A JUMPI PUSH2 0x1A69 PUSH2 0x189E JUMP JUMPDEST JUMPDEST PUSH1 0x0 PUSH2 0x1A78 DUP5 DUP3 DUP6 ADD PUSH2 0x1A3F JUMP JUMPDEST SWAP2 POP POP SWAP3 SWAP2 POP POP JUMP JUMPDEST PUSH1 0x0 PUSH20 0xFFFFFFFFFFFFFFFFFFFFFFFFFFFFFFFFFFFFFFFF DUP3 AND SWAP1 POP SWAP2 SWAP1 POP JUMP JUMPDEST PUSH1 0x0 PUSH2 0x1AAC DUP3 PUSH2 0x1A81 JUMP JUMPDEST SWAP1 POP SWAP2 SWAP1 POP JUMP JUMPDEST PUSH2 0x1ABC DUP2 PUSH2 0x1AA1 JUMP JUMPDEST DUP3 MSTORE POP POP JUMP JUMPDEST PUSH1 0x0 PUSH1 0x20 DUP3 ADD SWAP1 POP PUSH2 0x1AD7 PUSH1 0x0 DUP4 ADD DUP5 PUSH2 0x1AB3 JUMP JUMPDEST SWAP3 SWAP2 POP POP JUMP JUMPDEST PUSH2 0x1AE6 DUP2 PUSH2 0x1AA1 JUMP JUMPDEST DUP2 EQ PUSH2 0x1AF1 JUMPI PUSH1 0x0 DUP1 REVERT JUMPDEST POP JUMP JUMPDEST PUSH1 0x0 DUP2 CALLDATALOAD SWAP1 POP PUSH2 0x1B03 DUP2 PUSH2 0x1ADD JUMP JUMPDEST SWAP3 SWAP2 POP POP JUMP JUMPDEST PUSH1 0x0 DUP1 PUSH1 0x40 DUP4 DUP6 SUB SLT ISZERO PUSH2 0x1B20 JUMPI PUSH2 0x1B1F PUSH2 0x189E JUMP JUMPDEST JUMPDEST PUSH1 0x0 PUSH2 0x1B2E DUP6 DUP3 DUP7 ADD PUSH2 0x1AF4 JUMP JUMPDEST SWAP3 POP POP PUSH1 0x20 PUSH2 0x1B3F DUP6 DUP3 DUP7 ADD PUSH2 0x1A3F JUMP JUMPDEST SWAP2 POP POP SWAP3 POP SWAP3 SWAP1 POP JUMP JUMPDEST PUSH2 0x1B52 DUP2 PUSH2 0x1A1E JUMP JUMPDEST DUP3 MSTORE POP POP JUMP JUMPDEST PUSH1 0x0 PUSH1 0x20 DUP3 ADD SWAP1 POP PUSH2 0x1B6D PUSH1 0x0 DUP4 ADD DUP5 PUSH2 0x1B49 JUMP JUMPDEST SWAP3 SWAP2 POP POP JUMP JUMPDEST PUSH1 0x0 DUP1 PUSH1 0x0 PUSH1 0x60 DUP5 DUP7 SUB SLT ISZERO PUSH2 0x1B8C JUMPI PUSH2 0x1B8B PUSH2 0x189E JUMP JUMPDEST JUMPDEST PUSH1 0x0 PUSH2 0x1B9A DUP7 DUP3 DUP8 ADD PUSH2 0x1AF4 JUMP JUMPDEST SWAP4 POP POP PUSH1 0x20 PUSH2 0x1BAB DUP7 DUP3 DUP8 ADD PUSH2 0x1AF4 JUMP JUMPDEST SWAP3 POP POP PUSH1 0x40 PUSH2 0x1BBC DUP7 DUP3 DUP8 ADD PUSH2 0x1A3F JUMP JUMPDEST SWAP2 POP POP SWAP3 POP SWAP3 POP SWAP3 JUMP JUMPDEST PUSH1 0x0 PUSH1 0x20 DUP3 DUP5 SUB SLT ISZERO PUSH2 0x1BDC JUMPI PUSH2 0x1BDB PUSH2 0x189E JUMP JUMPDEST JUMPDEST PUSH1 0x0 PUSH2 0x1BEA DUP5 DUP3 DUP6 ADD PUSH2 0x1AF4 JUMP JUMPDEST SWAP2 POP POP SWAP3 SWAP2 POP POP JUMP JUMPDEST PUSH2 0x1BFC DUP2 PUSH2 0x192D JUMP JUMPDEST DUP2 EQ PUSH2 0x1C07 JUMPI PUSH1 0x0 DUP1 REVERT JUMPDEST POP JUMP JUMPDEST PUSH1 0x0 DUP2 CALLDATALOAD SWAP1 POP PUSH2 0x1C19 DUP2 PUSH2 0x1BF3 JUMP JUMPDEST SWAP3 SWAP2 POP POP JUMP JUMPDEST PUSH1 0x0 DUP1 PUSH1 0x40 DUP4 DUP6 SUB SLT ISZERO PUSH2 0x1C36 JUMPI PUSH2 0x1C35 PUSH2 0x189E JUMP JUMPDEST JUMPDEST PUSH1 0x0 PUSH2 0x1C44 DUP6 DUP3 DUP7 ADD PUSH2 0x1AF4 JUMP JUMPDEST SWAP3 POP POP PUSH1 0x20 PUSH2 0x1C55 DUP6 DUP3 DUP7 ADD PUSH2 0x1C0A JUMP JUMPDEST SWAP2 POP POP SWAP3 POP SWAP3 SWAP1 POP JUMP JUMPDEST PUSH1 0x0 DUP1 REVERT JUMPDEST PUSH1 0x0 DUP1 REVERT JUMPDEST PUSH32 0x4E487B7100000000000000000000000000000000000000000000000000000000 PUSH1 0x0 MSTORE PUSH1 0x41 PUSH1 0x4 MSTORE PUSH1 0x24 PUSH1 0x0 REVERT JUMPDEST PUSH2 0x1CA1 DUP3 PUSH2 0x19B2 JUMP JUMPDEST DUP2 ADD DUP2 DUP2 LT PUSH8 0xFFFFFFFFFFFFFFFF DUP3 GT OR ISZERO PUSH2 0x1CC0 JUMPI PUSH2 0x1CBF PUSH2 0x1C69 JUMP JUMPDEST JUMPDEST DUP1 PUSH1 0x40 MSTORE POP POP POP JUMP JUMPDEST PUSH1 0x0 PUSH2 0x1CD3 PUSH2 0x1894 JUMP JUMPDEST SWAP1 POP PUSH2 0x1CDF DUP3 DUP3 PUSH2 0x1C98 JUMP JUMPDEST SWAP2 SWAP1 POP JUMP JUMPDEST PUSH1 0x0 PUSH8 0xFFFFFFFFFFFFFFFF DUP3 GT ISZERO PUSH2 0x1CFF JUMPI PUSH2 0x1CFE PUSH2 0x1C69 JUMP JUMPDEST JUMPDEST PUSH2 0x1D08 DUP3 PUSH2 0x19B2 JUMP JUMPDEST SWAP1 POP PUSH1 0x20 DUP2 ADD SWAP1 POP SWAP2 SWAP1 POP JUMP JUMPDEST DUP3 DUP2 DUP4 CALLDATACOPY PUSH1 0x0 DUP4 DUP4 ADD MSTORE POP POP POP JUMP JUMPDEST PUSH1 0x0 PUSH2 0x1D37 PUSH2 0x1D32 DUP5 PUSH2 0x1CE4 JUMP JUMPDEST PUSH2 0x1CC9 JUMP JUMPDEST SWAP1 POP DUP3 DUP2 MSTORE PUSH1 0x20 DUP2 ADD DUP5 DUP5 DUP5 ADD GT ISZERO PUSH2 0x1D53 JUMPI PUSH2 0x1D52 PUSH2 0x1C64 JUMP JUMPDEST JUMPDEST PUSH2 0x1D5E DUP5 DUP3 DUP6 PUSH2 0x1D15 JUMP JUMPDEST POP SWAP4 SWAP3 POP POP POP JUMP JUMPDEST PUSH1 0x0 DUP3 PUSH1 0x1F DUP4 ADD SLT PUSH2 0x1D7B JUMPI PUSH2 0x1D7A PUSH2 0x1C5F JUMP JUMPDEST JUMPDEST DUP2 CALLDATALOAD PUSH2 0x1D8B DUP5 DUP3 PUSH1 0x20 DUP7 ADD PUSH2 0x1D24 JUMP JUMPDEST SWAP2 POP POP SWAP3 SWAP2 POP POP JUMP JUMPDEST PUSH1 0x0 DUP1 PUSH1 0x0 DUP1 PUSH1 0x80 DUP6 DUP8 SUB SLT ISZERO PUSH2 0x1DAE JUMPI PUSH2 0x1DAD PUSH2 0x189E JUMP JUMPDEST JUMPDEST PUSH1 0x0 PUSH2 0x1DBC DUP8 DUP3 DUP9 ADD PUSH2 0x1AF4 JUMP JUMPDEST SWAP5 POP POP PUSH1 0x20 PUSH2 0x1DCD DUP8 DUP3 DUP9 ADD PUSH2 0x1AF4 JUMP JUMPDEST SWAP4 POP POP PUSH1 0x40 PUSH2 0x1DDE DUP8 DUP3 DUP9 ADD PUSH2 0x1A3F JUMP JUMPDEST SWAP3 POP POP PUSH1 0x60 DUP6 ADD CALLDATALOAD PUSH8 0xFFFFFFFFFFFFFFFF DUP2 GT ISZERO PUSH2 0x1DFF JUMPI PUSH2 0x1DFE PUSH2 0x18A3 JUMP JUMPDEST JUMPDEST PUSH2 0x1E0B DUP8 DUP3 DUP9 ADD PUSH2 0x1D66 JUMP JUMPDEST SWAP2 POP POP SWAP3 SWAP6 SWAP2 SWAP5 POP SWAP3 POP JUMP JUMPDEST PUSH1 0x0 DUP1 PUSH1 0x40 DUP4 DUP6 SUB SLT ISZERO PUSH2 0x1E2E JUMPI PUSH2 0x1E2D PUSH2 0x189E JUMP JUMPDEST JUMPDEST PUSH1 0x0 PUSH2 0x1E3C DUP6 DUP3 DUP7 ADD PUSH2 0x1AF4 JUMP JUMPDEST SWAP3 POP POP PUSH1 0x20 PUSH2 0x1E4D DUP6 DUP3 DUP7 ADD PUSH2 0x1AF4 JUMP JUMPDEST SWAP2 POP POP SWAP3 POP SWAP3 SWAP1 POP JUMP JUMPDEST PUSH32 0x4E487B7100000000000000000000000000000000000000000000000000000000 PUSH1 0x0 MSTORE PUSH1 0x22 PUSH1 0x4 MSTORE PUSH1 0x24 PUSH1 0x0 REVERT JUMPDEST PUSH1 0x0 PUSH1 0x2 DUP3 DIV SWAP1 POP PUSH1 0x1 DUP3 AND DUP1 PUSH2 0x1E9E JUMPI PUSH1 0x7F DUP3 AND SWAP2 POP JUMPDEST PUSH1 0x20 DUP3 LT DUP2 SUB PUSH2 0x1EB1 JUMPI PUSH2 0x1EB0 PUSH2 0x1E57 JUMP JUMPDEST JUMPDEST POP SWAP2 SWAP1 POP JUMP JUMPDEST PUSH1 0x0 DUP2 SWAP1 POP SWAP3 SWAP2 POP POP JUMP JUMPDEST PUSH1 0x0 PUSH2 0x1ECD DUP3 PUSH2 0x1963 JUMP JUMPDEST PUSH2 0x1ED7 DUP2 DUP6 PUSH2 0x1EB7 JUMP JUMPDEST SWAP4 POP PUSH2 0x1EE7 DUP2 DUP6 PUSH1 0x20 DUP7 ADD PUSH2 0x197F JUMP JUMPDEST DUP1 DUP5 ADD SWAP2 POP POP SWAP3 SWAP2 POP POP JUMP JUMPDEST PUSH1 0x0 PUSH2 0x1EFF DUP3 DUP6 PUSH2 0x1EC2 JUMP JUMPDEST SWAP2 POP PUSH2 0x1F0B DUP3 DUP5 PUSH2 0x1EC2 JUMP JUMPDEST SWAP2 POP DUP2 SWAP1 POP SWAP4 SWAP3 POP POP POP JUMP JUMPDEST PUSH32 0x4E487B7100000000000000000000000000000000000000000000000000000000 PUSH1 0x0 MSTORE PUSH1 0x11 PUSH1 0x4 MSTORE PUSH1 0x24 PUSH1 0x0 REVERT JUMPDEST PUSH1 0x0 PUSH2 0x1F51 DUP3 PUSH2 0x1A1E JUMP JUMPDEST SWAP2 POP PUSH2 0x1F5C DUP4 PUSH2 0x1A1E JUMP JUMPDEST SWAP3 POP DUP3 DUP3 LT ISZERO PUSH2 0x1F6F JUMPI PUSH2 0x1F6E PUSH2 0x1F17 JUMP JUMPDEST JUMPDEST DUP3 DUP3 SUB SWAP1 POP SWAP3 SWAP2 POP POP JUMP JUMPDEST PUSH1 0x0 PUSH2 0x1F85 DUP3 PUSH2 0x1A1E JUMP JUMPDEST SWAP2 POP PUSH2 0x1F90 DUP4 PUSH2 0x1A1E JUMP JUMPDEST SWAP3 POP DUP2 PUSH32 0xFFFFFFFFFFFFFFFFFFFFFFFFFFFFFFFFFFFFFFFFFFFFFFFFFFFFFFFFFFFFFFFF DIV DUP4 GT DUP3 ISZERO ISZERO AND ISZERO PUSH2 0x1FC9 JUMPI PUSH2 0x1FC8 PUSH2 0x1F17 JUMP JUMPDEST JUMPDEST DUP3 DUP3 MUL SWAP1 POP SWAP3 SWAP2 POP POP JUMP JUMPDEST PUSH1 0x0 PUSH2 0x1FDF DUP3 PUSH2 0x1A1E JUMP JUMPDEST SWAP2 POP PUSH2 0x1FEA DUP4 PUSH2 0x1A1E JUMP JUMPDEST SWAP3 POP DUP3 PUSH32 0xFFFFFFFFFFFFFFFFFFFFFFFFFFFFFFFFFFFFFFFFFFFFFFFFFFFFFFFFFFFFFFFF SUB DUP3 GT ISZERO PUSH2 0x201F JUMPI PUSH2 0x201E PUSH2 0x1F17 JUMP JUMPDEST JUMPDEST DUP3 DUP3 ADD SWAP1 POP SWAP3 SWAP2 POP POP JUMP JUMPDEST PUSH1 0x0 DUP2 MLOAD SWAP1 POP SWAP2 SWAP1 POP JUMP JUMPDEST PUSH1 0x0 DUP3 DUP3 MSTORE PUSH1 0x20 DUP3 ADD SWAP1 POP SWAP3 SWAP2 POP POP JUMP JUMPDEST PUSH1 0x0 PUSH2 0x2051 DUP3 PUSH2 0x202A JUMP JUMPDEST PUSH2 0x205B DUP2 DUP6 PUSH2 0x2035 JUMP JUMPDEST SWAP4 POP PUSH2 0x206B DUP2 DUP6 PUSH1 0x20 DUP7 ADD PUSH2 0x197F JUMP JUMPDEST PUSH2 0x2074 DUP2 PUSH2 0x19B2 JUMP JUMPDEST DUP5 ADD SWAP2 POP POP SWAP3 SWAP2 POP POP JUMP JUMPDEST PUSH1 0x0 PUSH1 0x80 DUP3 ADD SWAP1 POP PUSH2 0x2094 PUSH1 0x0 DUP4 ADD DUP8 PUSH2 0x1AB3 JUMP JUMPDEST PUSH2 0x20A1 PUSH1 0x20 DUP4 ADD DUP7 PUSH2 0x1AB3 JUMP JUMPDEST PUSH2 0x20AE PUSH1 0x40 DUP4 ADD DUP6 PUSH2 0x1B49 JUMP JUMPDEST DUP2 DUP2 SUB PUSH1 0x60 DUP4 ADD MSTORE PUSH2 0x20C0 DUP2 DUP5 PUSH2 0x2046 JUMP JUMPDEST SWAP1 POP SWAP6 SWAP5 POP POP POP POP POP JUMP JUMPDEST PUSH1 0x0 DUP2 MLOAD SWAP1 POP PUSH2 0x20DA DUP2 PUSH2 0x18D4 JUMP JUMPDEST SWAP3 SWAP2 POP POP JUMP JUMPDEST PUSH1 0x0 PUSH1 0x20 DUP3 DUP5 SUB SLT ISZERO PUSH2 0x20F6 JUMPI PUSH2 0x20F5 PUSH2 0x189E JUMP JUMPDEST JUMPDEST PUSH1 0x0 PUSH2 0x2104 DUP5 DUP3 DUP6 ADD PUSH2 0x20CB JUMP JUMPDEST SWAP2 POP POP SWAP3 SWAP2 POP POP JUMP JUMPDEST PUSH1 0x0 PUSH2 0x2118 DUP3 PUSH2 0x1A1E JUMP JUMPDEST SWAP2 POP PUSH32 0xFFFFFFFFFFFFFFFFFFFFFFFFFFFFFFFFFFFFFFFFFFFFFFFFFFFFFFFFFFFFFFFF DUP3 SUB PUSH2 0x214A JUMPI PUSH2 0x2149 PUSH2 0x1F17 JUMP JUMPDEST JUMPDEST PUSH1 0x1 DUP3 ADD SWAP1 POP SWAP2 SWAP1 POP JUMP JUMPDEST PUSH32 0x4E487B7100000000000000000000000000000000000000000000000000000000 PUSH1 0x0 MSTORE PUSH1 0x12 PUSH1 0x4 MSTORE PUSH1 0x24 PUSH1 0x0 REVERT JUMPDEST PUSH1 0x0 PUSH2 0x218F DUP3 PUSH2 0x1A1E JUMP JUMPDEST SWAP2 POP PUSH2 0x219A DUP4 PUSH2 0x1A1E JUMP JUMPDEST SWAP3 POP DUP3 PUSH2 0x21AA JUMPI PUSH2 0x21A9 PUSH2 0x2155 JUMP JUMPDEST JUMPDEST DUP3 DUP3 DIV SWAP1 POP SWAP3 SWAP2 POP POP JUMP JUMPDEST PUSH1 0x0 PUSH2 0x21C0 DUP3 PUSH2 0x1A1E JUMP JUMPDEST SWAP2 POP PUSH2 0x21CB DUP4 PUSH2 0x1A1E JUMP JUMPDEST SWAP3 POP DUP3 PUSH2 0x21DB JUMPI PUSH2 0x21DA PUSH2 0x2155 JUMP JUMPDEST JUMPDEST DUP3 DUP3 MOD SWAP1 POP SWAP3 SWAP2 POP POP JUMP JUMPDEST PUSH32 0x4E487B7100000000000000000000000000000000000000000000000000000000 PUSH1 0x0 MSTORE PUSH1 0x32 PUSH1 0x4 MSTORE PUSH1 0x24 PUSH1 0x0 REVERT INVALID PUSH9 0x747470733A2F2F6761 PUSH21 0x657761792E70696E6174612E636C6F75642F697066 PUSH20 0x2F516D6648576B7454625354424E4C7777385A44 PUSH9 0x32716335444B71695A PUSH4 0x696B6E6F PUSH18 0x37365A665872736F5231762FA26469706673 PC 0x22 SLT KECCAK256 PUSH20 0x6A5657DC98CED9A75DF927C3E4C88223C06CE2AA 0xC1 PUSH32 0x61795C3CCC4D4D8C5464736F6C634300080D0033000000000000000000000000 "
				},
				"gasEstimates": {
					"creation": {
						"codeDepositCost": "1772000",
						"executionCost": "infinite",
						"totalCost": "infinite"
					},
					"external": {
						"BlockScore(address)": "infinite",
						"CountBlockScore()": "24455",
						"approve(address,uint256)": "infinite",
						"balanceOf(address)": "2991",
						"getApproved(uint256)": "7466",
						"isApprovedForAll(address,address)": "infinite",
						"name()": "infinite",
						"ownerOf(uint256)": "infinite",
						"safeTransferFrom(address,address,uint256)": "infinite",
						"safeTransferFrom(address,address,uint256,bytes)": "infinite",
						"setApprovalForAll(address,bool)": "infinite",
						"supportsInterface(bytes4)": "797",
						"symbol()": "infinite",
						"tokenURI(uint256)": "infinite",
						"totalSupply()": "4607",
						"transferFrom(address,address,uint256)": "infinite"
					},
					"internal": {
						"_afterTokenTransfers(address,address,uint256,uint256)": "17",
						"_approve(address,uint256,address)": "26292",
						"_baseURI()": "infinite",
						"_beforeTokenTransfers(address,address,uint256,uint256)": "17",
						"_burn(uint256)": "infinite",
						"_burn(uint256,bool)": "infinite",
						"_checkContractOnERC721Received(address,address,uint256,bytes memory)": "infinite",
						"_exists(uint256)": "4507",
						"_getAux(address)": "infinite",
						"_mint(address,uint256)": "infinite",
						"_numberBurned(address)": "infinite",
						"_numberMinted(address)": "infinite",
						"_ownershipOf(uint256)": "infinite",
						"_safeMint(address,uint256)": "infinite",
						"_safeMint(address,uint256,bytes memory)": "infinite",
						"_setAux(address,uint64)": "infinite",
						"_startTokenId()": "23",
						"_totalMinted()": "infinite",
						"_transfer(address,address,uint256)": "infinite"
					}
				},
				"methodIdentifiers": {
					"BlockScore(address)": "325b272a",
					"CountBlockScore()": "1e96c3ee",
					"approve(address,uint256)": "095ea7b3",
					"balanceOf(address)": "70a08231",
					"getApproved(uint256)": "081812fc",
					"isApprovedForAll(address,address)": "e985e9c5",
					"name()": "06fdde03",
					"ownerOf(uint256)": "6352211e",
					"safeTransferFrom(address,address,uint256)": "42842e0e",
					"safeTransferFrom(address,address,uint256,bytes)": "b88d4fde",
					"setApprovalForAll(address,bool)": "a22cb465",
					"supportsInterface(bytes4)": "01ffc9a7",
					"symbol()": "95d89b41",
					"tokenURI(uint256)": "c87b56dd",
					"totalSupply()": "18160ddd",
					"transferFrom(address,address,uint256)": "23b872dd"
				}
			},
			"storageLayout": {
				"storage": [
					{
						"astId": 1058,
						"contract": "ERC721A/ERC721A.sol:ERC721A",
						"label": "_currentIndex",
						"offset": 0,
						"slot": "0",
						"type": "t_uint256"
					},
					{
						"astId": 1060,
						"contract": "ERC721A/ERC721A.sol:ERC721A",
						"label": "_burnCounter",
						"offset": 0,
						"slot": "1",
						"type": "t_uint256"
					},
					{
						"astId": 1062,
						"contract": "ERC721A/ERC721A.sol:ERC721A",
						"label": "_name",
						"offset": 0,
						"slot": "2",
						"type": "t_string_storage"
					},
					{
						"astId": 1064,
						"contract": "ERC721A/ERC721A.sol:ERC721A",
						"label": "_symbol",
						"offset": 0,
						"slot": "3",
						"type": "t_string_storage"
					},
					{
						"astId": 1069,
						"contract": "ERC721A/ERC721A.sol:ERC721A",
						"label": "_ownerships",
						"offset": 0,
						"slot": "4",
						"type": "t_mapping(t_uint256,t_struct(TokenOwnership)2538_storage)"
					},
					{
						"astId": 1074,
						"contract": "ERC721A/ERC721A.sol:ERC721A",
						"label": "_addressData",
						"offset": 0,
						"slot": "5",
						"type": "t_mapping(t_address,t_struct(AddressData)2547_storage)"
					},
					{
						"astId": 1078,
						"contract": "ERC721A/ERC721A.sol:ERC721A",
						"label": "_tokenApprovals",
						"offset": 0,
						"slot": "6",
						"type": "t_mapping(t_uint256,t_address)"
					},
					{
						"astId": 1084,
						"contract": "ERC721A/ERC721A.sol:ERC721A",
						"label": "_operatorApprovals",
						"offset": 0,
						"slot": "7",
						"type": "t_mapping(t_address,t_mapping(t_address,t_bool))"
					},
					{
						"astId": 1091,
						"contract": "ERC721A/ERC721A.sol:ERC721A",
						"label": "_BlockScore",
						"offset": 0,
						"slot": "8",
						"type": "t_mapping(t_address,t_mapping(t_uint256,t_uint256))"
					},
					{
						"astId": 1114,
						"contract": "ERC721A/ERC721A.sol:ERC721A",
						"label": "a",
						"offset": 0,
						"slot": "9",
						"type": "t_address"
					}
				],
				"types": {
					"t_address": {
						"encoding": "inplace",
						"label": "address",
						"numberOfBytes": "20"
					},
					"t_bool": {
						"encoding": "inplace",
						"label": "bool",
						"numberOfBytes": "1"
					},
					"t_mapping(t_address,t_bool)": {
						"encoding": "mapping",
						"key": "t_address",
						"label": "mapping(address => bool)",
						"numberOfBytes": "32",
						"value": "t_bool"
					},
					"t_mapping(t_address,t_mapping(t_address,t_bool))": {
						"encoding": "mapping",
						"key": "t_address",
						"label": "mapping(address => mapping(address => bool))",
						"numberOfBytes": "32",
						"value": "t_mapping(t_address,t_bool)"
					},
					"t_mapping(t_address,t_mapping(t_uint256,t_uint256))": {
						"encoding": "mapping",
						"key": "t_address",
						"label": "mapping(address => mapping(uint256 => uint256))",
						"numberOfBytes": "32",
						"value": "t_mapping(t_uint256,t_uint256)"
					},
					"t_mapping(t_address,t_struct(AddressData)2547_storage)": {
						"encoding": "mapping",
						"key": "t_address",
						"label": "mapping(address => struct IERC721A.AddressData)",
						"numberOfBytes": "32",
						"value": "t_struct(AddressData)2547_storage"
					},
					"t_mapping(t_uint256,t_address)": {
						"encoding": "mapping",
						"key": "t_uint256",
						"label": "mapping(uint256 => address)",
						"numberOfBytes": "32",
						"value": "t_address"
					},
					"t_mapping(t_uint256,t_struct(TokenOwnership)2538_storage)": {
						"encoding": "mapping",
						"key": "t_uint256",
						"label": "mapping(uint256 => struct IERC721A.TokenOwnership)",
						"numberOfBytes": "32",
						"value": "t_struct(TokenOwnership)2538_storage"
					},
					"t_mapping(t_uint256,t_uint256)": {
						"encoding": "mapping",
						"key": "t_uint256",
						"label": "mapping(uint256 => uint256)",
						"numberOfBytes": "32",
						"value": "t_uint256"
					},
					"t_string_storage": {
						"encoding": "bytes",
						"label": "string",
						"numberOfBytes": "32"
					},
					"t_struct(AddressData)2547_storage": {
						"encoding": "inplace",
						"label": "struct IERC721A.AddressData",
						"members": [
							{
								"astId": 2540,
								"contract": "ERC721A/ERC721A.sol:ERC721A",
								"label": "balance",
								"offset": 0,
								"slot": "0",
								"type": "t_uint64"
							},
							{
								"astId": 2542,
								"contract": "ERC721A/ERC721A.sol:ERC721A",
								"label": "numberMinted",
								"offset": 8,
								"slot": "0",
								"type": "t_uint64"
							},
							{
								"astId": 2544,
								"contract": "ERC721A/ERC721A.sol:ERC721A",
								"label": "numberBurned",
								"offset": 16,
								"slot": "0",
								"type": "t_uint64"
							},
							{
								"astId": 2546,
								"contract": "ERC721A/ERC721A.sol:ERC721A",
								"label": "aux",
								"offset": 24,
								"slot": "0",
								"type": "t_uint64"
							}
						],
						"numberOfBytes": "32"
					},
					"t_struct(TokenOwnership)2538_storage": {
						"encoding": "inplace",
						"label": "struct IERC721A.TokenOwnership",
						"members": [
							{
								"astId": 2533,
								"contract": "ERC721A/ERC721A.sol:ERC721A",
								"label": "addr",
								"offset": 0,
								"slot": "0",
								"type": "t_address"
							},
							{
								"astId": 2535,
								"contract": "ERC721A/ERC721A.sol:ERC721A",
								"label": "startTimestamp",
								"offset": 20,
								"slot": "0",
								"type": "t_uint64"
							},
							{
								"astId": 2537,
								"contract": "ERC721A/ERC721A.sol:ERC721A",
								"label": "burned",
								"offset": 28,
								"slot": "0",
								"type": "t_bool"
							}
						],
						"numberOfBytes": "32"
					},
					"t_uint256": {
						"encoding": "inplace",
						"label": "uint256",
						"numberOfBytes": "32"
					},
					"t_uint64": {
						"encoding": "inplace",
						"label": "uint64",
						"numberOfBytes": "8"
					}
				}
			},
			"userdoc": {
				"errors": {
					"ApprovalCallerNotOwnerNorApproved()": [
						{
							"notice": "The caller must own the token or be an approved operator."
						}
					],
					"ApprovalQueryForNonexistentToken()": [
						{
							"notice": "The token does not exist."
						}
					],
					"ApprovalToCurrentOwner()": [
						{
							"notice": "The caller cannot approve to the current owner."
						}
					],
					"ApproveToCaller()": [
						{
							"notice": "The caller cannot approve to their own address."
						}
					],
					"BalanceQueryForZeroAddress()": [
						{
							"notice": "Cannot query the balance for the zero address."
						}
					],
					"MintToZeroAddress()": [
						{
							"notice": "Cannot mint to the zero address."
						}
					],
					"MintZeroQuantity()": [
						{
							"notice": "The quantity of tokens minted must be more than zero."
						}
					],
					"OwnerQueryForNonexistentToken()": [
						{
							"notice": "The token does not exist."
						}
					],
					"TransferCallerNotOwnerNorApproved()": [
						{
							"notice": "The caller must own the token or be an approved operator."
						}
					],
					"TransferFromIncorrectOwner()": [
						{
							"notice": "The token must be owned by `from`."
						}
					],
					"TransferToNonERC721ReceiverImplementer()": [
						{
							"notice": "Cannot safely transfer to a contract that does not implement the ERC721Receiver interface."
						}
					],
					"TransferToZeroAddress()": [
						{
							"notice": "Cannot transfer to the zero address."
						}
					],
					"URIQueryForNonexistentToken()": [
						{
							"notice": "The token does not exist."
						}
					]
				},
				"kind": "user",
				"methods": {},
				"version": 1
			}
		}
	}
}