{
	"Dcoffer/treasury.sol": {
		"treasury": {
			"abi": [
				{
					"inputs": [],
					"stateMutability": "nonpayable",
					"type": "constructor"
				},
				{
					"inputs": [],
					"name": "Price",
					"outputs": [
						{
							"internalType": "uint256",
							"name": "",
							"type": "uint256"
						}
					],
					"stateMutability": "view",
					"type": "function"
				},
				{
					"inputs": [
						{
							"internalType": "address",
							"name": "user",
							"type": "address"
						},
						{
							"internalType": "bool",
							"name": "power",
							"type": "bool"
						}
					],
					"name": "setRouter",
					"outputs": [],
					"stateMutability": "nonpayable",
					"type": "function"
				}
			],
			"devdoc": {
				"kind": "dev",
				"methods": {},
				"version": 1
			},
			"evm": {
				"assembly": "    /* \"Dcoffer/treasury.sol\":181:928  contract treasury  {... */\n  mstore(0x40, 0x80)\n    /* \"Dcoffer/treasury.sol\":260:302  0xbE0C856e2981b9f03d7613566DFC6679eEe4708A */\n  0xbe0c856e2981b9f03d7613566dfc6679eee4708a\n    /* \"Dcoffer/treasury.sol\":237:303  IERC20 dcoff =  IERC20(0xbE0C856e2981b9f03d7613566DFC6679eEe4708A) */\n  0x00\n  dup1\n  0x0100\n  exp\n  dup2\n  sload\n  dup2\n  0xffffffffffffffffffffffffffffffffffffffff\n  mul\n  not\n  and\n  swap1\n  dup4\n  0xffffffffffffffffffffffffffffffffffffffff\n  and\n  mul\n  or\n  swap1\n  sstore\n  pop\n    /* \"Dcoffer/treasury.sol\":310:354  constructor(){... */\n  callvalue\n  dup1\n  iszero\n  tag_1\n  jumpi\n  0x00\n  dup1\n  revert\ntag_1:\n  pop\n    /* \"Dcoffer/treasury.sol\":338:348  msg.sender */\n  caller\n    /* \"Dcoffer/treasury.sol\":330:335  owner */\n  0x01\n  0x00\n    /* \"Dcoffer/treasury.sol\":330:348  owner = msg.sender */\n  0x0100\n  exp\n  dup2\n  sload\n  dup2\n  0xffffffffffffffffffffffffffffffffffffffff\n  mul\n  not\n  and\n  swap1\n  dup4\n  0xffffffffffffffffffffffffffffffffffffffff\n  and\n  mul\n  or\n  swap1\n  sstore\n  pop\n    /* \"Dcoffer/treasury.sol\":181:928  contract treasury  {... */\n  dataSize(sub_0)\n  dup1\n  dataOffset(sub_0)\n  0x00\n  codecopy\n  0x00\n  return\nstop\n\nsub_0: assembly {\n        /* \"Dcoffer/treasury.sol\":181:928  contract treasury  {... */\n      mstore(0x40, 0x80)\n      callvalue\n      dup1\n      iszero\n      tag_1\n      jumpi\n      0x00\n      dup1\n      revert\n    tag_1:\n      pop\n      jumpi(tag_2, lt(calldatasize, 0x04))\n      shr(0xe0, calldataload(0x00))\n      dup1\n      0x9dfde201\n      eq\n      tag_3\n      jumpi\n      dup1\n      0xc3c64674\n      eq\n      tag_4\n      jumpi\n    tag_2:\n      0x00\n      dup1\n      revert\n        /* \"Dcoffer/treasury.sol\":670:907  function Price()public view returns(uint){... */\n    tag_3:\n      tag_5\n      tag_6\n      jump\t// in\n    tag_5:\n      mload(0x40)\n      tag_7\n      swap2\n      swap1\n      tag_8\n      jump\t// in\n    tag_7:\n      mload(0x40)\n      dup1\n      swap2\n      sub\n      swap1\n      return\n        /* \"Dcoffer/treasury.sol\":562:662  function setRouter(address user, bool power)external onlyOwner{... */\n    tag_4:\n      tag_9\n      0x04\n      dup1\n      calldatasize\n      sub\n      dup2\n      add\n      swap1\n      tag_10\n      swap2\n      swap1\n      tag_11\n      jump\t// in\n    tag_10:\n      tag_12\n      jump\t// in\n    tag_9:\n      stop\n        /* \"Dcoffer/treasury.sol\":670:907  function Price()public view returns(uint){... */\n    tag_6:\n        /* \"Dcoffer/treasury.sol\":706:710  uint */\n      0x00\n        /* \"Dcoffer/treasury.sol\":718:736  uint256 eth_amount */\n      dup1\n        /* \"Dcoffer/treasury.sol\":739:760  address(this).balance */\n      selfbalance\n        /* \"Dcoffer/treasury.sol\":718:760  uint256 eth_amount = address(this).balance */\n      swap1\n      pop\n        /* \"Dcoffer/treasury.sol\":767:789  uint256 dcfTotlaSupply */\n      0x00\n        /* \"Dcoffer/treasury.sol\":792:797  dcoff */\n      dup1\n      0x00\n      swap1\n      sload\n      swap1\n      0x0100\n      exp\n      swap1\n      div\n      0xffffffffffffffffffffffffffffffffffffffff\n      and\n        /* \"Dcoffer/treasury.sol\":792:809  dcoff.totalSupply */\n      0xffffffffffffffffffffffffffffffffffffffff\n      and\n      0x18160ddd\n        /* \"Dcoffer/treasury.sol\":792:811  dcoff.totalSupply() */\n      mload(0x40)\n      dup2\n      0xffffffff\n      and\n      0xe0\n      shl\n      dup2\n      mstore\n      0x04\n      add\n      0x20\n      mload(0x40)\n      dup1\n      dup4\n      sub\n      dup2\n      dup7\n      gas\n      staticcall\n      iszero\n      dup1\n      iszero\n      tag_15\n      jumpi\n      returndatasize\n      0x00\n      dup1\n      returndatacopy\n      revert(0x00, returndatasize)\n    tag_15:\n      pop\n      pop\n      pop\n      pop\n      mload(0x40)\n      returndatasize\n      not(0x1f)\n      0x1f\n      dup3\n      add\n      and\n      dup3\n      add\n      dup1\n      0x40\n      mstore\n      pop\n      dup2\n      add\n      swap1\n      tag_16\n      swap2\n      swap1\n      tag_17\n      jump\t// in\n    tag_16:\n        /* \"Dcoffer/treasury.sol\":767:811  uint256 dcfTotlaSupply = dcoff.totalSupply() */\n      swap1\n      pop\n        /* \"Dcoffer/treasury.sol\":818:829  uint _price */\n      0x00\n        /* \"Dcoffer/treasury.sol\":832:881  uint256(1e18).mul(eth_amount).div(dcfTotlaSupply) */\n      tag_18\n        /* \"Dcoffer/treasury.sol\":866:880  dcfTotlaSupply */\n      dup3\n        /* \"Dcoffer/treasury.sol\":832:861  uint256(1e18).mul(eth_amount) */\n      tag_19\n        /* \"Dcoffer/treasury.sol\":850:860  eth_amount */\n      dup6\n        /* \"Dcoffer/treasury.sol\":840:844  1e18 */\n      0x0de0b6b3a7640000\n        /* \"Dcoffer/treasury.sol\":832:849  uint256(1e18).mul */\n      tag_20\n      swap1\n        /* \"Dcoffer/treasury.sol\":832:861  uint256(1e18).mul(eth_amount) */\n      swap2\n      swap1\n      0xffffffff\n      and\n      jump\t// in\n    tag_19:\n        /* \"Dcoffer/treasury.sol\":832:865  uint256(1e18).mul(eth_amount).div */\n      tag_21\n      swap1\n        /* \"Dcoffer/treasury.sol\":832:881  uint256(1e18).mul(eth_amount).div(dcfTotlaSupply) */\n      swap2\n      swap1\n      0xffffffff\n      and\n      jump\t// in\n    tag_18:\n        /* \"Dcoffer/treasury.sol\":818:881  uint _price = uint256(1e18).mul(eth_amount).div(dcfTotlaSupply) */\n      swap1\n      pop\n        /* \"Dcoffer/treasury.sol\":895:901  _price */\n      dup1\n        /* \"Dcoffer/treasury.sol\":888:901  return _price */\n      swap4\n      pop\n      pop\n      pop\n      pop\n        /* \"Dcoffer/treasury.sol\":670:907  function Price()public view returns(uint){... */\n      swap1\n      jump\t// out\n        /* \"Dcoffer/treasury.sol\":562:662  function setRouter(address user, bool power)external onlyOwner{... */\n    tag_12:\n        /* \"Dcoffer/treasury.sol\":477:487  msg.sender */\n      caller\n        /* \"Dcoffer/treasury.sol\":468:487  owner == msg.sender */\n      0xffffffffffffffffffffffffffffffffffffffff\n      and\n        /* \"Dcoffer/treasury.sol\":468:473  owner */\n      0x01\n      0x00\n      swap1\n      sload\n      swap1\n      0x0100\n      exp\n      swap1\n      div\n      0xffffffffffffffffffffffffffffffffffffffff\n      and\n        /* \"Dcoffer/treasury.sol\":468:487  owner == msg.sender */\n      0xffffffffffffffffffffffffffffffffffffffff\n      and\n      eq\n        /* \"Dcoffer/treasury.sol\":460:524  require(owner == msg.sender, \"Ownable: caller is not the owner\") */\n      tag_23\n      jumpi\n      mload(0x40)\n      0x08c379a000000000000000000000000000000000000000000000000000000000\n      dup2\n      mstore\n      0x04\n      add\n      tag_24\n      swap1\n      tag_25\n      jump\t// in\n    tag_24:\n      mload(0x40)\n      dup1\n      swap2\n      sub\n      swap1\n      revert\n    tag_23:\n        /* \"Dcoffer/treasury.sol\":651:656  power */\n      dup1\n        /* \"Dcoffer/treasury.sol\":631:642  RouterAdmin */\n      0x02\n        /* \"Dcoffer/treasury.sol\":631:648  RouterAdmin[user] */\n      0x00\n        /* \"Dcoffer/treasury.sol\":643:647  user */\n      dup5\n        /* \"Dcoffer/treasury.sol\":631:648  RouterAdmin[user] */\n      0xffffffffffffffffffffffffffffffffffffffff\n      and\n      0xffffffffffffffffffffffffffffffffffffffff\n      and\n      dup2\n      mstore\n      0x20\n      add\n      swap1\n      dup2\n      mstore\n      0x20\n      add\n      0x00\n      keccak256\n      0x00\n        /* \"Dcoffer/treasury.sol\":631:656  RouterAdmin[user] = power */\n      0x0100\n      exp\n      dup2\n      sload\n      dup2\n      0xff\n      mul\n      not\n      and\n      swap1\n      dup4\n      iszero\n      iszero\n      mul\n      or\n      swap1\n      sstore\n      pop\n        /* \"Dcoffer/treasury.sol\":562:662  function setRouter(address user, bool power)external onlyOwner{... */\n      pop\n      pop\n      jump\t// out\n        /* \"@openzeppelin/contracts/utils/math/SafeMath.sol\":3465:3561  function mul(uint256 a, uint256 b) internal pure returns (uint256) {... */\n    tag_20:\n        /* \"@openzeppelin/contracts/utils/math/SafeMath.sol\":3523:3530  uint256 */\n      0x00\n        /* \"@openzeppelin/contracts/utils/math/SafeMath.sol\":3553:3554  b */\n      dup2\n        /* \"@openzeppelin/contracts/utils/math/SafeMath.sol\":3549:3550  a */\n      dup4\n        /* \"@openzeppelin/contracts/utils/math/SafeMath.sol\":3549:3554  a * b */\n      tag_28\n      swap2\n      swap1\n      tag_29\n      jump\t// in\n    tag_28:\n        /* \"@openzeppelin/contracts/utils/math/SafeMath.sol\":3542:3554  return a * b */\n      swap1\n      pop\n        /* \"@openzeppelin/contracts/utils/math/SafeMath.sol\":3465:3561  function mul(uint256 a, uint256 b) internal pure returns (uint256) {... */\n      swap3\n      swap2\n      pop\n      pop\n      jump\t// out\n        /* \"@openzeppelin/contracts/utils/math/SafeMath.sol\":3850:3946  function div(uint256 a, uint256 b) internal pure returns (uint256) {... */\n    tag_21:\n        /* \"@openzeppelin/contracts/utils/math/SafeMath.sol\":3908:3915  uint256 */\n      0x00\n        /* \"@openzeppelin/contracts/utils/math/SafeMath.sol\":3938:3939  b */\n      dup2\n        /* \"@openzeppelin/contracts/utils/math/SafeMath.sol\":3934:3935  a */\n      dup4\n        /* \"@openzeppelin/contracts/utils/math/SafeMath.sol\":3934:3939  a / b */\n      tag_31\n      swap2\n      swap1\n      tag_32\n      jump\t// in\n    tag_31:\n        /* \"@openzeppelin/contracts/utils/math/SafeMath.sol\":3927:3939  return a / b */\n      swap1\n      pop\n        /* \"@openzeppelin/contracts/utils/math/SafeMath.sol\":3850:3946  function div(uint256 a, uint256 b) internal pure returns (uint256) {... */\n      swap3\n      swap2\n      pop\n      pop\n      jump\t// out\n        /* \"#utility.yul\":7:84   */\n    tag_33:\n        /* \"#utility.yul\":44:51   */\n      0x00\n        /* \"#utility.yul\":73:78   */\n      dup2\n        /* \"#utility.yul\":62:78   */\n      swap1\n      pop\n        /* \"#utility.yul\":7:84   */\n      swap2\n      swap1\n      pop\n      jump\t// out\n        /* \"#utility.yul\":90:208   */\n    tag_34:\n        /* \"#utility.yul\":177:201   */\n      tag_55\n        /* \"#utility.yul\":195:200   */\n      dup2\n        /* \"#utility.yul\":177:201   */\n      tag_33\n      jump\t// in\n    tag_55:\n        /* \"#utility.yul\":172:175   */\n      dup3\n        /* \"#utility.yul\":165:202   */\n      mstore\n        /* \"#utility.yul\":90:208   */\n      pop\n      pop\n      jump\t// out\n        /* \"#utility.yul\":214:436   */\n    tag_8:\n        /* \"#utility.yul\":307:311   */\n      0x00\n        /* \"#utility.yul\":345:347   */\n      0x20\n        /* \"#utility.yul\":334:343   */\n      dup3\n        /* \"#utility.yul\":330:348   */\n      add\n        /* \"#utility.yul\":322:348   */\n      swap1\n      pop\n        /* \"#utility.yul\":358:429   */\n      tag_57\n        /* \"#utility.yul\":426:427   */\n      0x00\n        /* \"#utility.yul\":415:424   */\n      dup4\n        /* \"#utility.yul\":411:428   */\n      add\n        /* \"#utility.yul\":402:408   */\n      dup5\n        /* \"#utility.yul\":358:429   */\n      tag_34\n      jump\t// in\n    tag_57:\n        /* \"#utility.yul\":214:436   */\n      swap3\n      swap2\n      pop\n      pop\n      jump\t// out\n        /* \"#utility.yul\":523:640   */\n    tag_36:\n        /* \"#utility.yul\":632:633   */\n      0x00\n        /* \"#utility.yul\":629:630   */\n      dup1\n        /* \"#utility.yul\":622:634   */\n      revert\n        /* \"#utility.yul\":769:895   */\n    tag_38:\n        /* \"#utility.yul\":806:813   */\n      0x00\n        /* \"#utility.yul\":846:888   */\n      0xffffffffffffffffffffffffffffffffffffffff\n        /* \"#utility.yul\":839:844   */\n      dup3\n        /* \"#utility.yul\":835:889   */\n      and\n        /* \"#utility.yul\":824:889   */\n      swap1\n      pop\n        /* \"#utility.yul\":769:895   */\n      swap2\n      swap1\n      pop\n      jump\t// out\n        /* \"#utility.yul\":901:997   */\n    tag_39:\n        /* \"#utility.yul\":938:945   */\n      0x00\n        /* \"#utility.yul\":967:991   */\n      tag_63\n        /* \"#utility.yul\":985:990   */\n      dup3\n        /* \"#utility.yul\":967:991   */\n      tag_38\n      jump\t// in\n    tag_63:\n        /* \"#utility.yul\":956:991   */\n      swap1\n      pop\n        /* \"#utility.yul\":901:997   */\n      swap2\n      swap1\n      pop\n      jump\t// out\n        /* \"#utility.yul\":1003:1125   */\n    tag_40:\n        /* \"#utility.yul\":1076:1100   */\n      tag_65\n        /* \"#utility.yul\":1094:1099   */\n      dup2\n        /* \"#utility.yul\":1076:1100   */\n      tag_39\n      jump\t// in\n    tag_65:\n        /* \"#utility.yul\":1069:1074   */\n      dup2\n        /* \"#utility.yul\":1066:1101   */\n      eq\n        /* \"#utility.yul\":1056:1119   */\n      tag_66\n      jumpi\n        /* \"#utility.yul\":1115:1116   */\n      0x00\n        /* \"#utility.yul\":1112:1113   */\n      dup1\n        /* \"#utility.yul\":1105:1117   */\n      revert\n        /* \"#utility.yul\":1056:1119   */\n    tag_66:\n        /* \"#utility.yul\":1003:1125   */\n      pop\n      jump\t// out\n        /* \"#utility.yul\":1131:1270   */\n    tag_41:\n        /* \"#utility.yul\":1177:1182   */\n      0x00\n        /* \"#utility.yul\":1215:1221   */\n      dup2\n        /* \"#utility.yul\":1202:1222   */\n      calldataload\n        /* \"#utility.yul\":1193:1222   */\n      swap1\n      pop\n        /* \"#utility.yul\":1231:1264   */\n      tag_68\n        /* \"#utility.yul\":1258:1263   */\n      dup2\n        /* \"#utility.yul\":1231:1264   */\n      tag_40\n      jump\t// in\n    tag_68:\n        /* \"#utility.yul\":1131:1270   */\n      swap3\n      swap2\n      pop\n      pop\n      jump\t// out\n        /* \"#utility.yul\":1276:1366   */\n    tag_42:\n        /* \"#utility.yul\":1310:1317   */\n      0x00\n        /* \"#utility.yul\":1353:1358   */\n      dup2\n        /* \"#utility.yul\":1346:1359   */\n      iszero\n        /* \"#utility.yul\":1339:1360   */\n      iszero\n        /* \"#utility.yul\":1328:1360   */\n      swap1\n      pop\n        /* \"#utility.yul\":1276:1366   */\n      swap2\n      swap1\n      pop\n      jump\t// out\n        /* \"#utility.yul\":1372:1488   */\n    tag_43:\n        /* \"#utility.yul\":1442:1463   */\n      tag_71\n        /* \"#utility.yul\":1457:1462   */\n      dup2\n        /* \"#utility.yul\":1442:1463   */\n      tag_42\n      jump\t// in\n    tag_71:\n        /* \"#utility.yul\":1435:1440   */\n      dup2\n        /* \"#utility.yul\":1432:1464   */\n      eq\n        /* \"#utility.yul\":1422:1482   */\n      tag_72\n      jumpi\n        /* \"#utility.yul\":1478:1479   */\n      0x00\n        /* \"#utility.yul\":1475:1476   */\n      dup1\n        /* \"#utility.yul\":1468:1480   */\n      revert\n        /* \"#utility.yul\":1422:1482   */\n    tag_72:\n        /* \"#utility.yul\":1372:1488   */\n      pop\n      jump\t// out\n        /* \"#utility.yul\":1494:1627   */\n    tag_44:\n        /* \"#utility.yul\":1537:1542   */\n      0x00\n        /* \"#utility.yul\":1575:1581   */\n      dup2\n        /* \"#utility.yul\":1562:1582   */\n      calldataload\n        /* \"#utility.yul\":1553:1582   */\n      swap1\n      pop\n        /* \"#utility.yul\":1591:1621   */\n      tag_74\n        /* \"#utility.yul\":1615:1620   */\n      dup2\n        /* \"#utility.yul\":1591:1621   */\n      tag_43\n      jump\t// in\n    tag_74:\n        /* \"#utility.yul\":1494:1627   */\n      swap3\n      swap2\n      pop\n      pop\n      jump\t// out\n        /* \"#utility.yul\":1633:2101   */\n    tag_11:\n        /* \"#utility.yul\":1698:1704   */\n      0x00\n        /* \"#utility.yul\":1706:1712   */\n      dup1\n        /* \"#utility.yul\":1755:1757   */\n      0x40\n        /* \"#utility.yul\":1743:1752   */\n      dup4\n        /* \"#utility.yul\":1734:1741   */\n      dup6\n        /* \"#utility.yul\":1730:1753   */\n      sub\n        /* \"#utility.yul\":1726:1758   */\n      slt\n        /* \"#utility.yul\":1723:1842   */\n      iszero\n      tag_76\n      jumpi\n        /* \"#utility.yul\":1761:1840   */\n      tag_77\n      tag_36\n      jump\t// in\n    tag_77:\n        /* \"#utility.yul\":1723:1842   */\n    tag_76:\n        /* \"#utility.yul\":1881:1882   */\n      0x00\n        /* \"#utility.yul\":1906:1959   */\n      tag_78\n        /* \"#utility.yul\":1951:1958   */\n      dup6\n        /* \"#utility.yul\":1942:1948   */\n      dup3\n        /* \"#utility.yul\":1931:1940   */\n      dup7\n        /* \"#utility.yul\":1927:1949   */\n      add\n        /* \"#utility.yul\":1906:1959   */\n      tag_41\n      jump\t// in\n    tag_78:\n        /* \"#utility.yul\":1896:1959   */\n      swap3\n      pop\n        /* \"#utility.yul\":1852:1969   */\n      pop\n        /* \"#utility.yul\":2008:2010   */\n      0x20\n        /* \"#utility.yul\":2034:2084   */\n      tag_79\n        /* \"#utility.yul\":2076:2083   */\n      dup6\n        /* \"#utility.yul\":2067:2073   */\n      dup3\n        /* \"#utility.yul\":2056:2065   */\n      dup7\n        /* \"#utility.yul\":2052:2074   */\n      add\n        /* \"#utility.yul\":2034:2084   */\n      tag_44\n      jump\t// in\n    tag_79:\n        /* \"#utility.yul\":2024:2084   */\n      swap2\n      pop\n        /* \"#utility.yul\":1979:2094   */\n      pop\n        /* \"#utility.yul\":1633:2101   */\n      swap3\n      pop\n      swap3\n      swap1\n      pop\n      jump\t// out\n        /* \"#utility.yul\":2107:2229   */\n    tag_45:\n        /* \"#utility.yul\":2180:2204   */\n      tag_81\n        /* \"#utility.yul\":2198:2203   */\n      dup2\n        /* \"#utility.yul\":2180:2204   */\n      tag_33\n      jump\t// in\n    tag_81:\n        /* \"#utility.yul\":2173:2178   */\n      dup2\n        /* \"#utility.yul\":2170:2205   */\n      eq\n        /* \"#utility.yul\":2160:2223   */\n      tag_82\n      jumpi\n        /* \"#utility.yul\":2219:2220   */\n      0x00\n        /* \"#utility.yul\":2216:2217   */\n      dup1\n        /* \"#utility.yul\":2209:2221   */\n      revert\n        /* \"#utility.yul\":2160:2223   */\n    tag_82:\n        /* \"#utility.yul\":2107:2229   */\n      pop\n      jump\t// out\n        /* \"#utility.yul\":2235:2378   */\n    tag_46:\n        /* \"#utility.yul\":2292:2297   */\n      0x00\n        /* \"#utility.yul\":2323:2329   */\n      dup2\n        /* \"#utility.yul\":2317:2330   */\n      mload\n        /* \"#utility.yul\":2308:2330   */\n      swap1\n      pop\n        /* \"#utility.yul\":2339:2372   */\n      tag_84\n        /* \"#utility.yul\":2366:2371   */\n      dup2\n        /* \"#utility.yul\":2339:2372   */\n      tag_45\n      jump\t// in\n    tag_84:\n        /* \"#utility.yul\":2235:2378   */\n      swap3\n      swap2\n      pop\n      pop\n      jump\t// out\n        /* \"#utility.yul\":2384:2735   */\n    tag_17:\n        /* \"#utility.yul\":2454:2460   */\n      0x00\n        /* \"#utility.yul\":2503:2505   */\n      0x20\n        /* \"#utility.yul\":2491:2500   */\n      dup3\n        /* \"#utility.yul\":2482:2489   */\n      dup5\n        /* \"#utility.yul\":2478:2501   */\n      sub\n        /* \"#utility.yul\":2474:2506   */\n      slt\n        /* \"#utility.yul\":2471:2590   */\n      iszero\n      tag_86\n      jumpi\n        /* \"#utility.yul\":2509:2588   */\n      tag_87\n      tag_36\n      jump\t// in\n    tag_87:\n        /* \"#utility.yul\":2471:2590   */\n    tag_86:\n        /* \"#utility.yul\":2629:2630   */\n      0x00\n        /* \"#utility.yul\":2654:2718   */\n      tag_88\n        /* \"#utility.yul\":2710:2717   */\n      dup5\n        /* \"#utility.yul\":2701:2707   */\n      dup3\n        /* \"#utility.yul\":2690:2699   */\n      dup6\n        /* \"#utility.yul\":2686:2708   */\n      add\n        /* \"#utility.yul\":2654:2718   */\n      tag_46\n      jump\t// in\n    tag_88:\n        /* \"#utility.yul\":2644:2718   */\n      swap2\n      pop\n        /* \"#utility.yul\":2600:2728   */\n      pop\n        /* \"#utility.yul\":2384:2735   */\n      swap3\n      swap2\n      pop\n      pop\n      jump\t// out\n        /* \"#utility.yul\":2741:2910   */\n    tag_47:\n        /* \"#utility.yul\":2825:2836   */\n      0x00\n        /* \"#utility.yul\":2859:2865   */\n      dup3\n        /* \"#utility.yul\":2854:2857   */\n      dup3\n        /* \"#utility.yul\":2847:2866   */\n      mstore\n        /* \"#utility.yul\":2899:2903   */\n      0x20\n        /* \"#utility.yul\":2894:2897   */\n      dup3\n        /* \"#utility.yul\":2890:2904   */\n      add\n        /* \"#utility.yul\":2875:2904   */\n      swap1\n      pop\n        /* \"#utility.yul\":2741:2910   */\n      swap3\n      swap2\n      pop\n      pop\n      jump\t// out\n        /* \"#utility.yul\":2916:3098   */\n    tag_48:\n        /* \"#utility.yul\":3056:3090   */\n      0x4f776e61626c653a2063616c6c6572206973206e6f7420746865206f776e6572\n        /* \"#utility.yul\":3052:3053   */\n      0x00\n        /* \"#utility.yul\":3044:3050   */\n      dup3\n        /* \"#utility.yul\":3040:3054   */\n      add\n        /* \"#utility.yul\":3033:3091   */\n      mstore\n        /* \"#utility.yul\":2916:3098   */\n      pop\n      jump\t// out\n        /* \"#utility.yul\":3104:3470   */\n    tag_49:\n        /* \"#utility.yul\":3246:3249   */\n      0x00\n        /* \"#utility.yul\":3267:3334   */\n      tag_92\n        /* \"#utility.yul\":3331:3333   */\n      0x20\n        /* \"#utility.yul\":3326:3329   */\n      dup4\n        /* \"#utility.yul\":3267:3334   */\n      tag_47\n      jump\t// in\n    tag_92:\n        /* \"#utility.yul\":3260:3334   */\n      swap2\n      pop\n        /* \"#utility.yul\":3343:3436   */\n      tag_93\n        /* \"#utility.yul\":3432:3435   */\n      dup3\n        /* \"#utility.yul\":3343:3436   */\n      tag_48\n      jump\t// in\n    tag_93:\n        /* \"#utility.yul\":3461:3463   */\n      0x20\n        /* \"#utility.yul\":3456:3459   */\n      dup3\n        /* \"#utility.yul\":3452:3464   */\n      add\n        /* \"#utility.yul\":3445:3464   */\n      swap1\n      pop\n        /* \"#utility.yul\":3104:3470   */\n      swap2\n      swap1\n      pop\n      jump\t// out\n        /* \"#utility.yul\":3476:3895   */\n    tag_25:\n        /* \"#utility.yul\":3642:3646   */\n      0x00\n        /* \"#utility.yul\":3680:3682   */\n      0x20\n        /* \"#utility.yul\":3669:3678   */\n      dup3\n        /* \"#utility.yul\":3665:3683   */\n      add\n        /* \"#utility.yul\":3657:3683   */\n      swap1\n      pop\n        /* \"#utility.yul\":3729:3738   */\n      dup2\n        /* \"#utility.yul\":3723:3727   */\n      dup2\n        /* \"#utility.yul\":3719:3739   */\n      sub\n        /* \"#utility.yul\":3715:3716   */\n      0x00\n        /* \"#utility.yul\":3704:3713   */\n      dup4\n        /* \"#utility.yul\":3700:3717   */\n      add\n        /* \"#utility.yul\":3693:3740   */\n      mstore\n        /* \"#utility.yul\":3757:3888   */\n      tag_95\n        /* \"#utility.yul\":3883:3887   */\n      dup2\n        /* \"#utility.yul\":3757:3888   */\n      tag_49\n      jump\t// in\n    tag_95:\n        /* \"#utility.yul\":3749:3888   */\n      swap1\n      pop\n        /* \"#utility.yul\":3476:3895   */\n      swap2\n      swap1\n      pop\n      jump\t// out\n        /* \"#utility.yul\":3901:4081   */\n    tag_50:\n        /* \"#utility.yul\":3949:4026   */\n      0x4e487b7100000000000000000000000000000000000000000000000000000000\n        /* \"#utility.yul\":3946:3947   */\n      0x00\n        /* \"#utility.yul\":3939:4027   */\n      mstore\n        /* \"#utility.yul\":4046:4050   */\n      0x11\n        /* \"#utility.yul\":4043:4044   */\n      0x04\n        /* \"#utility.yul\":4036:4051   */\n      mstore\n        /* \"#utility.yul\":4070:4074   */\n      0x24\n        /* \"#utility.yul\":4067:4068   */\n      0x00\n        /* \"#utility.yul\":4060:4075   */\n      revert\n        /* \"#utility.yul\":4087:4435   */\n    tag_29:\n        /* \"#utility.yul\":4127:4134   */\n      0x00\n        /* \"#utility.yul\":4150:4170   */\n      tag_98\n        /* \"#utility.yul\":4168:4169   */\n      dup3\n        /* \"#utility.yul\":4150:4170   */\n      tag_33\n      jump\t// in\n    tag_98:\n        /* \"#utility.yul\":4145:4170   */\n      swap2\n      pop\n        /* \"#utility.yul\":4184:4204   */\n      tag_99\n        /* \"#utility.yul\":4202:4203   */\n      dup4\n        /* \"#utility.yul\":4184:4204   */\n      tag_33\n      jump\t// in\n    tag_99:\n        /* \"#utility.yul\":4179:4204   */\n      swap3\n      pop\n        /* \"#utility.yul\":4372:4373   */\n      dup2\n        /* \"#utility.yul\":4304:4370   */\n      0xffffffffffffffffffffffffffffffffffffffffffffffffffffffffffffffff\n        /* \"#utility.yul\":4300:4374   */\n      div\n        /* \"#utility.yul\":4297:4298   */\n      dup4\n        /* \"#utility.yul\":4294:4375   */\n      gt\n        /* \"#utility.yul\":4289:4290   */\n      dup3\n        /* \"#utility.yul\":4282:4291   */\n      iszero\n        /* \"#utility.yul\":4275:4292   */\n      iszero\n        /* \"#utility.yul\":4271:4376   */\n      and\n        /* \"#utility.yul\":4268:4399   */\n      iszero\n      tag_100\n      jumpi\n        /* \"#utility.yul\":4379:4397   */\n      tag_101\n      tag_50\n      jump\t// in\n    tag_101:\n        /* \"#utility.yul\":4268:4399   */\n    tag_100:\n        /* \"#utility.yul\":4427:4428   */\n      dup3\n        /* \"#utility.yul\":4424:4425   */\n      dup3\n        /* \"#utility.yul\":4420:4429   */\n      mul\n        /* \"#utility.yul\":4409:4429   */\n      swap1\n      pop\n        /* \"#utility.yul\":4087:4435   */\n      swap3\n      swap2\n      pop\n      pop\n      jump\t// out\n        /* \"#utility.yul\":4441:4621   */\n    tag_51:\n        /* \"#utility.yul\":4489:4566   */\n      0x4e487b7100000000000000000000000000000000000000000000000000000000\n        /* \"#utility.yul\":4486:4487   */\n      0x00\n        /* \"#utility.yul\":4479:4567   */\n      mstore\n        /* \"#utility.yul\":4586:4590   */\n      0x12\n        /* \"#utility.yul\":4583:4584   */\n      0x04\n        /* \"#utility.yul\":4576:4591   */\n      mstore\n        /* \"#utility.yul\":4610:4614   */\n      0x24\n        /* \"#utility.yul\":4607:4608   */\n      0x00\n        /* \"#utility.yul\":4600:4615   */\n      revert\n        /* \"#utility.yul\":4627:4812   */\n    tag_32:\n        /* \"#utility.yul\":4667:4668   */\n      0x00\n        /* \"#utility.yul\":4684:4704   */\n      tag_104\n        /* \"#utility.yul\":4702:4703   */\n      dup3\n        /* \"#utility.yul\":4684:4704   */\n      tag_33\n      jump\t// in\n    tag_104:\n        /* \"#utility.yul\":4679:4704   */\n      swap2\n      pop\n        /* \"#utility.yul\":4718:4738   */\n      tag_105\n        /* \"#utility.yul\":4736:4737   */\n      dup4\n        /* \"#utility.yul\":4718:4738   */\n      tag_33\n      jump\t// in\n    tag_105:\n        /* \"#utility.yul\":4713:4738   */\n      swap3\n      pop\n        /* \"#utility.yul\":4757:4758   */\n      dup3\n        /* \"#utility.yul\":4747:4782   */\n      tag_106\n      jumpi\n        /* \"#utility.yul\":4762:4780   */\n      tag_107\n      tag_51\n      jump\t// in\n    tag_107:\n        /* \"#utility.yul\":4747:4782   */\n    tag_106:\n        /* \"#utility.yul\":4804:4805   */\n      dup3\n        /* \"#utility.yul\":4801:4802   */\n      dup3\n        /* \"#utility.yul\":4797:4806   */\n      div\n        /* \"#utility.yul\":4792:4806   */\n      swap1\n      pop\n        /* \"#utility.yul\":4627:4812   */\n      swap3\n      swap2\n      pop\n      pop\n      jump\t// out\n\n    auxdata: 0xa2646970667358221220b245632b706cd1ec3bec8acea225d57f6d93b73d0a1edf25f615bcd2aa884cca64736f6c634300080e0033\n}\n",
				"bytecode": {
					"linkReferences": {},
					"object": "608060405273be0c856e2981b9f03d7613566dfc6679eee4708a6000806101000a81548173ffffffffffffffffffffffffffffffffffffffff021916908373ffffffffffffffffffffffffffffffffffffffff16021790555034801561006457600080fd5b5033600160006101000a81548173ffffffffffffffffffffffffffffffffffffffff021916908373ffffffffffffffffffffffffffffffffffffffff160217905550610564806100b56000396000f3fe608060405234801561001057600080fd5b50600436106100365760003560e01c80639dfde2011461003b578063c3c6467414610059575b600080fd5b610043610075565b6040516100509190610279565b60405180910390f35b610073600480360381019061006e919061032f565b610149565b005b60008047905060008060009054906101000a900473ffffffffffffffffffffffffffffffffffffffff1673ffffffffffffffffffffffffffffffffffffffff166318160ddd6040518163ffffffff1660e01b8152600401602060405180830381865afa1580156100e9573d6000803e3d6000fd5b505050506040513d601f19601f8201168201806040525081019061010d919061039b565b9050600061013e8261013085670de0b6b3a764000061023490919063ffffffff16565b61024a90919063ffffffff16565b905080935050505090565b3373ffffffffffffffffffffffffffffffffffffffff16600160009054906101000a900473ffffffffffffffffffffffffffffffffffffffff1673ffffffffffffffffffffffffffffffffffffffff16146101d9576040517f08c379a00000000000000000000000000000000000000000000000000000000081526004016101d090610425565b60405180910390fd5b80600260008473ffffffffffffffffffffffffffffffffffffffff1673ffffffffffffffffffffffffffffffffffffffff16815260200190815260200160002060006101000a81548160ff0219169083151502179055505050565b600081836102429190610474565b905092915050565b6000818361025891906104fd565b905092915050565b6000819050919050565b61027381610260565b82525050565b600060208201905061028e600083018461026a565b92915050565b600080fd5b600073ffffffffffffffffffffffffffffffffffffffff82169050919050565b60006102c482610299565b9050919050565b6102d4816102b9565b81146102df57600080fd5b50565b6000813590506102f1816102cb565b92915050565b60008115159050919050565b61030c816102f7565b811461031757600080fd5b50565b60008135905061032981610303565b92915050565b6000806040838503121561034657610345610294565b5b6000610354858286016102e2565b92505060206103658582860161031a565b9150509250929050565b61037881610260565b811461038357600080fd5b50565b6000815190506103958161036f565b92915050565b6000602082840312156103b1576103b0610294565b5b60006103bf84828501610386565b91505092915050565b600082825260208201905092915050565b7f4f776e61626c653a2063616c6c6572206973206e6f7420746865206f776e6572600082015250565b600061040f6020836103c8565b915061041a826103d9565b602082019050919050565b6000602082019050818103600083015261043e81610402565b9050919050565b7f4e487b7100000000000000000000000000000000000000000000000000000000600052601160045260246000fd5b600061047f82610260565b915061048a83610260565b9250817fffffffffffffffffffffffffffffffffffffffffffffffffffffffffffffffff04831182151516156104c3576104c2610445565b5b828202905092915050565b7f4e487b7100000000000000000000000000000000000000000000000000000000600052601260045260246000fd5b600061050882610260565b915061051383610260565b925082610523576105226104ce565b5b82820490509291505056fea2646970667358221220b245632b706cd1ec3bec8acea225d57f6d93b73d0a1edf25f615bcd2aa884cca64736f6c634300080e0033",
					"opcodes": "PUSH1 0x80 PUSH1 0x40 MSTORE PUSH20 0xBE0C856E2981B9F03D7613566DFC6679EEE4708A PUSH1 0x0 DUP1 PUSH2 0x100 EXP DUP2 SLOAD DUP2 PUSH20 0xFFFFFFFFFFFFFFFFFFFFFFFFFFFFFFFFFFFFFFFF MUL NOT AND SWAP1 DUP4 PUSH20 0xFFFFFFFFFFFFFFFFFFFFFFFFFFFFFFFFFFFFFFFF AND MUL OR SWAP1 SSTORE POP CALLVALUE DUP1 ISZERO PUSH2 0x64 JUMPI PUSH1 0x0 DUP1 REVERT JUMPDEST POP CALLER PUSH1 0x1 PUSH1 0x0 PUSH2 0x100 EXP DUP2 SLOAD DUP2 PUSH20 0xFFFFFFFFFFFFFFFFFFFFFFFFFFFFFFFFFFFFFFFF MUL NOT AND SWAP1 DUP4 PUSH20 0xFFFFFFFFFFFFFFFFFFFFFFFFFFFFFFFFFFFFFFFF AND MUL OR SWAP1 SSTORE POP PUSH2 0x564 DUP1 PUSH2 0xB5 PUSH1 0x0 CODECOPY PUSH1 0x0 RETURN INVALID PUSH1 0x80 PUSH1 0x40 MSTORE CALLVALUE DUP1 ISZERO PUSH2 0x10 JUMPI PUSH1 0x0 DUP1 REVERT JUMPDEST POP PUSH1 0x4 CALLDATASIZE LT PUSH2 0x36 JUMPI PUSH1 0x0 CALLDATALOAD PUSH1 0xE0 SHR DUP1 PUSH4 0x9DFDE201 EQ PUSH2 0x3B JUMPI DUP1 PUSH4 0xC3C64674 EQ PUSH2 0x59 JUMPI JUMPDEST PUSH1 0x0 DUP1 REVERT JUMPDEST PUSH2 0x43 PUSH2 0x75 JUMP JUMPDEST PUSH1 0x40 MLOAD PUSH2 0x50 SWAP2 SWAP1 PUSH2 0x279 JUMP JUMPDEST PUSH1 0x40 MLOAD DUP1 SWAP2 SUB SWAP1 RETURN JUMPDEST PUSH2 0x73 PUSH1 0x4 DUP1 CALLDATASIZE SUB DUP2 ADD SWAP1 PUSH2 0x6E SWAP2 SWAP1 PUSH2 0x32F JUMP JUMPDEST PUSH2 0x149 JUMP JUMPDEST STOP JUMPDEST PUSH1 0x0 DUP1 SELFBALANCE SWAP1 POP PUSH1 0x0 DUP1 PUSH1 0x0 SWAP1 SLOAD SWAP1 PUSH2 0x100 EXP SWAP1 DIV PUSH20 0xFFFFFFFFFFFFFFFFFFFFFFFFFFFFFFFFFFFFFFFF AND PUSH20 0xFFFFFFFFFFFFFFFFFFFFFFFFFFFFFFFFFFFFFFFF AND PUSH4 0x18160DDD PUSH1 0x40 MLOAD DUP2 PUSH4 0xFFFFFFFF AND PUSH1 0xE0 SHL DUP2 MSTORE PUSH1 0x4 ADD PUSH1 0x20 PUSH1 0x40 MLOAD DUP1 DUP4 SUB DUP2 DUP7 GAS STATICCALL ISZERO DUP1 ISZERO PUSH2 0xE9 JUMPI RETURNDATASIZE PUSH1 0x0 DUP1 RETURNDATACOPY RETURNDATASIZE PUSH1 0x0 REVERT JUMPDEST POP POP POP POP PUSH1 0x40 MLOAD RETURNDATASIZE PUSH1 0x1F NOT PUSH1 0x1F DUP3 ADD AND DUP3 ADD DUP1 PUSH1 0x40 MSTORE POP DUP2 ADD SWAP1 PUSH2 0x10D SWAP2 SWAP1 PUSH2 0x39B JUMP JUMPDEST SWAP1 POP PUSH1 0x0 PUSH2 0x13E DUP3 PUSH2 0x130 DUP6 PUSH8 0xDE0B6B3A7640000 PUSH2 0x234 SWAP1 SWAP2 SWAP1 PUSH4 0xFFFFFFFF AND JUMP JUMPDEST PUSH2 0x24A SWAP1 SWAP2 SWAP1 PUSH4 0xFFFFFFFF AND JUMP JUMPDEST SWAP1 POP DUP1 SWAP4 POP POP POP POP SWAP1 JUMP JUMPDEST CALLER PUSH20 0xFFFFFFFFFFFFFFFFFFFFFFFFFFFFFFFFFFFFFFFF AND PUSH1 0x1 PUSH1 0x0 SWAP1 SLOAD SWAP1 PUSH2 0x100 EXP SWAP1 DIV PUSH20 0xFFFFFFFFFFFFFFFFFFFFFFFFFFFFFFFFFFFFFFFF AND PUSH20 0xFFFFFFFFFFFFFFFFFFFFFFFFFFFFFFFFFFFFFFFF AND EQ PUSH2 0x1D9 JUMPI PUSH1 0x40 MLOAD PUSH32 0x8C379A000000000000000000000000000000000000000000000000000000000 DUP2 MSTORE PUSH1 0x4 ADD PUSH2 0x1D0 SWAP1 PUSH2 0x425 JUMP JUMPDEST PUSH1 0x40 MLOAD DUP1 SWAP2 SUB SWAP1 REVERT JUMPDEST DUP1 PUSH1 0x2 PUSH1 0x0 DUP5 PUSH20 0xFFFFFFFFFFFFFFFFFFFFFFFFFFFFFFFFFFFFFFFF AND PUSH20 0xFFFFFFFFFFFFFFFFFFFFFFFFFFFFFFFFFFFFFFFF AND DUP2 MSTORE PUSH1 0x20 ADD SWAP1 DUP2 MSTORE PUSH1 0x20 ADD PUSH1 0x0 KECCAK256 PUSH1 0x0 PUSH2 0x100 EXP DUP2 SLOAD DUP2 PUSH1 0xFF MUL NOT AND SWAP1 DUP4 ISZERO ISZERO MUL OR SWAP1 SSTORE POP POP POP JUMP JUMPDEST PUSH1 0x0 DUP2 DUP4 PUSH2 0x242 SWAP2 SWAP1 PUSH2 0x474 JUMP JUMPDEST SWAP1 POP SWAP3 SWAP2 POP POP JUMP JUMPDEST PUSH1 0x0 DUP2 DUP4 PUSH2 0x258 SWAP2 SWAP1 PUSH2 0x4FD JUMP JUMPDEST SWAP1 POP SWAP3 SWAP2 POP POP JUMP JUMPDEST PUSH1 0x0 DUP2 SWAP1 POP SWAP2 SWAP1 POP JUMP JUMPDEST PUSH2 0x273 DUP2 PUSH2 0x260 JUMP JUMPDEST DUP3 MSTORE POP POP JUMP JUMPDEST PUSH1 0x0 PUSH1 0x20 DUP3 ADD SWAP1 POP PUSH2 0x28E PUSH1 0x0 DUP4 ADD DUP5 PUSH2 0x26A JUMP JUMPDEST SWAP3 SWAP2 POP POP JUMP JUMPDEST PUSH1 0x0 DUP1 REVERT JUMPDEST PUSH1 0x0 PUSH20 0xFFFFFFFFFFFFFFFFFFFFFFFFFFFFFFFFFFFFFFFF DUP3 AND SWAP1 POP SWAP2 SWAP1 POP JUMP JUMPDEST PUSH1 0x0 PUSH2 0x2C4 DUP3 PUSH2 0x299 JUMP JUMPDEST SWAP1 POP SWAP2 SWAP1 POP JUMP JUMPDEST PUSH2 0x2D4 DUP2 PUSH2 0x2B9 JUMP JUMPDEST DUP2 EQ PUSH2 0x2DF JUMPI PUSH1 0x0 DUP1 REVERT JUMPDEST POP JUMP JUMPDEST PUSH1 0x0 DUP2 CALLDATALOAD SWAP1 POP PUSH2 0x2F1 DUP2 PUSH2 0x2CB JUMP JUMPDEST SWAP3 SWAP2 POP POP JUMP JUMPDEST PUSH1 0x0 DUP2 ISZERO ISZERO SWAP1 POP SWAP2 SWAP1 POP JUMP JUMPDEST PUSH2 0x30C DUP2 PUSH2 0x2F7 JUMP JUMPDEST DUP2 EQ PUSH2 0x317 JUMPI PUSH1 0x0 DUP1 REVERT JUMPDEST POP JUMP JUMPDEST PUSH1 0x0 DUP2 CALLDATALOAD SWAP1 POP PUSH2 0x329 DUP2 PUSH2 0x303 JUMP JUMPDEST SWAP3 SWAP2 POP POP JUMP JUMPDEST PUSH1 0x0 DUP1 PUSH1 0x40 DUP4 DUP6 SUB SLT ISZERO PUSH2 0x346 JUMPI PUSH2 0x345 PUSH2 0x294 JUMP JUMPDEST JUMPDEST PUSH1 0x0 PUSH2 0x354 DUP6 DUP3 DUP7 ADD PUSH2 0x2E2 JUMP JUMPDEST SWAP3 POP POP PUSH1 0x20 PUSH2 0x365 DUP6 DUP3 DUP7 ADD PUSH2 0x31A JUMP JUMPDEST SWAP2 POP POP SWAP3 POP SWAP3 SWAP1 POP JUMP JUMPDEST PUSH2 0x378 DUP2 PUSH2 0x260 JUMP JUMPDEST DUP2 EQ PUSH2 0x383 JUMPI PUSH1 0x0 DUP1 REVERT JUMPDEST POP JUMP JUMPDEST PUSH1 0x0 DUP2 MLOAD SWAP1 POP PUSH2 0x395 DUP2 PUSH2 0x36F JUMP JUMPDEST SWAP3 SWAP2 POP POP JUMP JUMPDEST PUSH1 0x0 PUSH1 0x20 DUP3 DUP5 SUB SLT ISZERO PUSH2 0x3B1 JUMPI PUSH2 0x3B0 PUSH2 0x294 JUMP JUMPDEST JUMPDEST PUSH1 0x0 PUSH2 0x3BF DUP5 DUP3 DUP6 ADD PUSH2 0x386 JUMP JUMPDEST SWAP2 POP POP SWAP3 SWAP2 POP POP JUMP JUMPDEST PUSH1 0x0 DUP3 DUP3 MSTORE PUSH1 0x20 DUP3 ADD SWAP1 POP SWAP3 SWAP2 POP POP JUMP JUMPDEST PUSH32 0x4F776E61626C653A2063616C6C6572206973206E6F7420746865206F776E6572 PUSH1 0x0 DUP3 ADD MSTORE POP JUMP JUMPDEST PUSH1 0x0 PUSH2 0x40F PUSH1 0x20 DUP4 PUSH2 0x3C8 JUMP JUMPDEST SWAP2 POP PUSH2 0x41A DUP3 PUSH2 0x3D9 JUMP JUMPDEST PUSH1 0x20 DUP3 ADD SWAP1 POP SWAP2 SWAP1 POP JUMP JUMPDEST PUSH1 0x0 PUSH1 0x20 DUP3 ADD SWAP1 POP DUP2 DUP2 SUB PUSH1 0x0 DUP4 ADD MSTORE PUSH2 0x43E DUP2 PUSH2 0x402 JUMP JUMPDEST SWAP1 POP SWAP2 SWAP1 POP JUMP JUMPDEST PUSH32 0x4E487B7100000000000000000000000000000000000000000000000000000000 PUSH1 0x0 MSTORE PUSH1 0x11 PUSH1 0x4 MSTORE PUSH1 0x24 PUSH1 0x0 REVERT JUMPDEST PUSH1 0x0 PUSH2 0x47F DUP3 PUSH2 0x260 JUMP JUMPDEST SWAP2 POP PUSH2 0x48A DUP4 PUSH2 0x260 JUMP JUMPDEST SWAP3 POP DUP2 PUSH32 0xFFFFFFFFFFFFFFFFFFFFFFFFFFFFFFFFFFFFFFFFFFFFFFFFFFFFFFFFFFFFFFFF DIV DUP4 GT DUP3 ISZERO ISZERO AND ISZERO PUSH2 0x4C3 JUMPI PUSH2 0x4C2 PUSH2 0x445 JUMP JUMPDEST JUMPDEST DUP3 DUP3 MUL SWAP1 POP SWAP3 SWAP2 POP POP JUMP JUMPDEST PUSH32 0x4E487B7100000000000000000000000000000000000000000000000000000000 PUSH1 0x0 MSTORE PUSH1 0x12 PUSH1 0x4 MSTORE PUSH1 0x24 PUSH1 0x0 REVERT JUMPDEST PUSH1 0x0 PUSH2 0x508 DUP3 PUSH2 0x260 JUMP JUMPDEST SWAP2 POP PUSH2 0x513 DUP4 PUSH2 0x260 JUMP JUMPDEST SWAP3 POP DUP3 PUSH2 0x523 JUMPI PUSH2 0x522 PUSH2 0x4CE JUMP JUMPDEST JUMPDEST DUP3 DUP3 DIV SWAP1 POP SWAP3 SWAP2 POP POP JUMP INVALID LOG2 PUSH5 0x6970667358 0x22 SLT KECCAK256 0xB2 GASLIMIT PUSH4 0x2B706CD1 0xEC EXTCODESIZE 0xEC DUP11 0xCE LOG2 0x25 0xD5 PUSH32 0x6D93B73D0A1EDF25F615BCD2AA884CCA64736F6C634300080E00330000000000 "
				},
				"gasEstimates": {
					"creation": {
						"codeDepositCost": "276000",
						"executionCost": "48851",
						"totalCost": "324851"
					},
					"external": {
						"Price()": "infinite",
						"setRouter(address,bool)": "27161"
					}
				},
				"methodIdentifiers": {
					"Price()": "9dfde201",
					"setRouter(address,bool)": "c3c64674"
				}
			},
			"storageLayout": {
				"storage": [
					{
						"astId": 402,
						"contract": "Dcoffer/treasury.sol:treasury",
						"label": "dcoff",
						"offset": 0,
						"slot": "0",
						"type": "t_contract(IERC20)77"
					},
					{
						"astId": 413,
						"contract": "Dcoffer/treasury.sol:treasury",
						"label": "owner",
						"offset": 0,
						"slot": "1",
						"type": "t_address"
					},
					{
						"astId": 417,
						"contract": "Dcoffer/treasury.sol:treasury",
						"label": "RouterAdmin",
						"offset": 0,
						"slot": "2",
						"type": "t_mapping(t_address,t_bool)"
					}
				],
				"types": {
					"t_address": {
						"encoding": "inplace",
						"label": "address",
						"numberOfBytes": "20"
					},
					"t_bool": {
						"encoding": "inplace",
						"label": "bool",
						"numberOfBytes": "1"
					},
					"t_contract(IERC20)77": {
						"encoding": "inplace",
						"label": "contract IERC20",
						"numberOfBytes": "20"
					},
					"t_mapping(t_address,t_bool)": {
						"encoding": "mapping",
						"key": "t_address",
						"label": "mapping(address => bool)",
						"numberOfBytes": "32",
						"value": "t_bool"
					}
				}
			},
			"userdoc": {
				"kind": "user",
				"methods": {},
				"version": 1
			}
		}
	}
}