{
	"Dcoffer/treasury.sol": {
		"treasury": {
			"abi": [
				{
					"inputs": [
						{
							"internalType": "uint256",
							"name": "_k",
							"type": "uint256"
						}
					],
					"stateMutability": "payable",
					"type": "constructor"
				},
				{
					"inputs": [
						{
							"internalType": "uint256",
							"name": "dcf_amount",
							"type": "uint256"
						}
					],
					"name": "DCFETH",
					"outputs": [
						{
							"internalType": "uint256",
							"name": "",
							"type": "uint256"
						}
					],
					"stateMutability": "view",
					"type": "function"
				},
				{
					"inputs": [
						{
							"internalType": "uint256",
							"name": "dcf_amount",
							"type": "uint256"
						}
					],
					"name": "DcfPrice",
					"outputs": [
						{
							"internalType": "uint256",
							"name": "",
							"type": "uint256"
						}
					],
					"stateMutability": "view",
					"type": "function"
				},
				{
					"inputs": [
						{
							"internalType": "address",
							"name": "user",
							"type": "address"
						},
						{
							"internalType": "bool",
							"name": "power",
							"type": "bool"
						}
					],
					"name": "setRouter",
					"outputs": [],
					"stateMutability": "nonpayable",
					"type": "function"
				}
			],
			"devdoc": {
				"kind": "dev",
				"methods": {},
				"version": 1
			},
			"evm": {
				"assembly": "    /* \"Dcoffer/treasury.sol\":181:1464  contract treasury  {... */\n  mstore(0x40, 0x80)\n    /* \"Dcoffer/treasury.sol\":260:302  0xd14ff067355Ce838A6e110bDFb672DbEc83cA23C */\n  0xd14ff067355ce838a6e110bdfb672dbec83ca23c\n    /* \"Dcoffer/treasury.sol\":237:303  IERC20 dcoff =  IERC20(0xd14ff067355Ce838A6e110bDFb672DbEc83cA23C) */\n  0x00\n  dup1\n  0x0100\n  exp\n  dup2\n  sload\n  dup2\n  0xffffffffffffffffffffffffffffffffffffffff\n  mul\n  not\n  and\n  swap1\n  dup4\n  0xffffffffffffffffffffffffffffffffffffffff\n  and\n  mul\n  or\n  swap1\n  sstore\n  pop\n    /* \"Dcoffer/treasury.sol\":334:405  constructor(uint _k)payable{... */\n  mload(0x40)\n  sub(codesize, bytecodeSize)\n  dup1\n  bytecodeSize\n  dup4\n  codecopy\n  dup2\n  dup2\n  add\n  0x40\n  mstore\n  dup2\n  add\n  swap1\n  tag_1\n  swap2\n  swap1\n  tag_2\n  jump\t// in\ntag_1:\n    /* \"Dcoffer/treasury.sol\":376:386  msg.sender */\n  caller\n    /* \"Dcoffer/treasury.sol\":368:373  owner */\n  0x02\n  0x00\n    /* \"Dcoffer/treasury.sol\":368:386  owner = msg.sender */\n  0x0100\n  exp\n  dup2\n  sload\n  dup2\n  0xffffffffffffffffffffffffffffffffffffffff\n  mul\n  not\n  and\n  swap1\n  dup4\n  0xffffffffffffffffffffffffffffffffffffffff\n  and\n  mul\n  or\n  swap1\n  sstore\n  pop\n    /* \"Dcoffer/treasury.sol\":397:399  _k */\n  dup1\n    /* \"Dcoffer/treasury.sol\":393:394  K */\n  0x01\n    /* \"Dcoffer/treasury.sol\":393:399  K = _k */\n  dup2\n  swap1\n  sstore\n  pop\n    /* \"Dcoffer/treasury.sol\":334:405  constructor(uint _k)payable{... */\n  pop\n    /* \"Dcoffer/treasury.sol\":181:1464  contract treasury  {... */\n  jump(tag_5)\n    /* \"#utility.yul\":88:205   */\ntag_7:\n    /* \"#utility.yul\":197:198   */\n  0x00\n    /* \"#utility.yul\":194:195   */\n  dup1\n    /* \"#utility.yul\":187:199   */\n  revert\n    /* \"#utility.yul\":334:411   */\ntag_9:\n    /* \"#utility.yul\":371:378   */\n  0x00\n    /* \"#utility.yul\":400:405   */\n  dup2\n    /* \"#utility.yul\":389:405   */\n  swap1\n  pop\n    /* \"#utility.yul\":334:411   */\n  swap2\n  swap1\n  pop\n  jump\t// out\n    /* \"#utility.yul\":417:539   */\ntag_10:\n    /* \"#utility.yul\":490:514   */\n  tag_18\n    /* \"#utility.yul\":508:513   */\n  dup2\n    /* \"#utility.yul\":490:514   */\n  tag_9\n  jump\t// in\ntag_18:\n    /* \"#utility.yul\":483:488   */\n  dup2\n    /* \"#utility.yul\":480:515   */\n  eq\n    /* \"#utility.yul\":470:533   */\n  tag_19\n  jumpi\n    /* \"#utility.yul\":529:530   */\n  0x00\n    /* \"#utility.yul\":526:527   */\n  dup1\n    /* \"#utility.yul\":519:531   */\n  revert\n    /* \"#utility.yul\":470:533   */\ntag_19:\n    /* \"#utility.yul\":417:539   */\n  pop\n  jump\t// out\n    /* \"#utility.yul\":545:688   */\ntag_11:\n    /* \"#utility.yul\":602:607   */\n  0x00\n    /* \"#utility.yul\":633:639   */\n  dup2\n    /* \"#utility.yul\":627:640   */\n  mload\n    /* \"#utility.yul\":618:640   */\n  swap1\n  pop\n    /* \"#utility.yul\":649:682   */\n  tag_21\n    /* \"#utility.yul\":676:681   */\n  dup2\n    /* \"#utility.yul\":649:682   */\n  tag_10\n  jump\t// in\ntag_21:\n    /* \"#utility.yul\":545:688   */\n  swap3\n  swap2\n  pop\n  pop\n  jump\t// out\n    /* \"#utility.yul\":694:1045   */\ntag_2:\n    /* \"#utility.yul\":764:770   */\n  0x00\n    /* \"#utility.yul\":813:815   */\n  0x20\n    /* \"#utility.yul\":801:810   */\n  dup3\n    /* \"#utility.yul\":792:799   */\n  dup5\n    /* \"#utility.yul\":788:811   */\n  sub\n    /* \"#utility.yul\":784:816   */\n  slt\n    /* \"#utility.yul\":781:900   */\n  iszero\n  tag_23\n  jumpi\n    /* \"#utility.yul\":819:898   */\n  tag_24\n  tag_7\n  jump\t// in\ntag_24:\n    /* \"#utility.yul\":781:900   */\ntag_23:\n    /* \"#utility.yul\":939:940   */\n  0x00\n    /* \"#utility.yul\":964:1028   */\n  tag_25\n    /* \"#utility.yul\":1020:1027   */\n  dup5\n    /* \"#utility.yul\":1011:1017   */\n  dup3\n    /* \"#utility.yul\":1000:1009   */\n  dup6\n    /* \"#utility.yul\":996:1018   */\n  add\n    /* \"#utility.yul\":964:1028   */\n  tag_11\n  jump\t// in\ntag_25:\n    /* \"#utility.yul\":954:1028   */\n  swap2\n  pop\n    /* \"#utility.yul\":910:1038   */\n  pop\n    /* \"#utility.yul\":694:1045   */\n  swap3\n  swap2\n  pop\n  pop\n  jump\t// out\n    /* \"Dcoffer/treasury.sol\":181:1464  contract treasury  {... */\ntag_5:\n  dataSize(sub_0)\n  dup1\n  dataOffset(sub_0)\n  0x00\n  codecopy\n  0x00\n  return\nstop\n\nsub_0: assembly {\n        /* \"Dcoffer/treasury.sol\":181:1464  contract treasury  {... */\n      mstore(0x40, 0x80)\n      callvalue\n      dup1\n      iszero\n      tag_1\n      jumpi\n      0x00\n      dup1\n      revert\n    tag_1:\n      pop\n      jumpi(tag_2, lt(calldatasize, 0x04))\n      shr(0xe0, calldataload(0x00))\n      dup1\n      0x5d48403c\n      eq\n      tag_3\n      jumpi\n      dup1\n      0x8c8335f3\n      eq\n      tag_4\n      jumpi\n      dup1\n      0xc3c64674\n      eq\n      tag_5\n      jumpi\n    tag_2:\n      0x00\n      dup1\n      revert\n        /* \"Dcoffer/treasury.sol\":1085:1441  function DcfPrice(uint256 dcf_amount)public view returns(uint){... */\n    tag_3:\n      tag_6\n      0x04\n      dup1\n      calldatasize\n      sub\n      dup2\n      add\n      swap1\n      tag_7\n      swap2\n      swap1\n      tag_8\n      jump\t// in\n    tag_7:\n      tag_9\n      jump\t// in\n    tag_6:\n      mload(0x40)\n      tag_10\n      swap2\n      swap1\n      tag_11\n      jump\t// in\n    tag_10:\n      mload(0x40)\n      dup1\n      swap2\n      sub\n      swap1\n      return\n        /* \"Dcoffer/treasury.sol\":723:1077  function DCFETH(uint256 dcf_amount)public view returns(uint){... */\n    tag_4:\n      tag_12\n      0x04\n      dup1\n      calldatasize\n      sub\n      dup2\n      add\n      swap1\n      tag_13\n      swap2\n      swap1\n      tag_8\n      jump\t// in\n    tag_13:\n      tag_14\n      jump\t// in\n    tag_12:\n      mload(0x40)\n      tag_15\n      swap2\n      swap1\n      tag_11\n      jump\t// in\n    tag_15:\n      mload(0x40)\n      dup1\n      swap2\n      sub\n      swap1\n      return\n        /* \"Dcoffer/treasury.sol\":615:715  function setRouter(address user, bool power)external onlyOwner{... */\n    tag_5:\n      tag_16\n      0x04\n      dup1\n      calldatasize\n      sub\n      dup2\n      add\n      swap1\n      tag_17\n      swap2\n      swap1\n      tag_18\n      jump\t// in\n    tag_17:\n      tag_19\n      jump\t// in\n    tag_16:\n      stop\n        /* \"Dcoffer/treasury.sol\":1085:1441  function DcfPrice(uint256 dcf_amount)public view returns(uint){... */\n    tag_9:\n        /* \"Dcoffer/treasury.sol\":1142:1146  uint */\n      0x00\n        /* \"Dcoffer/treasury.sol\":1154:1173  uint256 _eth_amount */\n      dup1\n        /* \"Dcoffer/treasury.sol\":1176:1197  address(this).balance */\n      selfbalance\n        /* \"Dcoffer/treasury.sol\":1154:1197  uint256 _eth_amount = address(this).balance */\n      swap1\n      pop\n        /* \"Dcoffer/treasury.sol\":1204:1223  uint256 _dcf_amount */\n      0x00\n        /* \"Dcoffer/treasury.sol\":1226:1231  dcoff */\n      dup1\n      0x00\n      swap1\n      sload\n      swap1\n      0x0100\n      exp\n      swap1\n      div\n      0xffffffffffffffffffffffffffffffffffffffff\n      and\n        /* \"Dcoffer/treasury.sol\":1226:1241  dcoff.balanceOf */\n      0xffffffffffffffffffffffffffffffffffffffff\n      and\n      0x70a08231\n        /* \"Dcoffer/treasury.sol\":1250:1254  this */\n      address\n        /* \"Dcoffer/treasury.sol\":1226:1256  dcoff.balanceOf(address(this)) */\n      mload(0x40)\n      dup3\n      0xffffffff\n      and\n      0xe0\n      shl\n      dup2\n      mstore\n      0x04\n      add\n      tag_21\n      swap2\n      swap1\n      tag_22\n      jump\t// in\n    tag_21:\n      0x20\n      mload(0x40)\n      dup1\n      dup4\n      sub\n      dup2\n      dup7\n      gas\n      staticcall\n      iszero\n      dup1\n      iszero\n      tag_24\n      jumpi\n      returndatasize\n      0x00\n      dup1\n      returndatacopy\n      revert(0x00, returndatasize)\n    tag_24:\n      pop\n      pop\n      pop\n      pop\n      mload(0x40)\n      returndatasize\n      not(0x1f)\n      0x1f\n      dup3\n      add\n      and\n      dup3\n      add\n      dup1\n      0x40\n      mstore\n      pop\n      dup2\n      add\n      swap1\n      tag_25\n      swap2\n      swap1\n      tag_26\n      jump\t// in\n    tag_25:\n        /* \"Dcoffer/treasury.sol\":1204:1256  uint256 _dcf_amount = dcoff.balanceOf(address(this)) */\n      swap1\n      pop\n        /* \"Dcoffer/treasury.sol\":1263:1283  uint256 Variable_dcf */\n      0x00\n        /* \"Dcoffer/treasury.sol\":1286:1313  _dcf_amount.add(dcf_amount) */\n      tag_27\n        /* \"Dcoffer/treasury.sol\":1302:1312  dcf_amount */\n      dup6\n        /* \"Dcoffer/treasury.sol\":1286:1297  _dcf_amount */\n      dup4\n        /* \"Dcoffer/treasury.sol\":1286:1301  _dcf_amount.add */\n      tag_28\n      swap1\n        /* \"Dcoffer/treasury.sol\":1286:1313  _dcf_amount.add(dcf_amount) */\n      swap2\n      swap1\n      0xffffffff\n      and\n      jump\t// in\n    tag_27:\n        /* \"Dcoffer/treasury.sol\":1263:1313  uint256 Variable_dcf = _dcf_amount.add(dcf_amount) */\n      swap1\n      pop\n        /* \"Dcoffer/treasury.sol\":1320:1340  uint256 Variable_eth */\n      0x00\n        /* \"Dcoffer/treasury.sol\":1343:1362  K.div(Variable_dcf) */\n      tag_29\n        /* \"Dcoffer/treasury.sol\":1349:1361  Variable_dcf */\n      dup3\n        /* \"Dcoffer/treasury.sol\":1343:1344  K */\n      sload(0x01)\n        /* \"Dcoffer/treasury.sol\":1343:1348  K.div */\n      tag_30\n      swap1\n        /* \"Dcoffer/treasury.sol\":1343:1362  K.div(Variable_dcf) */\n      swap2\n      swap1\n      0xffffffff\n      and\n      jump\t// in\n    tag_29:\n        /* \"Dcoffer/treasury.sol\":1320:1362  uint256 Variable_eth = K.div(Variable_dcf) */\n      swap1\n      pop\n        /* \"Dcoffer/treasury.sol\":1369:1383  uint256 _price */\n      0x00\n        /* \"Dcoffer/treasury.sol\":1386:1415  _eth_amount.sub(Variable_eth) */\n      tag_31\n        /* \"Dcoffer/treasury.sol\":1402:1414  Variable_eth */\n      dup3\n        /* \"Dcoffer/treasury.sol\":1386:1397  _eth_amount */\n      dup7\n        /* \"Dcoffer/treasury.sol\":1386:1401  _eth_amount.sub */\n      tag_32\n      swap1\n        /* \"Dcoffer/treasury.sol\":1386:1415  _eth_amount.sub(Variable_eth) */\n      swap2\n      swap1\n      0xffffffff\n      and\n      jump\t// in\n    tag_31:\n        /* \"Dcoffer/treasury.sol\":1369:1415  uint256 _price = _eth_amount.sub(Variable_eth) */\n      swap1\n      pop\n        /* \"Dcoffer/treasury.sol\":1429:1435  _price */\n      dup1\n        /* \"Dcoffer/treasury.sol\":1422:1435  return _price */\n      swap6\n      pop\n      pop\n      pop\n      pop\n      pop\n      pop\n        /* \"Dcoffer/treasury.sol\":1085:1441  function DcfPrice(uint256 dcf_amount)public view returns(uint){... */\n      swap2\n      swap1\n      pop\n      jump\t// out\n        /* \"Dcoffer/treasury.sol\":723:1077  function DCFETH(uint256 dcf_amount)public view returns(uint){... */\n    tag_14:\n        /* \"Dcoffer/treasury.sol\":778:782  uint */\n      0x00\n        /* \"Dcoffer/treasury.sol\":790:809  uint256 _eth_amount */\n      dup1\n        /* \"Dcoffer/treasury.sol\":812:833  address(this).balance */\n      selfbalance\n        /* \"Dcoffer/treasury.sol\":790:833  uint256 _eth_amount = address(this).balance */\n      swap1\n      pop\n        /* \"Dcoffer/treasury.sol\":840:859  uint256 _dcf_amount */\n      0x00\n        /* \"Dcoffer/treasury.sol\":862:867  dcoff */\n      dup1\n      0x00\n      swap1\n      sload\n      swap1\n      0x0100\n      exp\n      swap1\n      div\n      0xffffffffffffffffffffffffffffffffffffffff\n      and\n        /* \"Dcoffer/treasury.sol\":862:877  dcoff.balanceOf */\n      0xffffffffffffffffffffffffffffffffffffffff\n      and\n      0x70a08231\n        /* \"Dcoffer/treasury.sol\":886:890  this */\n      address\n        /* \"Dcoffer/treasury.sol\":862:892  dcoff.balanceOf(address(this)) */\n      mload(0x40)\n      dup3\n      0xffffffff\n      and\n      0xe0\n      shl\n      dup2\n      mstore\n      0x04\n      add\n      tag_34\n      swap2\n      swap1\n      tag_22\n      jump\t// in\n    tag_34:\n      0x20\n      mload(0x40)\n      dup1\n      dup4\n      sub\n      dup2\n      dup7\n      gas\n      staticcall\n      iszero\n      dup1\n      iszero\n      tag_36\n      jumpi\n      returndatasize\n      0x00\n      dup1\n      returndatacopy\n      revert(0x00, returndatasize)\n    tag_36:\n      pop\n      pop\n      pop\n      pop\n      mload(0x40)\n      returndatasize\n      not(0x1f)\n      0x1f\n      dup3\n      add\n      and\n      dup3\n      add\n      dup1\n      0x40\n      mstore\n      pop\n      dup2\n      add\n      swap1\n      tag_37\n      swap2\n      swap1\n      tag_26\n      jump\t// in\n    tag_37:\n        /* \"Dcoffer/treasury.sol\":840:892  uint256 _dcf_amount = dcoff.balanceOf(address(this)) */\n      swap1\n      pop\n        /* \"Dcoffer/treasury.sol\":899:919  uint256 Variable_dcf */\n      0x00\n        /* \"Dcoffer/treasury.sol\":922:949  _dcf_amount.add(dcf_amount) */\n      tag_38\n        /* \"Dcoffer/treasury.sol\":938:948  dcf_amount */\n      dup6\n        /* \"Dcoffer/treasury.sol\":922:933  _dcf_amount */\n      dup4\n        /* \"Dcoffer/treasury.sol\":922:937  _dcf_amount.add */\n      tag_28\n      swap1\n        /* \"Dcoffer/treasury.sol\":922:949  _dcf_amount.add(dcf_amount) */\n      swap2\n      swap1\n      0xffffffff\n      and\n      jump\t// in\n    tag_38:\n        /* \"Dcoffer/treasury.sol\":899:949  uint256 Variable_dcf = _dcf_amount.add(dcf_amount) */\n      swap1\n      pop\n        /* \"Dcoffer/treasury.sol\":956:976  uint256 Variable_eth */\n      0x00\n        /* \"Dcoffer/treasury.sol\":979:998  K.div(Variable_dcf) */\n      tag_39\n        /* \"Dcoffer/treasury.sol\":985:997  Variable_dcf */\n      dup3\n        /* \"Dcoffer/treasury.sol\":979:980  K */\n      sload(0x01)\n        /* \"Dcoffer/treasury.sol\":979:984  K.div */\n      tag_30\n      swap1\n        /* \"Dcoffer/treasury.sol\":979:998  K.div(Variable_dcf) */\n      swap2\n      swap1\n      0xffffffff\n      and\n      jump\t// in\n    tag_39:\n        /* \"Dcoffer/treasury.sol\":956:998  uint256 Variable_eth = K.div(Variable_dcf) */\n      swap1\n      pop\n        /* \"Dcoffer/treasury.sol\":1005:1019  uint256 _price */\n      0x00\n        /* \"Dcoffer/treasury.sol\":1022:1051  _eth_amount.sub(Variable_eth) */\n      tag_40\n        /* \"Dcoffer/treasury.sol\":1038:1050  Variable_eth */\n      dup3\n        /* \"Dcoffer/treasury.sol\":1022:1033  _eth_amount */\n      dup7\n        /* \"Dcoffer/treasury.sol\":1022:1037  _eth_amount.sub */\n      tag_32\n      swap1\n        /* \"Dcoffer/treasury.sol\":1022:1051  _eth_amount.sub(Variable_eth) */\n      swap2\n      swap1\n      0xffffffff\n      and\n      jump\t// in\n    tag_40:\n        /* \"Dcoffer/treasury.sol\":1005:1051  uint256 _price = _eth_amount.sub(Variable_eth) */\n      swap1\n      pop\n        /* \"Dcoffer/treasury.sol\":1065:1071  _price */\n      dup1\n        /* \"Dcoffer/treasury.sol\":1058:1071  return _price */\n      swap6\n      pop\n      pop\n      pop\n      pop\n      pop\n      pop\n        /* \"Dcoffer/treasury.sol\":723:1077  function DCFETH(uint256 dcf_amount)public view returns(uint){... */\n      swap2\n      swap1\n      pop\n      jump\t// out\n        /* \"Dcoffer/treasury.sol\":615:715  function setRouter(address user, bool power)external onlyOwner{... */\n    tag_19:\n        /* \"Dcoffer/treasury.sol\":528:538  msg.sender */\n      caller\n        /* \"Dcoffer/treasury.sol\":519:538  owner == msg.sender */\n      0xffffffffffffffffffffffffffffffffffffffff\n      and\n        /* \"Dcoffer/treasury.sol\":519:524  owner */\n      0x02\n      0x00\n      swap1\n      sload\n      swap1\n      0x0100\n      exp\n      swap1\n      div\n      0xffffffffffffffffffffffffffffffffffffffff\n      and\n        /* \"Dcoffer/treasury.sol\":519:538  owner == msg.sender */\n      0xffffffffffffffffffffffffffffffffffffffff\n      and\n      eq\n        /* \"Dcoffer/treasury.sol\":511:575  require(owner == msg.sender, \"Ownable: caller is not the owner\") */\n      tag_42\n      jumpi\n      mload(0x40)\n      0x08c379a000000000000000000000000000000000000000000000000000000000\n      dup2\n      mstore\n      0x04\n      add\n      tag_43\n      swap1\n      tag_44\n      jump\t// in\n    tag_43:\n      mload(0x40)\n      dup1\n      swap2\n      sub\n      swap1\n      revert\n    tag_42:\n        /* \"Dcoffer/treasury.sol\":704:709  power */\n      dup1\n        /* \"Dcoffer/treasury.sol\":684:695  RouterAdmin */\n      0x03\n        /* \"Dcoffer/treasury.sol\":684:701  RouterAdmin[user] */\n      0x00\n        /* \"Dcoffer/treasury.sol\":696:700  user */\n      dup5\n        /* \"Dcoffer/treasury.sol\":684:701  RouterAdmin[user] */\n      0xffffffffffffffffffffffffffffffffffffffff\n      and\n      0xffffffffffffffffffffffffffffffffffffffff\n      and\n      dup2\n      mstore\n      0x20\n      add\n      swap1\n      dup2\n      mstore\n      0x20\n      add\n      0x00\n      keccak256\n      0x00\n        /* \"Dcoffer/treasury.sol\":684:709  RouterAdmin[user] = power */\n      0x0100\n      exp\n      dup2\n      sload\n      dup2\n      0xff\n      mul\n      not\n      and\n      swap1\n      dup4\n      iszero\n      iszero\n      mul\n      or\n      swap1\n      sstore\n      pop\n        /* \"Dcoffer/treasury.sol\":615:715  function setRouter(address user, bool power)external onlyOwner{... */\n      pop\n      pop\n      jump\t// out\n        /* \"@openzeppelin/contracts/utils/math/SafeMath.sol\":2755:2851  function add(uint256 a, uint256 b) internal pure returns (uint256) {... */\n    tag_28:\n        /* \"@openzeppelin/contracts/utils/math/SafeMath.sol\":2813:2820  uint256 */\n      0x00\n        /* \"@openzeppelin/contracts/utils/math/SafeMath.sol\":2843:2844  b */\n      dup2\n        /* \"@openzeppelin/contracts/utils/math/SafeMath.sol\":2839:2840  a */\n      dup4\n        /* \"@openzeppelin/contracts/utils/math/SafeMath.sol\":2839:2844  a + b */\n      tag_47\n      swap2\n      swap1\n      tag_48\n      jump\t// in\n    tag_47:\n        /* \"@openzeppelin/contracts/utils/math/SafeMath.sol\":2832:2844  return a + b */\n      swap1\n      pop\n        /* \"@openzeppelin/contracts/utils/math/SafeMath.sol\":2755:2851  function add(uint256 a, uint256 b) internal pure returns (uint256) {... */\n      swap3\n      swap2\n      pop\n      pop\n      jump\t// out\n        /* \"@openzeppelin/contracts/utils/math/SafeMath.sol\":3850:3946  function div(uint256 a, uint256 b) internal pure returns (uint256) {... */\n    tag_30:\n        /* \"@openzeppelin/contracts/utils/math/SafeMath.sol\":3908:3915  uint256 */\n      0x00\n        /* \"@openzeppelin/contracts/utils/math/SafeMath.sol\":3938:3939  b */\n      dup2\n        /* \"@openzeppelin/contracts/utils/math/SafeMath.sol\":3934:3935  a */\n      dup4\n        /* \"@openzeppelin/contracts/utils/math/SafeMath.sol\":3934:3939  a / b */\n      tag_50\n      swap2\n      swap1\n      tag_51\n      jump\t// in\n    tag_50:\n        /* \"@openzeppelin/contracts/utils/math/SafeMath.sol\":3927:3939  return a / b */\n      swap1\n      pop\n        /* \"@openzeppelin/contracts/utils/math/SafeMath.sol\":3850:3946  function div(uint256 a, uint256 b) internal pure returns (uint256) {... */\n      swap3\n      swap2\n      pop\n      pop\n      jump\t// out\n        /* \"@openzeppelin/contracts/utils/math/SafeMath.sol\":3122:3218  function sub(uint256 a, uint256 b) internal pure returns (uint256) {... */\n    tag_32:\n        /* \"@openzeppelin/contracts/utils/math/SafeMath.sol\":3180:3187  uint256 */\n      0x00\n        /* \"@openzeppelin/contracts/utils/math/SafeMath.sol\":3210:3211  b */\n      dup2\n        /* \"@openzeppelin/contracts/utils/math/SafeMath.sol\":3206:3207  a */\n      dup4\n        /* \"@openzeppelin/contracts/utils/math/SafeMath.sol\":3206:3211  a - b */\n      tag_53\n      swap2\n      swap1\n      tag_54\n      jump\t// in\n    tag_53:\n        /* \"@openzeppelin/contracts/utils/math/SafeMath.sol\":3199:3211  return a - b */\n      swap1\n      pop\n        /* \"@openzeppelin/contracts/utils/math/SafeMath.sol\":3122:3218  function sub(uint256 a, uint256 b) internal pure returns (uint256) {... */\n      swap3\n      swap2\n      pop\n      pop\n      jump\t// out\n        /* \"#utility.yul\":88:205   */\n    tag_56:\n        /* \"#utility.yul\":197:198   */\n      0x00\n        /* \"#utility.yul\":194:195   */\n      dup1\n        /* \"#utility.yul\":187:199   */\n      revert\n        /* \"#utility.yul\":334:411   */\n    tag_58:\n        /* \"#utility.yul\":371:378   */\n      0x00\n        /* \"#utility.yul\":400:405   */\n      dup2\n        /* \"#utility.yul\":389:405   */\n      swap1\n      pop\n        /* \"#utility.yul\":334:411   */\n      swap2\n      swap1\n      pop\n      jump\t// out\n        /* \"#utility.yul\":417:539   */\n    tag_59:\n        /* \"#utility.yul\":490:514   */\n      tag_82\n        /* \"#utility.yul\":508:513   */\n      dup2\n        /* \"#utility.yul\":490:514   */\n      tag_58\n      jump\t// in\n    tag_82:\n        /* \"#utility.yul\":483:488   */\n      dup2\n        /* \"#utility.yul\":480:515   */\n      eq\n        /* \"#utility.yul\":470:533   */\n      tag_83\n      jumpi\n        /* \"#utility.yul\":529:530   */\n      0x00\n        /* \"#utility.yul\":526:527   */\n      dup1\n        /* \"#utility.yul\":519:531   */\n      revert\n        /* \"#utility.yul\":470:533   */\n    tag_83:\n        /* \"#utility.yul\":417:539   */\n      pop\n      jump\t// out\n        /* \"#utility.yul\":545:684   */\n    tag_60:\n        /* \"#utility.yul\":591:596   */\n      0x00\n        /* \"#utility.yul\":629:635   */\n      dup2\n        /* \"#utility.yul\":616:636   */\n      calldataload\n        /* \"#utility.yul\":607:636   */\n      swap1\n      pop\n        /* \"#utility.yul\":645:678   */\n      tag_85\n        /* \"#utility.yul\":672:677   */\n      dup2\n        /* \"#utility.yul\":645:678   */\n      tag_59\n      jump\t// in\n    tag_85:\n        /* \"#utility.yul\":545:684   */\n      swap3\n      swap2\n      pop\n      pop\n      jump\t// out\n        /* \"#utility.yul\":690:1019   */\n    tag_8:\n        /* \"#utility.yul\":749:755   */\n      0x00\n        /* \"#utility.yul\":798:800   */\n      0x20\n        /* \"#utility.yul\":786:795   */\n      dup3\n        /* \"#utility.yul\":777:784   */\n      dup5\n        /* \"#utility.yul\":773:796   */\n      sub\n        /* \"#utility.yul\":769:801   */\n      slt\n        /* \"#utility.yul\":766:885   */\n      iszero\n      tag_87\n      jumpi\n        /* \"#utility.yul\":804:883   */\n      tag_88\n      tag_56\n      jump\t// in\n    tag_88:\n        /* \"#utility.yul\":766:885   */\n    tag_87:\n        /* \"#utility.yul\":924:925   */\n      0x00\n        /* \"#utility.yul\":949:1002   */\n      tag_89\n        /* \"#utility.yul\":994:1001   */\n      dup5\n        /* \"#utility.yul\":985:991   */\n      dup3\n        /* \"#utility.yul\":974:983   */\n      dup6\n        /* \"#utility.yul\":970:992   */\n      add\n        /* \"#utility.yul\":949:1002   */\n      tag_60\n      jump\t// in\n    tag_89:\n        /* \"#utility.yul\":939:1002   */\n      swap2\n      pop\n        /* \"#utility.yul\":895:1012   */\n      pop\n        /* \"#utility.yul\":690:1019   */\n      swap3\n      swap2\n      pop\n      pop\n      jump\t// out\n        /* \"#utility.yul\":1025:1143   */\n    tag_61:\n        /* \"#utility.yul\":1112:1136   */\n      tag_91\n        /* \"#utility.yul\":1130:1135   */\n      dup2\n        /* \"#utility.yul\":1112:1136   */\n      tag_58\n      jump\t// in\n    tag_91:\n        /* \"#utility.yul\":1107:1110   */\n      dup3\n        /* \"#utility.yul\":1100:1137   */\n      mstore\n        /* \"#utility.yul\":1025:1143   */\n      pop\n      pop\n      jump\t// out\n        /* \"#utility.yul\":1149:1371   */\n    tag_11:\n        /* \"#utility.yul\":1242:1246   */\n      0x00\n        /* \"#utility.yul\":1280:1282   */\n      0x20\n        /* \"#utility.yul\":1269:1278   */\n      dup3\n        /* \"#utility.yul\":1265:1283   */\n      add\n        /* \"#utility.yul\":1257:1283   */\n      swap1\n      pop\n        /* \"#utility.yul\":1293:1364   */\n      tag_93\n        /* \"#utility.yul\":1361:1362   */\n      0x00\n        /* \"#utility.yul\":1350:1359   */\n      dup4\n        /* \"#utility.yul\":1346:1363   */\n      add\n        /* \"#utility.yul\":1337:1343   */\n      dup5\n        /* \"#utility.yul\":1293:1364   */\n      tag_61\n      jump\t// in\n    tag_93:\n        /* \"#utility.yul\":1149:1371   */\n      swap3\n      swap2\n      pop\n      pop\n      jump\t// out\n        /* \"#utility.yul\":1377:1503   */\n    tag_62:\n        /* \"#utility.yul\":1414:1421   */\n      0x00\n        /* \"#utility.yul\":1454:1496   */\n      0xffffffffffffffffffffffffffffffffffffffff\n        /* \"#utility.yul\":1447:1452   */\n      dup3\n        /* \"#utility.yul\":1443:1497   */\n      and\n        /* \"#utility.yul\":1432:1497   */\n      swap1\n      pop\n        /* \"#utility.yul\":1377:1503   */\n      swap2\n      swap1\n      pop\n      jump\t// out\n        /* \"#utility.yul\":1509:1605   */\n    tag_63:\n        /* \"#utility.yul\":1546:1553   */\n      0x00\n        /* \"#utility.yul\":1575:1599   */\n      tag_96\n        /* \"#utility.yul\":1593:1598   */\n      dup3\n        /* \"#utility.yul\":1575:1599   */\n      tag_62\n      jump\t// in\n    tag_96:\n        /* \"#utility.yul\":1564:1599   */\n      swap1\n      pop\n        /* \"#utility.yul\":1509:1605   */\n      swap2\n      swap1\n      pop\n      jump\t// out\n        /* \"#utility.yul\":1611:1733   */\n    tag_64:\n        /* \"#utility.yul\":1684:1708   */\n      tag_98\n        /* \"#utility.yul\":1702:1707   */\n      dup2\n        /* \"#utility.yul\":1684:1708   */\n      tag_63\n      jump\t// in\n    tag_98:\n        /* \"#utility.yul\":1677:1682   */\n      dup2\n        /* \"#utility.yul\":1674:1709   */\n      eq\n        /* \"#utility.yul\":1664:1727   */\n      tag_99\n      jumpi\n        /* \"#utility.yul\":1723:1724   */\n      0x00\n        /* \"#utility.yul\":1720:1721   */\n      dup1\n        /* \"#utility.yul\":1713:1725   */\n      revert\n        /* \"#utility.yul\":1664:1727   */\n    tag_99:\n        /* \"#utility.yul\":1611:1733   */\n      pop\n      jump\t// out\n        /* \"#utility.yul\":1739:1878   */\n    tag_65:\n        /* \"#utility.yul\":1785:1790   */\n      0x00\n        /* \"#utility.yul\":1823:1829   */\n      dup2\n        /* \"#utility.yul\":1810:1830   */\n      calldataload\n        /* \"#utility.yul\":1801:1830   */\n      swap1\n      pop\n        /* \"#utility.yul\":1839:1872   */\n      tag_101\n        /* \"#utility.yul\":1866:1871   */\n      dup2\n        /* \"#utility.yul\":1839:1872   */\n      tag_64\n      jump\t// in\n    tag_101:\n        /* \"#utility.yul\":1739:1878   */\n      swap3\n      swap2\n      pop\n      pop\n      jump\t// out\n        /* \"#utility.yul\":1884:1974   */\n    tag_66:\n        /* \"#utility.yul\":1918:1925   */\n      0x00\n        /* \"#utility.yul\":1961:1966   */\n      dup2\n        /* \"#utility.yul\":1954:1967   */\n      iszero\n        /* \"#utility.yul\":1947:1968   */\n      iszero\n        /* \"#utility.yul\":1936:1968   */\n      swap1\n      pop\n        /* \"#utility.yul\":1884:1974   */\n      swap2\n      swap1\n      pop\n      jump\t// out\n        /* \"#utility.yul\":1980:2096   */\n    tag_67:\n        /* \"#utility.yul\":2050:2071   */\n      tag_104\n        /* \"#utility.yul\":2065:2070   */\n      dup2\n        /* \"#utility.yul\":2050:2071   */\n      tag_66\n      jump\t// in\n    tag_104:\n        /* \"#utility.yul\":2043:2048   */\n      dup2\n        /* \"#utility.yul\":2040:2072   */\n      eq\n        /* \"#utility.yul\":2030:2090   */\n      tag_105\n      jumpi\n        /* \"#utility.yul\":2086:2087   */\n      0x00\n        /* \"#utility.yul\":2083:2084   */\n      dup1\n        /* \"#utility.yul\":2076:2088   */\n      revert\n        /* \"#utility.yul\":2030:2090   */\n    tag_105:\n        /* \"#utility.yul\":1980:2096   */\n      pop\n      jump\t// out\n        /* \"#utility.yul\":2102:2235   */\n    tag_68:\n        /* \"#utility.yul\":2145:2150   */\n      0x00\n        /* \"#utility.yul\":2183:2189   */\n      dup2\n        /* \"#utility.yul\":2170:2190   */\n      calldataload\n        /* \"#utility.yul\":2161:2190   */\n      swap1\n      pop\n        /* \"#utility.yul\":2199:2229   */\n      tag_107\n        /* \"#utility.yul\":2223:2228   */\n      dup2\n        /* \"#utility.yul\":2199:2229   */\n      tag_67\n      jump\t// in\n    tag_107:\n        /* \"#utility.yul\":2102:2235   */\n      swap3\n      swap2\n      pop\n      pop\n      jump\t// out\n        /* \"#utility.yul\":2241:2709   */\n    tag_18:\n        /* \"#utility.yul\":2306:2312   */\n      0x00\n        /* \"#utility.yul\":2314:2320   */\n      dup1\n        /* \"#utility.yul\":2363:2365   */\n      0x40\n        /* \"#utility.yul\":2351:2360   */\n      dup4\n        /* \"#utility.yul\":2342:2349   */\n      dup6\n        /* \"#utility.yul\":2338:2361   */\n      sub\n        /* \"#utility.yul\":2334:2366   */\n      slt\n        /* \"#utility.yul\":2331:2450   */\n      iszero\n      tag_109\n      jumpi\n        /* \"#utility.yul\":2369:2448   */\n      tag_110\n      tag_56\n      jump\t// in\n    tag_110:\n        /* \"#utility.yul\":2331:2450   */\n    tag_109:\n        /* \"#utility.yul\":2489:2490   */\n      0x00\n        /* \"#utility.yul\":2514:2567   */\n      tag_111\n        /* \"#utility.yul\":2559:2566   */\n      dup6\n        /* \"#utility.yul\":2550:2556   */\n      dup3\n        /* \"#utility.yul\":2539:2548   */\n      dup7\n        /* \"#utility.yul\":2535:2557   */\n      add\n        /* \"#utility.yul\":2514:2567   */\n      tag_65\n      jump\t// in\n    tag_111:\n        /* \"#utility.yul\":2504:2567   */\n      swap3\n      pop\n        /* \"#utility.yul\":2460:2577   */\n      pop\n        /* \"#utility.yul\":2616:2618   */\n      0x20\n        /* \"#utility.yul\":2642:2692   */\n      tag_112\n        /* \"#utility.yul\":2684:2691   */\n      dup6\n        /* \"#utility.yul\":2675:2681   */\n      dup3\n        /* \"#utility.yul\":2664:2673   */\n      dup7\n        /* \"#utility.yul\":2660:2682   */\n      add\n        /* \"#utility.yul\":2642:2692   */\n      tag_68\n      jump\t// in\n    tag_112:\n        /* \"#utility.yul\":2632:2692   */\n      swap2\n      pop\n        /* \"#utility.yul\":2587:2702   */\n      pop\n        /* \"#utility.yul\":2241:2709   */\n      swap3\n      pop\n      swap3\n      swap1\n      pop\n      jump\t// out\n        /* \"#utility.yul\":2715:2833   */\n    tag_69:\n        /* \"#utility.yul\":2802:2826   */\n      tag_114\n        /* \"#utility.yul\":2820:2825   */\n      dup2\n        /* \"#utility.yul\":2802:2826   */\n      tag_63\n      jump\t// in\n    tag_114:\n        /* \"#utility.yul\":2797:2800   */\n      dup3\n        /* \"#utility.yul\":2790:2827   */\n      mstore\n        /* \"#utility.yul\":2715:2833   */\n      pop\n      pop\n      jump\t// out\n        /* \"#utility.yul\":2839:3061   */\n    tag_22:\n        /* \"#utility.yul\":2932:2936   */\n      0x00\n        /* \"#utility.yul\":2970:2972   */\n      0x20\n        /* \"#utility.yul\":2959:2968   */\n      dup3\n        /* \"#utility.yul\":2955:2973   */\n      add\n        /* \"#utility.yul\":2947:2973   */\n      swap1\n      pop\n        /* \"#utility.yul\":2983:3054   */\n      tag_116\n        /* \"#utility.yul\":3051:3052   */\n      0x00\n        /* \"#utility.yul\":3040:3049   */\n      dup4\n        /* \"#utility.yul\":3036:3053   */\n      add\n        /* \"#utility.yul\":3027:3033   */\n      dup5\n        /* \"#utility.yul\":2983:3054   */\n      tag_69\n      jump\t// in\n    tag_116:\n        /* \"#utility.yul\":2839:3061   */\n      swap3\n      swap2\n      pop\n      pop\n      jump\t// out\n        /* \"#utility.yul\":3067:3210   */\n    tag_70:\n        /* \"#utility.yul\":3124:3129   */\n      0x00\n        /* \"#utility.yul\":3155:3161   */\n      dup2\n        /* \"#utility.yul\":3149:3162   */\n      mload\n        /* \"#utility.yul\":3140:3162   */\n      swap1\n      pop\n        /* \"#utility.yul\":3171:3204   */\n      tag_118\n        /* \"#utility.yul\":3198:3203   */\n      dup2\n        /* \"#utility.yul\":3171:3204   */\n      tag_59\n      jump\t// in\n    tag_118:\n        /* \"#utility.yul\":3067:3210   */\n      swap3\n      swap2\n      pop\n      pop\n      jump\t// out\n        /* \"#utility.yul\":3216:3567   */\n    tag_26:\n        /* \"#utility.yul\":3286:3292   */\n      0x00\n        /* \"#utility.yul\":3335:3337   */\n      0x20\n        /* \"#utility.yul\":3323:3332   */\n      dup3\n        /* \"#utility.yul\":3314:3321   */\n      dup5\n        /* \"#utility.yul\":3310:3333   */\n      sub\n        /* \"#utility.yul\":3306:3338   */\n      slt\n        /* \"#utility.yul\":3303:3422   */\n      iszero\n      tag_120\n      jumpi\n        /* \"#utility.yul\":3341:3420   */\n      tag_121\n      tag_56\n      jump\t// in\n    tag_121:\n        /* \"#utility.yul\":3303:3422   */\n    tag_120:\n        /* \"#utility.yul\":3461:3462   */\n      0x00\n        /* \"#utility.yul\":3486:3550   */\n      tag_122\n        /* \"#utility.yul\":3542:3549   */\n      dup5\n        /* \"#utility.yul\":3533:3539   */\n      dup3\n        /* \"#utility.yul\":3522:3531   */\n      dup6\n        /* \"#utility.yul\":3518:3540   */\n      add\n        /* \"#utility.yul\":3486:3550   */\n      tag_70\n      jump\t// in\n    tag_122:\n        /* \"#utility.yul\":3476:3550   */\n      swap2\n      pop\n        /* \"#utility.yul\":3432:3560   */\n      pop\n        /* \"#utility.yul\":3216:3567   */\n      swap3\n      swap2\n      pop\n      pop\n      jump\t// out\n        /* \"#utility.yul\":3573:3742   */\n    tag_71:\n        /* \"#utility.yul\":3657:3668   */\n      0x00\n        /* \"#utility.yul\":3691:3697   */\n      dup3\n        /* \"#utility.yul\":3686:3689   */\n      dup3\n        /* \"#utility.yul\":3679:3698   */\n      mstore\n        /* \"#utility.yul\":3731:3735   */\n      0x20\n        /* \"#utility.yul\":3726:3729   */\n      dup3\n        /* \"#utility.yul\":3722:3736   */\n      add\n        /* \"#utility.yul\":3707:3736   */\n      swap1\n      pop\n        /* \"#utility.yul\":3573:3742   */\n      swap3\n      swap2\n      pop\n      pop\n      jump\t// out\n        /* \"#utility.yul\":3748:3930   */\n    tag_72:\n        /* \"#utility.yul\":3888:3922   */\n      0x4f776e61626c653a2063616c6c6572206973206e6f7420746865206f776e6572\n        /* \"#utility.yul\":3884:3885   */\n      0x00\n        /* \"#utility.yul\":3876:3882   */\n      dup3\n        /* \"#utility.yul\":3872:3886   */\n      add\n        /* \"#utility.yul\":3865:3923   */\n      mstore\n        /* \"#utility.yul\":3748:3930   */\n      pop\n      jump\t// out\n        /* \"#utility.yul\":3936:4302   */\n    tag_73:\n        /* \"#utility.yul\":4078:4081   */\n      0x00\n        /* \"#utility.yul\":4099:4166   */\n      tag_126\n        /* \"#utility.yul\":4163:4165   */\n      0x20\n        /* \"#utility.yul\":4158:4161   */\n      dup4\n        /* \"#utility.yul\":4099:4166   */\n      tag_71\n      jump\t// in\n    tag_126:\n        /* \"#utility.yul\":4092:4166   */\n      swap2\n      pop\n        /* \"#utility.yul\":4175:4268   */\n      tag_127\n        /* \"#utility.yul\":4264:4267   */\n      dup3\n        /* \"#utility.yul\":4175:4268   */\n      tag_72\n      jump\t// in\n    tag_127:\n        /* \"#utility.yul\":4293:4295   */\n      0x20\n        /* \"#utility.yul\":4288:4291   */\n      dup3\n        /* \"#utility.yul\":4284:4296   */\n      add\n        /* \"#utility.yul\":4277:4296   */\n      swap1\n      pop\n        /* \"#utility.yul\":3936:4302   */\n      swap2\n      swap1\n      pop\n      jump\t// out\n        /* \"#utility.yul\":4308:4727   */\n    tag_44:\n        /* \"#utility.yul\":4474:4478   */\n      0x00\n        /* \"#utility.yul\":4512:4514   */\n      0x20\n        /* \"#utility.yul\":4501:4510   */\n      dup3\n        /* \"#utility.yul\":4497:4515   */\n      add\n        /* \"#utility.yul\":4489:4515   */\n      swap1\n      pop\n        /* \"#utility.yul\":4561:4570   */\n      dup2\n        /* \"#utility.yul\":4555:4559   */\n      dup2\n        /* \"#utility.yul\":4551:4571   */\n      sub\n        /* \"#utility.yul\":4547:4548   */\n      0x00\n        /* \"#utility.yul\":4536:4545   */\n      dup4\n        /* \"#utility.yul\":4532:4549   */\n      add\n        /* \"#utility.yul\":4525:4572   */\n      mstore\n        /* \"#utility.yul\":4589:4720   */\n      tag_129\n        /* \"#utility.yul\":4715:4719   */\n      dup2\n        /* \"#utility.yul\":4589:4720   */\n      tag_73\n      jump\t// in\n    tag_129:\n        /* \"#utility.yul\":4581:4720   */\n      swap1\n      pop\n        /* \"#utility.yul\":4308:4727   */\n      swap2\n      swap1\n      pop\n      jump\t// out\n        /* \"#utility.yul\":4733:4913   */\n    tag_74:\n        /* \"#utility.yul\":4781:4858   */\n      0x4e487b7100000000000000000000000000000000000000000000000000000000\n        /* \"#utility.yul\":4778:4779   */\n      0x00\n        /* \"#utility.yul\":4771:4859   */\n      mstore\n        /* \"#utility.yul\":4878:4882   */\n      0x11\n        /* \"#utility.yul\":4875:4876   */\n      0x04\n        /* \"#utility.yul\":4868:4883   */\n      mstore\n        /* \"#utility.yul\":4902:4906   */\n      0x24\n        /* \"#utility.yul\":4899:4900   */\n      0x00\n        /* \"#utility.yul\":4892:4907   */\n      revert\n        /* \"#utility.yul\":4919:5224   */\n    tag_48:\n        /* \"#utility.yul\":4959:4962   */\n      0x00\n        /* \"#utility.yul\":4978:4998   */\n      tag_132\n        /* \"#utility.yul\":4996:4997   */\n      dup3\n        /* \"#utility.yul\":4978:4998   */\n      tag_58\n      jump\t// in\n    tag_132:\n        /* \"#utility.yul\":4973:4998   */\n      swap2\n      pop\n        /* \"#utility.yul\":5012:5032   */\n      tag_133\n        /* \"#utility.yul\":5030:5031   */\n      dup4\n        /* \"#utility.yul\":5012:5032   */\n      tag_58\n      jump\t// in\n    tag_133:\n        /* \"#utility.yul\":5007:5032   */\n      swap3\n      pop\n        /* \"#utility.yul\":5166:5167   */\n      dup3\n        /* \"#utility.yul\":5098:5164   */\n      0xffffffffffffffffffffffffffffffffffffffffffffffffffffffffffffffff\n        /* \"#utility.yul\":5094:5168   */\n      sub\n        /* \"#utility.yul\":5091:5092   */\n      dup3\n        /* \"#utility.yul\":5088:5169   */\n      gt\n        /* \"#utility.yul\":5085:5192   */\n      iszero\n      tag_134\n      jumpi\n        /* \"#utility.yul\":5172:5190   */\n      tag_135\n      tag_74\n      jump\t// in\n    tag_135:\n        /* \"#utility.yul\":5085:5192   */\n    tag_134:\n        /* \"#utility.yul\":5216:5217   */\n      dup3\n        /* \"#utility.yul\":5213:5214   */\n      dup3\n        /* \"#utility.yul\":5209:5218   */\n      add\n        /* \"#utility.yul\":5202:5218   */\n      swap1\n      pop\n        /* \"#utility.yul\":4919:5224   */\n      swap3\n      swap2\n      pop\n      pop\n      jump\t// out\n        /* \"#utility.yul\":5230:5410   */\n    tag_75:\n        /* \"#utility.yul\":5278:5355   */\n      0x4e487b7100000000000000000000000000000000000000000000000000000000\n        /* \"#utility.yul\":5275:5276   */\n      0x00\n        /* \"#utility.yul\":5268:5356   */\n      mstore\n        /* \"#utility.yul\":5375:5379   */\n      0x12\n        /* \"#utility.yul\":5372:5373   */\n      0x04\n        /* \"#utility.yul\":5365:5380   */\n      mstore\n        /* \"#utility.yul\":5399:5403   */\n      0x24\n        /* \"#utility.yul\":5396:5397   */\n      0x00\n        /* \"#utility.yul\":5389:5404   */\n      revert\n        /* \"#utility.yul\":5416:5601   */\n    tag_51:\n        /* \"#utility.yul\":5456:5457   */\n      0x00\n        /* \"#utility.yul\":5473:5493   */\n      tag_138\n        /* \"#utility.yul\":5491:5492   */\n      dup3\n        /* \"#utility.yul\":5473:5493   */\n      tag_58\n      jump\t// in\n    tag_138:\n        /* \"#utility.yul\":5468:5493   */\n      swap2\n      pop\n        /* \"#utility.yul\":5507:5527   */\n      tag_139\n        /* \"#utility.yul\":5525:5526   */\n      dup4\n        /* \"#utility.yul\":5507:5527   */\n      tag_58\n      jump\t// in\n    tag_139:\n        /* \"#utility.yul\":5502:5527   */\n      swap3\n      pop\n        /* \"#utility.yul\":5546:5547   */\n      dup3\n        /* \"#utility.yul\":5536:5571   */\n      tag_140\n      jumpi\n        /* \"#utility.yul\":5551:5569   */\n      tag_141\n      tag_75\n      jump\t// in\n    tag_141:\n        /* \"#utility.yul\":5536:5571   */\n    tag_140:\n        /* \"#utility.yul\":5593:5594   */\n      dup3\n        /* \"#utility.yul\":5590:5591   */\n      dup3\n        /* \"#utility.yul\":5586:5595   */\n      div\n        /* \"#utility.yul\":5581:5595   */\n      swap1\n      pop\n        /* \"#utility.yul\":5416:5601   */\n      swap3\n      swap2\n      pop\n      pop\n      jump\t// out\n        /* \"#utility.yul\":5607:5798   */\n    tag_54:\n        /* \"#utility.yul\":5647:5651   */\n      0x00\n        /* \"#utility.yul\":5667:5687   */\n      tag_143\n        /* \"#utility.yul\":5685:5686   */\n      dup3\n        /* \"#utility.yul\":5667:5687   */\n      tag_58\n      jump\t// in\n    tag_143:\n        /* \"#utility.yul\":5662:5687   */\n      swap2\n      pop\n        /* \"#utility.yul\":5701:5721   */\n      tag_144\n        /* \"#utility.yul\":5719:5720   */\n      dup4\n        /* \"#utility.yul\":5701:5721   */\n      tag_58\n      jump\t// in\n    tag_144:\n        /* \"#utility.yul\":5696:5721   */\n      swap3\n      pop\n        /* \"#utility.yul\":5740:5741   */\n      dup3\n        /* \"#utility.yul\":5737:5738   */\n      dup3\n        /* \"#utility.yul\":5734:5742   */\n      lt\n        /* \"#utility.yul\":5731:5765   */\n      iszero\n      tag_145\n      jumpi\n        /* \"#utility.yul\":5745:5763   */\n      tag_146\n      tag_74\n      jump\t// in\n    tag_146:\n        /* \"#utility.yul\":5731:5765   */\n    tag_145:\n        /* \"#utility.yul\":5790:5791   */\n      dup3\n        /* \"#utility.yul\":5787:5788   */\n      dup3\n        /* \"#utility.yul\":5783:5792   */\n      sub\n        /* \"#utility.yul\":5775:5792   */\n      swap1\n      pop\n        /* \"#utility.yul\":5607:5798   */\n      swap3\n      swap2\n      pop\n      pop\n      jump\t// out\n\n    auxdata: 0xa2646970667358221220f5df746ff48991b5747419eb470752e21cec393b7e440708fee814bf1be0443464736f6c634300080e0033\n}\n",
				"bytecode": {
					"linkReferences": {},
					"object": "608060405273d14ff067355ce838a6e110bdfb672dbec83ca23c6000806101000a81548173ffffffffffffffffffffffffffffffffffffffff021916908373ffffffffffffffffffffffffffffffffffffffff1602179055506040516108bf3803806108bf83398181016040528101906100799190610102565b33600260006101000a81548173ffffffffffffffffffffffffffffffffffffffff021916908373ffffffffffffffffffffffffffffffffffffffff160217905550806001819055505061012f565b600080fd5b6000819050919050565b6100df816100cc565b81146100ea57600080fd5b50565b6000815190506100fc816100d6565b92915050565b600060208284031215610118576101176100c7565b5b6000610126848285016100ed565b91505092915050565b6107818061013e6000396000f3fe608060405234801561001057600080fd5b50600436106100415760003560e01c80635d48403c146100465780638c8335f314610076578063c3c64674146100a6575b600080fd5b610060600480360381019061005b919061041c565b6100c2565b60405161006d9190610458565b60405180910390f35b610090600480360381019061008b919061041c565b6101bb565b60405161009d9190610458565b60405180910390f35b6100c060048036038101906100bb9190610509565b6102b4565b005b60008047905060008060009054906101000a900473ffffffffffffffffffffffffffffffffffffffff1673ffffffffffffffffffffffffffffffffffffffff166370a08231306040518263ffffffff1660e01b81526004016101249190610558565b602060405180830381865afa158015610141573d6000803e3d6000fd5b505050506040513d601f19601f820116820180604052508101906101659190610588565b9050600061017c858361039f90919063ffffffff16565b90506000610195826001546103b590919063ffffffff16565b905060006101ac82866103cb90919063ffffffff16565b90508095505050505050919050565b60008047905060008060009054906101000a900473ffffffffffffffffffffffffffffffffffffffff1673ffffffffffffffffffffffffffffffffffffffff166370a08231306040518263ffffffff1660e01b815260040161021d9190610558565b602060405180830381865afa15801561023a573d6000803e3d6000fd5b505050506040513d601f19601f8201168201806040525081019061025e9190610588565b90506000610275858361039f90919063ffffffff16565b9050600061028e826001546103b590919063ffffffff16565b905060006102a582866103cb90919063ffffffff16565b90508095505050505050919050565b3373ffffffffffffffffffffffffffffffffffffffff16600260009054906101000a900473ffffffffffffffffffffffffffffffffffffffff1673ffffffffffffffffffffffffffffffffffffffff1614610344576040517f08c379a000000000000000000000000000000000000000000000000000000000815260040161033b90610612565b60405180910390fd5b80600360008473ffffffffffffffffffffffffffffffffffffffff1673ffffffffffffffffffffffffffffffffffffffff16815260200190815260200160002060006101000a81548160ff0219169083151502179055505050565b600081836103ad9190610661565b905092915050565b600081836103c391906106e6565b905092915050565b600081836103d99190610717565b905092915050565b600080fd5b6000819050919050565b6103f9816103e6565b811461040457600080fd5b50565b600081359050610416816103f0565b92915050565b600060208284031215610432576104316103e1565b5b600061044084828501610407565b91505092915050565b610452816103e6565b82525050565b600060208201905061046d6000830184610449565b92915050565b600073ffffffffffffffffffffffffffffffffffffffff82169050919050565b600061049e82610473565b9050919050565b6104ae81610493565b81146104b957600080fd5b50565b6000813590506104cb816104a5565b92915050565b60008115159050919050565b6104e6816104d1565b81146104f157600080fd5b50565b600081359050610503816104dd565b92915050565b600080604083850312156105205761051f6103e1565b5b600061052e858286016104bc565b925050602061053f858286016104f4565b9150509250929050565b61055281610493565b82525050565b600060208201905061056d6000830184610549565b92915050565b600081519050610582816103f0565b92915050565b60006020828403121561059e5761059d6103e1565b5b60006105ac84828501610573565b91505092915050565b600082825260208201905092915050565b7f4f776e61626c653a2063616c6c6572206973206e6f7420746865206f776e6572600082015250565b60006105fc6020836105b5565b9150610607826105c6565b602082019050919050565b6000602082019050818103600083015261062b816105ef565b9050919050565b7f4e487b7100000000000000000000000000000000000000000000000000000000600052601160045260246000fd5b600061066c826103e6565b9150610677836103e6565b9250827fffffffffffffffffffffffffffffffffffffffffffffffffffffffffffffffff038211156106ac576106ab610632565b5b828201905092915050565b7f4e487b7100000000000000000000000000000000000000000000000000000000600052601260045260246000fd5b60006106f1826103e6565b91506106fc836103e6565b92508261070c5761070b6106b7565b5b828204905092915050565b6000610722826103e6565b915061072d836103e6565b9250828210156107405761073f610632565b5b82820390509291505056fea2646970667358221220f5df746ff48991b5747419eb470752e21cec393b7e440708fee814bf1be0443464736f6c634300080e0033",
					"opcodes": "PUSH1 0x80 PUSH1 0x40 MSTORE PUSH20 0xD14FF067355CE838A6E110BDFB672DBEC83CA23C PUSH1 0x0 DUP1 PUSH2 0x100 EXP DUP2 SLOAD DUP2 PUSH20 0xFFFFFFFFFFFFFFFFFFFFFFFFFFFFFFFFFFFFFFFF MUL NOT AND SWAP1 DUP4 PUSH20 0xFFFFFFFFFFFFFFFFFFFFFFFFFFFFFFFFFFFFFFFF AND MUL OR SWAP1 SSTORE POP PUSH1 0x40 MLOAD PUSH2 0x8BF CODESIZE SUB DUP1 PUSH2 0x8BF DUP4 CODECOPY DUP2 DUP2 ADD PUSH1 0x40 MSTORE DUP2 ADD SWAP1 PUSH2 0x79 SWAP2 SWAP1 PUSH2 0x102 JUMP JUMPDEST CALLER PUSH1 0x2 PUSH1 0x0 PUSH2 0x100 EXP DUP2 SLOAD DUP2 PUSH20 0xFFFFFFFFFFFFFFFFFFFFFFFFFFFFFFFFFFFFFFFF MUL NOT AND SWAP1 DUP4 PUSH20 0xFFFFFFFFFFFFFFFFFFFFFFFFFFFFFFFFFFFFFFFF AND MUL OR SWAP1 SSTORE POP DUP1 PUSH1 0x1 DUP2 SWAP1 SSTORE POP POP PUSH2 0x12F JUMP JUMPDEST PUSH1 0x0 DUP1 REVERT JUMPDEST PUSH1 0x0 DUP2 SWAP1 POP SWAP2 SWAP1 POP JUMP JUMPDEST PUSH2 0xDF DUP2 PUSH2 0xCC JUMP JUMPDEST DUP2 EQ PUSH2 0xEA JUMPI PUSH1 0x0 DUP1 REVERT JUMPDEST POP JUMP JUMPDEST PUSH1 0x0 DUP2 MLOAD SWAP1 POP PUSH2 0xFC DUP2 PUSH2 0xD6 JUMP JUMPDEST SWAP3 SWAP2 POP POP JUMP JUMPDEST PUSH1 0x0 PUSH1 0x20 DUP3 DUP5 SUB SLT ISZERO PUSH2 0x118 JUMPI PUSH2 0x117 PUSH2 0xC7 JUMP JUMPDEST JUMPDEST PUSH1 0x0 PUSH2 0x126 DUP5 DUP3 DUP6 ADD PUSH2 0xED JUMP JUMPDEST SWAP2 POP POP SWAP3 SWAP2 POP POP JUMP JUMPDEST PUSH2 0x781 DUP1 PUSH2 0x13E PUSH1 0x0 CODECOPY PUSH1 0x0 RETURN INVALID PUSH1 0x80 PUSH1 0x40 MSTORE CALLVALUE DUP1 ISZERO PUSH2 0x10 JUMPI PUSH1 0x0 DUP1 REVERT JUMPDEST POP PUSH1 0x4 CALLDATASIZE LT PUSH2 0x41 JUMPI PUSH1 0x0 CALLDATALOAD PUSH1 0xE0 SHR DUP1 PUSH4 0x5D48403C EQ PUSH2 0x46 JUMPI DUP1 PUSH4 0x8C8335F3 EQ PUSH2 0x76 JUMPI DUP1 PUSH4 0xC3C64674 EQ PUSH2 0xA6 JUMPI JUMPDEST PUSH1 0x0 DUP1 REVERT JUMPDEST PUSH2 0x60 PUSH1 0x4 DUP1 CALLDATASIZE SUB DUP2 ADD SWAP1 PUSH2 0x5B SWAP2 SWAP1 PUSH2 0x41C JUMP JUMPDEST PUSH2 0xC2 JUMP JUMPDEST PUSH1 0x40 MLOAD PUSH2 0x6D SWAP2 SWAP1 PUSH2 0x458 JUMP JUMPDEST PUSH1 0x40 MLOAD DUP1 SWAP2 SUB SWAP1 RETURN JUMPDEST PUSH2 0x90 PUSH1 0x4 DUP1 CALLDATASIZE SUB DUP2 ADD SWAP1 PUSH2 0x8B SWAP2 SWAP1 PUSH2 0x41C JUMP JUMPDEST PUSH2 0x1BB JUMP JUMPDEST PUSH1 0x40 MLOAD PUSH2 0x9D SWAP2 SWAP1 PUSH2 0x458 JUMP JUMPDEST PUSH1 0x40 MLOAD DUP1 SWAP2 SUB SWAP1 RETURN JUMPDEST PUSH2 0xC0 PUSH1 0x4 DUP1 CALLDATASIZE SUB DUP2 ADD SWAP1 PUSH2 0xBB SWAP2 SWAP1 PUSH2 0x509 JUMP JUMPDEST PUSH2 0x2B4 JUMP JUMPDEST STOP JUMPDEST PUSH1 0x0 DUP1 SELFBALANCE SWAP1 POP PUSH1 0x0 DUP1 PUSH1 0x0 SWAP1 SLOAD SWAP1 PUSH2 0x100 EXP SWAP1 DIV PUSH20 0xFFFFFFFFFFFFFFFFFFFFFFFFFFFFFFFFFFFFFFFF AND PUSH20 0xFFFFFFFFFFFFFFFFFFFFFFFFFFFFFFFFFFFFFFFF AND PUSH4 0x70A08231 ADDRESS PUSH1 0x40 MLOAD DUP3 PUSH4 0xFFFFFFFF AND PUSH1 0xE0 SHL DUP2 MSTORE PUSH1 0x4 ADD PUSH2 0x124 SWAP2 SWAP1 PUSH2 0x558 JUMP JUMPDEST PUSH1 0x20 PUSH1 0x40 MLOAD DUP1 DUP4 SUB DUP2 DUP7 GAS STATICCALL ISZERO DUP1 ISZERO PUSH2 0x141 JUMPI RETURNDATASIZE PUSH1 0x0 DUP1 RETURNDATACOPY RETURNDATASIZE PUSH1 0x0 REVERT JUMPDEST POP POP POP POP PUSH1 0x40 MLOAD RETURNDATASIZE PUSH1 0x1F NOT PUSH1 0x1F DUP3 ADD AND DUP3 ADD DUP1 PUSH1 0x40 MSTORE POP DUP2 ADD SWAP1 PUSH2 0x165 SWAP2 SWAP1 PUSH2 0x588 JUMP JUMPDEST SWAP1 POP PUSH1 0x0 PUSH2 0x17C DUP6 DUP4 PUSH2 0x39F SWAP1 SWAP2 SWAP1 PUSH4 0xFFFFFFFF AND JUMP JUMPDEST SWAP1 POP PUSH1 0x0 PUSH2 0x195 DUP3 PUSH1 0x1 SLOAD PUSH2 0x3B5 SWAP1 SWAP2 SWAP1 PUSH4 0xFFFFFFFF AND JUMP JUMPDEST SWAP1 POP PUSH1 0x0 PUSH2 0x1AC DUP3 DUP7 PUSH2 0x3CB SWAP1 SWAP2 SWAP1 PUSH4 0xFFFFFFFF AND JUMP JUMPDEST SWAP1 POP DUP1 SWAP6 POP POP POP POP POP POP SWAP2 SWAP1 POP JUMP JUMPDEST PUSH1 0x0 DUP1 SELFBALANCE SWAP1 POP PUSH1 0x0 DUP1 PUSH1 0x0 SWAP1 SLOAD SWAP1 PUSH2 0x100 EXP SWAP1 DIV PUSH20 0xFFFFFFFFFFFFFFFFFFFFFFFFFFFFFFFFFFFFFFFF AND PUSH20 0xFFFFFFFFFFFFFFFFFFFFFFFFFFFFFFFFFFFFFFFF AND PUSH4 0x70A08231 ADDRESS PUSH1 0x40 MLOAD DUP3 PUSH4 0xFFFFFFFF AND PUSH1 0xE0 SHL DUP2 MSTORE PUSH1 0x4 ADD PUSH2 0x21D SWAP2 SWAP1 PUSH2 0x558 JUMP JUMPDEST PUSH1 0x20 PUSH1 0x40 MLOAD DUP1 DUP4 SUB DUP2 DUP7 GAS STATICCALL ISZERO DUP1 ISZERO PUSH2 0x23A JUMPI RETURNDATASIZE PUSH1 0x0 DUP1 RETURNDATACOPY RETURNDATASIZE PUSH1 0x0 REVERT JUMPDEST POP POP POP POP PUSH1 0x40 MLOAD RETURNDATASIZE PUSH1 0x1F NOT PUSH1 0x1F DUP3 ADD AND DUP3 ADD DUP1 PUSH1 0x40 MSTORE POP DUP2 ADD SWAP1 PUSH2 0x25E SWAP2 SWAP1 PUSH2 0x588 JUMP JUMPDEST SWAP1 POP PUSH1 0x0 PUSH2 0x275 DUP6 DUP4 PUSH2 0x39F SWAP1 SWAP2 SWAP1 PUSH4 0xFFFFFFFF AND JUMP JUMPDEST SWAP1 POP PUSH1 0x0 PUSH2 0x28E DUP3 PUSH1 0x1 SLOAD PUSH2 0x3B5 SWAP1 SWAP2 SWAP1 PUSH4 0xFFFFFFFF AND JUMP JUMPDEST SWAP1 POP PUSH1 0x0 PUSH2 0x2A5 DUP3 DUP7 PUSH2 0x3CB SWAP1 SWAP2 SWAP1 PUSH4 0xFFFFFFFF AND JUMP JUMPDEST SWAP1 POP DUP1 SWAP6 POP POP POP POP POP POP SWAP2 SWAP1 POP JUMP JUMPDEST CALLER PUSH20 0xFFFFFFFFFFFFFFFFFFFFFFFFFFFFFFFFFFFFFFFF AND PUSH1 0x2 PUSH1 0x0 SWAP1 SLOAD SWAP1 PUSH2 0x100 EXP SWAP1 DIV PUSH20 0xFFFFFFFFFFFFFFFFFFFFFFFFFFFFFFFFFFFFFFFF AND PUSH20 0xFFFFFFFFFFFFFFFFFFFFFFFFFFFFFFFFFFFFFFFF AND EQ PUSH2 0x344 JUMPI PUSH1 0x40 MLOAD PUSH32 0x8C379A000000000000000000000000000000000000000000000000000000000 DUP2 MSTORE PUSH1 0x4 ADD PUSH2 0x33B SWAP1 PUSH2 0x612 JUMP JUMPDEST PUSH1 0x40 MLOAD DUP1 SWAP2 SUB SWAP1 REVERT JUMPDEST DUP1 PUSH1 0x3 PUSH1 0x0 DUP5 PUSH20 0xFFFFFFFFFFFFFFFFFFFFFFFFFFFFFFFFFFFFFFFF AND PUSH20 0xFFFFFFFFFFFFFFFFFFFFFFFFFFFFFFFFFFFFFFFF AND DUP2 MSTORE PUSH1 0x20 ADD SWAP1 DUP2 MSTORE PUSH1 0x20 ADD PUSH1 0x0 KECCAK256 PUSH1 0x0 PUSH2 0x100 EXP DUP2 SLOAD DUP2 PUSH1 0xFF MUL NOT AND SWAP1 DUP4 ISZERO ISZERO MUL OR SWAP1 SSTORE POP POP POP JUMP JUMPDEST PUSH1 0x0 DUP2 DUP4 PUSH2 0x3AD SWAP2 SWAP1 PUSH2 0x661 JUMP JUMPDEST SWAP1 POP SWAP3 SWAP2 POP POP JUMP JUMPDEST PUSH1 0x0 DUP2 DUP4 PUSH2 0x3C3 SWAP2 SWAP1 PUSH2 0x6E6 JUMP JUMPDEST SWAP1 POP SWAP3 SWAP2 POP POP JUMP JUMPDEST PUSH1 0x0 DUP2 DUP4 PUSH2 0x3D9 SWAP2 SWAP1 PUSH2 0x717 JUMP JUMPDEST SWAP1 POP SWAP3 SWAP2 POP POP JUMP JUMPDEST PUSH1 0x0 DUP1 REVERT JUMPDEST PUSH1 0x0 DUP2 SWAP1 POP SWAP2 SWAP1 POP JUMP JUMPDEST PUSH2 0x3F9 DUP2 PUSH2 0x3E6 JUMP JUMPDEST DUP2 EQ PUSH2 0x404 JUMPI PUSH1 0x0 DUP1 REVERT JUMPDEST POP JUMP JUMPDEST PUSH1 0x0 DUP2 CALLDATALOAD SWAP1 POP PUSH2 0x416 DUP2 PUSH2 0x3F0 JUMP JUMPDEST SWAP3 SWAP2 POP POP JUMP JUMPDEST PUSH1 0x0 PUSH1 0x20 DUP3 DUP5 SUB SLT ISZERO PUSH2 0x432 JUMPI PUSH2 0x431 PUSH2 0x3E1 JUMP JUMPDEST JUMPDEST PUSH1 0x0 PUSH2 0x440 DUP5 DUP3 DUP6 ADD PUSH2 0x407 JUMP JUMPDEST SWAP2 POP POP SWAP3 SWAP2 POP POP JUMP JUMPDEST PUSH2 0x452 DUP2 PUSH2 0x3E6 JUMP JUMPDEST DUP3 MSTORE POP POP JUMP JUMPDEST PUSH1 0x0 PUSH1 0x20 DUP3 ADD SWAP1 POP PUSH2 0x46D PUSH1 0x0 DUP4 ADD DUP5 PUSH2 0x449 JUMP JUMPDEST SWAP3 SWAP2 POP POP JUMP JUMPDEST PUSH1 0x0 PUSH20 0xFFFFFFFFFFFFFFFFFFFFFFFFFFFFFFFFFFFFFFFF DUP3 AND SWAP1 POP SWAP2 SWAP1 POP JUMP JUMPDEST PUSH1 0x0 PUSH2 0x49E DUP3 PUSH2 0x473 JUMP JUMPDEST SWAP1 POP SWAP2 SWAP1 POP JUMP JUMPDEST PUSH2 0x4AE DUP2 PUSH2 0x493 JUMP JUMPDEST DUP2 EQ PUSH2 0x4B9 JUMPI PUSH1 0x0 DUP1 REVERT JUMPDEST POP JUMP JUMPDEST PUSH1 0x0 DUP2 CALLDATALOAD SWAP1 POP PUSH2 0x4CB DUP2 PUSH2 0x4A5 JUMP JUMPDEST SWAP3 SWAP2 POP POP JUMP JUMPDEST PUSH1 0x0 DUP2 ISZERO ISZERO SWAP1 POP SWAP2 SWAP1 POP JUMP JUMPDEST PUSH2 0x4E6 DUP2 PUSH2 0x4D1 JUMP JUMPDEST DUP2 EQ PUSH2 0x4F1 JUMPI PUSH1 0x0 DUP1 REVERT JUMPDEST POP JUMP JUMPDEST PUSH1 0x0 DUP2 CALLDATALOAD SWAP1 POP PUSH2 0x503 DUP2 PUSH2 0x4DD JUMP JUMPDEST SWAP3 SWAP2 POP POP JUMP JUMPDEST PUSH1 0x0 DUP1 PUSH1 0x40 DUP4 DUP6 SUB SLT ISZERO PUSH2 0x520 JUMPI PUSH2 0x51F PUSH2 0x3E1 JUMP JUMPDEST JUMPDEST PUSH1 0x0 PUSH2 0x52E DUP6 DUP3 DUP7 ADD PUSH2 0x4BC JUMP JUMPDEST SWAP3 POP POP PUSH1 0x20 PUSH2 0x53F DUP6 DUP3 DUP7 ADD PUSH2 0x4F4 JUMP JUMPDEST SWAP2 POP POP SWAP3 POP SWAP3 SWAP1 POP JUMP JUMPDEST PUSH2 0x552 DUP2 PUSH2 0x493 JUMP JUMPDEST DUP3 MSTORE POP POP JUMP JUMPDEST PUSH1 0x0 PUSH1 0x20 DUP3 ADD SWAP1 POP PUSH2 0x56D PUSH1 0x0 DUP4 ADD DUP5 PUSH2 0x549 JUMP JUMPDEST SWAP3 SWAP2 POP POP JUMP JUMPDEST PUSH1 0x0 DUP2 MLOAD SWAP1 POP PUSH2 0x582 DUP2 PUSH2 0x3F0 JUMP JUMPDEST SWAP3 SWAP2 POP POP JUMP JUMPDEST PUSH1 0x0 PUSH1 0x20 DUP3 DUP5 SUB SLT ISZERO PUSH2 0x59E JUMPI PUSH2 0x59D PUSH2 0x3E1 JUMP JUMPDEST JUMPDEST PUSH1 0x0 PUSH2 0x5AC DUP5 DUP3 DUP6 ADD PUSH2 0x573 JUMP JUMPDEST SWAP2 POP POP SWAP3 SWAP2 POP POP JUMP JUMPDEST PUSH1 0x0 DUP3 DUP3 MSTORE PUSH1 0x20 DUP3 ADD SWAP1 POP SWAP3 SWAP2 POP POP JUMP JUMPDEST PUSH32 0x4F776E61626C653A2063616C6C6572206973206E6F7420746865206F776E6572 PUSH1 0x0 DUP3 ADD MSTORE POP JUMP JUMPDEST PUSH1 0x0 PUSH2 0x5FC PUSH1 0x20 DUP4 PUSH2 0x5B5 JUMP JUMPDEST SWAP2 POP PUSH2 0x607 DUP3 PUSH2 0x5C6 JUMP JUMPDEST PUSH1 0x20 DUP3 ADD SWAP1 POP SWAP2 SWAP1 POP JUMP JUMPDEST PUSH1 0x0 PUSH1 0x20 DUP3 ADD SWAP1 POP DUP2 DUP2 SUB PUSH1 0x0 DUP4 ADD MSTORE PUSH2 0x62B DUP2 PUSH2 0x5EF JUMP JUMPDEST SWAP1 POP SWAP2 SWAP1 POP JUMP JUMPDEST PUSH32 0x4E487B7100000000000000000000000000000000000000000000000000000000 PUSH1 0x0 MSTORE PUSH1 0x11 PUSH1 0x4 MSTORE PUSH1 0x24 PUSH1 0x0 REVERT JUMPDEST PUSH1 0x0 PUSH2 0x66C DUP3 PUSH2 0x3E6 JUMP JUMPDEST SWAP2 POP PUSH2 0x677 DUP4 PUSH2 0x3E6 JUMP JUMPDEST SWAP3 POP DUP3 PUSH32 0xFFFFFFFFFFFFFFFFFFFFFFFFFFFFFFFFFFFFFFFFFFFFFFFFFFFFFFFFFFFFFFFF SUB DUP3 GT ISZERO PUSH2 0x6AC JUMPI PUSH2 0x6AB PUSH2 0x632 JUMP JUMPDEST JUMPDEST DUP3 DUP3 ADD SWAP1 POP SWAP3 SWAP2 POP POP JUMP JUMPDEST PUSH32 0x4E487B7100000000000000000000000000000000000000000000000000000000 PUSH1 0x0 MSTORE PUSH1 0x12 PUSH1 0x4 MSTORE PUSH1 0x24 PUSH1 0x0 REVERT JUMPDEST PUSH1 0x0 PUSH2 0x6F1 DUP3 PUSH2 0x3E6 JUMP JUMPDEST SWAP2 POP PUSH2 0x6FC DUP4 PUSH2 0x3E6 JUMP JUMPDEST SWAP3 POP DUP3 PUSH2 0x70C JUMPI PUSH2 0x70B PUSH2 0x6B7 JUMP JUMPDEST JUMPDEST DUP3 DUP3 DIV SWAP1 POP SWAP3 SWAP2 POP POP JUMP JUMPDEST PUSH1 0x0 PUSH2 0x722 DUP3 PUSH2 0x3E6 JUMP JUMPDEST SWAP2 POP PUSH2 0x72D DUP4 PUSH2 0x3E6 JUMP JUMPDEST SWAP3 POP DUP3 DUP3 LT ISZERO PUSH2 0x740 JUMPI PUSH2 0x73F PUSH2 0x632 JUMP JUMPDEST JUMPDEST DUP3 DUP3 SUB SWAP1 POP SWAP3 SWAP2 POP POP JUMP INVALID LOG2 PUSH5 0x6970667358 0x22 SLT KECCAK256 CREATE2 0xDF PUSH21 0x6FF48991B5747419EB470752E21CEC393B7E440708 INVALID 0xE8 EQ 0xBF SHL 0xE0 DIFFICULTY CALLVALUE PUSH5 0x736F6C6343 STOP ADDMOD 0xE STOP CALLER "
				},
				"gasEstimates": {
					"creation": {
						"codeDepositCost": "384200",
						"executionCost": "infinite",
						"totalCost": "infinite"
					},
					"external": {
						"DCFETH(uint256)": "infinite",
						"DcfPrice(uint256)": "infinite",
						"setRouter(address,bool)": "27183"
					}
				},
				"methodIdentifiers": {
					"DCFETH(uint256)": "8c8335f3",
					"DcfPrice(uint256)": "5d48403c",
					"setRouter(address,bool)": "c3c64674"
				}
			},
			"storageLayout": {
				"storage": [
					{
						"astId": 402,
						"contract": "Dcoffer/treasury.sol:treasury",
						"label": "dcoff",
						"offset": 0,
						"slot": "0",
						"type": "t_contract(IERC20)77"
					},
					{
						"astId": 404,
						"contract": "Dcoffer/treasury.sol:treasury",
						"label": "K",
						"offset": 0,
						"slot": "1",
						"type": "t_uint256"
					},
					{
						"astId": 421,
						"contract": "Dcoffer/treasury.sol:treasury",
						"label": "owner",
						"offset": 0,
						"slot": "2",
						"type": "t_address"
					},
					{
						"astId": 425,
						"contract": "Dcoffer/treasury.sol:treasury",
						"label": "RouterAdmin",
						"offset": 0,
						"slot": "3",
						"type": "t_mapping(t_address,t_bool)"
					}
				],
				"types": {
					"t_address": {
						"encoding": "inplace",
						"label": "address",
						"numberOfBytes": "20"
					},
					"t_bool": {
						"encoding": "inplace",
						"label": "bool",
						"numberOfBytes": "1"
					},
					"t_contract(IERC20)77": {
						"encoding": "inplace",
						"label": "contract IERC20",
						"numberOfBytes": "20"
					},
					"t_mapping(t_address,t_bool)": {
						"encoding": "mapping",
						"key": "t_address",
						"label": "mapping(address => bool)",
						"numberOfBytes": "32",
						"value": "t_bool"
					},
					"t_uint256": {
						"encoding": "inplace",
						"label": "uint256",
						"numberOfBytes": "32"
					}
				}
			},
			"userdoc": {
				"kind": "user",
				"methods": {},
				"version": 1
			}
		}
	}
}