{
	"Dcoffer/treasury.sol": {
		"treasury": {
			"abi": [
				{
					"inputs": [
						{
							"internalType": "uint256",
							"name": "_k",
							"type": "uint256"
						}
					],
					"stateMutability": "payable",
					"type": "constructor"
				},
				{
					"inputs": [
						{
							"internalType": "uint256",
							"name": "dcf_amount",
							"type": "uint256"
						}
					],
					"name": "DCF_ETH",
					"outputs": [
						{
							"internalType": "uint256",
							"name": "",
							"type": "uint256"
						}
					],
					"stateMutability": "view",
					"type": "function"
				},
				{
					"inputs": [
						{
							"internalType": "uint256",
							"name": "eth_amount",
							"type": "uint256"
						}
					],
					"name": "ETH_DCF",
					"outputs": [
						{
							"internalType": "uint256",
							"name": "",
							"type": "uint256"
						}
					],
					"stateMutability": "view",
					"type": "function"
				},
				{
					"inputs": [
						{
							"internalType": "address payable",
							"name": "seller",
							"type": "address"
						},
						{
							"internalType": "uint256",
							"name": "dcf_amount",
							"type": "uint256"
						}
					],
					"name": "market",
					"outputs": [],
					"stateMutability": "nonpayable",
					"type": "function"
				},
				{
					"inputs": [
						{
							"internalType": "address",
							"name": "user",
							"type": "address"
						},
						{
							"internalType": "bool",
							"name": "power",
							"type": "bool"
						}
					],
					"name": "setRouter",
					"outputs": [],
					"stateMutability": "nonpayable",
					"type": "function"
				},
				{
					"inputs": [
						{
							"internalType": "address",
							"name": "subscriber",
							"type": "address"
						}
					],
					"name": "subscribe",
					"outputs": [],
					"stateMutability": "payable",
					"type": "function"
				}
			],
			"devdoc": {
				"kind": "dev",
				"methods": {},
				"version": 1
			},
			"evm": {
				"assembly": "    /* \"Dcoffer/treasury.sol\":181:2048  contract treasury {... */\n  mstore(0x40, 0x80)\n    /* \"Dcoffer/treasury.sol\":259:301  0xd14ff067355Ce838A6e110bDFb672DbEc83cA23C */\n  0xd14ff067355ce838a6e110bdfb672dbec83ca23c\n    /* \"Dcoffer/treasury.sol\":236:302  IERC20 dcoff =  IERC20(0xd14ff067355Ce838A6e110bDFb672DbEc83cA23C) */\n  0x00\n  dup1\n  0x0100\n  exp\n  dup2\n  sload\n  dup2\n  0xffffffffffffffffffffffffffffffffffffffff\n  mul\n  not\n  and\n  swap1\n  dup4\n  0xffffffffffffffffffffffffffffffffffffffff\n  and\n  mul\n  or\n  swap1\n  sstore\n  pop\n    /* \"Dcoffer/treasury.sol\":333:404  constructor(uint _k)payable{... */\n  mload(0x40)\n  sub(codesize, bytecodeSize)\n  dup1\n  bytecodeSize\n  dup4\n  codecopy\n  dup2\n  dup2\n  add\n  0x40\n  mstore\n  dup2\n  add\n  swap1\n  tag_1\n  swap2\n  swap1\n  tag_2\n  jump\t// in\ntag_1:\n    /* \"Dcoffer/treasury.sol\":375:385  msg.sender */\n  caller\n    /* \"Dcoffer/treasury.sol\":367:372  owner */\n  0x02\n  0x00\n    /* \"Dcoffer/treasury.sol\":367:385  owner = msg.sender */\n  0x0100\n  exp\n  dup2\n  sload\n  dup2\n  0xffffffffffffffffffffffffffffffffffffffff\n  mul\n  not\n  and\n  swap1\n  dup4\n  0xffffffffffffffffffffffffffffffffffffffff\n  and\n  mul\n  or\n  swap1\n  sstore\n  pop\n    /* \"Dcoffer/treasury.sol\":396:398  _k */\n  dup1\n    /* \"Dcoffer/treasury.sol\":392:393  K */\n  0x01\n    /* \"Dcoffer/treasury.sol\":392:398  K = _k */\n  dup2\n  swap1\n  sstore\n  pop\n    /* \"Dcoffer/treasury.sol\":333:404  constructor(uint _k)payable{... */\n  pop\n    /* \"Dcoffer/treasury.sol\":181:2048  contract treasury {... */\n  jump(tag_5)\n    /* \"#utility.yul\":88:205   */\ntag_7:\n    /* \"#utility.yul\":197:198   */\n  0x00\n    /* \"#utility.yul\":194:195   */\n  dup1\n    /* \"#utility.yul\":187:199   */\n  revert\n    /* \"#utility.yul\":334:411   */\ntag_9:\n    /* \"#utility.yul\":371:378   */\n  0x00\n    /* \"#utility.yul\":400:405   */\n  dup2\n    /* \"#utility.yul\":389:405   */\n  swap1\n  pop\n    /* \"#utility.yul\":334:411   */\n  swap2\n  swap1\n  pop\n  jump\t// out\n    /* \"#utility.yul\":417:539   */\ntag_10:\n    /* \"#utility.yul\":490:514   */\n  tag_18\n    /* \"#utility.yul\":508:513   */\n  dup2\n    /* \"#utility.yul\":490:514   */\n  tag_9\n  jump\t// in\ntag_18:\n    /* \"#utility.yul\":483:488   */\n  dup2\n    /* \"#utility.yul\":480:515   */\n  eq\n    /* \"#utility.yul\":470:533   */\n  tag_19\n  jumpi\n    /* \"#utility.yul\":529:530   */\n  0x00\n    /* \"#utility.yul\":526:527   */\n  dup1\n    /* \"#utility.yul\":519:531   */\n  revert\n    /* \"#utility.yul\":470:533   */\ntag_19:\n    /* \"#utility.yul\":417:539   */\n  pop\n  jump\t// out\n    /* \"#utility.yul\":545:688   */\ntag_11:\n    /* \"#utility.yul\":602:607   */\n  0x00\n    /* \"#utility.yul\":633:639   */\n  dup2\n    /* \"#utility.yul\":627:640   */\n  mload\n    /* \"#utility.yul\":618:640   */\n  swap1\n  pop\n    /* \"#utility.yul\":649:682   */\n  tag_21\n    /* \"#utility.yul\":676:681   */\n  dup2\n    /* \"#utility.yul\":649:682   */\n  tag_10\n  jump\t// in\ntag_21:\n    /* \"#utility.yul\":545:688   */\n  swap3\n  swap2\n  pop\n  pop\n  jump\t// out\n    /* \"#utility.yul\":694:1045   */\ntag_2:\n    /* \"#utility.yul\":764:770   */\n  0x00\n    /* \"#utility.yul\":813:815   */\n  0x20\n    /* \"#utility.yul\":801:810   */\n  dup3\n    /* \"#utility.yul\":792:799   */\n  dup5\n    /* \"#utility.yul\":788:811   */\n  sub\n    /* \"#utility.yul\":784:816   */\n  slt\n    /* \"#utility.yul\":781:900   */\n  iszero\n  tag_23\n  jumpi\n    /* \"#utility.yul\":819:898   */\n  tag_24\n  tag_7\n  jump\t// in\ntag_24:\n    /* \"#utility.yul\":781:900   */\ntag_23:\n    /* \"#utility.yul\":939:940   */\n  0x00\n    /* \"#utility.yul\":964:1028   */\n  tag_25\n    /* \"#utility.yul\":1020:1027   */\n  dup5\n    /* \"#utility.yul\":1011:1017   */\n  dup3\n    /* \"#utility.yul\":1000:1009   */\n  dup6\n    /* \"#utility.yul\":996:1018   */\n  add\n    /* \"#utility.yul\":964:1028   */\n  tag_11\n  jump\t// in\ntag_25:\n    /* \"#utility.yul\":954:1028   */\n  swap2\n  pop\n    /* \"#utility.yul\":910:1038   */\n  pop\n    /* \"#utility.yul\":694:1045   */\n  swap3\n  swap2\n  pop\n  pop\n  jump\t// out\n    /* \"Dcoffer/treasury.sol\":181:2048  contract treasury {... */\ntag_5:\n  dataSize(sub_0)\n  dup1\n  dataOffset(sub_0)\n  0x00\n  codecopy\n  0x00\n  return\nstop\n\nsub_0: assembly {\n        /* \"Dcoffer/treasury.sol\":181:2048  contract treasury {... */\n      mstore(0x40, 0x80)\n      jumpi(tag_1, lt(calldatasize, 0x04))\n      shr(0xe0, calldataload(0x00))\n      dup1\n      0x3a23bf49\n      eq\n      tag_2\n      jumpi\n      dup1\n      0x41a7726a\n      eq\n      tag_3\n      jumpi\n      dup1\n      0x94756aa7\n      eq\n      tag_4\n      jumpi\n      dup1\n      0x97dedb1d\n      eq\n      tag_5\n      jumpi\n      dup1\n      0xc3c64674\n      eq\n      tag_6\n      jumpi\n    tag_1:\n      0x00\n      dup1\n      revert\n        /* \"Dcoffer/treasury.sol\":1198:1659  function DCF_ETH(uint256 dcf_amount)public view returns(uint256){... */\n    tag_2:\n      callvalue\n      dup1\n      iszero\n      tag_7\n      jumpi\n      0x00\n      dup1\n      revert\n    tag_7:\n      pop\n      tag_8\n      0x04\n      dup1\n      calldatasize\n      sub\n      dup2\n      add\n      swap1\n      tag_9\n      swap2\n      swap1\n      tag_10\n      jump\t// in\n    tag_9:\n      tag_11\n      jump\t// in\n    tag_8:\n      mload(0x40)\n      tag_12\n      swap2\n      swap1\n      tag_13\n      jump\t// in\n    tag_12:\n      mload(0x40)\n      dup1\n      swap2\n      sub\n      swap1\n      return\n        /* \"Dcoffer/treasury.sol\":712:917  function subscribe(address subscriber)external payable{... */\n    tag_3:\n      tag_14\n      0x04\n      dup1\n      calldatasize\n      sub\n      dup2\n      add\n      swap1\n      tag_15\n      swap2\n      swap1\n      tag_16\n      jump\t// in\n    tag_15:\n      tag_17\n      jump\t// in\n    tag_14:\n      stop\n        /* \"Dcoffer/treasury.sol\":925:1190  function market(address payable seller, uint256 dcf_amount)external {... */\n    tag_4:\n      callvalue\n      dup1\n      iszero\n      tag_18\n      jumpi\n      0x00\n      dup1\n      revert\n    tag_18:\n      pop\n      tag_19\n      0x04\n      dup1\n      calldatasize\n      sub\n      dup2\n      add\n      swap1\n      tag_20\n      swap2\n      swap1\n      tag_21\n      jump\t// in\n    tag_20:\n      tag_22\n      jump\t// in\n    tag_19:\n      stop\n        /* \"Dcoffer/treasury.sol\":1667:2025  function ETH_DCF(uint256 eth_amount)public view returns(uint256){... */\n    tag_5:\n      callvalue\n      dup1\n      iszero\n      tag_23\n      jumpi\n      0x00\n      dup1\n      revert\n    tag_23:\n      pop\n      tag_24\n      0x04\n      dup1\n      calldatasize\n      sub\n      dup2\n      add\n      swap1\n      tag_25\n      swap2\n      swap1\n      tag_10\n      jump\t// in\n    tag_25:\n      tag_26\n      jump\t// in\n    tag_24:\n      mload(0x40)\n      tag_27\n      swap2\n      swap1\n      tag_13\n      jump\t// in\n    tag_27:\n      mload(0x40)\n      dup1\n      swap2\n      sub\n      swap1\n      return\n        /* \"Dcoffer/treasury.sol\":604:704  function setRouter(address user, bool power)external onlyOwner{... */\n    tag_6:\n      callvalue\n      dup1\n      iszero\n      tag_28\n      jumpi\n      0x00\n      dup1\n      revert\n    tag_28:\n      pop\n      tag_29\n      0x04\n      dup1\n      calldatasize\n      sub\n      dup2\n      add\n      swap1\n      tag_30\n      swap2\n      swap1\n      tag_31\n      jump\t// in\n    tag_30:\n      tag_32\n      jump\t// in\n    tag_29:\n      stop\n        /* \"Dcoffer/treasury.sol\":1198:1659  function DCF_ETH(uint256 dcf_amount)public view returns(uint256){... */\n    tag_11:\n        /* \"Dcoffer/treasury.sol\":1254:1261  uint256 */\n      0x00\n        /* \"Dcoffer/treasury.sol\":1269:1288  uint256 _eth_amount */\n      dup1\n        /* \"Dcoffer/treasury.sol\":1291:1312  address(this).balance */\n      selfbalance\n        /* \"Dcoffer/treasury.sol\":1269:1312  uint256 _eth_amount = address(this).balance */\n      swap1\n      pop\n        /* \"Dcoffer/treasury.sol\":1319:1338  uint256 _dcf_amount */\n      0x00\n        /* \"Dcoffer/treasury.sol\":1341:1346  dcoff */\n      dup1\n      0x00\n      swap1\n      sload\n      swap1\n      0x0100\n      exp\n      swap1\n      div\n      0xffffffffffffffffffffffffffffffffffffffff\n      and\n        /* \"Dcoffer/treasury.sol\":1341:1356  dcoff.balanceOf */\n      0xffffffffffffffffffffffffffffffffffffffff\n      and\n      0x70a08231\n        /* \"Dcoffer/treasury.sol\":1365:1369  this */\n      address\n        /* \"Dcoffer/treasury.sol\":1341:1371  dcoff.balanceOf(address(this)) */\n      mload(0x40)\n      dup3\n      0xffffffff\n      and\n      0xe0\n      shl\n      dup2\n      mstore\n      0x04\n      add\n      tag_34\n      swap2\n      swap1\n      tag_35\n      jump\t// in\n    tag_34:\n      0x20\n      mload(0x40)\n      dup1\n      dup4\n      sub\n      dup2\n      dup7\n      gas\n      staticcall\n      iszero\n      dup1\n      iszero\n      tag_37\n      jumpi\n      returndatasize\n      0x00\n      dup1\n      returndatacopy\n      revert(0x00, returndatasize)\n    tag_37:\n      pop\n      pop\n      pop\n      pop\n      mload(0x40)\n      returndatasize\n      not(0x1f)\n      0x1f\n      dup3\n      add\n      and\n      dup3\n      add\n      dup1\n      0x40\n      mstore\n      pop\n      dup2\n      add\n      swap1\n      tag_38\n      swap2\n      swap1\n      tag_39\n      jump\t// in\n    tag_38:\n        /* \"Dcoffer/treasury.sol\":1319:1371  uint256 _dcf_amount = dcoff.balanceOf(address(this)) */\n      swap1\n      pop\n        /* \"Dcoffer/treasury.sol\":1382:1402  uint256 Variable_dcf */\n      0x00\n        /* \"Dcoffer/treasury.sol\":1405:1432  _dcf_amount.add(dcf_amount) */\n      tag_40\n        /* \"Dcoffer/treasury.sol\":1421:1431  dcf_amount */\n      dup6\n        /* \"Dcoffer/treasury.sol\":1405:1416  _dcf_amount */\n      dup4\n        /* \"Dcoffer/treasury.sol\":1405:1420  _dcf_amount.add */\n      tag_41\n      swap1\n        /* \"Dcoffer/treasury.sol\":1405:1432  _dcf_amount.add(dcf_amount) */\n      swap2\n      swap1\n      0xffffffff\n      and\n      jump\t// in\n    tag_40:\n        /* \"Dcoffer/treasury.sol\":1382:1432  uint256 Variable_dcf = _dcf_amount.add(dcf_amount) */\n      swap1\n      pop\n        /* \"Dcoffer/treasury.sol\":1459:1464  dcoff */\n      0x00\n      dup1\n      sload\n      swap1\n      0x0100\n      exp\n      swap1\n      div\n      0xffffffffffffffffffffffffffffffffffffffff\n      and\n        /* \"Dcoffer/treasury.sol\":1459:1476  dcoff.totalSupply */\n      0xffffffffffffffffffffffffffffffffffffffff\n      and\n      0x18160ddd\n        /* \"Dcoffer/treasury.sol\":1459:1478  dcoff.totalSupply() */\n      mload(0x40)\n      dup2\n      0xffffffff\n      and\n      0xe0\n      shl\n      dup2\n      mstore\n      0x04\n      add\n      0x20\n      mload(0x40)\n      dup1\n      dup4\n      sub\n      dup2\n      dup7\n      gas\n      staticcall\n      iszero\n      dup1\n      iszero\n      tag_43\n      jumpi\n      returndatasize\n      0x00\n      dup1\n      returndatacopy\n      revert(0x00, returndatasize)\n    tag_43:\n      pop\n      pop\n      pop\n      pop\n      mload(0x40)\n      returndatasize\n      not(0x1f)\n      0x1f\n      dup3\n      add\n      and\n      dup3\n      add\n      dup1\n      0x40\n      mstore\n      pop\n      dup2\n      add\n      swap1\n      tag_44\n      swap2\n      swap1\n      tag_39\n      jump\t// in\n    tag_44:\n        /* \"Dcoffer/treasury.sol\":1444:1456  Variable_dcf */\n      dup2\n        /* \"Dcoffer/treasury.sol\":1444:1478  Variable_dcf > dcoff.totalSupply() */\n      gt\n        /* \"Dcoffer/treasury.sol\":1441:1530  if(Variable_dcf > dcoff.totalSupply()){... */\n      iszero\n      tag_45\n      jumpi\n        /* \"Dcoffer/treasury.sol\":1503:1508  dcoff */\n      0x00\n      dup1\n      sload\n      swap1\n      0x0100\n      exp\n      swap1\n      div\n      0xffffffffffffffffffffffffffffffffffffffff\n      and\n        /* \"Dcoffer/treasury.sol\":1503:1520  dcoff.totalSupply */\n      0xffffffffffffffffffffffffffffffffffffffff\n      and\n      0x18160ddd\n        /* \"Dcoffer/treasury.sol\":1503:1522  dcoff.totalSupply() */\n      mload(0x40)\n      dup2\n      0xffffffff\n      and\n      0xe0\n      shl\n      dup2\n      mstore\n      0x04\n      add\n      0x20\n      mload(0x40)\n      dup1\n      dup4\n      sub\n      dup2\n      dup7\n      gas\n      staticcall\n      iszero\n      dup1\n      iszero\n      tag_47\n      jumpi\n      returndatasize\n      0x00\n      dup1\n      returndatacopy\n      revert(0x00, returndatasize)\n    tag_47:\n      pop\n      pop\n      pop\n      pop\n      mload(0x40)\n      returndatasize\n      not(0x1f)\n      0x1f\n      dup3\n      add\n      and\n      dup3\n      add\n      dup1\n      0x40\n      mstore\n      pop\n      dup2\n      add\n      swap1\n      tag_48\n      swap2\n      swap1\n      tag_39\n      jump\t// in\n    tag_48:\n        /* \"Dcoffer/treasury.sol\":1488:1522  Variable_dcf = dcoff.totalSupply() */\n      swap1\n      pop\n        /* \"Dcoffer/treasury.sol\":1441:1530  if(Variable_dcf > dcoff.totalSupply()){... */\n    tag_45:\n        /* \"Dcoffer/treasury.sol\":1538:1558  uint256 Variable_eth */\n      0x00\n        /* \"Dcoffer/treasury.sol\":1561:1580  K.div(Variable_dcf) */\n      tag_49\n        /* \"Dcoffer/treasury.sol\":1567:1579  Variable_dcf */\n      dup3\n        /* \"Dcoffer/treasury.sol\":1561:1562  K */\n      sload(0x01)\n        /* \"Dcoffer/treasury.sol\":1561:1566  K.div */\n      tag_50\n      swap1\n        /* \"Dcoffer/treasury.sol\":1561:1580  K.div(Variable_dcf) */\n      swap2\n      swap1\n      0xffffffff\n      and\n      jump\t// in\n    tag_49:\n        /* \"Dcoffer/treasury.sol\":1538:1580  uint256 Variable_eth = K.div(Variable_dcf) */\n      swap1\n      pop\n        /* \"Dcoffer/treasury.sol\":1587:1601  uint256 _price */\n      0x00\n        /* \"Dcoffer/treasury.sol\":1604:1633  _eth_amount.sub(Variable_eth) */\n      tag_51\n        /* \"Dcoffer/treasury.sol\":1620:1632  Variable_eth */\n      dup3\n        /* \"Dcoffer/treasury.sol\":1604:1615  _eth_amount */\n      dup7\n        /* \"Dcoffer/treasury.sol\":1604:1619  _eth_amount.sub */\n      tag_52\n      swap1\n        /* \"Dcoffer/treasury.sol\":1604:1633  _eth_amount.sub(Variable_eth) */\n      swap2\n      swap1\n      0xffffffff\n      and\n      jump\t// in\n    tag_51:\n        /* \"Dcoffer/treasury.sol\":1587:1633  uint256 _price = _eth_amount.sub(Variable_eth) */\n      swap1\n      pop\n        /* \"Dcoffer/treasury.sol\":1647:1653  _price */\n      dup1\n        /* \"Dcoffer/treasury.sol\":1640:1653  return _price */\n      swap6\n      pop\n      pop\n      pop\n      pop\n      pop\n      pop\n        /* \"Dcoffer/treasury.sol\":1198:1659  function DCF_ETH(uint256 dcf_amount)public view returns(uint256){... */\n      swap2\n      swap1\n      pop\n      jump\t// out\n        /* \"Dcoffer/treasury.sol\":712:917  function subscribe(address subscriber)external payable{... */\n    tag_17:\n        /* \"Dcoffer/treasury.sol\":810:814  true */\n      0x01\n        /* \"Dcoffer/treasury.sol\":783:814  RouterAdmin[msg.sender] == true */\n      iszero\n      iszero\n        /* \"Dcoffer/treasury.sol\":783:794  RouterAdmin */\n      0x03\n        /* \"Dcoffer/treasury.sol\":783:806  RouterAdmin[msg.sender] */\n      0x00\n        /* \"Dcoffer/treasury.sol\":795:805  msg.sender */\n      caller\n        /* \"Dcoffer/treasury.sol\":783:806  RouterAdmin[msg.sender] */\n      0xffffffffffffffffffffffffffffffffffffffff\n      and\n      0xffffffffffffffffffffffffffffffffffffffff\n      and\n      dup2\n      mstore\n      0x20\n      add\n      swap1\n      dup2\n      mstore\n      0x20\n      add\n      0x00\n      keccak256\n      0x00\n      swap1\n      sload\n      swap1\n      0x0100\n      exp\n      swap1\n      div\n      0xff\n      and\n        /* \"Dcoffer/treasury.sol\":783:814  RouterAdmin[msg.sender] == true */\n      iszero\n      iszero\n      eq\n        /* \"Dcoffer/treasury.sol\":775:815  require(RouterAdmin[msg.sender] == true) */\n      tag_54\n      jumpi\n      0x00\n      dup1\n      revert\n    tag_54:\n        /* \"Dcoffer/treasury.sol\":824:842  uint256 dcf_amount */\n      0x00\n        /* \"Dcoffer/treasury.sol\":845:863  ETH_DCF(msg.value) */\n      tag_55\n        /* \"Dcoffer/treasury.sol\":853:862  msg.value */\n      callvalue\n        /* \"Dcoffer/treasury.sol\":845:852  ETH_DCF */\n      tag_26\n        /* \"Dcoffer/treasury.sol\":845:863  ETH_DCF(msg.value) */\n      jump\t// in\n    tag_55:\n        /* \"Dcoffer/treasury.sol\":824:863  uint256 dcf_amount = ETH_DCF(msg.value) */\n      swap1\n      pop\n        /* \"Dcoffer/treasury.sol\":872:877  dcoff */\n      0x00\n      dup1\n      sload\n      swap1\n      0x0100\n      exp\n      swap1\n      div\n      0xffffffffffffffffffffffffffffffffffffffff\n      and\n        /* \"Dcoffer/treasury.sol\":872:886  dcoff.transfer */\n      0xffffffffffffffffffffffffffffffffffffffff\n      and\n      0xa9059cbb\n        /* \"Dcoffer/treasury.sol\":887:897  subscriber */\n      dup4\n        /* \"Dcoffer/treasury.sol\":898:908  dcf_amount */\n      dup4\n        /* \"Dcoffer/treasury.sol\":872:909  dcoff.transfer(subscriber,dcf_amount) */\n      mload(0x40)\n      dup4\n      0xffffffff\n      and\n      0xe0\n      shl\n      dup2\n      mstore\n      0x04\n      add\n      tag_56\n      swap3\n      swap2\n      swap1\n      tag_57\n      jump\t// in\n    tag_56:\n      0x20\n      mload(0x40)\n      dup1\n      dup4\n      sub\n      dup2\n      0x00\n      dup8\n      gas\n      call\n      iszero\n      dup1\n      iszero\n      tag_59\n      jumpi\n      returndatasize\n      0x00\n      dup1\n      returndatacopy\n      revert(0x00, returndatasize)\n    tag_59:\n      pop\n      pop\n      pop\n      pop\n      mload(0x40)\n      returndatasize\n      not(0x1f)\n      0x1f\n      dup3\n      add\n      and\n      dup3\n      add\n      dup1\n      0x40\n      mstore\n      pop\n      dup2\n      add\n      swap1\n      tag_60\n      swap2\n      swap1\n      tag_61\n      jump\t// in\n    tag_60:\n      pop\n        /* \"Dcoffer/treasury.sol\":766:917  {... */\n      pop\n        /* \"Dcoffer/treasury.sol\":712:917  function subscribe(address subscriber)external payable{... */\n      pop\n      jump\t// out\n        /* \"Dcoffer/treasury.sol\":925:1190  function market(address payable seller, uint256 dcf_amount)external {... */\n    tag_22:\n        /* \"Dcoffer/treasury.sol\":1037:1041  true */\n      0x01\n        /* \"Dcoffer/treasury.sol\":1010:1041  RouterAdmin[msg.sender] == true */\n      iszero\n      iszero\n        /* \"Dcoffer/treasury.sol\":1010:1021  RouterAdmin */\n      0x03\n        /* \"Dcoffer/treasury.sol\":1010:1033  RouterAdmin[msg.sender] */\n      0x00\n        /* \"Dcoffer/treasury.sol\":1022:1032  msg.sender */\n      caller\n        /* \"Dcoffer/treasury.sol\":1010:1033  RouterAdmin[msg.sender] */\n      0xffffffffffffffffffffffffffffffffffffffff\n      and\n      0xffffffffffffffffffffffffffffffffffffffff\n      and\n      dup2\n      mstore\n      0x20\n      add\n      swap1\n      dup2\n      mstore\n      0x20\n      add\n      0x00\n      keccak256\n      0x00\n      swap1\n      sload\n      swap1\n      0x0100\n      exp\n      swap1\n      div\n      0xff\n      and\n        /* \"Dcoffer/treasury.sol\":1010:1041  RouterAdmin[msg.sender] == true */\n      iszero\n      iszero\n      eq\n        /* \"Dcoffer/treasury.sol\":1002:1042  require(RouterAdmin[msg.sender] == true) */\n      tag_63\n      jumpi\n      0x00\n      dup1\n      revert\n    tag_63:\n        /* \"Dcoffer/treasury.sol\":1051:1069  uint256 eth_amount */\n      0x00\n        /* \"Dcoffer/treasury.sol\":1072:1091  DCF_ETH(dcf_amount) */\n      tag_64\n        /* \"Dcoffer/treasury.sol\":1080:1090  dcf_amount */\n      dup3\n        /* \"Dcoffer/treasury.sol\":1072:1079  DCF_ETH */\n      tag_11\n        /* \"Dcoffer/treasury.sol\":1072:1091  DCF_ETH(dcf_amount) */\n      jump\t// in\n    tag_64:\n        /* \"Dcoffer/treasury.sol\":1051:1091  uint256 eth_amount = DCF_ETH(dcf_amount) */\n      swap1\n      pop\n        /* \"Dcoffer/treasury.sol\":1100:1106  seller */\n      dup3\n        /* \"Dcoffer/treasury.sol\":1100:1115  seller.transfer */\n      0xffffffffffffffffffffffffffffffffffffffff\n      and\n        /* \"Dcoffer/treasury.sol\":1100:1127  seller.transfer(eth_amount) */\n      0x08fc\n        /* \"Dcoffer/treasury.sol\":1116:1126  eth_amount */\n      dup3\n        /* \"Dcoffer/treasury.sol\":1100:1127  seller.transfer(eth_amount) */\n      swap1\n      dup2\n      iszero\n      mul\n      swap1\n      mload(0x40)\n      0x00\n      mload(0x40)\n      dup1\n      dup4\n      sub\n      dup2\n      dup6\n      dup9\n      dup9\n      call\n      swap4\n      pop\n      pop\n      pop\n      pop\n      iszero\n      dup1\n      iszero\n      tag_66\n      jumpi\n      returndatasize\n      0x00\n      dup1\n      returndatacopy\n      revert(0x00, returndatasize)\n    tag_66:\n      pop\n        /* \"Dcoffer/treasury.sol\":1136:1141  dcoff */\n      0x00\n      dup1\n      sload\n      swap1\n      0x0100\n      exp\n      swap1\n      div\n      0xffffffffffffffffffffffffffffffffffffffff\n      and\n        /* \"Dcoffer/treasury.sol\":1136:1154  dcoff.transferFrom */\n      0xffffffffffffffffffffffffffffffffffffffff\n      and\n      0x23b872dd\n        /* \"Dcoffer/treasury.sol\":1155:1161  seller */\n      dup5\n        /* \"Dcoffer/treasury.sol\":1170:1171  0 */\n      0x00\n        /* \"Dcoffer/treasury.sol\":1173:1183  dcf_amount */\n      dup6\n        /* \"Dcoffer/treasury.sol\":1136:1184  dcoff.transferFrom(seller,address(0),dcf_amount) */\n      mload(0x40)\n      dup5\n      0xffffffff\n      and\n      0xe0\n      shl\n      dup2\n      mstore\n      0x04\n      add\n      tag_67\n      swap4\n      swap3\n      swap2\n      swap1\n      tag_68\n      jump\t// in\n    tag_67:\n      0x20\n      mload(0x40)\n      dup1\n      dup4\n      sub\n      dup2\n      0x00\n      dup8\n      gas\n      call\n      iszero\n      dup1\n      iszero\n      tag_70\n      jumpi\n      returndatasize\n      0x00\n      dup1\n      returndatacopy\n      revert(0x00, returndatasize)\n    tag_70:\n      pop\n      pop\n      pop\n      pop\n      mload(0x40)\n      returndatasize\n      not(0x1f)\n      0x1f\n      dup3\n      add\n      and\n      dup3\n      add\n      dup1\n      0x40\n      mstore\n      pop\n      dup2\n      add\n      swap1\n      tag_71\n      swap2\n      swap1\n      tag_61\n      jump\t// in\n    tag_71:\n      pop\n        /* \"Dcoffer/treasury.sol\":993:1190  {... */\n      pop\n        /* \"Dcoffer/treasury.sol\":925:1190  function market(address payable seller, uint256 dcf_amount)external {... */\n      pop\n      pop\n      jump\t// out\n        /* \"Dcoffer/treasury.sol\":1667:2025  function ETH_DCF(uint256 eth_amount)public view returns(uint256){... */\n    tag_26:\n        /* \"Dcoffer/treasury.sol\":1723:1730  uint256 */\n      0x00\n        /* \"Dcoffer/treasury.sol\":1738:1757  uint256 _eth_amount */\n      dup1\n        /* \"Dcoffer/treasury.sol\":1760:1781  address(this).balance */\n      selfbalance\n        /* \"Dcoffer/treasury.sol\":1738:1781  uint256 _eth_amount = address(this).balance */\n      swap1\n      pop\n        /* \"Dcoffer/treasury.sol\":1788:1807  uint256 _dcf_amount */\n      0x00\n        /* \"Dcoffer/treasury.sol\":1810:1815  dcoff */\n      dup1\n      0x00\n      swap1\n      sload\n      swap1\n      0x0100\n      exp\n      swap1\n      div\n      0xffffffffffffffffffffffffffffffffffffffff\n      and\n        /* \"Dcoffer/treasury.sol\":1810:1825  dcoff.balanceOf */\n      0xffffffffffffffffffffffffffffffffffffffff\n      and\n      0x70a08231\n        /* \"Dcoffer/treasury.sol\":1834:1838  this */\n      address\n        /* \"Dcoffer/treasury.sol\":1810:1840  dcoff.balanceOf(address(this)) */\n      mload(0x40)\n      dup3\n      0xffffffff\n      and\n      0xe0\n      shl\n      dup2\n      mstore\n      0x04\n      add\n      tag_73\n      swap2\n      swap1\n      tag_35\n      jump\t// in\n    tag_73:\n      0x20\n      mload(0x40)\n      dup1\n      dup4\n      sub\n      dup2\n      dup7\n      gas\n      staticcall\n      iszero\n      dup1\n      iszero\n      tag_75\n      jumpi\n      returndatasize\n      0x00\n      dup1\n      returndatacopy\n      revert(0x00, returndatasize)\n    tag_75:\n      pop\n      pop\n      pop\n      pop\n      mload(0x40)\n      returndatasize\n      not(0x1f)\n      0x1f\n      dup3\n      add\n      and\n      dup3\n      add\n      dup1\n      0x40\n      mstore\n      pop\n      dup2\n      add\n      swap1\n      tag_76\n      swap2\n      swap1\n      tag_39\n      jump\t// in\n    tag_76:\n        /* \"Dcoffer/treasury.sol\":1788:1840  uint256 _dcf_amount = dcoff.balanceOf(address(this)) */\n      swap1\n      pop\n        /* \"Dcoffer/treasury.sol\":1847:1867  uint256 Variable_eth */\n      0x00\n        /* \"Dcoffer/treasury.sol\":1870:1897  _eth_amount.add(eth_amount) */\n      tag_77\n        /* \"Dcoffer/treasury.sol\":1886:1896  eth_amount */\n      dup6\n        /* \"Dcoffer/treasury.sol\":1870:1881  _eth_amount */\n      dup5\n        /* \"Dcoffer/treasury.sol\":1870:1885  _eth_amount.add */\n      tag_41\n      swap1\n        /* \"Dcoffer/treasury.sol\":1870:1897  _eth_amount.add(eth_amount) */\n      swap2\n      swap1\n      0xffffffff\n      and\n      jump\t// in\n    tag_77:\n        /* \"Dcoffer/treasury.sol\":1847:1897  uint256 Variable_eth = _eth_amount.add(eth_amount) */\n      swap1\n      pop\n        /* \"Dcoffer/treasury.sol\":1904:1924  uint256 Variable_dcf */\n      0x00\n        /* \"Dcoffer/treasury.sol\":1927:1946  K.div(Variable_eth) */\n      tag_78\n        /* \"Dcoffer/treasury.sol\":1933:1945  Variable_eth */\n      dup3\n        /* \"Dcoffer/treasury.sol\":1927:1928  K */\n      sload(0x01)\n        /* \"Dcoffer/treasury.sol\":1927:1932  K.div */\n      tag_50\n      swap1\n        /* \"Dcoffer/treasury.sol\":1927:1946  K.div(Variable_eth) */\n      swap2\n      swap1\n      0xffffffff\n      and\n      jump\t// in\n    tag_78:\n        /* \"Dcoffer/treasury.sol\":1904:1946  uint256 Variable_dcf = K.div(Variable_eth) */\n      swap1\n      pop\n        /* \"Dcoffer/treasury.sol\":1953:1967  uint256 _price */\n      0x00\n        /* \"Dcoffer/treasury.sol\":1970:1999  _dcf_amount.sub(Variable_dcf) */\n      tag_79\n        /* \"Dcoffer/treasury.sol\":1986:1998  Variable_dcf */\n      dup3\n        /* \"Dcoffer/treasury.sol\":1970:1981  _dcf_amount */\n      dup6\n        /* \"Dcoffer/treasury.sol\":1970:1985  _dcf_amount.sub */\n      tag_52\n      swap1\n        /* \"Dcoffer/treasury.sol\":1970:1999  _dcf_amount.sub(Variable_dcf) */\n      swap2\n      swap1\n      0xffffffff\n      and\n      jump\t// in\n    tag_79:\n        /* \"Dcoffer/treasury.sol\":1953:1999  uint256 _price = _dcf_amount.sub(Variable_dcf) */\n      swap1\n      pop\n        /* \"Dcoffer/treasury.sol\":2013:2019  _price */\n      dup1\n        /* \"Dcoffer/treasury.sol\":2006:2019  return _price */\n      swap6\n      pop\n      pop\n      pop\n      pop\n      pop\n      pop\n        /* \"Dcoffer/treasury.sol\":1667:2025  function ETH_DCF(uint256 eth_amount)public view returns(uint256){... */\n      swap2\n      swap1\n      pop\n      jump\t// out\n        /* \"Dcoffer/treasury.sol\":604:704  function setRouter(address user, bool power)external onlyOwner{... */\n    tag_32:\n        /* \"Dcoffer/treasury.sol\":527:537  msg.sender */\n      caller\n        /* \"Dcoffer/treasury.sol\":518:537  owner == msg.sender */\n      0xffffffffffffffffffffffffffffffffffffffff\n      and\n        /* \"Dcoffer/treasury.sol\":518:523  owner */\n      0x02\n      0x00\n      swap1\n      sload\n      swap1\n      0x0100\n      exp\n      swap1\n      div\n      0xffffffffffffffffffffffffffffffffffffffff\n      and\n        /* \"Dcoffer/treasury.sol\":518:537  owner == msg.sender */\n      0xffffffffffffffffffffffffffffffffffffffff\n      and\n      eq\n        /* \"Dcoffer/treasury.sol\":510:574  require(owner == msg.sender, \"Ownable: caller is not the owner\") */\n      tag_81\n      jumpi\n      mload(0x40)\n      0x08c379a000000000000000000000000000000000000000000000000000000000\n      dup2\n      mstore\n      0x04\n      add\n      tag_82\n      swap1\n      tag_83\n      jump\t// in\n    tag_82:\n      mload(0x40)\n      dup1\n      swap2\n      sub\n      swap1\n      revert\n    tag_81:\n        /* \"Dcoffer/treasury.sol\":693:698  power */\n      dup1\n        /* \"Dcoffer/treasury.sol\":673:684  RouterAdmin */\n      0x03\n        /* \"Dcoffer/treasury.sol\":673:690  RouterAdmin[user] */\n      0x00\n        /* \"Dcoffer/treasury.sol\":685:689  user */\n      dup5\n        /* \"Dcoffer/treasury.sol\":673:690  RouterAdmin[user] */\n      0xffffffffffffffffffffffffffffffffffffffff\n      and\n      0xffffffffffffffffffffffffffffffffffffffff\n      and\n      dup2\n      mstore\n      0x20\n      add\n      swap1\n      dup2\n      mstore\n      0x20\n      add\n      0x00\n      keccak256\n      0x00\n        /* \"Dcoffer/treasury.sol\":673:698  RouterAdmin[user] = power */\n      0x0100\n      exp\n      dup2\n      sload\n      dup2\n      0xff\n      mul\n      not\n      and\n      swap1\n      dup4\n      iszero\n      iszero\n      mul\n      or\n      swap1\n      sstore\n      pop\n        /* \"Dcoffer/treasury.sol\":604:704  function setRouter(address user, bool power)external onlyOwner{... */\n      pop\n      pop\n      jump\t// out\n        /* \"@openzeppelin/contracts/utils/math/SafeMath.sol\":2755:2851  function add(uint256 a, uint256 b) internal pure returns (uint256) {... */\n    tag_41:\n        /* \"@openzeppelin/contracts/utils/math/SafeMath.sol\":2813:2820  uint256 */\n      0x00\n        /* \"@openzeppelin/contracts/utils/math/SafeMath.sol\":2843:2844  b */\n      dup2\n        /* \"@openzeppelin/contracts/utils/math/SafeMath.sol\":2839:2840  a */\n      dup4\n        /* \"@openzeppelin/contracts/utils/math/SafeMath.sol\":2839:2844  a + b */\n      tag_86\n      swap2\n      swap1\n      tag_87\n      jump\t// in\n    tag_86:\n        /* \"@openzeppelin/contracts/utils/math/SafeMath.sol\":2832:2844  return a + b */\n      swap1\n      pop\n        /* \"@openzeppelin/contracts/utils/math/SafeMath.sol\":2755:2851  function add(uint256 a, uint256 b) internal pure returns (uint256) {... */\n      swap3\n      swap2\n      pop\n      pop\n      jump\t// out\n        /* \"@openzeppelin/contracts/utils/math/SafeMath.sol\":3850:3946  function div(uint256 a, uint256 b) internal pure returns (uint256) {... */\n    tag_50:\n        /* \"@openzeppelin/contracts/utils/math/SafeMath.sol\":3908:3915  uint256 */\n      0x00\n        /* \"@openzeppelin/contracts/utils/math/SafeMath.sol\":3938:3939  b */\n      dup2\n        /* \"@openzeppelin/contracts/utils/math/SafeMath.sol\":3934:3935  a */\n      dup4\n        /* \"@openzeppelin/contracts/utils/math/SafeMath.sol\":3934:3939  a / b */\n      tag_89\n      swap2\n      swap1\n      tag_90\n      jump\t// in\n    tag_89:\n        /* \"@openzeppelin/contracts/utils/math/SafeMath.sol\":3927:3939  return a / b */\n      swap1\n      pop\n        /* \"@openzeppelin/contracts/utils/math/SafeMath.sol\":3850:3946  function div(uint256 a, uint256 b) internal pure returns (uint256) {... */\n      swap3\n      swap2\n      pop\n      pop\n      jump\t// out\n        /* \"@openzeppelin/contracts/utils/math/SafeMath.sol\":3122:3218  function sub(uint256 a, uint256 b) internal pure returns (uint256) {... */\n    tag_52:\n        /* \"@openzeppelin/contracts/utils/math/SafeMath.sol\":3180:3187  uint256 */\n      0x00\n        /* \"@openzeppelin/contracts/utils/math/SafeMath.sol\":3210:3211  b */\n      dup2\n        /* \"@openzeppelin/contracts/utils/math/SafeMath.sol\":3206:3207  a */\n      dup4\n        /* \"@openzeppelin/contracts/utils/math/SafeMath.sol\":3206:3211  a - b */\n      tag_92\n      swap2\n      swap1\n      tag_93\n      jump\t// in\n    tag_92:\n        /* \"@openzeppelin/contracts/utils/math/SafeMath.sol\":3199:3211  return a - b */\n      swap1\n      pop\n        /* \"@openzeppelin/contracts/utils/math/SafeMath.sol\":3122:3218  function sub(uint256 a, uint256 b) internal pure returns (uint256) {... */\n      swap3\n      swap2\n      pop\n      pop\n      jump\t// out\n        /* \"#utility.yul\":88:205   */\n    tag_95:\n        /* \"#utility.yul\":197:198   */\n      0x00\n        /* \"#utility.yul\":194:195   */\n      dup1\n        /* \"#utility.yul\":187:199   */\n      revert\n        /* \"#utility.yul\":334:411   */\n    tag_97:\n        /* \"#utility.yul\":371:378   */\n      0x00\n        /* \"#utility.yul\":400:405   */\n      dup2\n        /* \"#utility.yul\":389:405   */\n      swap1\n      pop\n        /* \"#utility.yul\":334:411   */\n      swap2\n      swap1\n      pop\n      jump\t// out\n        /* \"#utility.yul\":417:539   */\n    tag_98:\n        /* \"#utility.yul\":490:514   */\n      tag_130\n        /* \"#utility.yul\":508:513   */\n      dup2\n        /* \"#utility.yul\":490:514   */\n      tag_97\n      jump\t// in\n    tag_130:\n        /* \"#utility.yul\":483:488   */\n      dup2\n        /* \"#utility.yul\":480:515   */\n      eq\n        /* \"#utility.yul\":470:533   */\n      tag_131\n      jumpi\n        /* \"#utility.yul\":529:530   */\n      0x00\n        /* \"#utility.yul\":526:527   */\n      dup1\n        /* \"#utility.yul\":519:531   */\n      revert\n        /* \"#utility.yul\":470:533   */\n    tag_131:\n        /* \"#utility.yul\":417:539   */\n      pop\n      jump\t// out\n        /* \"#utility.yul\":545:684   */\n    tag_99:\n        /* \"#utility.yul\":591:596   */\n      0x00\n        /* \"#utility.yul\":629:635   */\n      dup2\n        /* \"#utility.yul\":616:636   */\n      calldataload\n        /* \"#utility.yul\":607:636   */\n      swap1\n      pop\n        /* \"#utility.yul\":645:678   */\n      tag_133\n        /* \"#utility.yul\":672:677   */\n      dup2\n        /* \"#utility.yul\":645:678   */\n      tag_98\n      jump\t// in\n    tag_133:\n        /* \"#utility.yul\":545:684   */\n      swap3\n      swap2\n      pop\n      pop\n      jump\t// out\n        /* \"#utility.yul\":690:1019   */\n    tag_10:\n        /* \"#utility.yul\":749:755   */\n      0x00\n        /* \"#utility.yul\":798:800   */\n      0x20\n        /* \"#utility.yul\":786:795   */\n      dup3\n        /* \"#utility.yul\":777:784   */\n      dup5\n        /* \"#utility.yul\":773:796   */\n      sub\n        /* \"#utility.yul\":769:801   */\n      slt\n        /* \"#utility.yul\":766:885   */\n      iszero\n      tag_135\n      jumpi\n        /* \"#utility.yul\":804:883   */\n      tag_136\n      tag_95\n      jump\t// in\n    tag_136:\n        /* \"#utility.yul\":766:885   */\n    tag_135:\n        /* \"#utility.yul\":924:925   */\n      0x00\n        /* \"#utility.yul\":949:1002   */\n      tag_137\n        /* \"#utility.yul\":994:1001   */\n      dup5\n        /* \"#utility.yul\":985:991   */\n      dup3\n        /* \"#utility.yul\":974:983   */\n      dup6\n        /* \"#utility.yul\":970:992   */\n      add\n        /* \"#utility.yul\":949:1002   */\n      tag_99\n      jump\t// in\n    tag_137:\n        /* \"#utility.yul\":939:1002   */\n      swap2\n      pop\n        /* \"#utility.yul\":895:1012   */\n      pop\n        /* \"#utility.yul\":690:1019   */\n      swap3\n      swap2\n      pop\n      pop\n      jump\t// out\n        /* \"#utility.yul\":1025:1143   */\n    tag_100:\n        /* \"#utility.yul\":1112:1136   */\n      tag_139\n        /* \"#utility.yul\":1130:1135   */\n      dup2\n        /* \"#utility.yul\":1112:1136   */\n      tag_97\n      jump\t// in\n    tag_139:\n        /* \"#utility.yul\":1107:1110   */\n      dup3\n        /* \"#utility.yul\":1100:1137   */\n      mstore\n        /* \"#utility.yul\":1025:1143   */\n      pop\n      pop\n      jump\t// out\n        /* \"#utility.yul\":1149:1371   */\n    tag_13:\n        /* \"#utility.yul\":1242:1246   */\n      0x00\n        /* \"#utility.yul\":1280:1282   */\n      0x20\n        /* \"#utility.yul\":1269:1278   */\n      dup3\n        /* \"#utility.yul\":1265:1283   */\n      add\n        /* \"#utility.yul\":1257:1283   */\n      swap1\n      pop\n        /* \"#utility.yul\":1293:1364   */\n      tag_141\n        /* \"#utility.yul\":1361:1362   */\n      0x00\n        /* \"#utility.yul\":1350:1359   */\n      dup4\n        /* \"#utility.yul\":1346:1363   */\n      add\n        /* \"#utility.yul\":1337:1343   */\n      dup5\n        /* \"#utility.yul\":1293:1364   */\n      tag_100\n      jump\t// in\n    tag_141:\n        /* \"#utility.yul\":1149:1371   */\n      swap3\n      swap2\n      pop\n      pop\n      jump\t// out\n        /* \"#utility.yul\":1377:1503   */\n    tag_101:\n        /* \"#utility.yul\":1414:1421   */\n      0x00\n        /* \"#utility.yul\":1454:1496   */\n      0xffffffffffffffffffffffffffffffffffffffff\n        /* \"#utility.yul\":1447:1452   */\n      dup3\n        /* \"#utility.yul\":1443:1497   */\n      and\n        /* \"#utility.yul\":1432:1497   */\n      swap1\n      pop\n        /* \"#utility.yul\":1377:1503   */\n      swap2\n      swap1\n      pop\n      jump\t// out\n        /* \"#utility.yul\":1509:1605   */\n    tag_102:\n        /* \"#utility.yul\":1546:1553   */\n      0x00\n        /* \"#utility.yul\":1575:1599   */\n      tag_144\n        /* \"#utility.yul\":1593:1598   */\n      dup3\n        /* \"#utility.yul\":1575:1599   */\n      tag_101\n      jump\t// in\n    tag_144:\n        /* \"#utility.yul\":1564:1599   */\n      swap1\n      pop\n        /* \"#utility.yul\":1509:1605   */\n      swap2\n      swap1\n      pop\n      jump\t// out\n        /* \"#utility.yul\":1611:1733   */\n    tag_103:\n        /* \"#utility.yul\":1684:1708   */\n      tag_146\n        /* \"#utility.yul\":1702:1707   */\n      dup2\n        /* \"#utility.yul\":1684:1708   */\n      tag_102\n      jump\t// in\n    tag_146:\n        /* \"#utility.yul\":1677:1682   */\n      dup2\n        /* \"#utility.yul\":1674:1709   */\n      eq\n        /* \"#utility.yul\":1664:1727   */\n      tag_147\n      jumpi\n        /* \"#utility.yul\":1723:1724   */\n      0x00\n        /* \"#utility.yul\":1720:1721   */\n      dup1\n        /* \"#utility.yul\":1713:1725   */\n      revert\n        /* \"#utility.yul\":1664:1727   */\n    tag_147:\n        /* \"#utility.yul\":1611:1733   */\n      pop\n      jump\t// out\n        /* \"#utility.yul\":1739:1878   */\n    tag_104:\n        /* \"#utility.yul\":1785:1790   */\n      0x00\n        /* \"#utility.yul\":1823:1829   */\n      dup2\n        /* \"#utility.yul\":1810:1830   */\n      calldataload\n        /* \"#utility.yul\":1801:1830   */\n      swap1\n      pop\n        /* \"#utility.yul\":1839:1872   */\n      tag_149\n        /* \"#utility.yul\":1866:1871   */\n      dup2\n        /* \"#utility.yul\":1839:1872   */\n      tag_103\n      jump\t// in\n    tag_149:\n        /* \"#utility.yul\":1739:1878   */\n      swap3\n      swap2\n      pop\n      pop\n      jump\t// out\n        /* \"#utility.yul\":1884:2213   */\n    tag_16:\n        /* \"#utility.yul\":1943:1949   */\n      0x00\n        /* \"#utility.yul\":1992:1994   */\n      0x20\n        /* \"#utility.yul\":1980:1989   */\n      dup3\n        /* \"#utility.yul\":1971:1978   */\n      dup5\n        /* \"#utility.yul\":1967:1990   */\n      sub\n        /* \"#utility.yul\":1963:1995   */\n      slt\n        /* \"#utility.yul\":1960:2079   */\n      iszero\n      tag_151\n      jumpi\n        /* \"#utility.yul\":1998:2077   */\n      tag_152\n      tag_95\n      jump\t// in\n    tag_152:\n        /* \"#utility.yul\":1960:2079   */\n    tag_151:\n        /* \"#utility.yul\":2118:2119   */\n      0x00\n        /* \"#utility.yul\":2143:2196   */\n      tag_153\n        /* \"#utility.yul\":2188:2195   */\n      dup5\n        /* \"#utility.yul\":2179:2185   */\n      dup3\n        /* \"#utility.yul\":2168:2177   */\n      dup6\n        /* \"#utility.yul\":2164:2186   */\n      add\n        /* \"#utility.yul\":2143:2196   */\n      tag_104\n      jump\t// in\n    tag_153:\n        /* \"#utility.yul\":2133:2196   */\n      swap2\n      pop\n        /* \"#utility.yul\":2089:2206   */\n      pop\n        /* \"#utility.yul\":1884:2213   */\n      swap3\n      swap2\n      pop\n      pop\n      jump\t// out\n        /* \"#utility.yul\":2219:2323   */\n    tag_105:\n        /* \"#utility.yul\":2264:2271   */\n      0x00\n        /* \"#utility.yul\":2293:2317   */\n      tag_155\n        /* \"#utility.yul\":2311:2316   */\n      dup3\n        /* \"#utility.yul\":2293:2317   */\n      tag_101\n      jump\t// in\n    tag_155:\n        /* \"#utility.yul\":2282:2317   */\n      swap1\n      pop\n        /* \"#utility.yul\":2219:2323   */\n      swap2\n      swap1\n      pop\n      jump\t// out\n        /* \"#utility.yul\":2329:2467   */\n    tag_106:\n        /* \"#utility.yul\":2410:2442   */\n      tag_157\n        /* \"#utility.yul\":2436:2441   */\n      dup2\n        /* \"#utility.yul\":2410:2442   */\n      tag_105\n      jump\t// in\n    tag_157:\n        /* \"#utility.yul\":2403:2408   */\n      dup2\n        /* \"#utility.yul\":2400:2443   */\n      eq\n        /* \"#utility.yul\":2390:2461   */\n      tag_158\n      jumpi\n        /* \"#utility.yul\":2457:2458   */\n      0x00\n        /* \"#utility.yul\":2454:2455   */\n      dup1\n        /* \"#utility.yul\":2447:2459   */\n      revert\n        /* \"#utility.yul\":2390:2461   */\n    tag_158:\n        /* \"#utility.yul\":2329:2467   */\n      pop\n      jump\t// out\n        /* \"#utility.yul\":2473:2628   */\n    tag_107:\n        /* \"#utility.yul\":2527:2532   */\n      0x00\n        /* \"#utility.yul\":2565:2571   */\n      dup2\n        /* \"#utility.yul\":2552:2572   */\n      calldataload\n        /* \"#utility.yul\":2543:2572   */\n      swap1\n      pop\n        /* \"#utility.yul\":2581:2622   */\n      tag_160\n        /* \"#utility.yul\":2616:2621   */\n      dup2\n        /* \"#utility.yul\":2581:2622   */\n      tag_106\n      jump\t// in\n    tag_160:\n        /* \"#utility.yul\":2473:2628   */\n      swap3\n      swap2\n      pop\n      pop\n      jump\t// out\n        /* \"#utility.yul\":2634:3124   */\n    tag_21:\n        /* \"#utility.yul\":2710:2716   */\n      0x00\n        /* \"#utility.yul\":2718:2724   */\n      dup1\n        /* \"#utility.yul\":2767:2769   */\n      0x40\n        /* \"#utility.yul\":2755:2764   */\n      dup4\n        /* \"#utility.yul\":2746:2753   */\n      dup6\n        /* \"#utility.yul\":2742:2765   */\n      sub\n        /* \"#utility.yul\":2738:2770   */\n      slt\n        /* \"#utility.yul\":2735:2854   */\n      iszero\n      tag_162\n      jumpi\n        /* \"#utility.yul\":2773:2852   */\n      tag_163\n      tag_95\n      jump\t// in\n    tag_163:\n        /* \"#utility.yul\":2735:2854   */\n    tag_162:\n        /* \"#utility.yul\":2893:2894   */\n      0x00\n        /* \"#utility.yul\":2918:2979   */\n      tag_164\n        /* \"#utility.yul\":2971:2978   */\n      dup6\n        /* \"#utility.yul\":2962:2968   */\n      dup3\n        /* \"#utility.yul\":2951:2960   */\n      dup7\n        /* \"#utility.yul\":2947:2969   */\n      add\n        /* \"#utility.yul\":2918:2979   */\n      tag_107\n      jump\t// in\n    tag_164:\n        /* \"#utility.yul\":2908:2979   */\n      swap3\n      pop\n        /* \"#utility.yul\":2864:2989   */\n      pop\n        /* \"#utility.yul\":3028:3030   */\n      0x20\n        /* \"#utility.yul\":3054:3107   */\n      tag_165\n        /* \"#utility.yul\":3099:3106   */\n      dup6\n        /* \"#utility.yul\":3090:3096   */\n      dup3\n        /* \"#utility.yul\":3079:3088   */\n      dup7\n        /* \"#utility.yul\":3075:3097   */\n      add\n        /* \"#utility.yul\":3054:3107   */\n      tag_99\n      jump\t// in\n    tag_165:\n        /* \"#utility.yul\":3044:3107   */\n      swap2\n      pop\n        /* \"#utility.yul\":2999:3117   */\n      pop\n        /* \"#utility.yul\":2634:3124   */\n      swap3\n      pop\n      swap3\n      swap1\n      pop\n      jump\t// out\n        /* \"#utility.yul\":3130:3220   */\n    tag_108:\n        /* \"#utility.yul\":3164:3171   */\n      0x00\n        /* \"#utility.yul\":3207:3212   */\n      dup2\n        /* \"#utility.yul\":3200:3213   */\n      iszero\n        /* \"#utility.yul\":3193:3214   */\n      iszero\n        /* \"#utility.yul\":3182:3214   */\n      swap1\n      pop\n        /* \"#utility.yul\":3130:3220   */\n      swap2\n      swap1\n      pop\n      jump\t// out\n        /* \"#utility.yul\":3226:3342   */\n    tag_109:\n        /* \"#utility.yul\":3296:3317   */\n      tag_168\n        /* \"#utility.yul\":3311:3316   */\n      dup2\n        /* \"#utility.yul\":3296:3317   */\n      tag_108\n      jump\t// in\n    tag_168:\n        /* \"#utility.yul\":3289:3294   */\n      dup2\n        /* \"#utility.yul\":3286:3318   */\n      eq\n        /* \"#utility.yul\":3276:3336   */\n      tag_169\n      jumpi\n        /* \"#utility.yul\":3332:3333   */\n      0x00\n        /* \"#utility.yul\":3329:3330   */\n      dup1\n        /* \"#utility.yul\":3322:3334   */\n      revert\n        /* \"#utility.yul\":3276:3336   */\n    tag_169:\n        /* \"#utility.yul\":3226:3342   */\n      pop\n      jump\t// out\n        /* \"#utility.yul\":3348:3481   */\n    tag_110:\n        /* \"#utility.yul\":3391:3396   */\n      0x00\n        /* \"#utility.yul\":3429:3435   */\n      dup2\n        /* \"#utility.yul\":3416:3436   */\n      calldataload\n        /* \"#utility.yul\":3407:3436   */\n      swap1\n      pop\n        /* \"#utility.yul\":3445:3475   */\n      tag_171\n        /* \"#utility.yul\":3469:3474   */\n      dup2\n        /* \"#utility.yul\":3445:3475   */\n      tag_109\n      jump\t// in\n    tag_171:\n        /* \"#utility.yul\":3348:3481   */\n      swap3\n      swap2\n      pop\n      pop\n      jump\t// out\n        /* \"#utility.yul\":3487:3955   */\n    tag_31:\n        /* \"#utility.yul\":3552:3558   */\n      0x00\n        /* \"#utility.yul\":3560:3566   */\n      dup1\n        /* \"#utility.yul\":3609:3611   */\n      0x40\n        /* \"#utility.yul\":3597:3606   */\n      dup4\n        /* \"#utility.yul\":3588:3595   */\n      dup6\n        /* \"#utility.yul\":3584:3607   */\n      sub\n        /* \"#utility.yul\":3580:3612   */\n      slt\n        /* \"#utility.yul\":3577:3696   */\n      iszero\n      tag_173\n      jumpi\n        /* \"#utility.yul\":3615:3694   */\n      tag_174\n      tag_95\n      jump\t// in\n    tag_174:\n        /* \"#utility.yul\":3577:3696   */\n    tag_173:\n        /* \"#utility.yul\":3735:3736   */\n      0x00\n        /* \"#utility.yul\":3760:3813   */\n      tag_175\n        /* \"#utility.yul\":3805:3812   */\n      dup6\n        /* \"#utility.yul\":3796:3802   */\n      dup3\n        /* \"#utility.yul\":3785:3794   */\n      dup7\n        /* \"#utility.yul\":3781:3803   */\n      add\n        /* \"#utility.yul\":3760:3813   */\n      tag_104\n      jump\t// in\n    tag_175:\n        /* \"#utility.yul\":3750:3813   */\n      swap3\n      pop\n        /* \"#utility.yul\":3706:3823   */\n      pop\n        /* \"#utility.yul\":3862:3864   */\n      0x20\n        /* \"#utility.yul\":3888:3938   */\n      tag_176\n        /* \"#utility.yul\":3930:3937   */\n      dup6\n        /* \"#utility.yul\":3921:3927   */\n      dup3\n        /* \"#utility.yul\":3910:3919   */\n      dup7\n        /* \"#utility.yul\":3906:3928   */\n      add\n        /* \"#utility.yul\":3888:3938   */\n      tag_110\n      jump\t// in\n    tag_176:\n        /* \"#utility.yul\":3878:3938   */\n      swap2\n      pop\n        /* \"#utility.yul\":3833:3948   */\n      pop\n        /* \"#utility.yul\":3487:3955   */\n      swap3\n      pop\n      swap3\n      swap1\n      pop\n      jump\t// out\n        /* \"#utility.yul\":3961:4079   */\n    tag_111:\n        /* \"#utility.yul\":4048:4072   */\n      tag_178\n        /* \"#utility.yul\":4066:4071   */\n      dup2\n        /* \"#utility.yul\":4048:4072   */\n      tag_102\n      jump\t// in\n    tag_178:\n        /* \"#utility.yul\":4043:4046   */\n      dup3\n        /* \"#utility.yul\":4036:4073   */\n      mstore\n        /* \"#utility.yul\":3961:4079   */\n      pop\n      pop\n      jump\t// out\n        /* \"#utility.yul\":4085:4307   */\n    tag_35:\n        /* \"#utility.yul\":4178:4182   */\n      0x00\n        /* \"#utility.yul\":4216:4218   */\n      0x20\n        /* \"#utility.yul\":4205:4214   */\n      dup3\n        /* \"#utility.yul\":4201:4219   */\n      add\n        /* \"#utility.yul\":4193:4219   */\n      swap1\n      pop\n        /* \"#utility.yul\":4229:4300   */\n      tag_180\n        /* \"#utility.yul\":4297:4298   */\n      0x00\n        /* \"#utility.yul\":4286:4295   */\n      dup4\n        /* \"#utility.yul\":4282:4299   */\n      add\n        /* \"#utility.yul\":4273:4279   */\n      dup5\n        /* \"#utility.yul\":4229:4300   */\n      tag_111\n      jump\t// in\n    tag_180:\n        /* \"#utility.yul\":4085:4307   */\n      swap3\n      swap2\n      pop\n      pop\n      jump\t// out\n        /* \"#utility.yul\":4313:4456   */\n    tag_112:\n        /* \"#utility.yul\":4370:4375   */\n      0x00\n        /* \"#utility.yul\":4401:4407   */\n      dup2\n        /* \"#utility.yul\":4395:4408   */\n      mload\n        /* \"#utility.yul\":4386:4408   */\n      swap1\n      pop\n        /* \"#utility.yul\":4417:4450   */\n      tag_182\n        /* \"#utility.yul\":4444:4449   */\n      dup2\n        /* \"#utility.yul\":4417:4450   */\n      tag_98\n      jump\t// in\n    tag_182:\n        /* \"#utility.yul\":4313:4456   */\n      swap3\n      swap2\n      pop\n      pop\n      jump\t// out\n        /* \"#utility.yul\":4462:4813   */\n    tag_39:\n        /* \"#utility.yul\":4532:4538   */\n      0x00\n        /* \"#utility.yul\":4581:4583   */\n      0x20\n        /* \"#utility.yul\":4569:4578   */\n      dup3\n        /* \"#utility.yul\":4560:4567   */\n      dup5\n        /* \"#utility.yul\":4556:4579   */\n      sub\n        /* \"#utility.yul\":4552:4584   */\n      slt\n        /* \"#utility.yul\":4549:4668   */\n      iszero\n      tag_184\n      jumpi\n        /* \"#utility.yul\":4587:4666   */\n      tag_185\n      tag_95\n      jump\t// in\n    tag_185:\n        /* \"#utility.yul\":4549:4668   */\n    tag_184:\n        /* \"#utility.yul\":4707:4708   */\n      0x00\n        /* \"#utility.yul\":4732:4796   */\n      tag_186\n        /* \"#utility.yul\":4788:4795   */\n      dup5\n        /* \"#utility.yul\":4779:4785   */\n      dup3\n        /* \"#utility.yul\":4768:4777   */\n      dup6\n        /* \"#utility.yul\":4764:4786   */\n      add\n        /* \"#utility.yul\":4732:4796   */\n      tag_112\n      jump\t// in\n    tag_186:\n        /* \"#utility.yul\":4722:4796   */\n      swap2\n      pop\n        /* \"#utility.yul\":4678:4806   */\n      pop\n        /* \"#utility.yul\":4462:4813   */\n      swap3\n      swap2\n      pop\n      pop\n      jump\t// out\n        /* \"#utility.yul\":4819:5151   */\n    tag_57:\n        /* \"#utility.yul\":4940:4944   */\n      0x00\n        /* \"#utility.yul\":4978:4980   */\n      0x40\n        /* \"#utility.yul\":4967:4976   */\n      dup3\n        /* \"#utility.yul\":4963:4981   */\n      add\n        /* \"#utility.yul\":4955:4981   */\n      swap1\n      pop\n        /* \"#utility.yul\":4991:5062   */\n      tag_188\n        /* \"#utility.yul\":5059:5060   */\n      0x00\n        /* \"#utility.yul\":5048:5057   */\n      dup4\n        /* \"#utility.yul\":5044:5061   */\n      add\n        /* \"#utility.yul\":5035:5041   */\n      dup6\n        /* \"#utility.yul\":4991:5062   */\n      tag_111\n      jump\t// in\n    tag_188:\n        /* \"#utility.yul\":5072:5144   */\n      tag_189\n        /* \"#utility.yul\":5140:5142   */\n      0x20\n        /* \"#utility.yul\":5129:5138   */\n      dup4\n        /* \"#utility.yul\":5125:5143   */\n      add\n        /* \"#utility.yul\":5116:5122   */\n      dup5\n        /* \"#utility.yul\":5072:5144   */\n      tag_100\n      jump\t// in\n    tag_189:\n        /* \"#utility.yul\":4819:5151   */\n      swap4\n      swap3\n      pop\n      pop\n      pop\n      jump\t// out\n        /* \"#utility.yul\":5157:5294   */\n    tag_113:\n        /* \"#utility.yul\":5211:5216   */\n      0x00\n        /* \"#utility.yul\":5242:5248   */\n      dup2\n        /* \"#utility.yul\":5236:5249   */\n      mload\n        /* \"#utility.yul\":5227:5249   */\n      swap1\n      pop\n        /* \"#utility.yul\":5258:5288   */\n      tag_191\n        /* \"#utility.yul\":5282:5287   */\n      dup2\n        /* \"#utility.yul\":5258:5288   */\n      tag_109\n      jump\t// in\n    tag_191:\n        /* \"#utility.yul\":5157:5294   */\n      swap3\n      swap2\n      pop\n      pop\n      jump\t// out\n        /* \"#utility.yul\":5300:5645   */\n    tag_61:\n        /* \"#utility.yul\":5367:5373   */\n      0x00\n        /* \"#utility.yul\":5416:5418   */\n      0x20\n        /* \"#utility.yul\":5404:5413   */\n      dup3\n        /* \"#utility.yul\":5395:5402   */\n      dup5\n        /* \"#utility.yul\":5391:5414   */\n      sub\n        /* \"#utility.yul\":5387:5419   */\n      slt\n        /* \"#utility.yul\":5384:5503   */\n      iszero\n      tag_193\n      jumpi\n        /* \"#utility.yul\":5422:5501   */\n      tag_194\n      tag_95\n      jump\t// in\n    tag_194:\n        /* \"#utility.yul\":5384:5503   */\n    tag_193:\n        /* \"#utility.yul\":5542:5543   */\n      0x00\n        /* \"#utility.yul\":5567:5628   */\n      tag_195\n        /* \"#utility.yul\":5620:5627   */\n      dup5\n        /* \"#utility.yul\":5611:5617   */\n      dup3\n        /* \"#utility.yul\":5600:5609   */\n      dup6\n        /* \"#utility.yul\":5596:5618   */\n      add\n        /* \"#utility.yul\":5567:5628   */\n      tag_113\n      jump\t// in\n    tag_195:\n        /* \"#utility.yul\":5557:5628   */\n      swap2\n      pop\n        /* \"#utility.yul\":5513:5638   */\n      pop\n        /* \"#utility.yul\":5300:5645   */\n      swap3\n      swap2\n      pop\n      pop\n      jump\t// out\n        /* \"#utility.yul\":5651:5711   */\n    tag_114:\n        /* \"#utility.yul\":5679:5682   */\n      0x00\n        /* \"#utility.yul\":5700:5705   */\n      dup2\n        /* \"#utility.yul\":5693:5705   */\n      swap1\n      pop\n        /* \"#utility.yul\":5651:5711   */\n      swap2\n      swap1\n      pop\n      jump\t// out\n        /* \"#utility.yul\":5717:5859   */\n    tag_115:\n        /* \"#utility.yul\":5767:5776   */\n      0x00\n        /* \"#utility.yul\":5800:5853   */\n      tag_198\n        /* \"#utility.yul\":5818:5852   */\n      tag_199\n        /* \"#utility.yul\":5827:5851   */\n      tag_200\n        /* \"#utility.yul\":5845:5850   */\n      dup5\n        /* \"#utility.yul\":5827:5851   */\n      tag_101\n      jump\t// in\n    tag_200:\n        /* \"#utility.yul\":5818:5852   */\n      tag_114\n      jump\t// in\n    tag_199:\n        /* \"#utility.yul\":5800:5853   */\n      tag_101\n      jump\t// in\n    tag_198:\n        /* \"#utility.yul\":5787:5853   */\n      swap1\n      pop\n        /* \"#utility.yul\":5717:5859   */\n      swap2\n      swap1\n      pop\n      jump\t// out\n        /* \"#utility.yul\":5865:5991   */\n    tag_116:\n        /* \"#utility.yul\":5915:5924   */\n      0x00\n        /* \"#utility.yul\":5948:5985   */\n      tag_202\n        /* \"#utility.yul\":5979:5984   */\n      dup3\n        /* \"#utility.yul\":5948:5985   */\n      tag_115\n      jump\t// in\n    tag_202:\n        /* \"#utility.yul\":5935:5985   */\n      swap1\n      pop\n        /* \"#utility.yul\":5865:5991   */\n      swap2\n      swap1\n      pop\n      jump\t// out\n        /* \"#utility.yul\":5997:6131   */\n    tag_117:\n        /* \"#utility.yul\":6055:6064   */\n      0x00\n        /* \"#utility.yul\":6088:6125   */\n      tag_204\n        /* \"#utility.yul\":6119:6124   */\n      dup3\n        /* \"#utility.yul\":6088:6125   */\n      tag_116\n      jump\t// in\n    tag_204:\n        /* \"#utility.yul\":6075:6125   */\n      swap1\n      pop\n        /* \"#utility.yul\":5997:6131   */\n      swap2\n      swap1\n      pop\n      jump\t// out\n        /* \"#utility.yul\":6137:6284   */\n    tag_118:\n        /* \"#utility.yul\":6232:6277   */\n      tag_206\n        /* \"#utility.yul\":6271:6276   */\n      dup2\n        /* \"#utility.yul\":6232:6277   */\n      tag_117\n      jump\t// in\n    tag_206:\n        /* \"#utility.yul\":6227:6230   */\n      dup3\n        /* \"#utility.yul\":6220:6278   */\n      mstore\n        /* \"#utility.yul\":6137:6284   */\n      pop\n      pop\n      jump\t// out\n        /* \"#utility.yul\":6290:6748   */\n    tag_68:\n        /* \"#utility.yul\":6447:6451   */\n      0x00\n        /* \"#utility.yul\":6485:6487   */\n      0x60\n        /* \"#utility.yul\":6474:6483   */\n      dup3\n        /* \"#utility.yul\":6470:6488   */\n      add\n        /* \"#utility.yul\":6462:6488   */\n      swap1\n      pop\n        /* \"#utility.yul\":6498:6577   */\n      tag_208\n        /* \"#utility.yul\":6574:6575   */\n      0x00\n        /* \"#utility.yul\":6563:6572   */\n      dup4\n        /* \"#utility.yul\":6559:6576   */\n      add\n        /* \"#utility.yul\":6550:6556   */\n      dup7\n        /* \"#utility.yul\":6498:6577   */\n      tag_118\n      jump\t// in\n    tag_208:\n        /* \"#utility.yul\":6587:6659   */\n      tag_209\n        /* \"#utility.yul\":6655:6657   */\n      0x20\n        /* \"#utility.yul\":6644:6653   */\n      dup4\n        /* \"#utility.yul\":6640:6658   */\n      add\n        /* \"#utility.yul\":6631:6637   */\n      dup6\n        /* \"#utility.yul\":6587:6659   */\n      tag_111\n      jump\t// in\n    tag_209:\n        /* \"#utility.yul\":6669:6741   */\n      tag_210\n        /* \"#utility.yul\":6737:6739   */\n      0x40\n        /* \"#utility.yul\":6726:6735   */\n      dup4\n        /* \"#utility.yul\":6722:6740   */\n      add\n        /* \"#utility.yul\":6713:6719   */\n      dup5\n        /* \"#utility.yul\":6669:6741   */\n      tag_100\n      jump\t// in\n    tag_210:\n        /* \"#utility.yul\":6290:6748   */\n      swap5\n      swap4\n      pop\n      pop\n      pop\n      pop\n      jump\t// out\n        /* \"#utility.yul\":6754:6923   */\n    tag_119:\n        /* \"#utility.yul\":6838:6849   */\n      0x00\n        /* \"#utility.yul\":6872:6878   */\n      dup3\n        /* \"#utility.yul\":6867:6870   */\n      dup3\n        /* \"#utility.yul\":6860:6879   */\n      mstore\n        /* \"#utility.yul\":6912:6916   */\n      0x20\n        /* \"#utility.yul\":6907:6910   */\n      dup3\n        /* \"#utility.yul\":6903:6917   */\n      add\n        /* \"#utility.yul\":6888:6917   */\n      swap1\n      pop\n        /* \"#utility.yul\":6754:6923   */\n      swap3\n      swap2\n      pop\n      pop\n      jump\t// out\n        /* \"#utility.yul\":6929:7111   */\n    tag_120:\n        /* \"#utility.yul\":7069:7103   */\n      0x4f776e61626c653a2063616c6c6572206973206e6f7420746865206f776e6572\n        /* \"#utility.yul\":7065:7066   */\n      0x00\n        /* \"#utility.yul\":7057:7063   */\n      dup3\n        /* \"#utility.yul\":7053:7067   */\n      add\n        /* \"#utility.yul\":7046:7104   */\n      mstore\n        /* \"#utility.yul\":6929:7111   */\n      pop\n      jump\t// out\n        /* \"#utility.yul\":7117:7483   */\n    tag_121:\n        /* \"#utility.yul\":7259:7262   */\n      0x00\n        /* \"#utility.yul\":7280:7347   */\n      tag_214\n        /* \"#utility.yul\":7344:7346   */\n      0x20\n        /* \"#utility.yul\":7339:7342   */\n      dup4\n        /* \"#utility.yul\":7280:7347   */\n      tag_119\n      jump\t// in\n    tag_214:\n        /* \"#utility.yul\":7273:7347   */\n      swap2\n      pop\n        /* \"#utility.yul\":7356:7449   */\n      tag_215\n        /* \"#utility.yul\":7445:7448   */\n      dup3\n        /* \"#utility.yul\":7356:7449   */\n      tag_120\n      jump\t// in\n    tag_215:\n        /* \"#utility.yul\":7474:7476   */\n      0x20\n        /* \"#utility.yul\":7469:7472   */\n      dup3\n        /* \"#utility.yul\":7465:7477   */\n      add\n        /* \"#utility.yul\":7458:7477   */\n      swap1\n      pop\n        /* \"#utility.yul\":7117:7483   */\n      swap2\n      swap1\n      pop\n      jump\t// out\n        /* \"#utility.yul\":7489:7908   */\n    tag_83:\n        /* \"#utility.yul\":7655:7659   */\n      0x00\n        /* \"#utility.yul\":7693:7695   */\n      0x20\n        /* \"#utility.yul\":7682:7691   */\n      dup3\n        /* \"#utility.yul\":7678:7696   */\n      add\n        /* \"#utility.yul\":7670:7696   */\n      swap1\n      pop\n        /* \"#utility.yul\":7742:7751   */\n      dup2\n        /* \"#utility.yul\":7736:7740   */\n      dup2\n        /* \"#utility.yul\":7732:7752   */\n      sub\n        /* \"#utility.yul\":7728:7729   */\n      0x00\n        /* \"#utility.yul\":7717:7726   */\n      dup4\n        /* \"#utility.yul\":7713:7730   */\n      add\n        /* \"#utility.yul\":7706:7753   */\n      mstore\n        /* \"#utility.yul\":7770:7901   */\n      tag_217\n        /* \"#utility.yul\":7896:7900   */\n      dup2\n        /* \"#utility.yul\":7770:7901   */\n      tag_121\n      jump\t// in\n    tag_217:\n        /* \"#utility.yul\":7762:7901   */\n      swap1\n      pop\n        /* \"#utility.yul\":7489:7908   */\n      swap2\n      swap1\n      pop\n      jump\t// out\n        /* \"#utility.yul\":7914:8094   */\n    tag_122:\n        /* \"#utility.yul\":7962:8039   */\n      0x4e487b7100000000000000000000000000000000000000000000000000000000\n        /* \"#utility.yul\":7959:7960   */\n      0x00\n        /* \"#utility.yul\":7952:8040   */\n      mstore\n        /* \"#utility.yul\":8059:8063   */\n      0x11\n        /* \"#utility.yul\":8056:8057   */\n      0x04\n        /* \"#utility.yul\":8049:8064   */\n      mstore\n        /* \"#utility.yul\":8083:8087   */\n      0x24\n        /* \"#utility.yul\":8080:8081   */\n      0x00\n        /* \"#utility.yul\":8073:8088   */\n      revert\n        /* \"#utility.yul\":8100:8405   */\n    tag_87:\n        /* \"#utility.yul\":8140:8143   */\n      0x00\n        /* \"#utility.yul\":8159:8179   */\n      tag_220\n        /* \"#utility.yul\":8177:8178   */\n      dup3\n        /* \"#utility.yul\":8159:8179   */\n      tag_97\n      jump\t// in\n    tag_220:\n        /* \"#utility.yul\":8154:8179   */\n      swap2\n      pop\n        /* \"#utility.yul\":8193:8213   */\n      tag_221\n        /* \"#utility.yul\":8211:8212   */\n      dup4\n        /* \"#utility.yul\":8193:8213   */\n      tag_97\n      jump\t// in\n    tag_221:\n        /* \"#utility.yul\":8188:8213   */\n      swap3\n      pop\n        /* \"#utility.yul\":8347:8348   */\n      dup3\n        /* \"#utility.yul\":8279:8345   */\n      0xffffffffffffffffffffffffffffffffffffffffffffffffffffffffffffffff\n        /* \"#utility.yul\":8275:8349   */\n      sub\n        /* \"#utility.yul\":8272:8273   */\n      dup3\n        /* \"#utility.yul\":8269:8350   */\n      gt\n        /* \"#utility.yul\":8266:8373   */\n      iszero\n      tag_222\n      jumpi\n        /* \"#utility.yul\":8353:8371   */\n      tag_223\n      tag_122\n      jump\t// in\n    tag_223:\n        /* \"#utility.yul\":8266:8373   */\n    tag_222:\n        /* \"#utility.yul\":8397:8398   */\n      dup3\n        /* \"#utility.yul\":8394:8395   */\n      dup3\n        /* \"#utility.yul\":8390:8399   */\n      add\n        /* \"#utility.yul\":8383:8399   */\n      swap1\n      pop\n        /* \"#utility.yul\":8100:8405   */\n      swap3\n      swap2\n      pop\n      pop\n      jump\t// out\n        /* \"#utility.yul\":8411:8591   */\n    tag_123:\n        /* \"#utility.yul\":8459:8536   */\n      0x4e487b7100000000000000000000000000000000000000000000000000000000\n        /* \"#utility.yul\":8456:8457   */\n      0x00\n        /* \"#utility.yul\":8449:8537   */\n      mstore\n        /* \"#utility.yul\":8556:8560   */\n      0x12\n        /* \"#utility.yul\":8553:8554   */\n      0x04\n        /* \"#utility.yul\":8546:8561   */\n      mstore\n        /* \"#utility.yul\":8580:8584   */\n      0x24\n        /* \"#utility.yul\":8577:8578   */\n      0x00\n        /* \"#utility.yul\":8570:8585   */\n      revert\n        /* \"#utility.yul\":8597:8782   */\n    tag_90:\n        /* \"#utility.yul\":8637:8638   */\n      0x00\n        /* \"#utility.yul\":8654:8674   */\n      tag_226\n        /* \"#utility.yul\":8672:8673   */\n      dup3\n        /* \"#utility.yul\":8654:8674   */\n      tag_97\n      jump\t// in\n    tag_226:\n        /* \"#utility.yul\":8649:8674   */\n      swap2\n      pop\n        /* \"#utility.yul\":8688:8708   */\n      tag_227\n        /* \"#utility.yul\":8706:8707   */\n      dup4\n        /* \"#utility.yul\":8688:8708   */\n      tag_97\n      jump\t// in\n    tag_227:\n        /* \"#utility.yul\":8683:8708   */\n      swap3\n      pop\n        /* \"#utility.yul\":8727:8728   */\n      dup3\n        /* \"#utility.yul\":8717:8752   */\n      tag_228\n      jumpi\n        /* \"#utility.yul\":8732:8750   */\n      tag_229\n      tag_123\n      jump\t// in\n    tag_229:\n        /* \"#utility.yul\":8717:8752   */\n    tag_228:\n        /* \"#utility.yul\":8774:8775   */\n      dup3\n        /* \"#utility.yul\":8771:8772   */\n      dup3\n        /* \"#utility.yul\":8767:8776   */\n      div\n        /* \"#utility.yul\":8762:8776   */\n      swap1\n      pop\n        /* \"#utility.yul\":8597:8782   */\n      swap3\n      swap2\n      pop\n      pop\n      jump\t// out\n        /* \"#utility.yul\":8788:8979   */\n    tag_93:\n        /* \"#utility.yul\":8828:8832   */\n      0x00\n        /* \"#utility.yul\":8848:8868   */\n      tag_231\n        /* \"#utility.yul\":8866:8867   */\n      dup3\n        /* \"#utility.yul\":8848:8868   */\n      tag_97\n      jump\t// in\n    tag_231:\n        /* \"#utility.yul\":8843:8868   */\n      swap2\n      pop\n        /* \"#utility.yul\":8882:8902   */\n      tag_232\n        /* \"#utility.yul\":8900:8901   */\n      dup4\n        /* \"#utility.yul\":8882:8902   */\n      tag_97\n      jump\t// in\n    tag_232:\n        /* \"#utility.yul\":8877:8902   */\n      swap3\n      pop\n        /* \"#utility.yul\":8921:8922   */\n      dup3\n        /* \"#utility.yul\":8918:8919   */\n      dup3\n        /* \"#utility.yul\":8915:8923   */\n      lt\n        /* \"#utility.yul\":8912:8946   */\n      iszero\n      tag_233\n      jumpi\n        /* \"#utility.yul\":8926:8944   */\n      tag_234\n      tag_122\n      jump\t// in\n    tag_234:\n        /* \"#utility.yul\":8912:8946   */\n    tag_233:\n        /* \"#utility.yul\":8971:8972   */\n      dup3\n        /* \"#utility.yul\":8968:8969   */\n      dup3\n        /* \"#utility.yul\":8964:8973   */\n      sub\n        /* \"#utility.yul\":8956:8973   */\n      swap1\n      pop\n        /* \"#utility.yul\":8788:8979   */\n      swap3\n      swap2\n      pop\n      pop\n      jump\t// out\n\n    auxdata: 0xa26469706673582212208bfe0138782dd7641cd5d9e3d7ddd9028886563b8cb77d38916ddd5f4aeca06964736f6c634300080e0033\n}\n",
				"bytecode": {
					"linkReferences": {},
					"object": "608060405273d14ff067355ce838a6e110bdfb672dbec83ca23c6000806101000a81548173ffffffffffffffffffffffffffffffffffffffff021916908373ffffffffffffffffffffffffffffffffffffffff160217905550604051610e6d380380610e6d83398181016040528101906100799190610102565b33600260006101000a81548173ffffffffffffffffffffffffffffffffffffffff021916908373ffffffffffffffffffffffffffffffffffffffff160217905550806001819055505061012f565b600080fd5b6000819050919050565b6100df816100cc565b81146100ea57600080fd5b50565b6000815190506100fc816100d6565b92915050565b600060208284031215610118576101176100c7565b5b6000610126848285016100ed565b91505092915050565b610d2f8061013e6000396000f3fe60806040526004361061004a5760003560e01c80633a23bf491461004f57806341a7726a1461008c57806394756aa7146100a857806397dedb1d146100d1578063c3c646741461010e575b600080fd5b34801561005b57600080fd5b506100766004803603810190610071919061081e565b610137565b604051610083919061085a565b60405180910390f35b6100a660048036038101906100a191906108d3565b610358565b005b3480156100b457600080fd5b506100cf60048036038101906100ca919061093e565b610465565b005b3480156100dd57600080fd5b506100f860048036038101906100f3919061081e565b6105bd565b604051610105919061085a565b60405180910390f35b34801561011a57600080fd5b50610135600480360381019061013091906109b6565b6106b6565b005b60008047905060008060009054906101000a900473ffffffffffffffffffffffffffffffffffffffff1673ffffffffffffffffffffffffffffffffffffffff166370a08231306040518263ffffffff1660e01b81526004016101999190610a05565b602060405180830381865afa1580156101b6573d6000803e3d6000fd5b505050506040513d601f19601f820116820180604052508101906101da9190610a35565b905060006101f185836107a190919063ffffffff16565b905060008054906101000a900473ffffffffffffffffffffffffffffffffffffffff1673ffffffffffffffffffffffffffffffffffffffff166318160ddd6040518163ffffffff1660e01b8152600401602060405180830381865afa15801561025e573d6000803e3d6000fd5b505050506040513d601f19601f820116820180604052508101906102829190610a35565b81111561031b5760008054906101000a900473ffffffffffffffffffffffffffffffffffffffff1673ffffffffffffffffffffffffffffffffffffffff166318160ddd6040518163ffffffff1660e01b8152600401602060405180830381865afa1580156102f4573d6000803e3d6000fd5b505050506040513d601f19601f820116820180604052508101906103189190610a35565b90505b6000610332826001546107b790919063ffffffff16565b9050600061034982866107cd90919063ffffffff16565b90508095505050505050919050565b60011515600360003373ffffffffffffffffffffffffffffffffffffffff1673ffffffffffffffffffffffffffffffffffffffff16815260200190815260200160002060009054906101000a900460ff161515146103b557600080fd5b60006103c0346105bd565b905060008054906101000a900473ffffffffffffffffffffffffffffffffffffffff1673ffffffffffffffffffffffffffffffffffffffff1663a9059cbb83836040518363ffffffff1660e01b815260040161041d929190610a62565b6020604051808303816000875af115801561043c573d6000803e3d6000fd5b505050506040513d601f19601f820116820180604052508101906104609190610aa0565b505050565b60011515600360003373ffffffffffffffffffffffffffffffffffffffff1673ffffffffffffffffffffffffffffffffffffffff16815260200190815260200160002060009054906101000a900460ff161515146104c257600080fd5b60006104cd82610137565b90508273ffffffffffffffffffffffffffffffffffffffff166108fc829081150290604051600060405180830381858888f19350505050158015610515573d6000803e3d6000fd5b5060008054906101000a900473ffffffffffffffffffffffffffffffffffffffff1673ffffffffffffffffffffffffffffffffffffffff166323b872dd846000856040518463ffffffff1660e01b815260040161057493929190610b2c565b6020604051808303816000875af1158015610593573d6000803e3d6000fd5b505050506040513d601f19601f820116820180604052508101906105b79190610aa0565b50505050565b60008047905060008060009054906101000a900473ffffffffffffffffffffffffffffffffffffffff1673ffffffffffffffffffffffffffffffffffffffff166370a08231306040518263ffffffff1660e01b815260040161061f9190610a05565b602060405180830381865afa15801561063c573d6000803e3d6000fd5b505050506040513d601f19601f820116820180604052508101906106609190610a35565b9050600061067785846107a190919063ffffffff16565b90506000610690826001546107b790919063ffffffff16565b905060006106a782856107cd90919063ffffffff16565b90508095505050505050919050565b3373ffffffffffffffffffffffffffffffffffffffff16600260009054906101000a900473ffffffffffffffffffffffffffffffffffffffff1673ffffffffffffffffffffffffffffffffffffffff1614610746576040517f08c379a000000000000000000000000000000000000000000000000000000000815260040161073d90610bc0565b60405180910390fd5b80600360008473ffffffffffffffffffffffffffffffffffffffff1673ffffffffffffffffffffffffffffffffffffffff16815260200190815260200160002060006101000a81548160ff0219169083151502179055505050565b600081836107af9190610c0f565b905092915050565b600081836107c59190610c94565b905092915050565b600081836107db9190610cc5565b905092915050565b600080fd5b6000819050919050565b6107fb816107e8565b811461080657600080fd5b50565b600081359050610818816107f2565b92915050565b600060208284031215610834576108336107e3565b5b600061084284828501610809565b91505092915050565b610854816107e8565b82525050565b600060208201905061086f600083018461084b565b92915050565b600073ffffffffffffffffffffffffffffffffffffffff82169050919050565b60006108a082610875565b9050919050565b6108b081610895565b81146108bb57600080fd5b50565b6000813590506108cd816108a7565b92915050565b6000602082840312156108e9576108e86107e3565b5b60006108f7848285016108be565b91505092915050565b600061090b82610875565b9050919050565b61091b81610900565b811461092657600080fd5b50565b60008135905061093881610912565b92915050565b60008060408385031215610955576109546107e3565b5b600061096385828601610929565b925050602061097485828601610809565b9150509250929050565b60008115159050919050565b6109938161097e565b811461099e57600080fd5b50565b6000813590506109b08161098a565b92915050565b600080604083850312156109cd576109cc6107e3565b5b60006109db858286016108be565b92505060206109ec858286016109a1565b9150509250929050565b6109ff81610895565b82525050565b6000602082019050610a1a60008301846109f6565b92915050565b600081519050610a2f816107f2565b92915050565b600060208284031215610a4b57610a4a6107e3565b5b6000610a5984828501610a20565b91505092915050565b6000604082019050610a7760008301856109f6565b610a84602083018461084b565b9392505050565b600081519050610a9a8161098a565b92915050565b600060208284031215610ab657610ab56107e3565b5b6000610ac484828501610a8b565b91505092915050565b6000819050919050565b6000610af2610aed610ae884610875565b610acd565b610875565b9050919050565b6000610b0482610ad7565b9050919050565b6000610b1682610af9565b9050919050565b610b2681610b0b565b82525050565b6000606082019050610b416000830186610b1d565b610b4e60208301856109f6565b610b5b604083018461084b565b949350505050565b600082825260208201905092915050565b7f4f776e61626c653a2063616c6c6572206973206e6f7420746865206f776e6572600082015250565b6000610baa602083610b63565b9150610bb582610b74565b602082019050919050565b60006020820190508181036000830152610bd981610b9d565b9050919050565b7f4e487b7100000000000000000000000000000000000000000000000000000000600052601160045260246000fd5b6000610c1a826107e8565b9150610c25836107e8565b9250827fffffffffffffffffffffffffffffffffffffffffffffffffffffffffffffffff03821115610c5a57610c59610be0565b5b828201905092915050565b7f4e487b7100000000000000000000000000000000000000000000000000000000600052601260045260246000fd5b6000610c9f826107e8565b9150610caa836107e8565b925082610cba57610cb9610c65565b5b828204905092915050565b6000610cd0826107e8565b9150610cdb836107e8565b925082821015610cee57610ced610be0565b5b82820390509291505056fea26469706673582212208bfe0138782dd7641cd5d9e3d7ddd9028886563b8cb77d38916ddd5f4aeca06964736f6c634300080e0033",
					"opcodes": "PUSH1 0x80 PUSH1 0x40 MSTORE PUSH20 0xD14FF067355CE838A6E110BDFB672DBEC83CA23C PUSH1 0x0 DUP1 PUSH2 0x100 EXP DUP2 SLOAD DUP2 PUSH20 0xFFFFFFFFFFFFFFFFFFFFFFFFFFFFFFFFFFFFFFFF MUL NOT AND SWAP1 DUP4 PUSH20 0xFFFFFFFFFFFFFFFFFFFFFFFFFFFFFFFFFFFFFFFF AND MUL OR SWAP1 SSTORE POP PUSH1 0x40 MLOAD PUSH2 0xE6D CODESIZE SUB DUP1 PUSH2 0xE6D DUP4 CODECOPY DUP2 DUP2 ADD PUSH1 0x40 MSTORE DUP2 ADD SWAP1 PUSH2 0x79 SWAP2 SWAP1 PUSH2 0x102 JUMP JUMPDEST CALLER PUSH1 0x2 PUSH1 0x0 PUSH2 0x100 EXP DUP2 SLOAD DUP2 PUSH20 0xFFFFFFFFFFFFFFFFFFFFFFFFFFFFFFFFFFFFFFFF MUL NOT AND SWAP1 DUP4 PUSH20 0xFFFFFFFFFFFFFFFFFFFFFFFFFFFFFFFFFFFFFFFF AND MUL OR SWAP1 SSTORE POP DUP1 PUSH1 0x1 DUP2 SWAP1 SSTORE POP POP PUSH2 0x12F JUMP JUMPDEST PUSH1 0x0 DUP1 REVERT JUMPDEST PUSH1 0x0 DUP2 SWAP1 POP SWAP2 SWAP1 POP JUMP JUMPDEST PUSH2 0xDF DUP2 PUSH2 0xCC JUMP JUMPDEST DUP2 EQ PUSH2 0xEA JUMPI PUSH1 0x0 DUP1 REVERT JUMPDEST POP JUMP JUMPDEST PUSH1 0x0 DUP2 MLOAD SWAP1 POP PUSH2 0xFC DUP2 PUSH2 0xD6 JUMP JUMPDEST SWAP3 SWAP2 POP POP JUMP JUMPDEST PUSH1 0x0 PUSH1 0x20 DUP3 DUP5 SUB SLT ISZERO PUSH2 0x118 JUMPI PUSH2 0x117 PUSH2 0xC7 JUMP JUMPDEST JUMPDEST PUSH1 0x0 PUSH2 0x126 DUP5 DUP3 DUP6 ADD PUSH2 0xED JUMP JUMPDEST SWAP2 POP POP SWAP3 SWAP2 POP POP JUMP JUMPDEST PUSH2 0xD2F DUP1 PUSH2 0x13E PUSH1 0x0 CODECOPY PUSH1 0x0 RETURN INVALID PUSH1 0x80 PUSH1 0x40 MSTORE PUSH1 0x4 CALLDATASIZE LT PUSH2 0x4A JUMPI PUSH1 0x0 CALLDATALOAD PUSH1 0xE0 SHR DUP1 PUSH4 0x3A23BF49 EQ PUSH2 0x4F JUMPI DUP1 PUSH4 0x41A7726A EQ PUSH2 0x8C JUMPI DUP1 PUSH4 0x94756AA7 EQ PUSH2 0xA8 JUMPI DUP1 PUSH4 0x97DEDB1D EQ PUSH2 0xD1 JUMPI DUP1 PUSH4 0xC3C64674 EQ PUSH2 0x10E JUMPI JUMPDEST PUSH1 0x0 DUP1 REVERT JUMPDEST CALLVALUE DUP1 ISZERO PUSH2 0x5B JUMPI PUSH1 0x0 DUP1 REVERT JUMPDEST POP PUSH2 0x76 PUSH1 0x4 DUP1 CALLDATASIZE SUB DUP2 ADD SWAP1 PUSH2 0x71 SWAP2 SWAP1 PUSH2 0x81E JUMP JUMPDEST PUSH2 0x137 JUMP JUMPDEST PUSH1 0x40 MLOAD PUSH2 0x83 SWAP2 SWAP1 PUSH2 0x85A JUMP JUMPDEST PUSH1 0x40 MLOAD DUP1 SWAP2 SUB SWAP1 RETURN JUMPDEST PUSH2 0xA6 PUSH1 0x4 DUP1 CALLDATASIZE SUB DUP2 ADD SWAP1 PUSH2 0xA1 SWAP2 SWAP1 PUSH2 0x8D3 JUMP JUMPDEST PUSH2 0x358 JUMP JUMPDEST STOP JUMPDEST CALLVALUE DUP1 ISZERO PUSH2 0xB4 JUMPI PUSH1 0x0 DUP1 REVERT JUMPDEST POP PUSH2 0xCF PUSH1 0x4 DUP1 CALLDATASIZE SUB DUP2 ADD SWAP1 PUSH2 0xCA SWAP2 SWAP1 PUSH2 0x93E JUMP JUMPDEST PUSH2 0x465 JUMP JUMPDEST STOP JUMPDEST CALLVALUE DUP1 ISZERO PUSH2 0xDD JUMPI PUSH1 0x0 DUP1 REVERT JUMPDEST POP PUSH2 0xF8 PUSH1 0x4 DUP1 CALLDATASIZE SUB DUP2 ADD SWAP1 PUSH2 0xF3 SWAP2 SWAP1 PUSH2 0x81E JUMP JUMPDEST PUSH2 0x5BD JUMP JUMPDEST PUSH1 0x40 MLOAD PUSH2 0x105 SWAP2 SWAP1 PUSH2 0x85A JUMP JUMPDEST PUSH1 0x40 MLOAD DUP1 SWAP2 SUB SWAP1 RETURN JUMPDEST CALLVALUE DUP1 ISZERO PUSH2 0x11A JUMPI PUSH1 0x0 DUP1 REVERT JUMPDEST POP PUSH2 0x135 PUSH1 0x4 DUP1 CALLDATASIZE SUB DUP2 ADD SWAP1 PUSH2 0x130 SWAP2 SWAP1 PUSH2 0x9B6 JUMP JUMPDEST PUSH2 0x6B6 JUMP JUMPDEST STOP JUMPDEST PUSH1 0x0 DUP1 SELFBALANCE SWAP1 POP PUSH1 0x0 DUP1 PUSH1 0x0 SWAP1 SLOAD SWAP1 PUSH2 0x100 EXP SWAP1 DIV PUSH20 0xFFFFFFFFFFFFFFFFFFFFFFFFFFFFFFFFFFFFFFFF AND PUSH20 0xFFFFFFFFFFFFFFFFFFFFFFFFFFFFFFFFFFFFFFFF AND PUSH4 0x70A08231 ADDRESS PUSH1 0x40 MLOAD DUP3 PUSH4 0xFFFFFFFF AND PUSH1 0xE0 SHL DUP2 MSTORE PUSH1 0x4 ADD PUSH2 0x199 SWAP2 SWAP1 PUSH2 0xA05 JUMP JUMPDEST PUSH1 0x20 PUSH1 0x40 MLOAD DUP1 DUP4 SUB DUP2 DUP7 GAS STATICCALL ISZERO DUP1 ISZERO PUSH2 0x1B6 JUMPI RETURNDATASIZE PUSH1 0x0 DUP1 RETURNDATACOPY RETURNDATASIZE PUSH1 0x0 REVERT JUMPDEST POP POP POP POP PUSH1 0x40 MLOAD RETURNDATASIZE PUSH1 0x1F NOT PUSH1 0x1F DUP3 ADD AND DUP3 ADD DUP1 PUSH1 0x40 MSTORE POP DUP2 ADD SWAP1 PUSH2 0x1DA SWAP2 SWAP1 PUSH2 0xA35 JUMP JUMPDEST SWAP1 POP PUSH1 0x0 PUSH2 0x1F1 DUP6 DUP4 PUSH2 0x7A1 SWAP1 SWAP2 SWAP1 PUSH4 0xFFFFFFFF AND JUMP JUMPDEST SWAP1 POP PUSH1 0x0 DUP1 SLOAD SWAP1 PUSH2 0x100 EXP SWAP1 DIV PUSH20 0xFFFFFFFFFFFFFFFFFFFFFFFFFFFFFFFFFFFFFFFF AND PUSH20 0xFFFFFFFFFFFFFFFFFFFFFFFFFFFFFFFFFFFFFFFF AND PUSH4 0x18160DDD PUSH1 0x40 MLOAD DUP2 PUSH4 0xFFFFFFFF AND PUSH1 0xE0 SHL DUP2 MSTORE PUSH1 0x4 ADD PUSH1 0x20 PUSH1 0x40 MLOAD DUP1 DUP4 SUB DUP2 DUP7 GAS STATICCALL ISZERO DUP1 ISZERO PUSH2 0x25E JUMPI RETURNDATASIZE PUSH1 0x0 DUP1 RETURNDATACOPY RETURNDATASIZE PUSH1 0x0 REVERT JUMPDEST POP POP POP POP PUSH1 0x40 MLOAD RETURNDATASIZE PUSH1 0x1F NOT PUSH1 0x1F DUP3 ADD AND DUP3 ADD DUP1 PUSH1 0x40 MSTORE POP DUP2 ADD SWAP1 PUSH2 0x282 SWAP2 SWAP1 PUSH2 0xA35 JUMP JUMPDEST DUP2 GT ISZERO PUSH2 0x31B JUMPI PUSH1 0x0 DUP1 SLOAD SWAP1 PUSH2 0x100 EXP SWAP1 DIV PUSH20 0xFFFFFFFFFFFFFFFFFFFFFFFFFFFFFFFFFFFFFFFF AND PUSH20 0xFFFFFFFFFFFFFFFFFFFFFFFFFFFFFFFFFFFFFFFF AND PUSH4 0x18160DDD PUSH1 0x40 MLOAD DUP2 PUSH4 0xFFFFFFFF AND PUSH1 0xE0 SHL DUP2 MSTORE PUSH1 0x4 ADD PUSH1 0x20 PUSH1 0x40 MLOAD DUP1 DUP4 SUB DUP2 DUP7 GAS STATICCALL ISZERO DUP1 ISZERO PUSH2 0x2F4 JUMPI RETURNDATASIZE PUSH1 0x0 DUP1 RETURNDATACOPY RETURNDATASIZE PUSH1 0x0 REVERT JUMPDEST POP POP POP POP PUSH1 0x40 MLOAD RETURNDATASIZE PUSH1 0x1F NOT PUSH1 0x1F DUP3 ADD AND DUP3 ADD DUP1 PUSH1 0x40 MSTORE POP DUP2 ADD SWAP1 PUSH2 0x318 SWAP2 SWAP1 PUSH2 0xA35 JUMP JUMPDEST SWAP1 POP JUMPDEST PUSH1 0x0 PUSH2 0x332 DUP3 PUSH1 0x1 SLOAD PUSH2 0x7B7 SWAP1 SWAP2 SWAP1 PUSH4 0xFFFFFFFF AND JUMP JUMPDEST SWAP1 POP PUSH1 0x0 PUSH2 0x349 DUP3 DUP7 PUSH2 0x7CD SWAP1 SWAP2 SWAP1 PUSH4 0xFFFFFFFF AND JUMP JUMPDEST SWAP1 POP DUP1 SWAP6 POP POP POP POP POP POP SWAP2 SWAP1 POP JUMP JUMPDEST PUSH1 0x1 ISZERO ISZERO PUSH1 0x3 PUSH1 0x0 CALLER PUSH20 0xFFFFFFFFFFFFFFFFFFFFFFFFFFFFFFFFFFFFFFFF AND PUSH20 0xFFFFFFFFFFFFFFFFFFFFFFFFFFFFFFFFFFFFFFFF AND DUP2 MSTORE PUSH1 0x20 ADD SWAP1 DUP2 MSTORE PUSH1 0x20 ADD PUSH1 0x0 KECCAK256 PUSH1 0x0 SWAP1 SLOAD SWAP1 PUSH2 0x100 EXP SWAP1 DIV PUSH1 0xFF AND ISZERO ISZERO EQ PUSH2 0x3B5 JUMPI PUSH1 0x0 DUP1 REVERT JUMPDEST PUSH1 0x0 PUSH2 0x3C0 CALLVALUE PUSH2 0x5BD JUMP JUMPDEST SWAP1 POP PUSH1 0x0 DUP1 SLOAD SWAP1 PUSH2 0x100 EXP SWAP1 DIV PUSH20 0xFFFFFFFFFFFFFFFFFFFFFFFFFFFFFFFFFFFFFFFF AND PUSH20 0xFFFFFFFFFFFFFFFFFFFFFFFFFFFFFFFFFFFFFFFF AND PUSH4 0xA9059CBB DUP4 DUP4 PUSH1 0x40 MLOAD DUP4 PUSH4 0xFFFFFFFF AND PUSH1 0xE0 SHL DUP2 MSTORE PUSH1 0x4 ADD PUSH2 0x41D SWAP3 SWAP2 SWAP1 PUSH2 0xA62 JUMP JUMPDEST PUSH1 0x20 PUSH1 0x40 MLOAD DUP1 DUP4 SUB DUP2 PUSH1 0x0 DUP8 GAS CALL ISZERO DUP1 ISZERO PUSH2 0x43C JUMPI RETURNDATASIZE PUSH1 0x0 DUP1 RETURNDATACOPY RETURNDATASIZE PUSH1 0x0 REVERT JUMPDEST POP POP POP POP PUSH1 0x40 MLOAD RETURNDATASIZE PUSH1 0x1F NOT PUSH1 0x1F DUP3 ADD AND DUP3 ADD DUP1 PUSH1 0x40 MSTORE POP DUP2 ADD SWAP1 PUSH2 0x460 SWAP2 SWAP1 PUSH2 0xAA0 JUMP JUMPDEST POP POP POP JUMP JUMPDEST PUSH1 0x1 ISZERO ISZERO PUSH1 0x3 PUSH1 0x0 CALLER PUSH20 0xFFFFFFFFFFFFFFFFFFFFFFFFFFFFFFFFFFFFFFFF AND PUSH20 0xFFFFFFFFFFFFFFFFFFFFFFFFFFFFFFFFFFFFFFFF AND DUP2 MSTORE PUSH1 0x20 ADD SWAP1 DUP2 MSTORE PUSH1 0x20 ADD PUSH1 0x0 KECCAK256 PUSH1 0x0 SWAP1 SLOAD SWAP1 PUSH2 0x100 EXP SWAP1 DIV PUSH1 0xFF AND ISZERO ISZERO EQ PUSH2 0x4C2 JUMPI PUSH1 0x0 DUP1 REVERT JUMPDEST PUSH1 0x0 PUSH2 0x4CD DUP3 PUSH2 0x137 JUMP JUMPDEST SWAP1 POP DUP3 PUSH20 0xFFFFFFFFFFFFFFFFFFFFFFFFFFFFFFFFFFFFFFFF AND PUSH2 0x8FC DUP3 SWAP1 DUP2 ISZERO MUL SWAP1 PUSH1 0x40 MLOAD PUSH1 0x0 PUSH1 0x40 MLOAD DUP1 DUP4 SUB DUP2 DUP6 DUP9 DUP9 CALL SWAP4 POP POP POP POP ISZERO DUP1 ISZERO PUSH2 0x515 JUMPI RETURNDATASIZE PUSH1 0x0 DUP1 RETURNDATACOPY RETURNDATASIZE PUSH1 0x0 REVERT JUMPDEST POP PUSH1 0x0 DUP1 SLOAD SWAP1 PUSH2 0x100 EXP SWAP1 DIV PUSH20 0xFFFFFFFFFFFFFFFFFFFFFFFFFFFFFFFFFFFFFFFF AND PUSH20 0xFFFFFFFFFFFFFFFFFFFFFFFFFFFFFFFFFFFFFFFF AND PUSH4 0x23B872DD DUP5 PUSH1 0x0 DUP6 PUSH1 0x40 MLOAD DUP5 PUSH4 0xFFFFFFFF AND PUSH1 0xE0 SHL DUP2 MSTORE PUSH1 0x4 ADD PUSH2 0x574 SWAP4 SWAP3 SWAP2 SWAP1 PUSH2 0xB2C JUMP JUMPDEST PUSH1 0x20 PUSH1 0x40 MLOAD DUP1 DUP4 SUB DUP2 PUSH1 0x0 DUP8 GAS CALL ISZERO DUP1 ISZERO PUSH2 0x593 JUMPI RETURNDATASIZE PUSH1 0x0 DUP1 RETURNDATACOPY RETURNDATASIZE PUSH1 0x0 REVERT JUMPDEST POP POP POP POP PUSH1 0x40 MLOAD RETURNDATASIZE PUSH1 0x1F NOT PUSH1 0x1F DUP3 ADD AND DUP3 ADD DUP1 PUSH1 0x40 MSTORE POP DUP2 ADD SWAP1 PUSH2 0x5B7 SWAP2 SWAP1 PUSH2 0xAA0 JUMP JUMPDEST POP POP POP POP JUMP JUMPDEST PUSH1 0x0 DUP1 SELFBALANCE SWAP1 POP PUSH1 0x0 DUP1 PUSH1 0x0 SWAP1 SLOAD SWAP1 PUSH2 0x100 EXP SWAP1 DIV PUSH20 0xFFFFFFFFFFFFFFFFFFFFFFFFFFFFFFFFFFFFFFFF AND PUSH20 0xFFFFFFFFFFFFFFFFFFFFFFFFFFFFFFFFFFFFFFFF AND PUSH4 0x70A08231 ADDRESS PUSH1 0x40 MLOAD DUP3 PUSH4 0xFFFFFFFF AND PUSH1 0xE0 SHL DUP2 MSTORE PUSH1 0x4 ADD PUSH2 0x61F SWAP2 SWAP1 PUSH2 0xA05 JUMP JUMPDEST PUSH1 0x20 PUSH1 0x40 MLOAD DUP1 DUP4 SUB DUP2 DUP7 GAS STATICCALL ISZERO DUP1 ISZERO PUSH2 0x63C JUMPI RETURNDATASIZE PUSH1 0x0 DUP1 RETURNDATACOPY RETURNDATASIZE PUSH1 0x0 REVERT JUMPDEST POP POP POP POP PUSH1 0x40 MLOAD RETURNDATASIZE PUSH1 0x1F NOT PUSH1 0x1F DUP3 ADD AND DUP3 ADD DUP1 PUSH1 0x40 MSTORE POP DUP2 ADD SWAP1 PUSH2 0x660 SWAP2 SWAP1 PUSH2 0xA35 JUMP JUMPDEST SWAP1 POP PUSH1 0x0 PUSH2 0x677 DUP6 DUP5 PUSH2 0x7A1 SWAP1 SWAP2 SWAP1 PUSH4 0xFFFFFFFF AND JUMP JUMPDEST SWAP1 POP PUSH1 0x0 PUSH2 0x690 DUP3 PUSH1 0x1 SLOAD PUSH2 0x7B7 SWAP1 SWAP2 SWAP1 PUSH4 0xFFFFFFFF AND JUMP JUMPDEST SWAP1 POP PUSH1 0x0 PUSH2 0x6A7 DUP3 DUP6 PUSH2 0x7CD SWAP1 SWAP2 SWAP1 PUSH4 0xFFFFFFFF AND JUMP JUMPDEST SWAP1 POP DUP1 SWAP6 POP POP POP POP POP POP SWAP2 SWAP1 POP JUMP JUMPDEST CALLER PUSH20 0xFFFFFFFFFFFFFFFFFFFFFFFFFFFFFFFFFFFFFFFF AND PUSH1 0x2 PUSH1 0x0 SWAP1 SLOAD SWAP1 PUSH2 0x100 EXP SWAP1 DIV PUSH20 0xFFFFFFFFFFFFFFFFFFFFFFFFFFFFFFFFFFFFFFFF AND PUSH20 0xFFFFFFFFFFFFFFFFFFFFFFFFFFFFFFFFFFFFFFFF AND EQ PUSH2 0x746 JUMPI PUSH1 0x40 MLOAD PUSH32 0x8C379A000000000000000000000000000000000000000000000000000000000 DUP2 MSTORE PUSH1 0x4 ADD PUSH2 0x73D SWAP1 PUSH2 0xBC0 JUMP JUMPDEST PUSH1 0x40 MLOAD DUP1 SWAP2 SUB SWAP1 REVERT JUMPDEST DUP1 PUSH1 0x3 PUSH1 0x0 DUP5 PUSH20 0xFFFFFFFFFFFFFFFFFFFFFFFFFFFFFFFFFFFFFFFF AND PUSH20 0xFFFFFFFFFFFFFFFFFFFFFFFFFFFFFFFFFFFFFFFF AND DUP2 MSTORE PUSH1 0x20 ADD SWAP1 DUP2 MSTORE PUSH1 0x20 ADD PUSH1 0x0 KECCAK256 PUSH1 0x0 PUSH2 0x100 EXP DUP2 SLOAD DUP2 PUSH1 0xFF MUL NOT AND SWAP1 DUP4 ISZERO ISZERO MUL OR SWAP1 SSTORE POP POP POP JUMP JUMPDEST PUSH1 0x0 DUP2 DUP4 PUSH2 0x7AF SWAP2 SWAP1 PUSH2 0xC0F JUMP JUMPDEST SWAP1 POP SWAP3 SWAP2 POP POP JUMP JUMPDEST PUSH1 0x0 DUP2 DUP4 PUSH2 0x7C5 SWAP2 SWAP1 PUSH2 0xC94 JUMP JUMPDEST SWAP1 POP SWAP3 SWAP2 POP POP JUMP JUMPDEST PUSH1 0x0 DUP2 DUP4 PUSH2 0x7DB SWAP2 SWAP1 PUSH2 0xCC5 JUMP JUMPDEST SWAP1 POP SWAP3 SWAP2 POP POP JUMP JUMPDEST PUSH1 0x0 DUP1 REVERT JUMPDEST PUSH1 0x0 DUP2 SWAP1 POP SWAP2 SWAP1 POP JUMP JUMPDEST PUSH2 0x7FB DUP2 PUSH2 0x7E8 JUMP JUMPDEST DUP2 EQ PUSH2 0x806 JUMPI PUSH1 0x0 DUP1 REVERT JUMPDEST POP JUMP JUMPDEST PUSH1 0x0 DUP2 CALLDATALOAD SWAP1 POP PUSH2 0x818 DUP2 PUSH2 0x7F2 JUMP JUMPDEST SWAP3 SWAP2 POP POP JUMP JUMPDEST PUSH1 0x0 PUSH1 0x20 DUP3 DUP5 SUB SLT ISZERO PUSH2 0x834 JUMPI PUSH2 0x833 PUSH2 0x7E3 JUMP JUMPDEST JUMPDEST PUSH1 0x0 PUSH2 0x842 DUP5 DUP3 DUP6 ADD PUSH2 0x809 JUMP JUMPDEST SWAP2 POP POP SWAP3 SWAP2 POP POP JUMP JUMPDEST PUSH2 0x854 DUP2 PUSH2 0x7E8 JUMP JUMPDEST DUP3 MSTORE POP POP JUMP JUMPDEST PUSH1 0x0 PUSH1 0x20 DUP3 ADD SWAP1 POP PUSH2 0x86F PUSH1 0x0 DUP4 ADD DUP5 PUSH2 0x84B JUMP JUMPDEST SWAP3 SWAP2 POP POP JUMP JUMPDEST PUSH1 0x0 PUSH20 0xFFFFFFFFFFFFFFFFFFFFFFFFFFFFFFFFFFFFFFFF DUP3 AND SWAP1 POP SWAP2 SWAP1 POP JUMP JUMPDEST PUSH1 0x0 PUSH2 0x8A0 DUP3 PUSH2 0x875 JUMP JUMPDEST SWAP1 POP SWAP2 SWAP1 POP JUMP JUMPDEST PUSH2 0x8B0 DUP2 PUSH2 0x895 JUMP JUMPDEST DUP2 EQ PUSH2 0x8BB JUMPI PUSH1 0x0 DUP1 REVERT JUMPDEST POP JUMP JUMPDEST PUSH1 0x0 DUP2 CALLDATALOAD SWAP1 POP PUSH2 0x8CD DUP2 PUSH2 0x8A7 JUMP JUMPDEST SWAP3 SWAP2 POP POP JUMP JUMPDEST PUSH1 0x0 PUSH1 0x20 DUP3 DUP5 SUB SLT ISZERO PUSH2 0x8E9 JUMPI PUSH2 0x8E8 PUSH2 0x7E3 JUMP JUMPDEST JUMPDEST PUSH1 0x0 PUSH2 0x8F7 DUP5 DUP3 DUP6 ADD PUSH2 0x8BE JUMP JUMPDEST SWAP2 POP POP SWAP3 SWAP2 POP POP JUMP JUMPDEST PUSH1 0x0 PUSH2 0x90B DUP3 PUSH2 0x875 JUMP JUMPDEST SWAP1 POP SWAP2 SWAP1 POP JUMP JUMPDEST PUSH2 0x91B DUP2 PUSH2 0x900 JUMP JUMPDEST DUP2 EQ PUSH2 0x926 JUMPI PUSH1 0x0 DUP1 REVERT JUMPDEST POP JUMP JUMPDEST PUSH1 0x0 DUP2 CALLDATALOAD SWAP1 POP PUSH2 0x938 DUP2 PUSH2 0x912 JUMP JUMPDEST SWAP3 SWAP2 POP POP JUMP JUMPDEST PUSH1 0x0 DUP1 PUSH1 0x40 DUP4 DUP6 SUB SLT ISZERO PUSH2 0x955 JUMPI PUSH2 0x954 PUSH2 0x7E3 JUMP JUMPDEST JUMPDEST PUSH1 0x0 PUSH2 0x963 DUP6 DUP3 DUP7 ADD PUSH2 0x929 JUMP JUMPDEST SWAP3 POP POP PUSH1 0x20 PUSH2 0x974 DUP6 DUP3 DUP7 ADD PUSH2 0x809 JUMP JUMPDEST SWAP2 POP POP SWAP3 POP SWAP3 SWAP1 POP JUMP JUMPDEST PUSH1 0x0 DUP2 ISZERO ISZERO SWAP1 POP SWAP2 SWAP1 POP JUMP JUMPDEST PUSH2 0x993 DUP2 PUSH2 0x97E JUMP JUMPDEST DUP2 EQ PUSH2 0x99E JUMPI PUSH1 0x0 DUP1 REVERT JUMPDEST POP JUMP JUMPDEST PUSH1 0x0 DUP2 CALLDATALOAD SWAP1 POP PUSH2 0x9B0 DUP2 PUSH2 0x98A JUMP JUMPDEST SWAP3 SWAP2 POP POP JUMP JUMPDEST PUSH1 0x0 DUP1 PUSH1 0x40 DUP4 DUP6 SUB SLT ISZERO PUSH2 0x9CD JUMPI PUSH2 0x9CC PUSH2 0x7E3 JUMP JUMPDEST JUMPDEST PUSH1 0x0 PUSH2 0x9DB DUP6 DUP3 DUP7 ADD PUSH2 0x8BE JUMP JUMPDEST SWAP3 POP POP PUSH1 0x20 PUSH2 0x9EC DUP6 DUP3 DUP7 ADD PUSH2 0x9A1 JUMP JUMPDEST SWAP2 POP POP SWAP3 POP SWAP3 SWAP1 POP JUMP JUMPDEST PUSH2 0x9FF DUP2 PUSH2 0x895 JUMP JUMPDEST DUP3 MSTORE POP POP JUMP JUMPDEST PUSH1 0x0 PUSH1 0x20 DUP3 ADD SWAP1 POP PUSH2 0xA1A PUSH1 0x0 DUP4 ADD DUP5 PUSH2 0x9F6 JUMP JUMPDEST SWAP3 SWAP2 POP POP JUMP JUMPDEST PUSH1 0x0 DUP2 MLOAD SWAP1 POP PUSH2 0xA2F DUP2 PUSH2 0x7F2 JUMP JUMPDEST SWAP3 SWAP2 POP POP JUMP JUMPDEST PUSH1 0x0 PUSH1 0x20 DUP3 DUP5 SUB SLT ISZERO PUSH2 0xA4B JUMPI PUSH2 0xA4A PUSH2 0x7E3 JUMP JUMPDEST JUMPDEST PUSH1 0x0 PUSH2 0xA59 DUP5 DUP3 DUP6 ADD PUSH2 0xA20 JUMP JUMPDEST SWAP2 POP POP SWAP3 SWAP2 POP POP JUMP JUMPDEST PUSH1 0x0 PUSH1 0x40 DUP3 ADD SWAP1 POP PUSH2 0xA77 PUSH1 0x0 DUP4 ADD DUP6 PUSH2 0x9F6 JUMP JUMPDEST PUSH2 0xA84 PUSH1 0x20 DUP4 ADD DUP5 PUSH2 0x84B JUMP JUMPDEST SWAP4 SWAP3 POP POP POP JUMP JUMPDEST PUSH1 0x0 DUP2 MLOAD SWAP1 POP PUSH2 0xA9A DUP2 PUSH2 0x98A JUMP JUMPDEST SWAP3 SWAP2 POP POP JUMP JUMPDEST PUSH1 0x0 PUSH1 0x20 DUP3 DUP5 SUB SLT ISZERO PUSH2 0xAB6 JUMPI PUSH2 0xAB5 PUSH2 0x7E3 JUMP JUMPDEST JUMPDEST PUSH1 0x0 PUSH2 0xAC4 DUP5 DUP3 DUP6 ADD PUSH2 0xA8B JUMP JUMPDEST SWAP2 POP POP SWAP3 SWAP2 POP POP JUMP JUMPDEST PUSH1 0x0 DUP2 SWAP1 POP SWAP2 SWAP1 POP JUMP JUMPDEST PUSH1 0x0 PUSH2 0xAF2 PUSH2 0xAED PUSH2 0xAE8 DUP5 PUSH2 0x875 JUMP JUMPDEST PUSH2 0xACD JUMP JUMPDEST PUSH2 0x875 JUMP JUMPDEST SWAP1 POP SWAP2 SWAP1 POP JUMP JUMPDEST PUSH1 0x0 PUSH2 0xB04 DUP3 PUSH2 0xAD7 JUMP JUMPDEST SWAP1 POP SWAP2 SWAP1 POP JUMP JUMPDEST PUSH1 0x0 PUSH2 0xB16 DUP3 PUSH2 0xAF9 JUMP JUMPDEST SWAP1 POP SWAP2 SWAP1 POP JUMP JUMPDEST PUSH2 0xB26 DUP2 PUSH2 0xB0B JUMP JUMPDEST DUP3 MSTORE POP POP JUMP JUMPDEST PUSH1 0x0 PUSH1 0x60 DUP3 ADD SWAP1 POP PUSH2 0xB41 PUSH1 0x0 DUP4 ADD DUP7 PUSH2 0xB1D JUMP JUMPDEST PUSH2 0xB4E PUSH1 0x20 DUP4 ADD DUP6 PUSH2 0x9F6 JUMP JUMPDEST PUSH2 0xB5B PUSH1 0x40 DUP4 ADD DUP5 PUSH2 0x84B JUMP JUMPDEST SWAP5 SWAP4 POP POP POP POP JUMP JUMPDEST PUSH1 0x0 DUP3 DUP3 MSTORE PUSH1 0x20 DUP3 ADD SWAP1 POP SWAP3 SWAP2 POP POP JUMP JUMPDEST PUSH32 0x4F776E61626C653A2063616C6C6572206973206E6F7420746865206F776E6572 PUSH1 0x0 DUP3 ADD MSTORE POP JUMP JUMPDEST PUSH1 0x0 PUSH2 0xBAA PUSH1 0x20 DUP4 PUSH2 0xB63 JUMP JUMPDEST SWAP2 POP PUSH2 0xBB5 DUP3 PUSH2 0xB74 JUMP JUMPDEST PUSH1 0x20 DUP3 ADD SWAP1 POP SWAP2 SWAP1 POP JUMP JUMPDEST PUSH1 0x0 PUSH1 0x20 DUP3 ADD SWAP1 POP DUP2 DUP2 SUB PUSH1 0x0 DUP4 ADD MSTORE PUSH2 0xBD9 DUP2 PUSH2 0xB9D JUMP JUMPDEST SWAP1 POP SWAP2 SWAP1 POP JUMP JUMPDEST PUSH32 0x4E487B7100000000000000000000000000000000000000000000000000000000 PUSH1 0x0 MSTORE PUSH1 0x11 PUSH1 0x4 MSTORE PUSH1 0x24 PUSH1 0x0 REVERT JUMPDEST PUSH1 0x0 PUSH2 0xC1A DUP3 PUSH2 0x7E8 JUMP JUMPDEST SWAP2 POP PUSH2 0xC25 DUP4 PUSH2 0x7E8 JUMP JUMPDEST SWAP3 POP DUP3 PUSH32 0xFFFFFFFFFFFFFFFFFFFFFFFFFFFFFFFFFFFFFFFFFFFFFFFFFFFFFFFFFFFFFFFF SUB DUP3 GT ISZERO PUSH2 0xC5A JUMPI PUSH2 0xC59 PUSH2 0xBE0 JUMP JUMPDEST JUMPDEST DUP3 DUP3 ADD SWAP1 POP SWAP3 SWAP2 POP POP JUMP JUMPDEST PUSH32 0x4E487B7100000000000000000000000000000000000000000000000000000000 PUSH1 0x0 MSTORE PUSH1 0x12 PUSH1 0x4 MSTORE PUSH1 0x24 PUSH1 0x0 REVERT JUMPDEST PUSH1 0x0 PUSH2 0xC9F DUP3 PUSH2 0x7E8 JUMP JUMPDEST SWAP2 POP PUSH2 0xCAA DUP4 PUSH2 0x7E8 JUMP JUMPDEST SWAP3 POP DUP3 PUSH2 0xCBA JUMPI PUSH2 0xCB9 PUSH2 0xC65 JUMP JUMPDEST JUMPDEST DUP3 DUP3 DIV SWAP1 POP SWAP3 SWAP2 POP POP JUMP JUMPDEST PUSH1 0x0 PUSH2 0xCD0 DUP3 PUSH2 0x7E8 JUMP JUMPDEST SWAP2 POP PUSH2 0xCDB DUP4 PUSH2 0x7E8 JUMP JUMPDEST SWAP3 POP DUP3 DUP3 LT ISZERO PUSH2 0xCEE JUMPI PUSH2 0xCED PUSH2 0xBE0 JUMP JUMPDEST JUMPDEST DUP3 DUP3 SUB SWAP1 POP SWAP3 SWAP2 POP POP JUMP INVALID LOG2 PUSH5 0x6970667358 0x22 SLT KECCAK256 DUP12 INVALID ADD CODESIZE PUSH25 0x2DD7641CD5D9E3D7DDD9028886563B8CB77D38916DDD5F4AEC LOG0 PUSH10 0x64736F6C634300080E00 CALLER "
				},
				"gasEstimates": {
					"creation": {
						"codeDepositCost": "675000",
						"executionCost": "infinite",
						"totalCost": "infinite"
					},
					"external": {
						"DCF_ETH(uint256)": "infinite",
						"ETH_DCF(uint256)": "infinite",
						"market(address,uint256)": "infinite",
						"setRouter(address,bool)": "27227",
						"subscribe(address)": "infinite"
					}
				},
				"methodIdentifiers": {
					"DCF_ETH(uint256)": "3a23bf49",
					"ETH_DCF(uint256)": "97dedb1d",
					"market(address,uint256)": "94756aa7",
					"setRouter(address,bool)": "c3c64674",
					"subscribe(address)": "41a7726a"
				}
			},
			"storageLayout": {
				"storage": [
					{
						"astId": 402,
						"contract": "Dcoffer/treasury.sol:treasury",
						"label": "dcoff",
						"offset": 0,
						"slot": "0",
						"type": "t_contract(IERC20)77"
					},
					{
						"astId": 404,
						"contract": "Dcoffer/treasury.sol:treasury",
						"label": "K",
						"offset": 0,
						"slot": "1",
						"type": "t_uint256"
					},
					{
						"astId": 421,
						"contract": "Dcoffer/treasury.sol:treasury",
						"label": "owner",
						"offset": 0,
						"slot": "2",
						"type": "t_address"
					},
					{
						"astId": 425,
						"contract": "Dcoffer/treasury.sol:treasury",
						"label": "RouterAdmin",
						"offset": 0,
						"slot": "3",
						"type": "t_mapping(t_address,t_bool)"
					}
				],
				"types": {
					"t_address": {
						"encoding": "inplace",
						"label": "address",
						"numberOfBytes": "20"
					},
					"t_bool": {
						"encoding": "inplace",
						"label": "bool",
						"numberOfBytes": "1"
					},
					"t_contract(IERC20)77": {
						"encoding": "inplace",
						"label": "contract IERC20",
						"numberOfBytes": "20"
					},
					"t_mapping(t_address,t_bool)": {
						"encoding": "mapping",
						"key": "t_address",
						"label": "mapping(address => bool)",
						"numberOfBytes": "32",
						"value": "t_bool"
					},
					"t_uint256": {
						"encoding": "inplace",
						"label": "uint256",
						"numberOfBytes": "32"
					}
				}
			},
			"userdoc": {
				"kind": "user",
				"methods": {},
				"version": 1
			}
		}
	}
}