{
	"Dcoffer/treasury.sol": {
		"treasury": {
			"abi": [
				{
					"inputs": [],
					"stateMutability": "nonpayable",
					"type": "constructor"
				},
				{
					"inputs": [],
					"name": "MineDcoff",
					"outputs": [],
					"stateMutability": "nonpayable",
					"type": "function"
				},
				{
					"inputs": [
						{
							"internalType": "address",
							"name": "user",
							"type": "address"
						}
					],
					"name": "mineStatus",
					"outputs": [
						{
							"internalType": "uint256",
							"name": "",
							"type": "uint256"
						}
					],
					"stateMutability": "view",
					"type": "function"
				}
			],
			"devdoc": {
				"kind": "dev",
				"methods": {},
				"version": 1
			},
			"evm": {
				"assembly": "    /* \"Dcoffer/treasury.sol\":206:1209  contract treasury  {... */\n  mstore(0x40, 0x80)\n    /* \"Dcoffer/treasury.sol\":277:319  0x6a544367FCa7064B6ADA5dc87F7E5058A9bB7Af9 */\n  0x6a544367fca7064b6ada5dc87f7e5058a9bb7af9\n    /* \"Dcoffer/treasury.sol\":260:320  IDCF mine = IDCF(0x6a544367FCa7064B6ADA5dc87F7E5058A9bB7Af9) */\n  0x00\n  dup1\n  0x0100\n  exp\n  dup2\n  sload\n  dup2\n  0xffffffffffffffffffffffffffffffffffffffff\n  mul\n  not\n  and\n  swap1\n  dup4\n  0xffffffffffffffffffffffffffffffffffffffff\n  and\n  mul\n  or\n  swap1\n  sstore\n  pop\n    /* \"Dcoffer/treasury.sol\":348:390  0xbE0C856e2981b9f03d7613566DFC6679eEe4708A */\n  0xbe0c856e2981b9f03d7613566dfc6679eee4708a\n    /* \"Dcoffer/treasury.sol\":325:391  IERC20 dcoff =  IERC20(0xbE0C856e2981b9f03d7613566DFC6679eEe4708A) */\n  0x01\n  exp(0x0100, 0x00)\n  dup2\n  sload\n  dup2\n  0xffffffffffffffffffffffffffffffffffffffff\n  mul\n  not\n  and\n  swap1\n  dup4\n  0xffffffffffffffffffffffffffffffffffffffff\n  and\n  mul\n  or\n  swap1\n  sstore\n  pop\n    /* \"Dcoffer/treasury.sol\":483:529  constructor(){... */\n  callvalue\n  dup1\n  iszero\n  tag_1\n  jumpi\n  0x00\n  dup1\n  revert\ntag_1:\n  pop\n    /* \"Dcoffer/treasury.sol\":519:523  2e14 */\n  0xb5e620f48000\n    /* \"Dcoffer/treasury.sol\":503:516  DcoffperBlock */\n  0x02\n    /* \"Dcoffer/treasury.sol\":503:523  DcoffperBlock = 2e14 */\n  dup2\n  swap1\n  sstore\n  pop\n    /* \"Dcoffer/treasury.sol\":206:1209  contract treasury  {... */\n  dataSize(sub_0)\n  dup1\n  dataOffset(sub_0)\n  0x00\n  codecopy\n  0x00\n  return\nstop\n\nsub_0: assembly {\n        /* \"Dcoffer/treasury.sol\":206:1209  contract treasury  {... */\n      mstore(0x40, 0x80)\n      callvalue\n      dup1\n      iszero\n      tag_1\n      jumpi\n      0x00\n      dup1\n      revert\n    tag_1:\n      pop\n      jumpi(tag_2, lt(calldatasize, 0x04))\n      shr(0xe0, calldataload(0x00))\n      dup1\n      0x33a22571\n      eq\n      tag_3\n      jumpi\n      dup1\n      0x8bed4778\n      eq\n      tag_4\n      jumpi\n    tag_2:\n      0x00\n      dup1\n      revert\n        /* \"Dcoffer/treasury.sol\":1008:1193  function mineStatus(address user)public view returns(uint256){... */\n    tag_3:\n      tag_5\n      0x04\n      dup1\n      calldatasize\n      sub\n      dup2\n      add\n      swap1\n      tag_6\n      swap2\n      swap1\n      tag_7\n      jump\t// in\n    tag_6:\n      tag_8\n      jump\t// in\n    tag_5:\n      mload(0x40)\n      tag_9\n      swap2\n      swap1\n      tag_10\n      jump\t// in\n    tag_9:\n      mload(0x40)\n      dup1\n      swap2\n      sub\n      swap1\n      return\n        /* \"Dcoffer/treasury.sol\":537:795  function MineDcoff()external{... */\n    tag_4:\n      tag_11\n      tag_12\n      jump\t// in\n    tag_11:\n      stop\n        /* \"Dcoffer/treasury.sol\":1008:1193  function mineStatus(address user)public view returns(uint256){... */\n    tag_8:\n        /* \"Dcoffer/treasury.sol\":1061:1068  uint256 */\n      0x00\n        /* \"Dcoffer/treasury.sol\":1078:1096  uint256 afterScore */\n      dup1\n        /* \"Dcoffer/treasury.sol\":1099:1110  Score(user) */\n      tag_14\n        /* \"Dcoffer/treasury.sol\":1105:1109  user */\n      dup4\n        /* \"Dcoffer/treasury.sol\":1099:1104  Score */\n      tag_15\n        /* \"Dcoffer/treasury.sol\":1099:1110  Score(user) */\n      jump\t// in\n    tag_14:\n        /* \"Dcoffer/treasury.sol\":1078:1110  uint256 afterScore = Score(user) */\n      swap1\n      pop\n        /* \"Dcoffer/treasury.sol\":1119:1133  uint256 GetDCF */\n      0x00\n        /* \"Dcoffer/treasury.sol\":1136:1165  afterScore.mul(DcoffperBlock) */\n      tag_16\n        /* \"Dcoffer/treasury.sol\":1151:1164  DcoffperBlock */\n      sload(0x02)\n        /* \"Dcoffer/treasury.sol\":1136:1146  afterScore */\n      dup4\n        /* \"Dcoffer/treasury.sol\":1136:1150  afterScore.mul */\n      tag_17\n      swap1\n        /* \"Dcoffer/treasury.sol\":1136:1165  afterScore.mul(DcoffperBlock) */\n      swap2\n      swap1\n      0xffffffff\n      and\n      jump\t// in\n    tag_16:\n        /* \"Dcoffer/treasury.sol\":1119:1165  uint256 GetDCF = afterScore.mul(DcoffperBlock) */\n      swap1\n      pop\n        /* \"Dcoffer/treasury.sol\":1181:1187  GetDCF */\n      dup1\n        /* \"Dcoffer/treasury.sol\":1174:1187  return GetDCF */\n      swap3\n      pop\n      pop\n      pop\n        /* \"Dcoffer/treasury.sol\":1008:1193  function mineStatus(address user)public view returns(uint256){... */\n      swap2\n      swap1\n      pop\n      jump\t// out\n        /* \"Dcoffer/treasury.sol\":537:795  function MineDcoff()external{... */\n    tag_12:\n        /* \"Dcoffer/treasury.sol\":574:592  uint256 afterScore */\n      0x00\n        /* \"Dcoffer/treasury.sol\":595:612  Score(msg.sender) */\n      tag_19\n        /* \"Dcoffer/treasury.sol\":601:611  msg.sender */\n      caller\n        /* \"Dcoffer/treasury.sol\":595:600  Score */\n      tag_15\n        /* \"Dcoffer/treasury.sol\":595:612  Score(msg.sender) */\n      jump\t// in\n    tag_19:\n        /* \"Dcoffer/treasury.sol\":574:612  uint256 afterScore = Score(msg.sender) */\n      swap1\n      pop\n        /* \"Dcoffer/treasury.sol\":621:635  uint256 GetDCF */\n      0x00\n        /* \"Dcoffer/treasury.sol\":638:667  afterScore.mul(DcoffperBlock) */\n      tag_20\n        /* \"Dcoffer/treasury.sol\":653:666  DcoffperBlock */\n      sload(0x02)\n        /* \"Dcoffer/treasury.sol\":638:648  afterScore */\n      dup4\n        /* \"Dcoffer/treasury.sol\":638:652  afterScore.mul */\n      tag_17\n      swap1\n        /* \"Dcoffer/treasury.sol\":638:667  afterScore.mul(DcoffperBlock) */\n      swap2\n      swap1\n      0xffffffff\n      and\n      jump\t// in\n    tag_20:\n        /* \"Dcoffer/treasury.sol\":621:667  uint256 GetDCF = afterScore.mul(DcoffperBlock) */\n      swap1\n      pop\n        /* \"Dcoffer/treasury.sol\":676:681  dcoff */\n      0x01\n      0x00\n      swap1\n      sload\n      swap1\n      0x0100\n      exp\n      swap1\n      div\n      0xffffffffffffffffffffffffffffffffffffffff\n      and\n        /* \"Dcoffer/treasury.sol\":676:690  dcoff.transfer */\n      0xffffffffffffffffffffffffffffffffffffffff\n      and\n      0xa9059cbb\n        /* \"Dcoffer/treasury.sol\":691:701  msg.sender */\n      caller\n        /* \"Dcoffer/treasury.sol\":702:708  GetDCF */\n      dup4\n        /* \"Dcoffer/treasury.sol\":676:709  dcoff.transfer(msg.sender,GetDCF) */\n      mload(0x40)\n      dup4\n      0xffffffff\n      and\n      0xe0\n      shl\n      dup2\n      mstore\n      0x04\n      add\n      tag_21\n      swap3\n      swap2\n      swap1\n      tag_22\n      jump\t// in\n    tag_21:\n      0x20\n      mload(0x40)\n      dup1\n      dup4\n      sub\n      dup2\n      0x00\n      dup8\n      gas\n      call\n      iszero\n      dup1\n      iszero\n      tag_24\n      jumpi\n      returndatasize\n      0x00\n      dup1\n      returndatacopy\n      revert(0x00, returndatasize)\n    tag_24:\n      pop\n      pop\n      pop\n      pop\n      mload(0x40)\n      returndatasize\n      not(0x1f)\n      0x1f\n      dup3\n      add\n      and\n      dup3\n      add\n      dup1\n      0x40\n      mstore\n      pop\n      dup2\n      add\n      swap1\n      tag_25\n      swap2\n      swap1\n      tag_26\n      jump\t// in\n    tag_25:\n      pop\n        /* \"Dcoffer/treasury.sol\":747:789  ScoreWithdrawn[msg.sender].add(afterScore) */\n      tag_27\n        /* \"Dcoffer/treasury.sol\":778:788  afterScore */\n      dup3\n        /* \"Dcoffer/treasury.sol\":747:761  ScoreWithdrawn */\n      0x03\n        /* \"Dcoffer/treasury.sol\":747:773  ScoreWithdrawn[msg.sender] */\n      0x00\n        /* \"Dcoffer/treasury.sol\":762:772  msg.sender */\n      caller\n        /* \"Dcoffer/treasury.sol\":747:773  ScoreWithdrawn[msg.sender] */\n      0xffffffffffffffffffffffffffffffffffffffff\n      and\n      0xffffffffffffffffffffffffffffffffffffffff\n      and\n      dup2\n      mstore\n      0x20\n      add\n      swap1\n      dup2\n      mstore\n      0x20\n      add\n      0x00\n      keccak256\n      sload\n        /* \"Dcoffer/treasury.sol\":747:777  ScoreWithdrawn[msg.sender].add */\n      tag_28\n      swap1\n        /* \"Dcoffer/treasury.sol\":747:789  ScoreWithdrawn[msg.sender].add(afterScore) */\n      swap2\n      swap1\n      0xffffffff\n      and\n      jump\t// in\n    tag_27:\n        /* \"Dcoffer/treasury.sol\":718:732  ScoreWithdrawn */\n      0x03\n        /* \"Dcoffer/treasury.sol\":718:744  ScoreWithdrawn[msg.sender] */\n      0x00\n        /* \"Dcoffer/treasury.sol\":733:743  msg.sender */\n      caller\n        /* \"Dcoffer/treasury.sol\":718:744  ScoreWithdrawn[msg.sender] */\n      0xffffffffffffffffffffffffffffffffffffffff\n      and\n      0xffffffffffffffffffffffffffffffffffffffff\n      and\n      dup2\n      mstore\n      0x20\n      add\n      swap1\n      dup2\n      mstore\n      0x20\n      add\n      0x00\n      keccak256\n        /* \"Dcoffer/treasury.sol\":718:789  ScoreWithdrawn[msg.sender] = ScoreWithdrawn[msg.sender].add(afterScore) */\n      dup2\n      swap1\n      sstore\n      pop\n        /* \"Dcoffer/treasury.sol\":565:795  {... */\n      pop\n      pop\n        /* \"Dcoffer/treasury.sol\":537:795  function MineDcoff()external{... */\n      jump\t// out\n        /* \"Dcoffer/treasury.sol\":803:1002  function Score(address user)internal view returns(uint256){... */\n    tag_15:\n        /* \"Dcoffer/treasury.sol\":853:860  uint256 */\n      0x00\n        /* \"Dcoffer/treasury.sol\":870:884  uint256 _Score */\n      dup1\n        /* \"Dcoffer/treasury.sol\":887:891  mine */\n      0x00\n      dup1\n      sload\n      swap1\n      0x0100\n      exp\n      swap1\n      div\n      0xffffffffffffffffffffffffffffffffffffffff\n      and\n        /* \"Dcoffer/treasury.sol\":887:902  mine.BlockScore */\n      0xffffffffffffffffffffffffffffffffffffffff\n      and\n      0x325b272a\n        /* \"Dcoffer/treasury.sol\":903:907  user */\n      dup5\n        /* \"Dcoffer/treasury.sol\":887:908  mine.BlockScore(user) */\n      mload(0x40)\n      dup3\n      0xffffffff\n      and\n      0xe0\n      shl\n      dup2\n      mstore\n      0x04\n      add\n      tag_30\n      swap2\n      swap1\n      tag_31\n      jump\t// in\n    tag_30:\n      0x20\n      mload(0x40)\n      dup1\n      dup4\n      sub\n      dup2\n      dup7\n      gas\n      staticcall\n      iszero\n      dup1\n      iszero\n      tag_33\n      jumpi\n      returndatasize\n      0x00\n      dup1\n      returndatacopy\n      revert(0x00, returndatasize)\n    tag_33:\n      pop\n      pop\n      pop\n      pop\n      mload(0x40)\n      returndatasize\n      not(0x1f)\n      0x1f\n      dup3\n      add\n      and\n      dup3\n      add\n      dup1\n      0x40\n      mstore\n      pop\n      dup2\n      add\n      swap1\n      tag_34\n      swap2\n      swap1\n      tag_35\n      jump\t// in\n    tag_34:\n        /* \"Dcoffer/treasury.sol\":870:908  uint256 _Score = mine.BlockScore(user) */\n      swap1\n      pop\n        /* \"Dcoffer/treasury.sol\":917:935  uint256 afterScore */\n      0x00\n        /* \"Dcoffer/treasury.sol\":938:970  _Score.sub(ScoreWithdrawn[user]) */\n      tag_36\n        /* \"Dcoffer/treasury.sol\":949:963  ScoreWithdrawn */\n      0x03\n        /* \"Dcoffer/treasury.sol\":949:969  ScoreWithdrawn[user] */\n      0x00\n        /* \"Dcoffer/treasury.sol\":964:968  user */\n      dup7\n        /* \"Dcoffer/treasury.sol\":949:969  ScoreWithdrawn[user] */\n      0xffffffffffffffffffffffffffffffffffffffff\n      and\n      0xffffffffffffffffffffffffffffffffffffffff\n      and\n      dup2\n      mstore\n      0x20\n      add\n      swap1\n      dup2\n      mstore\n      0x20\n      add\n      0x00\n      keccak256\n      sload\n        /* \"Dcoffer/treasury.sol\":938:944  _Score */\n      dup4\n        /* \"Dcoffer/treasury.sol\":938:948  _Score.sub */\n      tag_37\n      swap1\n        /* \"Dcoffer/treasury.sol\":938:970  _Score.sub(ScoreWithdrawn[user]) */\n      swap2\n      swap1\n      0xffffffff\n      and\n      jump\t// in\n    tag_36:\n        /* \"Dcoffer/treasury.sol\":917:970  uint256 afterScore = _Score.sub(ScoreWithdrawn[user]) */\n      swap1\n      pop\n        /* \"Dcoffer/treasury.sol\":986:996  afterScore */\n      dup1\n        /* \"Dcoffer/treasury.sol\":979:996  return afterScore */\n      swap3\n      pop\n      pop\n      pop\n        /* \"Dcoffer/treasury.sol\":803:1002  function Score(address user)internal view returns(uint256){... */\n      swap2\n      swap1\n      pop\n      jump\t// out\n        /* \"@openzeppelin/contracts/utils/math/SafeMath.sol\":3465:3561  function mul(uint256 a, uint256 b) internal pure returns (uint256) {... */\n    tag_17:\n        /* \"@openzeppelin/contracts/utils/math/SafeMath.sol\":3523:3530  uint256 */\n      0x00\n        /* \"@openzeppelin/contracts/utils/math/SafeMath.sol\":3553:3554  b */\n      dup2\n        /* \"@openzeppelin/contracts/utils/math/SafeMath.sol\":3549:3550  a */\n      dup4\n        /* \"@openzeppelin/contracts/utils/math/SafeMath.sol\":3549:3554  a * b */\n      tag_39\n      swap2\n      swap1\n      tag_40\n      jump\t// in\n    tag_39:\n        /* \"@openzeppelin/contracts/utils/math/SafeMath.sol\":3542:3554  return a * b */\n      swap1\n      pop\n        /* \"@openzeppelin/contracts/utils/math/SafeMath.sol\":3465:3561  function mul(uint256 a, uint256 b) internal pure returns (uint256) {... */\n      swap3\n      swap2\n      pop\n      pop\n      jump\t// out\n        /* \"@openzeppelin/contracts/utils/math/SafeMath.sol\":2755:2851  function add(uint256 a, uint256 b) internal pure returns (uint256) {... */\n    tag_28:\n        /* \"@openzeppelin/contracts/utils/math/SafeMath.sol\":2813:2820  uint256 */\n      0x00\n        /* \"@openzeppelin/contracts/utils/math/SafeMath.sol\":2843:2844  b */\n      dup2\n        /* \"@openzeppelin/contracts/utils/math/SafeMath.sol\":2839:2840  a */\n      dup4\n        /* \"@openzeppelin/contracts/utils/math/SafeMath.sol\":2839:2844  a + b */\n      tag_42\n      swap2\n      swap1\n      tag_43\n      jump\t// in\n    tag_42:\n        /* \"@openzeppelin/contracts/utils/math/SafeMath.sol\":2832:2844  return a + b */\n      swap1\n      pop\n        /* \"@openzeppelin/contracts/utils/math/SafeMath.sol\":2755:2851  function add(uint256 a, uint256 b) internal pure returns (uint256) {... */\n      swap3\n      swap2\n      pop\n      pop\n      jump\t// out\n        /* \"@openzeppelin/contracts/utils/math/SafeMath.sol\":3122:3218  function sub(uint256 a, uint256 b) internal pure returns (uint256) {... */\n    tag_37:\n        /* \"@openzeppelin/contracts/utils/math/SafeMath.sol\":3180:3187  uint256 */\n      0x00\n        /* \"@openzeppelin/contracts/utils/math/SafeMath.sol\":3210:3211  b */\n      dup2\n        /* \"@openzeppelin/contracts/utils/math/SafeMath.sol\":3206:3207  a */\n      dup4\n        /* \"@openzeppelin/contracts/utils/math/SafeMath.sol\":3206:3211  a - b */\n      tag_45\n      swap2\n      swap1\n      tag_46\n      jump\t// in\n    tag_45:\n        /* \"@openzeppelin/contracts/utils/math/SafeMath.sol\":3199:3211  return a - b */\n      swap1\n      pop\n        /* \"@openzeppelin/contracts/utils/math/SafeMath.sol\":3122:3218  function sub(uint256 a, uint256 b) internal pure returns (uint256) {... */\n      swap3\n      swap2\n      pop\n      pop\n      jump\t// out\n        /* \"#utility.yul\":88:205   */\n    tag_48:\n        /* \"#utility.yul\":197:198   */\n      0x00\n        /* \"#utility.yul\":194:195   */\n      dup1\n        /* \"#utility.yul\":187:199   */\n      revert\n        /* \"#utility.yul\":334:460   */\n    tag_50:\n        /* \"#utility.yul\":371:378   */\n      0x00\n        /* \"#utility.yul\":411:453   */\n      0xffffffffffffffffffffffffffffffffffffffff\n        /* \"#utility.yul\":404:409   */\n      dup3\n        /* \"#utility.yul\":400:454   */\n      and\n        /* \"#utility.yul\":389:454   */\n      swap1\n      pop\n        /* \"#utility.yul\":334:460   */\n      swap2\n      swap1\n      pop\n      jump\t// out\n        /* \"#utility.yul\":466:562   */\n    tag_51:\n        /* \"#utility.yul\":503:510   */\n      0x00\n        /* \"#utility.yul\":532:556   */\n      tag_69\n        /* \"#utility.yul\":550:555   */\n      dup3\n        /* \"#utility.yul\":532:556   */\n      tag_50\n      jump\t// in\n    tag_69:\n        /* \"#utility.yul\":521:556   */\n      swap1\n      pop\n        /* \"#utility.yul\":466:562   */\n      swap2\n      swap1\n      pop\n      jump\t// out\n        /* \"#utility.yul\":568:690   */\n    tag_52:\n        /* \"#utility.yul\":641:665   */\n      tag_71\n        /* \"#utility.yul\":659:664   */\n      dup2\n        /* \"#utility.yul\":641:665   */\n      tag_51\n      jump\t// in\n    tag_71:\n        /* \"#utility.yul\":634:639   */\n      dup2\n        /* \"#utility.yul\":631:666   */\n      eq\n        /* \"#utility.yul\":621:684   */\n      tag_72\n      jumpi\n        /* \"#utility.yul\":680:681   */\n      0x00\n        /* \"#utility.yul\":677:678   */\n      dup1\n        /* \"#utility.yul\":670:682   */\n      revert\n        /* \"#utility.yul\":621:684   */\n    tag_72:\n        /* \"#utility.yul\":568:690   */\n      pop\n      jump\t// out\n        /* \"#utility.yul\":696:835   */\n    tag_53:\n        /* \"#utility.yul\":742:747   */\n      0x00\n        /* \"#utility.yul\":780:786   */\n      dup2\n        /* \"#utility.yul\":767:787   */\n      calldataload\n        /* \"#utility.yul\":758:787   */\n      swap1\n      pop\n        /* \"#utility.yul\":796:829   */\n      tag_74\n        /* \"#utility.yul\":823:828   */\n      dup2\n        /* \"#utility.yul\":796:829   */\n      tag_52\n      jump\t// in\n    tag_74:\n        /* \"#utility.yul\":696:835   */\n      swap3\n      swap2\n      pop\n      pop\n      jump\t// out\n        /* \"#utility.yul\":841:1170   */\n    tag_7:\n        /* \"#utility.yul\":900:906   */\n      0x00\n        /* \"#utility.yul\":949:951   */\n      0x20\n        /* \"#utility.yul\":937:946   */\n      dup3\n        /* \"#utility.yul\":928:935   */\n      dup5\n        /* \"#utility.yul\":924:947   */\n      sub\n        /* \"#utility.yul\":920:952   */\n      slt\n        /* \"#utility.yul\":917:1036   */\n      iszero\n      tag_76\n      jumpi\n        /* \"#utility.yul\":955:1034   */\n      tag_77\n      tag_48\n      jump\t// in\n    tag_77:\n        /* \"#utility.yul\":917:1036   */\n    tag_76:\n        /* \"#utility.yul\":1075:1076   */\n      0x00\n        /* \"#utility.yul\":1100:1153   */\n      tag_78\n        /* \"#utility.yul\":1145:1152   */\n      dup5\n        /* \"#utility.yul\":1136:1142   */\n      dup3\n        /* \"#utility.yul\":1125:1134   */\n      dup6\n        /* \"#utility.yul\":1121:1143   */\n      add\n        /* \"#utility.yul\":1100:1153   */\n      tag_53\n      jump\t// in\n    tag_78:\n        /* \"#utility.yul\":1090:1153   */\n      swap2\n      pop\n        /* \"#utility.yul\":1046:1163   */\n      pop\n        /* \"#utility.yul\":841:1170   */\n      swap3\n      swap2\n      pop\n      pop\n      jump\t// out\n        /* \"#utility.yul\":1176:1253   */\n    tag_54:\n        /* \"#utility.yul\":1213:1220   */\n      0x00\n        /* \"#utility.yul\":1242:1247   */\n      dup2\n        /* \"#utility.yul\":1231:1247   */\n      swap1\n      pop\n        /* \"#utility.yul\":1176:1253   */\n      swap2\n      swap1\n      pop\n      jump\t// out\n        /* \"#utility.yul\":1259:1377   */\n    tag_55:\n        /* \"#utility.yul\":1346:1370   */\n      tag_81\n        /* \"#utility.yul\":1364:1369   */\n      dup2\n        /* \"#utility.yul\":1346:1370   */\n      tag_54\n      jump\t// in\n    tag_81:\n        /* \"#utility.yul\":1341:1344   */\n      dup3\n        /* \"#utility.yul\":1334:1371   */\n      mstore\n        /* \"#utility.yul\":1259:1377   */\n      pop\n      pop\n      jump\t// out\n        /* \"#utility.yul\":1383:1605   */\n    tag_10:\n        /* \"#utility.yul\":1476:1480   */\n      0x00\n        /* \"#utility.yul\":1514:1516   */\n      0x20\n        /* \"#utility.yul\":1503:1512   */\n      dup3\n        /* \"#utility.yul\":1499:1517   */\n      add\n        /* \"#utility.yul\":1491:1517   */\n      swap1\n      pop\n        /* \"#utility.yul\":1527:1598   */\n      tag_83\n        /* \"#utility.yul\":1595:1596   */\n      0x00\n        /* \"#utility.yul\":1584:1593   */\n      dup4\n        /* \"#utility.yul\":1580:1597   */\n      add\n        /* \"#utility.yul\":1571:1577   */\n      dup5\n        /* \"#utility.yul\":1527:1598   */\n      tag_55\n      jump\t// in\n    tag_83:\n        /* \"#utility.yul\":1383:1605   */\n      swap3\n      swap2\n      pop\n      pop\n      jump\t// out\n        /* \"#utility.yul\":1611:1729   */\n    tag_56:\n        /* \"#utility.yul\":1698:1722   */\n      tag_85\n        /* \"#utility.yul\":1716:1721   */\n      dup2\n        /* \"#utility.yul\":1698:1722   */\n      tag_51\n      jump\t// in\n    tag_85:\n        /* \"#utility.yul\":1693:1696   */\n      dup3\n        /* \"#utility.yul\":1686:1723   */\n      mstore\n        /* \"#utility.yul\":1611:1729   */\n      pop\n      pop\n      jump\t// out\n        /* \"#utility.yul\":1735:2067   */\n    tag_22:\n        /* \"#utility.yul\":1856:1860   */\n      0x00\n        /* \"#utility.yul\":1894:1896   */\n      0x40\n        /* \"#utility.yul\":1883:1892   */\n      dup3\n        /* \"#utility.yul\":1879:1897   */\n      add\n        /* \"#utility.yul\":1871:1897   */\n      swap1\n      pop\n        /* \"#utility.yul\":1907:1978   */\n      tag_87\n        /* \"#utility.yul\":1975:1976   */\n      0x00\n        /* \"#utility.yul\":1964:1973   */\n      dup4\n        /* \"#utility.yul\":1960:1977   */\n      add\n        /* \"#utility.yul\":1951:1957   */\n      dup6\n        /* \"#utility.yul\":1907:1978   */\n      tag_56\n      jump\t// in\n    tag_87:\n        /* \"#utility.yul\":1988:2060   */\n      tag_88\n        /* \"#utility.yul\":2056:2058   */\n      0x20\n        /* \"#utility.yul\":2045:2054   */\n      dup4\n        /* \"#utility.yul\":2041:2059   */\n      add\n        /* \"#utility.yul\":2032:2038   */\n      dup5\n        /* \"#utility.yul\":1988:2060   */\n      tag_55\n      jump\t// in\n    tag_88:\n        /* \"#utility.yul\":1735:2067   */\n      swap4\n      swap3\n      pop\n      pop\n      pop\n      jump\t// out\n        /* \"#utility.yul\":2073:2163   */\n    tag_57:\n        /* \"#utility.yul\":2107:2114   */\n      0x00\n        /* \"#utility.yul\":2150:2155   */\n      dup2\n        /* \"#utility.yul\":2143:2156   */\n      iszero\n        /* \"#utility.yul\":2136:2157   */\n      iszero\n        /* \"#utility.yul\":2125:2157   */\n      swap1\n      pop\n        /* \"#utility.yul\":2073:2163   */\n      swap2\n      swap1\n      pop\n      jump\t// out\n        /* \"#utility.yul\":2169:2285   */\n    tag_58:\n        /* \"#utility.yul\":2239:2260   */\n      tag_91\n        /* \"#utility.yul\":2254:2259   */\n      dup2\n        /* \"#utility.yul\":2239:2260   */\n      tag_57\n      jump\t// in\n    tag_91:\n        /* \"#utility.yul\":2232:2237   */\n      dup2\n        /* \"#utility.yul\":2229:2261   */\n      eq\n        /* \"#utility.yul\":2219:2279   */\n      tag_92\n      jumpi\n        /* \"#utility.yul\":2275:2276   */\n      0x00\n        /* \"#utility.yul\":2272:2273   */\n      dup1\n        /* \"#utility.yul\":2265:2277   */\n      revert\n        /* \"#utility.yul\":2219:2279   */\n    tag_92:\n        /* \"#utility.yul\":2169:2285   */\n      pop\n      jump\t// out\n        /* \"#utility.yul\":2291:2428   */\n    tag_59:\n        /* \"#utility.yul\":2345:2350   */\n      0x00\n        /* \"#utility.yul\":2376:2382   */\n      dup2\n        /* \"#utility.yul\":2370:2383   */\n      mload\n        /* \"#utility.yul\":2361:2383   */\n      swap1\n      pop\n        /* \"#utility.yul\":2392:2422   */\n      tag_94\n        /* \"#utility.yul\":2416:2421   */\n      dup2\n        /* \"#utility.yul\":2392:2422   */\n      tag_58\n      jump\t// in\n    tag_94:\n        /* \"#utility.yul\":2291:2428   */\n      swap3\n      swap2\n      pop\n      pop\n      jump\t// out\n        /* \"#utility.yul\":2434:2779   */\n    tag_26:\n        /* \"#utility.yul\":2501:2507   */\n      0x00\n        /* \"#utility.yul\":2550:2552   */\n      0x20\n        /* \"#utility.yul\":2538:2547   */\n      dup3\n        /* \"#utility.yul\":2529:2536   */\n      dup5\n        /* \"#utility.yul\":2525:2548   */\n      sub\n        /* \"#utility.yul\":2521:2553   */\n      slt\n        /* \"#utility.yul\":2518:2637   */\n      iszero\n      tag_96\n      jumpi\n        /* \"#utility.yul\":2556:2635   */\n      tag_97\n      tag_48\n      jump\t// in\n    tag_97:\n        /* \"#utility.yul\":2518:2637   */\n    tag_96:\n        /* \"#utility.yul\":2676:2677   */\n      0x00\n        /* \"#utility.yul\":2701:2762   */\n      tag_98\n        /* \"#utility.yul\":2754:2761   */\n      dup5\n        /* \"#utility.yul\":2745:2751   */\n      dup3\n        /* \"#utility.yul\":2734:2743   */\n      dup6\n        /* \"#utility.yul\":2730:2752   */\n      add\n        /* \"#utility.yul\":2701:2762   */\n      tag_59\n      jump\t// in\n    tag_98:\n        /* \"#utility.yul\":2691:2762   */\n      swap2\n      pop\n        /* \"#utility.yul\":2647:2772   */\n      pop\n        /* \"#utility.yul\":2434:2779   */\n      swap3\n      swap2\n      pop\n      pop\n      jump\t// out\n        /* \"#utility.yul\":2785:3007   */\n    tag_31:\n        /* \"#utility.yul\":2878:2882   */\n      0x00\n        /* \"#utility.yul\":2916:2918   */\n      0x20\n        /* \"#utility.yul\":2905:2914   */\n      dup3\n        /* \"#utility.yul\":2901:2919   */\n      add\n        /* \"#utility.yul\":2893:2919   */\n      swap1\n      pop\n        /* \"#utility.yul\":2929:3000   */\n      tag_100\n        /* \"#utility.yul\":2997:2998   */\n      0x00\n        /* \"#utility.yul\":2986:2995   */\n      dup4\n        /* \"#utility.yul\":2982:2999   */\n      add\n        /* \"#utility.yul\":2973:2979   */\n      dup5\n        /* \"#utility.yul\":2929:3000   */\n      tag_56\n      jump\t// in\n    tag_100:\n        /* \"#utility.yul\":2785:3007   */\n      swap3\n      swap2\n      pop\n      pop\n      jump\t// out\n        /* \"#utility.yul\":3013:3135   */\n    tag_60:\n        /* \"#utility.yul\":3086:3110   */\n      tag_102\n        /* \"#utility.yul\":3104:3109   */\n      dup2\n        /* \"#utility.yul\":3086:3110   */\n      tag_54\n      jump\t// in\n    tag_102:\n        /* \"#utility.yul\":3079:3084   */\n      dup2\n        /* \"#utility.yul\":3076:3111   */\n      eq\n        /* \"#utility.yul\":3066:3129   */\n      tag_103\n      jumpi\n        /* \"#utility.yul\":3125:3126   */\n      0x00\n        /* \"#utility.yul\":3122:3123   */\n      dup1\n        /* \"#utility.yul\":3115:3127   */\n      revert\n        /* \"#utility.yul\":3066:3129   */\n    tag_103:\n        /* \"#utility.yul\":3013:3135   */\n      pop\n      jump\t// out\n        /* \"#utility.yul\":3141:3284   */\n    tag_61:\n        /* \"#utility.yul\":3198:3203   */\n      0x00\n        /* \"#utility.yul\":3229:3235   */\n      dup2\n        /* \"#utility.yul\":3223:3236   */\n      mload\n        /* \"#utility.yul\":3214:3236   */\n      swap1\n      pop\n        /* \"#utility.yul\":3245:3278   */\n      tag_105\n        /* \"#utility.yul\":3272:3277   */\n      dup2\n        /* \"#utility.yul\":3245:3278   */\n      tag_60\n      jump\t// in\n    tag_105:\n        /* \"#utility.yul\":3141:3284   */\n      swap3\n      swap2\n      pop\n      pop\n      jump\t// out\n        /* \"#utility.yul\":3290:3641   */\n    tag_35:\n        /* \"#utility.yul\":3360:3366   */\n      0x00\n        /* \"#utility.yul\":3409:3411   */\n      0x20\n        /* \"#utility.yul\":3397:3406   */\n      dup3\n        /* \"#utility.yul\":3388:3395   */\n      dup5\n        /* \"#utility.yul\":3384:3407   */\n      sub\n        /* \"#utility.yul\":3380:3412   */\n      slt\n        /* \"#utility.yul\":3377:3496   */\n      iszero\n      tag_107\n      jumpi\n        /* \"#utility.yul\":3415:3494   */\n      tag_108\n      tag_48\n      jump\t// in\n    tag_108:\n        /* \"#utility.yul\":3377:3496   */\n    tag_107:\n        /* \"#utility.yul\":3535:3536   */\n      0x00\n        /* \"#utility.yul\":3560:3624   */\n      tag_109\n        /* \"#utility.yul\":3616:3623   */\n      dup5\n        /* \"#utility.yul\":3607:3613   */\n      dup3\n        /* \"#utility.yul\":3596:3605   */\n      dup6\n        /* \"#utility.yul\":3592:3614   */\n      add\n        /* \"#utility.yul\":3560:3624   */\n      tag_61\n      jump\t// in\n    tag_109:\n        /* \"#utility.yul\":3550:3624   */\n      swap2\n      pop\n        /* \"#utility.yul\":3506:3634   */\n      pop\n        /* \"#utility.yul\":3290:3641   */\n      swap3\n      swap2\n      pop\n      pop\n      jump\t// out\n        /* \"#utility.yul\":3647:3827   */\n    tag_62:\n        /* \"#utility.yul\":3695:3772   */\n      0x4e487b7100000000000000000000000000000000000000000000000000000000\n        /* \"#utility.yul\":3692:3693   */\n      0x00\n        /* \"#utility.yul\":3685:3773   */\n      mstore\n        /* \"#utility.yul\":3792:3796   */\n      0x11\n        /* \"#utility.yul\":3789:3790   */\n      0x04\n        /* \"#utility.yul\":3782:3797   */\n      mstore\n        /* \"#utility.yul\":3816:3820   */\n      0x24\n        /* \"#utility.yul\":3813:3814   */\n      0x00\n        /* \"#utility.yul\":3806:3821   */\n      revert\n        /* \"#utility.yul\":3833:4181   */\n    tag_40:\n        /* \"#utility.yul\":3873:3880   */\n      0x00\n        /* \"#utility.yul\":3896:3916   */\n      tag_112\n        /* \"#utility.yul\":3914:3915   */\n      dup3\n        /* \"#utility.yul\":3896:3916   */\n      tag_54\n      jump\t// in\n    tag_112:\n        /* \"#utility.yul\":3891:3916   */\n      swap2\n      pop\n        /* \"#utility.yul\":3930:3950   */\n      tag_113\n        /* \"#utility.yul\":3948:3949   */\n      dup4\n        /* \"#utility.yul\":3930:3950   */\n      tag_54\n      jump\t// in\n    tag_113:\n        /* \"#utility.yul\":3925:3950   */\n      swap3\n      pop\n        /* \"#utility.yul\":4118:4119   */\n      dup2\n        /* \"#utility.yul\":4050:4116   */\n      0xffffffffffffffffffffffffffffffffffffffffffffffffffffffffffffffff\n        /* \"#utility.yul\":4046:4120   */\n      div\n        /* \"#utility.yul\":4043:4044   */\n      dup4\n        /* \"#utility.yul\":4040:4121   */\n      gt\n        /* \"#utility.yul\":4035:4036   */\n      dup3\n        /* \"#utility.yul\":4028:4037   */\n      iszero\n        /* \"#utility.yul\":4021:4038   */\n      iszero\n        /* \"#utility.yul\":4017:4122   */\n      and\n        /* \"#utility.yul\":4014:4145   */\n      iszero\n      tag_114\n      jumpi\n        /* \"#utility.yul\":4125:4143   */\n      tag_115\n      tag_62\n      jump\t// in\n    tag_115:\n        /* \"#utility.yul\":4014:4145   */\n    tag_114:\n        /* \"#utility.yul\":4173:4174   */\n      dup3\n        /* \"#utility.yul\":4170:4171   */\n      dup3\n        /* \"#utility.yul\":4166:4175   */\n      mul\n        /* \"#utility.yul\":4155:4175   */\n      swap1\n      pop\n        /* \"#utility.yul\":3833:4181   */\n      swap3\n      swap2\n      pop\n      pop\n      jump\t// out\n        /* \"#utility.yul\":4187:4492   */\n    tag_43:\n        /* \"#utility.yul\":4227:4230   */\n      0x00\n        /* \"#utility.yul\":4246:4266   */\n      tag_117\n        /* \"#utility.yul\":4264:4265   */\n      dup3\n        /* \"#utility.yul\":4246:4266   */\n      tag_54\n      jump\t// in\n    tag_117:\n        /* \"#utility.yul\":4241:4266   */\n      swap2\n      pop\n        /* \"#utility.yul\":4280:4300   */\n      tag_118\n        /* \"#utility.yul\":4298:4299   */\n      dup4\n        /* \"#utility.yul\":4280:4300   */\n      tag_54\n      jump\t// in\n    tag_118:\n        /* \"#utility.yul\":4275:4300   */\n      swap3\n      pop\n        /* \"#utility.yul\":4434:4435   */\n      dup3\n        /* \"#utility.yul\":4366:4432   */\n      0xffffffffffffffffffffffffffffffffffffffffffffffffffffffffffffffff\n        /* \"#utility.yul\":4362:4436   */\n      sub\n        /* \"#utility.yul\":4359:4360   */\n      dup3\n        /* \"#utility.yul\":4356:4437   */\n      gt\n        /* \"#utility.yul\":4353:4460   */\n      iszero\n      tag_119\n      jumpi\n        /* \"#utility.yul\":4440:4458   */\n      tag_120\n      tag_62\n      jump\t// in\n    tag_120:\n        /* \"#utility.yul\":4353:4460   */\n    tag_119:\n        /* \"#utility.yul\":4484:4485   */\n      dup3\n        /* \"#utility.yul\":4481:4482   */\n      dup3\n        /* \"#utility.yul\":4477:4486   */\n      add\n        /* \"#utility.yul\":4470:4486   */\n      swap1\n      pop\n        /* \"#utility.yul\":4187:4492   */\n      swap3\n      swap2\n      pop\n      pop\n      jump\t// out\n        /* \"#utility.yul\":4498:4689   */\n    tag_46:\n        /* \"#utility.yul\":4538:4542   */\n      0x00\n        /* \"#utility.yul\":4558:4578   */\n      tag_122\n        /* \"#utility.yul\":4576:4577   */\n      dup3\n        /* \"#utility.yul\":4558:4578   */\n      tag_54\n      jump\t// in\n    tag_122:\n        /* \"#utility.yul\":4553:4578   */\n      swap2\n      pop\n        /* \"#utility.yul\":4592:4612   */\n      tag_123\n        /* \"#utility.yul\":4610:4611   */\n      dup4\n        /* \"#utility.yul\":4592:4612   */\n      tag_54\n      jump\t// in\n    tag_123:\n        /* \"#utility.yul\":4587:4612   */\n      swap3\n      pop\n        /* \"#utility.yul\":4631:4632   */\n      dup3\n        /* \"#utility.yul\":4628:4629   */\n      dup3\n        /* \"#utility.yul\":4625:4633   */\n      lt\n        /* \"#utility.yul\":4622:4656   */\n      iszero\n      tag_124\n      jumpi\n        /* \"#utility.yul\":4636:4654   */\n      tag_125\n      tag_62\n      jump\t// in\n    tag_125:\n        /* \"#utility.yul\":4622:4656   */\n    tag_124:\n        /* \"#utility.yul\":4681:4682   */\n      dup3\n        /* \"#utility.yul\":4678:4679   */\n      dup3\n        /* \"#utility.yul\":4674:4683   */\n      sub\n        /* \"#utility.yul\":4666:4683   */\n      swap1\n      pop\n        /* \"#utility.yul\":4498:4689   */\n      swap3\n      swap2\n      pop\n      pop\n      jump\t// out\n\n    auxdata: 0xa264697066735822122072c71775270270c837d0afb6ed551e530ae8d6423c8ba64a8d69091a81a7241764736f6c634300080d0033\n}\n",
				"bytecode": {
					"linkReferences": {},
					"object": "6080604052736a544367fca7064b6ada5dc87f7e5058a9bb7af96000806101000a81548173ffffffffffffffffffffffffffffffffffffffff021916908373ffffffffffffffffffffffffffffffffffffffff16021790555073be0c856e2981b9f03d7613566dfc6679eee4708a600160006101000a81548173ffffffffffffffffffffffffffffffffffffffff021916908373ffffffffffffffffffffffffffffffffffffffff1602179055503480156100b957600080fd5b5065b5e620f48000600281905550610665806100d66000396000f3fe608060405234801561001057600080fd5b50600436106100365760003560e01c806333a225711461003b5780638bed47781461006b575b600080fd5b610055600480360381019061005091906103aa565b610075565b60405161006291906103f0565b60405180910390f35b6100736100a6565b005b60008061008183610206565b9050600061009a6002548361030590919063ffffffff16565b90508092505050919050565b60006100b133610206565b905060006100ca6002548361030590919063ffffffff16565b9050600160009054906101000a900473ffffffffffffffffffffffffffffffffffffffff1673ffffffffffffffffffffffffffffffffffffffff1663a9059cbb33836040518363ffffffff1660e01b815260040161012992919061041a565b6020604051808303816000875af1158015610148573d6000803e3d6000fd5b505050506040513d601f19601f8201168201806040525081019061016c919061047b565b506101bf82600360003373ffffffffffffffffffffffffffffffffffffffff1673ffffffffffffffffffffffffffffffffffffffff1681526020019081526020016000205461031b90919063ffffffff16565b600360003373ffffffffffffffffffffffffffffffffffffffff1673ffffffffffffffffffffffffffffffffffffffff168152602001908152602001600020819055505050565b60008060008054906101000a900473ffffffffffffffffffffffffffffffffffffffff1673ffffffffffffffffffffffffffffffffffffffff1663325b272a846040518263ffffffff1660e01b815260040161026291906104a8565b602060405180830381865afa15801561027f573d6000803e3d6000fd5b505050506040513d601f19601f820116820180604052508101906102a391906104ef565b905060006102f9600360008673ffffffffffffffffffffffffffffffffffffffff1673ffffffffffffffffffffffffffffffffffffffff168152602001908152602001600020548361033190919063ffffffff16565b90508092505050919050565b60008183610313919061054b565b905092915050565b6000818361032991906105a5565b905092915050565b6000818361033f91906105fb565b905092915050565b600080fd5b600073ffffffffffffffffffffffffffffffffffffffff82169050919050565b60006103778261034c565b9050919050565b6103878161036c565b811461039257600080fd5b50565b6000813590506103a48161037e565b92915050565b6000602082840312156103c0576103bf610347565b5b60006103ce84828501610395565b91505092915050565b6000819050919050565b6103ea816103d7565b82525050565b600060208201905061040560008301846103e1565b92915050565b6104148161036c565b82525050565b600060408201905061042f600083018561040b565b61043c60208301846103e1565b9392505050565b60008115159050919050565b61045881610443565b811461046357600080fd5b50565b6000815190506104758161044f565b92915050565b60006020828403121561049157610490610347565b5b600061049f84828501610466565b91505092915050565b60006020820190506104bd600083018461040b565b92915050565b6104cc816103d7565b81146104d757600080fd5b50565b6000815190506104e9816104c3565b92915050565b60006020828403121561050557610504610347565b5b6000610513848285016104da565b91505092915050565b7f4e487b7100000000000000000000000000000000000000000000000000000000600052601160045260246000fd5b6000610556826103d7565b9150610561836103d7565b9250817fffffffffffffffffffffffffffffffffffffffffffffffffffffffffffffffff048311821515161561059a5761059961051c565b5b828202905092915050565b60006105b0826103d7565b91506105bb836103d7565b9250827fffffffffffffffffffffffffffffffffffffffffffffffffffffffffffffffff038211156105f0576105ef61051c565b5b828201905092915050565b6000610606826103d7565b9150610611836103d7565b9250828210156106245761062361051c565b5b82820390509291505056fea264697066735822122072c71775270270c837d0afb6ed551e530ae8d6423c8ba64a8d69091a81a7241764736f6c634300080d0033",
					"opcodes": "PUSH1 0x80 PUSH1 0x40 MSTORE PUSH20 0x6A544367FCA7064B6ADA5DC87F7E5058A9BB7AF9 PUSH1 0x0 DUP1 PUSH2 0x100 EXP DUP2 SLOAD DUP2 PUSH20 0xFFFFFFFFFFFFFFFFFFFFFFFFFFFFFFFFFFFFFFFF MUL NOT AND SWAP1 DUP4 PUSH20 0xFFFFFFFFFFFFFFFFFFFFFFFFFFFFFFFFFFFFFFFF AND MUL OR SWAP1 SSTORE POP PUSH20 0xBE0C856E2981B9F03D7613566DFC6679EEE4708A PUSH1 0x1 PUSH1 0x0 PUSH2 0x100 EXP DUP2 SLOAD DUP2 PUSH20 0xFFFFFFFFFFFFFFFFFFFFFFFFFFFFFFFFFFFFFFFF MUL NOT AND SWAP1 DUP4 PUSH20 0xFFFFFFFFFFFFFFFFFFFFFFFFFFFFFFFFFFFFFFFF AND MUL OR SWAP1 SSTORE POP CALLVALUE DUP1 ISZERO PUSH2 0xB9 JUMPI PUSH1 0x0 DUP1 REVERT JUMPDEST POP PUSH6 0xB5E620F48000 PUSH1 0x2 DUP2 SWAP1 SSTORE POP PUSH2 0x665 DUP1 PUSH2 0xD6 PUSH1 0x0 CODECOPY PUSH1 0x0 RETURN INVALID PUSH1 0x80 PUSH1 0x40 MSTORE CALLVALUE DUP1 ISZERO PUSH2 0x10 JUMPI PUSH1 0x0 DUP1 REVERT JUMPDEST POP PUSH1 0x4 CALLDATASIZE LT PUSH2 0x36 JUMPI PUSH1 0x0 CALLDATALOAD PUSH1 0xE0 SHR DUP1 PUSH4 0x33A22571 EQ PUSH2 0x3B JUMPI DUP1 PUSH4 0x8BED4778 EQ PUSH2 0x6B JUMPI JUMPDEST PUSH1 0x0 DUP1 REVERT JUMPDEST PUSH2 0x55 PUSH1 0x4 DUP1 CALLDATASIZE SUB DUP2 ADD SWAP1 PUSH2 0x50 SWAP2 SWAP1 PUSH2 0x3AA JUMP JUMPDEST PUSH2 0x75 JUMP JUMPDEST PUSH1 0x40 MLOAD PUSH2 0x62 SWAP2 SWAP1 PUSH2 0x3F0 JUMP JUMPDEST PUSH1 0x40 MLOAD DUP1 SWAP2 SUB SWAP1 RETURN JUMPDEST PUSH2 0x73 PUSH2 0xA6 JUMP JUMPDEST STOP JUMPDEST PUSH1 0x0 DUP1 PUSH2 0x81 DUP4 PUSH2 0x206 JUMP JUMPDEST SWAP1 POP PUSH1 0x0 PUSH2 0x9A PUSH1 0x2 SLOAD DUP4 PUSH2 0x305 SWAP1 SWAP2 SWAP1 PUSH4 0xFFFFFFFF AND JUMP JUMPDEST SWAP1 POP DUP1 SWAP3 POP POP POP SWAP2 SWAP1 POP JUMP JUMPDEST PUSH1 0x0 PUSH2 0xB1 CALLER PUSH2 0x206 JUMP JUMPDEST SWAP1 POP PUSH1 0x0 PUSH2 0xCA PUSH1 0x2 SLOAD DUP4 PUSH2 0x305 SWAP1 SWAP2 SWAP1 PUSH4 0xFFFFFFFF AND JUMP JUMPDEST SWAP1 POP PUSH1 0x1 PUSH1 0x0 SWAP1 SLOAD SWAP1 PUSH2 0x100 EXP SWAP1 DIV PUSH20 0xFFFFFFFFFFFFFFFFFFFFFFFFFFFFFFFFFFFFFFFF AND PUSH20 0xFFFFFFFFFFFFFFFFFFFFFFFFFFFFFFFFFFFFFFFF AND PUSH4 0xA9059CBB CALLER DUP4 PUSH1 0x40 MLOAD DUP4 PUSH4 0xFFFFFFFF AND PUSH1 0xE0 SHL DUP2 MSTORE PUSH1 0x4 ADD PUSH2 0x129 SWAP3 SWAP2 SWAP1 PUSH2 0x41A JUMP JUMPDEST PUSH1 0x20 PUSH1 0x40 MLOAD DUP1 DUP4 SUB DUP2 PUSH1 0x0 DUP8 GAS CALL ISZERO DUP1 ISZERO PUSH2 0x148 JUMPI RETURNDATASIZE PUSH1 0x0 DUP1 RETURNDATACOPY RETURNDATASIZE PUSH1 0x0 REVERT JUMPDEST POP POP POP POP PUSH1 0x40 MLOAD RETURNDATASIZE PUSH1 0x1F NOT PUSH1 0x1F DUP3 ADD AND DUP3 ADD DUP1 PUSH1 0x40 MSTORE POP DUP2 ADD SWAP1 PUSH2 0x16C SWAP2 SWAP1 PUSH2 0x47B JUMP JUMPDEST POP PUSH2 0x1BF DUP3 PUSH1 0x3 PUSH1 0x0 CALLER PUSH20 0xFFFFFFFFFFFFFFFFFFFFFFFFFFFFFFFFFFFFFFFF AND PUSH20 0xFFFFFFFFFFFFFFFFFFFFFFFFFFFFFFFFFFFFFFFF AND DUP2 MSTORE PUSH1 0x20 ADD SWAP1 DUP2 MSTORE PUSH1 0x20 ADD PUSH1 0x0 KECCAK256 SLOAD PUSH2 0x31B SWAP1 SWAP2 SWAP1 PUSH4 0xFFFFFFFF AND JUMP JUMPDEST PUSH1 0x3 PUSH1 0x0 CALLER PUSH20 0xFFFFFFFFFFFFFFFFFFFFFFFFFFFFFFFFFFFFFFFF AND PUSH20 0xFFFFFFFFFFFFFFFFFFFFFFFFFFFFFFFFFFFFFFFF AND DUP2 MSTORE PUSH1 0x20 ADD SWAP1 DUP2 MSTORE PUSH1 0x20 ADD PUSH1 0x0 KECCAK256 DUP2 SWAP1 SSTORE POP POP POP JUMP JUMPDEST PUSH1 0x0 DUP1 PUSH1 0x0 DUP1 SLOAD SWAP1 PUSH2 0x100 EXP SWAP1 DIV PUSH20 0xFFFFFFFFFFFFFFFFFFFFFFFFFFFFFFFFFFFFFFFF AND PUSH20 0xFFFFFFFFFFFFFFFFFFFFFFFFFFFFFFFFFFFFFFFF AND PUSH4 0x325B272A DUP5 PUSH1 0x40 MLOAD DUP3 PUSH4 0xFFFFFFFF AND PUSH1 0xE0 SHL DUP2 MSTORE PUSH1 0x4 ADD PUSH2 0x262 SWAP2 SWAP1 PUSH2 0x4A8 JUMP JUMPDEST PUSH1 0x20 PUSH1 0x40 MLOAD DUP1 DUP4 SUB DUP2 DUP7 GAS STATICCALL ISZERO DUP1 ISZERO PUSH2 0x27F JUMPI RETURNDATASIZE PUSH1 0x0 DUP1 RETURNDATACOPY RETURNDATASIZE PUSH1 0x0 REVERT JUMPDEST POP POP POP POP PUSH1 0x40 MLOAD RETURNDATASIZE PUSH1 0x1F NOT PUSH1 0x1F DUP3 ADD AND DUP3 ADD DUP1 PUSH1 0x40 MSTORE POP DUP2 ADD SWAP1 PUSH2 0x2A3 SWAP2 SWAP1 PUSH2 0x4EF JUMP JUMPDEST SWAP1 POP PUSH1 0x0 PUSH2 0x2F9 PUSH1 0x3 PUSH1 0x0 DUP7 PUSH20 0xFFFFFFFFFFFFFFFFFFFFFFFFFFFFFFFFFFFFFFFF AND PUSH20 0xFFFFFFFFFFFFFFFFFFFFFFFFFFFFFFFFFFFFFFFF AND DUP2 MSTORE PUSH1 0x20 ADD SWAP1 DUP2 MSTORE PUSH1 0x20 ADD PUSH1 0x0 KECCAK256 SLOAD DUP4 PUSH2 0x331 SWAP1 SWAP2 SWAP1 PUSH4 0xFFFFFFFF AND JUMP JUMPDEST SWAP1 POP DUP1 SWAP3 POP POP POP SWAP2 SWAP1 POP JUMP JUMPDEST PUSH1 0x0 DUP2 DUP4 PUSH2 0x313 SWAP2 SWAP1 PUSH2 0x54B JUMP JUMPDEST SWAP1 POP SWAP3 SWAP2 POP POP JUMP JUMPDEST PUSH1 0x0 DUP2 DUP4 PUSH2 0x329 SWAP2 SWAP1 PUSH2 0x5A5 JUMP JUMPDEST SWAP1 POP SWAP3 SWAP2 POP POP JUMP JUMPDEST PUSH1 0x0 DUP2 DUP4 PUSH2 0x33F SWAP2 SWAP1 PUSH2 0x5FB JUMP JUMPDEST SWAP1 POP SWAP3 SWAP2 POP POP JUMP JUMPDEST PUSH1 0x0 DUP1 REVERT JUMPDEST PUSH1 0x0 PUSH20 0xFFFFFFFFFFFFFFFFFFFFFFFFFFFFFFFFFFFFFFFF DUP3 AND SWAP1 POP SWAP2 SWAP1 POP JUMP JUMPDEST PUSH1 0x0 PUSH2 0x377 DUP3 PUSH2 0x34C JUMP JUMPDEST SWAP1 POP SWAP2 SWAP1 POP JUMP JUMPDEST PUSH2 0x387 DUP2 PUSH2 0x36C JUMP JUMPDEST DUP2 EQ PUSH2 0x392 JUMPI PUSH1 0x0 DUP1 REVERT JUMPDEST POP JUMP JUMPDEST PUSH1 0x0 DUP2 CALLDATALOAD SWAP1 POP PUSH2 0x3A4 DUP2 PUSH2 0x37E JUMP JUMPDEST SWAP3 SWAP2 POP POP JUMP JUMPDEST PUSH1 0x0 PUSH1 0x20 DUP3 DUP5 SUB SLT ISZERO PUSH2 0x3C0 JUMPI PUSH2 0x3BF PUSH2 0x347 JUMP JUMPDEST JUMPDEST PUSH1 0x0 PUSH2 0x3CE DUP5 DUP3 DUP6 ADD PUSH2 0x395 JUMP JUMPDEST SWAP2 POP POP SWAP3 SWAP2 POP POP JUMP JUMPDEST PUSH1 0x0 DUP2 SWAP1 POP SWAP2 SWAP1 POP JUMP JUMPDEST PUSH2 0x3EA DUP2 PUSH2 0x3D7 JUMP JUMPDEST DUP3 MSTORE POP POP JUMP JUMPDEST PUSH1 0x0 PUSH1 0x20 DUP3 ADD SWAP1 POP PUSH2 0x405 PUSH1 0x0 DUP4 ADD DUP5 PUSH2 0x3E1 JUMP JUMPDEST SWAP3 SWAP2 POP POP JUMP JUMPDEST PUSH2 0x414 DUP2 PUSH2 0x36C JUMP JUMPDEST DUP3 MSTORE POP POP JUMP JUMPDEST PUSH1 0x0 PUSH1 0x40 DUP3 ADD SWAP1 POP PUSH2 0x42F PUSH1 0x0 DUP4 ADD DUP6 PUSH2 0x40B JUMP JUMPDEST PUSH2 0x43C PUSH1 0x20 DUP4 ADD DUP5 PUSH2 0x3E1 JUMP JUMPDEST SWAP4 SWAP3 POP POP POP JUMP JUMPDEST PUSH1 0x0 DUP2 ISZERO ISZERO SWAP1 POP SWAP2 SWAP1 POP JUMP JUMPDEST PUSH2 0x458 DUP2 PUSH2 0x443 JUMP JUMPDEST DUP2 EQ PUSH2 0x463 JUMPI PUSH1 0x0 DUP1 REVERT JUMPDEST POP JUMP JUMPDEST PUSH1 0x0 DUP2 MLOAD SWAP1 POP PUSH2 0x475 DUP2 PUSH2 0x44F JUMP JUMPDEST SWAP3 SWAP2 POP POP JUMP JUMPDEST PUSH1 0x0 PUSH1 0x20 DUP3 DUP5 SUB SLT ISZERO PUSH2 0x491 JUMPI PUSH2 0x490 PUSH2 0x347 JUMP JUMPDEST JUMPDEST PUSH1 0x0 PUSH2 0x49F DUP5 DUP3 DUP6 ADD PUSH2 0x466 JUMP JUMPDEST SWAP2 POP POP SWAP3 SWAP2 POP POP JUMP JUMPDEST PUSH1 0x0 PUSH1 0x20 DUP3 ADD SWAP1 POP PUSH2 0x4BD PUSH1 0x0 DUP4 ADD DUP5 PUSH2 0x40B JUMP JUMPDEST SWAP3 SWAP2 POP POP JUMP JUMPDEST PUSH2 0x4CC DUP2 PUSH2 0x3D7 JUMP JUMPDEST DUP2 EQ PUSH2 0x4D7 JUMPI PUSH1 0x0 DUP1 REVERT JUMPDEST POP JUMP JUMPDEST PUSH1 0x0 DUP2 MLOAD SWAP1 POP PUSH2 0x4E9 DUP2 PUSH2 0x4C3 JUMP JUMPDEST SWAP3 SWAP2 POP POP JUMP JUMPDEST PUSH1 0x0 PUSH1 0x20 DUP3 DUP5 SUB SLT ISZERO PUSH2 0x505 JUMPI PUSH2 0x504 PUSH2 0x347 JUMP JUMPDEST JUMPDEST PUSH1 0x0 PUSH2 0x513 DUP5 DUP3 DUP6 ADD PUSH2 0x4DA JUMP JUMPDEST SWAP2 POP POP SWAP3 SWAP2 POP POP JUMP JUMPDEST PUSH32 0x4E487B7100000000000000000000000000000000000000000000000000000000 PUSH1 0x0 MSTORE PUSH1 0x11 PUSH1 0x4 MSTORE PUSH1 0x24 PUSH1 0x0 REVERT JUMPDEST PUSH1 0x0 PUSH2 0x556 DUP3 PUSH2 0x3D7 JUMP JUMPDEST SWAP2 POP PUSH2 0x561 DUP4 PUSH2 0x3D7 JUMP JUMPDEST SWAP3 POP DUP2 PUSH32 0xFFFFFFFFFFFFFFFFFFFFFFFFFFFFFFFFFFFFFFFFFFFFFFFFFFFFFFFFFFFFFFFF DIV DUP4 GT DUP3 ISZERO ISZERO AND ISZERO PUSH2 0x59A JUMPI PUSH2 0x599 PUSH2 0x51C JUMP JUMPDEST JUMPDEST DUP3 DUP3 MUL SWAP1 POP SWAP3 SWAP2 POP POP JUMP JUMPDEST PUSH1 0x0 PUSH2 0x5B0 DUP3 PUSH2 0x3D7 JUMP JUMPDEST SWAP2 POP PUSH2 0x5BB DUP4 PUSH2 0x3D7 JUMP JUMPDEST SWAP3 POP DUP3 PUSH32 0xFFFFFFFFFFFFFFFFFFFFFFFFFFFFFFFFFFFFFFFFFFFFFFFFFFFFFFFFFFFFFFFF SUB DUP3 GT ISZERO PUSH2 0x5F0 JUMPI PUSH2 0x5EF PUSH2 0x51C JUMP JUMPDEST JUMPDEST DUP3 DUP3 ADD SWAP1 POP SWAP3 SWAP2 POP POP JUMP JUMPDEST PUSH1 0x0 PUSH2 0x606 DUP3 PUSH2 0x3D7 JUMP JUMPDEST SWAP2 POP PUSH2 0x611 DUP4 PUSH2 0x3D7 JUMP JUMPDEST SWAP3 POP DUP3 DUP3 LT ISZERO PUSH2 0x624 JUMPI PUSH2 0x623 PUSH2 0x51C JUMP JUMPDEST JUMPDEST DUP3 DUP3 SUB SWAP1 POP SWAP3 SWAP2 POP POP JUMP INVALID LOG2 PUSH5 0x6970667358 0x22 SLT KECCAK256 PUSH19 0xC71775270270C837D0AFB6ED551E530AE8D642 EXTCODECOPY DUP12 0xA6 0x4A DUP14 PUSH10 0x91A81A7241764736F6C PUSH4 0x4300080D STOP CALLER "
				},
				"gasEstimates": {
					"creation": {
						"codeDepositCost": "327400",
						"executionCost": "71016",
						"totalCost": "398416"
					},
					"external": {
						"MineDcoff()": "infinite",
						"mineStatus(address)": "infinite"
					},
					"internal": {
						"Score(address)": "infinite"
					}
				},
				"methodIdentifiers": {
					"MineDcoff()": "8bed4778",
					"mineStatus(address)": "33a22571"
				}
			},
			"storageLayout": {
				"storage": [
					{
						"astId": 414,
						"contract": "Dcoffer/treasury.sol:treasury",
						"label": "mine",
						"offset": 0,
						"slot": "0",
						"type": "t_contract(IDCF)400"
					},
					{
						"astId": 420,
						"contract": "Dcoffer/treasury.sol:treasury",
						"label": "dcoff",
						"offset": 0,
						"slot": "1",
						"type": "t_contract(IERC20)77"
					},
					{
						"astId": 422,
						"contract": "Dcoffer/treasury.sol:treasury",
						"label": "DcoffperBlock",
						"offset": 0,
						"slot": "2",
						"type": "t_uint256"
					},
					{
						"astId": 426,
						"contract": "Dcoffer/treasury.sol:treasury",
						"label": "ScoreWithdrawn",
						"offset": 0,
						"slot": "3",
						"type": "t_mapping(t_address,t_uint256)"
					}
				],
				"types": {
					"t_address": {
						"encoding": "inplace",
						"label": "address",
						"numberOfBytes": "20"
					},
					"t_contract(IDCF)400": {
						"encoding": "inplace",
						"label": "contract IDCF",
						"numberOfBytes": "20"
					},
					"t_contract(IERC20)77": {
						"encoding": "inplace",
						"label": "contract IERC20",
						"numberOfBytes": "20"
					},
					"t_mapping(t_address,t_uint256)": {
						"encoding": "mapping",
						"key": "t_address",
						"label": "mapping(address => uint256)",
						"numberOfBytes": "32",
						"value": "t_uint256"
					},
					"t_uint256": {
						"encoding": "inplace",
						"label": "uint256",
						"numberOfBytes": "32"
					}
				}
			},
			"userdoc": {
				"kind": "user",
				"methods": {},
				"version": 1
			}
		}
	}
}