{
	"Dcoffer/treasury.sol": {
		"treasury": {
			"abi": [
				{
					"inputs": [],
					"stateMutability": "nonpayable",
					"type": "constructor"
				},
				{
					"inputs": [
						{
							"internalType": "uint256",
							"name": "dcf",
							"type": "uint256"
						}
					],
					"name": "Price",
					"outputs": [
						{
							"internalType": "uint256",
							"name": "",
							"type": "uint256"
						}
					],
					"stateMutability": "view",
					"type": "function"
				},
				{
					"inputs": [
						{
							"internalType": "address",
							"name": "user",
							"type": "address"
						},
						{
							"internalType": "bool",
							"name": "power",
							"type": "bool"
						}
					],
					"name": "setRouter",
					"outputs": [],
					"stateMutability": "nonpayable",
					"type": "function"
				}
			],
			"devdoc": {
				"kind": "dev",
				"methods": {},
				"version": 1
			},
			"evm": {
				"assembly": "    /* \"Dcoffer/treasury.sol\":181:758  contract treasury  {... */\n  mstore(0x40, 0x80)\n    /* \"Dcoffer/treasury.sol\":260:302  0xbE0C856e2981b9f03d7613566DFC6679eEe4708A */\n  0xbe0c856e2981b9f03d7613566dfc6679eee4708a\n    /* \"Dcoffer/treasury.sol\":237:303  IERC20 dcoff =  IERC20(0xbE0C856e2981b9f03d7613566DFC6679eEe4708A) */\n  0x00\n  dup1\n  0x0100\n  exp\n  dup2\n  sload\n  dup2\n  0xffffffffffffffffffffffffffffffffffffffff\n  mul\n  not\n  and\n  swap1\n  dup4\n  0xffffffffffffffffffffffffffffffffffffffff\n  and\n  mul\n  or\n  swap1\n  sstore\n  pop\n    /* \"Dcoffer/treasury.sol\":310:354  constructor(){... */\n  callvalue\n  dup1\n  iszero\n  tag_1\n  jumpi\n  0x00\n  dup1\n  revert\ntag_1:\n  pop\n    /* \"Dcoffer/treasury.sol\":338:348  msg.sender */\n  caller\n    /* \"Dcoffer/treasury.sol\":330:335  owner */\n  0x01\n  0x00\n    /* \"Dcoffer/treasury.sol\":330:348  owner = msg.sender */\n  0x0100\n  exp\n  dup2\n  sload\n  dup2\n  0xffffffffffffffffffffffffffffffffffffffff\n  mul\n  not\n  and\n  swap1\n  dup4\n  0xffffffffffffffffffffffffffffffffffffffff\n  and\n  mul\n  or\n  swap1\n  sstore\n  pop\n    /* \"Dcoffer/treasury.sol\":181:758  contract treasury  {... */\n  dataSize(sub_0)\n  dup1\n  dataOffset(sub_0)\n  0x00\n  codecopy\n  0x00\n  return\nstop\n\nsub_0: assembly {\n        /* \"Dcoffer/treasury.sol\":181:758  contract treasury  {... */\n      mstore(0x40, 0x80)\n      callvalue\n      dup1\n      iszero\n      tag_1\n      jumpi\n      0x00\n      dup1\n      revert\n    tag_1:\n      pop\n      jumpi(tag_2, lt(calldatasize, 0x04))\n      shr(0xe0, calldataload(0x00))\n      dup1\n      0x63f32f63\n      eq\n      tag_3\n      jumpi\n      dup1\n      0xc3c64674\n      eq\n      tag_4\n      jumpi\n    tag_2:\n      0x00\n      dup1\n      revert\n        /* \"Dcoffer/treasury.sol\":672:737  function Price(uint256 dcf )public view returns(uint){... */\n    tag_3:\n      tag_5\n      0x04\n      dup1\n      calldatasize\n      sub\n      dup2\n      add\n      swap1\n      tag_6\n      swap2\n      swap1\n      tag_7\n      jump\t// in\n    tag_6:\n      tag_8\n      jump\t// in\n    tag_5:\n      mload(0x40)\n      tag_9\n      swap2\n      swap1\n      tag_10\n      jump\t// in\n    tag_9:\n      mload(0x40)\n      dup1\n      swap2\n      sub\n      swap1\n      return\n        /* \"Dcoffer/treasury.sol\":564:664  function setRouter(address user, bool power)external onlyOwner{... */\n    tag_4:\n      tag_11\n      0x04\n      dup1\n      calldatasize\n      sub\n      dup2\n      add\n      swap1\n      tag_12\n      swap2\n      swap1\n      tag_13\n      jump\t// in\n    tag_12:\n      tag_14\n      jump\t// in\n    tag_11:\n      stop\n        /* \"Dcoffer/treasury.sol\":672:737  function Price(uint256 dcf )public view returns(uint){... */\n    tag_8:\n        /* \"Dcoffer/treasury.sol\":720:724  uint */\n      0x00\n        /* \"Dcoffer/treasury.sol\":672:737  function Price(uint256 dcf )public view returns(uint){... */\n      swap2\n      swap1\n      pop\n      jump\t// out\n        /* \"Dcoffer/treasury.sol\":564:664  function setRouter(address user, bool power)external onlyOwner{... */\n    tag_14:\n        /* \"Dcoffer/treasury.sol\":477:487  msg.sender */\n      caller\n        /* \"Dcoffer/treasury.sol\":468:487  owner == msg.sender */\n      0xffffffffffffffffffffffffffffffffffffffff\n      and\n        /* \"Dcoffer/treasury.sol\":468:473  owner */\n      0x01\n      0x00\n      swap1\n      sload\n      swap1\n      0x0100\n      exp\n      swap1\n      div\n      0xffffffffffffffffffffffffffffffffffffffff\n      and\n        /* \"Dcoffer/treasury.sol\":468:487  owner == msg.sender */\n      0xffffffffffffffffffffffffffffffffffffffff\n      and\n      eq\n        /* \"Dcoffer/treasury.sol\":460:524  require(owner == msg.sender, \"Ownable: caller is not the owner\") */\n      tag_17\n      jumpi\n      mload(0x40)\n      0x08c379a000000000000000000000000000000000000000000000000000000000\n      dup2\n      mstore\n      0x04\n      add\n      tag_18\n      swap1\n      tag_19\n      jump\t// in\n    tag_18:\n      mload(0x40)\n      dup1\n      swap2\n      sub\n      swap1\n      revert\n    tag_17:\n        /* \"Dcoffer/treasury.sol\":653:658  power */\n      dup1\n        /* \"Dcoffer/treasury.sol\":633:644  RouterAdmin */\n      0x02\n        /* \"Dcoffer/treasury.sol\":633:650  RouterAdmin[user] */\n      0x00\n        /* \"Dcoffer/treasury.sol\":645:649  user */\n      dup5\n        /* \"Dcoffer/treasury.sol\":633:650  RouterAdmin[user] */\n      0xffffffffffffffffffffffffffffffffffffffff\n      and\n      0xffffffffffffffffffffffffffffffffffffffff\n      and\n      dup2\n      mstore\n      0x20\n      add\n      swap1\n      dup2\n      mstore\n      0x20\n      add\n      0x00\n      keccak256\n      0x00\n        /* \"Dcoffer/treasury.sol\":633:658  RouterAdmin[user] = power */\n      0x0100\n      exp\n      dup2\n      sload\n      dup2\n      0xff\n      mul\n      not\n      and\n      swap1\n      dup4\n      iszero\n      iszero\n      mul\n      or\n      swap1\n      sstore\n      pop\n        /* \"Dcoffer/treasury.sol\":564:664  function setRouter(address user, bool power)external onlyOwner{... */\n      pop\n      pop\n      jump\t// out\n        /* \"#utility.yul\":88:205   */\n    tag_22:\n        /* \"#utility.yul\":197:198   */\n      0x00\n        /* \"#utility.yul\":194:195   */\n      dup1\n        /* \"#utility.yul\":187:199   */\n      revert\n        /* \"#utility.yul\":334:411   */\n    tag_24:\n        /* \"#utility.yul\":371:378   */\n      0x00\n        /* \"#utility.yul\":400:405   */\n      dup2\n        /* \"#utility.yul\":389:405   */\n      swap1\n      pop\n        /* \"#utility.yul\":334:411   */\n      swap2\n      swap1\n      pop\n      jump\t// out\n        /* \"#utility.yul\":417:539   */\n    tag_25:\n        /* \"#utility.yul\":490:514   */\n      tag_44\n        /* \"#utility.yul\":508:513   */\n      dup2\n        /* \"#utility.yul\":490:514   */\n      tag_24\n      jump\t// in\n    tag_44:\n        /* \"#utility.yul\":483:488   */\n      dup2\n        /* \"#utility.yul\":480:515   */\n      eq\n        /* \"#utility.yul\":470:533   */\n      tag_45\n      jumpi\n        /* \"#utility.yul\":529:530   */\n      0x00\n        /* \"#utility.yul\":526:527   */\n      dup1\n        /* \"#utility.yul\":519:531   */\n      revert\n        /* \"#utility.yul\":470:533   */\n    tag_45:\n        /* \"#utility.yul\":417:539   */\n      pop\n      jump\t// out\n        /* \"#utility.yul\":545:684   */\n    tag_26:\n        /* \"#utility.yul\":591:596   */\n      0x00\n        /* \"#utility.yul\":629:635   */\n      dup2\n        /* \"#utility.yul\":616:636   */\n      calldataload\n        /* \"#utility.yul\":607:636   */\n      swap1\n      pop\n        /* \"#utility.yul\":645:678   */\n      tag_47\n        /* \"#utility.yul\":672:677   */\n      dup2\n        /* \"#utility.yul\":645:678   */\n      tag_25\n      jump\t// in\n    tag_47:\n        /* \"#utility.yul\":545:684   */\n      swap3\n      swap2\n      pop\n      pop\n      jump\t// out\n        /* \"#utility.yul\":690:1019   */\n    tag_7:\n        /* \"#utility.yul\":749:755   */\n      0x00\n        /* \"#utility.yul\":798:800   */\n      0x20\n        /* \"#utility.yul\":786:795   */\n      dup3\n        /* \"#utility.yul\":777:784   */\n      dup5\n        /* \"#utility.yul\":773:796   */\n      sub\n        /* \"#utility.yul\":769:801   */\n      slt\n        /* \"#utility.yul\":766:885   */\n      iszero\n      tag_49\n      jumpi\n        /* \"#utility.yul\":804:883   */\n      tag_50\n      tag_22\n      jump\t// in\n    tag_50:\n        /* \"#utility.yul\":766:885   */\n    tag_49:\n        /* \"#utility.yul\":924:925   */\n      0x00\n        /* \"#utility.yul\":949:1002   */\n      tag_51\n        /* \"#utility.yul\":994:1001   */\n      dup5\n        /* \"#utility.yul\":985:991   */\n      dup3\n        /* \"#utility.yul\":974:983   */\n      dup6\n        /* \"#utility.yul\":970:992   */\n      add\n        /* \"#utility.yul\":949:1002   */\n      tag_26\n      jump\t// in\n    tag_51:\n        /* \"#utility.yul\":939:1002   */\n      swap2\n      pop\n        /* \"#utility.yul\":895:1012   */\n      pop\n        /* \"#utility.yul\":690:1019   */\n      swap3\n      swap2\n      pop\n      pop\n      jump\t// out\n        /* \"#utility.yul\":1025:1143   */\n    tag_27:\n        /* \"#utility.yul\":1112:1136   */\n      tag_53\n        /* \"#utility.yul\":1130:1135   */\n      dup2\n        /* \"#utility.yul\":1112:1136   */\n      tag_24\n      jump\t// in\n    tag_53:\n        /* \"#utility.yul\":1107:1110   */\n      dup3\n        /* \"#utility.yul\":1100:1137   */\n      mstore\n        /* \"#utility.yul\":1025:1143   */\n      pop\n      pop\n      jump\t// out\n        /* \"#utility.yul\":1149:1371   */\n    tag_10:\n        /* \"#utility.yul\":1242:1246   */\n      0x00\n        /* \"#utility.yul\":1280:1282   */\n      0x20\n        /* \"#utility.yul\":1269:1278   */\n      dup3\n        /* \"#utility.yul\":1265:1283   */\n      add\n        /* \"#utility.yul\":1257:1283   */\n      swap1\n      pop\n        /* \"#utility.yul\":1293:1364   */\n      tag_55\n        /* \"#utility.yul\":1361:1362   */\n      0x00\n        /* \"#utility.yul\":1350:1359   */\n      dup4\n        /* \"#utility.yul\":1346:1363   */\n      add\n        /* \"#utility.yul\":1337:1343   */\n      dup5\n        /* \"#utility.yul\":1293:1364   */\n      tag_27\n      jump\t// in\n    tag_55:\n        /* \"#utility.yul\":1149:1371   */\n      swap3\n      swap2\n      pop\n      pop\n      jump\t// out\n        /* \"#utility.yul\":1377:1503   */\n    tag_28:\n        /* \"#utility.yul\":1414:1421   */\n      0x00\n        /* \"#utility.yul\":1454:1496   */\n      0xffffffffffffffffffffffffffffffffffffffff\n        /* \"#utility.yul\":1447:1452   */\n      dup3\n        /* \"#utility.yul\":1443:1497   */\n      and\n        /* \"#utility.yul\":1432:1497   */\n      swap1\n      pop\n        /* \"#utility.yul\":1377:1503   */\n      swap2\n      swap1\n      pop\n      jump\t// out\n        /* \"#utility.yul\":1509:1605   */\n    tag_29:\n        /* \"#utility.yul\":1546:1553   */\n      0x00\n        /* \"#utility.yul\":1575:1599   */\n      tag_58\n        /* \"#utility.yul\":1593:1598   */\n      dup3\n        /* \"#utility.yul\":1575:1599   */\n      tag_28\n      jump\t// in\n    tag_58:\n        /* \"#utility.yul\":1564:1599   */\n      swap1\n      pop\n        /* \"#utility.yul\":1509:1605   */\n      swap2\n      swap1\n      pop\n      jump\t// out\n        /* \"#utility.yul\":1611:1733   */\n    tag_30:\n        /* \"#utility.yul\":1684:1708   */\n      tag_60\n        /* \"#utility.yul\":1702:1707   */\n      dup2\n        /* \"#utility.yul\":1684:1708   */\n      tag_29\n      jump\t// in\n    tag_60:\n        /* \"#utility.yul\":1677:1682   */\n      dup2\n        /* \"#utility.yul\":1674:1709   */\n      eq\n        /* \"#utility.yul\":1664:1727   */\n      tag_61\n      jumpi\n        /* \"#utility.yul\":1723:1724   */\n      0x00\n        /* \"#utility.yul\":1720:1721   */\n      dup1\n        /* \"#utility.yul\":1713:1725   */\n      revert\n        /* \"#utility.yul\":1664:1727   */\n    tag_61:\n        /* \"#utility.yul\":1611:1733   */\n      pop\n      jump\t// out\n        /* \"#utility.yul\":1739:1878   */\n    tag_31:\n        /* \"#utility.yul\":1785:1790   */\n      0x00\n        /* \"#utility.yul\":1823:1829   */\n      dup2\n        /* \"#utility.yul\":1810:1830   */\n      calldataload\n        /* \"#utility.yul\":1801:1830   */\n      swap1\n      pop\n        /* \"#utility.yul\":1839:1872   */\n      tag_63\n        /* \"#utility.yul\":1866:1871   */\n      dup2\n        /* \"#utility.yul\":1839:1872   */\n      tag_30\n      jump\t// in\n    tag_63:\n        /* \"#utility.yul\":1739:1878   */\n      swap3\n      swap2\n      pop\n      pop\n      jump\t// out\n        /* \"#utility.yul\":1884:1974   */\n    tag_32:\n        /* \"#utility.yul\":1918:1925   */\n      0x00\n        /* \"#utility.yul\":1961:1966   */\n      dup2\n        /* \"#utility.yul\":1954:1967   */\n      iszero\n        /* \"#utility.yul\":1947:1968   */\n      iszero\n        /* \"#utility.yul\":1936:1968   */\n      swap1\n      pop\n        /* \"#utility.yul\":1884:1974   */\n      swap2\n      swap1\n      pop\n      jump\t// out\n        /* \"#utility.yul\":1980:2096   */\n    tag_33:\n        /* \"#utility.yul\":2050:2071   */\n      tag_66\n        /* \"#utility.yul\":2065:2070   */\n      dup2\n        /* \"#utility.yul\":2050:2071   */\n      tag_32\n      jump\t// in\n    tag_66:\n        /* \"#utility.yul\":2043:2048   */\n      dup2\n        /* \"#utility.yul\":2040:2072   */\n      eq\n        /* \"#utility.yul\":2030:2090   */\n      tag_67\n      jumpi\n        /* \"#utility.yul\":2086:2087   */\n      0x00\n        /* \"#utility.yul\":2083:2084   */\n      dup1\n        /* \"#utility.yul\":2076:2088   */\n      revert\n        /* \"#utility.yul\":2030:2090   */\n    tag_67:\n        /* \"#utility.yul\":1980:2096   */\n      pop\n      jump\t// out\n        /* \"#utility.yul\":2102:2235   */\n    tag_34:\n        /* \"#utility.yul\":2145:2150   */\n      0x00\n        /* \"#utility.yul\":2183:2189   */\n      dup2\n        /* \"#utility.yul\":2170:2190   */\n      calldataload\n        /* \"#utility.yul\":2161:2190   */\n      swap1\n      pop\n        /* \"#utility.yul\":2199:2229   */\n      tag_69\n        /* \"#utility.yul\":2223:2228   */\n      dup2\n        /* \"#utility.yul\":2199:2229   */\n      tag_33\n      jump\t// in\n    tag_69:\n        /* \"#utility.yul\":2102:2235   */\n      swap3\n      swap2\n      pop\n      pop\n      jump\t// out\n        /* \"#utility.yul\":2241:2709   */\n    tag_13:\n        /* \"#utility.yul\":2306:2312   */\n      0x00\n        /* \"#utility.yul\":2314:2320   */\n      dup1\n        /* \"#utility.yul\":2363:2365   */\n      0x40\n        /* \"#utility.yul\":2351:2360   */\n      dup4\n        /* \"#utility.yul\":2342:2349   */\n      dup6\n        /* \"#utility.yul\":2338:2361   */\n      sub\n        /* \"#utility.yul\":2334:2366   */\n      slt\n        /* \"#utility.yul\":2331:2450   */\n      iszero\n      tag_71\n      jumpi\n        /* \"#utility.yul\":2369:2448   */\n      tag_72\n      tag_22\n      jump\t// in\n    tag_72:\n        /* \"#utility.yul\":2331:2450   */\n    tag_71:\n        /* \"#utility.yul\":2489:2490   */\n      0x00\n        /* \"#utility.yul\":2514:2567   */\n      tag_73\n        /* \"#utility.yul\":2559:2566   */\n      dup6\n        /* \"#utility.yul\":2550:2556   */\n      dup3\n        /* \"#utility.yul\":2539:2548   */\n      dup7\n        /* \"#utility.yul\":2535:2557   */\n      add\n        /* \"#utility.yul\":2514:2567   */\n      tag_31\n      jump\t// in\n    tag_73:\n        /* \"#utility.yul\":2504:2567   */\n      swap3\n      pop\n        /* \"#utility.yul\":2460:2577   */\n      pop\n        /* \"#utility.yul\":2616:2618   */\n      0x20\n        /* \"#utility.yul\":2642:2692   */\n      tag_74\n        /* \"#utility.yul\":2684:2691   */\n      dup6\n        /* \"#utility.yul\":2675:2681   */\n      dup3\n        /* \"#utility.yul\":2664:2673   */\n      dup7\n        /* \"#utility.yul\":2660:2682   */\n      add\n        /* \"#utility.yul\":2642:2692   */\n      tag_34\n      jump\t// in\n    tag_74:\n        /* \"#utility.yul\":2632:2692   */\n      swap2\n      pop\n        /* \"#utility.yul\":2587:2702   */\n      pop\n        /* \"#utility.yul\":2241:2709   */\n      swap3\n      pop\n      swap3\n      swap1\n      pop\n      jump\t// out\n        /* \"#utility.yul\":2715:2884   */\n    tag_35:\n        /* \"#utility.yul\":2799:2810   */\n      0x00\n        /* \"#utility.yul\":2833:2839   */\n      dup3\n        /* \"#utility.yul\":2828:2831   */\n      dup3\n        /* \"#utility.yul\":2821:2840   */\n      mstore\n        /* \"#utility.yul\":2873:2877   */\n      0x20\n        /* \"#utility.yul\":2868:2871   */\n      dup3\n        /* \"#utility.yul\":2864:2878   */\n      add\n        /* \"#utility.yul\":2849:2878   */\n      swap1\n      pop\n        /* \"#utility.yul\":2715:2884   */\n      swap3\n      swap2\n      pop\n      pop\n      jump\t// out\n        /* \"#utility.yul\":2890:3072   */\n    tag_36:\n        /* \"#utility.yul\":3030:3064   */\n      0x4f776e61626c653a2063616c6c6572206973206e6f7420746865206f776e6572\n        /* \"#utility.yul\":3026:3027   */\n      0x00\n        /* \"#utility.yul\":3018:3024   */\n      dup3\n        /* \"#utility.yul\":3014:3028   */\n      add\n        /* \"#utility.yul\":3007:3065   */\n      mstore\n        /* \"#utility.yul\":2890:3072   */\n      pop\n      jump\t// out\n        /* \"#utility.yul\":3078:3444   */\n    tag_37:\n        /* \"#utility.yul\":3220:3223   */\n      0x00\n        /* \"#utility.yul\":3241:3308   */\n      tag_78\n        /* \"#utility.yul\":3305:3307   */\n      0x20\n        /* \"#utility.yul\":3300:3303   */\n      dup4\n        /* \"#utility.yul\":3241:3308   */\n      tag_35\n      jump\t// in\n    tag_78:\n        /* \"#utility.yul\":3234:3308   */\n      swap2\n      pop\n        /* \"#utility.yul\":3317:3410   */\n      tag_79\n        /* \"#utility.yul\":3406:3409   */\n      dup3\n        /* \"#utility.yul\":3317:3410   */\n      tag_36\n      jump\t// in\n    tag_79:\n        /* \"#utility.yul\":3435:3437   */\n      0x20\n        /* \"#utility.yul\":3430:3433   */\n      dup3\n        /* \"#utility.yul\":3426:3438   */\n      add\n        /* \"#utility.yul\":3419:3438   */\n      swap1\n      pop\n        /* \"#utility.yul\":3078:3444   */\n      swap2\n      swap1\n      pop\n      jump\t// out\n        /* \"#utility.yul\":3450:3869   */\n    tag_19:\n        /* \"#utility.yul\":3616:3620   */\n      0x00\n        /* \"#utility.yul\":3654:3656   */\n      0x20\n        /* \"#utility.yul\":3643:3652   */\n      dup3\n        /* \"#utility.yul\":3639:3657   */\n      add\n        /* \"#utility.yul\":3631:3657   */\n      swap1\n      pop\n        /* \"#utility.yul\":3703:3712   */\n      dup2\n        /* \"#utility.yul\":3697:3701   */\n      dup2\n        /* \"#utility.yul\":3693:3713   */\n      sub\n        /* \"#utility.yul\":3689:3690   */\n      0x00\n        /* \"#utility.yul\":3678:3687   */\n      dup4\n        /* \"#utility.yul\":3674:3691   */\n      add\n        /* \"#utility.yul\":3667:3714   */\n      mstore\n        /* \"#utility.yul\":3731:3862   */\n      tag_81\n        /* \"#utility.yul\":3857:3861   */\n      dup2\n        /* \"#utility.yul\":3731:3862   */\n      tag_37\n      jump\t// in\n    tag_81:\n        /* \"#utility.yul\":3723:3862   */\n      swap1\n      pop\n        /* \"#utility.yul\":3450:3869   */\n      swap2\n      swap1\n      pop\n      jump\t// out\n\n    auxdata: 0xa2646970667358221220aad142e5801135acf3d48b66403e7d464ce2895ff4ab26fbc718e7b36217398d64736f6c634300080e0033\n}\n",
				"bytecode": {
					"linkReferences": {},
					"object": "608060405273be0c856e2981b9f03d7613566dfc6679eee4708a6000806101000a81548173ffffffffffffffffffffffffffffffffffffffff021916908373ffffffffffffffffffffffffffffffffffffffff16021790555034801561006457600080fd5b5033600160006101000a81548173ffffffffffffffffffffffffffffffffffffffff021916908373ffffffffffffffffffffffffffffffffffffffff160217905550610394806100b56000396000f3fe608060405234801561001057600080fd5b50600436106100365760003560e01c806363f32f631461003b578063c3c646741461006b575b600080fd5b610055600480360381019061005091906101b4565b610087565b60405161006291906101f0565b60405180910390f35b610085600480360381019061008091906102a1565b61008e565b005b6000919050565b3373ffffffffffffffffffffffffffffffffffffffff16600160009054906101000a900473ffffffffffffffffffffffffffffffffffffffff1673ffffffffffffffffffffffffffffffffffffffff161461011e576040517f08c379a00000000000000000000000000000000000000000000000000000000081526004016101159061033e565b60405180910390fd5b80600260008473ffffffffffffffffffffffffffffffffffffffff1673ffffffffffffffffffffffffffffffffffffffff16815260200190815260200160002060006101000a81548160ff0219169083151502179055505050565b600080fd5b6000819050919050565b6101918161017e565b811461019c57600080fd5b50565b6000813590506101ae81610188565b92915050565b6000602082840312156101ca576101c9610179565b5b60006101d88482850161019f565b91505092915050565b6101ea8161017e565b82525050565b600060208201905061020560008301846101e1565b92915050565b600073ffffffffffffffffffffffffffffffffffffffff82169050919050565b60006102368261020b565b9050919050565b6102468161022b565b811461025157600080fd5b50565b6000813590506102638161023d565b92915050565b60008115159050919050565b61027e81610269565b811461028957600080fd5b50565b60008135905061029b81610275565b92915050565b600080604083850312156102b8576102b7610179565b5b60006102c685828601610254565b92505060206102d78582860161028c565b9150509250929050565b600082825260208201905092915050565b7f4f776e61626c653a2063616c6c6572206973206e6f7420746865206f776e6572600082015250565b60006103286020836102e1565b9150610333826102f2565b602082019050919050565b600060208201905081810360008301526103578161031b565b905091905056fea2646970667358221220aad142e5801135acf3d48b66403e7d464ce2895ff4ab26fbc718e7b36217398d64736f6c634300080e0033",
					"opcodes": "PUSH1 0x80 PUSH1 0x40 MSTORE PUSH20 0xBE0C856E2981B9F03D7613566DFC6679EEE4708A PUSH1 0x0 DUP1 PUSH2 0x100 EXP DUP2 SLOAD DUP2 PUSH20 0xFFFFFFFFFFFFFFFFFFFFFFFFFFFFFFFFFFFFFFFF MUL NOT AND SWAP1 DUP4 PUSH20 0xFFFFFFFFFFFFFFFFFFFFFFFFFFFFFFFFFFFFFFFF AND MUL OR SWAP1 SSTORE POP CALLVALUE DUP1 ISZERO PUSH2 0x64 JUMPI PUSH1 0x0 DUP1 REVERT JUMPDEST POP CALLER PUSH1 0x1 PUSH1 0x0 PUSH2 0x100 EXP DUP2 SLOAD DUP2 PUSH20 0xFFFFFFFFFFFFFFFFFFFFFFFFFFFFFFFFFFFFFFFF MUL NOT AND SWAP1 DUP4 PUSH20 0xFFFFFFFFFFFFFFFFFFFFFFFFFFFFFFFFFFFFFFFF AND MUL OR SWAP1 SSTORE POP PUSH2 0x394 DUP1 PUSH2 0xB5 PUSH1 0x0 CODECOPY PUSH1 0x0 RETURN INVALID PUSH1 0x80 PUSH1 0x40 MSTORE CALLVALUE DUP1 ISZERO PUSH2 0x10 JUMPI PUSH1 0x0 DUP1 REVERT JUMPDEST POP PUSH1 0x4 CALLDATASIZE LT PUSH2 0x36 JUMPI PUSH1 0x0 CALLDATALOAD PUSH1 0xE0 SHR DUP1 PUSH4 0x63F32F63 EQ PUSH2 0x3B JUMPI DUP1 PUSH4 0xC3C64674 EQ PUSH2 0x6B JUMPI JUMPDEST PUSH1 0x0 DUP1 REVERT JUMPDEST PUSH2 0x55 PUSH1 0x4 DUP1 CALLDATASIZE SUB DUP2 ADD SWAP1 PUSH2 0x50 SWAP2 SWAP1 PUSH2 0x1B4 JUMP JUMPDEST PUSH2 0x87 JUMP JUMPDEST PUSH1 0x40 MLOAD PUSH2 0x62 SWAP2 SWAP1 PUSH2 0x1F0 JUMP JUMPDEST PUSH1 0x40 MLOAD DUP1 SWAP2 SUB SWAP1 RETURN JUMPDEST PUSH2 0x85 PUSH1 0x4 DUP1 CALLDATASIZE SUB DUP2 ADD SWAP1 PUSH2 0x80 SWAP2 SWAP1 PUSH2 0x2A1 JUMP JUMPDEST PUSH2 0x8E JUMP JUMPDEST STOP JUMPDEST PUSH1 0x0 SWAP2 SWAP1 POP JUMP JUMPDEST CALLER PUSH20 0xFFFFFFFFFFFFFFFFFFFFFFFFFFFFFFFFFFFFFFFF AND PUSH1 0x1 PUSH1 0x0 SWAP1 SLOAD SWAP1 PUSH2 0x100 EXP SWAP1 DIV PUSH20 0xFFFFFFFFFFFFFFFFFFFFFFFFFFFFFFFFFFFFFFFF AND PUSH20 0xFFFFFFFFFFFFFFFFFFFFFFFFFFFFFFFFFFFFFFFF AND EQ PUSH2 0x11E JUMPI PUSH1 0x40 MLOAD PUSH32 0x8C379A000000000000000000000000000000000000000000000000000000000 DUP2 MSTORE PUSH1 0x4 ADD PUSH2 0x115 SWAP1 PUSH2 0x33E JUMP JUMPDEST PUSH1 0x40 MLOAD DUP1 SWAP2 SUB SWAP1 REVERT JUMPDEST DUP1 PUSH1 0x2 PUSH1 0x0 DUP5 PUSH20 0xFFFFFFFFFFFFFFFFFFFFFFFFFFFFFFFFFFFFFFFF AND PUSH20 0xFFFFFFFFFFFFFFFFFFFFFFFFFFFFFFFFFFFFFFFF AND DUP2 MSTORE PUSH1 0x20 ADD SWAP1 DUP2 MSTORE PUSH1 0x20 ADD PUSH1 0x0 KECCAK256 PUSH1 0x0 PUSH2 0x100 EXP DUP2 SLOAD DUP2 PUSH1 0xFF MUL NOT AND SWAP1 DUP4 ISZERO ISZERO MUL OR SWAP1 SSTORE POP POP POP JUMP JUMPDEST PUSH1 0x0 DUP1 REVERT JUMPDEST PUSH1 0x0 DUP2 SWAP1 POP SWAP2 SWAP1 POP JUMP JUMPDEST PUSH2 0x191 DUP2 PUSH2 0x17E JUMP JUMPDEST DUP2 EQ PUSH2 0x19C JUMPI PUSH1 0x0 DUP1 REVERT JUMPDEST POP JUMP JUMPDEST PUSH1 0x0 DUP2 CALLDATALOAD SWAP1 POP PUSH2 0x1AE DUP2 PUSH2 0x188 JUMP JUMPDEST SWAP3 SWAP2 POP POP JUMP JUMPDEST PUSH1 0x0 PUSH1 0x20 DUP3 DUP5 SUB SLT ISZERO PUSH2 0x1CA JUMPI PUSH2 0x1C9 PUSH2 0x179 JUMP JUMPDEST JUMPDEST PUSH1 0x0 PUSH2 0x1D8 DUP5 DUP3 DUP6 ADD PUSH2 0x19F JUMP JUMPDEST SWAP2 POP POP SWAP3 SWAP2 POP POP JUMP JUMPDEST PUSH2 0x1EA DUP2 PUSH2 0x17E JUMP JUMPDEST DUP3 MSTORE POP POP JUMP JUMPDEST PUSH1 0x0 PUSH1 0x20 DUP3 ADD SWAP1 POP PUSH2 0x205 PUSH1 0x0 DUP4 ADD DUP5 PUSH2 0x1E1 JUMP JUMPDEST SWAP3 SWAP2 POP POP JUMP JUMPDEST PUSH1 0x0 PUSH20 0xFFFFFFFFFFFFFFFFFFFFFFFFFFFFFFFFFFFFFFFF DUP3 AND SWAP1 POP SWAP2 SWAP1 POP JUMP JUMPDEST PUSH1 0x0 PUSH2 0x236 DUP3 PUSH2 0x20B JUMP JUMPDEST SWAP1 POP SWAP2 SWAP1 POP JUMP JUMPDEST PUSH2 0x246 DUP2 PUSH2 0x22B JUMP JUMPDEST DUP2 EQ PUSH2 0x251 JUMPI PUSH1 0x0 DUP1 REVERT JUMPDEST POP JUMP JUMPDEST PUSH1 0x0 DUP2 CALLDATALOAD SWAP1 POP PUSH2 0x263 DUP2 PUSH2 0x23D JUMP JUMPDEST SWAP3 SWAP2 POP POP JUMP JUMPDEST PUSH1 0x0 DUP2 ISZERO ISZERO SWAP1 POP SWAP2 SWAP1 POP JUMP JUMPDEST PUSH2 0x27E DUP2 PUSH2 0x269 JUMP JUMPDEST DUP2 EQ PUSH2 0x289 JUMPI PUSH1 0x0 DUP1 REVERT JUMPDEST POP JUMP JUMPDEST PUSH1 0x0 DUP2 CALLDATALOAD SWAP1 POP PUSH2 0x29B DUP2 PUSH2 0x275 JUMP JUMPDEST SWAP3 SWAP2 POP POP JUMP JUMPDEST PUSH1 0x0 DUP1 PUSH1 0x40 DUP4 DUP6 SUB SLT ISZERO PUSH2 0x2B8 JUMPI PUSH2 0x2B7 PUSH2 0x179 JUMP JUMPDEST JUMPDEST PUSH1 0x0 PUSH2 0x2C6 DUP6 DUP3 DUP7 ADD PUSH2 0x254 JUMP JUMPDEST SWAP3 POP POP PUSH1 0x20 PUSH2 0x2D7 DUP6 DUP3 DUP7 ADD PUSH2 0x28C JUMP JUMPDEST SWAP2 POP POP SWAP3 POP SWAP3 SWAP1 POP JUMP JUMPDEST PUSH1 0x0 DUP3 DUP3 MSTORE PUSH1 0x20 DUP3 ADD SWAP1 POP SWAP3 SWAP2 POP POP JUMP JUMPDEST PUSH32 0x4F776E61626C653A2063616C6C6572206973206E6F7420746865206F776E6572 PUSH1 0x0 DUP3 ADD MSTORE POP JUMP JUMPDEST PUSH1 0x0 PUSH2 0x328 PUSH1 0x20 DUP4 PUSH2 0x2E1 JUMP JUMPDEST SWAP2 POP PUSH2 0x333 DUP3 PUSH2 0x2F2 JUMP JUMPDEST PUSH1 0x20 DUP3 ADD SWAP1 POP SWAP2 SWAP1 POP JUMP JUMPDEST PUSH1 0x0 PUSH1 0x20 DUP3 ADD SWAP1 POP DUP2 DUP2 SUB PUSH1 0x0 DUP4 ADD MSTORE PUSH2 0x357 DUP2 PUSH2 0x31B JUMP JUMPDEST SWAP1 POP SWAP2 SWAP1 POP JUMP INVALID LOG2 PUSH5 0x6970667358 0x22 SLT KECCAK256 0xAA 0xD1 TIMESTAMP 0xE5 DUP1 GT CALLDATALOAD 0xAC RETURN 0xD4 DUP12 PUSH7 0x403E7D464CE289 0x5F DELEGATECALL 0xAB 0x26 0xFB 0xC7 XOR 0xE7 0xB3 PUSH3 0x17398D PUSH5 0x736F6C6343 STOP ADDMOD 0xE STOP CALLER "
				},
				"gasEstimates": {
					"creation": {
						"codeDepositCost": "183200",
						"executionCost": "48759",
						"totalCost": "231959"
					},
					"external": {
						"Price(uint256)": "infinite",
						"setRouter(address,bool)": "27161"
					}
				},
				"methodIdentifiers": {
					"Price(uint256)": "63f32f63",
					"setRouter(address,bool)": "c3c64674"
				}
			},
			"storageLayout": {
				"storage": [
					{
						"astId": 402,
						"contract": "Dcoffer/treasury.sol:treasury",
						"label": "dcoff",
						"offset": 0,
						"slot": "0",
						"type": "t_contract(IERC20)77"
					},
					{
						"astId": 413,
						"contract": "Dcoffer/treasury.sol:treasury",
						"label": "owner",
						"offset": 0,
						"slot": "1",
						"type": "t_address"
					},
					{
						"astId": 417,
						"contract": "Dcoffer/treasury.sol:treasury",
						"label": "RouterAdmin",
						"offset": 0,
						"slot": "2",
						"type": "t_mapping(t_address,t_bool)"
					}
				],
				"types": {
					"t_address": {
						"encoding": "inplace",
						"label": "address",
						"numberOfBytes": "20"
					},
					"t_bool": {
						"encoding": "inplace",
						"label": "bool",
						"numberOfBytes": "1"
					},
					"t_contract(IERC20)77": {
						"encoding": "inplace",
						"label": "contract IERC20",
						"numberOfBytes": "20"
					},
					"t_mapping(t_address,t_bool)": {
						"encoding": "mapping",
						"key": "t_address",
						"label": "mapping(address => bool)",
						"numberOfBytes": "32",
						"value": "t_bool"
					}
				}
			},
			"userdoc": {
				"kind": "user",
				"methods": {},
				"version": 1
			}
		}
	}
}