{
	"test/event_test.sol": {
		"Dcoffer": {
			"abi": [
				{
					"inputs": [],
					"stateMutability": "nonpayable",
					"type": "constructor"
				},
				{
					"anonymous": false,
					"inputs": [
						{
							"indexed": false,
							"internalType": "uint256",
							"name": "time",
							"type": "uint256"
						},
						{
							"indexed": false,
							"internalType": "uint256",
							"name": "price",
							"type": "uint256"
						}
					],
					"name": "_price",
					"type": "event"
				},
				{
					"inputs": [],
					"name": "get_price",
					"outputs": [],
					"stateMutability": "payable",
					"type": "function"
				},
				{
					"inputs": [],
					"name": "mytoken",
					"outputs": [
						{
							"internalType": "uint256",
							"name": "",
							"type": "uint256"
						}
					],
					"stateMutability": "view",
					"type": "function"
				},
				{
					"inputs": [],
					"name": "token_amount",
					"outputs": [
						{
							"internalType": "uint256",
							"name": "",
							"type": "uint256"
						}
					],
					"stateMutability": "view",
					"type": "function"
				},
				{
					"inputs": [],
					"name": "view_price",
					"outputs": [
						{
							"internalType": "uint256",
							"name": "",
							"type": "uint256"
						}
					],
					"stateMutability": "view",
					"type": "function"
				}
			],
			"devdoc": {
				"custom:security-contact": "to101380@gmail.com",
				"kind": "dev",
				"methods": {},
				"version": 1
			},
			"evm": {
				"assembly": "    /* \"test/event_test.sol\":115:709  contract Dcoffer  {... */\n  mstore(0x40, 0x80)\n    /* \"test/event_test.sol\":255:347  constructor(){        ... */\n  callvalue\n  dup1\n  iszero\n  tag_1\n  jumpi\n  0x00\n  dup1\n  revert\ntag_1:\n  pop\n    /* \"test/event_test.sol\":297:305  10000e18 */\n  0x021e19e0c9bab2400000\n    /* \"test/event_test.sol\":287:294  mytoken */\n  0x01\n    /* \"test/event_test.sol\":287:305  mytoken = 10000e18 */\n  dup2\n  swap1\n  sstore\n  pop\n    /* \"test/event_test.sol\":331:339  10000e18 */\n  0x021e19e0c9bab2400000\n    /* \"test/event_test.sol\":316:328  token_amount */\n  0x00\n    /* \"test/event_test.sol\":316:339  token_amount = 10000e18 */\n  dup2\n  swap1\n  sstore\n  pop\n    /* \"test/event_test.sol\":115:709  contract Dcoffer  {... */\n  dataSize(sub_0)\n  dup1\n  dataOffset(sub_0)\n  0x00\n  codecopy\n  0x00\n  return\nstop\n\nsub_0: assembly {\n        /* \"test/event_test.sol\":115:709  contract Dcoffer  {... */\n      mstore(0x40, 0x80)\n      jumpi(tag_1, lt(calldatasize, 0x04))\n      shr(0xe0, calldataload(0x00))\n      dup1\n      0x11f37ceb\n      eq\n      tag_2\n      jumpi\n      dup1\n      0x54f6c0db\n      eq\n      tag_3\n      jumpi\n      dup1\n      0x5eab74fc\n      eq\n      tag_4\n      jumpi\n      dup1\n      0xe3c20cb1\n      eq\n      tag_5\n      jumpi\n    tag_1:\n      0x00\n      dup1\n      revert\n        /* \"test/event_test.sol\":357:497  function get_price()public payable{        ... */\n    tag_2:\n      tag_6\n      tag_7\n      jump\t// in\n    tag_6:\n      stop\n        /* \"test/event_test.sol\":151:175  uint public token_amount */\n    tag_3:\n      callvalue\n      dup1\n      iszero\n      tag_8\n      jumpi\n      0x00\n      dup1\n      revert\n    tag_8:\n      pop\n      tag_9\n      tag_10\n      jump\t// in\n    tag_9:\n      mload(0x40)\n      tag_11\n      swap2\n      swap1\n      tag_12\n      jump\t// in\n    tag_11:\n      mload(0x40)\n      dup1\n      swap2\n      sub\n      swap1\n      return\n        /* \"test/event_test.sol\":182:201  uint public mytoken */\n    tag_4:\n      callvalue\n      dup1\n      iszero\n      tag_13\n      jumpi\n      0x00\n      dup1\n      revert\n    tag_13:\n      pop\n      tag_14\n      tag_15\n      jump\t// in\n    tag_14:\n      mload(0x40)\n      tag_16\n      swap2\n      swap1\n      tag_12\n      jump\t// in\n    tag_16:\n      mload(0x40)\n      dup1\n      swap2\n      sub\n      swap1\n      return\n        /* \"test/event_test.sol\":505:690  function view_price()public view returns(uint){... */\n    tag_5:\n      callvalue\n      dup1\n      iszero\n      tag_17\n      jumpi\n      0x00\n      dup1\n      revert\n    tag_17:\n      pop\n      tag_18\n      tag_19\n      jump\t// in\n    tag_18:\n      mload(0x40)\n      tag_20\n      swap2\n      swap1\n      tag_12\n      jump\t// in\n    tag_20:\n      mload(0x40)\n      dup1\n      swap2\n      sub\n      swap1\n      return\n        /* \"test/event_test.sol\":357:497  function get_price()public payable{        ... */\n    tag_7:\n        /* \"test/event_test.sol\":410:420  uint price */\n      0x00\n        /* \"test/event_test.sol\":423:435  view_price() */\n      tag_22\n        /* \"test/event_test.sol\":423:433  view_price */\n      tag_19\n        /* \"test/event_test.sol\":423:435  view_price() */\n      jump\t// in\n    tag_22:\n        /* \"test/event_test.sol\":410:435  uint price = view_price() */\n      swap1\n      pop\n        /* \"test/event_test.sol\":451:480  _price(block.timestamp,price) */\n      0x2ccf988d21fab5e74707698f94e02c7027c3d202c78866d5c95a47f25e00dc57\n        /* \"test/event_test.sol\":458:473  block.timestamp */\n      timestamp\n        /* \"test/event_test.sol\":474:479  price */\n      dup3\n        /* \"test/event_test.sol\":451:480  _price(block.timestamp,price) */\n      mload(0x40)\n      tag_23\n      swap3\n      swap2\n      swap1\n      tag_24\n      jump\t// in\n    tag_23:\n      mload(0x40)\n      dup1\n      swap2\n      sub\n      swap1\n      log1\n        /* \"test/event_test.sol\":391:497  {        ... */\n      pop\n        /* \"test/event_test.sol\":357:497  function get_price()public payable{        ... */\n      jump\t// out\n        /* \"test/event_test.sol\":151:175  uint public token_amount */\n    tag_10:\n      sload(0x00)\n      dup2\n      jump\t// out\n        /* \"test/event_test.sol\":182:201  uint public mytoken */\n    tag_15:\n      sload(0x01)\n      dup2\n      jump\t// out\n        /* \"test/event_test.sol\":505:690  function view_price()public view returns(uint){... */\n    tag_19:\n        /* \"test/event_test.sol\":546:550  uint */\n      0x00\n        /* \"test/event_test.sol\":562:573  uint coffer */\n      dup1\n        /* \"test/event_test.sol\":585:589  this */\n      address\n        /* \"test/event_test.sol\":576:599  (address(this)).balance */\n      0xffffffffffffffffffffffffffffffffffffffff\n      and\n      balance\n        /* \"test/event_test.sol\":562:599  uint coffer = (address(this)).balance */\n      swap1\n      pop\n        /* \"test/event_test.sol\":610:620  uint price */\n      0x00\n        /* \"test/event_test.sol\":641:653  token_amount */\n      dup1\n      sload\n        /* \"test/event_test.sol\":634:640  coffer */\n      dup3\n        /* \"test/event_test.sol\":628:632  1e18 */\n      0x0de0b6b3a7640000\n        /* \"test/event_test.sol\":623:640  uint(1e18)*coffer */\n      tag_26\n      swap2\n      swap1\n      tag_27\n      jump\t// in\n    tag_26:\n        /* \"test/event_test.sol\":623:653  uint(1e18)*coffer/token_amount */\n      tag_28\n      swap2\n      swap1\n      tag_29\n      jump\t// in\n    tag_28:\n        /* \"test/event_test.sol\":610:653  uint price = uint(1e18)*coffer/token_amount */\n      swap1\n      pop\n        /* \"test/event_test.sol\":677:682  price */\n      dup1\n        /* \"test/event_test.sol\":670:682  return price */\n      swap3\n      pop\n      pop\n      pop\n        /* \"test/event_test.sol\":505:690  function view_price()public view returns(uint){... */\n      swap1\n      jump\t// out\n        /* \"#utility.yul\":7:84   */\n    tag_30:\n        /* \"#utility.yul\":44:51   */\n      0x00\n        /* \"#utility.yul\":73:78   */\n      dup2\n        /* \"#utility.yul\":62:78   */\n      swap1\n      pop\n        /* \"#utility.yul\":7:84   */\n      swap2\n      swap1\n      pop\n      jump\t// out\n        /* \"#utility.yul\":90:208   */\n    tag_31:\n        /* \"#utility.yul\":177:201   */\n      tag_37\n        /* \"#utility.yul\":195:200   */\n      dup2\n        /* \"#utility.yul\":177:201   */\n      tag_30\n      jump\t// in\n    tag_37:\n        /* \"#utility.yul\":172:175   */\n      dup3\n        /* \"#utility.yul\":165:202   */\n      mstore\n        /* \"#utility.yul\":90:208   */\n      pop\n      pop\n      jump\t// out\n        /* \"#utility.yul\":214:436   */\n    tag_12:\n        /* \"#utility.yul\":307:311   */\n      0x00\n        /* \"#utility.yul\":345:347   */\n      0x20\n        /* \"#utility.yul\":334:343   */\n      dup3\n        /* \"#utility.yul\":330:348   */\n      add\n        /* \"#utility.yul\":322:348   */\n      swap1\n      pop\n        /* \"#utility.yul\":358:429   */\n      tag_39\n        /* \"#utility.yul\":426:427   */\n      0x00\n        /* \"#utility.yul\":415:424   */\n      dup4\n        /* \"#utility.yul\":411:428   */\n      add\n        /* \"#utility.yul\":402:408   */\n      dup5\n        /* \"#utility.yul\":358:429   */\n      tag_31\n      jump\t// in\n    tag_39:\n        /* \"#utility.yul\":214:436   */\n      swap3\n      swap2\n      pop\n      pop\n      jump\t// out\n        /* \"#utility.yul\":442:774   */\n    tag_24:\n        /* \"#utility.yul\":563:567   */\n      0x00\n        /* \"#utility.yul\":601:603   */\n      0x40\n        /* \"#utility.yul\":590:599   */\n      dup3\n        /* \"#utility.yul\":586:604   */\n      add\n        /* \"#utility.yul\":578:604   */\n      swap1\n      pop\n        /* \"#utility.yul\":614:685   */\n      tag_41\n        /* \"#utility.yul\":682:683   */\n      0x00\n        /* \"#utility.yul\":671:680   */\n      dup4\n        /* \"#utility.yul\":667:684   */\n      add\n        /* \"#utility.yul\":658:664   */\n      dup6\n        /* \"#utility.yul\":614:685   */\n      tag_31\n      jump\t// in\n    tag_41:\n        /* \"#utility.yul\":695:767   */\n      tag_42\n        /* \"#utility.yul\":763:765   */\n      0x20\n        /* \"#utility.yul\":752:761   */\n      dup4\n        /* \"#utility.yul\":748:766   */\n      add\n        /* \"#utility.yul\":739:745   */\n      dup5\n        /* \"#utility.yul\":695:767   */\n      tag_31\n      jump\t// in\n    tag_42:\n        /* \"#utility.yul\":442:774   */\n      swap4\n      swap3\n      pop\n      pop\n      pop\n      jump\t// out\n        /* \"#utility.yul\":780:960   */\n    tag_32:\n        /* \"#utility.yul\":828:905   */\n      0x4e487b7100000000000000000000000000000000000000000000000000000000\n        /* \"#utility.yul\":825:826   */\n      0x00\n        /* \"#utility.yul\":818:906   */\n      mstore\n        /* \"#utility.yul\":925:929   */\n      0x11\n        /* \"#utility.yul\":922:923   */\n      0x04\n        /* \"#utility.yul\":915:930   */\n      mstore\n        /* \"#utility.yul\":949:953   */\n      0x24\n        /* \"#utility.yul\":946:947   */\n      0x00\n        /* \"#utility.yul\":939:954   */\n      revert\n        /* \"#utility.yul\":966:1314   */\n    tag_27:\n        /* \"#utility.yul\":1006:1013   */\n      0x00\n        /* \"#utility.yul\":1029:1049   */\n      tag_45\n        /* \"#utility.yul\":1047:1048   */\n      dup3\n        /* \"#utility.yul\":1029:1049   */\n      tag_30\n      jump\t// in\n    tag_45:\n        /* \"#utility.yul\":1024:1049   */\n      swap2\n      pop\n        /* \"#utility.yul\":1063:1083   */\n      tag_46\n        /* \"#utility.yul\":1081:1082   */\n      dup4\n        /* \"#utility.yul\":1063:1083   */\n      tag_30\n      jump\t// in\n    tag_46:\n        /* \"#utility.yul\":1058:1083   */\n      swap3\n      pop\n        /* \"#utility.yul\":1251:1252   */\n      dup2\n        /* \"#utility.yul\":1183:1249   */\n      0xffffffffffffffffffffffffffffffffffffffffffffffffffffffffffffffff\n        /* \"#utility.yul\":1179:1253   */\n      div\n        /* \"#utility.yul\":1176:1177   */\n      dup4\n        /* \"#utility.yul\":1173:1254   */\n      gt\n        /* \"#utility.yul\":1168:1169   */\n      dup3\n        /* \"#utility.yul\":1161:1170   */\n      iszero\n        /* \"#utility.yul\":1154:1171   */\n      iszero\n        /* \"#utility.yul\":1150:1255   */\n      and\n        /* \"#utility.yul\":1147:1278   */\n      iszero\n      tag_47\n      jumpi\n        /* \"#utility.yul\":1258:1276   */\n      tag_48\n      tag_32\n      jump\t// in\n    tag_48:\n        /* \"#utility.yul\":1147:1278   */\n    tag_47:\n        /* \"#utility.yul\":1306:1307   */\n      dup3\n        /* \"#utility.yul\":1303:1304   */\n      dup3\n        /* \"#utility.yul\":1299:1308   */\n      mul\n        /* \"#utility.yul\":1288:1308   */\n      swap1\n      pop\n        /* \"#utility.yul\":966:1314   */\n      swap3\n      swap2\n      pop\n      pop\n      jump\t// out\n        /* \"#utility.yul\":1320:1500   */\n    tag_33:\n        /* \"#utility.yul\":1368:1445   */\n      0x4e487b7100000000000000000000000000000000000000000000000000000000\n        /* \"#utility.yul\":1365:1366   */\n      0x00\n        /* \"#utility.yul\":1358:1446   */\n      mstore\n        /* \"#utility.yul\":1465:1469   */\n      0x12\n        /* \"#utility.yul\":1462:1463   */\n      0x04\n        /* \"#utility.yul\":1455:1470   */\n      mstore\n        /* \"#utility.yul\":1489:1493   */\n      0x24\n        /* \"#utility.yul\":1486:1487   */\n      0x00\n        /* \"#utility.yul\":1479:1494   */\n      revert\n        /* \"#utility.yul\":1506:1691   */\n    tag_29:\n        /* \"#utility.yul\":1546:1547   */\n      0x00\n        /* \"#utility.yul\":1563:1583   */\n      tag_51\n        /* \"#utility.yul\":1581:1582   */\n      dup3\n        /* \"#utility.yul\":1563:1583   */\n      tag_30\n      jump\t// in\n    tag_51:\n        /* \"#utility.yul\":1558:1583   */\n      swap2\n      pop\n        /* \"#utility.yul\":1597:1617   */\n      tag_52\n        /* \"#utility.yul\":1615:1616   */\n      dup4\n        /* \"#utility.yul\":1597:1617   */\n      tag_30\n      jump\t// in\n    tag_52:\n        /* \"#utility.yul\":1592:1617   */\n      swap3\n      pop\n        /* \"#utility.yul\":1636:1637   */\n      dup3\n        /* \"#utility.yul\":1626:1661   */\n      tag_53\n      jumpi\n        /* \"#utility.yul\":1641:1659   */\n      tag_54\n      tag_33\n      jump\t// in\n    tag_54:\n        /* \"#utility.yul\":1626:1661   */\n    tag_53:\n        /* \"#utility.yul\":1683:1684   */\n      dup3\n        /* \"#utility.yul\":1680:1681   */\n      dup3\n        /* \"#utility.yul\":1676:1685   */\n      div\n        /* \"#utility.yul\":1671:1685   */\n      swap1\n      pop\n        /* \"#utility.yul\":1506:1691   */\n      swap3\n      swap2\n      pop\n      pop\n      jump\t// out\n\n    auxdata: 0xa26469706673582212204276309a17c68df412e0a7e5b7d8f044cdb3c709b27b849c65069f23241afc8264736f6c634300080d0033\n}\n",
				"bytecode": {
					"linkReferences": {},
					"object": "608060405234801561001057600080fd5b5069021e19e0c9bab240000060018190555069021e19e0c9bab24000006000819055506102e8806100426000396000f3fe60806040526004361061003f5760003560e01c806311f37ceb1461004457806354f6c0db1461004e5780635eab74fc14610079578063e3c20cb1146100a4575b600080fd5b61004c6100cf565b005b34801561005a57600080fd5b50610063610117565b6040516100709190610185565b60405180910390f35b34801561008557600080fd5b5061008e61011d565b60405161009b9190610185565b60405180910390f35b3480156100b057600080fd5b506100b9610123565b6040516100c69190610185565b60405180910390f35b60006100d9610123565b90507f2ccf988d21fab5e74707698f94e02c7027c3d202c78866d5c95a47f25e00dc57428260405161010c9291906101a0565b60405180910390a150565b60005481565b60015481565b6000803073ffffffffffffffffffffffffffffffffffffffff163190506000805482670de0b6b3a764000061015891906101f8565b6101629190610281565b9050809250505090565b6000819050919050565b61017f8161016c565b82525050565b600060208201905061019a6000830184610176565b92915050565b60006040820190506101b56000830185610176565b6101c26020830184610176565b9392505050565b7f4e487b7100000000000000000000000000000000000000000000000000000000600052601160045260246000fd5b60006102038261016c565b915061020e8361016c565b9250817fffffffffffffffffffffffffffffffffffffffffffffffffffffffffffffffff0483118215151615610247576102466101c9565b5b828202905092915050565b7f4e487b7100000000000000000000000000000000000000000000000000000000600052601260045260246000fd5b600061028c8261016c565b91506102978361016c565b9250826102a7576102a6610252565b5b82820490509291505056fea26469706673582212204276309a17c68df412e0a7e5b7d8f044cdb3c709b27b849c65069f23241afc8264736f6c634300080d0033",
					"opcodes": "PUSH1 0x80 PUSH1 0x40 MSTORE CALLVALUE DUP1 ISZERO PUSH2 0x10 JUMPI PUSH1 0x0 DUP1 REVERT JUMPDEST POP PUSH10 0x21E19E0C9BAB2400000 PUSH1 0x1 DUP2 SWAP1 SSTORE POP PUSH10 0x21E19E0C9BAB2400000 PUSH1 0x0 DUP2 SWAP1 SSTORE POP PUSH2 0x2E8 DUP1 PUSH2 0x42 PUSH1 0x0 CODECOPY PUSH1 0x0 RETURN INVALID PUSH1 0x80 PUSH1 0x40 MSTORE PUSH1 0x4 CALLDATASIZE LT PUSH2 0x3F JUMPI PUSH1 0x0 CALLDATALOAD PUSH1 0xE0 SHR DUP1 PUSH4 0x11F37CEB EQ PUSH2 0x44 JUMPI DUP1 PUSH4 0x54F6C0DB EQ PUSH2 0x4E JUMPI DUP1 PUSH4 0x5EAB74FC EQ PUSH2 0x79 JUMPI DUP1 PUSH4 0xE3C20CB1 EQ PUSH2 0xA4 JUMPI JUMPDEST PUSH1 0x0 DUP1 REVERT JUMPDEST PUSH2 0x4C PUSH2 0xCF JUMP JUMPDEST STOP JUMPDEST CALLVALUE DUP1 ISZERO PUSH2 0x5A JUMPI PUSH1 0x0 DUP1 REVERT JUMPDEST POP PUSH2 0x63 PUSH2 0x117 JUMP JUMPDEST PUSH1 0x40 MLOAD PUSH2 0x70 SWAP2 SWAP1 PUSH2 0x185 JUMP JUMPDEST PUSH1 0x40 MLOAD DUP1 SWAP2 SUB SWAP1 RETURN JUMPDEST CALLVALUE DUP1 ISZERO PUSH2 0x85 JUMPI PUSH1 0x0 DUP1 REVERT JUMPDEST POP PUSH2 0x8E PUSH2 0x11D JUMP JUMPDEST PUSH1 0x40 MLOAD PUSH2 0x9B SWAP2 SWAP1 PUSH2 0x185 JUMP JUMPDEST PUSH1 0x40 MLOAD DUP1 SWAP2 SUB SWAP1 RETURN JUMPDEST CALLVALUE DUP1 ISZERO PUSH2 0xB0 JUMPI PUSH1 0x0 DUP1 REVERT JUMPDEST POP PUSH2 0xB9 PUSH2 0x123 JUMP JUMPDEST PUSH1 0x40 MLOAD PUSH2 0xC6 SWAP2 SWAP1 PUSH2 0x185 JUMP JUMPDEST PUSH1 0x40 MLOAD DUP1 SWAP2 SUB SWAP1 RETURN JUMPDEST PUSH1 0x0 PUSH2 0xD9 PUSH2 0x123 JUMP JUMPDEST SWAP1 POP PUSH32 0x2CCF988D21FAB5E74707698F94E02C7027C3D202C78866D5C95A47F25E00DC57 TIMESTAMP DUP3 PUSH1 0x40 MLOAD PUSH2 0x10C SWAP3 SWAP2 SWAP1 PUSH2 0x1A0 JUMP JUMPDEST PUSH1 0x40 MLOAD DUP1 SWAP2 SUB SWAP1 LOG1 POP JUMP JUMPDEST PUSH1 0x0 SLOAD DUP2 JUMP JUMPDEST PUSH1 0x1 SLOAD DUP2 JUMP JUMPDEST PUSH1 0x0 DUP1 ADDRESS PUSH20 0xFFFFFFFFFFFFFFFFFFFFFFFFFFFFFFFFFFFFFFFF AND BALANCE SWAP1 POP PUSH1 0x0 DUP1 SLOAD DUP3 PUSH8 0xDE0B6B3A7640000 PUSH2 0x158 SWAP2 SWAP1 PUSH2 0x1F8 JUMP JUMPDEST PUSH2 0x162 SWAP2 SWAP1 PUSH2 0x281 JUMP JUMPDEST SWAP1 POP DUP1 SWAP3 POP POP POP SWAP1 JUMP JUMPDEST PUSH1 0x0 DUP2 SWAP1 POP SWAP2 SWAP1 POP JUMP JUMPDEST PUSH2 0x17F DUP2 PUSH2 0x16C JUMP JUMPDEST DUP3 MSTORE POP POP JUMP JUMPDEST PUSH1 0x0 PUSH1 0x20 DUP3 ADD SWAP1 POP PUSH2 0x19A PUSH1 0x0 DUP4 ADD DUP5 PUSH2 0x176 JUMP JUMPDEST SWAP3 SWAP2 POP POP JUMP JUMPDEST PUSH1 0x0 PUSH1 0x40 DUP3 ADD SWAP1 POP PUSH2 0x1B5 PUSH1 0x0 DUP4 ADD DUP6 PUSH2 0x176 JUMP JUMPDEST PUSH2 0x1C2 PUSH1 0x20 DUP4 ADD DUP5 PUSH2 0x176 JUMP JUMPDEST SWAP4 SWAP3 POP POP POP JUMP JUMPDEST PUSH32 0x4E487B7100000000000000000000000000000000000000000000000000000000 PUSH1 0x0 MSTORE PUSH1 0x11 PUSH1 0x4 MSTORE PUSH1 0x24 PUSH1 0x0 REVERT JUMPDEST PUSH1 0x0 PUSH2 0x203 DUP3 PUSH2 0x16C JUMP JUMPDEST SWAP2 POP PUSH2 0x20E DUP4 PUSH2 0x16C JUMP JUMPDEST SWAP3 POP DUP2 PUSH32 0xFFFFFFFFFFFFFFFFFFFFFFFFFFFFFFFFFFFFFFFFFFFFFFFFFFFFFFFFFFFFFFFF DIV DUP4 GT DUP3 ISZERO ISZERO AND ISZERO PUSH2 0x247 JUMPI PUSH2 0x246 PUSH2 0x1C9 JUMP JUMPDEST JUMPDEST DUP3 DUP3 MUL SWAP1 POP SWAP3 SWAP2 POP POP JUMP JUMPDEST PUSH32 0x4E487B7100000000000000000000000000000000000000000000000000000000 PUSH1 0x0 MSTORE PUSH1 0x12 PUSH1 0x4 MSTORE PUSH1 0x24 PUSH1 0x0 REVERT JUMPDEST PUSH1 0x0 PUSH2 0x28C DUP3 PUSH2 0x16C JUMP JUMPDEST SWAP2 POP PUSH2 0x297 DUP4 PUSH2 0x16C JUMP JUMPDEST SWAP3 POP DUP3 PUSH2 0x2A7 JUMPI PUSH2 0x2A6 PUSH2 0x252 JUMP JUMPDEST JUMPDEST DUP3 DUP3 DIV SWAP1 POP SWAP3 SWAP2 POP POP JUMP INVALID LOG2 PUSH5 0x6970667358 0x22 SLT KECCAK256 TIMESTAMP PUSH23 0x309A17C68DF412E0A7E5B7D8F044CDB3C709B27B849C65 MOD SWAP16 0x23 0x24 BYTE 0xFC DUP3 PUSH5 0x736F6C6343 STOP ADDMOD 0xD STOP CALLER "
				},
				"gasEstimates": {
					"creation": {
						"codeDepositCost": "148800",
						"executionCost": "44424",
						"totalCost": "193224"
					},
					"external": {
						"get_price()": "infinite",
						"mytoken()": "2451",
						"token_amount()": "2429",
						"view_price()": "infinite"
					}
				},
				"methodIdentifiers": {
					"get_price()": "11f37ceb",
					"mytoken()": "5eab74fc",
					"token_amount()": "54f6c0db",
					"view_price()": "e3c20cb1"
				}
			},
			"storageLayout": {
				"storage": [
					{
						"astId": 4,
						"contract": "test/event_test.sol:Dcoffer",
						"label": "token_amount",
						"offset": 0,
						"slot": "0",
						"type": "t_uint256"
					},
					{
						"astId": 6,
						"contract": "test/event_test.sol:Dcoffer",
						"label": "mytoken",
						"offset": 0,
						"slot": "1",
						"type": "t_uint256"
					}
				],
				"types": {
					"t_uint256": {
						"encoding": "inplace",
						"label": "uint256",
						"numberOfBytes": "32"
					}
				}
			},
			"userdoc": {
				"kind": "user",
				"methods": {},
				"version": 1
			}
		}
	}
}