{
	"test/test.sol": {
		"Dcoffer": {
			"abi": [
				{
					"inputs": [
						{
							"internalType": "address",
							"name": "",
							"type": "address"
						}
					],
					"name": "lastblock",
					"outputs": [
						{
							"internalType": "uint256",
							"name": "",
							"type": "uint256"
						}
					],
					"stateMutability": "view",
					"type": "function"
				},
				{
					"inputs": [],
					"name": "mint",
					"outputs": [],
					"stateMutability": "nonpayable",
					"type": "function"
				},
				{
					"inputs": [
						{
							"internalType": "address",
							"name": "",
							"type": "address"
						}
					],
					"name": "myNFT",
					"outputs": [
						{
							"internalType": "uint256",
							"name": "",
							"type": "uint256"
						}
					],
					"stateMutability": "view",
					"type": "function"
				},
				{
					"inputs": [
						{
							"internalType": "address",
							"name": "",
							"type": "address"
						}
					],
					"name": "myblock",
					"outputs": [
						{
							"internalType": "uint256",
							"name": "",
							"type": "uint256"
						}
					],
					"stateMutability": "view",
					"type": "function"
				},
				{
					"inputs": [
						{
							"internalType": "address",
							"name": "user",
							"type": "address"
						}
					],
					"name": "powerSquare",
					"outputs": [
						{
							"internalType": "uint256",
							"name": "",
							"type": "uint256"
						}
					],
					"stateMutability": "view",
					"type": "function"
				},
				{
					"inputs": [],
					"name": "transfer",
					"outputs": [],
					"stateMutability": "nonpayable",
					"type": "function"
				},
				{
					"inputs": [],
					"name": "withdraw",
					"outputs": [],
					"stateMutability": "nonpayable",
					"type": "function"
				}
			],
			"devdoc": {
				"custom:security-contact": "to101380@gmail.com",
				"kind": "dev",
				"methods": {},
				"version": 1
			},
			"evm": {
				"assembly": "    /* \"test/test.sol\":115:1119  contract Dcoffer  {... */\n  mstore(0x40, 0x80)\n  callvalue\n  dup1\n  iszero\n  tag_1\n  jumpi\n  0x00\n  dup1\n  revert\ntag_1:\n  pop\n  dataSize(sub_0)\n  dup1\n  dataOffset(sub_0)\n  0x00\n  codecopy\n  0x00\n  return\nstop\n\nsub_0: assembly {\n        /* \"test/test.sol\":115:1119  contract Dcoffer  {... */\n      mstore(0x40, 0x80)\n      callvalue\n      dup1\n      iszero\n      tag_1\n      jumpi\n      0x00\n      dup1\n      revert\n    tag_1:\n      pop\n      jumpi(tag_2, lt(calldatasize, 0x04))\n      shr(0xe0, calldataload(0x00))\n      dup1\n      0x589cf1d4\n      gt\n      tag_10\n      jumpi\n      dup1\n      0x589cf1d4\n      eq\n      tag_6\n      jumpi\n      dup1\n      0x8a4068dd\n      eq\n      tag_7\n      jumpi\n      dup1\n      0xdae83f08\n      eq\n      tag_8\n      jumpi\n      dup1\n      0xfb2fc0af\n      eq\n      tag_9\n      jumpi\n      jump(tag_2)\n    tag_10:\n      dup1\n      0x1249c58b\n      eq\n      tag_3\n      jumpi\n      dup1\n      0x249bf0d0\n      eq\n      tag_4\n      jumpi\n      dup1\n      0x3ccfd60b\n      eq\n      tag_5\n      jumpi\n    tag_2:\n      0x00\n      dup1\n      revert\n        /* \"test/test.sol\":296:385  function mint()public {        ... */\n    tag_3:\n      tag_11\n      tag_12\n      jump\t// in\n    tag_11:\n      stop\n        /* \"test/test.sol\":153:191  mapping(address => uint)public myblock */\n    tag_4:\n      tag_13\n      0x04\n      dup1\n      calldatasize\n      sub\n      dup2\n      add\n      swap1\n      tag_14\n      swap2\n      swap1\n      tag_15\n      jump\t// in\n    tag_14:\n      tag_16\n      jump\t// in\n    tag_13:\n      mload(0x40)\n      tag_17\n      swap2\n      swap1\n      tag_18\n      jump\t// in\n    tag_17:\n      mload(0x40)\n      dup1\n      swap2\n      sub\n      swap1\n      return\n        /* \"test/test.sol\":970:1106  function withdraw()public {... */\n    tag_5:\n      tag_19\n      tag_20\n      jump\t// in\n    tag_19:\n      stop\n        /* \"test/test.sol\":245:281  mapping(address => uint)public myNFT */\n    tag_6:\n      tag_21\n      0x04\n      dup1\n      calldatasize\n      sub\n      dup2\n      add\n      swap1\n      tag_22\n      swap2\n      swap1\n      tag_15\n      jump\t// in\n    tag_22:\n      tag_23\n      jump\t// in\n    tag_21:\n      mload(0x40)\n      tag_24\n      swap2\n      swap1\n      tag_18\n      jump\t// in\n    tag_24:\n      mload(0x40)\n      dup1\n      swap2\n      sub\n      swap1\n      return\n        /* \"test/test.sol\":395:480  function transfer()public {... */\n    tag_7:\n      tag_25\n      tag_26\n      jump\t// in\n    tag_25:\n      stop\n        /* \"test/test.sol\":198:238  mapping(address => uint)public lastblock */\n    tag_8:\n      tag_27\n      0x04\n      dup1\n      calldatasize\n      sub\n      dup2\n      add\n      swap1\n      tag_28\n      swap2\n      swap1\n      tag_15\n      jump\t// in\n    tag_28:\n      tag_29\n      jump\t// in\n    tag_27:\n      mload(0x40)\n      tag_30\n      swap2\n      swap1\n      tag_18\n      jump\t// in\n    tag_30:\n      mload(0x40)\n      dup1\n      swap2\n      sub\n      swap1\n      return\n        /* \"test/test.sol\":752:960  function powerSquare(address user)public view returns(uint){... */\n    tag_9:\n      tag_31\n      0x04\n      dup1\n      calldatasize\n      sub\n      dup2\n      add\n      swap1\n      tag_32\n      swap2\n      swap1\n      tag_15\n      jump\t// in\n    tag_32:\n      tag_33\n      jump\t// in\n    tag_31:\n      mload(0x40)\n      tag_34\n      swap2\n      swap1\n      tag_18\n      jump\t// in\n    tag_34:\n      mload(0x40)\n      dup1\n      swap2\n      sub\n      swap1\n      return\n        /* \"test/test.sol\":296:385  function mint()public {        ... */\n    tag_12:\n        /* \"test/test.sol\":337:347  setblock() */\n      tag_36\n        /* \"test/test.sol\":337:345  setblock */\n      tag_37\n        /* \"test/test.sol\":337:347  setblock() */\n      jump\t// in\n    tag_36:\n        /* \"test/test.sol\":358:363  myNFT */\n      0x02\n        /* \"test/test.sol\":358:375  myNFT[msg.sender] */\n      0x00\n        /* \"test/test.sol\":364:374  msg.sender */\n      caller\n        /* \"test/test.sol\":358:375  myNFT[msg.sender] */\n      0xffffffffffffffffffffffffffffffffffffffff\n      and\n      0xffffffffffffffffffffffffffffffffffffffff\n      and\n      dup2\n      mstore\n      0x20\n      add\n      swap1\n      dup2\n      mstore\n      0x20\n      add\n      0x00\n      keccak256\n      0x00\n        /* \"test/test.sol\":358:377  myNFT[msg.sender]++ */\n      dup2\n      sload\n      dup1\n      swap3\n      swap2\n      swap1\n      tag_38\n      swap1\n      tag_39\n      jump\t// in\n    tag_38:\n      swap2\n      swap1\n      pop\n      sstore\n      pop\n        /* \"test/test.sol\":296:385  function mint()public {        ... */\n      jump\t// out\n        /* \"test/test.sol\":153:191  mapping(address => uint)public myblock */\n    tag_16:\n      mstore(0x20, 0x00)\n      dup1\n      0x00\n      mstore\n      keccak256(0x00, 0x40)\n      0x00\n      swap2\n      pop\n      swap1\n      pop\n      sload\n      dup2\n      jump\t// out\n        /* \"test/test.sol\":970:1106  function withdraw()public {... */\n    tag_20:\n        /* \"test/test.sol\":1007:1017  setblock() */\n      tag_41\n        /* \"test/test.sol\":1007:1015  setblock */\n      tag_37\n        /* \"test/test.sol\":1007:1017  setblock() */\n      jump\t// in\n    tag_41:\n        /* \"test/test.sol\":1050:1051  0 */\n      0x00\n        /* \"test/test.sol\":1028:1035  myblock */\n      dup1\n        /* \"test/test.sol\":1028:1047  myblock[msg.sender] */\n      0x00\n        /* \"test/test.sol\":1036:1046  msg.sender */\n      caller\n        /* \"test/test.sol\":1028:1047  myblock[msg.sender] */\n      0xffffffffffffffffffffffffffffffffffffffff\n      and\n      0xffffffffffffffffffffffffffffffffffffffff\n      and\n      dup2\n      mstore\n      0x20\n      add\n      swap1\n      dup2\n      mstore\n      0x20\n      add\n      0x00\n      keccak256\n        /* \"test/test.sol\":1028:1051  myblock[msg.sender] = 0 */\n      dup2\n      swap1\n      sstore\n      pop\n        /* \"test/test.sol\":1086:1098  block.number */\n      number\n        /* \"test/test.sol\":1062:1071  lastblock */\n      0x01\n        /* \"test/test.sol\":1062:1083  lastblock[msg.sender] */\n      0x00\n        /* \"test/test.sol\":1072:1082  msg.sender */\n      caller\n        /* \"test/test.sol\":1062:1083  lastblock[msg.sender] */\n      0xffffffffffffffffffffffffffffffffffffffff\n      and\n      0xffffffffffffffffffffffffffffffffffffffff\n      and\n      dup2\n      mstore\n      0x20\n      add\n      swap1\n      dup2\n      mstore\n      0x20\n      add\n      0x00\n      keccak256\n        /* \"test/test.sol\":1062:1098  lastblock[msg.sender] = block.number */\n      dup2\n      swap1\n      sstore\n      pop\n        /* \"test/test.sol\":970:1106  function withdraw()public {... */\n      jump\t// out\n        /* \"test/test.sol\":245:281  mapping(address => uint)public myNFT */\n    tag_23:\n      mstore(0x20, 0x02)\n      dup1\n      0x00\n      mstore\n      keccak256(0x00, 0x40)\n      0x00\n      swap2\n      pop\n      swap1\n      pop\n      sload\n      dup2\n      jump\t// out\n        /* \"test/test.sol\":395:480  function transfer()public {... */\n    tag_26:\n        /* \"test/test.sol\":432:442  setblock() */\n      tag_43\n        /* \"test/test.sol\":432:440  setblock */\n      tag_37\n        /* \"test/test.sol\":432:442  setblock() */\n      jump\t// in\n    tag_43:\n        /* \"test/test.sol\":453:458  myNFT */\n      0x02\n        /* \"test/test.sol\":453:470  myNFT[msg.sender] */\n      0x00\n        /* \"test/test.sol\":459:469  msg.sender */\n      caller\n        /* \"test/test.sol\":453:470  myNFT[msg.sender] */\n      0xffffffffffffffffffffffffffffffffffffffff\n      and\n      0xffffffffffffffffffffffffffffffffffffffff\n      and\n      dup2\n      mstore\n      0x20\n      add\n      swap1\n      dup2\n      mstore\n      0x20\n      add\n      0x00\n      keccak256\n      0x00\n        /* \"test/test.sol\":453:472  myNFT[msg.sender]-- */\n      dup2\n      sload\n      dup1\n      swap3\n      swap2\n      swap1\n      tag_44\n      swap1\n      tag_45\n      jump\t// in\n    tag_44:\n      swap2\n      swap1\n      pop\n      sstore\n      pop\n        /* \"test/test.sol\":395:480  function transfer()public {... */\n      jump\t// out\n        /* \"test/test.sol\":198:238  mapping(address => uint)public lastblock */\n    tag_29:\n      mstore(0x20, 0x01)\n      dup1\n      0x00\n      mstore\n      keccak256(0x00, 0x40)\n      0x00\n      swap2\n      pop\n      swap1\n      pop\n      sload\n      dup2\n      jump\t// out\n        /* \"test/test.sol\":752:960  function powerSquare(address user)public view returns(uint){... */\n    tag_33:\n        /* \"test/test.sol\":806:810  uint */\n      0x00\n        /* \"test/test.sol\":822:828  uint a */\n      dup1\n        /* \"test/test.sol\":846:855  lastblock */\n      0x01\n        /* \"test/test.sol\":846:861  lastblock[user] */\n      0x00\n        /* \"test/test.sol\":856:860  user */\n      dup5\n        /* \"test/test.sol\":846:861  lastblock[user] */\n      0xffffffffffffffffffffffffffffffffffffffff\n      and\n      0xffffffffffffffffffffffffffffffffffffffff\n      and\n      dup2\n      mstore\n      0x20\n      add\n      swap1\n      dup2\n      mstore\n      0x20\n      add\n      0x00\n      keccak256\n      sload\n        /* \"test/test.sol\":831:843  block.number */\n      number\n        /* \"test/test.sol\":831:861  block.number - lastblock[user] */\n      tag_47\n      swap2\n      swap1\n      tag_48\n      jump\t// in\n    tag_47:\n        /* \"test/test.sol\":822:861  uint a = block.number - lastblock[user] */\n      swap1\n      pop\n        /* \"test/test.sol\":872:878  uint b */\n      0x00\n        /* \"test/test.sol\":885:890  myNFT */\n      0x02\n        /* \"test/test.sol\":885:896  myNFT[user] */\n      0x00\n        /* \"test/test.sol\":891:895  user */\n      dup6\n        /* \"test/test.sol\":885:896  myNFT[user] */\n      0xffffffffffffffffffffffffffffffffffffffff\n      and\n      0xffffffffffffffffffffffffffffffffffffffff\n      and\n      dup2\n      mstore\n      0x20\n      add\n      swap1\n      dup2\n      mstore\n      0x20\n      add\n      0x00\n      keccak256\n      sload\n        /* \"test/test.sol\":881:882  a */\n      dup3\n        /* \"test/test.sol\":881:896  a * myNFT[user] */\n      tag_49\n      swap2\n      swap1\n      tag_50\n      jump\t// in\n    tag_49:\n        /* \"test/test.sol\":872:896  uint b = a * myNFT[user] */\n      swap1\n      pop\n        /* \"test/test.sol\":907:913  uint c */\n      0x00\n        /* \"test/test.sol\":932:933  b */\n      dup2\n        /* \"test/test.sol\":916:923  myblock */\n      0x00\n        /* \"test/test.sol\":916:929  myblock[user] */\n      dup1\n        /* \"test/test.sol\":924:928  user */\n      dup8\n        /* \"test/test.sol\":916:929  myblock[user] */\n      0xffffffffffffffffffffffffffffffffffffffff\n      and\n      0xffffffffffffffffffffffffffffffffffffffff\n      and\n      dup2\n      mstore\n      0x20\n      add\n      swap1\n      dup2\n      mstore\n      0x20\n      add\n      0x00\n      keccak256\n      sload\n        /* \"test/test.sol\":916:933  myblock[user] + b */\n      tag_51\n      swap2\n      swap1\n      tag_52\n      jump\t// in\n    tag_51:\n        /* \"test/test.sol\":907:933  uint c = myblock[user] + b */\n      swap1\n      pop\n        /* \"test/test.sol\":951:952  c */\n      dup1\n        /* \"test/test.sol\":944:952  return c */\n      swap4\n      pop\n      pop\n      pop\n      pop\n        /* \"test/test.sol\":752:960  function powerSquare(address user)public view returns(uint){... */\n      swap2\n      swap1\n      pop\n      jump\t// out\n        /* \"test/test.sol\":494:738  function setblock()private{... */\n    tag_37:\n        /* \"test/test.sol\":561:562  0 */\n      0x00\n        /* \"test/test.sol\":536:545  lastblock */\n      0x01\n        /* \"test/test.sol\":536:557  lastblock[msg.sender] */\n      0x00\n        /* \"test/test.sol\":546:556  msg.sender */\n      caller\n        /* \"test/test.sol\":536:557  lastblock[msg.sender] */\n      0xffffffffffffffffffffffffffffffffffffffff\n      and\n      0xffffffffffffffffffffffffffffffffffffffff\n      and\n      dup2\n      mstore\n      0x20\n      add\n      swap1\n      dup2\n      mstore\n      0x20\n      add\n      0x00\n      keccak256\n      sload\n        /* \"test/test.sol\":536:562  lastblock[msg.sender] == 0 */\n      sub\n        /* \"test/test.sol\":533:626  if(lastblock[msg.sender] == 0){... */\n      tag_54\n      jumpi\n        /* \"test/test.sol\":602:614  block.number */\n      number\n        /* \"test/test.sol\":578:587  lastblock */\n      0x01\n        /* \"test/test.sol\":578:599  lastblock[msg.sender] */\n      0x00\n        /* \"test/test.sol\":588:598  msg.sender */\n      caller\n        /* \"test/test.sol\":578:599  lastblock[msg.sender] */\n      0xffffffffffffffffffffffffffffffffffffffff\n      and\n      0xffffffffffffffffffffffffffffffffffffffff\n      and\n      dup2\n      mstore\n      0x20\n      add\n      swap1\n      dup2\n      mstore\n      0x20\n      add\n      0x00\n      keccak256\n        /* \"test/test.sol\":578:614  lastblock[msg.sender] = block.number */\n      dup2\n      swap1\n      sstore\n      pop\n        /* \"test/test.sol\":533:626  if(lastblock[msg.sender] == 0){... */\n    tag_54:\n        /* \"test/test.sol\":660:683  powerSquare(msg.sender) */\n      tag_55\n        /* \"test/test.sol\":672:682  msg.sender */\n      caller\n        /* \"test/test.sol\":660:671  powerSquare */\n      tag_33\n        /* \"test/test.sol\":660:683  powerSquare(msg.sender) */\n      jump\t// in\n    tag_55:\n        /* \"test/test.sol\":638:645  myblock */\n      0x00\n        /* \"test/test.sol\":638:657  myblock[msg.sender] */\n      dup1\n        /* \"test/test.sol\":646:656  msg.sender */\n      caller\n        /* \"test/test.sol\":638:657  myblock[msg.sender] */\n      0xffffffffffffffffffffffffffffffffffffffff\n      and\n      0xffffffffffffffffffffffffffffffffffffffff\n      and\n      dup2\n      mstore\n      0x20\n      add\n      swap1\n      dup2\n      mstore\n      0x20\n      add\n      0x00\n      keccak256\n        /* \"test/test.sol\":638:683  myblock[msg.sender] = powerSquare(msg.sender) */\n      dup2\n      swap1\n      sstore\n      pop\n        /* \"test/test.sol\":718:730  block.number */\n      number\n        /* \"test/test.sol\":694:703  lastblock */\n      0x01\n        /* \"test/test.sol\":694:715  lastblock[msg.sender] */\n      0x00\n        /* \"test/test.sol\":704:714  msg.sender */\n      caller\n        /* \"test/test.sol\":694:715  lastblock[msg.sender] */\n      0xffffffffffffffffffffffffffffffffffffffff\n      and\n      0xffffffffffffffffffffffffffffffffffffffff\n      and\n      dup2\n      mstore\n      0x20\n      add\n      swap1\n      dup2\n      mstore\n      0x20\n      add\n      0x00\n      keccak256\n        /* \"test/test.sol\":694:730  lastblock[msg.sender] = block.number */\n      dup2\n      swap1\n      sstore\n      pop\n        /* \"test/test.sol\":494:738  function setblock()private{... */\n      jump\t// out\n        /* \"#utility.yul\":88:205   */\n    tag_57:\n        /* \"#utility.yul\":197:198   */\n      0x00\n        /* \"#utility.yul\":194:195   */\n      dup1\n        /* \"#utility.yul\":187:199   */\n      revert\n        /* \"#utility.yul\":334:460   */\n    tag_59:\n        /* \"#utility.yul\":371:378   */\n      0x00\n        /* \"#utility.yul\":411:453   */\n      0xffffffffffffffffffffffffffffffffffffffff\n        /* \"#utility.yul\":404:409   */\n      dup3\n        /* \"#utility.yul\":400:454   */\n      and\n        /* \"#utility.yul\":389:454   */\n      swap1\n      pop\n        /* \"#utility.yul\":334:460   */\n      swap2\n      swap1\n      pop\n      jump\t// out\n        /* \"#utility.yul\":466:562   */\n    tag_60:\n        /* \"#utility.yul\":503:510   */\n      0x00\n        /* \"#utility.yul\":532:556   */\n      tag_72\n        /* \"#utility.yul\":550:555   */\n      dup3\n        /* \"#utility.yul\":532:556   */\n      tag_59\n      jump\t// in\n    tag_72:\n        /* \"#utility.yul\":521:556   */\n      swap1\n      pop\n        /* \"#utility.yul\":466:562   */\n      swap2\n      swap1\n      pop\n      jump\t// out\n        /* \"#utility.yul\":568:690   */\n    tag_61:\n        /* \"#utility.yul\":641:665   */\n      tag_74\n        /* \"#utility.yul\":659:664   */\n      dup2\n        /* \"#utility.yul\":641:665   */\n      tag_60\n      jump\t// in\n    tag_74:\n        /* \"#utility.yul\":634:639   */\n      dup2\n        /* \"#utility.yul\":631:666   */\n      eq\n        /* \"#utility.yul\":621:684   */\n      tag_75\n      jumpi\n        /* \"#utility.yul\":680:681   */\n      0x00\n        /* \"#utility.yul\":677:678   */\n      dup1\n        /* \"#utility.yul\":670:682   */\n      revert\n        /* \"#utility.yul\":621:684   */\n    tag_75:\n        /* \"#utility.yul\":568:690   */\n      pop\n      jump\t// out\n        /* \"#utility.yul\":696:835   */\n    tag_62:\n        /* \"#utility.yul\":742:747   */\n      0x00\n        /* \"#utility.yul\":780:786   */\n      dup2\n        /* \"#utility.yul\":767:787   */\n      calldataload\n        /* \"#utility.yul\":758:787   */\n      swap1\n      pop\n        /* \"#utility.yul\":796:829   */\n      tag_77\n        /* \"#utility.yul\":823:828   */\n      dup2\n        /* \"#utility.yul\":796:829   */\n      tag_61\n      jump\t// in\n    tag_77:\n        /* \"#utility.yul\":696:835   */\n      swap3\n      swap2\n      pop\n      pop\n      jump\t// out\n        /* \"#utility.yul\":841:1170   */\n    tag_15:\n        /* \"#utility.yul\":900:906   */\n      0x00\n        /* \"#utility.yul\":949:951   */\n      0x20\n        /* \"#utility.yul\":937:946   */\n      dup3\n        /* \"#utility.yul\":928:935   */\n      dup5\n        /* \"#utility.yul\":924:947   */\n      sub\n        /* \"#utility.yul\":920:952   */\n      slt\n        /* \"#utility.yul\":917:1036   */\n      iszero\n      tag_79\n      jumpi\n        /* \"#utility.yul\":955:1034   */\n      tag_80\n      tag_57\n      jump\t// in\n    tag_80:\n        /* \"#utility.yul\":917:1036   */\n    tag_79:\n        /* \"#utility.yul\":1075:1076   */\n      0x00\n        /* \"#utility.yul\":1100:1153   */\n      tag_81\n        /* \"#utility.yul\":1145:1152   */\n      dup5\n        /* \"#utility.yul\":1136:1142   */\n      dup3\n        /* \"#utility.yul\":1125:1134   */\n      dup6\n        /* \"#utility.yul\":1121:1143   */\n      add\n        /* \"#utility.yul\":1100:1153   */\n      tag_62\n      jump\t// in\n    tag_81:\n        /* \"#utility.yul\":1090:1153   */\n      swap2\n      pop\n        /* \"#utility.yul\":1046:1163   */\n      pop\n        /* \"#utility.yul\":841:1170   */\n      swap3\n      swap2\n      pop\n      pop\n      jump\t// out\n        /* \"#utility.yul\":1176:1253   */\n    tag_63:\n        /* \"#utility.yul\":1213:1220   */\n      0x00\n        /* \"#utility.yul\":1242:1247   */\n      dup2\n        /* \"#utility.yul\":1231:1247   */\n      swap1\n      pop\n        /* \"#utility.yul\":1176:1253   */\n      swap2\n      swap1\n      pop\n      jump\t// out\n        /* \"#utility.yul\":1259:1377   */\n    tag_64:\n        /* \"#utility.yul\":1346:1370   */\n      tag_84\n        /* \"#utility.yul\":1364:1369   */\n      dup2\n        /* \"#utility.yul\":1346:1370   */\n      tag_63\n      jump\t// in\n    tag_84:\n        /* \"#utility.yul\":1341:1344   */\n      dup3\n        /* \"#utility.yul\":1334:1371   */\n      mstore\n        /* \"#utility.yul\":1259:1377   */\n      pop\n      pop\n      jump\t// out\n        /* \"#utility.yul\":1383:1605   */\n    tag_18:\n        /* \"#utility.yul\":1476:1480   */\n      0x00\n        /* \"#utility.yul\":1514:1516   */\n      0x20\n        /* \"#utility.yul\":1503:1512   */\n      dup3\n        /* \"#utility.yul\":1499:1517   */\n      add\n        /* \"#utility.yul\":1491:1517   */\n      swap1\n      pop\n        /* \"#utility.yul\":1527:1598   */\n      tag_86\n        /* \"#utility.yul\":1595:1596   */\n      0x00\n        /* \"#utility.yul\":1584:1593   */\n      dup4\n        /* \"#utility.yul\":1580:1597   */\n      add\n        /* \"#utility.yul\":1571:1577   */\n      dup5\n        /* \"#utility.yul\":1527:1598   */\n      tag_64\n      jump\t// in\n    tag_86:\n        /* \"#utility.yul\":1383:1605   */\n      swap3\n      swap2\n      pop\n      pop\n      jump\t// out\n        /* \"#utility.yul\":1611:1791   */\n    tag_65:\n        /* \"#utility.yul\":1659:1736   */\n      0x4e487b7100000000000000000000000000000000000000000000000000000000\n        /* \"#utility.yul\":1656:1657   */\n      0x00\n        /* \"#utility.yul\":1649:1737   */\n      mstore\n        /* \"#utility.yul\":1756:1760   */\n      0x11\n        /* \"#utility.yul\":1753:1754   */\n      0x04\n        /* \"#utility.yul\":1746:1761   */\n      mstore\n        /* \"#utility.yul\":1780:1784   */\n      0x24\n        /* \"#utility.yul\":1777:1778   */\n      0x00\n        /* \"#utility.yul\":1770:1785   */\n      revert\n        /* \"#utility.yul\":1797:2030   */\n    tag_39:\n        /* \"#utility.yul\":1836:1839   */\n      0x00\n        /* \"#utility.yul\":1859:1883   */\n      tag_89\n        /* \"#utility.yul\":1877:1882   */\n      dup3\n        /* \"#utility.yul\":1859:1883   */\n      tag_63\n      jump\t// in\n    tag_89:\n        /* \"#utility.yul\":1850:1883   */\n      swap2\n      pop\n        /* \"#utility.yul\":1905:1971   */\n      0xffffffffffffffffffffffffffffffffffffffffffffffffffffffffffffffff\n        /* \"#utility.yul\":1898:1903   */\n      dup3\n        /* \"#utility.yul\":1895:1972   */\n      sub\n        /* \"#utility.yul\":1892:1995   */\n      tag_90\n      jumpi\n        /* \"#utility.yul\":1975:1993   */\n      tag_91\n      tag_65\n      jump\t// in\n    tag_91:\n        /* \"#utility.yul\":1892:1995   */\n    tag_90:\n        /* \"#utility.yul\":2022:2023   */\n      0x01\n        /* \"#utility.yul\":2015:2020   */\n      dup3\n        /* \"#utility.yul\":2011:2024   */\n      add\n        /* \"#utility.yul\":2004:2024   */\n      swap1\n      pop\n        /* \"#utility.yul\":1797:2030   */\n      swap2\n      swap1\n      pop\n      jump\t// out\n        /* \"#utility.yul\":2036:2207   */\n    tag_45:\n        /* \"#utility.yul\":2075:2078   */\n      0x00\n        /* \"#utility.yul\":2098:2122   */\n      tag_93\n        /* \"#utility.yul\":2116:2121   */\n      dup3\n        /* \"#utility.yul\":2098:2122   */\n      tag_63\n      jump\t// in\n    tag_93:\n        /* \"#utility.yul\":2089:2122   */\n      swap2\n      pop\n        /* \"#utility.yul\":2144:2148   */\n      0x00\n        /* \"#utility.yul\":2137:2142   */\n      dup3\n        /* \"#utility.yul\":2134:2149   */\n      sub\n        /* \"#utility.yul\":2131:2172   */\n      tag_94\n      jumpi\n        /* \"#utility.yul\":2152:2170   */\n      tag_95\n      tag_65\n      jump\t// in\n    tag_95:\n        /* \"#utility.yul\":2131:2172   */\n    tag_94:\n        /* \"#utility.yul\":2199:2200   */\n      0x01\n        /* \"#utility.yul\":2192:2197   */\n      dup3\n        /* \"#utility.yul\":2188:2201   */\n      sub\n        /* \"#utility.yul\":2181:2201   */\n      swap1\n      pop\n        /* \"#utility.yul\":2036:2207   */\n      swap2\n      swap1\n      pop\n      jump\t// out\n        /* \"#utility.yul\":2213:2404   */\n    tag_48:\n        /* \"#utility.yul\":2253:2257   */\n      0x00\n        /* \"#utility.yul\":2273:2293   */\n      tag_97\n        /* \"#utility.yul\":2291:2292   */\n      dup3\n        /* \"#utility.yul\":2273:2293   */\n      tag_63\n      jump\t// in\n    tag_97:\n        /* \"#utility.yul\":2268:2293   */\n      swap2\n      pop\n        /* \"#utility.yul\":2307:2327   */\n      tag_98\n        /* \"#utility.yul\":2325:2326   */\n      dup4\n        /* \"#utility.yul\":2307:2327   */\n      tag_63\n      jump\t// in\n    tag_98:\n        /* \"#utility.yul\":2302:2327   */\n      swap3\n      pop\n        /* \"#utility.yul\":2346:2347   */\n      dup3\n        /* \"#utility.yul\":2343:2344   */\n      dup3\n        /* \"#utility.yul\":2340:2348   */\n      lt\n        /* \"#utility.yul\":2337:2371   */\n      iszero\n      tag_99\n      jumpi\n        /* \"#utility.yul\":2351:2369   */\n      tag_100\n      tag_65\n      jump\t// in\n    tag_100:\n        /* \"#utility.yul\":2337:2371   */\n    tag_99:\n        /* \"#utility.yul\":2396:2397   */\n      dup3\n        /* \"#utility.yul\":2393:2394   */\n      dup3\n        /* \"#utility.yul\":2389:2398   */\n      sub\n        /* \"#utility.yul\":2381:2398   */\n      swap1\n      pop\n        /* \"#utility.yul\":2213:2404   */\n      swap3\n      swap2\n      pop\n      pop\n      jump\t// out\n        /* \"#utility.yul\":2410:2758   */\n    tag_50:\n        /* \"#utility.yul\":2450:2457   */\n      0x00\n        /* \"#utility.yul\":2473:2493   */\n      tag_102\n        /* \"#utility.yul\":2491:2492   */\n      dup3\n        /* \"#utility.yul\":2473:2493   */\n      tag_63\n      jump\t// in\n    tag_102:\n        /* \"#utility.yul\":2468:2493   */\n      swap2\n      pop\n        /* \"#utility.yul\":2507:2527   */\n      tag_103\n        /* \"#utility.yul\":2525:2526   */\n      dup4\n        /* \"#utility.yul\":2507:2527   */\n      tag_63\n      jump\t// in\n    tag_103:\n        /* \"#utility.yul\":2502:2527   */\n      swap3\n      pop\n        /* \"#utility.yul\":2695:2696   */\n      dup2\n        /* \"#utility.yul\":2627:2693   */\n      0xffffffffffffffffffffffffffffffffffffffffffffffffffffffffffffffff\n        /* \"#utility.yul\":2623:2697   */\n      div\n        /* \"#utility.yul\":2620:2621   */\n      dup4\n        /* \"#utility.yul\":2617:2698   */\n      gt\n        /* \"#utility.yul\":2612:2613   */\n      dup3\n        /* \"#utility.yul\":2605:2614   */\n      iszero\n        /* \"#utility.yul\":2598:2615   */\n      iszero\n        /* \"#utility.yul\":2594:2699   */\n      and\n        /* \"#utility.yul\":2591:2722   */\n      iszero\n      tag_104\n      jumpi\n        /* \"#utility.yul\":2702:2720   */\n      tag_105\n      tag_65\n      jump\t// in\n    tag_105:\n        /* \"#utility.yul\":2591:2722   */\n    tag_104:\n        /* \"#utility.yul\":2750:2751   */\n      dup3\n        /* \"#utility.yul\":2747:2748   */\n      dup3\n        /* \"#utility.yul\":2743:2752   */\n      mul\n        /* \"#utility.yul\":2732:2752   */\n      swap1\n      pop\n        /* \"#utility.yul\":2410:2758   */\n      swap3\n      swap2\n      pop\n      pop\n      jump\t// out\n        /* \"#utility.yul\":2764:3069   */\n    tag_52:\n        /* \"#utility.yul\":2804:2807   */\n      0x00\n        /* \"#utility.yul\":2823:2843   */\n      tag_107\n        /* \"#utility.yul\":2841:2842   */\n      dup3\n        /* \"#utility.yul\":2823:2843   */\n      tag_63\n      jump\t// in\n    tag_107:\n        /* \"#utility.yul\":2818:2843   */\n      swap2\n      pop\n        /* \"#utility.yul\":2857:2877   */\n      tag_108\n        /* \"#utility.yul\":2875:2876   */\n      dup4\n        /* \"#utility.yul\":2857:2877   */\n      tag_63\n      jump\t// in\n    tag_108:\n        /* \"#utility.yul\":2852:2877   */\n      swap3\n      pop\n        /* \"#utility.yul\":3011:3012   */\n      dup3\n        /* \"#utility.yul\":2943:3009   */\n      0xffffffffffffffffffffffffffffffffffffffffffffffffffffffffffffffff\n        /* \"#utility.yul\":2939:3013   */\n      sub\n        /* \"#utility.yul\":2936:2937   */\n      dup3\n        /* \"#utility.yul\":2933:3014   */\n      gt\n        /* \"#utility.yul\":2930:3037   */\n      iszero\n      tag_109\n      jumpi\n        /* \"#utility.yul\":3017:3035   */\n      tag_110\n      tag_65\n      jump\t// in\n    tag_110:\n        /* \"#utility.yul\":2930:3037   */\n    tag_109:\n        /* \"#utility.yul\":3061:3062   */\n      dup3\n        /* \"#utility.yul\":3058:3059   */\n      dup3\n        /* \"#utility.yul\":3054:3063   */\n      add\n        /* \"#utility.yul\":3047:3063   */\n      swap1\n      pop\n        /* \"#utility.yul\":2764:3069   */\n      swap3\n      swap2\n      pop\n      pop\n      jump\t// out\n\n    auxdata: 0xa2646970667358221220d8e6b7f4f550a31c765f9b52641b5bacd72bfb0beb97689fbe9e4d5736c0839c64736f6c634300080d0033\n}\n",
				"bytecode": {
					"linkReferences": {},
					"object": "608060405234801561001057600080fd5b5061078b806100206000396000f3fe608060405234801561001057600080fd5b506004361061007d5760003560e01c8063589cf1d41161005b578063589cf1d4146100c65780638a4068dd146100f6578063dae83f0814610100578063fb2fc0af146101305761007d565b80631249c58b14610082578063249bf0d01461008c5780633ccfd60b146100bc575b600080fd5b61008a610160565b005b6100a660048036038101906100a19190610570565b6101bf565b6040516100b391906105b6565b60405180910390f35b6100c46101d7565b005b6100e060048036038101906100db9190610570565b610269565b6040516100ed91906105b6565b60405180910390f35b6100fe610281565b005b61011a60048036038101906101159190610570565b6102e0565b60405161012791906105b6565b60405180910390f35b61014a60048036038101906101459190610570565b6102f8565b60405161015791906105b6565b60405180910390f35b6101686103f0565b600260003373ffffffffffffffffffffffffffffffffffffffff1673ffffffffffffffffffffffffffffffffffffffff16815260200190815260200160002060008154809291906101b890610600565b9190505550565b60006020528060005260406000206000915090505481565b6101df6103f0565b60008060003373ffffffffffffffffffffffffffffffffffffffff1673ffffffffffffffffffffffffffffffffffffffff1681526020019081526020016000208190555043600160003373ffffffffffffffffffffffffffffffffffffffff1673ffffffffffffffffffffffffffffffffffffffff16815260200190815260200160002081905550565b60026020528060005260406000206000915090505481565b6102896103f0565b600260003373ffffffffffffffffffffffffffffffffffffffff1673ffffffffffffffffffffffffffffffffffffffff16815260200190815260200160002060008154809291906102d990610648565b9190505550565b60016020528060005260406000206000915090505481565b600080600160008473ffffffffffffffffffffffffffffffffffffffff1673ffffffffffffffffffffffffffffffffffffffff16815260200190815260200160002054436103469190610671565b90506000600260008573ffffffffffffffffffffffffffffffffffffffff1673ffffffffffffffffffffffffffffffffffffffff168152602001908152602001600020548261039591906106a5565b90506000816000808773ffffffffffffffffffffffffffffffffffffffff1673ffffffffffffffffffffffffffffffffffffffff168152602001908152602001600020546103e391906106ff565b9050809350505050919050565b6000600160003373ffffffffffffffffffffffffffffffffffffffff1673ffffffffffffffffffffffffffffffffffffffff168152602001908152602001600020540361047c5743600160003373ffffffffffffffffffffffffffffffffffffffff1673ffffffffffffffffffffffffffffffffffffffff168152602001908152602001600020819055505b610485336102f8565b6000803373ffffffffffffffffffffffffffffffffffffffff1673ffffffffffffffffffffffffffffffffffffffff1681526020019081526020016000208190555043600160003373ffffffffffffffffffffffffffffffffffffffff1673ffffffffffffffffffffffffffffffffffffffff16815260200190815260200160002081905550565b600080fd5b600073ffffffffffffffffffffffffffffffffffffffff82169050919050565b600061053d82610512565b9050919050565b61054d81610532565b811461055857600080fd5b50565b60008135905061056a81610544565b92915050565b6000602082840312156105865761058561050d565b5b60006105948482850161055b565b91505092915050565b6000819050919050565b6105b08161059d565b82525050565b60006020820190506105cb60008301846105a7565b92915050565b7f4e487b7100000000000000000000000000000000000000000000000000000000600052601160045260246000fd5b600061060b8261059d565b91507fffffffffffffffffffffffffffffffffffffffffffffffffffffffffffffffff820361063d5761063c6105d1565b5b600182019050919050565b60006106538261059d565b915060008203610666576106656105d1565b5b600182039050919050565b600061067c8261059d565b91506106878361059d565b92508282101561069a576106996105d1565b5b828203905092915050565b60006106b08261059d565b91506106bb8361059d565b9250817fffffffffffffffffffffffffffffffffffffffffffffffffffffffffffffffff04831182151516156106f4576106f36105d1565b5b828202905092915050565b600061070a8261059d565b91506107158361059d565b9250827fffffffffffffffffffffffffffffffffffffffffffffffffffffffffffffffff0382111561074a576107496105d1565b5b82820190509291505056fea2646970667358221220d8e6b7f4f550a31c765f9b52641b5bacd72bfb0beb97689fbe9e4d5736c0839c64736f6c634300080d0033",
					"opcodes": "PUSH1 0x80 PUSH1 0x40 MSTORE CALLVALUE DUP1 ISZERO PUSH2 0x10 JUMPI PUSH1 0x0 DUP1 REVERT JUMPDEST POP PUSH2 0x78B DUP1 PUSH2 0x20 PUSH1 0x0 CODECOPY PUSH1 0x0 RETURN INVALID PUSH1 0x80 PUSH1 0x40 MSTORE CALLVALUE DUP1 ISZERO PUSH2 0x10 JUMPI PUSH1 0x0 DUP1 REVERT JUMPDEST POP PUSH1 0x4 CALLDATASIZE LT PUSH2 0x7D JUMPI PUSH1 0x0 CALLDATALOAD PUSH1 0xE0 SHR DUP1 PUSH4 0x589CF1D4 GT PUSH2 0x5B JUMPI DUP1 PUSH4 0x589CF1D4 EQ PUSH2 0xC6 JUMPI DUP1 PUSH4 0x8A4068DD EQ PUSH2 0xF6 JUMPI DUP1 PUSH4 0xDAE83F08 EQ PUSH2 0x100 JUMPI DUP1 PUSH4 0xFB2FC0AF EQ PUSH2 0x130 JUMPI PUSH2 0x7D JUMP JUMPDEST DUP1 PUSH4 0x1249C58B EQ PUSH2 0x82 JUMPI DUP1 PUSH4 0x249BF0D0 EQ PUSH2 0x8C JUMPI DUP1 PUSH4 0x3CCFD60B EQ PUSH2 0xBC JUMPI JUMPDEST PUSH1 0x0 DUP1 REVERT JUMPDEST PUSH2 0x8A PUSH2 0x160 JUMP JUMPDEST STOP JUMPDEST PUSH2 0xA6 PUSH1 0x4 DUP1 CALLDATASIZE SUB DUP2 ADD SWAP1 PUSH2 0xA1 SWAP2 SWAP1 PUSH2 0x570 JUMP JUMPDEST PUSH2 0x1BF JUMP JUMPDEST PUSH1 0x40 MLOAD PUSH2 0xB3 SWAP2 SWAP1 PUSH2 0x5B6 JUMP JUMPDEST PUSH1 0x40 MLOAD DUP1 SWAP2 SUB SWAP1 RETURN JUMPDEST PUSH2 0xC4 PUSH2 0x1D7 JUMP JUMPDEST STOP JUMPDEST PUSH2 0xE0 PUSH1 0x4 DUP1 CALLDATASIZE SUB DUP2 ADD SWAP1 PUSH2 0xDB SWAP2 SWAP1 PUSH2 0x570 JUMP JUMPDEST PUSH2 0x269 JUMP JUMPDEST PUSH1 0x40 MLOAD PUSH2 0xED SWAP2 SWAP1 PUSH2 0x5B6 JUMP JUMPDEST PUSH1 0x40 MLOAD DUP1 SWAP2 SUB SWAP1 RETURN JUMPDEST PUSH2 0xFE PUSH2 0x281 JUMP JUMPDEST STOP JUMPDEST PUSH2 0x11A PUSH1 0x4 DUP1 CALLDATASIZE SUB DUP2 ADD SWAP1 PUSH2 0x115 SWAP2 SWAP1 PUSH2 0x570 JUMP JUMPDEST PUSH2 0x2E0 JUMP JUMPDEST PUSH1 0x40 MLOAD PUSH2 0x127 SWAP2 SWAP1 PUSH2 0x5B6 JUMP JUMPDEST PUSH1 0x40 MLOAD DUP1 SWAP2 SUB SWAP1 RETURN JUMPDEST PUSH2 0x14A PUSH1 0x4 DUP1 CALLDATASIZE SUB DUP2 ADD SWAP1 PUSH2 0x145 SWAP2 SWAP1 PUSH2 0x570 JUMP JUMPDEST PUSH2 0x2F8 JUMP JUMPDEST PUSH1 0x40 MLOAD PUSH2 0x157 SWAP2 SWAP1 PUSH2 0x5B6 JUMP JUMPDEST PUSH1 0x40 MLOAD DUP1 SWAP2 SUB SWAP1 RETURN JUMPDEST PUSH2 0x168 PUSH2 0x3F0 JUMP JUMPDEST PUSH1 0x2 PUSH1 0x0 CALLER PUSH20 0xFFFFFFFFFFFFFFFFFFFFFFFFFFFFFFFFFFFFFFFF AND PUSH20 0xFFFFFFFFFFFFFFFFFFFFFFFFFFFFFFFFFFFFFFFF AND DUP2 MSTORE PUSH1 0x20 ADD SWAP1 DUP2 MSTORE PUSH1 0x20 ADD PUSH1 0x0 KECCAK256 PUSH1 0x0 DUP2 SLOAD DUP1 SWAP3 SWAP2 SWAP1 PUSH2 0x1B8 SWAP1 PUSH2 0x600 JUMP JUMPDEST SWAP2 SWAP1 POP SSTORE POP JUMP JUMPDEST PUSH1 0x0 PUSH1 0x20 MSTORE DUP1 PUSH1 0x0 MSTORE PUSH1 0x40 PUSH1 0x0 KECCAK256 PUSH1 0x0 SWAP2 POP SWAP1 POP SLOAD DUP2 JUMP JUMPDEST PUSH2 0x1DF PUSH2 0x3F0 JUMP JUMPDEST PUSH1 0x0 DUP1 PUSH1 0x0 CALLER PUSH20 0xFFFFFFFFFFFFFFFFFFFFFFFFFFFFFFFFFFFFFFFF AND PUSH20 0xFFFFFFFFFFFFFFFFFFFFFFFFFFFFFFFFFFFFFFFF AND DUP2 MSTORE PUSH1 0x20 ADD SWAP1 DUP2 MSTORE PUSH1 0x20 ADD PUSH1 0x0 KECCAK256 DUP2 SWAP1 SSTORE POP NUMBER PUSH1 0x1 PUSH1 0x0 CALLER PUSH20 0xFFFFFFFFFFFFFFFFFFFFFFFFFFFFFFFFFFFFFFFF AND PUSH20 0xFFFFFFFFFFFFFFFFFFFFFFFFFFFFFFFFFFFFFFFF AND DUP2 MSTORE PUSH1 0x20 ADD SWAP1 DUP2 MSTORE PUSH1 0x20 ADD PUSH1 0x0 KECCAK256 DUP2 SWAP1 SSTORE POP JUMP JUMPDEST PUSH1 0x2 PUSH1 0x20 MSTORE DUP1 PUSH1 0x0 MSTORE PUSH1 0x40 PUSH1 0x0 KECCAK256 PUSH1 0x0 SWAP2 POP SWAP1 POP SLOAD DUP2 JUMP JUMPDEST PUSH2 0x289 PUSH2 0x3F0 JUMP JUMPDEST PUSH1 0x2 PUSH1 0x0 CALLER PUSH20 0xFFFFFFFFFFFFFFFFFFFFFFFFFFFFFFFFFFFFFFFF AND PUSH20 0xFFFFFFFFFFFFFFFFFFFFFFFFFFFFFFFFFFFFFFFF AND DUP2 MSTORE PUSH1 0x20 ADD SWAP1 DUP2 MSTORE PUSH1 0x20 ADD PUSH1 0x0 KECCAK256 PUSH1 0x0 DUP2 SLOAD DUP1 SWAP3 SWAP2 SWAP1 PUSH2 0x2D9 SWAP1 PUSH2 0x648 JUMP JUMPDEST SWAP2 SWAP1 POP SSTORE POP JUMP JUMPDEST PUSH1 0x1 PUSH1 0x20 MSTORE DUP1 PUSH1 0x0 MSTORE PUSH1 0x40 PUSH1 0x0 KECCAK256 PUSH1 0x0 SWAP2 POP SWAP1 POP SLOAD DUP2 JUMP JUMPDEST PUSH1 0x0 DUP1 PUSH1 0x1 PUSH1 0x0 DUP5 PUSH20 0xFFFFFFFFFFFFFFFFFFFFFFFFFFFFFFFFFFFFFFFF AND PUSH20 0xFFFFFFFFFFFFFFFFFFFFFFFFFFFFFFFFFFFFFFFF AND DUP2 MSTORE PUSH1 0x20 ADD SWAP1 DUP2 MSTORE PUSH1 0x20 ADD PUSH1 0x0 KECCAK256 SLOAD NUMBER PUSH2 0x346 SWAP2 SWAP1 PUSH2 0x671 JUMP JUMPDEST SWAP1 POP PUSH1 0x0 PUSH1 0x2 PUSH1 0x0 DUP6 PUSH20 0xFFFFFFFFFFFFFFFFFFFFFFFFFFFFFFFFFFFFFFFF AND PUSH20 0xFFFFFFFFFFFFFFFFFFFFFFFFFFFFFFFFFFFFFFFF AND DUP2 MSTORE PUSH1 0x20 ADD SWAP1 DUP2 MSTORE PUSH1 0x20 ADD PUSH1 0x0 KECCAK256 SLOAD DUP3 PUSH2 0x395 SWAP2 SWAP1 PUSH2 0x6A5 JUMP JUMPDEST SWAP1 POP PUSH1 0x0 DUP2 PUSH1 0x0 DUP1 DUP8 PUSH20 0xFFFFFFFFFFFFFFFFFFFFFFFFFFFFFFFFFFFFFFFF AND PUSH20 0xFFFFFFFFFFFFFFFFFFFFFFFFFFFFFFFFFFFFFFFF AND DUP2 MSTORE PUSH1 0x20 ADD SWAP1 DUP2 MSTORE PUSH1 0x20 ADD PUSH1 0x0 KECCAK256 SLOAD PUSH2 0x3E3 SWAP2 SWAP1 PUSH2 0x6FF JUMP JUMPDEST SWAP1 POP DUP1 SWAP4 POP POP POP POP SWAP2 SWAP1 POP JUMP JUMPDEST PUSH1 0x0 PUSH1 0x1 PUSH1 0x0 CALLER PUSH20 0xFFFFFFFFFFFFFFFFFFFFFFFFFFFFFFFFFFFFFFFF AND PUSH20 0xFFFFFFFFFFFFFFFFFFFFFFFFFFFFFFFFFFFFFFFF AND DUP2 MSTORE PUSH1 0x20 ADD SWAP1 DUP2 MSTORE PUSH1 0x20 ADD PUSH1 0x0 KECCAK256 SLOAD SUB PUSH2 0x47C JUMPI NUMBER PUSH1 0x1 PUSH1 0x0 CALLER PUSH20 0xFFFFFFFFFFFFFFFFFFFFFFFFFFFFFFFFFFFFFFFF AND PUSH20 0xFFFFFFFFFFFFFFFFFFFFFFFFFFFFFFFFFFFFFFFF AND DUP2 MSTORE PUSH1 0x20 ADD SWAP1 DUP2 MSTORE PUSH1 0x20 ADD PUSH1 0x0 KECCAK256 DUP2 SWAP1 SSTORE POP JUMPDEST PUSH2 0x485 CALLER PUSH2 0x2F8 JUMP JUMPDEST PUSH1 0x0 DUP1 CALLER PUSH20 0xFFFFFFFFFFFFFFFFFFFFFFFFFFFFFFFFFFFFFFFF AND PUSH20 0xFFFFFFFFFFFFFFFFFFFFFFFFFFFFFFFFFFFFFFFF AND DUP2 MSTORE PUSH1 0x20 ADD SWAP1 DUP2 MSTORE PUSH1 0x20 ADD PUSH1 0x0 KECCAK256 DUP2 SWAP1 SSTORE POP NUMBER PUSH1 0x1 PUSH1 0x0 CALLER PUSH20 0xFFFFFFFFFFFFFFFFFFFFFFFFFFFFFFFFFFFFFFFF AND PUSH20 0xFFFFFFFFFFFFFFFFFFFFFFFFFFFFFFFFFFFFFFFF AND DUP2 MSTORE PUSH1 0x20 ADD SWAP1 DUP2 MSTORE PUSH1 0x20 ADD PUSH1 0x0 KECCAK256 DUP2 SWAP1 SSTORE POP JUMP JUMPDEST PUSH1 0x0 DUP1 REVERT JUMPDEST PUSH1 0x0 PUSH20 0xFFFFFFFFFFFFFFFFFFFFFFFFFFFFFFFFFFFFFFFF DUP3 AND SWAP1 POP SWAP2 SWAP1 POP JUMP JUMPDEST PUSH1 0x0 PUSH2 0x53D DUP3 PUSH2 0x512 JUMP JUMPDEST SWAP1 POP SWAP2 SWAP1 POP JUMP JUMPDEST PUSH2 0x54D DUP2 PUSH2 0x532 JUMP JUMPDEST DUP2 EQ PUSH2 0x558 JUMPI PUSH1 0x0 DUP1 REVERT JUMPDEST POP JUMP JUMPDEST PUSH1 0x0 DUP2 CALLDATALOAD SWAP1 POP PUSH2 0x56A DUP2 PUSH2 0x544 JUMP JUMPDEST SWAP3 SWAP2 POP POP JUMP JUMPDEST PUSH1 0x0 PUSH1 0x20 DUP3 DUP5 SUB SLT ISZERO PUSH2 0x586 JUMPI PUSH2 0x585 PUSH2 0x50D JUMP JUMPDEST JUMPDEST PUSH1 0x0 PUSH2 0x594 DUP5 DUP3 DUP6 ADD PUSH2 0x55B JUMP JUMPDEST SWAP2 POP POP SWAP3 SWAP2 POP POP JUMP JUMPDEST PUSH1 0x0 DUP2 SWAP1 POP SWAP2 SWAP1 POP JUMP JUMPDEST PUSH2 0x5B0 DUP2 PUSH2 0x59D JUMP JUMPDEST DUP3 MSTORE POP POP JUMP JUMPDEST PUSH1 0x0 PUSH1 0x20 DUP3 ADD SWAP1 POP PUSH2 0x5CB PUSH1 0x0 DUP4 ADD DUP5 PUSH2 0x5A7 JUMP JUMPDEST SWAP3 SWAP2 POP POP JUMP JUMPDEST PUSH32 0x4E487B7100000000000000000000000000000000000000000000000000000000 PUSH1 0x0 MSTORE PUSH1 0x11 PUSH1 0x4 MSTORE PUSH1 0x24 PUSH1 0x0 REVERT JUMPDEST PUSH1 0x0 PUSH2 0x60B DUP3 PUSH2 0x59D JUMP JUMPDEST SWAP2 POP PUSH32 0xFFFFFFFFFFFFFFFFFFFFFFFFFFFFFFFFFFFFFFFFFFFFFFFFFFFFFFFFFFFFFFFF DUP3 SUB PUSH2 0x63D JUMPI PUSH2 0x63C PUSH2 0x5D1 JUMP JUMPDEST JUMPDEST PUSH1 0x1 DUP3 ADD SWAP1 POP SWAP2 SWAP1 POP JUMP JUMPDEST PUSH1 0x0 PUSH2 0x653 DUP3 PUSH2 0x59D JUMP JUMPDEST SWAP2 POP PUSH1 0x0 DUP3 SUB PUSH2 0x666 JUMPI PUSH2 0x665 PUSH2 0x5D1 JUMP JUMPDEST JUMPDEST PUSH1 0x1 DUP3 SUB SWAP1 POP SWAP2 SWAP1 POP JUMP JUMPDEST PUSH1 0x0 PUSH2 0x67C DUP3 PUSH2 0x59D JUMP JUMPDEST SWAP2 POP PUSH2 0x687 DUP4 PUSH2 0x59D JUMP JUMPDEST SWAP3 POP DUP3 DUP3 LT ISZERO PUSH2 0x69A JUMPI PUSH2 0x699 PUSH2 0x5D1 JUMP JUMPDEST JUMPDEST DUP3 DUP3 SUB SWAP1 POP SWAP3 SWAP2 POP POP JUMP JUMPDEST PUSH1 0x0 PUSH2 0x6B0 DUP3 PUSH2 0x59D JUMP JUMPDEST SWAP2 POP PUSH2 0x6BB DUP4 PUSH2 0x59D JUMP JUMPDEST SWAP3 POP DUP2 PUSH32 0xFFFFFFFFFFFFFFFFFFFFFFFFFFFFFFFFFFFFFFFFFFFFFFFFFFFFFFFFFFFFFFFF DIV DUP4 GT DUP3 ISZERO ISZERO AND ISZERO PUSH2 0x6F4 JUMPI PUSH2 0x6F3 PUSH2 0x5D1 JUMP JUMPDEST JUMPDEST DUP3 DUP3 MUL SWAP1 POP SWAP3 SWAP2 POP POP JUMP JUMPDEST PUSH1 0x0 PUSH2 0x70A DUP3 PUSH2 0x59D JUMP JUMPDEST SWAP2 POP PUSH2 0x715 DUP4 PUSH2 0x59D JUMP JUMPDEST SWAP3 POP DUP3 PUSH32 0xFFFFFFFFFFFFFFFFFFFFFFFFFFFFFFFFFFFFFFFFFFFFFFFFFFFFFFFFFFFFFFFF SUB DUP3 GT ISZERO PUSH2 0x74A JUMPI PUSH2 0x749 PUSH2 0x5D1 JUMP JUMPDEST JUMPDEST DUP3 DUP3 ADD SWAP1 POP SWAP3 SWAP2 POP POP JUMP INVALID LOG2 PUSH5 0x6970667358 0x22 SLT KECCAK256 0xD8 0xE6 0xB7 DELEGATECALL CREATE2 POP LOG3 SHR PUSH23 0x5F9B52641B5BACD72BFB0BEB97689FBE9E4D5736C0839C PUSH5 0x736F6C6343 STOP ADDMOD 0xD STOP CALLER "
				},
				"gasEstimates": {
					"creation": {
						"codeDepositCost": "386200",
						"executionCost": "424",
						"totalCost": "386624"
					},
					"external": {
						"lastblock(address)": "2858",
						"mint()": "infinite",
						"myNFT(address)": "2814",
						"myblock(address)": "2837",
						"powerSquare(address)": "infinite",
						"transfer()": "infinite",
						"withdraw()": "infinite"
					},
					"internal": {
						"setblock()": "infinite"
					}
				},
				"methodIdentifiers": {
					"lastblock(address)": "dae83f08",
					"mint()": "1249c58b",
					"myNFT(address)": "589cf1d4",
					"myblock(address)": "249bf0d0",
					"powerSquare(address)": "fb2fc0af",
					"transfer()": "8a4068dd",
					"withdraw()": "3ccfd60b"
				}
			},
			"userdoc": {
				"kind": "user",
				"methods": {},
				"version": 1
			}
		}
	}
}